{
  "contractName": "ABCToken",
  "abi": [
    {
      "constant": true,
      "inputs": [],
      "name": "name",
      "outputs": [
        {
          "name": "",
          "type": "string"
        }
      ],
      "payable": false,
      "stateMutability": "view",
      "type": "function",
      "signature": "0x06fdde03"
    },
    {
      "constant": false,
      "inputs": [
        {
          "name": "spender",
          "type": "address"
        },
        {
          "name": "value",
          "type": "uint256"
        }
      ],
      "name": "approve",
      "outputs": [
        {
          "name": "",
          "type": "bool"
        }
      ],
      "payable": false,
      "stateMutability": "nonpayable",
      "type": "function",
      "signature": "0x095ea7b3"
    },
    {
      "constant": true,
      "inputs": [],
      "name": "totalSupply",
      "outputs": [
        {
          "name": "",
          "type": "uint256"
        }
      ],
      "payable": false,
      "stateMutability": "view",
      "type": "function",
      "signature": "0x18160ddd"
    },
    {
      "constant": false,
      "inputs": [
        {
          "name": "from",
          "type": "address"
        },
        {
          "name": "to",
          "type": "address"
        },
        {
          "name": "value",
          "type": "uint256"
        }
      ],
      "name": "transferFrom",
      "outputs": [
        {
          "name": "",
          "type": "bool"
        }
      ],
      "payable": false,
      "stateMutability": "nonpayable",
      "type": "function",
      "signature": "0x23b872dd"
    },
    {
      "constant": true,
      "inputs": [],
      "name": "decimals",
      "outputs": [
        {
          "name": "",
          "type": "uint8"
        }
      ],
      "payable": false,
      "stateMutability": "view",
      "type": "function",
      "signature": "0x313ce567"
    },
    {
      "constant": true,
      "inputs": [],
      "name": "cap",
      "outputs": [
        {
          "name": "",
          "type": "uint256"
        }
      ],
      "payable": false,
      "stateMutability": "view",
      "type": "function",
      "signature": "0x355274ea"
    },
    {
      "constant": false,
      "inputs": [
        {
          "name": "spender",
          "type": "address"
        },
        {
          "name": "addedValue",
          "type": "uint256"
        }
      ],
      "name": "increaseAllowance",
      "outputs": [
        {
          "name": "",
          "type": "bool"
        }
      ],
      "payable": false,
      "stateMutability": "nonpayable",
      "type": "function",
      "signature": "0x39509351"
    },
    {
      "constant": false,
      "inputs": [
        {
          "name": "to",
          "type": "address"
        },
        {
          "name": "value",
          "type": "uint256"
        }
      ],
      "name": "mint",
      "outputs": [
        {
          "name": "",
          "type": "bool"
        }
      ],
      "payable": false,
      "stateMutability": "nonpayable",
      "type": "function",
      "signature": "0x40c10f19"
    },
    {
      "constant": false,
      "inputs": [
        {
          "name": "value",
          "type": "uint256"
        }
      ],
      "name": "burn",
      "outputs": [],
      "payable": false,
      "stateMutability": "nonpayable",
      "type": "function",
      "signature": "0x42966c68"
    },
    {
      "constant": true,
      "inputs": [
        {
          "name": "owner",
          "type": "address"
        }
      ],
      "name": "balanceOf",
      "outputs": [
        {
          "name": "",
          "type": "uint256"
        }
      ],
      "payable": false,
      "stateMutability": "view",
      "type": "function",
      "signature": "0x70a08231"
    },
    {
      "constant": false,
      "inputs": [
        {
          "name": "from",
          "type": "address"
        },
        {
          "name": "value",
          "type": "uint256"
        }
      ],
      "name": "burnFrom",
      "outputs": [],
      "payable": false,
      "stateMutability": "nonpayable",
      "type": "function",
      "signature": "0x79cc6790"
    },
    {
      "constant": true,
      "inputs": [],
      "name": "symbol",
      "outputs": [
        {
          "name": "",
          "type": "string"
        }
      ],
      "payable": false,
      "stateMutability": "view",
      "type": "function",
      "signature": "0x95d89b41"
    },
    {
      "constant": false,
      "inputs": [
        {
          "name": "account",
          "type": "address"
        }
      ],
      "name": "addMinter",
      "outputs": [],
      "payable": false,
      "stateMutability": "nonpayable",
      "type": "function",
      "signature": "0x983b2d56"
    },
    {
      "constant": false,
      "inputs": [],
      "name": "renounceMinter",
      "outputs": [],
      "payable": false,
      "stateMutability": "nonpayable",
      "type": "function",
      "signature": "0x98650275"
    },
    {
      "constant": false,
      "inputs": [
        {
          "name": "spender",
          "type": "address"
        },
        {
          "name": "subtractedValue",
          "type": "uint256"
        }
      ],
      "name": "decreaseAllowance",
      "outputs": [
        {
          "name": "",
          "type": "bool"
        }
      ],
      "payable": false,
      "stateMutability": "nonpayable",
      "type": "function",
      "signature": "0xa457c2d7"
    },
    {
      "constant": false,
      "inputs": [
        {
          "name": "to",
          "type": "address"
        },
        {
          "name": "value",
          "type": "uint256"
        }
      ],
      "name": "transfer",
      "outputs": [
        {
          "name": "",
          "type": "bool"
        }
      ],
      "payable": false,
      "stateMutability": "nonpayable",
      "type": "function",
      "signature": "0xa9059cbb"
    },
    {
      "constant": true,
      "inputs": [
        {
          "name": "account",
          "type": "address"
        }
      ],
      "name": "isMinter",
      "outputs": [
        {
          "name": "",
          "type": "bool"
        }
      ],
      "payable": false,
      "stateMutability": "view",
      "type": "function",
      "signature": "0xaa271e1a"
    },
    {
      "constant": true,
      "inputs": [
        {
          "name": "owner",
          "type": "address"
        },
        {
          "name": "spender",
          "type": "address"
        }
      ],
      "name": "allowance",
      "outputs": [
        {
          "name": "",
          "type": "uint256"
        }
      ],
      "payable": false,
      "stateMutability": "view",
      "type": "function",
      "signature": "0xdd62ed3e"
    },
    {
      "inputs": [
        {
          "name": "name",
          "type": "string"
        },
        {
          "name": "symbol",
          "type": "string"
        },
        {
          "name": "decimals",
          "type": "uint8"
        }
      ],
      "payable": false,
      "stateMutability": "nonpayable",
      "type": "constructor",
      "signature": "constructor"
    },
    {
      "anonymous": false,
      "inputs": [
        {
          "indexed": false,
          "name": "owner",
          "type": "address"
        },
        {
          "indexed": false,
          "name": "balance",
          "type": "uint256"
        }
      ],
      "name": "CreateTokenSuccess",
      "type": "event",
      "signature": "0xa86bfb55674d4b0db322ca362e69e6d61e643492a9637deb81ece83c30556389"
    },
    {
      "anonymous": false,
      "inputs": [
        {
          "indexed": true,
          "name": "account",
          "type": "address"
        }
      ],
      "name": "MinterAdded",
      "type": "event",
      "signature": "0x6ae172837ea30b801fbfcdd4108aa1d5bf8ff775444fd70256b44e6bf3dfc3f6"
    },
    {
      "anonymous": false,
      "inputs": [
        {
          "indexed": true,
          "name": "account",
          "type": "address"
        }
      ],
      "name": "MinterRemoved",
      "type": "event",
      "signature": "0xe94479a9f7e1952cc78f2d6baab678adc1b772d936c6583def489e524cb66692"
    },
    {
      "anonymous": false,
      "inputs": [
        {
          "indexed": true,
          "name": "from",
          "type": "address"
        },
        {
          "indexed": true,
          "name": "to",
          "type": "address"
        },
        {
          "indexed": false,
          "name": "value",
          "type": "uint256"
        }
      ],
      "name": "Transfer",
      "type": "event",
      "signature": "0xddf252ad1be2c89b69c2b068fc378daa952ba7f163c4a11628f55a4df523b3ef"
    },
    {
      "anonymous": false,
      "inputs": [
        {
          "indexed": true,
          "name": "owner",
          "type": "address"
        },
        {
          "indexed": true,
          "name": "spender",
          "type": "address"
        },
        {
          "indexed": false,
          "name": "value",
          "type": "uint256"
        }
      ],
      "name": "Approval",
      "type": "event",
      "signature": "0x8c5be1e5ebec7d5bd14f71427d1e84f3dd0314c0f7b2291e5b200ac8c7c3b925"
    },
    {
      "constant": false,
      "inputs": [],
      "name": "mintToken",
      "outputs": [],
      "payable": false,
      "stateMutability": "nonpayable",
      "type": "function",
      "signature": "0x2004ffd9"
    }
  ],
  "bytecode": "0x60806040523480156200001157600080fd5b5060405162000f2138038062000f21833981018060405260608110156200003757600080fd5b8101908080516401000000008111156200005057600080fd5b820160208101848111156200006457600080fd5b81516401000000008111828201871017156200007f57600080fd5b505092919060200180516401000000008111156200009c57600080fd5b82016020810184811115620000b057600080fd5b8151640100000000811182820187101715620000cb57600080fd5b5050602091820151855191945092506308f0d18060ff8416600a0a029185918591859162000100916003919086019062000242565b5081516200011690600490602085019062000242565b506005805460ff191660ff9290921691909117905550620001429050336401000000006200015d810204565b600081116200015057600080fd5b60075550620002e7915050565b6200017860068264010000000062000b64620001af82021704565b604051600160a060020a038216907f6ae172837ea30b801fbfcdd4108aa1d5bf8ff775444fd70256b44e6bf3dfc3f690600090a250565b600160a060020a0381161515620001c557600080fd5b620001da82826401000000006200020a810204565b15620001e557600080fd5b600160a060020a0316600090815260209190915260409020805460ff19166001179055565b6000600160a060020a03821615156200022257600080fd5b50600160a060020a03166000908152602091909152604090205460ff1690565b828054600181600116156101000203166002900490600052602060002090601f016020900481019282601f106200028557805160ff1916838001178555620002b5565b82800160010185558215620002b5579182015b82811115620002b557825182559160200191906001019062000298565b50620002c3929150620002c7565b5090565b620002e491905b80821115620002c35760008155600101620002ce565b90565b610c2a80620002f76000396000f3fe608060405234801561001057600080fd5b506004361061013e576000357c01000000000000000000000000000000000000000000000000000000009004806342966c68116100ca578063986502751161008e5780639865027514610375578063a457c2d71461037d578063a9059cbb146103a9578063aa271e1a146103d5578063dd62ed3e146103fb5761013e565b806342966c68146102d857806370a08231146102f557806379cc67901461031b57806395d89b4114610347578063983b2d561461034f5761013e565b806323b872dd1161011157806323b872dd14610224578063313ce5671461025a578063355274ea14610278578063395093511461028057806340c10f19146102ac5761013e565b806306fdde0314610143578063095ea7b3146101c057806318160ddd146102005780632004ffd91461021a575b600080fd5b61014b610429565b6040805160208082528351818301528351919283929083019185019080838360005b8381101561018557818101518382015260200161016d565b50505050905090810190601f1680156101b25780820380516001836020036101000a031916815260200191505b509250505060405180910390f35b6101ec600480360360408110156101d657600080fd5b50600160a060020a0381351690602001356104bf565b604080519115158252519081900360200190f35b6102086104d5565b60408051918252519081900360200190f35b6102226104db565b005b6101ec6004803603606081101561023a57600080fd5b50600160a060020a03813581169160208101359091169060400135610540565b610262610597565b6040805160ff9092168252519081900360200190f35b6102086105a0565b6101ec6004803603604081101561029657600080fd5b50600160a060020a0381351690602001356105a6565b6101ec600480360360408110156102c257600080fd5b50600160a060020a0381351690602001356105e2565b610222600480360360208110156102ee57600080fd5b5035610602565b6102086004803603602081101561030b57600080fd5b5035600160a060020a031661060f565b6102226004803603604081101561033157600080fd5b50600160a060020a03813516906020013561062a565b61014b610638565b6102226004803603602081101561036557600080fd5b5035600160a060020a0316610699565b6102226106b6565b6101ec6004803603604081101561039357600080fd5b50600160a060020a0381351690602001356106c1565b6101ec600480360360408110156103bf57600080fd5b50600160a060020a0381351690602001356106fd565b6101ec600480360360208110156103eb57600080fd5b5035600160a060020a031661070a565b6102086004803603604081101561041157600080fd5b50600160a060020a0381358116916020013516610723565b60038054604080516020601f60026000196101006001881615020190951694909404938401819004810282018101909252828152606093909290918301828280156104b55780601f1061048a576101008083540402835291602001916104b5565b820191906000526020600020905b81548152906001019060200180831161049857829003601f168201915b5050505050905090565b60006104cc33848461074e565b50600192915050565b60025490565b6104f0336a7c13bc4b2c133c560000006105e2565b507fa86bfb55674d4b0db322ca362e69e6d61e643492a9637deb81ece83c305563893361051c3361060f565b60408051600160a060020a03909316835260208301919091528051918290030190a1565b600061054d8484846107da565b600160a060020a03841660009081526001602090815260408083203380855292529091205461058d918691610588908663ffffffff6108a716565b61074e565b5060019392505050565b60055460ff1690565b60075490565b336000818152600160209081526040808320600160a060020a038716845290915281205490916104cc918590610588908663ffffffff6108bc16565b60006105ed3361070a565b15156105f857600080fd5b6104cc83836108d5565b61060c3382610905565b50565b600160a060020a031660009081526020819052604090205490565b61063482826109ae565b5050565b60048054604080516020601f60026000196101006001881615020190951694909404938401819004810282018101909252828152606093909290918301828280156104b55780601f1061048a576101008083540402835291602001916104b5565b6106a23361070a565b15156106ad57600080fd5b61060c816109f3565b6106bf33610a3b565b565b336000818152600160209081526040808320600160a060020a038716845290915281205490916104cc918590610588908663ffffffff6108a716565b60006104cc3384846107da565b600061071d60068363ffffffff610a8316565b92915050565b600160a060020a03918216600090815260016020908152604080832093909416825291909152205490565b600160a060020a038216151561076357600080fd5b600160a060020a038316151561077857600080fd5b600160a060020a03808416600081815260016020908152604080832094871680845294825291829020859055815185815291517f8c5be1e5ebec7d5bd14f71427d1e84f3dd0314c0f7b2291e5b200ac8c7c3b9259281900390910190a3505050565b600160a060020a03821615156107ef57600080fd5b600160a060020a038316600090815260208190526040902054610818908263ffffffff6108a716565b600160a060020a03808516600090815260208190526040808220939093559084168152205461084d908263ffffffff6108bc16565b600160a060020a038084166000818152602081815260409182902094909455805185815290519193928716927fddf252ad1be2c89b69c2b068fc378daa952ba7f163c4a11628f55a4df523b3ef92918290030190a3505050565b6000828211156108b657600080fd5b50900390565b6000828201838110156108ce57600080fd5b9392505050565b6007546108f0826108e46104d5565b9063ffffffff6108bc16565b11156108fb57600080fd5b6106348282610aba565b600160a060020a038216151561091a57600080fd5b60025461092d908263ffffffff6108a716565b600255600160a060020a038216600090815260208190526040902054610959908263ffffffff6108a716565b600160a060020a038316600081815260208181526040808320949094558351858152935191937fddf252ad1be2c89b69c2b068fc378daa952ba7f163c4a11628f55a4df523b3ef929081900390910190a35050565b6109b88282610905565b600160a060020a038216600090815260016020908152604080832033808552925290912054610634918491610588908563ffffffff6108a716565b610a0460068263ffffffff610b6416565b604051600160a060020a038216907f6ae172837ea30b801fbfcdd4108aa1d5bf8ff775444fd70256b44e6bf3dfc3f690600090a250565b610a4c60068263ffffffff610bb216565b604051600160a060020a038216907fe94479a9f7e1952cc78f2d6baab678adc1b772d936c6583def489e524cb6669290600090a250565b6000600160a060020a0382161515610a9a57600080fd5b50600160a060020a03166000908152602091909152604090205460ff1690565b600160a060020a0382161515610acf57600080fd5b600254610ae2908263ffffffff6108bc16565b600255600160a060020a038216600090815260208190526040902054610b0e908263ffffffff6108bc16565b600160a060020a0383166000818152602081815260408083209490945583518581529351929391927fddf252ad1be2c89b69c2b068fc378daa952ba7f163c4a11628f55a4df523b3ef9281900390910190a35050565b600160a060020a0381161515610b7957600080fd5b610b838282610a83565b15610b8d57600080fd5b600160a060020a0316600090815260209190915260409020805460ff19166001179055565b600160a060020a0381161515610bc757600080fd5b610bd18282610a83565b1515610bdc57600080fd5b600160a060020a0316600090815260209190915260409020805460ff1916905556fea165627a7a72305820558f3419dc31e41b77b989ac01395410e54ae88effd5679d46411455d657b0900029",
  "source": "pragma solidity >=0.4.21 <0.6.0;\n\nimport \"../node_modules/openzeppelin-solidity/contracts/token/ERC20/ERC20.sol\";\nimport \"../node_modules/openzeppelin-solidity/contracts/token/ERC20/ERC20Detailed.sol\";\nimport \"../node_modules/openzeppelin-solidity/contracts/token/ERC20/ERC20Capped.sol\";\nimport \"../node_modules/openzeppelin-solidity/contracts/token/ERC20/ERC20Burnable.sol\";\n\n// 测试用的Token\ncontract ABCToken is ERC20, ERC20Detailed, ERC20Burnable, ERC20Capped {\n\n    event CreateTokenSuccess(address owner, uint256 balance);\n\n    constructor(\n        string memory name,\n        string memory symbol,\n        uint8 decimals\n    )\n        ERC20Burnable()\n        ERC20Capped(150000000 * (10 ** uint256(decimals)))\n        ERC20Detailed(name, symbol, decimals)\n        ERC20()\n        public\n    {\n        // 创建1.5亿个\n        // mint(msg.sender,150000000 * (10 ** uint256(decimals)));\n        // emit CreateTokenSuccess(msg.sender,balanceOf(msg.sender));\n    }\n\n    function mintToken() public {\n        // 创建1.5亿个\n        mint(msg.sender,150000000 * (10 ** uint256(18)));\n        emit CreateTokenSuccess(msg.sender,balanceOf(msg.sender));\n    }\n}",
  "sourcePath": "/Users/a186r/dev/sourcecode/contracts/contract/contract/contracts/ABCToken.sol",
  "compiler": {
    "name": "solc",
    "version": "0.5.2+commit.1df8f40c.Emscripten.clang"
  },
  "schemaVersion": "3.0.6",
  "updatedAt": "2019-05-27T15:34:59.774Z",
  "devdoc": {
    "methods": {
      "allowance(address,address)": {
        "details": "Function to check the amount of tokens that an owner allowed to a spender.",
        "params": {
          "owner": "address The address which owns the funds.",
          "spender": "address The address which will spend the funds."
        },
        "return": "A uint256 specifying the amount of tokens still available for the spender."
      },
      "approve(address,uint256)": {
        "details": "Approve the passed address to spend the specified amount of tokens on behalf of msg.sender. Beware that changing an allowance with this method brings the risk that someone may use both the old and the new allowance by unfortunate transaction ordering. One possible solution to mitigate this race condition is to first reduce the spender's allowance to 0 and set the desired value afterwards: https://github.com/ethereum/EIPs/issues/20#issuecomment-263524729",
        "params": {
          "spender": "The address which will spend the funds.",
          "value": "The amount of tokens to be spent."
        }
      },
      "balanceOf(address)": {
        "details": "Gets the balance of the specified address.",
        "params": {
          "owner": "The address to query the balance of."
        },
        "return": "A uint256 representing the amount owned by the passed address."
      },
      "burn(uint256)": {
        "details": "Burns a specific amount of tokens.",
        "params": {
          "value": "The amount of token to be burned."
        }
      },
      "burnFrom(address,uint256)": {
        "details": "Burns a specific amount of tokens from the target address and decrements allowance",
        "params": {
          "from": "address The account whose tokens will be burned.",
          "value": "uint256 The amount of token to be burned."
        }
      },
      "cap()": {
        "return": "the cap for the token minting."
      },
      "decimals()": {
        "return": "the number of decimals of the token."
      },
      "decreaseAllowance(address,uint256)": {
        "details": "Decrease the amount of tokens that an owner allowed to a spender. approve should be called when _allowed[msg.sender][spender] == 0. To decrement allowed value is better to use this function to avoid 2 calls (and wait until the first transaction is mined) From MonolithDAO Token.sol Emits an Approval event.",
        "params": {
          "spender": "The address which will spend the funds.",
          "subtractedValue": "The amount of tokens to decrease the allowance by."
        }
      },
      "increaseAllowance(address,uint256)": {
        "details": "Increase the amount of tokens that an owner allowed to a spender. approve should be called when _allowed[msg.sender][spender] == 0. To increment allowed value is better to use this function to avoid 2 calls (and wait until the first transaction is mined) From MonolithDAO Token.sol Emits an Approval event.",
        "params": {
          "addedValue": "The amount of tokens to increase the allowance by.",
          "spender": "The address which will spend the funds."
        }
      },
      "mint(address,uint256)": {
        "details": "Function to mint tokens",
        "params": {
          "to": "The address that will receive the minted tokens.",
          "value": "The amount of tokens to mint."
        },
        "return": "A boolean that indicates if the operation was successful."
      },
      "name()": {
        "return": "the name of the token."
      },
      "symbol()": {
        "return": "the symbol of the token."
      },
      "totalSupply()": {
        "details": "Total number of tokens in existence"
      },
      "transfer(address,uint256)": {
        "details": "Transfer token to a specified address",
        "params": {
          "to": "The address to transfer to.",
          "value": "The amount to be transferred."
        }
      },
      "transferFrom(address,address,uint256)": {
        "details": "Transfer tokens from one address to another. Note that while this function emits an Approval event, this is not required as per the specification, and other compliant implementations may not emit the event.",
        "params": {
          "from": "address The address which you want to send tokens from",
          "to": "address The address which you want to transfer to",
          "value": "uint256 the amount of tokens to be transferred"
        }
      }
    }
  },
  "userdoc": {
    "methods": {}
  }
}