{
  "contractName": "Authority",
  "abi": [
    {
      "constant": false,
      "inputs": [],
      "name": "renounceOwnership",
      "outputs": [],
      "payable": false,
      "stateMutability": "nonpayable",
      "type": "function",
      "signature": "0x715018a6"
    },
    {
      "constant": true,
      "inputs": [],
      "name": "owner",
      "outputs": [
        {
          "name": "",
          "type": "address"
        }
      ],
      "payable": false,
      "stateMutability": "view",
      "type": "function",
      "signature": "0x8da5cb5b"
    },
    {
      "constant": true,
      "inputs": [],
      "name": "isOwner",
      "outputs": [
        {
          "name": "",
          "type": "bool"
        }
      ],
      "payable": false,
      "stateMutability": "view",
      "type": "function",
      "signature": "0x8f32d59b"
    },
    {
      "constant": false,
      "inputs": [
        {
          "name": "newOwner",
          "type": "address"
        }
      ],
      "name": "transferOwnership",
      "outputs": [],
      "payable": false,
      "stateMutability": "nonpayable",
      "type": "function",
      "signature": "0xf2fde38b"
    },
    {
      "inputs": [],
      "payable": false,
      "stateMutability": "nonpayable",
      "type": "constructor",
      "signature": "constructor"
    },
    {
      "anonymous": false,
      "inputs": [
        {
          "indexed": false,
          "name": "hasAccess",
          "type": "bool"
        }
      ],
      "name": "SetAuthority",
      "type": "event",
      "signature": "0xc783e46ac4ae471cef8b5d3f1e226e4a6b30da62728c90f1ef4883bef011c744"
    },
    {
      "anonymous": false,
      "inputs": [
        {
          "indexed": true,
          "name": "previousOwner",
          "type": "address"
        },
        {
          "indexed": true,
          "name": "newOwner",
          "type": "address"
        }
      ],
      "name": "OwnershipTransferred",
      "type": "event",
      "signature": "0x8be0079c531659141344cd1fd0a4f28419497f9722a3daafe3b4186f6b6457e0"
    },
    {
      "constant": false,
      "inputs": [
        {
          "name": "_authority",
          "type": "address"
        }
      ],
      "name": "setAuthority",
      "outputs": [],
      "payable": false,
      "stateMutability": "nonpayable",
      "type": "function",
      "signature": "0x7a9e5e4b"
    }
  ],
  "bytecode": "0x608060405234801561001057600080fd5b5060008054600160a060020a0319163317808255604051600160a060020a039190911691907f8be0079c531659141344cd1fd0a4f28419497f9722a3daafe3b4186f6b6457e0908290a36102d7806100696000396000f3fe608060405234801561001057600080fd5b5060043610610073577c01000000000000000000000000000000000000000000000000000000006000350463715018a681146100785780637a9e5e4b146100825780638da5cb5b146100a85780638f32d59b146100cc578063f2fde38b146100e8575b600080fd5b61008061010e565b005b6100806004803603602081101561009857600080fd5b5035600160a060020a0316610178565b6100b06101ef565b60408051600160a060020a039092168252519081900360200190f35b6100d46101fe565b604080519115158252519081900360200190f35b610080600480360360208110156100fe57600080fd5b5035600160a060020a031661020f565b6101166101fe565b151561012157600080fd5b60008054604051600160a060020a03909116907f8be0079c531659141344cd1fd0a4f28419497f9722a3daafe3b4186f6b6457e0908390a36000805473ffffffffffffffffffffffffffffffffffffffff19169055565b6101806101fe565b151561018b57600080fd5b600160a060020a038116600090815260016020818152604092839020805460ff191690921791829055825160ff9092161515825291517fc783e46ac4ae471cef8b5d3f1e226e4a6b30da62728c90f1ef4883bef011c744929181900390910190a150565b600054600160a060020a031690565b600054600160a060020a0316331490565b6102176101fe565b151561022257600080fd5b61022b8161022e565b50565b600160a060020a038116151561024357600080fd5b60008054604051600160a060020a03808516939216917f8be0079c531659141344cd1fd0a4f28419497f9722a3daafe3b4186f6b6457e091a36000805473ffffffffffffffffffffffffffffffffffffffff1916600160a060020a039290921691909117905556fea165627a7a7230582002ff45a7a230247a2f43b652f94501c2db87e23ec58c9d619c7c1137c82cda440029",
  "source": "pragma solidity >=0.4.21 <0.6.0;\nimport \"../node_modules/openzeppelin-solidity/contracts/ownership/Ownable.sol\";\n\ncontract Authority is Ownable{\n\n    mapping(address => bool) hasAccess;\n\n    event SetAuthority(bool hasAccess);\n\n    constructor () public {\n    }\n\n    modifier onlyAuthority() {\n        // require(hasAccess[msg.sender], \"调用者必须是ResonanceDataManage合约\");\n        _;\n    }\n\n    function setAuthority(address _authority) public onlyOwner() {\n        hasAccess[_authority] = true;\n        emit SetAuthority(hasAccess[_authority]);\n    }\n}",
  "sourcePath": "/Users/a186r/dev/sourcecode/contract/contract/contracts/Authority.sol",
  "compiler": {
    "name": "solc",
    "version": "0.5.2+commit.1df8f40c.Emscripten.clang"
  },
  "schemaVersion": "3.0.6",
  "updatedAt": "2019-06-04T04:52:50.744Z",
  "devdoc": {
    "methods": {
      "isOwner()": {
        "return": "true if `msg.sender` is the owner of the contract."
      },
      "owner()": {
        "return": "the address of the owner."
      },
      "renounceOwnership()": {
        "details": "Allows the current owner to relinquish control of the contract. It will not be possible to call the functions with the `onlyOwner` modifier anymore."
      },
      "transferOwnership(address)": {
        "details": "Allows the current owner to transfer control of the contract to a newOwner.",
        "params": {
          "newOwner": "The address to transfer ownership to."
        }
      }
    }
  },
  "userdoc": {
    "methods": {
      "renounceOwnership()": {
        "notice": "Renouncing ownership will leave the contract without an owner, thereby removing any functionality that is only available to the owner."
      }
    }
  }
}