{
  "contractName": "FaithReward",
  "abi": [
    {
      "constant": true,
      "inputs": [
        {
          "name": "",
          "type": "address"
        }
      ],
      "name": "faithRewardAmount",
      "outputs": [
        {
          "name": "",
          "type": "uint256"
        }
      ],
      "payable": false,
      "stateMutability": "view",
      "type": "function"
    },
    {
      "constant": true,
      "inputs": [],
      "name": "faithRewardFinished",
      "outputs": [
        {
          "name": "",
          "type": "bool"
        }
      ],
      "payable": false,
      "stateMutability": "view",
      "type": "function"
    },
    {
      "constant": true,
      "inputs": [
        {
          "name": "",
          "type": "uint256"
        }
      ],
      "name": "faithWinners",
      "outputs": [
        {
          "name": "",
          "type": "address"
        }
      ],
      "payable": false,
      "stateMutability": "view",
      "type": "function"
    },
    {
      "inputs": [],
      "payable": false,
      "stateMutability": "nonpayable",
      "type": "constructor"
    },
    {
      "anonymous": false,
      "inputs": [
        {
          "indexed": false,
          "name": "_faithWinners",
          "type": "address[]"
        },
        {
          "indexed": false,
          "name": "_faithRewardAmount",
          "type": "uint256[]"
        }
      ],
      "name": "FaithWinnerInfo",
      "type": "event"
    },
    {
      "constant": true,
      "inputs": [],
      "name": "getFaithWinnerInfo",
      "outputs": [
        {
          "name": "",
          "type": "uint256"
        },
        {
          "name": "",
          "type": "address[]"
        },
        {
          "name": "",
          "type": "uint256[]"
        }
      ],
      "payable": false,
      "stateMutability": "view",
      "type": "function"
    },
    {
      "constant": false,
      "inputs": [
        {
          "name": "_faithWinners",
          "type": "address[]"
        },
        {
          "name": "_totalFaithReward",
          "type": "uint256"
        }
      ],
      "name": "dealFaithWinner",
      "outputs": [
        {
          "name": "",
          "type": "bool"
        }
      ],
      "payable": false,
      "stateMutability": "nonpayable",
      "type": "function"
    }
  ],
  "bytecode": "0x608060405234801561001057600080fd5b506105ef806100206000396000f3fe608060405234801561001057600080fd5b5060043610610073577c010000000000000000000000000000000000000000000000000000000060003504631e238d1081146100785780634a68178714610131578063856924e914610169578063c62461cc14610171578063f3d8fcd414610219575b600080fd5b61011d6004803603604081101561008e57600080fd5b8101906020810181356401000000008111156100a957600080fd5b8201836020820111156100bb57600080fd5b803590602001918460208302840111640100000000831117156100dd57600080fd5b9190808060200260200160405190810160405280939291908181526020018383602002808284376000920191909152509295505091359250610252915050565b604080519115158252519081900360200190f35b6101576004803603602081101561014757600080fd5b5035600160a060020a0316610438565b60408051918252519081900360200190f35b61011d61044a565b610179610453565b604051808481526020018060200180602001838103835285818151815260200191508051906020019060200280838360005b838110156101c35781810151838201526020016101ab565b50505050905001838103825284818151815260200191508051906020019060200280838360005b838110156102025781810151838201526020016101ea565b505050509050019550505050505060405180910390f35b6102366004803603602081101561022f57600080fd5b5035610518565b60408051600160a060020a039092168252519081900360200190f35b60035460009060ff16156102b1576040517f08c379a000000000000000000000000000000000000000000000000000000000815260040180806020018281038252602d815260200180610597602d913960400191505060405180910390fd5b60005b835181101561041857801515610320576102e660646102da85601463ffffffff61054016565b9063ffffffff61057216565b6001600086848151811015156102f857fe5b6020908102909101810151600160a060020a03168252810191909152604001600020556103c4565b600181101580156103315750600381105b1561034c576102e660646102da85600f63ffffffff61054016565b6003811015801561035d5750600681105b15610378576102e660646102da85600a63ffffffff61054016565b61038e60646102da85600563ffffffff61054016565b6001600086848151811015156103a057fe5b6020908102909101810151600160a060020a03168252810191909152604001600020555b60026001600086848151811015156103d857fe5b6020908102909101810151600160a060020a03168252818101929092526040016000908120548354600181810186559483529290912090910155016102b4565b50506003805460ff191660011790819055600482905560ff165b92915050565b60016020526000908152604090205481565b60035460ff1681565b600060608060045460006002818054806020026020016040519081016040528092919081815260200182805480156104b457602002820191906000526020600020905b8154600160a060020a03168152600190910190602001808311610496575b505050505091508080548060200260200160405190810160405280929190818152602001828054801561050657602002820191906000526020600020905b8154815260200190600101908083116104f2575b50505050509050925092509250909192565b600080548290811061052657fe5b600091825260209091200154600160a060020a0316905081565b600082151561055157506000610432565b82820282848281151561056057fe5b041461056b57600080fd5b9392505050565b600080821161058057600080fd5b6000828481151561058d57fe5b0494935050505056fee5bd93e5898de8bdaee6aca1e79a84e4bfa1e4bbb0e5a596e58ab1e5b7b2e7bb8fe8aea1e7ae97e5ae8ce68890a165627a7a72305820cf7c2c225ad4e26f19f797e6b4780c7330df9837b5ee744d7612d7ae7a36fcb30029",
  "source": "pragma solidity >=0.4.21 <0.6.0;\n\nimport \"../node_modules/openzeppelin-solidity/contracts/math/SafeMath.sol\";\n\n// 信仰奖励\ncontract FaithReward{\n    using SafeMath for uint256;\n\n    event FaithWinnerInfo(address[] _faithWinners, uint256[] _faithRewardAmount);\n\n    // 信仰奖励获奖者\n    address[] public faithWinners;\n\n    // 信仰奖励金额\n    mapping(address => uint256) public faithRewardAmount;\n\n    uint256[] faithAmounts;\n\n    // 信仰奖励分配结束\n    bool public faithRewardFinished;\n\n    uint256 totalFaithReward;\n\n    constructor() public {\n\n    }\n\n    /// @notice 获取某轮次信仰奖励信息\n    /// @return 轮次、获胜者列表、获胜者奖金列表\n    function getFaithWinnerInfo()\n        public\n        view\n        returns(uint256, address[] memory, uint256[] memory)\n    {\n        // emit FaithWinnerInfo(faithWinners, faithAmounts);\n        return(totalFaithReward, faithWinners, faithAmounts);\n    }\n\n    // 链下排序,链上计算奖励分配\n    // _faithWinners 信仰者名单\n    function dealFaithWinner(\n        address[] memory _faithWinners,\n        uint256 _totalFaithReward\n    )\n        public\n        returns(bool)\n    {\n        require(!faithRewardFinished, \"当前轮次的信仰奖励已经计算完成\");\n\n        for(uint i = 0 ; i < _faithWinners.length; i++){\n            if(i == 0){ // 第1名获得3%的奖励\n                faithRewardAmount[_faithWinners[i]] = _totalFaithReward.mul(20).div(100);\n            }else if(i >= 1 && i < 3){ // 第2、3名获得15%的奖励\n                faithRewardAmount[_faithWinners[i]] = _totalFaithReward.mul(15).div(100);\n            }else if(i >= 3 && i < 6){ // 第4、5、6名各获得1%的奖励\n                faithRewardAmount[_faithWinners[i]] = _totalFaithReward.mul(10).div(100);\n            }else{ // 第7、8、9、10各获得0.5%奖励\n                faithRewardAmount[_faithWinners[i]] = _totalFaithReward.mul(5).div(100);\n            }\n            faithAmounts.push(faithRewardAmount[_faithWinners[i]]);\n        }\n\n        // 信仰奖励已经分配完成\n        faithRewardFinished = true;\n        totalFaithReward = _totalFaithReward;\n        return faithRewardFinished;\n    }\n\n}",
  "sourcePath": "/Users/a186r/dev/contracts/contract/contract/contracts/FaithReward.sol",
  "compiler": {
    "name": "solc",
    "version": "0.5.2+commit.1df8f40c.Emscripten.clang"
  },
  "schemaVersion": "3.0.9",
  "updatedAt": "2019-05-30T14:03:46.229Z",
  "devdoc": {
    "methods": {
      "getFaithWinnerInfo()": {
        "return": "轮次、获胜者列表、获胜者奖金列表"
      }
    }
  },
  "userdoc": {
    "methods": {
      "getFaithWinnerInfo()": {
        "notice": "获取某轮次信仰奖励信息"
      }
    }
  }
}