{
  "contractName": "FaithReward",
  "abi": [
    {
      "constant": true,
      "inputs": [
        {
          "name": "",
          "type": "address"
        }
      ],
      "name": "faithRewardAmount",
      "outputs": [
        {
          "name": "",
          "type": "uint256"
        }
      ],
      "payable": false,
      "stateMutability": "view",
      "type": "function"
    },
    {
      "constant": false,
      "inputs": [],
      "name": "renounceOwnership",
      "outputs": [],
      "payable": false,
      "stateMutability": "nonpayable",
      "type": "function"
    },
    {
      "constant": false,
      "inputs": [
        {
          "name": "_authority",
          "type": "address"
        }
      ],
      "name": "setAuthority",
      "outputs": [],
      "payable": false,
      "stateMutability": "nonpayable",
      "type": "function"
    },
    {
      "constant": true,
      "inputs": [],
      "name": "faithRewardFinished",
      "outputs": [
        {
          "name": "",
          "type": "bool"
        }
      ],
      "payable": false,
      "stateMutability": "view",
      "type": "function"
    },
    {
      "constant": true,
      "inputs": [],
      "name": "owner",
      "outputs": [
        {
          "name": "",
          "type": "address"
        }
      ],
      "payable": false,
      "stateMutability": "view",
      "type": "function"
    },
    {
      "constant": true,
      "inputs": [],
      "name": "isOwner",
      "outputs": [
        {
          "name": "",
          "type": "bool"
        }
      ],
      "payable": false,
      "stateMutability": "view",
      "type": "function"
    },
    {
      "constant": false,
      "inputs": [
        {
          "name": "newOwner",
          "type": "address"
        }
      ],
      "name": "transferOwnership",
      "outputs": [],
      "payable": false,
      "stateMutability": "nonpayable",
      "type": "function"
    },
    {
      "constant": true,
      "inputs": [
        {
          "name": "",
          "type": "uint256"
        }
      ],
      "name": "faithWinners",
      "outputs": [
        {
          "name": "",
          "type": "address"
        }
      ],
      "payable": false,
      "stateMutability": "view",
      "type": "function"
    },
    {
      "inputs": [],
      "payable": false,
      "stateMutability": "nonpayable",
      "type": "constructor"
    },
    {
      "anonymous": false,
      "inputs": [
        {
          "indexed": false,
          "name": "_faithWinners",
          "type": "address[]"
        },
        {
          "indexed": false,
          "name": "_faithRewardAmount",
          "type": "uint256[]"
        }
      ],
      "name": "FaithWinnerInfo",
      "type": "event"
    },
    {
      "anonymous": false,
      "inputs": [
        {
          "indexed": true,
          "name": "previousOwner",
          "type": "address"
        },
        {
          "indexed": true,
          "name": "newOwner",
          "type": "address"
        }
      ],
      "name": "OwnershipTransferred",
      "type": "event"
    },
    {
      "constant": true,
      "inputs": [],
      "name": "getFaithWinnerInfo",
      "outputs": [
        {
          "name": "",
          "type": "uint256"
        },
        {
          "name": "",
          "type": "address[]"
        },
        {
          "name": "",
          "type": "uint256[]"
        }
      ],
      "payable": false,
      "stateMutability": "view",
      "type": "function"
    },
    {
      "constant": false,
      "inputs": [
        {
          "name": "_faithWinners",
          "type": "address[]"
        },
        {
          "name": "_totalFaithReward",
          "type": "uint256"
        }
      ],
      "name": "dealFaithWinner",
      "outputs": [
        {
          "name": "",
          "type": "bool"
        }
      ],
      "payable": false,
      "stateMutability": "nonpayable",
      "type": "function"
    }
  ],
  "bytecode": "0x608060405234801561001057600080fd5b5060008054600160a060020a0319163317808255604051600160a060020a039190911691907f8be0079c531659141344cd1fd0a4f28419497f9722a3daafe3b4186f6b6457e0908290a36109b6806100696000396000f3006080604052600436106100a35763ffffffff7c01000000000000000000000000000000000000000000000000000000006000350416631e238d1081146100a85780634a68178714610113578063715018a6146101465780637a9e5e4b1461015d578063856924e91461017e5780638da5cb5b146101935780638f32d59b146101c4578063c62461cc146101d9578063f2fde38b1461028e578063f3d8fcd4146102af575b600080fd5b3480156100b457600080fd5b50604080516020600480358082013583810280860185019096528085526100ff9536959394602494938501929182918501908490808284375094975050933594506102c79350505050565b604080519115158252519081900360200190f35b34801561011f57600080fd5b50610134600160a060020a03600435166105c1565b60408051918252519081900360200190f35b34801561015257600080fd5b5061015b6105d3565b005b34801561016957600080fd5b5061015b600160a060020a036004351661063d565b34801561018a57600080fd5b506100ff610677565b34801561019f57600080fd5b506101a8610680565b60408051600160a060020a039092168252519081900360200190f35b3480156101d057600080fd5b506100ff610690565b3480156101e557600080fd5b506101ee6106a1565b604051808481526020018060200180602001838103835285818151815260200191508051906020019060200280838360005b83811015610238578181015183820152602001610220565b50505050905001838103825284818151815260200191508051906020019060200280838360005b8381101561027757818101518382015260200161025f565b505050509050019550505050505060405180910390f35b34801561029a57600080fd5b5061015b600160a060020a0360043516610766565b3480156102bb57600080fd5b506101a8600435610785565b6005546000908190819060ff161561036657604080517f08c379a000000000000000000000000000000000000000000000000000000000815260206004820152602d60248201527fe5bd93e5898de8bdaee6aca1e79a84e4bfa1e4bbb0e5a596e58ab1e5b7b2e7bb60448201527f8fe8aea1e7ae97e5ae8ce6889000000000000000000000000000000000000000606482015290519081900360840190fd5b8451915081604051908082528060200260200182016040528015610394578160200160208202803883390190505b5080516103a991600491602090910190610886565b50816040519080825280602002602001820160405280156103d4578160200160208202803883390190505b5080516103e9916002916020909101906108d1565b5084516103fd9060029060208801906108d1565b50600090505b84518110156105a55780151561046f57610435606461042986601463ffffffff6107ad16565b9063ffffffff6107e616565b60036000878481518110151561044757fe5b6020908102909101810151600160a060020a0316825281019190915260400160002055610513565b600181101580156104805750600381105b1561049b57610435606461042986600f63ffffffff6107ad16565b600381101580156104ac5750600681105b156104c757610435606461042986600a63ffffffff6107ad16565b6104dd606461042986600563ffffffff6107ad16565b6003600087848151811015156104ef57fe5b6020908102909101810151600160a060020a03168252810191909152604001600020555b600460036000878481518110151561052757fe5b6020908102909101810151600160a060020a031682528181019290925260400160009081205483546001810185559382529181209092015585516003919087908490811061057157fe5b6020908102909101810151600160a060020a0316825281019190915260400160002054600680549091019055600101610403565b6005805460ff19166001179081905560ff169250505092915050565b60036020526000908152604090205481565b6105db610690565b15156105e657600080fd5b60008054604051600160a060020a03909116907f8be0079c531659141344cd1fd0a4f28419497f9722a3daafe3b4186f6b6457e0908390a36000805473ffffffffffffffffffffffffffffffffffffffff19169055565b610645610690565b151561065057600080fd5b600160a060020a03166000908152600160208190526040909120805460ff19169091179055565b60055460ff1681565b600054600160a060020a03165b90565b600054600160a060020a0316331490565b6000606080600654600260048180548060200260200160405190810160405280929190818152602001828054801561070257602002820191906000526020600020905b8154600160a060020a031681526001909101906020018083116106e4575b505050505091508080548060200260200160405190810160405280929190818152602001828054801561075457602002820191906000526020600020905b815481526020019060010190808311610740575b50505050509050925092509250909192565b61076e610690565b151561077957600080fd5b61078281610809565b50565b600280548290811061079357fe5b600091825260209091200154600160a060020a0316905081565b6000808315156107c057600091506107df565b508282028284828115156107d057fe5b04146107db57600080fd5b8091505b5092915050565b6000808083116107f557600080fd5b828481151561080057fe5b04949350505050565b600160a060020a038116151561081e57600080fd5b60008054604051600160a060020a03808516939216917f8be0079c531659141344cd1fd0a4f28419497f9722a3daafe3b4186f6b6457e091a36000805473ffffffffffffffffffffffffffffffffffffffff1916600160a060020a0392909216919091179055565b8280548282559060005260206000209081019282156108c1579160200282015b828111156108c15782518255916020019190600101906108a6565b506108cd92915061093f565b5090565b828054828255906000526020600020908101928215610933579160200282015b82811115610933578251825473ffffffffffffffffffffffffffffffffffffffff1916600160a060020a039091161782556020909201916001909101906108f1565b506108cd929150610959565b61068d91905b808211156108cd5760008155600101610945565b61068d91905b808211156108cd57805473ffffffffffffffffffffffffffffffffffffffff1916815560010161095f5600a165627a7a723058207eb6f7847b8425da066cc9a693a984f3f02e56ba5a7468fe57d1b56437b91de10029",
  "source": "pragma solidity >=0.4.21 <0.6.0;\n\nimport \"../node_modules/openzeppelin-solidity/contracts/math/SafeMath.sol\";\nimport \"./Authority.sol\";\n\n// 信仰奖励\ncontract FaithReward is Authority{\n    using SafeMath for uint256;\n\n    event FaithWinnerInfo(address[] _faithWinners, uint256[] _faithRewardAmount);\n\n    // 信仰奖励获奖者\n    address[] public faithWinners;\n\n    // 信仰奖励金额\n    mapping(address => uint256) public faithRewardAmount;\n\n    uint256[] faithAmounts;\n\n    // 信仰奖励分配结束\n    bool public faithRewardFinished;\n\n    uint256 totalFaithReward;\n\n    constructor() public {\n\n    }\n\n    /// @notice 获取某轮次信仰奖励信息\n    /// @return 轮次、获胜者列表、获胜者奖金列表\n    function getFaithWinnerInfo()\n        public\n        view\n        returns(uint256, address[] memory, uint256[] memory)\n    {\n        // emit FaithWinnerInfo(faithWinners, faithAmounts);\n        return(totalFaithReward, faithWinners, faithAmounts);\n    }\n\n    // 链下排序,链上计算奖励分配\n    // _faithWinners 信仰者名单\n    function dealFaithWinner(\n        address[] memory _faithWinners,\n        uint256 _totalFaithReward\n    )\n        public\n        // onlyAuthority()\n        returns(bool)\n    {\n        require(!faithRewardFinished, \"当前轮次的信仰奖励已经计算完成\");\n\n        uint256 winners;\n\n        winners = _faithWinners.length;\n\n        faithAmounts = new uint256[](winners);\n\n        faithWinners = new address[](winners);\n\n        faithWinners = _faithWinners;\n\n        for(uint i = 0 ; i < _faithWinners.length; i++){\n            if(i == 0){ // 第1名获得3%的奖励\n                faithRewardAmount[_faithWinners[i]] = _totalFaithReward.mul(20).div(100);\n            }else if(i >= 1 && i < 3){ // 第2、3名获得15%的奖励\n                faithRewardAmount[_faithWinners[i]] = _totalFaithReward.mul(15).div(100);\n            }else if(i >= 3 && i < 6){ // 第4、5、6名各获得1%的奖励\n                faithRewardAmount[_faithWinners[i]] = _totalFaithReward.mul(10).div(100);\n            }else{ // 第7、8、9、10各获得0.5%奖励\n                faithRewardAmount[_faithWinners[i]] = _totalFaithReward.mul(5).div(100);\n            }\n\n            faithAmounts.push(faithRewardAmount[_faithWinners[i]]);\n\n            totalFaithReward += faithRewardAmount[_faithWinners[i]];\n        }\n\n        // 信仰奖励已经分配完成\n        faithRewardFinished = true;\n        return faithRewardFinished;\n    }\n\n}",
  "sourcePath": "/root/contract/contract/contracts/FaithReward.sol",
  "compiler": {
    "name": "solc",
    "version": "0.4.24+commit.e67f0147.Emscripten.clang"
  },
  "schemaVersion": "3.0.10",
  "updatedAt": "2019-06-03T22:57:44.029Z",
  "devdoc": {
    "methods": {
      "getFaithWinnerInfo()": {
        "return": "轮次、获胜者列表、获胜者奖金列表"
      },
      "isOwner()": {
        "return": "true if `msg.sender` is the owner of the contract."
      },
      "owner()": {
        "return": "the address of the owner."
      },
      "renounceOwnership()": {
        "details": "Allows the current owner to relinquish control of the contract. It will not be possible to call the functions with the `onlyOwner` modifier anymore."
      },
      "transferOwnership(address)": {
        "details": "Allows the current owner to transfer control of the contract to a newOwner.",
        "params": {
          "newOwner": "The address to transfer ownership to."
        }
      }
    }
  },
  "userdoc": {
    "methods": {
      "getFaithWinnerInfo()": {
        "notice": "获取某轮次信仰奖励信息"
      },
      "renounceOwnership()": {
        "notice": "Renouncing ownership will leave the contract without an owner, thereby removing any functionality that is only available to the owner."
      }
    }
  }
}