{
  "contractName": "FaithReward",
  "abi": [
    {
      "constant": true,
      "inputs": [
        {
          "name": "",
          "type": "address"
        }
      ],
      "name": "faithRewardAmount",
      "outputs": [
        {
          "name": "",
          "type": "uint256"
        }
      ],
      "payable": false,
      "stateMutability": "view",
      "type": "function"
    },
    {
      "constant": false,
      "inputs": [],
      "name": "renounceOwnership",
      "outputs": [],
      "payable": false,
      "stateMutability": "nonpayable",
      "type": "function"
    },
    {
      "constant": true,
      "inputs": [],
      "name": "faithRewardFinished",
      "outputs": [
        {
          "name": "",
          "type": "bool"
        }
      ],
      "payable": false,
      "stateMutability": "view",
      "type": "function"
    },
    {
      "constant": true,
      "inputs": [],
      "name": "owner",
      "outputs": [
        {
          "name": "",
          "type": "address"
        }
      ],
      "payable": false,
      "stateMutability": "view",
      "type": "function"
    },
    {
      "constant": true,
      "inputs": [],
      "name": "isOwner",
      "outputs": [
        {
          "name": "",
          "type": "bool"
        }
      ],
      "payable": false,
      "stateMutability": "view",
      "type": "function"
    },
    {
      "constant": false,
      "inputs": [
        {
          "name": "newOwner",
          "type": "address"
        }
      ],
      "name": "transferOwnership",
      "outputs": [],
      "payable": false,
      "stateMutability": "nonpayable",
      "type": "function"
    },
    {
      "constant": true,
      "inputs": [
        {
          "name": "",
          "type": "uint256"
        }
      ],
      "name": "faithWinners",
      "outputs": [
        {
          "name": "",
          "type": "address"
        }
      ],
      "payable": false,
      "stateMutability": "view",
      "type": "function"
    },
    {
      "inputs": [],
      "payable": false,
      "stateMutability": "nonpayable",
      "type": "constructor"
    },
    {
      "anonymous": false,
      "inputs": [
        {
          "indexed": false,
          "name": "_faithWinners",
          "type": "address[]"
        },
        {
          "indexed": false,
          "name": "_faithRewardAmount",
          "type": "uint256[]"
        }
      ],
      "name": "FaithWinnerInfo",
      "type": "event"
    },
    {
      "anonymous": false,
      "inputs": [
        {
          "indexed": true,
          "name": "previousOwner",
          "type": "address"
        },
        {
          "indexed": true,
          "name": "newOwner",
          "type": "address"
        }
      ],
      "name": "OwnershipTransferred",
      "type": "event"
    },
    {
      "constant": true,
      "inputs": [],
      "name": "getFaithWinnerInfo",
      "outputs": [
        {
          "name": "",
          "type": "uint256"
        },
        {
          "name": "",
          "type": "address[]"
        },
        {
          "name": "",
          "type": "uint256[]"
        }
      ],
      "payable": false,
      "stateMutability": "view",
      "type": "function"
    },
    {
      "constant": false,
      "inputs": [
        {
          "name": "_faithWinners",
          "type": "address[]"
        },
        {
          "name": "_totalFaithReward",
          "type": "uint256"
        }
      ],
      "name": "dealFaithWinner",
      "outputs": [
        {
          "name": "",
          "type": "bool"
        }
      ],
      "payable": false,
      "stateMutability": "nonpayable",
      "type": "function"
    }
  ],
  "bytecode": "0x608060405234801561001057600080fd5b5060008054600160a060020a0319163317808255604051600160a060020a039190911691907f8be0079c531659141344cd1fd0a4f28419497f9722a3daafe3b4186f6b6457e0908290a36109e4806100696000396000f3fe608060405234801561001057600080fd5b50600436106100b0576000357c0100000000000000000000000000000000000000000000000000000000900480638da5cb5b116100835780638da5cb5b146101b85780638f32d59b146101dc578063c62461cc146101e4578063f2fde38b1461028c578063f3d8fcd4146102b2576100b0565b80631e238d10146100b55780634a6817871461016e578063715018a6146101a6578063856924e9146101b0575b600080fd5b61015a600480360360408110156100cb57600080fd5b8101906020810181356401000000008111156100e657600080fd5b8201836020820111156100f857600080fd5b8035906020019184602083028401116401000000008311171561011a57600080fd5b91908080602002602001604051908101604052809392919081815260200183836020028082843760009201919091525092955050913592506102cf915050565b604080519115158252519081900360200190f35b6101946004803603602081101561018457600080fd5b5035600160a060020a0316610602565b60408051918252519081900360200190f35b6101ae610614565b005b61015a61067e565b6101c0610687565b60408051600160a060020a039092168252519081900360200190f35b61015a610697565b6101ec6106a8565b604051808481526020018060200180602001838103835285818151815260200191508051906020019060200280838360005b8381101561023657818101518382015260200161021e565b50505050905001838103825284818151815260200191508051906020019060200280838360005b8381101561027557818101518382015260200161025d565b505050509050019550505050505060405180910390f35b6101ae600480360360208110156102a257600080fd5b5035600160a060020a031661076d565b6101c0600480360360208110156102c857600080fd5b503561078c565b60006102d9610687565b600160a060020a0316321461034f57604080517f08c379a000000000000000000000000000000000000000000000000000000000815260206004820152601b60248201527fe8b083e794a8e88085e6b2a1e69c89e8b083e794a8e69d83e999900000000000604482015290519081900360640190fd5b60045460ff16156103ab576040517f08c379a000000000000000000000000000000000000000000000000000000000815260040180806020018281038252602d81526020018061098c602d913960400191505060405180910390fd5b82516040805182815260208084028201019091528180156103d6578160200160208202803883390190505b5080516103eb91600391602090910190610887565b5080604051908082528060200260200182016040528015610416578160200160208202803883390190505b50805161042b916001916020909101906108d2565b50835161043f9060019060208701906108d2565b5060005b84518110156105e5578015156104af57610475606461046986601463ffffffff6107b416565b9063ffffffff6107e616565b60026000878481518110151561048757fe5b6020908102909101810151600160a060020a0316825281019190915260400160002055610553565b600181101580156104c05750600381105b156104db57610475606461046986600f63ffffffff6107b416565b600381101580156104ec5750600681105b1561050757610475606461046986600a63ffffffff6107b416565b61051d606461046986600563ffffffff6107b416565b60026000878481518110151561052f57fe5b6020908102909101810151600160a060020a03168252810191909152604001600020555b600360026000878481518110151561056757fe5b6020908102909101810151600160a060020a03168252818101929092526040016000908120548354600181018555938252918120909201558551600291908790849081106105b157fe5b6020908102909101810151600160a060020a0316825281019190915260400160002054600580549091019055600101610443565b50506004805460ff19166001179081905560ff1690505b92915050565b60026020526000908152604090205481565b61061c610697565b151561062757600080fd5b60008054604051600160a060020a03909116907f8be0079c531659141344cd1fd0a4f28419497f9722a3daafe3b4186f6b6457e0908390a36000805473ffffffffffffffffffffffffffffffffffffffff19169055565b60045460ff1681565b600054600160a060020a03165b90565b600054600160a060020a0316331490565b6000606080600554600160038180548060200260200160405190810160405280929190818152602001828054801561070957602002820191906000526020600020905b8154600160a060020a031681526001909101906020018083116106eb575b505050505091508080548060200260200160405190810160405280929190818152602001828054801561075b57602002820191906000526020600020905b815481526020019060010190808311610747575b50505050509050925092509250909192565b610775610697565b151561078057600080fd5b6107898161080a565b50565b600180548290811061079a57fe5b600091825260209091200154600160a060020a0316905081565b60008215156107c5575060006105fc565b8282028284828115156107d457fe5b04146107df57600080fd5b9392505050565b60008082116107f457600080fd5b6000828481151561080157fe5b04949350505050565b600160a060020a038116151561081f57600080fd5b60008054604051600160a060020a03808516939216917f8be0079c531659141344cd1fd0a4f28419497f9722a3daafe3b4186f6b6457e091a36000805473ffffffffffffffffffffffffffffffffffffffff1916600160a060020a0392909216919091179055565b8280548282559060005260206000209081019282156108c2579160200282015b828111156108c25782518255916020019190600101906108a7565b506108ce929150610940565b5090565b828054828255906000526020600020908101928215610934579160200282015b82811115610934578251825473ffffffffffffffffffffffffffffffffffffffff1916600160a060020a039091161782556020909201916001909101906108f2565b506108ce92915061095a565b61069491905b808211156108ce5760008155600101610946565b61069491905b808211156108ce57805473ffffffffffffffffffffffffffffffffffffffff1916815560010161096056fee5bd93e5898de8bdaee6aca1e79a84e4bfa1e4bbb0e5a596e58ab1e5b7b2e7bb8fe8aea1e7ae97e5ae8ce68890a165627a7a72305820d3ee50f7325f397f9dea36b8da339bfa85c69ecf6292a7722c94bb944bb7073a0029",
  "source": "pragma solidity >=0.4.21 <0.6.0;\n\nimport \"../node_modules/openzeppelin-solidity/contracts/math/SafeMath.sol\";\nimport \"../node_modules/openzeppelin-solidity/contracts/ownership/Ownable.sol\";\n\n// 信仰奖励\ncontract FaithReward is Ownable{\n    using SafeMath for uint256;\n\n    event FaithWinnerInfo(address[] _faithWinners, uint256[] _faithRewardAmount);\n\n    // 信仰奖励获奖者\n    address[] public faithWinners;\n\n    // 信仰奖励金额\n    mapping(address => uint256) public faithRewardAmount;\n\n    uint256[] faithAmounts;\n\n    // 信仰奖励分配结束\n    bool public faithRewardFinished;\n\n    uint256 totalFaithReward;\n\n    constructor() public {\n\n    }\n\n    /// @notice 获取某轮次信仰奖励信息\n    /// @return 轮次、获胜者列表、获胜者奖金列表\n    function getFaithWinnerInfo()\n        public\n        view\n        returns(uint256, address[] memory, uint256[] memory)\n    {\n        // emit FaithWinnerInfo(faithWinners, faithAmounts);\n        return(totalFaithReward, faithWinners, faithAmounts);\n    }\n\n    // 链下排序,链上计算奖励分配\n    // _faithWinners 信仰者名单\n    function dealFaithWinner(\n        address[] memory _faithWinners,\n        uint256 _totalFaithReward\n    )\n        public\n        returns(bool)\n    {\n        require(tx.origin == owner(), \"调用者没有调用权限\");\n        require(!faithRewardFinished, \"当前轮次的信仰奖励已经计算完成\");\n\n        uint256 winners;\n\n        winners = _faithWinners.length;\n\n        faithAmounts = new uint256[](winners);\n\n        faithWinners = new address[](winners);\n\n        faithWinners = _faithWinners;\n\n        for(uint i = 0 ; i < _faithWinners.length; i++){\n            if(i == 0){ // 第1名获得3%的奖励\n                faithRewardAmount[_faithWinners[i]] = _totalFaithReward.mul(20).div(100);\n            }else if(i >= 1 && i < 3){ // 第2、3名获得15%的奖励\n                faithRewardAmount[_faithWinners[i]] = _totalFaithReward.mul(15).div(100);\n            }else if(i >= 3 && i < 6){ // 第4、5、6名各获得1%的奖励\n                faithRewardAmount[_faithWinners[i]] = _totalFaithReward.mul(10).div(100);\n            }else{ // 第7、8、9、10各获得0.5%奖励\n                faithRewardAmount[_faithWinners[i]] = _totalFaithReward.mul(5).div(100);\n            }\n\n            faithAmounts.push(faithRewardAmount[_faithWinners[i]]);\n\n            totalFaithReward += faithRewardAmount[_faithWinners[i]];\n        }\n\n        // 信仰奖励已经分配完成\n        faithRewardFinished = true;\n        return faithRewardFinished;\n    }\n\n}",
  "sourcePath": "/root/contract/contract/contracts/FaithReward.sol",
  "compiler": {
    "name": "solc",
    "version": "0.5.2+commit.1df8f40c.Emscripten.clang"
  },
  "schemaVersion": "3.0.10",
  "updatedAt": "2019-06-04T08:29:17.405Z",
  "devdoc": {
    "methods": {
      "getFaithWinnerInfo()": {
        "return": "轮次、获胜者列表、获胜者奖金列表"
      },
      "isOwner()": {
        "return": "true if `msg.sender` is the owner of the contract."
      },
      "owner()": {
        "return": "the address of the owner."
      },
      "renounceOwnership()": {
        "details": "Allows the current owner to relinquish control of the contract. It will not be possible to call the functions with the `onlyOwner` modifier anymore."
      },
      "transferOwnership(address)": {
        "details": "Allows the current owner to transfer control of the contract to a newOwner.",
        "params": {
          "newOwner": "The address to transfer ownership to."
        }
      }
    }
  },
  "userdoc": {
    "methods": {
      "getFaithWinnerInfo()": {
        "notice": "获取某轮次信仰奖励信息"
      },
      "renounceOwnership()": {
        "notice": "Renouncing ownership will leave the contract without an owner, thereby removing any functionality that is only available to the owner."
      }
    }
  }
}