{
  "contractName": "FaithReward",
  "abi": [
    {
      "constant": true,
      "inputs": [
        {
          "name": "",
          "type": "address"
        }
      ],
      "name": "faithRewardAmount",
      "outputs": [
        {
          "name": "",
          "type": "uint256"
        }
      ],
      "payable": false,
      "stateMutability": "view",
      "type": "function",
      "signature": "0x4a681787"
    },
    {
      "constant": false,
      "inputs": [],
      "name": "renounceOwnership",
      "outputs": [],
      "payable": false,
      "stateMutability": "nonpayable",
      "type": "function",
      "signature": "0x715018a6"
    },
    {
      "constant": false,
      "inputs": [
        {
          "name": "_authority",
          "type": "address"
        }
      ],
      "name": "setAuthority",
      "outputs": [],
      "payable": false,
      "stateMutability": "nonpayable",
      "type": "function",
      "signature": "0x7a9e5e4b"
    },
    {
      "constant": true,
      "inputs": [],
      "name": "faithRewardFinished",
      "outputs": [
        {
          "name": "",
          "type": "bool"
        }
      ],
      "payable": false,
      "stateMutability": "view",
      "type": "function",
      "signature": "0x856924e9"
    },
    {
      "constant": true,
      "inputs": [],
      "name": "owner",
      "outputs": [
        {
          "name": "",
          "type": "address"
        }
      ],
      "payable": false,
      "stateMutability": "view",
      "type": "function",
      "signature": "0x8da5cb5b"
    },
    {
      "constant": true,
      "inputs": [],
      "name": "isOwner",
      "outputs": [
        {
          "name": "",
          "type": "bool"
        }
      ],
      "payable": false,
      "stateMutability": "view",
      "type": "function",
      "signature": "0x8f32d59b"
    },
    {
      "constant": false,
      "inputs": [
        {
          "name": "newOwner",
          "type": "address"
        }
      ],
      "name": "transferOwnership",
      "outputs": [],
      "payable": false,
      "stateMutability": "nonpayable",
      "type": "function",
      "signature": "0xf2fde38b"
    },
    {
      "constant": true,
      "inputs": [
        {
          "name": "",
          "type": "uint256"
        }
      ],
      "name": "faithWinners",
      "outputs": [
        {
          "name": "",
          "type": "address"
        }
      ],
      "payable": false,
      "stateMutability": "view",
      "type": "function",
      "signature": "0xf3d8fcd4"
    },
    {
      "inputs": [],
      "payable": false,
      "stateMutability": "nonpayable",
      "type": "constructor",
      "signature": "constructor"
    },
    {
      "anonymous": false,
      "inputs": [
        {
          "indexed": false,
          "name": "_faithWinners",
          "type": "address[]"
        },
        {
          "indexed": false,
          "name": "_faithRewardAmount",
          "type": "uint256[]"
        }
      ],
      "name": "FaithWinnerInfo",
      "type": "event",
      "signature": "0x02685de7aa64f5e622d501021b0c9ef2cbf2e85cbb558fdbbcf909702fe59207"
    },
    {
      "anonymous": false,
      "inputs": [
        {
          "indexed": false,
          "name": "hasAccess",
          "type": "bool"
        }
      ],
      "name": "SetAuthority",
      "type": "event",
      "signature": "0xc783e46ac4ae471cef8b5d3f1e226e4a6b30da62728c90f1ef4883bef011c744"
    },
    {
      "anonymous": false,
      "inputs": [
        {
          "indexed": true,
          "name": "previousOwner",
          "type": "address"
        },
        {
          "indexed": true,
          "name": "newOwner",
          "type": "address"
        }
      ],
      "name": "OwnershipTransferred",
      "type": "event",
      "signature": "0x8be0079c531659141344cd1fd0a4f28419497f9722a3daafe3b4186f6b6457e0"
    },
    {
      "constant": true,
      "inputs": [],
      "name": "getFaithWinnerInfo",
      "outputs": [
        {
          "name": "",
          "type": "uint256"
        },
        {
          "name": "",
          "type": "address[]"
        },
        {
          "name": "",
          "type": "uint256[]"
        }
      ],
      "payable": false,
      "stateMutability": "view",
      "type": "function",
      "signature": "0xc62461cc"
    },
    {
      "constant": false,
      "inputs": [
        {
          "name": "_faithWinners",
          "type": "address[]"
        },
        {
          "name": "_totalFaithReward",
          "type": "uint256"
        }
      ],
      "name": "dealFaithWinner",
      "outputs": [
        {
          "name": "",
          "type": "bool"
        }
      ],
      "payable": false,
      "stateMutability": "nonpayable",
      "type": "function",
      "signature": "0x1e238d10"
    }
  ],
  "bytecode": "0x608060405234801561001057600080fd5b5060008054600160a060020a0319163317808255604051600160a060020a039190911691907f8be0079c531659141344cd1fd0a4f28419497f9722a3daafe3b4186f6b6457e0908290a3610a0f806100696000396000f3fe608060405234801561001057600080fd5b50600436106100bb576000357c0100000000000000000000000000000000000000000000000000000000900480638da5cb5b116100835780638da5cb5b146101e95780638f32d59b1461020d578063c62461cc14610215578063f2fde38b146102bd578063f3d8fcd4146102e3576100bb565b80631e238d10146100c05780634a68178714610179578063715018a6146101b15780637a9e5e4b146101bb578063856924e9146101e1575b600080fd5b610165600480360360408110156100d657600080fd5b8101906020810181356401000000008111156100f157600080fd5b82018360208201111561010357600080fd5b8035906020019184602083028401116401000000008311171561012557600080fd5b9190808060200260200160405190810160405280939291908181526020018383602002808284376000920191909152509295505091359250610300915050565b604080519115158252519081900360200190f35b61019f6004803603602081101561018f57600080fd5b5035600160a060020a03166105b6565b60408051918252519081900360200190f35b6101b96105c8565b005b6101b9600480360360208110156101d157600080fd5b5035600160a060020a0316610632565b6101656106a9565b6101f16106b2565b60408051600160a060020a039092168252519081900360200190f35b6101656106c2565b61021d6106d3565b604051808481526020018060200180602001838103835285818151815260200191508051906020019060200280838360005b8381101561026757818101518382015260200161024f565b50505050905001838103825284818151815260200191508051906020019060200280838360005b838110156102a657818101518382015260200161028e565b505050509050019550505050505060405180910390f35b6101b9600480360360208110156102d357600080fd5b5035600160a060020a0316610798565b6101f1600480360360208110156102f957600080fd5b50356107b7565b60055460009060ff161561035f576040517f08c379a000000000000000000000000000000000000000000000000000000000815260040180806020018281038252602d8152602001806109b7602d913960400191505060405180910390fd5b825160408051828152602080840282010190915281801561038a578160200160208202803883390190505b50805161039f916004916020909101906108b2565b50806040519080825280602002602001820160405280156103ca578160200160208202803883390190505b5080516103df916002916020909101906108fd565b5083516103f39060029060208701906108fd565b5060005b84518110156105995780151561046357610429606461041d86601463ffffffff6107df16565b9063ffffffff61081116565b60036000878481518110151561043b57fe5b6020908102909101810151600160a060020a0316825281019190915260400160002055610507565b600181101580156104745750600381105b1561048f57610429606461041d86600f63ffffffff6107df16565b600381101580156104a05750600681105b156104bb57610429606461041d86600a63ffffffff6107df16565b6104d1606461041d86600563ffffffff6107df16565b6003600087848151811015156104e357fe5b6020908102909101810151600160a060020a03168252810191909152604001600020555b600460036000878481518110151561051b57fe5b6020908102909101810151600160a060020a031682528181019290925260400160009081205483546001810185559382529181209092015585516003919087908490811061056557fe5b6020908102909101810151600160a060020a03168252810191909152604001600020546006805490910190556001016103f7565b50506005805460ff19166001179081905560ff1690505b92915050565b60036020526000908152604090205481565b6105d06106c2565b15156105db57600080fd5b60008054604051600160a060020a03909116907f8be0079c531659141344cd1fd0a4f28419497f9722a3daafe3b4186f6b6457e0908390a36000805473ffffffffffffffffffffffffffffffffffffffff19169055565b61063a6106c2565b151561064557600080fd5b600160a060020a038116600090815260016020818152604092839020805460ff191690921791829055825160ff9092161515825291517fc783e46ac4ae471cef8b5d3f1e226e4a6b30da62728c90f1ef4883bef011c744929181900390910190a150565b60055460ff1681565b600054600160a060020a03165b90565b600054600160a060020a0316331490565b6000606080600654600260048180548060200260200160405190810160405280929190818152602001828054801561073457602002820191906000526020600020905b8154600160a060020a03168152600190910190602001808311610716575b505050505091508080548060200260200160405190810160405280929190818152602001828054801561078657602002820191906000526020600020905b815481526020019060010190808311610772575b50505050509050925092509250909192565b6107a06106c2565b15156107ab57600080fd5b6107b481610835565b50565b60028054829081106107c557fe5b600091825260209091200154600160a060020a0316905081565b60008215156107f0575060006105b0565b8282028284828115156107ff57fe5b041461080a57600080fd5b9392505050565b600080821161081f57600080fd5b6000828481151561082c57fe5b04949350505050565b600160a060020a038116151561084a57600080fd5b60008054604051600160a060020a03808516939216917f8be0079c531659141344cd1fd0a4f28419497f9722a3daafe3b4186f6b6457e091a36000805473ffffffffffffffffffffffffffffffffffffffff1916600160a060020a0392909216919091179055565b8280548282559060005260206000209081019282156108ed579160200282015b828111156108ed5782518255916020019190600101906108d2565b506108f992915061096b565b5090565b82805482825590600052602060002090810192821561095f579160200282015b8281111561095f578251825473ffffffffffffffffffffffffffffffffffffffff1916600160a060020a0390911617825560209092019160019091019061091d565b506108f9929150610985565b6106bf91905b808211156108f95760008155600101610971565b6106bf91905b808211156108f957805473ffffffffffffffffffffffffffffffffffffffff1916815560010161098b56fee5bd93e5898de8bdaee6aca1e79a84e4bfa1e4bbb0e5a596e58ab1e5b7b2e7bb8fe8aea1e7ae97e5ae8ce68890a165627a7a7230582015627db48030e9ed244300f363acbc75acbed12ef790842095880712adfc23fd0029",
  "source": "pragma solidity >=0.4.21 <0.6.0;\n\nimport \"../node_modules/openzeppelin-solidity/contracts/math/SafeMath.sol\";\nimport \"./Authority.sol\";\n\n// 信仰奖励\ncontract FaithReward is Authority{\n    using SafeMath for uint256;\n\n    event FaithWinnerInfo(address[] _faithWinners, uint256[] _faithRewardAmount);\n\n    // 信仰奖励获奖者\n    address[] public faithWinners;\n\n    // 信仰奖励金额\n    mapping(address => uint256) public faithRewardAmount;\n\n    uint256[] faithAmounts;\n\n    // 信仰奖励分配结束\n    bool public faithRewardFinished;\n\n    uint256 totalFaithReward;\n\n    constructor() public {\n\n    }\n\n    /// @notice 获取某轮次信仰奖励信息\n    /// @return 轮次、获胜者列表、获胜者奖金列表\n    function getFaithWinnerInfo()\n        public\n        view\n        returns(uint256, address[] memory, uint256[] memory)\n    {\n        // emit FaithWinnerInfo(faithWinners, faithAmounts);\n        return(totalFaithReward, faithWinners, faithAmounts);\n    }\n\n    // 链下排序,链上计算奖励分配\n    // _faithWinners 信仰者名单\n    function dealFaithWinner(\n        address[] memory _faithWinners,\n        uint256 _totalFaithReward\n    )\n        public\n        onlyAuthority()\n        returns(bool)\n    {\n        require(!faithRewardFinished, \"当前轮次的信仰奖励已经计算完成\");\n\n        uint256 winners;\n\n        winners = _faithWinners.length;\n\n        faithAmounts = new uint256[](winners);\n\n        faithWinners = new address[](winners);\n\n        faithWinners = _faithWinners;\n\n        for(uint i = 0 ; i < _faithWinners.length; i++){\n            if(i == 0){ // 第1名获得3%的奖励\n                faithRewardAmount[_faithWinners[i]] = _totalFaithReward.mul(20).div(100);\n            }else if(i >= 1 && i < 3){ // 第2、3名获得15%的奖励\n                faithRewardAmount[_faithWinners[i]] = _totalFaithReward.mul(15).div(100);\n            }else if(i >= 3 && i < 6){ // 第4、5、6名各获得1%的奖励\n                faithRewardAmount[_faithWinners[i]] = _totalFaithReward.mul(10).div(100);\n            }else{ // 第7、8、9、10各获得0.5%奖励\n                faithRewardAmount[_faithWinners[i]] = _totalFaithReward.mul(5).div(100);\n            }\n\n            faithAmounts.push(faithRewardAmount[_faithWinners[i]]);\n\n            totalFaithReward += faithRewardAmount[_faithWinners[i]];\n        }\n\n        // 信仰奖励已经分配完成\n        faithRewardFinished = true;\n        return faithRewardFinished;\n    }\n\n}",
  "sourcePath": "/Users/a186r/dev/sourcecode/contract/contract/contracts/FaithReward.sol",
  "compiler": {
    "name": "solc",
    "version": "0.5.2+commit.1df8f40c.Emscripten.clang"
  },
  "schemaVersion": "3.0.6",
  "updatedAt": "2019-06-04T05:49:13.386Z",
  "devdoc": {
    "methods": {
      "getFaithWinnerInfo()": {
        "return": "轮次、获胜者列表、获胜者奖金列表"
      },
      "isOwner()": {
        "return": "true if `msg.sender` is the owner of the contract."
      },
      "owner()": {
        "return": "the address of the owner."
      },
      "renounceOwnership()": {
        "details": "Allows the current owner to relinquish control of the contract. It will not be possible to call the functions with the `onlyOwner` modifier anymore."
      },
      "transferOwnership(address)": {
        "details": "Allows the current owner to transfer control of the contract to a newOwner.",
        "params": {
          "newOwner": "The address to transfer ownership to."
        }
      }
    }
  },
  "userdoc": {
    "methods": {
      "getFaithWinnerInfo()": {
        "notice": "获取某轮次信仰奖励信息"
      },
      "renounceOwnership()": {
        "notice": "Renouncing ownership will leave the contract without an owner, thereby removing any functionality that is only available to the owner."
      }
    }
  }
}