{
  "contractName": "FaithReward",
  "abi": [
    {
      "constant": true,
      "inputs": [
        {
          "name": "",
          "type": "uint256"
        },
        {
          "name": "",
          "type": "uint256"
        }
      ],
      "name": "faithRewards",
      "outputs": [
        {
          "name": "",
          "type": "uint256"
        }
      ],
      "payable": false,
      "stateMutability": "view",
      "type": "function"
    },
    {
      "constant": true,
      "inputs": [
        {
          "name": "",
          "type": "uint256"
        }
      ],
      "name": "currentStepHasFinished",
      "outputs": [
        {
          "name": "",
          "type": "bool"
        }
      ],
      "payable": false,
      "stateMutability": "view",
      "type": "function"
    },
    {
      "constant": true,
      "inputs": [
        {
          "name": "",
          "type": "uint256"
        },
        {
          "name": "",
          "type": "address"
        }
      ],
      "name": "faithRewardAmount",
      "outputs": [
        {
          "name": "",
          "type": "uint256"
        }
      ],
      "payable": false,
      "stateMutability": "view",
      "type": "function"
    },
    {
      "constant": true,
      "inputs": [
        {
          "name": "",
          "type": "address"
        }
      ],
      "name": "faithFunderTotalBalance",
      "outputs": [
        {
          "name": "",
          "type": "uint256"
        }
      ],
      "payable": false,
      "stateMutability": "view",
      "type": "function"
    },
    {
      "constant": true,
      "inputs": [
        {
          "name": "",
          "type": "uint256"
        },
        {
          "name": "",
          "type": "uint256"
        }
      ],
      "name": "faithWinners",
      "outputs": [
        {
          "name": "",
          "type": "address"
        }
      ],
      "payable": false,
      "stateMutability": "view",
      "type": "function"
    },
    {
      "inputs": [],
      "payable": false,
      "stateMutability": "nonpayable",
      "type": "constructor"
    },
    {
      "anonymous": false,
      "inputs": [
        {
          "indexed": true,
          "name": "_stepIndex",
          "type": "uint256"
        },
        {
          "indexed": false,
          "name": "_faithWinners",
          "type": "address[]"
        },
        {
          "indexed": false,
          "name": "_faithRewardAmount",
          "type": "uint256[]"
        }
      ],
      "name": "FaithWinnerInfo",
      "type": "event"
    },
    {
      "constant": false,
      "inputs": [
        {
          "name": "_stepIndex",
          "type": "uint256"
        }
      ],
      "name": "getFaithWinnerInfo",
      "outputs": [],
      "payable": false,
      "stateMutability": "nonpayable",
      "type": "function"
    },
    {
      "constant": false,
      "inputs": [
        {
          "name": "_stepIndex",
          "type": "uint256"
        },
        {
          "name": "_faithWinners",
          "type": "address[10]"
        },
        {
          "name": "_totalFaithReward",
          "type": "uint256"
        }
      ],
      "name": "dealFaithWinner",
      "outputs": [],
      "payable": false,
      "stateMutability": "nonpayable",
      "type": "function"
    },
    {
      "constant": true,
      "inputs": [
        {
          "name": "_stepIndex",
          "type": "uint256"
        }
      ],
      "name": "getTotalRewardAmount",
      "outputs": [
        {
          "name": "",
          "type": "uint256"
        }
      ],
      "payable": false,
      "stateMutability": "view",
      "type": "function"
    }
  ],
  "bytecode": "0x608060405234801561001057600080fd5b50610a66806100206000396000f3fe608060405234801561001057600080fd5b50600436106100a5576000357c0100000000000000000000000000000000000000000000000000000000900480638a644430116100785780638a644430146101e5578063946cacda14610247578063d568d7171461029f578063f794f7da146102e1576100a5565b806353cb8ba9146100aa5780635b44e2d5146100d8578063775a287d146101245780637a1e96211461016a575b600080fd5b6100d6600480360360208110156100c057600080fd5b8101908080359060200190929190505050610359565b005b61010e600480360360408110156100ee57600080fd5b810190808035906020019092919080359060200190929190505050610471565b6040518082815260200191505060405180910390f35b6101506004803603602081101561013a57600080fd5b81019080803590602001909291905050506104a1565b604051808215151515815260200191505060405180910390f35b6101e3600480360361018081101561018157600080fd5b8101908080359060200190929190806101400190600a806020026040519081016040528092919082600a60200280828437600081840152601f19601f8201169050808301925050505050509192919290803590602001909291905050506104c1565b005b610231600480360360408110156101fb57600080fd5b8101908080359060200190929190803573ffffffffffffffffffffffffffffffffffffffff1690602001909291905050506108ac565b6040518082815260200191505060405180910390f35b6102896004803603602081101561025d57600080fd5b81019080803573ffffffffffffffffffffffffffffffffffffffff1690602001909291905050506108d1565b6040518082815260200191505060405180910390f35b6102cb600480360360208110156102b557600080fd5b81019080803590602001909291905050506108e9565b6040518082815260200191505060405180910390f35b610317600480360360408110156102f757600080fd5b810190808035906020019092919080359060200190929190505050610958565b604051808273ffffffffffffffffffffffffffffffffffffffff1673ffffffffffffffffffffffffffffffffffffffff16815260200191505060405180910390f35b807f63fbf064ad55234eea7d266d7efb0407255e00f0819e7ea9f36d68c6ea1eec4860016000848152602001908152602001600020600080858152602001908152602001600020604051808060200180602001838103835285818154815260200191508054801561041f57602002820191906000526020600020905b8160009054906101000a900473ffffffffffffffffffffffffffffffffffffffff1673ffffffffffffffffffffffffffffffffffffffff16815260200190600101908083116103d5575b5050838103825284818154815260200191508054801561045e57602002820191906000526020600020905b81548152602001906001019080831161044a575b505094505050505060405180910390a250565b60006020528160005260406000208181548110151561048c57fe5b90600052602060002001600091509150505481565b60046020528060005260406000206000915054906101000a900460ff1681565b6004600084815260200190815260200160002060009054906101000a900460ff1615151561053a576040517f08c379a000000000000000000000000000000000000000000000000000000000815260040180806020018281038252602d815260200180610a0e602d913960400191505060405180910390fd5b60008090505b600a81101561087a5760008114156105ba5760008085815260200190815260200160002061058c6103e861057e601e866109a590919063ffffffff16565b6109e390919063ffffffff16565b908060018154018082558091505090600182039060005260206000200160009091929091909150555061071c565b600181101580156105cb5750600381105b156106385760008085815260200190815260200160002061060a6103e86105fc6014866109a590919063ffffffff16565b6109e390919063ffffffff16565b908060018154018082558091505090600182039060005260206000200160009091929091909150555061071b565b600381101580156106495750600681105b156106b6576000808581526020019081526020016000206106886103e861067a600a866109a590919063ffffffff16565b6109e390919063ffffffff16565b908060018154018082558091505090600182039060005260206000200160009091929091909150555061071a565b6000808581526020019081526020016000206106f06103e86106e26005866109a590919063ffffffff16565b6109e390919063ffffffff16565b90806001815401808255809150509060018203906000526020600020016000909192909190915055505b5b5b6000808581526020019081526020016000208181548110151561073b57fe5b90600052602060002001546002600086815260200190815260200160002060008584600a8110151561076957fe5b602002015173ffffffffffffffffffffffffffffffffffffffff1673ffffffffffffffffffffffffffffffffffffffff168152602001908152602001600020819055506002600085815260200190815260200160002060008483600a811015156107cf57fe5b602002015173ffffffffffffffffffffffffffffffffffffffff1673ffffffffffffffffffffffffffffffffffffffff16815260200190815260200160002054600360008584600a8110151561082157fe5b602002015173ffffffffffffffffffffffffffffffffffffffff1673ffffffffffffffffffffffffffffffffffffffff168152602001908152602001600020600082825401925050819055508080600101915050610540565b5060016004600085815260200190815260200160002060006101000a81548160ff021916908315150217905550505050565b6002602052816000526040600020602052806000526040600020600091509150505481565b60036020528060005260406000206000915090505481565b6000806000905060008090505b6000808581526020019081526020016000208054905081101561094e576000808581526020019081526020016000208181548110151561093257fe5b90600052602060002001548201915080806001019150506108f6565b5080915050919050565b60016020528160005260406000208181548110151561097357fe5b906000526020600020016000915091509054906101000a900473ffffffffffffffffffffffffffffffffffffffff1681565b6000808314156109b857600090506109dd565b600082840290508284828115156109cb57fe5b041415156109d857600080fd5b809150505b92915050565b600080821115156109f357600080fd5b60008284811515610a0057fe5b049050809150509291505056fee5bd93e5898de8bdaee6aca1e79a84e4bfa1e4bbb0e5a596e58ab1e5b7b2e7bb8fe8aea1e7ae97e5ae8ce68890a165627a7a72305820ab53fa0e879a4dfefd86e7144ebc520eaaeb90734e84d55905910f3c33a431780029",
  "source": "pragma solidity >=0.4.21 <0.6.0;\n\nimport \"../node_modules/openzeppelin-solidity/contracts/math/SafeMath.sol\";\n\n// 信仰奖励\ncontract FaithReward{\n    using SafeMath for uint256;\n\n    event FaithWinnerInfo(uint256 indexed _stepIndex, address[] _faithWinners, uint256[] _faithRewardAmount);\n\n    // 信仰奖励获奖金额 step => 奖金\n    mapping(uint256 => uint256[]) public faithRewards;\n\n    // 信仰奖励获奖者\n    mapping(uint256 => address[]) public faithWinners;\n\n    mapping(uint256 => mapping(address => uint256)) public faithRewardAmount;\n\n    // 用户累计奖金\n    mapping(address => uint256) public faithFunderTotalBalance;\n\n    // 信仰奖励分配结束\n    mapping(uint256 => bool) public currentStepHasFinished;\n\n    constructor() public {\n\n    }\n\n    /// @notice 获取某轮次信仰奖励信息\n    /// @return 轮次、获胜者列表、获胜者奖金列表\n    function getFaithWinnerInfo(uint256 _stepIndex) public {\n        emit FaithWinnerInfo(_stepIndex, faithWinners[_stepIndex], faithRewards[_stepIndex]);\n    }\n\n    // 链下排序,链上计算奖励分配\n    // _faithWinners 信仰者名单\n    function dealFaithWinner(\n        uint256 _stepIndex,\n        address[10] memory _faithWinners,\n        uint256 _totalFaithReward\n    )\n        public\n    {\n        require(!currentStepHasFinished[_stepIndex], \"当前轮次的信仰奖励已经计算完成\");\n\n        for(uint i = 0 ; i < _faithWinners.length; i++){\n            if(i == 0){ // 第一名获得3%的奖励\n                faithRewards[_stepIndex].push(_totalFaithReward.mul(30).div(1000));\n            }else if(i >= 1 && i < 3){ // 第二名获得2%的奖励\n                faithRewards[_stepIndex].push(_totalFaithReward.mul(20).div(1000));\n            }else if(i >= 3 && i < 6){ // 第3、4、5名各获得1%的奖励\n                faithRewards[_stepIndex].push(_totalFaithReward.mul(10).div(1000));\n            }else{ // 第7、8、9、10各获得0.5%奖励\n                faithRewards[_stepIndex].push(_totalFaithReward.mul(5).div(1000));\n            }\n\n            faithRewardAmount[_stepIndex][_faithWinners[i]] = faithRewards[_stepIndex][i];\n            // 保存用户信仰奖金总余额\n            faithFunderTotalBalance[_faithWinners[i]] += faithRewardAmount[_stepIndex][_faithWinners[i]];\n\n        }\n\n        // 当前奖励已经分配完成\n        currentStepHasFinished[_stepIndex] = true;\n    }\n\n    // 确认奖励金额是正确的\n    function getTotalRewardAmount(uint256 _stepIndex) public view returns (uint256) {\n        uint totalCount = 0;\n\n        for(uint i = 0; i < faithRewards[_stepIndex].length; i++) {\n            totalCount += faithRewards[_stepIndex][i];\n        }\n\n        return totalCount;\n    }\n\n}",
  "sourcePath": "/Users/a186r/dev/sourcecode/contracts/contract/contract/contracts/FaithReward.sol",
  "compiler": {
    "name": "solc",
    "version": "0.5.2+commit.1df8f40c.Emscripten.clang"
  },
  "schemaVersion": "3.0.6",
  "updatedAt": "2019-05-20T10:26:45.478Z",
  "devdoc": {
    "methods": {
      "getFaithWinnerInfo(uint256)": {
        "return": "轮次、获胜者列表、获胜者奖金列表"
      }
    }
  },
  "userdoc": {
    "methods": {
      "getFaithWinnerInfo(uint256)": {
        "notice": "获取某轮次信仰奖励信息"
      }
    }
  }
}