{
  "contractName": "FaithReward",
  "abi": [
    {
      "constant": true,
      "inputs": [
        {
          "name": "",
          "type": "uint256"
        },
        {
          "name": "",
          "type": "address"
        }
      ],
      "name": "rewardAmount",
      "outputs": [
        {
          "name": "",
          "type": "uint256"
        }
      ],
      "payable": false,
      "stateMutability": "view",
      "type": "function"
    },
    {
      "inputs": [],
      "payable": false,
      "stateMutability": "nonpayable",
      "type": "constructor"
    },
    {
      "anonymous": false,
      "inputs": [
        {
          "indexed": true,
          "name": "_stepIndex",
          "type": "uint256"
        },
        {
          "indexed": false,
          "name": "_faithWinners",
          "type": "address[10]"
        },
        {
          "indexed": false,
          "name": "_faithRewardAmount",
          "type": "uint256[]"
        }
      ],
      "name": "FaithWinnerInfo",
      "type": "event"
    },
    {
      "constant": false,
      "inputs": [
        {
          "name": "_stepIndex",
          "type": "uint256"
        },
        {
          "name": "_faithWinners",
          "type": "address[10]"
        },
        {
          "name": "_totalFaithReward",
          "type": "uint256"
        }
      ],
      "name": "getFaithWinnerInfo",
      "outputs": [],
      "payable": false,
      "stateMutability": "nonpayable",
      "type": "function"
    },
    {
      "constant": true,
      "inputs": [],
      "name": "getTotalRewardAmount",
      "outputs": [
        {
          "name": "",
          "type": "uint256"
        }
      ],
      "payable": false,
      "stateMutability": "view",
      "type": "function"
    }
  ],
  "bytecode": "0x608060405234801561001057600080fd5b50610540806100206000396000f3fe608060405234801561001057600080fd5b506004361061005e576000357c0100000000000000000000000000000000000000000000000000000000900480630bf2a6341461006357806310377be3146100c55780633b8505bb146100e3575b600080fd5b6100af6004803603604081101561007957600080fd5b8101908080359060200190929190803573ffffffffffffffffffffffffffffffffffffffff16906020019092919050505061015e565b6040518082815260200191505060405180910390f35b6100cd610183565b6040518082815260200191505060405180910390f35b61015c60048036036101808110156100fa57600080fd5b8101908080359060200190929190806101400190600a806020026040519081016040528092919082600a60200280828437600081840152601f19601f8201169050808301925050505050509192919290803590602001909291905050506101d0565b005b6001602052816000526040600020602052806000526040600020600091509150505481565b6000806000905060008090505b6000805490508110156101c8576000818154811015156101ac57fe5b9060005260206000200154820191508080600101915050610190565b508091505090565b60008090505b600a8110156103ff5760008114156102405760006102126103e8610204601e866104ac90919063ffffffff16565b6104ea90919063ffffffff16565b9080600181540180825580915050906001820390600052602060002001600090919290919091505550610372565b600181101580156102515750600381105b156102ae5760006102806103e86102726014866104ac90919063ffffffff16565b6104ea90919063ffffffff16565b9080600181540180825580915050906001820390600052602060002001600090919290919091505550610371565b600381101580156102bf5750600681105b1561031c5760006102ee6103e86102e0600a866104ac90919063ffffffff16565b6104ea90919063ffffffff16565b9080600181540180825580915050906001820390600052602060002001600090919290919091505550610370565b60006103466103e86103386005866104ac90919063ffffffff16565b6104ea90919063ffffffff16565b90806001815401808255809150509060018203906000526020600020016000909192909190915055505b5b5b60008181548110151561038157fe5b90600052602060002001546001600086815260200190815260200160002060008584600a811015156103af57fe5b602002015173ffffffffffffffffffffffffffffffffffffffff1673ffffffffffffffffffffffffffffffffffffffff1681526020019081526020016000208190555080806001019150506101d6565b50827fc46ffdb7901c8863f8cc4183319010e80e50ecc9876780aa8f81360d410424be8360006040518083600a60200280838360005b83811015610450578082015181840152602081019050610435565b5050505090500180602001828103825283818154815260200191508054801561049857602002820191906000526020600020905b815481526020019060010190808311610484575b5050935050505060405180910390a2505050565b6000808314156104bf57600090506104e4565b600082840290508284828115156104d257fe5b041415156104df57600080fd5b809150505b92915050565b600080821115156104fa57600080fd5b6000828481151561050757fe5b049050809150509291505056fea165627a7a72305820bba1ddb49cb3d10b5685139251c0dad884b856090908877e43183c339bf783cb0029",
  "source": "pragma solidity >=0.4.21 <0.6.0;\n\nimport \"../node_modules/openzeppelin-solidity/contracts/math/SafeMath.sol\";\n\n// 信仰奖励\ncontract FaithReward{\n    using SafeMath for uint256;\n\n    event FaithWinnerInfo(uint256 indexed _stepIndex, address[10] _faithWinners, uint256[] _faithRewardAmount);\n    // 幸运奖励获奖金额\n    uint256[] faithRewardAmount;\n\n    mapping(uint256 => mapping(address => uint256)) public rewardAmount;\n\n    constructor() public {\n\n    }\n\n    // 链下排序,链上计算奖励分配\n    // _faithWinners 信仰者名单\n    function getFaithWinnerInfo(\n        uint256 _stepIndex,\n        address[10] memory _faithWinners,\n        uint256 _totalFaithReward\n    )\n        public\n    {\n        for(uint i = 0 ; i < _faithWinners.length; i++){\n            if(i == 0){ // 第一名获得3%的奖励\n                faithRewardAmount.push(_totalFaithReward.mul(30).div(1000));\n            }else if(i >= 1 && i < 3){ // 第二名获得2%的奖励\n                faithRewardAmount.push(_totalFaithReward.mul(20).div(1000));\n            }else if(i >= 3 && i < 6){ // 第3、4、5名各获得1%的奖励\n                faithRewardAmount.push(_totalFaithReward.mul(10).div(1000));\n            }else{ // 第7、8、9、10各获得0.5%奖励\n                faithRewardAmount.push(_totalFaithReward.mul(5).div(1000));\n            }\n\n            rewardAmount[_stepIndex][_faithWinners[i]] = faithRewardAmount[i];\n        }\n\n        emit FaithWinnerInfo(_stepIndex, _faithWinners, faithRewardAmount);\n    }\n\n    // 确认奖励金额是正确的\n    function getTotalRewardAmount() public view returns (uint256) {\n        uint totalCount = 0;\n\n        for(uint i = 0; i < faithRewardAmount.length; i++) {\n            totalCount += faithRewardAmount[i];\n        }\n\n        return totalCount;\n    }\n\n}",
  "sourcePath": "/Users/a186r/dev/contracts/contract/contract/contracts/FaithReward.sol",
  "compiler": {
    "name": "solc",
    "version": "0.5.2+commit.1df8f40c.Emscripten.clang"
  },
  "schemaVersion": "3.0.9",
  "updatedAt": "2019-05-19T18:41:38.812Z",
  "devdoc": {
    "methods": {}
  },
  "userdoc": {
    "methods": {}
  }
}