{
  "contractName": "FaithReward",
  "abi": [
    {
      "constant": true,
      "inputs": [
        {
          "name": "",
          "type": "uint256"
        },
        {
          "name": "",
          "type": "uint256"
        }
      ],
      "name": "faithRewards",
      "outputs": [
        {
          "name": "",
          "type": "uint256"
        }
      ],
      "payable": false,
      "stateMutability": "view",
      "type": "function",
      "signature": "0x5b44e2d5"
    },
    {
      "constant": true,
      "inputs": [
        {
          "name": "",
          "type": "uint256"
        }
      ],
      "name": "currentStepHasFinished",
      "outputs": [
        {
          "name": "",
          "type": "bool"
        }
      ],
      "payable": false,
      "stateMutability": "view",
      "type": "function",
      "signature": "0x775a287d"
    },
    {
      "constant": true,
      "inputs": [
        {
          "name": "",
          "type": "uint256"
        },
        {
          "name": "",
          "type": "address"
        }
      ],
      "name": "faithRewardAmount",
      "outputs": [
        {
          "name": "",
          "type": "uint256"
        }
      ],
      "payable": false,
      "stateMutability": "view",
      "type": "function",
      "signature": "0x8a644430"
    },
    {
      "constant": true,
      "inputs": [
        {
          "name": "",
          "type": "address"
        }
      ],
      "name": "faithFunderTotalBalance",
      "outputs": [
        {
          "name": "",
          "type": "uint256"
        }
      ],
      "payable": false,
      "stateMutability": "view",
      "type": "function",
      "signature": "0x946cacda"
    },
    {
      "constant": true,
      "inputs": [
        {
          "name": "",
          "type": "uint256"
        },
        {
          "name": "",
          "type": "uint256"
        }
      ],
      "name": "faithWinners",
      "outputs": [
        {
          "name": "",
          "type": "address"
        }
      ],
      "payable": false,
      "stateMutability": "view",
      "type": "function",
      "signature": "0xf794f7da"
    },
    {
      "inputs": [],
      "payable": false,
      "stateMutability": "nonpayable",
      "type": "constructor",
      "signature": "constructor"
    },
    {
      "anonymous": false,
      "inputs": [
        {
          "indexed": true,
          "name": "_stepIndex",
          "type": "uint256"
        },
        {
          "indexed": false,
          "name": "_faithWinners",
          "type": "address[]"
        },
        {
          "indexed": false,
          "name": "_faithRewardAmount",
          "type": "uint256[]"
        }
      ],
      "name": "FaithWinnerInfo",
      "type": "event",
      "signature": "0x63fbf064ad55234eea7d266d7efb0407255e00f0819e7ea9f36d68c6ea1eec48"
    },
    {
      "constant": false,
      "inputs": [
        {
          "name": "_stepIndex",
          "type": "uint256"
        }
      ],
      "name": "getFaithWinnerInfo",
      "outputs": [],
      "payable": false,
      "stateMutability": "nonpayable",
      "type": "function",
      "signature": "0x53cb8ba9"
    },
    {
      "constant": false,
      "inputs": [
        {
          "name": "_stepIndex",
          "type": "uint256"
        },
        {
          "name": "_faithWinners",
          "type": "address[]"
        },
        {
          "name": "_totalFaithReward",
          "type": "uint256"
        }
      ],
      "name": "dealFaithWinner",
      "outputs": [],
      "payable": false,
      "stateMutability": "nonpayable",
      "type": "function",
      "signature": "0x3776131a"
    },
    {
      "constant": true,
      "inputs": [
        {
          "name": "_stepIndex",
          "type": "uint256"
        }
      ],
      "name": "getTotalRewardAmount",
      "outputs": [
        {
          "name": "",
          "type": "uint256"
        }
      ],
      "payable": false,
      "stateMutability": "view",
      "type": "function",
      "signature": "0xd568d717"
    }
  ],
  "bytecode": "0x608060405234801561001057600080fd5b50610ac6806100206000396000f3fe608060405234801561001057600080fd5b50600436106100a5576000357c0100000000000000000000000000000000000000000000000000000000900480638a644430116100785780638a64443014610236578063946cacda14610298578063d568d717146102f0578063f794f7da14610332576100a5565b80633776131a146100aa57806353cb8ba9146101765780635b44e2d5146101a4578063775a287d146101f0575b600080fd5b610174600480360360608110156100c057600080fd5b8101908080359060200190929190803590602001906401000000008111156100e757600080fd5b8201836020820111156100f957600080fd5b8035906020019184602083028401116401000000008311171561011b57600080fd5b919080806020026020016040519081016040528093929190818152602001838360200280828437600081840152601f19601f820116905080830192505050505050509192919290803590602001909291905050506103aa565b005b6101a26004803603602081101561018c57600080fd5b81019080803590602001909291905050506107a4565b005b6101da600480360360408110156101ba57600080fd5b8101908080359060200190929190803590602001909291905050506108bc565b6040518082815260200191505060405180910390f35b61021c6004803603602081101561020657600080fd5b81019080803590602001909291905050506108ec565b604051808215151515815260200191505060405180910390f35b6102826004803603604081101561024c57600080fd5b8101908080359060200190929190803573ffffffffffffffffffffffffffffffffffffffff16906020019092919050505061090c565b6040518082815260200191505060405180910390f35b6102da600480360360208110156102ae57600080fd5b81019080803573ffffffffffffffffffffffffffffffffffffffff169060200190929190505050610931565b6040518082815260200191505060405180910390f35b61031c6004803603602081101561030657600080fd5b8101908080359060200190929190505050610949565b6040518082815260200191505060405180910390f35b6103686004803603604081101561034857600080fd5b8101908080359060200190929190803590602001909291905050506109b8565b604051808273ffffffffffffffffffffffffffffffffffffffff1673ffffffffffffffffffffffffffffffffffffffff16815260200191505060405180910390f35b6004600084815260200190815260200160002060009054906101000a900460ff16151515610423576040517f08c379a000000000000000000000000000000000000000000000000000000000815260040180806020018281038252602d815260200180610a6e602d913960400191505060405180910390fd5b60008090505b82518110156107725760008114156104a3576000808581526020019081526020016000206104756103e8610467601e86610a0590919063ffffffff16565b610a4390919063ffffffff16565b9080600181540180825580915050906001820390600052602060002001600090919290919091505550610605565b600181101580156104b45750600381105b15610521576000808581526020019081526020016000206104f36103e86104e5601486610a0590919063ffffffff16565b610a4390919063ffffffff16565b9080600181540180825580915050906001820390600052602060002001600090919290919091505550610604565b600381101580156105325750600681105b1561059f576000808581526020019081526020016000206105716103e8610563600a86610a0590919063ffffffff16565b610a4390919063ffffffff16565b9080600181540180825580915050906001820390600052602060002001600090919290919091505550610603565b6000808581526020019081526020016000206105d96103e86105cb600586610a0590919063ffffffff16565b610a4390919063ffffffff16565b90806001815401808255809150509060018203906000526020600020016000909192909190915055505b5b5b6000808581526020019081526020016000208181548110151561062457fe5b9060005260206000200154600260008681526020019081526020016000206000858481518110151561065257fe5b9060200190602002015173ffffffffffffffffffffffffffffffffffffffff1673ffffffffffffffffffffffffffffffffffffffff1681526020019081526020016000208190555060026000858152602001908152602001600020600084838151811015156106bd57fe5b9060200190602002015173ffffffffffffffffffffffffffffffffffffffff1673ffffffffffffffffffffffffffffffffffffffff1681526020019081526020016000205460036000858481518110151561071457fe5b9060200190602002015173ffffffffffffffffffffffffffffffffffffffff1673ffffffffffffffffffffffffffffffffffffffff168152602001908152602001600020600082825401925050819055508080600101915050610429565b5060016004600085815260200190815260200160002060006101000a81548160ff021916908315150217905550505050565b807f63fbf064ad55234eea7d266d7efb0407255e00f0819e7ea9f36d68c6ea1eec4860016000848152602001908152602001600020600080858152602001908152602001600020604051808060200180602001838103835285818154815260200191508054801561086a57602002820191906000526020600020905b8160009054906101000a900473ffffffffffffffffffffffffffffffffffffffff1673ffffffffffffffffffffffffffffffffffffffff1681526020019060010190808311610820575b505083810382528481815481526020019150805480156108a957602002820191906000526020600020905b815481526020019060010190808311610895575b505094505050505060405180910390a250565b6000602052816000526040600020818154811015156108d757fe5b90600052602060002001600091509150505481565b60046020528060005260406000206000915054906101000a900460ff1681565b6002602052816000526040600020602052806000526040600020600091509150505481565b60036020528060005260406000206000915090505481565b6000806000905060008090505b600080858152602001908152602001600020805490508110156109ae576000808581526020019081526020016000208181548110151561099257fe5b9060005260206000200154820191508080600101915050610956565b5080915050919050565b6001602052816000526040600020818154811015156109d357fe5b906000526020600020016000915091509054906101000a900473ffffffffffffffffffffffffffffffffffffffff1681565b600080831415610a185760009050610a3d565b60008284029050828482811515610a2b57fe5b04141515610a3857600080fd5b809150505b92915050565b60008082111515610a5357600080fd5b60008284811515610a6057fe5b049050809150509291505056fee5bd93e5898de8bdaee6aca1e79a84e4bfa1e4bbb0e5a596e58ab1e5b7b2e7bb8fe8aea1e7ae97e5ae8ce68890a165627a7a72305820734aad9e2b92947e2b5556d85ef69a32e50c5fd69073efd3a831c93e58b7fd1e0029",
  "source": "pragma solidity >=0.4.21 <0.6.0;\n\nimport \"../node_modules/openzeppelin-solidity/contracts/math/SafeMath.sol\";\n\n// 信仰奖励\ncontract FaithReward{\n    using SafeMath for uint256;\n\n    event FaithWinnerInfo(uint256 indexed _stepIndex, address[] _faithWinners, uint256[] _faithRewardAmount);\n\n    // 信仰奖励获奖金额 step => 奖金\n    mapping(uint256 => uint256[]) public faithRewards;\n\n    // 信仰奖励获奖者\n    mapping(uint256 => address[]) public faithWinners;\n\n    mapping(uint256 => mapping(address => uint256)) public faithRewardAmount;\n\n    // 用户累计奖金\n    mapping(address => uint256) public faithFunderTotalBalance;\n\n    // 信仰奖励分配结束\n    mapping(uint256 => bool) public currentStepHasFinished;\n\n    constructor() public {\n\n    }\n\n    /// @notice 获取某轮次信仰奖励信息\n    /// @return 轮次、获胜者列表、获胜者奖金列表\n    function getFaithWinnerInfo(uint256 _stepIndex) public {\n        emit FaithWinnerInfo(_stepIndex, faithWinners[_stepIndex], faithRewards[_stepIndex]);\n    }\n\n    // 链下排序,链上计算奖励分配\n    // _faithWinners 信仰者名单\n    function dealFaithWinner(\n        uint256 _stepIndex,\n        address[] memory _faithWinners,\n        uint256 _totalFaithReward\n    )\n        public\n    {\n        require(!currentStepHasFinished[_stepIndex], \"当前轮次的信仰奖励已经计算完成\");\n\n        for(uint i = 0 ; i < _faithWinners.length; i++){\n            if(i == 0){ // 第一名获得3%的奖励\n                faithRewards[_stepIndex].push(_totalFaithReward.mul(30).div(1000));\n            }else if(i >= 1 && i < 3){ // 第二名获得2%的奖励\n                faithRewards[_stepIndex].push(_totalFaithReward.mul(20).div(1000));\n            }else if(i >= 3 && i < 6){ // 第3、4、5名各获得1%的奖励\n                faithRewards[_stepIndex].push(_totalFaithReward.mul(10).div(1000));\n            }else{ // 第7、8、9、10各获得0.5%奖励\n                faithRewards[_stepIndex].push(_totalFaithReward.mul(5).div(1000));\n            }\n\n            faithRewardAmount[_stepIndex][_faithWinners[i]] = faithRewards[_stepIndex][i];\n            // 保存用户信仰奖金总余额\n            faithFunderTotalBalance[_faithWinners[i]] += faithRewardAmount[_stepIndex][_faithWinners[i]];\n\n        }\n\n        // 当前奖励已经分配完成\n        currentStepHasFinished[_stepIndex] = true;\n    }\n\n    // 确认奖励金额是正确的\n    function getTotalRewardAmount(uint256 _stepIndex) public view returns (uint256) {\n        uint totalCount = 0;\n\n        for(uint i = 0; i < faithRewards[_stepIndex].length; i++) {\n            totalCount += faithRewards[_stepIndex][i];\n        }\n\n        return totalCount;\n    }\n\n}",
  "sourcePath": "/Users/a186r/dev/sourcecode/contracts/contract/contract/contracts/FaithReward.sol",
  "compiler": {
    "name": "solc",
    "version": "0.5.2+commit.1df8f40c.Emscripten.clang"
  },
  "schemaVersion": "3.0.6",
  "updatedAt": "2019-05-22T02:23:23.925Z",
  "devdoc": {
    "methods": {
      "getFaithWinnerInfo(uint256)": {
        "return": "轮次、获胜者列表、获胜者奖金列表"
      }
    }
  },
  "userdoc": {
    "methods": {
      "getFaithWinnerInfo(uint256)": {
        "notice": "获取某轮次信仰奖励信息"
      }
    }
  }
}