{
  "contractName": "FissionReward",
  "abi": [
    {
      "constant": true,
      "inputs": [
        {
          "name": "",
          "type": "address"
        }
      ],
      "name": "fissionFunderTotalBalance",
      "outputs": [
        {
          "name": "",
          "type": "uint256"
        }
      ],
      "payable": false,
      "stateMutability": "view",
      "type": "function",
      "signature": "0x0df2019a"
    },
    {
      "constant": true,
      "inputs": [
        {
          "name": "",
          "type": "uint256"
        },
        {
          "name": "",
          "type": "uint256"
        }
      ],
      "name": "fissionWinners",
      "outputs": [
        {
          "name": "",
          "type": "address"
        }
      ],
      "payable": false,
      "stateMutability": "view",
      "type": "function",
      "signature": "0x296205d8"
    },
    {
      "constant": true,
      "inputs": [
        {
          "name": "",
          "type": "uint256"
        },
        {
          "name": "",
          "type": "address"
        }
      ],
      "name": "fissionRewardAmount",
      "outputs": [
        {
          "name": "",
          "type": "uint256"
        }
      ],
      "payable": false,
      "stateMutability": "view",
      "type": "function",
      "signature": "0x65922b74"
    },
    {
      "constant": true,
      "inputs": [
        {
          "name": "",
          "type": "uint256"
        },
        {
          "name": "",
          "type": "address"
        }
      ],
      "name": "affmanEarnedToken",
      "outputs": [
        {
          "name": "",
          "type": "uint256"
        }
      ],
      "payable": false,
      "stateMutability": "view",
      "type": "function",
      "signature": "0x697028de"
    },
    {
      "constant": false,
      "inputs": [],
      "name": "renounceOwnership",
      "outputs": [],
      "payable": false,
      "stateMutability": "nonpayable",
      "type": "function",
      "signature": "0x715018a6"
    },
    {
      "constant": true,
      "inputs": [],
      "name": "owner",
      "outputs": [
        {
          "name": "",
          "type": "address"
        }
      ],
      "payable": false,
      "stateMutability": "view",
      "type": "function",
      "signature": "0x8da5cb5b"
    },
    {
      "constant": true,
      "inputs": [],
      "name": "isOwner",
      "outputs": [
        {
          "name": "",
          "type": "bool"
        }
      ],
      "payable": false,
      "stateMutability": "view",
      "type": "function",
      "signature": "0x8f32d59b"
    },
    {
      "constant": true,
      "inputs": [
        {
          "name": "",
          "type": "uint256"
        },
        {
          "name": "",
          "type": "uint256"
        }
      ],
      "name": "affmanArray",
      "outputs": [
        {
          "name": "",
          "type": "address"
        }
      ],
      "payable": false,
      "stateMutability": "view",
      "type": "function",
      "signature": "0xaff791cc"
    },
    {
      "constant": false,
      "inputs": [
        {
          "name": "newOwner",
          "type": "address"
        }
      ],
      "name": "transferOwnership",
      "outputs": [],
      "payable": false,
      "stateMutability": "nonpayable",
      "type": "function",
      "signature": "0xf2fde38b"
    },
    {
      "constant": true,
      "inputs": [
        {
          "name": "",
          "type": "uint256"
        },
        {
          "name": "",
          "type": "uint256"
        }
      ],
      "name": "fissionRewards",
      "outputs": [
        {
          "name": "",
          "type": "uint256"
        }
      ],
      "payable": false,
      "stateMutability": "view",
      "type": "function",
      "signature": "0xfb109a5a"
    },
    {
      "inputs": [],
      "payable": false,
      "stateMutability": "nonpayable",
      "type": "constructor",
      "signature": "constructor"
    },
    {
      "anonymous": false,
      "inputs": [
        {
          "indexed": true,
          "name": "_stepIndex",
          "type": "uint256"
        },
        {
          "indexed": false,
          "name": "fissionWinners",
          "type": "address[]"
        },
        {
          "indexed": false,
          "name": "fissionRewards",
          "type": "uint256[]"
        }
      ],
      "name": "FissionInfo",
      "type": "event",
      "signature": "0xc67e30736b4125be7679817680e1a6f4be6068e1da34c1bb07d179cb065b6152"
    },
    {
      "anonymous": false,
      "inputs": [
        {
          "indexed": false,
          "name": "sender",
          "type": "address"
        }
      ],
      "name": "PrintSender",
      "type": "event",
      "signature": "0xfe0fa2cbd85458de47a12ee4bdcea0e55004fba77cc7b6734128bcb5e4cc5fec"
    },
    {
      "anonymous": false,
      "inputs": [
        {
          "indexed": true,
          "name": "previousOwner",
          "type": "address"
        },
        {
          "indexed": true,
          "name": "newOwner",
          "type": "address"
        }
      ],
      "name": "OwnershipTransferred",
      "type": "event",
      "signature": "0x8be0079c531659141344cd1fd0a4f28419497f9722a3daafe3b4186f6b6457e0"
    },
    {
      "constant": true,
      "inputs": [
        {
          "name": "_stepIndex",
          "type": "uint256"
        }
      ],
      "name": "getFissionInfo",
      "outputs": [
        {
          "name": "",
          "type": "uint256"
        },
        {
          "name": "",
          "type": "address[]"
        },
        {
          "name": "",
          "type": "uint256[]"
        }
      ],
      "payable": false,
      "stateMutability": "view",
      "type": "function",
      "signature": "0xc79b1245"
    },
    {
      "constant": false,
      "inputs": [
        {
          "name": "_stepIndex",
          "type": "uint256"
        },
        {
          "name": "_fissionWinner",
          "type": "address[]"
        },
        {
          "name": "_totalFissionReward",
          "type": "uint256"
        }
      ],
      "name": "dealFissionInfo",
      "outputs": [],
      "payable": false,
      "stateMutability": "nonpayable",
      "type": "function",
      "signature": "0xa5fa7976"
    },
    {
      "constant": false,
      "inputs": [
        {
          "name": "_stepIndex",
          "type": "uint256"
        },
        {
          "name": "_promoter",
          "type": "address"
        },
        {
          "name": "_initialFissionPerson",
          "type": "address"
        }
      ],
      "name": "addAffman",
      "outputs": [],
      "payable": false,
      "stateMutability": "nonpayable",
      "type": "function",
      "signature": "0xe23613e9"
    }
  ],
  "bytecode": "0x608060405234801561001057600080fd5b5060008054600160a060020a0319163317808255604051600160a060020a039190911691907f8be0079c531659141344cd1fd0a4f28419497f9722a3daafe3b4186f6b6457e0908290a3610fc2806100696000396000f3fe608060405234801561001057600080fd5b50600436106100ec576000357c0100000000000000000000000000000000000000000000000000000000900480638f32d59b116100a9578063c79b124511610083578063c79b1245146102bd578063e23613e91461037a578063f2fde38b146103ae578063fb109a5a146103d4576100ec565b80638f32d59b146101d2578063a5fa7976146101ee578063aff791cc1461029a576100ec565b80630df2019a146100f1578063296205d81461012957806365922b7414610168578063697028de14610194578063715018a6146101c05780638da5cb5b146101ca575b600080fd5b6101176004803603602081101561010757600080fd5b5035600160a060020a03166103f7565b60408051918252519081900360200190f35b61014c6004803603604081101561013f57600080fd5b5080359060200135610409565b60408051600160a060020a039092168252519081900360200190f35b6101176004803603604081101561017e57600080fd5b5080359060200135600160a060020a0316610440565b610117600480360360408110156101aa57600080fd5b5080359060200135600160a060020a031661045d565b6101c861047a565b005b61014c6104e4565b6101da6104f4565b604080519115158252519081900360200190f35b6101c86004803603606081101561020457600080fd5b8135919081019060408101602082013564010000000081111561022657600080fd5b82018360208201111561023857600080fd5b8035906020019184602083028401116401000000008311171561025a57600080fd5b9190808060200260200160405190810160405280939291908181526020018383602002808284376000920191909152509295505091359250610505915050565b61014c600480360360408110156102b057600080fd5b508035906020013561062e565b6102da600480360360208110156102d357600080fd5b5035610649565b604051808481526020018060200180602001838103835285818151815260200191508051906020019060200280838360005b8381101561032457818101518382015260200161030c565b50505050905001838103825284818151815260200191508051906020019060200280838360005b8381101561036357818101518382015260200161034b565b505050509050019550505050505060405180910390f35b6101c86004803603606081101561039057600080fd5b50803590600160a060020a0360208201358116916040013516610721565b6101c8600480360360208110156103c457600080fd5b5035600160a060020a03166109b4565b610117600480360360408110156103ea57600080fd5b50803590602001356109d3565b60066020526000908152604090205481565b60036020528160005260406000208181548110151561042457fe5b600091825260209091200154600160a060020a03169150829050565b600560209081526000928352604080842090915290825290205481565b600260209081526000928352604080842090915290825290205481565b6104826104f4565b151561048d57600080fd5b60008054604051600160a060020a03909116907f8be0079c531659141344cd1fd0a4f28419497f9722a3daafe3b4186f6b6457e0908390a36000805473ffffffffffffffffffffffffffffffffffffffff19169055565b600054600160a060020a03165b90565b600054600160a060020a0316331490565b61050d6104e4565b600160a060020a0316321461058357604080517f08c379a000000000000000000000000000000000000000000000000000000000815260206004820152601b60248201527fe8b083e794a8e88085e6b2a1e69c89e8b083e794a8e69d83e999900000000000604482015290519081900360640190fd5b60008381526007602052604090205460ff16156105eb576040517f08c379a0000000000000000000000000000000000000000000000000000000008152600401808060200182810382526027815260200180610f706027913960400191505060405180910390fd5b6105f6838383610a03565b6040805133815290517ffe0fa2cbd85458de47a12ee4bdcea0e55004fba77cc7b6734128bcb5e4cc5fec9181900360200190a1505050565b60016020528160005260406000208181548110151561042457fe5b6000818152600860209081526040808320546003835281842060048452828520815484518187028101870190955280855260609586959184918301828280156106bb57602002820191906000526020600020905b8154600160a060020a0316815260019091019060200180831161069d575b505050505091508080548060200260200160405190810160405280929190818152602001828054801561070d57602002820191906000526020600020905b8154815260200190600101908083116106f9575b505050505090509250925092509193909250565b600160a060020a03828116908216146109af576000838152600160205260409020541515610791576000838152600160208181526040832080549283018155835290912001805473ffffffffffffffffffffffffffffffffffffffff1916600160a060020a0384161790556109af565b60005b6000848152600160205260409020548110156109ad5760008481526001602052604090208054829081106107c457fe5b600091825260209091200154600160a060020a038481169116146108e357600084815260016020818152604080842080549384018155845292819020909101805473ffffffffffffffffffffffffffffffffffffffff1916600160a060020a03871617905581517f669dafe800000000000000000000000000000000000000000000000000000000815260056004820152915173__UintUtils_____________________________9263669dafe8926024808301939192829003018186803b15801561088f57600080fd5b505af41580156108a3573d6000803e3d6000fd5b505050506040513d60208110156108b957600080fd5b50516000858152600260209081526040808320600160a060020a03881684529091529020556109a5565b73__UintUtils_____________________________63669dafe860056040518263ffffffff167c01000000000000000000000000000000000000000000000000000000000281526004018082815260200191505060206040518083038186803b15801561094f57600080fd5b505af4158015610963573d6000803e3d6000fd5b505050506040513d602081101561097957600080fd5b50516000858152600260209081526040808320600160a060020a03881684529091529020805490910190555b600101610794565b505b505050565b6109bc6104f4565b15156109c757600080fd5b6109d081610d96565b50565b6004602052816000526040600020818154811015156109ee57fe5b90600052602060002001600091509150505481565b600060328351101515610a1857506032610a1c565b5081515b80604051908082528060200260200182016040528015610a46578160200160208202803883390190505b5060008581526003602090815260409091208251610a6a9391929190910190610e6b565b5080604051908082528060200260200182016040528015610a95578160200160208202803883390190505b5060008581526004602090815260409091208251610ab99391929190910190610edd565b5060008481526003602090815260409091208451610ad992860190610e6b565b5060005b818160ff161015610d775760ff81161515610b4257610b146064610b0885600a63ffffffff610e1316565b9063ffffffff610e4716565b6000868152600460205260409020805460ff8416908110610b3157fe5b600091825260209091200155610c20565b60018160ff1610158015610b5a575060028160ff1611155b15610b7657610b146103e8610b0885604b63ffffffff610e1316565b60038160ff1610158015610b8e575060058160ff1611155b15610ba957610b146064610b0885600563ffffffff610e1316565b60068160ff1610158015610bc1575060098160ff1611155b15610bdd57610b146103e8610b0885601963ffffffff610e1316565b610bf66028610b0860648187603263ffffffff610e1316565b6000868152600460205260409020805460ff8416908110610c1357fe5b6000918252602090912001555b6000858152600460205260409020805460ff8316908110610c3d57fe5b600091825260208083209091015487835260058252604080842060039093528320805491939160ff8616908110610c7057fe5b6000918252602080832090910154600160a060020a03168352828101939093526040918201812080549094019093558783526005825280832060039092528220805491929160ff8516908110610cc257fe5b6000918252602080832090910154600160a060020a0316835282810193909352604091820181205488825260039093529081208054600692919060ff8616908110610d0957fe5b6000918252602080832090910154600160a060020a0316835282810193909352604091820181209390935587835260049091529020805460ff8316908110610d4d57fe5b60009182526020808320909101548783526008909152604090912080549091019055600101610add565b505050600091825250600760205260409020805460ff19166001179055565b600160a060020a0381161515610dab57600080fd5b60008054604051600160a060020a03808516939216917f8be0079c531659141344cd1fd0a4f28419497f9722a3daafe3b4186f6b6457e091a36000805473ffffffffffffffffffffffffffffffffffffffff1916600160a060020a0392909216919091179055565b6000821515610e2457506000610e41565b828202828482811515610e3357fe5b0414610e3e57600080fd5b90505b92915050565b6000808211610e5557600080fd5b60008284811515610e6257fe5b04949350505050565b828054828255906000526020600020908101928215610ecd579160200282015b82811115610ecd578251825473ffffffffffffffffffffffffffffffffffffffff1916600160a060020a03909116178255602090920191600190910190610e8b565b50610ed9929150610f24565b5090565b828054828255906000526020600020908101928215610f18579160200282015b82811115610f18578251825591602001919060010190610efd565b50610ed9929150610f55565b6104f191905b80821115610ed957805473ffffffffffffffffffffffffffffffffffffffff19168155600101610f2a565b6104f191905b80821115610ed95760008155600101610f5b56fee69cace8bdaee6aca1e8a382e58f98e5a596e58ab1e5b7b2e7bb8fe58886e9858de7bb93e69d9fa165627a7a723058201ef73e7ec65080b8175c43af02ea283ba44a1228b9a6ef9452206bc70d92ce430029",
  "source": "pragma solidity >=0.4.21 <0.6.0;\n\nimport \"../node_modules/openzeppelin-solidity/contracts/math/SafeMath.sol\";\nimport \"../node_modules/openzeppelin-solidity/contracts/ownership/Ownable.sol\";\nimport \"./UintUtils.sol\";\n\n// 1.裂变奖励\n// 裂变奖励可以在当前轮次的募资期计算结果，并预分配奖励额\n// 获取裂变排序列表\n// 这一步必须在募资期完成\n\ncontract FissionReward is Ownable{\n\n    using SafeMath for uint256;\n\n    event FissionInfo(uint256 indexed _stepIndex, address[] fissionWinners, uint256[] fissionRewards);\n\n    // 当前轮次的推广者\n    mapping(uint256 => address[]) public affmanArray;\n    // 推广者赚取的Token\n    mapping(uint256 => mapping(address => uint256)) public affmanEarnedToken;\n\n    // 获奖者数组\n    mapping(uint256 => address[]) public fissionWinners;\n    // 奖金数组\n    mapping(uint256 => uint256[]) public fissionRewards;\n    // step => 获奖地址 => 奖金\n    mapping(uint256 => mapping(address => uint256)) public fissionRewardAmount;\n    // 用户累计奖金\n    mapping(address => uint256) public fissionFunderTotalBalance;\n\n    // 裂变奖励分配结束\n    mapping(uint256 => bool) currentStepHasFinished;\n\n    // 轮次=>奖励金\n    mapping(uint256 => uint256) totalFissionReward;\n\n    constructor() public {\n\n    }\n\n    /// @notice 获取裂变奖励信息\n    function getFissionInfo(uint256 _stepIndex)\n        public\n        view\n        returns(uint256, address[] memory, uint256[] memory)\n    {\n        return(totalFissionReward[_stepIndex], fissionWinners[_stepIndex], fissionRewards[_stepIndex]);\n    }\n\n    event PrintSender(address sender);\n\n    /// @notice 处理裂变奖励信息\n    function dealFissionInfo(\n        uint256 _stepIndex,\n        address[] memory _fissionWinner,\n        uint256 _totalFissionReward\n    )\n        public\n    {\n        require(tx.origin == owner(), \"调用者没有调用权限\");\n        require(!currentStepHasFinished[_stepIndex], \"本轮次裂变奖励已经分配结束\");\n        _dealFissionInfo(_stepIndex, _fissionWinner, _totalFissionReward);\n        emit PrintSender(msg.sender);\n    }\n\n    function addAffman(\n        uint256 _stepIndex,\n        address _promoter,\n        address _initialFissionPerson\n    ) public {\n        if(_promoter != _initialFissionPerson){\n            if(affmanArray[_stepIndex].length == 0){\n                affmanArray[_stepIndex].push(_promoter);\n            }else{\n                for(uint i = 0; i < affmanArray[_stepIndex].length; i++){\n                    if(_promoter != affmanArray[_stepIndex][i]){\n                        affmanArray[_stepIndex].push(_promoter);\n                        affmanEarnedToken[_stepIndex][_promoter] = UintUtils.toWei(5);\n                    }else{\n                        affmanEarnedToken[_stepIndex][_promoter] += UintUtils.toWei(5);\n                    }\n                }\n            }\n        }else{\n            return;\n        }\n    }\n\n    /// @notice 处理裂变奖励信息\n    function _dealFissionInfo(\n        uint256 _stepIndex,\n        address[] memory _fissionWinner,\n        uint256 _totalFissionReward\n    )\n        internal\n    {\n\n        uint256 winners;\n\n        if(_fissionWinner.length >= 50){\n            winners = 50;\n        }else{\n            winners = _fissionWinner.length;\n        }\n\n        fissionWinners[_stepIndex] = new address[](winners);\n\n        fissionRewards[_stepIndex] = new uint256[](winners);\n\n        fissionWinners[_stepIndex] = _fissionWinner;\n\n        for(uint8 i = 0; i < winners; i++) {\n            if (i == 0) { //第1名奖励10%\n                fissionRewards[_stepIndex][i] = _totalFissionReward.mul(10).div(100);\n            } else if (i >= 1 && i <= 2) { // 第2、3名奖励\n                fissionRewards[_stepIndex][i] = _totalFissionReward.mul(75).div(1000);\n            } else if (i >= 3 && i <= 5) {\n                fissionRewards[_stepIndex][i] = _totalFissionReward.mul(5).div(100);\n            } else if (i >= 6 && i <= 9) {\n                fissionRewards[_stepIndex][i] = _totalFissionReward.mul(25).div(1000);\n            } else {\n                fissionRewards[_stepIndex][i] = _totalFissionReward.mul(50).div(100).div(40);\n            }\n\n            // 设置余额\n            fissionRewardAmount[_stepIndex][fissionWinners[_stepIndex][i]] += fissionRewards[_stepIndex][i];\n\n            // 保存总奖励金额\n            fissionFunderTotalBalance[fissionWinners[_stepIndex][i]] = fissionRewardAmount[_stepIndex][fissionWinners[_stepIndex][i]];\n\n            totalFissionReward[_stepIndex] += fissionRewards[_stepIndex][i];\n        }\n\n        currentStepHasFinished[_stepIndex] = true;\n    }\n\n}",
  "sourcePath": "/Users/a186r/dev/sourcecode/contract/contract/contracts/FissionReward.sol",
  "compiler": {
    "name": "solc",
    "version": "0.5.2+commit.1df8f40c.Emscripten.clang"
  },
  "schemaVersion": "3.0.6",
  "updatedAt": "2019-06-04T07:09:41.573Z",
  "devdoc": {
    "methods": {
      "isOwner()": {
        "return": "true if `msg.sender` is the owner of the contract."
      },
      "owner()": {
        "return": "the address of the owner."
      },
      "renounceOwnership()": {
        "details": "Allows the current owner to relinquish control of the contract. It will not be possible to call the functions with the `onlyOwner` modifier anymore."
      },
      "transferOwnership(address)": {
        "details": "Allows the current owner to transfer control of the contract to a newOwner.",
        "params": {
          "newOwner": "The address to transfer ownership to."
        }
      }
    }
  },
  "userdoc": {
    "methods": {
      "dealFissionInfo(uint256,address[],uint256)": {
        "notice": "处理裂变奖励信息"
      },
      "getFissionInfo(uint256)": {
        "notice": "获取裂变奖励信息"
      },
      "renounceOwnership()": {
        "notice": "Renouncing ownership will leave the contract without an owner, thereby removing any functionality that is only available to the owner."
      }
    }
  }
}