{
  "contractName": "FissionReward",
  "abi": [
    {
      "constant": true,
      "inputs": [
        {
          "name": "",
          "type": "address"
        }
      ],
      "name": "fissionFunderTotalBalance",
      "outputs": [
        {
          "name": "",
          "type": "uint256"
        }
      ],
      "payable": false,
      "stateMutability": "view",
      "type": "function"
    },
    {
      "constant": true,
      "inputs": [
        {
          "name": "",
          "type": "uint256"
        },
        {
          "name": "",
          "type": "uint256"
        }
      ],
      "name": "fissionWinners",
      "outputs": [
        {
          "name": "",
          "type": "address"
        }
      ],
      "payable": false,
      "stateMutability": "view",
      "type": "function"
    },
    {
      "constant": true,
      "inputs": [
        {
          "name": "",
          "type": "uint256"
        },
        {
          "name": "",
          "type": "address"
        }
      ],
      "name": "fissionRewardAmount",
      "outputs": [
        {
          "name": "",
          "type": "uint256"
        }
      ],
      "payable": false,
      "stateMutability": "view",
      "type": "function"
    },
    {
      "constant": true,
      "inputs": [
        {
          "name": "",
          "type": "uint256"
        },
        {
          "name": "",
          "type": "address"
        }
      ],
      "name": "affmanEarnedToken",
      "outputs": [
        {
          "name": "",
          "type": "uint256"
        }
      ],
      "payable": false,
      "stateMutability": "view",
      "type": "function"
    },
    {
      "constant": false,
      "inputs": [],
      "name": "renounceOwnership",
      "outputs": [],
      "payable": false,
      "stateMutability": "nonpayable",
      "type": "function"
    },
    {
      "constant": false,
      "inputs": [
        {
          "name": "_authority",
          "type": "address"
        }
      ],
      "name": "setAuthority",
      "outputs": [],
      "payable": false,
      "stateMutability": "nonpayable",
      "type": "function"
    },
    {
      "constant": true,
      "inputs": [],
      "name": "owner",
      "outputs": [
        {
          "name": "",
          "type": "address"
        }
      ],
      "payable": false,
      "stateMutability": "view",
      "type": "function"
    },
    {
      "constant": true,
      "inputs": [],
      "name": "isOwner",
      "outputs": [
        {
          "name": "",
          "type": "bool"
        }
      ],
      "payable": false,
      "stateMutability": "view",
      "type": "function"
    },
    {
      "constant": true,
      "inputs": [
        {
          "name": "",
          "type": "uint256"
        },
        {
          "name": "",
          "type": "uint256"
        }
      ],
      "name": "affmanArray",
      "outputs": [
        {
          "name": "",
          "type": "address"
        }
      ],
      "payable": false,
      "stateMutability": "view",
      "type": "function"
    },
    {
      "constant": false,
      "inputs": [
        {
          "name": "newOwner",
          "type": "address"
        }
      ],
      "name": "transferOwnership",
      "outputs": [],
      "payable": false,
      "stateMutability": "nonpayable",
      "type": "function"
    },
    {
      "constant": true,
      "inputs": [
        {
          "name": "",
          "type": "uint256"
        },
        {
          "name": "",
          "type": "uint256"
        }
      ],
      "name": "fissionRewards",
      "outputs": [
        {
          "name": "",
          "type": "uint256"
        }
      ],
      "payable": false,
      "stateMutability": "view",
      "type": "function"
    },
    {
      "inputs": [],
      "payable": false,
      "stateMutability": "nonpayable",
      "type": "constructor"
    },
    {
      "anonymous": false,
      "inputs": [
        {
          "indexed": true,
          "name": "_stepIndex",
          "type": "uint256"
        },
        {
          "indexed": false,
          "name": "fissionWinners",
          "type": "address[]"
        },
        {
          "indexed": false,
          "name": "fissionRewards",
          "type": "uint256[]"
        }
      ],
      "name": "FissionInfo",
      "type": "event"
    },
    {
      "anonymous": false,
      "inputs": [
        {
          "indexed": true,
          "name": "previousOwner",
          "type": "address"
        },
        {
          "indexed": true,
          "name": "newOwner",
          "type": "address"
        }
      ],
      "name": "OwnershipTransferred",
      "type": "event"
    },
    {
      "constant": true,
      "inputs": [
        {
          "name": "_stepIndex",
          "type": "uint256"
        }
      ],
      "name": "getFissionInfo",
      "outputs": [
        {
          "name": "",
          "type": "uint256"
        },
        {
          "name": "",
          "type": "address[]"
        },
        {
          "name": "",
          "type": "uint256[]"
        }
      ],
      "payable": false,
      "stateMutability": "view",
      "type": "function"
    },
    {
      "constant": false,
      "inputs": [
        {
          "name": "_stepIndex",
          "type": "uint256"
        },
        {
          "name": "_fissionWinner",
          "type": "address[]"
        },
        {
          "name": "_totalFissionReward",
          "type": "uint256"
        }
      ],
      "name": "dealFissionInfo",
      "outputs": [],
      "payable": false,
      "stateMutability": "nonpayable",
      "type": "function"
    },
    {
      "constant": false,
      "inputs": [
        {
          "name": "_stepIndex",
          "type": "uint256"
        },
        {
          "name": "_promoter",
          "type": "address"
        },
        {
          "name": "_initialFissionPerson",
          "type": "address"
        }
      ],
      "name": "addAffman",
      "outputs": [],
      "payable": false,
      "stateMutability": "nonpayable",
      "type": "function"
    }
  ],
  "bytecode": "0x608060405234801561001057600080fd5b5060008054600160a060020a0319163317808255604051600160a060020a039190911691907f8be0079c531659141344cd1fd0a4f28419497f9722a3daafe3b4186f6b6457e0908290a3610f8f806100696000396000f3fe608060405234801561001057600080fd5b5060043610610107576000357c0100000000000000000000000000000000000000000000000000000000900480638f32d59b116100a9578063c79b124511610083578063c79b1245146102fe578063e23613e9146103bb578063f2fde38b146103ef578063fb109a5a1461041557610107565b80638f32d59b14610213578063a5fa79761461022f578063aff791cc146102db57610107565b8063697028de116100e5578063697028de146101af578063715018a6146101db5780637a9e5e4b146101e55780638da5cb5b1461020b57610107565b80630df2019a1461010c578063296205d81461014457806365922b7414610183575b600080fd5b6101326004803603602081101561012257600080fd5b5035600160a060020a0316610438565b60408051918252519081900360200190f35b6101676004803603604081101561015a57600080fd5b508035906020013561044a565b60408051600160a060020a039092168252519081900360200190f35b6101326004803603604081101561019957600080fd5b5080359060200135600160a060020a0316610481565b610132600480360360408110156101c557600080fd5b5080359060200135600160a060020a031661049e565b6101e36104bb565b005b6101e3600480360360208110156101fb57600080fd5b5035600160a060020a0316610525565b61016761055f565b61021b61056f565b604080519115158252519081900360200190f35b6101e36004803603606081101561024557600080fd5b8135919081019060408101602082013564010000000081111561026757600080fd5b82018360208201111561027957600080fd5b8035906020019184602083028401116401000000008311171561029b57600080fd5b9190808060200260200160405190810160405280939291908181526020018383602002808284376000920191909152509295505091359250610580915050565b610167600480360360408110156102f157600080fd5b50803590602001356105f8565b61031b6004803603602081101561031457600080fd5b5035610613565b604051808481526020018060200180602001838103835285818151815260200191508051906020019060200280838360005b8381101561036557818101518382015260200161034d565b50505050905001838103825284818151815260200191508051906020019060200280838360005b838110156103a457818101518382015260200161038c565b505050509050019550505050505060405180910390f35b6101e3600480360360608110156103d157600080fd5b50803590600160a060020a03602082013581169160400135166106eb565b6101e36004803603602081101561040557600080fd5b5035600160a060020a0316610981565b6101326004803603604081101561042b57600080fd5b50803590602001356109a0565b60076020526000908152604090205481565b60046020528160005260406000208181548110151561046557fe5b600091825260209091200154600160a060020a03169150829050565b600660209081526000928352604080842090915290825290205481565b600360209081526000928352604080842090915290825290205481565b6104c361056f565b15156104ce57600080fd5b60008054604051600160a060020a03909116907f8be0079c531659141344cd1fd0a4f28419497f9722a3daafe3b4186f6b6457e0908390a36000805473ffffffffffffffffffffffffffffffffffffffff19169055565b61052d61056f565b151561053857600080fd5b600160a060020a03166000908152600160208190526040909120805460ff19169091179055565b600054600160a060020a03165b90565b600054600160a060020a0316331490565b60008381526008602052604090205460ff16156105e8576040517f08c379a0000000000000000000000000000000000000000000000000000000008152600401808060200182810382526027815260200180610f3d6027913960400191505060405180910390fd5b6105f38383836109d0565b505050565b60026020528160005260406000208181548110151561046557fe5b60008181526009602090815260408083205460048352818420600584528285208154845181870281018701909552808552606095869591849183018282801561068557602002820191906000526020600020905b8154600160a060020a03168152600190910190602001808311610667575b50505050509150808054806020026020016040519081016040528092919081815260200182805480156106d757602002820191906000526020600020905b8154815260200190600101908083116106c3575b505050505090509250925092509193909250565b600160a060020a038281169082161461097c57600083815260026020526040902054151561075c57600083815260026020908152604082208054600181018255908352912001805473ffffffffffffffffffffffffffffffffffffffff1916600160a060020a03841617905561097c565b60005b60008481526002602052604090205481101561097a57600084815260026020526040902080548290811061078f57fe5b600091825260209091200154600160a060020a038481169116146108b0576000848152600260209081526040808320805460018101825590845292829020909201805473ffffffffffffffffffffffffffffffffffffffff1916600160a060020a03871617905581517f669dafe800000000000000000000000000000000000000000000000000000000815260056004820152915173__UintUtils_____________________________9263669dafe8926024808301939192829003018186803b15801561085c57600080fd5b505af4158015610870573d6000803e3d6000fd5b505050506040513d602081101561088657600080fd5b50516000858152600360209081526040808320600160a060020a0388168452909152902055610972565b73__UintUtils_____________________________63669dafe860056040518263ffffffff167c01000000000000000000000000000000000000000000000000000000000281526004018082815260200191505060206040518083038186803b15801561091c57600080fd5b505af4158015610930573d6000803e3d6000fd5b505050506040513d602081101561094657600080fd5b50516000858152600360209081526040808320600160a060020a03881684529091529020805490910190555b60010161075f565b505b6105f3565b61098961056f565b151561099457600080fd5b61099d81610d63565b50565b6005602052816000526040600020818154811015156109bb57fe5b90600052602060002001600091509150505481565b6000603283511015156109e5575060326109e9565b5081515b80604051908082528060200260200182016040528015610a13578160200160208202803883390190505b5060008581526004602090815260409091208251610a379391929190910190610e38565b5080604051908082528060200260200182016040528015610a62578160200160208202803883390190505b5060008581526005602090815260409091208251610a869391929190910190610eaa565b5060008481526004602090815260409091208451610aa692860190610e38565b5060005b818160ff161015610d445760ff81161515610b0f57610ae16064610ad585600a63ffffffff610de016565b9063ffffffff610e1416565b6000868152600560205260409020805460ff8416908110610afe57fe5b600091825260209091200155610bed565b60018160ff1610158015610b27575060028160ff1611155b15610b4357610ae16103e8610ad585604b63ffffffff610de016565b60038160ff1610158015610b5b575060058160ff1611155b15610b7657610ae16064610ad585600563ffffffff610de016565b60068160ff1610158015610b8e575060098160ff1611155b15610baa57610ae16103e8610ad585601963ffffffff610de016565b610bc36028610ad560648187603263ffffffff610de016565b6000868152600560205260409020805460ff8416908110610be057fe5b6000918252602090912001555b6000858152600560205260409020805460ff8316908110610c0a57fe5b600091825260208083209091015487835260068252604080842060049093528320805491939160ff8616908110610c3d57fe5b6000918252602080832090910154600160a060020a03168352828101939093526040918201812080549094019093558783526006825280832060049092528220805491929160ff8516908110610c8f57fe5b6000918252602080832090910154600160a060020a0316835282810193909352604091820181205488825260049093529081208054600792919060ff8616908110610cd657fe5b6000918252602080832090910154600160a060020a0316835282810193909352604091820181209390935587835260059091529020805460ff8316908110610d1a57fe5b60009182526020808320909101548783526009909152604090912080549091019055600101610aaa565b505050600091825250600860205260409020805460ff19166001179055565b600160a060020a0381161515610d7857600080fd5b60008054604051600160a060020a03808516939216917f8be0079c531659141344cd1fd0a4f28419497f9722a3daafe3b4186f6b6457e091a36000805473ffffffffffffffffffffffffffffffffffffffff1916600160a060020a0392909216919091179055565b6000821515610df157506000610e0e565b828202828482811515610e0057fe5b0414610e0b57600080fd5b90505b92915050565b6000808211610e2257600080fd5b60008284811515610e2f57fe5b04949350505050565b828054828255906000526020600020908101928215610e9a579160200282015b82811115610e9a578251825473ffffffffffffffffffffffffffffffffffffffff1916600160a060020a03909116178255602090920191600190910190610e58565b50610ea6929150610ef1565b5090565b828054828255906000526020600020908101928215610ee5579160200282015b82811115610ee5578251825591602001919060010190610eca565b50610ea6929150610f22565b61056c91905b80821115610ea657805473ffffffffffffffffffffffffffffffffffffffff19168155600101610ef7565b61056c91905b80821115610ea65760008155600101610f2856fee69cace8bdaee6aca1e8a382e58f98e5a596e58ab1e5b7b2e7bb8fe58886e9858de7bb93e69d9fa165627a7a72305820f0923db0ae365c693d33db378bf06a1d5fe3fdf34567e1007ba9be0fa4700c320029",
  "source": "pragma solidity >=0.4.21 <0.6.0;\n\nimport \"../node_modules/openzeppelin-solidity/contracts/math/SafeMath.sol\";\nimport \"./UintUtils.sol\";\nimport \"./Authority.sol\";\n\n// 1.裂变奖励\n// 裂变奖励可以在当前轮次的募资期计算结果，并预分配奖励额\n// 获取裂变排序列表\n// 这一步必须在募资期完成\n\n// TODO:如果要共享结构体，可以将结构体放在一个struct中，暂时先不拆\ncontract FissionReward is Authority{\n\n    using SafeMath for uint256;\n\n    event FissionInfo(uint256 indexed _stepIndex, address[] fissionWinners, uint256[] fissionRewards);\n\n    // 当前轮次的推广者\n    mapping(uint256 => address[]) public affmanArray;\n    // 推广者赚取的Token\n    mapping(uint256 => mapping(address => uint256)) public affmanEarnedToken;\n\n    // 获奖者数组\n    mapping(uint256 => address[]) public fissionWinners;\n    // 奖金数组\n    mapping(uint256 => uint256[]) public fissionRewards;\n    // step => 获奖地址 => 奖金\n    mapping(uint256 => mapping(address => uint256)) public fissionRewardAmount;\n    // 用户累计奖金\n    mapping(address => uint256) public fissionFunderTotalBalance;\n\n    // 裂变奖励分配结束\n    mapping(uint256 => bool) currentStepHasFinished;\n\n    // 轮次=>奖励金\n    mapping(uint256 => uint256) totalFissionReward;\n\n    constructor() public {\n\n    }\n\n    /// @notice 获取裂变奖励信息\n    function getFissionInfo(uint256 _stepIndex)\n        public\n        view\n        returns(uint256, address[] memory, uint256[] memory)\n    {\n        return(totalFissionReward[_stepIndex], fissionWinners[_stepIndex], fissionRewards[_stepIndex]);\n    }\n\n    /// @notice 处理裂变奖励信息\n    function dealFissionInfo(\n        uint256 _stepIndex,\n        address[] memory _fissionWinner,\n        uint256 _totalFissionReward\n    )\n        public\n        // onlyAuthority()\n    {\n        require(!currentStepHasFinished[_stepIndex], \"本轮次裂变奖励已经分配结束\");\n        _dealFissionInfo(_stepIndex, _fissionWinner, _totalFissionReward);\n    }\n\n    function addAffman(\n        uint256 _stepIndex,\n        address _promoter,\n        address _initialFissionPerson\n    ) public {\n        if(_promoter != _initialFissionPerson){\n            if(affmanArray[_stepIndex].length == 0){\n                affmanArray[_stepIndex].push(_promoter);\n            }else{\n                for(uint i = 0; i < affmanArray[_stepIndex].length; i++){\n                    if(_promoter != affmanArray[_stepIndex][i]){\n                        affmanArray[_stepIndex].push(_promoter);\n                        affmanEarnedToken[_stepIndex][_promoter] = UintUtils.toWei(5);\n                    }else{\n                        affmanEarnedToken[_stepIndex][_promoter] += UintUtils.toWei(5);\n                    }\n                }\n            }\n        }else{\n            return;\n        }\n    }\n\n    /// @notice 处理裂变奖励信息\n    function _dealFissionInfo(\n        uint256 _stepIndex,\n        address[] memory _fissionWinner,\n        uint256 _totalFissionReward\n    )\n        internal\n    {\n\n        uint256 winners;\n\n        if(_fissionWinner.length >= 50){\n            winners = 50;\n        }else{\n            winners = _fissionWinner.length;\n        }\n\n        fissionWinners[_stepIndex] = new address[](winners);\n\n        fissionRewards[_stepIndex] = new uint256[](winners);\n\n        fissionWinners[_stepIndex] = _fissionWinner;\n\n        for(uint8 i = 0; i < winners; i++) {\n            if (i == 0) { //第1名奖励10%\n                fissionRewards[_stepIndex][i] = _totalFissionReward.mul(10).div(100);\n            } else if (i >= 1 && i <= 2) { // 第2、3名奖励\n                fissionRewards[_stepIndex][i] = _totalFissionReward.mul(75).div(1000);\n            } else if (i >= 3 && i <= 5) {\n                fissionRewards[_stepIndex][i] = _totalFissionReward.mul(5).div(100);\n            } else if (i >= 6 && i <= 9) {\n                fissionRewards[_stepIndex][i] = _totalFissionReward.mul(25).div(1000);\n            } else {\n                fissionRewards[_stepIndex][i] = _totalFissionReward.mul(50).div(100).div(40);\n            }\n\n            // 设置余额\n            fissionRewardAmount[_stepIndex][fissionWinners[_stepIndex][i]] += fissionRewards[_stepIndex][i];\n\n            // 保存总奖励金额\n            fissionFunderTotalBalance[fissionWinners[_stepIndex][i]] = fissionRewardAmount[_stepIndex][fissionWinners[_stepIndex][i]];\n\n            totalFissionReward[_stepIndex] += fissionRewards[_stepIndex][i];\n        }\n\n        currentStepHasFinished[_stepIndex] = true;\n    }\n\n}",
  "sourcePath": "/root/contract/contract/contracts/FissionReward.sol",
  "compiler": {
    "name": "solc",
    "version": "0.5.2+commit.1df8f40c.Emscripten.clang"
  },
  "schemaVersion": "3.0.10",
  "updatedAt": "2019-06-04T08:07:20.538Z",
  "devdoc": {
    "methods": {
      "isOwner()": {
        "return": "true if `msg.sender` is the owner of the contract."
      },
      "owner()": {
        "return": "the address of the owner."
      },
      "renounceOwnership()": {
        "details": "Allows the current owner to relinquish control of the contract. It will not be possible to call the functions with the `onlyOwner` modifier anymore."
      },
      "transferOwnership(address)": {
        "details": "Allows the current owner to transfer control of the contract to a newOwner.",
        "params": {
          "newOwner": "The address to transfer ownership to."
        }
      }
    }
  },
  "userdoc": {
    "methods": {
      "dealFissionInfo(uint256,address[],uint256)": {
        "notice": "处理裂变奖励信息"
      },
      "getFissionInfo(uint256)": {
        "notice": "获取裂变奖励信息"
      },
      "renounceOwnership()": {
        "notice": "Renouncing ownership will leave the contract without an owner, thereby removing any functionality that is only available to the owner."
      }
    }
  }
}