{
  "contractName": "FissionReward",
  "abi": [
    {
      "constant": true,
      "inputs": [
        {
          "name": "",
          "type": "address"
        }
      ],
      "name": "fissionFunderTotalBalance",
      "outputs": [
        {
          "name": "",
          "type": "uint256"
        }
      ],
      "payable": false,
      "stateMutability": "view",
      "type": "function",
      "signature": "0x0df2019a"
    },
    {
      "constant": true,
      "inputs": [
        {
          "name": "",
          "type": "uint256"
        },
        {
          "name": "",
          "type": "uint256"
        }
      ],
      "name": "fissionWinners",
      "outputs": [
        {
          "name": "",
          "type": "address"
        }
      ],
      "payable": false,
      "stateMutability": "view",
      "type": "function",
      "signature": "0x296205d8"
    },
    {
      "constant": true,
      "inputs": [
        {
          "name": "",
          "type": "uint256"
        },
        {
          "name": "",
          "type": "address"
        }
      ],
      "name": "fissionRewardAmount",
      "outputs": [
        {
          "name": "",
          "type": "uint256"
        }
      ],
      "payable": false,
      "stateMutability": "view",
      "type": "function",
      "signature": "0x65922b74"
    },
    {
      "constant": true,
      "inputs": [
        {
          "name": "",
          "type": "uint256"
        },
        {
          "name": "",
          "type": "address"
        }
      ],
      "name": "affmanEarnedToken",
      "outputs": [
        {
          "name": "",
          "type": "uint256"
        }
      ],
      "payable": false,
      "stateMutability": "view",
      "type": "function",
      "signature": "0x697028de"
    },
    {
      "constant": true,
      "inputs": [
        {
          "name": "",
          "type": "uint256"
        },
        {
          "name": "",
          "type": "uint256"
        }
      ],
      "name": "affmanArray",
      "outputs": [
        {
          "name": "",
          "type": "address"
        }
      ],
      "payable": false,
      "stateMutability": "view",
      "type": "function",
      "signature": "0xaff791cc"
    },
    {
      "constant": true,
      "inputs": [
        {
          "name": "",
          "type": "uint256"
        },
        {
          "name": "",
          "type": "uint256"
        }
      ],
      "name": "fissionRewards",
      "outputs": [
        {
          "name": "",
          "type": "uint256"
        }
      ],
      "payable": false,
      "stateMutability": "view",
      "type": "function",
      "signature": "0xfb109a5a"
    },
    {
      "inputs": [],
      "payable": false,
      "stateMutability": "nonpayable",
      "type": "constructor",
      "signature": "constructor"
    },
    {
      "anonymous": false,
      "inputs": [
        {
          "indexed": true,
          "name": "_stepIndex",
          "type": "uint256"
        },
        {
          "indexed": false,
          "name": "fissionWinners",
          "type": "address[]"
        },
        {
          "indexed": false,
          "name": "fissionRewards",
          "type": "uint256[]"
        }
      ],
      "name": "FissionInfo",
      "type": "event",
      "signature": "0xc67e30736b4125be7679817680e1a6f4be6068e1da34c1bb07d179cb065b6152"
    },
    {
      "constant": false,
      "inputs": [
        {
          "name": "_stepIndex",
          "type": "uint256"
        }
      ],
      "name": "getFissionInfo",
      "outputs": [],
      "payable": false,
      "stateMutability": "nonpayable",
      "type": "function",
      "signature": "0xc79b1245"
    },
    {
      "constant": false,
      "inputs": [
        {
          "name": "_stepIndex",
          "type": "uint256"
        },
        {
          "name": "_fissionWinner",
          "type": "address[]"
        },
        {
          "name": "_totalFissionReward",
          "type": "uint256"
        }
      ],
      "name": "dealFissionInfo",
      "outputs": [],
      "payable": false,
      "stateMutability": "nonpayable",
      "type": "function",
      "signature": "0xa5fa7976"
    },
    {
      "constant": false,
      "inputs": [
        {
          "name": "_stepIndex",
          "type": "uint256"
        },
        {
          "name": "_promoter",
          "type": "address"
        },
        {
          "name": "_initialFissionPerson",
          "type": "address"
        }
      ],
      "name": "addAffman",
      "outputs": [],
      "payable": false,
      "stateMutability": "nonpayable",
      "type": "function",
      "signature": "0xe23613e9"
    }
  ],
  "bytecode": "0x608060405234801561001057600080fd5b5061119e806100206000396000f3fe608060405234801561001057600080fd5b50600436106100b0576000357c010000000000000000000000000000000000000000000000000000000090048063a5fa797611610083578063a5fa797614610249578063aff791cc14610315578063c79b12451461038d578063e23613e9146103bb578063fb109a5a14610429576100b0565b80630df2019a146100b5578063296205d81461010d57806365922b7414610185578063697028de146101e7575b600080fd5b6100f7600480360360208110156100cb57600080fd5b81019080803573ffffffffffffffffffffffffffffffffffffffff169060200190929190505050610475565b6040518082815260200191505060405180910390f35b6101436004803603604081101561012357600080fd5b81019080803590602001909291908035906020019092919050505061048d565b604051808273ffffffffffffffffffffffffffffffffffffffff1673ffffffffffffffffffffffffffffffffffffffff16815260200191505060405180910390f35b6101d16004803603604081101561019b57600080fd5b8101908080359060200190929190803573ffffffffffffffffffffffffffffffffffffffff1690602001909291905050506104da565b6040518082815260200191505060405180910390f35b610233600480360360408110156101fd57600080fd5b8101908080359060200190929190803573ffffffffffffffffffffffffffffffffffffffff1690602001909291905050506104ff565b6040518082815260200191505060405180910390f35b6103136004803603606081101561025f57600080fd5b81019080803590602001909291908035906020019064010000000081111561028657600080fd5b82018360208201111561029857600080fd5b803590602001918460208302840111640100000000831117156102ba57600080fd5b919080806020026020016040519081016040528093929190818152602001838360200280828437600081840152601f19601f82011690508083019250505050505050919291929080359060200190929190505050610524565b005b61034b6004803603604081101561032b57600080fd5b8101908080359060200190929190803590602001909291905050506105ad565b604051808273ffffffffffffffffffffffffffffffffffffffff1673ffffffffffffffffffffffffffffffffffffffff16815260200191505060405180910390f35b6103b9600480360360208110156103a357600080fd5b81019080803590602001909291905050506105fa565b005b610427600480360360608110156103d157600080fd5b8101908080359060200190929190803573ffffffffffffffffffffffffffffffffffffffff169060200190929190803573ffffffffffffffffffffffffffffffffffffffff169060200190929190505050610713565b005b61045f6004803603604081101561043f57600080fd5b810190808035906020019092919080359060200190929190505050610b1c565b6040518082815260200191505060405180910390f35b60056020528060005260406000206000915090505481565b6002602052816000526040600020818154811015156104a857fe5b906000526020600020016000915091509054906101000a900473ffffffffffffffffffffffffffffffffffffffff1681565b6004602052816000526040600020602052806000526040600020600091509150505481565b6001602052816000526040600020602052806000526040600020600091509150505481565b6006600084815260200190815260200160002060009054906101000a900460ff1615151561059d576040517f08c379a000000000000000000000000000000000000000000000000000000000815260040180806020018281038252602781526020018061114c6027913960400191505060405180910390fd5b6105a8838383610b4c565b505050565b6000602052816000526040600020818154811015156105c857fe5b906000526020600020016000915091509054906101000a900473ffffffffffffffffffffffffffffffffffffffff1681565b807fc67e30736b4125be7679817680e1a6f4be6068e1da34c1bb07d179cb065b6152600260008481526020019081526020016000206003600085815260200190815260200160002060405180806020018060200183810383528581815481526020019150805480156106c157602002820191906000526020600020905b8160009054906101000a900473ffffffffffffffffffffffffffffffffffffffff1673ffffffffffffffffffffffffffffffffffffffff1681526020019060010190808311610677575b5050838103825284818154815260200191508054801561070057602002820191906000526020600020905b8154815260200190600101908083116106ec575b505094505050505060405180910390a250565b8073ffffffffffffffffffffffffffffffffffffffff168273ffffffffffffffffffffffffffffffffffffffff16141515610b115760008060008581526020019081526020016000208054905014156107e1576000808481526020019081526020016000208290806001815401808255809150509060018203906000526020600020016000909192909190916101000a81548173ffffffffffffffffffffffffffffffffffffffff021916908373ffffffffffffffffffffffffffffffffffffffff16021790555050610b0c565b60008090505b60008085815260200190815260200160002080549050811015610b0a576000808581526020019081526020016000208181548110151561082357fe5b9060005260206000200160009054906101000a900473ffffffffffffffffffffffffffffffffffffffff1673ffffffffffffffffffffffffffffffffffffffff168373ffffffffffffffffffffffffffffffffffffffff161415156109f8576000808581526020019081526020016000208390806001815401808255809150509060018203906000526020600020016000909192909190916101000a81548173ffffffffffffffffffffffffffffffffffffffff021916908373ffffffffffffffffffffffffffffffffffffffff1602179055505073__UintUtils_____________________________63669dafe860056040518263ffffffff167c01000000000000000000000000000000000000000000000000000000000281526004018082815260200191505060206040518083038186803b15801561096457600080fd5b505af4158015610978573d6000803e3d6000fd5b505050506040513d602081101561098e57600080fd5b81019080805190602001909291905050506001600086815260200190815260200160002060008573ffffffffffffffffffffffffffffffffffffffff1673ffffffffffffffffffffffffffffffffffffffff16815260200190815260200160002081905550610afd565b73__UintUtils_____________________________63669dafe860056040518263ffffffff167c01000000000000000000000000000000000000000000000000000000000281526004018082815260200191505060206040518083038186803b158015610a6457600080fd5b505af4158015610a78573d6000803e3d6000fd5b505050506040513d6020811015610a8e57600080fd5b81019080805190602001909291905050506001600086815260200190815260200160002060008573ffffffffffffffffffffffffffffffffffffffff1673ffffffffffffffffffffffffffffffffffffffff168152602001908152602001600020600082825401925050819055505b80806001019150506107e7565b505b610b16565b610b17565b5b505050565b600360205281600052604060002081815481101515610b3757fe5b90600052602060002001600091509150505481565b60008090505b60328160ff161015610fe45782600260008681526020019081526020016000209080519060200190610b8592919061107e565b5060008160ff161415610bf057610bba6103e8610bac60148561101690919063ffffffff16565b61105490919063ffffffff16565b600360008681526020019081526020016000208260ff16815481101515610bdd57fe5b9060005260206000200181905550610dd1565b60018160ff1610158015610c08575060028160ff1611155b15610c6b57610c356103e8610c27600f8561101690919063ffffffff16565b61105490919063ffffffff16565b600360008681526020019081526020016000208260ff16815481101515610c5857fe5b9060005260206000200181905550610dd0565b60038160ff1610158015610c83575060058160ff1611155b15610ce657610cb06103e8610ca2600a8561101690919063ffffffff16565b61105490919063ffffffff16565b600360008681526020019081526020016000208260ff16815481101515610cd357fe5b9060005260206000200181905550610dcf565b60068160ff1610158015610cfe575060098160ff1611155b15610d6157610d2b6103e8610d1d60058561101690919063ffffffff16565b61105490919063ffffffff16565b600360008681526020019081526020016000208260ff16815481101515610d4e57fe5b9060005260206000200181905550610dce565b610d9c6028610d8e6103e8610d80600a8761101690919063ffffffff16565b61105490919063ffffffff16565b61105490919063ffffffff16565b600360008681526020019081526020016000208260ff16815481101515610dbf57fe5b90600052602060002001819055505b5b5b5b600360008581526020019081526020016000208160ff16815481101515610df457fe5b9060005260206000200154600460008681526020019081526020016000206000600260008881526020019081526020016000208460ff16815481101515610e3757fe5b9060005260206000200160009054906101000a900473ffffffffffffffffffffffffffffffffffffffff1673ffffffffffffffffffffffffffffffffffffffff1673ffffffffffffffffffffffffffffffffffffffff16815260200190815260200160002081905550600460008581526020019081526020016000206000600260008781526020019081526020016000208360ff16815481101515610ed857fe5b9060005260206000200160009054906101000a900473ffffffffffffffffffffffffffffffffffffffff1673ffffffffffffffffffffffffffffffffffffffff1673ffffffffffffffffffffffffffffffffffffffff1681526020019081526020016000205460056000600260008881526020019081526020016000208460ff16815481101515610f6557fe5b9060005260206000200160009054906101000a900473ffffffffffffffffffffffffffffffffffffffff1673ffffffffffffffffffffffffffffffffffffffff1673ffffffffffffffffffffffffffffffffffffffff168152602001908152602001600020600082825401925050819055508080600101915050610b52565b5060016006600085815260200190815260200160002060006101000a81548160ff021916908315150217905550505050565b600080831415611029576000905061104e565b6000828402905082848281151561103c57fe5b0414151561104957600080fd5b809150505b92915050565b6000808211151561106457600080fd5b6000828481151561107157fe5b0490508091505092915050565b8280548282559060005260206000209081019282156110f7579160200282015b828111156110f65782518260006101000a81548173ffffffffffffffffffffffffffffffffffffffff021916908373ffffffffffffffffffffffffffffffffffffffff1602179055509160200191906001019061109e565b5b5090506111049190611108565b5090565b61114891905b8082111561114457600081816101000a81549073ffffffffffffffffffffffffffffffffffffffff02191690555060010161110e565b5090565b9056fee69cace8bdaee6aca1e8a382e58f98e5a596e58ab1e5b7b2e7bb8fe58886e9858de7bb93e69d9fa165627a7a723058200abd3970e54399ab6996b45ae38202bd8c2667d7f1471d8dd49d8a60b02e7b080029",
  "source": "pragma solidity >=0.4.21 <0.6.0;\n\nimport \"../node_modules/openzeppelin-solidity/contracts/math/SafeMath.sol\";\nimport \"./UintUtils.sol\";\n\n// 1.裂变奖励\n// 裂变奖励可以在当前轮次的募资期计算结果，并预分配奖励额\n// 获取裂变排序列表\n// 这一步必须在募资期完成\n\n// TODO:如果要共享结构体，可以将结构体放在一个struct中，暂时先不拆\ncontract FissionReward {\n\n    using SafeMath for uint256;\n\n    constructor() public {\n\n    }\n\n    event FissionInfo(uint256 indexed _stepIndex, address[] fissionWinners, uint256[] fissionRewards);\n\n    // 当前轮次的推广者\n    mapping(uint256 => address[]) public affmanArray;\n    // 推广者赚取的Token\n    mapping(uint256 => mapping(address => uint256)) public affmanEarnedToken;\n\n    // 获奖者数组\n    mapping(uint256 => address[]) public fissionWinners;\n    // 奖金数组\n    mapping(uint256 => uint256[]) public fissionRewards;\n    // step => 获奖地址 => 奖金\n    mapping(uint256 => mapping(address => uint256)) public fissionRewardAmount;\n    // 用户累计奖金\n    mapping(address => uint256) public fissionFunderTotalBalance;\n\n    // 裂变奖励分配结束\n    mapping(uint256 => bool) currentStepHasFinished;\n\n    /// @notice 获取裂变奖励信息\n    function getFissionInfo(uint256 _stepIndex) public {\n        emit FissionInfo(_stepIndex, fissionWinners[_stepIndex], fissionRewards[_stepIndex]);\n    }\n\n    /// @notice 处理裂变奖励信息\n    function dealFissionInfo(\n        uint256 _stepIndex,\n        address[] memory _fissionWinner,\n        uint256 _totalFissionReward\n    ) public {\n        require(!currentStepHasFinished[_stepIndex], \"本轮次裂变奖励已经分配结束\");\n        _dealFissionInfo(_stepIndex, _fissionWinner, _totalFissionReward);\n    }\n\n    function addAffman(\n        uint256 _stepIndex,\n        address _promoter,\n        address _initialFissionPerson\n    ) public {\n        if(_promoter != _initialFissionPerson){\n            if(affmanArray[_stepIndex].length == 0){\n                affmanArray[_stepIndex].push(_promoter);\n            }else{\n                for(uint i = 0; i < affmanArray[_stepIndex].length; i++){\n                    if(_promoter != affmanArray[_stepIndex][i]){\n                        affmanArray[_stepIndex].push(_promoter);\n                        affmanEarnedToken[_stepIndex][_promoter] = UintUtils.toWei(5);\n                    }else{\n                        affmanEarnedToken[_stepIndex][_promoter] += UintUtils.toWei(5);\n                    }\n                }\n            }\n        }else{\n            return;\n        }\n    }\n\n    /// @notice 处理裂变奖励信息\n    function _dealFissionInfo(\n        uint256 _stepIndex,\n        address[] memory _fissionWinner,\n        uint256 _totalFissionReward\n    ) internal {\n        for(uint8 i = 0; i < 50; i++) {\n            fissionWinners[_stepIndex] = _fissionWinner;\n\n            if (i == 0) { //第1名奖励\n                fissionRewards[_stepIndex][i] = (_totalFissionReward.mul(20).div(1000));\n            } else if (i >= 1 && i <= 2) { // 第2、3名奖励\n                fissionRewards[_stepIndex][i] = (_totalFissionReward.mul(15).div(1000));\n            } else if (i >= 3 && i <= 5) {\n                fissionRewards[_stepIndex][i] = (_totalFissionReward.mul(10).div(1000));\n            } else if (i >= 6 && i <= 9) {\n                fissionRewards[_stepIndex][i] = (_totalFissionReward.mul(5).div(1000));\n            } else {\n                fissionRewards[_stepIndex][i] = (_totalFissionReward.mul(10).div(1000).div(40));\n            }\n\n            // 设置余额\n            fissionRewardAmount[_stepIndex][fissionWinners[_stepIndex][i]] = fissionRewards[_stepIndex][i];\n\n            // 保存总奖励金额\n            fissionFunderTotalBalance[fissionWinners[_stepIndex][i]] += fissionRewardAmount[_stepIndex][fissionWinners[_stepIndex][i]];\n        }\n\n        currentStepHasFinished[_stepIndex] = true;\n\n    }\n\n}",
  "sourcePath": "/Users/a186r/dev/sourcecode/contracts/contract/contract/contracts/FissionReward.sol",
  "compiler": {
    "name": "solc",
    "version": "0.5.2+commit.1df8f40c.Emscripten.clang"
  },
  "schemaVersion": "3.0.6",
  "updatedAt": "2019-05-24T09:39:53.741Z",
  "devdoc": {
    "methods": {}
  },
  "userdoc": {
    "methods": {
      "dealFissionInfo(uint256,address[],uint256)": {
        "notice": "处理裂变奖励信息"
      },
      "getFissionInfo(uint256)": {
        "notice": "获取裂变奖励信息"
      }
    }
  }
}