{
  "contractName": "FissionReward",
  "abi": [
    {
      "constant": true,
      "inputs": [
        {
          "name": "",
          "type": "address"
        }
      ],
      "name": "fissionFunderTotalBalance",
      "outputs": [
        {
          "name": "",
          "type": "uint256"
        }
      ],
      "payable": false,
      "stateMutability": "view",
      "type": "function",
      "signature": "0x0df2019a"
    },
    {
      "constant": true,
      "inputs": [
        {
          "name": "",
          "type": "uint256"
        },
        {
          "name": "",
          "type": "uint256"
        }
      ],
      "name": "fissionWinners",
      "outputs": [
        {
          "name": "",
          "type": "address"
        }
      ],
      "payable": false,
      "stateMutability": "view",
      "type": "function",
      "signature": "0x296205d8"
    },
    {
      "constant": true,
      "inputs": [
        {
          "name": "",
          "type": "uint256"
        },
        {
          "name": "",
          "type": "address"
        }
      ],
      "name": "fissionRewardAmount",
      "outputs": [
        {
          "name": "",
          "type": "uint256"
        }
      ],
      "payable": false,
      "stateMutability": "view",
      "type": "function",
      "signature": "0x65922b74"
    },
    {
      "constant": true,
      "inputs": [
        {
          "name": "",
          "type": "uint256"
        },
        {
          "name": "",
          "type": "address"
        }
      ],
      "name": "affmanEarnedToken",
      "outputs": [
        {
          "name": "",
          "type": "uint256"
        }
      ],
      "payable": false,
      "stateMutability": "view",
      "type": "function",
      "signature": "0x697028de"
    },
    {
      "constant": true,
      "inputs": [
        {
          "name": "",
          "type": "uint256"
        },
        {
          "name": "",
          "type": "uint256"
        }
      ],
      "name": "affmanArray",
      "outputs": [
        {
          "name": "",
          "type": "address"
        }
      ],
      "payable": false,
      "stateMutability": "view",
      "type": "function",
      "signature": "0xaff791cc"
    },
    {
      "constant": true,
      "inputs": [
        {
          "name": "",
          "type": "uint256"
        },
        {
          "name": "",
          "type": "uint256"
        }
      ],
      "name": "fissionRewards",
      "outputs": [
        {
          "name": "",
          "type": "uint256"
        }
      ],
      "payable": false,
      "stateMutability": "view",
      "type": "function",
      "signature": "0xfb109a5a"
    },
    {
      "inputs": [],
      "payable": false,
      "stateMutability": "nonpayable",
      "type": "constructor",
      "signature": "constructor"
    },
    {
      "anonymous": false,
      "inputs": [
        {
          "indexed": true,
          "name": "_stepIndex",
          "type": "uint256"
        },
        {
          "indexed": false,
          "name": "fissionWinners",
          "type": "address[]"
        },
        {
          "indexed": false,
          "name": "fissionRewards",
          "type": "uint256[]"
        }
      ],
      "name": "FissionInfo",
      "type": "event",
      "signature": "0xc67e30736b4125be7679817680e1a6f4be6068e1da34c1bb07d179cb065b6152"
    },
    {
      "constant": true,
      "inputs": [
        {
          "name": "_stepIndex",
          "type": "uint256"
        }
      ],
      "name": "getFissionInfo",
      "outputs": [
        {
          "name": "",
          "type": "uint256"
        },
        {
          "name": "",
          "type": "address[]"
        },
        {
          "name": "",
          "type": "uint256[]"
        }
      ],
      "payable": false,
      "stateMutability": "view",
      "type": "function",
      "signature": "0xc79b1245"
    },
    {
      "constant": false,
      "inputs": [
        {
          "name": "_stepIndex",
          "type": "uint256"
        },
        {
          "name": "_fissionWinner",
          "type": "address[]"
        },
        {
          "name": "_totalFissionReward",
          "type": "uint256"
        }
      ],
      "name": "dealFissionInfo",
      "outputs": [],
      "payable": false,
      "stateMutability": "nonpayable",
      "type": "function",
      "signature": "0xa5fa7976"
    },
    {
      "constant": false,
      "inputs": [
        {
          "name": "_stepIndex",
          "type": "uint256"
        },
        {
          "name": "_promoter",
          "type": "address"
        },
        {
          "name": "_initialFissionPerson",
          "type": "address"
        }
      ],
      "name": "addAffman",
      "outputs": [],
      "payable": false,
      "stateMutability": "nonpayable",
      "type": "function",
      "signature": "0xe23613e9"
    }
  ],
  "bytecode": "0x608060405234801561001057600080fd5b50610c17806100206000396000f3fe608060405234801561001057600080fd5b50600436106100b0576000357c010000000000000000000000000000000000000000000000000000000090048063a5fa797611610083578063a5fa797614610184578063aff791cc14610232578063c79b124514610255578063e23613e914610312578063fb109a5a14610346576100b0565b80630df2019a146100b5578063296205d8146100ed57806365922b741461012c578063697028de14610158575b600080fd5b6100db600480360360208110156100cb57600080fd5b5035600160a060020a0316610369565b60408051918252519081900360200190f35b6101106004803603604081101561010357600080fd5b508035906020013561037b565b60408051600160a060020a039092168252519081900360200190f35b6100db6004803603604081101561014257600080fd5b5080359060200135600160a060020a03166103b2565b6100db6004803603604081101561016e57600080fd5b5080359060200135600160a060020a03166103cf565b6102306004803603606081101561019a57600080fd5b813591908101906040810160208201356401000000008111156101bc57600080fd5b8201836020820111156101ce57600080fd5b803590602001918460208302840111640100000000831117156101f057600080fd5b91908080602002602001604051908101604052809392919081815260200183836020028082843760009201919091525092955050913592506103ec915050565b005b6101106004803603604081101561024857600080fd5b5080359060200135610464565b6102726004803603602081101561026b57600080fd5b503561047f565b604051808481526020018060200180602001838103835285818151815260200191508051906020019060200280838360005b838110156102bc5781810151838201526020016102a4565b50505050905001838103825284818151815260200191508051906020019060200280838360005b838110156102fb5781810151838201526020016102e3565b505050509050019550505050505060405180910390f35b6102306004803603606081101561032857600080fd5b50803590600160a060020a0360208201358116916040013516610557565b6100db6004803603604081101561035c57600080fd5b50803590602001356107e9565b60056020526000908152604090205481565b60026020528160005260406000208181548110151561039657fe5b600091825260209091200154600160a060020a03169150829050565b600460209081526000928352604080842090915290825290205481565b600160209081526000928352604080842090915290825290205481565b60008381526006602052604090205460ff1615610454576040517f08c379a0000000000000000000000000000000000000000000000000000000008152600401808060200182810382526027815260200180610bc56027913960400191505060405180910390fd5b61045f838383610819565b505050565b60006020528160005260406000208181548110151561039657fe5b6000818152600760209081526040808320546002835281842060038452828520815484518187028101870190955280855260609586959184918301828280156104f157602002820191906000526020600020905b8154600160a060020a031681526001909101906020018083116104d3575b505050505091508080548060200260200160405190810160405280929190818152602001828054801561054357602002820191906000526020600020905b81548152602001906001019080831161052f575b505050505090509250925092509193909250565b600160a060020a03828116908216146107e45760008381526020819052604090205415156105c65760008381526020818152604082208054600181018255908352912001805473ffffffffffffffffffffffffffffffffffffffff1916600160a060020a0384161790556107e4565b60005b6000848152602081905260409020548110156107e25760008481526020819052604090208054829081106105f957fe5b600091825260209091200154600160a060020a0384811691161461071857600084815260208181526040808320805460018101825590845292829020909201805473ffffffffffffffffffffffffffffffffffffffff1916600160a060020a03871617905581517f669dafe800000000000000000000000000000000000000000000000000000000815260056004820152915173__UintUtils_____________________________9263669dafe8926024808301939192829003018186803b1580156106c457600080fd5b505af41580156106d8573d6000803e3d6000fd5b505050506040513d60208110156106ee57600080fd5b50516000858152600160209081526040808320600160a060020a03881684529091529020556107da565b73__UintUtils_____________________________63669dafe860056040518263ffffffff167c01000000000000000000000000000000000000000000000000000000000281526004018082815260200191505060206040518083038186803b15801561078457600080fd5b505af4158015610798573d6000803e3d6000fd5b505050506040513d60208110156107ae57600080fd5b50516000858152600160209081526040808320600160a060020a03881684529091529020805490910190555b6001016105c9565b505b61045f565b60036020528160005260406000208181548110151561080457fe5b90600052602060002001600091509150505481565b60005b60328160ff161015610a9b576000848152600260209081526040909120845161084792860190610b1e565b5060ff811615156108a3576108756103e861086984601463ffffffff610ac616565b9063ffffffff610afa16565b6000858152600360205260409020805460ff841690811061089257fe5b600091825260209091200155610983565b60018160ff16101580156108bb575060028160ff1611155b156108d7576108756103e861086984600f63ffffffff610ac616565b60038160ff16101580156108ef575060058160ff1611155b1561090b576108756103e861086984600a63ffffffff610ac616565b60068160ff1610158015610923575060098160ff1611155b1561093f576108756103e861086984600563ffffffff610ac616565b61095960286108696103e88186600a63ffffffff610ac616565b6000858152600360205260409020805460ff841690811061097657fe5b6000918252602090912001555b6000848152600360205260409020805460ff83169081106109a057fe5b600091825260208083209091015486835260048252604080842060029093528320805491939160ff86169081106109d357fe5b6000918252602080832090910154600160a060020a031683528281019390935260409182018120939093558683526004825280832060029092528220805491929160ff8516908110610a2157fe5b6000918252602080832090910154600160a060020a0316835282810193909352604091820181205487825260029093529081208054600592919060ff8616908110610a6857fe5b6000918252602080832090910154600160a060020a0316835282019290925260400190208054909101905560010161081c565b5060009283526007602090815260408085209290925560069052909120805460ff1916600117905550565b6000821515610ad757506000610af4565b828202828482811515610ae657fe5b0414610af157600080fd5b90505b92915050565b6000808211610b0857600080fd5b60008284811515610b1557fe5b04949350505050565b828054828255906000526020600020908101928215610b80579160200282015b82811115610b80578251825473ffffffffffffffffffffffffffffffffffffffff1916600160a060020a03909116178255602090920191600190910190610b3e565b50610b8c929150610b90565b5090565b610bc191905b80821115610b8c57805473ffffffffffffffffffffffffffffffffffffffff19168155600101610b96565b9056fee69cace8bdaee6aca1e8a382e58f98e5a596e58ab1e5b7b2e7bb8fe58886e9858de7bb93e69d9fa165627a7a72305820ea5c4b3cf579e82f991811530a31590b3809194b3614fb1b45db2d97f666abf30029",
  "source": "pragma solidity >=0.4.21 <0.6.0;\n\nimport \"../node_modules/openzeppelin-solidity/contracts/math/SafeMath.sol\";\nimport \"./UintUtils.sol\";\n\n// 1.裂变奖励\n// 裂变奖励可以在当前轮次的募资期计算结果，并预分配奖励额\n// 获取裂变排序列表\n// 这一步必须在募资期完成\n\n// TODO:如果要共享结构体，可以将结构体放在一个struct中，暂时先不拆\ncontract FissionReward {\n\n    using SafeMath for uint256;\n\n    constructor() public {\n\n    }\n\n    event FissionInfo(uint256 indexed _stepIndex, address[] fissionWinners, uint256[] fissionRewards);\n\n    // 当前轮次的推广者\n    mapping(uint256 => address[]) public affmanArray;\n    // 推广者赚取的Token\n    mapping(uint256 => mapping(address => uint256)) public affmanEarnedToken;\n\n    // 获奖者数组\n    mapping(uint256 => address[]) public fissionWinners;\n    // 奖金数组\n    mapping(uint256 => uint256[]) public fissionRewards;\n    // step => 获奖地址 => 奖金\n    mapping(uint256 => mapping(address => uint256)) public fissionRewardAmount;\n    // 用户累计奖金\n    mapping(address => uint256) public fissionFunderTotalBalance;\n\n    // 裂变奖励分配结束\n    mapping(uint256 => bool) currentStepHasFinished;\n\n    // 轮次=>奖励金\n    mapping(uint256 => uint256) totalFissionReward;\n \n    /// @notice 获取裂变奖励信息\n    function getFissionInfo(uint256 _stepIndex)\n        public\n        view\n        returns(uint256, address[] memory, uint256[] memory)\n    {\n        // emit FissionInfo(_stepIndex, fissionWinners[_stepIndex], fissionRewards[_stepIndex]);\n        return(totalFissionReward[_stepIndex], fissionWinners[_stepIndex], fissionRewards[_stepIndex]);\n    }\n\n    /// @notice 处理裂变奖励信息\n    function dealFissionInfo(\n        uint256 _stepIndex,\n        address[] memory _fissionWinner,\n        uint256 _totalFissionReward\n    ) public {\n        require(!currentStepHasFinished[_stepIndex], \"本轮次裂变奖励已经分配结束\");\n        _dealFissionInfo(_stepIndex, _fissionWinner, _totalFissionReward);\n    }\n\n    function addAffman(\n        uint256 _stepIndex,\n        address _promoter,\n        address _initialFissionPerson\n    ) public {\n        if(_promoter != _initialFissionPerson){\n            if(affmanArray[_stepIndex].length == 0){\n                affmanArray[_stepIndex].push(_promoter);\n            }else{\n                for(uint i = 0; i < affmanArray[_stepIndex].length; i++){\n                    if(_promoter != affmanArray[_stepIndex][i]){\n                        affmanArray[_stepIndex].push(_promoter);\n                        affmanEarnedToken[_stepIndex][_promoter] = UintUtils.toWei(5);\n                    }else{\n                        affmanEarnedToken[_stepIndex][_promoter] += UintUtils.toWei(5);\n                    }\n                }\n            }\n        }else{\n            return;\n        }\n    }\n\n    /// @notice 处理裂变奖励信息\n    function _dealFissionInfo(\n        uint256 _stepIndex,\n        address[] memory _fissionWinner,\n        uint256 _totalFissionReward\n    )\n        internal\n    {\n        for(uint8 i = 0; i < 50; i++) {\n            fissionWinners[_stepIndex] = _fissionWinner;\n\n            if (i == 0) { //第1名奖励\n                fissionRewards[_stepIndex][i] = (_totalFissionReward.mul(20).div(1000));\n            } else if (i >= 1 && i <= 2) { // 第2、3名奖励\n                fissionRewards[_stepIndex][i] = (_totalFissionReward.mul(15).div(1000));\n            } else if (i >= 3 && i <= 5) {\n                fissionRewards[_stepIndex][i] = (_totalFissionReward.mul(10).div(1000));\n            } else if (i >= 6 && i <= 9) {\n                fissionRewards[_stepIndex][i] = (_totalFissionReward.mul(5).div(1000));\n            } else {\n                fissionRewards[_stepIndex][i] = (_totalFissionReward.mul(10).div(1000).div(40));\n            }\n\n            // 设置余额\n            fissionRewardAmount[_stepIndex][fissionWinners[_stepIndex][i]] = fissionRewards[_stepIndex][i];\n\n            // 保存总奖励金额\n            fissionFunderTotalBalance[fissionWinners[_stepIndex][i]] += fissionRewardAmount[_stepIndex][fissionWinners[_stepIndex][i]];\n        }\n\n        totalFissionReward[_stepIndex] = _totalFissionReward;\n\n        currentStepHasFinished[_stepIndex] = true;\n    }\n\n}",
  "sourcePath": "/Users/a186r/dev/sourcecode/contracts/contract/contract/contracts/FissionReward.sol",
  "compiler": {
    "name": "solc",
    "version": "0.5.2+commit.1df8f40c.Emscripten.clang"
  },
  "schemaVersion": "3.0.6",
  "updatedAt": "2019-05-27T15:34:59.809Z",
  "devdoc": {
    "methods": {}
  },
  "userdoc": {
    "methods": {
      "dealFissionInfo(uint256,address[],uint256)": {
        "notice": "处理裂变奖励信息"
      },
      "getFissionInfo(uint256)": {
        "notice": "获取裂变奖励信息"
      }
    }
  }
}