{
  "contractName": "FissionReward",
  "abi": [
    {
      "constant": true,
      "inputs": [
        {
          "name": "",
          "type": "address"
        }
      ],
      "name": "fissionFunderTotalBalance",
      "outputs": [
        {
          "name": "",
          "type": "uint256"
        }
      ],
      "payable": false,
      "stateMutability": "view",
      "type": "function"
    },
    {
      "constant": true,
      "inputs": [
        {
          "name": "",
          "type": "uint256"
        },
        {
          "name": "",
          "type": "uint256"
        }
      ],
      "name": "fissionWinners",
      "outputs": [
        {
          "name": "",
          "type": "address"
        }
      ],
      "payable": false,
      "stateMutability": "view",
      "type": "function"
    },
    {
      "constant": true,
      "inputs": [
        {
          "name": "",
          "type": "uint256"
        },
        {
          "name": "",
          "type": "address"
        }
      ],
      "name": "fissionRewardAmount",
      "outputs": [
        {
          "name": "",
          "type": "uint256"
        }
      ],
      "payable": false,
      "stateMutability": "view",
      "type": "function"
    },
    {
      "constant": true,
      "inputs": [
        {
          "name": "",
          "type": "uint256"
        },
        {
          "name": "",
          "type": "uint256"
        }
      ],
      "name": "fissionRewards",
      "outputs": [
        {
          "name": "",
          "type": "uint256"
        }
      ],
      "payable": false,
      "stateMutability": "view",
      "type": "function"
    },
    {
      "inputs": [],
      "payable": false,
      "stateMutability": "nonpayable",
      "type": "constructor"
    },
    {
      "anonymous": false,
      "inputs": [
        {
          "indexed": true,
          "name": "_stepIndex",
          "type": "uint256"
        },
        {
          "indexed": false,
          "name": "fissionWinners",
          "type": "address[]"
        },
        {
          "indexed": false,
          "name": "fissionRewards",
          "type": "uint256[]"
        }
      ],
      "name": "FissionInfo",
      "type": "event"
    },
    {
      "constant": false,
      "inputs": [
        {
          "name": "_stepIndex",
          "type": "uint256"
        }
      ],
      "name": "getFissionInfo",
      "outputs": [],
      "payable": false,
      "stateMutability": "nonpayable",
      "type": "function"
    },
    {
      "constant": false,
      "inputs": [
        {
          "name": "_stepIndex",
          "type": "uint256"
        },
        {
          "name": "_fissionWinner",
          "type": "address[]"
        },
        {
          "name": "_totalFissionReward",
          "type": "uint256"
        }
      ],
      "name": "dealFissionInfo",
      "outputs": [],
      "payable": false,
      "stateMutability": "nonpayable",
      "type": "function"
    }
  ],
  "bytecode": "0x608060405234801561001057600080fd5b50610ba5806100206000396000f3fe608060405234801561001057600080fd5b506004361061007f576000357c0100000000000000000000000000000000000000000000000000000000900480630df2019a14610084578063296205d8146100dc57806365922b7414610154578063a5fa7976146101b6578063c79b124514610282578063fb109a5a146102b0575b600080fd5b6100c66004803603602081101561009a57600080fd5b81019080803573ffffffffffffffffffffffffffffffffffffffff1690602001909291905050506102fc565b6040518082815260200191505060405180910390f35b610112600480360360408110156100f257600080fd5b810190808035906020019092919080359060200190929190505050610314565b604051808273ffffffffffffffffffffffffffffffffffffffff1673ffffffffffffffffffffffffffffffffffffffff16815260200191505060405180910390f35b6101a06004803603604081101561016a57600080fd5b8101908080359060200190929190803573ffffffffffffffffffffffffffffffffffffffff169060200190929190505050610361565b6040518082815260200191505060405180910390f35b610280600480360360608110156101cc57600080fd5b8101908080359060200190929190803590602001906401000000008111156101f357600080fd5b82018360208201111561020557600080fd5b8035906020019184602083028401116401000000008311171561022757600080fd5b919080806020026020016040519081016040528093929190818152602001838360200280828437600081840152601f19601f82011690508083019250505050505050919291929080359060200190929190505050610386565b005b6102ae6004803603602081101561029857600080fd5b810190808035906020019092919050505061040f565b005b6102e6600480360360408110156102c657600080fd5b810190808035906020019092919080359060200190929190505050610527565b6040518082815260200191505060405180910390f35b60036020528060005260406000206000915090505481565b60006020528160005260406000208181548110151561032f57fe5b906000526020600020016000915091509054906101000a900473ffffffffffffffffffffffffffffffffffffffff1681565b6002602052816000526040600020602052806000526040600020600091509150505481565b6004600084815260200190815260200160002060009054906101000a900460ff161515156103ff576040517f08c379a0000000000000000000000000000000000000000000000000000000008152600401808060200182810382526027815260200180610b536027913960400191505060405180910390fd5b61040a838383610557565b505050565b807fc67e30736b4125be7679817680e1a6f4be6068e1da34c1bb07d179cb065b61526000808481526020019081526020016000206001600085815260200190815260200160002060405180806020018060200183810383528581815481526020019150805480156104d557602002820191906000526020600020905b8160009054906101000a900473ffffffffffffffffffffffffffffffffffffffff1673ffffffffffffffffffffffffffffffffffffffff168152602001906001019080831161048b575b5050838103825284818154815260200191508054801561051457602002820191906000526020600020905b815481526020019060010190808311610500575b505094505050505060405180910390a250565b60016020528160005260406000208181548110151561054257fe5b90600052602060002001600091509150505481565b60008090505b60328160ff1610156109eb5782600080868152602001908152602001600020908051906020019061058f929190610a85565b5060008160ff1614156105fa576105c46103e86105b6601485610a1d90919063ffffffff16565b610a5b90919063ffffffff16565b600160008681526020019081526020016000208260ff168154811015156105e757fe5b90600052602060002001819055506107db565b60018160ff1610158015610612575060028160ff1611155b156106755761063f6103e8610631600f85610a1d90919063ffffffff16565b610a5b90919063ffffffff16565b600160008681526020019081526020016000208260ff1681548110151561066257fe5b90600052602060002001819055506107da565b60038160ff161015801561068d575060058160ff1611155b156106f0576106ba6103e86106ac600a85610a1d90919063ffffffff16565b610a5b90919063ffffffff16565b600160008681526020019081526020016000208260ff168154811015156106dd57fe5b90600052602060002001819055506107d9565b60068160ff1610158015610708575060098160ff1611155b1561076b576107356103e8610727600585610a1d90919063ffffffff16565b610a5b90919063ffffffff16565b600160008681526020019081526020016000208260ff1681548110151561075857fe5b90600052602060002001819055506107d8565b6107a660286107986103e861078a600a87610a1d90919063ffffffff16565b610a5b90919063ffffffff16565b610a5b90919063ffffffff16565b600160008681526020019081526020016000208260ff168154811015156107c957fe5b90600052602060002001819055505b5b5b5b600160008581526020019081526020016000208160ff168154811015156107fe57fe5b90600052602060002001546002600086815260200190815260200160002060008060008881526020019081526020016000208460ff1681548110151561084057fe5b9060005260206000200160009054906101000a900473ffffffffffffffffffffffffffffffffffffffff1673ffffffffffffffffffffffffffffffffffffffff1673ffffffffffffffffffffffffffffffffffffffff168152602001908152602001600020819055506002600085815260200190815260200160002060008060008781526020019081526020016000208360ff168154811015156108e057fe5b9060005260206000200160009054906101000a900473ffffffffffffffffffffffffffffffffffffffff1673ffffffffffffffffffffffffffffffffffffffff1673ffffffffffffffffffffffffffffffffffffffff16815260200190815260200160002054600360008060008881526020019081526020016000208460ff1681548110151561096c57fe5b9060005260206000200160009054906101000a900473ffffffffffffffffffffffffffffffffffffffff1673ffffffffffffffffffffffffffffffffffffffff1673ffffffffffffffffffffffffffffffffffffffff16815260200190815260200160002060008282540192505081905550808060010191505061055d565b5060016004600085815260200190815260200160002060006101000a81548160ff021916908315150217905550505050565b600080831415610a305760009050610a55565b60008284029050828482811515610a4357fe5b04141515610a5057600080fd5b809150505b92915050565b60008082111515610a6b57600080fd5b60008284811515610a7857fe5b0490508091505092915050565b828054828255906000526020600020908101928215610afe579160200282015b82811115610afd5782518260006101000a81548173ffffffffffffffffffffffffffffffffffffffff021916908373ffffffffffffffffffffffffffffffffffffffff16021790555091602001919060010190610aa5565b5b509050610b0b9190610b0f565b5090565b610b4f91905b80821115610b4b57600081816101000a81549073ffffffffffffffffffffffffffffffffffffffff021916905550600101610b15565b5090565b9056fee69cace8bdaee6aca1e8a382e58f98e5a596e58ab1e5b7b2e7bb8fe58886e9858de7bb93e69d9fa165627a7a7230582018810d5de6de502a7d041d2655b5f0e4993b33fe463bec7f65fd54c0c53268220029",
  "source": "pragma solidity >=0.4.21 <0.6.0;\n\nimport \"../node_modules/openzeppelin-solidity/contracts/math/SafeMath.sol\";\n\n// 1.裂变奖励\n// 裂变奖励可以在当前轮次的募资期计算结果，并预分配奖励额\n// 获取裂变排序列表\n// 这一步必须在募资期完成\n\n// TODO:如果要共享结构体，可以将结构体放在一个struct中，暂时先不拆\ncontract FissionReward {\n\n    using SafeMath for uint256;\n\n    constructor() public {\n\n    }\n\n    event FissionInfo(uint256 indexed _stepIndex, address[] fissionWinners, uint256[] fissionRewards);\n\n    // 获奖者数组\n    mapping(uint256 => address[]) public fissionWinners;\n    // 奖金数组\n    mapping(uint256 => uint256[]) public fissionRewards;\n    // step => 获奖地址 => 奖金\n    mapping(uint256 => mapping(address => uint256)) public fissionRewardAmount;\n    // 用户累计奖金\n    mapping(address => uint256) public fissionFunderTotalBalance;\n\n    // 裂变奖励分配结束\n    mapping(uint256 => bool) currentStepHasFinished;\n\n    function getFissionInfo(uint256 _stepIndex) public {\n        emit FissionInfo(_stepIndex, fissionWinners[_stepIndex], fissionRewards[_stepIndex]);\n    }\n\n    /// 处理裂变奖励信息\n    function dealFissionInfo(\n        uint256 _stepIndex,\n        address[] memory _fissionWinner,\n        uint256 _totalFissionReward\n    ) public {\n        require(!currentStepHasFinished[_stepIndex], \"本轮次裂变奖励已经分配结束\");\n        _dealFissionInfo(_stepIndex, _fissionWinner, _totalFissionReward);\n    }\n\n    /// @notice 处理裂变奖励信息\n    function _dealFissionInfo(\n        uint256 _stepIndex,\n        address[] memory _fissionWinner,\n        uint256 _totalFissionReward\n    ) internal {\n        for(uint8 i = 0; i < 50; i++) {\n            fissionWinners[_stepIndex] = _fissionWinner;\n\n            if (i == 0) { //第1名奖励\n                fissionRewards[_stepIndex][i] = (_totalFissionReward.mul(20).div(1000));\n            } else if (i >= 1 && i <= 2) { // 第2、3名奖励\n                fissionRewards[_stepIndex][i] = (_totalFissionReward.mul(15).div(1000));\n            } else if (i >= 3 && i <= 5) {\n                fissionRewards[_stepIndex][i] = (_totalFissionReward.mul(10).div(1000));\n            } else if (i >= 6 && i <= 9) {\n                fissionRewards[_stepIndex][i] = (_totalFissionReward.mul(5).div(1000));\n            } else {\n                fissionRewards[_stepIndex][i] = (_totalFissionReward.mul(10).div(1000).div(40));\n            }\n\n            // 设置余额\n            fissionRewardAmount[_stepIndex][fissionWinners[_stepIndex][i]] = fissionRewards[_stepIndex][i];\n\n            // 保存总奖励金额\n            fissionFunderTotalBalance[fissionWinners[_stepIndex][i]] += fissionRewardAmount[_stepIndex][fissionWinners[_stepIndex][i]];\n        }\n\n        currentStepHasFinished[_stepIndex] = true;\n\n    }\n\n}",
  "sourcePath": "/Users/a186r/dev/sourcecode/contracts/contract/contract/contracts/FissionReward.sol",
  "compiler": {
    "name": "solc",
    "version": "0.5.2+commit.1df8f40c.Emscripten.clang"
  },
  "schemaVersion": "3.0.6",
  "updatedAt": "2019-05-20T07:45:52.061Z",
  "devdoc": {
    "methods": {}
  },
  "userdoc": {
    "methods": {
      "dealFissionInfo(uint256,address[],uint256)": {
        "notice": "处理裂变奖励信息"
      }
    }
  }
}