{
  "contractName": "FOMOReward",
  "abi": [
    {
      "constant": true,
      "inputs": [
        {
          "name": "",
          "type": "uint256"
        },
        {
          "name": "",
          "type": "address"
        }
      ],
      "name": "FOMORewardAmount",
      "outputs": [
        {
          "name": "",
          "type": "uint256"
        }
      ],
      "payable": false,
      "stateMutability": "view",
      "type": "function"
    },
    {
      "constant": true,
      "inputs": [
        {
          "name": "",
          "type": "uint256"
        },
        {
          "name": "",
          "type": "uint256"
        }
      ],
      "name": "FOMOWinners",
      "outputs": [
        {
          "name": "",
          "type": "address"
        }
      ],
      "payable": false,
      "stateMutability": "view",
      "type": "function"
    },
    {
      "constant": true,
      "inputs": [
        {
          "name": "",
          "type": "uint256"
        },
        {
          "name": "",
          "type": "uint256"
        }
      ],
      "name": "FOMORewards",
      "outputs": [
        {
          "name": "",
          "type": "uint256"
        }
      ],
      "payable": false,
      "stateMutability": "view",
      "type": "function"
    },
    {
      "constant": true,
      "inputs": [
        {
          "name": "",
          "type": "address"
        }
      ],
      "name": "FOMOFunderTotalBalance",
      "outputs": [
        {
          "name": "",
          "type": "uint256"
        }
      ],
      "payable": false,
      "stateMutability": "view",
      "type": "function"
    },
    {
      "inputs": [],
      "payable": false,
      "stateMutability": "nonpayable",
      "type": "constructor"
    },
    {
      "anonymous": false,
      "inputs": [
        {
          "indexed": false,
          "name": "FOMOWinners",
          "type": "address[]"
        },
        {
          "indexed": false,
          "name": "FOMORewards",
          "type": "uint256[]"
        }
      ],
      "name": "FOMOWinnerInfo",
      "type": "event"
    },
    {
      "constant": false,
      "inputs": [
        {
          "name": "_stepIndex",
          "type": "uint256"
        }
      ],
      "name": "getFOMOWinnerInfo",
      "outputs": [],
      "payable": false,
      "stateMutability": "nonpayable",
      "type": "function"
    },
    {
      "constant": false,
      "inputs": [
        {
          "name": "_stepIndex",
          "type": "uint256"
        },
        {
          "name": "_funders",
          "type": "address[]"
        },
        {
          "name": "_totalFOMOReward",
          "type": "uint256"
        }
      ],
      "name": "dealFOMOWinner",
      "outputs": [
        {
          "name": "",
          "type": "address[]"
        }
      ],
      "payable": false,
      "stateMutability": "nonpayable",
      "type": "function"
    },
    {
      "constant": true,
      "inputs": [
        {
          "name": "_stepIndex",
          "type": "uint256"
        }
      ],
      "name": "getTotalRewardAmount",
      "outputs": [
        {
          "name": "",
          "type": "uint256"
        }
      ],
      "payable": false,
      "stateMutability": "view",
      "type": "function"
    }
  ],
  "bytecode": "0x608060405234801561001057600080fd5b50610bfe806100206000396000f3fe608060405234801561001057600080fd5b506004361061009a576000357c01000000000000000000000000000000000000000000000000000000009004806391a3c8081161007857806391a3c808146101a7578063c21a7743146101f3578063c753556714610314578063d568d7171461036c5761009a565b80632889cc071461009f578063509b49e9146100cd5780635308cf971461012f575b600080fd5b6100cb600480360360208110156100b557600080fd5b81019080803590602001909291905050506103ae565b005b610119600480360360408110156100e357600080fd5b8101908080359060200190929190803573ffffffffffffffffffffffffffffffffffffffff1690602001909291905050506104c5565b6040518082815260200191505060405180910390f35b6101656004803603604081101561014557600080fd5b8101908080359060200190929190803590602001909291905050506104ea565b604051808273ffffffffffffffffffffffffffffffffffffffff1673ffffffffffffffffffffffffffffffffffffffff16815260200191505060405180910390f35b6101dd600480360360408110156101bd57600080fd5b810190808035906020019092919080359060200190929190505050610537565b6040518082815260200191505060405180910390f35b6102bd6004803603606081101561020957600080fd5b81019080803590602001909291908035906020019064010000000081111561023057600080fd5b82018360208201111561024257600080fd5b8035906020019184602083028401116401000000008311171561026457600080fd5b919080806020026020016040519081016040528093929190818152602001838360200280828437600081840152601f19601f82011690508083019250505050505050919291929080359060200190929190505050610567565b6040518080602001828103825283818151815260200191508051906020019060200280838360005b838110156103005780820151818401526020810190506102e5565b505050509050019250505060405180910390f35b6103566004803603602081101561032a57600080fd5b81019080803573ffffffffffffffffffffffffffffffffffffffff1690602001909291905050506105f6565b6040518082815260200191505060405180910390f35b6103986004803603602081101561038257600080fd5b810190808035906020019092919050505061060e565b6040518082815260200191505060405180910390f35b7f7ad3c846b4e57a650cd1a48a0a11bc6a0db12192ad16e89f2366dfdb8cd955ca60008083815260200190815260200160002060016000848152602001908152602001600020604051808060200180602001838103835285818154815260200191508054801561047357602002820191906000526020600020905b8160009054906101000a900473ffffffffffffffffffffffffffffffffffffffff1673ffffffffffffffffffffffffffffffffffffffff1681526020019060010190808311610429575b505083810382528481815481526020019150805480156104b257602002820191906000526020600020905b81548152602001906001019080831161049e575b505094505050505060405180910390a150565b6002602052816000526040600020602052806000526040600020600091509150505481565b60006020528160005260406000208181548110151561050557fe5b906000526020600020016000915091509054906101000a900473ffffffffffffffffffffffffffffffffffffffff1681565b60016020528160005260406000208181548110151561055257fe5b90600052602060002001600091509150505481565b60606004600085815260200190815260200160002060009054906101000a900460ff161515156105e2576040517f08c379a000000000000000000000000000000000000000000000000000000000815260040180806020018281038252602b815260200180610ba8602b913960400191505060405180910390fd5b6105ed84848461067c565b90509392505050565b60036020528060005260406000206000915090505481565b6000806000905060008090505b600160008581526020019081526020016000208054905081101561067557600160008581526020019081526020016000208181548110151561065957fe5b906000526020600020015482019150808060010191505061061b565b5050919050565b60606000835190506000600190505b6006811015610a7157600181141561070657600160008781526020019081526020016000206106d86103e86106ca601988610b3f90919063ffffffff16565b610b7d90919063ffffffff16565b90806001815401808255809150509060018203906000526020600020016000909192909190915055506107de565b6002811415610778576001600087815260200190815260200160002061074a6103e861073c600a88610b3f90919063ffffffff16565b610b7d90919063ffffffff16565b90806001815401808255809150509060018203906000526020600020016000909192909190915055506107dd565b600160008781526020019081526020016000206107b36103e86107a5600588610b3f90919063ffffffff16565b610b7d90919063ffffffff16565b90806001815401808255809150509060018203906000526020600020016000909192909190915055505b5b6000808781526020019081526020016000208582840381518110151561080057fe5b9060200190602002015190806001815401808255809150509060018203906000526020600020016000909192909190916101000a81548173ffffffffffffffffffffffffffffffffffffffff021916908373ffffffffffffffffffffffffffffffffffffffff16021790555050600160008781526020019081526020016000208181548110151561088d57fe5b90600052602060002001546002600088815260200190815260200160002060008060008a8152602001908152602001600020848154811015156108cc57fe5b9060005260206000200160009054906101000a900473ffffffffffffffffffffffffffffffffffffffff1673ffffffffffffffffffffffffffffffffffffffff1673ffffffffffffffffffffffffffffffffffffffff168152602001908152602001600020819055506002600087815260200190815260200160002060008060008981526020019081526020016000208381548110151561096957fe5b9060005260206000200160009054906101000a900473ffffffffffffffffffffffffffffffffffffffff1673ffffffffffffffffffffffffffffffffffffffff1673ffffffffffffffffffffffffffffffffffffffff16815260200190815260200160002054600360008060008a8152602001908152602001600020848154811015156109f257fe5b9060005260206000200160009054906101000a900473ffffffffffffffffffffffffffffffffffffffff1673ffffffffffffffffffffffffffffffffffffffff1673ffffffffffffffffffffffffffffffffffffffff16815260200190815260200160002060008282540192505081905550808060010191505061068b565b5060016004600087815260200190815260200160002060006101000a81548160ff021916908315150217905550600080868152602001908152602001600020805480602002602001604051908101604052809291908181526020018280548015610b3057602002820191906000526020600020905b8160009054906101000a900473ffffffffffffffffffffffffffffffffffffffff1673ffffffffffffffffffffffffffffffffffffffff1681526020019060010190808311610ae6575b50505050509150509392505050565b600080831415610b525760009050610b77565b60008284029050828482811515610b6557fe5b04141515610b7257600080fd5b809150505b92915050565b60008082111515610b8d57600080fd5b60008284811515610b9a57fe5b049050809150509291505056fee5bd93e5898de8bdaee6aca1e79a84464f4d4fe5a596e58ab1e5b7b2e7bb8fe8aea1e7ae97e5ae8ce68890a165627a7a72305820459fa805d2fad5bbbd349d848fdc3000d6c48beaf9fe2c7428105d76f1bbbe230029",
  "source": "pragma solidity >=0.4.21 <0.6.0;\n\nimport \"../node_modules/openzeppelin-solidity/contracts/math/SafeMath.sol\";\n\n// FOMO奖励 5%\n// 每一轮最后一名参与者获得2.5%奖励，倒数第2名获得1%，倒数3、4、5名各获得0.5%\n\ncontract FOMOReward {\n\n    using SafeMath for uint256;\n\n    event FOMOWinnerInfo(address[] FOMOWinners, uint256[] FOMORewards);\n\n    // 获奖者数组\n    mapping(uint256 => address[]) public FOMOWinners;\n    // 奖金数组\n    mapping(uint256 => uint256[]) public FOMORewards;\n    // step => 获奖地址 => 奖金\n    mapping(uint256 => mapping(address => uint256)) public FOMORewardAmount;\n    // 用户累计奖金\n    mapping(address => uint256) public FOMOFunderTotalBalance;\n\n    // 裂变奖励分配结束\n    mapping(uint256 => bool) currentStepHasFinished;\n\n    constructor() public {\n\n    }\n\n    /// @notice 获取FOMO获胜者列表和奖金列表\n    function getFOMOWinnerInfo(uint256 _stepIndex) public {\n        emit FOMOWinnerInfo(FOMOWinners[_stepIndex], FOMORewards[_stepIndex]);\n    }\n\n    // 处理FOMO奖励\n    function dealFOMOWinner(\n        uint256 _stepIndex,\n        address[] memory _funders,\n        uint256 _totalFOMOReward\n    )\n        public\n        returns(address[] memory)\n    {\n        require(!currentStepHasFinished[_stepIndex], \"当前轮次的FOMO奖励已经计算完成\");\n        return _dealWinnerInfo(_stepIndex, _funders, _totalFOMOReward);\n    }\n\n    // 处理获奖者信息，分配获奖金额\n    // 接受当前轮次的参与者、FOMO总奖励资金\n    function _dealWinnerInfo(\n        uint256 _stepIndex,\n        address[] memory _funders,\n        uint256 _totalFOMOReward\n    )\n        internal\n        returns(address[] memory)\n    {\n        uint256 fundersLen = _funders.length;\n\n        for(uint i = 1; i < 6; i++){\n            \n            if(i == 1) {\n                FOMORewards[_stepIndex].push(_totalFOMOReward.mul(25).div(1000));\n            }else if(i == 2) {\n                FOMORewards[_stepIndex].push(_totalFOMOReward.mul(10).div(1000));\n            }else{\n                FOMORewards[_stepIndex].push(_totalFOMOReward.mul(5).div(1000));\n            }\n            \n            FOMOWinners[_stepIndex].push(_funders[fundersLen-i]);\n\n            FOMORewardAmount[_stepIndex][FOMOWinners[_stepIndex][i]] = FOMORewards[_stepIndex][i];\n\n            // 保存FOMO中用户总奖励\n            FOMOFunderTotalBalance[FOMOWinners[_stepIndex][i]] += FOMORewardAmount[_stepIndex][FOMOWinners[_stepIndex][i]];\n        }\n\n        currentStepHasFinished[_stepIndex] = true;\n\n        return FOMOWinners[_stepIndex];\n    }\n\n    // 确认奖励金是正确的\n    function getTotalRewardAmount(uint256 _stepIndex) public view returns(uint256) {\n        uint totalAmount = 0;\n        for(uint i = 0; i < FOMORewards[_stepIndex].length ; i++){\n            totalAmount += FOMORewards[_stepIndex][i];\n        }\n    }\n}",
  "sourcePath": "/Users/a186r/dev/contracts/contract/contract/contracts/FOMOReward.sol",
  "compiler": {
    "name": "solc",
    "version": "0.5.2+commit.1df8f40c.Emscripten.clang"
  },
  "schemaVersion": "3.0.9",
  "updatedAt": "2019-05-24T15:46:37.509Z",
  "devdoc": {
    "methods": {}
  },
  "userdoc": {
    "methods": {
      "getFOMOWinnerInfo(uint256)": {
        "notice": "获取FOMO获胜者列表和奖金列表"
      }
    }
  }
}