{
  "contractName": "FOMOReward",
  "abi": [
    {
      "constant": true,
      "inputs": [
        {
          "name": "",
          "type": "uint256"
        },
        {
          "name": "",
          "type": "address"
        }
      ],
      "name": "FOMORewardAmount",
      "outputs": [
        {
          "name": "",
          "type": "uint256"
        }
      ],
      "payable": false,
      "stateMutability": "view",
      "type": "function"
    },
    {
      "constant": true,
      "inputs": [
        {
          "name": "",
          "type": "uint256"
        },
        {
          "name": "",
          "type": "uint256"
        }
      ],
      "name": "FOMOWinners",
      "outputs": [
        {
          "name": "",
          "type": "address"
        }
      ],
      "payable": false,
      "stateMutability": "view",
      "type": "function"
    },
    {
      "constant": false,
      "inputs": [],
      "name": "renounceOwnership",
      "outputs": [],
      "payable": false,
      "stateMutability": "nonpayable",
      "type": "function"
    },
    {
      "constant": false,
      "inputs": [
        {
          "name": "_authority",
          "type": "address"
        }
      ],
      "name": "setAuthority",
      "outputs": [],
      "payable": false,
      "stateMutability": "nonpayable",
      "type": "function"
    },
    {
      "constant": true,
      "inputs": [],
      "name": "owner",
      "outputs": [
        {
          "name": "",
          "type": "address"
        }
      ],
      "payable": false,
      "stateMutability": "view",
      "type": "function"
    },
    {
      "constant": true,
      "inputs": [],
      "name": "isOwner",
      "outputs": [
        {
          "name": "",
          "type": "bool"
        }
      ],
      "payable": false,
      "stateMutability": "view",
      "type": "function"
    },
    {
      "constant": true,
      "inputs": [
        {
          "name": "",
          "type": "uint256"
        },
        {
          "name": "",
          "type": "uint256"
        }
      ],
      "name": "FOMORewards",
      "outputs": [
        {
          "name": "",
          "type": "uint256"
        }
      ],
      "payable": false,
      "stateMutability": "view",
      "type": "function"
    },
    {
      "constant": true,
      "inputs": [
        {
          "name": "",
          "type": "address"
        }
      ],
      "name": "FOMOFunderTotalBalance",
      "outputs": [
        {
          "name": "",
          "type": "uint256"
        }
      ],
      "payable": false,
      "stateMutability": "view",
      "type": "function"
    },
    {
      "constant": false,
      "inputs": [
        {
          "name": "newOwner",
          "type": "address"
        }
      ],
      "name": "transferOwnership",
      "outputs": [],
      "payable": false,
      "stateMutability": "nonpayable",
      "type": "function"
    },
    {
      "inputs": [],
      "payable": false,
      "stateMutability": "nonpayable",
      "type": "constructor"
    },
    {
      "anonymous": false,
      "inputs": [
        {
          "indexed": false,
          "name": "FOMOWinners",
          "type": "address[]"
        },
        {
          "indexed": false,
          "name": "FOMORewards",
          "type": "uint256[]"
        }
      ],
      "name": "FOMOWinnerInfo",
      "type": "event"
    },
    {
      "anonymous": false,
      "inputs": [
        {
          "indexed": true,
          "name": "previousOwner",
          "type": "address"
        },
        {
          "indexed": true,
          "name": "newOwner",
          "type": "address"
        }
      ],
      "name": "OwnershipTransferred",
      "type": "event"
    },
    {
      "constant": true,
      "inputs": [
        {
          "name": "_stepIndex",
          "type": "uint256"
        }
      ],
      "name": "getFOMOWinnerInfo",
      "outputs": [
        {
          "name": "",
          "type": "uint256"
        },
        {
          "name": "",
          "type": "address[]"
        },
        {
          "name": "",
          "type": "uint256[]"
        }
      ],
      "payable": false,
      "stateMutability": "view",
      "type": "function"
    },
    {
      "constant": false,
      "inputs": [
        {
          "name": "_stepIndex",
          "type": "uint256"
        },
        {
          "name": "_funders",
          "type": "address[]"
        },
        {
          "name": "_totalFOMOReward",
          "type": "uint256"
        }
      ],
      "name": "dealFOMOWinner",
      "outputs": [
        {
          "name": "",
          "type": "address[]"
        }
      ],
      "payable": false,
      "stateMutability": "nonpayable",
      "type": "function"
    },
    {
      "constant": true,
      "inputs": [
        {
          "name": "_stepIndex",
          "type": "uint256"
        }
      ],
      "name": "getTotalRewardAmount",
      "outputs": [
        {
          "name": "",
          "type": "uint256"
        }
      ],
      "payable": false,
      "stateMutability": "view",
      "type": "function"
    }
  ],
  "bytecode": "0x608060405234801561001057600080fd5b5060008054600160a060020a0319163317808255604051600160a060020a039190911691907f8be0079c531659141344cd1fd0a4f28419497f9722a3daafe3b4186f6b6457e0908290a3610c92806100696000396000f3006080604052600436106100b95763ffffffff7c01000000000000000000000000000000000000000000000000000000006000350416632889cc0781146100be578063509b49e9146101765780635308cf97146101ac578063715018a6146101e35780637a9e5e4b146101fa5780638da5cb5b1461021b5780638f32d59b1461023057806391a3c80814610259578063c21a774314610274578063c753556714610320578063d568d71714610341578063f2fde38b14610359575b600080fd5b3480156100ca57600080fd5b506100d660043561037a565b604051808481526020018060200180602001838103835285818151815260200191508051906020019060200280838360005b83811015610120578181015183820152602001610108565b50505050905001838103825284818151815260200191508051906020019060200280838360005b8381101561015f578181015183820152602001610147565b505050509050019550505050505060405180910390f35b34801561018257600080fd5b5061019a600435600160a060020a0360243516610452565b60408051918252519081900360200190f35b3480156101b857600080fd5b506101c760043560243561046f565b60408051600160a060020a039092168252519081900360200190f35b3480156101ef57600080fd5b506101f86104a6565b005b34801561020657600080fd5b506101f8600160a060020a0360043516610510565b34801561022757600080fd5b506101c761054a565b34801561023c57600080fd5b5061024561055a565b604080519115158252519081900360200190f35b34801561026557600080fd5b5061019a60043560243561056b565b34801561028057600080fd5b506040805160206004602480358281013584810280870186019097528086526102d096843596369660449591949091019291829185019084908082843750949750509335945061059b9350505050565b60408051602080825283518183015283519192839290830191858101910280838360005b8381101561030c5781810151838201526020016102f4565b505050509050019250505060405180910390f35b34801561032c57600080fd5b5061019a600160a060020a0360043516610655565b34801561034d57600080fd5b5061019a600435610667565b34801561036557600080fd5b506101f8600160a060020a03600435166106bc565b6000818152600760209081526040808320546002835281842060038452828520815484518187028101870190955280855260609586959184918301828280156103ec57602002820191906000526020600020905b8154600160a060020a031681526001909101906020018083116103ce575b505050505091508080548060200260200160405190810160405280929190818152602001828054801561043e57602002820191906000526020600020905b81548152602001906001019080831161042a575b505050505090509250925092509193909250565b600460209081526000928352604080842090915290825290205481565b60026020528160005260406000208181548110151561048a57fe5b600091825260209091200154600160a060020a03169150829050565b6104ae61055a565b15156104b957600080fd5b60008054604051600160a060020a03909116907f8be0079c531659141344cd1fd0a4f28419497f9722a3daafe3b4186f6b6457e0908390a36000805473ffffffffffffffffffffffffffffffffffffffff19169055565b61051861055a565b151561052357600080fd5b600160a060020a03166000908152600160208190526040909120805460ff19169091179055565b600054600160a060020a03165b90565b600054600160a060020a0316331490565b60036020528160005260406000208181548110151561058657fe5b90600052602060002001600091509150505481565b60008381526006602052604090205460609060ff161561064257604080517f08c379a000000000000000000000000000000000000000000000000000000000815260206004820152602b60248201527fe5bd93e5898de8bdaee6aca1e79a84464f4d4fe5a596e58ab1e5b7b2e7bb8fe860448201527faea1e7ae97e5ae8ce68890000000000000000000000000000000000000000000606482015290519081900360840190fd5b61064d8484846106db565b949350505050565b60056020526000908152604090205481565b600080805b6000848152600360205260409020548110156106b557600084815260036020526040902080548290811061069c57fe5b600091825260209091200154919091019060010161066c565b5092915050565b6106c461055a565b15156106cf57600080fd5b6106d881610a8d565b50565b6060600080600685511015156106f457600691506106f9565b845191505b81604051908082528060200260200182016040528015610723578160200160208202803883390190505b50600087815260036020908152604090912082516107479391929190910190610b62565b5081604051908082528060200260200182016040528015610772578160200160208202803883390190505b50600087815260026020908152604090912082516107969391929190910190610bad565b50600090505b81811015610a0d578015156107f8576107cd60646107c186603263ffffffff610b0a16565b9063ffffffff610b3f16565b60008781526003602052604090208054839081106107e757fe5b600091825260209091200155610854565b8060011415610817576107cd60646107c186601463ffffffff610b0a16565b61082d60646107c186600a63ffffffff610b0a16565b600087815260036020526040902080548390811061084757fe5b6000918252602090912001555b8481600184030381518110151561086757fe5b602090810290910181015160008881526002909252604090912080548390811061088d57fe5b6000918252602080832091909101805473ffffffffffffffffffffffffffffffffffffffff1916600160a060020a0394909416939093179092558781526003909152604090208054829081106108df57fe5b60009182526020808320909101548883526004825260408084206002909352832080549193918590811061090f57fe5b6000918252602080832090910154600160a060020a0316835282810193909352604091820181208054909401909355888352600482528083206002909252822080549192918490811061095e57fe5b6000918252602080832090910154600160a060020a03168352828101939093526040918201812054898252600290935290812080546005929190859081106109a257fe5b6000918252602080832090910154600160a060020a03168352828101939093526040918201812093909355888352600390915290208054829081106109e357fe5b6000918252602080832090910154888352600790915260409091208054909101905560010161079c565b6000868152600660209081526040808320805460ff19166001179055600282529182902080548351818402810184019094528084529091830182828015610a7d57602002820191906000526020600020905b8154600160a060020a03168152600190910190602001808311610a5f575b5050505050925050509392505050565b600160a060020a0381161515610aa257600080fd5b60008054604051600160a060020a03808516939216917f8be0079c531659141344cd1fd0a4f28419497f9722a3daafe3b4186f6b6457e091a36000805473ffffffffffffffffffffffffffffffffffffffff1916600160a060020a0392909216919091179055565b600080831515610b1d57600091506106b5565b50828202828482811515610b2d57fe5b0414610b3857600080fd5b9392505050565b600080808311610b4e57600080fd5b8284811515610b5957fe5b04949350505050565b828054828255906000526020600020908101928215610b9d579160200282015b82811115610b9d578251825591602001919060010190610b82565b50610ba9929150610c1b565b5090565b828054828255906000526020600020908101928215610c0f579160200282015b82811115610c0f578251825473ffffffffffffffffffffffffffffffffffffffff1916600160a060020a03909116178255602090920191600190910190610bcd565b50610ba9929150610c35565b61055791905b80821115610ba95760008155600101610c21565b61055791905b80821115610ba957805473ffffffffffffffffffffffffffffffffffffffff19168155600101610c3b5600a165627a7a72305820eaa558d33132e1b1e9cf7beac624299efebbdfc98bccdf7f7317a59a963d53dd0029",
  "source": "pragma solidity >=0.4.21 <0.6.0;\n\nimport \"../node_modules/openzeppelin-solidity/contracts/math/SafeMath.sol\";\nimport \"./Authority.sol\";\n\n// FOMO奖励 5%\n// 每一轮最后一名参与者获得2.5%奖励，倒数第2名获得1%，倒数3、4、5名各获得0.5%\n\ncontract FOMOReward is Authority{\n\n    using SafeMath for uint256;\n\n    event FOMOWinnerInfo(address[] FOMOWinners, uint256[] FOMORewards);\n\n    // 获奖者数组\n    mapping(uint256 => address[]) public FOMOWinners;\n    // 奖金数组\n    mapping(uint256 => uint256[]) public FOMORewards;\n    // step => 获奖地址 => 奖金\n    mapping(uint256 => mapping(address => uint256)) public FOMORewardAmount;\n    // 用户累计奖金\n    mapping(address => uint256) public FOMOFunderTotalBalance;\n\n    // 裂变奖励分配结束\n    mapping(uint256 => bool) currentStepHasFinished;\n\n    mapping(uint256 => uint256) totalFOMOReward;\n\n    constructor() public {\n\n    }\n\n    /// @notice 获取FOMO获胜者列表和奖金列表\n    function getFOMOWinnerInfo(uint256 _stepIndex)\n        public\n        view\n        returns(uint256, address[] memory, uint256[] memory)\n    {\n        return(totalFOMOReward[_stepIndex], FOMOWinners[_stepIndex], FOMORewards[_stepIndex]);\n    }\n\n    // 处理FOMO奖励\n    function dealFOMOWinner(\n        uint256 _stepIndex,\n        address[] memory _funders,\n        uint256 _totalFOMOReward\n    )\n        public\n        // onlyAuthority()\n        returns(address[] memory)\n    {\n        require(!currentStepHasFinished[_stepIndex], \"当前轮次的FOMO奖励已经计算完成\");\n        return _dealWinnerInfo(_stepIndex, _funders, _totalFOMOReward);\n    }\n\n    // 处理获奖者信息，分配获奖金额\n    // 接受当前轮次的参与者、FOMO总奖励资金\n    function _dealWinnerInfo(\n        uint256 _stepIndex,\n        address[] memory _funders,\n        uint256 _totalFOMOReward\n    )\n        internal\n        returns(address[] memory)\n    {\n        uint256 fundersLen;\n\n        if(_funders.length >= 6){\n            fundersLen = 6;\n        }else{\n            fundersLen = _funders.length;\n        }\n\n        FOMORewards[_stepIndex] = new uint256[](fundersLen);\n        FOMOWinners[_stepIndex] = new address[](fundersLen);\n\n        for(uint i = 0; i < fundersLen; i++){\n            if(i == 0) {\n                FOMORewards[_stepIndex][i] = _totalFOMOReward.mul(50).div(100);\n            }else if(i == 1) {\n                FOMORewards[_stepIndex][i] = _totalFOMOReward.mul(20).div(100);\n            }else{\n                FOMORewards[_stepIndex][i] = _totalFOMOReward.mul(10).div(100);\n            }\n\n            FOMOWinners[_stepIndex][i] = _funders[fundersLen-1-i];\n\n            FOMORewardAmount[_stepIndex][FOMOWinners[_stepIndex][i]] += FOMORewards[_stepIndex][i];\n\n            // 保存FOMO中用户总奖励\n            FOMOFunderTotalBalance[FOMOWinners[_stepIndex][i]] = FOMORewardAmount[_stepIndex][FOMOWinners[_stepIndex][i]];\n\n            totalFOMOReward[_stepIndex] += FOMORewards[_stepIndex][i];\n        }\n\n        currentStepHasFinished[_stepIndex] = true;\n\n        return FOMOWinners[_stepIndex];\n    }\n\n    // 确认奖励金是正确的\n    function getTotalRewardAmount(uint256 _stepIndex) public view returns(uint256) {\n        uint totalAmount = 0;\n        for(uint i = 0; i < FOMORewards[_stepIndex].length ; i++){\n            totalAmount += FOMORewards[_stepIndex][i];\n        }\n\n        return totalAmount;\n    }\n}",
  "sourcePath": "/root/contract/contract/contracts/FOMOReward.sol",
  "compiler": {
    "name": "solc",
    "version": "0.4.24+commit.e67f0147.Emscripten.clang"
  },
  "schemaVersion": "3.0.10",
  "updatedAt": "2019-06-03T22:57:44.011Z",
  "devdoc": {
    "methods": {
      "isOwner()": {
        "return": "true if `msg.sender` is the owner of the contract."
      },
      "owner()": {
        "return": "the address of the owner."
      },
      "renounceOwnership()": {
        "details": "Allows the current owner to relinquish control of the contract. It will not be possible to call the functions with the `onlyOwner` modifier anymore."
      },
      "transferOwnership(address)": {
        "details": "Allows the current owner to transfer control of the contract to a newOwner.",
        "params": {
          "newOwner": "The address to transfer ownership to."
        }
      }
    }
  },
  "userdoc": {
    "methods": {
      "getFOMOWinnerInfo(uint256)": {
        "notice": "获取FOMO获胜者列表和奖金列表"
      },
      "renounceOwnership()": {
        "notice": "Renouncing ownership will leave the contract without an owner, thereby removing any functionality that is only available to the owner."
      }
    }
  }
}