{
  "contractName": "FOMOReward",
  "abi": [
    {
      "constant": true,
      "inputs": [
        {
          "name": "",
          "type": "uint256"
        },
        {
          "name": "",
          "type": "address"
        }
      ],
      "name": "FOMORewardAmount",
      "outputs": [
        {
          "name": "",
          "type": "uint256"
        }
      ],
      "payable": false,
      "stateMutability": "view",
      "type": "function"
    },
    {
      "inputs": [],
      "payable": false,
      "stateMutability": "nonpayable",
      "type": "constructor"
    },
    {
      "anonymous": false,
      "inputs": [
        {
          "indexed": false,
          "name": "FOMOWinners",
          "type": "address[]"
        },
        {
          "indexed": false,
          "name": "FOMORewards",
          "type": "uint256[]"
        }
      ],
      "name": "FOMOWinnerInfo",
      "type": "event"
    },
    {
      "constant": false,
      "inputs": [
        {
          "name": "_stepIndex",
          "type": "uint256"
        },
        {
          "name": "_funders",
          "type": "address[]"
        },
        {
          "name": "_totalFOMOReward",
          "type": "uint256"
        }
      ],
      "name": "getFOMOWinnerInfo",
      "outputs": [],
      "payable": false,
      "stateMutability": "nonpayable",
      "type": "function"
    },
    {
      "constant": true,
      "inputs": [],
      "name": "getTotalRewardAmount",
      "outputs": [
        {
          "name": "",
          "type": "uint256"
        }
      ],
      "payable": false,
      "stateMutability": "view",
      "type": "function"
    }
  ],
  "bytecode": "0x608060405234801561001057600080fd5b5061061b806100206000396000f3fe608060405234801561001057600080fd5b506004361061005e576000357c01000000000000000000000000000000000000000000000000000000009004806310377be314610063578063509b49e914610081578063b58e3141146100e3575b600080fd5b61006b6101af565b6040518082815260200191505060405180910390f35b6100cd6004803603604081101561009757600080fd5b8101908080359060200190929190803573ffffffffffffffffffffffffffffffffffffffff1690602001909291905050506101f9565b6040518082815260200191505060405180910390f35b6101ad600480360360608110156100f957600080fd5b81019080803590602001909291908035906020019064010000000081111561012057600080fd5b82018360208201111561013257600080fd5b8035906020019184602083028401116401000000008311171561015457600080fd5b919080806020026020016040519081016040528093929190818152602001838360200280828437600081840152601f19601f8201169050808301925050505050505091929192908035906020019092919050505061021e565b005b6000806000905060008090505b6001805490508110156101f4576001818154811015156101d857fe5b90600052602060002001548201915080806001019150506101bc565b505090565b6002602052816000526040600020602052806000526040600020600091509150505481565b610229838383610321565b7f7ad3c846b4e57a650cd1a48a0a11bc6a0db12192ad16e89f2366dfdb8cd955ca6000600160405180806020018060200183810383528581815481526020019150805480156102cd57602002820191906000526020600020905b8160009054906101000a900473ffffffffffffffffffffffffffffffffffffffff1673ffffffffffffffffffffffffffffffffffffffff1681526020019060010190808311610283575b5050838103825284818154815260200191508054801561030c57602002820191906000526020600020905b8154815260200190600101908083116102f8575b505094505050505060405180910390a1505050565b6000825190506000600190505b60068110156105805760008482840381518110151561034957fe5b9060200190602002015190806001815401808255809150509060018203906000526020600020016000909192909190916101000a81548173ffffffffffffffffffffffffffffffffffffffff021916908373ffffffffffffffffffffffffffffffffffffffff1602179055505060018114156104175760016103e96103e86103db60198761058790919063ffffffff16565b6105c590919063ffffffff16565b90806001815401808255809150509060018203906000526020600020016000909192909190915055506104cd565b600281141561047857600161044a6103e861043c600a8761058790919063ffffffff16565b6105c590919063ffffffff16565b90806001815401808255809150509060018203906000526020600020016000909192909190915055506104cc565b60016104a26103e861049460058761058790919063ffffffff16565b6105c590919063ffffffff16565b90806001815401808255809150509060018203906000526020600020016000909192909190915055505b5b6001818154811015156104dc57fe5b9060005260206000200154600260008781526020019081526020016000206000808481548110151561050a57fe5b9060005260206000200160009054906101000a900473ffffffffffffffffffffffffffffffffffffffff1673ffffffffffffffffffffffffffffffffffffffff1673ffffffffffffffffffffffffffffffffffffffff16815260200190815260200160002081905550808060010191505061032e565b5050505050565b60008083141561059a57600090506105bf565b600082840290508284828115156105ad57fe5b041415156105ba57600080fd5b809150505b92915050565b600080821115156105d557600080fd5b600082848115156105e257fe5b049050809150509291505056fea165627a7a7230582096a27f933973670de715ce025c7dac4d02721bd36e094d568fbc12a133d492e80029",
  "source": "pragma solidity >=0.4.21 <0.6.0;\n\nimport \"../node_modules/openzeppelin-solidity/contracts/math/SafeMath.sol\";\n\n// FOMO奖励 5%\n// 每一轮最后一名参与者获得2.5%奖励，倒数第2名获得1%，倒数3、4、5名各获得0.5%\n\ncontract FOMOReward {\n    \n    using SafeMath for uint256;\n\n    event FOMOWinnerInfo(address[] FOMOWinners, uint256[] FOMORewards);\n\n    // 获奖者数组\n    address[] FOMOWinners;\n    // 奖金数组\n    uint256[] FOMORewards;\n    // 获奖者地址和奖金的映射\n    // 公开mapping，可以通过地址查询奖励金额（step=>address=>rewardAmount）,这个在withdraw的时候会有用\n    mapping(uint256 => mapping(address => uint256)) public FOMORewardAmount;\n\n    constructor() public {\n\n    }\n\n    // 获取FOMO获胜者列表和奖金列表\n    function getFOMOWinnerInfo(\n        uint256 _stepIndex,\n        address[] memory _funders,\n        uint256 _totalFOMOReward\n    )\n        public\n    {\n        _dealWinnerInfo(_stepIndex, _funders, _totalFOMOReward);\n        emit FOMOWinnerInfo(FOMOWinners, FOMORewards);\n    }\n\n    // 处理获奖者信息，分配获奖金额\n    // 接受当前轮次的参与者、FOMO总奖励资金\n    function _dealWinnerInfo(\n        uint256 _stepIndex,\n        address[] memory _funders,\n        uint256 _totalFOMOReward\n    )\n        internal\n    {\n        uint256 fundersLen = _funders.length;\n\n        for(uint i = 1; i < 6; i++){\n            FOMOWinners.push(_funders[fundersLen-i]);\n            if(i == 1) {\n                FOMORewards.push(_totalFOMOReward.mul(25).div(1000));\n            }else if(i == 2) {\n                FOMORewards.push(_totalFOMOReward.mul(10).div(1000));\n            }else{\n                FOMORewards.push(_totalFOMOReward.mul(5).div(1000));\n            }\n\n            FOMORewardAmount[_stepIndex][FOMOWinners[i]] = FOMORewards[i];\n        }\n    }\n\n    // 确认奖励金是正确的\n    function getTotalRewardAmount() public view returns(uint256) {\n        uint totalAmount = 0;\n        for(uint i = 0; i < FOMORewards.length ; i++){\n            totalAmount += FOMORewards[i];\n        }\n    }\n}",
  "sourcePath": "/Users/a186r/dev/sourcecode/contracts/contract/contract/contracts/FOMOReward.sol",
  "compiler": {
    "name": "solc",
    "version": "0.5.2+commit.1df8f40c.Emscripten.clang"
  },
  "schemaVersion": "3.0.6",
  "updatedAt": "2019-05-18T11:01:06.370Z",
  "devdoc": {
    "methods": {}
  },
  "userdoc": {
    "methods": {}
  }
}