{
  "contractName": "FOMOReward",
  "abi": [
    {
      "constant": true,
      "inputs": [
        {
          "name": "",
          "type": "uint256"
        },
        {
          "name": "",
          "type": "address"
        }
      ],
      "name": "FOMORewardAmount",
      "outputs": [
        {
          "name": "",
          "type": "uint256"
        }
      ],
      "payable": false,
      "stateMutability": "view",
      "type": "function"
    },
    {
      "constant": true,
      "inputs": [
        {
          "name": "",
          "type": "uint256"
        },
        {
          "name": "",
          "type": "uint256"
        }
      ],
      "name": "FOMOWinners",
      "outputs": [
        {
          "name": "",
          "type": "address"
        }
      ],
      "payable": false,
      "stateMutability": "view",
      "type": "function"
    },
    {
      "constant": true,
      "inputs": [
        {
          "name": "",
          "type": "uint256"
        },
        {
          "name": "",
          "type": "uint256"
        }
      ],
      "name": "FOMORewards",
      "outputs": [
        {
          "name": "",
          "type": "uint256"
        }
      ],
      "payable": false,
      "stateMutability": "view",
      "type": "function"
    },
    {
      "constant": true,
      "inputs": [
        {
          "name": "",
          "type": "address"
        }
      ],
      "name": "FOMOFunderTotalBalance",
      "outputs": [
        {
          "name": "",
          "type": "uint256"
        }
      ],
      "payable": false,
      "stateMutability": "view",
      "type": "function"
    },
    {
      "inputs": [],
      "payable": false,
      "stateMutability": "nonpayable",
      "type": "constructor"
    },
    {
      "anonymous": false,
      "inputs": [
        {
          "indexed": false,
          "name": "FOMOWinners",
          "type": "address[]"
        },
        {
          "indexed": false,
          "name": "FOMORewards",
          "type": "uint256[]"
        }
      ],
      "name": "FOMOWinnerInfo",
      "type": "event"
    },
    {
      "constant": true,
      "inputs": [
        {
          "name": "_stepIndex",
          "type": "uint256"
        }
      ],
      "name": "getFOMOWinnerInfo",
      "outputs": [
        {
          "name": "",
          "type": "uint256"
        },
        {
          "name": "",
          "type": "address[]"
        },
        {
          "name": "",
          "type": "uint256[]"
        }
      ],
      "payable": false,
      "stateMutability": "view",
      "type": "function"
    },
    {
      "constant": false,
      "inputs": [
        {
          "name": "_stepIndex",
          "type": "uint256"
        },
        {
          "name": "_funders",
          "type": "address[]"
        },
        {
          "name": "_totalFOMOReward",
          "type": "uint256"
        }
      ],
      "name": "dealFOMOWinner",
      "outputs": [
        {
          "name": "",
          "type": "address[]"
        }
      ],
      "payable": false,
      "stateMutability": "nonpayable",
      "type": "function"
    },
    {
      "constant": true,
      "inputs": [
        {
          "name": "_stepIndex",
          "type": "uint256"
        }
      ],
      "name": "getTotalRewardAmount",
      "outputs": [
        {
          "name": "",
          "type": "uint256"
        }
      ],
      "payable": false,
      "stateMutability": "view",
      "type": "function"
    }
  ],
  "bytecode": "0x608060405234801561001057600080fd5b50610ad7806100206000396000f3fe608060405234801561001057600080fd5b506004361061009a576000357c01000000000000000000000000000000000000000000000000000000009004806391a3c8081161007857806391a3c808146101d9578063c21a7743146101fc578063c7535567146102f8578063d568d7171461031e5761009a565b80632889cc071461009f578063509b49e91461015c5780635308cf971461019a575b600080fd5b6100bc600480360360208110156100b557600080fd5b503561033b565b604051808481526020018060200180602001838103835285818151815260200191508051906020019060200280838360005b838110156101065781810151838201526020016100ee565b50505050905001838103825284818151815260200191508051906020019060200280838360005b8381101561014557818101518382015260200161012d565b505050509050019550505050505060405180910390f35b6101886004803603604081101561017257600080fd5b5080359060200135600160a060020a0316610412565b60408051918252519081900360200190f35b6101bd600480360360408110156101b057600080fd5b508035906020013561042f565b60408051600160a060020a039092168252519081900360200190f35b610188600480360360408110156101ef57600080fd5b5080359060200135610466565b6102a86004803603606081101561021257600080fd5b8135919081019060408101602082013564010000000081111561023457600080fd5b82018360208201111561024657600080fd5b8035906020019184602083028401116401000000008311171561026857600080fd5b9190808060200260200160405190810160405280939291908181526020018383602002808284376000920191909152509295505091359250610496915050565b60408051602080825283518183015283519192839290830191858101910280838360005b838110156102e45781810151838201526020016102cc565b505050509050019250505060405180910390f35b6101886004803603602081101561030e57600080fd5b5035600160a060020a0316610514565b6101886004803603602081101561033457600080fd5b5035610526565b60008181526005602090815260408083205483835281842060018452828520815484518187028101870190955280855260609586959184918301828280156103ac57602002820191906000526020600020905b8154600160a060020a0316815260019091019060200180831161038e575b50505050509150808054806020026020016040519081016040528092919081815260200182805480156103fe57602002820191906000526020600020905b8154815260200190600101908083116103ea575b505050505090509250925092509193909250565b600260209081526000928352604080842090915290825290205481565b60006020528160005260406000208181548110151561044a57fe5b600091825260209091200154600160a060020a03169150829050565b60016020528160005260406000208181548110151561048157fe5b90600052602060002001600091509150505481565b60008381526004602052604090205460609060ff1615610501576040517f08c379a000000000000000000000000000000000000000000000000000000000815260040180806020018281038252602b815260200180610a81602b913960400191505060405180910390fd5b61050c84848461057b565b949350505050565b60036020526000908152604090205481565b600080805b60008481526001602052604090205481101561057457600084815260016020526040902080548290811061055b57fe5b600091825260209091200154919091019060010161052b565b5092915050565b606060006006845110151561059257506006610596565b5082515b806040519080825280602002602001820160405280156105c0578160200160208202803883390190505b50600086815260016020908152604090912082516105e49391929190910190610979565b508060405190808252806020026020018201604052801561060f578160200160208202803883390190505b50600086815260208181526040909120825161063193919291909101906109c4565b5060005b818110156108a25780151561069157610666606461065a86603263ffffffff61092116565b9063ffffffff61095516565b600087815260016020526040902080548390811061068057fe5b6000918252602090912001556106ed565b80600114156106b057610666606461065a86601463ffffffff61092116565b6106c6606461065a86600a63ffffffff61092116565b60008781526001602052604090208054839081106106e057fe5b6000918252602090912001555b8481600184030381518110151561070057fe5b6020908102909101810151600088815291829052604090912080548390811061072557fe5b6000918252602080832091909101805473ffffffffffffffffffffffffffffffffffffffff1916600160a060020a03949094169390931790925587815260019091526040902080548290811061077757fe5b60009182526020808320909101548883526002825260408084209284905283208054919391859081106107a657fe5b6000918252602080832090910154600160a060020a03168352828101939093526040918201812093909355888352600282528083209183905282208054919291849081106107f057fe5b6000918252602080832090910154600160a060020a0316835282810193909352604091820181205489825292819052908120805460039291908590811061083357fe5b6000918252602080832090910154600160a060020a03168352828101939093526040918201812080549094019093558883526001909152902080548290811061087857fe5b60009182526020808320909101548883526005909152604090912080549091019055600101610635565b506000858152600460209081526040808320805460ff19166001179055828252918290208054835181840281018401909452808452909183018282801561091257602002820191906000526020600020905b8154600160a060020a031681526001909101906020018083116108f4575b50505050509150509392505050565b60008215156109325750600061094f565b82820282848281151561094157fe5b041461094c57600080fd5b90505b92915050565b600080821161096357600080fd5b6000828481151561097057fe5b04949350505050565b8280548282559060005260206000209081019282156109b4579160200282015b828111156109b4578251825591602001919060010190610999565b506109c0929150610a32565b5090565b828054828255906000526020600020908101928215610a26579160200282015b82811115610a26578251825473ffffffffffffffffffffffffffffffffffffffff1916600160a060020a039091161782556020909201916001909101906109e4565b506109c0929150610a4f565b610a4c91905b808211156109c05760008155600101610a38565b90565b610a4c91905b808211156109c057805473ffffffffffffffffffffffffffffffffffffffff19168155600101610a5556fee5bd93e5898de8bdaee6aca1e79a84464f4d4fe5a596e58ab1e5b7b2e7bb8fe8aea1e7ae97e5ae8ce68890a165627a7a72305820092cbe93c3232f5d332263c84ff1379e5de18450137ca9cc90b135ca375bea950029",
  "source": "pragma solidity >=0.4.21 <0.6.0;\n\nimport \"../node_modules/openzeppelin-solidity/contracts/math/SafeMath.sol\";\n\n// FOMO奖励 5%\n// 每一轮最后一名参与者获得2.5%奖励，倒数第2名获得1%，倒数3、4、5名各获得0.5%\n\ncontract FOMOReward {\n\n    using SafeMath for uint256;\n\n    event FOMOWinnerInfo(address[] FOMOWinners, uint256[] FOMORewards);\n\n    // 获奖者数组\n    mapping(uint256 => address[]) public FOMOWinners;\n    // 奖金数组\n    mapping(uint256 => uint256[]) public FOMORewards;\n    // step => 获奖地址 => 奖金\n    mapping(uint256 => mapping(address => uint256)) public FOMORewardAmount;\n    // 用户累计奖金\n    mapping(address => uint256) public FOMOFunderTotalBalance;\n\n    // 裂变奖励分配结束\n    mapping(uint256 => bool) currentStepHasFinished;\n\n    mapping(uint256 => uint256) totalFOMOReward;\n\n    constructor() public {\n\n    }\n\n    /// @notice 获取FOMO获胜者列表和奖金列表\n    function getFOMOWinnerInfo(uint256 _stepIndex)\n        public\n        view\n        returns(uint256, address[] memory, uint256[] memory)\n    {\n        // emit FOMOWinnerInfo(FOMOWinners[_stepIndex], FOMORewards[_stepIndex]);\n        return(totalFOMOReward[_stepIndex], FOMOWinners[_stepIndex], FOMORewards[_stepIndex]);\n    }\n\n    // 处理FOMO奖励\n    function dealFOMOWinner(\n        uint256 _stepIndex,\n        address[] memory _funders,\n        uint256 _totalFOMOReward\n    )\n        public\n        returns(address[] memory)\n    {\n        require(!currentStepHasFinished[_stepIndex], \"当前轮次的FOMO奖励已经计算完成\");\n        return _dealWinnerInfo(_stepIndex, _funders, _totalFOMOReward);\n    }\n\n    // 处理获奖者信息，分配获奖金额\n    // 接受当前轮次的参与者、FOMO总奖励资金\n    function _dealWinnerInfo(\n        uint256 _stepIndex,\n        address[] memory _funders,\n        uint256 _totalFOMOReward\n    )\n        internal\n        returns(address[] memory)\n    {\n        uint256 fundersLen;\n\n        if(_funders.length >= 6){\n            fundersLen = 6;\n        }else{\n            fundersLen = _funders.length;\n        }\n\n        FOMORewards[_stepIndex] = new uint256[](fundersLen);\n        FOMOWinners[_stepIndex] = new address[](fundersLen);\n\n        for(uint i = 0; i < fundersLen; i++){\n            if(i == 0) {\n                FOMORewards[_stepIndex][i] = _totalFOMOReward.mul(50).div(100);\n            }else if(i == 1) {\n                FOMORewards[_stepIndex][i] = _totalFOMOReward.mul(20).div(100);\n            }else{\n                FOMORewards[_stepIndex][i] = _totalFOMOReward.mul(10).div(100);\n            }\n\n            FOMOWinners[_stepIndex][i] = _funders[fundersLen-1-i];\n\n            FOMORewardAmount[_stepIndex][FOMOWinners[_stepIndex][i]] = FOMORewards[_stepIndex][i];\n\n            // 保存FOMO中用户总奖励\n            FOMOFunderTotalBalance[FOMOWinners[_stepIndex][i]] += FOMORewardAmount[_stepIndex][FOMOWinners[_stepIndex][i]];\n\n            totalFOMOReward[_stepIndex] += FOMORewards[_stepIndex][i];\n        }\n\n        currentStepHasFinished[_stepIndex] = true;\n        // totalFOMOReward[_stepIndex] = _totalFOMOReward;\n        return FOMOWinners[_stepIndex];\n    }\n\n    // 确认奖励金是正确的\n    function getTotalRewardAmount(uint256 _stepIndex) public view returns(uint256) {\n        uint totalAmount = 0;\n        for(uint i = 0; i < FOMORewards[_stepIndex].length ; i++){\n            totalAmount += FOMORewards[_stepIndex][i];\n        }\n\n        return totalAmount;\n    }\n}",
  "sourcePath": "/Users/a186r/dev/contracts/contract/contract/contracts/FOMOReward.sol",
  "compiler": {
    "name": "solc",
    "version": "0.5.2+commit.1df8f40c.Emscripten.clang"
  },
  "schemaVersion": "3.0.9",
  "updatedAt": "2019-06-01T19:43:53.702Z",
  "devdoc": {
    "methods": {}
  },
  "userdoc": {
    "methods": {
      "getFOMOWinnerInfo(uint256)": {
        "notice": "获取FOMO获胜者列表和奖金列表"
      }
    }
  }
}