{
  "contractName": "FOMOReward",
  "abi": [
    {
      "constant": true,
      "inputs": [
        {
          "name": "",
          "type": "uint256"
        },
        {
          "name": "",
          "type": "address"
        }
      ],
      "name": "FOMORewardAmount",
      "outputs": [
        {
          "name": "",
          "type": "uint256"
        }
      ],
      "payable": false,
      "stateMutability": "view",
      "type": "function",
      "signature": "0x509b49e9"
    },
    {
      "constant": true,
      "inputs": [
        {
          "name": "",
          "type": "uint256"
        },
        {
          "name": "",
          "type": "uint256"
        }
      ],
      "name": "FOMOWinners",
      "outputs": [
        {
          "name": "",
          "type": "address"
        }
      ],
      "payable": false,
      "stateMutability": "view",
      "type": "function",
      "signature": "0x5308cf97"
    },
    {
      "constant": false,
      "inputs": [],
      "name": "renounceOwnership",
      "outputs": [],
      "payable": false,
      "stateMutability": "nonpayable",
      "type": "function",
      "signature": "0x715018a6"
    },
    {
      "constant": false,
      "inputs": [
        {
          "name": "_authority",
          "type": "address"
        }
      ],
      "name": "setAuthority",
      "outputs": [],
      "payable": false,
      "stateMutability": "nonpayable",
      "type": "function",
      "signature": "0x7a9e5e4b"
    },
    {
      "constant": true,
      "inputs": [],
      "name": "owner",
      "outputs": [
        {
          "name": "",
          "type": "address"
        }
      ],
      "payable": false,
      "stateMutability": "view",
      "type": "function",
      "signature": "0x8da5cb5b"
    },
    {
      "constant": true,
      "inputs": [],
      "name": "isOwner",
      "outputs": [
        {
          "name": "",
          "type": "bool"
        }
      ],
      "payable": false,
      "stateMutability": "view",
      "type": "function",
      "signature": "0x8f32d59b"
    },
    {
      "constant": true,
      "inputs": [
        {
          "name": "",
          "type": "uint256"
        },
        {
          "name": "",
          "type": "uint256"
        }
      ],
      "name": "FOMORewards",
      "outputs": [
        {
          "name": "",
          "type": "uint256"
        }
      ],
      "payable": false,
      "stateMutability": "view",
      "type": "function",
      "signature": "0x91a3c808"
    },
    {
      "constant": true,
      "inputs": [
        {
          "name": "",
          "type": "address"
        }
      ],
      "name": "FOMOFunderTotalBalance",
      "outputs": [
        {
          "name": "",
          "type": "uint256"
        }
      ],
      "payable": false,
      "stateMutability": "view",
      "type": "function",
      "signature": "0xc7535567"
    },
    {
      "constant": false,
      "inputs": [
        {
          "name": "newOwner",
          "type": "address"
        }
      ],
      "name": "transferOwnership",
      "outputs": [],
      "payable": false,
      "stateMutability": "nonpayable",
      "type": "function",
      "signature": "0xf2fde38b"
    },
    {
      "inputs": [],
      "payable": false,
      "stateMutability": "nonpayable",
      "type": "constructor",
      "signature": "constructor"
    },
    {
      "anonymous": false,
      "inputs": [
        {
          "indexed": false,
          "name": "FOMOWinners",
          "type": "address[]"
        },
        {
          "indexed": false,
          "name": "FOMORewards",
          "type": "uint256[]"
        }
      ],
      "name": "FOMOWinnerInfo",
      "type": "event",
      "signature": "0x7ad3c846b4e57a650cd1a48a0a11bc6a0db12192ad16e89f2366dfdb8cd955ca"
    },
    {
      "anonymous": false,
      "inputs": [
        {
          "indexed": true,
          "name": "previousOwner",
          "type": "address"
        },
        {
          "indexed": true,
          "name": "newOwner",
          "type": "address"
        }
      ],
      "name": "OwnershipTransferred",
      "type": "event",
      "signature": "0x8be0079c531659141344cd1fd0a4f28419497f9722a3daafe3b4186f6b6457e0"
    },
    {
      "constant": true,
      "inputs": [
        {
          "name": "_stepIndex",
          "type": "uint256"
        }
      ],
      "name": "getFOMOWinnerInfo",
      "outputs": [
        {
          "name": "",
          "type": "uint256"
        },
        {
          "name": "",
          "type": "address[]"
        },
        {
          "name": "",
          "type": "uint256[]"
        }
      ],
      "payable": false,
      "stateMutability": "view",
      "type": "function",
      "signature": "0x2889cc07"
    },
    {
      "constant": false,
      "inputs": [
        {
          "name": "_stepIndex",
          "type": "uint256"
        },
        {
          "name": "_funders",
          "type": "address[]"
        },
        {
          "name": "_totalFOMOReward",
          "type": "uint256"
        }
      ],
      "name": "dealFOMOWinner",
      "outputs": [
        {
          "name": "",
          "type": "address[]"
        }
      ],
      "payable": false,
      "stateMutability": "nonpayable",
      "type": "function",
      "signature": "0xc21a7743"
    },
    {
      "constant": true,
      "inputs": [
        {
          "name": "_stepIndex",
          "type": "uint256"
        }
      ],
      "name": "getTotalRewardAmount",
      "outputs": [
        {
          "name": "",
          "type": "uint256"
        }
      ],
      "payable": false,
      "stateMutability": "view",
      "type": "function",
      "signature": "0xd568d717"
    }
  ],
  "bytecode": "0x608060405234801561001057600080fd5b5060008054600160a060020a0319163317808255604051600160a060020a039190911691907f8be0079c531659141344cd1fd0a4f28419497f9722a3daafe3b4186f6b6457e0908290a3610cee806100696000396000f3fe608060405234801561001057600080fd5b50600436106100d1576000357c0100000000000000000000000000000000000000000000000000000000900480638f32d59b1161008e5780638f32d59b1461024857806391a3c80814610264578063c21a774314610287578063c753556714610383578063d568d717146103a9578063f2fde38b146103c6576100d1565b80632889cc07146100d6578063509b49e9146101935780635308cf97146101d1578063715018a6146102105780637a9e5e4b1461021a5780638da5cb5b14610240575b600080fd5b6100f3600480360360208110156100ec57600080fd5b50356103ec565b604051808481526020018060200180602001838103835285818151815260200191508051906020019060200280838360005b8381101561013d578181015183820152602001610125565b50505050905001838103825284818151815260200191508051906020019060200280838360005b8381101561017c578181015183820152602001610164565b505050509050019550505050505060405180910390f35b6101bf600480360360408110156101a957600080fd5b5080359060200135600160a060020a03166104c4565b60408051918252519081900360200190f35b6101f4600480360360408110156101e757600080fd5b50803590602001356104e1565b60408051600160a060020a039092168252519081900360200190f35b610218610518565b005b6102186004803603602081101561023057600080fd5b5035600160a060020a0316610582565b6101f46105bc565b6102506105cc565b604080519115158252519081900360200190f35b6101bf6004803603604081101561027a57600080fd5b50803590602001356105dd565b6103336004803603606081101561029d57600080fd5b813591908101906040810160208201356401000000008111156102bf57600080fd5b8201836020820111156102d157600080fd5b803590602001918460208302840111640100000000831117156102f357600080fd5b919080806020026020016040519081016040528093929190818152602001838360200280828437600092019190915250929550509135925061060d915050565b60408051602080825283518183015283519192839290830191858101910280838360005b8381101561036f578181015183820152602001610357565b505050509050019250505060405180910390f35b6101bf6004803603602081101561039957600080fd5b5035600160a060020a031661068b565b6101bf600480360360208110156103bf57600080fd5b503561069d565b610218600480360360208110156103dc57600080fd5b5035600160a060020a03166106f2565b60008181526007602090815260408083205460028352818420600384528285208154845181870281018701909552808552606095869591849183018282801561045e57602002820191906000526020600020905b8154600160a060020a03168152600190910190602001808311610440575b50505050509150808054806020026020016040519081016040528092919081815260200182805480156104b057602002820191906000526020600020905b81548152602001906001019080831161049c575b505050505090509250925092509193909250565b600460209081526000928352604080842090915290825290205481565b6002602052816000526040600020818154811015156104fc57fe5b600091825260209091200154600160a060020a03169150829050565b6105206105cc565b151561052b57600080fd5b60008054604051600160a060020a03909116907f8be0079c531659141344cd1fd0a4f28419497f9722a3daafe3b4186f6b6457e0908390a36000805473ffffffffffffffffffffffffffffffffffffffff19169055565b61058a6105cc565b151561059557600080fd5b600160a060020a03166000908152600160208190526040909120805460ff19169091179055565b600054600160a060020a03165b90565b600054600160a060020a0316331490565b6003602052816000526040600020818154811015156105f857fe5b90600052602060002001600091509150505481565b60008381526006602052604090205460609060ff1615610678576040517f08c379a000000000000000000000000000000000000000000000000000000000815260040180806020018281038252602b815260200180610c98602b913960400191505060405180910390fd5b610683848484610711565b949350505050565b60056020526000908152604090205481565b600080805b6000848152600360205260409020548110156106eb5760008481526003602052604090208054829081106106d257fe5b60009182526020909120015491909101906001016106a2565b5092915050565b6106fa6105cc565b151561070557600080fd5b61070e81610abe565b50565b60606000600684511015156107285750600661072c565b5082515b80604051908082528060200260200182016040528015610756578160200160208202803883390190505b506000868152600360209081526040909120825161077a9391929190910190610b93565b50806040519080825280602002602001820160405280156107a5578160200160208202803883390190505b50600086815260026020908152604090912082516107c99391929190910190610bde565b5060005b81811015610a3e57801515610829576107fe60646107f286603263ffffffff610b3b16565b9063ffffffff610b6f16565b600087815260036020526040902080548390811061081857fe5b600091825260209091200155610885565b8060011415610848576107fe60646107f286601463ffffffff610b3b16565b61085e60646107f286600a63ffffffff610b3b16565b600087815260036020526040902080548390811061087857fe5b6000918252602090912001555b8481600184030381518110151561089857fe5b60209081029091018101516000888152600290925260409091208054839081106108be57fe5b6000918252602080832091909101805473ffffffffffffffffffffffffffffffffffffffff1916600160a060020a03949094169390931790925587815260039091526040902080548290811061091057fe5b60009182526020808320909101548883526004825260408084206002909352832080549193918590811061094057fe5b6000918252602080832090910154600160a060020a0316835282810193909352604091820181208054909401909355888352600482528083206002909252822080549192918490811061098f57fe5b6000918252602080832090910154600160a060020a03168352828101939093526040918201812054898252600290935290812080546005929190859081106109d357fe5b6000918252602080832090910154600160a060020a0316835282810193909352604091820181209390935588835260039091529020805482908110610a1457fe5b600091825260208083209091015488835260079091526040909120805490910190556001016107cd565b506000858152600660209081526040808320805460ff19166001179055600282529182902080548351818402810184019094528084529091830182828015610aaf57602002820191906000526020600020905b8154600160a060020a03168152600190910190602001808311610a91575b50505050509150509392505050565b600160a060020a0381161515610ad357600080fd5b60008054604051600160a060020a03808516939216917f8be0079c531659141344cd1fd0a4f28419497f9722a3daafe3b4186f6b6457e091a36000805473ffffffffffffffffffffffffffffffffffffffff1916600160a060020a0392909216919091179055565b6000821515610b4c57506000610b69565b828202828482811515610b5b57fe5b0414610b6657600080fd5b90505b92915050565b6000808211610b7d57600080fd5b60008284811515610b8a57fe5b04949350505050565b828054828255906000526020600020908101928215610bce579160200282015b82811115610bce578251825591602001919060010190610bb3565b50610bda929150610c4c565b5090565b828054828255906000526020600020908101928215610c40579160200282015b82811115610c40578251825473ffffffffffffffffffffffffffffffffffffffff1916600160a060020a03909116178255602090920191600190910190610bfe565b50610bda929150610c66565b6105c991905b80821115610bda5760008155600101610c52565b6105c991905b80821115610bda57805473ffffffffffffffffffffffffffffffffffffffff19168155600101610c6c56fee5bd93e5898de8bdaee6aca1e79a84464f4d4fe5a596e58ab1e5b7b2e7bb8fe8aea1e7ae97e5ae8ce68890a165627a7a72305820f30cb0140ea7310f9430b9873bb8558d08a9d0e47d0b0ce39359564d66c96f650029",
  "source": "pragma solidity >=0.4.21 <0.6.0;\n\nimport \"../node_modules/openzeppelin-solidity/contracts/math/SafeMath.sol\";\nimport \"./Authority.sol\";\n\n// FOMO奖励 5%\n// 每一轮最后一名参与者获得2.5%奖励，倒数第2名获得1%，倒数3、4、5名各获得0.5%\n\ncontract FOMOReward is Authority{\n\n    using SafeMath for uint256;\n\n    event FOMOWinnerInfo(address[] FOMOWinners, uint256[] FOMORewards);\n\n    // 获奖者数组\n    mapping(uint256 => address[]) public FOMOWinners;\n    // 奖金数组\n    mapping(uint256 => uint256[]) public FOMORewards;\n    // step => 获奖地址 => 奖金\n    mapping(uint256 => mapping(address => uint256)) public FOMORewardAmount;\n    // 用户累计奖金\n    mapping(address => uint256) public FOMOFunderTotalBalance;\n\n    // 裂变奖励分配结束\n    mapping(uint256 => bool) currentStepHasFinished;\n\n    mapping(uint256 => uint256) totalFOMOReward;\n\n    constructor() public {\n\n    }\n\n    /// @notice 获取FOMO获胜者列表和奖金列表\n    function getFOMOWinnerInfo(uint256 _stepIndex)\n        public\n        view\n        returns(uint256, address[] memory, uint256[] memory)\n    {\n        return(totalFOMOReward[_stepIndex], FOMOWinners[_stepIndex], FOMORewards[_stepIndex]);\n    }\n\n    // 处理FOMO奖励\n    function dealFOMOWinner(\n        uint256 _stepIndex,\n        address[] memory _funders,\n        uint256 _totalFOMOReward\n    )\n        public\n        // onlyAuthority()\n        returns(address[] memory)\n    {\n        require(!currentStepHasFinished[_stepIndex], \"当前轮次的FOMO奖励已经计算完成\");\n        return _dealWinnerInfo(_stepIndex, _funders, _totalFOMOReward);\n    }\n\n    // 处理获奖者信息，分配获奖金额\n    // 接受当前轮次的参与者、FOMO总奖励资金\n    function _dealWinnerInfo(\n        uint256 _stepIndex,\n        address[] memory _funders,\n        uint256 _totalFOMOReward\n    )\n        internal\n        returns(address[] memory)\n    {\n        uint256 fundersLen;\n\n        if(_funders.length >= 6){\n            fundersLen = 6;\n        }else{\n            fundersLen = _funders.length;\n        }\n\n        FOMORewards[_stepIndex] = new uint256[](fundersLen);\n        FOMOWinners[_stepIndex] = new address[](fundersLen);\n\n        for(uint i = 0; i < fundersLen; i++){\n            if(i == 0) {\n                FOMORewards[_stepIndex][i] = _totalFOMOReward.mul(50).div(100);\n            }else if(i == 1) {\n                FOMORewards[_stepIndex][i] = _totalFOMOReward.mul(20).div(100);\n            }else{\n                FOMORewards[_stepIndex][i] = _totalFOMOReward.mul(10).div(100);\n            }\n\n            FOMOWinners[_stepIndex][i] = _funders[fundersLen-1-i];\n\n            FOMORewardAmount[_stepIndex][FOMOWinners[_stepIndex][i]] += FOMORewards[_stepIndex][i];\n\n            // 保存FOMO中用户总奖励\n            FOMOFunderTotalBalance[FOMOWinners[_stepIndex][i]] = FOMORewardAmount[_stepIndex][FOMOWinners[_stepIndex][i]];\n\n            totalFOMOReward[_stepIndex] += FOMORewards[_stepIndex][i];\n        }\n\n        currentStepHasFinished[_stepIndex] = true;\n\n        return FOMOWinners[_stepIndex];\n    }\n\n    // 确认奖励金是正确的\n    function getTotalRewardAmount(uint256 _stepIndex) public view returns(uint256) {\n        uint totalAmount = 0;\n        for(uint i = 0; i < FOMORewards[_stepIndex].length ; i++){\n            totalAmount += FOMORewards[_stepIndex][i];\n        }\n\n        return totalAmount;\n    }\n}",
  "sourcePath": "/Users/a186r/dev/sourcecode/contract/contract/contracts/FOMOReward.sol",
  "compiler": {
    "name": "solc",
    "version": "0.5.2+commit.1df8f40c.Emscripten.clang"
  },
  "schemaVersion": "3.0.6",
  "updatedAt": "2019-06-04T02:44:47.160Z",
  "devdoc": {
    "methods": {
      "isOwner()": {
        "return": "true if `msg.sender` is the owner of the contract."
      },
      "owner()": {
        "return": "the address of the owner."
      },
      "renounceOwnership()": {
        "details": "Allows the current owner to relinquish control of the contract. It will not be possible to call the functions with the `onlyOwner` modifier anymore."
      },
      "transferOwnership(address)": {
        "details": "Allows the current owner to transfer control of the contract to a newOwner.",
        "params": {
          "newOwner": "The address to transfer ownership to."
        }
      }
    }
  },
  "userdoc": {
    "methods": {
      "getFOMOWinnerInfo(uint256)": {
        "notice": "获取FOMO获胜者列表和奖金列表"
      },
      "renounceOwnership()": {
        "notice": "Renouncing ownership will leave the contract without an owner, thereby removing any functionality that is only available to the owner."
      }
    }
  }
}