{
  "contractName": "FOMOReward",
  "abi": [
    {
      "constant": true,
      "inputs": [
        {
          "name": "",
          "type": "uint256"
        },
        {
          "name": "",
          "type": "address"
        }
      ],
      "name": "FOMORewardAmount",
      "outputs": [
        {
          "name": "",
          "type": "uint256"
        }
      ],
      "payable": false,
      "stateMutability": "view",
      "type": "function"
    },
    {
      "constant": true,
      "inputs": [
        {
          "name": "",
          "type": "uint256"
        },
        {
          "name": "",
          "type": "uint256"
        }
      ],
      "name": "FOMOWinners",
      "outputs": [
        {
          "name": "",
          "type": "address"
        }
      ],
      "payable": false,
      "stateMutability": "view",
      "type": "function"
    },
    {
      "constant": false,
      "inputs": [],
      "name": "renounceOwnership",
      "outputs": [],
      "payable": false,
      "stateMutability": "nonpayable",
      "type": "function"
    },
    {
      "constant": true,
      "inputs": [],
      "name": "owner",
      "outputs": [
        {
          "name": "",
          "type": "address"
        }
      ],
      "payable": false,
      "stateMutability": "view",
      "type": "function"
    },
    {
      "constant": true,
      "inputs": [],
      "name": "isOwner",
      "outputs": [
        {
          "name": "",
          "type": "bool"
        }
      ],
      "payable": false,
      "stateMutability": "view",
      "type": "function"
    },
    {
      "constant": true,
      "inputs": [
        {
          "name": "",
          "type": "uint256"
        },
        {
          "name": "",
          "type": "uint256"
        }
      ],
      "name": "FOMORewards",
      "outputs": [
        {
          "name": "",
          "type": "uint256"
        }
      ],
      "payable": false,
      "stateMutability": "view",
      "type": "function"
    },
    {
      "constant": true,
      "inputs": [
        {
          "name": "",
          "type": "address"
        }
      ],
      "name": "FOMOFunderTotalBalance",
      "outputs": [
        {
          "name": "",
          "type": "uint256"
        }
      ],
      "payable": false,
      "stateMutability": "view",
      "type": "function"
    },
    {
      "constant": false,
      "inputs": [
        {
          "name": "newOwner",
          "type": "address"
        }
      ],
      "name": "transferOwnership",
      "outputs": [],
      "payable": false,
      "stateMutability": "nonpayable",
      "type": "function"
    },
    {
      "inputs": [],
      "payable": false,
      "stateMutability": "nonpayable",
      "type": "constructor"
    },
    {
      "anonymous": false,
      "inputs": [
        {
          "indexed": false,
          "name": "FOMOWinners",
          "type": "address[]"
        },
        {
          "indexed": false,
          "name": "FOMORewards",
          "type": "uint256[]"
        }
      ],
      "name": "FOMOWinnerInfo",
      "type": "event"
    },
    {
      "anonymous": false,
      "inputs": [
        {
          "indexed": true,
          "name": "previousOwner",
          "type": "address"
        },
        {
          "indexed": true,
          "name": "newOwner",
          "type": "address"
        }
      ],
      "name": "OwnershipTransferred",
      "type": "event"
    },
    {
      "constant": true,
      "inputs": [
        {
          "name": "_stepIndex",
          "type": "uint256"
        }
      ],
      "name": "getFOMOWinnerInfo",
      "outputs": [
        {
          "name": "",
          "type": "uint256"
        },
        {
          "name": "",
          "type": "address[]"
        },
        {
          "name": "",
          "type": "uint256[]"
        }
      ],
      "payable": false,
      "stateMutability": "view",
      "type": "function"
    },
    {
      "constant": false,
      "inputs": [
        {
          "name": "_stepIndex",
          "type": "uint256"
        },
        {
          "name": "_funders",
          "type": "address[]"
        },
        {
          "name": "_totalFOMOReward",
          "type": "uint256"
        }
      ],
      "name": "dealFOMOWinner",
      "outputs": [
        {
          "name": "",
          "type": "address[]"
        }
      ],
      "payable": false,
      "stateMutability": "nonpayable",
      "type": "function"
    },
    {
      "constant": true,
      "inputs": [
        {
          "name": "_stepIndex",
          "type": "uint256"
        }
      ],
      "name": "getTotalRewardAmount",
      "outputs": [
        {
          "name": "",
          "type": "uint256"
        }
      ],
      "payable": false,
      "stateMutability": "view",
      "type": "function"
    }
  ],
  "bytecode": "0x608060405234801561001057600080fd5b5060008054600160a060020a0319163317808255604051600160a060020a039190911691907f8be0079c531659141344cd1fd0a4f28419497f9722a3daafe3b4186f6b6457e0908290a3610d01806100696000396000f3fe608060405234801561001057600080fd5b50600436106100c6576000357c0100000000000000000000000000000000000000000000000000000000900480638f32d59b1161008e5780638f32d59b1461021757806391a3c80814610233578063c21a774314610256578063c753556714610352578063d568d71714610378578063f2fde38b14610395576100c6565b80632889cc07146100cb578063509b49e9146101885780635308cf97146101c6578063715018a6146102055780638da5cb5b1461020f575b600080fd5b6100e8600480360360208110156100e157600080fd5b50356103bb565b604051808481526020018060200180602001838103835285818151815260200191508051906020019060200280838360005b8381101561013257818101518382015260200161011a565b50505050905001838103825284818151815260200191508051906020019060200280838360005b83811015610171578181015183820152602001610159565b505050509050019550505050505060405180910390f35b6101b46004803603604081101561019e57600080fd5b5080359060200135600160a060020a0316610493565b60408051918252519081900360200190f35b6101e9600480360360408110156101dc57600080fd5b50803590602001356104b0565b60408051600160a060020a039092168252519081900360200190f35b61020d6104e7565b005b6101e9610551565b61021f610561565b604080519115158252519081900360200190f35b6101b46004803603604081101561024957600080fd5b5080359060200135610572565b6103026004803603606081101561026c57600080fd5b8135919081019060408101602082013564010000000081111561028e57600080fd5b8201836020820111156102a057600080fd5b803590602001918460208302840111640100000000831117156102c257600080fd5b91908080602002602001604051908101604052809392919081815260200183836020028082843760009201919091525092955050913592506105a2915050565b60408051602080825283518183015283519192839290830191858101910280838360005b8381101561033e578181015183820152602001610326565b505050509050019250505060405180910390f35b6101b46004803603602081101561036857600080fd5b5035600160a060020a031661069d565b6101b46004803603602081101561038e57600080fd5b50356106af565b61020d600480360360208110156103ab57600080fd5b5035600160a060020a0316610704565b60008181526006602090815260408083205460018352818420600284528285208154845181870281018701909552808552606095869591849183018282801561042d57602002820191906000526020600020905b8154600160a060020a0316815260019091019060200180831161040f575b505050505091508080548060200260200160405190810160405280929190818152602001828054801561047f57602002820191906000526020600020905b81548152602001906001019080831161046b575b505050505090509250925092509193909250565b600360209081526000928352604080842090915290825290205481565b6001602052816000526040600020818154811015156104cb57fe5b600091825260209091200154600160a060020a03169150829050565b6104ef610561565b15156104fa57600080fd5b60008054604051600160a060020a03909116907f8be0079c531659141344cd1fd0a4f28419497f9722a3daafe3b4186f6b6457e0908390a36000805473ffffffffffffffffffffffffffffffffffffffff19169055565b600054600160a060020a03165b90565b600054600160a060020a0316331490565b60026020528160005260406000208181548110151561058d57fe5b90600052602060002001600091509150505481565b60606105ac610551565b600160a060020a0316321461062257604080517f08c379a000000000000000000000000000000000000000000000000000000000815260206004820152601b60248201527fe8b083e794a8e88085e6b2a1e69c89e8b083e794a8e69d83e999900000000000604482015290519081900360640190fd5b60008481526005602052604090205460ff161561068a576040517f08c379a000000000000000000000000000000000000000000000000000000000815260040180806020018281038252602b815260200180610cab602b913960400191505060405180910390fd5b610695848484610723565b949350505050565b60046020526000908152604090205481565b600080805b6000848152600260205260409020548110156106fd5760008481526002602052604090208054829081106106e457fe5b60009182526020909120015491909101906001016106b4565b5092915050565b61070c610561565b151561071757600080fd5b61072081610ad1565b50565b606060006006845110151561073a5750600661073e565b5082515b80604051908082528060200260200182016040528015610768578160200160208202803883390190505b506000868152600260209081526040909120825161078c9391929190910190610ba6565b50806040519080825280602002602001820160405280156107b7578160200160208202803883390190505b50600086815260016020908152604090912082516107db9391929190910190610bf1565b5060005b81811015610a505780151561083b57610810606461080486603263ffffffff610b4e16565b9063ffffffff610b8216565b600087815260026020526040902080548390811061082a57fe5b600091825260209091200155610897565b806001141561085a57610810606461080486601463ffffffff610b4e16565b610870606461080486600a63ffffffff610b4e16565b600087815260026020526040902080548390811061088a57fe5b6000918252602090912001555b848160018403038151811015156108aa57fe5b60209081029091018101516000888152600190925260409091208054839081106108d057fe5b6000918252602080832091909101805473ffffffffffffffffffffffffffffffffffffffff1916600160a060020a03949094169390931790925587815260029091526040902080548290811061092257fe5b60009182526020808320909101548883526003825260408084206001909352832080549193918590811061095257fe5b6000918252602080832090910154600160a060020a031683528281019390935260409182018120805490940190935588835260038252808320600190925282208054919291849081106109a157fe5b6000918252602080832090910154600160a060020a03168352828101939093526040918201812054898252600190935290812080546004929190859081106109e557fe5b6000918252602080832090910154600160a060020a0316835282810193909352604091820181209390935588835260029091529020805482908110610a2657fe5b600091825260208083209091015488835260069091526040909120805490910190556001016107df565b506000858152600560209081526040808320805460ff1916600190811790915582529182902080548351818402810184019094528084529091830182828015610ac257602002820191906000526020600020905b8154600160a060020a03168152600190910190602001808311610aa4575b50505050509150509392505050565b600160a060020a0381161515610ae657600080fd5b60008054604051600160a060020a03808516939216917f8be0079c531659141344cd1fd0a4f28419497f9722a3daafe3b4186f6b6457e091a36000805473ffffffffffffffffffffffffffffffffffffffff1916600160a060020a0392909216919091179055565b6000821515610b5f57506000610b7c565b828202828482811515610b6e57fe5b0414610b7957600080fd5b90505b92915050565b6000808211610b9057600080fd5b60008284811515610b9d57fe5b04949350505050565b828054828255906000526020600020908101928215610be1579160200282015b82811115610be1578251825591602001919060010190610bc6565b50610bed929150610c5f565b5090565b828054828255906000526020600020908101928215610c53579160200282015b82811115610c53578251825473ffffffffffffffffffffffffffffffffffffffff1916600160a060020a03909116178255602090920191600190910190610c11565b50610bed929150610c79565b61055e91905b80821115610bed5760008155600101610c65565b61055e91905b80821115610bed57805473ffffffffffffffffffffffffffffffffffffffff19168155600101610c7f56fee5bd93e5898de8bdaee6aca1e79a84464f4d4fe5a596e58ab1e5b7b2e7bb8fe8aea1e7ae97e5ae8ce68890a165627a7a72305820288746c9713327ef785af468d171c140086d3c543fa4c7b71510f4e94b1434190029",
  "source": "pragma solidity >=0.4.21 <0.6.0;\n\nimport \"../node_modules/openzeppelin-solidity/contracts/math/SafeMath.sol\";\nimport \"../node_modules/openzeppelin-solidity/contracts/ownership/Ownable.sol\";\n\n// FOMO奖励 5%\n// 每一轮最后一名参与者获得2.5%奖励，倒数第2名获得1%，倒数3、4、5名各获得0.5%\n\ncontract FOMOReward is Ownable{\n\n    using SafeMath for uint256;\n\n    event FOMOWinnerInfo(address[] FOMOWinners, uint256[] FOMORewards);\n\n    // 获奖者数组\n    mapping(uint256 => address[]) public FOMOWinners;\n    // 奖金数组\n    mapping(uint256 => uint256[]) public FOMORewards;\n    // step => 获奖地址 => 奖金\n    mapping(uint256 => mapping(address => uint256)) public FOMORewardAmount;\n    // 用户累计奖金\n    mapping(address => uint256) public FOMOFunderTotalBalance;\n\n    // 裂变奖励分配结束\n    mapping(uint256 => bool) currentStepHasFinished;\n\n    mapping(uint256 => uint256) totalFOMOReward;\n\n    constructor() public {\n\n    }\n\n    /// @notice 获取FOMO获胜者列表和奖金列表\n    function getFOMOWinnerInfo(uint256 _stepIndex)\n        public\n        view\n        returns(uint256, address[] memory, uint256[] memory)\n    {\n        return(totalFOMOReward[_stepIndex], FOMOWinners[_stepIndex], FOMORewards[_stepIndex]);\n    }\n\n    // 处理FOMO奖励\n    function dealFOMOWinner(\n        uint256 _stepIndex,\n        address[] memory _funders,\n        uint256 _totalFOMOReward\n    )\n        public\n        returns(address[] memory)\n    {\n        require(tx.origin == owner(), \"调用者没有调用权限\");\n        require(!currentStepHasFinished[_stepIndex], \"当前轮次的FOMO奖励已经计算完成\");\n        return _dealWinnerInfo(_stepIndex, _funders, _totalFOMOReward);\n    }\n\n    // 处理获奖者信息，分配获奖金额\n    // 接受当前轮次的参与者、FOMO总奖励资金\n    function _dealWinnerInfo(\n        uint256 _stepIndex,\n        address[] memory _funders,\n        uint256 _totalFOMOReward\n    )\n        internal\n        returns(address[] memory)\n    {\n        uint256 fundersLen;\n\n        if(_funders.length >= 6){\n            fundersLen = 6;\n        }else{\n            fundersLen = _funders.length;\n        }\n\n        FOMORewards[_stepIndex] = new uint256[](fundersLen);\n        FOMOWinners[_stepIndex] = new address[](fundersLen);\n\n        for(uint i = 0; i < fundersLen; i++){\n            if(i == 0) {\n                FOMORewards[_stepIndex][i] = _totalFOMOReward.mul(50).div(100);\n            }else if(i == 1) {\n                FOMORewards[_stepIndex][i] = _totalFOMOReward.mul(20).div(100);\n            }else{\n                FOMORewards[_stepIndex][i] = _totalFOMOReward.mul(10).div(100);\n            }\n\n            FOMOWinners[_stepIndex][i] = _funders[fundersLen-1-i];\n\n            FOMORewardAmount[_stepIndex][FOMOWinners[_stepIndex][i]] += FOMORewards[_stepIndex][i];\n\n            // 保存FOMO中用户总奖励\n            FOMOFunderTotalBalance[FOMOWinners[_stepIndex][i]] = FOMORewardAmount[_stepIndex][FOMOWinners[_stepIndex][i]];\n\n            totalFOMOReward[_stepIndex] += FOMORewards[_stepIndex][i];\n        }\n\n        currentStepHasFinished[_stepIndex] = true;\n\n        return FOMOWinners[_stepIndex];\n    }\n\n    // 确认奖励金是正确的\n    function getTotalRewardAmount(uint256 _stepIndex) public view returns(uint256) {\n        uint totalAmount = 0;\n        for(uint i = 0; i < FOMORewards[_stepIndex].length ; i++){\n            totalAmount += FOMORewards[_stepIndex][i];\n        }\n\n        return totalAmount;\n    }\n}",
  "sourcePath": "/root/contract/contract/contracts/FOMOReward.sol",
  "compiler": {
    "name": "solc",
    "version": "0.5.2+commit.1df8f40c.Emscripten.clang"
  },
  "schemaVersion": "3.0.10",
  "updatedAt": "2019-06-04T08:29:17.387Z",
  "devdoc": {
    "methods": {
      "isOwner()": {
        "return": "true if `msg.sender` is the owner of the contract."
      },
      "owner()": {
        "return": "the address of the owner."
      },
      "renounceOwnership()": {
        "details": "Allows the current owner to relinquish control of the contract. It will not be possible to call the functions with the `onlyOwner` modifier anymore."
      },
      "transferOwnership(address)": {
        "details": "Allows the current owner to transfer control of the contract to a newOwner.",
        "params": {
          "newOwner": "The address to transfer ownership to."
        }
      }
    }
  },
  "userdoc": {
    "methods": {
      "getFOMOWinnerInfo(uint256)": {
        "notice": "获取FOMO获胜者列表和奖金列表"
      },
      "renounceOwnership()": {
        "notice": "Renouncing ownership will leave the contract without an owner, thereby removing any functionality that is only available to the owner."
      }
    }
  }
}