{
  "contractName": "LuckyReward",
  "abi": [
    {
      "constant": true,
      "inputs": [
        {
          "name": "",
          "type": "uint256"
        }
      ],
      "name": "luckyRewards",
      "outputs": [
        {
          "name": "",
          "type": "uint256"
        }
      ],
      "payable": false,
      "stateMutability": "view",
      "type": "function"
    },
    {
      "constant": true,
      "inputs": [
        {
          "name": "",
          "type": "address"
        }
      ],
      "name": "luckyFunderTotalBalance",
      "outputs": [
        {
          "name": "",
          "type": "uint256"
        }
      ],
      "payable": false,
      "stateMutability": "view",
      "type": "function"
    },
    {
      "constant": true,
      "inputs": [
        {
          "name": "",
          "type": "uint256"
        },
        {
          "name": "",
          "type": "address"
        }
      ],
      "name": "luckyRewardAmount",
      "outputs": [
        {
          "name": "",
          "type": "uint256"
        }
      ],
      "payable": false,
      "stateMutability": "view",
      "type": "function"
    },
    {
      "inputs": [],
      "payable": false,
      "stateMutability": "nonpayable",
      "type": "constructor"
    },
    {
      "anonymous": false,
      "inputs": [
        {
          "indexed": false,
          "name": "luckyWinners",
          "type": "address[]"
        },
        {
          "indexed": false,
          "name": "luckyRewards",
          "type": "uint256"
        }
      ],
      "name": "LuckyInfo",
      "type": "event"
    },
    {
      "constant": true,
      "inputs": [
        {
          "name": "_stepIndex",
          "type": "uint256"
        }
      ],
      "name": "getLuckyInfo",
      "outputs": [
        {
          "name": "",
          "type": "uint256"
        },
        {
          "name": "",
          "type": "address[]"
        },
        {
          "name": "",
          "type": "uint256"
        }
      ],
      "payable": false,
      "stateMutability": "view",
      "type": "function"
    },
    {
      "constant": false,
      "inputs": [
        {
          "name": "_stepIndex",
          "type": "uint256"
        },
        {
          "name": "_luckyWinners",
          "type": "address[]"
        },
        {
          "name": "_totalLyckyReward",
          "type": "uint256"
        }
      ],
      "name": "dealLuckyInfo",
      "outputs": [],
      "payable": false,
      "stateMutability": "nonpayable",
      "type": "function"
    },
    {
      "constant": true,
      "inputs": [
        {
          "name": "_addr",
          "type": "address"
        }
      ],
      "name": "getLastFromAddress",
      "outputs": [
        {
          "name": "",
          "type": "string"
        }
      ],
      "payable": false,
      "stateMutability": "pure",
      "type": "function"
    },
    {
      "constant": true,
      "inputs": [
        {
          "name": "_blockHash",
          "type": "bytes32"
        }
      ],
      "name": "getLastFromBlockHash",
      "outputs": [
        {
          "name": "",
          "type": "string"
        }
      ],
      "payable": false,
      "stateMutability": "pure",
      "type": "function"
    }
  ],
  "bytecode": "0x608060405234801561001057600080fd5b50610be4806100206000396000f3fe608060405234801561001057600080fd5b50600436106100815760003560e060020a90048063ac197f921161005f578063ac197f92146101cf578063c28a1af31461027d578063dd572ab9146102a3578063f647c196146102cf57610081565b806349327441146100865780635fb25f1d146101055780636c347437146101a0575b600080fd5b6100a36004803603602081101561009c57600080fd5b50356102ec565b6040518084815260200180602001838152602001828103825284818151815260200191508051906020019060200280838360005b838110156100ef5781810151838201526020016100d7565b5050505090500194505050505060405180910390f35b61012b6004803603602081101561011b57600080fd5b5035600160a060020a0316610372565b6040805160208082528351818301528351919283929083019185019080838360005b8381101561016557818101518382015260200161014d565b50505050905090810190601f1680156101925780820380516001836020036101000a031916815260200191505b509250505060405180910390f35b6101bd600480360360208110156101b657600080fd5b50356105ba565b60408051918252519081900360200190f35b61027b600480360360608110156101e557600080fd5b8135919081019060408101602082013564010000000081111561020757600080fd5b82018360208201111561021957600080fd5b8035906020019184602083028401116401000000008311171561023b57600080fd5b91908080602002602001604051908101604052809392919081815260200183836020028082843760009201919091525092955050913592506105cc915050565b005b6101bd6004803603602081101561029357600080fd5b5035600160a060020a0316610644565b6101bd600480360360408110156102b957600080fd5b5080359060200135600160a060020a0316610656565b61012b600480360360208110156102e557600080fd5b5035610673565b60008181526005602090815260408083205483835281842060018452828520548154845181870281018701909552808552606095879591849183018282801561035e57602002820191906000526020600020905b8154600160a060020a03168152600190910190602001808311610340575b505050505091509250925092509193909250565b60608073__StringUtils___________________________63bcffbe68846040518263ffffffff1660e060020a0281526004018082600160a060020a0316600160a060020a0316815260200191505060006040518083038186803b1580156103d957600080fd5b505af41580156103ed573d6000803e3d6000fd5b505050506040513d6000823e601f3d908101601f19168201604052602081101561041657600080fd5b81019080805164010000000081111561042e57600080fd5b8201602081018481111561044157600080fd5b815164010000000081118282018710171561045b57600080fd5b5050929190505050905073__StringUtils___________________________631dcd9b55826029602a6040518463ffffffff1660e060020a0281526004018080602001848152602001838152602001828103825285818151815260200191508051906020019080838360005b838110156104df5781810151838201526020016104c7565b50505050905090810190601f16801561050c5780820380516001836020036101000a031916815260200191505b5094505050505060006040518083038186803b15801561052b57600080fd5b505af415801561053f573d6000803e3d6000fd5b505050506040513d6000823e601f3d908101601f19168201604052602081101561056857600080fd5b81019080805164010000000081111561058057600080fd5b8201602081018481111561059357600080fd5b81516401000000008111828201871017156105ad57600080fd5b5090979650505050505050565b60016020526000908152604090205481565b60008381526004602052604090205460ff1615610634576040517f08c379a000000000000000000000000000000000000000000000000000000000815260040180806020018281038252602d815260200180610b8c602d913960400191505060405180910390fd5b61063f8383836108a6565b505050565b60036020526000908152604090205481565b600260209081526000928352604080842090915290825290205481565b606073__StringUtils___________________________631dcd9b5573__StringUtils___________________________635da65da5856040518263ffffffff1660e060020a0281526004018082815260200191505060006040518083038186803b1580156106e157600080fd5b505af41580156106f5573d6000803e3d6000fd5b505050506040513d6000823e601f3d908101601f19168201604052602081101561071e57600080fd5b81019080805164010000000081111561073657600080fd5b8201602081018481111561074957600080fd5b815164010000000081118282018710171561076357600080fd5b505060405160e060020a63ffffffff8716028152601f602482018190526020604483018190526060600484019081528451606485015284519497509195509350918291608401908487019080838360005b838110156107cc5781810151838201526020016107b4565b50505050905090810190601f1680156107f95780820380516001836020036101000a031916815260200191505b5094505050505060006040518083038186803b15801561081857600080fd5b505af415801561082c573d6000803e3d6000fd5b505050506040513d6000823e601f3d908101601f19168201604052602081101561085557600080fd5b81019080805164010000000081111561086d57600080fd5b8201602081018481111561088057600080fd5b815164010000000081118282018710171561089a57600080fd5b50909695505050505050565b81516040519080825280602002602001820160405280156108d1578160200160208202803883390190505b5060008481526020818152604090912082516108f39391929190910190610ae5565b50600083815260208181526040909120835161091192850190610ae5565b50600082511115610a645760008381526020819052604090205461093c90829063ffffffff610a8d16565b6000848152600160205260408120919091555b600084815260208190526040902054811015610a1157600084815260016020908152604080832054600283528184209284905290832080549193918590811061099457fe5b6000918252602080832090910154600160a060020a03168352828101939093526040918201812093909355868352600182528083205491839052822080549192600392909190859081106109e457fe5b6000918252602080832090910154600160a060020a0316835282019290925260400190205560010161094f565b5060008381526020818152604080832054600190925290912054610a3a9163ffffffff610ab316565b6000848152600560209081526040808320939093556004905220805460ff1916600117905561063f565b6000838152600460209081526040808320805460ff19166001179055600590915281205561063f565b6000808211610a9b57600080fd5b60008284811515610aa857fe5b049150505b92915050565b6000821515610ac457506000610aad565b828202828482811515610ad357fe5b0414610ade57600080fd5b9392505050565b828054828255906000526020600020908101928215610b47579160200282015b82811115610b47578251825473ffffffffffffffffffffffffffffffffffffffff1916600160a060020a03909116178255602090920191600190910190610b05565b50610b53929150610b57565b5090565b610b8891905b80821115610b5357805473ffffffffffffffffffffffffffffffffffffffff19168155600101610b5d565b9056fee5bd93e5898de8bdaee6aca1e79a84e5b9b8e8bf90e5a596e58ab1e5b7b2e7bb8fe8aea1e7ae97e5ae8ce68890a165627a7a72305820232b9f1821d9ba339c7bdc86816a6cf11eb7c83a957dd52f87e6181d574a6a5d0029",
  "source": "pragma solidity >=0.4.21 <0.6.0;\n\nimport \"../node_modules/openzeppelin-solidity/contracts/math/SafeMath.sol\";\nimport \"./StringUtils.sol\";\n\n// 2.10%用于幸运奖励\n// 每一轮结束后下一个ETH区块高度Hash最后一位作为幸运值\n// 用户钱包地址的最后一位与幸运值相同，则瓜分10%奖励。\n// 募资期结束的时间就是当前轮次结束的时间，到达结束时间之后不再允许转入ETH，并在此时获取到最新的区块高度\n// 然后查询下一区块高度的Hash（此时需要保证已经出块）\n// 匹配幸运者\n// 这个合约给到外面的只有一个获奖者列表\n\ncontract LuckyReward{\n\n    using SafeMath for uint256;\n\n    event LuckyInfo(address[] luckyWinners, uint256 luckyRewards);\n\n    // 创建数组用于接收中奖地址\n    mapping(uint256 => address[]) luckyWinners;\n\n    // 人均奖金\n    mapping(uint256 => uint256) public luckyRewards;\n\n    // step => 获奖地址 => 奖金\n    mapping(uint256 => mapping(address => uint256)) public luckyRewardAmount;\n\n    mapping(address => uint256) public luckyFunderTotalBalance;\n\n    // 幸运奖励分配结束\n    mapping(uint256 => bool) currentStepHasFinished;\n\n    // 轮次=>奖励金\n    mapping(uint256 => uint256) totalLyckyReward;\n\n    constructor() public {\n\n    }\n\n    // 获取某轮次幸运者列表和平均获奖金额\n    function getLuckyInfo(uint256 _stepIndex)\n        public\n        view\n        returns(uint256, address[] memory, uint256)\n    {\n        return(totalLyckyReward[_stepIndex], luckyWinners[_stepIndex], luckyRewards[_stepIndex]);\n    }\n\n    /// @notice 处理信用奖励信息\n    function dealLuckyInfo(\n        uint256 _stepIndex,\n        address[] memory _luckyWinners,\n        uint256 _totalLyckyReward\n    ) public {\n        require(!currentStepHasFinished[_stepIndex], \"当前轮次的幸运奖励已经计算完成\");\n        _dealLuckyInfo(_stepIndex, _luckyWinners, _totalLyckyReward);\n    }\n\n    // 处理幸运者数据\n    function _dealLuckyInfo(\n        uint256 _stepIndex,\n        address[] memory _luckyWinners,\n        uint256 _totalLyckyReward\n    )\n        internal\n    {\n\n        luckyWinners[_stepIndex] = new address[](_luckyWinners.length);\n\n        luckyWinners[_stepIndex] = _luckyWinners;\n\n        if(_luckyWinners.length > 0){\n            // 计算人均奖金\n            luckyRewards[_stepIndex] = _totalLyckyReward.div(luckyWinners[_stepIndex].length);\n\n            for(uint i = 0; i < luckyWinners[_stepIndex].length; i++){\n                luckyRewardAmount[_stepIndex][luckyWinners[_stepIndex][i]] = luckyRewards[_stepIndex];\n\n                // 幸运奖励奖金\n                luckyFunderTotalBalance[luckyWinners[_stepIndex][i]] = luckyRewards[_stepIndex];\n            }\n            totalLyckyReward[_stepIndex] = luckyRewards[_stepIndex].mul(luckyWinners[_stepIndex].length);\n            currentStepHasFinished[_stepIndex] = true;\n        }else{ // 如果没有人中奖，设置一下状态就行了，不用再循环结算了\n            currentStepHasFinished[_stepIndex] = true;\n            totalLyckyReward[_stepIndex] = 0;\n            return;\n        }\n    }\n\n    // 获取address的最后一位\n    function getLastFromAddress(address _addr) public pure returns(string memory) {\n        string memory addressStr = StringUtils.addr2string(_addr);\n        return StringUtils.substring(addressStr,41,42);\n    }\n\n    // 获取区块Hash的最后一位\n    function getLastFromBlockHash(bytes32 _blockHash) public pure returns(string memory){\n        return StringUtils.substring(StringUtils.bytes32Tostring(_blockHash),_blockHash.length-1,_blockHash.length);\n    }\n}",
  "sourcePath": "/Users/a186r/dev/contracts/contract/contract/contracts/LuckyReward.sol",
  "compiler": {
    "name": "solc",
    "version": "0.5.2+commit.1df8f40c.Emscripten.clang"
  },
  "schemaVersion": "3.0.9",
  "updatedAt": "2019-06-02T12:25:02.463Z",
  "devdoc": {
    "methods": {}
  },
  "userdoc": {
    "methods": {
      "dealLuckyInfo(uint256,address[],uint256)": {
        "notice": "处理信用奖励信息"
      }
    }
  }
}