{
  "contractName": "LuckyReward",
  "abi": [
    {
      "constant": true,
      "inputs": [
        {
          "name": "",
          "type": "uint256"
        }
      ],
      "name": "luckyRewards",
      "outputs": [
        {
          "name": "",
          "type": "uint256"
        }
      ],
      "payable": false,
      "stateMutability": "view",
      "type": "function"
    },
    {
      "constant": false,
      "inputs": [],
      "name": "renounceOwnership",
      "outputs": [],
      "payable": false,
      "stateMutability": "nonpayable",
      "type": "function"
    },
    {
      "constant": false,
      "inputs": [
        {
          "name": "_authority",
          "type": "address"
        }
      ],
      "name": "setAuthority",
      "outputs": [],
      "payable": false,
      "stateMutability": "nonpayable",
      "type": "function"
    },
    {
      "constant": true,
      "inputs": [],
      "name": "owner",
      "outputs": [
        {
          "name": "",
          "type": "address"
        }
      ],
      "payable": false,
      "stateMutability": "view",
      "type": "function"
    },
    {
      "constant": true,
      "inputs": [],
      "name": "isOwner",
      "outputs": [
        {
          "name": "",
          "type": "bool"
        }
      ],
      "payable": false,
      "stateMutability": "view",
      "type": "function"
    },
    {
      "constant": true,
      "inputs": [
        {
          "name": "",
          "type": "address"
        }
      ],
      "name": "luckyFunderTotalBalance",
      "outputs": [
        {
          "name": "",
          "type": "uint256"
        }
      ],
      "payable": false,
      "stateMutability": "view",
      "type": "function"
    },
    {
      "constant": true,
      "inputs": [
        {
          "name": "",
          "type": "uint256"
        },
        {
          "name": "",
          "type": "address"
        }
      ],
      "name": "luckyRewardAmount",
      "outputs": [
        {
          "name": "",
          "type": "uint256"
        }
      ],
      "payable": false,
      "stateMutability": "view",
      "type": "function"
    },
    {
      "constant": false,
      "inputs": [
        {
          "name": "newOwner",
          "type": "address"
        }
      ],
      "name": "transferOwnership",
      "outputs": [],
      "payable": false,
      "stateMutability": "nonpayable",
      "type": "function"
    },
    {
      "inputs": [],
      "payable": false,
      "stateMutability": "nonpayable",
      "type": "constructor"
    },
    {
      "anonymous": false,
      "inputs": [
        {
          "indexed": false,
          "name": "luckyWinners",
          "type": "address[]"
        },
        {
          "indexed": false,
          "name": "luckyRewards",
          "type": "uint256"
        }
      ],
      "name": "LuckyInfo",
      "type": "event"
    },
    {
      "anonymous": false,
      "inputs": [
        {
          "indexed": true,
          "name": "previousOwner",
          "type": "address"
        },
        {
          "indexed": true,
          "name": "newOwner",
          "type": "address"
        }
      ],
      "name": "OwnershipTransferred",
      "type": "event"
    },
    {
      "constant": true,
      "inputs": [
        {
          "name": "_stepIndex",
          "type": "uint256"
        }
      ],
      "name": "getLuckyInfo",
      "outputs": [
        {
          "name": "",
          "type": "uint256"
        },
        {
          "name": "",
          "type": "address[]"
        },
        {
          "name": "",
          "type": "uint256"
        }
      ],
      "payable": false,
      "stateMutability": "view",
      "type": "function"
    },
    {
      "constant": false,
      "inputs": [
        {
          "name": "_stepIndex",
          "type": "uint256"
        },
        {
          "name": "_luckyWinners",
          "type": "address[]"
        },
        {
          "name": "_totalLyckyReward",
          "type": "uint256"
        }
      ],
      "name": "dealLuckyInfo",
      "outputs": [],
      "payable": false,
      "stateMutability": "nonpayable",
      "type": "function"
    },
    {
      "constant": true,
      "inputs": [
        {
          "name": "_addr",
          "type": "address"
        }
      ],
      "name": "getLastFromAddress",
      "outputs": [
        {
          "name": "",
          "type": "string"
        }
      ],
      "payable": false,
      "stateMutability": "pure",
      "type": "function"
    },
    {
      "constant": true,
      "inputs": [
        {
          "name": "_blockHash",
          "type": "bytes32"
        }
      ],
      "name": "getLastFromBlockHash",
      "outputs": [
        {
          "name": "",
          "type": "string"
        }
      ],
      "payable": false,
      "stateMutability": "pure",
      "type": "function"
    }
  ],
  "bytecode": "0x608060405234801561001057600080fd5b5060008054600160a060020a0319163317808255604051600160a060020a039190911691907f8be0079c531659141344cd1fd0a4f28419497f9722a3daafe3b4186f6b6457e0908290a3610dcb806100696000396000f3006080604052600436106100a05763ffffffff60e060020a6000350416634932744181146100a55780635fb25f1d1461011f5780636c347437146101b5578063715018a6146101df5780637a9e5e4b146101f65780638da5cb5b146102175780638f32d59b14610248578063ac197f9214610271578063c28a1af3146102cd578063dd572ab9146102ee578063f2fde38b14610312578063f647c19614610333575b600080fd5b3480156100b157600080fd5b506100bd60043561034b565b6040518084815260200180602001838152602001828103825284818151815260200191508051906020019060200280838360005b838110156101095781810151838201526020016100f1565b5050505090500194505050505060405180910390f35b34801561012b57600080fd5b50610140600160a060020a03600435166103d2565b6040805160208082528351818301528351919283929083019185019080838360005b8381101561017a578181015183820152602001610162565b50505050905090810190601f1680156101a75780820380516001836020036101000a031916815260200191505b509250505060405180910390f35b3480156101c157600080fd5b506101cd60043561061a565b60408051918252519081900360200190f35b3480156101eb57600080fd5b506101f461062c565b005b34801561020257600080fd5b506101f4600160a060020a0360043516610696565b34801561022357600080fd5b5061022c6106d0565b60408051600160a060020a039092168252519081900360200190f35b34801561025457600080fd5b5061025d6106e0565b604080519115158252519081900360200190f35b34801561027d57600080fd5b506040805160206004602480358281013584810280870186019097528086526101f49684359636966044959194909101929182918501908490808284375094975050933594506106f19350505050565b3480156102d957600080fd5b506101cd600160a060020a03600435166107a5565b3480156102fa57600080fd5b506101cd600435600160a060020a03602435166107b7565b34801561031e57600080fd5b506101f4600160a060020a03600435166107d4565b34801561033f57600080fd5b506101406004356107f3565b600081815260076020908152604080832054600283528184206003845282852054815484518187028101870190955280855260609587959184918301828280156103be57602002820191906000526020600020905b8154600160a060020a031681526001909101906020018083116103a0575b505050505091509250925092509193909250565b60608073__StringUtils___________________________63bcffbe68846040518263ffffffff1660e060020a0281526004018082600160a060020a0316600160a060020a0316815260200191505060006040518083038186803b15801561043957600080fd5b505af415801561044d573d6000803e3d6000fd5b505050506040513d6000823e601f3d908101601f19168201604052602081101561047657600080fd5b81019080805164010000000081111561048e57600080fd5b820160208101848111156104a157600080fd5b81516401000000008111828201871017156104bb57600080fd5b5050929190505050905073__StringUtils___________________________631dcd9b55826029602a6040518463ffffffff1660e060020a0281526004018080602001848152602001838152602001828103825285818151815260200191508051906020019080838360005b8381101561053f578181015183820152602001610527565b50505050905090810190601f16801561056c5780820380516001836020036101000a031916815260200191505b5094505050505060006040518083038186803b15801561058b57600080fd5b505af415801561059f573d6000803e3d6000fd5b505050506040513d6000823e601f3d908101601f1916820160405260208110156105c857600080fd5b8101908080516401000000008111156105e057600080fd5b820160208101848111156105f357600080fd5b815164010000000081118282018710171561060d57600080fd5b5090979650505050505050565b60036020526000908152604090205481565b6106346106e0565b151561063f57600080fd5b60008054604051600160a060020a03909116907f8be0079c531659141344cd1fd0a4f28419497f9722a3daafe3b4186f6b6457e0908390a36000805473ffffffffffffffffffffffffffffffffffffffff19169055565b61069e6106e0565b15156106a957600080fd5b600160a060020a03166000908152600160208190526040909120805460ff19169091179055565b600054600160a060020a03165b90565b600054600160a060020a0316331490565b60008381526006602052604090205460ff161561079557604080517f08c379a000000000000000000000000000000000000000000000000000000000815260206004820152602d60248201527fe5bd93e5898de8bdaee6aca1e79a84e5b9b8e8bf90e5a596e58ab1e5b7b2e7bb60448201527f8fe8aea1e7ae97e5ae8ce6889000000000000000000000000000000000000000606482015290519081900360840190fd5b6107a0838383610a2e565b505050565b60056020526000908152604090205481565b600460209081526000928352604080842090915290825290205481565b6107dc6106e0565b15156107e757600080fd5b6107f081610c22565b50565b606073__StringUtils___________________________631dcd9b5573__StringUtils___________________________635da65da5856040518263ffffffff1660e060020a02815260040180826000191660001916815260200191505060006040518083038186803b15801561086957600080fd5b505af415801561087d573d6000803e3d6000fd5b505050506040513d6000823e601f3d908101601f1916820160405260208110156108a657600080fd5b8101908080516401000000008111156108be57600080fd5b820160208101848111156108d157600080fd5b81516401000000008111828201871017156108eb57600080fd5b505060405160e060020a63ffffffff8716028152601f602482018190526020604483018190526060600484019081528451606485015284519497509195509350918291608401908487019080838360005b8381101561095457818101518382015260200161093c565b50505050905090810190601f1680156109815780820380516001836020036101000a031916815260200191505b5094505050505060006040518083038186803b1580156109a057600080fd5b505af41580156109b4573d6000803e3d6000fd5b505050506040513d6000823e601f3d908101601f1916820160405260208110156109dd57600080fd5b8101908080516401000000008111156109f557600080fd5b82016020810184811115610a0857600080fd5b8151640100000000811182820187101715610a2257600080fd5b50909695505050505050565b60008251604051908082528060200260200182016040528015610a5b578160200160208202803883390190505b5060008581526002602090815260409091208251610a7f9391929190910190610cfc565b5060008481526002602090815260409091208451610a9f92860190610cfc565b50600083511115610bf757600084815260026020526040902054610aca90839063ffffffff610c9f16565b60008581526003602052604081209190915590505b600084815260026020526040902054811015610ba357600084815260036020908152604080832054600483528184206002909352908320805491939185908110610b2557fe5b6000918252602080832090910154600160a060020a031683528281019390935260409182018120939093558683526003825280832054600290925282208054919260059290919085908110610b7657fe5b6000918252602080832090910154600160a060020a03168352820192909252604001902055600101610adf565b600084815260026020908152604080832054600390925290912054610bcd9163ffffffff610cc716565b6000858152600760209081526040808320939093556006905220805460ff19166001179055610c1c565b6000848152600660209081526040808320805460ff1916600117905560079091528120555b50505050565b600160a060020a0381161515610c3757600080fd5b60008054604051600160a060020a03808516939216917f8be0079c531659141344cd1fd0a4f28419497f9722a3daafe3b4186f6b6457e091a36000805473ffffffffffffffffffffffffffffffffffffffff1916600160a060020a0392909216919091179055565b600080808311610cae57600080fd5b8284811515610cb957fe5b0490508091505b5092915050565b600080831515610cda5760009150610cc0565b50828202828482811515610cea57fe5b0414610cf557600080fd5b9392505050565b828054828255906000526020600020908101928215610d5e579160200282015b82811115610d5e578251825473ffffffffffffffffffffffffffffffffffffffff1916600160a060020a03909116178255602090920191600190910190610d1c565b50610d6a929150610d6e565b5090565b6106dd91905b80821115610d6a57805473ffffffffffffffffffffffffffffffffffffffff19168155600101610d745600a165627a7a72305820c78c9d5ed9d21a050a73987fae47387c1c7f247db5b96b38962b797cd2a6895e0029",
  "source": "pragma solidity >=0.4.21 <0.6.0;\n\nimport \"../node_modules/openzeppelin-solidity/contracts/math/SafeMath.sol\";\nimport \"./StringUtils.sol\";\nimport \"./Authority.sol\";\n\n// 2.10%用于幸运奖励\n// 每一轮结束后下一个ETH区块高度Hash最后一位作为幸运值\n// 用户钱包地址的最后一位与幸运值相同，则瓜分10%奖励。\n// 募资期结束的时间就是当前轮次结束的时间，到达结束时间之后不再允许转入ETH，并在此时获取到最新的区块高度\n// 然后查询下一区块高度的Hash（此时需要保证已经出块）\n// 匹配幸运者\n// 这个合约给到外面的只有一个获奖者列表\n\ncontract LuckyReward is Authority{\n\n    using SafeMath for uint256;\n\n    event LuckyInfo(address[] luckyWinners, uint256 luckyRewards);\n\n    // 创建数组用于接收中奖地址\n    mapping(uint256 => address[]) luckyWinners;\n\n    // 人均奖金\n    mapping(uint256 => uint256) public luckyRewards;\n\n    // step => 获奖地址 => 奖金\n    mapping(uint256 => mapping(address => uint256)) public luckyRewardAmount;\n\n    mapping(address => uint256) public luckyFunderTotalBalance;\n\n    // 幸运奖励分配结束\n    mapping(uint256 => bool) currentStepHasFinished;\n\n    // 轮次=>奖励金\n    mapping(uint256 => uint256) totalLyckyReward;\n\n    constructor() public {\n\n    }\n\n    // 获取某轮次幸运者列表和平均获奖金额\n    function getLuckyInfo(uint256 _stepIndex)\n        public\n        view\n        returns(uint256, address[] memory, uint256)\n    {\n        return(totalLyckyReward[_stepIndex], luckyWinners[_stepIndex], luckyRewards[_stepIndex]);\n    }\n\n    /// @notice 处理信用奖励信息\n    function dealLuckyInfo(\n        uint256 _stepIndex,\n        address[] memory _luckyWinners,\n        uint256 _totalLyckyReward\n    )\n        public\n        // onlyAuthority()\n    {\n        require(!currentStepHasFinished[_stepIndex], \"当前轮次的幸运奖励已经计算完成\");\n        _dealLuckyInfo(_stepIndex, _luckyWinners, _totalLyckyReward);\n    }\n\n    // 处理幸运者数据\n    function _dealLuckyInfo(\n        uint256 _stepIndex,\n        address[] memory _luckyWinners,\n        uint256 _totalLyckyReward\n    )\n        internal\n    {\n\n        luckyWinners[_stepIndex] = new address[](_luckyWinners.length);\n\n        luckyWinners[_stepIndex] = _luckyWinners;\n\n        if(_luckyWinners.length > 0){\n            // 计算人均奖金\n            luckyRewards[_stepIndex] = _totalLyckyReward.div(luckyWinners[_stepIndex].length);\n\n            for(uint i = 0; i < luckyWinners[_stepIndex].length; i++){\n                luckyRewardAmount[_stepIndex][luckyWinners[_stepIndex][i]] = luckyRewards[_stepIndex];\n\n                // 幸运奖励奖金\n                luckyFunderTotalBalance[luckyWinners[_stepIndex][i]] = luckyRewards[_stepIndex];\n            }\n            totalLyckyReward[_stepIndex] = luckyRewards[_stepIndex].mul(luckyWinners[_stepIndex].length);\n            currentStepHasFinished[_stepIndex] = true;\n        }else{ // 如果没有人中奖，设置一下状态就行了，不用再循环结算了\n            currentStepHasFinished[_stepIndex] = true;\n            totalLyckyReward[_stepIndex] = 0;\n            return;\n        }\n    }\n\n    // 获取address的最后一位\n    function getLastFromAddress(address _addr) public pure returns(string memory) {\n        string memory addressStr = StringUtils.addr2string(_addr);\n        return StringUtils.substring(addressStr,41,42);\n    }\n\n    // 获取区块Hash的最后一位\n    function getLastFromBlockHash(bytes32 _blockHash) public pure returns(string memory){\n        return StringUtils.substring(StringUtils.bytes32Tostring(_blockHash),_blockHash.length-1,_blockHash.length);\n    }\n}",
  "sourcePath": "/root/contract/contract/contracts/LuckyReward.sol",
  "compiler": {
    "name": "solc",
    "version": "0.4.24+commit.e67f0147.Emscripten.clang"
  },
  "schemaVersion": "3.0.10",
  "updatedAt": "2019-06-03T22:57:44.020Z",
  "devdoc": {
    "methods": {
      "isOwner()": {
        "return": "true if `msg.sender` is the owner of the contract."
      },
      "owner()": {
        "return": "the address of the owner."
      },
      "renounceOwnership()": {
        "details": "Allows the current owner to relinquish control of the contract. It will not be possible to call the functions with the `onlyOwner` modifier anymore."
      },
      "transferOwnership(address)": {
        "details": "Allows the current owner to transfer control of the contract to a newOwner.",
        "params": {
          "newOwner": "The address to transfer ownership to."
        }
      }
    }
  },
  "userdoc": {
    "methods": {
      "dealLuckyInfo(uint256,address[],uint256)": {
        "notice": "处理信用奖励信息"
      },
      "renounceOwnership()": {
        "notice": "Renouncing ownership will leave the contract without an owner, thereby removing any functionality that is only available to the owner."
      }
    }
  }
}