{
  "contractName": "LuckyReward",
  "abi": [
    {
      "constant": true,
      "inputs": [
        {
          "name": "",
          "type": "address"
        }
      ],
      "name": "luckyFunderTotalBalance",
      "outputs": [
        {
          "name": "",
          "type": "uint256"
        }
      ],
      "payable": false,
      "stateMutability": "view",
      "type": "function"
    },
    {
      "constant": true,
      "inputs": [
        {
          "name": "",
          "type": "uint256"
        },
        {
          "name": "",
          "type": "address"
        }
      ],
      "name": "luckyRewardAmount",
      "outputs": [
        {
          "name": "",
          "type": "uint256"
        }
      ],
      "payable": false,
      "stateMutability": "view",
      "type": "function"
    },
    {
      "inputs": [],
      "payable": false,
      "stateMutability": "nonpayable",
      "type": "constructor"
    },
    {
      "anonymous": false,
      "inputs": [
        {
          "indexed": false,
          "name": "luckyWinners",
          "type": "address[]"
        },
        {
          "indexed": false,
          "name": "luckyRewards",
          "type": "uint256"
        }
      ],
      "name": "LuckyInfo",
      "type": "event"
    },
    {
      "constant": true,
      "inputs": [
        {
          "name": "_stepIndex",
          "type": "uint256"
        }
      ],
      "name": "getLuckyInfo",
      "outputs": [
        {
          "name": "",
          "type": "uint256"
        },
        {
          "name": "",
          "type": "address[]"
        },
        {
          "name": "",
          "type": "uint256"
        }
      ],
      "payable": false,
      "stateMutability": "view",
      "type": "function"
    },
    {
      "constant": false,
      "inputs": [
        {
          "name": "_stepIndex",
          "type": "uint256"
        },
        {
          "name": "_luckyWinners",
          "type": "address[]"
        },
        {
          "name": "_totalLyckyReward",
          "type": "uint256"
        }
      ],
      "name": "dealLuckyInfo",
      "outputs": [],
      "payable": false,
      "stateMutability": "nonpayable",
      "type": "function"
    },
    {
      "constant": true,
      "inputs": [
        {
          "name": "_addr",
          "type": "address"
        }
      ],
      "name": "getLastFromAddress",
      "outputs": [
        {
          "name": "",
          "type": "string"
        }
      ],
      "payable": false,
      "stateMutability": "pure",
      "type": "function"
    },
    {
      "constant": true,
      "inputs": [
        {
          "name": "_blockHash",
          "type": "bytes32"
        }
      ],
      "name": "getLastFromBlockHash",
      "outputs": [
        {
          "name": "",
          "type": "string"
        }
      ],
      "payable": false,
      "stateMutability": "pure",
      "type": "function"
    }
  ],
  "bytecode": "0x608060405234801561001057600080fd5b50610b35806100206000396000f3fe608060405234801561001057600080fd5b50600436106100655760e060020a600035046349327441811461006a5780635fb25f1d146100e9578063ac197f9214610184578063c28a1af314610232578063dd572ab91461026a578063f647c19614610296575b600080fd5b6100876004803603602081101561008057600080fd5b50356102b3565b6040518084815260200180602001838152602001828103825284818151815260200191508051906020019060200280838360005b838110156100d35781810151838201526020016100bb565b5050505090500194505050505060405180910390f35b61010f600480360360208110156100ff57600080fd5b5035600160a060020a0316610339565b6040805160208082528351818301528351919283929083019185019080838360005b83811015610149578181015183820152602001610131565b50505050905090810190601f1680156101765780820380516001836020036101000a031916815260200191505b509250505060405180910390f35b6102306004803603606081101561019a57600080fd5b813591908101906040810160208201356401000000008111156101bc57600080fd5b8201836020820111156101ce57600080fd5b803590602001918460208302840111640100000000831117156101f057600080fd5b9190808060200260200160405190810160405280939291908181526020018383602002808284376000920191909152509295505091359250610581915050565b005b6102586004803603602081101561024857600080fd5b5035600160a060020a03166105f9565b60408051918252519081900360200190f35b6102586004803603604081101561028057600080fd5b5080359060200135600160a060020a031661060b565b61010f600480360360208110156102ac57600080fd5b5035610628565b60008181526005602090815260408083205483835281842060018452828520548154845181870281018701909552808552606095879591849183018282801561032557602002820191906000526020600020905b8154600160a060020a03168152600190910190602001808311610307575b505050505091509250925092509193909250565b60608073__StringUtils___________________________63bcffbe68846040518263ffffffff1660e060020a0281526004018082600160a060020a0316600160a060020a0316815260200191505060006040518083038186803b1580156103a057600080fd5b505af41580156103b4573d6000803e3d6000fd5b505050506040513d6000823e601f3d908101601f1916820160405260208110156103dd57600080fd5b8101908080516401000000008111156103f557600080fd5b8201602081018481111561040857600080fd5b815164010000000081118282018710171561042257600080fd5b5050929190505050905073__StringUtils___________________________631dcd9b55826029602a6040518463ffffffff1660e060020a0281526004018080602001848152602001838152602001828103825285818151815260200191508051906020019080838360005b838110156104a657818101518382015260200161048e565b50505050905090810190601f1680156104d35780820380516001836020036101000a031916815260200191505b5094505050505060006040518083038186803b1580156104f257600080fd5b505af4158015610506573d6000803e3d6000fd5b505050506040513d6000823e601f3d908101601f19168201604052602081101561052f57600080fd5b81019080805164010000000081111561054757600080fd5b8201602081018481111561055a57600080fd5b815164010000000081118282018710171561057457600080fd5b5090979650505050505050565b60008381526004602052604090205460ff16156105e9576040517f08c379a000000000000000000000000000000000000000000000000000000000815260040180806020018281038252602d815260200180610add602d913960400191505060405180910390fd5b6105f483838361085b565b505050565b60036020526000908152604090205481565b600260209081526000928352604080842090915290825290205481565b606073__StringUtils___________________________631dcd9b5573__StringUtils___________________________635da65da5856040518263ffffffff1660e060020a0281526004018082815260200191505060006040518083038186803b15801561069657600080fd5b505af41580156106aa573d6000803e3d6000fd5b505050506040513d6000823e601f3d908101601f1916820160405260208110156106d357600080fd5b8101908080516401000000008111156106eb57600080fd5b820160208101848111156106fe57600080fd5b815164010000000081118282018710171561071857600080fd5b505060405160e060020a63ffffffff8716028152601f602482018190526020604483018190526060600484019081528451606485015284519497509195509350918291608401908487019080838360005b83811015610781578181015183820152602001610769565b50505050905090810190601f1680156107ae5780820380516001836020036101000a031916815260200191505b5094505050505060006040518083038186803b1580156107cd57600080fd5b505af41580156107e1573d6000803e3d6000fd5b505050506040513d6000823e601f3d908101601f19168201604052602081101561080a57600080fd5b81019080805164010000000081111561082257600080fd5b8201602081018481111561083557600080fd5b815164010000000081118282018710171561084f57600080fd5b50909695505050505050565b600083815260208181526040909120835161087892850190610a36565b506000825111156109e7576000838152602081905260409020546108a390829063ffffffff610a1216565b6000848152600160205260408120919091555b6000848152602081905260409020548110156109bb5760008481526001602090815260408083205460028352818420928490529083208054919391859081106108fb57fe5b6000918252602080832090910154600160a060020a031683528281019390935260409182018120939093558683526002825280832091839052822080549192918490811061094557fe5b6000918252602080832090910154600160a060020a0316835282810193909352604091820181205487825292819052908120805460039291908590811061098857fe5b6000918252602080832090910154600160a060020a031683528201929092526040019020805490910190556001016108b6565b506000838152600460209081526040808320805460ff19166001179055600590915290208190556105f4565b6000838152600460209081526040808320805460ff19166001179055600590915290208190556105f4565b6000808211610a2057600080fd5b60008284811515610a2d57fe5b04949350505050565b828054828255906000526020600020908101928215610a98579160200282015b82811115610a98578251825473ffffffffffffffffffffffffffffffffffffffff1916600160a060020a03909116178255602090920191600190910190610a56565b50610aa4929150610aa8565b5090565b610ad991905b80821115610aa457805473ffffffffffffffffffffffffffffffffffffffff19168155600101610aae565b9056fee5bd93e5898de8bdaee6aca1e79a84e5b9b8e8bf90e5a596e58ab1e5b7b2e7bb8fe8aea1e7ae97e5ae8ce68890a165627a7a723058209fdc9c37704b5f79aeaec53c124e2820e7c202d75e7b402ca92a872240d1a5620029",
  "source": "pragma solidity >=0.4.21 <0.6.0;\n\nimport \"../node_modules/openzeppelin-solidity/contracts/math/SafeMath.sol\";\nimport \"./StringUtils.sol\";\n\n// 2.10%用于幸运奖励\n// 每一轮结束后下一个ETH区块高度Hash最后一位作为幸运值\n// 用户钱包地址的最后一位与幸运值相同，则瓜分10%奖励。\n// 募资期结束的时间就是当前轮次结束的时间，到达结束时间之后不再允许转入ETH，并在此时获取到最新的区块高度\n// 然后查询下一区块高度的Hash（此时需要保证已经出块）\n// 匹配幸运者\n// 这个合约给到外面的只有一个获奖者列表\n\ncontract LuckyReward{\n\n    using SafeMath for uint256;\n\n    event LuckyInfo(address[] luckyWinners, uint256 luckyRewards);\n\n    // 创建数组用于接收中奖地址\n    mapping(uint256 => address[]) luckyWinners;\n\n    // 人均奖金\n    mapping(uint256 => uint256) luckyRewards;\n\n    // step => 获奖地址 => 奖金\n    mapping(uint256 => mapping(address => uint256)) public luckyRewardAmount;\n\n    mapping(address => uint256) public luckyFunderTotalBalance;\n\n    // 幸运奖励分配结束\n    mapping(uint256 => bool) currentStepHasFinished;\n\n    mapping(uint256 => uint256) totalLyckyReward;\n\n    constructor() public {\n\n    }\n\n    // 获取某轮次幸运者列表和平均获奖金额\n    function getLuckyInfo(uint256 _stepIndex)\n        public\n        view\n        returns(uint256, address[] memory, uint256)\n    {\n        // emit LuckyInfo(luckyWinners[_stepIndex], luckyRewards[_stepIndex]);\n        return(totalLyckyReward[_stepIndex], luckyWinners[_stepIndex], luckyRewards[_stepIndex]);\n    }\n\n    /// @notice 处理信用奖励信息\n    function dealLuckyInfo(\n        uint256 _stepIndex,\n        address[] memory _luckyWinners,\n        uint256 _totalLyckyReward\n    ) public {\n        require(!currentStepHasFinished[_stepIndex], \"当前轮次的幸运奖励已经计算完成\");\n        _dealLuckyInfo(_stepIndex, _luckyWinners, _totalLyckyReward);\n    }\n\n    // 处理幸运者数据\n    function _dealLuckyInfo(\n        uint256 _stepIndex,\n        address[] memory _luckyWinners,\n        uint256 _totalLyckyReward\n    )\n        internal\n    {\n        luckyWinners[_stepIndex] = _luckyWinners;\n\n        if(_luckyWinners.length > 0){\n            // 计算人均奖金\n            luckyRewards[_stepIndex] = _totalLyckyReward.div(luckyWinners[_stepIndex].length);\n\n            for(uint i = 0; i < luckyWinners[_stepIndex].length; i++){\n                luckyRewardAmount[_stepIndex][luckyWinners[_stepIndex][i]] = luckyRewards[_stepIndex];\n\n                // 累加奖金余额\n                luckyFunderTotalBalance[luckyWinners[_stepIndex][i]] += luckyRewardAmount[_stepIndex][luckyWinners[_stepIndex][i]];\n            }\n\n            currentStepHasFinished[_stepIndex] = true;\n            totalLyckyReward[_stepIndex] = _totalLyckyReward;\n        }else{ // 如果没有人中奖，设置一下状态就行了嗷，不用再循环结算了\n            currentStepHasFinished[_stepIndex] = true;\n            totalLyckyReward[_stepIndex] = _totalLyckyReward;\n            return;\n        }\n    }\n\n    // 获取address的最后一位\n    function getLastFromAddress(address _addr) public pure returns(string memory) {\n        string memory addressStr = StringUtils.addr2string(_addr);\n        return StringUtils.substring(addressStr,41,42);\n    }\n\n    // 获取区块Hash的最后一位\n    function getLastFromBlockHash(bytes32 _blockHash) public pure returns(string memory){\n        return StringUtils.substring(StringUtils.bytes32Tostring(_blockHash),_blockHash.length-1,_blockHash.length);\n    }\n}",
  "sourcePath": "/Users/a186r/dev/sourcecode/contract/contract/contracts/LuckyReward.sol",
  "compiler": {
    "name": "solc",
    "version": "0.5.2+commit.1df8f40c.Emscripten.clang"
  },
  "schemaVersion": "3.0.6",
  "updatedAt": "2019-05-30T10:30:39.757Z",
  "devdoc": {
    "methods": {}
  },
  "userdoc": {
    "methods": {
      "dealLuckyInfo(uint256,address[],uint256)": {
        "notice": "处理信用奖励信息"
      }
    }
  }
}