{
  "contractName": "LuckyReward",
  "abi": [
    {
      "constant": true,
      "inputs": [
        {
          "name": "",
          "type": "uint256"
        },
        {
          "name": "",
          "type": "address"
        }
      ],
      "name": "luckyRewardAmount",
      "outputs": [
        {
          "name": "",
          "type": "uint256"
        }
      ],
      "payable": false,
      "stateMutability": "view",
      "type": "function"
    },
    {
      "inputs": [],
      "payable": false,
      "stateMutability": "nonpayable",
      "type": "constructor"
    },
    {
      "anonymous": false,
      "inputs": [
        {
          "indexed": false,
          "name": "luckyAddress",
          "type": "address[]"
        },
        {
          "indexed": false,
          "name": "luckyRewards",
          "type": "uint256"
        }
      ],
      "name": "LuckyInfo",
      "type": "event"
    },
    {
      "constant": false,
      "inputs": [
        {
          "name": "_funders",
          "type": "address[]"
        },
        {
          "name": "_totalLyckyReward",
          "type": "uint256"
        },
        {
          "name": "_lockedBlockNum",
          "type": "uint256"
        }
      ],
      "name": "getLuckyInfo",
      "outputs": [],
      "payable": false,
      "stateMutability": "nonpayable",
      "type": "function"
    },
    {
      "constant": false,
      "inputs": [
        {
          "name": "_funders",
          "type": "address[]"
        },
        {
          "name": "_blockNum",
          "type": "uint256"
        }
      ],
      "name": "findLuckyMan",
      "outputs": [
        {
          "name": "",
          "type": "address[]"
        }
      ],
      "payable": false,
      "stateMutability": "nonpayable",
      "type": "function"
    },
    {
      "constant": true,
      "inputs": [
        {
          "name": "_addr",
          "type": "address"
        }
      ],
      "name": "getLastFromAddress",
      "outputs": [
        {
          "name": "",
          "type": "string"
        }
      ],
      "payable": false,
      "stateMutability": "pure",
      "type": "function"
    },
    {
      "constant": true,
      "inputs": [
        {
          "name": "_blockHash",
          "type": "bytes32"
        }
      ],
      "name": "getLastFromBlockHash",
      "outputs": [
        {
          "name": "",
          "type": "string"
        }
      ],
      "payable": false,
      "stateMutability": "pure",
      "type": "function"
    }
  ],
  "bytecode": "0x608060405234801561001057600080fd5b506110ae806100206000396000f3fe608060405234801561001057600080fd5b5060043610610074576000357c01000000000000000000000000000000000000000000000000000000009004806358eec2c5146100795780635fb25f1d14610145578063ce223b8014610202578063dd572ab914610319578063f647c1961461037b575b600080fd5b6101436004803603606081101561008f57600080fd5b81019080803590602001906401000000008111156100ac57600080fd5b8201836020820111156100be57600080fd5b803590602001918460208302840111640100000000831117156100e057600080fd5b919080806020026020016040519081016040528093929190818152602001838360200280828437600081840152601f19601f8201169050808301925050505050505091929192908035906020019092919080359060200190929190505050610422565b005b6101876004803603602081101561015b57600080fd5b81019080803573ffffffffffffffffffffffffffffffffffffffff1690602001909291905050506104e8565b6040518080602001828103825283818151815260200191508051906020019080838360005b838110156101c75780820151818401526020810190506101ac565b50505050905090810190601f1680156101f45780820380516001836020036101000a031916815260200191505b509250505060405180910390f35b6102c26004803603604081101561021857600080fd5b810190808035906020019064010000000081111561023557600080fd5b82018360208201111561024757600080fd5b8035906020019184602083028401116401000000008311171561026957600080fd5b919080806020026020016040519081016040528093929190818152602001838360200280828437600081840152601f19601f82011690508083019250505050505050919291929080359060200190929190505050610790565b6040518080602001828103825283818151815260200191508051906020019060200280838360005b838110156103055780820151818401526020810190506102ea565b505050509050019250505060405180910390f35b6103656004803603604081101561032f57600080fd5b8101908080359060200190929190803573ffffffffffffffffffffffffffffffffffffffff169060200190929190505050610ac8565b6040518082815260200191505060405180910390f35b6103a76004803603602081101561039157600080fd5b8101908080359060200190929190505050610aed565b6040518080602001828103825283818151815260200191508051906020019080838360005b838110156103e75780820151818401526020810190506103cc565b50505050905090810190601f1680156104145780820380516001836020036101000a031916815260200191505b509250505060405180910390f35b61042d838383610d6d565b7f0cd95afe8941bcad662d0d47269bccbcf1acb74d75824e33c283509e51f75fad6000600154604051808060200183815260200182810382528481815481526020019150805480156104d457602002820191906000526020600020905b8160009054906101000a900473ffffffffffffffffffffffffffffffffffffffff1673ffffffffffffffffffffffffffffffffffffffff168152602001906001019080831161048a575b5050935050505060405180910390a1505050565b60608073__StringUtils___________________________63bcffbe68846040518263ffffffff167c0100000000000000000000000000000000000000000000000000000000028152600401808273ffffffffffffffffffffffffffffffffffffffff1673ffffffffffffffffffffffffffffffffffffffff16815260200191505060006040518083038186803b15801561058257600080fd5b505af4158015610596573d6000803e3d6000fd5b505050506040513d6000823e3d601f19601f8201168201806040525060208110156105c057600080fd5b8101908080516401000000008111156105d857600080fd5b828101905060208101848111156105ee57600080fd5b815185600182028301116401000000008211171561060b57600080fd5b5050929190505050905073__StringUtils___________________________631dcd9b55826029602a6040518463ffffffff167c01000000000000000000000000000000000000000000000000000000000281526004018080602001848152602001838152602001828103825285818151815260200191508051906020019080838360005b838110156106ab578082015181840152602081019050610690565b50505050905090810190601f1680156106d85780820380516001836020036101000a031916815260200191505b5094505050505060006040518083038186803b1580156106f757600080fd5b505af415801561070b573d6000803e3d6000fd5b505050506040513d6000823e3d601f19601f82011682018060405250602081101561073557600080fd5b81019080805164010000000081111561074d57600080fd5b8281019050602081018481111561076357600080fd5b815185600182028301116401000000008211171561078057600080fd5b5050929190505050915050919050565b60606001820143101515156107f0576040517f08c379a00000000000000000000000000000000000000000000000000000000081526004018080602001828103825260218152602001806110626021913960400191505060405180910390fd5b60006001830140905060008090505b8451811015610a375773__StringUtils___________________________6375b83187610842878481518110151561083357fe5b906020019060200201516104e8565b61084b85610aed565b6040518363ffffffff167c0100000000000000000000000000000000000000000000000000000000028152600401808060200180602001838103835285818151815260200191508051906020019080838360005b838110156108ba57808201518184015260208101905061089f565b50505050905090810190601f1680156108e75780820380516001836020036101000a031916815260200191505b50838103825284818151815260200191508051906020019080838360005b83811015610920578082015181840152602081019050610905565b50505050905090810190601f16801561094d5780820380516001836020036101000a031916815260200191505b5094505050505060206040518083038186803b15801561096c57600080fd5b505af4158015610980573d6000803e3d6000fd5b505050506040513d602081101561099657600080fd5b810190808051906020019092919050505015610a2a57600085828151811015156109bc57fe5b9060200190602002015190806001815401808255809150509060018203906000526020600020016000909192909190916101000a81548173ffffffffffffffffffffffffffffffffffffffff021916908373ffffffffffffffffffffffffffffffffffffffff160217905550505b80806001019150506107ff565b506000805480602002602001604051908101604052809291908181526020018280548015610aba57602002820191906000526020600020905b8160009054906101000a900473ffffffffffffffffffffffffffffffffffffffff1673ffffffffffffffffffffffffffffffffffffffff1681526020019060010190808311610a70575b505050505091505092915050565b6002602052816000526040600020602052806000526040600020600091509150505481565b606073__StringUtils___________________________631dcd9b5573__StringUtils___________________________635da65da5856040518263ffffffff167c01000000000000000000000000000000000000000000000000000000000281526004018082815260200191505060006040518083038186803b158015610b7457600080fd5b505af4158015610b88573d6000803e3d6000fd5b505050506040513d6000823e3d601f19601f820116820180604052506020811015610bb257600080fd5b810190808051640100000000811115610bca57600080fd5b82810190506020810184811115610be057600080fd5b8151856001820283011164010000000082111715610bfd57600080fd5b5050929190505050600160200360206040518463ffffffff167c010000000000000000000000000000000000000000000000000000000002815260040180806020018460ff1681526020018360ff168152602001828103825285818151815260200191508051906020019080838360005b83811015610c89578082015181840152602081019050610c6e565b50505050905090810190601f168015610cb65780820380516001836020036101000a031916815260200191505b5094505050505060006040518083038186803b158015610cd557600080fd5b505af4158015610ce9573d6000803e3d6000fd5b505050506040513d6000823e3d601f19601f820116820180604052506020811015610d1357600080fd5b810190808051640100000000811115610d2b57600080fd5b82810190506020810184811115610d4157600080fd5b8151856001820283011164010000000082111715610d5e57600080fd5b50509291905050509050919050565b600181014310151515610dcb576040517f08c379a00000000000000000000000000000000000000000000000000000000081526004018080602001828103825260218152602001806110626021913960400191505060405180910390fd5b60006001820140905060008090505b84518110156110125773__StringUtils___________________________6375b83187610e1d8784815181101515610e0e57fe5b906020019060200201516104e8565b610e2685610aed565b6040518363ffffffff167c0100000000000000000000000000000000000000000000000000000000028152600401808060200180602001838103835285818151815260200191508051906020019080838360005b83811015610e95578082015181840152602081019050610e7a565b50505050905090810190601f168015610ec25780820380516001836020036101000a031916815260200191505b50838103825284818151815260200191508051906020019080838360005b83811015610efb578082015181840152602081019050610ee0565b50505050905090810190601f168015610f285780820380516001836020036101000a031916815260200191505b5094505050505060206040518083038186803b158015610f4757600080fd5b505af4158015610f5b573d6000803e3d6000fd5b505050506040513d6020811015610f7157600080fd5b8101908080519060200190929190505050156110055760008582815181101515610f9757fe5b9060200190602002015190806001815401808255809150509060018203906000526020600020016000909192909190916101000a81548173ffffffffffffffffffffffffffffffffffffffff021916908373ffffffffffffffffffffffffffffffffffffffff160217905550505b8080600101915050610dda565b5061102b6000805490508461103790919063ffffffff16565b60018190555050505050565b6000808211151561104757600080fd5b6000828481151561105457fe5b049050809150509291505056fee8afb7e7ad89e5be85e4b88be4b880e4b8aae58cbae59d97e5868de689a7e8a18ca165627a7a723058209f98c1bfbdc763d67f892c4e72392dfe38a1729a948999434bbf3b6c45c386890029",
  "source": "pragma solidity >=0.4.21 <0.6.0;\n\nimport \"../node_modules/openzeppelin-solidity/contracts/math/SafeMath.sol\";\nimport \"./StringUtils.sol\";\n\n// 2.10%用于幸运奖励\n// 每一轮结束后下一个ETH区块高度Hash最后一位作为幸运值\n// 用户钱包地址的最后一位与幸运值相同，则瓜分10%奖励。\n// 募资期结束的时间就是当前轮次结束的时间，到达结束时间之后不再允许转入ETH，并在此时获取到最新的区块高度\n// 然后查询下一区块高度的Hash（此时需要保证已经出块）\n// 匹配幸运者\n// 这个合约给到外面的只有一个获奖者列表\n\ncontract LuckyReward{\n\n    using SafeMath for uint256;\n\n    event LuckyInfo(address[] luckyAddress, uint256 luckyRewards);\n\n    // 创建数组用于接收中奖地址\n    address[] luckyAddress;\n    // 人均奖金\n    uint256 luckyReward;\n\n    mapping(uint256 => mapping(address => uint256)) public luckyRewardAmount;\n\n    constructor() public {\n\n    }\n\n    // 获取幸运者列表和平均获奖金额\n    function getLuckyInfo(\n        address[] memory _funders,\n        uint256 _totalLyckyReward,\n        uint256 _lockedBlockNum\n    )\n        public\n    {\n        _dealLuckyInfo(_funders, _totalLyckyReward, _lockedBlockNum);\n        emit LuckyInfo(luckyAddress, luckyReward);\n    }\n\n    // 处理幸运者数据\n    function _dealLuckyInfo(\n        address[] memory _funders,\n        uint256 _totalLyckyReward,\n        uint256 _lockedBlockNum\n    )\n        internal\n    {\n        require(block.number >= (_lockedBlockNum + 1), \"请等待下一个区块再执行\");\n\n        // 获取下一个区块的区块Hash\n        bytes32 nextBlockhash = blockhash(_lockedBlockNum + 1);\n\n        // 比较\n        for(uint i = 0; i < _funders.length; i++){\n            if(StringUtils.compareString(getLastFromAddress(_funders[i]), getLastFromBlockHash(nextBlockhash))) {\n                luckyAddress.push(_funders[i]);\n            }\n        }\n\n        // 计算人均奖金\n        luckyReward = _totalLyckyReward.div(luckyAddress.length);\n    }\n\n    // 用户应该来自于募资期转入ETH的用户\n    // TODO:如果funder数组很大的话，会消耗很多gas，导致执行失败，我之后测试一下\n    function findLuckyMan(\n        address[] memory _funders,\n        uint256 _blockNum\n    )\n        public\n        returns(address[] memory)\n    {\n        require(block.number >= (_blockNum+1), \"请等待下一个区块再执行\");\n\n        // 获取下一个区块的区块Hash\n        bytes32 nextBlockhash = blockhash(_blockNum+1);\n\n        // 比较\n        for(uint i = 0; i < _funders.length; i++){\n            if(StringUtils.compareString(getLastFromAddress(_funders[i]), getLastFromBlockHash(nextBlockhash))) {\n                luckyAddress.push(_funders[i]);\n            }\n        }\n\n        return luckyAddress;\n    }\n\n    // 获取address的最后一位\n    function getLastFromAddress(address _addr) public pure returns(string memory) {\n        string memory addressStr = StringUtils.addr2string(_addr);\n        return StringUtils.substring(addressStr,41,42);\n    }\n\n    // 获取区块Hash的最后一位\n    function getLastFromBlockHash(bytes32 _blockHash) public pure returns(string memory){\n        return StringUtils.substring(StringUtils.bytes32Tostring(_blockHash),_blockHash.length-1,_blockHash.length);\n    }\n}",
  "sourcePath": "/Users/a186r/dev/sourcecode/contracts/contract/contract/contracts/LuckyReward.sol",
  "compiler": {
    "name": "solc",
    "version": "0.5.2+commit.1df8f40c.Emscripten.clang"
  },
  "schemaVersion": "3.0.6",
  "updatedAt": "2019-05-18T11:01:06.374Z",
  "devdoc": {
    "methods": {}
  },
  "userdoc": {
    "methods": {}
  }
}