{
  "contractName": "LuckyReward",
  "abi": [
    {
      "constant": true,
      "inputs": [
        {
          "name": "",
          "type": "address"
        }
      ],
      "name": "luckyFunderTotalBalance",
      "outputs": [
        {
          "name": "",
          "type": "uint256"
        }
      ],
      "payable": false,
      "stateMutability": "view",
      "type": "function"
    },
    {
      "constant": true,
      "inputs": [
        {
          "name": "",
          "type": "uint256"
        },
        {
          "name": "",
          "type": "address"
        }
      ],
      "name": "luckyRewardAmount",
      "outputs": [
        {
          "name": "",
          "type": "uint256"
        }
      ],
      "payable": false,
      "stateMutability": "view",
      "type": "function"
    },
    {
      "inputs": [],
      "payable": false,
      "stateMutability": "nonpayable",
      "type": "constructor"
    },
    {
      "anonymous": false,
      "inputs": [
        {
          "indexed": false,
          "name": "luckyAddress",
          "type": "address[]"
        },
        {
          "indexed": false,
          "name": "luckyRewards",
          "type": "uint256"
        }
      ],
      "name": "LuckyInfo",
      "type": "event"
    },
    {
      "constant": false,
      "inputs": [
        {
          "name": "_stepIndex",
          "type": "uint256"
        }
      ],
      "name": "getLuckyInfo",
      "outputs": [],
      "payable": false,
      "stateMutability": "nonpayable",
      "type": "function"
    },
    {
      "constant": false,
      "inputs": [
        {
          "name": "_stepIndex",
          "type": "uint256"
        },
        {
          "name": "_funders",
          "type": "address[]"
        },
        {
          "name": "_totalLyckyReward",
          "type": "uint256"
        },
        {
          "name": "_lockedBlockNum",
          "type": "uint256"
        }
      ],
      "name": "dealLuckyInfo",
      "outputs": [],
      "payable": false,
      "stateMutability": "nonpayable",
      "type": "function"
    },
    {
      "constant": true,
      "inputs": [
        {
          "name": "_addr",
          "type": "address"
        }
      ],
      "name": "getLastFromAddress",
      "outputs": [
        {
          "name": "",
          "type": "string"
        }
      ],
      "payable": false,
      "stateMutability": "pure",
      "type": "function"
    },
    {
      "constant": true,
      "inputs": [
        {
          "name": "_blockHash",
          "type": "bytes32"
        }
      ],
      "name": "getLastFromBlockHash",
      "outputs": [
        {
          "name": "",
          "type": "string"
        }
      ],
      "payable": false,
      "stateMutability": "pure",
      "type": "function"
    }
  ],
  "bytecode": "0x608060405234801561001057600080fd5b50610f04806100206000396000f3fe608060405234801561001057600080fd5b506004361061007f576000357c01000000000000000000000000000000000000000000000000000000009004806349327441146100845780635fb25f1d146100b2578063bce4b54e1461016f578063c28a1af314610245578063dd572ab91461029d578063f647c196146102ff575b600080fd5b6100b06004803603602081101561009a57600080fd5b81019080803590602001909291905050506103a6565b005b6100f4600480360360208110156100c857600080fd5b81019080803573ffffffffffffffffffffffffffffffffffffffff169060200190929190505050610480565b6040518080602001828103825283818151815260200191508051906020019080838360005b83811015610134578082015181840152602081019050610119565b50505050905090810190601f1680156101615780820380516001836020036101000a031916815260200191505b509250505060405180910390f35b6102436004803603608081101561018557600080fd5b8101908080359060200190929190803590602001906401000000008111156101ac57600080fd5b8201836020820111156101be57600080fd5b803590602001918460208302840111640100000000831117156101e057600080fd5b919080806020026020016040519081016040528093929190818152602001838360200280828437600081840152601f19601f8201169050808301925050505050505091929192908035906020019092919080359060200190929190505050610728565b005b6102876004803603602081101561025b57600080fd5b81019080803573ffffffffffffffffffffffffffffffffffffffff1690602001909291905050506107b3565b6040518082815260200191505060405180910390f35b6102e9600480360360408110156102b357600080fd5b8101908080359060200190929190803573ffffffffffffffffffffffffffffffffffffffff1690602001909291905050506107cb565b6040518082815260200191505060405180910390f35b61032b6004803603602081101561031557600080fd5b81019080803590602001909291905050506107f0565b6040518080602001828103825283818151815260200191508051906020019080838360005b8381101561036b578082015181840152602081019050610350565b50505050905090810190601f1680156103985780820380516001836020036101000a031916815260200191505b509250505060405180910390f35b7f0cd95afe8941bcad662d0d47269bccbcf1acb74d75824e33c283509e51f75fad60008083815260200190815260200160002060016000848152602001908152602001600020546040518080602001838152602001828103825284818154815260200191508054801561046e57602002820191906000526020600020905b8160009054906101000a900473ffffffffffffffffffffffffffffffffffffffff1673ffffffffffffffffffffffffffffffffffffffff1681526020019060010190808311610424575b5050935050505060405180910390a150565b60608073__StringUtils___________________________63bcffbe68846040518263ffffffff167c0100000000000000000000000000000000000000000000000000000000028152600401808273ffffffffffffffffffffffffffffffffffffffff1673ffffffffffffffffffffffffffffffffffffffff16815260200191505060006040518083038186803b15801561051a57600080fd5b505af415801561052e573d6000803e3d6000fd5b505050506040513d6000823e3d601f19601f82011682018060405250602081101561055857600080fd5b81019080805164010000000081111561057057600080fd5b8281019050602081018481111561058657600080fd5b81518560018202830111640100000000821117156105a357600080fd5b5050929190505050905073__StringUtils___________________________631dcd9b55826029602a6040518463ffffffff167c01000000000000000000000000000000000000000000000000000000000281526004018080602001848152602001838152602001828103825285818151815260200191508051906020019080838360005b83811015610643578082015181840152602081019050610628565b50505050905090810190601f1680156106705780820380516001836020036101000a031916815260200191505b5094505050505060006040518083038186803b15801561068f57600080fd5b505af41580156106a3573d6000803e3d6000fd5b505050506040513d6000823e3d601f19601f8201168201806040525060208110156106cd57600080fd5b8101908080516401000000008111156106e557600080fd5b828101905060208101848111156106fb57600080fd5b815185600182028301116401000000008211171561071857600080fd5b5050929190505050915050919050565b6004600085815260200190815260200160002060009054906101000a900460ff161515156107a1576040517f08c379a000000000000000000000000000000000000000000000000000000000815260040180806020018281038252602d815260200180610eac602d913960400191505060405180910390fd5b6107ad84848484610a70565b50505050565b60036020528060005260406000206000915090505481565b6002602052816000526040600020602052806000526040600020600091509150505481565b606073__StringUtils___________________________631dcd9b5573__StringUtils___________________________635da65da5856040518263ffffffff167c01000000000000000000000000000000000000000000000000000000000281526004018082815260200191505060006040518083038186803b15801561087757600080fd5b505af415801561088b573d6000803e3d6000fd5b505050506040513d6000823e3d601f19601f8201168201806040525060208110156108b557600080fd5b8101908080516401000000008111156108cd57600080fd5b828101905060208101848111156108e357600080fd5b815185600182028301116401000000008211171561090057600080fd5b5050929190505050600160200360206040518463ffffffff167c010000000000000000000000000000000000000000000000000000000002815260040180806020018460ff1681526020018360ff168152602001828103825285818151815260200191508051906020019080838360005b8381101561098c578082015181840152602081019050610971565b50505050905090810190601f1680156109b95780820380516001836020036101000a031916815260200191505b5094505050505060006040518083038186803b1580156109d857600080fd5b505af41580156109ec573d6000803e3d6000fd5b505050506040513d6000823e3d601f19601f820116820180604052506020811015610a1657600080fd5b810190808051640100000000811115610a2e57600080fd5b82810190506020810184811115610a4457600080fd5b8151856001820283011164010000000082111715610a6157600080fd5b50509291905050509050919050565b600181014310151515610ace576040517f08c379a0000000000000000000000000000000000000000000000000000000008152600401808060200182810382526021815260200180610e8b6021913960400191505060405180910390fd5b60006001820140905060008090505b8451811015610d255773__StringUtils___________________________6375b83187610b208784815181101515610b1157fe5b90602001906020020151610480565b610b29856107f0565b6040518363ffffffff167c0100000000000000000000000000000000000000000000000000000000028152600401808060200180602001838103835285818151815260200191508051906020019080838360005b83811015610b98578082015181840152602081019050610b7d565b50505050905090810190601f168015610bc55780820380516001836020036101000a031916815260200191505b50838103825284818151815260200191508051906020019080838360005b83811015610bfe578082015181840152602081019050610be3565b50505050905090810190601f168015610c2b5780820380516001836020036101000a031916815260200191505b5094505050505060206040518083038186803b158015610c4a57600080fd5b505af4158015610c5e573d6000803e3d6000fd5b505050506040513d6020811015610c7457600080fd5b810190808051906020019092919050505015610d18576000808781526020019081526020016000208582815181101515610caa57fe5b9060200190602002015190806001815401808255809150509060018203906000526020600020016000909192909190916101000a81548173ffffffffffffffffffffffffffffffffffffffff021916908373ffffffffffffffffffffffffffffffffffffffff160217905550505b8080600101915050610add565b50610d4e6000808781526020019081526020016000208054905084610e6090919063ffffffff16565b600160008781526020019081526020016000208190555060016000868152602001908152602001600020546002600087815260200190815260200160002060003373ffffffffffffffffffffffffffffffffffffffff1673ffffffffffffffffffffffffffffffffffffffff168152602001908152602001600020819055506001600086815260200190815260200160002054600360003373ffffffffffffffffffffffffffffffffffffffff1673ffffffffffffffffffffffffffffffffffffffff1681526020019081526020016000206000828254019250508190555060016004600087815260200190815260200160002060006101000a81548160ff0219169083151502179055505050505050565b60008082111515610e7057600080fd5b60008284811515610e7d57fe5b049050809150509291505056fee8afb7e7ad89e5be85e4b88be4b880e4b8aae58cbae59d97e5868de689a7e8a18ce5bd93e5898de8bdaee6aca1e79a84e5b9b8e8bf90e5a596e58ab1e5b7b2e7bb8fe8aea1e7ae97e5ae8ce68890a165627a7a72305820486f5a28b49a77b34db0e744b4a273989e17ff6012635bb1458bf2904cc3a8de0029",
  "source": "pragma solidity >=0.4.21 <0.6.0;\n\nimport \"../node_modules/openzeppelin-solidity/contracts/math/SafeMath.sol\";\nimport \"./StringUtils.sol\";\n\n// 2.10%用于幸运奖励\n// 每一轮结束后下一个ETH区块高度Hash最后一位作为幸运值\n// 用户钱包地址的最后一位与幸运值相同，则瓜分10%奖励。\n// 募资期结束的时间就是当前轮次结束的时间，到达结束时间之后不再允许转入ETH，并在此时获取到最新的区块高度\n// 然后查询下一区块高度的Hash（此时需要保证已经出块）\n// 匹配幸运者\n// 这个合约给到外面的只有一个获奖者列表\n\ncontract LuckyReward{\n\n    using SafeMath for uint256;\n\n    event LuckyInfo(address[] luckyAddress, uint256 luckyRewards);\n\n    // 创建数组用于接收中奖地址\n    mapping(uint256 => address[]) luckyAddress;\n\n    // 人均奖金\n    mapping(uint256 => uint256) luckyRewards;\n\n    // step => 获奖地址 => 奖金\n    mapping(uint256 => mapping(address => uint256)) public luckyRewardAmount;\n\n    mapping(address => uint256) public luckyFunderTotalBalance;\n\n    // 幸运奖励分配结束\n    mapping(uint256 => bool) currentStepHasFinished;\n\n    constructor() public {\n\n    }\n\n    // 获取某轮次幸运者列表和平均获奖金额\n    function getLuckyInfo(uint256 _stepIndex) public {\n        emit LuckyInfo(luckyAddress[_stepIndex], luckyRewards[_stepIndex]);\n    }\n\n    /// @notice 处理信用奖励信息\n    function dealLuckyInfo(\n        uint256 _stepIndex,\n        address[] memory _funders,\n        uint256 _totalLyckyReward,\n        uint256 _lockedBlockNum\n    ) public {\n        require(!currentStepHasFinished[_stepIndex], \"当前轮次的幸运奖励已经计算完成\");\n        _dealLuckyInfo(_stepIndex, _funders, _totalLyckyReward, _lockedBlockNum);\n    }\n\n    // 处理幸运者数据\n    function _dealLuckyInfo(\n        uint256 _stepIndex,\n        address[] memory _funders,\n        uint256 _totalLyckyReward,\n        uint256 _lockedBlockNum\n    )\n        internal\n    {\n        require(block.number >= (_lockedBlockNum + 1), \"请等待下一个区块再执行\");\n\n        // 获取下一个区块的区块Hash\n        bytes32 nextBlockhash = blockhash(_lockedBlockNum + 1);\n\n        // 比较\n        for(uint i = 0; i < _funders.length; i++){\n            if(StringUtils.compareString(getLastFromAddress(_funders[i]), getLastFromBlockHash(nextBlockhash))) {\n                luckyAddress[_stepIndex].push(_funders[i]);\n            }\n        }\n\n        // 计算人均奖金\n        luckyRewards[_stepIndex] = _totalLyckyReward.div(luckyAddress[_stepIndex].length);\n\n        luckyRewardAmount[_stepIndex][msg.sender] = luckyRewards[_stepIndex];\n\n        luckyFunderTotalBalance[msg.sender] += luckyRewards[_stepIndex];\n\n        currentStepHasFinished[_stepIndex] = true;\n    }\n\n    // 获取address的最后一位\n    function getLastFromAddress(address _addr) public pure returns(string memory) {\n        string memory addressStr = StringUtils.addr2string(_addr);\n        return StringUtils.substring(addressStr,41,42);\n    }\n\n    // 获取区块Hash的最后一位\n    function getLastFromBlockHash(bytes32 _blockHash) public pure returns(string memory){\n        return StringUtils.substring(StringUtils.bytes32Tostring(_blockHash),_blockHash.length-1,_blockHash.length);\n    }\n}",
  "sourcePath": "/Users/a186r/dev/sourcecode/contracts/contract/contract/contracts/LuckyReward.sol",
  "compiler": {
    "name": "solc",
    "version": "0.5.2+commit.1df8f40c.Emscripten.clang"
  },
  "schemaVersion": "3.0.6",
  "updatedAt": "2019-05-20T06:47:37.688Z",
  "devdoc": {
    "methods": {}
  },
  "userdoc": {
    "methods": {
      "dealLuckyInfo(uint256,address[],uint256,uint256)": {
        "notice": "处理信用奖励信息"
      }
    }
  }
}