{
  "contractName": "LuckyReward",
  "abi": [
    {
      "constant": true,
      "inputs": [
        {
          "name": "",
          "type": "uint256"
        }
      ],
      "name": "luckyRewards",
      "outputs": [
        {
          "name": "",
          "type": "uint256"
        }
      ],
      "payable": false,
      "stateMutability": "view",
      "type": "function",
      "signature": "0x6c347437"
    },
    {
      "constant": false,
      "inputs": [],
      "name": "renounceOwnership",
      "outputs": [],
      "payable": false,
      "stateMutability": "nonpayable",
      "type": "function",
      "signature": "0x715018a6"
    },
    {
      "constant": true,
      "inputs": [],
      "name": "owner",
      "outputs": [
        {
          "name": "",
          "type": "address"
        }
      ],
      "payable": false,
      "stateMutability": "view",
      "type": "function",
      "signature": "0x8da5cb5b"
    },
    {
      "constant": true,
      "inputs": [],
      "name": "isOwner",
      "outputs": [
        {
          "name": "",
          "type": "bool"
        }
      ],
      "payable": false,
      "stateMutability": "view",
      "type": "function",
      "signature": "0x8f32d59b"
    },
    {
      "constant": true,
      "inputs": [
        {
          "name": "",
          "type": "address"
        }
      ],
      "name": "luckyFunderTotalBalance",
      "outputs": [
        {
          "name": "",
          "type": "uint256"
        }
      ],
      "payable": false,
      "stateMutability": "view",
      "type": "function",
      "signature": "0xc28a1af3"
    },
    {
      "constant": true,
      "inputs": [
        {
          "name": "",
          "type": "uint256"
        },
        {
          "name": "",
          "type": "address"
        }
      ],
      "name": "luckyRewardAmount",
      "outputs": [
        {
          "name": "",
          "type": "uint256"
        }
      ],
      "payable": false,
      "stateMutability": "view",
      "type": "function",
      "signature": "0xdd572ab9"
    },
    {
      "constant": false,
      "inputs": [
        {
          "name": "newOwner",
          "type": "address"
        }
      ],
      "name": "transferOwnership",
      "outputs": [],
      "payable": false,
      "stateMutability": "nonpayable",
      "type": "function",
      "signature": "0xf2fde38b"
    },
    {
      "inputs": [],
      "payable": false,
      "stateMutability": "nonpayable",
      "type": "constructor",
      "signature": "constructor"
    },
    {
      "anonymous": false,
      "inputs": [
        {
          "indexed": false,
          "name": "luckyWinners",
          "type": "address[]"
        },
        {
          "indexed": false,
          "name": "luckyRewards",
          "type": "uint256"
        }
      ],
      "name": "LuckyInfo",
      "type": "event",
      "signature": "0x0cd95afe8941bcad662d0d47269bccbcf1acb74d75824e33c283509e51f75fad"
    },
    {
      "anonymous": false,
      "inputs": [
        {
          "indexed": true,
          "name": "previousOwner",
          "type": "address"
        },
        {
          "indexed": true,
          "name": "newOwner",
          "type": "address"
        }
      ],
      "name": "OwnershipTransferred",
      "type": "event",
      "signature": "0x8be0079c531659141344cd1fd0a4f28419497f9722a3daafe3b4186f6b6457e0"
    },
    {
      "constant": true,
      "inputs": [
        {
          "name": "_stepIndex",
          "type": "uint256"
        }
      ],
      "name": "getLuckyInfo",
      "outputs": [
        {
          "name": "",
          "type": "uint256"
        },
        {
          "name": "",
          "type": "address[]"
        },
        {
          "name": "",
          "type": "uint256"
        }
      ],
      "payable": false,
      "stateMutability": "view",
      "type": "function",
      "signature": "0x49327441"
    },
    {
      "constant": false,
      "inputs": [
        {
          "name": "_stepIndex",
          "type": "uint256"
        },
        {
          "name": "_luckyWinners",
          "type": "address[]"
        },
        {
          "name": "_totalLyckyReward",
          "type": "uint256"
        }
      ],
      "name": "dealLuckyInfo",
      "outputs": [],
      "payable": false,
      "stateMutability": "nonpayable",
      "type": "function",
      "signature": "0xac197f92"
    }
  ],
  "bytecode": "0x608060405234801561001057600080fd5b5060008054600160a060020a0319163317808255604051600160a060020a039190911691907f8be0079c531659141344cd1fd0a4f28419497f9722a3daafe3b4186f6b6457e0908290a36108f9806100696000396000f3fe608060405234801561001057600080fd5b50600436106100b0576000357c0100000000000000000000000000000000000000000000000000000000900480638f32d59b116100835780638f32d59b14610191578063ac197f92146101ad578063c28a1af314610259578063dd572ab91461027f578063f2fde38b146102ab576100b0565b806349327441146100b55780636c34743714610134578063715018a6146101635780638da5cb5b1461016d575b600080fd5b6100d2600480360360208110156100cb57600080fd5b50356102d1565b6040518084815260200180602001838152602001828103825284818151815260200191508051906020019060200280838360005b8381101561011e578181015183820152602001610106565b5050505090500194505050505060405180910390f35b6101516004803603602081101561014a57600080fd5b5035610358565b60408051918252519081900360200190f35b61016b61036a565b005b6101756103d4565b60408051600160a060020a039092168252519081900360200190f35b6101996103e4565b604080519115158252519081900360200190f35b61016b600480360360608110156101c357600080fd5b813591908101906040810160208201356401000000008111156101e557600080fd5b8201836020820111156101f757600080fd5b8035906020019184602083028401116401000000008311171561021957600080fd5b91908080602002602001604051908101604052809392919081815260200183836020028082843760009201919091525092955050913592506103f5915050565b6101516004803603602081101561026f57600080fd5b5035600160a060020a03166104eb565b6101516004803603604081101561029557600080fd5b5080359060200135600160a060020a03166104fd565b61016b600480360360208110156102c157600080fd5b5035600160a060020a031661051a565b6000818152600660209081526040808320546001835281842060028452828520548154845181870281018701909552808552606095879591849183018282801561034457602002820191906000526020600020905b8154600160a060020a03168152600190910190602001808311610326575b505050505091509250925092509193909250565b60026020526000908152604090205481565b6103726103e4565b151561037d57600080fd5b60008054604051600160a060020a03909116907f8be0079c531659141344cd1fd0a4f28419497f9722a3daafe3b4186f6b6457e0908390a36000805473ffffffffffffffffffffffffffffffffffffffff19169055565b600054600160a060020a03165b90565b600054600160a060020a0316331490565b6103fd6103d4565b600160a060020a0316321461047357604080517f08c379a000000000000000000000000000000000000000000000000000000000815260206004820152601b60248201527fe8b083e794a8e88085e6b2a1e69c89e8b083e794a8e69d83e999900000000000604482015290519081900360640190fd5b60008381526005602052604090205460ff16156104db576040517f08c379a000000000000000000000000000000000000000000000000000000000815260040180806020018281038252602d8152602001806108a1602d913960400191505060405180910390fd5b6104e6838383610539565b505050565b60046020526000908152604090205481565b600360209081526000928352604080842090915290825290205481565b6105226103e4565b151561052d57600080fd5b61053681610728565b50565b8151604051908082528060200260200182016040528015610564578160200160208202803883390190505b506000848152600160209081526040909120825161058893919291909101906107fd565b50600083815260016020908152604090912083516105a8928501906107fd565b506000825111156106ff576000838152600160205260409020546105d390829063ffffffff6107a516565b6000848152600260205260408120919091555b6000848152600160205260409020548110156106aa5760008481526002602090815260408083205460038352818420600190935290832080549193918590811061062c57fe5b6000918252602080832090910154600160a060020a03168352828101939093526040918201812093909355868352600282528083205460019092528220805491926004929091908590811061067d57fe5b6000918252602080832090910154600160a060020a031683528201929092526040019020556001016105e6565b506000838152600160209081526040808320546002909252909120546106d59163ffffffff6107cb16565b6000848152600660209081526040808320939093556005905220805460ff191660011790556104e6565b6000838152600560209081526040808320805460ff1916600117905560069091528120556104e6565b600160a060020a038116151561073d57600080fd5b60008054604051600160a060020a03808516939216917f8be0079c531659141344cd1fd0a4f28419497f9722a3daafe3b4186f6b6457e091a36000805473ffffffffffffffffffffffffffffffffffffffff1916600160a060020a0392909216919091179055565b60008082116107b357600080fd5b600082848115156107c057fe5b049150505b92915050565b60008215156107dc575060006107c5565b8282028284828115156107eb57fe5b04146107f657600080fd5b9392505050565b82805482825590600052602060002090810192821561085f579160200282015b8281111561085f578251825473ffffffffffffffffffffffffffffffffffffffff1916600160a060020a0390911617825560209092019160019091019061081d565b5061086b92915061086f565b5090565b6103e191905b8082111561086b57805473ffffffffffffffffffffffffffffffffffffffff1916815560010161087556fee5bd93e5898de8bdaee6aca1e79a84e5b9b8e8bf90e5a596e58ab1e5b7b2e7bb8fe8aea1e7ae97e5ae8ce68890a165627a7a723058209acbd19f15f0b3a327a98d6dc5faf82fcfa30d099632de456bb6e9710873c6e30029",
  "source": "pragma solidity >=0.4.21 <0.6.0;\n\nimport \"../node_modules/openzeppelin-solidity/contracts/math/SafeMath.sol\";\nimport \"../node_modules/openzeppelin-solidity/contracts/ownership/Ownable.sol\";\n\n// 2.10%用于幸运奖励\n// 每一轮结束后下一个ETH区块高度Hash最后一位作为幸运值\n// 用户钱包地址的最后一位与幸运值相同，则瓜分10%奖励。\n// 募资期结束的时间就是当前轮次结束的时间，到达结束时间之后不再允许转入ETH，并在此时获取到最新的区块高度\n// 然后查询下一区块高度的Hash（此时需要保证已经出块）\n// 匹配幸运者\n// 这个合约给到外面的只有一个获奖者列表\n\ncontract LuckyReward is Ownable{\n\n    using SafeMath for uint256;\n\n    event LuckyInfo(address[] luckyWinners, uint256 luckyRewards);\n\n    // 创建数组用于接收中奖地址\n    mapping(uint256 => address[]) luckyWinners;\n\n    // 人均奖金\n    mapping(uint256 => uint256) public luckyRewards;\n\n    // step => 获奖地址 => 奖金\n    mapping(uint256 => mapping(address => uint256)) public luckyRewardAmount;\n\n    mapping(address => uint256) public luckyFunderTotalBalance;\n\n    // 幸运奖励分配结束\n    mapping(uint256 => bool) currentStepHasFinished;\n\n    // 轮次=>奖励金\n    mapping(uint256 => uint256) totalLyckyReward;\n\n    constructor() public {\n\n    }\n\n    // 获取某轮次幸运者列表和平均获奖金额\n    function getLuckyInfo(uint256 _stepIndex)\n        public\n        view\n        returns(uint256, address[] memory, uint256)\n    {\n        return(totalLyckyReward[_stepIndex], luckyWinners[_stepIndex], luckyRewards[_stepIndex]);\n    }\n\n    /// @notice 处理信用奖励信息\n    function dealLuckyInfo(\n        uint256 _stepIndex,\n        address[] memory _luckyWinners,\n        uint256 _totalLyckyReward\n    )\n        public\n    {\n        require(tx.origin == owner(), \"调用者没有调用权限\");\n        require(!currentStepHasFinished[_stepIndex], \"当前轮次的幸运奖励已经计算完成\");\n        _dealLuckyInfo(_stepIndex, _luckyWinners, _totalLyckyReward);\n    }\n\n    // 处理幸运者数据\n    function _dealLuckyInfo(\n        uint256 _stepIndex,\n        address[] memory _luckyWinners,\n        uint256 _totalLyckyReward\n    )\n        internal\n    {\n\n        luckyWinners[_stepIndex] = new address[](_luckyWinners.length);\n\n        luckyWinners[_stepIndex] = _luckyWinners;\n\n        if(_luckyWinners.length > 0){\n            // 计算人均奖金\n            luckyRewards[_stepIndex] = _totalLyckyReward.div(luckyWinners[_stepIndex].length);\n\n            for(uint i = 0; i < luckyWinners[_stepIndex].length; i++){\n                luckyRewardAmount[_stepIndex][luckyWinners[_stepIndex][i]] = luckyRewards[_stepIndex];\n\n                // 幸运奖励奖金\n                luckyFunderTotalBalance[luckyWinners[_stepIndex][i]] = luckyRewards[_stepIndex];\n            }\n            totalLyckyReward[_stepIndex] = luckyRewards[_stepIndex].mul(luckyWinners[_stepIndex].length);\n            currentStepHasFinished[_stepIndex] = true;\n        }else{ // 如果没有人中奖，设置一下状态就行了，不用再循环结算了\n            currentStepHasFinished[_stepIndex] = true;\n            totalLyckyReward[_stepIndex] = 0;\n            return;\n        }\n    }\n}",
  "sourcePath": "/Users/a186r/dev/sourcecode/contract/contract/contracts/LuckyReward.sol",
  "compiler": {
    "name": "solc",
    "version": "0.5.2+commit.1df8f40c.Emscripten.clang"
  },
  "schemaVersion": "3.0.6",
  "updatedAt": "2019-06-04T07:09:41.558Z",
  "devdoc": {
    "methods": {
      "isOwner()": {
        "return": "true if `msg.sender` is the owner of the contract."
      },
      "owner()": {
        "return": "the address of the owner."
      },
      "renounceOwnership()": {
        "details": "Allows the current owner to relinquish control of the contract. It will not be possible to call the functions with the `onlyOwner` modifier anymore."
      },
      "transferOwnership(address)": {
        "details": "Allows the current owner to transfer control of the contract to a newOwner.",
        "params": {
          "newOwner": "The address to transfer ownership to."
        }
      }
    }
  },
  "userdoc": {
    "methods": {
      "dealLuckyInfo(uint256,address[],uint256)": {
        "notice": "处理信用奖励信息"
      },
      "renounceOwnership()": {
        "notice": "Renouncing ownership will leave the contract without an owner, thereby removing any functionality that is only available to the owner."
      }
    }
  }
}