{
  "contractName": "LuckyReward",
  "abi": [
    {
      "constant": true,
      "inputs": [
        {
          "name": "",
          "type": "address"
        }
      ],
      "name": "luckyFunderTotalBalance",
      "outputs": [
        {
          "name": "",
          "type": "uint256"
        }
      ],
      "payable": false,
      "stateMutability": "view",
      "type": "function"
    },
    {
      "constant": true,
      "inputs": [
        {
          "name": "",
          "type": "uint256"
        },
        {
          "name": "",
          "type": "address"
        }
      ],
      "name": "luckyRewardAmount",
      "outputs": [
        {
          "name": "",
          "type": "uint256"
        }
      ],
      "payable": false,
      "stateMutability": "view",
      "type": "function"
    },
    {
      "inputs": [],
      "payable": false,
      "stateMutability": "nonpayable",
      "type": "constructor"
    },
    {
      "anonymous": false,
      "inputs": [
        {
          "indexed": false,
          "name": "luckyWinners",
          "type": "address[]"
        },
        {
          "indexed": false,
          "name": "luckyRewards",
          "type": "uint256"
        }
      ],
      "name": "LuckyInfo",
      "type": "event"
    },
    {
      "constant": false,
      "inputs": [
        {
          "name": "_stepIndex",
          "type": "uint256"
        }
      ],
      "name": "getLuckyInfo",
      "outputs": [
        {
          "name": "",
          "type": "address[]"
        },
        {
          "name": "",
          "type": "uint256"
        }
      ],
      "payable": false,
      "stateMutability": "nonpayable",
      "type": "function"
    },
    {
      "constant": false,
      "inputs": [
        {
          "name": "_stepIndex",
          "type": "uint256"
        },
        {
          "name": "_luckyWinners",
          "type": "address[]"
        },
        {
          "name": "_totalLyckyReward",
          "type": "uint256"
        }
      ],
      "name": "dealLuckyInfo",
      "outputs": [],
      "payable": false,
      "stateMutability": "nonpayable",
      "type": "function"
    },
    {
      "constant": true,
      "inputs": [
        {
          "name": "_addr",
          "type": "address"
        }
      ],
      "name": "getLastFromAddress",
      "outputs": [
        {
          "name": "",
          "type": "string"
        }
      ],
      "payable": false,
      "stateMutability": "pure",
      "type": "function"
    },
    {
      "constant": true,
      "inputs": [
        {
          "name": "_blockHash",
          "type": "bytes32"
        }
      ],
      "name": "getLastFromBlockHash",
      "outputs": [
        {
          "name": "",
          "type": "string"
        }
      ],
      "payable": false,
      "stateMutability": "pure",
      "type": "function"
    }
  ],
  "bytecode": "0x608060405234801561001057600080fd5b50610f70806100206000396000f3fe608060405234801561001057600080fd5b506004361061007f576000357c01000000000000000000000000000000000000000000000000000000009004806349327441146100845780635fb25f1d1461010e578063ac197f92146101cb578063c28a1af314610297578063dd572ab9146102ef578063f647c19614610351575b600080fd5b6100b06004803603602081101561009a57600080fd5b81019080803590602001909291905050506103f8565b6040518080602001838152602001828103825284818151815260200191508051906020019060200280838360005b838110156100f95780820151818401526020810190506100de565b50505050905001935050505060405180910390f35b6101506004803603602081101561012457600080fd5b81019080803573ffffffffffffffffffffffffffffffffffffffff16906020019092919050505061058a565b6040518080602001828103825283818151815260200191508051906020019080838360005b83811015610190578082015181840152602081019050610175565b50505050905090810190601f1680156101bd5780820380516001836020036101000a031916815260200191505b509250505060405180910390f35b610295600480360360608110156101e157600080fd5b81019080803590602001909291908035906020019064010000000081111561020857600080fd5b82018360208201111561021a57600080fd5b8035906020019184602083028401116401000000008311171561023c57600080fd5b919080806020026020016040519081016040528093929190818152602001838360200280828437600081840152601f19601f82011690508083019250505050505050919291929080359060200190929190505050610832565b005b6102d9600480360360208110156102ad57600080fd5b81019080803573ffffffffffffffffffffffffffffffffffffffff1690602001909291905050506108bb565b6040518082815260200191505060405180910390f35b61033b6004803603604081101561030557600080fd5b8101908080359060200190929190803573ffffffffffffffffffffffffffffffffffffffff1690602001909291905050506108d3565b6040518082815260200191505060405180910390f35b61037d6004803603602081101561036757600080fd5b81019080803590602001909291905050506108f8565b6040518080602001828103825283818151815260200191508051906020019080838360005b838110156103bd5780820151818401526020810190506103a2565b50505050905090810190601f1680156103ea5780820380516001836020036101000a031916815260200191505b509250505060405180910390f35b606060007f0cd95afe8941bcad662d0d47269bccbcf1acb74d75824e33c283509e51f75fad6000808581526020019081526020016000206001600086815260200190815260200160002054604051808060200183815260200182810382528481815481526020019150805480156104c457602002820191906000526020600020905b8160009054906101000a900473ffffffffffffffffffffffffffffffffffffffff1673ffffffffffffffffffffffffffffffffffffffff168152602001906001019080831161047a575b5050935050505060405180910390a160008084815260200190815260200160002060016000858152602001908152602001600020548180548060200260200160405190810160405280929190818152602001828054801561057a57602002820191906000526020600020905b8160009054906101000a900473ffffffffffffffffffffffffffffffffffffffff1673ffffffffffffffffffffffffffffffffffffffff1681526020019060010190808311610530575b5050505050915091509150915091565b60608073__StringUtils___________________________63bcffbe68846040518263ffffffff167c0100000000000000000000000000000000000000000000000000000000028152600401808273ffffffffffffffffffffffffffffffffffffffff1673ffffffffffffffffffffffffffffffffffffffff16815260200191505060006040518083038186803b15801561062457600080fd5b505af4158015610638573d6000803e3d6000fd5b505050506040513d6000823e3d601f19601f82011682018060405250602081101561066257600080fd5b81019080805164010000000081111561067a57600080fd5b8281019050602081018481111561069057600080fd5b81518560018202830111640100000000821117156106ad57600080fd5b5050929190505050905073__StringUtils___________________________631dcd9b55826029602a6040518463ffffffff167c01000000000000000000000000000000000000000000000000000000000281526004018080602001848152602001838152602001828103825285818151815260200191508051906020019080838360005b8381101561074d578082015181840152602081019050610732565b50505050905090810190601f16801561077a5780820380516001836020036101000a031916815260200191505b5094505050505060006040518083038186803b15801561079957600080fd5b505af41580156107ad573d6000803e3d6000fd5b505050506040513d6000823e3d601f19601f8201168201806040525060208110156107d757600080fd5b8101908080516401000000008111156107ef57600080fd5b8281019050602081018481111561080557600080fd5b815185600182028301116401000000008211171561082257600080fd5b5050929190505050915050919050565b6004600084815260200190815260200160002060009054906101000a900460ff161515156108ab576040517f08c379a000000000000000000000000000000000000000000000000000000000815260040180806020018281038252602d815260200180610f18602d913960400191505060405180910390fd5b6108b6838383610b78565b505050565b60036020528060005260406000206000915090505481565b6002602052816000526040600020602052806000526040600020600091509150505481565b606073__StringUtils___________________________631dcd9b5573__StringUtils___________________________635da65da5856040518263ffffffff167c01000000000000000000000000000000000000000000000000000000000281526004018082815260200191505060006040518083038186803b15801561097f57600080fd5b505af4158015610993573d6000803e3d6000fd5b505050506040513d6000823e3d601f19601f8201168201806040525060208110156109bd57600080fd5b8101908080516401000000008111156109d557600080fd5b828101905060208101848111156109eb57600080fd5b8151856001820283011164010000000082111715610a0857600080fd5b5050929190505050600160200360206040518463ffffffff167c010000000000000000000000000000000000000000000000000000000002815260040180806020018460ff1681526020018360ff168152602001828103825285818151815260200191508051906020019080838360005b83811015610a94578082015181840152602081019050610a79565b50505050905090810190601f168015610ac15780820380516001836020036101000a031916815260200191505b5094505050505060006040518083038186803b158015610ae057600080fd5b505af4158015610af4573d6000803e3d6000fd5b505050506040513d6000823e3d601f19601f820116820180604052506020811015610b1e57600080fd5b810190808051640100000000811115610b3657600080fd5b82810190506020810184811115610b4c57600080fd5b8151856001820283011164010000000082111715610b6957600080fd5b50509291905050509050919050565b816000808581526020019081526020016000209080519060200190610b9e929190610e4a565b50610bc76000808581526020019081526020016000208054905082610e2090919063ffffffff16565b600160008581526020019081526020016000208190555060008090505b60008085815260200190815260200160002080549050811015610dee57600160008581526020019081526020016000205460026000868152602001908152602001600020600080600088815260200190815260200160002084815481101515610c4957fe5b9060005260206000200160009054906101000a900473ffffffffffffffffffffffffffffffffffffffff1673ffffffffffffffffffffffffffffffffffffffff1673ffffffffffffffffffffffffffffffffffffffff1681526020019081526020016000208190555060026000858152602001908152602001600020600080600087815260200190815260200160002083815481101515610ce657fe5b9060005260206000200160009054906101000a900473ffffffffffffffffffffffffffffffffffffffff1673ffffffffffffffffffffffffffffffffffffffff1673ffffffffffffffffffffffffffffffffffffffff168152602001908152602001600020546003600080600088815260200190815260200160002084815481101515610d6f57fe5b9060005260206000200160009054906101000a900473ffffffffffffffffffffffffffffffffffffffff1673ffffffffffffffffffffffffffffffffffffffff1673ffffffffffffffffffffffffffffffffffffffff168152602001908152602001600020600082825401925050819055508080600101915050610be4565b5060016004600085815260200190815260200160002060006101000a81548160ff021916908315150217905550505050565b60008082111515610e3057600080fd5b60008284811515610e3d57fe5b0490508091505092915050565b828054828255906000526020600020908101928215610ec3579160200282015b82811115610ec25782518260006101000a81548173ffffffffffffffffffffffffffffffffffffffff021916908373ffffffffffffffffffffffffffffffffffffffff16021790555091602001919060010190610e6a565b5b509050610ed09190610ed4565b5090565b610f1491905b80821115610f1057600081816101000a81549073ffffffffffffffffffffffffffffffffffffffff021916905550600101610eda565b5090565b9056fee5bd93e5898de8bdaee6aca1e79a84e5b9b8e8bf90e5a596e58ab1e5b7b2e7bb8fe8aea1e7ae97e5ae8ce68890a165627a7a72305820d83a98fef5e083ef00987dc025a46f25dfa951c43b6dffc83578f7f5c071dd510029",
  "source": "pragma solidity >=0.4.21 <0.6.0;\n\nimport \"../node_modules/openzeppelin-solidity/contracts/math/SafeMath.sol\";\nimport \"./StringUtils.sol\";\n\n// 2.10%用于幸运奖励\n// 每一轮结束后下一个ETH区块高度Hash最后一位作为幸运值\n// 用户钱包地址的最后一位与幸运值相同，则瓜分10%奖励。\n// 募资期结束的时间就是当前轮次结束的时间，到达结束时间之后不再允许转入ETH，并在此时获取到最新的区块高度\n// 然后查询下一区块高度的Hash（此时需要保证已经出块）\n// 匹配幸运者\n// 这个合约给到外面的只有一个获奖者列表\n\ncontract LuckyReward{\n\n    using SafeMath for uint256;\n\n    event LuckyInfo(address[] luckyWinners, uint256 luckyRewards);\n\n    // 创建数组用于接收中奖地址\n    mapping(uint256 => address[]) luckyWinners;\n\n    // 人均奖金\n    mapping(uint256 => uint256) luckyRewards;\n\n    // step => 获奖地址 => 奖金\n    mapping(uint256 => mapping(address => uint256)) public luckyRewardAmount;\n\n    mapping(address => uint256) public luckyFunderTotalBalance;\n\n    // 幸运奖励分配结束\n    mapping(uint256 => bool) currentStepHasFinished;\n\n    constructor() public {\n\n    }\n\n    // 获取某轮次幸运者列表和平均获奖金额\n    function getLuckyInfo(uint256 _stepIndex)\n        public\n        returns(address[] memory, uint256)\n    {\n        emit LuckyInfo(luckyWinners[_stepIndex], luckyRewards[_stepIndex]);\n        return(luckyWinners[_stepIndex], luckyRewards[_stepIndex]);\n    }\n\n    /// @notice 处理信用奖励信息\n    function dealLuckyInfo(\n        uint256 _stepIndex,\n        address[] memory _luckyWinners,\n        uint256 _totalLyckyReward\n    ) public {\n        require(!currentStepHasFinished[_stepIndex], \"当前轮次的幸运奖励已经计算完成\");\n        _dealLuckyInfo(_stepIndex, _luckyWinners, _totalLyckyReward);\n    }\n\n    // 处理幸运者数据\n    function _dealLuckyInfo(\n        uint256 _stepIndex,\n        address[] memory _luckyWinners,\n        uint256 _totalLyckyReward\n    )\n        internal\n    {\n        luckyWinners[_stepIndex] = _luckyWinners;\n        // require(block.number >= (_lockedBlockNum + 1), \"请等待下一个区块再执行\");\n\n        // 获取下一个区块的区块Hash\n        // bytes32 nextBlockhash = blockhash(_lockedBlockNum + 1);\n\n        // 比较,找出幸运者\n        // for(uint i = 0; i < _luckyWinners.length; i++){\n        //     if(StringUtils.compareString(getLastFromAddress(_luckyWinners[i]), getLastFromBlockHash(nextBlockhash))) {\n        //         luckyWinners[_stepIndex].push(_luckyWinners[i]);\n        //     }\n        // }\n\n        // 计算人均奖金\n        luckyRewards[_stepIndex] = _totalLyckyReward.div(luckyWinners[_stepIndex].length);\n\n        for(uint i = 0; i < luckyWinners[_stepIndex].length; i++){\n            luckyRewardAmount[_stepIndex][luckyWinners[_stepIndex][i]] = luckyRewards[_stepIndex];\n\n            // 累加奖金余额\n            luckyFunderTotalBalance[luckyWinners[_stepIndex][i]] += luckyRewardAmount[_stepIndex][luckyWinners[_stepIndex][i]];\n        }\n\n        currentStepHasFinished[_stepIndex] = true;\n    }\n\n    // 获取address的最后一位\n    function getLastFromAddress(address _addr) public pure returns(string memory) {\n        string memory addressStr = StringUtils.addr2string(_addr);\n        return StringUtils.substring(addressStr,41,42);\n    }\n\n    // 获取区块Hash的最后一位\n    function getLastFromBlockHash(bytes32 _blockHash) public pure returns(string memory){\n        return StringUtils.substring(StringUtils.bytes32Tostring(_blockHash),_blockHash.length-1,_blockHash.length);\n    }\n}",
  "sourcePath": "/Users/a186r/dev/contracts/contract/contract/contracts/LuckyReward.sol",
  "compiler": {
    "name": "solc",
    "version": "0.5.2+commit.1df8f40c.Emscripten.clang"
  },
  "schemaVersion": "3.0.9",
  "updatedAt": "2019-05-26T03:49:24.757Z",
  "devdoc": {
    "methods": {}
  },
  "userdoc": {
    "methods": {
      "dealLuckyInfo(uint256,address[],uint256)": {
        "notice": "处理信用奖励信息"
      }
    }
  }
}