{
  "contractName": "LuckyReward",
  "abi": [
    {
      "constant": true,
      "inputs": [
        {
          "name": "",
          "type": "uint256"
        }
      ],
      "name": "luckyRewards",
      "outputs": [
        {
          "name": "",
          "type": "uint256"
        }
      ],
      "payable": false,
      "stateMutability": "view",
      "type": "function",
      "signature": "0x6c347437"
    },
    {
      "constant": false,
      "inputs": [],
      "name": "renounceOwnership",
      "outputs": [],
      "payable": false,
      "stateMutability": "nonpayable",
      "type": "function",
      "signature": "0x715018a6"
    },
    {
      "constant": false,
      "inputs": [
        {
          "name": "_authority",
          "type": "address"
        }
      ],
      "name": "setAuthority",
      "outputs": [],
      "payable": false,
      "stateMutability": "nonpayable",
      "type": "function",
      "signature": "0x7a9e5e4b"
    },
    {
      "constant": true,
      "inputs": [],
      "name": "owner",
      "outputs": [
        {
          "name": "",
          "type": "address"
        }
      ],
      "payable": false,
      "stateMutability": "view",
      "type": "function",
      "signature": "0x8da5cb5b"
    },
    {
      "constant": true,
      "inputs": [],
      "name": "isOwner",
      "outputs": [
        {
          "name": "",
          "type": "bool"
        }
      ],
      "payable": false,
      "stateMutability": "view",
      "type": "function",
      "signature": "0x8f32d59b"
    },
    {
      "constant": true,
      "inputs": [
        {
          "name": "",
          "type": "address"
        }
      ],
      "name": "luckyFunderTotalBalance",
      "outputs": [
        {
          "name": "",
          "type": "uint256"
        }
      ],
      "payable": false,
      "stateMutability": "view",
      "type": "function",
      "signature": "0xc28a1af3"
    },
    {
      "constant": true,
      "inputs": [
        {
          "name": "",
          "type": "uint256"
        },
        {
          "name": "",
          "type": "address"
        }
      ],
      "name": "luckyRewardAmount",
      "outputs": [
        {
          "name": "",
          "type": "uint256"
        }
      ],
      "payable": false,
      "stateMutability": "view",
      "type": "function",
      "signature": "0xdd572ab9"
    },
    {
      "constant": false,
      "inputs": [
        {
          "name": "newOwner",
          "type": "address"
        }
      ],
      "name": "transferOwnership",
      "outputs": [],
      "payable": false,
      "stateMutability": "nonpayable",
      "type": "function",
      "signature": "0xf2fde38b"
    },
    {
      "inputs": [],
      "payable": false,
      "stateMutability": "nonpayable",
      "type": "constructor",
      "signature": "constructor"
    },
    {
      "anonymous": false,
      "inputs": [
        {
          "indexed": false,
          "name": "luckyWinners",
          "type": "address[]"
        },
        {
          "indexed": false,
          "name": "luckyRewards",
          "type": "uint256"
        }
      ],
      "name": "LuckyInfo",
      "type": "event",
      "signature": "0x0cd95afe8941bcad662d0d47269bccbcf1acb74d75824e33c283509e51f75fad"
    },
    {
      "anonymous": false,
      "inputs": [
        {
          "indexed": false,
          "name": "hasAccess",
          "type": "bool"
        }
      ],
      "name": "SetAuthority",
      "type": "event",
      "signature": "0xc783e46ac4ae471cef8b5d3f1e226e4a6b30da62728c90f1ef4883bef011c744"
    },
    {
      "anonymous": false,
      "inputs": [
        {
          "indexed": true,
          "name": "previousOwner",
          "type": "address"
        },
        {
          "indexed": true,
          "name": "newOwner",
          "type": "address"
        }
      ],
      "name": "OwnershipTransferred",
      "type": "event",
      "signature": "0x8be0079c531659141344cd1fd0a4f28419497f9722a3daafe3b4186f6b6457e0"
    },
    {
      "constant": true,
      "inputs": [
        {
          "name": "_stepIndex",
          "type": "uint256"
        }
      ],
      "name": "getLuckyInfo",
      "outputs": [
        {
          "name": "",
          "type": "uint256"
        },
        {
          "name": "",
          "type": "address[]"
        },
        {
          "name": "",
          "type": "uint256"
        }
      ],
      "payable": false,
      "stateMutability": "view",
      "type": "function",
      "signature": "0x49327441"
    },
    {
      "constant": false,
      "inputs": [
        {
          "name": "_stepIndex",
          "type": "uint256"
        },
        {
          "name": "_luckyWinners",
          "type": "address[]"
        },
        {
          "name": "_totalLyckyReward",
          "type": "uint256"
        }
      ],
      "name": "dealLuckyInfo",
      "outputs": [],
      "payable": false,
      "stateMutability": "nonpayable",
      "type": "function",
      "signature": "0xac197f92"
    }
  ],
  "bytecode": "0x608060405234801561001057600080fd5b5060008054600160a060020a0319163317808255604051600160a060020a039190911691907f8be0079c531659141344cd1fd0a4f28419497f9722a3daafe3b4186f6b6457e0908290a3610923806100696000396000f3fe608060405234801561001057600080fd5b50600436106100bb576000357c0100000000000000000000000000000000000000000000000000000000900480638f32d59b116100835780638f32d59b146101c2578063ac197f92146101de578063c28a1af31461028a578063dd572ab9146102b0578063f2fde38b146102dc576100bb565b806349327441146100c05780636c3474371461013f578063715018a61461016e5780637a9e5e4b146101785780638da5cb5b1461019e575b600080fd5b6100dd600480360360208110156100d657600080fd5b5035610302565b6040518084815260200180602001838152602001828103825284818151815260200191508051906020019060200280838360005b83811015610129578181015183820152602001610111565b5050505090500194505050505060405180910390f35b61015c6004803603602081101561015557600080fd5b5035610389565b60408051918252519081900360200190f35b61017661039b565b005b6101766004803603602081101561018e57600080fd5b5035600160a060020a0316610405565b6101a661047c565b60408051600160a060020a039092168252519081900360200190f35b6101ca61048c565b604080519115158252519081900360200190f35b610176600480360360608110156101f457600080fd5b8135919081019060408101602082013564010000000081111561021657600080fd5b82018360208201111561022857600080fd5b8035906020019184602083028401116401000000008311171561024a57600080fd5b919080806020026020016040519081016040528093929190818152602001838360200280828437600092019190915250929550509135925061049d915050565b61015c600480360360208110156102a057600080fd5b5035600160a060020a0316610515565b61015c600480360360408110156102c657600080fd5b5080359060200135600160a060020a0316610527565b610176600480360360208110156102f257600080fd5b5035600160a060020a0316610544565b6000818152600760209081526040808320546002835281842060038452828520548154845181870281018701909552808552606095879591849183018282801561037557602002820191906000526020600020905b8154600160a060020a03168152600190910190602001808311610357575b505050505091509250925092509193909250565b60036020526000908152604090205481565b6103a361048c565b15156103ae57600080fd5b60008054604051600160a060020a03909116907f8be0079c531659141344cd1fd0a4f28419497f9722a3daafe3b4186f6b6457e0908390a36000805473ffffffffffffffffffffffffffffffffffffffff19169055565b61040d61048c565b151561041857600080fd5b600160a060020a038116600090815260016020818152604092839020805460ff191690921791829055825160ff9092161515825291517fc783e46ac4ae471cef8b5d3f1e226e4a6b30da62728c90f1ef4883bef011c744929181900390910190a150565b600054600160a060020a03165b90565b600054600160a060020a0316331490565b60008381526006602052604090205460ff1615610505576040517f08c379a000000000000000000000000000000000000000000000000000000000815260040180806020018281038252602d8152602001806108cb602d913960400191505060405180910390fd5b610510838383610563565b505050565b60056020526000908152604090205481565b600460209081526000928352604080842090915290825290205481565b61054c61048c565b151561055757600080fd5b61056081610752565b50565b815160405190808252806020026020018201604052801561058e578160200160208202803883390190505b50600084815260026020908152604090912082516105b29391929190910190610827565b50600083815260026020908152604090912083516105d292850190610827565b50600082511115610729576000838152600260205260409020546105fd90829063ffffffff6107cf16565b6000848152600360205260408120919091555b6000848152600260205260409020548110156106d45760008481526003602090815260408083205460048352818420600290935290832080549193918590811061065657fe5b6000918252602080832090910154600160a060020a0316835282810193909352604091820181209390935586835260038252808320546002909252822080549192600592909190859081106106a757fe5b6000918252602080832090910154600160a060020a03168352820192909252604001902055600101610610565b506000838152600260209081526040808320546003909252909120546106ff9163ffffffff6107f516565b6000848152600760209081526040808320939093556006905220805460ff19166001179055610510565b6000838152600660209081526040808320805460ff191660011790556007909152812055610510565b600160a060020a038116151561076757600080fd5b60008054604051600160a060020a03808516939216917f8be0079c531659141344cd1fd0a4f28419497f9722a3daafe3b4186f6b6457e091a36000805473ffffffffffffffffffffffffffffffffffffffff1916600160a060020a0392909216919091179055565b60008082116107dd57600080fd5b600082848115156107ea57fe5b049150505b92915050565b6000821515610806575060006107ef565b82820282848281151561081557fe5b041461082057600080fd5b9392505050565b828054828255906000526020600020908101928215610889579160200282015b82811115610889578251825473ffffffffffffffffffffffffffffffffffffffff1916600160a060020a03909116178255602090920191600190910190610847565b50610895929150610899565b5090565b61048991905b8082111561089557805473ffffffffffffffffffffffffffffffffffffffff1916815560010161089f56fee5bd93e5898de8bdaee6aca1e79a84e5b9b8e8bf90e5a596e58ab1e5b7b2e7bb8fe8aea1e7ae97e5ae8ce68890a165627a7a723058203c83529054c4bb6b86bde581d1869d755ed256e5af8d64685ae3a56434820efd0029",
  "source": "pragma solidity >=0.4.21 <0.6.0;\n\nimport \"../node_modules/openzeppelin-solidity/contracts/math/SafeMath.sol\";\nimport \"./Authority.sol\";\n\n// 2.10%用于幸运奖励\n// 每一轮结束后下一个ETH区块高度Hash最后一位作为幸运值\n// 用户钱包地址的最后一位与幸运值相同，则瓜分10%奖励。\n// 募资期结束的时间就是当前轮次结束的时间，到达结束时间之后不再允许转入ETH，并在此时获取到最新的区块高度\n// 然后查询下一区块高度的Hash（此时需要保证已经出块）\n// 匹配幸运者\n// 这个合约给到外面的只有一个获奖者列表\n\ncontract LuckyReward is Authority{\n\n    using SafeMath for uint256;\n\n    event LuckyInfo(address[] luckyWinners, uint256 luckyRewards);\n\n    // 创建数组用于接收中奖地址\n    mapping(uint256 => address[]) luckyWinners;\n\n    // 人均奖金\n    mapping(uint256 => uint256) public luckyRewards;\n\n    // step => 获奖地址 => 奖金\n    mapping(uint256 => mapping(address => uint256)) public luckyRewardAmount;\n\n    mapping(address => uint256) public luckyFunderTotalBalance;\n\n    // 幸运奖励分配结束\n    mapping(uint256 => bool) currentStepHasFinished;\n\n    // 轮次=>奖励金\n    mapping(uint256 => uint256) totalLyckyReward;\n\n    constructor() public {\n\n    }\n\n    // 获取某轮次幸运者列表和平均获奖金额\n    function getLuckyInfo(uint256 _stepIndex)\n        public\n        view\n        returns(uint256, address[] memory, uint256)\n    {\n        return(totalLyckyReward[_stepIndex], luckyWinners[_stepIndex], luckyRewards[_stepIndex]);\n    }\n\n    /// @notice 处理信用奖励信息\n    function dealLuckyInfo(\n        uint256 _stepIndex,\n        address[] memory _luckyWinners,\n        uint256 _totalLyckyReward\n    )\n        public\n        onlyAuthority()\n    {\n        require(!currentStepHasFinished[_stepIndex], \"当前轮次的幸运奖励已经计算完成\");\n        _dealLuckyInfo(_stepIndex, _luckyWinners, _totalLyckyReward);\n    }\n\n    // 处理幸运者数据\n    function _dealLuckyInfo(\n        uint256 _stepIndex,\n        address[] memory _luckyWinners,\n        uint256 _totalLyckyReward\n    )\n        internal\n    {\n\n        luckyWinners[_stepIndex] = new address[](_luckyWinners.length);\n\n        luckyWinners[_stepIndex] = _luckyWinners;\n\n        if(_luckyWinners.length > 0){\n            // 计算人均奖金\n            luckyRewards[_stepIndex] = _totalLyckyReward.div(luckyWinners[_stepIndex].length);\n\n            for(uint i = 0; i < luckyWinners[_stepIndex].length; i++){\n                luckyRewardAmount[_stepIndex][luckyWinners[_stepIndex][i]] = luckyRewards[_stepIndex];\n\n                // 幸运奖励奖金\n                luckyFunderTotalBalance[luckyWinners[_stepIndex][i]] = luckyRewards[_stepIndex];\n            }\n            totalLyckyReward[_stepIndex] = luckyRewards[_stepIndex].mul(luckyWinners[_stepIndex].length);\n            currentStepHasFinished[_stepIndex] = true;\n        }else{ // 如果没有人中奖，设置一下状态就行了，不用再循环结算了\n            currentStepHasFinished[_stepIndex] = true;\n            totalLyckyReward[_stepIndex] = 0;\n            return;\n        }\n    }\n}",
  "sourcePath": "/Users/a186r/dev/sourcecode/contract/contract/contracts/LuckyReward.sol",
  "compiler": {
    "name": "solc",
    "version": "0.5.2+commit.1df8f40c.Emscripten.clang"
  },
  "schemaVersion": "3.0.6",
  "updatedAt": "2019-06-04T05:49:13.420Z",
  "devdoc": {
    "methods": {
      "isOwner()": {
        "return": "true if `msg.sender` is the owner of the contract."
      },
      "owner()": {
        "return": "the address of the owner."
      },
      "renounceOwnership()": {
        "details": "Allows the current owner to relinquish control of the contract. It will not be possible to call the functions with the `onlyOwner` modifier anymore."
      },
      "transferOwnership(address)": {
        "details": "Allows the current owner to transfer control of the contract to a newOwner.",
        "params": {
          "newOwner": "The address to transfer ownership to."
        }
      }
    }
  },
  "userdoc": {
    "methods": {
      "dealLuckyInfo(uint256,address[],uint256)": {
        "notice": "处理信用奖励信息"
      },
      "renounceOwnership()": {
        "notice": "Renouncing ownership will leave the contract without an owner, thereby removing any functionality that is only available to the owner."
      }
    }
  }
}