{
  "contractName": "Resonance",
  "abi": [
    {
      "constant": true,
      "inputs": [],
      "name": "currentStep",
      "outputs": [
        {
          "name": "",
          "type": "uint256"
        }
      ],
      "payable": false,
      "stateMutability": "view",
      "type": "function"
    },
    {
      "constant": false,
      "inputs": [],
      "name": "renounceOwnership",
      "outputs": [],
      "payable": false,
      "stateMutability": "nonpayable",
      "type": "function"
    },
    {
      "constant": true,
      "inputs": [],
      "name": "owner",
      "outputs": [
        {
          "name": "",
          "type": "address"
        }
      ],
      "payable": false,
      "stateMutability": "view",
      "type": "function"
    },
    {
      "constant": true,
      "inputs": [],
      "name": "isOwner",
      "outputs": [
        {
          "name": "",
          "type": "bool"
        }
      ],
      "payable": false,
      "stateMutability": "view",
      "type": "function"
    },
    {
      "constant": true,
      "inputs": [],
      "name": "abcToken",
      "outputs": [
        {
          "name": "",
          "type": "address"
        }
      ],
      "payable": false,
      "stateMutability": "view",
      "type": "function"
    },
    {
      "constant": false,
      "inputs": [
        {
          "name": "newOwner",
          "type": "address"
        }
      ],
      "name": "transferOwnership",
      "outputs": [],
      "payable": false,
      "stateMutability": "nonpayable",
      "type": "function"
    },
    {
      "inputs": [
        {
          "name": "_abcToken",
          "type": "address"
        },
        {
          "name": "_beneficiary",
          "type": "address"
        },
        {
          "name": "_initialFissionPerson",
          "type": "address"
        },
        {
          "name": "_fassionRewardAddress",
          "type": "address"
        },
        {
          "name": "_FOMORewardAddress",
          "type": "address"
        },
        {
          "name": "_luckyRewardAddress",
          "type": "address"
        },
        {
          "name": "_faithRewardAddress",
          "type": "address"
        }
      ],
      "payable": false,
      "stateMutability": "nonpayable",
      "type": "constructor"
    },
    {
      "payable": true,
      "stateMutability": "payable",
      "type": "fallback"
    },
    {
      "anonymous": false,
      "inputs": [
        {
          "indexed": true,
          "name": "fissionPerson",
          "type": "address"
        },
        {
          "indexed": true,
          "name": "promoter",
          "type": "address"
        }
      ],
      "name": "ToBeFissionPerson",
      "type": "event"
    },
    {
      "anonymous": false,
      "inputs": [
        {
          "indexed": false,
          "name": "currentStepTokenAmount",
          "type": "uint256"
        },
        {
          "indexed": false,
          "name": "currentStepRaisedETH",
          "type": "uint256"
        }
      ],
      "name": "FundsInfo",
      "type": "event"
    },
    {
      "anonymous": false,
      "inputs": [
        {
          "indexed": false,
          "name": "bpCountdown",
          "type": "uint256"
        },
        {
          "indexed": false,
          "name": "remainingToken",
          "type": "uint256"
        },
        {
          "indexed": false,
          "name": "personalTokenLimited",
          "type": "uint256"
        },
        {
          "indexed": false,
          "name": "totalTokenAmount",
          "type": "uint256"
        }
      ],
      "name": "BuildingPerioInfo",
      "type": "event"
    },
    {
      "anonymous": false,
      "inputs": [
        {
          "indexed": false,
          "name": "fpCountdown",
          "type": "uint256"
        },
        {
          "indexed": false,
          "name": "remainingETH",
          "type": "uint256"
        },
        {
          "indexed": false,
          "name": "rasiedETHAmount",
          "type": "uint256"
        }
      ],
      "name": "FundingPeriodInfo",
      "type": "event"
    },
    {
      "anonymous": false,
      "inputs": [
        {
          "indexed": false,
          "name": "fissionRewardList",
          "type": "address[]"
        },
        {
          "indexed": false,
          "name": "fissionRewardAmount",
          "type": "uint256[]"
        }
      ],
      "name": "FissionRewardInfo",
      "type": "event"
    },
    {
      "anonymous": false,
      "inputs": [
        {
          "indexed": false,
          "name": "FOMORewardList",
          "type": "address[]"
        },
        {
          "indexed": false,
          "name": "FOMORewards",
          "type": "uint256[]"
        }
      ],
      "name": "FOMORewardInfo",
      "type": "event"
    },
    {
      "anonymous": false,
      "inputs": [
        {
          "indexed": false,
          "name": "luckyRewardList",
          "type": "address[]"
        },
        {
          "indexed": false,
          "name": "luckyReward",
          "type": "uint256"
        }
      ],
      "name": "LuckyRewardInfo",
      "type": "event"
    },
    {
      "anonymous": false,
      "inputs": [
        {
          "indexed": false,
          "name": "faithRewardList",
          "type": "address[]"
        },
        {
          "indexed": false,
          "name": "faithRewardAmount",
          "type": "uint256[]"
        }
      ],
      "name": "FaithRewardInfo",
      "type": "event"
    },
    {
      "anonymous": false,
      "inputs": [
        {
          "indexed": false,
          "name": "funder",
          "type": "address"
        },
        {
          "indexed": false,
          "name": "ETHAmount",
          "type": "uint256"
        }
      ],
      "name": "WithdrawAllETH",
      "type": "event"
    },
    {
      "anonymous": false,
      "inputs": [
        {
          "indexed": false,
          "name": "FunderInfoArray",
          "type": "uint256[]"
        },
        {
          "indexed": true,
          "name": "newOwner",
          "type": "address"
        }
      ],
      "name": "FunderInfo",
      "type": "event"
    },
    {
      "constant": false,
      "inputs": [
        {
          "name": "previousOwner",
          "type": "address",
          "indexed": true
        },
        {
          "indexed": true,
          "name": "newOwner",
          "type": "address"
        }
      ],
      "name": "OwnershipTransferred",
      "outputs": [],
      "payable": false,
      "stateMutability": "nonpayable",
      "type": "event",
      "anonymous": false
    },
    {
      "constant": false,
      "inputs": [
        {
          "name": "promoter",
          "type": "address"
        }
      ],
      "name": "toBeFissionPerson",
      "outputs": [],
      "payable": false,
      "stateMutability": "nonpayable",
      "type": "function"
    },
    {
      "constant": false,
      "inputs": [
        {
          "name": "_tokenAmount",
          "type": "uint256"
        }
      ],
      "name": "jointlyBuild",
      "outputs": [],
      "payable": false,
      "stateMutability": "nonpayable",
      "type": "function"
    },
    {
      "constant": false,
      "inputs": [],
      "name": "SettlementStep",
      "outputs": [],
      "payable": false,
      "stateMutability": "nonpayable",
      "type": "function"
    },
    {
      "constant": false,
      "inputs": [],
      "name": "settlementReward",
      "outputs": [],
      "payable": false,
      "stateMutability": "nonpayable",
      "type": "function"
    },
    {
      "constant": false,
      "inputs": [],
      "name": "withdrawAllETH",
      "outputs": [],
      "payable": true,
      "stateMutability": "payable",
      "type": "function"
    },
    {
      "constant": false,
      "inputs": [],
      "name": "withdrawMyReward",
      "outputs": [],
      "payable": false,
      "stateMutability": "nonpayable",
      "type": "function"
    },
    {
      "constant": false,
      "inputs": [],
      "name": "getCurrentStepFundsInfo",
      "outputs": [],
      "payable": false,
      "stateMutability": "nonpayable",
      "type": "function"
    },
    {
      "constant": false,
      "inputs": [
        {
          "name": "_stepIndex",
          "type": "uint256"
        }
      ],
      "name": "getBuildingPerioInfo",
      "outputs": [],
      "payable": false,
      "stateMutability": "nonpayable",
      "type": "function"
    },
    {
      "constant": false,
      "inputs": [
        {
          "name": "_stepIndex",
          "type": "uint256"
        }
      ],
      "name": "getFundingPeriodInfo",
      "outputs": [],
      "payable": false,
      "stateMutability": "nonpayable",
      "type": "function"
    },
    {
      "constant": false,
      "inputs": [
        {
          "name": "_stepIndex",
          "type": "uint256"
        }
      ],
      "name": "getFissionRewardInfo",
      "outputs": [],
      "payable": false,
      "stateMutability": "nonpayable",
      "type": "function"
    },
    {
      "constant": false,
      "inputs": [
        {
          "name": "_stepIndex",
          "type": "uint256"
        }
      ],
      "name": "getFOMORewardIofo",
      "outputs": [],
      "payable": false,
      "stateMutability": "nonpayable",
      "type": "function"
    },
    {
      "constant": false,
      "inputs": [
        {
          "name": "_stepIndex",
          "type": "uint256"
        }
      ],
      "name": "getLuckyRewardInfo",
      "outputs": [
        {
          "name": "",
          "type": "address"
        }
      ],
      "payable": false,
      "stateMutability": "nonpayable",
      "type": "function"
    },
    {
      "constant": false,
      "inputs": [
        {
          "name": "_stepIndex",
          "type": "uint256"
        }
      ],
      "name": "getFaithRewardInfo",
      "outputs": [],
      "payable": false,
      "stateMutability": "nonpayable",
      "type": "function"
    },
    {
      "constant": false,
      "inputs": [],
      "name": "getFunderInfo",
      "outputs": [],
      "payable": false,
      "stateMutability": "nonpayable",
      "type": "function"
    },
    {
      "constant": true,
      "inputs": [],
      "name": "Beneficiary",
      "outputs": [
        {
          "name": "",
          "type": "address"
        }
      ],
      "payable": false,
      "stateMutability": "view",
      "type": "function"
    }
  ],
  "bytecode": "0x60806040526000600560006101000a81548160ff02191690831515021790555034801561002b57600080fd5b5060405160e0806138a4833981018060405260e081101561004b57600080fd5b8101908080519060200190929190805190602001909291908051906020019092919080519060200190929190805190602001909291908051906020019092919080519060200190929190505050336000806101000a81548173ffffffffffffffffffffffffffffffffffffffff021916908373ffffffffffffffffffffffffffffffffffffffff1602179055506000809054906101000a900473ffffffffffffffffffffffffffffffffffffffff1673ffffffffffffffffffffffffffffffffffffffff16600073ffffffffffffffffffffffffffffffffffffffff167f8be0079c531659141344cd1fd0a4f28419497f9722a3daafe3b4186f6b6457e060405160405180910390a386600160006101000a81548173ffffffffffffffffffffffffffffffffffffffff021916908373ffffffffffffffffffffffffffffffffffffffff16021790555084600b60006101000a81548173ffffffffffffffffffffffffffffffffffffffff021916908373ffffffffffffffffffffffffffffffffffffffff16021790555085600360006101000a81548173ffffffffffffffffffffffffffffffffffffffff021916908373ffffffffffffffffffffffffffffffffffffffff1602179055504260048190555083600560016101000a81548173ffffffffffffffffffffffffffffffffffffffff021916908373ffffffffffffffffffffffffffffffffffffffff16021790555082600660006101000a81548173ffffffffffffffffffffffffffffffffffffffff021916908373ffffffffffffffffffffffffffffffffffffffff16021790555081600760006101000a81548173ffffffffffffffffffffffffffffffffffffffff021916908373ffffffffffffffffffffffffffffffffffffffff16021790555080600860006101000a81548173ffffffffffffffffffffffffffffffffffffffff021916908373ffffffffffffffffffffffffffffffffffffffff1602179055505050505050505061356c806103386000396000f3fe608060405260043610610147576000357c0100000000000000000000000000000000000000000000000000000000900480638f32d59b116100c8578063c12cd1bc1161008c578063c12cd1bc14610601578063c23afb8a14610618578063c747c6ef14610653578063de3844ff1461066a578063e7574128146106bb578063f2fde38b1461071257610147565b80638f32d59b1461055f57806390386bbf1461058e578063912c84ec14610598578063a6371829146105af578063b4862a71146105c657610147565b8063715018a61161010f578063715018a61461044857806373d553791461045f57806384641227146104b65780638a18854b146104cd5780638da5cb5b1461050857610147565b80631e7efbc9146103795780633723e1c2146103b457806348b6862e146103ef5780635bc34f711461040657806364ab07fa14610431575b600560009054906101000a900460ff161515156101cc576040517f08c379a00000000000000000000000000000000000000000000000000000000081526004018080602001828103825260128152602001807fe585b1e68cafe5b7b2e7bb8fe7bb93e69d9f000000000000000000000000000081525060200191505060405180910390fd5b6170806004540142101580156101e85750620151806004540142105b151561025c576040517f08c379a00000000000000000000000000000000000000000000000000000000081526004018080602001828103825260128152602001807fe4b88de59ca8e58b9fe8b584e69c9fe58685000000000000000000000000000081525060200191505060405180910390fd5b600034905080600a60095481548110151561027357fe5b90600052602060002090600c020160000160003373ffffffffffffffffffffffffffffffffffffffff1673ffffffffffffffffffffffffffffffffffffffff168152602001908152602001600020600201819055506001600a6009548154811015156102db57fe5b90600052602060002090600c020160000160003373ffffffffffffffffffffffffffffffffffffffff1673ffffffffffffffffffffffffffffffffffffffff16815260200190815260200160002060050160156101000a81548160ff02191690831515021790555080600a60095481548110151561035557fe5b90600052602060002090600c02016005016001016000828254019250508190555050005b34801561038557600080fd5b506103b26004803603602081101561039c57600080fd5b8101908080359060200190929190505050610763565b005b3480156103c057600080fd5b506103ed600480360360208110156103d757600080fd5b810190808035906020019092919050505061080f565b005b3480156103fb57600080fd5b506104046108bb565b005b34801561041257600080fd5b5061041b6108bd565b6040518082815260200191505060405180910390f35b34801561043d57600080fd5b506104466108c3565b005b34801561045457600080fd5b5061045d610ae8565b005b34801561046b57600080fd5b50610474610bba565b604051808273ffffffffffffffffffffffffffffffffffffffff1673ffffffffffffffffffffffffffffffffffffffff16815260200191505060405180910390f35b3480156104c257600080fd5b506104cb610be4565b005b3480156104d957600080fd5b50610506600480360360208110156104f057600080fd5b8101908080359060200190929190505050610c2e565b005b34801561051457600080fd5b5061051d610cda565b604051808273ffffffffffffffffffffffffffffffffffffffff1673ffffffffffffffffffffffffffffffffffffffff16815260200191505060405180910390f35b34801561056b57600080fd5b50610574610d03565b604051808215151515815260200191505060405180910390f35b610596610d5a565b005b3480156105a457600080fd5b506105ad6113cc565b005b3480156105bb57600080fd5b506105c46114dc565b005b3480156105d257600080fd5b506105ff600480360360208110156105e957600080fd5b8101908080359060200190929190505050611c3e565b005b34801561060d57600080fd5b506106166123b7565b005b34801561062457600080fd5b506106516004803603602081101561063b57600080fd5b81019080803590602001909291905050506125ae565b005b34801561065f57600080fd5b5061066861265a565b005b34801561067657600080fd5b506106b96004803603602081101561068d57600080fd5b81019080803573ffffffffffffffffffffffffffffffffffffffff16906020019092919050505061265c565b005b3480156106c757600080fd5b506106d0613137565b604051808273ffffffffffffffffffffffffffffffffffffffff1673ffffffffffffffffffffffffffffffffffffffff16815260200191505060405180910390f35b34801561071e57600080fd5b506107616004803603602081101561073557600080fd5b81019080803573ffffffffffffffffffffffffffffffffffffffff16906020019092919050505061315d565b005b600660009054906101000a900473ffffffffffffffffffffffffffffffffffffffff1673ffffffffffffffffffffffffffffffffffffffff16632889cc07826040518263ffffffff167c010000000000000000000000000000000000000000000000000000000002815260040180828152602001915050600060405180830381600087803b1580156107f457600080fd5b505af1158015610808573d6000803e3d6000fd5b5050505050565b600760009054906101000a900473ffffffffffffffffffffffffffffffffffffffff1673ffffffffffffffffffffffffffffffffffffffff166349327441826040518263ffffffff167c010000000000000000000000000000000000000000000000000000000002815260040180828152602001915050600060405180830381600087803b1580156108a057600080fd5b505af11580156108b4573d6000803e3d6000fd5b5050505050565b565b60095481565b600560009054906101000a900460ff16151515610948576040517f08c379a00000000000000000000000000000000000000000000000000000000081526004018080602001828103825260128152602001807fe585b1e68cafe5b7b2e7bb8fe7bb93e69d9f000000000000000000000000000081525060200191505060405180910390fd5b600454421015801561095f57506170806004540142105b15156109d3576040517f08c379a00000000000000000000000000000000000000000000000000000000081526004018080602001828103825260128152602001807fe4b88de59ca8e585b1e5bbbae69c9fe58685000000000000000000000000000081525060200191505060405180910390fd5b6000806000804261708060045401039350610a41600a6009548154811015156109f857fe5b90600052602060002090600c020160010160010154600a600954815481101515610a1e57fe5b90600052602060002090600c02016001016000015461317c90919063ffffffff16565b9250600a600954815481101515610a5457fe5b90600052602060002090600c0201600101600201549150600a600954815481101515610a7c57fe5b90600052602060002090600c02016001016003015490507fe11de7dbf210471e3fa9c2ce8526b79b1202a34755ab39aa0ee452e2de7dd9e3848484846040518085815260200184815260200183815260200182815260200194505050505060405180910390a150505050565b610af0610d03565b1515610afb57600080fd5b600073ffffffffffffffffffffffffffffffffffffffff166000809054906101000a900473ffffffffffffffffffffffffffffffffffffffff1673ffffffffffffffffffffffffffffffffffffffff167f8be0079c531659141344cd1fd0a4f28419497f9722a3daafe3b4186f6b6457e060405160405180910390a360008060006101000a81548173ffffffffffffffffffffffffffffffffffffffff021916908373ffffffffffffffffffffffffffffffffffffffff160217905550565b6000600360009054906101000a900473ffffffffffffffffffffffffffffffffffffffff16905090565b3373ffffffffffffffffffffffffffffffffffffffff166108fc60009081150290604051600060405180830381858888f19350505050158015610c2b573d6000803e3d6000fd5b50565b600560019054906101000a900473ffffffffffffffffffffffffffffffffffffffff1673ffffffffffffffffffffffffffffffffffffffff1663c79b1245826040518263ffffffff167c010000000000000000000000000000000000000000000000000000000002815260040180828152602001915050600060405180830381600087803b158015610cbf57600080fd5b505af1158015610cd3573d6000803e3d6000fd5b5050505050565b60008060009054906101000a900473ffffffffffffffffffffffffffffffffffffffff16905090565b60008060009054906101000a900473ffffffffffffffffffffffffffffffffffffffff1673ffffffffffffffffffffffffffffffffffffffff163373ffffffffffffffffffffffffffffffffffffffff1614905090565b600a600954815481101515610d6b57fe5b90600052602060002090600c020160000160003373ffffffffffffffffffffffffffffffffffffffff1673ffffffffffffffffffffffffffffffffffffffff16815260200190815260200160002060050160179054906101000a900460ff16151515610e3f576040517f08c379a00000000000000000000000000000000000000000000000000000000081526004018080602001828103825260128152602001807fe5b7b2e7bb8fe68f90e5b881e5ae8ce68890000000000000000000000000000081525060200191505060405180910390fd5b6000600660009054906101000a900473ffffffffffffffffffffffffffffffffffffffff1673ffffffffffffffffffffffffffffffffffffffff1663509b49e9600954336040518363ffffffff167c0100000000000000000000000000000000000000000000000000000000028152600401808381526020018273ffffffffffffffffffffffffffffffffffffffff1673ffffffffffffffffffffffffffffffffffffffff1681526020019250505060206040518083038186803b158015610f0657600080fd5b505afa158015610f1a573d6000803e3d6000fd5b505050506040513d6020811015610f3057600080fd5b810190808051906020019092919050505090506000600760009054906101000a900473ffffffffffffffffffffffffffffffffffffffff1673ffffffffffffffffffffffffffffffffffffffff1663dd572ab9600954336040518363ffffffff167c0100000000000000000000000000000000000000000000000000000000028152600401808381526020018273ffffffffffffffffffffffffffffffffffffffff1673ffffffffffffffffffffffffffffffffffffffff1681526020019250505060206040518083038186803b15801561100a57600080fd5b505afa15801561101e573d6000803e3d6000fd5b505050506040513d602081101561103457600080fd5b810190808051906020019092919050505090506000600860009054906101000a900473ffffffffffffffffffffffffffffffffffffffff1673ffffffffffffffffffffffffffffffffffffffff16638a644430600954336040518363ffffffff167c0100000000000000000000000000000000000000000000000000000000028152600401808381526020018273ffffffffffffffffffffffffffffffffffffffff1673ffffffffffffffffffffffffffffffffffffffff1681526020019250505060206040518083038186803b15801561110e57600080fd5b505afa158015611122573d6000803e3d6000fd5b505050506040513d602081101561113857600080fd5b8101908080519060200190929190505050905061117081611162848661319e90919063ffffffff16565b61319e90919063ffffffff16565b600a60095481548110151561118157fe5b90600052602060002090600c020160000160003373ffffffffffffffffffffffffffffffffffffffff1673ffffffffffffffffffffffffffffffffffffffff168152602001908152602001600020600701819055506001600a6009548154811015156111e957fe5b90600052602060002090600c020160000160003373ffffffffffffffffffffffffffffffffffffffff1673ffffffffffffffffffffffffffffffffffffffff16815260200190815260200160002060050160176101000a81548160ff0219169083151502179055503373ffffffffffffffffffffffffffffffffffffffff166108fc600a60095481548110151561127c57fe5b90600052602060002090600c020160000160003373ffffffffffffffffffffffffffffffffffffffff1673ffffffffffffffffffffffffffffffffffffffff168152602001908152602001600020600701549081150290604051600060405180830381858888f193505050501580156112f9573d6000803e3d6000fd5b507f293d21fe426f090ce1ced07545832d833ba5245d1ca5dab39eedd683bcb26c7133600a60095481548110151561132d57fe5b90600052602060002090600c020160000160003373ffffffffffffffffffffffffffffffffffffffff1673ffffffffffffffffffffffffffffffffffffffff16815260200190815260200160002060070154604051808373ffffffffffffffffffffffffffffffffffffffff1673ffffffffffffffffffffffffffffffffffffffff1681526020018281526020019250505060405180910390a1505050565b600560009054906101000a900460ff16151515611451576040517f08c379a00000000000000000000000000000000000000000000000000000000081526004018080602001828103825260128152602001807fe585b1e68cafe5b7b2e7bb8fe7bb93e69d9f000000000000000000000000000081525060200191505060405180910390fd5b7fefb17818fcd18149842dc8ec26c8d51b1f7cd86669024d8ad385c95727e301b2600a60095481548110151561148357fe5b90600052602060002090600c020160010160000154600a6009548154811015156114a957fe5b90600052602060002090600c020160050160010154604051808381526020018281526020019250505060405180910390a1565b6114e4613479565b600a6009548154811015156114f557fe5b90600052602060002090600c020160000160003373ffffffffffffffffffffffffffffffffffffffff1673ffffffffffffffffffffffffffffffffffffffff16815260200190815260200160002061018060405190810160405290816000820160009054906101000a900473ffffffffffffffffffffffffffffffffffffffff1673ffffffffffffffffffffffffffffffffffffffff1673ffffffffffffffffffffffffffffffffffffffff168152602001600182015481526020016002820154815260200160038201548152602001600482015481526020016005820160009054906101000a900473ffffffffffffffffffffffffffffffffffffffff1673ffffffffffffffffffffffffffffffffffffffff1673ffffffffffffffffffffffffffffffffffffffff1681526020016005820160149054906101000a900460ff161515151581526020016005820160159054906101000a900460ff161515151581526020016005820160169054906101000a900460ff161515151581526020016005820160179054906101000a900460ff1615151515815260200160068201548152602001600782015481525050905060608161014001518160008151811015156116bd57fe5b90602001906020020181815250508161016001518160018151811015156116e057fe5b9060200190602002018181525050816060015181600281518110151561170257fe5b9060200190602002018181525050816080015181600381518110151561172457fe5b9060200190602002018181525050816020015181600481518110151561174657fe5b9060200190602002018181525050816040015181600581518110151561176857fe5b9060200190602002018181525050600760009054906101000a900473ffffffffffffffffffffffffffffffffffffffff1673ffffffffffffffffffffffffffffffffffffffff1663c28a1af3336040518263ffffffff167c0100000000000000000000000000000000000000000000000000000000028152600401808273ffffffffffffffffffffffffffffffffffffffff1673ffffffffffffffffffffffffffffffffffffffff16815260200191505060206040518083038186803b15801561183157600080fd5b505afa158015611845573d6000803e3d6000fd5b505050506040513d602081101561185b57600080fd5b810190808051906020019092919050505081600681518110151561187b57fe5b9060200190602002018181525050600560019054906101000a900473ffffffffffffffffffffffffffffffffffffffff1673ffffffffffffffffffffffffffffffffffffffff16630df2019a336040518263ffffffff167c0100000000000000000000000000000000000000000000000000000000028152600401808273ffffffffffffffffffffffffffffffffffffffff1673ffffffffffffffffffffffffffffffffffffffff16815260200191505060206040518083038186803b15801561194457600080fd5b505afa158015611958573d6000803e3d6000fd5b505050506040513d602081101561196e57600080fd5b810190808051906020019092919050505081600781518110151561198e57fe5b9060200190602002018181525050600660009054906101000a900473ffffffffffffffffffffffffffffffffffffffff1673ffffffffffffffffffffffffffffffffffffffff1663c7535567336040518263ffffffff167c0100000000000000000000000000000000000000000000000000000000028152600401808273ffffffffffffffffffffffffffffffffffffffff1673ffffffffffffffffffffffffffffffffffffffff16815260200191505060206040518083038186803b158015611a5757600080fd5b505afa158015611a6b573d6000803e3d6000fd5b505050506040513d6020811015611a8157600080fd5b8101908080519060200190929190505050816008815181101515611aa157fe5b9060200190602002018181525050600860009054906101000a900473ffffffffffffffffffffffffffffffffffffffff1673ffffffffffffffffffffffffffffffffffffffff1663946cacda336040518263ffffffff167c0100000000000000000000000000000000000000000000000000000000028152600401808273ffffffffffffffffffffffffffffffffffffffff1673ffffffffffffffffffffffffffffffffffffffff16815260200191505060206040518083038186803b158015611b6a57600080fd5b505afa158015611b7e573d6000803e3d6000fd5b505050506040513d6020811015611b9457600080fd5b8101908080519060200190929190505050816009815181101515611bb457fe5b90602001906020020181815250507f04c808a514c1dafc38d056ce8d726701d153e5560559e9a2cbd4a698fc57dbc9816040518080602001828103825283818151815260200191508051906020019060200280838360005b83811015611c27578082015181840152602081019050611c0c565b505050509050019250505060405180910390a15050565b600560009054906101000a900460ff16151515611cc3576040517f08c379a00000000000000000000000000000000000000000000000000000000081526004018080602001828103825260128152602001807fe585b1e68cafe5b7b2e7bb8fe7bb93e69d9f000000000000000000000000000081525060200191505060405180910390fd5b6004544210158015611cda57506170806004540142105b1515611d4e576040517f08c379a00000000000000000000000000000000000000000000000000000000081526004018080602001828103825260128152602001807fe4b88de59ca8e585b1e5bbbae69c9fe58685000000000000000000000000000081525060200191505060405180910390fd5b600a600954815481101515611d5f57fe5b90600052602060002090600c020160000160003373ffffffffffffffffffffffffffffffffffffffff1673ffffffffffffffffffffffffffffffffffffffff16815260200190815260200160002060050160149054906101000a900460ff161515611e15576040517f08c379a00000000000000000000000000000000000000000000000000000000081526004018080602001828103825260318152602001806135106031913960400191505060405180910390fd5b73__UintUtils_____________________________63669dafe8826040518263ffffffff167c01000000000000000000000000000000000000000000000000000000000281526004018082815260200191505060206040518083038186803b158015611e8057600080fd5b505af4158015611e94573d6000803e3d6000fd5b505050506040513d6020811015611eaa57600080fd5b8101908080519060200190929190505050600160009054906101000a900473ffffffffffffffffffffffffffffffffffffffff1673ffffffffffffffffffffffffffffffffffffffff1663dd62ed3e33306040518363ffffffff167c0100000000000000000000000000000000000000000000000000000000028152600401808373ffffffffffffffffffffffffffffffffffffffff1673ffffffffffffffffffffffffffffffffffffffff1681526020018273ffffffffffffffffffffffffffffffffffffffff1673ffffffffffffffffffffffffffffffffffffffff1681526020019250505060206040518083038186803b158015611faa57600080fd5b505afa158015611fbe573d6000803e3d6000fd5b505050506040513d6020811015611fd457600080fd5b81019080805190602001909291905050501015151561205b576040517f08c379a00000000000000000000000000000000000000000000000000000000081526004018080602001828103825260128152602001807fe68e88e69d83e9a29de5baa6e4b88de8b6b3000000000000000000000000000081525060200191505060405180910390fd5b600160009054906101000a900473ffffffffffffffffffffffffffffffffffffffff1673ffffffffffffffffffffffffffffffffffffffff166323b872dd333073__UintUtils_____________________________63669dafe8866040518263ffffffff167c01000000000000000000000000000000000000000000000000000000000281526004018082815260200191505060206040518083038186803b15801561210657600080fd5b505af415801561211a573d6000803e3d6000fd5b505050506040513d602081101561213057600080fd5b81019080805190602001909291905050506040518463ffffffff167c0100000000000000000000000000000000000000000000000000000000028152600401808473ffffffffffffffffffffffffffffffffffffffff1673ffffffffffffffffffffffffffffffffffffffff1681526020018373ffffffffffffffffffffffffffffffffffffffff1673ffffffffffffffffffffffffffffffffffffffff1681526020018281526020019350505050602060405180830381600087803b1580156121f957600080fd5b505af115801561220d573d6000803e3d6000fd5b505050506040513d602081101561222357600080fd5b810190808051906020019092919050505015156122a8576040517f08c379a000000000000000000000000000000000000000000000000000000000815260040180806020018281038252601a8152602001807fe8bdace7a7bb746f6b656ee588b0e59088e7baa6e5a4b1e8b4a500000000000081525060200191505060405180910390fd5b73__UintUtils_____________________________63669dafe8826040518263ffffffff167c01000000000000000000000000000000000000000000000000000000000281526004018082815260200191505060206040518083038186803b15801561231357600080fd5b505af4158015612327573d6000803e3d6000fd5b505050506040513d602081101561233d57600080fd5b8101908080519060200190929190505050600a60095481548110151561235f57fe5b90600052602060002090600c020160000160003373ffffffffffffffffffffffffffffffffffffffff1673ffffffffffffffffffffffffffffffffffffffff1681526020019081526020016000206001018190555050565b600560009054906101000a900460ff1615151561243c576040517f08c379a00000000000000000000000000000000000000000000000000000000081526004018080602001828103825260128152602001807fe585b1e68cafe5b7b2e7bb8fe7bb93e69d9f000000000000000000000000000081525060200191505060405180910390fd5b6170806004540142101580156124585750620151806004540142105b15156124cc576040517f08c379a00000000000000000000000000000000000000000000000000000000081526004018080602001828103825260128152602001807fe4b88de59ca8e58b9fe8b584e69c9fe58685000000000000000000000000000081525060200191505060405180910390fd5b600080600042601860045401039250612538600a6009548154811015156124ef57fe5b90600052602060002090600c020160050160010154600a60095481548110151561251557fe5b90600052602060002090600c02016005016000015461317c90919063ffffffff16565b9150600a60095481548110151561254b57fe5b90600052602060002090600c02016005016001015490507fae8973493d4c3e41a9615da7dbb45a3e85e217ab826ebf232f236520f89ce5bd83838360405180848152602001838152602001828152602001935050505060405180910390a1505050565b600860009054906101000a900473ffffffffffffffffffffffffffffffffffffffff1673ffffffffffffffffffffffffffffffffffffffff166353cb8ba9826040518263ffffffff167c010000000000000000000000000000000000000000000000000000000002815260040180828152602001915050600060405180830381600087803b15801561263f57600080fd5b505af1158015612653573d6000803e3d6000fd5b5050505050565b565b600560009054906101000a900460ff161515156126e1576040517f08c379a00000000000000000000000000000000000000000000000000000000081526004018080602001828103825260128152602001807fe585b1e68cafe5b7b2e7bb8fe7bb93e69d9f000000000000000000000000000081525060200191505060405180910390fd5b60045442101580156126f857506170806004540142105b151561276c576040517f08c379a00000000000000000000000000000000000000000000000000000000081526004018080602001828103825260128152602001807fe4b88de59ca8e585b1e5bbbae69c9fe58685000000000000000000000000000081525060200191505060405180910390fd5b600073ffffffffffffffffffffffffffffffffffffffff168173ffffffffffffffffffffffffffffffffffffffff1614151515612811576040517f08c379a000000000000000000000000000000000000000000000000000000000815260040180806020018281038252601b8152602001807fe68ea8e5b9bfe88085e4b88de883bde698afe7a9bae59cb0e59d80000000000081525060200191505060405180910390fd5b73__UintUtils_____________________________63669dafe860086040518263ffffffff167c01000000000000000000000000000000000000000000000000000000000281526004018082815260200191505060206040518083038186803b15801561287d57600080fd5b505af4158015612891573d6000803e3d6000fd5b505050506040513d60208110156128a757600080fd5b8101908080519060200190929190505050600160009054906101000a900473ffffffffffffffffffffffffffffffffffffffff1673ffffffffffffffffffffffffffffffffffffffff1663dd62ed3e33306040518363ffffffff167c0100000000000000000000000000000000000000000000000000000000028152600401808373ffffffffffffffffffffffffffffffffffffffff1673ffffffffffffffffffffffffffffffffffffffff1681526020018273ffffffffffffffffffffffffffffffffffffffff1673ffffffffffffffffffffffffffffffffffffffff1681526020019250505060206040518083038186803b1580156129a757600080fd5b505afa1580156129bb573d6000803e3d6000fd5b505050506040513d60208110156129d157600080fd5b810190808051906020019092919050505010151515612a58576040517f08c379a00000000000000000000000000000000000000000000000000000000081526004018080602001828103825260128152602001807fe68e88e69d83e9a29de5baa6e4b88de8b6b3000000000000000000000000000081525060200191505060405180910390fd5b600160009054906101000a900473ffffffffffffffffffffffffffffffffffffffff1673ffffffffffffffffffffffffffffffffffffffff166323b872dd333073__UintUtils_____________________________63669dafe860086040518263ffffffff167c01000000000000000000000000000000000000000000000000000000000281526004018082815260200191505060206040518083038186803b158015612b0457600080fd5b505af4158015612b18573d6000803e3d6000fd5b505050506040513d6020811015612b2e57600080fd5b81019080805190602001909291905050506040518463ffffffff167c0100000000000000000000000000000000000000000000000000000000028152600401808473ffffffffffffffffffffffffffffffffffffffff1673ffffffffffffffffffffffffffffffffffffffff1681526020018373ffffffffffffffffffffffffffffffffffffffff1673ffffffffffffffffffffffffffffffffffffffff1681526020018281526020019350505050602060405180830381600087803b158015612bf757600080fd5b505af1158015612c0b573d6000803e3d6000fd5b505050506040513d6020811015612c2157600080fd5b81019080805190602001909291905050501515612ca6576040517f08c379a000000000000000000000000000000000000000000000000000000000815260040180806020018281038252601a8152602001807fe8bdace7a7bb746f6b656ee588b0e59088e7baa6e5a4b1e8b4a500000000000081525060200191505060405180910390fd5b600160009054906101000a900473ffffffffffffffffffffffffffffffffffffffff1673ffffffffffffffffffffffffffffffffffffffff166342966c6873__UintUtils_____________________________63669dafe860036040518263ffffffff167c01000000000000000000000000000000000000000000000000000000000281526004018082815260200191505060206040518083038186803b158015612d5057600080fd5b505af4158015612d64573d6000803e3d6000fd5b505050506040513d6020811015612d7a57600080fd5b81019080805190602001909291905050506040518263ffffffff167c010000000000000000000000000000000000000000000000000000000002815260040180828152602001915050600060405180830381600087803b158015612ddd57600080fd5b505af1158015612df1573d6000803e3d6000fd5b50505050600160009054906101000a900473ffffffffffffffffffffffffffffffffffffffff1673ffffffffffffffffffffffffffffffffffffffff1663a9059cbb8273__UintUtils_____________________________63669dafe860056040518263ffffffff167c01000000000000000000000000000000000000000000000000000000000281526004018082815260200191505060206040518083038186803b158015612ea057600080fd5b505af4158015612eb4573d6000803e3d6000fd5b505050506040513d6020811015612eca57600080fd5b81019080805190602001909291905050506040518363ffffffff167c0100000000000000000000000000000000000000000000000000000000028152600401808373ffffffffffffffffffffffffffffffffffffffff1673ffffffffffffffffffffffffffffffffffffffff16815260200182815260200192505050602060405180830381600087803b158015612f6057600080fd5b505af1158015612f74573d6000803e3d6000fd5b505050506040513d6020811015612f8a57600080fd5b810190808051906020019092919050505050612fa5816131bf565b600560019054906101000a900473ffffffffffffffffffffffffffffffffffffffff1673ffffffffffffffffffffffffffffffffffffffff1663e23613e960095483600b60009054906101000a900473ffffffffffffffffffffffffffffffffffffffff166040518463ffffffff167c0100000000000000000000000000000000000000000000000000000000028152600401808481526020018373ffffffffffffffffffffffffffffffffffffffff1673ffffffffffffffffffffffffffffffffffffffff1681526020018273ffffffffffffffffffffffffffffffffffffffff1673ffffffffffffffffffffffffffffffffffffffff1681526020019350505050600060405180830381600087803b1580156130c257600080fd5b505af11580156130d6573d6000803e3d6000fd5b505050508073ffffffffffffffffffffffffffffffffffffffff163373ffffffffffffffffffffffffffffffffffffffff167f95b9b14e81807a19f0d780820ad803eba32584f0671e1410f6815a83e75d4ef760405160405180910390a350565b600160009054906101000a900473ffffffffffffffffffffffffffffffffffffffff1681565b613165610d03565b151561317057600080fd5b6131798161337f565b50565b600082821115151561318d57600080fd5b600082840390508091505092915050565b60008082840190508381101515156131b557600080fd5b8091505092915050565b33600a6009548154811015156131d157fe5b90600052602060002090600c020160000160003373ffffffffffffffffffffffffffffffffffffffff1673ffffffffffffffffffffffffffffffffffffffff16815260200190815260200160002060000160006101000a81548173ffffffffffffffffffffffffffffffffffffffff021916908373ffffffffffffffffffffffffffffffffffffffff16021790555080600a60095481548110151561327257fe5b90600052602060002090600c020160000160003373ffffffffffffffffffffffffffffffffffffffff1673ffffffffffffffffffffffffffffffffffffffff16815260200190815260200160002060050160006101000a81548173ffffffffffffffffffffffffffffffffffffffff021916908373ffffffffffffffffffffffffffffffffffffffff1602179055506001600a60095481548110151561331457fe5b90600052602060002090600c020160000160003373ffffffffffffffffffffffffffffffffffffffff1673ffffffffffffffffffffffffffffffffffffffff16815260200190815260200160002060050160146101000a81548160ff02191690831515021790555050565b600073ffffffffffffffffffffffffffffffffffffffff168173ffffffffffffffffffffffffffffffffffffffff16141515156133bb57600080fd5b8073ffffffffffffffffffffffffffffffffffffffff166000809054906101000a900473ffffffffffffffffffffffffffffffffffffffff1673ffffffffffffffffffffffffffffffffffffffff167f8be0079c531659141344cd1fd0a4f28419497f9722a3daafe3b4186f6b6457e060405160405180910390a3806000806101000a81548173ffffffffffffffffffffffffffffffffffffffff021916908373ffffffffffffffffffffffffffffffffffffffff16021790555050565b61018060405190810160405280600073ffffffffffffffffffffffffffffffffffffffff16815260200160008152602001600081526020016000815260200160008152602001600073ffffffffffffffffffffffffffffffffffffffff1681526020016000151581526020016000151581526020016000151581526020016000151581526020016000815260200160008152509056fee8b083e794a8e88085e4b88de698afe7bb84e5bbbae880852fe8a382e58f98e88085efbc8ce6b2a1e69c89e69d83e99990a165627a7a723058206e6fe2cbda12c8b69b7a8419e2f383f1604f8867fdeb4683736e8e81eaaff3500029",
  "source": "pragma solidity >=0.4.21 <0.6.0;\n\nimport \"../node_modules/openzeppelin-solidity/contracts/math/SafeMath.sol\";\nimport \"../node_modules/openzeppelin-solidity/contracts/ownership/Ownable.sol\";\nimport \"./ABCToken.sol\";\nimport \"./UintUtils.sol\";\nimport \"./FissionReward.sol\";\nimport \"./FOMOReward.sol\";\nimport \"./LuckyReward.sol\";\nimport \"./FaithReward.sol\";\n\n// TODO:token()\ncontract Resonance is Ownable{\n\n    using SafeMath for uint256;\n\n    // \n    // \n    event ToBeFissionPerson(address indexed fissionPerson, address indexed promoter);\n\n    event FundsInfo(uint256 currentStepTokenAmount, uint256 currentStepRaisedETH);\n    event BuildingPerioInfo(uint256 bpCountdown, uint256 remainingToken, uint256 personalTokenLimited, uint256 totalTokenAmount);\n    event FundingPeriodInfo(uint256 fpCountdown, uint256 remainingETH, uint256 rasiedETHAmount);\n\n    // \n    event FissionRewardInfo(address[] fissionRewardList, uint256[] fissionRewardAmount);\n    event FOMORewardInfo(address[] FOMORewardList, uint256[] FOMORewards);\n    event LuckyRewardInfo(address[] luckyRewardList, uint256 luckyReward);\n    event FaithRewardInfo(address[] faithRewardList, uint256[] faithRewardAmount);\n\n    event WithdrawAllETH(address funder, uint256 ETHAmount);\n\n    event FunderInfo(uint256[] FunderInfoArray);\n\n    // \n    modifier softCapReached(){\n        require(steps[currentStep].funding.raisedETH >= steps[currentStep].softCap, \"\");\n        _;\n    }\n\n    // \n    modifier hardCapReached(){\n        require(steps[currentStep].funding.raisedETH < steps[currentStep].hardCap, \"\");\n        _;\n    }\n\n    // \n    modifier isBuildingPeriod() {\n        require(block.timestamp >= openingTime && block.timestamp < openingTime + 8 hours, \"\");\n        _;\n    }\n\n    // \n    modifier isFundingPeriod() {\n        require(block.timestamp >= openingTime + 8 hours && block.timestamp < openingTime + 24 hours, \"\");\n        _;\n    }\n\n    // \n    modifier isBuilder() {\n        require(steps[currentStep].funders[msg.sender].isBuilder, \"/\");\n        _;\n    }\n\n    // \n    modifier isFunder() {\n        require(steps[currentStep].funders[msg.sender].isFunder, \"\");\n        _;\n    }\n\n    // \n    modifier crowdsaleIsRunning() {\n        require(!crowdsaleClosed, \"\");\n        _;\n    }\n\n    // \n    ABCToken public abcToken;\n\n    // \n    uint256 private fundsPool;\n\n    // 60%\n    address payable private beneficiary;\n\n    // \n    uint256 private openingTime;\n\n    bool crowdsaleClosed = false;   //  \n\n    //  affman\n    struct Affman{\n        address promoterAddr; // \n        uint256 affIncome; // \n    }\n\n    // \n    struct Funder{\n        address funderAddr; // \n        uint256 tokenAmount; // token\n        uint256 ethAmount; // eth\n        uint256 inviteesNumber; // \n        uint256 earnFormAff; // \n        address promoter; // \n        bool isBuilder; // /\n        bool isFunder; // \n        bool tokenHasWithdrawn; // Token\n        bool ETHHasWithdrawn; // ETH\n        uint256 tokenBalance; // Token\n        uint256 ETHBalance; // ETH\n    }\n\n    // \n    struct Building{\n        uint256 tokenAmount; // Token\n        uint256 raisedToken; // token\n        uint256 personalTokenLimited;// token\n        uint256 raisedTokenAmount; // Token\n    }\n\n    // \n    struct Funding{\n        uint256 ETHAmount; // ETH\n        uint256 raisedETH; // ETH\n    }\n\n    FissionReward fissionRewardInstance;\n    FOMOReward FOMORewardInstance;\n    LuckyReward luckyRewardInstance;\n    FaithReward faithRewardInstance;\n\n    // \n    struct Step{\n        mapping(address => Funder) funders;// \n        Building building; // \n        Funding funding; // \n        uint256 upperLimit; // \n        uint256 softCap; // \n        uint256 hardCap; // \n        uint256 rate; // \n        bool stepIsClosed; // \n    }\n\n    uint256 public currentStep;\n\n    Step[] steps;\n\n    address initialFissionPerson; // \n\n    // mapping\n    // TODO:,\n    // Step[] public steps;\n    // mapping(uint256 => Step) steps;\n\n    // \n    /// @notice \n    /// @param _abcToken Token\n    /// @param _beneficiary \n    /// @param _initialFissionPerson \n    constructor(\n        ABCToken _abcToken,\n        address payable _beneficiary,\n        address _initialFissionPerson,\n        address _fassionRewardAddress,\n        address _FOMORewardAddress,\n        address _luckyRewardAddress,\n        address _faithRewardAddress\n    )\n        public\n    {\n        abcToken = _abcToken; // abc Token\n        initialFissionPerson = _initialFissionPerson; // \n        beneficiary = _beneficiary; // \n        openingTime = block.timestamp; // \n\n        // \n        fissionRewardInstance = FissionReward(_fassionRewardAddress);\n        FOMORewardInstance = FOMOReward(_FOMORewardAddress);\n        luckyRewardInstance = LuckyReward(_luckyRewardAddress);\n        faithRewardInstance = FaithReward(_faithRewardAddress);\n    }\n\n    /// @notice \n    /// @param promoter \n    /// @dev TokenApprove\n    function toBeFissionPerson(\n        address promoter\n    )\n        public\n        crowdsaleIsRunning()\n        isBuildingPeriod()\n    {\n        require(promoter != address(0), \"\");\n\n        // \n        require(abcToken.allowance(msg.sender, address(this)) >= UintUtils.toWei(8),\"\");\n\n        require(abcToken.transferFrom(msg.sender,address(this), UintUtils.toWei(8)),\"token\");\n\n        // 3\n        abcToken.burn(UintUtils.toWei(3));\n\n        // 5\n        abcToken.transfer(address(promoter), UintUtils.toWei(5));\n\n        // \n        _addBuilder(promoter);\n\n        fissionRewardInstance.addAffman(currentStep, promoter, initialFissionPerson);\n\n        emit ToBeFissionPerson(msg.sender, promoter);\n    }\n\n    // token\n    function jointlyBuild(\n        uint256 _tokenAmount\n    )\n        public\n        crowdsaleIsRunning()\n        isBuildingPeriod()\n        isBuilder()\n    {\n        // \n        require(abcToken.allowance(msg.sender, address(this)) >= UintUtils.toWei(_tokenAmount),\"\");\n        // \n        require(abcToken.transferFrom(msg.sender,address(this), UintUtils.toWei(_tokenAmount)),\"token\");\n        steps[currentStep].funders[msg.sender].tokenAmount = UintUtils.toWei(_tokenAmount);\n    }\n\n    // \n    // \n    function ()\n        external\n        payable\n        crowdsaleIsRunning()\n        isFundingPeriod()\n    {\n        uint amount = msg.value;\n        steps[currentStep].funders[msg.sender].ethAmount = amount;\n        steps[currentStep].funders[msg.sender].isFunder = true;\n        steps[currentStep].funding.raisedETH += amount;\n    }\n\n    // \n    function SettlementStep() \n        public\n    {\n\n        // \n        // \n\n    }\n\n    // \n    // \n    // 1.  2.\n    /// @dev \n    function _crowdsaleIsClosed()\n        internal\n        returns(bool)\n    {\n        // 1.\n        if(UintUtils.toWei(steps[currentStep].funding.raisedETH) < UintUtils.toWei(steps[currentStep].softCap)) {\n            crowdsaleClosed = true;\n\n            // Token\n            _withdrawRemainingToken();\n        }\n\n        // TODO:\n        // 2.\n        if(fundsPool == 0) {\n            crowdsaleClosed = true;\n        }\n\n        return crowdsaleClosed;\n    }\n\n    /// @notice Token\n    function _withdrawRemainingToken()\n        internal\n        onlyOwner()\n        returns(bool)\n    {\n        abcToken.transfer(owner(), UintUtils.toWei(fundsPool));\n    }\n\n    /// @notice TODO:\n    /// @dev \n    // \n    // \n    function settlementReward()\n        public\n    {\n        // \n        // \n        // _settlementFissionReward();\n        // _settlementFOMOReward();\n        // _settlementLuckyReward();\n        // _settlementFaithReward();\n    }\n\n    /// @notice funderETH\n    /// @dev ETH\n    function withdrawAllETH() public payable{\n        require(!steps[currentStep].funders[msg.sender].ETHHasWithdrawn, \"\");\n\n        uint256 amountOfFOMO = FOMORewardInstance.FOMORewardAmount(currentStep, msg.sender);\n        uint256 amountOfLucky = luckyRewardInstance.luckyRewardAmount(currentStep, msg.sender);\n        uint256 amountOfFaith = faithRewardInstance.faithRewardAmount(currentStep, msg.sender);\n\n        steps[currentStep].funders[msg.sender].ETHBalance = amountOfFOMO.add(amountOfLucky).add(amountOfFaith);\n        steps[currentStep].funders[msg.sender].ETHHasWithdrawn = true;\n        msg.sender.transfer(steps[currentStep].funders[msg.sender].ETHBalance);\n\n        emit WithdrawAllETH(msg.sender, steps[currentStep].funders[msg.sender].ETHBalance);\n    }\n\n    // \n    function _settlementFissionReward(uint256 _stepIndex, address[] memory _fissionRewardList, uint256 totalFissionReward) internal {\n        fissionRewardInstance.dealFissionInfo(_stepIndex, _fissionRewardList, totalFissionReward);\n    }\n\n    // FOMO\n    function _settlementFOMOReward(uint256 _stepIndex, address[] memory _funders, uint256 _totalFOMOReward) internal {\n        FOMORewardInstance.dealFOMOWinner(_stepIndex, _funders, _totalFOMOReward);\n    }\n\n    // \n    function _settlementLuckyReward(uint256 _stepIndex, address[] memory _funders, uint256 _totalLyckyReward, uint256 _lockedBlockNum) internal {\n        luckyRewardInstance.dealLuckyInfo(_stepIndex, _funders, _totalLyckyReward, _lockedBlockNum);\n    }\n\n    // \n    function _settlementFaithReward(uint256 _stepIndex, address[10] memory _faithWinners, uint256 _totalFaithReward) internal {\n        faithRewardInstance.dealFaithWinner(_stepIndex, _faithWinners, _totalFaithReward);\n    }\n\n    /// @notice \n    function withdrawMyReward()\n        public\n    {\n        msg.sender.transfer(0);\n    }\n\n    /// @notice tokenETH\n    function getCurrentStepFundsInfo()\n        public\n        crowdsaleIsRunning()\n    {\n        emit FundsInfo(steps[currentStep].building.tokenAmount, steps[currentStep].funding.raisedETH);\n    }\n\n    /// @notice \n    function getBuildingPerioInfo()\n        public\n        crowdsaleIsRunning()\n        isBuildingPeriod()\n    {\n        uint256 _bpCountdown;\n        uint256 _remainingToken;\n        uint256 _personalTokenLimited;\n        uint256 _totalTokenAmount;\n\n        _bpCountdown = (openingTime + 8 hours) - block.timestamp;\n        _remainingToken = steps[currentStep].building.tokenAmount.sub(steps[currentStep].building.raisedToken);\n        _personalTokenLimited = steps[currentStep].building.personalTokenLimited;\n        _totalTokenAmount = steps[currentStep].building.raisedTokenAmount;\n        emit BuildingPerioInfo(_bpCountdown, _remainingToken, _personalTokenLimited, _totalTokenAmount);\n    }\n\n    // \n    function getFundingPeriodInfo()\n        public\n        crowdsaleIsRunning()\n        isFundingPeriod()\n    {\n        uint256 _fpCountdown;\n        uint256 _remainingETH;\n        uint256 _rasiedETHAmount;\n\n        _fpCountdown = (openingTime + 24) - block.timestamp;\n        _remainingETH = steps[currentStep].funding.ETHAmount.sub(steps[currentStep].funding.raisedETH);\n        _rasiedETHAmount = steps[currentStep].funding.raisedETH;\n        emit FundingPeriodInfo(_fpCountdown, _remainingETH, _rasiedETHAmount);\n    }\n\n    /// @notice \n    /// @dev \n    /// @param _stepIndex \n    function getFissionRewardInfo(uint256 _stepIndex)\n        public\n    {\n        fissionRewardInstance.getFissionInfo(_stepIndex);\n    }\n\n    /// @notice FOMO\n    /// @dev FOMO\n    /// @param _stepIndex \n    function getFOMORewardIofo(uint256 _stepIndex)\n        public\n    {\n        FOMORewardInstance.getFOMOWinnerInfo(_stepIndex);\n    }\n\n    /// @notice \n    /// @dev \n    /// @param _stepIndex \n    function getLuckyRewardInfo(uint256 _stepIndex)\n        public\n    {\n        luckyRewardInstance.getLuckyInfo(_stepIndex);\n    }\n\n    /// @notice \n    /// @dev \n    /// @param _stepIndex \n    function getFaithRewardInfo(uint256 _stepIndex)\n        public\n    {\n        faithRewardInstance.getFaithWinnerInfo(_stepIndex);\n    }\n\n    /// @notice \n    function getFunderInfo() public {\n        Funder memory funder = steps[currentStep].funders[msg.sender];\n\n        uint256[] memory funderInfo;\n\n        funderInfo[0] = funder.tokenBalance;\n        funderInfo[1] = funder.ETHBalance;\n        funderInfo[2] = funder.inviteesNumber;\n        funderInfo[3] = funder.earnFormAff;\n        funderInfo[4] = funder.tokenAmount;\n        funderInfo[5] = funder.ethAmount;\n        funderInfo[6] = luckyRewardInstance.luckyFunderTotalBalance(msg.sender);\n        funderInfo[7] = fissionRewardInstance.fissionFunderTotalBalance(msg.sender);\n        funderInfo[8] = FOMORewardInstance.FOMOFunderTotalBalance(msg.sender);\n        funderInfo[9] = faithRewardInstance.faithFunderTotalBalance(msg.sender);\n\n        emit FunderInfo(funderInfo);\n    }\n\n    /// @notice \n    /// @param _promoter msg.sender\n    function _addBuilder(address _promoter) internal {\n        // \n        steps[currentStep].funders[msg.sender].funderAddr = msg.sender;\n        steps[currentStep].funders[msg.sender].promoter = _promoter;\n        steps[currentStep].funders[msg.sender].isBuilder = true;\n    }\n\n    // \n    function Beneficiary() public view returns(address payable) {\n        return beneficiary;\n    }\n\n    // ETH\n    function _forwardFunds() internal {\n        // 60%\n        beneficiary.transfer(steps[currentStep].funding.raisedETH.mul(60).div(100));\n    }\n\n    // TODO:\n    // function _quickSort(Affman[] storage arr, uint left, uint right) internal {\n    //     uint i = left;\n    //     uint j = right;\n    //     uint pivot = arr[left + (right - left) / 2].affIncome;\n    //     while (i <= j) {\n    //         while (arr[i].affIncome < pivot) i++;\n    //         while (pivot < arr[j].affIncome) j--;\n    //         if (i <= j) {\n    //             (arr[i], arr[j]) = (arr[j], arr[i]);\n    //             i++;\n    //             j--;\n    //         }\n    //     }\n    //     if (left < j)\n    //         _quickSort(arr, left, j);\n    //     if (i < right)\n    //         _quickSort(arr, i, right);\n    // }\n\n}",
  "sourcePath": "/Users/a186r/dev/contracts/contract/contract/contracts/Resonance.sol",
  "compiler": {
    "name": "solc",
    "version": "0.5.2+commit.1df8f40c.Emscripten.clang"
  },
  "schemaVersion": "3.0.9",
  "updatedAt": "2019-05-20T17:09:22.416Z",
  "devdoc": {
    "methods": {
      "constructor": {
        "params": {
          "_abcToken": "Token",
          "_beneficiary": "",
          "_initialFissionPerson": ""
        }
      },
      "getFOMORewardIofo(uint256)": {
        "details": "FOMO",
        "params": {
          "_stepIndex": ""
        }
      },
      "getFaithRewardInfo(uint256)": {
        "details": "",
        "params": {
          "_stepIndex": ""
        }
      },
      "getFissionRewardInfo(uint256)": {
        "details": "",
        "params": {
          "_stepIndex": ""
        }
      },
      "getLuckyRewardInfo(uint256)": {
        "details": "",
        "params": {
          "_stepIndex": ""
        }
      },
      "isOwner()": {
        "return": "true if `msg.sender` is the owner of the contract."
      },
      "owner()": {
        "return": "the address of the owner."
      },
      "renounceOwnership()": {
        "details": "Allows the current owner to relinquish control of the contract. It will not be possible to call the functions with the `onlyOwner` modifier anymore."
      },
      "settlementReward()": {
        "details": ""
      },
      "toBeFissionPerson(address)": {
        "details": "TokenApprove",
        "params": {
          "_promoter": "",
          "promoter": ""
        }
      },
      "transferOwnership(address)": {
        "details": "Allows the current owner to transfer control of the contract to a newOwner.",
        "params": {
          "newOwner": "The address to transfer ownership to."
        }
      },
      "withdrawAllETH()": {
        "details": "ETH"
      }
    }
  },
  "userdoc": {
    "methods": {
      "constructor": "",
      "getFOMORewardIofo(uint256)": {
        "notice": "FOMO"
      },
      "getFaithRewardInfo(uint256)": {
        "notice": ""
      },
      "getFissionRewardInfo(uint256)": {
        "notice": ""
      },
      "getLuckyRewardInfo(uint256)": {
        "notice": ""
      },
      "renounceOwnership()": {
        "notice": "Renouncing ownership will leave the contract without an owner, thereby removing any functionality that is only available to the owner."
      },
      "settlementReward()": {
        "notice": "TODO:"
      },
      "toBeFissionPerson(address)": {
        "notice": ""
      },
      "withdrawAllETH()": {
        "notice": "funderETH"
      },
      "getBuildingPerioInfo()": {
        "notice": ""
      },
      "getCurrentStepFundsInfo()": {
        "notice": "tokenETH"
      },
      "getFunderInfo()": {
        "notice": ""
      },
      "withdrawMyReward()": {
        "notice": ""
      }
    }
  }
}