{
  "contractName": "ResonanceDataManage",
  "abi": [
    {
      "constant": true,
      "inputs": [
        {
          "name": "",
          "type": "address"
        }
      ],
      "name": "accessAllowed",
      "outputs": [
        {
          "name": "",
          "type": "bool"
        }
      ],
      "payable": false,
      "stateMutability": "view",
      "type": "function"
    },
    {
      "constant": true,
      "inputs": [],
      "name": "fundsPool",
      "outputs": [
        {
          "name": "",
          "type": "uint256"
        }
      ],
      "payable": false,
      "stateMutability": "view",
      "type": "function"
    },
    {
      "constant": true,
      "inputs": [],
      "name": "openingTime",
      "outputs": [
        {
          "name": "",
          "type": "uint256"
        }
      ],
      "payable": false,
      "stateMutability": "view",
      "type": "function"
    },
    {
      "inputs": [
        {
          "name": "_fassionRewardAddress",
          "type": "address"
        },
        {
          "name": "_FOMORewardAddress",
          "type": "address"
        },
        {
          "name": "_luckyRewardAddress",
          "type": "address"
        },
        {
          "name": "_faithRewardAddress",
          "type": "address"
        }
      ],
      "payable": false,
      "stateMutability": "nonpayable",
      "type": "constructor"
    },
    {
      "anonymous": false,
      "inputs": [
        {
          "indexed": true,
          "name": "",
          "type": "address"
        }
      ],
      "name": "AllowAccess",
      "type": "event"
    },
    {
      "constant": false,
      "inputs": [],
      "name": "setParamForFirstStep",
      "outputs": [],
      "payable": false,
      "stateMutability": "nonpayable",
      "type": "function"
    },
    {
      "constant": false,
      "inputs": [
        {
          "name": "_addr",
          "type": "address"
        }
      ],
      "name": "allowAccess",
      "outputs": [],
      "payable": false,
      "stateMutability": "nonpayable",
      "type": "function"
    },
    {
      "constant": false,
      "inputs": [
        {
          "name": "_addr",
          "type": "address"
        }
      ],
      "name": "denyAccess",
      "outputs": [],
      "payable": false,
      "stateMutability": "nonpayable",
      "type": "function"
    },
    {
      "constant": false,
      "inputs": [
        {
          "name": "_fundsPool",
          "type": "uint256"
        }
      ],
      "name": "setFundsPool",
      "outputs": [],
      "payable": false,
      "stateMutability": "nonpayable",
      "type": "function"
    },
    {
      "constant": true,
      "inputs": [],
      "name": "getFundsPool",
      "outputs": [
        {
          "name": "",
          "type": "uint256"
        }
      ],
      "payable": false,
      "stateMutability": "view",
      "type": "function"
    },
    {
      "constant": false,
      "inputs": [
        {
          "name": "_openingTime",
          "type": "uint256"
        }
      ],
      "name": "setOpeningTime",
      "outputs": [],
      "payable": false,
      "stateMutability": "nonpayable",
      "type": "function"
    },
    {
      "constant": true,
      "inputs": [],
      "name": "getOpeningTime",
      "outputs": [
        {
          "name": "",
          "type": "uint256"
        }
      ],
      "payable": false,
      "stateMutability": "view",
      "type": "function"
    },
    {
      "constant": false,
      "inputs": [
        {
          "name": "_crowdsaleClosed",
          "type": "bool"
        }
      ],
      "name": "setCrowdsaleClosed",
      "outputs": [],
      "payable": false,
      "stateMutability": "nonpayable",
      "type": "function"
    },
    {
      "constant": true,
      "inputs": [],
      "name": "getCrowdsaleClosed",
      "outputs": [
        {
          "name": "",
          "type": "bool"
        }
      ],
      "payable": false,
      "stateMutability": "view",
      "type": "function"
    },
    {
      "constant": true,
      "inputs": [
        {
          "name": "_stepIndex",
          "type": "uint256"
        },
        {
          "name": "_addr",
          "type": "address"
        }
      ],
      "name": "getETHBalance",
      "outputs": [
        {
          "name": "",
          "type": "uint256"
        }
      ],
      "payable": false,
      "stateMutability": "view",
      "type": "function"
    },
    {
      "constant": false,
      "inputs": [
        {
          "name": "_stepIndex",
          "type": "uint256"
        },
        {
          "name": "_addr",
          "type": "address"
        },
        {
          "name": "_amount",
          "type": "uint256"
        }
      ],
      "name": "setETHBalance",
      "outputs": [],
      "payable": false,
      "stateMutability": "nonpayable",
      "type": "function"
    },
    {
      "constant": true,
      "inputs": [
        {
          "name": "_stepIndex",
          "type": "uint256"
        },
        {
          "name": "_addr",
          "type": "address"
        }
      ],
      "name": "getTokenBalance",
      "outputs": [
        {
          "name": "",
          "type": "uint256"
        }
      ],
      "payable": false,
      "stateMutability": "view",
      "type": "function"
    },
    {
      "constant": false,
      "inputs": [
        {
          "name": "_stepIndex",
          "type": "uint256"
        },
        {
          "name": "_addr",
          "type": "address"
        },
        {
          "name": "_amount",
          "type": "uint256"
        }
      ],
      "name": "setTokenBalance",
      "outputs": [],
      "payable": false,
      "stateMutability": "nonpayable",
      "type": "function"
    },
    {
      "constant": true,
      "inputs": [],
      "name": "getBuildingTokenAmount",
      "outputs": [
        {
          "name": "",
          "type": "uint256"
        }
      ],
      "payable": false,
      "stateMutability": "view",
      "type": "function"
    },
    {
      "constant": true,
      "inputs": [],
      "name": "isBuildingPeriod",
      "outputs": [
        {
          "name": "",
          "type": "bool"
        }
      ],
      "payable": false,
      "stateMutability": "view",
      "type": "function"
    },
    {
      "constant": true,
      "inputs": [],
      "name": "isFundingPeriod",
      "outputs": [
        {
          "name": "",
          "type": "bool"
        }
      ],
      "payable": false,
      "stateMutability": "view",
      "type": "function"
    },
    {
      "constant": false,
      "inputs": [
        {
          "name": "stepIndex",
          "type": "uint256"
        },
        {
          "name": "raisedETH",
          "type": "uint256"
        },
        {
          "name": "softCap",
          "type": "uint256"
        }
      ],
      "name": "crowdsaleIsClosed",
      "outputs": [
        {
          "name": "",
          "type": "bool"
        }
      ],
      "payable": false,
      "stateMutability": "nonpayable",
      "type": "function"
    },
    {
      "constant": true,
      "inputs": [],
      "name": "getResonanceClosedStep",
      "outputs": [
        {
          "name": "",
          "type": "uint256"
        }
      ],
      "payable": false,
      "stateMutability": "view",
      "type": "function"
    },
    {
      "constant": true,
      "inputs": [],
      "name": "getResonanceIsClosed",
      "outputs": [
        {
          "name": "",
          "type": "bool"
        }
      ],
      "payable": false,
      "stateMutability": "view",
      "type": "function"
    },
    {
      "constant": false,
      "inputs": [
        {
          "name": "_stepIndex",
          "type": "uint256"
        },
        {
          "name": "_fissionWinnerList",
          "type": "address[]"
        },
        {
          "name": "totalFissionReward",
          "type": "uint256"
        }
      ],
      "name": "settlementFissionReward",
      "outputs": [],
      "payable": false,
      "stateMutability": "nonpayable",
      "type": "function"
    },
    {
      "constant": false,
      "inputs": [
        {
          "name": "_stepIndex",
          "type": "uint256"
        },
        {
          "name": "_funders",
          "type": "address[]"
        },
        {
          "name": "totalFOMOReward",
          "type": "uint256"
        }
      ],
      "name": "settlementFOMOReward",
      "outputs": [],
      "payable": false,
      "stateMutability": "nonpayable",
      "type": "function"
    },
    {
      "constant": false,
      "inputs": [
        {
          "name": "_stepIndex",
          "type": "uint256"
        },
        {
          "name": "_LuckyWinnerList",
          "type": "address[]"
        },
        {
          "name": "totalLuckyReward",
          "type": "uint256"
        }
      ],
      "name": "settlementLuckyReward",
      "outputs": [],
      "payable": false,
      "stateMutability": "nonpayable",
      "type": "function"
    },
    {
      "constant": false,
      "inputs": [
        {
          "name": "_faithWinners",
          "type": "address[]"
        },
        {
          "name": "totalFaithReward",
          "type": "uint256"
        }
      ],
      "name": "dmSettlementFaithReward",
      "outputs": [
        {
          "name": "",
          "type": "bool"
        }
      ],
      "payable": false,
      "stateMutability": "nonpayable",
      "type": "function"
    },
    {
      "constant": true,
      "inputs": [
        {
          "name": "_addr",
          "type": "address"
        }
      ],
      "name": "getFaithRewardBalance",
      "outputs": [
        {
          "name": "",
          "type": "uint256"
        }
      ],
      "payable": false,
      "stateMutability": "view",
      "type": "function"
    },
    {
      "constant": false,
      "inputs": [
        {
          "name": "_addr",
          "type": "address"
        },
        {
          "name": "_amount",
          "type": "uint256"
        }
      ],
      "name": "setFaithRewardBalance",
      "outputs": [
        {
          "name": "",
          "type": "uint256"
        }
      ],
      "payable": false,
      "stateMutability": "nonpayable",
      "type": "function"
    },
    {
      "constant": true,
      "inputs": [
        {
          "name": "_stepIndex",
          "type": "uint256"
        },
        {
          "name": "_addr",
          "type": "address"
        }
      ],
      "name": "withdrawTokenAmount",
      "outputs": [
        {
          "name": "",
          "type": "uint256"
        }
      ],
      "payable": false,
      "stateMutability": "view",
      "type": "function"
    },
    {
      "constant": true,
      "inputs": [
        {
          "name": "_stepIndex",
          "type": "uint256"
        },
        {
          "name": "_addr",
          "type": "address"
        }
      ],
      "name": "withdrawETHAmount",
      "outputs": [
        {
          "name": "",
          "type": "uint256"
        }
      ],
      "payable": false,
      "stateMutability": "view",
      "type": "function"
    },
    {
      "constant": false,
      "inputs": [
        {
          "name": "_stepIndex",
          "type": "uint256"
        },
        {
          "name": "_addr",
          "type": "address"
        }
      ],
      "name": "emptyTokenBalance",
      "outputs": [],
      "payable": false,
      "stateMutability": "nonpayable",
      "type": "function"
    },
    {
      "constant": false,
      "inputs": [
        {
          "name": "_stepIndex",
          "type": "uint256"
        },
        {
          "name": "_addr",
          "type": "address"
        }
      ],
      "name": "emptyETHBalance",
      "outputs": [],
      "payable": false,
      "stateMutability": "nonpayable",
      "type": "function"
    },
    {
      "constant": true,
      "inputs": [
        {
          "name": "_stepIndex",
          "type": "uint256"
        }
      ],
      "name": "getFissionRewardInfo",
      "outputs": [
        {
          "name": "",
          "type": "uint256"
        },
        {
          "name": "",
          "type": "address[]"
        },
        {
          "name": "",
          "type": "uint256[]"
        }
      ],
      "payable": false,
      "stateMutability": "view",
      "type": "function"
    },
    {
      "constant": true,
      "inputs": [
        {
          "name": "_stepIndex",
          "type": "uint256"
        }
      ],
      "name": "getFOMORewardIofo",
      "outputs": [
        {
          "name": "",
          "type": "uint256"
        },
        {
          "name": "",
          "type": "address[]"
        },
        {
          "name": "",
          "type": "uint256[]"
        }
      ],
      "payable": false,
      "stateMutability": "view",
      "type": "function"
    },
    {
      "constant": true,
      "inputs": [
        {
          "name": "_stepIndex",
          "type": "uint256"
        }
      ],
      "name": "getLuckyRewardInfo",
      "outputs": [
        {
          "name": "",
          "type": "uint256"
        },
        {
          "name": "",
          "type": "address[]"
        },
        {
          "name": "",
          "type": "uint256"
        }
      ],
      "payable": false,
      "stateMutability": "view",
      "type": "function"
    },
    {
      "constant": true,
      "inputs": [],
      "name": "getFaithRewardInfo",
      "outputs": [
        {
          "name": "",
          "type": "uint256"
        },
        {
          "name": "",
          "type": "address[]"
        },
        {
          "name": "",
          "type": "uint256[]"
        }
      ],
      "payable": false,
      "stateMutability": "view",
      "type": "function"
    },
    {
      "constant": true,
      "inputs": [],
      "name": "getBuildingPercentOfParty",
      "outputs": [
        {
          "name": "",
          "type": "uint256"
        }
      ],
      "payable": false,
      "stateMutability": "view",
      "type": "function"
    },
    {
      "constant": false,
      "inputs": [
        {
          "name": "_stepIndex",
          "type": "uint256"
        }
      ],
      "name": "updateBuildingPercent",
      "outputs": [
        {
          "name": "",
          "type": "bool"
        }
      ],
      "payable": false,
      "stateMutability": "nonpayable",
      "type": "function"
    },
    {
      "constant": true,
      "inputs": [
        {
          "name": "_stepIndex",
          "type": "uint256"
        }
      ],
      "name": "getBuildingTokenFromParty",
      "outputs": [
        {
          "name": "",
          "type": "uint256"
        }
      ],
      "payable": false,
      "stateMutability": "view",
      "type": "function"
    }
  ],
  "bytecode": "0x60806040526032600a556032600c5534801561001a57600080fd5b506040516080806122158339810180604052608081101561003a57600080fd5b508051602080830151604080850151606090950151336000908152938490529220805460ff191660019081179091558054600160a060020a03948516600160a060020a0319918216179091556002805492851692821692909217909155600380549484169482169490941790935560048054929091169190921617905561214f806100c66000396000f3fe608060405234801561001057600080fd5b50600436106102405760003560e060020a90048063743acbab1161013f578063c39fa861116100bc578063da03095c11610080578063da03095c146107c0578063deb72f1f146107df578063ea2f8bd11461088b578063ef57e2d214610417578063fd38f45b146108b757610240565b8063c39fa86114610769578063c4a85bc114610792578063cf38beac14610460578063d6d11b82146105ae578063d7463573146107b857610240565b80638d8276be116101035780638d8276be1461068f57806395bbde88146106975780639b2dc7691461073c578063abdd11a814610744578063b7a8807c1461076157610240565b8063743acbab146105ae57806374ebae06146105b657806384976e74146105be5780638a18854b1461066a5780638a90d6011461068757610240565b80632734189a116101cd5780633c24fead116101915780633c24fead1461050b57806350b9d89d1461053d5780635a4922171461054557806361afd5ac14610562578063725019761461058857610240565b80632734189a1461040f5780632c7a8b731461041757806330f42bf614610443578063332df682146104605780633723e1c21461048c57610240565b80631089e83b116102145780631089e83b146103845780631c5ce157146103b65780631da6dcf1146103be5780631e7efbc9146103ea57806325d8e97f1461040757610240565b8062f21bf2146102455780630c214602146102735780630d9907d91461031b5780631020f72a1461034c575b600080fd5b6102716004803603604081101561025b57600080fd5b5080359060200135600160a060020a0316610963565b005b61027b6109e0565b604051808481526020018060200180602001838103835285818151815260200191508051906020019060200280838360005b838110156102c55781810151838201526020016102ad565b50505050905001838103825284818151815260200191508051906020019060200280838360005b838110156103045781810151838201526020016102ec565b505050509050019550505050505060405180910390f35b6103386004803603602081101561033157600080fd5b5035610b21565b604080519115158252519081900360200190f35b6103726004803603602081101561036257600080fd5b5035600160a060020a0316610c87565b60408051918252519081900360200190f35b6102716004803603606081101561039a57600080fd5b50803590600160a060020a036020820135169060400135610ca2565b610271610d1f565b610372600480360360408110156103d457600080fd5b50600160a060020a038135169060200135610e99565b61027b6004803603602081101561040057600080fd5b5035610f14565b61033861106c565b6103726110a8565b6103726004803603604081101561042d57600080fd5b5080359060200135600160a060020a03166110ae565b6102716004803603602081101561045957600080fd5b50356110d6565b6103726004803603604081101561047657600080fd5b5080359060200135600160a060020a0316611132565b6104a9600480360360208110156104a257600080fd5b503561115a565b6040518084815260200180602001838152602001828103825284818151815260200191508051906020019060200280838360005b838110156104f55781810151838201526020016104dd565b5050505090500194505050505060405180910390f35b6102716004803603606081101561052157600080fd5b50803590600160a060020a03602082013516906040013561126d565b6103726112ea565b6103726004803603602081101561055b57600080fd5b50356112f0565b6102716004803603602081101561057857600080fd5b5035600160a060020a0316611302565b6103386004803603602081101561059e57600080fd5b5035600160a060020a031661137a565b61033861138f565b610338611398565b610271600480360360608110156105d457600080fd5b813591908101906040810160208201356401000000008111156105f657600080fd5b82018360208201111561060857600080fd5b8035906020019184602083028401116401000000008311171561062a57600080fd5b91908080602002602001604051908101604052809392919081815260200183836020028082843760009201919091525092955050913592506113cf915050565b61027b6004803603602081101561068057600080fd5b5035611677565b6103726116e3565b6103726116e9565b610338600480360360408110156106ad57600080fd5b8101906020810181356401000000008111156106c857600080fd5b8201836020820111156106da57600080fd5b803590602001918460208302840111640100000000831117156106fc57600080fd5b91908080602002602001604051908101604052809392919081815260200183836020028082843760009201919091525092955050913592506116ef915050565b61037261191b565b6102716004803603602081101561075a57600080fd5b5035611921565b61037261197d565b6103386004803603606081101561077f57600080fd5b5080359060208101359060400135611983565b610271600480360360208110156107a857600080fd5b5035600160a060020a0316611a32565b610372611aad565b610271600480360360208110156107d657600080fd5b50351515611ab3565b610271600480360360608110156107f557600080fd5b8135919081019060408101602082013564010000000081111561081757600080fd5b82018360208201111561082957600080fd5b8035906020019184602083028401116401000000008311171561084b57600080fd5b9190808060200260200160405190810160405280939291908181526020018383602002808284376000920191909152509295505091359250611b1d915050565b610271600480360360408110156108a157600080fd5b5080359060200135600160a060020a0316611d51565b610271600480360360608110156108cd57600080fd5b813591908101906040810160208201356401000000008111156108ef57600080fd5b82018360208201111561090157600080fd5b8035906020019184602083028401116401000000008311171561092357600080fd5b9190808060200260200160405190810160405280939291908181526020018383602002808284376000920191909152509295505091359250611dce915050565b3360009081526020819052604090205460ff1615156109ba576040805160e560020a62461bcd02815260206004820152601b6024820152600080516020612104833981519152604482015290519081900360640190fd5b6000918252600f60209081526040808420600160a060020a039093168452919052812055565b6000606080600460009054906101000a9004600160a060020a0316600160a060020a031663c62461cc6040518163ffffffff1660e060020a02815260040160006040518083038186803b158015610a3657600080fd5b505afa158015610a4a573d6000803e3d6000fd5b505050506040513d6000823e601f3d908101601f191682016040526060811015610a7357600080fd5b815160208301805191939283019291640100000000811115610a9457600080fd5b82016020810184811115610aa757600080fd5b8151856020820283011164010000000082111715610ac457600080fd5b50509291906020018051640100000000811115610ae057600080fd5b82016020810184811115610af357600080fd5b8151856020820283011164010000000082111715610b1057600080fd5b509599949850965092945050505050565b3360009081526020819052604081205460ff161515610b78576040805160e560020a62461bcd02815260206004820152601b6024820152600080516020612104833981519152604482015290519081900360640190fd5b600554600010610bbc5760405160e560020a62461bcd0281526004018080602001828103825260218152602001806120e36021913960400191505060405180910390fd5b811515610c0857610bea6064610bde6032600954611ffc90919063ffffffff16565b9063ffffffff61202e16565b6000838152600b60205260409020556032600a819055600c55610c7f565b6042600a541015610c2757600a80546001019055600c80546000190190555b610c54610c456064610bde6001600954611ffc90919063ffffffff16565b6009549063ffffffff61205216565b600981905550610c7f82610c7a6064610bde600a54600954611ffc90919063ffffffff16565b612067565b506001919050565b600160a060020a031660009081526010602052604090205490565b3360009081526020819052604090205460ff161515610cf9576040805160e560020a62461bcd02815260206004820152601b6024820152600080516020612104833981519152604482015290519081900360640190fd5b6000928352600f60209081526040808520600160a060020a039094168552929052912055565b3360009081526020819052604090205460ff161515610d76576040805160e560020a62461bcd02815260206004820152601b6024820152600080516020612104833981519152604482015290519081900360640190fd5b73__UintUtils_____________________________63669dafe86308f0d1806040518263ffffffff1660e060020a0281526004018082815260200191505060206040518083038186803b158015610dcc57600080fd5b505af4158015610de0573d6000803e3d6000fd5b505050506040513d6020811015610df657600080fd5b5051600555604080517f669dafe80000000000000000000000000000000000000000000000000000000081526216e3606004820152905173__UintUtils_____________________________9163669dafe8916024808301926020929190829003018186803b158015610e6857600080fd5b505af4158015610e7c573d6000803e3d6000fd5b505050506040513d6020811015610e9257600080fd5b5051600955565b3360009081526020819052604081205460ff161515610ef0576040805160e560020a62461bcd02815260206004820152601b6024820152600080516020612104833981519152604482015290519081900360640190fd5b50600160a060020a0382166000908152601060205260409020819055805b92915050565b600254604080517f2889cc070000000000000000000000000000000000000000000000000000000081526004810184905290516000926060928392600160a060020a0390921691632889cc07916024808201928892909190829003018186803b158015610f8057600080fd5b505afa158015610f94573d6000803e3d6000fd5b505050506040513d6000823e601f3d908101601f191682016040526060811015610fbd57600080fd5b815160208301805191939283019291640100000000811115610fde57600080fd5b82016020810184811115610ff157600080fd5b815185602082028301116401000000008211171561100e57600080fd5b5050929190602001805164010000000081111561102a57600080fd5b8201602081018481111561103d57600080fd5b815185602082028301116401000000008211171561105a57600080fd5b50959a94995097509295505050505050565b6000600654421015801561109457506006546110909061038463ffffffff6120d016565b4211155b156110a1575060016110a5565b5060005b90565b60055490565b6000918252600f60209081526040808420600160a060020a0393909316845291905290205490565b3360009081526020819052604090205460ff16151561112d576040805160e560020a62461bcd02815260206004820152601b6024820152600080516020612104833981519152604482015290519081900360640190fd5b600555565b6000918252600e60209081526040808420600160a060020a0393909316845291905290205490565b600354604080517f493274410000000000000000000000000000000000000000000000000000000081526004810184905290516000926060928492600160a060020a03909216916349327441916024808201928692909190829003018186803b1580156111c657600080fd5b505afa1580156111da573d6000803e3d6000fd5b505050506040513d6000823e601f3d908101601f19168201604052606081101561120357600080fd5b81516020830180519193928301929164010000000081111561122457600080fd5b8201602081018481111561123757600080fd5b815185602082028301116401000000008211171561125457600080fd5b5050602090910151939650945091925050509193909250565b3360009081526020819052604090205460ff1615156112c4576040805160e560020a62461bcd02815260206004820152601b6024820152600080516020612104833981519152604482015290519081900360640190fd5b6000928352600e60209081526040808520600160a060020a039094168552929052912055565b60085490565b6000908152600b602052604090205490565b3360009081526020819052604090205460ff161515611359576040805160e560020a62461bcd02815260206004820152601b6024820152600080516020612104833981519152604482015290519081900360640190fd5b600160a060020a03166000908152602081905260409020805460ff19169055565b60006020819052908152604090205460ff1681565b60075460ff1690565b6006546000906113b09061038463ffffffff6120d016565b4210158015611094575060065461109090610a8c63ffffffff6120d016565b3360009081526020819052604090205460ff161515611426576040805160e560020a62461bcd02815260206004820152601b6024820152600080516020612104833981519152604482015290519081900360640190fd5b6002546040517fc21a774300000000000000000000000000000000000000000000000000000000815260048101858152604482018490526060602483018181528651606485015286519194600160a060020a03169363c21a77439389938993899390916084909101906020808701910280838360005b838110156114b457818101518382015260200161149c565b50505050905001945050505050600060405180830381600087803b1580156114db57600080fd5b505af11580156114ef573d6000803e3d6000fd5b505050506040513d6000823e601f3d908101601f19168201604052602081101561151857600080fd5b81019080805164010000000081111561153057600080fd5b8201602081018481111561154357600080fd5b815185602082028301116401000000008211171561156057600080fd5b50909450600093505050505b8151811015611670576002548251600160a060020a039091169063509b49e990879085908590811061159a57fe5b906020019060200201516040518363ffffffff1660e060020a0281526004018083815260200182600160a060020a0316600160a060020a031681526020019250505060206040518083038186803b1580156115f457600080fd5b505afa158015611608573d6000803e3d6000fd5b505050506040513d602081101561161e57600080fd5b50516000868152600e60205260408120845190919085908590811061163f57fe5b6020908102909101810151600160a060020a031682528101919091526040016000208054909101905560010161156c565b5050505050565b600154604080517fc79b12450000000000000000000000000000000000000000000000000000000081526004810184905290516000926060928392600160a060020a039092169163c79b1245916024808201928892909190829003018186803b158015610f8057600080fd5b60055481565b60095490565b3360009081526020819052604081205460ff161515611746576040805160e560020a62461bcd02815260206004820152601b6024820152600080516020612104833981519152604482015290519081900360640190fd5b60048054604080517f1e238d1000000000000000000000000000000000000000000000000000000000815260248101869052928301908152855160448401528551600093600160a060020a0390931692631e238d1092889288928291606490910190602080870191028083838c5b838110156117cc5781810151838201526020016117b4565b505050509050019350505050602060405180830381600087803b1580156117f257600080fd5b505af1158015611806573d6000803e3d6000fd5b505050506040513d602081101561181c57600080fd5b5051905060005b8451811015611913576004548551600160a060020a0390911690634a6817879087908490811061184f57fe5b906020019060200201516040518263ffffffff1660e060020a0281526004018082600160a060020a0316600160a060020a0316815260200191505060206040518083038186803b1580156118a257600080fd5b505afa1580156118b6573d6000803e3d6000fd5b505050506040513d60208110156118cc57600080fd5b505185516010906000908890859081106118e257fe5b6020908102909101810151600160a060020a0316825281019190915260400160002080549091019055600101611823565b509392505050565b600a5490565b3360009081526020819052604090205460ff161515611978576040805160e560020a62461bcd02815260206004820152601b6024820152600080516020612104833981519152604482015290519081900360640190fd5b600655565b60065481565b3360009081526020819052604081205460ff1615156119da576040805160e560020a62461bcd02815260206004820152601b6024820152600080516020612104833981519152604482015290519081900360640190fd5b818310156119f65760088490556119f16001611ab3565b611a22565b611a006000611ab3565b6005541515611a185760088490556119f16001611ab3565b611a226000611ab3565b611a2a61138f565b949350505050565b3360009081526020819052604090205460ff161515611a89576040805160e560020a62461bcd02815260206004820152601b6024820152600080516020612104833981519152604482015290519081900360640190fd5b600160a060020a03166000908152602081905260409020805460ff19166001179055565b60065490565b3360009081526020819052604090205460ff161515611b0a576040805160e560020a62461bcd02815260206004820152601b6024820152600080516020612104833981519152604482015290519081900360640190fd5b6007805460ff1916911515919091179055565b3360009081526020819052604090205460ff161515611b74576040805160e560020a62461bcd02815260206004820152601b6024820152600080516020612104833981519152604482015290519081900360640190fd5b6001546040517fa5fa79760000000000000000000000000000000000000000000000000000000081526004810185815260448201849052606060248301908152855160648401528551600160a060020a039094169363a5fa797693889388938893919290916084909101906020808701910280838360005b83811015611c04578181015183820152602001611bec565b50505050905001945050505050600060405180830381600087803b158015611c2b57600080fd5b505af1158015611c3f573d6000803e3d6000fd5b506000925050505b8251811015611d4b576001548351600160a060020a03909116906365922b74908690869085908110611c7557fe5b906020019060200201516040518363ffffffff1660e060020a0281526004018083815260200182600160a060020a0316600160a060020a031681526020019250505060206040518083038186803b158015611ccf57600080fd5b505afa158015611ce3573d6000803e3d6000fd5b505050506040513d6020811015611cf957600080fd5b50516000858152600e602052604081208551909190869085908110611d1a57fe5b6020908102909101810151600160a060020a0316825281019190915260400160002080549091019055600101611c47565b50505050565b3360009081526020819052604090205460ff161515611da8576040805160e560020a62461bcd02815260206004820152601b6024820152600080516020612104833981519152604482015290519081900360640190fd5b6000918252600e60209081526040808420600160a060020a039093168452919052812055565b3360009081526020819052604090205460ff161515611e25576040805160e560020a62461bcd02815260206004820152601b6024820152600080516020612104833981519152604482015290519081900360640190fd5b6003546040517fac197f920000000000000000000000000000000000000000000000000000000081526004810185815260448201849052606060248301908152855160648401528551600160a060020a039094169363ac197f9293889388938893919290916084909101906020808701910280838360005b83811015611eb5578181015183820152602001611e9d565b50505050905001945050505050600060405180830381600087803b158015611edc57600080fd5b505af1158015611ef0573d6000803e3d6000fd5b506000925050505b8251811015611d4b576003548351600160a060020a039091169063dd572ab9908690869085908110611f2657fe5b906020019060200201516040518363ffffffff1660e060020a0281526004018083815260200182600160a060020a0316600160a060020a031681526020019250505060206040518083038186803b158015611f8057600080fd5b505afa158015611f94573d6000803e3d6000fd5b505050506040513d6020811015611faa57600080fd5b50516000858152600e602052604081208551909190869085908110611fcb57fe5b6020908102909101810151600160a060020a0316825281019190915260400160002080549091019055600101611ef8565b600082151561200d57506000610f0e565b82820282848281151561201c57fe5b041461202757600080fd5b9392505050565b600080821161203c57600080fd5b6000828481151561204957fe5b04949350505050565b60008282111561206157600080fd5b50900390565b3360009081526020819052604090205460ff1615156120be576040805160e560020a62461bcd02815260206004820152601b6024820152600080516020612104833981519152604482015290519081900360640190fd5b6000918252600b602052604090912055565b60008282018381101561202757600080fdfee585b1e5bbbae8b584e98791e6b1a0e5b7b2e7bb8fe6b688e88097e5ae8ce6af95e8b083e794a8e88085e6b2a1e69c89e8b083e794a8e69d83e999900000000000a165627a7a72305820cfee2c37a94b3f327ef450e9152494f593d848104a0982466c3652830f67ccc40029",
  "source": "pragma solidity >=0.4.21 <0.6.0;\n\nimport \"../node_modules/openzeppelin-solidity/contracts/math/SafeMath.sol\";\nimport \"./UintUtils.sol\";\nimport \"./FissionReward.sol\";\nimport \"./FOMOReward.sol\";\nimport \"./LuckyReward.sol\";\nimport \"./FaithReward.sol\";\nimport \"./ABCToken.sol\";\n\n/// @title \n/// @dev \ncontract ResonanceDataManage{\n\n    using SafeMath for uint256;\n\n    event AllowAccess(address indexed);\n\n    // \n    mapping(address => bool) public accessAllowed;\n\n    modifier platform() {\n        require(accessAllowed[msg.sender], \"\");\n        _;\n    }\n\n    FissionReward fissionRewardInstance;\n    FOMOReward FOMORewardInstance;\n    LuckyReward luckyRewardInstance;\n    FaithReward faithRewardInstance;\n\n    // \n    uint256 public fundsPool;\n    // \n    uint256 public openingTime;\n    // \n    bool crowdsaleClosed;\n\n    // Step\n    uint256 resonanceClosedStep;\n\n    // Token\n    uint256 initBuildingTokenAmount;\n\n    // Token\n    uint256 buildingPercentOfParty = 50;\n\n    // Token\n    // uint256 buildingTokenFromParty;\n    mapping(uint256 => uint256) buildingTokenFromParty;\n\n    // Token\n    uint256 buildingPercentOfCommunity = 50;\n\n    uint256 personalTokenLimited;// token\n\n    // step => address => ether\n    mapping(uint256 => mapping(address => uint256)) private ETHBalance;\n    // step => address => token\n    mapping(uint256 => mapping(address => uint256)) private tokenBalance;\n\n    // \n    mapping(address => uint256) private faithRewardBalance;\n\n    constructor(\n        address _fassionRewardAddress,\n        address _FOMORewardAddress,\n        address _luckyRewardAddress,\n        address _faithRewardAddress\n    ) public {\n        accessAllowed[msg.sender] = true;\n        // \n        fissionRewardInstance = FissionReward(_fassionRewardAddress);\n        FOMORewardInstance = FOMOReward(_FOMORewardAddress);\n        luckyRewardInstance = LuckyReward(_luckyRewardAddress);\n        faithRewardInstance = FaithReward(_faithRewardAddress);\n    }\n\n    // \n    function setParamForFirstStep() public platform() {\n        fundsPool = UintUtils.toWei(150000000);\n        initBuildingTokenAmount = UintUtils.toWei(1500000);\n    }\n\n    function allowAccess(address _addr) public platform() {\n        accessAllowed[_addr] = true;\n    }\n\n    function denyAccess(address _addr) public platform() {\n        accessAllowed[_addr] = false;\n    }\n\n    function setFundsPool(uint256 _fundsPool) public platform() {\n        fundsPool = _fundsPool;\n    }\n\n    function getFundsPool() public view returns(uint256) {\n        return fundsPool;\n    }\n\n    function setOpeningTime(uint256 _openingTime) public platform() {\n        openingTime = _openingTime;\n    }\n\n    /// @notice \n    function getOpeningTime() public view returns(uint256){\n        return openingTime;\n    }\n\n    function setCrowdsaleClosed(bool _crowdsaleClosed) public platform() {\n        crowdsaleClosed = _crowdsaleClosed;\n    }\n\n    function getCrowdsaleClosed() public view returns(bool) {\n        return crowdsaleClosed;\n    }\n\n    function getETHBalance(uint256 _stepIndex, address _addr) public view returns(uint256) {\n        return ETHBalance[_stepIndex][_addr];\n    }\n\n    function setETHBalance(uint256 _stepIndex, address _addr, uint256 _amount) public platform() {\n        ETHBalance[_stepIndex][_addr] = _amount;\n    }\n\n    function getTokenBalance(uint256 _stepIndex, address _addr) public view returns(uint256) {\n        return tokenBalance[_stepIndex][_addr];\n    }\n\n    function setTokenBalance(uint256 _stepIndex, address _addr, uint256 _amount) public platform() {\n        tokenBalance[_stepIndex][_addr] = _amount;\n    }\n\n    function getBuildingTokenAmount() public view returns(uint256) {\n        return initBuildingTokenAmount;\n    }\n\n    // \n    function isBuildingPeriod() public view returns(bool){\n        // if(block.timestamp >= openingTime && block.timestamp < openingTime.add(8 hours)) {\n        if(block.timestamp >= openingTime && block.timestamp <= openingTime.add(15 minutes)) {\n            return true;\n        }else{\n            return false;\n        }\n        // return true;\n    }\n\n    // \n    function isFundingPeriod() public view returns(bool) {\n        // if(block.timestamp >= openingTime.add(8 hours) && block.timestamp < openingTime.add(24 hours)) {\n        if(block.timestamp >= openingTime.add(15 minutes) && block.timestamp <= openingTime.add(45 minutes)) {\n            return true;\n        }else{\n            return false;\n        }\n        // return true;\n    }\n\n    /// @notice \n    /// @dev \n    /// @param raisedETH ETH\n    /// @param softCap \n    function crowdsaleIsClosed(\n        uint256 stepIndex,\n        uint256 raisedETH,\n        uint256 softCap\n    )\n        public\n        platform()\n        returns(bool)\n    {\n        // 1.\n        if(raisedETH < softCap) {\n            resonanceClosedStep = stepIndex;\n            setCrowdsaleClosed(true);\n        }else{\n            setCrowdsaleClosed(false);\n            // 2.\n            if(fundsPool == 0) {\n                resonanceClosedStep = stepIndex;\n                setCrowdsaleClosed(true);\n            }else{\n                setCrowdsaleClosed(false);\n            }\n        }\n\n        return getResonanceIsClosed();\n    }\n\n    /// @notice Index\n    function getResonanceClosedStep() public view returns(uint256){\n        return resonanceClosedStep;\n    }\n\n    /// @notice \n    /// @dev viewcrowdsaleClosed\n    function getResonanceIsClosed() public view returns(bool) {\n        return crowdsaleClosed;\n    }\n\n    /// @notice \n    function settlementFissionReward(uint256 _stepIndex, address[] memory _fissionWinnerList, uint256 totalFissionReward)\n        public\n        platform()\n    {\n        fissionRewardInstance.dealFissionInfo(_stepIndex, _fissionWinnerList, totalFissionReward);\n        // \n        for(uint i = 0; i < _fissionWinnerList.length; i++){\n            ETHBalance[_stepIndex][_fissionWinnerList[i]] += fissionRewardInstance.fissionRewardAmount(_stepIndex,_fissionWinnerList[i]);\n        }\n    }\n\n    function settlementFOMOReward(uint256 _stepIndex, address[] memory _funders, uint256 totalFOMOReward)\n        public\n        platform()\n    {\n        address[] memory FOMOWinnerList = FOMORewardInstance.dealFOMOWinner(_stepIndex, _funders, totalFOMOReward);\n\n        for(uint i = 0; i < FOMOWinnerList.length; i++){\n            ETHBalance[_stepIndex][FOMOWinnerList[i]] += FOMORewardInstance.FOMORewardAmount(_stepIndex,FOMOWinnerList[i]);\n        }\n    }\n\n    function settlementLuckyReward(uint256 _stepIndex, address[] memory _LuckyWinnerList, uint256 totalLuckyReward)\n        public\n        platform()\n    {\n        luckyRewardInstance.dealLuckyInfo(_stepIndex, _LuckyWinnerList, totalLuckyReward);\n        for(uint i = 0; i < _LuckyWinnerList.length; i++){\n            ETHBalance[_stepIndex][_LuckyWinnerList[i]] += luckyRewardInstance.luckyRewardAmount(_stepIndex,_LuckyWinnerList[i]);\n        }\n    }\n\n    // \n    function dmSettlementFaithReward(address[] memory _faithWinners, uint256 totalFaithReward)\n        public\n        platform()\n        returns(bool)\n    {\n        bool faithRewardFinished = faithRewardInstance.dealFaithWinner(_faithWinners, totalFaithReward);\n\n        for(uint i = 0; i < _faithWinners.length; i++){\n            faithRewardBalance[_faithWinners[i]] += faithRewardInstance.faithRewardAmount(_faithWinners[i]);\n        }\n        return faithRewardFinished;\n    }\n\n    // \n    function getFaithRewardBalance(address _addr) public view returns(uint256) {\n        return faithRewardBalance[_addr];\n    }\n\n    function setFaithRewardBalance(address _addr, uint256 _amount) public platform() returns(uint256) {\n        return faithRewardBalance[_addr] = _amount;\n    }\n\n    /// @notice Token\n    function withdrawTokenAmount(uint256 _stepIndex, address _addr) public view returns (uint256) {\n        return tokenBalance[_stepIndex][_addr];\n    }\n\n    /// @notice ETH\n    function withdrawETHAmount(uint256 _stepIndex, address _addr) public view returns (uint256) {\n        return ETHBalance[_stepIndex][_addr];\n    }\n\n    function emptyTokenBalance(uint256 _stepIndex, address _addr) public platform() {\n        tokenBalance[_stepIndex][_addr] = 0;\n    }\n\n    function emptyETHBalance(uint256 _stepIndex, address _addr) public platform() {\n        ETHBalance[_stepIndex][_addr] = 0;\n    }\n\n    /// @notice \n    /// @dev \n    /// @param _stepIndex \n    function getFissionRewardInfo(uint256 _stepIndex)\n        public\n        view\n        returns(uint256, address[] memory, uint256[] memory)\n    {\n        return fissionRewardInstance.getFissionInfo(_stepIndex);\n    }\n\n    /// @notice FOMO\n    /// @dev FOMO\n    /// @param _stepIndex \n    function getFOMORewardIofo(uint256 _stepIndex)\n        public\n        view\n        returns(uint256, address[] memory, uint256[] memory)\n    {\n        return FOMORewardInstance.getFOMOWinnerInfo(_stepIndex);\n    }\n\n    /// @notice \n    /// @dev \n    /// @param _stepIndex \n    function getLuckyRewardInfo(uint256 _stepIndex)\n        public\n        view\n        returns(uint256, address[] memory, uint256)\n    {\n        return luckyRewardInstance.getLuckyInfo(_stepIndex);\n    }\n\n    /// @notice \n    /// @dev \n    function getFaithRewardInfo()\n        public\n        view\n        returns(uint256, address[] memory, uint256[] memory)\n    {\n        return faithRewardInstance.getFaithWinnerInfo();\n    }\n\n    /// @notice \n    function getBuildingPercentOfParty() public view returns(uint256) {\n        return buildingPercentOfParty;\n    }\n\n    /// @notice \n    function updateBuildingPercent(uint256 _stepIndex) public platform() returns (bool) {\n        require(fundsPool > 0, \"\");\n        if(_stepIndex == 0){\n            // setBuildingTokenFromParty(initBuildingTokenAmount.mul(50).div(100));\n            buildingTokenFromParty[_stepIndex] = initBuildingTokenAmount.mul(50).div(100);\n            buildingPercentOfParty = 50;\n            buildingPercentOfCommunity = 50;\n        }else{\n            // +1%-1%\n            if(buildingPercentOfParty < 66){\n                buildingPercentOfParty += 1;\n                buildingPercentOfCommunity -= 1;\n            }\n            // Token\n            // 99% =  -  * 1%\n            initBuildingTokenAmount = initBuildingTokenAmount.sub(initBuildingTokenAmount.mul(1).div(100));\n            // \n            setBuildingTokenFromParty(_stepIndex, initBuildingTokenAmount.mul(buildingPercentOfParty).div(100));\n        }\n\n        return true;\n    }\n\n    /// @notice Token\n    function setBuildingTokenFromParty(uint256 _stepIndex, uint256 _buildingPercentOfParty) internal platform() {\n        buildingTokenFromParty[_stepIndex] = _buildingPercentOfParty;\n    }\n\n    /// @notice Token\n    function getBuildingTokenFromParty(uint256 _stepIndex) public view returns(uint256) {\n        return buildingTokenFromParty[_stepIndex];\n    }\n\n}",
  "sourcePath": "/Users/a186r/dev/contracts/contract/contract/contracts/ResonanceDataManage.sol",
  "compiler": {
    "name": "solc",
    "version": "0.5.2+commit.1df8f40c.Emscripten.clang"
  },
  "schemaVersion": "3.0.9",
  "updatedAt": "2019-06-01T14:49:22.955Z",
  "devdoc": {
    "details": "",
    "methods": {
      "crowdsaleIsClosed(uint256,uint256,uint256)": {
        "details": "",
        "params": {
          "raisedETH": "ETH",
          "softCap": ""
        }
      },
      "getFOMORewardIofo(uint256)": {
        "details": "FOMO",
        "params": {
          "_stepIndex": ""
        }
      },
      "getFaithRewardInfo()": {
        "details": ""
      },
      "getFissionRewardInfo(uint256)": {
        "details": "",
        "params": {
          "_stepIndex": ""
        }
      },
      "getLuckyRewardInfo(uint256)": {
        "details": "",
        "params": {
          "_stepIndex": ""
        }
      },
      "getResonanceIsClosed()": {
        "details": "viewcrowdsaleClosed"
      }
    },
    "title": ""
  },
  "userdoc": {
    "methods": {
      "crowdsaleIsClosed(uint256,uint256,uint256)": {
        "notice": ""
      },
      "getBuildingPercentOfParty()": {
        "notice": ""
      },
      "getBuildingTokenFromParty(uint256)": {
        "notice": "Token"
      },
      "getFOMORewardIofo(uint256)": {
        "notice": "FOMO"
      },
      "getFaithRewardInfo()": {
        "notice": ""
      },
      "getFissionRewardInfo(uint256)": {
        "notice": ""
      },
      "getLuckyRewardInfo(uint256)": {
        "notice": ""
      },
      "getOpeningTime()": {
        "notice": ""
      },
      "getResonanceClosedStep()": {
        "notice": "Index"
      },
      "getResonanceIsClosed()": {
        "notice": ""
      },
      "settlementFissionReward(uint256,address[],uint256)": {
        "notice": ""
      },
      "updateBuildingPercent(uint256)": {
        "notice": ""
      },
      "withdrawETHAmount(uint256,address)": {
        "notice": "ETH"
      },
      "withdrawTokenAmount(uint256,address)": {
        "notice": "Token"
      }
    }
  }
}