{
  "contractName": "ResonanceDataManage",
  "abi": [
    {
      "inputs": [
        {
          "name": "_fassionRewardAddress",
          "type": "address"
        },
        {
          "name": "_FOMORewardAddress",
          "type": "address"
        },
        {
          "name": "_luckyRewardAddress",
          "type": "address"
        },
        {
          "name": "_faithRewardAddress",
          "type": "address"
        }
      ],
      "payable": false,
      "stateMutability": "nonpayable",
      "type": "constructor",
      "signature": "constructor"
    },
    {
      "anonymous": false,
      "inputs": [],
      "name": "WhihdrawAllToken",
      "type": "event",
      "signature": "0xee734865025ca1f0b8198bb35fbe6ca9a148b165df9c7b3862f84daee571e5d1"
    },
    {
      "constant": false,
      "inputs": [],
      "name": "setParamForFirstStep",
      "outputs": [],
      "payable": false,
      "stateMutability": "nonpayable",
      "type": "function",
      "signature": "0x1c5ce157"
    },
    {
      "constant": false,
      "inputs": [
        {
          "name": "_addr",
          "type": "address"
        }
      ],
      "name": "allowAccess",
      "outputs": [],
      "payable": false,
      "stateMutability": "nonpayable",
      "type": "function",
      "signature": "0xc4a85bc1"
    },
    {
      "constant": false,
      "inputs": [
        {
          "name": "_addr",
          "type": "address"
        }
      ],
      "name": "denyAccess",
      "outputs": [],
      "payable": false,
      "stateMutability": "nonpayable",
      "type": "function",
      "signature": "0x61afd5ac"
    },
    {
      "constant": false,
      "inputs": [
        {
          "name": "_fundsPool",
          "type": "uint256"
        }
      ],
      "name": "setFundsPool",
      "outputs": [],
      "payable": false,
      "stateMutability": "nonpayable",
      "type": "function",
      "signature": "0x30f42bf6"
    },
    {
      "constant": true,
      "inputs": [],
      "name": "getFundsPool",
      "outputs": [
        {
          "name": "",
          "type": "uint256"
        }
      ],
      "payable": false,
      "stateMutability": "view",
      "type": "function",
      "signature": "0x2734189a"
    },
    {
      "constant": false,
      "inputs": [
        {
          "name": "_openingTime",
          "type": "uint256"
        }
      ],
      "name": "setOpeningTime",
      "outputs": [],
      "payable": false,
      "stateMutability": "nonpayable",
      "type": "function",
      "signature": "0xabdd11a8"
    },
    {
      "constant": true,
      "inputs": [],
      "name": "getOpeningTime",
      "outputs": [
        {
          "name": "",
          "type": "uint256"
        }
      ],
      "payable": false,
      "stateMutability": "view",
      "type": "function",
      "signature": "0xd7463573"
    },
    {
      "constant": false,
      "inputs": [
        {
          "name": "_crowdsaleClosed",
          "type": "bool"
        }
      ],
      "name": "setCrowdsaleClosed",
      "outputs": [],
      "payable": false,
      "stateMutability": "nonpayable",
      "type": "function",
      "signature": "0xda03095c"
    },
    {
      "constant": true,
      "inputs": [],
      "name": "getCrowdsaleClosed",
      "outputs": [
        {
          "name": "",
          "type": "bool"
        }
      ],
      "payable": false,
      "stateMutability": "view",
      "type": "function",
      "signature": "0x743acbab"
    },
    {
      "constant": true,
      "inputs": [
        {
          "name": "_addr",
          "type": "address"
        }
      ],
      "name": "getETHBalance",
      "outputs": [
        {
          "name": "",
          "type": "uint256"
        }
      ],
      "payable": false,
      "stateMutability": "view",
      "type": "function",
      "signature": "0x3bb66a7b"
    },
    {
      "constant": false,
      "inputs": [
        {
          "name": "_addr",
          "type": "address"
        },
        {
          "name": "_amount",
          "type": "uint256"
        }
      ],
      "name": "setETHBalance",
      "outputs": [],
      "payable": false,
      "stateMutability": "nonpayable",
      "type": "function",
      "signature": "0x9b32a778"
    },
    {
      "constant": true,
      "inputs": [
        {
          "name": "_addr",
          "type": "address"
        }
      ],
      "name": "getTokenBalance",
      "outputs": [
        {
          "name": "",
          "type": "uint256"
        }
      ],
      "payable": false,
      "stateMutability": "view",
      "type": "function",
      "signature": "0x3aecd0e3"
    },
    {
      "constant": false,
      "inputs": [
        {
          "name": "_addr",
          "type": "address"
        },
        {
          "name": "_amount",
          "type": "uint256"
        }
      ],
      "name": "setTokenBalance",
      "outputs": [],
      "payable": false,
      "stateMutability": "nonpayable",
      "type": "function",
      "signature": "0x4ceb1f13"
    },
    {
      "constant": true,
      "inputs": [],
      "name": "getBuildingTokenAmount",
      "outputs": [
        {
          "name": "",
          "type": "uint256"
        }
      ],
      "payable": false,
      "stateMutability": "view",
      "type": "function",
      "signature": "0x8d8276be"
    },
    {
      "constant": false,
      "inputs": [
        {
          "name": "_tokenAmount",
          "type": "uint256"
        }
      ],
      "name": "setBuildingTokenAmount",
      "outputs": [],
      "payable": false,
      "stateMutability": "nonpayable",
      "type": "function",
      "signature": "0xbc8a5bb2"
    },
    {
      "constant": true,
      "inputs": [],
      "name": "isBuildingPeriod",
      "outputs": [
        {
          "name": "",
          "type": "bool"
        }
      ],
      "payable": false,
      "stateMutability": "view",
      "type": "function",
      "signature": "0x25d8e97f"
    },
    {
      "constant": true,
      "inputs": [],
      "name": "isFundingPeriod",
      "outputs": [
        {
          "name": "",
          "type": "bool"
        }
      ],
      "payable": false,
      "stateMutability": "view",
      "type": "function",
      "signature": "0x74ebae06"
    },
    {
      "constant": false,
      "inputs": [
        {
          "name": "raisedETH",
          "type": "uint256"
        },
        {
          "name": "softCap",
          "type": "uint256"
        }
      ],
      "name": "crowdsaleIsClosed",
      "outputs": [
        {
          "name": "",
          "type": "bool"
        }
      ],
      "payable": false,
      "stateMutability": "nonpayable",
      "type": "function",
      "signature": "0x98e24c06"
    },
    {
      "constant": false,
      "inputs": [
        {
          "name": "_stepIndex",
          "type": "uint256"
        },
        {
          "name": "_fissionWinnerList",
          "type": "address[]"
        },
        {
          "name": "totalFissionReward",
          "type": "uint256"
        }
      ],
      "name": "settlementFissionReward",
      "outputs": [],
      "payable": false,
      "stateMutability": "nonpayable",
      "type": "function",
      "signature": "0xdeb72f1f"
    },
    {
      "constant": false,
      "inputs": [
        {
          "name": "_stepIndex",
          "type": "uint256"
        },
        {
          "name": "_funders",
          "type": "address[]"
        },
        {
          "name": "totalFOMOReward",
          "type": "uint256"
        }
      ],
      "name": "settlementFOMOReward",
      "outputs": [],
      "payable": false,
      "stateMutability": "nonpayable",
      "type": "function",
      "signature": "0x84976e74"
    },
    {
      "constant": false,
      "inputs": [
        {
          "name": "_stepIndex",
          "type": "uint256"
        },
        {
          "name": "_LuckyWinnerList",
          "type": "address[]"
        },
        {
          "name": "totalLuckyReward",
          "type": "uint256"
        }
      ],
      "name": "settlementLuckyReward",
      "outputs": [],
      "payable": false,
      "stateMutability": "nonpayable",
      "type": "function",
      "signature": "0xfd38f45b"
    },
    {
      "constant": false,
      "inputs": [
        {
          "name": "_faithWinners",
          "type": "address[]"
        },
        {
          "name": "totalFaithReward",
          "type": "uint256"
        }
      ],
      "name": "dmSettlementFaithReward",
      "outputs": [
        {
          "name": "",
          "type": "bool"
        }
      ],
      "payable": false,
      "stateMutability": "nonpayable",
      "type": "function",
      "signature": "0x95bbde88"
    },
    {
      "constant": true,
      "inputs": [
        {
          "name": "_addr",
          "type": "address"
        }
      ],
      "name": "withdrawTokenAmount",
      "outputs": [
        {
          "name": "",
          "type": "uint256"
        }
      ],
      "payable": false,
      "stateMutability": "view",
      "type": "function",
      "signature": "0x9d7e0c86"
    },
    {
      "constant": true,
      "inputs": [
        {
          "name": "_addr",
          "type": "address"
        }
      ],
      "name": "withdrawETHAmount",
      "outputs": [
        {
          "name": "",
          "type": "uint256"
        }
      ],
      "payable": false,
      "stateMutability": "view",
      "type": "function",
      "signature": "0x9263434e"
    },
    {
      "constant": false,
      "inputs": [],
      "name": "emptyTokenBalance",
      "outputs": [],
      "payable": false,
      "stateMutability": "nonpayable",
      "type": "function",
      "signature": "0x0c5d0c56"
    },
    {
      "constant": false,
      "inputs": [],
      "name": "emptyETHBalance",
      "outputs": [],
      "payable": false,
      "stateMutability": "nonpayable",
      "type": "function",
      "signature": "0x50300120"
    },
    {
      "constant": true,
      "inputs": [
        {
          "name": "_stepIndex",
          "type": "uint256"
        }
      ],
      "name": "getFissionRewardInfo",
      "outputs": [
        {
          "name": "",
          "type": "uint256"
        },
        {
          "name": "",
          "type": "address[]"
        },
        {
          "name": "",
          "type": "uint256[]"
        }
      ],
      "payable": false,
      "stateMutability": "view",
      "type": "function",
      "signature": "0x8a18854b"
    },
    {
      "constant": true,
      "inputs": [
        {
          "name": "_stepIndex",
          "type": "uint256"
        }
      ],
      "name": "getFOMORewardIofo",
      "outputs": [
        {
          "name": "",
          "type": "uint256"
        },
        {
          "name": "",
          "type": "address[]"
        },
        {
          "name": "",
          "type": "uint256[]"
        }
      ],
      "payable": false,
      "stateMutability": "view",
      "type": "function",
      "signature": "0x1e7efbc9"
    },
    {
      "constant": true,
      "inputs": [
        {
          "name": "_stepIndex",
          "type": "uint256"
        }
      ],
      "name": "getLuckyRewardInfo",
      "outputs": [
        {
          "name": "",
          "type": "uint256"
        },
        {
          "name": "",
          "type": "address[]"
        },
        {
          "name": "",
          "type": "uint256"
        }
      ],
      "payable": false,
      "stateMutability": "view",
      "type": "function",
      "signature": "0x3723e1c2"
    },
    {
      "constant": true,
      "inputs": [],
      "name": "getFaithRewardInfo",
      "outputs": [
        {
          "name": "",
          "type": "uint256"
        },
        {
          "name": "",
          "type": "address[]"
        },
        {
          "name": "",
          "type": "uint256[]"
        }
      ],
      "payable": false,
      "stateMutability": "view",
      "type": "function",
      "signature": "0x0c214602"
    },
    {
      "constant": false,
      "inputs": [
        {
          "name": "_stepIndex",
          "type": "uint256"
        }
      ],
      "name": "updateBuildingPercent",
      "outputs": [
        {
          "name": "",
          "type": "bool"
        }
      ],
      "payable": false,
      "stateMutability": "nonpayable",
      "type": "function",
      "signature": "0x0d9907d9"
    }
  ],
  "bytecode": "0x60806040526007805460ff1990811690915560098054603292169190911761ff00191661320017905534801561003457600080fd5b506040516080806121678339810180604052608081101561005457600080fd5b508051602080830151604080850151606090950151336000908152938490529220805460ff191660019081179091558054600160a060020a03948516600160a060020a03199182161790915560028054928516928216929092179091556003805494841694821694909417909355600480549290911691909216179055612087806100e06000396000f3fe608060405234801561001057600080fd5b50600436106101e95760003560e060020a9004806374ebae06116101135780639d7e0c86116100a6578063d746357311610075578063d7463573146106db578063da03095c146106e3578063deb72f1f14610702578063fd38f45b146107ae576101e9565b80639d7e0c8614610655578063abdd11a81461067b578063bc8a5bb214610698578063c4a85bc1146106b5576101e9565b80639263434e116100e25780639263434e1461053b57806395bbde881461056157806398e24c06146106065780639b32a77814610629576101e9565b806374ebae061461046257806384976e741461046a5780638a18854b146105165780638d8276be14610533576101e9565b806330f42bf61161018b5780634ceb1f131161015a5780634ceb1f1314610400578063503001201461042c57806361afd5ac14610434578063743acbab1461045a576101e9565b806330f42bf6146103185780633723e1c2146103355780633aecd0e3146103b45780633bb66a7b146103da576101e9565b80631c5ce157116101c75780631c5ce157146102d15780631e7efbc9146102d957806325d8e97f146102f65780632734189a146102fe576101e9565b80630c214602146101ee5780630c5d0c56146102965780630d9907d9146102a0575b600080fd5b6101f661085a565b604051808481526020018060200180602001838103835285818151815260200191508051906020019060200280838360005b83811015610240578181015183820152602001610228565b50505050905001838103825284818151815260200191508051906020019060200280838360005b8381101561027f578181015183820152602001610267565b505050509050019550505050505060405180910390f35b61029e61099b565b005b6102bd600480360360208110156102b657600080fd5b50356109ad565b604080519115158252519081900360200190f35b61029e610aea565b6101f6600480360360208110156102ef57600080fd5b5035610c64565b6102bd610dbc565b610306610de9565b60408051918252519081900360200190f35b61029e6004803603602081101561032e57600080fd5b5035610e47565b6103526004803603602081101561034b57600080fd5b5035610ea3565b6040518084815260200180602001838152602001828103825284818151815260200191508051906020019060200280838360005b8381101561039e578181015183820152602001610386565b5050505090500194505050505060405180910390f35b610306600480360360208110156103ca57600080fd5b5035600160a060020a0316610fb6565b610306600480360360208110156103f057600080fd5b5035600160a060020a0316611029565b61029e6004803603604081101561041657600080fd5b50600160a060020a03813516906020013561109c565b61029e61110f565b61029e6004803603602081101561044a57600080fd5b5035600160a060020a0316611121565b6102bd611199565b6102bd6111fa565b61029e6004803603606081101561048057600080fd5b813591908101906040810160208201356401000000008111156104a257600080fd5b8201836020820111156104b457600080fd5b803590602001918460208302840111640100000000831117156104d657600080fd5b9190808060200260200160405190810160405280939291908181526020018383602002808284376000920191909152509295505091359250611224915050565b6101f66004803603602081101561052c57600080fd5b50356114c1565b61030661152d565b6103066004803603602081101561055157600080fd5b5035600160a060020a031661158b565b6102bd6004803603604081101561057757600080fd5b81019060208101813564010000000081111561059257600080fd5b8201836020820111156105a457600080fd5b803590602001918460208302840111640100000000831117156105c657600080fd5b91908080602002602001604051908101604052809392919081815260200183836020028082843760009201919091525092955050913592506115a6915050565b6102bd6004803603604081101561061c57600080fd5b50803590602001356117d2565b61029e6004803603604081101561063f57600080fd5b50600160a060020a038135169060200135611921565b6103066004803603602081101561066b57600080fd5b5035600160a060020a0316611994565b61029e6004803603602081101561069157600080fd5b50356119af565b61029e600480360360208110156106ae57600080fd5b5035611a0b565b61029e600480360360208110156106cb57600080fd5b5035600160a060020a0316611a67565b610306611ae2565b61029e600480360360208110156106f957600080fd5b50351515611b40565b61029e6004803603606081101561071857600080fd5b8135919081019060408101602082013564010000000081111561073a57600080fd5b82018360208201111561074c57600080fd5b8035906020019184602083028401116401000000008311171561076e57600080fd5b9190808060200260200160405190810160405280939291908181526020018383602002808284376000920191909152509295505091359250611baa915050565b61029e600480360360608110156107c457600080fd5b813591908101906040810160208201356401000000008111156107e657600080fd5b8201836020820111156107f857600080fd5b8035906020019184602083028401116401000000008311171561081a57600080fd5b9190808060200260200160405190810160405280939291908181526020018383602002808284376000920191909152509295505091359250611dd3915050565b6000606080600460009054906101000a9004600160a060020a0316600160a060020a031663c62461cc6040518163ffffffff1660e060020a02815260040160006040518083038186803b1580156108b057600080fd5b505afa1580156108c4573d6000803e3d6000fd5b505050506040513d6000823e601f3d908101601f1916820160405260608110156108ed57600080fd5b81516020830180519193928301929164010000000081111561090e57600080fd5b8201602081018481111561092157600080fd5b815185602082028301116401000000008211171561093e57600080fd5b5050929190602001805164010000000081111561095a57600080fd5b8201602081018481111561096d57600080fd5b815185602082028301116401000000008211171561098a57600080fd5b509599949850965092945050505050565b326000908152600b6020526040812055565b3360009081526020819052604081205460ff161515610a04576040805160e560020a62461bcd02815260206004820152601b602482015260008051602061203c833981519152604482015290519081900360640190fd5b600554600010610a485760405160e560020a62461bcd028152600401808060200182810382526021815260200180611ff76021913960400191505060405180910390fd5b600954604260ff9091161015610a88576009805461ff001960ff198216600160ff9384160183161790811661010091829004831660001901909216021790555b6001821015610acb5760405160e560020a62461bcd0281526004018080602001828103825260248152602001806120186024913960400191505060405180910390fd5b8160640a600854606302811515610ade57fe5b04600855506001919050565b3360009081526020819052604090205460ff161515610b41576040805160e560020a62461bcd02815260206004820152601b602482015260008051602061203c833981519152604482015290519081900360640190fd5b73__UintUtils_____________________________63669dafe86308f0d1806040518263ffffffff1660e060020a0281526004018082815260200191505060206040518083038186803b158015610b9757600080fd5b505af4158015610bab573d6000803e3d6000fd5b505050506040513d6020811015610bc157600080fd5b5051600555604080517f669dafe80000000000000000000000000000000000000000000000000000000081526216e3606004820152905173__UintUtils_____________________________9163669dafe8916024808301926020929190829003018186803b158015610c3357600080fd5b505af4158015610c47573d6000803e3d6000fd5b505050506040513d6020811015610c5d57600080fd5b5051600855565b600254604080517f2889cc070000000000000000000000000000000000000000000000000000000081526004810184905290516000926060928392600160a060020a0390921691632889cc07916024808201928892909190829003018186803b158015610cd057600080fd5b505afa158015610ce4573d6000803e3d6000fd5b505050506040513d6000823e601f3d908101601f191682016040526060811015610d0d57600080fd5b815160208301805191939283019291640100000000811115610d2e57600080fd5b82016020810184811115610d4157600080fd5b8151856020820283011164010000000082111715610d5e57600080fd5b50509291906020018051640100000000811115610d7a57600080fd5b82016020810184811115610d8d57600080fd5b8151856020820283011164010000000082111715610daa57600080fd5b50959a94995097509295505050505050565b60006006544210158015610dd557506006546170800142105b15610de257506001610de6565b5060005b90565b3360009081526020819052604081205460ff161515610e40576040805160e560020a62461bcd02815260206004820152601b602482015260008051602061203c833981519152604482015290519081900360640190fd5b5060055490565b3360009081526020819052604090205460ff161515610e9e576040805160e560020a62461bcd02815260206004820152601b602482015260008051602061203c833981519152604482015290519081900360640190fd5b600555565b600354604080517f493274410000000000000000000000000000000000000000000000000000000081526004810184905290516000926060928492600160a060020a03909216916349327441916024808201928692909190829003018186803b158015610f0f57600080fd5b505afa158015610f23573d6000803e3d6000fd5b505050506040513d6000823e601f3d908101601f191682016040526060811015610f4c57600080fd5b815160208301805191939283019291640100000000811115610f6d57600080fd5b82016020810184811115610f8057600080fd5b8151856020820283011164010000000082111715610f9d57600080fd5b5050602090910151939650945091925050509193909250565b3360009081526020819052604081205460ff16151561100d576040805160e560020a62461bcd02815260206004820152601b602482015260008051602061203c833981519152604482015290519081900360640190fd5b50600160a060020a03166000908152600b602052604090205490565b3360009081526020819052604081205460ff161515611080576040805160e560020a62461bcd02815260206004820152601b602482015260008051602061203c833981519152604482015290519081900360640190fd5b50600160a060020a03166000908152600a602052604090205490565b3360009081526020819052604090205460ff1615156110f3576040805160e560020a62461bcd02815260206004820152601b602482015260008051602061203c833981519152604482015290519081900360640190fd5b600160a060020a039091166000908152600b6020526040902055565b326000908152600a6020526040812055565b3360009081526020819052604090205460ff161515611178576040805160e560020a62461bcd02815260206004820152601b602482015260008051602061203c833981519152604482015290519081900360640190fd5b600160a060020a03166000908152602081905260409020805460ff19169055565b3360009081526020819052604081205460ff1615156111f0576040805160e560020a62461bcd02815260206004820152601b602482015260008051602061203c833981519152604482015290519081900360640190fd5b5060075460ff1690565b6000600654617080014210158015610dd557506006546201518001421015610de257506001610de6565b3360009081526020819052604090205460ff16151561127b576040805160e560020a62461bcd02815260206004820152601b602482015260008051602061203c833981519152604482015290519081900360640190fd5b6002546040517fc21a774300000000000000000000000000000000000000000000000000000000815260048101858152604482018490526060602483018181528651606485015286519194600160a060020a03169363c21a77439389938993899390916084909101906020808701910280838360005b838110156113095781810151838201526020016112f1565b50505050905001945050505050600060405180830381600087803b15801561133057600080fd5b505af1158015611344573d6000803e3d6000fd5b505050506040513d6000823e601f3d908101601f19168201604052602081101561136d57600080fd5b81019080805164010000000081111561138557600080fd5b8201602081018481111561139857600080fd5b81518560208202830111640100000000821117156113b557600080fd5b50909450600093505050505b81518110156114ba576002548251600160a060020a039091169063509b49e99087908590859081106113ef57fe5b906020019060200201516040518363ffffffff1660e060020a0281526004018083815260200182600160a060020a0316600160a060020a031681526020019250505060206040518083038186803b15801561144957600080fd5b505afa15801561145d573d6000803e3d6000fd5b505050506040513d602081101561147357600080fd5b50518251600a9060009085908590811061148957fe5b6020908102909101810151600160a060020a03168252810191909152604001600020805490910190556001016113c1565b5050505050565b600154604080517fc79b12450000000000000000000000000000000000000000000000000000000081526004810184905290516000926060928392600160a060020a039092169163c79b1245916024808201928892909190829003018186803b158015610cd057600080fd5b3360009081526020819052604081205460ff161515611584576040805160e560020a62461bcd02815260206004820152601b602482015260008051602061203c833981519152604482015290519081900360640190fd5b5060085490565b600160a060020a03166000908152600a602052604090205490565b3360009081526020819052604081205460ff1615156115fd576040805160e560020a62461bcd02815260206004820152601b602482015260008051602061203c833981519152604482015290519081900360640190fd5b60048054604080517f1e238d1000000000000000000000000000000000000000000000000000000000815260248101869052928301908152855160448401528551600093600160a060020a0390931692631e238d1092889288928291606490910190602080870191028083838c5b8381101561168357818101518382015260200161166b565b505050509050019350505050602060405180830381600087803b1580156116a957600080fd5b505af11580156116bd573d6000803e3d6000fd5b505050506040513d60208110156116d357600080fd5b5051905060005b84518110156117ca576004548551600160a060020a0390911690634a6817879087908490811061170657fe5b906020019060200201516040518263ffffffff1660e060020a0281526004018082600160a060020a0316600160a060020a0316815260200191505060206040518083038186803b15801561175957600080fd5b505afa15801561176d573d6000803e3d6000fd5b505050506040513d602081101561178357600080fd5b50518551600a9060009088908590811061179957fe5b6020908102909101810151600160a060020a03168252810191909152604001600020805490910190556001016116da565b509392505050565b600073__UintUtils_____________________________63669dafe8836040518263ffffffff1660e060020a0281526004018082815260200191505060206040518083038186803b15801561182657600080fd5b505af415801561183a573d6000803e3d6000fd5b505050506040513d602081101561185057600080fd5b5051604080517f669dafe800000000000000000000000000000000000000000000000000000000815260048101869052905173__UintUtils_____________________________9163669dafe8916024808301926020929190829003018186803b1580156118bd57600080fd5b505af41580156118d1573d6000803e3d6000fd5b505050506040513d60208110156118e757600080fd5b505110156118fd576007805460ff191660011790555b6005541515611914576007805460ff191660011790555b5060075460ff1692915050565b3360009081526020819052604090205460ff161515611978576040805160e560020a62461bcd02815260206004820152601b602482015260008051602061203c833981519152604482015290519081900360640190fd5b600160a060020a039091166000908152600a6020526040902055565b600160a060020a03166000908152600b602052604090205490565b3360009081526020819052604090205460ff161515611a06576040805160e560020a62461bcd02815260206004820152601b602482015260008051602061203c833981519152604482015290519081900360640190fd5b600655565b3360009081526020819052604090205460ff161515611a62576040805160e560020a62461bcd02815260206004820152601b602482015260008051602061203c833981519152604482015290519081900360640190fd5b600855565b3360009081526020819052604090205460ff161515611abe576040805160e560020a62461bcd02815260206004820152601b602482015260008051602061203c833981519152604482015290519081900360640190fd5b600160a060020a03166000908152602081905260409020805460ff19166001179055565b3360009081526020819052604081205460ff161515611b39576040805160e560020a62461bcd02815260206004820152601b602482015260008051602061203c833981519152604482015290519081900360640190fd5b5060065490565b3360009081526020819052604090205460ff161515611b97576040805160e560020a62461bcd02815260206004820152601b602482015260008051602061203c833981519152604482015290519081900360640190fd5b6007805460ff1916911515919091179055565b3360009081526020819052604090205460ff161515611c01576040805160e560020a62461bcd02815260206004820152601b602482015260008051602061203c833981519152604482015290519081900360640190fd5b6001546040517fa5fa79760000000000000000000000000000000000000000000000000000000081526004810185815260448201849052606060248301908152855160648401528551600160a060020a039094169363a5fa797693889388938893919290916084909101906020808701910280838360005b83811015611c91578181015183820152602001611c79565b50505050905001945050505050600060405180830381600087803b158015611cb857600080fd5b505af1158015611ccc573d6000803e3d6000fd5b506000925050505b8251811015611dcd576001548351600160a060020a03909116906365922b74908690869085908110611d0257fe5b906020019060200201516040518363ffffffff1660e060020a0281526004018083815260200182600160a060020a0316600160a060020a031681526020019250505060206040518083038186803b158015611d5c57600080fd5b505afa158015611d70573d6000803e3d6000fd5b505050506040513d6020811015611d8657600080fd5b50518351600a90600090869085908110611d9c57fe5b6020908102909101810151600160a060020a0316825281019190915260400160002080549091019055600101611cd4565b50505050565b3360009081526020819052604090205460ff161515611e2a576040805160e560020a62461bcd02815260206004820152601b602482015260008051602061203c833981519152604482015290519081900360640190fd5b6003546040517fac197f920000000000000000000000000000000000000000000000000000000081526004810185815260448201849052606060248301908152855160648401528551600160a060020a039094169363ac197f9293889388938893919290916084909101906020808701910280838360005b83811015611eba578181015183820152602001611ea2565b50505050905001945050505050600060405180830381600087803b158015611ee157600080fd5b505af1158015611ef5573d6000803e3d6000fd5b506000925050505b8251811015611dcd576003548351600160a060020a039091169063dd572ab9908690869085908110611f2b57fe5b906020019060200201516040518363ffffffff1660e060020a0281526004018083815260200182600160a060020a0316600160a060020a031681526020019250505060206040518083038186803b158015611f8557600080fd5b505afa158015611f99573d6000803e3d6000fd5b505050506040513d6020811015611faf57600080fd5b50518351600a90600090869085908110611fc557fe5b6020908102909101810151600160a060020a0316825281019190915260400160002080549091019055600101611efd56fee585b1e5bbbae8b584e98791e6b1a0e5b7b2e7bb8fe6b688e88097e5ae8ce6af95e7acace4b880e8bdaee695b0e580bce5b7b2e7bb8fe5889de5a78be58c96e8bf87e4ba86e8b083e794a8e88085e6b2a1e69c89e8b083e794a8e69d83e999900000000000a165627a7a723058206289eeb771dabdce20d9a7cc3c172ed316c659932feffd7e716514766bc056dd0029",
  "source": "pragma solidity >=0.4.21 <0.6.0;\n\nimport \"../node_modules/openzeppelin-solidity/contracts/math/SafeMath.sol\";\nimport \"./UintUtils.sol\";\nimport \"./FissionReward.sol\";\nimport \"./FOMOReward.sol\";\nimport \"./LuckyReward.sol\";\nimport \"./FaithReward.sol\";\nimport \"./ABCToken.sol\";\n\n/// @title \n/// @dev \ncontract ResonanceDataManage{\n\n    using SafeMath for uint256;\n\n    event WhihdrawAllToken();\n\n    mapping(address => bool) accessAllowed;\n\n    modifier platform() {\n        require(accessAllowed[msg.sender], \"\");\n        _;\n    }\n\n    FissionReward fissionRewardInstance;\n    FOMOReward FOMORewardInstance;\n    LuckyReward luckyRewardInstance;\n    FaithReward faithRewardInstance;\n\n    // \n    uint256 private fundsPool;\n    // \n    uint256 private openingTime;\n    // \n    bool crowdsaleClosed = false;\n    // // \n    // uint256 currentStep;\n\n    // Token\n    uint256 initBuildingTokenAmount;\n\n    // Token\n    uint8 buildingPercentOfParty = 50;\n\n    // Token\n    uint8 buildingPercentOfCommunity = 50;\n\n    // \n    mapping(address => uint256) private ETHBalance;\n    mapping(address => uint256) private tokenBalance;\n\n    constructor(\n        address _fassionRewardAddress,\n        address _FOMORewardAddress,\n        address _luckyRewardAddress,\n        address _faithRewardAddress\n    ) public {\n        accessAllowed[msg.sender] = true;\n        // \n        fissionRewardInstance = FissionReward(_fassionRewardAddress);\n        FOMORewardInstance = FOMOReward(_FOMORewardAddress);\n        luckyRewardInstance = LuckyReward(_luckyRewardAddress);\n        faithRewardInstance = FaithReward(_faithRewardAddress);\n    }\n\n    // \n    function setParamForFirstStep() public platform{\n        fundsPool = UintUtils.toWei(150000000);\n        initBuildingTokenAmount = UintUtils.toWei(1500000);\n    }\n\n    function allowAccess(address _addr) public platform() {\n        accessAllowed[_addr] = true;\n    }\n\n    function denyAccess(address _addr) public platform() {\n        accessAllowed[_addr] = false;\n    }\n\n    function setFundsPool(uint256 _fundsPool) public platform() {\n        fundsPool = _fundsPool;\n    }\n\n    function getFundsPool() public platform() view returns(uint256) {\n        return fundsPool;\n    }\n\n    function setOpeningTime(uint256 _openingTime) public platform() {\n        openingTime = _openingTime;\n    }\n\n    function getOpeningTime() public platform() view returns(uint256){\n        return openingTime;\n    }\n\n    function setCrowdsaleClosed(bool _crowdsaleClosed) public platform() {\n        crowdsaleClosed = _crowdsaleClosed;\n    }\n\n    function getCrowdsaleClosed() public platform() view returns(bool) {\n        return crowdsaleClosed;\n    }\n\n    function getETHBalance(address _addr) public platform() view returns(uint256) {\n        return ETHBalance[_addr];\n    }\n\n    function setETHBalance(address _addr, uint256 _amount) public platform() {\n        ETHBalance[_addr] = _amount;\n    }\n\n    function getTokenBalance(address _addr) public platform() view returns(uint256) {\n        return tokenBalance[_addr];\n    }\n\n    function setTokenBalance(address _addr, uint256 _amount) public platform() {\n        tokenBalance[_addr] = _amount;\n    }\n\n    function getBuildingTokenAmount() public platform() view returns(uint256) {\n        return initBuildingTokenAmount;\n    }\n\n    function setBuildingTokenAmount(uint256 _tokenAmount) public platform() {\n        initBuildingTokenAmount = _tokenAmount;\n    }\n\n    // \n    function isBuildingPeriod() public view returns(bool){\n        if(block.timestamp >= openingTime && block.timestamp < openingTime + 8 hours) {\n            return true;\n        }else{\n            return false;\n        }\n    }\n\n    // \n    function isFundingPeriod() public view returns(bool) {\n        if(block.timestamp >= openingTime + 8 hours && block.timestamp < openingTime + 24 hours) {\n            return true;\n        }else{\n            return false;\n        }\n    }\n\n    /// @notice \n    function crowdsaleIsClosed(\n        uint256 raisedETH,\n        uint256 softCap\n    )\n        public\n        returns(bool)\n    {\n        // 1.\n        if(UintUtils.toWei(raisedETH) < UintUtils.toWei(softCap)) {\n            crowdsaleClosed = true;\n        }\n\n        // 2.\n        if(fundsPool == 0) {\n            crowdsaleClosed = true;\n        }\n\n        return crowdsaleClosed;\n    }\n\n    /// @notice \n    function settlementFissionReward(uint256 _stepIndex, address[] memory _fissionWinnerList, uint256 totalFissionReward)\n        public\n        platform()\n    {\n        fissionRewardInstance.dealFissionInfo(_stepIndex, _fissionWinnerList, totalFissionReward);\n        // \n        for(uint i = 0; i < _fissionWinnerList.length; i++){\n            ETHBalance[_fissionWinnerList[i]] += fissionRewardInstance.fissionRewardAmount(_stepIndex,_fissionWinnerList[i]);\n        }\n    }\n\n    function settlementFOMOReward(uint256 _stepIndex, address[] memory _funders, uint256 totalFOMOReward)\n        public\n        platform()\n    {\n        address[] memory FOMOWinnerList = FOMORewardInstance.dealFOMOWinner(_stepIndex, _funders, totalFOMOReward);\n\n        for(uint i = 0; i < FOMOWinnerList.length; i++){\n            ETHBalance[FOMOWinnerList[i]] += FOMORewardInstance.FOMORewardAmount(_stepIndex,FOMOWinnerList[i]);\n        }\n    }\n\n    function settlementLuckyReward(uint256 _stepIndex, address[] memory _LuckyWinnerList, uint256 totalLuckyReward)\n        public\n        platform()\n    {\n        luckyRewardInstance.dealLuckyInfo(_stepIndex, _LuckyWinnerList, totalLuckyReward);\n        for(uint i = 0; i < _LuckyWinnerList.length; i++){\n            ETHBalance[_LuckyWinnerList[i]] += luckyRewardInstance.luckyRewardAmount(_stepIndex,_LuckyWinnerList[i]);\n        }\n    }\n\n    function dmSettlementFaithReward(address[] memory _faithWinners, uint256 totalFaithReward)\n        public\n        platform()\n        returns(bool)\n    {\n        bool faithRewardFinished = faithRewardInstance.dealFaithWinner(_faithWinners, totalFaithReward);\n\n        for(uint i = 0; i < _faithWinners.length; i++){\n            ETHBalance[_faithWinners[i]] += faithRewardInstance.faithRewardAmount(_faithWinners[i]);\n        }\n        return faithRewardFinished;\n    }\n\n    /// @notice Token\n    function withdrawTokenAmount(address _addr) public view returns (uint256) {\n        return tokenBalance[_addr];\n    }\n\n    /// @notice ETH\n    function withdrawETHAmount(address _addr) public view returns (uint256) {\n        return ETHBalance[_addr];\n    }\n\n    function emptyTokenBalance() public {\n        tokenBalance[tx.origin] = 0;\n    }\n\n    function emptyETHBalance() public {\n        ETHBalance[tx.origin] = 0;\n    }\n\n    /// @notice \n    /// @dev \n    /// @param _stepIndex \n    function getFissionRewardInfo(uint256 _stepIndex)\n        public\n        view\n        returns(uint256, address[] memory, uint256[] memory)\n    {\n        return fissionRewardInstance.getFissionInfo(_stepIndex);\n    }\n\n    /// @notice FOMO\n    /// @dev FOMO\n    /// @param _stepIndex \n    function getFOMORewardIofo(uint256 _stepIndex)\n        public\n        view\n        returns(uint256, address[] memory, uint256[] memory)\n    {\n        return FOMORewardInstance.getFOMOWinnerInfo(_stepIndex);\n    }\n\n    /// @notice \n    /// @dev \n    /// @param _stepIndex \n    function getLuckyRewardInfo(uint256 _stepIndex)\n        public\n        view\n        returns(uint256, address[] memory, uint256)\n    {\n        return luckyRewardInstance.getLuckyInfo(_stepIndex);\n    }\n\n    /// @notice \n    /// @dev \n    function getFaithRewardInfo()\n        public\n        view\n        returns(uint256, address[] memory, uint256[] memory)\n    {\n        return faithRewardInstance.getFaithWinnerInfo();\n    }\n\n    /// @notice \n    function updateBuildingPercent(uint256 _stepIndex) public platform() returns (bool) {\n        require(fundsPool > 0, \"\");\n        // +1%-1%\n        if(buildingPercentOfParty < 66){\n            buildingPercentOfParty += 1;\n            buildingPercentOfCommunity -= 1;\n        }\n        require(_stepIndex >= 1, \"\");\n        initBuildingTokenAmount = initBuildingTokenAmount * 99 / 100 ** _stepIndex;\n\n        return true;\n    }\n\n}",
  "sourcePath": "/Users/a186r/dev/sourcecode/contracts/contract/contract/contracts/ResonanceDataManage.sol",
  "compiler": {
    "name": "solc",
    "version": "0.5.2+commit.1df8f40c.Emscripten.clang"
  },
  "schemaVersion": "3.0.6",
  "updatedAt": "2019-05-27T06:57:37.026Z",
  "devdoc": {
    "details": "",
    "methods": {
      "getFOMORewardIofo(uint256)": {
        "details": "FOMO",
        "params": {
          "_stepIndex": ""
        }
      },
      "getFaithRewardInfo()": {
        "details": ""
      },
      "getFissionRewardInfo(uint256)": {
        "details": "",
        "params": {
          "_stepIndex": ""
        }
      },
      "getLuckyRewardInfo(uint256)": {
        "details": "",
        "params": {
          "_stepIndex": ""
        }
      }
    },
    "title": ""
  },
  "userdoc": {
    "methods": {
      "crowdsaleIsClosed(uint256,uint256)": {
        "notice": ""
      },
      "getFOMORewardIofo(uint256)": {
        "notice": "FOMO"
      },
      "getFaithRewardInfo()": {
        "notice": ""
      },
      "getFissionRewardInfo(uint256)": {
        "notice": ""
      },
      "getLuckyRewardInfo(uint256)": {
        "notice": ""
      },
      "settlementFissionReward(uint256,address[],uint256)": {
        "notice": ""
      },
      "updateBuildingPercent(uint256)": {
        "notice": ""
      },
      "withdrawETHAmount(address)": {
        "notice": "ETH"
      },
      "withdrawTokenAmount(address)": {
        "notice": "Token"
      }
    }
  }
}