{
  "contractName": "Resonance",
  "abi": [
    {
      "constant": false,
      "inputs": [],
      "name": "renounceOwnership",
      "outputs": [],
      "payable": false,
      "stateMutability": "nonpayable",
      "type": "function"
    },
    {
      "constant": true,
      "inputs": [],
      "name": "owner",
      "outputs": [
        {
          "name": "",
          "type": "address"
        }
      ],
      "payable": false,
      "stateMutability": "view",
      "type": "function"
    },
    {
      "constant": true,
      "inputs": [],
      "name": "isOwner",
      "outputs": [
        {
          "name": "",
          "type": "bool"
        }
      ],
      "payable": false,
      "stateMutability": "view",
      "type": "function"
    },
    {
      "constant": true,
      "inputs": [
        {
          "name": "",
          "type": "address"
        }
      ],
      "name": "ETHBalance",
      "outputs": [
        {
          "name": "",
          "type": "uint256"
        }
      ],
      "payable": false,
      "stateMutability": "view",
      "type": "function"
    },
    {
      "constant": true,
      "inputs": [],
      "name": "abcToken",
      "outputs": [
        {
          "name": "",
          "type": "address"
        }
      ],
      "payable": false,
      "stateMutability": "view",
      "type": "function"
    },
    {
      "constant": true,
      "inputs": [
        {
          "name": "",
          "type": "address"
        }
      ],
      "name": "tokenBalance",
      "outputs": [
        {
          "name": "",
          "type": "uint256"
        }
      ],
      "payable": false,
      "stateMutability": "view",
      "type": "function"
    },
    {
      "constant": false,
      "inputs": [
        {
          "name": "newOwner",
          "type": "address"
        }
      ],
      "name": "transferOwnership",
      "outputs": [],
      "payable": false,
      "stateMutability": "nonpayable",
      "type": "function"
    },
    {
      "inputs": [
        {
          "name": "_abcToken",
          "type": "address"
        },
        {
          "name": "_beneficiary",
          "type": "address"
        },
        {
          "name": "_initialFissionPerson",
          "type": "address"
        },
        {
          "name": "_fassionRewardAddress",
          "type": "address"
        },
        {
          "name": "_FOMORewardAddress",
          "type": "address"
        },
        {
          "name": "_luckyRewardAddress",
          "type": "address"
        },
        {
          "name": "_faithRewardAddress",
          "type": "address"
        }
      ],
      "payable": false,
      "stateMutability": "nonpayable",
      "type": "constructor"
    },
    {
      "payable": true,
      "stateMutability": "payable",
      "type": "fallback"
    },
    {
      "anonymous": false,
      "inputs": [
        {
          "indexed": true,
          "name": "fissionPerson",
          "type": "address"
        },
        {
          "indexed": true,
          "name": "promoter",
          "type": "address"
        }
      ],
      "name": "ToBeFissionPerson",
      "type": "event"
    },
    {
      "anonymous": false,
      "inputs": [
        {
          "indexed": false,
          "name": "currentStepTokenAmount",
          "type": "uint256"
        },
        {
          "indexed": false,
          "name": "currentStepRaisedETH",
          "type": "uint256"
        }
      ],
      "name": "FundsInfo",
      "type": "event"
    },
    {
      "anonymous": false,
      "inputs": [
        {
          "indexed": false,
          "name": "bpCountdown",
          "type": "uint256"
        },
        {
          "indexed": false,
          "name": "remainingToken",
          "type": "uint256"
        },
        {
          "indexed": false,
          "name": "personalTokenLimited",
          "type": "uint256"
        },
        {
          "indexed": false,
          "name": "totalTokenAmount",
          "type": "uint256"
        }
      ],
      "name": "BuildingPerioInfo",
      "type": "event"
    },
    {
      "anonymous": false,
      "inputs": [
        {
          "indexed": false,
          "name": "fpCountdown",
          "type": "uint256"
        },
        {
          "indexed": false,
          "name": "remainingETH",
          "type": "uint256"
        },
        {
          "indexed": false,
          "name": "rasiedETHAmount",
          "type": "uint256"
        }
      ],
      "name": "FundingPeriodInfo",
      "type": "event"
    },
    {
      "anonymous": false,
      "inputs": [
        {
          "indexed": false,
          "name": "fissionRewardList",
          "type": "address[]"
        },
        {
          "indexed": false,
          "name": "fissionRewardAmount",
          "type": "uint256[]"
        }
      ],
      "name": "FissionRewardInfo",
      "type": "event"
    },
    {
      "anonymous": false,
      "inputs": [
        {
          "indexed": false,
          "name": "FOMORewardList",
          "type": "address[]"
        },
        {
          "indexed": false,
          "name": "FOMORewards",
          "type": "uint256[]"
        }
      ],
      "name": "FOMORewardInfo",
      "type": "event"
    },
    {
      "anonymous": false,
      "inputs": [
        {
          "indexed": false,
          "name": "luckyRewardList",
          "type": "address[]"
        },
        {
          "indexed": false,
          "name": "luckyReward",
          "type": "uint256"
        }
      ],
      "name": "LuckyRewardInfo",
      "type": "event"
    },
    {
      "anonymous": false,
      "inputs": [
        {
          "indexed": false,
          "name": "faithRewardList",
          "type": "address[]"
        },
        {
          "indexed": false,
          "name": "faithRewardAmount",
          "type": "uint256[]"
        }
      ],
      "name": "FaithRewardInfo",
      "type": "event"
    },
    {
      "anonymous": false,
      "inputs": [
        {
          "indexed": false,
          "name": "addr",
          "type": "address"
        },
        {
          "indexed": false,
          "name": "ETHAmount",
          "type": "uint256"
        }
      ],
      "name": "WithdrawAllETH",
      "type": "event"
    },
    {
      "anonymous": false,
      "inputs": [
        {
          "indexed": false,
          "name": "from",
          "type": "address"
        },
        {
          "indexed": false,
          "name": "to",
          "type": "address"
        },
        {
          "indexed": false,
          "name": "tokenAmount",
          "type": "uint256"
        }
      ],
      "name": "WhihdrawAllToken",
      "type": "event"
    },
    {
      "anonymous": false,
      "inputs": [
        {
          "indexed": false,
          "name": "FunderInfoArray",
          "type": "uint256[]"
        }
      ],
      "name": "FunderInfo",
      "type": "event"
    },
    {
      "anonymous": false,
      "inputs": [
        {
          "indexed": false,
          "name": "funderAddress",
          "type": "address[]"
        },
        {
          "indexed": false,
          "name": "funderTokenAmount",
          "type": "uint256[]"
        },
        {
          "indexed": false,
          "name": "funderETHAmount",
          "type": "uint256[]"
        },
        {
          "indexed": false,
          "name": "funderInvitees",
          "type": "uint256[]"
        },
        {
          "indexed": false,
          "name": "funderEarnFromAff",
          "type": "uint256[]"
        }
      ],
      "name": "StepFunders",
      "type": "event"
    },
    {
      "anonymous": false,
      "inputs": [
        {
          "indexed": false,
          "name": "stepIndex",
          "type": "uint256"
        }
      ],
      "name": "SettlementStep",
      "type": "event"
    },
    {
      "anonymous": false,
      "inputs": [
        {
          "indexed": false,
          "name": "stepIndex",
          "type": "uint256"
        }
      ],
      "name": "StartNextStep",
      "type": "event"
    },
    {
      "anonymous": false,
      "inputs": [
        {
          "indexed": true,
          "name": "previousOwner",
          "type": "address"
        },
        {
          "indexed": true,
          "name": "newOwner",
          "type": "address"
        }
      ],
      "name": "OwnershipTransferred",
      "type": "event"
    },
    {
      "constant": false,
      "inputs": [
        {
          "name": "promoter",
          "type": "address"
        }
      ],
      "name": "toBeFissionPerson",
      "outputs": [],
      "payable": false,
      "stateMutability": "nonpayable",
      "type": "function"
    },
    {
      "constant": false,
      "inputs": [
        {
          "name": "_tokenAmount",
          "type": "uint256"
        }
      ],
      "name": "jointlyBuild",
      "outputs": [],
      "payable": false,
      "stateMutability": "nonpayable",
      "type": "function"
    },
    {
      "constant": false,
      "inputs": [
        {
          "name": "_fissionWinnerList",
          "type": "address[]"
        },
        {
          "name": "_LuckyWinnerList",
          "type": "address[]"
        }
      ],
      "name": "settlementStep",
      "outputs": [
        {
          "name": "",
          "type": "bool"
        }
      ],
      "payable": false,
      "stateMutability": "nonpayable",
      "type": "function"
    },
    {
      "constant": false,
      "inputs": [
        {
          "name": "_FaithWinnerList",
          "type": "address[]"
        }
      ],
      "name": "settlementFaithReward",
      "outputs": [
        {
          "name": "",
          "type": "bool"
        }
      ],
      "payable": false,
      "stateMutability": "nonpayable",
      "type": "function"
    },
    {
      "constant": false,
      "inputs": [],
      "name": "withdrawAllToken",
      "outputs": [],
      "payable": true,
      "stateMutability": "payable",
      "type": "function"
    },
    {
      "constant": false,
      "inputs": [],
      "name": "withdrawAllETH",
      "outputs": [],
      "payable": true,
      "stateMutability": "payable",
      "type": "function"
    },
    {
      "constant": true,
      "inputs": [],
      "name": "isBuilder",
      "outputs": [
        {
          "name": "",
          "type": "bool"
        }
      ],
      "payable": false,
      "stateMutability": "view",
      "type": "function"
    },
    {
      "constant": true,
      "inputs": [],
      "name": "isFunder",
      "outputs": [
        {
          "name": "",
          "type": "bool"
        }
      ],
      "payable": false,
      "stateMutability": "view",
      "type": "function"
    },
    {
      "constant": false,
      "inputs": [
        {
          "name": "_stepIndex",
          "type": "uint256"
        }
      ],
      "name": "getStepFunders",
      "outputs": [],
      "payable": false,
      "stateMutability": "nonpayable",
      "type": "function"
    },
    {
      "constant": false,
      "inputs": [],
      "name": "getCurrentStepFundsInfo",
      "outputs": [],
      "payable": false,
      "stateMutability": "nonpayable",
      "type": "function"
    },
    {
      "constant": false,
      "inputs": [],
      "name": "getBuildingPerioInfo",
      "outputs": [],
      "payable": false,
      "stateMutability": "nonpayable",
      "type": "function"
    },
    {
      "constant": false,
      "inputs": [],
      "name": "getFundingPeriodInfo",
      "outputs": [],
      "payable": false,
      "stateMutability": "nonpayable",
      "type": "function"
    },
    {
      "constant": false,
      "inputs": [
        {
          "name": "_stepIndex",
          "type": "uint256"
        }
      ],
      "name": "getFissionRewardInfo",
      "outputs": [],
      "payable": false,
      "stateMutability": "nonpayable",
      "type": "function"
    },
    {
      "constant": false,
      "inputs": [
        {
          "name": "_stepIndex",
          "type": "uint256"
        }
      ],
      "name": "getFOMORewardIofo",
      "outputs": [],
      "payable": false,
      "stateMutability": "nonpayable",
      "type": "function"
    },
    {
      "constant": false,
      "inputs": [
        {
          "name": "_stepIndex",
          "type": "uint256"
        }
      ],
      "name": "getLuckyRewardInfo",
      "outputs": [],
      "payable": false,
      "stateMutability": "nonpayable",
      "type": "function"
    },
    {
      "constant": false,
      "inputs": [],
      "name": "getFaithRewardInfo",
      "outputs": [],
      "payable": false,
      "stateMutability": "nonpayable",
      "type": "function"
    },
    {
      "constant": false,
      "inputs": [
        {
          "name": "_funder",
          "type": "address"
        }
      ],
      "name": "getFunderInfo",
      "outputs": [],
      "payable": false,
      "stateMutability": "nonpayable",
      "type": "function"
    },
    {
      "constant": true,
      "inputs": [],
      "name": "crowdsaleIsRunning",
      "outputs": [
        {
          "name": "",
          "type": "bool"
        }
      ],
      "payable": false,
      "stateMutability": "view",
      "type": "function"
    },
    {
      "constant": true,
      "inputs": [],
      "name": "Beneficiary",
      "outputs": [
        {
          "name": "",
          "type": "address"
        }
      ],
      "payable": false,
      "stateMutability": "view",
      "type": "function"
    },
    {
      "constant": true,
      "inputs": [],
      "name": "getBlockHash",
      "outputs": [
        {
          "name": "blockHash",
          "type": "bytes32"
        }
      ],
      "payable": false,
      "stateMutability": "view",
      "type": "function"
    }
  ],
  "bytecode": "0x60806040526000600560006101000a81548160ff0219169083151502179055503480156200002c57600080fd5b5060405160e08062006091833981018060405260e08110156200004e57600080fd5b8101908080519060200190929190805190602001909291908051906020019092919080519060200190929190805190602001909291908051906020019092919080519060200190929190505050336000806101000a81548173ffffffffffffffffffffffffffffffffffffffff021916908373ffffffffffffffffffffffffffffffffffffffff1602179055506000809054906101000a900473ffffffffffffffffffffffffffffffffffffffff1673ffffffffffffffffffffffffffffffffffffffff16600073ffffffffffffffffffffffffffffffffffffffff167f8be0079c531659141344cd1fd0a4f28419497f9722a3daafe3b4186f6b6457e060405160405180910390a36000600b8190555086600160006101000a81548173ffffffffffffffffffffffffffffffffffffffff021916908373ffffffffffffffffffffffffffffffffffffffff16021790555085600360006101000a81548173ffffffffffffffffffffffffffffffffffffffff021916908373ffffffffffffffffffffffffffffffffffffffff16021790555084600d60006101000a81548173ffffffffffffffffffffffffffffffffffffffff021916908373ffffffffffffffffffffffffffffffffffffffff1602179055504260048190555083600560016101000a81548173ffffffffffffffffffffffffffffffffffffffff021916908373ffffffffffffffffffffffffffffffffffffffff16021790555082600660006101000a81548173ffffffffffffffffffffffffffffffffffffffff021916908373ffffffffffffffffffffffffffffffffffffffff16021790555081600760006101000a81548173ffffffffffffffffffffffffffffffffffffffff021916908373ffffffffffffffffffffffffffffffffffffffff16021790555080600860006101000a81548173ffffffffffffffffffffffffffffffffffffffff021916908373ffffffffffffffffffffffffffffffffffffffff16021790555050505050505050615d4d80620003446000396000f3fe6080604052600436106101b9576000357c01000000000000000000000000000000000000000000000000000000009004806390386bbf11610109578063c12cd1bc116100a7578063ee12d62211610081578063ee12d62214610a51578063eedc966a14610aa2578063f2fde38b14610b07578063feaec77514610b58576101b9565b8063c12cd1bc14610992578063de3844ff146109a9578063e7574128146109fa576101b9565b80639663f88f116100e35780639663f88f14610756578063a815119d14610781578063b4862a71146107e6578063b5ac72b514610821576101b9565b806390386bbf14610706578063912c84ec1461071057806392ef4fe414610727576101b9565b80635deac38b1161017657806373d553791161015057806373d55379146105ee5780638a18854b146106455780638da5cb5b146106805780638f32d59b146106d7576101b9565b80635deac38b146104e357806364ab07fa146105c0578063715018a6146105d7576101b9565b80630c214602146103e257806314870d2c146103f957806316b29746146104035780631e7efbc91461043e5780633723e1c21461047957806354b94615146104b4575b6170806004540142101580156101d55750620151806004540142105b1515610249576040517f08c379a00000000000000000000000000000000000000000000000000000000081526004018080602001828103825260128152602001807fe4b88de59ca8e58b9fe8b584e69c9fe58685000000000000000000000000000081525060200191505060405180910390fd5b610251610b87565b15156102c5576040517f08c379a00000000000000000000000000000000000000000000000000000000081526004018080602001828103825260128152602001807fe585b1e68cafe5b7b2e7bb8fe7bb93e69d9f000000000000000000000000000081525060200191505060405180910390fd5b600034905080600c600b548154811015156102dc57fe5b90600052602060002090600d020160000160003373ffffffffffffffffffffffffffffffffffffffff1673ffffffffffffffffffffffffffffffffffffffff168152602001908152602001600020600201819055506001600c600b5481548110151561034457fe5b90600052602060002090600d020160000160003373ffffffffffffffffffffffffffffffffffffffff1673ffffffffffffffffffffffffffffffffffffffff16815260200190815260200160002060050160156101000a81548160ff02191690831515021790555080600c600b548154811015156103be57fe5b90600052602060002090600d02016006016001016000828254019250508190555050005b3480156103ee57600080fd5b506103f7610b9f565b005b610401610c3f565b005b34801561040f57600080fd5b5061043c6004803603602081101561042657600080fd5b8101908080359060200190929190505050610fe2565b005b34801561044a57600080fd5b506104776004803603602081101561046157600080fd5b81019080803590602001909291905050506114a7565b005b34801561048557600080fd5b506104b26004803603602081101561049c57600080fd5b8101908080359060200190929190505050611553565b005b3480156104c057600080fd5b506104c96115ff565b604051808215151515815260200191505060405180910390f35b3480156104ef57600080fd5b506105a66004803603602081101561050657600080fd5b810190808035906020019064010000000081111561052357600080fd5b82018360208201111561053557600080fd5b8035906020019184602083028401116401000000008311171561055757600080fd5b919080806020026020016040519081016040528093929190818152602001838360200280828437600081840152601f19601f820116905080830192505050505050509192919290505050611676565b604051808215151515815260200191505060405180910390f35b3480156105cc57600080fd5b506105d5611718565b005b3480156105e357600080fd5b506105ec611934565b005b3480156105fa57600080fd5b50610603611a06565b604051808273ffffffffffffffffffffffffffffffffffffffff1673ffffffffffffffffffffffffffffffffffffffff16815260200191505060405180910390f35b34801561065157600080fd5b5061067e6004803603602081101561066857600080fd5b8101908080359060200190929190505050611a30565b005b34801561068c57600080fd5b50610695611adc565b604051808273ffffffffffffffffffffffffffffffffffffffff1673ffffffffffffffffffffffffffffffffffffffff16815260200191505060405180910390f35b3480156106e357600080fd5b506106ec611b05565b604051808215151515815260200191505060405180910390f35b61070e611b5c565b005b34801561071c57600080fd5b50610725611ddd565b005b34801561073357600080fd5b5061073c610b87565b604051808215151515815260200191505060405180910390f35b34801561076257600080fd5b5061076b611ee4565b6040518082815260200191505060405180910390f35b34801561078d57600080fd5b506107d0600480360360208110156107a457600080fd5b81019080803573ffffffffffffffffffffffffffffffffffffffff169060200190929190505050611f22565b6040518082815260200191505060405180910390f35b3480156107f257600080fd5b5061081f6004803603602081101561080957600080fd5b8101908080359060200190929190505050611f3a565b005b34801561082d57600080fd5b506109786004803603604081101561084457600080fd5b810190808035906020019064010000000081111561086157600080fd5b82018360208201111561087357600080fd5b8035906020019184602083028401116401000000008311171561089557600080fd5b919080806020026020016040519081016040528093929190818152602001838360200280828437600081840152601f19601f820116905080830192505050505050509192919290803590602001906401000000008111156108f557600080fd5b82018360208201111561090757600080fd5b8035906020019184602083028401116401000000008311171561092957600080fd5b919080806020026020016040519081016040528093929190818152602001838360200280828437600081840152601f19601f820116905080830192505050505050509192919290505050612811565b604051808215151515815260200191505060405180910390f35b34801561099e57600080fd5b506109a7612a7e565b005b3480156109b557600080fd5b506109f8600480360360208110156109cc57600080fd5b81019080803573ffffffffffffffffffffffffffffffffffffffff169060200190929190505050612c6c565b005b348015610a0657600080fd5b50610a0f61391a565b604051808273ffffffffffffffffffffffffffffffffffffffff1673ffffffffffffffffffffffffffffffffffffffff16815260200191505060405180910390f35b348015610a5d57600080fd5b50610aa060048036036020811015610a7457600080fd5b81019080803573ffffffffffffffffffffffffffffffffffffffff169060200190929190505050613940565b005b348015610aae57600080fd5b50610af160048036036020811015610ac557600080fd5b81019080803573ffffffffffffffffffffffffffffffffffffffff169060200190929190505050614188565b6040518082815260200191505060405180910390f35b348015610b1357600080fd5b50610b5660048036036020811015610b2a57600080fd5b81019080803573ffffffffffffffffffffffffffffffffffffffff1690602001909291905050506141a0565b005b348015610b6457600080fd5b50610b6d6141bf565b604051808215151515815260200191505060405180910390f35b6000600560009054906101000a900460ff1615905090565b600860009054906101000a900473ffffffffffffffffffffffffffffffffffffffff1673ffffffffffffffffffffffffffffffffffffffff1663c62461cc6040518163ffffffff167c0100000000000000000000000000000000000000000000000000000000028152600401600060405180830381600087803b158015610c2557600080fd5b505af1158015610c39573d6000803e3d6000fd5b50505050565b600c600b54815481101515610c5057fe5b90600052602060002090600d020160000160003373ffffffffffffffffffffffffffffffffffffffff1673ffffffffffffffffffffffffffffffffffffffff16815260200190815260200160002060050160169054906101000a900460ff16151515610d07576040517f08c379a000000000000000000000000000000000000000000000000000000000815260040180806020018281038252602c815260200180615cf6602c913960400191505060405180910390fd5b6000600a60003373ffffffffffffffffffffffffffffffffffffffff1673ffffffffffffffffffffffffffffffffffffffff1681526020019081526020016000205490506000600a60003373ffffffffffffffffffffffffffffffffffffffff1673ffffffffffffffffffffffffffffffffffffffff168152602001908152602001600020819055506001600c600b54815481101515610da357fe5b90600052602060002090600d020160000160003373ffffffffffffffffffffffffffffffffffffffff1673ffffffffffffffffffffffffffffffffffffffff16815260200190815260200160002060050160166101000a81548160ff021916908315150217905550600160009054906101000a900473ffffffffffffffffffffffffffffffffffffffff1673ffffffffffffffffffffffffffffffffffffffff166323b872dd3033846040518463ffffffff167c0100000000000000000000000000000000000000000000000000000000028152600401808473ffffffffffffffffffffffffffffffffffffffff1673ffffffffffffffffffffffffffffffffffffffff1681526020018373ffffffffffffffffffffffffffffffffffffffff1673ffffffffffffffffffffffffffffffffffffffff1681526020018281526020019350505050602060405180830381600087803b158015610f0457600080fd5b505af1158015610f18573d6000803e3d6000fd5b505050506040513d6020811015610f2e57600080fd5b8101908080519060200190929190505050507f5ffdbbc3abdbeeb4216a0d708cef18d039ed61b0fcb5e4557e2ba42583e196c2303383604051808473ffffffffffffffffffffffffffffffffffffffff1673ffffffffffffffffffffffffffffffffffffffff1681526020018373ffffffffffffffffffffffffffffffffffffffff1673ffffffffffffffffffffffffffffffffffffffff168152602001828152602001935050505060405180910390a150565b6060806060806060600c86815481101515610ff957fe5b90600052602060002090600d020160010180548060200260200160405190810160405280929190818152602001828054801561108a57602002820191906000526020600020905b8160009054906101000a900473ffffffffffffffffffffffffffffffffffffffff1673ffffffffffffffffffffffffffffffffffffffff1681526020019060010190808311611040575b5050505050945060008090505b855181101561130257600c878154811015156110af57fe5b90600052602060002090600d0201600001600087838151811015156110d057fe5b9060200190602002015173ffffffffffffffffffffffffffffffffffffffff1673ffffffffffffffffffffffffffffffffffffffff16815260200190815260200160002060010154858281518110151561112657fe5b9060200190602002018181525050600c8781548110151561114357fe5b90600052602060002090600d02016000016000878381518110151561116457fe5b9060200190602002015173ffffffffffffffffffffffffffffffffffffffff1673ffffffffffffffffffffffffffffffffffffffff1681526020019081526020016000206002015484828151811015156111ba57fe5b9060200190602002018181525050600c878154811015156111d757fe5b90600052602060002090600d0201600001600087838151811015156111f857fe5b9060200190602002015173ffffffffffffffffffffffffffffffffffffffff1673ffffffffffffffffffffffffffffffffffffffff16815260200190815260200160002060030180549050838281518110151561125157fe5b9060200190602002018181525050600c600b5481548110151561127057fe5b90600052602060002090600d02016000016000878381518110151561129157fe5b9060200190602002015173ffffffffffffffffffffffffffffffffffffffff1673ffffffffffffffffffffffffffffffffffffffff1681526020019081526020016000206004015482828151811015156112e757fe5b90602001906020020181815250508080600101915050611097565b507f3b87f7808c5ab95853c64302b46442fcc67c01ce3ca71e707da509a4100e6afc858585858560405180806020018060200180602001806020018060200186810386528b818151815260200191508051906020019060200280838360005b8381101561137c578082015181840152602081019050611361565b5050505090500186810385528a818151815260200191508051906020019060200280838360005b838110156113be5780820151818401526020810190506113a3565b50505050905001868103845289818151815260200191508051906020019060200280838360005b838110156114005780820151818401526020810190506113e5565b50505050905001868103835288818151815260200191508051906020019060200280838360005b83811015611442578082015181840152602081019050611427565b50505050905001868103825287818151815260200191508051906020019060200280838360005b83811015611484578082015181840152602081019050611469565b505050509050019a505050505050505050505060405180910390a1505050505050565b600660009054906101000a900473ffffffffffffffffffffffffffffffffffffffff1673ffffffffffffffffffffffffffffffffffffffff16632889cc07826040518263ffffffff167c010000000000000000000000000000000000000000000000000000000002815260040180828152602001915050600060405180830381600087803b15801561153857600080fd5b505af115801561154c573d6000803e3d6000fd5b5050505050565b600760009054906101000a900473ffffffffffffffffffffffffffffffffffffffff1673ffffffffffffffffffffffffffffffffffffffff166349327441826040518263ffffffff167c010000000000000000000000000000000000000000000000000000000002815260040180828152602001915050600060405180830381600087803b1580156115e457600080fd5b505af11580156115f8573d6000803e3d6000fd5b5050505050565b6000600c600b5481548110151561161257fe5b90600052602060002090600d020160000160003373ffffffffffffffffffffffffffffffffffffffff1673ffffffffffffffffffffffffffffffffffffffff16815260200190815260200160002060050160149054906101000a900460ff16905090565b6000611680611b05565b151561168b57600080fd5b611693610b87565b151515611708576040517f08c379a00000000000000000000000000000000000000000000000000000000081526004018080602001828103825260128152602001807fe585b1e68cafe8bf98e69caae7bb93e69d9f000000000000000000000000000081525060200191505060405180910390fd5b61171182614236565b9050919050565b600454421015801561172f57506170806004540142105b15156117a3576040517f08c379a00000000000000000000000000000000000000000000000000000000081526004018080602001828103825260128152602001807fe4b88de59ca8e585b1e5bbbae69c9fe58685000000000000000000000000000081525060200191505060405180910390fd5b6117ab610b87565b151561181f576040517f08c379a00000000000000000000000000000000000000000000000000000000081526004018080602001828103825260128152602001807fe585b1e68cafe5b7b2e7bb8fe7bb93e69d9f000000000000000000000000000081525060200191505060405180910390fd5b600080600080426170806004540103935061188d600c600b5481548110151561184457fe5b90600052602060002090600d020160020160020154600c600b5481548110151561186a57fe5b90600052602060002090600d0201600201600001546145c590919063ffffffff16565b9250600c600b548154811015156118a057fe5b90600052602060002090600d0201600201600101549150600c600b548154811015156118c857fe5b90600052602060002090600d02016002016003015490507fe11de7dbf210471e3fa9c2ce8526b79b1202a34755ab39aa0ee452e2de7dd9e3848484846040518085815260200184815260200183815260200182815260200194505050505060405180910390a150505050565b61193c611b05565b151561194757600080fd5b600073ffffffffffffffffffffffffffffffffffffffff166000809054906101000a900473ffffffffffffffffffffffffffffffffffffffff1673ffffffffffffffffffffffffffffffffffffffff167f8be0079c531659141344cd1fd0a4f28419497f9722a3daafe3b4186f6b6457e060405160405180910390a360008060006101000a81548173ffffffffffffffffffffffffffffffffffffffff021916908373ffffffffffffffffffffffffffffffffffffffff160217905550565b6000600360009054906101000a900473ffffffffffffffffffffffffffffffffffffffff16905090565b600560019054906101000a900473ffffffffffffffffffffffffffffffffffffffff1673ffffffffffffffffffffffffffffffffffffffff1663c79b1245826040518263ffffffff167c010000000000000000000000000000000000000000000000000000000002815260040180828152602001915050600060405180830381600087803b158015611ac157600080fd5b505af1158015611ad5573d6000803e3d6000fd5b5050505050565b60008060009054906101000a900473ffffffffffffffffffffffffffffffffffffffff16905090565b60008060009054906101000a900473ffffffffffffffffffffffffffffffffffffffff1673ffffffffffffffffffffffffffffffffffffffff163373ffffffffffffffffffffffffffffffffffffffff1614905090565b600c600b54815481101515611b6d57fe5b90600052602060002090600d020160000160003373ffffffffffffffffffffffffffffffffffffffff1673ffffffffffffffffffffffffffffffffffffffff16815260200190815260200160002060050160179054906101000a900460ff16151515611c24576040517f08c379a0000000000000000000000000000000000000000000000000000000008152600401808060200182810382526027815260200180615c7e6027913960400191505060405180910390fd5b6000600960003373ffffffffffffffffffffffffffffffffffffffff1673ffffffffffffffffffffffffffffffffffffffff1681526020019081526020016000205490506000600960003373ffffffffffffffffffffffffffffffffffffffff1673ffffffffffffffffffffffffffffffffffffffff168152602001908152602001600020819055506001600c600b54815481101515611cc057fe5b90600052602060002090600d020160000160003373ffffffffffffffffffffffffffffffffffffffff1673ffffffffffffffffffffffffffffffffffffffff16815260200190815260200160002060050160176101000a81548160ff0219169083151502179055503373ffffffffffffffffffffffffffffffffffffffff166108fc829081150290604051600060405180830381858888f19350505050158015611d6e573d6000803e3d6000fd5b507f293d21fe426f090ce1ced07545832d833ba5245d1ca5dab39eedd683bcb26c713382604051808373ffffffffffffffffffffffffffffffffffffffff1673ffffffffffffffffffffffffffffffffffffffff1681526020018281526020019250505060405180910390a150565b611de5610b87565b1515611e59576040517f08c379a00000000000000000000000000000000000000000000000000000000081526004018080602001828103825260128152602001807fe585b1e68cafe5b7b2e7bb8fe7bb93e69d9f000000000000000000000000000081525060200191505060405180910390fd5b7fefb17818fcd18149842dc8ec26c8d51b1f7cd86669024d8ad385c95727e301b2600c600b54815481101515611e8b57fe5b90600052602060002090600d020160020160000154600c600b54815481101515611eb157fe5b90600052602060002090600d020160060160010154604051808381526020018281526020019250505060405180910390a1565b6000611f1c6001600c600b54815481101515611efc57fe5b90600052602060002090600d0201600c01546145e790919063ffffffff16565b40905090565b60096020528060005260406000206000915090505481565b6004544210158015611f5157506170806004540142105b1515611fc5576040517f08c379a00000000000000000000000000000000000000000000000000000000081526004018080602001828103825260128152602001807fe4b88de59ca8e585b1e5bbbae69c9fe58685000000000000000000000000000081525060200191505060405180910390fd5b611fcd610b87565b1515612041576040517f08c379a00000000000000000000000000000000000000000000000000000000081526004018080602001828103825260128152602001807fe585b1e68cafe5b7b2e7bb8fe7bb93e69d9f000000000000000000000000000081525060200191505060405180910390fd5b6120496115ff565b15156120bd576040517f08c379a00000000000000000000000000000000000000000000000000000000081526004018080602001828103825260168152602001807fe8b083e794a8e88085e4b88de698af4275696c6465720000000000000000000081525060200191505060405180910390fd5b600c600b548154811015156120ce57fe5b90600052602060002090600d02016002016000015461211b82600c600b548154811015156120f857fe5b90600052602060002090600d0201600201600201546145e790919063ffffffff16565b101515612173576040517f08c379a0000000000000000000000000000000000000000000000000000000008152600401808060200182810382526021815260200180615ca56021913960400191505060405180910390fd5b600c600b5481548110151561218457fe5b90600052602060002090600d02016002016001015461220e82600c600b548154811015156121ae57fe5b90600052602060002090600d020160000160003373ffffffffffffffffffffffffffffffffffffffff1673ffffffffffffffffffffffffffffffffffffffff168152602001908152602001600020600101546145e790919063ffffffff16565b101515612266576040517f08c379a0000000000000000000000000000000000000000000000000000000008152600401808060200182810382526030815260200180615cc66030913960400191505060405180910390fd5b73__UintUtils_____________________________63669dafe8826040518263ffffffff167c01000000000000000000000000000000000000000000000000000000000281526004018082815260200191505060206040518083038186803b1580156122d157600080fd5b505af41580156122e5573d6000803e3d6000fd5b505050506040513d60208110156122fb57600080fd5b8101908080519060200190929190505050600160009054906101000a900473ffffffffffffffffffffffffffffffffffffffff1673ffffffffffffffffffffffffffffffffffffffff1663dd62ed3e33306040518363ffffffff167c0100000000000000000000000000000000000000000000000000000000028152600401808373ffffffffffffffffffffffffffffffffffffffff1673ffffffffffffffffffffffffffffffffffffffff1681526020018273ffffffffffffffffffffffffffffffffffffffff1673ffffffffffffffffffffffffffffffffffffffff1681526020019250505060206040518083038186803b1580156123fb57600080fd5b505afa15801561240f573d6000803e3d6000fd5b505050506040513d602081101561242557600080fd5b8101908080519060200190929190505050101515156124ac576040517f08c379a00000000000000000000000000000000000000000000000000000000081526004018080602001828103825260128152602001807fe68e88e69d83e9a29de5baa6e4b88de8b6b3000000000000000000000000000081525060200191505060405180910390fd5b600160009054906101000a900473ffffffffffffffffffffffffffffffffffffffff1673ffffffffffffffffffffffffffffffffffffffff166323b872dd333073__UintUtils_____________________________63669dafe8866040518263ffffffff167c01000000000000000000000000000000000000000000000000000000000281526004018082815260200191505060206040518083038186803b15801561255757600080fd5b505af415801561256b573d6000803e3d6000fd5b505050506040513d602081101561258157600080fd5b81019080805190602001909291905050506040518463ffffffff167c0100000000000000000000000000000000000000000000000000000000028152600401808473ffffffffffffffffffffffffffffffffffffffff1673ffffffffffffffffffffffffffffffffffffffff1681526020018373ffffffffffffffffffffffffffffffffffffffff1673ffffffffffffffffffffffffffffffffffffffff1681526020018281526020019350505050602060405180830381600087803b15801561264a57600080fd5b505af115801561265e573d6000803e3d6000fd5b505050506040513d602081101561267457600080fd5b810190808051906020019092919050505015156126f9576040517f08c379a000000000000000000000000000000000000000000000000000000000815260040180806020018281038252601a8152602001807fe8bdace7a7bb746f6b656ee588b0e59088e7baa6e5a4b1e8b4a500000000000081525060200191505060405180910390fd5b73__UintUtils_____________________________63669dafe8826040518263ffffffff167c01000000000000000000000000000000000000000000000000000000000281526004018082815260200191505060206040518083038186803b15801561276457600080fd5b505af4158015612778573d6000803e3d6000fd5b505050506040513d602081101561278e57600080fd5b8101908080519060200190929190505050600c600b548154811015156127b057fe5b90600052602060002090600d020160000160003373ffffffffffffffffffffffffffffffffffffffff1673ffffffffffffffffffffffffffffffffffffffff1681526020019081526020016000206001016000828254019250508190555050565b600061281b611b05565b151561282657600080fd5b600560009054906101000a900460ff161515156128ab576040517f08c379a00000000000000000000000000000000000000000000000000000000081526004018080602001828103825260128152602001807fe58b9fe8b584e5b7b2e7bb8fe7bb93e69d9f000000000000000000000000000081525060200191505060405180910390fd5b6128b58383614608565b73__UintUtils_____________________________63669dafe861291b606461290d603c600c600b548154811015156128ea57fe5b90600052602060002090600d0201600601600101546148a690919063ffffffff16565b6148e490919063ffffffff16565b6040518263ffffffff167c01000000000000000000000000000000000000000000000000000000000281526004018082815260200191505060206040518083038186803b15801561296b57600080fd5b505af415801561297f573d6000803e3d6000fd5b505050506040513d602081101561299557600080fd5b810190808051906020019092919050505060096000600360009054906101000a900473ffffffffffffffffffffffffffffffffffffffff1673ffffffffffffffffffffffffffffffffffffffff1673ffffffffffffffffffffffffffffffffffffffff168152602001908152602001600020600082825401925050819055507f884a42ea07d12dfb8a666018fad8dc91f2752bdabafca21fc534fefc1305355f600b546040518082815260200191505060405180910390a1600560009054906101000a900460ff1615612a6b5760019050612a78565b612a7361490e565b600090505b92915050565b617080600454014210158015612a9a5750620151806004540142105b1515612b0e576040517f08c379a00000000000000000000000000000000000000000000000000000000081526004018080602001828103825260128152602001807fe4b88de59ca8e58b9fe8b584e69c9fe58685000000000000000000000000000081525060200191505060405180910390fd5b612b16610b87565b1515612b8a576040517f08c379a00000000000000000000000000000000000000000000000000000000081526004018080602001828103825260128152602001807fe585b1e68cafe5b7b2e7bb8fe7bb93e69d9f000000000000000000000000000081525060200191505060405180910390fd5b600080600042601860045401039250612bf6600c600b54815481101515612bad57fe5b90600052602060002090600d020160060160010154600c600b54815481101515612bd357fe5b90600052602060002090600d0201600601600001546145c590919063ffffffff16565b9150600c600b54815481101515612c0957fe5b90600052602060002090600d02016006016001015490507fae8973493d4c3e41a9615da7dbb45a3e85e217ab826ebf232f236520f89ce5bd83838360405180848152602001838152602001828152602001935050505060405180910390a1505050565b6004544210158015612c8357506170806004540142105b1515612cf7576040517f08c379a00000000000000000000000000000000000000000000000000000000081526004018080602001828103825260128152602001807fe4b88de59ca8e585b1e5bbbae69c9fe58685000000000000000000000000000081525060200191505060405180910390fd5b612cff610b87565b1515612d73576040517f08c379a00000000000000000000000000000000000000000000000000000000081526004018080602001828103825260128152602001807fe585b1e68cafe5b7b2e7bb8fe7bb93e69d9f000000000000000000000000000081525060200191505060405180910390fd5b600073ffffffffffffffffffffffffffffffffffffffff168173ffffffffffffffffffffffffffffffffffffffff1614151515612e18576040517f08c379a000000000000000000000000000000000000000000000000000000000815260040180806020018281038252601b8152602001807fe68ea8e5b9bfe88085e4b88de883bde698afe7a9bae59cb0e59d80000000000081525060200191505060405180910390fd5b73__UintUtils_____________________________63669dafe860086040518263ffffffff167c01000000000000000000000000000000000000000000000000000000000281526004018082815260200191505060206040518083038186803b158015612e8457600080fd5b505af4158015612e98573d6000803e3d6000fd5b505050506040513d6020811015612eae57600080fd5b8101908080519060200190929190505050600160009054906101000a900473ffffffffffffffffffffffffffffffffffffffff1673ffffffffffffffffffffffffffffffffffffffff1663dd62ed3e33306040518363ffffffff167c0100000000000000000000000000000000000000000000000000000000028152600401808373ffffffffffffffffffffffffffffffffffffffff1673ffffffffffffffffffffffffffffffffffffffff1681526020018273ffffffffffffffffffffffffffffffffffffffff1673ffffffffffffffffffffffffffffffffffffffff1681526020019250505060206040518083038186803b158015612fae57600080fd5b505afa158015612fc2573d6000803e3d6000fd5b505050506040513d6020811015612fd857600080fd5b81019080805190602001909291905050501015151561305f576040517f08c379a00000000000000000000000000000000000000000000000000000000081526004018080602001828103825260128152602001807fe68e88e69d83e9a29de5baa6e4b88de8b6b3000000000000000000000000000081525060200191505060405180910390fd5b600160009054906101000a900473ffffffffffffffffffffffffffffffffffffffff1673ffffffffffffffffffffffffffffffffffffffff166323b872dd333073__UintUtils_____________________________63669dafe860086040518263ffffffff167c01000000000000000000000000000000000000000000000000000000000281526004018082815260200191505060206040518083038186803b15801561310b57600080fd5b505af415801561311f573d6000803e3d6000fd5b505050506040513d602081101561313557600080fd5b81019080805190602001909291905050506040518463ffffffff167c0100000000000000000000000000000000000000000000000000000000028152600401808473ffffffffffffffffffffffffffffffffffffffff1673ffffffffffffffffffffffffffffffffffffffff1681526020018373ffffffffffffffffffffffffffffffffffffffff1673ffffffffffffffffffffffffffffffffffffffff1681526020018281526020019350505050602060405180830381600087803b1580156131fe57600080fd5b505af1158015613212573d6000803e3d6000fd5b505050506040513d602081101561322857600080fd5b810190808051906020019092919050505015156132ad576040517f08c379a000000000000000000000000000000000000000000000000000000000815260040180806020018281038252601a8152602001807fe8bdace7a7bb746f6b656ee588b0e59088e7baa6e5a4b1e8b4a500000000000081525060200191505060405180910390fd5b600160009054906101000a900473ffffffffffffffffffffffffffffffffffffffff1673ffffffffffffffffffffffffffffffffffffffff166342966c6873__UintUtils_____________________________63669dafe860036040518263ffffffff167c01000000000000000000000000000000000000000000000000000000000281526004018082815260200191505060206040518083038186803b15801561335757600080fd5b505af415801561336b573d6000803e3d6000fd5b505050506040513d602081101561338157600080fd5b81019080805190602001909291905050506040518263ffffffff167c010000000000000000000000000000000000000000000000000000000002815260040180828152602001915050600060405180830381600087803b1580156133e457600080fd5b505af11580156133f8573d6000803e3d6000fd5b50505050600160009054906101000a900473ffffffffffffffffffffffffffffffffffffffff1673ffffffffffffffffffffffffffffffffffffffff1663a9059cbb8273__UintUtils_____________________________63669dafe860056040518263ffffffff167c01000000000000000000000000000000000000000000000000000000000281526004018082815260200191505060206040518083038186803b1580156134a757600080fd5b505af41580156134bb573d6000803e3d6000fd5b505050506040513d60208110156134d157600080fd5b81019080805190602001909291905050506040518363ffffffff167c0100000000000000000000000000000000000000000000000000000000028152600401808373ffffffffffffffffffffffffffffffffffffffff1673ffffffffffffffffffffffffffffffffffffffff16815260200182815260200192505050602060405180830381600087803b15801561356757600080fd5b505af115801561357b573d6000803e3d6000fd5b505050506040513d602081101561359157600080fd5b81019080805190602001909291905050505073__UintUtils_____________________________63669dafe860056040518263ffffffff167c01000000000000000000000000000000000000000000000000000000000281526004018082815260200191505060206040518083038186803b15801561360f57600080fd5b505af4158015613623573d6000803e3d6000fd5b505050506040513d602081101561363957600080fd5b8101908080519060200190929190505050600c600b5481548110151561365b57fe5b90600052602060002090600d020160000160008373ffffffffffffffffffffffffffffffffffffffff1673ffffffffffffffffffffffffffffffffffffffff168152602001908152602001600020600401600082825401925050819055506136c281614a56565b600c600b548154811015156136d357fe5b90600052602060002090600d020160000160008273ffffffffffffffffffffffffffffffffffffffff1673ffffffffffffffffffffffffffffffffffffffff1681526020019081526020016000206003013390806001815401808255809150509060018203906000526020600020016000909192909190916101000a81548173ffffffffffffffffffffffffffffffffffffffff021916908373ffffffffffffffffffffffffffffffffffffffff16021790555050600560019054906101000a900473ffffffffffffffffffffffffffffffffffffffff1673ffffffffffffffffffffffffffffffffffffffff1663e23613e9600b5483600d60009054906101000a900473ffffffffffffffffffffffffffffffffffffffff166040518463ffffffff167c0100000000000000000000000000000000000000000000000000000000028152600401808481526020018373ffffffffffffffffffffffffffffffffffffffff1673ffffffffffffffffffffffffffffffffffffffff1681526020018273ffffffffffffffffffffffffffffffffffffffff1673ffffffffffffffffffffffffffffffffffffffff1681526020019350505050600060405180830381600087803b1580156138a557600080fd5b505af11580156138b9573d6000803e3d6000fd5b505050508073ffffffffffffffffffffffffffffffffffffffff163373ffffffffffffffffffffffffffffffffffffffff167f95b9b14e81807a19f0d780820ad803eba32584f0671e1410f6815a83e75d4ef760405160405180910390a350565b600160009054906101000a900473ffffffffffffffffffffffffffffffffffffffff1681565b613948615bf5565b600c600b5481548110151561395957fe5b90600052602060002090600d020160000160008373ffffffffffffffffffffffffffffffffffffffff1673ffffffffffffffffffffffffffffffffffffffff16815260200190815260200160002061014060405190810160405290816000820160009054906101000a900473ffffffffffffffffffffffffffffffffffffffff1673ffffffffffffffffffffffffffffffffffffffff1673ffffffffffffffffffffffffffffffffffffffff168152602001600182015481526020016002820154815260200160038201805480602002602001604051908101604052809291908181526020018280548015613aa357602002820191906000526020600020905b8160009054906101000a900473ffffffffffffffffffffffffffffffffffffffff1673ffffffffffffffffffffffffffffffffffffffff1681526020019060010190808311613a59575b50505050508152602001600482015481526020016005820160009054906101000a900473ffffffffffffffffffffffffffffffffffffffff1673ffffffffffffffffffffffffffffffffffffffff1673ffffffffffffffffffffffffffffffffffffffff1681526020016005820160149054906101000a900460ff161515151581526020016005820160159054906101000a900460ff161515151581526020016005820160169054906101000a900460ff161515151581526020016005820160179054906101000a900460ff16151515158152505090506060600a60008473ffffffffffffffffffffffffffffffffffffffff1673ffffffffffffffffffffffffffffffffffffffff16815260200190815260200160002054816000815181101515613bcb57fe5b9060200190602002018181525050600960008473ffffffffffffffffffffffffffffffffffffffff1673ffffffffffffffffffffffffffffffffffffffff16815260200190815260200160002054816001815181101515613c2857fe5b9060200190602002018181525050816060015151816002815181101515613c4b57fe5b90602001906020020181815250508160800151816003815181101515613c6d57fe5b90602001906020020181815250508160200151816004815181101515613c8f57fe5b90602001906020020181815250508160400151816005815181101515613cb157fe5b9060200190602002018181525050600760009054906101000a900473ffffffffffffffffffffffffffffffffffffffff1673ffffffffffffffffffffffffffffffffffffffff1663c28a1af3846040518263ffffffff167c0100000000000000000000000000000000000000000000000000000000028152600401808273ffffffffffffffffffffffffffffffffffffffff1673ffffffffffffffffffffffffffffffffffffffff16815260200191505060206040518083038186803b158015613d7a57600080fd5b505afa158015613d8e573d6000803e3d6000fd5b505050506040513d6020811015613da457600080fd5b8101908080519060200190929190505050816006815181101515613dc457fe5b9060200190602002018181525050600560019054906101000a900473ffffffffffffffffffffffffffffffffffffffff1673ffffffffffffffffffffffffffffffffffffffff16630df2019a846040518263ffffffff167c0100000000000000000000000000000000000000000000000000000000028152600401808273ffffffffffffffffffffffffffffffffffffffff1673ffffffffffffffffffffffffffffffffffffffff16815260200191505060206040518083038186803b158015613e8d57600080fd5b505afa158015613ea1573d6000803e3d6000fd5b505050506040513d6020811015613eb757600080fd5b8101908080519060200190929190505050816007815181101515613ed757fe5b9060200190602002018181525050600660009054906101000a900473ffffffffffffffffffffffffffffffffffffffff1673ffffffffffffffffffffffffffffffffffffffff1663c7535567846040518263ffffffff167c0100000000000000000000000000000000000000000000000000000000028152600401808273ffffffffffffffffffffffffffffffffffffffff1673ffffffffffffffffffffffffffffffffffffffff16815260200191505060206040518083038186803b158015613fa057600080fd5b505afa158015613fb4573d6000803e3d6000fd5b505050506040513d6020811015613fca57600080fd5b8101908080519060200190929190505050816008815181101515613fea57fe5b9060200190602002018181525050600860009054906101000a900473ffffffffffffffffffffffffffffffffffffffff1673ffffffffffffffffffffffffffffffffffffffff16634a681787846040518263ffffffff167c0100000000000000000000000000000000000000000000000000000000028152600401808273ffffffffffffffffffffffffffffffffffffffff1673ffffffffffffffffffffffffffffffffffffffff16815260200191505060206040518083038186803b1580156140b357600080fd5b505afa1580156140c7573d6000803e3d6000fd5b505050506040513d60208110156140dd57600080fd5b81019080805190602001909291905050508160098151811015156140fd57fe5b90602001906020020181815250507f04c808a514c1dafc38d056ce8d726701d153e5560559e9a2cbd4a698fc57dbc9816040518080602001828103825283818151815260200191508051906020019060200280838360005b83811015614170578082015181840152602081019050614155565b505050509050019250505060405180910390a1505050565b600a6020528060005260406000206000915090505481565b6141a8611b05565b15156141b357600080fd5b6141bc81614c16565b50565b6000600c600b548154811015156141d257fe5b90600052602060002090600d020160000160003373ffffffffffffffffffffffffffffffffffffffff1673ffffffffffffffffffffffffffffffffffffffff16815260200190815260200160002060050160159054906101000a900460ff16905090565b60008073__UintUtils_____________________________63669dafe861429f60646142916005600c600b5481548110151561426e57fe5b90600052602060002090600d0201600601600101546148a690919063ffffffff16565b6148e490919063ffffffff16565b6040518263ffffffff167c01000000000000000000000000000000000000000000000000000000000281526004018082815260200191505060206040518083038186803b1580156142ef57600080fd5b505af4158015614303573d6000803e3d6000fd5b505050506040513d602081101561431957600080fd5b810190808051906020019092919050505090506000600860009054906101000a900473ffffffffffffffffffffffffffffffffffffffff1673ffffffffffffffffffffffffffffffffffffffff16631e238d1085846040518363ffffffff167c01000000000000000000000000000000000000000000000000000000000281526004018080602001838152602001828103825284818151815260200191508051906020019060200280838360005b838110156143e25780820151818401526020810190506143c7565b505050509050019350505050602060405180830381600087803b15801561440857600080fd5b505af115801561441c573d6000803e3d6000fd5b505050506040513d602081101561443257600080fd5b8101908080519060200190929190505050905060008090505b84518110156145ba57600860009054906101000a900473ffffffffffffffffffffffffffffffffffffffff1673ffffffffffffffffffffffffffffffffffffffff16634a68178786838151811015156144a057fe5b906020019060200201516040518263ffffffff167c0100000000000000000000000000000000000000000000000000000000028152600401808273ffffffffffffffffffffffffffffffffffffffff1673ffffffffffffffffffffffffffffffffffffffff16815260200191505060206040518083038186803b15801561452657600080fd5b505afa15801561453a573d6000803e3d6000fd5b505050506040513d602081101561455057600080fd5b8101908080519060200190929190505050600960003373ffffffffffffffffffffffffffffffffffffffff1673ffffffffffffffffffffffffffffffffffffffff16815260200190815260200160002060008282540192505081905550808060010191505061444b565b508092505050919050565b60008282111515156145d657600080fd5b600082840390508091505092915050565b60008082840190508381101515156145fe57600080fd5b8091505092915050565b614610611b05565b151561461b57600080fd5b614623610b87565b1515614697576040517f08c379a00000000000000000000000000000000000000000000000000000000081526004018080602001828103825260128152602001807fe585b1e68cafe5b7b2e7bb8fe7bb93e69d9f000000000000000000000000000081525060200191505060405180910390fd5b600c600b548154811015156146a857fe5b90600052602060002090600d0201600b0160009054906101000a900460ff1615151561473c576040517f08c379a000000000000000000000000000000000000000000000000000000000815260040180806020018281038252601e8152602001807fe5bd93e5898de8bdaee6aca1e5b7b2e7bb8fe7bb93e7ae97e5ae8ce6af95000081525060200191505060405180910390fd5b600c600b5481548110151561474d57fe5b90600052602060002090600d0201600b0160019054906101000a900460ff161515156147e1576040517f08c379a000000000000000000000000000000000000000000000000000000000815260040180806020018281038252601b8152602001807fe5bd93e5898de8bdaee6aca1e697a9e5b7b2e7bb8fe7bb93e69d9f000000000081525060200191505060405180910390fd5b6147ea82614d10565b614899600c600b548154811015156147fe57fe5b90600052602060002090600d020160010180548060200260200160405190810160405280929190818152602001828054801561488f57602002820191906000526020600020905b8160009054906101000a900473ffffffffffffffffffffffffffffffffffffffff1673ffffffffffffffffffffffffffffffffffffffff1681526020019060010190808311614845575b505050505061509c565b6148a2816154a6565b5050565b6000808314156148b957600090506148de565b600082840290508284828115156148cc57fe5b041415156148d957600080fd5b809150505b92915050565b600080821115156148f457600080fd5b6000828481151561490157fe5b0490508091505092915050565b614916610b87565b151561498a576040517f08c379a00000000000000000000000000000000000000000000000000000000081526004018080602001828103825260128152602001807fe585b1e68cafe5b7b2e7bb8fe7bb93e69d9f000000000000000000000000000081525060200191505060405180910390fd5b6001600c600b5481548110151561499d57fe5b90600052602060002090600d0201600b0160006101000a81548160ff0219169083151502179055506001600c600b548154811015156149d857fe5b90600052602060002090600d0201600b0160016101000a81548160ff021916908315150217905550614a08615832565b50600b600081548092919060010191905055507feb4f8ce27ee2f036ff2d0bc02908be44cba9da8349185d0b9f996732fb77f07e600b546040518082815260200191505060405180910390a1565b33600c600b54815481101515614a6857fe5b90600052602060002090600d020160000160003373ffffffffffffffffffffffffffffffffffffffff1673ffffffffffffffffffffffffffffffffffffffff16815260200190815260200160002060000160006101000a81548173ffffffffffffffffffffffffffffffffffffffff021916908373ffffffffffffffffffffffffffffffffffffffff16021790555080600c600b54815481101515614b0957fe5b90600052602060002090600d020160000160003373ffffffffffffffffffffffffffffffffffffffff1673ffffffffffffffffffffffffffffffffffffffff16815260200190815260200160002060050160006101000a81548173ffffffffffffffffffffffffffffffffffffffff021916908373ffffffffffffffffffffffffffffffffffffffff1602179055506001600c600b54815481101515614bab57fe5b90600052602060002090600d020160000160003373ffffffffffffffffffffffffffffffffffffffff1673ffffffffffffffffffffffffffffffffffffffff16815260200190815260200160002060050160146101000a81548160ff02191690831515021790555050565b600073ffffffffffffffffffffffffffffffffffffffff168173ffffffffffffffffffffffffffffffffffffffff1614151515614c5257600080fd5b8073ffffffffffffffffffffffffffffffffffffffff166000809054906101000a900473ffffffffffffffffffffffffffffffffffffffff1673ffffffffffffffffffffffffffffffffffffffff167f8be0079c531659141344cd1fd0a4f28419497f9722a3daafe3b4186f6b6457e060405160405180910390a3806000806101000a81548173ffffffffffffffffffffffffffffffffffffffff021916908373ffffffffffffffffffffffffffffffffffffffff16021790555050565b600073__UintUtils_____________________________63669dafe8614d786064614d6a6014600c600b54815481101515614d4757fe5b90600052602060002090600d0201600601600101546148a690919063ffffffff16565b6148e490919063ffffffff16565b6040518263ffffffff167c01000000000000000000000000000000000000000000000000000000000281526004018082815260200191505060206040518083038186803b158015614dc857600080fd5b505af4158015614ddc573d6000803e3d6000fd5b505050506040513d6020811015614df257600080fd5b81019080805190602001909291905050509050600560019054906101000a900473ffffffffffffffffffffffffffffffffffffffff1673ffffffffffffffffffffffffffffffffffffffff1663a5fa7976600b5484846040518463ffffffff167c01000000000000000000000000000000000000000000000000000000000281526004018084815260200180602001838152602001828103825284818151815260200191508051906020019060200280838360005b83811015614ec2578082015181840152602081019050614ea7565b50505050905001945050505050600060405180830381600087803b158015614ee957600080fd5b505af1158015614efd573d6000803e3d6000fd5b5050505060008090505b825181101561509757600560019054906101000a900473ffffffffffffffffffffffffffffffffffffffff1673ffffffffffffffffffffffffffffffffffffffff166365922b74600b548584815181101515614f5f57fe5b906020019060200201516040518363ffffffff167c0100000000000000000000000000000000000000000000000000000000028152600401808381526020018273ffffffffffffffffffffffffffffffffffffffff1673ffffffffffffffffffffffffffffffffffffffff1681526020019250505060206040518083038186803b158015614fec57600080fd5b505afa158015615000573d6000803e3d6000fd5b505050506040513d602081101561501657600080fd5b810190808051906020019092919050505060096000858481518110151561503957fe5b9060200190602002015173ffffffffffffffffffffffffffffffffffffffff1673ffffffffffffffffffffffffffffffffffffffff168152602001908152602001600020600082825401925050819055508080600101915050614f07565b505050565b600073__UintUtils_____________________________63669dafe861510460646150f6600a600c600b548154811015156150d357fe5b90600052602060002090600d0201600601600101546148a690919063ffffffff16565b6148e490919063ffffffff16565b6040518263ffffffff167c01000000000000000000000000000000000000000000000000000000000281526004018082815260200191505060206040518083038186803b15801561515457600080fd5b505af4158015615168573d6000803e3d6000fd5b505050506040513d602081101561517e57600080fd5b810190808051906020019092919050505090506060600660009054906101000a900473ffffffffffffffffffffffffffffffffffffffff1673ffffffffffffffffffffffffffffffffffffffff1663c21a7743600b5485856040518463ffffffff167c01000000000000000000000000000000000000000000000000000000000281526004018084815260200180602001838152602001828103825284818151815260200191508051906020019060200280838360005b83811015615250578082015181840152602081019050615235565b50505050905001945050505050600060405180830381600087803b15801561527757600080fd5b505af115801561528b573d6000803e3d6000fd5b505050506040513d6000823e3d601f19601f8201168201806040525060208110156152b557600080fd5b8101908080516401000000008111156152cd57600080fd5b828101905060208101848111156152e357600080fd5b815185602082028301116401000000008211171561530057600080fd5b5050929190505050905060008090505b81518110156154a057600660009054906101000a900473ffffffffffffffffffffffffffffffffffffffff1673ffffffffffffffffffffffffffffffffffffffff1663509b49e9600b54848481518110151561536857fe5b906020019060200201516040518363ffffffff167c0100000000000000000000000000000000000000000000000000000000028152600401808381526020018273ffffffffffffffffffffffffffffffffffffffff1673ffffffffffffffffffffffffffffffffffffffff1681526020019250505060206040518083038186803b1580156153f557600080fd5b505afa158015615409573d6000803e3d6000fd5b505050506040513d602081101561541f57600080fd5b810190808051906020019092919050505060096000848481518110151561544257fe5b9060200190602002015173ffffffffffffffffffffffffffffffffffffffff1673ffffffffffffffffffffffffffffffffffffffff168152602001908152602001600020600082825401925050819055508080600101915050615310565b50505050565b600073__UintUtils_____________________________63669dafe861550e60646155006005600c600b548154811015156154dd57fe5b90600052602060002090600d0201600601600101546148a690919063ffffffff16565b6148e490919063ffffffff16565b6040518263ffffffff167c01000000000000000000000000000000000000000000000000000000000281526004018082815260200191505060206040518083038186803b15801561555e57600080fd5b505af4158015615572573d6000803e3d6000fd5b505050506040513d602081101561558857600080fd5b81019080805190602001909291905050509050600760009054906101000a900473ffffffffffffffffffffffffffffffffffffffff1673ffffffffffffffffffffffffffffffffffffffff1663ac197f92600b5484846040518463ffffffff167c01000000000000000000000000000000000000000000000000000000000281526004018084815260200180602001838152602001828103825284818151815260200191508051906020019060200280838360005b8381101561565857808201518184015260208101905061563d565b50505050905001945050505050600060405180830381600087803b15801561567f57600080fd5b505af1158015615693573d6000803e3d6000fd5b5050505060008090505b825181101561582d57600760009054906101000a900473ffffffffffffffffffffffffffffffffffffffff1673ffffffffffffffffffffffffffffffffffffffff1663dd572ab9600b5485848151811015156156f557fe5b906020019060200201516040518363ffffffff167c0100000000000000000000000000000000000000000000000000000000028152600401808381526020018273ffffffffffffffffffffffffffffffffffffffff1673ffffffffffffffffffffffffffffffffffffffff1681526020019250505060206040518083038186803b15801561578257600080fd5b505afa158015615796573d6000803e3d6000fd5b505050506040513d60208110156157ac57600080fd5b81019080805190602001909291905050506009600085848151811015156157cf57fe5b9060200190602002015173ffffffffffffffffffffffffffffffffffffffff1673ffffffffffffffffffffffffffffffffffffffff16815260200190815260200160002060008282540192505081905550808060010191505061569d565b505050565b600073__UintUtils_____________________________63669dafe8600c600b5481548110151561585f57fe5b90600052602060002090600d0201600801546040518263ffffffff167c01000000000000000000000000000000000000000000000000000000000281526004018082815260200191505060206040518083038186803b1580156158c157600080fd5b505af41580156158d5573d6000803e3d6000fd5b505050506040513d60208110156158eb57600080fd5b810190808051906020019092919050505073__UintUtils_____________________________63669dafe8600c600b5481548110151561592757fe5b90600052602060002090600d0201600601600101546040518263ffffffff167c01000000000000000000000000000000000000000000000000000000000281526004018082815260200191505060206040518083038186803b15801561598c57600080fd5b505af41580156159a0573d6000803e3d6000fd5b505050506040513d60208110156159b657600080fd5b810190808051906020019092919050505010156159f2576001600560006101000a81548160ff0219169083151502179055506159f0615a2e565b505b60006002541415615a19576001600560006101000a81548160ff0219169083151502179055505b600560009054906101000a900460ff16905090565b6000615a38611b05565b1515615a4357600080fd5b600160009054906101000a900473ffffffffffffffffffffffffffffffffffffffff1673ffffffffffffffffffffffffffffffffffffffff1663a9059cbb615a89611adc565b73__UintUtils_____________________________63669dafe86002546040518263ffffffff167c01000000000000000000000000000000000000000000000000000000000281526004018082815260200191505060206040518083038186803b158015615af657600080fd5b505af4158015615b0a573d6000803e3d6000fd5b505050506040513d6020811015615b2057600080fd5b81019080805190602001909291905050506040518363ffffffff167c0100000000000000000000000000000000000000000000000000000000028152600401808373ffffffffffffffffffffffffffffffffffffffff1673ffffffffffffffffffffffffffffffffffffffff16815260200182815260200192505050602060405180830381600087803b158015615bb657600080fd5b505af1158015615bca573d6000803e3d6000fd5b505050506040513d6020811015615be057600080fd5b81019080805190602001909291905050505090565b61014060405190810160405280600073ffffffffffffffffffffffffffffffffffffffff16815260200160008152602001600081526020016060815260200160008152602001600073ffffffffffffffffffffffffffffffffffffffff168152602001600015158152602001600015158152602001600015158152602001600015158152509056fee794a8e688b7e59ca8e5bd93e5898de8bdaee6aca1e5b7b2e7bb8fe68f90e5b881e5ae8ce68890e5bd93e5898de8bdaee6aca1e585b1e5bbbae5b7b2e7bb8fe8b6b3e5a49fe4ba86e585b1e5bbbae9a29de5baa6e5b7b2e8b685e8bf87e99990e9a29defbc8ce4b88de883bde7bba7e7bbade8bdace585a5e794a8e688b7e59ca8e5bd93e5898de8bdaee6aca1e5b7b2e7bb8fe68f90e58f96746f6b656ee5ae8ce68890a165627a7a723058205324b26b502cc1ab44c4e7319118d403bb4d54600407251b3fbe64c9f95931940029",
  "source": "pragma solidity >=0.4.21 <0.6.0;\n\nimport \"../node_modules/openzeppelin-solidity/contracts/math/SafeMath.sol\";\nimport \"../node_modules/openzeppelin-solidity/contracts/ownership/Ownable.sol\";\nimport \"./ABCToken.sol\";\nimport \"./UintUtils.sol\";\nimport \"./FissionReward.sol\";\nimport \"./FOMOReward.sol\";\nimport \"./LuckyReward.sol\";\nimport \"./FaithReward.sol\";\n\n// TODO:token()\ncontract Resonance is Ownable{\n\n    using SafeMath for uint256;\n\n    // \n    // \n    event ToBeFissionPerson(address indexed fissionPerson, address indexed promoter);\n\n    event FundsInfo(uint256 currentStepTokenAmount, uint256 currentStepRaisedETH);\n    event BuildingPerioInfo(uint256 bpCountdown, uint256 remainingToken, uint256 personalTokenLimited, uint256 totalTokenAmount);\n    event FundingPeriodInfo(uint256 fpCountdown, uint256 remainingETH, uint256 rasiedETHAmount);\n\n    // \n    event FissionRewardInfo(address[] fissionRewardList, uint256[] fissionRewardAmount);\n    event FOMORewardInfo(address[] FOMORewardList, uint256[] FOMORewards);\n    event LuckyRewardInfo(address[] luckyRewardList, uint256 luckyReward);\n    event FaithRewardInfo(address[] faithRewardList, uint256[] faithRewardAmount);\n    event WithdrawAllETH(address addr, uint256 ETHAmount);\n    event WhihdrawAllToken(address from, address to, uint256 tokenAmount);\n    event FunderInfo(uint256[] FunderInfoArray);\n    event StepFunders(\n        address[] funderAddress,\n        uint256[] funderTokenAmount,\n        uint256[] funderETHAmount,\n        uint256[] funderInvitees,\n        uint256[] funderEarnFromAff\n    );\n    event SettlementStep(uint256 stepIndex);\n    event StartNextStep(uint256 stepIndex);\n\n    // \n    modifier softCapReached(){\n        require(steps[currentStep].funding.raisedETH >= steps[currentStep].softCap, \"\");\n        _;\n    }\n\n    // \n    modifier hardCapReached(){\n        require(steps[currentStep].funding.raisedETH < steps[currentStep].hardCap, \"\");\n        _;\n    }\n\n    // \n    modifier isBuildingPeriod() {\n        require(block.timestamp >= openingTime && block.timestamp < openingTime + 8 hours, \"\");\n        _;\n    }\n\n    // \n    modifier isFundingPeriod() {\n        require(block.timestamp >= openingTime + 8 hours && block.timestamp < openingTime + 24 hours, \"\");\n        _;\n    }\n\n    // \n    ABCToken public abcToken;\n\n    // \n    uint256 private fundsPool;\n\n    // 60%\n    address payable private beneficiary;\n\n    // \n    uint256 private openingTime;\n\n    bool crowdsaleClosed = false;   //  \n\n    // \n    struct Funder{\n        address funderAddr; // \n        uint256 tokenAmount; // token\n        uint256 ethAmount; // eth\n        address[] invitees; // \n        uint256 earnFromAff; // \n        address promoter; // \n        bool isBuilder; // /\n        bool isFunder; // \n        bool tokenHasWithdrawn; // Token\n        bool ETHHasWithdrawn; // ETH\n    }\n\n    // \n    struct Building{\n        uint256 openTokenAmount; // Token\n        uint256 personalTokenLimited;// token\n        uint256 raisedToken; // token\n        uint256 raisedTokenAmount; // Token\n    }\n\n    // \n    struct Funding{\n        uint256 ETHAmount; // ETH\n        uint256 raisedETH; // ETH\n    }\n\n    FissionReward fissionRewardInstance;\n    FOMOReward FOMORewardInstance;\n    LuckyReward luckyRewardInstance;\n    FaithReward faithRewardInstance;\n\n    // \n    struct Step{\n        mapping(address => Funder) funder;// \n        address[] funders; // funders\n        Building building; // \n        Funding funding; // \n        uint256 softCap; // \n        uint256 hardCap; // \n        uint256 rate; // \n        bool settlementFinished; // \n        bool stepIsClosed; // \n        uint256 blockNumber; // \n    }\n\n    // \n    mapping(address => uint256) public ETHBalance;\n    mapping(address => uint256) public tokenBalance;\n\n    uint256 currentStep;\n\n    Step[] steps;\n\n    address initialFissionPerson; // \n\n    // Funder funder;\n\n    // mapping\n    // TODO:,\n    // Step[] public steps;\n    // mapping(uint256 => Step) steps;\n\n    // \n    /// @notice \n    /// @param _abcToken Token\n    /// @param _beneficiary \n    /// @param _initialFissionPerson \n    constructor(\n        ABCToken _abcToken,\n        address payable _beneficiary,\n        address _initialFissionPerson,\n        address _fassionRewardAddress,\n        address _FOMORewardAddress,\n        address _luckyRewardAddress,\n        address _faithRewardAddress\n    )\n        public\n    {\n        currentStep = 0;\n        abcToken = _abcToken; // abc Token\n        beneficiary = _beneficiary; // \n        initialFissionPerson = _initialFissionPerson; // \n        openingTime = block.timestamp; // \n        // \n        fissionRewardInstance = FissionReward(_fassionRewardAddress);\n        FOMORewardInstance = FOMOReward(_FOMORewardAddress);\n        luckyRewardInstance = LuckyReward(_luckyRewardAddress);\n        faithRewardInstance = FaithReward(_faithRewardAddress);\n    }\n\n    /// @notice \n    /// @param promoter \n    /// @dev TokenApprove\n    function toBeFissionPerson(\n        address promoter\n    )\n        public\n        isBuildingPeriod()\n    {\n        require(crowdsaleIsRunning(), \"\");\n\n        //TODO: require(steps[currentStep].funder[promoter].isBuilder,\"Builder\");\n\n        require(promoter != address(0), \"\");\n\n        // \n        require(abcToken.allowance(msg.sender, address(this)) >= UintUtils.toWei(8),\"\");\n\n        require(abcToken.transferFrom(msg.sender,address(this), UintUtils.toWei(8)),\"token\");\n\n        // 3\n        abcToken.burn(UintUtils.toWei(3));\n\n        // 5\n        abcToken.transfer(address(promoter), UintUtils.toWei(5));\n\n        // steps[currentStep].funder[promoter] = Funder(msg.sender,0,0,(promoter),0, promoter,false,false,false,false);\n        steps[currentStep].funder[promoter].earnFromAff += UintUtils.toWei(5);\n\n        // // \n        _addBuilder(promoter);\n\n        steps[currentStep].funder[promoter].invitees.push(msg.sender);\n\n        fissionRewardInstance.addAffman(currentStep, promoter, initialFissionPerson);\n\n        emit ToBeFissionPerson(msg.sender, promoter);\n    }\n\n    // token\n    function jointlyBuild(\n        uint256 _tokenAmount\n    )\n        public\n        isBuildingPeriod()\n    {\n        require(crowdsaleIsRunning(), \"\");\n        \n        // builder\n        require(isBuilder(), \"Builder\");\n\n        // \n        require(steps[currentStep].building.raisedToken.add(_tokenAmount) < steps[currentStep].building.openTokenAmount, \"\");\n\n        // \n        require(\n            steps[currentStep].funder[msg.sender].tokenAmount.add(_tokenAmount) < steps[currentStep].building.personalTokenLimited,\n            \"\"\n        );\n\n        // \n        require(abcToken.allowance(msg.sender, address(this)) >= UintUtils.toWei(_tokenAmount),\"\");\n\n        // \n        require(abcToken.transferFrom(msg.sender,address(this), UintUtils.toWei(_tokenAmount)),\"token\");\n        steps[currentStep].funder[msg.sender].tokenAmount += UintUtils.toWei(_tokenAmount);\n    }\n\n    // \n    // \n    function ()\n        external\n        payable\n        isFundingPeriod()\n    {\n        require(crowdsaleIsRunning(), \"\");\n        uint amount = msg.value;\n        steps[currentStep].funder[msg.sender].ethAmount = amount;\n        steps[currentStep].funder[msg.sender].isFunder = true;\n        steps[currentStep].funding.raisedETH += amount;\n    }\n\n    /// @notice \n    /// @dev \n    /// @param _fissionWinnerList \n    /// @param _LuckyWinnerList \n    function settlementStep(\n        address[] memory _fissionWinnerList,\n        address[] memory _LuckyWinnerList\n    )\n        public\n        onlyOwner()\n        returns(bool)\n    {\n        // \n        require(!crowdsaleClosed, \"\");\n        // \n        _settlementReward(_fissionWinnerList, _LuckyWinnerList);\n        // \n        ETHBalance[beneficiary] += UintUtils.toWei(steps[currentStep].funding.raisedETH.mul(60).div(100));\n\n        emit SettlementStep(currentStep);\n\n        if(crowdsaleClosed) {\n            return true;\n        }else{\n            // \n            _startNextStep();\n            return false;\n        }\n    }\n\n    /// @notice \n    /// @param _FaithWinnerList \n    function settlementFaithReward(\n        address[] memory _FaithWinnerList\n    )\n        public\n        onlyOwner()\n        returns(bool)\n    {\n        require(!crowdsaleIsRunning(), \"\");\n        return _settlementFaithReward(_FaithWinnerList);\n    }\n\n    // \n    // \n    // 1.  2.\n    /// @dev \n    function _crowdsaleIsClosed()\n        internal\n        returns(bool)\n    {\n        // 1.\n        if(UintUtils.toWei(steps[currentStep].funding.raisedETH) < UintUtils.toWei(steps[currentStep].softCap)) {\n            crowdsaleClosed = true;\n\n            // Token\n            _withdrawRemainingToken();\n        }\n\n        // TODO:\n        // 2.\n        if(fundsPool == 0) {\n            crowdsaleClosed = true;\n        }\n\n        return crowdsaleClosed;\n    }\n\n    /// @notice Token\n    function _withdrawRemainingToken()\n        internal\n        onlyOwner()\n        returns(bool)\n    {\n        abcToken.transfer(owner(), UintUtils.toWei(fundsPool));\n    }\n\n    /// @notice FOMO\n    /// @dev \n    // \n    // \n    function _settlementReward(\n        address[] memory _fissionWinnerList,\n        address[] memory _LuckyWinnerList\n    )\n        internal\n        onlyOwner()\n    {\n        require(crowdsaleIsRunning(), \"\");\n        require(!steps[currentStep].settlementFinished, \"\");\n        require(!steps[currentStep].stepIsClosed, \"\");\n\n        // \n        // \n        _settlementFissionReward(_fissionWinnerList);\n        _settlementFOMOReward(steps[currentStep].funders);\n        _settlementLuckyReward(_LuckyWinnerList);\n    }\n\n    // TODO: \n\n    /// \n    function _startNextStep()\n        internal\n    {\n        require(crowdsaleIsRunning(), \"\");\n        // step\n        steps[currentStep].settlementFinished = true;\n        // \n        steps[currentStep].stepIsClosed = true;\n        // \n        _crowdsaleIsClosed();\n        // \n        currentStep++;\n        emit StartNextStep(currentStep);\n    }\n\n    /// @notice \n    function _settlementFissionReward(address[] memory _fissionWinnerList) internal {\n        uint256 totalFissionReward = UintUtils.toWei(steps[currentStep].funding.raisedETH.mul(20).div(100));\n        fissionRewardInstance.dealFissionInfo(currentStep, _fissionWinnerList, totalFissionReward);\n        // \n        for(uint i =0 ; i < _fissionWinnerList.length; i++){\n            ETHBalance[_fissionWinnerList[i]] += fissionRewardInstance.fissionRewardAmount(currentStep,_fissionWinnerList[i]);\n        }\n    }\n\n    /// @notice FOMO\n    function _settlementFOMOReward(address[] memory _funders) internal {\n        uint256 totalFOMOReward = UintUtils.toWei(steps[currentStep].funding.raisedETH.mul(10).div(100));\n        address[] memory FOMOWinnerList = FOMORewardInstance.dealFOMOWinner(currentStep, _funders, totalFOMOReward);\n        // \n        for(uint i = 0; i < FOMOWinnerList.length; i++){\n            ETHBalance[FOMOWinnerList[i]] += FOMORewardInstance.FOMORewardAmount(currentStep,FOMOWinnerList[i]);\n        }\n    }\n\n    /// @notice \n    function _settlementLuckyReward(address[] memory _LuckyWinnerList) internal {\n        uint256 totalLuckyReward = UintUtils.toWei(steps[currentStep].funding.raisedETH.mul(5).div(100));\n        luckyRewardInstance.dealLuckyInfo(currentStep, _LuckyWinnerList, totalLuckyReward);\n        // \n        for(uint i = 0; i < _LuckyWinnerList.length; i++){\n            ETHBalance[_LuckyWinnerList[i]] += luckyRewardInstance.luckyRewardAmount(currentStep,_LuckyWinnerList[i]);\n        }\n    }\n\n    // \n    function _settlementFaithReward(address[] memory _faithWinners) internal returns(bool) {\n        uint256 totalFaithReward = UintUtils.toWei(steps[currentStep].funding.raisedETH.mul(5).div(100));\n        bool faithRewardFinished = faithRewardInstance.dealFaithWinner(_faithWinners, totalFaithReward);\n        for(uint i = 0; i < _faithWinners.length; i++){\n            ETHBalance[msg.sender] += faithRewardInstance.faithRewardAmount(_faithWinners[i]);\n        }\n\n        return faithRewardFinished;\n    }\n\n    /// @notice tokentoken\n    function withdrawAllToken()\n        public\n        payable\n    {\n        require(!steps[currentStep].funder[msg.sender].tokenHasWithdrawn, \"token\");\n        uint256 withdrawAmount = tokenBalance[msg.sender];\n        tokenBalance[msg.sender] = 0;\n        steps[currentStep].funder[msg.sender].tokenHasWithdrawn = true;\n        abcToken.transferFrom(address(this), msg.sender, withdrawAmount);\n        emit WhihdrawAllToken(address(this), msg.sender, withdrawAmount);\n    }\n\n    /// @notice (ETH)\n    function withdrawAllETH()\n        public\n        payable\n    {\n        require(!steps[currentStep].funder[msg.sender].ETHHasWithdrawn, \"\");\n        uint256 withdrawAmount = ETHBalance[msg.sender];\n        ETHBalance[msg.sender] = 0;\n        steps[currentStep].funder[msg.sender].ETHHasWithdrawn = true;\n        msg.sender.transfer(withdrawAmount);\n        emit WithdrawAllETH(msg.sender, withdrawAmount);\n    }\n\n    /// @notice \n    /// @dev jointlyBuildtoBeFissionPerson\n    function isBuilder() public view returns(bool) {\n        return steps[currentStep].funder[msg.sender].isBuilder;\n    }\n\n    /// @notice \n    function isFunder() public view returns(bool) {\n        return steps[currentStep].funder[msg.sender].isFunder;\n    }\n\n    /// @notice funders\n    /// @dev funders\n    /// @param _stepIndex \n    function getStepFunders(uint256 _stepIndex) public {\n        address[] memory funderAddress;\n        uint256[] memory funderTokenAmount;\n        uint256[] memory funderETHAmount;\n        uint256[] memory funderInvitees;\n        uint256[] memory earnFromAff;\n\n\n        funderAddress = steps[_stepIndex].funders;\n\n        for(uint i = 0 ; i < funderAddress.length; i++){\n            funderTokenAmount[i] = steps[_stepIndex].funder[funderAddress[i]].tokenAmount;\n            funderETHAmount[i] = steps[_stepIndex].funder[funderAddress[i]].ethAmount;\n            funderInvitees[i] = steps[_stepIndex].funder[funderAddress[i]].invitees.length;\n            earnFromAff[i] = steps[currentStep].funder[funderAddress[i]].earnFromAff;\n        }\n\n        emit StepFunders(funderAddress, funderTokenAmount, funderETHAmount, funderInvitees, earnFromAff);\n    }\n\n    /// @notice tokenETH\n    function getCurrentStepFundsInfo()\n        public\n    {\n        require(crowdsaleIsRunning(), \"\");\n        emit FundsInfo(steps[currentStep].building.openTokenAmount, steps[currentStep].funding.raisedETH);\n    }\n\n    /// @notice \n    function getBuildingPerioInfo()\n        public\n        isBuildingPeriod()\n    {\n        require(crowdsaleIsRunning(), \"\");\n        uint256 _bpCountdown;\n        uint256 _remainingToken;\n        uint256 _personalTokenLimited;\n        uint256 _totalTokenAmount;\n\n        _bpCountdown = (openingTime + 8 hours) - block.timestamp;\n        _remainingToken = steps[currentStep].building.openTokenAmount.sub(steps[currentStep].building.raisedToken);\n        _personalTokenLimited = steps[currentStep].building.personalTokenLimited;\n        _totalTokenAmount = steps[currentStep].building.raisedTokenAmount;\n        emit BuildingPerioInfo(_bpCountdown, _remainingToken, _personalTokenLimited, _totalTokenAmount);\n    }\n\n    // \n    function getFundingPeriodInfo()\n        public\n        isFundingPeriod()\n    {\n        require(crowdsaleIsRunning(), \"\");\n        uint256 _fpCountdown;\n        uint256 _remainingETH;\n        uint256 _rasiedETHAmount;\n\n        _fpCountdown = (openingTime + 24) - block.timestamp;\n        _remainingETH = steps[currentStep].funding.ETHAmount.sub(steps[currentStep].funding.raisedETH);\n        _rasiedETHAmount = steps[currentStep].funding.raisedETH;\n        emit FundingPeriodInfo(_fpCountdown, _remainingETH, _rasiedETHAmount);\n    }\n\n    /// @notice \n    /// @dev \n    /// @param _stepIndex \n    function getFissionRewardInfo(uint256 _stepIndex)\n        public\n    {\n        fissionRewardInstance.getFissionInfo(_stepIndex);\n    }\n\n    /// @notice FOMO\n    /// @dev FOMO\n    /// @param _stepIndex \n    function getFOMORewardIofo(uint256 _stepIndex)\n        public\n    {\n        FOMORewardInstance.getFOMOWinnerInfo(_stepIndex);\n    }\n\n    /// @notice \n    /// @dev \n    /// @param _stepIndex \n    function getLuckyRewardInfo(uint256 _stepIndex)\n        public\n    {\n        luckyRewardInstance.getLuckyInfo(_stepIndex);\n    }\n\n    /// @notice \n    /// @dev \n    function getFaithRewardInfo()\n        public\n    {\n        faithRewardInstance.getFaithWinnerInfo();\n    }\n\n    /// @notice \n    function getFunderInfo(address _funder) public {\n        Funder memory funder = steps[currentStep].funder[_funder];\n\n        uint256[] memory funderInfo;\n\n        funderInfo[0] = tokenBalance[_funder];\n        funderInfo[1] = ETHBalance[_funder];\n        funderInfo[2] = funder.invitees.length;\n        funderInfo[3] = funder.earnFromAff;\n        funderInfo[4] = funder.tokenAmount;\n        funderInfo[5] = funder.ethAmount;\n        funderInfo[6] = luckyRewardInstance.luckyFunderTotalBalance(_funder);\n        funderInfo[7] = fissionRewardInstance.fissionFunderTotalBalance(_funder);\n        funderInfo[8] = FOMORewardInstance.FOMOFunderTotalBalance(_funder);\n        funderInfo[9] = faithRewardInstance.faithRewardAmount(_funder);\n\n        emit FunderInfo(funderInfo);\n    }\n\n    /// @notice \n    /// @param _promoter msg.sender\n    function _addBuilder(address _promoter) internal {\n        // \n        steps[currentStep].funder[msg.sender].funderAddr = msg.sender;\n        steps[currentStep].funder[msg.sender].promoter = _promoter;\n        steps[currentStep].funder[msg.sender].isBuilder = true;\n    }\n\n    /// @notice \n    function crowdsaleIsRunning() public view returns(bool) {\n        return !crowdsaleClosed;\n    }\n\n    /// @notice \n    function Beneficiary() public view returns(address payable) {\n        return beneficiary;\n    }\n\n    /// @notice hash\n    function getBlockHash() public view returns(bytes32 blockHash) {\n        return blockhash(steps[currentStep].blockNumber.add(1));\n    }\n\n}",
  "sourcePath": "/Users/a186r/dev/sourcecode/contracts/contract/contract/contracts/Resonance.sol",
  "compiler": {
    "name": "solc",
    "version": "0.5.2+commit.1df8f40c.Emscripten.clang"
  },
  "schemaVersion": "3.0.6",
  "updatedAt": "2019-05-23T10:50:46.509Z",
  "devdoc": {
    "methods": {
      "constructor": {
        "params": {
          "_abcToken": "Token",
          "_beneficiary": "",
          "_initialFissionPerson": ""
        }
      },
      "getFOMORewardIofo(uint256)": {
        "details": "FOMO",
        "params": {
          "_stepIndex": ""
        }
      },
      "getFaithRewardInfo()": {
        "details": ""
      },
      "getFissionRewardInfo(uint256)": {
        "details": "",
        "params": {
          "_stepIndex": ""
        }
      },
      "getLuckyRewardInfo(uint256)": {
        "details": "",
        "params": {
          "_stepIndex": ""
        }
      },
      "getStepFunders(uint256)": {
        "details": "funders",
        "params": {
          "_stepIndex": ""
        }
      },
      "isBuilder()": {
        "details": "jointlyBuildtoBeFissionPerson"
      },
      "isOwner()": {
        "return": "true if `msg.sender` is the owner of the contract."
      },
      "owner()": {
        "return": "the address of the owner."
      },
      "renounceOwnership()": {
        "details": "Allows the current owner to relinquish control of the contract. It will not be possible to call the functions with the `onlyOwner` modifier anymore."
      },
      "settlementFaithReward(address[])": {
        "params": {
          "_FaithWinnerList": ""
        }
      },
      "settlementStep(address[],address[])": {
        "details": "",
        "params": {
          "_LuckyWinnerList": "",
          "_fissionWinnerList": ""
        }
      },
      "toBeFissionPerson(address)": {
        "details": "TokenApprove",
        "params": {
          "promoter": ""
        }
      },
      "transferOwnership(address)": {
        "details": "Allows the current owner to transfer control of the contract to a newOwner.",
        "params": {
          "newOwner": "The address to transfer ownership to."
        }
      }
    }
  },
  "userdoc": {
    "methods": {
      "Beneficiary()": {
        "notice": ""
      },
      "constructor": "",
      "crowdsaleIsRunning()": {
        "notice": ""
      },
      "getBlockHash()": {
        "notice": "hash"
      },
      "getBuildingPerioInfo()": {
        "notice": ""
      },
      "getCurrentStepFundsInfo()": {
        "notice": "tokenETH"
      },
      "getFOMORewardIofo(uint256)": {
        "notice": "FOMO"
      },
      "getFaithRewardInfo()": {
        "notice": ""
      },
      "getFissionRewardInfo(uint256)": {
        "notice": ""
      },
      "getFunderInfo(address)": {
        "notice": ""
      },
      "getLuckyRewardInfo(uint256)": {
        "notice": ""
      },
      "getStepFunders(uint256)": {
        "notice": "funders"
      },
      "isBuilder()": {
        "notice": ""
      },
      "isFunder()": {
        "notice": ""
      },
      "renounceOwnership()": {
        "notice": "Renouncing ownership will leave the contract without an owner, thereby removing any functionality that is only available to the owner."
      },
      "settlementFaithReward(address[])": {
        "notice": ""
      },
      "settlementStep(address[],address[])": {
        "notice": ""
      },
      "toBeFissionPerson(address)": {
        "notice": ""
      },
      "withdrawAllETH()": {
        "notice": "(ETH)"
      },
      "withdrawAllToken()": {
        "notice": "tokentoken"
      }
    }
  }
}