{
  "contractName": "Resonance",
  "abi": [
    {
      "constant": true,
      "inputs": [],
      "name": "beneficiary",
      "outputs": [
        {
          "name": "",
          "type": "address"
        }
      ],
      "payable": false,
      "stateMutability": "view",
      "type": "function"
    },
    {
      "constant": true,
      "inputs": [],
      "name": "faithRewardTotalAmount",
      "outputs": [
        {
          "name": "",
          "type": "uint256"
        }
      ],
      "payable": false,
      "stateMutability": "view",
      "type": "function"
    },
    {
      "constant": true,
      "inputs": [],
      "name": "currentStep",
      "outputs": [
        {
          "name": "",
          "type": "uint256"
        }
      ],
      "payable": false,
      "stateMutability": "view",
      "type": "function"
    },
    {
      "constant": false,
      "inputs": [],
      "name": "renounceOwnership",
      "outputs": [],
      "payable": false,
      "stateMutability": "nonpayable",
      "type": "function"
    },
    {
      "constant": true,
      "inputs": [],
      "name": "owner",
      "outputs": [
        {
          "name": "",
          "type": "address"
        }
      ],
      "payable": false,
      "stateMutability": "view",
      "type": "function"
    },
    {
      "constant": true,
      "inputs": [],
      "name": "isOwner",
      "outputs": [
        {
          "name": "",
          "type": "bool"
        }
      ],
      "payable": false,
      "stateMutability": "view",
      "type": "function"
    },
    {
      "constant": true,
      "inputs": [],
      "name": "initialFissionPerson",
      "outputs": [
        {
          "name": "",
          "type": "address"
        }
      ],
      "payable": false,
      "stateMutability": "view",
      "type": "function"
    },
    {
      "constant": true,
      "inputs": [],
      "name": "totalETHFromParty",
      "outputs": [
        {
          "name": "",
          "type": "uint256"
        }
      ],
      "payable": false,
      "stateMutability": "view",
      "type": "function"
    },
    {
      "constant": true,
      "inputs": [
        {
          "name": "",
          "type": "address"
        }
      ],
      "name": "isBuilder",
      "outputs": [
        {
          "name": "",
          "type": "bool"
        }
      ],
      "payable": false,
      "stateMutability": "view",
      "type": "function"
    },
    {
      "constant": true,
      "inputs": [],
      "name": "firstParamInitialized",
      "outputs": [
        {
          "name": "",
          "type": "bool"
        }
      ],
      "payable": false,
      "stateMutability": "view",
      "type": "function"
    },
    {
      "constant": true,
      "inputs": [
        {
          "name": "",
          "type": "uint256"
        }
      ],
      "name": "tokenTransfered",
      "outputs": [
        {
          "name": "",
          "type": "bool"
        }
      ],
      "payable": false,
      "stateMutability": "view",
      "type": "function"
    },
    {
      "constant": true,
      "inputs": [],
      "name": "abcToken",
      "outputs": [
        {
          "name": "",
          "type": "address"
        }
      ],
      "payable": false,
      "stateMutability": "view",
      "type": "function"
    },
    {
      "constant": false,
      "inputs": [
        {
          "name": "newOwner",
          "type": "address"
        }
      ],
      "name": "transferOwnership",
      "outputs": [],
      "payable": false,
      "stateMutability": "nonpayable",
      "type": "function"
    },
    {
      "inputs": [
        {
          "name": "_resonanceDataManageAddress",
          "type": "address"
        },
        {
          "name": "_abcToken",
          "type": "address"
        },
        {
          "name": "_fassionRewardAddress",
          "type": "address"
        },
        {
          "name": "_FOMORewardAddress",
          "type": "address"
        },
        {
          "name": "_luckyRewardAddress",
          "type": "address"
        },
        {
          "name": "_faithRewardAddress",
          "type": "address"
        }
      ],
      "payable": false,
      "stateMutability": "nonpayable",
      "type": "constructor"
    },
    {
      "payable": true,
      "stateMutability": "payable",
      "type": "fallback"
    },
    {
      "anonymous": false,
      "inputs": [
        {
          "indexed": true,
          "name": "fissionPerson",
          "type": "address"
        },
        {
          "indexed": true,
          "name": "promoter",
          "type": "address"
        }
      ],
      "name": "ToBeFissionPerson",
      "type": "event"
    },
    {
      "anonymous": false,
      "inputs": [
        {
          "indexed": false,
          "name": "currentStepTokenAmount",
          "type": "uint256"
        },
        {
          "indexed": false,
          "name": "currentStepRaisedETH",
          "type": "uint256"
        }
      ],
      "name": "FundsInfo",
      "type": "event"
    },
    {
      "anonymous": false,
      "inputs": [
        {
          "indexed": false,
          "name": "bpCountdown",
          "type": "uint256"
        },
        {
          "indexed": false,
          "name": "remainingToken",
          "type": "uint256"
        },
        {
          "indexed": false,
          "name": "personalTokenLimited",
          "type": "uint256"
        },
        {
          "indexed": false,
          "name": "totalTokenAmount",
          "type": "uint256"
        }
      ],
      "name": "BuildingPerioInfo",
      "type": "event"
    },
    {
      "anonymous": false,
      "inputs": [
        {
          "indexed": false,
          "name": "fpCountdown",
          "type": "uint256"
        },
        {
          "indexed": false,
          "name": "remainingETH",
          "type": "uint256"
        },
        {
          "indexed": false,
          "name": "rasiedETHAmount",
          "type": "uint256"
        }
      ],
      "name": "FundingPeriodInfo",
      "type": "event"
    },
    {
      "anonymous": false,
      "inputs": [
        {
          "indexed": false,
          "name": "fissionRewardList",
          "type": "address[]"
        },
        {
          "indexed": false,
          "name": "fissionRewardAmount",
          "type": "uint256[]"
        }
      ],
      "name": "FissionRewardInfo",
      "type": "event"
    },
    {
      "anonymous": false,
      "inputs": [
        {
          "indexed": false,
          "name": "FOMORewardList",
          "type": "address[]"
        },
        {
          "indexed": false,
          "name": "FOMORewards",
          "type": "uint256[]"
        }
      ],
      "name": "FOMORewardInfo",
      "type": "event"
    },
    {
      "anonymous": false,
      "inputs": [
        {
          "indexed": false,
          "name": "luckyRewardList",
          "type": "address[]"
        },
        {
          "indexed": false,
          "name": "luckyReward",
          "type": "uint256"
        }
      ],
      "name": "LuckyRewardInfo",
      "type": "event"
    },
    {
      "anonymous": false,
      "inputs": [
        {
          "indexed": false,
          "name": "faithRewardList",
          "type": "address[]"
        },
        {
          "indexed": false,
          "name": "faithRewardAmount",
          "type": "uint256[]"
        }
      ],
      "name": "FaithRewardInfo",
      "type": "event"
    },
    {
      "anonymous": false,
      "inputs": [
        {
          "indexed": false,
          "name": "addr",
          "type": "address"
        },
        {
          "indexed": false,
          "name": "ETHAmount",
          "type": "uint256"
        }
      ],
      "name": "WithdrawAllETH",
      "type": "event"
    },
    {
      "anonymous": false,
      "inputs": [
        {
          "indexed": false,
          "name": "from",
          "type": "address"
        },
        {
          "indexed": false,
          "name": "to",
          "type": "address"
        },
        {
          "indexed": false,
          "name": "tokenAmount",
          "type": "uint256"
        }
      ],
      "name": "WithdrawAllToken",
      "type": "event"
    },
    {
      "anonymous": false,
      "inputs": [
        {
          "indexed": false,
          "name": "FunderInfoArray",
          "type": "uint256[]"
        }
      ],
      "name": "FunderInfo",
      "type": "event"
    },
    {
      "anonymous": false,
      "inputs": [
        {
          "indexed": false,
          "name": "funderAddress",
          "type": "address[]"
        },
        {
          "indexed": false,
          "name": "funderTokenAmount",
          "type": "uint256[]"
        },
        {
          "indexed": false,
          "name": "funderETHAmount",
          "type": "uint256[]"
        },
        {
          "indexed": false,
          "name": "funderInvitees",
          "type": "uint256[]"
        },
        {
          "indexed": false,
          "name": "funderEarnFromAff",
          "type": "uint256[]"
        }
      ],
      "name": "StepFunders",
      "type": "event"
    },
    {
      "anonymous": false,
      "inputs": [
        {
          "indexed": false,
          "name": "stepIndex",
          "type": "uint256"
        }
      ],
      "name": "SettlementStep",
      "type": "event"
    },
    {
      "anonymous": false,
      "inputs": [
        {
          "indexed": false,
          "name": "stepIndex",
          "type": "uint256"
        }
      ],
      "name": "StartNextStep",
      "type": "event"
    },
    {
      "anonymous": false,
      "inputs": [
        {
          "indexed": false,
          "name": "stepIndex",
          "type": "uint256"
        },
        {
          "indexed": false,
          "name": "raiseTarget",
          "type": "uint256"
        }
      ],
      "name": "SetRaiseTarget",
      "type": "event"
    },
    {
      "anonymous": false,
      "inputs": [
        {
          "indexed": false,
          "name": "resonances",
          "type": "address[]"
        }
      ],
      "name": "GetResonances",
      "type": "event"
    },
    {
      "anonymous": false,
      "inputs": [
        {
          "indexed": false,
          "name": "resonancesRasiedETH",
          "type": "uint256"
        }
      ],
      "name": "FunderTotalRaised",
      "type": "event"
    },
    {
      "anonymous": false,
      "inputs": [
        {
          "indexed": false,
          "name": "raisedETHAmount",
          "type": "uint256"
        },
        {
          "indexed": false,
          "name": "nowRaisedEther",
          "type": "uint256"
        },
        {
          "indexed": false,
          "name": "totalRemainingEther",
          "type": "uint256"
        }
      ],
      "name": "currentStepRaisedEther",
      "type": "event"
    },
    {
      "anonymous": false,
      "inputs": [
        {
          "indexed": false,
          "name": "raisedTokenAmount",
          "type": "uint256"
        },
        {
          "indexed": false,
          "name": "remainingTokenForPersonal",
          "type": "uint256"
        },
        {
          "indexed": false,
          "name": "totalRemainingToken",
          "type": "uint256"
        }
      ],
      "name": "currentStepRaisedToken",
      "type": "event"
    },
    {
      "anonymous": false,
      "inputs": [
        {
          "indexed": true,
          "name": "previousOwner",
          "type": "address"
        },
        {
          "indexed": true,
          "name": "newOwner",
          "type": "address"
        }
      ],
      "name": "OwnershipTransferred",
      "type": "event"
    },
    {
      "constant": false,
      "inputs": [
        {
          "name": "_newOwner",
          "type": "address"
        },
        {
          "name": "_beneficiary",
          "type": "address"
        },
        {
          "name": "_initialFissionPerson",
          "type": "address"
        }
      ],
      "name": "initParamForFirstStep",
      "outputs": [],
      "payable": false,
      "stateMutability": "nonpayable",
      "type": "function"
    },
    {
      "constant": false,
      "inputs": [
        {
          "name": "promoter",
          "type": "address"
        }
      ],
      "name": "toBeFissionPerson",
      "outputs": [
        {
          "name": "",
          "type": "address"
        },
        {
          "name": "",
          "type": "address"
        }
      ],
      "payable": false,
      "stateMutability": "nonpayable",
      "type": "function"
    },
    {
      "constant": false,
      "inputs": [
        {
          "name": "_raiseTarget",
          "type": "uint256"
        }
      ],
      "name": "setRaiseTarget",
      "outputs": [
        {
          "name": "",
          "type": "uint256"
        },
        {
          "name": "",
          "type": "uint256"
        }
      ],
      "payable": false,
      "stateMutability": "nonpayable",
      "type": "function"
    },
    {
      "constant": true,
      "inputs": [
        {
          "name": "_stepIndex",
          "type": "uint256"
        }
      ],
      "name": "getRaiseTarget",
      "outputs": [
        {
          "name": "",
          "type": "uint256"
        }
      ],
      "payable": false,
      "stateMutability": "view",
      "type": "function"
    },
    {
      "constant": false,
      "inputs": [
        {
          "name": "_tokenAmount",
          "type": "uint256"
        }
      ],
      "name": "jointlyBuild",
      "outputs": [],
      "payable": false,
      "stateMutability": "nonpayable",
      "type": "function"
    },
    {
      "constant": false,
      "inputs": [],
      "name": "transferToken",
      "outputs": [
        {
          "name": "",
          "type": "bool"
        }
      ],
      "payable": true,
      "stateMutability": "payable",
      "type": "function"
    },
    {
      "constant": false,
      "inputs": [
        {
          "name": "_fissionWinnerList",
          "type": "address[]"
        },
        {
          "name": "_LuckyWinnerList",
          "type": "address[]"
        }
      ],
      "name": "settlementStep",
      "outputs": [
        {
          "name": "",
          "type": "bool"
        }
      ],
      "payable": false,
      "stateMutability": "nonpayable",
      "type": "function"
    },
    {
      "constant": false,
      "inputs": [
        {
          "name": "_FaithWinnerList",
          "type": "address[]"
        }
      ],
      "name": "settlementFaithReward",
      "outputs": [
        {
          "name": "",
          "type": "bool"
        }
      ],
      "payable": false,
      "stateMutability": "nonpayable",
      "type": "function"
    },
    {
      "constant": false,
      "inputs": [],
      "name": "withdrawAllToken",
      "outputs": [
        {
          "name": "",
          "type": "address"
        },
        {
          "name": "",
          "type": "address"
        },
        {
          "name": "",
          "type": "uint256"
        }
      ],
      "payable": true,
      "stateMutability": "payable",
      "type": "function"
    },
    {
      "constant": false,
      "inputs": [],
      "name": "withdrawAllETH",
      "outputs": [
        {
          "name": "",
          "type": "address"
        },
        {
          "name": "",
          "type": "uint256"
        }
      ],
      "payable": true,
      "stateMutability": "payable",
      "type": "function"
    },
    {
      "constant": false,
      "inputs": [],
      "name": "withdrawFaithRewardAndRefund",
      "outputs": [
        {
          "name": "",
          "type": "bool"
        }
      ],
      "payable": true,
      "stateMutability": "payable",
      "type": "function"
    },
    {
      "constant": false,
      "inputs": [],
      "name": "withdrawAllETHByOwner",
      "outputs": [],
      "payable": true,
      "stateMutability": "payable",
      "type": "function"
    },
    {
      "constant": true,
      "inputs": [],
      "name": "isFunder",
      "outputs": [
        {
          "name": "",
          "type": "bool"
        }
      ],
      "payable": false,
      "stateMutability": "view",
      "type": "function"
    },
    {
      "constant": true,
      "inputs": [
        {
          "name": "_stepIndex",
          "type": "uint256"
        }
      ],
      "name": "isFunderByStep",
      "outputs": [
        {
          "name": "",
          "type": "bool"
        }
      ],
      "payable": false,
      "stateMutability": "view",
      "type": "function"
    },
    {
      "constant": true,
      "inputs": [
        {
          "name": "_funder",
          "type": "address"
        }
      ],
      "name": "getInvitees",
      "outputs": [
        {
          "name": "",
          "type": "address[]"
        }
      ],
      "payable": false,
      "stateMutability": "view",
      "type": "function"
    },
    {
      "constant": true,
      "inputs": [],
      "name": "getResonances",
      "outputs": [
        {
          "name": "",
          "type": "address[]"
        }
      ],
      "payable": false,
      "stateMutability": "view",
      "type": "function"
    },
    {
      "constant": true,
      "inputs": [
        {
          "name": "_funder",
          "type": "address"
        }
      ],
      "name": "getFunderTotalRaised",
      "outputs": [
        {
          "name": "",
          "type": "uint256"
        }
      ],
      "payable": false,
      "stateMutability": "view",
      "type": "function"
    },
    {
      "constant": true,
      "inputs": [
        {
          "name": "_stepIndex",
          "type": "uint256"
        }
      ],
      "name": "getStepFunders",
      "outputs": [
        {
          "name": "",
          "type": "address[]"
        },
        {
          "name": "",
          "type": "uint256[]"
        },
        {
          "name": "",
          "type": "uint256[]"
        },
        {
          "name": "",
          "type": "uint256[]"
        },
        {
          "name": "",
          "type": "uint256[]"
        },
        {
          "name": "",
          "type": "uint256[]"
        }
      ],
      "payable": false,
      "stateMutability": "view",
      "type": "function"
    },
    {
      "constant": true,
      "inputs": [],
      "name": "getCurrentStepFundsInfo",
      "outputs": [
        {
          "name": "",
          "type": "uint256"
        },
        {
          "name": "",
          "type": "uint256"
        },
        {
          "name": "",
          "type": "uint256"
        }
      ],
      "payable": false,
      "stateMutability": "view",
      "type": "function"
    },
    {
      "constant": true,
      "inputs": [],
      "name": "getWithdrawAmountPriv",
      "outputs": [
        {
          "name": "",
          "type": "uint256"
        },
        {
          "name": "",
          "type": "uint256"
        }
      ],
      "payable": false,
      "stateMutability": "view",
      "type": "function"
    },
    {
      "constant": true,
      "inputs": [],
      "name": "getBuildingPerioInfo",
      "outputs": [
        {
          "name": "",
          "type": "uint256"
        },
        {
          "name": "",
          "type": "uint256"
        },
        {
          "name": "",
          "type": "uint256"
        },
        {
          "name": "",
          "type": "uint256"
        }
      ],
      "payable": false,
      "stateMutability": "view",
      "type": "function"
    },
    {
      "constant": true,
      "inputs": [],
      "name": "getFundingPeriodInfo",
      "outputs": [
        {
          "name": "",
          "type": "uint256"
        },
        {
          "name": "",
          "type": "uint256"
        },
        {
          "name": "",
          "type": "uint256"
        }
      ],
      "payable": false,
      "stateMutability": "view",
      "type": "function"
    },
    {
      "constant": true,
      "inputs": [],
      "name": "getFunderRewardInfo",
      "outputs": [
        {
          "name": "",
          "type": "uint256"
        },
        {
          "name": "",
          "type": "uint256"
        },
        {
          "name": "",
          "type": "uint256"
        },
        {
          "name": "",
          "type": "uint256"
        }
      ],
      "payable": false,
      "stateMutability": "view",
      "type": "function"
    },
    {
      "constant": true,
      "inputs": [],
      "name": "getFunderAffInfo",
      "outputs": [
        {
          "name": "",
          "type": "uint256"
        },
        {
          "name": "",
          "type": "uint256"
        }
      ],
      "payable": false,
      "stateMutability": "view",
      "type": "function"
    },
    {
      "constant": true,
      "inputs": [
        {
          "name": "_stepIndex",
          "type": "uint256"
        }
      ],
      "name": "getFunderFundsByStep",
      "outputs": [
        {
          "name": "",
          "type": "uint256[]"
        }
      ],
      "payable": false,
      "stateMutability": "view",
      "type": "function"
    },
    {
      "constant": true,
      "inputs": [
        {
          "name": "_stepIndex",
          "type": "uint256"
        }
      ],
      "name": "getBlockHash",
      "outputs": [
        {
          "name": "",
          "type": "bytes32"
        }
      ],
      "payable": false,
      "stateMutability": "view",
      "type": "function"
    },
    {
      "constant": false,
      "inputs": [
        {
          "name": "_stepIndex",
          "type": "uint256"
        }
      ],
      "name": "setBlockHash",
      "outputs": [
        {
          "name": "",
          "type": "bool"
        }
      ],
      "payable": false,
      "stateMutability": "nonpayable",
      "type": "function"
    },
    {
      "constant": true,
      "inputs": [
        {
          "name": "_stepIndex",
          "type": "uint256"
        }
      ],
      "name": "currentStepIsClosed",
      "outputs": [
        {
          "name": "",
          "type": "bool"
        }
      ],
      "payable": false,
      "stateMutability": "view",
      "type": "function"
    }
  ],
  "bytecode": "0x608060405234801561001057600080fd5b5060405160c080620058e3833981018060405260c081101561003157600080fd5b50805160208201516040808401516060850151608086015160a09096015160008054600160a060020a03191633178082559451969795969395929492939192600160a060020a0316917f8be0079c531659141344cd1fd0a4f28419497f9722a3daafe3b4186f6b6457e0908290a360028054600160a060020a03978816600160a060020a0319918216179091556009805495881695821695909517909455600a805493871693851693909317909255600b8054918616918416919091179055600c80549185169183169190911790556000601055600180549290931691161790556157c180620001226000396000f3fe60806040526004361061024a5760003560e060020a900480639642a86b1161013d578063db27cf61116100ba578063e15ce9271161007e578063e15ce92714610f1d578063e757412814610f50578063e9881a5e14610f65578063ee82ac5e14610f98578063f2fde38b14610fc2578063feaec77514610ff55761024a565b8063db27cf6114610e46578063dbac3c9614610e70578063de3844ff14610e85578063de45dbd514610ede578063def1177714610f085761024a565b8063b6b6b47511610101578063b6b6b47514610d8f578063c12cd1bc14610dc2578063c27438ac14610dd7578063c2cb21ba14610dec578063d50cf02d14610e015761024a565b80639642a86b14610bea578063a41e5bff14610bff578063b4862a7114610c29578063b4c0698214610c53578063b5ac72b514610c5b5761024a565b80635deac38b116101cb5780638da5cb5b1161018f5780638da5cb5b14610b4d5780638f32d59b14610b6257806390386bbf14610b7757806390fa85f814610ba2578063912c84ec14610bb75761024a565b80635deac38b14610a2e57806364ab07fa14610ade578063715018a614610b19578063799a535914610b30578063891d7e7914610b385761024a565b80634559ff9b116102125780634559ff9b1461095b5780634c090a971461099e578063508bf76b146109c857806356d1121a146109ef5780635bc34f7114610a195761024a565b80630d3a55ee1461068b57806311c850de1461070557806314870d2c1461072157806316b297461461075357806338af3eed1461092a575b600260009054906101000a9004600160a060020a0316600160a060020a03166374ebae066040518163ffffffff1660e060020a02815260040160206040518083038186803b15801561029b57600080fd5b505afa1580156102af573d6000803e3d6000fd5b505050506040513d60208110156102c557600080fd5b5051151561031d576040805160e560020a62461bcd02815260206004820152601260248201527fe4b88de59ca8e58b9fe8b584e69c9fe586850000000000000000000000000000604482015290519081900360640190fd5b600260009054906101000a9004600160a060020a0316600160a060020a031663743acbab6040518163ffffffff1660e060020a02815260040160206040518083038186803b15801561036e57600080fd5b505afa158015610382573d6000803e3d6000fd5b505050506040513d602081101561039857600080fd5b5051156103ef576040805160e560020a62461bcd02815260206004820152601260248201527fe585b1e68cafe5b7b2e7bb8fe7bb93e69d9f0000000000000000000000000000604482015290519081900360640190fd5b3467016345785d8a000081101561043a5760405160e560020a62461bcd02815260040180806020018281038252602781526020018061554d6027913960400191505060405180910390fd5b6010546000908152601160205260409020600681015460079091015461046790349063ffffffff61100a16565b11156104a75760405160e560020a62461bcd0281526004018080602001828103825260248152602001806156996024913960400191505060405180910390fd5b601054600090815260116020908152604080832033845290915290206003015460a060020a900460ff16151561050c576010546000908152601160209081526040822060019081018054918201815583529120018054600160a060020a031916331790555b601080546000908152600860209081526040808320805460018181018355918552838520018054600160a060020a031990811633908117909255865486526011808652848720838852865284872060020180548a0190558754875280865284872083885286528487206003908101805474ff0000000000000000000000000000000000000000191660a060020a17905588548852818752858820600790810180548c01905589548952868920858a52885286892090910154600160a060020a0316885280875285882080548b019055600d805495860190557fd7b6990105719101dabeb77144f2a3385c8033acd3af97e9423a695e81ad1eb590940180549092168317909155908552600e845282852080548801905594548452939091529020908101546009909101547f7d1cfe07223bbd14a8ce463bdbce6653a12b4514a78bbaebade93333b78d6e229190839061066b908363ffffffff61102516565b60408051938452602084019290925282820152519081900360600190a150005b34801561069757600080fd5b506106b5600480360360208110156106ae57600080fd5b503561103a565b60408051602080825283518183015283519192839290830191858101910280838360005b838110156106f15781810151838201526020016106d9565b505050509050019250505060405180910390f35b61070d6111ef565b604080519115158252519081900360200190f35b6107296116de565b60408051600160a060020a0394851681529290931660208301528183015290519081900360600190f35b34801561075f57600080fd5b5061077d6004803603602081101561077657600080fd5b5035611b4b565b6040518080602001806020018060200180602001806020018060200187810387528d818151815260200191508051906020019060200280838360005b838110156107d15781810151838201526020016107b9565b5050505090500187810386528c818151815260200191508051906020019060200280838360005b838110156108105781810151838201526020016107f8565b5050505090500187810385528b818151815260200191508051906020019060200280838360005b8381101561084f578181015183820152602001610837565b5050505090500187810384528a818151815260200191508051906020019060200280838360005b8381101561088e578181015183820152602001610876565b50505050905001878103835289818151815260200191508051906020019060200280838360005b838110156108cd5781810151838201526020016108b5565b50505050905001878103825288818151815260200191508051906020019060200280838360005b8381101561090c5781810151838201526020016108f4565b505050509050019c5050505050505050505050505060405180910390f35b34801561093657600080fd5b5061093f611efc565b60408051600160a060020a039092168252519081900360200190f35b34801561096757600080fd5b506109856004803603602081101561097e57600080fd5b5035611f0b565b6040805192835260208301919091528051918290030190f35b3480156109aa57600080fd5b5061070d600480360360208110156109c157600080fd5b5035612063565b3480156109d457600080fd5b506109dd61208d565b60408051918252519081900360200190f35b3480156109fb57600080fd5b5061070d60048036036020811015610a1257600080fd5b5035612093565b348015610a2557600080fd5b506109dd6120b0565b348015610a3a57600080fd5b5061070d60048036036020811015610a5157600080fd5b810190602081018135640100000000811115610a6c57600080fd5b820183602082011115610a7e57600080fd5b80359060200191846020830284011164010000000083111715610aa057600080fd5b9190808060200260200160405190810160405280939291908181526020018383602002808284376000920191909152509295506120b6945050505050565b348015610aea57600080fd5b50610af361227d565b604080519485526020850193909352838301919091526060830152519081900360800190f35b348015610b2557600080fd5b50610b2e612469565b005b61070d6124c6565b348015610b4457600080fd5b506106b5612992565b348015610b5957600080fd5b5061093f612a07565b348015610b6e57600080fd5b5061070d612a16565b610b7f612a27565b60408051600160a060020a03909316835260208301919091528051918290030190f35b348015610bae57600080fd5b5061093f612cb5565b348015610bc357600080fd5b50610bcc612cc4565b60408051938452602084019290925282820152519081900360600190f35b348015610bf657600080fd5b506109dd612ce5565b348015610c0b57600080fd5b5061070d60048036036020811015610c2257600080fd5b5035612ceb565b348015610c3557600080fd5b50610b2e60048036036020811015610c4c57600080fd5b5035612d28565b610b2e61343b565b348015610c6757600080fd5b5061070d60048036036040811015610c7e57600080fd5b810190602081018135640100000000811115610c9957600080fd5b820183602082011115610cab57600080fd5b80359060200191846020830284011164010000000083111715610ccd57600080fd5b9190808060200260200160405190810160405280939291908181526020018383602002808284376000920191909152509295949360208101935035915050640100000000811115610d1d57600080fd5b820183602082011115610d2f57600080fd5b80359060200191846020830284011164010000000083111715610d5157600080fd5b91908080602002602001604051908101604052809392919081815260200183836020028082843760009201919091525092955061359d945050505050565b348015610d9b57600080fd5b5061070d60048036036020811015610db257600080fd5b5035600160a060020a031661394f565b348015610dce57600080fd5b50610bcc613964565b348015610de357600080fd5b50610985613a80565b348015610df857600080fd5b5061070d613aa0565b348015610e0d57600080fd5b50610b2e60048036036060811015610e2457600080fd5b50600160a060020a038135811691602081013582169160409091013516613aa9565b348015610e5257600080fd5b506109dd60048036036020811015610e6957600080fd5b5035613d9b565b348015610e7c57600080fd5b50610af3613db0565b348015610e9157600080fd5b50610eb860048036036020811015610ea857600080fd5b5035600160a060020a0316614004565b60408051600160a060020a03938416815291909216602082015281519081900390910190f35b348015610eea57600080fd5b5061070d60048036036020811015610f0157600080fd5b5035614957565b348015610f1457600080fd5b5061098561496c565b348015610f2957600080fd5b506109dd60048036036020811015610f4057600080fd5b5035600160a060020a0316614a70565b348015610f5c57600080fd5b5061093f614aa1565b348015610f7157600080fd5b506106b560048036036020811015610f8857600080fd5b5035600160a060020a0316614ab0565b348015610fa457600080fd5b506109dd60048036036020811015610fbb57600080fd5b5035614b26565b348015610fce57600080fd5b50610b2e60048036036020811015610fe557600080fd5b5035600160a060020a0316614b3f565b34801561100157600080fd5b5061070d614b5e565b60008282018381101561101c57600080fd5b90505b92915050565b60008282111561103457600080fd5b50900390565b60606110446154c2565b60105483111561109e576040805160e560020a62461bcd02815260206004820152601260248201527f73746570496e646578e4b88de5ad98e59ca80000000000000000000000000000604482015290519081900360640190fd5b506000828152601160209081526040808320338452825291829020825160e0810184528154600160a060020a03908116825260018301549382019390935260028201548185015260039091015491821660608083019190915260ff60a060020a8404811615156080840152750100000000000000000000000000000000000000000084048116151560a08085019190915260b060020a90940416151560c0830152835160048082529381019094529092909181602001602082028038833901905050905061116b84614b8b565b81600081518110151561117a57fe5b6020908102909101015261118d84614c6e565b81600181518110151561119c57fe5b906020019060200201818152505081602001518160028151811015156111be57fe5b6020908102909101015260408201518151829060039081106111dc57fe5b602090810290910101529150505b919050565b600254604080517f743acbab0000000000000000000000000000000000000000000000000000000081529051600092600160a060020a03169163743acbab916004808301926020929190829003018186803b15801561124d57600080fd5b505afa158015611261573d6000803e3d6000fd5b505050506040513d602081101561127757600080fd5b505115156112b95760405160e560020a62461bcd0281526004018080602001828103825260218152602001806156ed6021913960400191505060405180910390fd5b3360009081526019602052604090205460ff1615611321576040805160e560020a62461bcd02815260206004820152601b60248201527fe98080e6acbee5b7b2e7bb8fe68f90e58f96e5ae8ce68890e4ba860000000000604482015290519081900360640190fd5b600254604080517f50b9d89d00000000000000000000000000000000000000000000000000000000815290513392600092600160a060020a03909116916350b9d89d91600480820192602092909190829003018186803b15801561138457600080fd5b505afa158015611398573d6000803e3d6000fd5b505050506040513d60208110156113ae57600080fd5b5051600254604080517f1020f72a0000000000000000000000000000000000000000000000000000000081523360048201529051929350600092839261147592600160a060020a0390911691631020f72a91602480820192602092909190829003018186803b15801561142057600080fd5b505afa158015611434573d6000803e3d6000fd5b505050506040513d602081101561144a57600080fd5b505160008581526011602090815260408083203384529091529020600201549063ffffffff61100a16565b600354909150600160a060020a031633141561150d576002546040805160e060020a635a492217028152600481018690529051600160a060020a0390921691635a49221791602480820192602092909190829003018186803b1580156114da57600080fd5b505afa1580156114ee573d6000803e3d6000fd5b505050506040513d602081101561150457600080fd5b5051915061152d565b600083815260116020908152604080832033845290915290206001015491505b60008381526011602090815260408083203380855290835281842060029081018590555482517f1da6dcf10000000000000000000000000000000000000000000000000000000081526004810192909252602482018590529151600160a060020a0390921693631da6dcf19360448084019491939192918390030190829087803b1580156115ba57600080fd5b505af11580156115ce573d6000803e3d6000fd5b505050506040513d60208110156115e457600080fd5b5050600154604080517fa9059cbb000000000000000000000000000000000000000000000000000000008152336004820152602481018590529051600160a060020a039092169163a9059cbb916044808201926020929091908290030181600087803b15801561165357600080fd5b505af1158015611667573d6000803e3d6000fd5b505050506040513d602081101561167d57600080fd5b5050604051600160a060020a0385169082156108fc029083906000818181858888f193505050501580156116b5573d6000803e3d6000fd5b5050336000908152601960205260409020805460ff19166001179081905560ff16935050505090565b600080600060105460001415151561172a5760405160e560020a62461bcd0281526004018080602001828103825260328152602001806155e66032913960400191505060405180910390fd5b60105460009061174190600163ffffffff61102516565b600081815260116020908152604080832033845290915290206003015490915060a060020a900460ff1615156117ab5760405160e560020a62461bcd02815260040180806020018281038252602a8152602001806155bc602a913960400191505060405180910390fd5b60008181526011602090815260408083203384529091529020600301547501000000000000000000000000000000000000000000900460ff1615611839576040805160e560020a62461bcd02815260206004820152601d60248201527fe794a8e688b7e5b7b2e7bb8fe68f90e58f96746f6b656ee5ae8ce68890000000604482015290519081900360640190fd5b6000818152601160209081526040808320338452909152812060020154116118955760405160e560020a62461bcd0281526004018080602001828103825260358152602001806156646035913960400191505060405180910390fd5b600081815260116020526040812060070154116118e65760405160e560020a62461bcd02815260040180806020018281038252602581526020018061563f6025913960400191505060405180910390fd5b6002546040805160e060020a635a49221702815260048101849052905160009261198692600160a060020a0390911691635a49221791602480820192602092909190829003018186803b15801561193c57600080fd5b505afa158015611950573d6000803e3d6000fd5b505050506040513d602081101561196657600080fd5b50516000848152601160205260409020600401549063ffffffff61100a16565b60008381526011602090815260408083206007810154338552925282206002015492935090916119ce91906119c290859063ffffffff614dab16565b9063ffffffff614dd616565b600254604080517ef21bf2000000000000000000000000000000000000000000000000000000008152600481018790523360248201529051929350600160a060020a039091169162f21bf29160448082019260009290919082900301818387803b158015611a3b57600080fd5b505af1158015611a4f573d6000803e3d6000fd5b505050600084815260116020908152604080832033808552908352818420600301805475ff0000000000000000000000000000000000000000001916750100000000000000000000000000000000000000000017905560015482517fa9059cbb0000000000000000000000000000000000000000000000000000000081526004810192909252602482018790529151600160a060020a0392909216945063a9059cbb9360448083019493928390030190829087803b158015611b1057600080fd5b505af1158015611b24573d6000803e3d6000fd5b505050506040513d6020811015611b3a57600080fd5b503097339750919550909350505050565b606080606080606080611b5c612a16565b1515611b6757600080fd5b606080606080606080601160008e815260200190815260200160002060010180549050604051908082528060200260200182016040528015611bb3578160200160208202803883390190505b5095508551604051908082528060200260200182016040528015611be1578160200160208202803883390190505b5094508551604051908082528060200260200182016040528015611c0f578160200160208202803883390190505b5093508551604051908082528060200260200182016040528015611c3d578160200160208202803883390190505b5092508551604051908082528060200260200182016040528015611c6b578160200160208202803883390190505b5091508551604051908082528060200260200182016040528015611c99578160200160208202803883390190505b5060008e8152601160209081526040918290206001018054835181840281018401909452808452939450919290830182828015611cff57602002820191906000526020600020905b8154600160a060020a03168152600190910190602001808311611ce1575b50939950600093505050505b8651811015611ee75760008e81526011602052604081208851909190899084908110611d3357fe5b90602001906020020151600160a060020a0316600160a060020a03168152602001908152602001600020600101548682815181101515611d6f57fe5b602090810290910181019190915260008f81526011909152604081208851909190899084908110611d9c57fe5b90602001906020020151600160a060020a0316600160a060020a03168152602001908152602001600020600201548582815181101515611dd857fe5b602090810290910101528651600590600090899084908110611df657fe5b6020908102909101810151600160a060020a03168252810191909152604001600020548451859083908110611e2757fe5b602090810290910101528651600690600090899084908110611e4557fe5b90602001906020020151600160a060020a0316600160a060020a03168152602001908152602001600020548382815181101515611e7e57fe5b602090810290910101528651600790600090899084908110611e9c57fe5b90602001906020020151600160a060020a0316600160a060020a03168152602001908152602001600020548282815181101515611ed557fe5b60209081029091010152600101611d0b565b50949c939b5091995097509550909350915050565b600354600160a060020a031681565b600080611f16612a16565b1515611f2157600080fd5b600260009054906101000a9004600160a060020a0316600160a060020a03166325d8e97f6040518163ffffffff1660e060020a02815260040160206040518083038186803b158015611f7257600080fd5b505afa158015611f86573d6000803e3d6000fd5b505050506040513d6020811015611f9c57600080fd5b50511515611ff4576040805160e560020a62461bcd02815260206004820152601260248201527fe4b88de59ca8e585b1e5bbbae69c9fe586850000000000000000000000000000604482015290519081900360640190fd5b601080546000908152601160205260408082206006908101879055925482529020015461202f906064906119c290605063ffffffff614dab16565b6010805460009081526011602052604080822060080193909355815481529190912060068101546009909101555493915050565b600090815260116020908152604080832033845290915290206003015460a060020a900460ff1690565b60155481565b6000908152601160205260409020600a0154610100900460ff1690565b60105481565b60006120c0612a16565b15156120cb57600080fd5b600260009054906101000a9004600160a060020a0316600160a060020a031663743acbab6040518163ffffffff1660e060020a02815260040160206040518083038186803b15801561211c57600080fd5b505afa158015612130573d6000803e3d6000fd5b505050506040513d602081101561214657600080fd5b5051151561219e576040805160e560020a62461bcd02815260206004820152601260248201527fe585b1e68cafe8bf98e69caae7bb93e69d9f0000000000000000000000000000604482015290519081900360640190fd5b600254601554604080517f95bbde880000000000000000000000000000000000000000000000000000000081526024810183905260048101918252855160448201528551600160a060020a03909416936395bbde88938793909290918291606401906020808701910280838360005b8381101561222557818101518382015260200161220d565b505050509050019350505050602060405180830381600087803b15801561224b57600080fd5b505af115801561225f573d6000803e3d6000fd5b505050506040513d602081101561227557600080fd5b505192915050565b60008060008060008060008042612319610708600260009054906101000a9004600160a060020a0316600160a060020a031663d74635736040518163ffffffff1660e060020a02815260040160206040518083038186803b1580156122e157600080fd5b505afa1580156122f5573d6000803e3d6000fd5b505050506040513d602081101561230b57600080fd5b50519063ffffffff61100a16565b116123275760009350612391565b61238e42612382610384600260009054906101000a9004600160a060020a0316600160a060020a031663d74635736040518163ffffffff1660e060020a02815260040160206040518083038186803b1580156122e157600080fd5b9063ffffffff61102516565b93505b6002546010546040805160e060020a635a49221702815260048101929092525161243b92600160a060020a031691635a492217916024808301926020929190829003018186803b1580156123e457600080fd5b505afa1580156123f8573d6000803e3d6000fd5b505050506040513d602081101561240e57600080fd5b5051601054600090815260116020526040902060048101546002909101546123829163ffffffff61102516565b60105460009081526011602052604090206003810154600590910154959a9199509750939550929350505050565b612471612a16565b151561247c57600080fd5b60008054604051600160a060020a03909116907f8be0079c531659141344cd1fd0a4f28419497f9722a3daafe3b4186f6b6457e0908390a360008054600160a060020a0319169055565b60006124d0612a16565b15156124db57600080fd5b60105460009081526017602052604090205460ff161561252f5760405160e560020a62461bcd02815260040180806020018281038252602c815260200180615740602c913960400191505060405180910390fd5b6002546010546040805160e060020a635a492217028152600481019290925251600160a060020a0390921691635a49221791602480820192602092909190829003018186803b15801561258157600080fd5b505afa158015612595573d6000803e3d6000fd5b505050506040513d60208110156125ab57600080fd5b5051600154604080517fdd62ed3e0000000000000000000000000000000000000000000000000000000081523360048201523060248201529051600160a060020a039092169163dd62ed3e91604480820192602092909190829003018186803b15801561261757600080fd5b505afa15801561262b573d6000803e3d6000fd5b505050506040513d602081101561264157600080fd5b50511015612699576040805160e560020a62461bcd02815260206004820152601260248201527fe68e88e69d83e9a29de5baa6e4b88de8b6b30000000000000000000000000000604482015290519081900360640190fd5b6001546002546010546040805160e060020a635a492217028152600481019290925251600160a060020a03938416936323b872dd93339330939190921691635a492217916024808301926020929190829003018186803b1580156126fc57600080fd5b505afa158015612710573d6000803e3d6000fd5b505050506040513d602081101561272657600080fd5b50516040805160e060020a63ffffffff8716028152600160a060020a0394851660048201529290931660248301526044820152905160648083019260209291908290030181600087803b15801561277c57600080fd5b505af1158015612790573d6000803e3d6000fd5b505050506040513d60208110156127a657600080fd5b505115156127fe576040805160e560020a62461bcd02815260206004820152601a60248201527fe8bdace7a7bb746f6b656ee588b0e59088e7baa6e5a4b1e8b4a5000000000000604482015290519081900360640190fd5b6002546010546040805160e060020a635a492217028152600481019290925251600160a060020a03909216916330f42bf69161291d918491635a492217916024808301926020929190829003018186803b15801561285b57600080fd5b505afa15801561286f573d6000803e3d6000fd5b505050506040513d602081101561288557600080fd5b5051600254604080517f2734189a0000000000000000000000000000000000000000000000000000000081529051600160a060020a0390921691632734189a91600480820192602092909190829003018186803b1580156128e557600080fd5b505afa1580156128f9573d6000803e3d6000fd5b505050506040513d602081101561290f57600080fd5b50519063ffffffff61102516565b6040518263ffffffff1660e060020a02815260040180828152602001915050600060405180830381600087803b15801561295657600080fd5b505af115801561296a573d6000803e3d6000fd5b50506010546000908152601760205260409020805460ff191660019081179091559250505090565b606061299c612a16565b15156129a757600080fd5b600d8054806020026020016040519081016040528092919081815260200182805480156129fd57602002820191906000526020600020905b8154600160a060020a031681526001909101906020018083116129df575b5050505050905090565b600054600160a060020a031690565b600054600160a060020a0316331490565b60105460009081901515612a6f5760405160e560020a62461bcd02815260040180806020018281038252603281526020018061570e6032913960400191505060405180910390fd5b601054600090612a8690600163ffffffff61102516565b6000818152601160209081526040808320338085529252909120600301549192509060b060020a900460ff1615612af15760405160e560020a62461bcd02815260040180806020018281038252602a81526020018061576c602a913960400191505060405180910390fd5b600354600090600160a060020a0316331415612ba557600254604080517fcf38beac000000000000000000000000000000000000000000000000000000008152600481018690523360248201529051600160a060020a039092169163cf38beac91604480820192602092909190829003018186803b158015612b7257600080fd5b505afa158015612b86573d6000803e3d6000fd5b505050506040513d6020811015612b9c57600080fd5b50519050612bb1565b612bae83614c6e565b90505b600254604080517fea2f8bd1000000000000000000000000000000000000000000000000000000008152600481018690523360248201529051600160a060020a039092169163ea2f8bd19160448082019260009290919082900301818387803b158015612c1d57600080fd5b505af1158015612c31573d6000803e3d6000fd5b5050506000848152601160209081526040808320338452909152808220600301805476ff00000000000000000000000000000000000000000000191660b060020a17905551600160a060020a038516925083156108fc0291849190818181858888f19350505050158015612ca9573d6000803e3d6000fd5b50339450925050509091565b601254600160a060020a031681565b60105460008181526011602052604090206002810154600790910154909192565b60145481565b6000818152601160205260408120600b01541515612d205750600081815260116020526040902043600b9091015560016111ea565b5060006111ea565b600260009054906101000a9004600160a060020a0316600160a060020a03166325d8e97f6040518163ffffffff1660e060020a02815260040160206040518083038186803b158015612d7957600080fd5b505afa158015612d8d573d6000803e3d6000fd5b505050506040513d6020811015612da357600080fd5b50511515612dfb576040805160e560020a62461bcd02815260206004820152601260248201527fe4b88de59ca8e585b1e5bbbae69c9fe586850000000000000000000000000000604482015290519081900360640190fd5b600260009054906101000a9004600160a060020a0316600160a060020a031663743acbab6040518163ffffffff1660e060020a02815260040160206040518083038186803b158015612e4c57600080fd5b505afa158015612e60573d6000803e3d6000fd5b505050506040513d6020811015612e7657600080fd5b505115612ecd576040805160e560020a62461bcd02815260206004820152601260248201527fe585b1e68cafe5b7b2e7bb8fe7bb93e69d9f0000000000000000000000000000604482015290519081900360640190fd5b3360009081526004602052604090205460ff161515612f36576040805160e560020a62461bcd02815260206004820152601660248201527fe8b083e794a8e88085e4b88de698af4275696c64657200000000000000000000604482015290519081900360640190fd5b6002546010546040805160e060020a635a492217028152600481019290925251612fd692600160a060020a031691635a492217916024808301926020929190829003018186803b158015612f8957600080fd5b505afa158015612f9d573d6000803e3d6000fd5b505050506040513d6020811015612fb357600080fd5b50516010546000908152601160205260409020600201549063ffffffff61102516565b601054600090815260116020526040902060040154612ffb908363ffffffff61100a16565b111561303b5760405160e560020a62461bcd02815260040180806020018281038252602d8152602001806154ff602d913960400191505060405180910390fd5b60105460009081526011602090815260408083206003810154338552925290912060010154613070908363ffffffff61100a16565b11156130b05760405160e560020a62461bcd0281526004018080602001828103825260308152602001806156bd6030913960400191505060405180910390fd5b600154604080517fdd62ed3e00000000000000000000000000000000000000000000000000000000815233600482015230602482015290518392600160a060020a03169163dd62ed3e916044808301926020929190829003018186803b15801561311957600080fd5b505afa15801561312d573d6000803e3d6000fd5b505050506040513d602081101561314357600080fd5b5051101561319b576040805160e560020a62461bcd02815260206004820152601260248201527fe68e88e69d83e9a29de5baa6e4b88de8b6b30000000000000000000000000000604482015290519081900360640190fd5b600154604080517f23b872dd000000000000000000000000000000000000000000000000000000008152336004820152306024820152604481018490529051600160a060020a03909216916323b872dd916064808201926020929091908290030181600087803b15801561320e57600080fd5b505af1158015613222573d6000803e3d6000fd5b505050506040513d602081101561323857600080fd5b50511515613290576040805160e560020a62461bcd02815260206004820152601a60248201527fe8bdace7a7bb746f6b656ee588b0e59088e7baa6e5a4b1e8b4a5000000000000604482015290519081900360640190fd5b6010805460009081526011602081815260408084203385528252808420600101805487019055935483529081529082902060050180548401905560025482517f2734189a0000000000000000000000000000000000000000000000000000000081529251600160a060020a03909116926330f42bf69261332e9286928692632734189a92600480840193829003018186803b1580156128e557600080fd5b6040518263ffffffff1660e060020a02815260040180828152602001915050600060405180830381600087803b15801561336757600080fd5b505af115801561337b573d6000803e3d6000fd5b5050336000908152600f60209081526040808320805487018155601080548552601190935281842060049081018054890190559254845292209081015491546003909101547fb78436e636f71b6303dc0f13fabcb2f1fe5c2973ea8de3dd5c2bc9b7fd2b2d3b94509192506133f09190611025565b6010546000908152601160205260409020600481015460029091015461341b9163ffffffff61102516565b60408051938452602084019290925282820152519081900360600190a150565b613443612a16565b151561344e57600080fd5b600354604051600160a060020a0390911690303180156108fc02916000818181858888f19350505050158015613488573d6000803e3d6000fd5b50600154604080517f70a082310000000000000000000000000000000000000000000000000000000081523060048201529051600160a060020a039092169163a9059cbb91339184916370a08231916024808301926020929190829003018186803b1580156134f657600080fd5b505afa15801561350a573d6000803e3d6000fd5b505050506040513d602081101561352057600080fd5b50516040805160e060020a63ffffffff8616028152600160a060020a03909316600484015260248301919091525160448083019260209291908290030181600087803b15801561356f57600080fd5b505af1158015613583573d6000803e3d6000fd5b505050506040513d602081101561359957600080fd5b5050565b60006135a7612a16565b15156135b257600080fd5b600354600160a060020a031615156135fe5760405160e560020a62461bcd02815260040180806020018281038252602181526020018061552c6021913960400191505060405180910390fd5b6002546010546000818152601160209081526040808320600781015460089091015482517fc39fa86100000000000000000000000000000000000000000000000000000000815260048101969096526024860191909152604485015251600160a060020a039094169363c39fa86193606480820194918390030190829087803b15801561368a57600080fd5b505af115801561369e573d6000803e3d6000fd5b505050506040513d60208110156136b457600080fd5b5051156136c35750600061101f565b6002546010546040805160e060020a635a49221702815260048101929092525160009261376992600160a060020a0390911691635a49221791602480820192602092909190829003018186803b15801561371c57600080fd5b505afa158015613730573d6000803e3d6000fd5b505050506040513d602081101561374657600080fd5b50516010546000908152601160205260409020600401549063ffffffff61100a16565b905061383360646119c2836119c26028613827600260009054906101000a9004600160a060020a0316600160a060020a0316635a4922176010546040518263ffffffff1660e060020a0281526004018082815260200191505060206040518083038186803b1580156137da57600080fd5b505afa1580156137ee573d6000803e3d6000fd5b505050506040513d602081101561380457600080fd5b50516010546000908152601160205260409020600701549063ffffffff614dab16565b9063ffffffff614dab16565b6010805460009081526013602052604080822093909355905481522054613869906103e8906119c290607d63ffffffff614dab16565b60158054909101905561387b84614dfa565b613884836150d0565b600254601054600354600082815260116020526040902060070154600160a060020a0393841693633c24fead939216906138cc906064906119c290603c63ffffffff614dab16565b6040518463ffffffff1660e060020a0281526004018084815260200183600160a060020a0316600160a060020a031681526020018281526020019350505050600060405180830381600087803b15801561392557600080fd5b505af1158015613939573d6000803e3d6000fd5b505050506139456151b2565b600191505061101f565b60046020526000908152604090205460ff1681565b600080600080600080426139c5610708600260009054906101000a9004600160a060020a0316600160a060020a031663d74635736040518163ffffffff1660e060020a02815260040160206040518083038186803b1580156122e157600080fd5b116139d35760009250613a31565b613a2e42612382610708600260009054906101000a9004600160a060020a0316600160a060020a031663d74635736040518163ffffffff1660e060020a02815260040160206040518083038186803b1580156122e157600080fd5b92505b60105460009081526011602052604090206007810154600690910154613a5c9163ffffffff61102516565b60105460009081526011602052604090206007015493965094509192505050909192565b336000908152600560209081526040808320546006909252909120549091565b60185460ff1681565b613ab1612a16565b1515613abc57600080fd5b60185460ff1615613b015760405160e560020a62461bcd0281526004018080602001828103825260278152602001806156186027913960400191505060405180910390fd5b60038054600160a060020a03808516600160a060020a031992831617909255601280548484169216919091179055600254604080517fabdd11a80000000000000000000000000000000000000000000000000000000081524260048201529051919092169163abdd11a891602480830192600092919082900301818387803b158015613b8c57600080fd5b505af1158015613ba0573d6000803e3d6000fd5b5050505073__UintUtils_____________________________63669dafe86216e3606040518263ffffffff1660e060020a0281526004018082815260200191505060206040518083038186803b158015613bf957600080fd5b505af4158015613c0d573d6000803e3d6000fd5b505050506040513d6020811015613c2357600080fd5b50516010805460009081526011602052604080822060029081019490945591548152200154613c60906064906119c290600163ffffffff614dab16565b6010546000908152601160205260408082206003019290925560025482517f1c5ce1570000000000000000000000000000000000000000000000000000000081529251600160a060020a0390911692631c5ce15792600480830193919282900301818387803b158015613cd257600080fd5b505af1158015613ce6573d6000803e3d6000fd5b5050600254601054604080517f0d9907d9000000000000000000000000000000000000000000000000000000008152600481019290925251600160a060020a039092169350630d9907d992506024808201926020929091908290030181600087803b158015613d5457600080fd5b505af1158015613d68573d6000803e3d6000fd5b505050506040513d6020811015613d7e57600080fd5b50506018805460ff19166001179055613d9683614b3f565b505050565b60009081526011602052604090206006015490565b600b54604080517fc28a1af30000000000000000000000000000000000000000000000000000000081523360048201529051600092839283928392600160a060020a03169163c28a1af3916024808301926020929190829003018186803b158015613e1a57600080fd5b505afa158015613e2e573d6000803e3d6000fd5b505050506040513d6020811015613e4457600080fd5b5051600954604080517f0df2019a0000000000000000000000000000000000000000000000000000000081523360048201529051600160a060020a0390921691630df2019a91602480820192602092909190829003018186803b158015613eaa57600080fd5b505afa158015613ebe573d6000803e3d6000fd5b505050506040513d6020811015613ed457600080fd5b5051600a54604080517fc75355670000000000000000000000000000000000000000000000000000000081523360048201529051600160a060020a039092169163c753556791602480820192602092909190829003018186803b158015613f3a57600080fd5b505afa158015613f4e573d6000803e3d6000fd5b505050506040513d6020811015613f6457600080fd5b5051600c54604080517f4a6817870000000000000000000000000000000000000000000000000000000081523360048201529051600160a060020a0390921691634a68178791602480820192602092909190829003018186803b158015613fca57600080fd5b505afa158015613fde573d6000803e3d6000fd5b505050506040513d6020811015613ff457600080fd5b5051929791965094509092509050565b600080600260009054906101000a9004600160a060020a0316600160a060020a03166325d8e97f6040518163ffffffff1660e060020a02815260040160206040518083038186803b15801561405857600080fd5b505afa15801561406c573d6000803e3d6000fd5b505050506040513d602081101561408257600080fd5b505115156140da576040805160e560020a62461bcd02815260206004820152601260248201527fe4b88de59ca8e585b1e5bbbae69c9fe586850000000000000000000000000000604482015290519081900360640190fd5b600260009054906101000a9004600160a060020a0316600160a060020a031663743acbab6040518163ffffffff1660e060020a02815260040160206040518083038186803b15801561412b57600080fd5b505afa15801561413f573d6000803e3d6000fd5b505050506040513d602081101561415557600080fd5b5051156141ac576040805160e560020a62461bcd02815260206004820152601260248201527fe585b1e68cafe5b7b2e7bb8fe7bb93e69d9f0000000000000000000000000000604482015290519081900360640190fd5b3360009081526004602052604090205460ff16156141fe5760405160e560020a62461bcd0281526004018080602001828103825260218152602001806155746021913960400191505060405180910390fd5b601254600160a060020a0384811691161461428557600160a060020a03831660009081526004602052604090205460ff161515614285576040805160e560020a62461bcd02815260206004820152601f60248201527fe68ea8e5b9bfe88085e887aae5b7b1e5bf85e9a1bbe698af4275696c64657200604482015290519081900360640190fd5b600160a060020a03831615156142e5576040805160e560020a62461bcd02815260206004820152601b60248201527fe68ea8e5b9bfe88085e4b88de883bde698afe7a9bae59cb0e59d800000000000604482015290519081900360640190fd5b73__UintUtils_____________________________63669dafe860086040518263ffffffff1660e060020a0281526004018082815260200191505060206040518083038186803b15801561433857600080fd5b505af415801561434c573d6000803e3d6000fd5b505050506040513d602081101561436257600080fd5b5051600154604080517fdd62ed3e0000000000000000000000000000000000000000000000000000000081523360048201523060248201529051600160a060020a039092169163dd62ed3e91604480820192602092909190829003018186803b1580156143ce57600080fd5b505afa1580156143e2573d6000803e3d6000fd5b505050506040513d60208110156143f857600080fd5b50511015614450576040805160e560020a62461bcd02815260206004820152601260248201527fe68e88e69d83e9a29de5baa6e4b88de8b6b30000000000000000000000000000604482015290519081900360640190fd5b6001546040805160e360020a630cd3b5fd028152600860048201529051600160a060020a03909216916323b872dd913391309173__UintUtils_____________________________9163669dafe891602480820192602092909190829003018186803b1580156144bf57600080fd5b505af41580156144d3573d6000803e3d6000fd5b505050506040513d60208110156144e957600080fd5b50516040805160e060020a63ffffffff8716028152600160a060020a0394851660048201529290931660248301526044820152905160648083019260209291908290030181600087803b15801561453f57600080fd5b505af1158015614553573d6000803e3d6000fd5b505050506040513d602081101561456957600080fd5b505115156145c1576040805160e560020a62461bcd02815260206004820152601a60248201527fe8bdace7a7bb746f6b656ee588b0e59088e7baa6e5a4b1e8b4a5000000000000604482015290519081900360640190fd5b6001546040805160e360020a630cd3b5fd028152600360048201529051600160a060020a039092169163a9059cbb9160009173__UintUtils_____________________________9163669dafe8916024808301926020929190829003018186803b15801561462e57600080fd5b505af4158015614642573d6000803e3d6000fd5b505050506040513d602081101561465857600080fd5b50516040805160e060020a63ffffffff8616028152600160a060020a03909316600484015260248301919091525160448083019260209291908290030181600087803b1580156146a757600080fd5b505af11580156146bb573d6000803e3d6000fd5b505050506040513d60208110156146d157600080fd5b50506001546040805160e360020a630cd3b5fd028152600560048201529051600160a060020a039092169163a9059cbb91869173__UintUtils_____________________________9163669dafe8916024808301926020929190829003018186803b15801561473f57600080fd5b505af4158015614753573d6000803e3d6000fd5b505050506040513d602081101561476957600080fd5b50516040805160e060020a63ffffffff8616028152600160a060020a03909316600484015260248301919091525160448083019260209291908290030181600087803b1580156147b857600080fd5b505af11580156147cc573d6000803e3d6000fd5b505050506040513d60208110156147e257600080fd5b50506040805160e360020a630cd3b5fd02815260056004820152905173__UintUtils_____________________________9163669dafe8916024808301926020929190829003018186803b15801561483957600080fd5b505af415801561484d573d6000803e3d6000fd5b505050506040513d602081101561486357600080fd5b5051600160a060020a03841660009081526006602052604090208054909101905561488d836153de565b600160a060020a03808416600081815260056020908152604080832080546001810182559084529183209091018054600160a060020a0319163317905560095460105460125483517fe23613e9000000000000000000000000000000000000000000000000000000008152600481019290925260248201959095529385166044850152905193169263e23613e992606480820193929182900301818387803b15801561493857600080fd5b505af115801561494c573d6000803e3d6000fd5b503396945050505050565b60176020526000908152604090205460ff1681565b601054600090819015156149b45760405160e560020a62461bcd0281526004018080602001828103825260278152602001806155956027913960400191505060405180910390fd5b60008060006149cf600160105461102590919063ffffffff16565b60008181526011602090815260408083203384529091529020600301549091507501000000000000000000000000000000000000000000900460ff1615614a195760009250614a25565b614a2281614b8b565b92505b600081815260116020908152604080832033845290915290206003015460b060020a900460ff1615614a5a5760009150614a66565b614a6381614c6e565b91505b5090925090509091565b6000614a7a612a16565b1515614a8557600080fd5b50600160a060020a03166000908152600e602052604090205490565b600154600160a060020a031681565b600160a060020a038116600090815260056020908152604091829020805483518184028101840190945280845260609392830182828015614b1a57602002820191906000526020600020905b8154600160a060020a03168152600190910190602001808311614afc575b50505050509050919050565b6000908152601160205260409020600b01546001014090565b614b47612a16565b1515614b5257600080fd5b614b5b81615452565b50565b601054600090815260116020908152604080832033845290915290206003015460a060020a900460ff1690565b6002546040805160e060020a635a49221702815260048101849052905160009283928392614c2c92600160a060020a031691635a492217916024808301926020929190829003018186803b158015614be257600080fd5b505afa158015614bf6573d6000803e3d6000fd5b505050506040513d6020811015614c0c57600080fd5b50516000868152601160205260409020600401549063ffffffff61100a16565b60008581526011602090815260408083206007810154338552925290912060020154919250614c66916119c290849063ffffffff614dab16565b949350505050565b6002546040805160e060020a635a49221702815260048101849052905160009283928392614cc592600160a060020a031691635a492217916024808301926020929190829003018186803b158015614be257600080fd5b60008581526011602090815260408083206007810154338552925290912060010154919250614d009183916119c2919063ffffffff614dab16565b600254604080517fcf38beac000000000000000000000000000000000000000000000000000000008152600481018890523360248201529051929450614c6692600160a060020a039092169163cf38beac91604480820192602092909190829003018186803b158015614d7257600080fd5b505afa158015614d86573d6000803e3d6000fd5b505050506040513d6020811015614d9c57600080fd5b5051839063ffffffff61100a16565b6000821515614dbc5750600061101f565b828202828482811515614dcb57fe5b041461101c57600080fd5b6000808211614de457600080fd5b60008284811515614df157fe5b04949350505050565b6010546000908152601160205260409020600a015460ff1615614e67576040805160e560020a62461bcd02815260206004820152601e60248201527fe5bd93e5898de8bdaee6aca1e5b7b2e7bb8fe7bb93e7ae97e5ae8ce6af950000604482015290519081900360640190fd5b6010546000908152601160205260409020600a0154610100900460ff1615614ed9576040805160e560020a62461bcd02815260206004820152601b60248201527fe5bd93e5898de8bdaee6aca1e697a9e5b7b2e7bb8fe7bb93e69d9f0000000000604482015290519081900360640190fd5b600254601054600081815260136020526040902054600160a060020a039092169163deb72f1f91908490614f1b906064906119c290603263ffffffff614dab16565b6040518463ffffffff1660e060020a0281526004018084815260200180602001838152602001828103825284818151815260200191508051906020019060200280838360005b83811015614f79578181015183820152602001614f61565b50505050905001945050505050600060405180830381600087803b158015614fa057600080fd5b505af1158015614fb4573d6000803e3d6000fd5b5050601054600090815260086020526040812054111591506150cb9050576002546010546000818152600860209081526040808320601390925290912054600160a060020a03909316926384976e7492919061501f906103e8906119c290607d63ffffffff614dab16565b6040518463ffffffff1660e060020a0281526004018084815260200180602001838152602001828103825284818154815260200191508054801561508c57602002820191906000526020600020905b8154600160a060020a0316815260019091019060200180831161506e575b5050945050505050600060405180830381600087803b1580156150ae57600080fd5b505af11580156150c2573d6000803e3d6000fd5b50505050614b5b565b614b5b565b600254601054600081815260136020526040902054600160a060020a039092169163fd38f45b91908490615112906064906119c290601963ffffffff614dab16565b6040518463ffffffff1660e060020a0281526004018084815260200180602001838152602001828103825284818151815260200191508051906020019060200280838360005b83811015615170578181015183820152602001615158565b50505050905001945050505050600060405180830381600087803b15801561519757600080fd5b505af11580156151ab573d6000803e3d6000fd5b5050505050565b60108054600090815260116020526040808220600a908101805460ff1916600190811790915584548452828420909101805461ff00191661010017905583540190925560025482517fabdd11a80000000000000000000000000000000000000000000000000000000081524260048201529251600160a060020a039091169263abdd11a892602480830193919282900301818387803b15801561525457600080fd5b505af1158015615268573d6000803e3d6000fd5b5050600254601054604080517f0d9907d9000000000000000000000000000000000000000000000000000000008152600481019290925251600160a060020a039092169350630d9907d992506024808201926020929091908290030181600087803b1580156152d657600080fd5b505af11580156152ea573d6000803e3d6000fd5b505050506040513d602081101561530057600080fd5b5050600254604080517f8d8276be0000000000000000000000000000000000000000000000000000000081529051600160a060020a0390921691638d8276be91600480820192602092909190829003018186803b15801561536057600080fd5b505afa158015615374573d6000803e3d6000fd5b505050506040513d602081101561538a57600080fd5b505160108054600090815260116020526040808220600290810194909455915481522001546153c7906064906119c290600163ffffffff614dab16565b601054600090815260116020526040902060030155565b601080546000908152601160208181526040808420338086529083528185208054600160a060020a03199081168317909155955485529282528084209284529181528183206003018054909416600160a060020a03959095169490941790925560049092529020805460ff19166001179055565b600160a060020a038116151561546757600080fd5b60008054604051600160a060020a03808516939216917f8be0079c531659141344cd1fd0a4f28419497f9722a3daafe3b4186f6b6457e091a360008054600160a060020a031916600160a060020a0392909216919091179055565b6040805160e081018252600080825260208201819052918101829052606081018290526080810182905260a0810182905260c08101919091529056fee8bdace8b4a6e695b0e9878fe4b88de883bde8b685e8bf87e7a4bee58cbae58fafe8bdace8b4a6e680bbe9a29de59fbae98791e4bc9ae694b6e6acbee59cb0e59d80e5b09ae69caae8aebee7bdaee68a95e585a5e79a84455448e695b0e9878fe5ba94e8afa5e5a4a7e4ba8e302e31206574686572e8a382e58f98e88085e4b88de883bde5868de68890e4b8bae8a382e58f98e88085e4b88be4b880e8bdaee5868de69da5e69fa5e79c8be7acace4b880e8bdaee79a84e695b0e68daee794a8e688b7e6b2a1e69c89e58f82e4b88ee4b88ae4b880e8bdaee6aca1e79a84e58b9fe8b584e69c9fe8afb7e7ad89e5be85e4b88be4b880e8bdaee6aca1e5868de69da5e68f90e58f96e7acace4b880e8bdaee79a84746f6b656ee7acace4b880e8bdaee6aca1e695b0e68daee5b7b2e7bb8fe5889de5a78be58c96e8bf87e4ba86e4b88ae4b880e8bdaee6aca1e58b9fe8b584e69c9fe58b9fe99b86e588b030e4b8aa455448e794a8e688b7e59ca8e4b88ae4b880e8bdaee6aca1e6b2a1e69c89e58f82e4b88ee7bb84e5bbbae69c9f546f6b656ee68a95e5b881e5bd93e5898de8bdaee6aca1e5b7b2e58b9fe99b86e588b0e8b6b3e5a49fe79a84455448e585b1e5bbbae9a29de5baa6e5b7b2e8b685e8bf87e99990e9a29defbc8ce4b88de883bde7bba7e7bbade8bdace585a5e585b1e68cafe8bf98e69caae7bb93e69d9fefbc8ce4b88de883bde68f90e58f96e8afb7e7ad89e5be85e4b88be4b880e8bdaee6aca1e5868de69da5e68f90e58f96e7acace4b880e8bdaee79a846574686572e5bd93e5898de8bdaee6aca1e59fbae98791e4bc9ae5b7b2e7bb8fe8bdace585a5e8bf87546f6b656ee4ba86e794a8e688b7e59ca8e5bd93e5898de8bdaee6aca1e5b7b2e7bb8fe68f90e58f96455448e5ae8ce68890a165627a7a723058200abc58c91deb1cdd033b34db16ea2e5a06d5565d9b86d06a561db25680ef53510029",
  "source": "pragma solidity >=0.4.21 <0.6.0;\n\nimport \"../node_modules/openzeppelin-solidity/contracts/math/SafeMath.sol\";\nimport \"../node_modules/openzeppelin-solidity/contracts/ownership/Ownable.sol\";\nimport \"./ABCToken.sol\";\nimport \"./UintUtils.sol\";\nimport \"./FissionReward.sol\";\nimport \"./FOMOReward.sol\";\nimport \"./LuckyReward.sol\";\nimport \"./FaithReward.sol\";\nimport \"./ResonanceDataManage.sol\";\n\n// TODO:token()\ncontract Resonance is Ownable{\n\n    using SafeMath for uint256;\n\n    // \n    // \n    event ToBeFissionPerson(address indexed fissionPerson, address indexed promoter);\n\n    event FundsInfo(uint256 currentStepTokenAmount, uint256 currentStepRaisedETH);\n    event BuildingPerioInfo(uint256 bpCountdown, uint256 remainingToken, uint256 personalTokenLimited, uint256 totalTokenAmount);\n    event FundingPeriodInfo(uint256 fpCountdown, uint256 remainingETH, uint256 rasiedETHAmount);\n\n    // \n    event FissionRewardInfo(address[] fissionRewardList, uint256[] fissionRewardAmount);\n    event FOMORewardInfo(address[] FOMORewardList, uint256[] FOMORewards);\n    event LuckyRewardInfo(address[] luckyRewardList, uint256 luckyReward);\n    event FaithRewardInfo(address[] faithRewardList, uint256[] faithRewardAmount);\n    event WithdrawAllETH(address addr, uint256 ETHAmount);\n    event WithdrawAllToken(address from, address to, uint256 tokenAmount);\n    event FunderInfo(uint256[] FunderInfoArray);\n    event StepFunders(\n        address[] funderAddress,\n        uint256[] funderTokenAmount,\n        uint256[] funderETHAmount,\n        uint256[] funderInvitees,\n        uint256[] funderEarnFromAff\n    );\n    event SettlementStep(uint256 stepIndex);\n\n    event StartNextStep(uint256 stepIndex);\n\n    event SetRaiseTarget(uint256 stepIndex, uint256 raiseTarget);\n\n    event GetResonances(address[] resonances);\n\n    event FunderTotalRaised(uint256 resonancesRasiedETH);\n\n    // ETHToken\n    // ETHETHETH\n    event currentStepRaisedEther(uint256 raisedETHAmount, uint256 nowRaisedEther, uint256 totalRemainingEther);\n    // TokenTokenToken\n    event currentStepRaisedToken(uint256 raisedTokenAmount, uint256 remainingTokenForPersonal, uint256 totalRemainingToken);\n\n    // \n    // ERC20\n    ABCToken public abcToken;\n\n    ResonanceDataManage resonanceDataManage;\n\n    // 60%\n    address payable public beneficiary;\n\n    // \n    struct Funder{\n        address funderAddr; // \n        uint256 tokenAmount; // token\n        uint256 ethAmount; // eth\n        address promoter; // \n        bool isFunder; // \n        bool tokenHasWithdrawn; // Token\n        bool ETHHasWithdrawn; // ETH\n        // uint256 withdrawTokenAmount; // Token\n        // uint256 withdrawETHAmount; //ETH\n    }\n\n    mapping(address => bool) public isBuilder; //\n\n    mapping(address => address[]) invitees; // \n    mapping(address => uint256) earnFromAff; // \n    mapping(address => uint256) inviteesTotalAmount; // eth\n    mapping(uint256 => address[]) FOMOList; // FOMO\n\n    // \n    struct Building{\n        uint256 openTokenAmount; // Token\n        uint256 personalTokenLimited;// token\n        uint256 raisedToken; // token\n        uint256 raisedTokenAmount; // Token\n    }\n\n    // \n    struct Funding{\n        uint256 raiseTarget; // ETH()\n        uint256 raisedETH; // ETH\n    }\n\n    FissionReward fissionRewardInstance;\n    FOMOReward FOMORewardInstance;\n    LuckyReward luckyRewardInstance;\n    FaithReward faithRewardInstance;\n\n    // \n    struct Step{\n        mapping(address => Funder) funder;// \n        address[] funders; // funders\n        Building building; // \n        Funding funding; // \n        uint256 softCap; // \n        uint256 hardCap; // \n        bool settlementFinished; // \n        bool stepIsClosed; // \n        uint256 blockNumber; // \n    }\n\n    // \n    address[] resonances;\n\n    // \n    mapping(address => uint256) resonancesRasiedETH;\n    mapping(address => uint256) resonancesRasiedToken;\n\n    uint256 public currentStep;\n\n    mapping(uint256 => Step) steps;\n\n    address public initialFissionPerson; // \n\n    mapping(uint256 => uint256) ETHFromParty; // ETH\n\n    uint256 public totalETHFromParty; // \n\n    uint256 public faithRewardTotalAmount; // \n\n    mapping(uint256 => uint256) tokenFromParty; //token\n\n    mapping(uint256 => bool) public tokenTransfered; // Token\n\n    bool public firstParamInitialized;\n\n    mapping (address => bool) refundIsFinished; // refund\n\n    // \n    /// @notice \n    /// @param _abcToken Token\n    constructor(\n        address _resonanceDataManageAddress,\n        ABCToken _abcToken,\n        address _fassionRewardAddress,\n        address _FOMORewardAddress,\n        address _luckyRewardAddress,\n        address _faithRewardAddress\n    )\n        public\n    {\n        resonanceDataManage = ResonanceDataManage(_resonanceDataManageAddress);\n        // \n        fissionRewardInstance = FissionReward(_fassionRewardAddress);\n        FOMORewardInstance = FOMOReward(_FOMORewardAddress);\n        luckyRewardInstance = LuckyReward(_luckyRewardAddress);\n        faithRewardInstance = FaithReward(_faithRewardAddress);\n        currentStep = 0;\n        abcToken = _abcToken; // abc Token\n    }\n\n\n    /// @notice \n    /// @dev ResonanceDataManage\n    function initParamForFirstStep(\n        address _newOwner,\n        address payable _beneficiary,\n        address _initialFissionPerson\n    )\n        public\n        onlyOwner()\n    {\n        require(!firstParamInitialized, \"\");\n        // \n        beneficiary = _beneficiary;\n        // \n        initialFissionPerson = _initialFissionPerson;\n        resonanceDataManage.setOpeningTime(block.timestamp); // \n        steps[currentStep].building.openTokenAmount = UintUtils.toWei(1500000); // Token\n        steps[currentStep].building.personalTokenLimited = steps[currentStep].building.openTokenAmount.mul(1).div(100);\n        // fundsPoolinitBuildingTokenAmount\n        resonanceDataManage.setParamForFirstStep();\n        // Token\n        resonanceDataManage.updateBuildingPercent(currentStep);\n        firstParamInitialized = true;\n        // \n        transferOwnership(_newOwner);\n    }\n\n    /// @notice \n    /// @param promoter \n    /// @dev TokenApprove\n    function toBeFissionPerson(\n        address promoter\n    )\n        public\n        returns(address, address)\n    {\n        require(resonanceDataManage.isBuildingPeriod(), \"\");\n        require(!resonanceDataManage.getCrowdsaleClosed(), \"\");\n        require(!isBuilder[msg.sender], \"\");\n\n        if(initialFissionPerson != promoter){\n            require(isBuilder[promoter],\"Builder\");\n        }\n\n        require(promoter != address(0), \"\");\n\n        // // \n        require(abcToken.allowance(msg.sender, address(this)) >= UintUtils.toWei(8),\"\");\n\n        require(abcToken.transferFrom(msg.sender,address(this), UintUtils.toWei(8)),\"token\");\n\n        // 3\n        abcToken.transfer(address(0), UintUtils.toWei(3));\n\n        // 5\n        abcToken.transfer(address(promoter), UintUtils.toWei(5));\n\n        earnFromAff[promoter] += UintUtils.toWei(5);\n        // steps[currentStep].funder[promoter].earnFromAff += UintUtils.toWei(5);\n\n        // \n        _addBuilder(promoter);\n\n        invitees[promoter].push(msg.sender);\n        // steps[currentStep].funder[promoter].invitees.push(msg.sender);\n\n        fissionRewardInstance.addAffman(currentStep, promoter, initialFissionPerson);\n\n        // emit ToBeFissionPerson(msg.sender, promoter);\n        return(msg.sender, promoter);\n    }\n\n    /// @notice \n    /// @dev \n    function setRaiseTarget(\n        uint256 _raiseTarget\n    )\n        public\n        onlyOwner()\n        returns(uint256, uint256)\n    {\n        require(resonanceDataManage.isBuildingPeriod(), \"\");\n        steps[currentStep].funding.raiseTarget = _raiseTarget;\n        // \n        steps[currentStep].softCap = steps[currentStep].funding.raiseTarget.mul(80).div(100);\n        steps[currentStep].hardCap = steps[currentStep].funding.raiseTarget;\n\n        // emit SetRaiseTarget(currentStep, _raiseTarget);\n        return(currentStep, _raiseTarget);\n    }\n\n    /// @notice \n    function getRaiseTarget(uint256 _stepIndex) public view returns(uint256) {\n        return steps[_stepIndex].funding.raiseTarget;\n    }\n\n    // token\n    function jointlyBuild(uint256 _tokenAmount) public {\n        require(resonanceDataManage.isBuildingPeriod(), \"\");\n\n        require(!resonanceDataManage.getCrowdsaleClosed(), \"\");\n\n        // builder\n        require(isBuilder[msg.sender], \"Builder\");\n\n        // \n        require(\n            steps[currentStep].building.raisedToken.add(_tokenAmount) <=\n            steps[currentStep].building.openTokenAmount.sub(resonanceDataManage.getBuildingTokenFromParty(currentStep)),\n            \"\"\n        );\n\n        // \n        require(\n            steps[currentStep].funder[msg.sender].tokenAmount.add(_tokenAmount) <= steps[currentStep].building.personalTokenLimited,\n            \"\"\n        );\n\n        // \n        require(abcToken.allowance(msg.sender, address(this)) >= _tokenAmount,\"\");\n\n        // \n        require(abcToken.transferFrom(msg.sender, address(this), _tokenAmount),\"token\");\n\n        steps[currentStep].funder[msg.sender].tokenAmount += _tokenAmount;\n\n        steps[currentStep].building.raisedTokenAmount += _tokenAmount;\n\n        // Token\n        resonanceDataManage.setFundsPool(resonanceDataManage.getFundsPool().sub(_tokenAmount));\n\n        // \n        resonancesRasiedToken[msg.sender] += _tokenAmount;\n\n        // token\n        steps[currentStep].building.raisedToken += _tokenAmount;\n\n        emit currentStepRaisedToken(\n            steps[currentStep].building.raisedToken,\n            steps[currentStep].building.personalTokenLimited.sub(resonancesRasiedToken[msg.sender]),\n            steps[currentStep].building.openTokenAmount.sub(steps[currentStep].building.raisedToken)\n        );\n    }\n\n    /// @notice Token\n    function transferToken() public payable onlyOwner() returns(bool){\n        require(!tokenTransfered[currentStep], \"Token\");\n\n        // \n        require(abcToken.allowance(msg.sender, address(this)) >= resonanceDataManage.getBuildingTokenFromParty(currentStep),\n            \"\"\n        );\n\n        // \n        require(abcToken.transferFrom(msg.sender, address(this), resonanceDataManage.getBuildingTokenFromParty(currentStep)),\n            \"token\"\n        );\n\n        // \n        resonanceDataManage.setFundsPool(resonanceDataManage.getFundsPool().sub(resonanceDataManage.getBuildingTokenFromParty(currentStep)));\n\n        tokenTransfered[currentStep] = true;\n\n        return true;\n    }\n\n    /// @notice \n    function ()\n        external\n        payable\n    {\n        require(resonanceDataManage.isFundingPeriod(), \"\");\n\n        require(!resonanceDataManage.getCrowdsaleClosed(), \"\");\n\n        uint amount = msg.value;\n\n        // ETH>0.1 ether\n        require(amount >= 0.1 ether, \"ETH0.1 ether\");\n\n        // ETH\n        require(\n            msg.value.add(steps[currentStep].funding.raisedETH) <= steps[currentStep].funding.raiseTarget,\n            \"ETH\"\n        );\n\n        // funder\n        if(!steps[currentStep].funder[msg.sender].isFunder){\n            steps[currentStep].funders.push(msg.sender);\n        }\n\n        // FOMO\n        FOMOList[currentStep].push(msg.sender);\n\n        steps[currentStep].funder[msg.sender].ethAmount += amount;\n        steps[currentStep].funder[msg.sender].isFunder = true;\n        steps[currentStep].funding.raisedETH += amount;\n\n        // msg.sender\n        inviteesTotalAmount[steps[currentStep].funder[msg.sender].promoter] += amount;\n\n        resonances.push(msg.sender);\n        resonancesRasiedETH[msg.sender] += amount;\n\n        emit currentStepRaisedEther(\n            steps[currentStep].funding.raisedETH,\n            amount,\n            steps[currentStep].hardCap.sub(steps[currentStep].funding.raisedETH)\n        );\n    }\n\n    /// @notice \n    /// @dev \n    /// @param _fissionWinnerList \n    /// @param _LuckyWinnerList \n    function settlementStep(\n        address[] memory _fissionWinnerList,\n        address[] memory _LuckyWinnerList\n    )\n        public\n        onlyOwner()\n        returns(bool)\n    {\n        require(beneficiary != address(0), \"\");\n\n        // \n        if(resonanceDataManage.crowdsaleIsClosed(currentStep, steps[currentStep].funding.raisedETH, steps[currentStep].softCap)){\n            return false;\n        }else{\n            uint256 totalTokenAmount = steps[currentStep].building.raisedToken.add(resonanceDataManage.getBuildingTokenFromParty(currentStep));\n\n            ETHFromParty[currentStep] = steps[currentStep].funding.raisedETH\n                .mul(resonanceDataManage.getBuildingTokenFromParty(currentStep))\n                .mul(40)\n                .div(totalTokenAmount)\n                .div(100);\n\n            // 12.5%\n            faithRewardTotalAmount += ETHFromParty[currentStep].mul(125).div(1000);\n            // FOMO\n            _settlementReward(_fissionWinnerList);\n            // \n            _settlementLuckyReward(_LuckyWinnerList);\n            // \n            resonanceDataManage.setETHBalance(\n                currentStep,\n                beneficiary,\n                steps[currentStep].funding.raisedETH.mul(60).div(100) // \n                // resonanceDataManage.getETHBalance(currentStep, beneficiary) + steps[currentStep].funding.raisedETH.mul(60).div(100)\n            );\n\n            // \n            _startNextStep();\n\n            return true;\n        }\n\n    }\n\n    /// @notice \n    /// @param _FaithWinnerList \n    function settlementFaithReward(\n        address[] memory _FaithWinnerList\n    )\n        public\n        onlyOwner()\n        returns(bool)\n    {\n        require(resonanceDataManage.getCrowdsaleClosed(), \"\");\n        return resonanceDataManage.dmSettlementFaithReward(\n            _FaithWinnerList,\n            faithRewardTotalAmount\n        );\n    }\n\n    /// @notice FOMO\n    /// @dev ,\n    function _settlementReward(\n        address[] memory _fissionWinnerList\n    )\n        internal\n    {\n        require(!steps[currentStep].settlementFinished, \"\");\n        require(!steps[currentStep].stepIsClosed, \"\");\n\n        // \n        resonanceDataManage.settlementFissionReward(\n            currentStep,\n            _fissionWinnerList,\n            ETHFromParty[currentStep].mul(50).div(100)\n        );\n\n        // FOMO\n        if(FOMOList[currentStep].length > 0){\n            resonanceDataManage.settlementFOMOReward(\n                currentStep,\n                FOMOList[currentStep],\n                ETHFromParty[currentStep].mul(125).div(1000)\n            );\n        }else{\n            return;\n        }\n    }\n\n    /// @notice \n    function _settlementLuckyReward(\n        address[] memory _LuckyWinnerList\n    )\n        internal\n    {\n        resonanceDataManage.settlementLuckyReward(\n            currentStep,\n            _LuckyWinnerList,\n            ETHFromParty[currentStep].mul(25).div(100)\n        );\n    }\n\n    /// \n    function _startNextStep()\n        internal\n    {\n        // step\n        steps[currentStep].settlementFinished = true;\n        // \n        steps[currentStep].stepIsClosed = true;\n\n        // \n        currentStep++;\n        // \n        resonanceDataManage.setOpeningTime(block.timestamp);\n        // Token\n        resonanceDataManage.updateBuildingPercent(currentStep);\n        // Token\n        steps[currentStep].building.openTokenAmount = resonanceDataManage.getBuildingTokenAmount();\n        // \n        steps[currentStep].building.personalTokenLimited = steps[currentStep].building.openTokenAmount.mul(1).div(100);\n    }\n\n    /// @notice tokentoken\n    function withdrawAllToken()\n        public\n        payable\n        returns(address, address, uint256)\n    {\n        require(currentStep != 0, \"token\");\n\n        // \n        uint256 withdrawStep = currentStep.sub(1);\n\n        require(steps[withdrawStep].funder[msg.sender].isFunder, \"\");\n\n        require(!steps[withdrawStep].funder[msg.sender].tokenHasWithdrawn, \"token\");\n\n        require(steps[withdrawStep].funder[msg.sender].ethAmount > 0, \"Token\");\n\n        require(steps[withdrawStep].funding.raisedETH > 0, \"0ETH\");\n\n        // Token\n        //  = Token * ETH / ETH\n        uint256 totalTokenAmountPriv = steps[withdrawStep].building.raisedToken\n            .add(resonanceDataManage.getBuildingTokenFromParty(withdrawStep));\n\n        uint256 withdrawAmount = totalTokenAmountPriv.\n            mul(steps[withdrawStep].funder[msg.sender].ethAmount).\n            div(steps[withdrawStep].funding.raisedETH);\n\n        resonanceDataManage.emptyTokenBalance(withdrawStep, msg.sender);\n        steps[withdrawStep].funder[msg.sender].tokenHasWithdrawn = true;\n        abcToken.transfer(msg.sender, withdrawAmount);\n\n        return(address(this), msg.sender, withdrawAmount);\n    }\n\n    /// @notice (ETH)\n    function withdrawAllETH()\n        public\n        payable\n        returns(address, uint256)\n    {\n        require(currentStep != 0, \"ether\");\n\n        // \n        uint256 withdrawStep = currentStep.sub(1);\n\n        address payable dest = address(uint160(msg.sender));\n\n        require(!steps[withdrawStep].funder[msg.sender].ETHHasWithdrawn, \"ETH\");\n\n        uint256 withdrawAmount;\n\n        // 60%\n        if(msg.sender == beneficiary){\n            withdrawAmount = resonanceDataManage.withdrawETHAmount(withdrawStep, msg.sender);\n        }else{// tokeneth\n            withdrawAmount = _calculationWithdrawETHAmount(withdrawStep);\n        }\n\n        // \n        resonanceDataManage.emptyETHBalance(withdrawStep, msg.sender);\n\n        steps[withdrawStep].funder[msg.sender].ETHHasWithdrawn = true;\n\n        dest.transfer(withdrawAmount);\n\n        return(msg.sender, withdrawAmount);\n    }\n\n\n    /// @notice \n    function withdrawFaithRewardAndRefund() public payable returns(bool){\n        // \n        require(resonanceDataManage.getCrowdsaleClosed(), \"\");\n\n        require(!refundIsFinished[msg.sender], \"\");\n        address payable dest = address(uint160(msg.sender));\n\n        uint256 resonanceClosedStep = resonanceDataManage.getResonanceClosedStep();\n        uint256 withdrawTokenAmount;\n\n        // ETH\n        uint256 withdrawETHAmount = steps[resonanceClosedStep].funder[msg.sender].ethAmount\n            .add(resonanceDataManage.getFaithRewardBalance(msg.sender));\n\n        // Token\n        if(msg.sender == beneficiary){\n            withdrawTokenAmount = resonanceDataManage.getBuildingTokenFromParty(resonanceClosedStep);\n        }else{\n            withdrawTokenAmount = steps[resonanceClosedStep].funder[msg.sender].tokenAmount;\n        }\n\n        // \n        steps[resonanceClosedStep].funder[msg.sender].ethAmount = 0;\n        resonanceDataManage.setFaithRewardBalance(msg.sender, 0);\n\n        // \n        abcToken.transfer(msg.sender, withdrawTokenAmount);\n        dest.transfer(withdrawETHAmount);\n\n        refundIsFinished[msg.sender] = true;\n        return refundIsFinished[msg.sender];\n    }\n\n    /// @notice ETH\n    /// @dev ETH\n    function withdrawAllETHByOwner()\n        public\n        payable\n        onlyOwner()\n    {\n        beneficiary.transfer(address(this).balance);\n        abcToken.transfer(msg.sender, abcToken.balanceOf(address(this)));\n    }\n\n    /// @notice \n    function isFunder() public view returns(bool) {\n        return steps[currentStep].funder[msg.sender].isFunder;\n    }\n\n    /// @notice msg.senderfunder\n    function isFunderByStep(uint256 _stepIndex) public view returns(bool){\n        return steps[_stepIndex].funder[msg.sender].isFunder;\n    }\n\n    /// @notice funder\n    function getInvitees(address _funder) public view returns(address[] memory) {\n        return invitees[_funder];\n        // return steps[currentStep].funder[_funder].invitees;\n    }\n\n    /// @notice \n    function getResonances()\n        public\n        view\n        onlyOwner()\n        returns(address[] memory)\n    {\n        // emit GetResonances(resonances);\n        return(resonances);\n    }\n\n    /// @notice ETH\n    function getFunderTotalRaised(address _funder) public view onlyOwner() returns(uint256){\n        // emit FunderTotalRaised(resonancesRasiedETH[_funder]);\n        return resonancesRasiedETH[_funder];\n    }\n\n    /// @notice funders\n    /// @dev funders\n    /// @param _stepIndex \n    function getStepFunders(uint256 _stepIndex)\n        public\n        view\n        onlyOwner()\n        returns\n    (\n        address[] memory,\n        uint256[] memory,\n        uint256[] memory,\n        uint256[] memory,\n        uint256[] memory,\n        uint256[] memory\n    )\n    {\n        address[] memory funderAddress;\n        uint256[] memory funderTokenAmount;\n        uint256[] memory funderETHAmount;\n        uint256[] memory funderInvitees;\n        uint256[] memory _earnFromAff;\n        uint256[] memory _inviteesTotalAmount;\n\n        funderAddress = new address[](steps[_stepIndex].funders.length);\n        funderTokenAmount = new uint256[](funderAddress.length);\n        funderETHAmount = new uint256[](funderAddress.length);\n        funderInvitees = new uint256[](funderAddress.length);\n        _earnFromAff = new uint256[](funderAddress.length);\n        _inviteesTotalAmount = new uint256[](funderAddress.length);\n\n        funderAddress = steps[_stepIndex].funders;\n\n        for(uint i = 0 ; i < funderAddress.length; i++){\n            funderTokenAmount[i] = steps[_stepIndex].funder[funderAddress[i]].tokenAmount;\n            funderETHAmount[i] = steps[_stepIndex].funder[funderAddress[i]].ethAmount;\n            funderInvitees[i] = invitees[funderAddress[i]].length;\n            _earnFromAff[i] = earnFromAff[funderAddress[i]];\n            _inviteesTotalAmount[i] = inviteesTotalAmount[funderAddress[i]];\n        }\n\n        return (funderAddress, funderTokenAmount, funderETHAmount, funderInvitees, _earnFromAff, _inviteesTotalAmount);\n    }\n\n    /// @notice tokenETH\n    function getCurrentStepFundsInfo()\n        public\n        view\n        returns(uint256, uint256, uint256)\n    {\n        return(currentStep, steps[currentStep].building.openTokenAmount, steps[currentStep].funding.raisedETH);\n    }\n\n    /// @notice TokenETH\n    function getWithdrawAmountPriv() public view returns(uint256, uint256) {\n        require(currentStep != 0, \"\");\n\n        uint256 _withdrawTokenAmount;\n        uint256 _withdrawETHAmount;\n        uint256 withdrawStep = currentStep.sub(1);\n\n        if(steps[withdrawStep].funder[msg.sender].tokenHasWithdrawn){\n            _withdrawTokenAmount = 0;\n        }else{\n            _withdrawTokenAmount = _calculationWithdrawTokenAmount(withdrawStep);\n        }\n\n        if(steps[withdrawStep].funder[msg.sender].ETHHasWithdrawn){\n            _withdrawETHAmount = 0;\n        }else{\n            _withdrawETHAmount = _calculationWithdrawETHAmount(withdrawStep);\n        }\n\n        return(\n            _withdrawTokenAmount,\n            _withdrawETHAmount\n        );\n    }\n\n    /// @notice \n    function getBuildingPerioInfo()\n        public\n        view\n        returns(uint256, uint256, uint256, uint256)\n    {\n        uint256 _bpCountdown;\n        uint256 _remainingToken;\n        uint256 _personalTokenLimited;\n        uint256 _totalTokenAmount;\n\n        // TODO:\n        // 0\n        if(resonanceDataManage.getOpeningTime().add(30 minutes) <= block.timestamp){\n            _bpCountdown = 0;\n        }else{\n            _bpCountdown = (resonanceDataManage.getOpeningTime().add(15 minutes)).sub(block.timestamp);\n        }\n        _remainingToken = steps[currentStep].building.openTokenAmount.\n            sub(steps[currentStep].building.raisedToken).\n            sub(resonanceDataManage.getBuildingTokenFromParty(currentStep));\n\n        _personalTokenLimited = steps[currentStep].building.personalTokenLimited;\n        _totalTokenAmount = steps[currentStep].building.raisedTokenAmount;\n\n        return(_bpCountdown, _remainingToken, _personalTokenLimited, _totalTokenAmount);\n    }\n\n    // \n    function getFundingPeriodInfo()\n        public\n        view\n        returns(uint256, uint256, uint256)\n    {\n        uint256 _fpCountdown;\n        uint256 _remainingETH;\n        uint256 _rasiedETHAmount;\n\n        // TODO:\n        // 0\n        if(resonanceDataManage.getOpeningTime().add(30 minutes) <= block.timestamp){\n            _fpCountdown = 0;\n        }else{\n            _fpCountdown = (resonanceDataManage.getOpeningTime().add(30 minutes)).sub(block.timestamp);\n        }\n        _remainingETH = steps[currentStep].funding.raiseTarget.sub(steps[currentStep].funding.raisedETH);\n        _rasiedETHAmount = steps[currentStep].funding.raisedETH;\n\n        return(_fpCountdown, _remainingETH, _rasiedETHAmount);\n    }\n\n    /// @notice Token()\n    function _calculationWithdrawTokenAmount(uint256 _stepIndex) internal view returns(uint256){\n\n        uint256 _withdrawTokenAmount;\n\n        uint256  currentStepTotalRaisedToken = steps[_stepIndex].building.raisedToken\n            .add(resonanceDataManage.getBuildingTokenFromParty(_stepIndex));\n\n        _withdrawTokenAmount = currentStepTotalRaisedToken.\n            mul(steps[_stepIndex].funder[msg.sender].ethAmount).\n            div(steps[_stepIndex].funding.raisedETH);\n\n        return _withdrawTokenAmount;\n    }\n\n    /// @notice ETH()\n    function _calculationWithdrawETHAmount(uint256 _stepIndex) internal view returns(uint256){\n        uint256 _withdrawETHAmount;\n\n        uint256 totalTokenAmount = steps[_stepIndex].building.raisedToken\n            .add(resonanceDataManage.getBuildingTokenFromParty(_stepIndex));\n\n        _withdrawETHAmount = steps[_stepIndex].funder[msg.sender].tokenAmount\n            .mul(steps[_stepIndex].funding.raisedETH)\n            .div(totalTokenAmount);\n\n        return _withdrawETHAmount.add(resonanceDataManage.withdrawETHAmount(_stepIndex, msg.sender));\n        // return _withdrawETHAmount;\n    }\n\n    /// @notice \n    function getFunderRewardInfo() public view returns(uint256, uint256, uint256, uint256) {\n        return(\n            luckyRewardInstance.luckyFunderTotalBalance(msg.sender),\n            fissionRewardInstance.fissionFunderTotalBalance(msg.sender),\n            FOMORewardInstance.FOMOFunderTotalBalance(msg.sender),\n            faithRewardInstance.faithRewardAmount(msg.sender)\n        );\n    }\n\n    /// @notice \n    function getFunderAffInfo() public view returns(uint256, uint256) {\n        return(\n            invitees[msg.sender].length, // \n            earnFromAff[msg.sender] // \n        );\n    }\n\n    /// @notice stepIndex\n    function getFunderFundsByStep(uint256 _stepIndex) public view returns(uint256[] memory){\n        Funder memory funder;\n\n        require(_stepIndex <= currentStep, \"stepIndex\");\n\n        funder = steps[_stepIndex].funder[msg.sender];\n\n        uint256[] memory result = new uint256[](4);\n\n        result[0] = _calculationWithdrawTokenAmount(_stepIndex);\n        result[1] = _calculationWithdrawETHAmount(_stepIndex);\n        result[2] = funder.tokenAmount;\n        result[3] = funder.ethAmount;\n\n        return(result);\n    }\n\n    /// @notice \n    /// @param _promoter msg.sender\n    function _addBuilder(address _promoter) internal {\n        // \n        steps[currentStep].funder[msg.sender].funderAddr = msg.sender;\n        steps[currentStep].funder[msg.sender].promoter = _promoter;\n        isBuilder[msg.sender] = true;\n    }\n\n    /// @notice hash\n    function getBlockHash(uint256 _stepIndex) public view returns(bytes32) {\n        return blockhash(steps[_stepIndex].blockNumber+1);\n    }\n\n    /// @notice \n    function setBlockHash(uint256 _stepIndex) public returns(bool) {\n        if(steps[_stepIndex].blockNumber == 0){\n            steps[_stepIndex].blockNumber = block.number;\n            return true;\n        }else{\n            return false;\n        }\n    }\n\n    /// @notice \n    function currentStepIsClosed(uint256 _stepIndex) public view returns(bool) {\n        return steps[_stepIndex].stepIsClosed;\n    }\n}",
  "sourcePath": "/Users/a186r/dev/contracts/contract/contract/contracts/Resonance.sol",
  "compiler": {
    "name": "solc",
    "version": "0.5.2+commit.1df8f40c.Emscripten.clang"
  },
  "schemaVersion": "3.0.9",
  "updatedAt": "2019-06-02T07:04:35.268Z",
  "devdoc": {
    "methods": {
      "constructor": {
        "params": {
          "_abcToken": "Token"
        }
      },
      "getStepFunders(uint256)": {
        "details": "funders",
        "params": {
          "_stepIndex": ""
        }
      },
      "initParamForFirstStep(address,address,address)": {
        "details": "ResonanceDataManage"
      },
      "isOwner()": {
        "return": "true if `msg.sender` is the owner of the contract."
      },
      "owner()": {
        "return": "the address of the owner."
      },
      "renounceOwnership()": {
        "details": "Allows the current owner to relinquish control of the contract. It will not be possible to call the functions with the `onlyOwner` modifier anymore."
      },
      "setRaiseTarget(uint256)": {
        "details": ""
      },
      "settlementFaithReward(address[])": {
        "params": {
          "_FaithWinnerList": ""
        }
      },
      "settlementStep(address[],address[])": {
        "details": "",
        "params": {
          "_LuckyWinnerList": "",
          "_fissionWinnerList": ""
        }
      },
      "toBeFissionPerson(address)": {
        "details": "TokenApprove",
        "params": {
          "promoter": ""
        }
      },
      "transferOwnership(address)": {
        "details": "Allows the current owner to transfer control of the contract to a newOwner.",
        "params": {
          "newOwner": "The address to transfer ownership to."
        }
      },
      "withdrawAllETHByOwner()": {
        "details": "ETH"
      }
    }
  },
  "userdoc": {
    "methods": {
      "constructor": "",
      "currentStepIsClosed(uint256)": {
        "notice": ""
      },
      "getBlockHash(uint256)": {
        "notice": "hash"
      },
      "getBuildingPerioInfo()": {
        "notice": ""
      },
      "getCurrentStepFundsInfo()": {
        "notice": "tokenETH"
      },
      "getFunderAffInfo()": {
        "notice": ""
      },
      "getFunderFundsByStep(uint256)": {
        "notice": "stepIndex"
      },
      "getFunderRewardInfo()": {
        "notice": ""
      },
      "getFunderTotalRaised(address)": {
        "notice": "ETH"
      },
      "getInvitees(address)": {
        "notice": "funder"
      },
      "getRaiseTarget(uint256)": {
        "notice": ""
      },
      "getResonances()": {
        "notice": ""
      },
      "getStepFunders(uint256)": {
        "notice": "funders"
      },
      "getWithdrawAmountPriv()": {
        "notice": "TokenETH"
      },
      "initParamForFirstStep(address,address,address)": {
        "notice": ""
      },
      "isFunder()": {
        "notice": ""
      },
      "isFunderByStep(uint256)": {
        "notice": "msg.senderfunder"
      },
      "renounceOwnership()": {
        "notice": "Renouncing ownership will leave the contract without an owner, thereby removing any functionality that is only available to the owner."
      },
      "setBlockHash(uint256)": {
        "notice": ""
      },
      "setRaiseTarget(uint256)": {
        "notice": ""
      },
      "settlementFaithReward(address[])": {
        "notice": ""
      },
      "settlementStep(address[],address[])": {
        "notice": ""
      },
      "toBeFissionPerson(address)": {
        "notice": ""
      },
      "transferToken()": {
        "notice": "Token"
      },
      "withdrawAllETH()": {
        "notice": "(ETH)"
      },
      "withdrawAllETHByOwner()": {
        "notice": "ETH"
      },
      "withdrawAllToken()": {
        "notice": "tokentoken"
      },
      "withdrawFaithRewardAndRefund()": {
        "notice": ""
      }
    }
  }
}