{
  "contractName": "ResonanceDataManage",
  "abi": [
    {
      "constant": true,
      "inputs": [
        {
          "name": "",
          "type": "address"
        }
      ],
      "name": "accessAllowed",
      "outputs": [
        {
          "name": "",
          "type": "bool"
        }
      ],
      "payable": false,
      "stateMutability": "view",
      "type": "function"
    },
    {
      "constant": true,
      "inputs": [],
      "name": "fundsPool",
      "outputs": [
        {
          "name": "",
          "type": "uint256"
        }
      ],
      "payable": false,
      "stateMutability": "view",
      "type": "function"
    },
    {
      "constant": true,
      "inputs": [],
      "name": "openingTime",
      "outputs": [
        {
          "name": "",
          "type": "uint256"
        }
      ],
      "payable": false,
      "stateMutability": "view",
      "type": "function"
    },
    {
      "inputs": [
        {
          "name": "_fassionRewardAddress",
          "type": "address"
        },
        {
          "name": "_FOMORewardAddress",
          "type": "address"
        },
        {
          "name": "_luckyRewardAddress",
          "type": "address"
        },
        {
          "name": "_faithRewardAddress",
          "type": "address"
        }
      ],
      "payable": false,
      "stateMutability": "nonpayable",
      "type": "constructor"
    },
    {
      "anonymous": false,
      "inputs": [
        {
          "indexed": true,
          "name": "",
          "type": "address"
        }
      ],
      "name": "AllowAccess",
      "type": "event"
    },
    {
      "constant": false,
      "inputs": [],
      "name": "setParamForFirstStep",
      "outputs": [],
      "payable": false,
      "stateMutability": "nonpayable",
      "type": "function"
    },
    {
      "constant": false,
      "inputs": [
        {
          "name": "_addr",
          "type": "address"
        }
      ],
      "name": "allowAccess",
      "outputs": [],
      "payable": false,
      "stateMutability": "nonpayable",
      "type": "function"
    },
    {
      "constant": false,
      "inputs": [
        {
          "name": "_addr",
          "type": "address"
        }
      ],
      "name": "denyAccess",
      "outputs": [],
      "payable": false,
      "stateMutability": "nonpayable",
      "type": "function"
    },
    {
      "constant": false,
      "inputs": [
        {
          "name": "_fundsPool",
          "type": "uint256"
        }
      ],
      "name": "setFundsPool",
      "outputs": [],
      "payable": false,
      "stateMutability": "nonpayable",
      "type": "function"
    },
    {
      "constant": true,
      "inputs": [],
      "name": "getFundsPool",
      "outputs": [
        {
          "name": "",
          "type": "uint256"
        }
      ],
      "payable": false,
      "stateMutability": "view",
      "type": "function"
    },
    {
      "constant": false,
      "inputs": [
        {
          "name": "_openingTime",
          "type": "uint256"
        }
      ],
      "name": "setOpeningTime",
      "outputs": [],
      "payable": false,
      "stateMutability": "nonpayable",
      "type": "function"
    },
    {
      "constant": true,
      "inputs": [],
      "name": "getOpeningTime",
      "outputs": [
        {
          "name": "",
          "type": "uint256"
        }
      ],
      "payable": false,
      "stateMutability": "view",
      "type": "function"
    },
    {
      "constant": false,
      "inputs": [
        {
          "name": "_crowdsaleClosed",
          "type": "bool"
        }
      ],
      "name": "setCrowdsaleClosed",
      "outputs": [],
      "payable": false,
      "stateMutability": "nonpayable",
      "type": "function"
    },
    {
      "constant": true,
      "inputs": [],
      "name": "getCrowdsaleClosed",
      "outputs": [
        {
          "name": "",
          "type": "bool"
        }
      ],
      "payable": false,
      "stateMutability": "view",
      "type": "function"
    },
    {
      "constant": true,
      "inputs": [
        {
          "name": "_addr",
          "type": "address"
        }
      ],
      "name": "getETHBalance",
      "outputs": [
        {
          "name": "",
          "type": "uint256"
        }
      ],
      "payable": false,
      "stateMutability": "view",
      "type": "function"
    },
    {
      "constant": false,
      "inputs": [
        {
          "name": "_addr",
          "type": "address"
        },
        {
          "name": "_amount",
          "type": "uint256"
        }
      ],
      "name": "setETHBalance",
      "outputs": [],
      "payable": false,
      "stateMutability": "nonpayable",
      "type": "function"
    },
    {
      "constant": true,
      "inputs": [
        {
          "name": "_addr",
          "type": "address"
        }
      ],
      "name": "getTokenBalance",
      "outputs": [
        {
          "name": "",
          "type": "uint256"
        }
      ],
      "payable": false,
      "stateMutability": "view",
      "type": "function"
    },
    {
      "constant": false,
      "inputs": [
        {
          "name": "_addr",
          "type": "address"
        },
        {
          "name": "_amount",
          "type": "uint256"
        }
      ],
      "name": "setTokenBalance",
      "outputs": [],
      "payable": false,
      "stateMutability": "nonpayable",
      "type": "function"
    },
    {
      "constant": true,
      "inputs": [],
      "name": "getBuildingTokenAmount",
      "outputs": [
        {
          "name": "",
          "type": "uint256"
        }
      ],
      "payable": false,
      "stateMutability": "view",
      "type": "function"
    },
    {
      "constant": true,
      "inputs": [],
      "name": "isBuildingPeriod",
      "outputs": [
        {
          "name": "",
          "type": "bool"
        }
      ],
      "payable": false,
      "stateMutability": "view",
      "type": "function"
    },
    {
      "constant": true,
      "inputs": [],
      "name": "isFundingPeriod",
      "outputs": [
        {
          "name": "",
          "type": "bool"
        }
      ],
      "payable": false,
      "stateMutability": "view",
      "type": "function"
    },
    {
      "constant": false,
      "inputs": [
        {
          "name": "raisedETH",
          "type": "uint256"
        },
        {
          "name": "softCap",
          "type": "uint256"
        },
        {
          "name": "stepIndex",
          "type": "uint256"
        }
      ],
      "name": "crowdsaleIsClosed",
      "outputs": [
        {
          "name": "",
          "type": "bool"
        }
      ],
      "payable": false,
      "stateMutability": "nonpayable",
      "type": "function"
    },
    {
      "constant": true,
      "inputs": [],
      "name": "getResonanceClosedStep",
      "outputs": [
        {
          "name": "",
          "type": "uint256"
        }
      ],
      "payable": false,
      "stateMutability": "view",
      "type": "function"
    },
    {
      "constant": true,
      "inputs": [],
      "name": "getResonanceIsClosed",
      "outputs": [
        {
          "name": "",
          "type": "bool"
        }
      ],
      "payable": false,
      "stateMutability": "view",
      "type": "function"
    },
    {
      "constant": false,
      "inputs": [
        {
          "name": "_stepIndex",
          "type": "uint256"
        },
        {
          "name": "_fissionWinnerList",
          "type": "address[]"
        },
        {
          "name": "totalFissionReward",
          "type": "uint256"
        }
      ],
      "name": "settlementFissionReward",
      "outputs": [],
      "payable": false,
      "stateMutability": "nonpayable",
      "type": "function"
    },
    {
      "constant": false,
      "inputs": [
        {
          "name": "_stepIndex",
          "type": "uint256"
        },
        {
          "name": "_funders",
          "type": "address[]"
        },
        {
          "name": "totalFOMOReward",
          "type": "uint256"
        }
      ],
      "name": "settlementFOMOReward",
      "outputs": [],
      "payable": false,
      "stateMutability": "nonpayable",
      "type": "function"
    },
    {
      "constant": false,
      "inputs": [
        {
          "name": "_stepIndex",
          "type": "uint256"
        },
        {
          "name": "_LuckyWinnerList",
          "type": "address[]"
        },
        {
          "name": "totalLuckyReward",
          "type": "uint256"
        }
      ],
      "name": "settlementLuckyReward",
      "outputs": [],
      "payable": false,
      "stateMutability": "nonpayable",
      "type": "function"
    },
    {
      "constant": false,
      "inputs": [
        {
          "name": "_faithWinners",
          "type": "address[]"
        },
        {
          "name": "totalFaithReward",
          "type": "uint256"
        }
      ],
      "name": "dmSettlementFaithReward",
      "outputs": [
        {
          "name": "",
          "type": "bool"
        }
      ],
      "payable": false,
      "stateMutability": "nonpayable",
      "type": "function"
    },
    {
      "constant": true,
      "inputs": [
        {
          "name": "_addr",
          "type": "address"
        }
      ],
      "name": "withdrawTokenAmount",
      "outputs": [
        {
          "name": "",
          "type": "uint256"
        }
      ],
      "payable": false,
      "stateMutability": "view",
      "type": "function"
    },
    {
      "constant": true,
      "inputs": [
        {
          "name": "_addr",
          "type": "address"
        }
      ],
      "name": "withdrawETHAmount",
      "outputs": [
        {
          "name": "",
          "type": "uint256"
        }
      ],
      "payable": false,
      "stateMutability": "view",
      "type": "function"
    },
    {
      "constant": false,
      "inputs": [
        {
          "name": "_addr",
          "type": "address"
        }
      ],
      "name": "emptyTokenBalance",
      "outputs": [],
      "payable": false,
      "stateMutability": "nonpayable",
      "type": "function"
    },
    {
      "constant": false,
      "inputs": [
        {
          "name": "_addr",
          "type": "address"
        }
      ],
      "name": "emptyETHBalance",
      "outputs": [],
      "payable": false,
      "stateMutability": "nonpayable",
      "type": "function"
    },
    {
      "constant": true,
      "inputs": [
        {
          "name": "_stepIndex",
          "type": "uint256"
        }
      ],
      "name": "getFissionRewardInfo",
      "outputs": [
        {
          "name": "",
          "type": "uint256"
        },
        {
          "name": "",
          "type": "address[]"
        },
        {
          "name": "",
          "type": "uint256[]"
        }
      ],
      "payable": false,
      "stateMutability": "view",
      "type": "function"
    },
    {
      "constant": true,
      "inputs": [
        {
          "name": "_stepIndex",
          "type": "uint256"
        }
      ],
      "name": "getFOMORewardIofo",
      "outputs": [
        {
          "name": "",
          "type": "uint256"
        },
        {
          "name": "",
          "type": "address[]"
        },
        {
          "name": "",
          "type": "uint256[]"
        }
      ],
      "payable": false,
      "stateMutability": "view",
      "type": "function"
    },
    {
      "constant": true,
      "inputs": [
        {
          "name": "_stepIndex",
          "type": "uint256"
        }
      ],
      "name": "getLuckyRewardInfo",
      "outputs": [
        {
          "name": "",
          "type": "uint256"
        },
        {
          "name": "",
          "type": "address[]"
        },
        {
          "name": "",
          "type": "uint256"
        }
      ],
      "payable": false,
      "stateMutability": "view",
      "type": "function"
    },
    {
      "constant": true,
      "inputs": [],
      "name": "getFaithRewardInfo",
      "outputs": [
        {
          "name": "",
          "type": "uint256"
        },
        {
          "name": "",
          "type": "address[]"
        },
        {
          "name": "",
          "type": "uint256[]"
        }
      ],
      "payable": false,
      "stateMutability": "view",
      "type": "function"
    },
    {
      "constant": true,
      "inputs": [],
      "name": "getBuildingPercentOfParty",
      "outputs": [
        {
          "name": "",
          "type": "uint256"
        }
      ],
      "payable": false,
      "stateMutability": "view",
      "type": "function"
    },
    {
      "constant": false,
      "inputs": [
        {
          "name": "_stepIndex",
          "type": "uint256"
        }
      ],
      "name": "updateBuildingPercent",
      "outputs": [
        {
          "name": "",
          "type": "bool"
        }
      ],
      "payable": false,
      "stateMutability": "nonpayable",
      "type": "function"
    },
    {
      "constant": true,
      "inputs": [],
      "name": "getBuildingTokenFromParty",
      "outputs": [
        {
          "name": "",
          "type": "uint256"
        }
      ],
      "payable": false,
      "stateMutability": "view",
      "type": "function"
    }
  ],
  "bytecode": "0x60806040526007805460ff191690556032600a819055600c5534801561002457600080fd5b506040516080806120328339810180604052608081101561004457600080fd5b508051602080830151604080850151606090950151336000908152938490529220805460ff191660019081179091558054600160a060020a03948516600160a060020a03199182161790915560028054928516928216929092179091556003805494841694821694909417909355600480549290911691909216179055611f62806100d06000396000f3fe608060405234801561001057600080fd5b506004361061022b5760003560e060020a900480638a18854b11610134578063b7a8807c116100bc578063d998d62811610080578063d998d6281461071e578063da03095c14610726578063deb72f1f14610745578063fd38f45b146107f1578063fe147c1b1461089d5761022b565b8063b7a8807c146106bf578063c39fa861146106c7578063c4a85bc1146106f0578063d6d11b82146104e0578063d7463573146107165761022b565b806395bbde881161010357806395bbde88146105c95780639b2dc7691461066e5780639b32a778146106765780639d7e0c86146103ee578063abdd11a8146106a25761022b565b80638a18854b1461059c5780638a90d601146105b95780638d8276be146105c15780639263434e146104145761022b565b80633bb66a7b116101b757806361afd5ac1161018657806361afd5ac1461049457806372501976146104ba578063743acbab146104e057806374ebae06146104e857806384976e74146104f05761022b565b80633bb66a7b14610414578063430c67c41461043a5780634ceb1f131461046057806350b9d89d1461048c5761022b565b806325d8e97f116101fe57806325d8e97f146103305780632734189a1461033857806330f42bf6146103525780633723e1c21461036f5780633aecd0e3146103ee5761022b565b80630c214602146102305780630d9907d9146102d85780631c5ce157146103095780631e7efbc914610313575b600080fd5b6102386108c3565b604051808481526020018060200180602001838103835285818151815260200191508051906020019060200280838360005b8381101561028257818101518382015260200161026a565b50505050905001838103825284818151815260200191508051906020019060200280838360005b838110156102c15781810151838201526020016102a9565b505050509050019550505050505060405180910390f35b6102f5600480360360208110156102ee57600080fd5b5035610a04565b604080519115158252519081900360200190f35b610311610b23565b005b6102386004803603602081101561032957600080fd5b5035610c9d565b6102f5610df5565b610340610e23565b60408051918252519081900360200190f35b6103116004803603602081101561036857600080fd5b5035610e29565b61038c6004803603602081101561038557600080fd5b5035610e85565b6040518084815260200180602001838152602001828103825284818151815260200191508051906020019060200280838360005b838110156103d85781810151838201526020016103c0565b5050505090500194505050505060405180910390f35b6103406004803603602081101561040457600080fd5b5035600160a060020a0316610f98565b6103406004803603602081101561042a57600080fd5b5035600160a060020a0316610fb3565b6103116004803603602081101561045057600080fd5b5035600160a060020a0316610fce565b6103116004803603604081101561047657600080fd5b50600160a060020a038135169060200135610fe8565b61034061105b565b610311600480360360208110156104aa57600080fd5b5035600160a060020a0316611061565b6102f5600480360360208110156104d057600080fd5b5035600160a060020a03166110d9565b6102f56110ee565b6102f56110f7565b6103116004803603606081101561050657600080fd5b8135919081019060408101602082013564010000000081111561052857600080fd5b82018360208201111561053a57600080fd5b8035906020019184602083028401116401000000008311171561055c57600080fd5b919080806020026020016040519081016040528093929190818152602001838360200280828437600092019190915250929550509135925061111f915050565b610238600480360360208110156105b257600080fd5b50356113bc565b610340611428565b61034061142e565b6102f5600480360360408110156105df57600080fd5b8101906020810181356401000000008111156105fa57600080fd5b82018360208201111561060c57600080fd5b8035906020019184602083028401116401000000008311171561062e57600080fd5b9190808060200260200160405190810160405280939291908181526020018383602002808284376000920191909152509295505091359250611434915050565b610340611662565b6103116004803603604081101561068c57600080fd5b50600160a060020a038135169060200135611668565b610311600480360360208110156106b857600080fd5b50356116db565b610340611737565b6102f5600480360360608110156106dd57600080fd5b508035906020810135906040013561173d565b6103116004803603602081101561070657600080fd5b5035600160a060020a03166118ec565b610340611967565b61034061196d565b6103116004803603602081101561073c57600080fd5b50351515611973565b6103116004803603606081101561075b57600080fd5b8135919081019060408101602082013564010000000081111561077d57600080fd5b82018360208201111561078f57600080fd5b803590602001918460208302840111640100000000831117156107b157600080fd5b91908080602002602001604051908101604052809392919081815260200183836020028082843760009201919091525092955050913592506119dd915050565b6103116004803603606081101561080757600080fd5b8135919081019060408101602082013564010000000081111561082957600080fd5b82018360208201111561083b57600080fd5b8035906020019184602083028401116401000000008311171561085d57600080fd5b9190808060200260200160405190810160405280939291908181526020018383602002808284376000920191909152509295505091359250611c06915050565b610311600480360360208110156108b357600080fd5b5035600160a060020a0316611e29565b6000606080600460009054906101000a9004600160a060020a0316600160a060020a031663c62461cc6040518163ffffffff1660e060020a02815260040160006040518083038186803b15801561091957600080fd5b505afa15801561092d573d6000803e3d6000fd5b505050506040513d6000823e601f3d908101601f19168201604052606081101561095657600080fd5b81516020830180519193928301929164010000000081111561097757600080fd5b8201602081018481111561098a57600080fd5b81518560208202830111640100000000821117156109a757600080fd5b505092919060200180516401000000008111156109c357600080fd5b820160208101848111156109d657600080fd5b81518560208202830111640100000000821117156109f357600080fd5b509599949850965092945050505050565b3360009081526020819052604081205460ff161515610a5b576040805160e560020a62461bcd02815260206004820152601b6024820152600080516020611f17833981519152604482015290519081900360640190fd5b600554600010610a9f5760405160e560020a62461bcd028152600401808060200182810382526021815260200180611ef66021913960400191505060405180910390fd5b811515610ada57610ad5610ad06064610ac46032600954611e4390919063ffffffff16565b9063ffffffff611e7516565b611e99565b610b1b565b6042600a541015610af957600a80546001019055600c80546000190190555b8160640a600954606302811515610b0c57fe5b046009819055610b1b90611e99565b506001919050565b3360009081526020819052604090205460ff161515610b7a576040805160e560020a62461bcd02815260206004820152601b6024820152600080516020611f17833981519152604482015290519081900360640190fd5b73__UintUtils_____________________________63669dafe86308f0d1806040518263ffffffff1660e060020a0281526004018082815260200191505060206040518083038186803b158015610bd057600080fd5b505af4158015610be4573d6000803e3d6000fd5b505050506040513d6020811015610bfa57600080fd5b5051600555604080517f669dafe80000000000000000000000000000000000000000000000000000000081526216e3606004820152905173__UintUtils_____________________________9163669dafe8916024808301926020929190829003018186803b158015610c6c57600080fd5b505af4158015610c80573d6000803e3d6000fd5b505050506040513d6020811015610c9657600080fd5b5051600955565b600254604080517f2889cc070000000000000000000000000000000000000000000000000000000081526004810184905290516000926060928392600160a060020a0390921691632889cc07916024808201928892909190829003018186803b158015610d0957600080fd5b505afa158015610d1d573d6000803e3d6000fd5b505050506040513d6000823e601f3d908101601f191682016040526060811015610d4657600080fd5b815160208301805191939283019291640100000000811115610d6757600080fd5b82016020810184811115610d7a57600080fd5b8151856020820283011164010000000082111715610d9757600080fd5b50509291906020018051640100000000811115610db357600080fd5b82016020810184811115610dc657600080fd5b8151856020820283011164010000000082111715610de357600080fd5b50959a94995097509295505050505050565b60006006544210158015610e0f5750600654610708014211155b15610e1c57506001610e20565b5060005b90565b60055490565b3360009081526020819052604090205460ff161515610e80576040805160e560020a62461bcd02815260206004820152601b6024820152600080516020611f17833981519152604482015290519081900360640190fd5b600555565b600354604080517f493274410000000000000000000000000000000000000000000000000000000081526004810184905290516000926060928492600160a060020a03909216916349327441916024808201928692909190829003018186803b158015610ef157600080fd5b505afa158015610f05573d6000803e3d6000fd5b505050506040513d6000823e601f3d908101601f191682016040526060811015610f2e57600080fd5b815160208301805191939283019291640100000000811115610f4f57600080fd5b82016020810184811115610f6257600080fd5b8151856020820283011164010000000082111715610f7f57600080fd5b5050602090910151939650945091925050509193909250565b600160a060020a03166000908152600e602052604090205490565b600160a060020a03166000908152600d602052604090205490565b600160a060020a03166000908152600e6020526040812055565b3360009081526020819052604090205460ff16151561103f576040805160e560020a62461bcd02815260206004820152601b6024820152600080516020611f17833981519152604482015290519081900360640190fd5b600160a060020a039091166000908152600e6020526040902055565b60085490565b3360009081526020819052604090205460ff1615156110b8576040805160e560020a62461bcd02815260206004820152601b6024820152600080516020611f17833981519152604482015290519081900360640190fd5b600160a060020a03166000908152602081905260409020805460ff19169055565b60006020819052908152604090205460ff1681565b60075460ff1690565b6000600654610708014210158015610e0f5750600654610e10014211610e1c57506001610e20565b3360009081526020819052604090205460ff161515611176576040805160e560020a62461bcd02815260206004820152601b6024820152600080516020611f17833981519152604482015290519081900360640190fd5b6002546040517fc21a774300000000000000000000000000000000000000000000000000000000815260048101858152604482018490526060602483018181528651606485015286519194600160a060020a03169363c21a77439389938993899390916084909101906020808701910280838360005b838110156112045781810151838201526020016111ec565b50505050905001945050505050600060405180830381600087803b15801561122b57600080fd5b505af115801561123f573d6000803e3d6000fd5b505050506040513d6000823e601f3d908101601f19168201604052602081101561126857600080fd5b81019080805164010000000081111561128057600080fd5b8201602081018481111561129357600080fd5b81518560208202830111640100000000821117156112b057600080fd5b50909450600093505050505b81518110156113b5576002548251600160a060020a039091169063509b49e99087908590859081106112ea57fe5b906020019060200201516040518363ffffffff1660e060020a0281526004018083815260200182600160a060020a0316600160a060020a031681526020019250505060206040518083038186803b15801561134457600080fd5b505afa158015611358573d6000803e3d6000fd5b505050506040513d602081101561136e57600080fd5b50518251600d9060009085908590811061138457fe5b6020908102909101810151600160a060020a03168252810191909152604001600020805490910190556001016112bc565b5050505050565b600154604080517fc79b12450000000000000000000000000000000000000000000000000000000081526004810184905290516000926060928392600160a060020a039092169163c79b1245916024808201928892909190829003018186803b158015610d0957600080fd5b60055481565b60095490565b3360009081526020819052604081205460ff16151561148b576040805160e560020a62461bcd02815260206004820152601b6024820152600080516020611f17833981519152604482015290519081900360640190fd5b60048054604080517f1e238d1000000000000000000000000000000000000000000000000000000000815260248101869052928301908152855160448401528551600093600160a060020a0390931692631e238d1092889288928291606490910190602080870191028083838c5b838110156115115781810151838201526020016114f9565b505050509050019350505050602060405180830381600087803b15801561153757600080fd5b505af115801561154b573d6000803e3d6000fd5b505050506040513d602081101561156157600080fd5b5051905060005b8451811015611658576004548551600160a060020a0390911690634a6817879087908490811061159457fe5b906020019060200201516040518263ffffffff1660e060020a0281526004018082600160a060020a0316600160a060020a0316815260200191505060206040518083038186803b1580156115e757600080fd5b505afa1580156115fb573d6000803e3d6000fd5b505050506040513d602081101561161157600080fd5b50518551600d9060009088908590811061162757fe5b6020908102909101810151600160a060020a0316825281019190915260400160002080549091019055600101611568565b5090505b92915050565b600a5490565b3360009081526020819052604090205460ff1615156116bf576040805160e560020a62461bcd02815260206004820152601b6024820152600080516020611f17833981519152604482015290519081900360640190fd5b600160a060020a039091166000908152600d6020526040902055565b3360009081526020819052604090205460ff161515611732576040805160e560020a62461bcd02815260206004820152601b6024820152600080516020611f17833981519152604482015290519081900360640190fd5b600655565b60065481565b3360009081526020819052604081205460ff161515611794576040805160e560020a62461bcd02815260206004820152601b6024820152600080516020611f17833981519152604482015290519081900360640190fd5b73__UintUtils_____________________________63669dafe8846040518263ffffffff1660e060020a0281526004018082815260200191505060206040518083038186803b1580156117e657600080fd5b505af41580156117fa573d6000803e3d6000fd5b505050506040513d602081101561181057600080fd5b5051604080517f669dafe800000000000000000000000000000000000000000000000000000000815260048101879052905173__UintUtils_____________________________9163669dafe8916024808301926020929190829003018186803b15801561187d57600080fd5b505af4158015611891573d6000803e3d6000fd5b505050506040513d60208110156118a757600080fd5b505110156118c25760088290556007805460ff191660011790555b60055415156118de5760088290556007805460ff191660011790555b5060075460ff169392505050565b3360009081526020819052604090205460ff161515611943576040805160e560020a62461bcd02815260206004820152601b6024820152600080516020611f17833981519152604482015290519081900360640190fd5b600160a060020a03166000908152602081905260409020805460ff19166001179055565b60065490565b600b5490565b3360009081526020819052604090205460ff1615156119ca576040805160e560020a62461bcd02815260206004820152601b6024820152600080516020611f17833981519152604482015290519081900360640190fd5b6007805460ff1916911515919091179055565b3360009081526020819052604090205460ff161515611a34576040805160e560020a62461bcd02815260206004820152601b6024820152600080516020611f17833981519152604482015290519081900360640190fd5b6001546040517fa5fa79760000000000000000000000000000000000000000000000000000000081526004810185815260448201849052606060248301908152855160648401528551600160a060020a039094169363a5fa797693889388938893919290916084909101906020808701910280838360005b83811015611ac4578181015183820152602001611aac565b50505050905001945050505050600060405180830381600087803b158015611aeb57600080fd5b505af1158015611aff573d6000803e3d6000fd5b506000925050505b8251811015611c00576001548351600160a060020a03909116906365922b74908690869085908110611b3557fe5b906020019060200201516040518363ffffffff1660e060020a0281526004018083815260200182600160a060020a0316600160a060020a031681526020019250505060206040518083038186803b158015611b8f57600080fd5b505afa158015611ba3573d6000803e3d6000fd5b505050506040513d6020811015611bb957600080fd5b50518351600d90600090869085908110611bcf57fe5b6020908102909101810151600160a060020a0316825281019190915260400160002080549091019055600101611b07565b50505050565b3360009081526020819052604090205460ff161515611c5d576040805160e560020a62461bcd02815260206004820152601b6024820152600080516020611f17833981519152604482015290519081900360640190fd5b6003546040517fac197f920000000000000000000000000000000000000000000000000000000081526004810185815260448201849052606060248301908152855160648401528551600160a060020a039094169363ac197f9293889388938893919290916084909101906020808701910280838360005b83811015611ced578181015183820152602001611cd5565b50505050905001945050505050600060405180830381600087803b158015611d1457600080fd5b505af1158015611d28573d6000803e3d6000fd5b506000925050505b8251811015611c00576003548351600160a060020a039091169063dd572ab9908690869085908110611d5e57fe5b906020019060200201516040518363ffffffff1660e060020a0281526004018083815260200182600160a060020a0316600160a060020a031681526020019250505060206040518083038186803b158015611db857600080fd5b505afa158015611dcc573d6000803e3d6000fd5b505050506040513d6020811015611de257600080fd5b50518351600d90600090869085908110611df857fe5b6020908102909101810151600160a060020a0316825281019190915260400160002080549091019055600101611d30565b600160a060020a03166000908152600d6020526040812055565b6000821515611e545750600061165c565b828202828482811515611e6357fe5b0414611e6e57600080fd5b9392505050565b6000808211611e8357600080fd5b60008284811515611e9057fe5b04949350505050565b3360009081526020819052604090205460ff161515611ef0576040805160e560020a62461bcd02815260206004820152601b6024820152600080516020611f17833981519152604482015290519081900360640190fd5b600b5556fee585b1e5bbbae8b584e98791e6b1a0e5b7b2e7bb8fe6b688e88097e5ae8ce6af95e8b083e794a8e88085e6b2a1e69c89e8b083e794a8e69d83e999900000000000a165627a7a723058202fbb1739e0da0cc216f8e609b6aea1c3a087d54b38b69a5f8917eda40eeb34bc0029",
  "source": "pragma solidity >=0.4.21 <0.6.0;\n\nimport \"../node_modules/openzeppelin-solidity/contracts/math/SafeMath.sol\";\nimport \"./UintUtils.sol\";\nimport \"./FissionReward.sol\";\nimport \"./FOMOReward.sol\";\nimport \"./LuckyReward.sol\";\nimport \"./FaithReward.sol\";\nimport \"./ABCToken.sol\";\n\n/// @title \n/// @dev \ncontract ResonanceDataManage{\n\n    using SafeMath for uint256;\n\n    event AllowAccess(address indexed);\n\n    // \n    mapping(address => bool) public accessAllowed;\n\n    modifier platform() {\n        require(accessAllowed[msg.sender], \"\");\n        _;\n    }\n\n    FissionReward fissionRewardInstance;\n    FOMOReward FOMORewardInstance;\n    LuckyReward luckyRewardInstance;\n    FaithReward faithRewardInstance;\n\n    // \n    uint256 public fundsPool;\n    // \n    uint256 public openingTime;\n    // \n    bool crowdsaleClosed = false;\n\n    // Step\n    uint256 resonanceClosedStep;\n\n    // Token\n    uint256 initBuildingTokenAmount;\n\n    // Token\n    uint256 buildingPercentOfParty = 50;\n\n    // Token\n    uint256 buildingTokenFromParty;\n\n    // Token\n    uint256 buildingPercentOfCommunity = 50;\n\n    // \n    mapping(address => uint256) private ETHBalance;\n    mapping(address => uint256) private tokenBalance;\n\n    constructor(\n        address _fassionRewardAddress,\n        address _FOMORewardAddress,\n        address _luckyRewardAddress,\n        address _faithRewardAddress\n    ) public {\n        accessAllowed[msg.sender] = true;\n        // \n        fissionRewardInstance = FissionReward(_fassionRewardAddress);\n        FOMORewardInstance = FOMOReward(_FOMORewardAddress);\n        luckyRewardInstance = LuckyReward(_luckyRewardAddress);\n        faithRewardInstance = FaithReward(_faithRewardAddress);\n    }\n\n    // \n    function setParamForFirstStep() public platform() {\n        fundsPool = UintUtils.toWei(150000000);\n        initBuildingTokenAmount = UintUtils.toWei(1500000);\n    }\n\n    function allowAccess(address _addr) public platform() {\n        accessAllowed[_addr] = true;\n    }\n\n    function denyAccess(address _addr) public platform() {\n        accessAllowed[_addr] = false;\n    }\n\n    function setFundsPool(uint256 _fundsPool) public platform() {\n        fundsPool = _fundsPool;\n    }\n\n    function getFundsPool() public view returns(uint256) {\n        return fundsPool;\n    }\n\n    function setOpeningTime(uint256 _openingTime) public platform() {\n        openingTime = _openingTime;\n    }\n\n    /// @notice \n    function getOpeningTime() public view returns(uint256){\n        return openingTime;\n    }\n\n    function setCrowdsaleClosed(bool _crowdsaleClosed) public platform() {\n        crowdsaleClosed = _crowdsaleClosed;\n    }\n\n    function getCrowdsaleClosed() public view returns(bool) {\n        return crowdsaleClosed;\n    }\n\n    function getETHBalance(address _addr) public view returns(uint256) {\n        return ETHBalance[_addr];\n    }\n\n    function setETHBalance(address _addr, uint256 _amount) public platform() {\n        ETHBalance[_addr] = _amount;\n    }\n\n    function getTokenBalance(address _addr) public view returns(uint256) {\n        return tokenBalance[_addr];\n    }\n\n    function setTokenBalance(address _addr, uint256 _amount) public platform() {\n        tokenBalance[_addr] = _amount;\n    }\n\n    function getBuildingTokenAmount() public view returns(uint256) {\n        return initBuildingTokenAmount;\n    }\n\n    // \n    function isBuildingPeriod() public view returns(bool){\n        // if(block.timestamp >= openingTime && block.timestamp < openingTime + 8 hours) {\n        if(block.timestamp >= openingTime && block.timestamp <= openingTime + 30 minutes) {\n            return true;\n        }else{\n            return false;\n        }\n    }\n\n    // \n    function isFundingPeriod() public view returns(bool) {\n        // if(block.timestamp >= openingTime + 8 hours && block.timestamp < openingTime + 24 hours) {\n        if(block.timestamp >= openingTime + 30 minutes && block.timestamp <= openingTime + 1 hours) {\n            return true;\n        }else{\n            return false;\n        }\n    }\n\n    /// @notice \n    /// @dev \n    /// @param raisedETH ETH\n    /// @param softCap \n    function crowdsaleIsClosed(\n        uint256 raisedETH,\n        uint256 softCap,\n        uint256 stepIndex\n    )\n        public\n        platform()\n        returns(bool)\n    {\n        // 1.\n        if(UintUtils.toWei(raisedETH) < UintUtils.toWei(softCap)) {\n            resonanceClosedStep = stepIndex;\n            crowdsaleClosed = true;\n        }\n\n        // 2.\n        if(fundsPool == 0) {\n            resonanceClosedStep = stepIndex;\n            crowdsaleClosed = true;\n        }\n\n        return crowdsaleClosed;\n    }\n\n    /// @notice Index\n    function getResonanceClosedStep() public view returns(uint256){\n        return resonanceClosedStep;\n    }\n\n    /// @notice \n    /// @dev viewcrowdsaleClosed\n    function getResonanceIsClosed() public view returns(bool) {\n        return crowdsaleClosed;\n    }\n\n    /// @notice \n    function settlementFissionReward(uint256 _stepIndex, address[] memory _fissionWinnerList, uint256 totalFissionReward)\n        public\n        platform()\n    {\n        fissionRewardInstance.dealFissionInfo(_stepIndex, _fissionWinnerList, totalFissionReward);\n        // \n        for(uint i = 0; i < _fissionWinnerList.length; i++){\n            ETHBalance[_fissionWinnerList[i]] += fissionRewardInstance.fissionRewardAmount(_stepIndex,_fissionWinnerList[i]);\n        }\n    }\n\n    function settlementFOMOReward(uint256 _stepIndex, address[] memory _funders, uint256 totalFOMOReward)\n        public\n        platform()\n    {\n        address[] memory FOMOWinnerList = FOMORewardInstance.dealFOMOWinner(_stepIndex, _funders, totalFOMOReward);\n\n        for(uint i = 0; i < FOMOWinnerList.length; i++){\n            ETHBalance[FOMOWinnerList[i]] += FOMORewardInstance.FOMORewardAmount(_stepIndex,FOMOWinnerList[i]);\n        }\n    }\n\n    function settlementLuckyReward(uint256 _stepIndex, address[] memory _LuckyWinnerList, uint256 totalLuckyReward)\n        public\n        platform()\n    {\n        luckyRewardInstance.dealLuckyInfo(_stepIndex, _LuckyWinnerList, totalLuckyReward);\n        for(uint i = 0; i < _LuckyWinnerList.length; i++){\n            ETHBalance[_LuckyWinnerList[i]] += luckyRewardInstance.luckyRewardAmount(_stepIndex,_LuckyWinnerList[i]);\n        }\n    }\n\n    function dmSettlementFaithReward(address[] memory _faithWinners, uint256 totalFaithReward)\n        public\n        platform()\n        returns(bool)\n    {\n        bool faithRewardFinished = faithRewardInstance.dealFaithWinner(_faithWinners, totalFaithReward);\n\n        for(uint i = 0; i < _faithWinners.length; i++){\n            ETHBalance[_faithWinners[i]] += faithRewardInstance.faithRewardAmount(_faithWinners[i]);\n        }\n        return faithRewardFinished;\n    }\n\n    /// @notice Token\n    function withdrawTokenAmount(address _addr) public view returns (uint256) {\n        return tokenBalance[_addr];\n    }\n\n    /// @notice ETH\n    function withdrawETHAmount(address _addr) public view returns (uint256) {\n        return ETHBalance[_addr];\n    }\n\n    function emptyTokenBalance(address _addr) public {\n        tokenBalance[_addr] = 0;\n    }\n\n    function emptyETHBalance(address _addr) public {\n        ETHBalance[_addr] = 0;\n    }\n\n    /// @notice \n    /// @dev \n    /// @param _stepIndex \n    function getFissionRewardInfo(uint256 _stepIndex)\n        public\n        view\n        returns(uint256, address[] memory, uint256[] memory)\n    {\n        return fissionRewardInstance.getFissionInfo(_stepIndex);\n    }\n\n    /// @notice FOMO\n    /// @dev FOMO\n    /// @param _stepIndex \n    function getFOMORewardIofo(uint256 _stepIndex)\n        public\n        view\n        returns(uint256, address[] memory, uint256[] memory)\n    {\n        return FOMORewardInstance.getFOMOWinnerInfo(_stepIndex);\n    }\n\n    /// @notice \n    /// @dev \n    /// @param _stepIndex \n    function getLuckyRewardInfo(uint256 _stepIndex)\n        public\n        view\n        returns(uint256, address[] memory, uint256)\n    {\n        return luckyRewardInstance.getLuckyInfo(_stepIndex);\n    }\n\n    /// @notice \n    /// @dev \n    function getFaithRewardInfo()\n        public\n        view\n        returns(uint256, address[] memory, uint256[] memory)\n    {\n        return faithRewardInstance.getFaithWinnerInfo();\n    }\n\n    /// @notice \n    function getBuildingPercentOfParty() public view returns(uint256) {\n        return buildingPercentOfParty;\n    }\n\n    /// @notice \n    function updateBuildingPercent(uint256 _stepIndex) public platform() returns (bool) {\n        require(fundsPool > 0, \"\");\n        if(_stepIndex == 0){\n            setBuildingTokenFromParty(initBuildingTokenAmount.mul(50).div(100));\n        }else{\n            // +1%-1%\n            if(buildingPercentOfParty < 66){\n                buildingPercentOfParty += 1;\n                buildingPercentOfCommunity -= 1;\n            }\n            initBuildingTokenAmount = initBuildingTokenAmount * 99 / 100 ** _stepIndex;\n            setBuildingTokenFromParty(initBuildingTokenAmount);\n        }\n\n        return true;\n    }\n\n    /// @notice Token\n    function setBuildingTokenFromParty(uint256 _buildingPercentOfParty) internal platform() {\n        buildingTokenFromParty = _buildingPercentOfParty;\n    }\n\n    /// @notice Token\n    function getBuildingTokenFromParty() public view returns(uint256) {\n        return buildingTokenFromParty;\n    }\n\n}",
  "sourcePath": "/Users/a186r/dev/contracts/contract/contract/contracts/ResonanceDataManage.sol",
  "compiler": {
    "name": "solc",
    "version": "0.5.2+commit.1df8f40c.Emscripten.clang"
  },
  "schemaVersion": "3.0.9",
  "updatedAt": "2019-05-30T17:38:58.086Z",
  "devdoc": {
    "details": "",
    "methods": {
      "crowdsaleIsClosed(uint256,uint256,uint256)": {
        "details": "",
        "params": {
          "raisedETH": "ETH",
          "softCap": ""
        }
      },
      "getFOMORewardIofo(uint256)": {
        "details": "FOMO",
        "params": {
          "_stepIndex": ""
        }
      },
      "getFaithRewardInfo()": {
        "details": ""
      },
      "getFissionRewardInfo(uint256)": {
        "details": "",
        "params": {
          "_stepIndex": ""
        }
      },
      "getLuckyRewardInfo(uint256)": {
        "details": "",
        "params": {
          "_stepIndex": ""
        }
      },
      "getResonanceIsClosed()": {
        "details": "viewcrowdsaleClosed"
      }
    },
    "title": ""
  },
  "userdoc": {
    "methods": {
      "crowdsaleIsClosed(uint256,uint256,uint256)": {
        "notice": ""
      },
      "getBuildingPercentOfParty()": {
        "notice": ""
      },
      "getBuildingTokenFromParty()": {
        "notice": "Token"
      },
      "getFOMORewardIofo(uint256)": {
        "notice": "FOMO"
      },
      "getFaithRewardInfo()": {
        "notice": ""
      },
      "getFissionRewardInfo(uint256)": {
        "notice": ""
      },
      "getLuckyRewardInfo(uint256)": {
        "notice": ""
      },
      "getOpeningTime()": {
        "notice": ""
      },
      "getResonanceClosedStep()": {
        "notice": "Index"
      },
      "getResonanceIsClosed()": {
        "notice": ""
      },
      "settlementFissionReward(uint256,address[],uint256)": {
        "notice": ""
      },
      "updateBuildingPercent(uint256)": {
        "notice": ""
      },
      "withdrawETHAmount(address)": {
        "notice": "ETH"
      },
      "withdrawTokenAmount(address)": {
        "notice": "Token"
      }
    }
  }
}