{
  "contractName": "Resonance",
  "abi": [
    {
      "constant": false,
      "inputs": [],
      "name": "renounceOwnership",
      "outputs": [],
      "payable": false,
      "stateMutability": "nonpayable",
      "type": "function"
    },
    {
      "constant": true,
      "inputs": [],
      "name": "owner",
      "outputs": [
        {
          "name": "",
          "type": "address"
        }
      ],
      "payable": false,
      "stateMutability": "view",
      "type": "function"
    },
    {
      "constant": true,
      "inputs": [],
      "name": "isOwner",
      "outputs": [
        {
          "name": "",
          "type": "bool"
        }
      ],
      "payable": false,
      "stateMutability": "view",
      "type": "function"
    },
    {
      "constant": true,
      "inputs": [],
      "name": "abcToken",
      "outputs": [
        {
          "name": "",
          "type": "address"
        }
      ],
      "payable": false,
      "stateMutability": "view",
      "type": "function"
    },
    {
      "constant": false,
      "inputs": [
        {
          "name": "newOwner",
          "type": "address"
        }
      ],
      "name": "transferOwnership",
      "outputs": [],
      "payable": false,
      "stateMutability": "nonpayable",
      "type": "function"
    },
    {
      "inputs": [
        {
          "name": "_resonanceDataManageAddress",
          "type": "address"
        },
        {
          "name": "_abcToken",
          "type": "address"
        },
        {
          "name": "_beneficiary",
          "type": "address"
        },
        {
          "name": "_initialFissionPerson",
          "type": "address"
        },
        {
          "name": "_fassionRewardAddress",
          "type": "address"
        },
        {
          "name": "_FOMORewardAddress",
          "type": "address"
        },
        {
          "name": "_luckyRewardAddress",
          "type": "address"
        },
        {
          "name": "_faithRewardAddress",
          "type": "address"
        }
      ],
      "payable": false,
      "stateMutability": "nonpayable",
      "type": "constructor"
    },
    {
      "payable": true,
      "stateMutability": "payable",
      "type": "fallback"
    },
    {
      "anonymous": false,
      "inputs": [
        {
          "indexed": true,
          "name": "fissionPerson",
          "type": "address"
        },
        {
          "indexed": true,
          "name": "promoter",
          "type": "address"
        }
      ],
      "name": "ToBeFissionPerson",
      "type": "event"
    },
    {
      "anonymous": false,
      "inputs": [
        {
          "indexed": false,
          "name": "currentStepTokenAmount",
          "type": "uint256"
        },
        {
          "indexed": false,
          "name": "currentStepRaisedETH",
          "type": "uint256"
        }
      ],
      "name": "FundsInfo",
      "type": "event"
    },
    {
      "anonymous": false,
      "inputs": [
        {
          "indexed": false,
          "name": "bpCountdown",
          "type": "uint256"
        },
        {
          "indexed": false,
          "name": "remainingToken",
          "type": "uint256"
        },
        {
          "indexed": false,
          "name": "personalTokenLimited",
          "type": "uint256"
        },
        {
          "indexed": false,
          "name": "totalTokenAmount",
          "type": "uint256"
        }
      ],
      "name": "BuildingPerioInfo",
      "type": "event"
    },
    {
      "anonymous": false,
      "inputs": [
        {
          "indexed": false,
          "name": "fpCountdown",
          "type": "uint256"
        },
        {
          "indexed": false,
          "name": "remainingETH",
          "type": "uint256"
        },
        {
          "indexed": false,
          "name": "rasiedETHAmount",
          "type": "uint256"
        }
      ],
      "name": "FundingPeriodInfo",
      "type": "event"
    },
    {
      "anonymous": false,
      "inputs": [
        {
          "indexed": false,
          "name": "fissionRewardList",
          "type": "address[]"
        },
        {
          "indexed": false,
          "name": "fissionRewardAmount",
          "type": "uint256[]"
        }
      ],
      "name": "FissionRewardInfo",
      "type": "event"
    },
    {
      "anonymous": false,
      "inputs": [
        {
          "indexed": false,
          "name": "FOMORewardList",
          "type": "address[]"
        },
        {
          "indexed": false,
          "name": "FOMORewards",
          "type": "uint256[]"
        }
      ],
      "name": "FOMORewardInfo",
      "type": "event"
    },
    {
      "anonymous": false,
      "inputs": [
        {
          "indexed": false,
          "name": "luckyRewardList",
          "type": "address[]"
        },
        {
          "indexed": false,
          "name": "luckyReward",
          "type": "uint256"
        }
      ],
      "name": "LuckyRewardInfo",
      "type": "event"
    },
    {
      "anonymous": false,
      "inputs": [
        {
          "indexed": false,
          "name": "faithRewardList",
          "type": "address[]"
        },
        {
          "indexed": false,
          "name": "faithRewardAmount",
          "type": "uint256[]"
        }
      ],
      "name": "FaithRewardInfo",
      "type": "event"
    },
    {
      "anonymous": false,
      "inputs": [
        {
          "indexed": false,
          "name": "addr",
          "type": "address"
        },
        {
          "indexed": false,
          "name": "ETHAmount",
          "type": "uint256"
        }
      ],
      "name": "WithdrawAllETH",
      "type": "event"
    },
    {
      "anonymous": false,
      "inputs": [
        {
          "indexed": false,
          "name": "FunderInfoArray",
          "type": "uint256[]"
        }
      ],
      "name": "FunderInfo",
      "type": "event"
    },
    {
      "anonymous": false,
      "inputs": [
        {
          "indexed": false,
          "name": "funderAddress",
          "type": "address[]"
        },
        {
          "indexed": false,
          "name": "funderTokenAmount",
          "type": "uint256[]"
        },
        {
          "indexed": false,
          "name": "funderETHAmount",
          "type": "uint256[]"
        },
        {
          "indexed": false,
          "name": "funderInvitees",
          "type": "uint256[]"
        },
        {
          "indexed": false,
          "name": "funderEarnFromAff",
          "type": "uint256[]"
        }
      ],
      "name": "StepFunders",
      "type": "event"
    },
    {
      "anonymous": false,
      "inputs": [
        {
          "indexed": false,
          "name": "stepIndex",
          "type": "uint256"
        }
      ],
      "name": "SettlementStep",
      "type": "event"
    },
    {
      "anonymous": false,
      "inputs": [
        {
          "indexed": false,
          "name": "stepIndex",
          "type": "uint256"
        }
      ],
      "name": "StartNextStep",
      "type": "event"
    },
    {
      "anonymous": false,
      "inputs": [
        {
          "indexed": false,
          "name": "stepIndex",
          "type": "uint256"
        },
        {
          "indexed": false,
          "name": "raiseTarget",
          "type": "uint256"
        }
      ],
      "name": "SetRaiseTarget",
      "type": "event"
    },
    {
      "anonymous": false,
      "inputs": [
        {
          "indexed": false,
          "name": "resonances",
          "type": "address[]"
        }
      ],
      "name": "GetResonances",
      "type": "event"
    },
    {
      "anonymous": false,
      "inputs": [
        {
          "indexed": false,
          "name": "resonancesRasiedETH",
          "type": "uint256"
        }
      ],
      "name": "FunderTotalRaised",
      "type": "event"
    },
    {
      "anonymous": false,
      "inputs": [
        {
          "indexed": true,
          "name": "previousOwner",
          "type": "address"
        },
        {
          "indexed": true,
          "name": "newOwner",
          "type": "address"
        }
      ],
      "name": "OwnershipTransferred",
      "type": "event"
    },
    {
      "constant": false,
      "inputs": [],
      "name": "allowAccess",
      "outputs": [],
      "payable": false,
      "stateMutability": "nonpayable",
      "type": "function"
    },
    {
      "constant": false,
      "inputs": [
        {
          "name": "promoter",
          "type": "address"
        }
      ],
      "name": "toBeFissionPerson",
      "outputs": [
        {
          "name": "",
          "type": "address"
        },
        {
          "name": "",
          "type": "address"
        }
      ],
      "payable": false,
      "stateMutability": "nonpayable",
      "type": "function"
    },
    {
      "constant": false,
      "inputs": [
        {
          "name": "_raiseTarget",
          "type": "uint256"
        }
      ],
      "name": "setRaiseTarget",
      "outputs": [
        {
          "name": "",
          "type": "uint256"
        },
        {
          "name": "",
          "type": "uint256"
        }
      ],
      "payable": false,
      "stateMutability": "nonpayable",
      "type": "function"
    },
    {
      "constant": true,
      "inputs": [
        {
          "name": "_stepIndex",
          "type": "uint256"
        }
      ],
      "name": "getRaiseTarget",
      "outputs": [
        {
          "name": "",
          "type": "uint256"
        }
      ],
      "payable": false,
      "stateMutability": "view",
      "type": "function"
    },
    {
      "constant": false,
      "inputs": [
        {
          "name": "_tokenAmount",
          "type": "uint256"
        }
      ],
      "name": "jointlyBuild",
      "outputs": [],
      "payable": false,
      "stateMutability": "nonpayable",
      "type": "function"
    },
    {
      "constant": false,
      "inputs": [
        {
          "name": "_fissionWinnerList",
          "type": "address[]"
        },
        {
          "name": "_LuckyWinnerList",
          "type": "address[]"
        }
      ],
      "name": "settlementStep",
      "outputs": [
        {
          "name": "",
          "type": "bool"
        }
      ],
      "payable": false,
      "stateMutability": "nonpayable",
      "type": "function"
    },
    {
      "constant": false,
      "inputs": [
        {
          "name": "_FaithWinnerList",
          "type": "address[]"
        }
      ],
      "name": "settlementFaithReward",
      "outputs": [
        {
          "name": "",
          "type": "bool"
        }
      ],
      "payable": false,
      "stateMutability": "nonpayable",
      "type": "function"
    },
    {
      "constant": false,
      "inputs": [],
      "name": "withdrawAllToken",
      "outputs": [
        {
          "name": "",
          "type": "address"
        },
        {
          "name": "",
          "type": "address"
        },
        {
          "name": "",
          "type": "uint256"
        }
      ],
      "payable": true,
      "stateMutability": "payable",
      "type": "function"
    },
    {
      "constant": false,
      "inputs": [],
      "name": "withdrawAllETH",
      "outputs": [
        {
          "name": "",
          "type": "address"
        },
        {
          "name": "",
          "type": "uint256"
        }
      ],
      "payable": true,
      "stateMutability": "payable",
      "type": "function"
    },
    {
      "constant": true,
      "inputs": [],
      "name": "isBuilder",
      "outputs": [
        {
          "name": "",
          "type": "bool"
        }
      ],
      "payable": false,
      "stateMutability": "view",
      "type": "function"
    },
    {
      "constant": true,
      "inputs": [],
      "name": "isFunder",
      "outputs": [
        {
          "name": "",
          "type": "bool"
        }
      ],
      "payable": false,
      "stateMutability": "view",
      "type": "function"
    },
    {
      "constant": false,
      "inputs": [],
      "name": "getResonances",
      "outputs": [
        {
          "name": "",
          "type": "address[]"
        }
      ],
      "payable": false,
      "stateMutability": "nonpayable",
      "type": "function"
    },
    {
      "constant": false,
      "inputs": [
        {
          "name": "_funder",
          "type": "address"
        }
      ],
      "name": "getFunderTotalRaised",
      "outputs": [
        {
          "name": "",
          "type": "uint256"
        }
      ],
      "payable": false,
      "stateMutability": "nonpayable",
      "type": "function"
    },
    {
      "constant": false,
      "inputs": [
        {
          "name": "_stepIndex",
          "type": "uint256"
        }
      ],
      "name": "getStepFunders",
      "outputs": [
        {
          "name": "",
          "type": "address[]"
        },
        {
          "name": "",
          "type": "uint256[]"
        },
        {
          "name": "",
          "type": "uint256[]"
        },
        {
          "name": "",
          "type": "uint256[]"
        },
        {
          "name": "",
          "type": "uint256[]"
        }
      ],
      "payable": false,
      "stateMutability": "nonpayable",
      "type": "function"
    },
    {
      "constant": false,
      "inputs": [],
      "name": "getCurrentStepFundsInfo",
      "outputs": [
        {
          "name": "",
          "type": "uint256"
        },
        {
          "name": "",
          "type": "uint256"
        }
      ],
      "payable": false,
      "stateMutability": "nonpayable",
      "type": "function"
    },
    {
      "constant": false,
      "inputs": [],
      "name": "getBuildingPerioInfo",
      "outputs": [
        {
          "name": "",
          "type": "uint256"
        },
        {
          "name": "",
          "type": "uint256"
        },
        {
          "name": "",
          "type": "uint256"
        },
        {
          "name": "",
          "type": "uint256"
        }
      ],
      "payable": false,
      "stateMutability": "nonpayable",
      "type": "function"
    },
    {
      "constant": false,
      "inputs": [],
      "name": "getFundingPeriodInfo",
      "outputs": [
        {
          "name": "",
          "type": "uint256"
        },
        {
          "name": "",
          "type": "uint256"
        },
        {
          "name": "",
          "type": "uint256"
        }
      ],
      "payable": false,
      "stateMutability": "nonpayable",
      "type": "function"
    },
    {
      "constant": false,
      "inputs": [
        {
          "name": "_funder",
          "type": "address"
        }
      ],
      "name": "getFunderInfo",
      "outputs": [
        {
          "name": "",
          "type": "uint256"
        },
        {
          "name": "",
          "type": "uint256"
        },
        {
          "name": "",
          "type": "uint256"
        },
        {
          "name": "",
          "type": "uint256"
        },
        {
          "name": "",
          "type": "uint256"
        },
        {
          "name": "",
          "type": "uint256"
        },
        {
          "name": "",
          "type": "uint256"
        },
        {
          "name": "",
          "type": "uint256"
        },
        {
          "name": "",
          "type": "uint256"
        },
        {
          "name": "",
          "type": "uint256"
        }
      ],
      "payable": false,
      "stateMutability": "nonpayable",
      "type": "function"
    },
    {
      "constant": false,
      "inputs": [
        {
          "name": "_approveAmount",
          "type": "uint256"
        }
      ],
      "name": "approveTokenToContract",
      "outputs": [],
      "payable": false,
      "stateMutability": "nonpayable",
      "type": "function"
    },
    {
      "constant": false,
      "inputs": [
        {
          "name": "_addedValue",
          "type": "uint256"
        }
      ],
      "name": "increaseAllowance",
      "outputs": [],
      "payable": false,
      "stateMutability": "nonpayable",
      "type": "function"
    },
    {
      "constant": false,
      "inputs": [
        {
          "name": "_subtractedValue",
          "type": "uint256"
        }
      ],
      "name": "decreaseAllowance",
      "outputs": [],
      "payable": false,
      "stateMutability": "nonpayable",
      "type": "function"
    },
    {
      "constant": true,
      "inputs": [
        {
          "name": "_funder",
          "type": "address"
        }
      ],
      "name": "getAllowance",
      "outputs": [
        {
          "name": "",
          "type": "uint256"
        },
        {
          "name": "",
          "type": "uint256"
        },
        {
          "name": "",
          "type": "uint256"
        },
        {
          "name": "",
          "type": "uint256"
        },
        {
          "name": "",
          "type": "uint256"
        },
        {
          "name": "",
          "type": "uint256"
        },
        {
          "name": "",
          "type": "uint256"
        },
        {
          "name": "",
          "type": "uint256"
        },
        {
          "name": "",
          "type": "uint256"
        },
        {
          "name": "",
          "type": "uint256"
        }
      ],
      "payable": false,
      "stateMutability": "view",
      "type": "function"
    },
    {
      "constant": true,
      "inputs": [],
      "name": "Beneficiary",
      "outputs": [
        {
          "name": "",
          "type": "address"
        }
      ],
      "payable": false,
      "stateMutability": "view",
      "type": "function"
    },
    {
      "constant": true,
      "inputs": [],
      "name": "getBlockHash",
      "outputs": [
        {
          "name": "blockHash",
          "type": "bytes32"
        }
      ],
      "payable": false,
      "stateMutability": "view",
      "type": "function"
    }
  ],
  "bytecode": "0x608060405234801561001057600080fd5b5060405161010080620049a1833981018060405261010081101561003357600080fd5b50805160208201516040808401516060850151608086015160a087015160c088015160e09098015160008054600160a060020a03191633178082559651989997989597949693959294939192600160a060020a0392909216917f8be0079c531659141344cd1fd0a4f28419497f9722a3daafe3b4186f6b6457e0908290a360028054600160a060020a03998a16600160a060020a03199182161790915560048054958a1695821695909517909455600580549389169385169390931790925560068054918816918416919091179055600780549187169183169190911790556000600b5560018054948616948216949094179093556003805492851692841692909217909155600d805491909316911617905561484b80620001566000396000f3fe6080604052600436106101c65760003560e060020a90048063912c84ec116100fb578063c12cd1bc11610099578063e757412811610068578063e757412814610b82578063ee12d62214610b97578063f2fde38b14610c1a578063feaec77514610c4d576101c6565b8063c12cd1bc14610a99578063db27cf6114610acc578063de3844ff14610af6578063e15ce92714610b4f576101c6565b8063a45d1524116100d5578063a45d1524146108fc578063a9033bfe14610926578063b4862a711461093b578063b5ac72b514610965576101c6565b8063912c84ec146108ab5780639663f88f146108c0578063973e9b8b146108e7576101c6565b806364ab07fa11610168578063891d7e7911610142578063891d7e79146107f15780638da5cb5b146108565780638f32d59b1461086b57806390386bbf14610880576101c6565b806364ab07fa14610770578063715018a6146107ab57806373d55379146107c0576101c6565b806316b29746116101a457806316b29746146104c25780634559ff9b1461065457806354b94615146106975780635deac38b146106c0576101c6565b806310bad4cf1461043a57806311e330b21461046657806314870d2c14610490575b600260009054906101000a9004600160a060020a0316600160a060020a03166374ebae066040518163ffffffff1660e060020a02815260040160206040518083038186803b15801561021757600080fd5b505afa15801561022b573d6000803e3d6000fd5b505050506040513d602081101561024157600080fd5b50511515610299576040805160e560020a62461bcd02815260206004820152601260248201527fe4b88de59ca8e58b9fe8b584e69c9fe586850000000000000000000000000000604482015290519081900360640190fd5b600260009054906101000a9004600160a060020a0316600160a060020a031663743acbab6040518163ffffffff1660e060020a02815260040160206040518083038186803b1580156102ea57600080fd5b505afa1580156102fe573d6000803e3d6000fd5b505050506040513d602081101561031457600080fd5b505115610359576040805160e560020a62461bcd028152602060048201526012602482015260008051602061478a833981519152604482015290519081900360640190fd5b600b80546000908152600c6020818152604080842033808652908352818520346002909101819055865486528484528286208287528452828620600501805475ff000000000000000000000000000000000000000000191675010000000000000000000000000000000000000000001790559554855292825280842060070180548601905560088054600181019091557ff3f7a9fe364faab93b216da50a3214154f22a0a2b415b23a84c8169e8b636ee301805473ffffffffffffffffffffffffffffffffffffffff19168417905591835260099052902080549091019055005b34801561044657600080fd5b506104646004803603602081101561045d57600080fd5b5035610c62565b005b34801561047257600080fd5b506104646004803603602081101561048957600080fd5b5035610d11565b610498610d91565b60408051600160a060020a0394851681529290931660208301528183015290519081900360600190f35b3480156104ce57600080fd5b506104ec600480360360208110156104e557600080fd5b503561101b565b60405180806020018060200180602001806020018060200186810386528b818151815260200191508051906020019060200280838360005b8381101561053c578181015183820152602001610524565b5050505090500186810385528a818151815260200191508051906020019060200280838360005b8381101561057b578181015183820152602001610563565b50505050905001868103845289818151815260200191508051906020019060200280838360005b838110156105ba5781810151838201526020016105a2565b50505050905001868103835288818151815260200191508051906020019060200280838360005b838110156105f95781810151838201526020016105e1565b50505050905001868103825287818151815260200191508051906020019060200280838360005b83811015610638578181015183820152602001610620565b505050509050019a505050505050505050505060405180910390f35b34801561066057600080fd5b5061067e6004803603602081101561067757600080fd5b5035611400565b6040805192835260208301919091528051918290030190f35b3480156106a357600080fd5b506106ac611534565b604080519115158252519081900360200190f35b3480156106cc57600080fd5b506106ac600480360360208110156106e357600080fd5b8101906020810181356401000000008111156106fe57600080fd5b82018360208201111561071057600080fd5b8035906020019184602083028401116401000000008311171561073257600080fd5b919080806020026020016040519081016040528093929190818152602001838360200280828437600092019190915250929550611572945050505050565b34801561077c57600080fd5b506107856117d6565b604080519485526020850193909352838301919091526060830152519081900360800190f35b3480156107b757600080fd5b506104646119e5565b3480156107cc57600080fd5b506107d5611a4f565b60408051600160a060020a039092168252519081900360200190f35b3480156107fd57600080fd5b50610806611a5e565b60408051602080825283518183015283519192839290830191858101910280838360005b8381101561084257818101518382015260200161082a565b505050509050019250505060405180910390f35b34801561086257600080fd5b506107d5611b53565b34801561087757600080fd5b506106ac611b62565b610888611b73565b60408051600160a060020a03909316835260208301919091528051918290030190f35b3480156108b757600080fd5b5061067e611dc3565b3480156108cc57600080fd5b506108d5611e54565b60408051918252519081900360200190f35b3480156108f357600080fd5b506108d5611e80565b34801561090857600080fd5b506104646004803603602081101561091f57600080fd5b5035611f1b565b34801561093257600080fd5b50610464612013565b34801561094757600080fd5b506104646004803603602081101561095e57600080fd5b503561219f565b34801561097157600080fd5b506106ac6004803603604081101561098857600080fd5b8101906020810181356401000000008111156109a357600080fd5b8201836020820111156109b557600080fd5b803590602001918460208302840111640100000000831117156109d757600080fd5b9190808060200260200160405190810160405280939291908181526020018383602002808284376000920191909152509295949360208101935035915050640100000000811115610a2757600080fd5b820183602082011115610a3957600080fd5b80359060200191846020830284011164010000000083111715610a5b57600080fd5b919080806020026020016040519081016040528093929190818152602001838360200280828437600092019190915250929550612808945050505050565b348015610aa557600080fd5b50610aae612b89565b60408051938452602084019290925282820152519081900360600190f35b348015610ad857600080fd5b506108d560048036036020811015610aef57600080fd5b5035612d95565b348015610b0257600080fd5b50610b2960048036036020811015610b1957600080fd5b5035600160a060020a0316612daa565b60408051600160a060020a03938416815291909216602082015281519081900390910190f35b348015610b5b57600080fd5b506108d560048036036020811015610b7257600080fd5b5035600160a060020a031661363e565b348015610b8e57600080fd5b506107d56136bd565b348015610ba357600080fd5b50610bca60048036036020811015610bba57600080fd5b5035600160a060020a03166136cc565b604080519a8b5260208b0199909952898901979097526060890195909552608088019390935260a087019190915260c086015260e085015261010084015261012083015251908190036101400190f35b348015610c2657600080fd5b5061046460048036036020811015610c3d57600080fd5b5035600160a060020a0316613edf565b348015610c5957600080fd5b506106ac613efe565b610c6a611b62565b1515610c7557600080fd5b600154604080517fa457c2d7000000000000000000000000000000000000000000000000000000008152306004820152602481018490529051600160a060020a039092169163a457c2d7916044808201926020929091908290030181600087803b158015610ce257600080fd5b505af1158015610cf6573d6000803e3d6000fd5b505050506040513d6020811015610d0c57600080fd5b505050565b610d19611b62565b1515610d2457600080fd5b600154604080517f39509351000000000000000000000000000000000000000000000000000000008152306004820152602481018490529051600160a060020a03909216916339509351916044808201926020929091908290030181600087803b158015610ce257600080fd5b600b546000908152600c6020908152604080832033845290915281206005015481908190760100000000000000000000000000000000000000000000900460ff1615610e115760405160e560020a62461bcd02815260040180806020018281038252602c8152602001806147aa602c913960400191505060405180910390fd5b600254604080517f9d7e0c860000000000000000000000000000000000000000000000000000000081523360048201529051600092600160a060020a031691639d7e0c86916024808301926020929190829003018186803b158015610e7557600080fd5b505afa158015610e89573d6000803e3d6000fd5b505050506040513d6020811015610e9f57600080fd5b5051600254604080517f0c5d0c560000000000000000000000000000000000000000000000000000000081529051929350600160a060020a0390911691630c5d0c569160048082019260009290919082900301818387803b158015610f0357600080fd5b505af1158015610f17573d6000803e3d6000fd5b5050600b546000908152600c6020908152604080832033808552908352818420600501805476ff00000000000000000000000000000000000000000000191676010000000000000000000000000000000000000000000017905560015482517f23b872dd0000000000000000000000000000000000000000000000000000000081523060048201526024810192909252604482018890529151600160a060020a039290921695506323b872dd9450606480820194918390030190829087803b158015610fe257600080fd5b505af1158015610ff6573d6000803e3d6000fd5b505050506040513d602081101561100c57600080fd5b50309533955091935090915050565b606080606080606061102b611b62565b151561103657600080fd5b6060806060806060600c60008c81526020019081526020016000206001018054806020026020016040519081016040528092919081815260200182805480156110a857602002820191906000526020600020905b8154600160a060020a0316815260019091019060200180831161108a575b50939850600093505050505b85518110156112605760008c8152600c6020526040812087519091908890849081106110dc57fe5b90602001906020020151600160a060020a0316600160a060020a0316815260200190815260200160002060010154858281518110151561111857fe5b602090810290910181019190915260008d8152600c90915260408120875190919088908490811061114557fe5b90602001906020020151600160a060020a0316600160a060020a0316815260200190815260200160002060020154848281518110151561118157fe5b602090810290910181019190915260008d8152600c9091526040812087519091908890849081106111ae57fe5b6020908102909101810151600160a060020a031682528101919091526040016000206003015483518490839081106111e257fe5b6020908102909101810191909152600b546000908152600c90915260408120875190919088908490811061121257fe5b90602001906020020151600160a060020a0316600160a060020a0316815260200190815260200160002060040154828281518110151561124e57fe5b602090810290910101526001016110b4565b507f3b87f7808c5ab95853c64302b46442fcc67c01ce3ca71e707da509a4100e6afc858585858560405180806020018060200180602001806020018060200186810386528b818151815260200191508051906020019060200280838360005b838110156112d75781810151838201526020016112bf565b5050505090500186810385528a818151815260200191508051906020019060200280838360005b838110156113165781810151838201526020016112fe565b50505050905001868103845289818151815260200191508051906020019060200280838360005b8381101561135557818101518382015260200161133d565b50505050905001868103835288818151815260200191508051906020019060200280838360005b8381101561139457818101518382015260200161137c565b50505050905001868103825287818151815260200191508051906020019060200280838360005b838110156113d35781810151838201526020016113bb565b505050509050019a505050505050505050505060405180910390a1939a9299509097509550909350915050565b60008061140b611b62565b151561141657600080fd5b600260009054906101000a9004600160a060020a0316600160a060020a03166325d8e97f6040518163ffffffff1660e060020a02815260040160206040518083038186803b15801561146757600080fd5b505afa15801561147b573d6000803e3d6000fd5b505050506040513d602081101561149157600080fd5b505115156114d7576040805160e560020a62461bcd02815260206004820152601260248201526000805160206147d6833981519152604482015290519081900360640190fd5b600b80546000908152600c60209081526040918290206006018690559154815190815291820185905280517fa0065ef53daacd0859dd1ca5cdda1a90bd236db58dc67e1c6c9888afb8b7c9349281900390910190a15050600b5491565b600b546000908152600c6020908152604080832033845290915290206005015474010000000000000000000000000000000000000000900460ff1690565b600061157c611b62565b151561158757600080fd5b600260009054906101000a9004600160a060020a0316600160a060020a031663743acbab6040518163ffffffff1660e060020a02815260040160206040518083038186803b1580156115d857600080fd5b505afa1580156115ec573d6000803e3d6000fd5b505050506040513d602081101561160257600080fd5b5051151561165a576040805160e560020a62461bcd02815260206004820152601260248201527fe585b1e68cafe8bf98e69caae7bb93e69d9f0000000000000000000000000000604482015290519081900360640190fd5b600254600b546000908152600c6020526040902060070154600160a060020a03909116906395bbde8890849073__UintUtils_____________________________9063669dafe8906116c6906064906116ba90600563ffffffff613f3d16565b9063ffffffff613f6f16565b6040518263ffffffff1660e060020a0281526004018082815260200191505060206040518083038186803b1580156116fd57600080fd5b505af4158015611711573d6000803e3d6000fd5b505050506040513d602081101561172757600080fd5b50516040805160e060020a63ffffffff861602815260248101839052600481019182528351604482015283518291606401906020868101910280838360005b8381101561177e578181015183820152602001611766565b505050509050019350505050602060405180830381600087803b1580156117a457600080fd5b505af11580156117b8573d6000803e3d6000fd5b505050506040513d60208110156117ce57600080fd5b505192915050565b6000806000806117e4611b62565b15156117ef57600080fd5b600260009054906101000a9004600160a060020a0316600160a060020a03166325d8e97f6040518163ffffffff1660e060020a02815260040160206040518083038186803b15801561184057600080fd5b505afa158015611854573d6000803e3d6000fd5b505050506040513d602081101561186a57600080fd5b505115156118b0576040805160e560020a62461bcd02815260206004820152601260248201526000805160206147d6833981519152604482015290519081900360640190fd5b60008060008042600260009054906101000a9004600160a060020a0316600160a060020a031663d74635736040518163ffffffff1660e060020a02815260040160206040518083038186803b15801561190857600080fd5b505afa15801561191c573d6000803e3d6000fd5b505050506040513d602081101561193257600080fd5b5051600b546000908152600c6020526040902060048101546002909101549290910361708001955061196a919063ffffffff613f9316565b600b546000908152600c60209081526040918290206003810154600590910154835189815292830185905282840182905260608301819052925193965094509092507fe11de7dbf210471e3fa9c2ce8526b79b1202a34755ab39aa0ee452e2de7dd9e3919081900360800190a1929791965094509092509050565b6119ed611b62565b15156119f857600080fd5b60008054604051600160a060020a03909116907f8be0079c531659141344cd1fd0a4f28419497f9722a3daafe3b4186f6b6457e0908390a36000805473ffffffffffffffffffffffffffffffffffffffff19169055565b600354600160a060020a031690565b6060611a68611b62565b1515611a7357600080fd5b7f239ea09ed3b2c5ca6c811a840e58b3dc40f4591da5f559b32893f99e968b419c600860405180806020018281038252838181548152602001915080548015611ae557602002820191906000526020600020905b8154600160a060020a03168152600190910190602001808311611ac7575b50509250505060405180910390a16008805480602002602001604051908101604052809291908181526020018280548015611b4957602002820191906000526020600020905b8154600160a060020a03168152600190910190602001808311611b2b575b5050505050905090565b600054600160a060020a031690565b600054600160a060020a0316331490565b600b546000908152600c60209081526040808320338452909152812060050154819077010000000000000000000000000000000000000000000000900460ff1615611bf25760405160e560020a62461bcd02815260040180806020018281038252602a8152602001806147f6602a913960400191505060405180910390fd5b600254604080517f9263434e0000000000000000000000000000000000000000000000000000000081523360048201529051600092600160a060020a031691639263434e916024808301926020929190829003018186803b158015611c5657600080fd5b505afa158015611c6a573d6000803e3d6000fd5b505050506040513d6020811015611c8057600080fd5b5051600254604080517f503001200000000000000000000000000000000000000000000000000000000081529051929350600160a060020a039091169163503001209160048082019260009290919082900301818387803b158015611ce457600080fd5b505af1158015611cf8573d6000803e3d6000fd5b5050600b546000908152600c60209081526040808320338085529252808320600501805477ff00000000000000000000000000000000000000000000001916770100000000000000000000000000000000000000000000001790555190935084156108fc0292508491818181858888f19350505050158015611d7e573d6000803e3d6000fd5b50604080513381526020810183905281517f293d21fe426f090ce1ced07545832d833ba5245d1ca5dab39eedd683bcb26c71929181900390910190a133925090509091565b600080611dce611b62565b1515611dd957600080fd5b600b546000908152600c6020908152604091829020600281015460079091015483519182529181019190915281517fefb17818fcd18149842dc8ec26c8d51b1f7cd86669024d8ad385c95727e301b2929181900390910190a15050600b546000908152600c6020526040902060028101546007909101549091565b600b546000908152600c6020819052604082200154611e7a90600163ffffffff613fa816565b40905090565b600154604080517fdd62ed3e0000000000000000000000000000000000000000000000000000000081523360048201523060248201529051600092600160a060020a03169163dd62ed3e916044808301926020929190829003018186803b158015611eea57600080fd5b505afa158015611efe573d6000803e3d6000fd5b505050506040513d6020811015611f1457600080fd5b5051905090565b611f23611b62565b1515611f2e57600080fd5b6001546040805160e360020a630cd3b5fd028152600481018490529051600160a060020a039092169163095ea7b391309173__UintUtils_____________________________9163669dafe8916024808301926020929190829003018186803b158015611f9a57600080fd5b505af4158015611fae573d6000803e3d6000fd5b505050506040513d6020811015611fc457600080fd5b50516040805160e060020a63ffffffff8616028152600160a060020a03909316600484015260248301919091525160448083019260209291908290030181600087803b158015610ce257600080fd5b61201b611b62565b151561202657600080fd5b600254604080517fc4a85bc10000000000000000000000000000000000000000000000000000000081523060048201529051600160a060020a039092169163c4a85bc19160248082019260009290919082900301818387803b15801561208b57600080fd5b505af115801561209f573d6000803e3d6000fd5b5050600254604080517fc4a85bc10000000000000000000000000000000000000000000000000000000081523360048201529051600160a060020a03909216935063c4a85bc1925060248082019260009290919082900301818387803b15801561210857600080fd5b505af115801561211c573d6000803e3d6000fd5b5050600254604080517fabdd11a80000000000000000000000000000000000000000000000000000000081524260048201529051600160a060020a03909216935063abdd11a8925060248082019260009290919082900301818387803b15801561218557600080fd5b505af1158015612199573d6000803e3d6000fd5b50505050565b600260009054906101000a9004600160a060020a0316600160a060020a03166325d8e97f6040518163ffffffff1660e060020a02815260040160206040518083038186803b1580156121f057600080fd5b505afa158015612204573d6000803e3d6000fd5b505050506040513d602081101561221a57600080fd5b50511515612260576040805160e560020a62461bcd02815260206004820152601260248201526000805160206147d6833981519152604482015290519081900360640190fd5b600260009054906101000a9004600160a060020a0316600160a060020a031663743acbab6040518163ffffffff1660e060020a02815260040160206040518083038186803b1580156122b157600080fd5b505afa1580156122c5573d6000803e3d6000fd5b505050506040513d60208110156122db57600080fd5b505115612320576040805160e560020a62461bcd028152602060048201526012602482015260008051602061478a833981519152604482015290519081900360640190fd5b612328611534565b151561237e576040805160e560020a62461bcd02815260206004820152601660248201527fe8b083e794a8e88085e4b88de698af4275696c64657200000000000000000000604482015290519081900360640190fd5b600b546000908152600c6020526040902060028101546004909101546123aa908363ffffffff613fa816565b106123e95760405160e560020a62461bcd0281526004018080602001828103825260268152602001806147346026913960400191505060405180910390fd5b600b546000908152600c60209081526040808320600381015433855292529091206001015461241e908363ffffffff613fa816565b1061245d5760405160e560020a62461bcd02815260040180806020018281038252603081526020018061475a6030913960400191505060405180910390fd5b73__UintUtils_____________________________63669dafe8826040518263ffffffff1660e060020a0281526004018082815260200191505060206040518083038186803b1580156124af57600080fd5b505af41580156124c3573d6000803e3d6000fd5b505050506040513d60208110156124d957600080fd5b5051600154604080517fdd62ed3e0000000000000000000000000000000000000000000000000000000081523360048201523060248201529051600160a060020a039092169163dd62ed3e91604480820192602092909190829003018186803b15801561254557600080fd5b505afa158015612559573d6000803e3d6000fd5b505050506040513d602081101561256f57600080fd5b505110156125c7576040805160e560020a62461bcd02815260206004820152601260248201527fe68e88e69d83e9a29de5baa6e4b88de8b6b30000000000000000000000000000604482015290519081900360640190fd5b600160009054906101000a9004600160a060020a0316600160a060020a03166323b872dd333073__UintUtils_____________________________63669dafe8866040518263ffffffff1660e060020a0281526004018082815260200191505060206040518083038186803b15801561263f57600080fd5b505af4158015612653573d6000803e3d6000fd5b505050506040513d602081101561266957600080fd5b50516040805160e060020a63ffffffff8716028152600160a060020a0394851660048201529290931660248301526044820152905160648083019260209291908290030181600087803b1580156126bf57600080fd5b505af11580156126d3573d6000803e3d6000fd5b505050506040513d60208110156126e957600080fd5b50511515612741576040805160e560020a62461bcd02815260206004820152601a60248201527fe8bdace7a7bb746f6b656ee588b0e59088e7baa6e5a4b1e8b4a5000000000000604482015290519081900360640190fd5b73__UintUtils_____________________________63669dafe8826040518263ffffffff1660e060020a0281526004018082815260200191505060206040518083038186803b15801561279357600080fd5b505af41580156127a7573d6000803e3d6000fd5b505050506040513d60208110156127bd57600080fd5b5051600b80546000908152600c6020818152604080842033855282528084206001018054909601909555600a8152848320805487019055925482529091522060040180549091019055565b6000612812611b62565b151561281d57600080fd5b600260009054906101000a9004600160a060020a0316600160a060020a031663743acbab6040518163ffffffff1660e060020a02815260040160206040518083038186803b15801561286e57600080fd5b505afa158015612882573d6000803e3d6000fd5b505050506040513d602081101561289857600080fd5b5051156128ef576040805160e560020a62461bcd02815260206004820152601260248201527fe58b9fe8b584e5b7b2e7bb8fe7bb93e69d9f0000000000000000000000000000604482015290519081900360640190fd5b6128f98383613fba565b600254600354600b546000908152600c6020526040902060070154600160a060020a0392831692639b32a77892169073__UintUtils_____________________________9063669dafe89061295c906064906116ba90603c63ffffffff613f3d16565b6040518263ffffffff1660e060020a0281526004018082815260200191505060206040518083038186803b15801561299357600080fd5b505af41580156129a7573d6000803e3d6000fd5b505050506040513d60208110156129bd57600080fd5b5051600254600354604080517f3bb66a7b000000000000000000000000000000000000000000000000000000008152600160a060020a03928316600482015290519190921691633bb66a7b916024808301926020929190829003018186803b158015612a2857600080fd5b505afa158015612a3c573d6000803e3d6000fd5b505050506040513d6020811015612a5257600080fd5b50516040805160e060020a63ffffffff8716028152600160a060020a0390941660048501529101602483015251604480830192600092919082900301818387803b158015612a9f57600080fd5b505af1158015612ab3573d6000803e3d6000fd5b5050600b5460408051918252517f884a42ea07d12dfb8a666018fad8dc91f2752bdabafca21fc534fefc1305355f9350908190036020019150a1600260009054906101000a9004600160a060020a0316600160a060020a031663743acbab6040518163ffffffff1660e060020a02815260040160206040518083038186803b158015612b3e57600080fd5b505afa158015612b52573d6000803e3d6000fd5b505050506040513d6020811015612b6857600080fd5b505115612b7757506001612b83565b612b7f614441565b5060005b92915050565b6000806000612b96611b62565b1515612ba157600080fd5b600260009054906101000a9004600160a060020a0316600160a060020a03166374ebae066040518163ffffffff1660e060020a02815260040160206040518083038186803b158015612bf257600080fd5b505afa158015612c06573d6000803e3d6000fd5b505050506040513d6020811015612c1c57600080fd5b50511515612c74576040805160e560020a62461bcd02815260206004820152601260248201527fe4b88de59ca8e58b9fe8b584e69c9fe586850000000000000000000000000000604482015290519081900360640190fd5b600080600042600260009054906101000a9004600160a060020a0316600160a060020a031663d74635736040518163ffffffff1660e060020a02815260040160206040518083038186803b158015612ccb57600080fd5b505afa158015612cdf573d6000803e3d6000fd5b505050506040513d6020811015612cf557600080fd5b5051600b546000908152600c602052604090206007810154600690910154929091036018019450612d2c919063ffffffff613f9316565b600b546000908152600c602090815260409182902060070154825187815291820184905281830181905291519294509092507fae8973493d4c3e41a9615da7dbb45a3e85e217ab826ebf232f236520f89ce5bd919081900360600190a191945092509050909192565b6000908152600c602052604090206006015490565b600080600260009054906101000a9004600160a060020a0316600160a060020a03166325d8e97f6040518163ffffffff1660e060020a02815260040160206040518083038186803b158015612dfe57600080fd5b505afa158015612e12573d6000803e3d6000fd5b505050506040513d6020811015612e2857600080fd5b50511515612e6e576040805160e560020a62461bcd02815260206004820152601260248201526000805160206147d6833981519152604482015290519081900360640190fd5b600260009054906101000a9004600160a060020a0316600160a060020a031663743acbab6040518163ffffffff1660e060020a02815260040160206040518083038186803b158015612ebf57600080fd5b505afa158015612ed3573d6000803e3d6000fd5b505050506040513d6020811015612ee957600080fd5b505115612f2e576040805160e560020a62461bcd028152602060048201526012602482015260008051602061478a833981519152604482015290519081900360640190fd5b600160a060020a0383161515612f8e576040805160e560020a62461bcd02815260206004820152601b60248201527fe68ea8e5b9bfe88085e4b88de883bde698afe7a9bae59cb0e59d800000000000604482015290519081900360640190fd5b73__UintUtils_____________________________63669dafe860086040518263ffffffff1660e060020a0281526004018082815260200191505060206040518083038186803b158015612fe157600080fd5b505af4158015612ff5573d6000803e3d6000fd5b505050506040513d602081101561300b57600080fd5b5051600154604080517fdd62ed3e0000000000000000000000000000000000000000000000000000000081523360048201523060248201529051600160a060020a039092169163dd62ed3e91604480820192602092909190829003018186803b15801561307757600080fd5b505afa15801561308b573d6000803e3d6000fd5b505050506040513d60208110156130a157600080fd5b505110156130f9576040805160e560020a62461bcd02815260206004820152601260248201527fe68e88e69d83e9a29de5baa6e4b88de8b6b30000000000000000000000000000604482015290519081900360640190fd5b6001546040805160e360020a630cd3b5fd028152600860048201529051600160a060020a03909216916323b872dd913391309173__UintUtils_____________________________9163669dafe891602480820192602092909190829003018186803b15801561316857600080fd5b505af415801561317c573d6000803e3d6000fd5b505050506040513d602081101561319257600080fd5b50516040805160e060020a63ffffffff8716028152600160a060020a0394851660048201529290931660248301526044820152905160648083019260209291908290030181600087803b1580156131e857600080fd5b505af11580156131fc573d6000803e3d6000fd5b505050506040513d602081101561321257600080fd5b5051151561326a576040805160e560020a62461bcd02815260206004820152601a60248201527fe8bdace7a7bb746f6b656ee588b0e59088e7baa6e5a4b1e8b4a5000000000000604482015290519081900360640190fd5b6001546040805160e360020a630cd3b5fd028152600360048201529051600160a060020a03909216916342966c689173__UintUtils_____________________________9163669dafe891602480820192602092909190829003018186803b1580156132d557600080fd5b505af41580156132e9573d6000803e3d6000fd5b505050506040513d60208110156132ff57600080fd5b50516040805160e060020a63ffffffff8516028152600481019290925251602480830192600092919082900301818387803b15801561333d57600080fd5b505af1158015613351573d6000803e3d6000fd5b50506001546040805160e360020a630cd3b5fd028152600560048201529051600160a060020a03909216935063a9059cbb9250869173__UintUtils_____________________________9163669dafe8916024808301926020929190829003018186803b1580156133c157600080fd5b505af41580156133d5573d6000803e3d6000fd5b505050506040513d60208110156133eb57600080fd5b50516040805160e060020a63ffffffff8616028152600160a060020a03909316600484015260248301919091525160448083019260209291908290030181600087803b15801561343a57600080fd5b505af115801561344e573d6000803e3d6000fd5b505050506040513d602081101561346457600080fd5b50506040805160e360020a630cd3b5fd02815260056004820152905173__UintUtils_____________________________9163669dafe8916024808301926020929190829003018186803b1580156134bb57600080fd5b505af41580156134cf573d6000803e3d6000fd5b505050506040513d60208110156134e557600080fd5b5051600b546000908152600c60209081526040808320600160a060020a038816845290915290206004018054909101905561351f836145ad565b600b80546000908152600c60209081526040808320600160a060020a038089168086529184528285206003018054600181018255908652938520909301805473ffffffffffffffffffffffffffffffffffffffff191633179055600480549554600d5484517fe23613e900000000000000000000000000000000000000000000000000000000815292830191909152602482019290925290831660448201529051939091169263e23613e99260648084019391929182900301818387803b1580156135e957600080fd5b505af11580156135fd573d6000803e3d6000fd5b5050604051600160a060020a03861692503391507f95b9b14e81807a19f0d780820ad803eba32584f0671e1410f6815a83e75d4ef790600090a35033929050565b6000613648611b62565b151561365357600080fd5b600160a060020a03821660009081526009602090815260409182902054825190815291517f33bd212310efc1b994689137ddaaea56136d0cb5b0491d1eb3b4cc3fce4428c19281900390910190a150600160a060020a031660009081526009602052604090205490565b600154600160a060020a031681565b6000806000806000806000806000806136e3611b62565b15156136ee57600080fd5b6136f66146e0565b600c6000600b54815260200190815260200160002060000160008d600160a060020a0316600160a060020a0316815260200190815260200160002061014060405190810160405290816000820160009054906101000a9004600160a060020a0316600160a060020a0316600160a060020a031681526020016001820154815260200160028201548152602001600382018054806020026020016040519081016040528092919081815260200182805480156137da57602002820191906000526020600020905b8154600160a060020a031681526001909101906020018083116137bc575b50505050508152602001600482015481526020016005820160009054906101000a9004600160a060020a0316600160a060020a0316600160a060020a031681526020016005820160149054906101000a900460ff161515151581526020016005820160159054906101000a900460ff161515151581526020016005820160169054906101000a900460ff161515151581526020016005820160179054906101000a900460ff16151515158152505090506060600260009054906101000a9004600160a060020a0316600160a060020a0316633aecd0e38e6040518263ffffffff1660e060020a0281526004018082600160a060020a0316600160a060020a0316815260200191505060206040518083038186803b1580156138fa57600080fd5b505afa15801561390e573d6000803e3d6000fd5b505050506040513d602081101561392457600080fd5b505181518290600090811061393557fe5b9060200190602002018181525050600260009054906101000a9004600160a060020a0316600160a060020a0316633bb66a7b8e6040518263ffffffff1660e060020a0281526004018082600160a060020a0316600160a060020a0316815260200191505060206040518083038186803b1580156139b157600080fd5b505afa1580156139c5573d6000803e3d6000fd5b505050506040513d60208110156139db57600080fd5b50518151829060019081106139ec57fe5b60209081029091010152606082015151815182906002908110613a0b57fe5b602090810290910101526080820151815182906003908110613a2957fe5b90602001906020020181815250508160200151816004815181101515613a4b57fe5b602090810290910101526040820151815182906005908110613a6957fe5b9060200190602002018181525050600660009054906101000a9004600160a060020a0316600160a060020a031663c28a1af38e6040518263ffffffff1660e060020a0281526004018082600160a060020a0316600160a060020a0316815260200191505060206040518083038186803b158015613ae557600080fd5b505afa158015613af9573d6000803e3d6000fd5b505050506040513d6020811015613b0f57600080fd5b5051815182906006908110613b2057fe5b9060200190602002018181525050600460009054906101000a9004600160a060020a0316600160a060020a0316630df2019a8e6040518263ffffffff1660e060020a0281526004018082600160a060020a0316600160a060020a0316815260200191505060206040518083038186803b158015613b9c57600080fd5b505afa158015613bb0573d6000803e3d6000fd5b505050506040513d6020811015613bc657600080fd5b5051815182906007908110613bd757fe5b9060200190602002018181525050600560009054906101000a9004600160a060020a0316600160a060020a031663c75355678e6040518263ffffffff1660e060020a0281526004018082600160a060020a0316600160a060020a0316815260200191505060206040518083038186803b158015613c5357600080fd5b505afa158015613c67573d6000803e3d6000fd5b505050506040513d6020811015613c7d57600080fd5b5051815182906008908110613c8e57fe5b9060200190602002018181525050600760009054906101000a9004600160a060020a0316600160a060020a0316634a6817878e6040518263ffffffff1660e060020a0281526004018082600160a060020a0316600160a060020a0316815260200191505060206040518083038186803b158015613d0a57600080fd5b505afa158015613d1e573d6000803e3d6000fd5b505050506040513d6020811015613d3457600080fd5b5051815182906009908110613d4557fe5b60209081029091018101919091526040805182815283518184015283517f04c808a514c1dafc38d056ce8d726701d153e5560559e9a2cbd4a698fc57dbc9938593839290830191858101910280838360005b83811015613daf578181015183820152602001613d97565b505050509050019250505060405180910390a1806000815181101515613dd157fe5b90602001906020020151816001815181101515613dea57fe5b90602001906020020151826002815181101515613e0357fe5b90602001906020020151836003815181101515613e1c57fe5b90602001906020020151846004815181101515613e3557fe5b90602001906020020151856005815181101515613e4e57fe5b90602001906020020151866006815181101515613e6757fe5b90602001906020020151876007815181101515613e8057fe5b90602001906020020151886008815181101515613e9957fe5b90602001906020020151896009815181101515613eb257fe5b906020019060200201519b509b509b509b509b509b509b509b509b509b5050509193959799509193959799565b613ee7611b62565b1515613ef257600080fd5b613efb81614663565b50565b600b546000908152600c602090815260408083203384529091529020600501547501000000000000000000000000000000000000000000900460ff1690565b6000821515613f4e57506000612b83565b828202828482811515613f5d57fe5b0414613f6857600080fd5b9392505050565b6000808211613f7d57600080fd5b60008284811515613f8a57fe5b04949350505050565b600082821115613fa257600080fd5b50900390565b600082820183811015613f6857600080fd5b613fc2611b62565b1515613fcd57600080fd5b600b80546000908152600c60205260409020015460ff1615614039576040805160e560020a62461bcd02815260206004820152601e60248201527fe5bd93e5898de8bdaee6aca1e5b7b2e7bb8fe7bb93e7ae97e5ae8ce6af950000604482015290519081900360640190fd5b600b80546000908152600c602052604090200154610100900460ff16156140aa576040805160e560020a62461bcd02815260206004820152601b60248201527fe5bd93e5898de8bdaee6aca1e697a9e5b7b2e7bb8fe7bb93e69d9f0000000000604482015290519081900360640190fd5b600254600b546000908152600c6020526040902060070154600160a060020a03909116906311228a279084906140ee906064906116ba90601463ffffffff613f3d16565b6040805160e060020a63ffffffff861602815260248101839052600481019182528351604482015283518291606401906020868101910280838360005b8381101561414357818101518382015260200161412b565b505050509050019350505050600060405180830381600087803b15801561416957600080fd5b505af115801561417d573d6000803e3d6000fd5b5050600254600b546000908152600c602052604090206007810154600160a060020a0390921693506310398aa892506001019073__UintUtils_____________________________9063669dafe8906141e4906064906116ba90600a63ffffffff613f3d16565b6040518263ffffffff1660e060020a0281526004018082815260200191505060206040518083038186803b15801561421b57600080fd5b505af415801561422f573d6000803e3d6000fd5b505050506040513d602081101561424557600080fd5b50516040805160e060020a63ffffffff86160281526024810183905260048101918252835460448201819052829160640190859080156142ae57602002820191906000526020600020905b8154600160a060020a03168152600190910190602001808311614290575b50509350505050600060405180830381600087803b1580156142cf57600080fd5b505af11580156142e3573d6000803e3d6000fd5b5050600254600b546000908152600c6020526040902060070154600160a060020a0390911692506338eeea0c9150839073__UintUtils_____________________________9063669dafe890614347906064906116ba90600563ffffffff613f3d16565b6040518263ffffffff1660e060020a0281526004018082815260200191505060206040518083038186803b15801561437e57600080fd5b505af4158015614392573d6000803e3d6000fd5b505050506040513d60208110156143a857600080fd5b50516040805160e060020a63ffffffff861602815260248101839052600481019182528351604482015283518291606401906020868101910280838360005b838110156143ff5781810151838201526020016143e7565b505050509050019350505050600060405180830381600087803b15801561442557600080fd5b505af1158015614439573d6000803e3d6000fd5b505050505050565b600254600b546000908152600c60209081526040808320600781015460089091015482517f98e24c06000000000000000000000000000000000000000000000000000000008152600481019290925260248201529051600160a060020a03909416936398e24c0693604480840194938390030190829087803b1580156144c657600080fd5b505af11580156144da573d6000803e3d6000fd5b505050506040513d60208110156144f057600080fd5b505115614535576040805160e560020a62461bcd028152602060048201526012602482015260008051602061478a833981519152604482015290519081900360640190fd5b600b80546000908152600c602090815260408083208401805460ff1916600190811790915584548452928190208401805461ff001916610100179055835490920192839055815192835290517feb4f8ce27ee2f036ff2d0bc02908be44cba9da8349185d0b9f996732fb77f07e9281900390910190a1565b600b80546000908152600c6020818152604080842033808652908352818520805473ffffffffffffffffffffffffffffffffffffffff19908116831790915586548652848452828620828752845282862060059081018054600160a060020a039a909a169990921698909817905594548452918152818320938352929092522001805474ff0000000000000000000000000000000000000000191674010000000000000000000000000000000000000000179055565b600160a060020a038116151561467857600080fd5b60008054604051600160a060020a03808516939216917f8be0079c531659141344cd1fd0a4f28419497f9722a3daafe3b4186f6b6457e091a36000805473ffffffffffffffffffffffffffffffffffffffff1916600160a060020a0392909216919091179055565b60408051610140810182526000808252602082018190529181018290526060808201526080810182905260a0810182905260c0810182905260e0810182905261010081018290526101208101919091529056fee5bd93e5898de8bdaee6aca1e585b1e5bbba546f6b656ee5b7b2e7bb8fe8b6b3e5a49fe4ba86e585b1e5bbbae9a29de5baa6e5b7b2e8b685e8bf87e99990e9a29defbc8ce4b88de883bde7bba7e7bbade8bdace585a5e585b1e68cafe5b7b2e7bb8fe7bb93e69d9f0000000000000000000000000000e794a8e688b7e59ca8e5bd93e5898de8bdaee6aca1e5b7b2e7bb8fe68f90e58f96746f6b656ee5ae8ce68890e4b88de59ca8e585b1e5bbbae69c9fe586850000000000000000000000000000e794a8e688b7e59ca8e5bd93e5898de8bdaee6aca1e5b7b2e7bb8fe68f90e58f96455448e5ae8ce68890a165627a7a723058209d7230b2ac742d8919fd65e0586c4ec4ee6b4ac8fcc215c250a8e08531af02e80029",
  "source": "pragma solidity >=0.4.21 <0.6.0;\n\nimport \"../node_modules/openzeppelin-solidity/contracts/math/SafeMath.sol\";\nimport \"../node_modules/openzeppelin-solidity/contracts/ownership/Ownable.sol\";\nimport \"./ABCToken.sol\";\nimport \"./UintUtils.sol\";\nimport \"./FissionReward.sol\";\nimport \"./FOMOReward.sol\";\nimport \"./LuckyReward.sol\";\nimport \"./FaithReward.sol\";\nimport \"./ResonanceDataManage.sol\";\n\n// TODO:token()\ncontract Resonance is Ownable{\n\n    using SafeMath for uint256;\n\n    // \n    // \n    event ToBeFissionPerson(address indexed fissionPerson, address indexed promoter);\n\n    event FundsInfo(uint256 currentStepTokenAmount, uint256 currentStepRaisedETH);\n    event BuildingPerioInfo(uint256 bpCountdown, uint256 remainingToken, uint256 personalTokenLimited, uint256 totalTokenAmount);\n    event FundingPeriodInfo(uint256 fpCountdown, uint256 remainingETH, uint256 rasiedETHAmount);\n\n    // \n    event FissionRewardInfo(address[] fissionRewardList, uint256[] fissionRewardAmount);\n    event FOMORewardInfo(address[] FOMORewardList, uint256[] FOMORewards);\n    event LuckyRewardInfo(address[] luckyRewardList, uint256 luckyReward);\n    event FaithRewardInfo(address[] faithRewardList, uint256[] faithRewardAmount);\n    event WithdrawAllETH(address addr, uint256 ETHAmount);\n    // event WhihdrawAllToken(address from, address to, uint256 tokenAmount);\n    event FunderInfo(uint256[] FunderInfoArray);\n    event StepFunders(\n        address[] funderAddress,\n        uint256[] funderTokenAmount,\n        uint256[] funderETHAmount,\n        uint256[] funderInvitees,\n        uint256[] funderEarnFromAff\n    );\n    event SettlementStep(uint256 stepIndex);\n\n    event StartNextStep(uint256 stepIndex);\n\n    event SetRaiseTarget(uint256 stepIndex, uint256 raiseTarget);\n\n    event GetResonances(address[] resonances);\n\n    event FunderTotalRaised(uint256 resonancesRasiedETH);\n\n    // \n    modifier softCapReached(){\n        require(steps[currentStep].funding.raisedETH >= steps[currentStep].softCap, \"\");\n        _;\n    }\n\n    // \n    modifier hardCapReached(){\n        require(steps[currentStep].funding.raisedETH < steps[currentStep].hardCap, \"\");\n        _;\n    }\n\n    // \n    // modifier isBuildingPeriod() {\n    //     require(block.timestamp >= openingTime && block.timestamp < openingTime + 8 hours, \"\");\n    //     _;\n    // }\n\n    // // \n    // modifier isFundingPeriod() {\n    //     require(block.timestamp >= openingTime + 8 hours && block.timestamp < openingTime + 24 hours, \"\");\n    //     _;\n    // }\n\n    // \n    // ERC20\n    ABCToken public abcToken;\n\n    ResonanceDataManage resonanceDataManage;\n\n    // // \n    // uint256 private fundsPool;\n\n    // 60%\n    address payable private beneficiary;\n\n    // // \n    // uint256 private openingTime;\n\n    // bool crowdsaleClosed = false;   //  \n\n    // \n    struct Funder{\n        address funderAddr; // \n        uint256 tokenAmount; // token\n        uint256 ethAmount; // eth\n        address[] invitees; // \n        uint256 earnFromAff; // \n        address promoter; // \n        bool isBuilder; // /\n        bool isFunder; // \n        bool tokenHasWithdrawn; // Token\n        bool ETHHasWithdrawn; // ETH\n    }\n\n    // \n    struct Building{\n        uint256 openTokenAmount; // Token\n        uint256 personalTokenLimited;// token\n        uint256 raisedToken; // token\n        uint256 raisedTokenAmount; // Token\n    }\n\n    // \n    struct Funding{\n        uint256 raiseTarget; // ETH\n        uint256 raisedETH; // ETH\n    }\n\n    FissionReward fissionRewardInstance;\n    FOMOReward FOMORewardInstance;\n    LuckyReward luckyRewardInstance;\n    FaithReward faithRewardInstance;\n\n    // // \n    struct Step{\n        mapping(address => Funder) funder;// \n        address[] funders; // funders\n        Building building; // \n        Funding funding; // \n        uint256 softCap; // \n        uint256 hardCap; // \n        uint256 rate; // \n        bool settlementFinished; // \n        bool stepIsClosed; // \n        uint256 blockNumber; // \n    }\n\n    // \n    // mapping(address => uint256) public ETHBalance;\n    // mapping(address => uint256) public tokenBalance;\n\n    // \n    address[] resonances;\n\n    // \n    mapping(address => uint256) resonancesRasiedETH;\n    mapping(address => uint256) resonancesRasiedToken;\n\n    uint256 currentStep;\n\n    mapping(uint256 => Step) steps;\n\n    address initialFissionPerson; // \n\n    // \n    /// @notice \n    /// @param _abcToken Token\n    /// @param _beneficiary \n    /// @param _initialFissionPerson \n    constructor(\n        address _resonanceDataManageAddress,\n        ABCToken _abcToken,\n        address payable _beneficiary,\n        address _initialFissionPerson,\n        address _fassionRewardAddress,\n        address _FOMORewardAddress,\n        address _luckyRewardAddress,\n        address _faithRewardAddress\n    )\n        public\n    {\n        resonanceDataManage = ResonanceDataManage(_resonanceDataManageAddress);\n        // \n        fissionRewardInstance = FissionReward(_fassionRewardAddress);\n        FOMORewardInstance = FOMOReward(_FOMORewardAddress);\n        luckyRewardInstance = LuckyReward(_luckyRewardAddress);\n        faithRewardInstance = FaithReward(_faithRewardAddress);\n        currentStep = 0;\n        abcToken = _abcToken; // abc Token\n        beneficiary = _beneficiary; // \n        initialFissionPerson = _initialFissionPerson; // \n    }\n\n    /// @notice \n    function allowAccess() public onlyOwner() {\n        resonanceDataManage.allowAccess(address(this));\n        resonanceDataManage.allowAccess(msg.sender);\n        resonanceDataManage.setOpeningTime(block.timestamp); // \n    }\n\n    /// @notice \n    /// @param promoter \n    /// @dev TokenApprove\n    function toBeFissionPerson(\n        address promoter\n    )\n        public\n        // isBuildingPeriod()\n        returns(address, address)\n    {\n        require(resonanceDataManage.isBuildingPeriod(), \"\");\n        require(!resonanceDataManage.getCrowdsaleClosed(), \"\");\n\n        //TODO: require(steps[currentStep].funder[promoter].isBuilder,\"Builder\");\n\n        require(promoter != address(0), \"\");\n\n        // \n        require(abcToken.allowance(msg.sender, address(this)) >= UintUtils.toWei(8),\"\");\n\n        require(abcToken.transferFrom(msg.sender,address(this), UintUtils.toWei(8)),\"token\");\n\n        // 3\n        abcToken.burn(UintUtils.toWei(3));\n\n        // 5\n        abcToken.transfer(address(promoter), UintUtils.toWei(5));\n\n        steps[currentStep].funder[promoter].earnFromAff += UintUtils.toWei(5);\n\n        // \n        _addBuilder(promoter);\n\n        steps[currentStep].funder[promoter].invitees.push(msg.sender);\n\n        fissionRewardInstance.addAffman(currentStep, promoter, initialFissionPerson);\n\n        emit ToBeFissionPerson(msg.sender, promoter);\n        return(msg.sender, promoter);\n    }\n\n    /// @notice \n    /// @dev \n    function setRaiseTarget(\n        uint256 _raiseTarget\n    )\n        public\n        // isBuildingPeriod()\n        onlyOwner()\n        returns(uint256, uint256)\n    {\n        require(resonanceDataManage.isBuildingPeriod(), \"\");\n        steps[currentStep].funding.raiseTarget = _raiseTarget;\n        emit SetRaiseTarget(currentStep, _raiseTarget);\n        return(currentStep, _raiseTarget);\n    }\n\n    /// @notice \n    function getRaiseTarget(uint256 _stepIndex) public view returns(uint256) {\n        return steps[_stepIndex].funding.raiseTarget;\n    }\n\n    // token\n    function jointlyBuild(\n        uint256 _tokenAmount\n    )\n        public\n        // isBuildingPeriod()\n    {\n        require(resonanceDataManage.isBuildingPeriod(), \"\");\n\n        require(!resonanceDataManage.getCrowdsaleClosed(), \"\");\n\n        // builder\n        require(isBuilder(), \"Builder\");\n\n        // \n        require(steps[currentStep].building.raisedToken.add(_tokenAmount) < steps[currentStep].building.openTokenAmount, \"Token\");\n\n        // \n        require(\n            steps[currentStep].funder[msg.sender].tokenAmount.add(_tokenAmount) < steps[currentStep].building.personalTokenLimited,\n            \"\"\n        );\n\n        // \n        require(abcToken.allowance(msg.sender, address(this)) >= UintUtils.toWei(_tokenAmount),\"\");\n\n        // \n        require(abcToken.transferFrom(msg.sender,address(this), UintUtils.toWei(_tokenAmount)),\"token\");\n\n        steps[currentStep].funder[msg.sender].tokenAmount += UintUtils.toWei(_tokenAmount);\n\n        // \n        resonancesRasiedToken[msg.sender] += _tokenAmount;\n\n        // token\n        steps[currentStep].building.raisedToken += _tokenAmount;\n    }\n\n    // \n    // \n    function ()\n        external\n        payable\n    {\n        require(resonanceDataManage.isFundingPeriod(), \"\");\n\n        require(!resonanceDataManage.getCrowdsaleClosed(), \"\");\n        uint amount = msg.value;\n        steps[currentStep].funder[msg.sender].ethAmount = amount;\n        steps[currentStep].funder[msg.sender].isFunder = true;\n        steps[currentStep].funding.raisedETH += amount;\n        resonances.push(msg.sender);\n        resonancesRasiedETH[msg.sender] += amount;\n    }\n\n    /// @notice \n    /// @dev \n    /// @param _fissionWinnerList \n    /// @param _LuckyWinnerList \n    function settlementStep(\n        address[] memory _fissionWinnerList,\n        address[] memory _LuckyWinnerList\n    )\n        public\n        onlyOwner()\n        returns(bool)\n    {\n        // \n        require(!resonanceDataManage.getCrowdsaleClosed(), \"\");\n        // \n        _settlementReward(_fissionWinnerList, _LuckyWinnerList);\n        // \n        // ETHBalance[beneficiary] += UintUtils.toWei(steps[currentStep].funding.raisedETH.mul(60).div(100));\n        resonanceDataManage.setETHBalance(\n            beneficiary,\n            resonanceDataManage.getETHBalance(beneficiary) + UintUtils.toWei(steps[currentStep].funding.raisedETH.mul(60).div(100))\n        );\n        emit SettlementStep(currentStep);\n\n        if(resonanceDataManage.getCrowdsaleClosed()) {\n            return true;\n        }else{\n            // \n            _startNextStep();\n            return false;\n        }\n    }\n\n    /// @notice \n    /// @param _FaithWinnerList \n    function settlementFaithReward(\n        address[] memory _FaithWinnerList\n    )\n        public\n        onlyOwner()\n        returns(bool)\n    {\n        require(resonanceDataManage.getCrowdsaleClosed(), \"\");\n        return resonanceDataManage.dmSettlementFaithReward(\n            _FaithWinnerList,\n            UintUtils.toWei(steps[currentStep].funding.raisedETH.mul(5).div(100))\n        );\n    }\n\n    // \n    // \n    // 1.  2.\n    /// @dev \n    // function _crowdsaleIsClosed()\n    //     internal\n    //     returns(bool)\n    // {\n    //     // 1.\n    //     if(UintUtils.toWei(steps[currentStep].funding.raisedETH) < UintUtils.toWei(steps[currentStep].softCap)) {\n    //         resonanceDataManage.setCrowdsaleClosed(true);\n\n    //         // Token\n    //         _withdrawRemainingToken();\n    //     }\n\n    //     // TODO:\n    //     // 2.\n    //     if(resonanceDataManage.getFundsPool() == 0) {\n    //         crowdsaleClosed = true;\n    //     }\n\n    //     return crowdsaleClosed;\n    // }\n\n    /// @notice Token\n    // function _withdrawRemainingToken()\n    //     internal\n    //     onlyOwner()\n    //     returns(bool)\n    // {\n    //     // \n    //     require(crowdsaleClosed(), \"Token\");\n    //     abcToken.transfer(owner(), UintUtils.toWei(resonanceDataManage.getFundsPool()));\n    // }\n\n    /// @notice FOMO\n    /// @dev \n    // \n    // \n    function _settlementReward(\n        address[] memory _fissionWinnerList,\n        address[] memory _LuckyWinnerList\n    )\n        internal\n        onlyOwner()\n    {\n        require(!steps[currentStep].settlementFinished, \"\");\n        require(!steps[currentStep].stepIsClosed, \"\");\n\n        resonanceDataManage.settlementFissionReward(\n            _fissionWinnerList,\n            steps[currentStep].funding.raisedETH.mul(20).div(100)\n        );\n\n        resonanceDataManage.settlementFOMOReward(\n            steps[currentStep].funders,\n            UintUtils.toWei(steps[currentStep].funding.raisedETH.mul(10).div(100))\n        );\n\n        resonanceDataManage.settlementLuckyReward(\n            _LuckyWinnerList,\n            UintUtils.toWei(steps[currentStep].funding.raisedETH.mul(5).div(100))\n        );\n    }\n\n    // TODO: \n\n    /// \n    function _startNextStep()\n        internal\n    {\n        // \n        require(!resonanceDataManage.crowdsaleIsClosed(steps[currentStep].funding.raisedETH, steps[currentStep].softCap), \"\");\n        // step\n        steps[currentStep].settlementFinished = true;\n        // \n        steps[currentStep].stepIsClosed = true;\n        // \n        currentStep++;\n        emit StartNextStep(currentStep);\n    }\n\n    /// @notice tokentoken\n    function withdrawAllToken()\n        public\n        payable\n        returns(address, address, uint256)\n    {\n        require(!steps[currentStep].funder[msg.sender].tokenHasWithdrawn, \"token\");\n        uint256 withdrawAmount = resonanceDataManage.withdrawTokenAmount(msg.sender);\n        resonanceDataManage.emptyTokenBalance();\n        steps[currentStep].funder[msg.sender].tokenHasWithdrawn = true;\n        abcToken.transferFrom(address(this), msg.sender, withdrawAmount);\n        return(address(this), msg.sender, withdrawAmount);\n    }\n\n    /// @notice (ETH)\n    function withdrawAllETH()\n        public\n        payable\n        returns(address, uint256)\n    {\n        require(!steps[currentStep].funder[msg.sender].ETHHasWithdrawn, \"ETH\");\n        uint256 withdrawAmount = resonanceDataManage.withdrawETHAmount(msg.sender);\n        resonanceDataManage.emptyETHBalance();\n        steps[currentStep].funder[msg.sender].ETHHasWithdrawn = true;\n        msg.sender.transfer(withdrawAmount);\n        emit WithdrawAllETH(msg.sender, withdrawAmount);\n        return(msg.sender, withdrawAmount);\n    }\n\n    /// @notice \n    /// @dev jointlyBuildtoBeFissionPerson\n    function isBuilder() public view returns(bool) {\n        return steps[currentStep].funder[msg.sender].isBuilder;\n    }\n\n    /// @notice \n    function isFunder() public view returns(bool) {\n        return steps[currentStep].funder[msg.sender].isFunder;\n    }\n\n    /// @notice \n    function getResonances()\n        public\n        onlyOwner()\n        returns(address[] memory)\n    {\n        emit GetResonances(resonances);\n        return(resonances);\n    }\n\n    /// @notice ETH\n    function getFunderTotalRaised(address _funder) public onlyOwner() returns(uint256){\n        emit FunderTotalRaised(resonancesRasiedETH[_funder]);\n        return resonancesRasiedETH[_funder];\n    }\n\n    /// @notice funders\n    /// @dev funders\n    /// @param _stepIndex \n    function getStepFunders(uint256 _stepIndex)\n        public\n        onlyOwner()\n        returns\n    (\n            address[] memory,\n            uint256[] memory,\n            uint256[] memory,\n            uint256[] memory,\n            uint256[] memory\n    )\n    {\n        address[] memory funderAddress;\n        uint256[] memory funderTokenAmount;\n        uint256[] memory funderETHAmount;\n        uint256[] memory funderInvitees;\n        uint256[] memory earnFromAff;\n\n        funderAddress = steps[_stepIndex].funders;\n\n        for(uint i = 0 ; i < funderAddress.length; i++){\n            funderTokenAmount[i] = steps[_stepIndex].funder[funderAddress[i]].tokenAmount;\n            funderETHAmount[i] = steps[_stepIndex].funder[funderAddress[i]].ethAmount;\n            funderInvitees[i] = steps[_stepIndex].funder[funderAddress[i]].invitees.length;\n            earnFromAff[i] = steps[currentStep].funder[funderAddress[i]].earnFromAff;\n        }\n\n        emit StepFunders(funderAddress, funderTokenAmount, funderETHAmount, funderInvitees, earnFromAff);\n        return (funderAddress, funderTokenAmount, funderETHAmount, funderInvitees, earnFromAff);\n    }\n\n    /// @notice tokenETH\n    function getCurrentStepFundsInfo()\n        public\n        onlyOwner()\n        returns(uint256, uint256)\n    {\n        emit FundsInfo(steps[currentStep].building.openTokenAmount, steps[currentStep].funding.raisedETH);\n        return(steps[currentStep].building.openTokenAmount, steps[currentStep].funding.raisedETH);\n    }\n\n    /// @notice \n    function getBuildingPerioInfo()\n        public\n        onlyOwner()\n        returns(uint256, uint256, uint256, uint256)\n    {\n        require(resonanceDataManage.isBuildingPeriod(), \"\");\n        uint256 _bpCountdown;\n        uint256 _remainingToken;\n        uint256 _personalTokenLimited;\n        uint256 _totalTokenAmount;\n\n        _bpCountdown = (resonanceDataManage.getOpeningTime() + 8 hours) - block.timestamp;\n        _remainingToken = steps[currentStep].building.openTokenAmount.sub(steps[currentStep].building.raisedToken);\n        _personalTokenLimited = steps[currentStep].building.personalTokenLimited;\n        _totalTokenAmount = steps[currentStep].building.raisedTokenAmount;\n        emit BuildingPerioInfo(_bpCountdown, _remainingToken, _personalTokenLimited, _totalTokenAmount);\n        return(_bpCountdown, _remainingToken, _personalTokenLimited, _totalTokenAmount);\n    }\n\n    // \n    function getFundingPeriodInfo()\n        public\n        onlyOwner()\n        returns(uint256, uint256, uint256)\n    {\n        require(resonanceDataManage.isFundingPeriod(), \"\");\n\n        uint256 _fpCountdown;\n        uint256 _remainingETH;\n        uint256 _rasiedETHAmount;\n\n        _fpCountdown = (resonanceDataManage.getOpeningTime() + 24) - block.timestamp;\n        _remainingETH = steps[currentStep].funding.raiseTarget.sub(steps[currentStep].funding.raisedETH);\n        _rasiedETHAmount = steps[currentStep].funding.raisedETH;\n        emit FundingPeriodInfo(_fpCountdown, _remainingETH, _rasiedETHAmount);\n        return(_fpCountdown, _remainingETH, _rasiedETHAmount);\n    }\n\n    // /// @notice \n    // /// @dev \n    // /// @param _stepIndex \n    // function getFissionRewardInfo(uint256 _stepIndex)\n    //     public\n    // {\n    //     fissionRewardInstance.getFissionInfo(_stepIndex);\n    // }\n\n    // /// @notice FOMO\n    // /// @dev FOMO\n    // /// @param _stepIndex \n    // function getFOMORewardIofo(uint256 _stepIndex)\n    //     public\n    // {\n    //     FOMORewardInstance.getFOMOWinnerInfo(_stepIndex);\n    // }\n\n    // /// @notice \n    // /// @dev \n    // /// @param _stepIndex \n    // function getLuckyRewardInfo(uint256 _stepIndex)\n    //     public\n    // {\n    //     luckyRewardInstance.getLuckyInfo(_stepIndex);\n    // }\n\n    // /// @notice \n    // /// @dev \n    // function getFaithRewardInfo()\n    //     public\n    // {\n    //     faithRewardInstance.getFaithWinnerInfo();\n    // }\n\n    /// @notice \n    function getFunderInfo(address _funder)\n        public\n        onlyOwner()\n        returns\n    (\n        uint256,\n        uint256,\n        uint256,\n        uint256,\n        uint256,\n        uint256,\n        uint256,\n        uint256,\n        uint256,\n        uint256\n    )\n\n    {\n        Funder memory funder = steps[currentStep].funder[_funder];\n\n        uint256[] memory funderInfo;\n\n        funderInfo[0] = resonanceDataManage.getTokenBalance(_funder);\n        funderInfo[1] = resonanceDataManage.getETHBalance(_funder);\n        funderInfo[2] = funder.invitees.length;\n        funderInfo[3] = funder.earnFromAff;\n        funderInfo[4] = funder.tokenAmount;\n        funderInfo[5] = funder.ethAmount;\n        funderInfo[6] = luckyRewardInstance.luckyFunderTotalBalance(_funder);\n        funderInfo[7] = fissionRewardInstance.fissionFunderTotalBalance(_funder);\n        funderInfo[8] = FOMORewardInstance.FOMOFunderTotalBalance(_funder);\n        funderInfo[9] = faithRewardInstance.faithRewardAmount(_funder);\n\n        emit FunderInfo(funderInfo);\n        return(\n            funderInfo[0],\n            funderInfo[1],\n            funderInfo[2],\n            funderInfo[3],\n            funderInfo[4],\n            funderInfo[5],\n            funderInfo[6],\n            funderInfo[7],\n            funderInfo[8],\n            funderInfo[9]\n        );\n    }\n\n    /// @notice \n    /// @param _promoter msg.sender\n    function _addBuilder(address _promoter) internal {\n        // \n        steps[currentStep].funder[msg.sender].funderAddr = msg.sender;\n        steps[currentStep].funder[msg.sender].promoter = _promoter;\n        steps[currentStep].funder[msg.sender].isBuilder = true;\n    }\n\n    /// @notice token\n    /// @dev Token\n    /// @param _approveAmount \n    function approveTokenToContract(uint256 _approveAmount)\n        public\n        onlyOwner()\n    {\n        abcToken.approve(address(this), UintUtils.toWei(_approveAmount));\n    }\n\n    /// @notice \n    function increaseAllowance(uint256 _addedValue)\n        public\n        onlyOwner()\n    {\n        abcToken.increaseAllowance(address(this), _addedValue);\n    }\n\n    /// \n    function decreaseAllowance(uint256 _subtractedValue)\n        public\n        onlyOwner()\n    {\n        abcToken.decreaseAllowance(address(this), _subtractedValue);\n    }\n\n    /// @notice \n    /// @dev Token\n    function getAllowance()\n        public\n        view\n        returns(uint256)\n    {\n        return abcToken.allowance(msg.sender, address(this));\n    }\n\n    /// @notice \n    function Beneficiary() public view returns(address payable) {\n        return beneficiary;\n    }\n\n    /// @notice hash\n    function getBlockHash() public view returns(bytes32 blockHash) {\n        return blockhash(steps[currentStep].blockNumber.add(1));\n    }\n\n}",
  "sourcePath": "/Users/a186r/dev/contracts/contract/contract/contracts/Resonance.sol",
  "compiler": {
    "name": "solc",
    "version": "0.5.2+commit.1df8f40c.Emscripten.clang"
  },
  "schemaVersion": "3.0.9",
  "updatedAt": "2019-05-26T17:55:45.329Z",
  "devdoc": {
    "methods": {
      "constructor": {
        "params": {
          "_abcToken": "Token",
          "_beneficiary": "",
          "_initialFissionPerson": ""
        }
      },
      "getFOMORewardIofo(uint256)": {
        "details": "FOMO",
        "params": {
          "_stepIndex": ""
        }
      },
      "getFaithRewardInfo()": {
        "details": ""
      },
      "getFissionRewardInfo(uint256)": {
        "details": "",
        "params": {
          "_stepIndex": ""
        }
      },
      "getLuckyRewardInfo(uint256)": {
        "details": "",
        "params": {
          "_stepIndex": ""
        }
      },
      "getStepFunders(uint256)": {
        "details": "funders",
        "params": {
          "_stepIndex": ""
        }
      },
      "isBuilder()": {
        "details": "jointlyBuildtoBeFissionPerson"
      },
      "isOwner()": {
        "return": "true if `msg.sender` is the owner of the contract."
      },
      "owner()": {
        "return": "the address of the owner."
      },
      "renounceOwnership()": {
        "details": "Allows the current owner to relinquish control of the contract. It will not be possible to call the functions with the `onlyOwner` modifier anymore."
      },
      "setRaiseTarget(uint256)": {
        "details": ""
      },
      "settlementFaithReward(address[])": {
        "params": {
          "_FaithWinnerList": ""
        }
      },
      "settlementStep(address[],address[])": {
        "details": "",
        "params": {
          "_LuckyWinnerList": "",
          "_fissionWinnerList": ""
        }
      },
      "toBeFissionPerson(address)": {
        "details": "TokenApprove",
        "params": {
          "promoter": ""
        }
      },
      "transferOwnership(address)": {
        "details": "Allows the current owner to transfer control of the contract to a newOwner.",
        "params": {
          "newOwner": "The address to transfer ownership to."
        }
      },
      "approveTokenToContract(uint256)": {
        "details": "Token",
        "params": {
          "_approveAmount": ""
        }
      },
      "getAllowance()": {
        "details": "Token"
      }
    }
  },
  "userdoc": {
    "methods": {
      "Beneficiary()": {
        "notice": ""
      },
      "allowAccess()": {
        "notice": ""
      },
      "constructor": "",
      "getBlockHash()": {
        "notice": "hash"
      },
      "getBuildingPerioInfo()": {
        "notice": ""
      },
      "getCurrentStepFundsInfo()": {
        "notice": "tokenETH"
      },
      "getFOMORewardIofo(uint256)": {
        "notice": "FOMO"
      },
      "getFaithRewardInfo()": {
        "notice": ""
      },
      "getFissionRewardInfo(uint256)": {
        "notice": ""
      },
      "getFunderInfo(address)": {
        "notice": ""
      },
      "getFunderTotalRaised(address)": {
        "notice": "ETH"
      },
      "getLuckyRewardInfo(uint256)": {
        "notice": ""
      },
      "getRaiseTarget(uint256)": {
        "notice": ""
      },
      "getResonances()": {
        "notice": ""
      },
      "getStepFunders(uint256)": {
        "notice": "funders"
      },
      "isBuilder()": {
        "notice": ""
      },
      "isFunder()": {
        "notice": ""
      },
      "renounceOwnership()": {
        "notice": "Renouncing ownership will leave the contract without an owner, thereby removing any functionality that is only available to the owner."
      },
      "setRaiseTarget(uint256)": {
        "notice": ""
      },
      "settlementFaithReward(address[])": {
        "notice": ""
      },
      "settlementStep(address[],address[])": {
        "notice": ""
      },
      "toBeFissionPerson(address)": {
        "notice": ""
      },
      "withdrawAllETH()": {
        "notice": "(ETH)"
      },
      "withdrawAllToken()": {
        "notice": "tokentoken"
      },
      "approveTokenToContract(uint256)": {
        "notice": "token"
      },
      "decreaseAllowance(uint256)": {
        "notice": ""
      },
      "getAllowance()": {
        "notice": ""
      },
      "increaseAllowance(uint256)": {
        "notice": ""
      }
    }
  }
}