{
  "contractName": "Resonance",
  "abi": [
    {
      "constant": true,
      "inputs": [],
      "name": "currentStep",
      "outputs": [
        {
          "name": "",
          "type": "uint256"
        }
      ],
      "payable": false,
      "stateMutability": "view",
      "type": "function",
      "signature": "0x5bc34f71"
    },
    {
      "constant": false,
      "inputs": [],
      "name": "renounceOwnership",
      "outputs": [],
      "payable": false,
      "stateMutability": "nonpayable",
      "type": "function",
      "signature": "0x715018a6"
    },
    {
      "constant": true,
      "inputs": [],
      "name": "owner",
      "outputs": [
        {
          "name": "",
          "type": "address"
        }
      ],
      "payable": false,
      "stateMutability": "view",
      "type": "function",
      "signature": "0x8da5cb5b"
    },
    {
      "constant": true,
      "inputs": [],
      "name": "isOwner",
      "outputs": [
        {
          "name": "",
          "type": "bool"
        }
      ],
      "payable": false,
      "stateMutability": "view",
      "type": "function",
      "signature": "0x8f32d59b"
    },
    {
      "constant": true,
      "inputs": [],
      "name": "abcToken",
      "outputs": [
        {
          "name": "",
          "type": "address"
        }
      ],
      "payable": false,
      "stateMutability": "view",
      "type": "function",
      "signature": "0xe7574128"
    },
    {
      "constant": false,
      "inputs": [
        {
          "name": "newOwner",
          "type": "address"
        }
      ],
      "name": "transferOwnership",
      "outputs": [],
      "payable": false,
      "stateMutability": "nonpayable",
      "type": "function",
      "signature": "0xf2fde38b"
    },
    {
      "inputs": [
        {
          "name": "_resonanceDataManageAddress",
          "type": "address"
        },
        {
          "name": "_abcToken",
          "type": "address"
        },
        {
          "name": "_beneficiary",
          "type": "address"
        },
        {
          "name": "_initialFissionPerson",
          "type": "address"
        },
        {
          "name": "_fassionRewardAddress",
          "type": "address"
        },
        {
          "name": "_FOMORewardAddress",
          "type": "address"
        },
        {
          "name": "_luckyRewardAddress",
          "type": "address"
        },
        {
          "name": "_faithRewardAddress",
          "type": "address"
        }
      ],
      "payable": false,
      "stateMutability": "nonpayable",
      "type": "constructor",
      "signature": "constructor"
    },
    {
      "payable": true,
      "stateMutability": "payable",
      "type": "fallback"
    },
    {
      "anonymous": false,
      "inputs": [
        {
          "indexed": true,
          "name": "fissionPerson",
          "type": "address"
        },
        {
          "indexed": true,
          "name": "promoter",
          "type": "address"
        }
      ],
      "name": "ToBeFissionPerson",
      "type": "event",
      "signature": "0x95b9b14e81807a19f0d780820ad803eba32584f0671e1410f6815a83e75d4ef7"
    },
    {
      "anonymous": false,
      "inputs": [
        {
          "indexed": false,
          "name": "currentStepTokenAmount",
          "type": "uint256"
        },
        {
          "indexed": false,
          "name": "currentStepRaisedETH",
          "type": "uint256"
        }
      ],
      "name": "FundsInfo",
      "type": "event",
      "signature": "0xefb17818fcd18149842dc8ec26c8d51b1f7cd86669024d8ad385c95727e301b2"
    },
    {
      "anonymous": false,
      "inputs": [
        {
          "indexed": false,
          "name": "bpCountdown",
          "type": "uint256"
        },
        {
          "indexed": false,
          "name": "remainingToken",
          "type": "uint256"
        },
        {
          "indexed": false,
          "name": "personalTokenLimited",
          "type": "uint256"
        },
        {
          "indexed": false,
          "name": "totalTokenAmount",
          "type": "uint256"
        }
      ],
      "name": "BuildingPerioInfo",
      "type": "event",
      "signature": "0xe11de7dbf210471e3fa9c2ce8526b79b1202a34755ab39aa0ee452e2de7dd9e3"
    },
    {
      "anonymous": false,
      "inputs": [
        {
          "indexed": false,
          "name": "fpCountdown",
          "type": "uint256"
        },
        {
          "indexed": false,
          "name": "remainingETH",
          "type": "uint256"
        },
        {
          "indexed": false,
          "name": "rasiedETHAmount",
          "type": "uint256"
        }
      ],
      "name": "FundingPeriodInfo",
      "type": "event",
      "signature": "0xae8973493d4c3e41a9615da7dbb45a3e85e217ab826ebf232f236520f89ce5bd"
    },
    {
      "anonymous": false,
      "inputs": [
        {
          "indexed": false,
          "name": "fissionRewardList",
          "type": "address[]"
        },
        {
          "indexed": false,
          "name": "fissionRewardAmount",
          "type": "uint256[]"
        }
      ],
      "name": "FissionRewardInfo",
      "type": "event",
      "signature": "0x9c8d21d9775b290867a96ccd228b84fc35453ac06e714f5717f74c84dd962d7e"
    },
    {
      "anonymous": false,
      "inputs": [
        {
          "indexed": false,
          "name": "FOMORewardList",
          "type": "address[]"
        },
        {
          "indexed": false,
          "name": "FOMORewards",
          "type": "uint256[]"
        }
      ],
      "name": "FOMORewardInfo",
      "type": "event",
      "signature": "0x6b6aaf38bd1fe94894a8361f3d343ec41c4c18c8cde782e6c3a7d98f64a60a37"
    },
    {
      "anonymous": false,
      "inputs": [
        {
          "indexed": false,
          "name": "luckyRewardList",
          "type": "address[]"
        },
        {
          "indexed": false,
          "name": "luckyReward",
          "type": "uint256"
        }
      ],
      "name": "LuckyRewardInfo",
      "type": "event",
      "signature": "0xdb5afb48b961706eba89e5cf3ab5ae37dc9c360703069de0c2a6669f7e0f4b31"
    },
    {
      "anonymous": false,
      "inputs": [
        {
          "indexed": false,
          "name": "faithRewardList",
          "type": "address[]"
        },
        {
          "indexed": false,
          "name": "faithRewardAmount",
          "type": "uint256[]"
        }
      ],
      "name": "FaithRewardInfo",
      "type": "event",
      "signature": "0xe7e0e5e0f865e7ed55d089ae13321715f110f39374632f8891058404d5955916"
    },
    {
      "anonymous": false,
      "inputs": [
        {
          "indexed": false,
          "name": "addr",
          "type": "address"
        },
        {
          "indexed": false,
          "name": "ETHAmount",
          "type": "uint256"
        }
      ],
      "name": "WithdrawAllETH",
      "type": "event",
      "signature": "0x293d21fe426f090ce1ced07545832d833ba5245d1ca5dab39eedd683bcb26c71"
    },
    {
      "anonymous": false,
      "inputs": [
        {
          "indexed": false,
          "name": "from",
          "type": "address"
        },
        {
          "indexed": false,
          "name": "to",
          "type": "address"
        },
        {
          "indexed": false,
          "name": "tokenAmount",
          "type": "uint256"
        }
      ],
      "name": "WithdrawAllToken",
      "type": "event",
      "signature": "0x28982effc9f4b6c367af5f071929850b9e3a7f3cec08b9ea2d139ab3606b8169"
    },
    {
      "anonymous": false,
      "inputs": [
        {
          "indexed": false,
          "name": "FunderInfoArray",
          "type": "uint256[]"
        }
      ],
      "name": "FunderInfo",
      "type": "event",
      "signature": "0x04c808a514c1dafc38d056ce8d726701d153e5560559e9a2cbd4a698fc57dbc9"
    },
    {
      "anonymous": false,
      "inputs": [
        {
          "indexed": false,
          "name": "funderAddress",
          "type": "address[]"
        },
        {
          "indexed": false,
          "name": "funderTokenAmount",
          "type": "uint256[]"
        },
        {
          "indexed": false,
          "name": "funderETHAmount",
          "type": "uint256[]"
        },
        {
          "indexed": false,
          "name": "funderInvitees",
          "type": "uint256[]"
        },
        {
          "indexed": false,
          "name": "funderEarnFromAff",
          "type": "uint256[]"
        }
      ],
      "name": "StepFunders",
      "type": "event",
      "signature": "0x3b87f7808c5ab95853c64302b46442fcc67c01ce3ca71e707da509a4100e6afc"
    },
    {
      "anonymous": false,
      "inputs": [
        {
          "indexed": false,
          "name": "stepIndex",
          "type": "uint256"
        }
      ],
      "name": "SettlementStep",
      "type": "event",
      "signature": "0x884a42ea07d12dfb8a666018fad8dc91f2752bdabafca21fc534fefc1305355f"
    },
    {
      "anonymous": false,
      "inputs": [
        {
          "indexed": false,
          "name": "stepIndex",
          "type": "uint256"
        }
      ],
      "name": "StartNextStep",
      "type": "event",
      "signature": "0xeb4f8ce27ee2f036ff2d0bc02908be44cba9da8349185d0b9f996732fb77f07e"
    },
    {
      "anonymous": false,
      "inputs": [
        {
          "indexed": false,
          "name": "stepIndex",
          "type": "uint256"
        },
        {
          "indexed": false,
          "name": "raiseTarget",
          "type": "uint256"
        }
      ],
      "name": "SetRaiseTarget",
      "type": "event",
      "signature": "0xa0065ef53daacd0859dd1ca5cdda1a90bd236db58dc67e1c6c9888afb8b7c934"
    },
    {
      "anonymous": false,
      "inputs": [
        {
          "indexed": false,
          "name": "resonances",
          "type": "address[]"
        }
      ],
      "name": "GetResonances",
      "type": "event",
      "signature": "0x239ea09ed3b2c5ca6c811a840e58b3dc40f4591da5f559b32893f99e968b419c"
    },
    {
      "anonymous": false,
      "inputs": [
        {
          "indexed": false,
          "name": "resonancesRasiedETH",
          "type": "uint256"
        }
      ],
      "name": "FunderTotalRaised",
      "type": "event",
      "signature": "0x33bd212310efc1b994689137ddaaea56136d0cb5b0491d1eb3b4cc3fce4428c1"
    },
    {
      "anonymous": false,
      "inputs": [
        {
          "indexed": true,
          "name": "previousOwner",
          "type": "address"
        },
        {
          "indexed": true,
          "name": "newOwner",
          "type": "address"
        }
      ],
      "name": "OwnershipTransferred",
      "type": "event",
      "signature": "0x8be0079c531659141344cd1fd0a4f28419497f9722a3daafe3b4186f6b6457e0"
    },
    {
      "constant": false,
      "inputs": [],
      "name": "allowAccess",
      "outputs": [],
      "payable": false,
      "stateMutability": "nonpayable",
      "type": "function",
      "signature": "0xa9033bfe"
    },
    {
      "constant": false,
      "inputs": [
        {
          "name": "promoter",
          "type": "address"
        }
      ],
      "name": "toBeFissionPerson",
      "outputs": [
        {
          "name": "",
          "type": "address"
        },
        {
          "name": "",
          "type": "address"
        }
      ],
      "payable": false,
      "stateMutability": "nonpayable",
      "type": "function",
      "signature": "0xde3844ff"
    },
    {
      "constant": false,
      "inputs": [
        {
          "name": "_raiseTarget",
          "type": "uint256"
        }
      ],
      "name": "setRaiseTarget",
      "outputs": [
        {
          "name": "",
          "type": "uint256"
        },
        {
          "name": "",
          "type": "uint256"
        }
      ],
      "payable": false,
      "stateMutability": "nonpayable",
      "type": "function",
      "signature": "0x4559ff9b"
    },
    {
      "constant": true,
      "inputs": [
        {
          "name": "_stepIndex",
          "type": "uint256"
        }
      ],
      "name": "getRaiseTarget",
      "outputs": [
        {
          "name": "",
          "type": "uint256"
        }
      ],
      "payable": false,
      "stateMutability": "view",
      "type": "function",
      "signature": "0xdb27cf61"
    },
    {
      "constant": false,
      "inputs": [
        {
          "name": "_tokenAmount",
          "type": "uint256"
        }
      ],
      "name": "jointlyBuild",
      "outputs": [],
      "payable": false,
      "stateMutability": "nonpayable",
      "type": "function",
      "signature": "0xb4862a71"
    },
    {
      "constant": false,
      "inputs": [
        {
          "name": "_fissionWinnerList",
          "type": "address[]"
        },
        {
          "name": "_LuckyWinnerList",
          "type": "address[]"
        }
      ],
      "name": "settlementStep",
      "outputs": [
        {
          "name": "",
          "type": "bool"
        }
      ],
      "payable": false,
      "stateMutability": "nonpayable",
      "type": "function",
      "signature": "0xb5ac72b5"
    },
    {
      "constant": false,
      "inputs": [
        {
          "name": "_FaithWinnerList",
          "type": "address[]"
        }
      ],
      "name": "settlementFaithReward",
      "outputs": [
        {
          "name": "",
          "type": "bool"
        }
      ],
      "payable": false,
      "stateMutability": "nonpayable",
      "type": "function",
      "signature": "0x5deac38b"
    },
    {
      "constant": false,
      "inputs": [],
      "name": "withdrawAllToken",
      "outputs": [
        {
          "name": "",
          "type": "address"
        },
        {
          "name": "",
          "type": "address"
        },
        {
          "name": "",
          "type": "uint256"
        }
      ],
      "payable": true,
      "stateMutability": "payable",
      "type": "function",
      "signature": "0x14870d2c"
    },
    {
      "constant": false,
      "inputs": [],
      "name": "withdrawAllETH",
      "outputs": [
        {
          "name": "",
          "type": "address"
        },
        {
          "name": "",
          "type": "uint256"
        }
      ],
      "payable": true,
      "stateMutability": "payable",
      "type": "function",
      "signature": "0x90386bbf"
    },
    {
      "constant": true,
      "inputs": [],
      "name": "isBuilder",
      "outputs": [
        {
          "name": "",
          "type": "bool"
        }
      ],
      "payable": false,
      "stateMutability": "view",
      "type": "function",
      "signature": "0x54b94615"
    },
    {
      "constant": true,
      "inputs": [],
      "name": "isFunder",
      "outputs": [
        {
          "name": "",
          "type": "bool"
        }
      ],
      "payable": false,
      "stateMutability": "view",
      "type": "function",
      "signature": "0xfeaec775"
    },
    {
      "constant": true,
      "inputs": [],
      "name": "getResonances",
      "outputs": [
        {
          "name": "",
          "type": "address[]"
        }
      ],
      "payable": false,
      "stateMutability": "view",
      "type": "function",
      "signature": "0x891d7e79"
    },
    {
      "constant": true,
      "inputs": [
        {
          "name": "_funder",
          "type": "address"
        }
      ],
      "name": "getFunderTotalRaised",
      "outputs": [
        {
          "name": "",
          "type": "uint256"
        }
      ],
      "payable": false,
      "stateMutability": "view",
      "type": "function",
      "signature": "0xe15ce927"
    },
    {
      "constant": true,
      "inputs": [
        {
          "name": "_stepIndex",
          "type": "uint256"
        }
      ],
      "name": "getStepFunders",
      "outputs": [
        {
          "name": "",
          "type": "address[]"
        },
        {
          "name": "",
          "type": "uint256[]"
        },
        {
          "name": "",
          "type": "uint256[]"
        },
        {
          "name": "",
          "type": "uint256[]"
        },
        {
          "name": "",
          "type": "uint256[]"
        }
      ],
      "payable": false,
      "stateMutability": "view",
      "type": "function",
      "signature": "0x16b29746"
    },
    {
      "constant": true,
      "inputs": [],
      "name": "getCurrentStepFundsInfo",
      "outputs": [
        {
          "name": "",
          "type": "uint256"
        },
        {
          "name": "",
          "type": "uint256"
        },
        {
          "name": "",
          "type": "uint256"
        }
      ],
      "payable": false,
      "stateMutability": "view",
      "type": "function",
      "signature": "0x912c84ec"
    },
    {
      "constant": true,
      "inputs": [],
      "name": "getBuildingPerioInfo",
      "outputs": [
        {
          "name": "",
          "type": "uint256"
        },
        {
          "name": "",
          "type": "uint256"
        },
        {
          "name": "",
          "type": "uint256"
        },
        {
          "name": "",
          "type": "uint256"
        }
      ],
      "payable": false,
      "stateMutability": "view",
      "type": "function",
      "signature": "0x64ab07fa"
    },
    {
      "constant": true,
      "inputs": [],
      "name": "getFundingPeriodInfo",
      "outputs": [
        {
          "name": "",
          "type": "uint256"
        },
        {
          "name": "",
          "type": "uint256"
        },
        {
          "name": "",
          "type": "uint256"
        }
      ],
      "payable": false,
      "stateMutability": "view",
      "type": "function",
      "signature": "0xc12cd1bc"
    },
    {
      "constant": true,
      "inputs": [
        {
          "name": "_funder",
          "type": "address"
        }
      ],
      "name": "getFunderInfo",
      "outputs": [
        {
          "name": "",
          "type": "uint256"
        },
        {
          "name": "",
          "type": "uint256"
        },
        {
          "name": "",
          "type": "uint256"
        },
        {
          "name": "",
          "type": "uint256"
        },
        {
          "name": "",
          "type": "uint256"
        },
        {
          "name": "",
          "type": "uint256"
        },
        {
          "name": "",
          "type": "uint256"
        },
        {
          "name": "",
          "type": "uint256"
        },
        {
          "name": "",
          "type": "uint256"
        },
        {
          "name": "",
          "type": "uint256"
        }
      ],
      "payable": false,
      "stateMutability": "view",
      "type": "function",
      "signature": "0xee12d622"
    },
    {
      "constant": true,
      "inputs": [],
      "name": "Beneficiary",
      "outputs": [
        {
          "name": "",
          "type": "address"
        }
      ],
      "payable": false,
      "stateMutability": "view",
      "type": "function",
      "signature": "0x73d55379"
    },
    {
      "constant": true,
      "inputs": [],
      "name": "getBlockHash",
      "outputs": [
        {
          "name": "blockHash",
          "type": "bytes32"
        }
      ],
      "payable": false,
      "stateMutability": "view",
      "type": "function",
      "signature": "0x9663f88f"
    }
  ],
  "bytecode": "0x608060405234801561001057600080fd5b5060405161010080620047fc833981018060405261010081101561003357600080fd5b50805160208201516040808401516060850151608086015160a087015160c088015160e09098015160008054600160a060020a03191633178082559651989997989597949693959294939192600160a060020a0392909216917f8be0079c531659141344cd1fd0a4f28419497f9722a3daafe3b4186f6b6457e0908290a360028054600160a060020a03998a16600160a060020a03199182161790915560048054958a1695821695909517909455600580549389169385169390931790925560068054918816918416919091179055600780549187169183169190911790556000600b5560018054948616948216949094179093556003805492851692841692909217909155600d80549190931691161790556146a680620001566000396000f3fe6080604052600436106101855760003560e060020a90048063912c84ec116100d5578063db27cf611161008e578063e757412811610068578063e757412814610ac3578063ee12d62214610ad8578063f2fde38b14610b5b578063feaec77514610b8e57610185565b8063db27cf6114610a0d578063de3844ff14610a37578063e15ce92714610a9057610185565b8063912c84ec1461083d5780639663f88f14610870578063a9033bfe14610885578063b4862a711461089a578063b5ac72b5146108c4578063c12cd1bc146109f857610185565b806364ab07fa11610142578063891d7e791161011c578063891d7e79146107835780638da5cb5b146107e85780638f32d59b146107fd57806390386bbf1461081257610185565b806364ab07fa14610700578063715018a61461073b57806373d553791461075257610185565b806314870d2c146103f957806316b297461461042b5780634559ff9b146105bd57806354b94615146106005780635bc34f71146106295780635deac38b14610650575b600260009054906101000a9004600160a060020a0316600160a060020a03166374ebae066040518163ffffffff1660e060020a02815260040160206040518083038186803b1580156101d657600080fd5b505afa1580156101ea573d6000803e3d6000fd5b505050506040513d602081101561020057600080fd5b50511515610258576040805160e560020a62461bcd02815260206004820152601260248201527fe4b88de59ca8e58b9fe8b584e69c9fe586850000000000000000000000000000604482015290519081900360640190fd5b600260009054906101000a9004600160a060020a0316600160a060020a031663743acbab6040518163ffffffff1660e060020a02815260040160206040518083038186803b1580156102a957600080fd5b505afa1580156102bd573d6000803e3d6000fd5b505050506040513d60208110156102d357600080fd5b505115610318576040805160e560020a62461bcd02815260206004820152601260248201526000805160206145e5833981519152604482015290519081900360640190fd5b600b80546000908152600c6020818152604080842033808652908352818520346002909101819055865486528484528286208287528452828620600501805475ff000000000000000000000000000000000000000000191675010000000000000000000000000000000000000000001790559554855292825280842060070180548601905560088054600181019091557ff3f7a9fe364faab93b216da50a3214154f22a0a2b415b23a84c8169e8b636ee301805473ffffffffffffffffffffffffffffffffffffffff19168417905591835260099052902080549091019055005b610401610ba3565b60408051600160a060020a0394851681529290931660208301528183015290519081900360600190f35b34801561043757600080fd5b506104556004803603602081101561044e57600080fd5b5035610e2d565b60405180806020018060200180602001806020018060200186810386528b818151815260200191508051906020019060200280838360005b838110156104a557818101518382015260200161048d565b5050505090500186810385528a818151815260200191508051906020019060200280838360005b838110156104e45781810151838201526020016104cc565b50505050905001868103845289818151815260200191508051906020019060200280838360005b8381101561052357818101518382015260200161050b565b50505050905001868103835288818151815260200191508051906020019060200280838360005b8381101561056257818101518382015260200161054a565b50505050905001868103825287818151815260200191508051906020019060200280838360005b838110156105a1578181015183820152602001610589565b505050509050019a505050505050505050505060405180910390f35b3480156105c957600080fd5b506105e7600480360360208110156105e057600080fd5b5035611085565b6040805192835260208301919091528051918290030190f35b34801561060c57600080fd5b50610615611364565b604080519115158252519081900360200190f35b34801561063557600080fd5b5061063e6113a2565b60408051918252519081900360200190f35b34801561065c57600080fd5b506106156004803603602081101561067357600080fd5b81019060208101813564010000000081111561068e57600080fd5b8201836020820111156106a057600080fd5b803590602001918460208302840111640100000000831117156106c257600080fd5b9190808060200260200160405190810160405280939291908181526020018383602002808284376000920191909152509295506113a8945050505050565b34801561070c57600080fd5b50610715611600565b604080519485526020850193909352838301919091526060830152519081900360800190f35b34801561074757600080fd5b506107506117c2565b005b34801561075e57600080fd5b5061076761182c565b60408051600160a060020a039092168252519081900360200190f35b34801561078f57600080fd5b5061079861183b565b60408051602080825283518183015283519192839290830191858101910280838360005b838110156107d45781810151838201526020016107bc565b505050509050019250505060405180910390f35b3480156107f457600080fd5b506107676118b0565b34801561080957600080fd5b506106156118bf565b61081a6118d0565b60408051600160a060020a03909316835260208301919091528051918290030190f35b34801561084957600080fd5b50610852611ae5565b60408051938452602084019290925282820152519081900360600190f35b34801561087c57600080fd5b5061063e611b22565b34801561089157600080fd5b50610750611b4f565b3480156108a657600080fd5b50610750600480360360208110156108bd57600080fd5b5035611de7565b3480156108d057600080fd5b50610615600480360360408110156108e757600080fd5b81019060208101813564010000000081111561090257600080fd5b82018360208201111561091457600080fd5b8035906020019184602083028401116401000000008311171561093657600080fd5b919080806020026020016040519081016040528093929190818152602001838360200280828437600092019190915250929594936020810193503591505064010000000081111561098657600080fd5b82018360208201111561099857600080fd5b803590602001918460208302840111640100000000831117156109ba57600080fd5b91908080602002602001604051908101604052809392919081815260200183836020028082843760009201919091525092955061266e945050505050565b348015610a0457600080fd5b506108526128e7565b348015610a1957600080fd5b5061063e60048036036020811015610a3057600080fd5b5035612aae565b348015610a4357600080fd5b50610a6a60048036036020811015610a5a57600080fd5b5035600160a060020a0316612ac3565b60408051600160a060020a03938416815291909216602082015281519081900390910190f35b348015610a9c57600080fd5b5061063e60048036036020811015610ab357600080fd5b5035600160a060020a03166133bb565b348015610acf57600080fd5b506107676133ec565b348015610ae457600080fd5b50610b0b60048036036020811015610afb57600080fd5b5035600160a060020a03166133fb565b604080519a8b5260208b0199909952898901979097526060890195909552608088019390935260a087019190915260c086015260e085015261010084015261012083015251908190036101400190f35b348015610b6757600080fd5b5061075060048036036020811015610b7e57600080fd5b5035600160a060020a0316613b9b565b348015610b9a57600080fd5b50610615613bba565b600b546000908152600c6020908152604080832033845290915281206005015481908190760100000000000000000000000000000000000000000000900460ff1615610c235760405160e560020a62461bcd02815260040180806020018281038252602c815260200180614605602c913960400191505060405180910390fd5b600254604080517f9d7e0c860000000000000000000000000000000000000000000000000000000081523360048201529051600092600160a060020a031691639d7e0c86916024808301926020929190829003018186803b158015610c8757600080fd5b505afa158015610c9b573d6000803e3d6000fd5b505050506040513d6020811015610cb157600080fd5b5051600254604080517f0c5d0c560000000000000000000000000000000000000000000000000000000081529051929350600160a060020a0390911691630c5d0c569160048082019260009290919082900301818387803b158015610d1557600080fd5b505af1158015610d29573d6000803e3d6000fd5b5050600b546000908152600c6020908152604080832033808552908352818420600501805476ff00000000000000000000000000000000000000000000191676010000000000000000000000000000000000000000000017905560015482517f23b872dd0000000000000000000000000000000000000000000000000000000081523060048201526024810192909252604482018890529151600160a060020a039290921695506323b872dd9450606480820194918390030190829087803b158015610df457600080fd5b505af1158015610e08573d6000803e3d6000fd5b505050506040513d6020811015610e1e57600080fd5b50309533955091935090915050565b6060806060806060610e3d6118bf565b1515610e4857600080fd5b6060806060806060600c60008c8152602001908152602001600020600101805480602002602001604051908101604052809291908181526020018280548015610eba57602002820191906000526020600020905b8154600160a060020a03168152600190910190602001808311610e9c575b50939850600093505050505b85518110156110725760008c8152600c602052604081208751909190889084908110610eee57fe5b90602001906020020151600160a060020a0316600160a060020a03168152602001908152602001600020600101548582815181101515610f2a57fe5b602090810290910181019190915260008d8152600c909152604081208751909190889084908110610f5757fe5b90602001906020020151600160a060020a0316600160a060020a03168152602001908152602001600020600201548482815181101515610f9357fe5b602090810290910181019190915260008d8152600c909152604081208751909190889084908110610fc057fe5b6020908102909101810151600160a060020a03168252810191909152604001600020600301548351849083908110610ff457fe5b6020908102909101810191909152600b546000908152600c90915260408120875190919088908490811061102457fe5b90602001906020020151600160a060020a0316600160a060020a0316815260200190815260200160002060040154828281518110151561106057fe5b60209081029091010152600101610ec6565b50939a9299509097509550909350915050565b6000806110906118bf565b151561109b57600080fd5b600260009054906101000a9004600160a060020a0316600160a060020a03166325d8e97f6040518163ffffffff1660e060020a02815260040160206040518083038186803b1580156110ec57600080fd5b505afa158015611100573d6000803e3d6000fd5b505050506040513d602081101561111657600080fd5b5051151561115c576040805160e560020a62461bcd0281526020600482015260126024820152600080516020614631833981519152604482015290519081900360640190fd5b73__UintUtils_____________________________63669dafe8846040518263ffffffff1660e060020a0281526004018082815260200191505060206040518083038186803b1580156111ae57600080fd5b505af41580156111c2573d6000803e3d6000fd5b505050506040513d60208110156111d857600080fd5b5051600b80546000908152600c60205260408082206006908101949094559154815220015473__UintUtils_____________________________9063669dafe89061123d9060649061123190603c63ffffffff613bf916565b9063ffffffff613c2b16565b6040518263ffffffff1660e060020a0281526004018082815260200191505060206040518083038186803b15801561127457600080fd5b505af4158015611288573d6000803e3d6000fd5b505050506040513d602081101561129e57600080fd5b5051600b80546000908152600c60209081526040808320600801949094559154815282902060060154825160e360020a630cd3b5fd0281526004810191909152915173__UintUtils_____________________________9263669dafe8926024808301939192829003018186803b15801561131857600080fd5b505af415801561132c573d6000803e3d6000fd5b505050506040513d602081101561134257600080fd5b5051600b80546000908152600c60205260409020600901919091555493915050565b600b546000908152600c6020908152604080832033845290915290206005015474010000000000000000000000000000000000000000900460ff1690565b600b5481565b60006113b26118bf565b15156113bd57600080fd5b600260009054906101000a9004600160a060020a0316600160a060020a031663743acbab6040518163ffffffff1660e060020a02815260040160206040518083038186803b15801561140e57600080fd5b505afa158015611422573d6000803e3d6000fd5b505050506040513d602081101561143857600080fd5b50511515611490576040805160e560020a62461bcd02815260206004820152601260248201527fe585b1e68cafe8bf98e69caae7bb93e69d9f0000000000000000000000000000604482015290519081900360640190fd5b600254600b546000908152600c6020526040902060070154600160a060020a03909116906395bbde8890849073__UintUtils_____________________________9063669dafe8906114f09060649061123190600563ffffffff613bf916565b6040518263ffffffff1660e060020a0281526004018082815260200191505060206040518083038186803b15801561152757600080fd5b505af415801561153b573d6000803e3d6000fd5b505050506040513d602081101561155157600080fd5b50516040805160e060020a63ffffffff861602815260248101839052600481019182528351604482015283518291606401906020868101910280838360005b838110156115a8578181015183820152602001611590565b505050509050019350505050602060405180830381600087803b1580156115ce57600080fd5b505af11580156115e2573d6000803e3d6000fd5b505050506040513d60208110156115f857600080fd5b505192915050565b60008060008061160e6118bf565b151561161957600080fd5b600260009054906101000a9004600160a060020a0316600160a060020a03166325d8e97f6040518163ffffffff1660e060020a02815260040160206040518083038186803b15801561166a57600080fd5b505afa15801561167e573d6000803e3d6000fd5b505050506040513d602081101561169457600080fd5b505115156116da576040805160e560020a62461bcd0281526020600482015260126024820152600080516020614631833981519152604482015290519081900360640190fd5b60008060008042600260009054906101000a9004600160a060020a0316600160a060020a031663d74635736040518163ffffffff1660e060020a02815260040160206040518083038186803b15801561173257600080fd5b505afa158015611746573d6000803e3d6000fd5b505050506040513d602081101561175c57600080fd5b5051600b546000908152600c60205260409020600481015460029091015492909103617080019550611794919063ffffffff613c4f16565b600b546000908152600c602052604090206003810154600590910154959a9199509750939550929350505050565b6117ca6118bf565b15156117d557600080fd5b60008054604051600160a060020a03909116907f8be0079c531659141344cd1fd0a4f28419497f9722a3daafe3b4186f6b6457e0908390a36000805473ffffffffffffffffffffffffffffffffffffffff19169055565b600354600160a060020a031690565b60606118456118bf565b151561185057600080fd5b60088054806020026020016040519081016040528092919081815260200182805480156118a657602002820191906000526020600020905b8154600160a060020a03168152600190910190602001808311611888575b5050505050905090565b600054600160a060020a031690565b600054600160a060020a0316331490565b600b546000908152600c60209081526040808320338452909152812060050154819077010000000000000000000000000000000000000000000000900460ff161561194f5760405160e560020a62461bcd02815260040180806020018281038252602a815260200180614651602a913960400191505060405180910390fd5b600254604080517f9263434e0000000000000000000000000000000000000000000000000000000081523360048201529051600092600160a060020a031691639263434e916024808301926020929190829003018186803b1580156119b357600080fd5b505afa1580156119c7573d6000803e3d6000fd5b505050506040513d60208110156119dd57600080fd5b5051600254604080517f503001200000000000000000000000000000000000000000000000000000000081529051929350600160a060020a039091169163503001209160048082019260009290919082900301818387803b158015611a4157600080fd5b505af1158015611a55573d6000803e3d6000fd5b5050600b546000908152600c60209081526040808320338085529252808320600501805477ff00000000000000000000000000000000000000000000001916770100000000000000000000000000000000000000000000001790555190935084156108fc0292508491818181858888f19350505050158015611adb573d6000803e3d6000fd5b5033925090509091565b6000806000611af26118bf565b1515611afd57600080fd5b5050600b546000818152600c6020526040902060028101546007909101549192509192565b600b80546000908152600c6020526040812090910154611b4990600163ffffffff613c6416565b40905090565b611b576118bf565b1515611b6257600080fd5b600254604080517fc4a85bc10000000000000000000000000000000000000000000000000000000081523060048201529051600160a060020a039092169163c4a85bc19160248082019260009290919082900301818387803b158015611bc757600080fd5b505af1158015611bdb573d6000803e3d6000fd5b5050600254604080517fc4a85bc10000000000000000000000000000000000000000000000000000000081523360048201529051600160a060020a03909216935063c4a85bc1925060248082019260009290919082900301818387803b158015611c4457600080fd5b505af1158015611c58573d6000803e3d6000fd5b5050600254604080517fabdd11a80000000000000000000000000000000000000000000000000000000081524260048201529051600160a060020a03909216935063abdd11a8925060248082019260009290919082900301818387803b158015611cc157600080fd5b505af1158015611cd5573d6000803e3d6000fd5b5050505073__UintUtils_____________________________63669dafe86216e3606040518263ffffffff1660e060020a0281526004018082815260200191505060206040518083038186803b158015611d2e57600080fd5b505af4158015611d42573d6000803e3d6000fd5b505050506040513d6020811015611d5857600080fd5b5051600b546000908152600c6020526040808220600290810193909355915482517f1c5ce1570000000000000000000000000000000000000000000000000000000081529251600160a060020a0390911692631c5ce15792600480830193919282900301818387803b158015611dcd57600080fd5b505af1158015611de1573d6000803e3d6000fd5b50505050565b600260009054906101000a9004600160a060020a0316600160a060020a03166325d8e97f6040518163ffffffff1660e060020a02815260040160206040518083038186803b158015611e3857600080fd5b505afa158015611e4c573d6000803e3d6000fd5b505050506040513d6020811015611e6257600080fd5b50511515611ea8576040805160e560020a62461bcd0281526020600482015260126024820152600080516020614631833981519152604482015290519081900360640190fd5b600260009054906101000a9004600160a060020a0316600160a060020a031663743acbab6040518163ffffffff1660e060020a02815260040160206040518083038186803b158015611ef957600080fd5b505afa158015611f0d573d6000803e3d6000fd5b505050506040513d6020811015611f2357600080fd5b505115611f68576040805160e560020a62461bcd02815260206004820152601260248201526000805160206145e5833981519152604482015290519081900360640190fd5b611f70611364565b1515611fc6576040805160e560020a62461bcd02815260206004820152601660248201527fe8b083e794a8e88085e4b88de698af4275696c64657200000000000000000000604482015290519081900360640190fd5b600b546000908152600c602052604090206002810154600490910154611ff2908363ffffffff613c6416565b106120315760405160e560020a62461bcd02815260040180806020018281038252602681526020018061458f6026913960400191505060405180910390fd5b600b546000908152600c602090815260408083206003810154338552925290912060010154612066908363ffffffff613c6416565b106120a55760405160e560020a62461bcd0281526004018080602001828103825260308152602001806145b56030913960400191505060405180910390fd5b73__UintUtils_____________________________63669dafe8826040518263ffffffff1660e060020a0281526004018082815260200191505060206040518083038186803b1580156120f757600080fd5b505af415801561210b573d6000803e3d6000fd5b505050506040513d602081101561212157600080fd5b5051600154604080517fdd62ed3e0000000000000000000000000000000000000000000000000000000081523360048201523060248201529051600160a060020a039092169163dd62ed3e91604480820192602092909190829003018186803b15801561218d57600080fd5b505afa1580156121a1573d6000803e3d6000fd5b505050506040513d60208110156121b757600080fd5b5051101561220f576040805160e560020a62461bcd02815260206004820152601260248201527fe68e88e69d83e9a29de5baa6e4b88de8b6b30000000000000000000000000000604482015290519081900360640190fd5b600160009054906101000a9004600160a060020a0316600160a060020a03166323b872dd333073__UintUtils_____________________________63669dafe8866040518263ffffffff1660e060020a0281526004018082815260200191505060206040518083038186803b15801561228757600080fd5b505af415801561229b573d6000803e3d6000fd5b505050506040513d60208110156122b157600080fd5b50516040805160e060020a63ffffffff8716028152600160a060020a0394851660048201529290931660248301526044820152905160648083019260209291908290030181600087803b15801561230757600080fd5b505af115801561231b573d6000803e3d6000fd5b505050506040513d602081101561233157600080fd5b50511515612389576040805160e560020a62461bcd02815260206004820152601a60248201527fe8bdace7a7bb746f6b656ee588b0e59088e7baa6e5a4b1e8b4a5000000000000604482015290519081900360640190fd5b73__UintUtils_____________________________63669dafe8826040518263ffffffff1660e060020a0281526004018082815260200191505060206040518083038186803b1580156123db57600080fd5b505af41580156123ef573d6000803e3d6000fd5b505050506040513d602081101561240557600080fd5b5051600b546000908152600c602090815260408083203384528252918290206001018054909301909255805160e360020a630cd3b5fd02815260048101849052905173__UintUtils_____________________________9263669dafe89260248082019391829003018186803b15801561247e57600080fd5b505af4158015612492573d6000803e3d6000fd5b505050506040513d60208110156124a857600080fd5b5051600b546000908152600c602090815260409182902060029081018054949094039093559154815160e360020a630cd3b5fd028152600481018590529151600160a060020a03909116926330f42bf69273__UintUtils_____________________________9263669dafe892602480840193919291829003018186803b15801561253257600080fd5b505af4158015612546573d6000803e3d6000fd5b505050506040513d602081101561255c57600080fd5b5051600254604080517f2734189a0000000000000000000000000000000000000000000000000000000081529051600160a060020a0390921691632734189a91600480820192602092909190829003018186803b1580156125bc57600080fd5b505afa1580156125d0573d6000803e3d6000fd5b505050506040513d60208110156125e657600080fd5b50516040805160e060020a63ffffffff861602815292909103600483015251602480830192600092919082900301818387803b15801561262557600080fd5b505af1158015612639573d6000803e3d6000fd5b5050336000908152600a60209081526040808320805487019055600b548352600c909152902060040180549093019092555050565b60006126786118bf565b151561268357600080fd5b61268d8383613c76565b600254600354600b546000908152600c6020526040902060070154600160a060020a0392831692639b32a77892169073__UintUtils_____________________________9063669dafe8906126f09060649061123190603c63ffffffff613bf916565b6040518263ffffffff1660e060020a0281526004018082815260200191505060206040518083038186803b15801561272757600080fd5b505af415801561273b573d6000803e3d6000fd5b505050506040513d602081101561275157600080fd5b5051600254600354604080517f3bb66a7b000000000000000000000000000000000000000000000000000000008152600160a060020a03928316600482015290519190921691633bb66a7b916024808301926020929190829003018186803b1580156127bc57600080fd5b505afa1580156127d0573d6000803e3d6000fd5b505050506040513d60208110156127e657600080fd5b50516040805160e060020a63ffffffff8716028152600160a060020a0390941660048501529101602483015251604480830192600092919082900301818387803b15801561283357600080fd5b505af1158015612847573d6000803e3d6000fd5b50505050600260009054906101000a9004600160a060020a0316600160a060020a031663743acbab6040518163ffffffff1660e060020a02815260040160206040518083038186803b15801561289c57600080fd5b505afa1580156128b0573d6000803e3d6000fd5b505050506040513d60208110156128c657600080fd5b5051156128d5575060016128e1565b6128dd614123565b5060005b92915050565b60008060006128f46118bf565b15156128ff57600080fd5b600260009054906101000a9004600160a060020a0316600160a060020a03166374ebae066040518163ffffffff1660e060020a02815260040160206040518083038186803b15801561295057600080fd5b505afa158015612964573d6000803e3d6000fd5b505050506040513d602081101561297a57600080fd5b505115156129d2576040805160e560020a62461bcd02815260206004820152601260248201527fe4b88de59ca8e58b9fe8b584e69c9fe586850000000000000000000000000000604482015290519081900360640190fd5b600080600042600260009054906101000a9004600160a060020a0316600160a060020a031663d74635736040518163ffffffff1660e060020a02815260040160206040518083038186803b158015612a2957600080fd5b505afa158015612a3d573d6000803e3d6000fd5b505050506040513d6020811015612a5357600080fd5b5051600b546000908152600c602052604090206007810154600690910154929091036018019450612a8a919063ffffffff613c4f16565b600b546000908152600c602052604090206007015493965094509192505050909192565b6000908152600c602052604090206006015490565b600080600260009054906101000a9004600160a060020a0316600160a060020a03166325d8e97f6040518163ffffffff1660e060020a02815260040160206040518083038186803b158015612b1757600080fd5b505afa158015612b2b573d6000803e3d6000fd5b505050506040513d6020811015612b4157600080fd5b50511515612b87576040805160e560020a62461bcd0281526020600482015260126024820152600080516020614631833981519152604482015290519081900360640190fd5b600260009054906101000a9004600160a060020a0316600160a060020a031663743acbab6040518163ffffffff1660e060020a02815260040160206040518083038186803b158015612bd857600080fd5b505afa158015612bec573d6000803e3d6000fd5b505050506040513d6020811015612c0257600080fd5b505115612c47576040805160e560020a62461bcd02815260206004820152601260248201526000805160206145e5833981519152604482015290519081900360640190fd5b600b546000908152600c60209081526040808320600160a060020a038716845290915290206005015474010000000000000000000000000000000000000000900460ff161515612ce1576040805160e560020a62461bcd02815260206004820152601f60248201527fe68ea8e5b9bfe88085e887aae5b7b1e5bf85e9a1bbe698af4275696c64657200604482015290519081900360640190fd5b600160a060020a0383161515612d41576040805160e560020a62461bcd02815260206004820152601b60248201527fe68ea8e5b9bfe88085e4b88de883bde698afe7a9bae59cb0e59d800000000000604482015290519081900360640190fd5b73__UintUtils_____________________________63669dafe860086040518263ffffffff1660e060020a0281526004018082815260200191505060206040518083038186803b158015612d9457600080fd5b505af4158015612da8573d6000803e3d6000fd5b505050506040513d6020811015612dbe57600080fd5b5051600154604080517fdd62ed3e0000000000000000000000000000000000000000000000000000000081523360048201523060248201529051600160a060020a039092169163dd62ed3e91604480820192602092909190829003018186803b158015612e2a57600080fd5b505afa158015612e3e573d6000803e3d6000fd5b505050506040513d6020811015612e5457600080fd5b50511015612eac576040805160e560020a62461bcd02815260206004820152601260248201527fe68e88e69d83e9a29de5baa6e4b88de8b6b30000000000000000000000000000604482015290519081900360640190fd5b6001546040805160e360020a630cd3b5fd028152600860048201529051600160a060020a03909216916323b872dd913391309173__UintUtils_____________________________9163669dafe891602480820192602092909190829003018186803b158015612f1b57600080fd5b505af4158015612f2f573d6000803e3d6000fd5b505050506040513d6020811015612f4557600080fd5b50516040805160e060020a63ffffffff8716028152600160a060020a0394851660048201529290931660248301526044820152905160648083019260209291908290030181600087803b158015612f9b57600080fd5b505af1158015612faf573d6000803e3d6000fd5b505050506040513d6020811015612fc557600080fd5b5051151561301d576040805160e560020a62461bcd02815260206004820152601a60248201527fe8bdace7a7bb746f6b656ee588b0e59088e7baa6e5a4b1e8b4a5000000000000604482015290519081900360640190fd5b6001546040805160e360020a630cd3b5fd028152600360048201529051600160a060020a03909216916342966c689173__UintUtils_____________________________9163669dafe891602480820192602092909190829003018186803b15801561308857600080fd5b505af415801561309c573d6000803e3d6000fd5b505050506040513d60208110156130b257600080fd5b50516040805160e060020a63ffffffff8516028152600481019290925251602480830192600092919082900301818387803b1580156130f057600080fd5b505af1158015613104573d6000803e3d6000fd5b50506001546040805160e360020a630cd3b5fd028152600560048201529051600160a060020a03909216935063a9059cbb9250869173__UintUtils_____________________________9163669dafe8916024808301926020929190829003018186803b15801561317457600080fd5b505af4158015613188573d6000803e3d6000fd5b505050506040513d602081101561319e57600080fd5b50516040805160e060020a63ffffffff8616028152600160a060020a03909316600484015260248301919091525160448083019260209291908290030181600087803b1580156131ed57600080fd5b505af1158015613201573d6000803e3d6000fd5b505050506040513d602081101561321757600080fd5b50506040805160e360020a630cd3b5fd02815260056004820152905173__UintUtils_____________________________9163669dafe8916024808301926020929190829003018186803b15801561326e57600080fd5b505af4158015613282573d6000803e3d6000fd5b505050506040513d602081101561329857600080fd5b5051600b546000908152600c60209081526040808320600160a060020a03881684529091529020600401805490910190556132d283614408565b600b80546000908152600c60209081526040808320600160a060020a038089168086529184528285206003018054600181018255908652938520909301805473ffffffffffffffffffffffffffffffffffffffff191633179055600480549554600d5484517fe23613e900000000000000000000000000000000000000000000000000000000815292830191909152602482019290925290831660448201529051939091169263e23613e99260648084019391929182900301818387803b15801561339c57600080fd5b505af11580156133b0573d6000803e3d6000fd5b503396945050505050565b60006133c56118bf565b15156133d057600080fd5b50600160a060020a031660009081526009602052604090205490565b600154600160a060020a031681565b6000806000806000806000806000806134126118bf565b151561341d57600080fd5b61342561453b565b600c6000600b54815260200190815260200160002060000160008d600160a060020a0316600160a060020a0316815260200190815260200160002061014060405190810160405290816000820160009054906101000a9004600160a060020a0316600160a060020a0316600160a060020a0316815260200160018201548152602001600282015481526020016003820180548060200260200160405190810160405280929190818152602001828054801561350957602002820191906000526020600020905b8154600160a060020a031681526001909101906020018083116134eb575b50505050508152602001600482015481526020016005820160009054906101000a9004600160a060020a0316600160a060020a0316600160a060020a031681526020016005820160149054906101000a900460ff161515151581526020016005820160159054906101000a900460ff161515151581526020016005820160169054906101000a900460ff161515151581526020016005820160179054906101000a900460ff16151515158152505090506060600260009054906101000a9004600160a060020a0316600160a060020a0316633aecd0e38e6040518263ffffffff1660e060020a0281526004018082600160a060020a0316600160a060020a0316815260200191505060206040518083038186803b15801561362957600080fd5b505afa15801561363d573d6000803e3d6000fd5b505050506040513d602081101561365357600080fd5b505181518290600090811061366457fe5b9060200190602002018181525050600260009054906101000a9004600160a060020a0316600160a060020a0316633bb66a7b8e6040518263ffffffff1660e060020a0281526004018082600160a060020a0316600160a060020a0316815260200191505060206040518083038186803b1580156136e057600080fd5b505afa1580156136f4573d6000803e3d6000fd5b505050506040513d602081101561370a57600080fd5b505181518290600190811061371b57fe5b6020908102909101015260608201515181518290600290811061373a57fe5b60209081029091010152608082015181518290600390811061375857fe5b9060200190602002018181525050816020015181600481518110151561377a57fe5b60209081029091010152604082015181518290600590811061379857fe5b9060200190602002018181525050600660009054906101000a9004600160a060020a0316600160a060020a031663c28a1af38e6040518263ffffffff1660e060020a0281526004018082600160a060020a0316600160a060020a0316815260200191505060206040518083038186803b15801561381457600080fd5b505afa158015613828573d6000803e3d6000fd5b505050506040513d602081101561383e57600080fd5b505181518290600690811061384f57fe5b9060200190602002018181525050600460009054906101000a9004600160a060020a0316600160a060020a0316630df2019a8e6040518263ffffffff1660e060020a0281526004018082600160a060020a0316600160a060020a0316815260200191505060206040518083038186803b1580156138cb57600080fd5b505afa1580156138df573d6000803e3d6000fd5b505050506040513d60208110156138f557600080fd5b505181518290600790811061390657fe5b9060200190602002018181525050600560009054906101000a9004600160a060020a0316600160a060020a031663c75355678e6040518263ffffffff1660e060020a0281526004018082600160a060020a0316600160a060020a0316815260200191505060206040518083038186803b15801561398257600080fd5b505afa158015613996573d6000803e3d6000fd5b505050506040513d60208110156139ac57600080fd5b50518151829060089081106139bd57fe5b9060200190602002018181525050600760009054906101000a9004600160a060020a0316600160a060020a0316634a6817878e6040518263ffffffff1660e060020a0281526004018082600160a060020a0316600160a060020a0316815260200191505060206040518083038186803b158015613a3957600080fd5b505afa158015613a4d573d6000803e3d6000fd5b505050506040513d6020811015613a6357600080fd5b5051815182906009908110613a7457fe5b60209081029091010152805181906000908110613a8d57fe5b90602001906020020151816001815181101515613aa657fe5b90602001906020020151826002815181101515613abf57fe5b90602001906020020151836003815181101515613ad857fe5b90602001906020020151846004815181101515613af157fe5b90602001906020020151856005815181101515613b0a57fe5b90602001906020020151866006815181101515613b2357fe5b90602001906020020151876007815181101515613b3c57fe5b90602001906020020151886008815181101515613b5557fe5b90602001906020020151896009815181101515613b6e57fe5b906020019060200201519b509b509b509b509b509b509b509b509b509b5050509193959799509193959799565b613ba36118bf565b1515613bae57600080fd5b613bb7816144be565b50565b600b546000908152600c602090815260408083203384529091529020600501547501000000000000000000000000000000000000000000900460ff1690565b6000821515613c0a575060006128e1565b828202828482811515613c1957fe5b0414613c2457600080fd5b9392505050565b6000808211613c3957600080fd5b60008284811515613c4657fe5b04949350505050565b600082821115613c5e57600080fd5b50900390565b600082820183811015613c2457600080fd5b613c7e6118bf565b1515613c8957600080fd5b600b546000908152600c60205260409020600a015460ff1615613cf6576040805160e560020a62461bcd02815260206004820152601e60248201527fe5bd93e5898de8bdaee6aca1e5b7b2e7bb8fe7bb93e7ae97e5ae8ce6af950000604482015290519081900360640190fd5b600b546000908152600c60205260409020600a0154610100900460ff1615613d68576040805160e560020a62461bcd02815260206004820152601b60248201527fe5bd93e5898de8bdaee6aca1e697a9e5b7b2e7bb8fe7bb93e69d9f0000000000604482015290519081900360640190fd5b600254600b546000818152600c6020526040902060070154600160a060020a039092169163deb72f1f91908590613dad9060649061123190601463ffffffff613bf916565b6040518463ffffffff1660e060020a0281526004018084815260200180602001838152602001828103825284818151815260200191508051906020019060200280838360005b83811015613e0b578181015183820152602001613df3565b50505050905001945050505050600060405180830381600087803b158015613e3257600080fd5b505af1158015613e46573d6000803e3d6000fd5b5050600254600b546000818152600c602052604090206007810154600160a060020a0390931694506384976e749350909160019091019073__UintUtils_____________________________9063669dafe890613eab9060649061123190600a613bf9565b6040518263ffffffff1660e060020a0281526004018082815260200191505060206040518083038186803b158015613ee257600080fd5b505af4158015613ef6573d6000803e3d6000fd5b505050506040513d6020811015613f0c57600080fd5b505160405160e060020a63ffffffff861602815260048101848152604482018390526060602483019081528454606484018190529192909160849091019085908015613f8157602002820191906000526020600020905b8154600160a060020a03168152600190910190602001808311613f63575b5050945050505050600060405180830381600087803b158015613fa357600080fd5b505af1158015613fb7573d6000803e3d6000fd5b5050600254600b546000818152600c6020526040902060070154600160a060020a03909216935063fd38f45b925090849073__UintUtils_____________________________9063669dafe89061401c9060649061123190600563ffffffff613bf916565b6040518263ffffffff1660e060020a0281526004018082815260200191505060206040518083038186803b15801561405357600080fd5b505af4158015614067573d6000803e3d6000fd5b505050506040513d602081101561407d57600080fd5b505160405160e060020a63ffffffff86160281526004810184815260448201839052606060248301908152845160648401528451919290916084909101906020868101910280838360005b838110156140e05781810151838201526020016140c8565b50505050905001945050505050600060405180830381600087803b15801561410757600080fd5b505af115801561411b573d6000803e3d6000fd5b505050505050565b600254600b546000908152600c60209081526040808320600781015460089091015482517f98e24c06000000000000000000000000000000000000000000000000000000008152600481019290925260248201529051600160a060020a03909416936398e24c0693604480840194938390030190829087803b1580156141a857600080fd5b505af11580156141bc573d6000803e3d6000fd5b505050506040513d60208110156141d257600080fd5b505115614217576040805160e560020a62461bcd02815260206004820152601260248201526000805160206145e5833981519152604482015290519081900360640190fd5b600b80546000908152600c6020526040808220600a908101805460ff1916600190811790915584548452828420909101805461ff00191661010017905583540190925560025482517fabdd11a80000000000000000000000000000000000000000000000000000000081524260048201529251600160a060020a039091169263abdd11a892602480830193919282900301818387803b1580156142b957600080fd5b505af11580156142cd573d6000803e3d6000fd5b5050600254600b54604080517f0d9907d9000000000000000000000000000000000000000000000000000000008152600481019290925251600160a060020a039092169350630d9907d992506024808201926020929091908290030181600087803b15801561433b57600080fd5b505af115801561434f573d6000803e3d6000fd5b505050506040513d602081101561436557600080fd5b5050600254604080517f8d8276be0000000000000000000000000000000000000000000000000000000081529051600160a060020a0390921691638d8276be91600480820192602092909190829003018186803b1580156143c557600080fd5b505afa1580156143d9573d6000803e3d6000fd5b505050506040513d60208110156143ef57600080fd5b5051600b546000908152600c6020526040902060020155565b600b80546000908152600c6020818152604080842033808652908352818520805473ffffffffffffffffffffffffffffffffffffffff19908116831790915586548652848452828620828752845282862060059081018054600160a060020a039a909a169990921698909817905594548452918152818320938352929092522001805474ff0000000000000000000000000000000000000000191674010000000000000000000000000000000000000000179055565b600160a060020a03811615156144d357600080fd5b60008054604051600160a060020a03808516939216917f8be0079c531659141344cd1fd0a4f28419497f9722a3daafe3b4186f6b6457e091a36000805473ffffffffffffffffffffffffffffffffffffffff1916600160a060020a0392909216919091179055565b60408051610140810182526000808252602082018190529181018290526060808201526080810182905260a0810182905260c0810182905260e0810182905261010081018290526101208101919091529056fee5bd93e5898de8bdaee6aca1e585b1e5bbba546f6b656ee5b7b2e7bb8fe8b6b3e5a49fe4ba86e585b1e5bbbae9a29de5baa6e5b7b2e8b685e8bf87e99990e9a29defbc8ce4b88de883bde7bba7e7bbade8bdace585a5e585b1e68cafe5b7b2e7bb8fe7bb93e69d9f0000000000000000000000000000e794a8e688b7e59ca8e5bd93e5898de8bdaee6aca1e5b7b2e7bb8fe68f90e58f96746f6b656ee5ae8ce68890e4b88de59ca8e585b1e5bbbae69c9fe586850000000000000000000000000000e794a8e688b7e59ca8e5bd93e5898de8bdaee6aca1e5b7b2e7bb8fe68f90e58f96455448e5ae8ce68890a165627a7a72305820307aa35f585877abedaf2b9882709233253fe4965b6aa9e4681b0f69029361be0029",
  "source": "pragma solidity >=0.4.21 <0.6.0;\n\nimport \"../node_modules/openzeppelin-solidity/contracts/math/SafeMath.sol\";\nimport \"../node_modules/openzeppelin-solidity/contracts/ownership/Ownable.sol\";\nimport \"./ABCToken.sol\";\nimport \"./UintUtils.sol\";\nimport \"./FissionReward.sol\";\nimport \"./FOMOReward.sol\";\nimport \"./LuckyReward.sol\";\nimport \"./FaithReward.sol\";\nimport \"./ResonanceDataManage.sol\";\n\n// TODO:token()\ncontract Resonance is Ownable{\n\n    using SafeMath for uint256;\n\n    // \n    // \n    event ToBeFissionPerson(address indexed fissionPerson, address indexed promoter);\n\n    event FundsInfo(uint256 currentStepTokenAmount, uint256 currentStepRaisedETH);\n    event BuildingPerioInfo(uint256 bpCountdown, uint256 remainingToken, uint256 personalTokenLimited, uint256 totalTokenAmount);\n    event FundingPeriodInfo(uint256 fpCountdown, uint256 remainingETH, uint256 rasiedETHAmount);\n\n    // \n    event FissionRewardInfo(address[] fissionRewardList, uint256[] fissionRewardAmount);\n    event FOMORewardInfo(address[] FOMORewardList, uint256[] FOMORewards);\n    event LuckyRewardInfo(address[] luckyRewardList, uint256 luckyReward);\n    event FaithRewardInfo(address[] faithRewardList, uint256[] faithRewardAmount);\n    event WithdrawAllETH(address addr, uint256 ETHAmount);\n    event WithdrawAllToken(address from, address to, uint256 tokenAmount);\n    event FunderInfo(uint256[] FunderInfoArray);\n    event StepFunders(\n        address[] funderAddress,\n        uint256[] funderTokenAmount,\n        uint256[] funderETHAmount,\n        uint256[] funderInvitees,\n        uint256[] funderEarnFromAff\n    );\n    event SettlementStep(uint256 stepIndex);\n\n    event StartNextStep(uint256 stepIndex);\n\n    event SetRaiseTarget(uint256 stepIndex, uint256 raiseTarget);\n\n    event GetResonances(address[] resonances);\n\n    event FunderTotalRaised(uint256 resonancesRasiedETH);\n\n    // \n    // ERC20\n    ABCToken public abcToken;\n\n    ResonanceDataManage resonanceDataManage;\n\n    // 60%\n    address payable private beneficiary;\n\n    // \n    struct Funder{\n        address funderAddr; // \n        uint256 tokenAmount; // token\n        uint256 ethAmount; // eth\n        address[] invitees; // \n        uint256 earnFromAff; // \n        address promoter; // \n        bool isBuilder; // /\n        bool isFunder; // \n        bool tokenHasWithdrawn; // Token\n        bool ETHHasWithdrawn; // ETH\n    }\n\n    // \n    struct Building{\n        uint256 openTokenAmount; // Token\n        uint256 personalTokenLimited;// token\n        uint256 raisedToken; // token\n        uint256 raisedTokenAmount; // Token\n    }\n\n    // \n    struct Funding{\n        uint256 raiseTarget; // ETH\n        uint256 raisedETH; // ETH\n    }\n\n    FissionReward fissionRewardInstance;\n    FOMOReward FOMORewardInstance;\n    LuckyReward luckyRewardInstance;\n    FaithReward faithRewardInstance;\n\n    // // \n    struct Step{\n        mapping(address => Funder) funder;// \n        address[] funders; // funders\n        Building building; // \n        Funding funding; // \n        uint256 softCap; // \n        uint256 hardCap; // \n        bool settlementFinished; // \n        bool stepIsClosed; // \n        uint256 blockNumber; // \n    }\n\n    // \n    address[] resonances;\n\n    // \n    mapping(address => uint256) resonancesRasiedETH;\n    mapping(address => uint256) resonancesRasiedToken;\n\n    uint256 public currentStep;\n\n    mapping(uint256 => Step) steps;\n\n    address initialFissionPerson; // \n\n    // \n    /// @notice \n    /// @param _abcToken Token\n    /// @param _beneficiary \n    /// @param _initialFissionPerson \n    constructor(\n        address _resonanceDataManageAddress,\n        ABCToken _abcToken,\n        address payable _beneficiary,\n        address _initialFissionPerson,\n        address _fassionRewardAddress,\n        address _FOMORewardAddress,\n        address _luckyRewardAddress,\n        address _faithRewardAddress\n    )\n        public\n    {\n        resonanceDataManage = ResonanceDataManage(_resonanceDataManageAddress);\n        // \n        fissionRewardInstance = FissionReward(_fassionRewardAddress);\n        FOMORewardInstance = FOMOReward(_FOMORewardAddress);\n        luckyRewardInstance = LuckyReward(_luckyRewardAddress);\n        faithRewardInstance = FaithReward(_faithRewardAddress);\n        currentStep = 0;\n        abcToken = _abcToken; // abc Token\n        beneficiary = _beneficiary; // \n        initialFissionPerson = _initialFissionPerson; // \n    }\n\n    /// @notice \n    /// @dev ResonanceDataManage\n    function allowAccess() public onlyOwner() {\n        resonanceDataManage.allowAccess(address(this));\n        resonanceDataManage.allowAccess(msg.sender);\n        resonanceDataManage.setOpeningTime(block.timestamp); // \n        steps[currentStep].building.openTokenAmount = UintUtils.toWei(1500000); // Token\n        resonanceDataManage.setParamForFirstStep();\n    }\n\n    /// @notice \n    /// @param promoter \n    /// @dev TokenApprove\n    function toBeFissionPerson(\n        address promoter\n    )\n        public\n        returns(address, address)\n    {\n        require(resonanceDataManage.isBuildingPeriod(), \"\");\n        require(!resonanceDataManage.getCrowdsaleClosed(), \"\");\n\n        require(steps[currentStep].funder[promoter].isBuilder,\"Builder\");\n\n        require(promoter != address(0), \"\");\n\n        // \n        require(abcToken.allowance(msg.sender, address(this)) >= UintUtils.toWei(8),\"\");\n\n        require(abcToken.transferFrom(msg.sender,address(this), UintUtils.toWei(8)),\"token\");\n\n        // 3\n        abcToken.burn(UintUtils.toWei(3));\n\n        // 5\n        abcToken.transfer(address(promoter), UintUtils.toWei(5));\n\n        steps[currentStep].funder[promoter].earnFromAff += UintUtils.toWei(5);\n\n        // \n        _addBuilder(promoter);\n\n        steps[currentStep].funder[promoter].invitees.push(msg.sender);\n\n        fissionRewardInstance.addAffman(currentStep, promoter, initialFissionPerson);\n\n        // emit ToBeFissionPerson(msg.sender, promoter);\n        return(msg.sender, promoter);\n    }\n\n    /// @notice \n    /// @dev \n    function setRaiseTarget(\n        uint256 _raiseTarget\n    )\n        public\n        onlyOwner()\n        returns(uint256, uint256)\n    {\n        require(resonanceDataManage.isBuildingPeriod(), \"\");\n        steps[currentStep].funding.raiseTarget = UintUtils.toWei(_raiseTarget);\n        // \n        steps[currentStep].softCap = UintUtils.toWei(steps[currentStep].funding.raiseTarget.mul(60).div(100));\n        steps[currentStep].hardCap = UintUtils.toWei(steps[currentStep].funding.raiseTarget);\n\n        // emit SetRaiseTarget(currentStep, _raiseTarget);\n        return(currentStep, _raiseTarget);\n    }\n\n    /// @notice \n    function getRaiseTarget(uint256 _stepIndex) public view returns(uint256) {\n        return steps[_stepIndex].funding.raiseTarget;\n    }\n\n    // token\n    function jointlyBuild(uint256 _tokenAmount) public {\n        require(resonanceDataManage.isBuildingPeriod(), \"\");\n\n        require(!resonanceDataManage.getCrowdsaleClosed(), \"\");\n\n        // builder\n        require(isBuilder(), \"Builder\");\n\n        // \n        require(steps[currentStep].building.raisedToken.add(_tokenAmount) < steps[currentStep].building.openTokenAmount, \"Token\");\n\n        // \n        require(\n            steps[currentStep].funder[msg.sender].tokenAmount.add(_tokenAmount) < steps[currentStep].building.personalTokenLimited,\n            \"\"\n        );\n\n        // \n        require(abcToken.allowance(msg.sender, address(this)) >= UintUtils.toWei(_tokenAmount),\"\");\n\n        // \n        require(abcToken.transferFrom(msg.sender,address(this), UintUtils.toWei(_tokenAmount)),\"token\");\n\n        steps[currentStep].funder[msg.sender].tokenAmount += UintUtils.toWei(_tokenAmount);\n\n        // TokenToken\n        steps[currentStep].building.openTokenAmount -= UintUtils.toWei(_tokenAmount);\n\n        // Token\n        resonanceDataManage.setFundsPool(resonanceDataManage.getFundsPool() - UintUtils.toWei(_tokenAmount));\n\n        // \n        resonancesRasiedToken[msg.sender] += _tokenAmount;\n\n        // token\n        steps[currentStep].building.raisedToken += _tokenAmount;\n    }\n\n    // \n    // \n    function ()\n        external\n        payable\n    {\n        require(resonanceDataManage.isFundingPeriod(), \"\");\n\n        require(!resonanceDataManage.getCrowdsaleClosed(), \"\");\n        uint amount = msg.value;\n        steps[currentStep].funder[msg.sender].ethAmount = amount;\n        steps[currentStep].funder[msg.sender].isFunder = true;\n        steps[currentStep].funding.raisedETH += amount;\n        resonances.push(msg.sender);\n        resonancesRasiedETH[msg.sender] += amount;\n    }\n\n    /// @notice \n    /// @dev \n    /// @param _fissionWinnerList \n    /// @param _LuckyWinnerList \n    function settlementStep(\n        address[] memory _fissionWinnerList,\n        address[] memory _LuckyWinnerList\n    )\n        public\n        onlyOwner()\n        returns(bool)\n    {\n        // \n        _settlementReward(_fissionWinnerList, _LuckyWinnerList);\n        // \n        resonanceDataManage.setETHBalance(\n            beneficiary,\n            resonanceDataManage.getETHBalance(beneficiary) + UintUtils.toWei(steps[currentStep].funding.raisedETH.mul(60).div(100))\n        );\n        // emit SettlementStep(currentStep);\n\n        if(resonanceDataManage.getCrowdsaleClosed()) {\n            return true;\n        }else{\n            // \n            _startNextStep();\n            return false;\n        }\n    }\n\n    /// @notice \n    /// @param _FaithWinnerList \n    function settlementFaithReward(\n        address[] memory _FaithWinnerList\n    )\n        public\n        onlyOwner()\n        returns(bool)\n    {\n        require(resonanceDataManage.getCrowdsaleClosed(), \"\");\n        return resonanceDataManage.dmSettlementFaithReward(\n            _FaithWinnerList,\n            UintUtils.toWei(steps[currentStep].funding.raisedETH.mul(5).div(100))\n        );\n    }\n\n    /// @notice FOMO\n    /// @dev \n    // \n    // \n    function _settlementReward(\n        address[] memory _fissionWinnerList,\n        address[] memory _LuckyWinnerList\n    )\n        internal\n        onlyOwner()\n    {\n        require(!steps[currentStep].settlementFinished, \"\");\n        require(!steps[currentStep].stepIsClosed, \"\");\n\n        resonanceDataManage.settlementFissionReward(\n            currentStep,\n            _fissionWinnerList,\n            steps[currentStep].funding.raisedETH.mul(20).div(100)\n        );\n\n        resonanceDataManage.settlementFOMOReward(\n            currentStep,\n            steps[currentStep].funders,\n            UintUtils.toWei(steps[currentStep].funding.raisedETH.mul(10).div(100))\n        );\n\n        resonanceDataManage.settlementLuckyReward(\n            currentStep,\n            _LuckyWinnerList,\n            UintUtils.toWei(steps[currentStep].funding.raisedETH.mul(5).div(100))\n        );\n    }\n\n    /// \n    function _startNextStep()\n        internal\n    {\n        // \n        require(!resonanceDataManage.crowdsaleIsClosed(steps[currentStep].funding.raisedETH, steps[currentStep].softCap), \"\");\n        // step\n        steps[currentStep].settlementFinished = true;\n        // \n        steps[currentStep].stepIsClosed = true;\n        // \n        currentStep++;\n        // \n        resonanceDataManage.setOpeningTime(block.timestamp);\n        // Token\n        resonanceDataManage.updateBuildingPercent(currentStep);\n\n        steps[currentStep].building.openTokenAmount = resonanceDataManage.getBuildingTokenAmount();\n        // TODO:\n        // emit StartNextStep(currentStep);\n    }\n\n    /// @notice tokentoken\n    function withdrawAllToken()\n        public\n        payable\n        returns(address, address, uint256)\n    {\n        require(!steps[currentStep].funder[msg.sender].tokenHasWithdrawn, \"token\");\n        uint256 withdrawAmount = resonanceDataManage.withdrawTokenAmount(msg.sender);\n        resonanceDataManage.emptyTokenBalance();\n        steps[currentStep].funder[msg.sender].tokenHasWithdrawn = true;\n        abcToken.transferFrom(address(this), msg.sender, withdrawAmount);\n        // emit WithdrawAllToken(address(this), msg.sender, withdrawAmount);\n        return(address(this), msg.sender, withdrawAmount);\n    }\n\n    /// @notice (ETH)\n    function withdrawAllETH()\n        public\n        payable\n        returns(address, uint256)\n    {\n        require(!steps[currentStep].funder[msg.sender].ETHHasWithdrawn, \"ETH\");\n        uint256 withdrawAmount = resonanceDataManage.withdrawETHAmount(msg.sender);\n        resonanceDataManage.emptyETHBalance();\n        steps[currentStep].funder[msg.sender].ETHHasWithdrawn = true;\n        msg.sender.transfer(withdrawAmount);\n        // emit WithdrawAllETH(msg.sender, withdrawAmount);\n        return(msg.sender, withdrawAmount);\n    }\n\n    /// @notice \n    /// @dev jointlyBuildtoBeFissionPerson\n    function isBuilder() public view returns(bool) {\n        return steps[currentStep].funder[msg.sender].isBuilder;\n    }\n\n    /// @notice \n    function isFunder() public view returns(bool) {\n        return steps[currentStep].funder[msg.sender].isFunder;\n    }\n\n    /// @notice \n    function getResonances()\n        public\n        view\n        onlyOwner()\n        returns(address[] memory)\n    {\n        // emit GetResonances(resonances);\n        return(resonances);\n    }\n\n    /// @notice ETH\n    function getFunderTotalRaised(address _funder) public view onlyOwner() returns(uint256){\n        // emit FunderTotalRaised(resonancesRasiedETH[_funder]);\n        return resonancesRasiedETH[_funder];\n    }\n\n    /// @notice funders\n    /// @dev funders\n    /// @param _stepIndex \n    function getStepFunders(uint256 _stepIndex)\n        public\n        view\n        onlyOwner()\n        returns\n    (\n            address[] memory,\n            uint256[] memory,\n            uint256[] memory,\n            uint256[] memory,\n            uint256[] memory\n    )\n    {\n        address[] memory funderAddress;\n        uint256[] memory funderTokenAmount;\n        uint256[] memory funderETHAmount;\n        uint256[] memory funderInvitees;\n        uint256[] memory earnFromAff;\n\n        funderAddress = steps[_stepIndex].funders;\n\n        for(uint i = 0 ; i < funderAddress.length; i++){\n            funderTokenAmount[i] = steps[_stepIndex].funder[funderAddress[i]].tokenAmount;\n            funderETHAmount[i] = steps[_stepIndex].funder[funderAddress[i]].ethAmount;\n            funderInvitees[i] = steps[_stepIndex].funder[funderAddress[i]].invitees.length;\n            earnFromAff[i] = steps[currentStep].funder[funderAddress[i]].earnFromAff;\n        }\n\n        // emit StepFunders(funderAddress, funderTokenAmount, funderETHAmount, funderInvitees, earnFromAff);\n        return (funderAddress, funderTokenAmount, funderETHAmount, funderInvitees, earnFromAff);\n    }\n\n    /// @notice tokenETH\n    function getCurrentStepFundsInfo()\n        public\n        view\n        onlyOwner()\n        returns(uint256, uint256, uint256)\n    {\n        // emit FundsInfo(steps[currentStep].building.openTokenAmount, steps[currentStep].funding.raisedETH);\n        return(currentStep, steps[currentStep].building.openTokenAmount, steps[currentStep].funding.raisedETH);\n    }\n\n    /// @notice \n    function getBuildingPerioInfo()\n        public\n        view\n        onlyOwner()\n        returns(uint256, uint256, uint256, uint256)\n    {\n        require(resonanceDataManage.isBuildingPeriod(), \"\");\n        uint256 _bpCountdown;\n        uint256 _remainingToken;\n        uint256 _personalTokenLimited;\n        uint256 _totalTokenAmount;\n\n        _bpCountdown = (resonanceDataManage.getOpeningTime() + 8 hours) - block.timestamp;\n        _remainingToken = steps[currentStep].building.openTokenAmount.sub(steps[currentStep].building.raisedToken);\n        _personalTokenLimited = steps[currentStep].building.personalTokenLimited;\n        _totalTokenAmount = steps[currentStep].building.raisedTokenAmount;\n        // emit BuildingPerioInfo(_bpCountdown, _remainingToken, _personalTokenLimited, _totalTokenAmount);\n        return(_bpCountdown, _remainingToken, _personalTokenLimited, _totalTokenAmount);\n    }\n\n    // \n    function getFundingPeriodInfo()\n        public\n        view\n        onlyOwner()\n        returns(uint256, uint256, uint256)\n    {\n        require(resonanceDataManage.isFundingPeriod(), \"\");\n\n        uint256 _fpCountdown;\n        uint256 _remainingETH;\n        uint256 _rasiedETHAmount;\n\n        _fpCountdown = (resonanceDataManage.getOpeningTime() + 24) - block.timestamp;\n        _remainingETH = steps[currentStep].funding.raiseTarget.sub(steps[currentStep].funding.raisedETH);\n        _rasiedETHAmount = steps[currentStep].funding.raisedETH;\n        // emit FundingPeriodInfo(_fpCountdown, _remainingETH, _rasiedETHAmount);\n        return(_fpCountdown, _remainingETH, _rasiedETHAmount);\n    }\n\n    /// @notice \n    function getFunderInfo(address _funder)\n        public\n        view\n        onlyOwner()\n        returns\n    (\n        uint256,\n        uint256,\n        uint256,\n        uint256,\n        uint256,\n        uint256,\n        uint256,\n        uint256,\n        uint256,\n        uint256\n    )\n\n    {\n        Funder memory funder = steps[currentStep].funder[_funder];\n\n        uint256[] memory funderInfo;\n\n        funderInfo[0] = resonanceDataManage.getTokenBalance(_funder);\n        funderInfo[1] = resonanceDataManage.getETHBalance(_funder);\n        funderInfo[2] = funder.invitees.length;\n        funderInfo[3] = funder.earnFromAff;\n        funderInfo[4] = funder.tokenAmount;\n        funderInfo[5] = funder.ethAmount;\n        funderInfo[6] = luckyRewardInstance.luckyFunderTotalBalance(_funder);\n        funderInfo[7] = fissionRewardInstance.fissionFunderTotalBalance(_funder);\n        funderInfo[8] = FOMORewardInstance.FOMOFunderTotalBalance(_funder);\n        funderInfo[9] = faithRewardInstance.faithRewardAmount(_funder);\n\n        // emit FunderInfo(funderInfo);\n        return(\n            funderInfo[0],\n            funderInfo[1],\n            funderInfo[2],\n            funderInfo[3],\n            funderInfo[4],\n            funderInfo[5],\n            funderInfo[6],\n            funderInfo[7],\n            funderInfo[8],\n            funderInfo[9]\n        );\n    }\n\n    /// @notice \n    /// @param _promoter msg.sender\n    function _addBuilder(address _promoter) internal {\n        // \n        steps[currentStep].funder[msg.sender].funderAddr = msg.sender;\n        steps[currentStep].funder[msg.sender].promoter = _promoter;\n        steps[currentStep].funder[msg.sender].isBuilder = true;\n    }\n\n    /// @notice \n    function Beneficiary() public view returns(address payable) {\n        return beneficiary;\n    }\n\n    /// @notice hash\n    function getBlockHash() public view returns(bytes32 blockHash) {\n        return blockhash(steps[currentStep].blockNumber.add(1));\n    }\n\n}",
  "sourcePath": "/Users/a186r/dev/sourcecode/contracts/contract/contract/contracts/Resonance.sol",
  "compiler": {
    "name": "solc",
    "version": "0.5.2+commit.1df8f40c.Emscripten.clang"
  },
  "schemaVersion": "3.0.6",
  "updatedAt": "2019-05-27T06:57:37.061Z",
  "devdoc": {
    "methods": {
      "allowAccess()": {
        "details": "ResonanceDataManage"
      },
      "constructor": {
        "params": {
          "_abcToken": "Token",
          "_beneficiary": "",
          "_initialFissionPerson": ""
        }
      },
      "getStepFunders(uint256)": {
        "details": "funders",
        "params": {
          "_stepIndex": ""
        }
      },
      "isBuilder()": {
        "details": "jointlyBuildtoBeFissionPerson"
      },
      "isOwner()": {
        "return": "true if `msg.sender` is the owner of the contract."
      },
      "owner()": {
        "return": "the address of the owner."
      },
      "renounceOwnership()": {
        "details": "Allows the current owner to relinquish control of the contract. It will not be possible to call the functions with the `onlyOwner` modifier anymore."
      },
      "setRaiseTarget(uint256)": {
        "details": ""
      },
      "settlementFaithReward(address[])": {
        "params": {
          "_FaithWinnerList": ""
        }
      },
      "settlementStep(address[],address[])": {
        "details": "",
        "params": {
          "_LuckyWinnerList": "",
          "_fissionWinnerList": ""
        }
      },
      "toBeFissionPerson(address)": {
        "details": "TokenApprove",
        "params": {
          "promoter": ""
        }
      },
      "transferOwnership(address)": {
        "details": "Allows the current owner to transfer control of the contract to a newOwner.",
        "params": {
          "newOwner": "The address to transfer ownership to."
        }
      }
    }
  },
  "userdoc": {
    "methods": {
      "Beneficiary()": {
        "notice": ""
      },
      "allowAccess()": {
        "notice": ""
      },
      "constructor": "",
      "getBlockHash()": {
        "notice": "hash"
      },
      "getBuildingPerioInfo()": {
        "notice": ""
      },
      "getCurrentStepFundsInfo()": {
        "notice": "tokenETH"
      },
      "getFunderInfo(address)": {
        "notice": ""
      },
      "getFunderTotalRaised(address)": {
        "notice": "ETH"
      },
      "getRaiseTarget(uint256)": {
        "notice": ""
      },
      "getResonances()": {
        "notice": ""
      },
      "getStepFunders(uint256)": {
        "notice": "funders"
      },
      "isBuilder()": {
        "notice": ""
      },
      "isFunder()": {
        "notice": ""
      },
      "renounceOwnership()": {
        "notice": "Renouncing ownership will leave the contract without an owner, thereby removing any functionality that is only available to the owner."
      },
      "setRaiseTarget(uint256)": {
        "notice": ""
      },
      "settlementFaithReward(address[])": {
        "notice": ""
      },
      "settlementStep(address[],address[])": {
        "notice": ""
      },
      "toBeFissionPerson(address)": {
        "notice": ""
      },
      "withdrawAllETH()": {
        "notice": "(ETH)"
      },
      "withdrawAllToken()": {
        "notice": "tokentoken"
      }
    }
  }
}