{
  "contractName": "Resonance",
  "abi": [
    {
      "constant": true,
      "inputs": [],
      "name": "beneficiary",
      "outputs": [
        {
          "name": "",
          "type": "address"
        }
      ],
      "payable": false,
      "stateMutability": "view",
      "type": "function",
      "signature": "0x38af3eed"
    },
    {
      "constant": true,
      "inputs": [],
      "name": "currentStep",
      "outputs": [
        {
          "name": "",
          "type": "uint256"
        }
      ],
      "payable": false,
      "stateMutability": "view",
      "type": "function",
      "signature": "0x5bc34f71"
    },
    {
      "constant": false,
      "inputs": [],
      "name": "renounceOwnership",
      "outputs": [],
      "payable": false,
      "stateMutability": "nonpayable",
      "type": "function",
      "signature": "0x715018a6"
    },
    {
      "constant": true,
      "inputs": [],
      "name": "owner",
      "outputs": [
        {
          "name": "",
          "type": "address"
        }
      ],
      "payable": false,
      "stateMutability": "view",
      "type": "function",
      "signature": "0x8da5cb5b"
    },
    {
      "constant": true,
      "inputs": [],
      "name": "isOwner",
      "outputs": [
        {
          "name": "",
          "type": "bool"
        }
      ],
      "payable": false,
      "stateMutability": "view",
      "type": "function",
      "signature": "0x8f32d59b"
    },
    {
      "constant": true,
      "inputs": [],
      "name": "initialFissionPerson",
      "outputs": [
        {
          "name": "",
          "type": "address"
        }
      ],
      "payable": false,
      "stateMutability": "view",
      "type": "function",
      "signature": "0x90fa85f8"
    },
    {
      "constant": true,
      "inputs": [],
      "name": "totalETHFromParty",
      "outputs": [
        {
          "name": "",
          "type": "uint256"
        }
      ],
      "payable": false,
      "stateMutability": "view",
      "type": "function",
      "signature": "0x9642a86b"
    },
    {
      "constant": true,
      "inputs": [],
      "name": "firstParamInitialized",
      "outputs": [
        {
          "name": "",
          "type": "bool"
        }
      ],
      "payable": false,
      "stateMutability": "view",
      "type": "function",
      "signature": "0xc2cb21ba"
    },
    {
      "constant": true,
      "inputs": [
        {
          "name": "",
          "type": "uint256"
        }
      ],
      "name": "tokenTransfered",
      "outputs": [
        {
          "name": "",
          "type": "bool"
        }
      ],
      "payable": false,
      "stateMutability": "view",
      "type": "function",
      "signature": "0xde45dbd5"
    },
    {
      "constant": true,
      "inputs": [],
      "name": "abcToken",
      "outputs": [
        {
          "name": "",
          "type": "address"
        }
      ],
      "payable": false,
      "stateMutability": "view",
      "type": "function",
      "signature": "0xe7574128"
    },
    {
      "constant": false,
      "inputs": [
        {
          "name": "newOwner",
          "type": "address"
        }
      ],
      "name": "transferOwnership",
      "outputs": [],
      "payable": false,
      "stateMutability": "nonpayable",
      "type": "function",
      "signature": "0xf2fde38b"
    },
    {
      "inputs": [
        {
          "name": "_resonanceDataManageAddress",
          "type": "address"
        },
        {
          "name": "_abcToken",
          "type": "address"
        },
        {
          "name": "_fassionRewardAddress",
          "type": "address"
        },
        {
          "name": "_FOMORewardAddress",
          "type": "address"
        },
        {
          "name": "_luckyRewardAddress",
          "type": "address"
        },
        {
          "name": "_faithRewardAddress",
          "type": "address"
        }
      ],
      "payable": false,
      "stateMutability": "nonpayable",
      "type": "constructor",
      "signature": "constructor"
    },
    {
      "payable": true,
      "stateMutability": "payable",
      "type": "fallback"
    },
    {
      "anonymous": false,
      "inputs": [
        {
          "indexed": true,
          "name": "fissionPerson",
          "type": "address"
        },
        {
          "indexed": true,
          "name": "promoter",
          "type": "address"
        }
      ],
      "name": "ToBeFissionPerson",
      "type": "event",
      "signature": "0x95b9b14e81807a19f0d780820ad803eba32584f0671e1410f6815a83e75d4ef7"
    },
    {
      "anonymous": false,
      "inputs": [
        {
          "indexed": false,
          "name": "currentStepTokenAmount",
          "type": "uint256"
        },
        {
          "indexed": false,
          "name": "currentStepRaisedETH",
          "type": "uint256"
        }
      ],
      "name": "FundsInfo",
      "type": "event",
      "signature": "0xefb17818fcd18149842dc8ec26c8d51b1f7cd86669024d8ad385c95727e301b2"
    },
    {
      "anonymous": false,
      "inputs": [
        {
          "indexed": false,
          "name": "bpCountdown",
          "type": "uint256"
        },
        {
          "indexed": false,
          "name": "remainingToken",
          "type": "uint256"
        },
        {
          "indexed": false,
          "name": "personalTokenLimited",
          "type": "uint256"
        },
        {
          "indexed": false,
          "name": "totalTokenAmount",
          "type": "uint256"
        }
      ],
      "name": "BuildingPerioInfo",
      "type": "event",
      "signature": "0xe11de7dbf210471e3fa9c2ce8526b79b1202a34755ab39aa0ee452e2de7dd9e3"
    },
    {
      "anonymous": false,
      "inputs": [
        {
          "indexed": false,
          "name": "fpCountdown",
          "type": "uint256"
        },
        {
          "indexed": false,
          "name": "remainingETH",
          "type": "uint256"
        },
        {
          "indexed": false,
          "name": "rasiedETHAmount",
          "type": "uint256"
        }
      ],
      "name": "FundingPeriodInfo",
      "type": "event",
      "signature": "0xae8973493d4c3e41a9615da7dbb45a3e85e217ab826ebf232f236520f89ce5bd"
    },
    {
      "anonymous": false,
      "inputs": [
        {
          "indexed": false,
          "name": "fissionRewardList",
          "type": "address[]"
        },
        {
          "indexed": false,
          "name": "fissionRewardAmount",
          "type": "uint256[]"
        }
      ],
      "name": "FissionRewardInfo",
      "type": "event",
      "signature": "0x9c8d21d9775b290867a96ccd228b84fc35453ac06e714f5717f74c84dd962d7e"
    },
    {
      "anonymous": false,
      "inputs": [
        {
          "indexed": false,
          "name": "FOMORewardList",
          "type": "address[]"
        },
        {
          "indexed": false,
          "name": "FOMORewards",
          "type": "uint256[]"
        }
      ],
      "name": "FOMORewardInfo",
      "type": "event",
      "signature": "0x6b6aaf38bd1fe94894a8361f3d343ec41c4c18c8cde782e6c3a7d98f64a60a37"
    },
    {
      "anonymous": false,
      "inputs": [
        {
          "indexed": false,
          "name": "luckyRewardList",
          "type": "address[]"
        },
        {
          "indexed": false,
          "name": "luckyReward",
          "type": "uint256"
        }
      ],
      "name": "LuckyRewardInfo",
      "type": "event",
      "signature": "0xdb5afb48b961706eba89e5cf3ab5ae37dc9c360703069de0c2a6669f7e0f4b31"
    },
    {
      "anonymous": false,
      "inputs": [
        {
          "indexed": false,
          "name": "faithRewardList",
          "type": "address[]"
        },
        {
          "indexed": false,
          "name": "faithRewardAmount",
          "type": "uint256[]"
        }
      ],
      "name": "FaithRewardInfo",
      "type": "event",
      "signature": "0xe7e0e5e0f865e7ed55d089ae13321715f110f39374632f8891058404d5955916"
    },
    {
      "anonymous": false,
      "inputs": [
        {
          "indexed": false,
          "name": "addr",
          "type": "address"
        },
        {
          "indexed": false,
          "name": "ETHAmount",
          "type": "uint256"
        }
      ],
      "name": "WithdrawAllETH",
      "type": "event",
      "signature": "0x293d21fe426f090ce1ced07545832d833ba5245d1ca5dab39eedd683bcb26c71"
    },
    {
      "anonymous": false,
      "inputs": [
        {
          "indexed": false,
          "name": "from",
          "type": "address"
        },
        {
          "indexed": false,
          "name": "to",
          "type": "address"
        },
        {
          "indexed": false,
          "name": "tokenAmount",
          "type": "uint256"
        }
      ],
      "name": "WithdrawAllToken",
      "type": "event",
      "signature": "0x28982effc9f4b6c367af5f071929850b9e3a7f3cec08b9ea2d139ab3606b8169"
    },
    {
      "anonymous": false,
      "inputs": [
        {
          "indexed": false,
          "name": "FunderInfoArray",
          "type": "uint256[]"
        }
      ],
      "name": "FunderInfo",
      "type": "event",
      "signature": "0x04c808a514c1dafc38d056ce8d726701d153e5560559e9a2cbd4a698fc57dbc9"
    },
    {
      "anonymous": false,
      "inputs": [
        {
          "indexed": false,
          "name": "funderAddress",
          "type": "address[]"
        },
        {
          "indexed": false,
          "name": "funderTokenAmount",
          "type": "uint256[]"
        },
        {
          "indexed": false,
          "name": "funderETHAmount",
          "type": "uint256[]"
        },
        {
          "indexed": false,
          "name": "funderInvitees",
          "type": "uint256[]"
        },
        {
          "indexed": false,
          "name": "funderEarnFromAff",
          "type": "uint256[]"
        }
      ],
      "name": "StepFunders",
      "type": "event",
      "signature": "0x3b87f7808c5ab95853c64302b46442fcc67c01ce3ca71e707da509a4100e6afc"
    },
    {
      "anonymous": false,
      "inputs": [
        {
          "indexed": false,
          "name": "stepIndex",
          "type": "uint256"
        }
      ],
      "name": "SettlementStep",
      "type": "event",
      "signature": "0x884a42ea07d12dfb8a666018fad8dc91f2752bdabafca21fc534fefc1305355f"
    },
    {
      "anonymous": false,
      "inputs": [
        {
          "indexed": false,
          "name": "stepIndex",
          "type": "uint256"
        }
      ],
      "name": "StartNextStep",
      "type": "event",
      "signature": "0xeb4f8ce27ee2f036ff2d0bc02908be44cba9da8349185d0b9f996732fb77f07e"
    },
    {
      "anonymous": false,
      "inputs": [
        {
          "indexed": false,
          "name": "stepIndex",
          "type": "uint256"
        },
        {
          "indexed": false,
          "name": "raiseTarget",
          "type": "uint256"
        }
      ],
      "name": "SetRaiseTarget",
      "type": "event",
      "signature": "0xa0065ef53daacd0859dd1ca5cdda1a90bd236db58dc67e1c6c9888afb8b7c934"
    },
    {
      "anonymous": false,
      "inputs": [
        {
          "indexed": false,
          "name": "resonances",
          "type": "address[]"
        }
      ],
      "name": "GetResonances",
      "type": "event",
      "signature": "0x239ea09ed3b2c5ca6c811a840e58b3dc40f4591da5f559b32893f99e968b419c"
    },
    {
      "anonymous": false,
      "inputs": [
        {
          "indexed": false,
          "name": "resonancesRasiedETH",
          "type": "uint256"
        }
      ],
      "name": "FunderTotalRaised",
      "type": "event",
      "signature": "0x33bd212310efc1b994689137ddaaea56136d0cb5b0491d1eb3b4cc3fce4428c1"
    },
    {
      "anonymous": false,
      "inputs": [
        {
          "indexed": true,
          "name": "previousOwner",
          "type": "address"
        },
        {
          "indexed": true,
          "name": "newOwner",
          "type": "address"
        }
      ],
      "name": "OwnershipTransferred",
      "type": "event",
      "signature": "0x8be0079c531659141344cd1fd0a4f28419497f9722a3daafe3b4186f6b6457e0"
    },
    {
      "constant": false,
      "inputs": [
        {
          "name": "_newOwner",
          "type": "address"
        },
        {
          "name": "_beneficiary",
          "type": "address"
        },
        {
          "name": "_initialFissionPerson",
          "type": "address"
        }
      ],
      "name": "initParamForFirstStep",
      "outputs": [],
      "payable": false,
      "stateMutability": "nonpayable",
      "type": "function",
      "signature": "0xd50cf02d"
    },
    {
      "constant": false,
      "inputs": [
        {
          "name": "promoter",
          "type": "address"
        }
      ],
      "name": "toBeFissionPerson",
      "outputs": [
        {
          "name": "",
          "type": "address"
        },
        {
          "name": "",
          "type": "address"
        }
      ],
      "payable": false,
      "stateMutability": "nonpayable",
      "type": "function",
      "signature": "0xde3844ff"
    },
    {
      "constant": false,
      "inputs": [
        {
          "name": "_raiseTarget",
          "type": "uint256"
        }
      ],
      "name": "setRaiseTarget",
      "outputs": [
        {
          "name": "",
          "type": "uint256"
        },
        {
          "name": "",
          "type": "uint256"
        }
      ],
      "payable": false,
      "stateMutability": "nonpayable",
      "type": "function",
      "signature": "0x4559ff9b"
    },
    {
      "constant": true,
      "inputs": [
        {
          "name": "_stepIndex",
          "type": "uint256"
        }
      ],
      "name": "getRaiseTarget",
      "outputs": [
        {
          "name": "",
          "type": "uint256"
        }
      ],
      "payable": false,
      "stateMutability": "view",
      "type": "function",
      "signature": "0xdb27cf61"
    },
    {
      "constant": false,
      "inputs": [
        {
          "name": "_tokenAmount",
          "type": "uint256"
        }
      ],
      "name": "jointlyBuild",
      "outputs": [],
      "payable": false,
      "stateMutability": "nonpayable",
      "type": "function",
      "signature": "0xb4862a71"
    },
    {
      "constant": false,
      "inputs": [],
      "name": "transferToken",
      "outputs": [
        {
          "name": "",
          "type": "bool"
        }
      ],
      "payable": true,
      "stateMutability": "payable",
      "type": "function",
      "signature": "0x799a5359"
    },
    {
      "constant": false,
      "inputs": [
        {
          "name": "_fissionWinnerList",
          "type": "address[]"
        },
        {
          "name": "_LuckyWinnerList",
          "type": "address[]"
        }
      ],
      "name": "settlementStep",
      "outputs": [
        {
          "name": "",
          "type": "bool"
        }
      ],
      "payable": false,
      "stateMutability": "nonpayable",
      "type": "function",
      "signature": "0xb5ac72b5"
    },
    {
      "constant": false,
      "inputs": [
        {
          "name": "_FaithWinnerList",
          "type": "address[]"
        }
      ],
      "name": "settlementFaithReward",
      "outputs": [
        {
          "name": "",
          "type": "bool"
        }
      ],
      "payable": false,
      "stateMutability": "nonpayable",
      "type": "function",
      "signature": "0x5deac38b"
    },
    {
      "constant": false,
      "inputs": [],
      "name": "withdrawAllToken",
      "outputs": [
        {
          "name": "",
          "type": "address"
        },
        {
          "name": "",
          "type": "address"
        },
        {
          "name": "",
          "type": "uint256"
        }
      ],
      "payable": true,
      "stateMutability": "payable",
      "type": "function",
      "signature": "0x14870d2c"
    },
    {
      "constant": false,
      "inputs": [],
      "name": "withdrawAllETH",
      "outputs": [
        {
          "name": "",
          "type": "address"
        },
        {
          "name": "",
          "type": "uint256"
        }
      ],
      "payable": true,
      "stateMutability": "payable",
      "type": "function",
      "signature": "0x90386bbf"
    },
    {
      "constant": true,
      "inputs": [],
      "name": "isBuilder",
      "outputs": [
        {
          "name": "",
          "type": "bool"
        }
      ],
      "payable": false,
      "stateMutability": "view",
      "type": "function",
      "signature": "0x54b94615"
    },
    {
      "constant": true,
      "inputs": [],
      "name": "isFunder",
      "outputs": [
        {
          "name": "",
          "type": "bool"
        }
      ],
      "payable": false,
      "stateMutability": "view",
      "type": "function",
      "signature": "0xfeaec775"
    },
    {
      "constant": true,
      "inputs": [],
      "name": "getResonances",
      "outputs": [
        {
          "name": "",
          "type": "address[]"
        }
      ],
      "payable": false,
      "stateMutability": "view",
      "type": "function",
      "signature": "0x891d7e79"
    },
    {
      "constant": true,
      "inputs": [
        {
          "name": "_funder",
          "type": "address"
        }
      ],
      "name": "getFunderTotalRaised",
      "outputs": [
        {
          "name": "",
          "type": "uint256"
        }
      ],
      "payable": false,
      "stateMutability": "view",
      "type": "function",
      "signature": "0xe15ce927"
    },
    {
      "constant": true,
      "inputs": [
        {
          "name": "_stepIndex",
          "type": "uint256"
        }
      ],
      "name": "getStepFunders",
      "outputs": [
        {
          "name": "",
          "type": "address[]"
        },
        {
          "name": "",
          "type": "uint256[]"
        },
        {
          "name": "",
          "type": "uint256[]"
        },
        {
          "name": "",
          "type": "uint256[]"
        },
        {
          "name": "",
          "type": "uint256[]"
        }
      ],
      "payable": false,
      "stateMutability": "view",
      "type": "function",
      "signature": "0x16b29746"
    },
    {
      "constant": true,
      "inputs": [],
      "name": "getCurrentStepFundsInfo",
      "outputs": [
        {
          "name": "",
          "type": "uint256"
        },
        {
          "name": "",
          "type": "uint256"
        },
        {
          "name": "",
          "type": "uint256"
        }
      ],
      "payable": false,
      "stateMutability": "view",
      "type": "function",
      "signature": "0x912c84ec"
    },
    {
      "constant": true,
      "inputs": [],
      "name": "getBuildingPerioInfo",
      "outputs": [
        {
          "name": "",
          "type": "uint256"
        },
        {
          "name": "",
          "type": "uint256"
        },
        {
          "name": "",
          "type": "uint256"
        },
        {
          "name": "",
          "type": "uint256"
        }
      ],
      "payable": false,
      "stateMutability": "view",
      "type": "function",
      "signature": "0x64ab07fa"
    },
    {
      "constant": true,
      "inputs": [],
      "name": "getFundingPeriodInfo",
      "outputs": [
        {
          "name": "",
          "type": "uint256"
        },
        {
          "name": "",
          "type": "uint256"
        },
        {
          "name": "",
          "type": "uint256"
        }
      ],
      "payable": false,
      "stateMutability": "view",
      "type": "function",
      "signature": "0xc12cd1bc"
    },
    {
      "constant": true,
      "inputs": [],
      "name": "getFunderInfo",
      "outputs": [
        {
          "name": "",
          "type": "uint256"
        },
        {
          "name": "",
          "type": "uint256"
        },
        {
          "name": "",
          "type": "uint256"
        },
        {
          "name": "",
          "type": "uint256"
        },
        {
          "name": "",
          "type": "uint256"
        },
        {
          "name": "",
          "type": "uint256"
        },
        {
          "name": "",
          "type": "uint256"
        },
        {
          "name": "",
          "type": "uint256"
        },
        {
          "name": "",
          "type": "uint256"
        },
        {
          "name": "",
          "type": "uint256"
        }
      ],
      "payable": false,
      "stateMutability": "view",
      "type": "function",
      "signature": "0xa6371829"
    },
    {
      "constant": true,
      "inputs": [],
      "name": "getBlockHash",
      "outputs": [
        {
          "name": "blockHash",
          "type": "bytes32"
        }
      ],
      "payable": false,
      "stateMutability": "view",
      "type": "function",
      "signature": "0x9663f88f"
    },
    {
      "constant": true,
      "inputs": [
        {
          "name": "_stepIndex",
          "type": "uint256"
        }
      ],
      "name": "currentStepIsClosed",
      "outputs": [
        {
          "name": "",
          "type": "bool"
        }
      ],
      "payable": false,
      "stateMutability": "view",
      "type": "function",
      "signature": "0x56d1121a"
    },
    {
      "constant": false,
      "inputs": [],
      "name": "refund",
      "outputs": [
        {
          "name": "",
          "type": "bool"
        }
      ],
      "payable": false,
      "stateMutability": "nonpayable",
      "type": "function",
      "signature": "0x590e1ae3"
    }
  ],
  "bytecode": "0x608060405234801561001057600080fd5b5060405160c0806200538b833981018060405260c081101561003157600080fd5b50805160208201516040808401516060850151608086015160a09096015160008054600160a060020a03191633178082559451969795969395929492939192600160a060020a0316917f8be0079c531659141344cd1fd0a4f28419497f9722a3daafe3b4186f6b6457e0908290a360028054600160a060020a03978816600160a060020a0319918216179091556004805495881695821695909517909455600580549387169385169390931790925560068054918616918416919091179055600780549185169183169190911790556000600b556001805492909316911617905561526980620001226000396000f3fe6080604052600436106101f25760003560e060020a9004806390fa85f811610111578063c2cb21ba116100a4578063de45dbd511610073578063de45dbd514610c18578063e15ce92714610c42578063e757412814610c75578063f2fde38b14610c8a578063feaec77514610cbd576101f2565b8063c2cb21ba14610b3b578063d50cf02d14610b50578063db27cf6114610b95578063de3844ff14610bbf576101f2565b8063a6371829116100e0578063a637182914610963578063b4862a71146109c8578063b5ac72b5146109f2578063c12cd1bc14610b26576101f2565b806390fa85f8146108f1578063912c84ec146109065780639642a86b146109395780639663f88f1461094e576101f2565b80635deac38b11610189578063891d7e7911610158578063891d7e79146108375780638da5cb5b1461089c5780638f32d59b146108b157806390386bbf146108c6576101f2565b80635deac38b1461072d57806364ab07fa146107dd578063715018a614610818578063799a53591461082f576101f2565b806354b94615116101c557806354b946151461069e57806356d1121a146106c7578063590e1ae3146106f15780635bc34f7114610706576101f2565b806314870d2c1461046657806316b297461461049857806338af3eed1461062a5780634559ff9b1461065b575b600260009054906101000a9004600160a060020a0316600160a060020a03166374ebae066040518163ffffffff1660e060020a02815260040160206040518083038186803b15801561024357600080fd5b505afa158015610257573d6000803e3d6000fd5b505050506040513d602081101561026d57600080fd5b505115156102c5576040805160e560020a62461bcd02815260206004820152601260248201527fe4b88de59ca8e58b9fe8b584e69c9fe586850000000000000000000000000000604482015290519081900360640190fd5b600260009054906101000a9004600160a060020a0316600160a060020a031663743acbab6040518163ffffffff1660e060020a02815260040160206040518083038186803b15801561031657600080fd5b505afa15801561032a573d6000803e3d6000fd5b505050506040513d602081101561034057600080fd5b505115610385576040805160e560020a62461bcd028152602060048201526012602482015260008051602061517c833981519152604482015290519081900360640190fd5b600b80546000908152600c6020818152604080842033808652908352818520346002909101819055865486528484528286208287528452828620600501805475ff000000000000000000000000000000000000000000191675010000000000000000000000000000000000000000001790559554855292825280842060070180548601905560088054600181019091557ff3f7a9fe364faab93b216da50a3214154f22a0a2b415b23a84c8169e8b636ee301805473ffffffffffffffffffffffffffffffffffffffff19168417905591835260099052902080549091019055005b61046e610cd2565b60408051600160a060020a0394851681529290931660208301528183015290519081900360600190f35b3480156104a457600080fd5b506104c2600480360360208110156104bb57600080fd5b5035610f5c565b60405180806020018060200180602001806020018060200186810386528b818151815260200191508051906020019060200280838360005b838110156105125781810151838201526020016104fa565b5050505090500186810385528a818151815260200191508051906020019060200280838360005b83811015610551578181015183820152602001610539565b50505050905001868103845289818151815260200191508051906020019060200280838360005b83811015610590578181015183820152602001610578565b50505050905001868103835288818151815260200191508051906020019060200280838360005b838110156105cf5781810151838201526020016105b7565b50505050905001868103825287818151815260200191508051906020019060200280838360005b8381101561060e5781810151838201526020016105f6565b505050509050019a505050505050505050505060405180910390f35b34801561063657600080fd5b5061063f6111b4565b60408051600160a060020a039092168252519081900360200190f35b34801561066757600080fd5b506106856004803603602081101561067e57600080fd5b50356111c3565b6040805192835260208301919091528051918290030190f35b3480156106aa57600080fd5b506106b36114a2565b604080519115158252519081900360200190f35b3480156106d357600080fd5b506106b3600480360360208110156106ea57600080fd5b50356114e0565b3480156106fd57600080fd5b506106b36114fd565b34801561071257600080fd5b5061071b6119b2565b60408051918252519081900360200190f35b34801561073957600080fd5b506106b36004803603602081101561075057600080fd5b81019060208101813564010000000081111561076b57600080fd5b82018360208201111561077d57600080fd5b8035906020019184602083028401116401000000008311171561079f57600080fd5b9190808060200260200160405190810160405280939291908181526020018383602002808284376000920191909152509295506119b8945050505050565b3480156107e957600080fd5b506107f2611bfe565b604080519485526020850193909352838301919091526060830152519081900360800190f35b34801561082457600080fd5b5061082d611dad565b005b6106b3611e17565b34801561084357600080fd5b5061084c612274565b60408051602080825283518183015283519192839290830191858101910280838360005b83811015610888578181015183820152602001610870565b505050509050019250505060405180910390f35b3480156108a857600080fd5b5061063f6122e9565b3480156108bd57600080fd5b506106b36122f8565b6108ce612309565b60408051600160a060020a03909316835260208301919091528051918290030190f35b3480156108fd57600080fd5b5061063f61251e565b34801561091257600080fd5b5061091b61252d565b60408051938452602084019290925282820152519081900360600190f35b34801561094557600080fd5b5061071b61256a565b34801561095a57600080fd5b5061071b612570565b34801561096f57600080fd5b5061097861259d565b604080519a8b5260208b0199909952898901979097526060890195909552608088019390935260a087019190915260c086015260e085015261010084015261012083015251908190036101400190f35b3480156109d457600080fd5b5061082d600480360360208110156109eb57600080fd5b5035612c95565b3480156109fe57600080fd5b506106b360048036036040811015610a1557600080fd5b810190602081018135640100000000811115610a3057600080fd5b820183602082011115610a4257600080fd5b80359060200191846020830284011164010000000083111715610a6457600080fd5b9190808060200260200160405190810160405280939291908181526020018383602002808284376000920191909152509295949360208101935035915050640100000000811115610ab457600080fd5b820183602082011115610ac657600080fd5b80359060200191846020830284011164010000000083111715610ae857600080fd5b919080806020026020016040519081016040528093929190818152602001838360200280828437600092019190915250929550613545945050505050565b348015610b3257600080fd5b5061091b6138ef565b348015610b4757600080fd5b506106b3613aa3565b348015610b5c57600080fd5b5061082d60048036036060811015610b7357600080fd5b50600160a060020a038135811691602081013582169160409091013516613aac565b348015610ba157600080fd5b5061071b60048036036020811015610bb857600080fd5b5035613d71565b348015610bcb57600080fd5b50610bf260048036036020811015610be257600080fd5b5035600160a060020a0316613d86565b60408051600160a060020a03938416815291909216602082015281519081900390910190f35b348015610c2457600080fd5b506106b360048036036020811015610c3b57600080fd5b5035614693565b348015610c4e57600080fd5b5061071b60048036036020811015610c6557600080fd5b5035600160a060020a03166146a8565b348015610c8157600080fd5b5061063f6146d9565b348015610c9657600080fd5b5061082d60048036036020811015610cad57600080fd5b5035600160a060020a03166146e8565b348015610cc957600080fd5b506106b3614707565b600b546000908152600c6020908152604080832033845290915281206005015481908190760100000000000000000000000000000000000000000000900460ff1615610d525760405160e560020a62461bcd02815260040180806020018281038252602c81526020018061519c602c913960400191505060405180910390fd5b600254604080517f9d7e0c860000000000000000000000000000000000000000000000000000000081523360048201529051600092600160a060020a031691639d7e0c86916024808301926020929190829003018186803b158015610db657600080fd5b505afa158015610dca573d6000803e3d6000fd5b505050506040513d6020811015610de057600080fd5b5051600254604080517f0c5d0c560000000000000000000000000000000000000000000000000000000081529051929350600160a060020a0390911691630c5d0c569160048082019260009290919082900301818387803b158015610e4457600080fd5b505af1158015610e58573d6000803e3d6000fd5b5050600b546000908152600c6020908152604080832033808552908352818420600501805476ff00000000000000000000000000000000000000000000191676010000000000000000000000000000000000000000000017905560015482517f23b872dd0000000000000000000000000000000000000000000000000000000081523060048201526024810192909252604482018890529151600160a060020a039290921695506323b872dd9450606480820194918390030190829087803b158015610f2357600080fd5b505af1158015610f37573d6000803e3d6000fd5b505050506040513d6020811015610f4d57600080fd5b50309533955091935090915050565b6060806060806060610f6c6122f8565b1515610f7757600080fd5b6060806060806060600c60008c8152602001908152602001600020600101805480602002602001604051908101604052809291908181526020018280548015610fe957602002820191906000526020600020905b8154600160a060020a03168152600190910190602001808311610fcb575b50939850600093505050505b85518110156111a15760008c8152600c60205260408120875190919088908490811061101d57fe5b90602001906020020151600160a060020a0316600160a060020a0316815260200190815260200160002060010154858281518110151561105957fe5b602090810290910181019190915260008d8152600c90915260408120875190919088908490811061108657fe5b90602001906020020151600160a060020a0316600160a060020a031681526020019081526020016000206002015484828151811015156110c257fe5b602090810290910181019190915260008d8152600c9091526040812087519091908890849081106110ef57fe5b6020908102909101810151600160a060020a0316825281019190915260400160002060030154835184908390811061112357fe5b6020908102909101810191909152600b546000908152600c90915260408120875190919088908490811061115357fe5b90602001906020020151600160a060020a0316600160a060020a0316815260200190815260200160002060040154828281518110151561118f57fe5b60209081029091010152600101610ff5565b50939a9299509097509550909350915050565b600354600160a060020a031681565b6000806111ce6122f8565b15156111d957600080fd5b600260009054906101000a9004600160a060020a0316600160a060020a03166325d8e97f6040518163ffffffff1660e060020a02815260040160206040518083038186803b15801561122a57600080fd5b505afa15801561123e573d6000803e3d6000fd5b505050506040513d602081101561125457600080fd5b5051151561129a576040805160e560020a62461bcd02815260206004820152601260248201526000805160206151c8833981519152604482015290519081900360640190fd5b73__UintUtils_____________________________63669dafe8846040518263ffffffff1660e060020a0281526004018082815260200191505060206040518083038186803b1580156112ec57600080fd5b505af4158015611300573d6000803e3d6000fd5b505050506040513d602081101561131657600080fd5b5051600b80546000908152600c60205260408082206006908101949094559154815220015473__UintUtils_____________________________9063669dafe89061137b9060649061136f90603c63ffffffff61474616565b9063ffffffff61477816565b6040518263ffffffff1660e060020a0281526004018082815260200191505060206040518083038186803b1580156113b257600080fd5b505af41580156113c6573d6000803e3d6000fd5b505050506040513d60208110156113dc57600080fd5b5051600b80546000908152600c60209081526040808320600801949094559154815282902060060154825160e360020a630cd3b5fd0281526004810191909152915173__UintUtils_____________________________9263669dafe8926024808301939192829003018186803b15801561145657600080fd5b505af415801561146a573d6000803e3d6000fd5b505050506040513d602081101561148057600080fd5b5051600b80546000908152600c60205260409020600901919091555493915050565b600b546000908152600c6020908152604080832033845290915290206005015474010000000000000000000000000000000000000000900460ff1690565b6000908152600c60205260409020600a0154610100900460ff1690565b60006115076122f8565b151561151257600080fd5b601254610100900460ff1615611572576040805160e560020a62461bcd02815260206004820152601560248201527fe98080e6acbee5b7b2e7bb8fe5ae8ce68890e4ba860000000000000000000000604482015290519081900360640190fd5b600254604080517f50b9d89d0000000000000000000000000000000000000000000000000000000081529051600092600160a060020a0316916350b9d89d916004808301926020929190829003018186803b1580156115d057600080fd5b505afa1580156115e4573d6000803e3d6000fd5b505050506040513d60208110156115fa57600080fd5b50516000818152600c60209081526040918290206001018054835181840281018401909452808452939450606093909183018282801561166357602002820191906000526020600020905b8154600160a060020a03168152600190910190602001808311611645575b50939450600093505050505b8151811015611992576002548251600160a060020a0390911690639b32a7789084908490811061169b57fe5b90602001906020020151600c6000878152602001908152602001600020600001600086868151811015156116cb57fe5b90602001906020020151600160a060020a0316600160a060020a0316815260200190815260200160002060020154600260009054906101000a9004600160a060020a0316600160a060020a0316633bb66a7b878781518110151561172b57fe5b906020019060200201516040518263ffffffff1660e060020a0281526004018082600160a060020a0316600160a060020a0316815260200191505060206040518083038186803b15801561177e57600080fd5b505afa158015611792573d6000803e3d6000fd5b505050506040513d60208110156117a857600080fd5b50516040805160e060020a63ffffffff8716028152600160a060020a0390941660048501529101602483015251604480830192600092919082900301818387803b1580156117f557600080fd5b505af1158015611809573d6000803e3d6000fd5b50506002548451600160a060020a039091169250639b32a778915084908490811061183057fe5b90602001906020020151600c60008781526020019081526020016000206000016000868681518110151561186057fe5b6020908102909101810151600160a060020a0390811683529082019290925260400160002060010154600254875191921690633aecd0e3908890889081106118a457fe5b906020019060200201516040518263ffffffff1660e060020a0281526004018082600160a060020a0316600160a060020a0316815260200191505060206040518083038186803b1580156118f757600080fd5b505afa15801561190b573d6000803e3d6000fd5b505050506040513d602081101561192157600080fd5b50516040805160e060020a63ffffffff8716028152600160a060020a0390941660048501529101602483015251604480830192600092919082900301818387803b15801561196e57600080fd5b505af1158015611982573d6000803e3d6000fd5b50506001909201915061166f9050565b50506012805461ff00191661010090811791829055900460ff1691505090565b600b5481565b60006119c26122f8565b15156119cd57600080fd5b600260009054906101000a9004600160a060020a0316600160a060020a031663743acbab6040518163ffffffff1660e060020a02815260040160206040518083038186803b158015611a1e57600080fd5b505afa158015611a32573d6000803e3d6000fd5b505050506040513d6020811015611a4857600080fd5b50511515611aa0576040805160e560020a62461bcd02815260206004820152601260248201527fe585b1e68cafe8bf98e69caae7bb93e69d9f0000000000000000000000000000604482015290519081900360640190fd5b600254600f54600160a060020a03909116906395bbde8890849073__UintUtils_____________________________9063669dafe890611aee9060649061136f90600563ffffffff61474616565b6040518263ffffffff1660e060020a0281526004018082815260200191505060206040518083038186803b158015611b2557600080fd5b505af4158015611b39573d6000803e3d6000fd5b505050506040513d6020811015611b4f57600080fd5b50516040805160e060020a63ffffffff861602815260248101839052600481019182528351604482015283518291606401906020868101910280838360005b83811015611ba6578181015183820152602001611b8e565b505050509050019350505050602060405180830381600087803b158015611bcc57600080fd5b505af1158015611be0573d6000803e3d6000fd5b505050506040513d6020811015611bf657600080fd5b505192915050565b600080600080600260009054906101000a9004600160a060020a0316600160a060020a03166325d8e97f6040518163ffffffff1660e060020a02815260040160206040518083038186803b158015611c5557600080fd5b505afa158015611c69573d6000803e3d6000fd5b505050506040513d6020811015611c7f57600080fd5b50511515611cc5576040805160e560020a62461bcd02815260206004820152601260248201526000805160206151c8833981519152604482015290519081900360640190fd5b60008060008042600260009054906101000a9004600160a060020a0316600160a060020a031663d74635736040518163ffffffff1660e060020a02815260040160206040518083038186803b158015611d1d57600080fd5b505afa158015611d31573d6000803e3d6000fd5b505050506040513d6020811015611d4757600080fd5b5051600b546000908152600c60205260409020600481015460029091015492909103617080019550611d7f919063ffffffff61479c16565b600b546000908152600c602052604090206003810154600590910154959a9199509750939550929350505050565b611db56122f8565b1515611dc057600080fd5b60008054604051600160a060020a03909116907f8be0079c531659141344cd1fd0a4f28419497f9722a3daafe3b4186f6b6457e0908390a36000805473ffffffffffffffffffffffffffffffffffffffff19169055565b6000611e216122f8565b1515611e2c57600080fd5b600b5460009081526011602052604090205460ff1615611e805760405160e560020a62461bcd02815260040180806020018281038252602c8152602001806151e8602c913960400191505060405180910390fd5b73__UintUtils_____________________________63669dafe8600260009054906101000a9004600160a060020a0316600160a060020a031663d998d6286040518163ffffffff1660e060020a02815260040160206040518083038186803b158015611eeb57600080fd5b505afa158015611eff573d6000803e3d6000fd5b505050506040513d6020811015611f1557600080fd5b50516040805160e060020a63ffffffff85160281526004810192909252516024808301926020929190829003018186803b158015611f5257600080fd5b505af4158015611f66573d6000803e3d6000fd5b505050506040513d6020811015611f7c57600080fd5b5051600154604080517fdd62ed3e0000000000000000000000000000000000000000000000000000000081523360048201523060248201529051600160a060020a039092169163dd62ed3e91604480820192602092909190829003018186803b158015611fe857600080fd5b505afa158015611ffc573d6000803e3d6000fd5b505050506040513d602081101561201257600080fd5b5051101561206a576040805160e560020a62461bcd02815260206004820152601260248201527fe68e88e69d83e9a29de5baa6e4b88de8b6b30000000000000000000000000000604482015290519081900360640190fd5b600154600254604080517fd998d6280000000000000000000000000000000000000000000000000000000081529051600160a060020a03938416936323b872dd933393309373__UintUtils_____________________________9363669dafe893169163d998d628916004808301926020929190829003018186803b1580156120f257600080fd5b505afa158015612106573d6000803e3d6000fd5b505050506040513d602081101561211c57600080fd5b50516040805160e060020a63ffffffff85160281526004810192909252516024808301926020929190829003018186803b15801561215957600080fd5b505af415801561216d573d6000803e3d6000fd5b505050506040513d602081101561218357600080fd5b50516040805160e060020a63ffffffff8716028152600160a060020a0394851660048201529290931660248301526044820152905160648083019260209291908290030181600087803b1580156121d957600080fd5b505af11580156121ed573d6000803e3d6000fd5b505050506040513d602081101561220357600080fd5b5051151561225b576040805160e560020a62461bcd02815260206004820152601a60248201527fe8bdace7a7bb746f6b656ee588b0e59088e7baa6e5a4b1e8b4a5000000000000604482015290519081900360640190fd5b50600b5460009081526011602052604090205460ff1690565b606061227e6122f8565b151561228957600080fd5b60088054806020026020016040519081016040528092919081815260200182805480156122df57602002820191906000526020600020905b8154600160a060020a031681526001909101906020018083116122c1575b5050505050905090565b600054600160a060020a031690565b600054600160a060020a0316331490565b600b546000908152600c60209081526040808320338452909152812060050154819077010000000000000000000000000000000000000000000000900460ff16156123885760405160e560020a62461bcd02815260040180806020018281038252602a815260200180615214602a913960400191505060405180910390fd5b600254604080517f9263434e0000000000000000000000000000000000000000000000000000000081523360048201529051600092600160a060020a031691639263434e916024808301926020929190829003018186803b1580156123ec57600080fd5b505afa158015612400573d6000803e3d6000fd5b505050506040513d602081101561241657600080fd5b5051600254604080517f503001200000000000000000000000000000000000000000000000000000000081529051929350600160a060020a039091169163503001209160048082019260009290919082900301818387803b15801561247a57600080fd5b505af115801561248e573d6000803e3d6000fd5b5050600b546000908152600c60209081526040808320338085529252808320600501805477ff00000000000000000000000000000000000000000000001916770100000000000000000000000000000000000000000000001790555190935084156108fc0292508491818181858888f19350505050158015612514573d6000803e3d6000fd5b5033925090509091565b600d54600160a060020a031681565b600080600061253a6122f8565b151561254557600080fd5b5050600b546000818152600c6020526040902060028101546007909101549192509192565b600f5481565b600b80546000908152600c602052604081209091015461259790600163ffffffff6147b116565b40905090565b6000806000806000806000806000806125b461508a565b600b546000908152600c602090815260408083203384528252918290208251610140810184528154600160a060020a03168152600182015481840152600282015481850152600382018054855181860281018601909652808652919492936060860193929083018282801561265257602002820191906000526020600020905b8154600160a060020a03168152600190910190602001808311612634575b5050509183525050600482810154602080840191909152600590930154600160a060020a0380821660408086019190915260ff740100000000000000000000000000000000000000008404811615156060808801919091527501000000000000000000000000000000000000000000850482161515608088015276010000000000000000000000000000000000000000000085048216151560a08801527701000000000000000000000000000000000000000000000090940416151560c09095019490945260025484517f3aecd0e3000000000000000000000000000000000000000000000000000000008152339481019490945293519596509094921692633aecd0e392602480840193829003018186803b15801561277157600080fd5b505afa158015612785573d6000803e3d6000fd5b505050506040513d602081101561279b57600080fd5b50518151829060009081106127ac57fe5b6020908102909101810191909152600254604080517f3bb66a7b0000000000000000000000000000000000000000000000000000000081523360048201529051600160a060020a0390921692633bb66a7b92602480840193829003018186803b15801561281857600080fd5b505afa15801561282c573d6000803e3d6000fd5b505050506040513d602081101561284257600080fd5b505181518290600190811061285357fe5b6020908102909101015260608201515181518290600290811061287257fe5b60209081029091010152608082015181518290600390811061289057fe5b906020019060200201818152505081602001518160048151811015156128b257fe5b6020908102909101015260408201518151829060059081106128d057fe5b6020908102909101810191909152600654604080517fc28a1af30000000000000000000000000000000000000000000000000000000081523360048201529051600160a060020a039092169263c28a1af392602480840193829003018186803b15801561293c57600080fd5b505afa158015612950573d6000803e3d6000fd5b505050506040513d602081101561296657600080fd5b505181518290600690811061297757fe5b602090810290910181019190915260048054604080517f0df2019a000000000000000000000000000000000000000000000000000000008152339381019390935251600160a060020a0390911692630df2019a9260248082019391829003018186803b1580156129e657600080fd5b505afa1580156129fa573d6000803e3d6000fd5b505050506040513d6020811015612a1057600080fd5b5051815182906007908110612a2157fe5b6020908102909101810191909152600554604080517fc75355670000000000000000000000000000000000000000000000000000000081523360048201529051600160a060020a039092169263c753556792602480840193829003018186803b158015612a8d57600080fd5b505afa158015612aa1573d6000803e3d6000fd5b505050506040513d6020811015612ab757600080fd5b5051815182906008908110612ac857fe5b6020908102909101810191909152600754604080517f4a6817870000000000000000000000000000000000000000000000000000000081523360048201529051600160a060020a0390921692634a68178792602480840193829003018186803b158015612b3457600080fd5b505afa158015612b48573d6000803e3d6000fd5b505050506040513d6020811015612b5e57600080fd5b5051815182906009908110612b6f57fe5b60209081029091010152805181906000908110612b8857fe5b90602001906020020151816001815181101515612ba157fe5b90602001906020020151826002815181101515612bba57fe5b90602001906020020151836003815181101515612bd357fe5b90602001906020020151846004815181101515612bec57fe5b90602001906020020151856005815181101515612c0557fe5b90602001906020020151866006815181101515612c1e57fe5b90602001906020020151876007815181101515612c3757fe5b90602001906020020151886008815181101515612c5057fe5b90602001906020020151896009815181101515612c6957fe5b906020019060200201519b509b509b509b509b509b509b509b509b509b50505090919293949596979899565b600260009054906101000a9004600160a060020a0316600160a060020a03166325d8e97f6040518163ffffffff1660e060020a02815260040160206040518083038186803b158015612ce657600080fd5b505afa158015612cfa573d6000803e3d6000fd5b505050506040513d6020811015612d1057600080fd5b50511515612d56576040805160e560020a62461bcd02815260206004820152601260248201526000805160206151c8833981519152604482015290519081900360640190fd5b600260009054906101000a9004600160a060020a0316600160a060020a031663743acbab6040518163ffffffff1660e060020a02815260040160206040518083038186803b158015612da757600080fd5b505afa158015612dbb573d6000803e3d6000fd5b505050506040513d6020811015612dd157600080fd5b505115612e16576040805160e560020a62461bcd028152602060048201526012602482015260008051602061517c833981519152604482015290519081900360640190fd5b612e1e6114a2565b1515612e74576040805160e560020a62461bcd02815260206004820152601660248201527fe8b083e794a8e88085e4b88de698af4275696c64657200000000000000000000604482015290519081900360640190fd5b600b546000908152600c602052604090206002810154600490910154612ea0908363ffffffff6147b116565b10612edf5760405160e560020a62461bcd0281526004018080602001828103825260268152602001806150ff6026913960400191505060405180910390fd5b600b546000908152600c6020526040902060020154612f0c9060649061136f90600163ffffffff61474616565b600b546000908152600c60209081526040808320338452909152902060010154612f3c908363ffffffff6147b116565b1115612f7c5760405160e560020a62461bcd02815260040180806020018281038252603081526020018061514c6030913960400191505060405180910390fd5b73__UintUtils_____________________________63669dafe8826040518263ffffffff1660e060020a0281526004018082815260200191505060206040518083038186803b158015612fce57600080fd5b505af4158015612fe2573d6000803e3d6000fd5b505050506040513d6020811015612ff857600080fd5b5051600154604080517fdd62ed3e0000000000000000000000000000000000000000000000000000000081523360048201523060248201529051600160a060020a039092169163dd62ed3e91604480820192602092909190829003018186803b15801561306457600080fd5b505afa158015613078573d6000803e3d6000fd5b505050506040513d602081101561308e57600080fd5b505110156130e6576040805160e560020a62461bcd02815260206004820152601260248201527fe68e88e69d83e9a29de5baa6e4b88de8b6b30000000000000000000000000000604482015290519081900360640190fd5b600160009054906101000a9004600160a060020a0316600160a060020a03166323b872dd333073__UintUtils_____________________________63669dafe8866040518263ffffffff1660e060020a0281526004018082815260200191505060206040518083038186803b15801561315e57600080fd5b505af4158015613172573d6000803e3d6000fd5b505050506040513d602081101561318857600080fd5b50516040805160e060020a63ffffffff8716028152600160a060020a0394851660048201529290931660248301526044820152905160648083019260209291908290030181600087803b1580156131de57600080fd5b505af11580156131f2573d6000803e3d6000fd5b505050506040513d602081101561320857600080fd5b50511515613260576040805160e560020a62461bcd02815260206004820152601a60248201527fe8bdace7a7bb746f6b656ee588b0e59088e7baa6e5a4b1e8b4a5000000000000604482015290519081900360640190fd5b73__UintUtils_____________________________63669dafe8826040518263ffffffff1660e060020a0281526004018082815260200191505060206040518083038186803b1580156132b257600080fd5b505af41580156132c6573d6000803e3d6000fd5b505050506040513d60208110156132dc57600080fd5b5051600b546000908152600c602090815260408083203384528252918290206001018054909301909255805160e360020a630cd3b5fd02815260048101849052905173__UintUtils_____________________________9263669dafe89260248082019391829003018186803b15801561335557600080fd5b505af4158015613369573d6000803e3d6000fd5b505050506040513d602081101561337f57600080fd5b5051600b546000908152600c602090815260409182902060029081018054949094039093559154815160e360020a630cd3b5fd028152600481018590529151600160a060020a03909116926330f42bf69273__UintUtils_____________________________9263669dafe892602480840193919291829003018186803b15801561340957600080fd5b505af415801561341d573d6000803e3d6000fd5b505050506040513d602081101561343357600080fd5b5051600254604080517f2734189a0000000000000000000000000000000000000000000000000000000081529051600160a060020a0390921691632734189a91600480820192602092909190829003018186803b15801561349357600080fd5b505afa1580156134a7573d6000803e3d6000fd5b505050506040513d60208110156134bd57600080fd5b50516040805160e060020a63ffffffff861602815292909103600483015251602480830192600092919082900301818387803b1580156134fc57600080fd5b505af1158015613510573d6000803e3d6000fd5b5050336000908152600a60209081526040808320805487019055600b548352600c909152902060040180549093019092555050565b600061354f6122f8565b151561355a57600080fd5b600354600160a060020a031615156135a65760405160e560020a62461bcd0281526004018080602001828103825260218152602001806150de6021913960400191505060405180910390fd5b61365d606461136f6028613651600260009054906101000a9004600160a060020a0316600160a060020a0316639b2dc7696040518163ffffffff1660e060020a02815260040160206040518083038186803b15801561360457600080fd5b505afa158015613618573d6000803e3d6000fd5b505050506040513d602081101561362e57600080fd5b5051600b546000908152600c60205260409020600701549063ffffffff61474616565b9063ffffffff61474616565b600b80546000908152600e602052604080822093909355905481522054600f8054909101905561368c836147c3565b61369582614b0f565b600254600354600b546000908152600c6020526040902060070154600160a060020a0392831692639b32a77892169073__UintUtils_____________________________9063669dafe8906136f89060649061136f90603c63ffffffff61474616565b6040518263ffffffff1660e060020a0281526004018082815260200191505060206040518083038186803b15801561372f57600080fd5b505af4158015613743573d6000803e3d6000fd5b505050506040513d602081101561375957600080fd5b5051600254600354604080517f3bb66a7b000000000000000000000000000000000000000000000000000000008152600160a060020a03928316600482015290519190921691633bb66a7b916024808301926020929190829003018186803b1580156137c457600080fd5b505afa1580156137d8573d6000803e3d6000fd5b505050506040513d60208110156137ee57600080fd5b50516040805160e060020a63ffffffff8716028152600160a060020a0390941660048501529101602483015251604480830192600092919082900301818387803b15801561383b57600080fd5b505af115801561384f573d6000803e3d6000fd5b50505050600260009054906101000a9004600160a060020a0316600160a060020a031663743acbab6040518163ffffffff1660e060020a02815260040160206040518083038186803b1580156138a457600080fd5b505afa1580156138b8573d6000803e3d6000fd5b505050506040513d60208110156138ce57600080fd5b5051156138dd575060016138e9565b6138e5614c6b565b5060005b92915050565b6000806000600260009054906101000a9004600160a060020a0316600160a060020a03166374ebae066040518163ffffffff1660e060020a02815260040160206040518083038186803b15801561394557600080fd5b505afa158015613959573d6000803e3d6000fd5b505050506040513d602081101561396f57600080fd5b505115156139c7576040805160e560020a62461bcd02815260206004820152601260248201527fe4b88de59ca8e58b9fe8b584e69c9fe586850000000000000000000000000000604482015290519081900360640190fd5b600080600042600260009054906101000a9004600160a060020a0316600160a060020a031663d74635736040518163ffffffff1660e060020a02815260040160206040518083038186803b158015613a1e57600080fd5b505afa158015613a32573d6000803e3d6000fd5b505050506040513d6020811015613a4857600080fd5b5051600b546000908152600c602052604090206007810154600690910154929091036018019450613a7f919063ffffffff61479c16565b600b546000908152600c602052604090206007015493965094509192505050909192565b60125460ff1681565b613ab46122f8565b1515613abf57600080fd5b60125460ff1615613b045760405160e560020a62461bcd0281526004018080602001828103825260278152602001806151256027913960400191505060405180910390fd5b60038054600160a060020a0380851673ffffffffffffffffffffffffffffffffffffffff1992831617909255600d80548484169216919091179055600254604080517fabdd11a80000000000000000000000000000000000000000000000000000000081524260048201529051919092169163abdd11a891602480830192600092919082900301818387803b158015613b9c57600080fd5b505af1158015613bb0573d6000803e3d6000fd5b5050505073__UintUtils_____________________________63669dafe86216e3606040518263ffffffff1660e060020a0281526004018082815260200191505060206040518083038186803b158015613c0957600080fd5b505af4158015613c1d573d6000803e3d6000fd5b505050506040513d6020811015613c3357600080fd5b5051600b546000908152600c6020526040808220600290810193909355915482517f1c5ce1570000000000000000000000000000000000000000000000000000000081529251600160a060020a0390911692631c5ce15792600480830193919282900301818387803b158015613ca857600080fd5b505af1158015613cbc573d6000803e3d6000fd5b5050600254600b54604080517f0d9907d9000000000000000000000000000000000000000000000000000000008152600481019290925251600160a060020a039092169350630d9907d992506024808201926020929091908290030181600087803b158015613d2a57600080fd5b505af1158015613d3e573d6000803e3d6000fd5b505050506040513d6020811015613d5457600080fd5b50506012805460ff19166001179055613d6c836146e8565b505050565b6000908152600c602052604090206006015490565b600080600260009054906101000a9004600160a060020a0316600160a060020a03166325d8e97f6040518163ffffffff1660e060020a02815260040160206040518083038186803b158015613dda57600080fd5b505afa158015613dee573d6000803e3d6000fd5b505050506040513d6020811015613e0457600080fd5b50511515613e4a576040805160e560020a62461bcd02815260206004820152601260248201526000805160206151c8833981519152604482015290519081900360640190fd5b600260009054906101000a9004600160a060020a0316600160a060020a031663743acbab6040518163ffffffff1660e060020a02815260040160206040518083038186803b158015613e9b57600080fd5b505afa158015613eaf573d6000803e3d6000fd5b505050506040513d6020811015613ec557600080fd5b505115613f0a576040805160e560020a62461bcd028152602060048201526012602482015260008051602061517c833981519152604482015290519081900360640190fd5b600d54600160a060020a03848116911614613fb957600b546000908152600c60209081526040808320600160a060020a038716845290915290206005015474010000000000000000000000000000000000000000900460ff161515613fb9576040805160e560020a62461bcd02815260206004820152601f60248201527fe68ea8e5b9bfe88085e887aae5b7b1e5bf85e9a1bbe698af4275696c64657200604482015290519081900360640190fd5b600160a060020a0383161515614019576040805160e560020a62461bcd02815260206004820152601b60248201527fe68ea8e5b9bfe88085e4b88de883bde698afe7a9bae59cb0e59d800000000000604482015290519081900360640190fd5b73__UintUtils_____________________________63669dafe860086040518263ffffffff1660e060020a0281526004018082815260200191505060206040518083038186803b15801561406c57600080fd5b505af4158015614080573d6000803e3d6000fd5b505050506040513d602081101561409657600080fd5b5051600154604080517fdd62ed3e0000000000000000000000000000000000000000000000000000000081523360048201523060248201529051600160a060020a039092169163dd62ed3e91604480820192602092909190829003018186803b15801561410257600080fd5b505afa158015614116573d6000803e3d6000fd5b505050506040513d602081101561412c57600080fd5b50511015614184576040805160e560020a62461bcd02815260206004820152601260248201527fe68e88e69d83e9a29de5baa6e4b88de8b6b30000000000000000000000000000604482015290519081900360640190fd5b6001546040805160e360020a630cd3b5fd028152600860048201529051600160a060020a03909216916323b872dd913391309173__UintUtils_____________________________9163669dafe891602480820192602092909190829003018186803b1580156141f357600080fd5b505af4158015614207573d6000803e3d6000fd5b505050506040513d602081101561421d57600080fd5b50516040805160e060020a63ffffffff8716028152600160a060020a0394851660048201529290931660248301526044820152905160648083019260209291908290030181600087803b15801561427357600080fd5b505af1158015614287573d6000803e3d6000fd5b505050506040513d602081101561429d57600080fd5b505115156142f5576040805160e560020a62461bcd02815260206004820152601a60248201527fe8bdace7a7bb746f6b656ee588b0e59088e7baa6e5a4b1e8b4a5000000000000604482015290519081900360640190fd5b6001546040805160e360020a630cd3b5fd028152600360048201529051600160a060020a03909216916342966c689173__UintUtils_____________________________9163669dafe891602480820192602092909190829003018186803b15801561436057600080fd5b505af4158015614374573d6000803e3d6000fd5b505050506040513d602081101561438a57600080fd5b50516040805160e060020a63ffffffff8516028152600481019290925251602480830192600092919082900301818387803b1580156143c857600080fd5b505af11580156143dc573d6000803e3d6000fd5b50506001546040805160e360020a630cd3b5fd028152600560048201529051600160a060020a03909216935063a9059cbb9250869173__UintUtils_____________________________9163669dafe8916024808301926020929190829003018186803b15801561444c57600080fd5b505af4158015614460573d6000803e3d6000fd5b505050506040513d602081101561447657600080fd5b50516040805160e060020a63ffffffff8616028152600160a060020a03909316600484015260248301919091525160448083019260209291908290030181600087803b1580156144c557600080fd5b505af11580156144d9573d6000803e3d6000fd5b505050506040513d60208110156144ef57600080fd5b50506040805160e360020a630cd3b5fd02815260056004820152905173__UintUtils_____________________________9163669dafe8916024808301926020929190829003018186803b15801561454657600080fd5b505af415801561455a573d6000803e3d6000fd5b505050506040513d602081101561457057600080fd5b5051600b546000908152600c60209081526040808320600160a060020a03881684529091529020600401805490910190556145aa83614f57565b600b80546000908152600c60209081526040808320600160a060020a038089168086529184528285206003018054600181018255908652938520909301805473ffffffffffffffffffffffffffffffffffffffff191633179055600480549554600d5484517fe23613e900000000000000000000000000000000000000000000000000000000815292830191909152602482019290925290831660448201529051939091169263e23613e99260648084019391929182900301818387803b15801561467457600080fd5b505af1158015614688573d6000803e3d6000fd5b503396945050505050565b60116020526000908152604090205460ff1681565b60006146b26122f8565b15156146bd57600080fd5b50600160a060020a031660009081526009602052604090205490565b600154600160a060020a031681565b6146f06122f8565b15156146fb57600080fd5b6147048161500d565b50565b600b546000908152600c602090815260408083203384529091529020600501547501000000000000000000000000000000000000000000900460ff1690565b6000821515614757575060006138e9565b82820282848281151561476657fe5b041461477157600080fd5b9392505050565b600080821161478657600080fd5b6000828481151561479357fe5b04949350505050565b6000828211156147ab57600080fd5b50900390565b60008282018381101561477157600080fd5b6147cb6122f8565b15156147d657600080fd5b600b546000908152600c60205260409020600a015460ff1615614843576040805160e560020a62461bcd02815260206004820152601e60248201527fe5bd93e5898de8bdaee6aca1e5b7b2e7bb8fe7bb93e7ae97e5ae8ce6af950000604482015290519081900360640190fd5b600b546000908152600c60205260409020600a0154610100900460ff16156148b5576040805160e560020a62461bcd02815260206004820152601b60248201527fe5bd93e5898de8bdaee6aca1e697a9e5b7b2e7bb8fe7bb93e69d9f0000000000604482015290519081900360640190fd5b600254600b546000818152600e6020526040902054600160a060020a039092169163deb72f1f919084906148f79060649061136f90601463ffffffff61474616565b6040518463ffffffff1660e060020a0281526004018084815260200180602001838152602001828103825284818151815260200191508051906020019060200280838360005b8381101561495557818101518382015260200161493d565b50505050905001945050505050600060405180830381600087803b15801561497c57600080fd5b505af1158015614990573d6000803e3d6000fd5b5050600254600b546000818152600c60209081526040808320600e90925290912054600160a060020a0390931694506384976e749350909160019091019073__UintUtils_____________________________9063669dafe8906149fc9060649061136f90600a614746565b6040518263ffffffff1660e060020a0281526004018082815260200191505060206040518083038186803b158015614a3357600080fd5b505af4158015614a47573d6000803e3d6000fd5b505050506040513d6020811015614a5d57600080fd5b505160405160e060020a63ffffffff861602815260048101848152604482018390526060602483019081528454606484018190529192909160849091019085908015614ad257602002820191906000526020600020905b8154600160a060020a03168152600190910190602001808311614ab4575b5050945050505050600060405180830381600087803b158015614af457600080fd5b505af1158015614b08573d6000803e3d6000fd5b5050505050565b614b176122f8565b1515614b2257600080fd5b600254600b546000818152600e6020526040902054600160a060020a039092169163fd38f45b9190849073__UintUtils_____________________________9063669dafe890614b809060649061136f90600563ffffffff61474616565b6040518263ffffffff1660e060020a0281526004018082815260200191505060206040518083038186803b158015614bb757600080fd5b505af4158015614bcb573d6000803e3d6000fd5b505050506040513d6020811015614be157600080fd5b505160405160e060020a63ffffffff86160281526004810184815260448201839052606060248301908152845160648401528451919290916084909101906020868101910280838360005b83811015614c44578181015183820152602001614c2c565b50505050905001945050505050600060405180830381600087803b158015614af457600080fd5b600254600b546000818152600c60209081526040808320600781015460089091015482517fc39fa86100000000000000000000000000000000000000000000000000000000815260048101969096526024860191909152604485015251600160a060020a039094169363c39fa86193606480820194918390030190829087803b158015614cf757600080fd5b505af1158015614d0b573d6000803e3d6000fd5b505050506040513d6020811015614d2157600080fd5b505115614d66576040805160e560020a62461bcd028152602060048201526012602482015260008051602061517c833981519152604482015290519081900360640190fd5b600b80546000908152600c6020526040808220600a908101805460ff1916600190811790915584548452828420909101805461ff00191661010017905583540190925560025482517fabdd11a80000000000000000000000000000000000000000000000000000000081524260048201529251600160a060020a039091169263abdd11a892602480830193919282900301818387803b158015614e0857600080fd5b505af1158015614e1c573d6000803e3d6000fd5b5050600254600b54604080517f0d9907d9000000000000000000000000000000000000000000000000000000008152600481019290925251600160a060020a039092169350630d9907d992506024808201926020929091908290030181600087803b158015614e8a57600080fd5b505af1158015614e9e573d6000803e3d6000fd5b505050506040513d6020811015614eb457600080fd5b5050600254604080517f8d8276be0000000000000000000000000000000000000000000000000000000081529051600160a060020a0390921691638d8276be91600480820192602092909190829003018186803b158015614f1457600080fd5b505afa158015614f28573d6000803e3d6000fd5b505050506040513d6020811015614f3e57600080fd5b5051600b546000908152600c6020526040902060020155565b600b80546000908152600c6020818152604080842033808652908352818520805473ffffffffffffffffffffffffffffffffffffffff19908116831790915586548652848452828620828752845282862060059081018054600160a060020a039a909a169990921698909817905594548452918152818320938352929092522001805474ff0000000000000000000000000000000000000000191674010000000000000000000000000000000000000000179055565b600160a060020a038116151561502257600080fd5b60008054604051600160a060020a03808516939216917f8be0079c531659141344cd1fd0a4f28419497f9722a3daafe3b4186f6b6457e091a36000805473ffffffffffffffffffffffffffffffffffffffff1916600160a060020a0392909216919091179055565b60408051610140810182526000808252602082018190529181018290526060808201526080810182905260a0810182905260c0810182905260e0810182905261010081018290526101208101919091529056fee59fbae98791e4bc9ae694b6e6acbee59cb0e59d80e5b09ae69caae8aebee7bdaee5bd93e5898de8bdaee6aca1e585b1e5bbba546f6b656ee5b7b2e7bb8fe8b6b3e5a49fe4ba86e7acace4b880e8bdaee6aca1e695b0e68daee5b7b2e7bb8fe5889de5a78be58c96e8bf87e4ba86e585b1e5bbbae9a29de5baa6e5b7b2e8b685e8bf87e99990e9a29defbc8ce4b88de883bde7bba7e7bbade8bdace585a5e585b1e68cafe5b7b2e7bb8fe7bb93e69d9f0000000000000000000000000000e794a8e688b7e59ca8e5bd93e5898de8bdaee6aca1e5b7b2e7bb8fe68f90e58f96746f6b656ee5ae8ce68890e4b88de59ca8e585b1e5bbbae69c9fe586850000000000000000000000000000e5bd93e5898de8bdaee6aca1e59fbae98791e4bc9ae5b7b2e7bb8fe8bdace585a5e8bf87546f6b656ee4ba86e794a8e688b7e59ca8e5bd93e5898de8bdaee6aca1e5b7b2e7bb8fe68f90e58f96455448e5ae8ce68890a165627a7a72305820d57dad30cf3f2f159b6deb65174278f347f28a2376315fe742667288a6436a310029",
  "source": "pragma solidity >=0.4.21 <0.6.0;\n\nimport \"../node_modules/openzeppelin-solidity/contracts/math/SafeMath.sol\";\nimport \"../node_modules/openzeppelin-solidity/contracts/ownership/Ownable.sol\";\nimport \"./ABCToken.sol\";\nimport \"./UintUtils.sol\";\nimport \"./FissionReward.sol\";\nimport \"./FOMOReward.sol\";\nimport \"./LuckyReward.sol\";\nimport \"./FaithReward.sol\";\nimport \"./ResonanceDataManage.sol\";\n\n// TODO:token()\ncontract Resonance is Ownable{\n\n    using SafeMath for uint256;\n\n    // \n    // \n    event ToBeFissionPerson(address indexed fissionPerson, address indexed promoter);\n\n    event FundsInfo(uint256 currentStepTokenAmount, uint256 currentStepRaisedETH);\n    event BuildingPerioInfo(uint256 bpCountdown, uint256 remainingToken, uint256 personalTokenLimited, uint256 totalTokenAmount);\n    event FundingPeriodInfo(uint256 fpCountdown, uint256 remainingETH, uint256 rasiedETHAmount);\n\n    // \n    event FissionRewardInfo(address[] fissionRewardList, uint256[] fissionRewardAmount);\n    event FOMORewardInfo(address[] FOMORewardList, uint256[] FOMORewards);\n    event LuckyRewardInfo(address[] luckyRewardList, uint256 luckyReward);\n    event FaithRewardInfo(address[] faithRewardList, uint256[] faithRewardAmount);\n    event WithdrawAllETH(address addr, uint256 ETHAmount);\n    event WithdrawAllToken(address from, address to, uint256 tokenAmount);\n    event FunderInfo(uint256[] FunderInfoArray);\n    event StepFunders(\n        address[] funderAddress,\n        uint256[] funderTokenAmount,\n        uint256[] funderETHAmount,\n        uint256[] funderInvitees,\n        uint256[] funderEarnFromAff\n    );\n    event SettlementStep(uint256 stepIndex);\n\n    event StartNextStep(uint256 stepIndex);\n\n    event SetRaiseTarget(uint256 stepIndex, uint256 raiseTarget);\n\n    event GetResonances(address[] resonances);\n\n    event FunderTotalRaised(uint256 resonancesRasiedETH);\n\n    // \n    // ERC20\n    ABCToken public abcToken;\n\n    ResonanceDataManage resonanceDataManage;\n\n    // 60%\n    address payable public beneficiary;\n\n    // \n    struct Funder{\n        address funderAddr; // \n        uint256 tokenAmount; // token\n        uint256 ethAmount; // eth\n        address[] invitees; // \n        uint256 earnFromAff; // \n        address promoter; // \n        bool isBuilder; // /\n        bool isFunder; // \n        bool tokenHasWithdrawn; // Token\n        bool ETHHasWithdrawn; // ETH\n    }\n\n    // \n    struct Building{\n        uint256 openTokenAmount; // Token\n        uint256 personalTokenLimited;// token\n        uint256 raisedToken; // token\n        uint256 raisedTokenAmount; // Token\n    }\n\n    // \n    struct Funding{\n        uint256 raiseTarget; // ETH()\n        uint256 raisedETH; // ETH\n    }\n\n    FissionReward fissionRewardInstance;\n    FOMOReward FOMORewardInstance;\n    LuckyReward luckyRewardInstance;\n    FaithReward faithRewardInstance;\n\n    // \n    struct Step{\n        mapping(address => Funder) funder;// \n        address[] funders; // funders\n        Building building; // \n        Funding funding; // \n        uint256 softCap; // \n        uint256 hardCap; // \n        bool settlementFinished; // \n        bool stepIsClosed; // \n        uint256 blockNumber; // \n    }\n\n    // \n    address[] resonances;\n\n    // \n    mapping(address => uint256) resonancesRasiedETH;\n    mapping(address => uint256) resonancesRasiedToken;\n\n    uint256 public currentStep;\n\n    mapping(uint256 => Step) steps;\n\n    address public initialFissionPerson; // \n\n    mapping(uint256 => uint256) ETHFromParty; // ETH\n\n    uint256 public totalETHFromParty; // \n\n    mapping(uint256 => uint256) tokenFromParty; //token\n\n    mapping(uint256 => bool) public tokenTransfered; // Token\n\n    bool public firstParamInitialized;\n\n    // \n    /// @notice \n    /// @param _abcToken Token\n    constructor(\n        address _resonanceDataManageAddress,\n        ABCToken _abcToken,\n        address _fassionRewardAddress,\n        address _FOMORewardAddress,\n        address _luckyRewardAddress,\n        address _faithRewardAddress\n    )\n        public\n    {\n        resonanceDataManage = ResonanceDataManage(_resonanceDataManageAddress);\n        // \n        fissionRewardInstance = FissionReward(_fassionRewardAddress);\n        FOMORewardInstance = FOMOReward(_FOMORewardAddress);\n        luckyRewardInstance = LuckyReward(_luckyRewardAddress);\n        faithRewardInstance = FaithReward(_faithRewardAddress);\n        currentStep = 0;\n        abcToken = _abcToken; // abc Token\n    }\n\n\n    /// @notice \n    /// @dev ResonanceDataManage\n    function initParamForFirstStep(\n        address _newOwner,\n        address payable _beneficiary,\n        address _initialFissionPerson\n    )\n        public\n        onlyOwner()\n    {\n        require(!firstParamInitialized, \"\");\n        // \n        beneficiary = _beneficiary;\n        // \n        initialFissionPerson = _initialFissionPerson;\n        resonanceDataManage.setOpeningTime(block.timestamp); // \n        steps[currentStep].building.openTokenAmount = UintUtils.toWei(1500000); // Token\n        resonanceDataManage.setParamForFirstStep();\n        // Token\n        resonanceDataManage.updateBuildingPercent(currentStep);\n        firstParamInitialized = true;\n        // \n        transferOwnership(_newOwner);\n    }\n\n    /// @notice \n    /// @param promoter \n    /// @dev TokenApprove\n    function toBeFissionPerson(\n        address promoter\n    )\n        public\n        returns(address, address)\n    {\n        require(resonanceDataManage.isBuildingPeriod(), \"\");\n        require(!resonanceDataManage.getCrowdsaleClosed(), \"\");\n\n        if(initialFissionPerson != promoter){\n            require(steps[currentStep].funder[promoter].isBuilder,\"Builder\");\n        }\n\n        require(promoter != address(0), \"\");\n\n        // \n        require(abcToken.allowance(msg.sender, address(this)) >= UintUtils.toWei(8),\"\");\n\n        require(abcToken.transferFrom(msg.sender,address(this), UintUtils.toWei(8)),\"token\");\n\n        // 3\n        abcToken.burn(UintUtils.toWei(3));\n\n        // 5\n        abcToken.transfer(address(promoter), UintUtils.toWei(5));\n\n        steps[currentStep].funder[promoter].earnFromAff += UintUtils.toWei(5);\n\n        // \n        _addBuilder(promoter);\n\n        steps[currentStep].funder[promoter].invitees.push(msg.sender);\n\n        fissionRewardInstance.addAffman(currentStep, promoter, initialFissionPerson);\n\n        // emit ToBeFissionPerson(msg.sender, promoter);\n        return(msg.sender, promoter);\n    }\n\n    /// @notice \n    /// @dev \n    function setRaiseTarget(\n        uint256 _raiseTarget\n    )\n        public\n        onlyOwner()\n        returns(uint256, uint256)\n    {\n        require(resonanceDataManage.isBuildingPeriod(), \"\");\n        steps[currentStep].funding.raiseTarget = UintUtils.toWei(_raiseTarget);\n        // \n        steps[currentStep].softCap = UintUtils.toWei(steps[currentStep].funding.raiseTarget.mul(60).div(100));\n        steps[currentStep].hardCap = UintUtils.toWei(steps[currentStep].funding.raiseTarget);\n\n        // emit SetRaiseTarget(currentStep, _raiseTarget);\n        return(currentStep, _raiseTarget);\n    }\n\n    /// @notice \n    function getRaiseTarget(uint256 _stepIndex) public view returns(uint256) {\n        return steps[_stepIndex].funding.raiseTarget;\n    }\n\n    // token\n    function jointlyBuild(uint256 _tokenAmount) public {\n        require(resonanceDataManage.isBuildingPeriod(), \"\");\n\n        require(!resonanceDataManage.getCrowdsaleClosed(), \"\");\n\n        // builder\n        require(isBuilder(), \"Builder\");\n\n        // \n        require(steps[currentStep].building.raisedToken.add(_tokenAmount) < steps[currentStep].building.openTokenAmount, \"Token\");\n\n        // \n        require(\n            steps[currentStep].funder[msg.sender].tokenAmount.add(_tokenAmount) <= steps[currentStep].building.openTokenAmount.mul(1).div(100),\n            \"\"\n        );\n\n        // \n        require(abcToken.allowance(msg.sender, address(this)) >= UintUtils.toWei(_tokenAmount),\"\");\n\n        // \n        require(abcToken.transferFrom(msg.sender,address(this), UintUtils.toWei(_tokenAmount)),\"token\");\n\n        steps[currentStep].funder[msg.sender].tokenAmount += UintUtils.toWei(_tokenAmount);\n\n        // TokenToken\n        steps[currentStep].building.openTokenAmount -= UintUtils.toWei(_tokenAmount);\n\n        // Token\n        resonanceDataManage.setFundsPool(resonanceDataManage.getFundsPool() - UintUtils.toWei(_tokenAmount));\n\n        // \n        resonancesRasiedToken[msg.sender] += _tokenAmount;\n\n        // token\n        steps[currentStep].building.raisedToken += _tokenAmount;\n    }\n\n    /// @notice Token\n    function transferToken() public payable onlyOwner() returns(bool) {\n        require(!tokenTransfered[currentStep], \"Token\");\n        // \n        require(abcToken.allowance(msg.sender, address(this)) >= UintUtils.toWei(resonanceDataManage.getBuildingTokenFromParty()),\n            \"\"\n        );\n        // \n        require(abcToken.transferFrom(\n            msg.sender,address(this),\n            UintUtils.toWei(resonanceDataManage.getBuildingTokenFromParty())),\n            \"token\"\n        );\n\n        return tokenTransfered[currentStep];\n    }\n\n    // \n    // \n    function ()\n        external\n        payable\n    {\n        require(resonanceDataManage.isFundingPeriod(), \"\");\n\n        require(!resonanceDataManage.getCrowdsaleClosed(), \"\");\n\n        uint amount = msg.value;\n        steps[currentStep].funder[msg.sender].ethAmount = amount;\n        steps[currentStep].funder[msg.sender].isFunder = true;\n        steps[currentStep].funding.raisedETH += amount;\n\n        resonances.push(msg.sender);\n        resonancesRasiedETH[msg.sender] += amount;\n    }\n\n    /// @notice \n    /// @dev \n    /// @param _fissionWinnerList \n    /// @param _LuckyWinnerList \n    function settlementStep(\n        address[] memory _fissionWinnerList,\n        address[] memory _LuckyWinnerList\n    )\n        public\n        onlyOwner()\n        returns(bool)\n    {\n        require(beneficiary != address(0), \"\");\n        // \n        ETHFromParty[currentStep] = steps[currentStep].funding.raisedETH.mul(resonanceDataManage.getBuildingPercentOfParty()).mul(40).div(100);\n        totalETHFromParty += ETHFromParty[currentStep];\n        // FOMO\n        _settlementReward(_fissionWinnerList);\n        // \n        _settlementLuckyReward(_LuckyWinnerList);\n        // \n        resonanceDataManage.setETHBalance(\n            beneficiary,\n            resonanceDataManage.getETHBalance(beneficiary) + UintUtils.toWei(steps[currentStep].funding.raisedETH.mul(60).div(100))\n        );\n        // emit SettlementStep(currentStep);\n\n        if(resonanceDataManage.getCrowdsaleClosed()) {\n            return true;\n        }else{\n            // \n            _startNextStep();\n            return false;\n        }\n    }\n\n    /// @notice \n    /// @param _FaithWinnerList \n    function settlementFaithReward(\n        address[] memory _FaithWinnerList\n    )\n        public\n        onlyOwner()\n        returns(bool)\n    {\n        require(resonanceDataManage.getCrowdsaleClosed(), \"\");\n        return resonanceDataManage.dmSettlementFaithReward(\n            _FaithWinnerList,\n            UintUtils.toWei(totalETHFromParty.mul(5).div(100))\n        );\n    }\n\n    /// @notice FOMO\n    /// @dev ,\n    function _settlementReward(\n        address[] memory _fissionWinnerList\n    )\n        internal\n        onlyOwner()\n    {\n        require(!steps[currentStep].settlementFinished, \"\");\n        require(!steps[currentStep].stepIsClosed, \"\");\n\n        resonanceDataManage.settlementFissionReward(\n            currentStep,\n            _fissionWinnerList,\n            ETHFromParty[currentStep].mul(20).div(100)\n        );\n\n        resonanceDataManage.settlementFOMOReward(\n            currentStep,\n            steps[currentStep].funders,\n            UintUtils.toWei(ETHFromParty[currentStep].mul(10).div(100))\n        );\n    }\n\n    /// @notice \n    function _settlementLuckyReward(\n        address[] memory _LuckyWinnerList\n    )\n        internal\n        onlyOwner()\n    {\n        resonanceDataManage.settlementLuckyReward(\n            currentStep,\n            _LuckyWinnerList,\n            UintUtils.toWei(ETHFromParty[currentStep].mul(5).div(100))\n        );\n    }\n\n    /// \n    function _startNextStep()\n        internal\n    {\n        // \n        require(!resonanceDataManage.crowdsaleIsClosed(currentStep, steps[currentStep].funding.raisedETH, steps[currentStep].softCap), \"\");\n        // step\n        steps[currentStep].settlementFinished = true;\n        // \n        steps[currentStep].stepIsClosed = true;\n        // \n        currentStep++;\n        // \n        resonanceDataManage.setOpeningTime(block.timestamp);\n        // Token\n        resonanceDataManage.updateBuildingPercent(currentStep);\n\n        steps[currentStep].building.openTokenAmount = resonanceDataManage.getBuildingTokenAmount();\n        // TODO:\n        // emit StartNextStep(currentStep);\n    }\n\n    /// @notice tokentoken\n    function withdrawAllToken()\n        public\n        payable\n        returns(address, address, uint256)\n    {\n        require(!steps[currentStep].funder[msg.sender].tokenHasWithdrawn, \"token\");\n        uint256 withdrawAmount = resonanceDataManage.withdrawTokenAmount(msg.sender);\n        resonanceDataManage.emptyTokenBalance();\n        steps[currentStep].funder[msg.sender].tokenHasWithdrawn = true;\n        abcToken.transferFrom(address(this), msg.sender, withdrawAmount);\n        // emit WithdrawAllToken(address(this), msg.sender, withdrawAmount);\n        return(address(this), msg.sender, withdrawAmount);\n    }\n\n    /// @notice (ETH)\n    function withdrawAllETH()\n        public\n        payable\n        returns(address, uint256)\n    {\n        require(!steps[currentStep].funder[msg.sender].ETHHasWithdrawn, \"ETH\");\n        uint256 withdrawAmount = resonanceDataManage.withdrawETHAmount(msg.sender);\n        resonanceDataManage.emptyETHBalance();\n        steps[currentStep].funder[msg.sender].ETHHasWithdrawn = true;\n        msg.sender.transfer(withdrawAmount);\n        // emit WithdrawAllETH(msg.sender, withdrawAmount);\n        return(msg.sender, withdrawAmount);\n    }\n\n    /// @notice \n    /// @dev jointlyBuildtoBeFissionPerson\n    function isBuilder() public view returns(bool) {\n        return steps[currentStep].funder[msg.sender].isBuilder;\n    }\n\n    /// @notice \n    function isFunder() public view returns(bool) {\n        return steps[currentStep].funder[msg.sender].isFunder;\n    }\n\n    /// @notice \n    function getResonances()\n        public\n        view\n        onlyOwner()\n        returns(address[] memory)\n    {\n        // emit GetResonances(resonances);\n        return(resonances);\n    }\n\n    /// @notice ETH\n    function getFunderTotalRaised(address _funder) public view onlyOwner() returns(uint256){\n        // emit FunderTotalRaised(resonancesRasiedETH[_funder]);\n        return resonancesRasiedETH[_funder];\n    }\n\n    /// @notice funders\n    /// @dev funders\n    /// @param _stepIndex \n    function getStepFunders(uint256 _stepIndex)\n        public\n        view\n        onlyOwner()\n        returns\n    (\n            address[] memory,\n            uint256[] memory,\n            uint256[] memory,\n            uint256[] memory,\n            uint256[] memory\n    )\n    {\n        address[] memory funderAddress;\n        uint256[] memory funderTokenAmount;\n        uint256[] memory funderETHAmount;\n        uint256[] memory funderInvitees;\n        uint256[] memory earnFromAff;\n\n        funderAddress = steps[_stepIndex].funders;\n\n        for(uint i = 0 ; i < funderAddress.length; i++){\n            funderTokenAmount[i] = steps[_stepIndex].funder[funderAddress[i]].tokenAmount;\n            funderETHAmount[i] = steps[_stepIndex].funder[funderAddress[i]].ethAmount;\n            funderInvitees[i] = steps[_stepIndex].funder[funderAddress[i]].invitees.length;\n            earnFromAff[i] = steps[currentStep].funder[funderAddress[i]].earnFromAff;\n        }\n\n        // emit StepFunders(funderAddress, funderTokenAmount, funderETHAmount, funderInvitees, earnFromAff);\n        return (funderAddress, funderTokenAmount, funderETHAmount, funderInvitees, earnFromAff);\n    }\n\n    /// @notice tokenETH\n    function getCurrentStepFundsInfo()\n        public\n        view\n        onlyOwner()\n        returns(uint256, uint256, uint256)\n    {\n        // emit FundsInfo(steps[currentStep].building.openTokenAmount, steps[currentStep].funding.raisedETH);\n        return(currentStep, steps[currentStep].building.openTokenAmount, steps[currentStep].funding.raisedETH);\n    }\n\n    /// @notice \n    function getBuildingPerioInfo()\n        public\n        view\n        returns(uint256, uint256, uint256, uint256)\n    {\n        require(resonanceDataManage.isBuildingPeriod(), \"\");\n        uint256 _bpCountdown;\n        uint256 _remainingToken;\n        uint256 _personalTokenLimited;\n        uint256 _totalTokenAmount;\n\n        _bpCountdown = (resonanceDataManage.getOpeningTime() + 8 hours) - block.timestamp;\n        _remainingToken = steps[currentStep].building.openTokenAmount.sub(steps[currentStep].building.raisedToken);\n        _personalTokenLimited = steps[currentStep].building.personalTokenLimited;\n        _totalTokenAmount = steps[currentStep].building.raisedTokenAmount;\n        // emit BuildingPerioInfo(_bpCountdown, _remainingToken, _personalTokenLimited, _totalTokenAmount);\n        return(_bpCountdown, _remainingToken, _personalTokenLimited, _totalTokenAmount);\n    }\n\n    // \n    function getFundingPeriodInfo()\n        public\n        view\n        returns(uint256, uint256, uint256)\n    {\n        require(resonanceDataManage.isFundingPeriod(), \"\");\n\n        uint256 _fpCountdown;\n        uint256 _remainingETH;\n        uint256 _rasiedETHAmount;\n\n        _fpCountdown = (resonanceDataManage.getOpeningTime() + 24) - block.timestamp;\n        _remainingETH = steps[currentStep].funding.raiseTarget.sub(steps[currentStep].funding.raisedETH);\n        _rasiedETHAmount = steps[currentStep].funding.raisedETH;\n        // emit FundingPeriodInfo(_fpCountdown, _remainingETH, _rasiedETHAmount);\n        return(_fpCountdown, _remainingETH, _rasiedETHAmount);\n    }\n\n    /// @notice \n    // TODO:msg.sender\n    function getFunderInfo()\n        public\n        view\n        returns\n    (\n        uint256,\n        uint256,\n        uint256,\n        uint256,\n        uint256,\n        uint256,\n        uint256,\n        uint256,\n        uint256,\n        uint256\n    )\n\n    {\n        Funder memory funder = steps[currentStep].funder[msg.sender];\n\n        uint256[] memory funderInfo;\n\n        funderInfo[0] = resonanceDataManage.getTokenBalance(msg.sender);\n        funderInfo[1] = resonanceDataManage.getETHBalance(msg.sender);\n        funderInfo[2] = funder.invitees.length;\n        funderInfo[3] = funder.earnFromAff;\n        funderInfo[4] = funder.tokenAmount;\n        funderInfo[5] = funder.ethAmount;\n        funderInfo[6] = luckyRewardInstance.luckyFunderTotalBalance(msg.sender);\n        funderInfo[7] = fissionRewardInstance.fissionFunderTotalBalance(msg.sender);\n        funderInfo[8] = FOMORewardInstance.FOMOFunderTotalBalance(msg.sender);\n        funderInfo[9] = faithRewardInstance.faithRewardAmount(msg.sender);\n\n        // emit FunderInfo(funderInfo);\n        return(\n            funderInfo[0],\n            funderInfo[1],\n            funderInfo[2],\n            funderInfo[3],\n            funderInfo[4],\n            funderInfo[5],\n            funderInfo[6],\n            funderInfo[7],\n            funderInfo[8],\n            funderInfo[9]\n        );\n    }\n\n    /// @notice \n    /// @param _promoter msg.sender\n    function _addBuilder(address _promoter) internal {\n        // \n        steps[currentStep].funder[msg.sender].funderAddr = msg.sender;\n        steps[currentStep].funder[msg.sender].promoter = _promoter;\n        steps[currentStep].funder[msg.sender].isBuilder = true;\n    }\n\n    /// @notice hash\n    function getBlockHash() public view returns(bytes32 blockHash) {\n        return blockhash(steps[currentStep].blockNumber.add(1));\n    }\n\n    /// @notice \n    function currentStepIsClosed(uint256 _stepIndex) public view returns(bool) {\n        return steps[_stepIndex].stepIsClosed;\n    }\n\n    bool refundIsFinished;\n\n    /// @notice \n    /// @dev tokenETH\n    function refund() public onlyOwner() returns(bool){\n\n        // \n        require(!refundIsFinished, \"\");\n\n        // \n        uint256 resonanceClosedStep = resonanceDataManage.getResonanceClosedStep();\n        address[] memory funders = steps[resonanceClosedStep].funders;\n\n        // ETH\n        for(uint i = 0; i < funders.length; i++){\n            resonanceDataManage.setETHBalance(\n                funders[i],\n                resonanceDataManage.getETHBalance(funders[i]) + steps[resonanceClosedStep].funder[funders[i]].ethAmount\n            );\n\n            resonanceDataManage.setETHBalance(\n                funders[i],\n                resonanceDataManage.getTokenBalance(funders[i]) + steps[resonanceClosedStep].funder[funders[i]].tokenAmount\n            );\n        }\n\n        refundIsFinished = true;\n\n        return refundIsFinished;\n    }\n\n}",
  "sourcePath": "/Users/a186r/dev/sourcecode/contract/contract/contracts/Resonance.sol",
  "compiler": {
    "name": "solc",
    "version": "0.5.2+commit.1df8f40c.Emscripten.clang"
  },
  "schemaVersion": "3.0.6",
  "updatedAt": "2019-05-29T14:48:22.855Z",
  "devdoc": {
    "methods": {
      "constructor": {
        "params": {
          "_abcToken": "Token"
        }
      },
      "getStepFunders(uint256)": {
        "details": "funders",
        "params": {
          "_stepIndex": ""
        }
      },
      "initParamForFirstStep(address,address,address)": {
        "details": "ResonanceDataManage"
      },
      "isBuilder()": {
        "details": "jointlyBuildtoBeFissionPerson"
      },
      "isOwner()": {
        "return": "true if `msg.sender` is the owner of the contract."
      },
      "owner()": {
        "return": "the address of the owner."
      },
      "refund()": {
        "details": "tokenETH"
      },
      "renounceOwnership()": {
        "details": "Allows the current owner to relinquish control of the contract. It will not be possible to call the functions with the `onlyOwner` modifier anymore."
      },
      "setRaiseTarget(uint256)": {
        "details": ""
      },
      "settlementFaithReward(address[])": {
        "params": {
          "_FaithWinnerList": ""
        }
      },
      "settlementStep(address[],address[])": {
        "details": "",
        "params": {
          "_LuckyWinnerList": "",
          "_fissionWinnerList": ""
        }
      },
      "toBeFissionPerson(address)": {
        "details": "TokenApprove",
        "params": {
          "promoter": ""
        }
      },
      "transferOwnership(address)": {
        "details": "Allows the current owner to transfer control of the contract to a newOwner.",
        "params": {
          "newOwner": "The address to transfer ownership to."
        }
      }
    }
  },
  "userdoc": {
    "methods": {
      "constructor": "",
      "currentStepIsClosed(uint256)": {
        "notice": ""
      },
      "getBlockHash()": {
        "notice": "hash"
      },
      "getBuildingPerioInfo()": {
        "notice": ""
      },
      "getCurrentStepFundsInfo()": {
        "notice": "tokenETH"
      },
      "getFunderInfo()": {
        "notice": ""
      },
      "getFunderTotalRaised(address)": {
        "notice": "ETH"
      },
      "getRaiseTarget(uint256)": {
        "notice": ""
      },
      "getResonances()": {
        "notice": ""
      },
      "getStepFunders(uint256)": {
        "notice": "funders"
      },
      "initParamForFirstStep(address,address,address)": {
        "notice": ""
      },
      "isBuilder()": {
        "notice": ""
      },
      "isFunder()": {
        "notice": ""
      },
      "refund()": {
        "notice": ""
      },
      "renounceOwnership()": {
        "notice": "Renouncing ownership will leave the contract without an owner, thereby removing any functionality that is only available to the owner."
      },
      "setRaiseTarget(uint256)": {
        "notice": ""
      },
      "settlementFaithReward(address[])": {
        "notice": ""
      },
      "settlementStep(address[],address[])": {
        "notice": ""
      },
      "toBeFissionPerson(address)": {
        "notice": ""
      },
      "transferToken()": {
        "notice": "Token"
      },
      "withdrawAllETH()": {
        "notice": "(ETH)"
      },
      "withdrawAllToken()": {
        "notice": "tokentoken"
      }
    }
  }
}