{
  "contractName": "Resonance",
  "abi": [
    {
      "constant": true,
      "inputs": [],
      "name": "currentStep",
      "outputs": [
        {
          "name": "",
          "type": "uint256"
        }
      ],
      "payable": false,
      "stateMutability": "view",
      "type": "function"
    },
    {
      "constant": false,
      "inputs": [],
      "name": "renounceOwnership",
      "outputs": [],
      "payable": false,
      "stateMutability": "nonpayable",
      "type": "function"
    },
    {
      "constant": true,
      "inputs": [],
      "name": "owner",
      "outputs": [
        {
          "name": "",
          "type": "address"
        }
      ],
      "payable": false,
      "stateMutability": "view",
      "type": "function"
    },
    {
      "constant": true,
      "inputs": [],
      "name": "isOwner",
      "outputs": [
        {
          "name": "",
          "type": "bool"
        }
      ],
      "payable": false,
      "stateMutability": "view",
      "type": "function"
    },
    {
      "constant": true,
      "inputs": [],
      "name": "abcToken",
      "outputs": [
        {
          "name": "",
          "type": "address"
        }
      ],
      "payable": false,
      "stateMutability": "view",
      "type": "function"
    },
    {
      "constant": false,
      "inputs": [
        {
          "name": "newOwner",
          "type": "address"
        }
      ],
      "name": "transferOwnership",
      "outputs": [],
      "payable": false,
      "stateMutability": "nonpayable",
      "type": "function"
    },
    {
      "inputs": [
        {
          "name": "_abcToken",
          "type": "address"
        },
        {
          "name": "_beneficiary",
          "type": "address"
        },
        {
          "name": "_initialFissionPerson",
          "type": "address"
        },
        {
          "name": "_fassionRewardAddress",
          "type": "address"
        },
        {
          "name": "_FOMORewardAddress",
          "type": "address"
        },
        {
          "name": "_luckyRewardAddress",
          "type": "address"
        },
        {
          "name": "_faithRewardAddress",
          "type": "address"
        }
      ],
      "payable": false,
      "stateMutability": "nonpayable",
      "type": "constructor"
    },
    {
      "payable": true,
      "stateMutability": "payable",
      "type": "fallback"
    },
    {
      "anonymous": false,
      "inputs": [
        {
          "indexed": true,
          "name": "fissionPerson",
          "type": "address"
        },
        {
          "indexed": true,
          "name": "promoter",
          "type": "address"
        }
      ],
      "name": "ToBeFissionPerson",
      "type": "event"
    },
    {
      "anonymous": false,
      "inputs": [
        {
          "indexed": false,
          "name": "currentStepTokenAmount",
          "type": "uint256"
        },
        {
          "indexed": false,
          "name": "currentStepRaisedETH",
          "type": "uint256"
        }
      ],
      "name": "FundsInfo",
      "type": "event"
    },
    {
      "anonymous": false,
      "inputs": [
        {
          "indexed": false,
          "name": "bpCountdown",
          "type": "uint256"
        },
        {
          "indexed": false,
          "name": "remainingToken",
          "type": "uint256"
        },
        {
          "indexed": false,
          "name": "personalTokenLimited",
          "type": "uint256"
        },
        {
          "indexed": false,
          "name": "totalTokenAmount",
          "type": "uint256"
        }
      ],
      "name": "BuildingPerioInfo",
      "type": "event"
    },
    {
      "anonymous": false,
      "inputs": [
        {
          "indexed": false,
          "name": "fpCountdown",
          "type": "uint256"
        },
        {
          "indexed": false,
          "name": "remainingETH",
          "type": "uint256"
        },
        {
          "indexed": false,
          "name": "rasiedETHAmount",
          "type": "uint256"
        }
      ],
      "name": "FundingPeriodInfo",
      "type": "event"
    },
    {
      "anonymous": false,
      "inputs": [
        {
          "indexed": false,
          "name": "fissionRewardList",
          "type": "address[]"
        },
        {
          "indexed": false,
          "name": "fissionRewardAmount",
          "type": "uint256[]"
        }
      ],
      "name": "FissionRewardInfo",
      "type": "event"
    },
    {
      "anonymous": false,
      "inputs": [
        {
          "indexed": false,
          "name": "FOMORewardList",
          "type": "address[]"
        },
        {
          "indexed": false,
          "name": "FOMORewards",
          "type": "uint256[]"
        }
      ],
      "name": "FOMORewardInfo",
      "type": "event"
    },
    {
      "anonymous": false,
      "inputs": [
        {
          "indexed": false,
          "name": "luckyRewardList",
          "type": "address[]"
        },
        {
          "indexed": false,
          "name": "luckyReward",
          "type": "uint256"
        }
      ],
      "name": "LuckyRewardInfo",
      "type": "event"
    },
    {
      "anonymous": false,
      "inputs": [
        {
          "indexed": false,
          "name": "faithRewardList",
          "type": "address[]"
        },
        {
          "indexed": false,
          "name": "faithRewardAmount",
          "type": "uint256[]"
        }
      ],
      "name": "FaithRewardInfo",
      "type": "event"
    },
    {
      "anonymous": false,
      "inputs": [
        {
          "indexed": false,
          "name": "funder",
          "type": "address"
        },
        {
          "indexed": false,
          "name": "ETHAmount",
          "type": "uint256"
        }
      ],
      "name": "WithdrawAllETH",
      "type": "event"
    },
    {
      "anonymous": false,
      "inputs": [
        {
          "indexed": false,
          "name": "FunderInfoArray",
          "type": "uint256[]"
        }
      ],
      "name": "FunderInfo",
      "type": "event"
    },
    {
      "anonymous": false,
      "inputs": [
        {
          "indexed": false,
          "name": "funderAddress",
          "type": "address[]"
        },
        {
          "indexed": false,
          "name": "funderTokenAmount",
          "type": "uint256[]"
        }
      ],
      "name": "CurrentStepFunders",
      "type": "event"
    },
    {
      "anonymous": false,
      "inputs": [
        {
          "indexed": true,
          "name": "previousOwner",
          "type": "address"
        },
        {
          "indexed": true,
          "name": "newOwner",
          "type": "address"
        }
      ],
      "name": "OwnershipTransferred",
      "type": "event"
    },
    {
      "constant": false,
      "inputs": [
        {
          "name": "promoter",
          "type": "address"
        }
      ],
      "name": "toBeFissionPerson",
      "outputs": [],
      "payable": false,
      "stateMutability": "nonpayable",
      "type": "function"
    },
    {
      "constant": false,
      "inputs": [
        {
          "name": "_tokenAmount",
          "type": "uint256"
        }
      ],
      "name": "jointlyBuild",
      "outputs": [],
      "payable": false,
      "stateMutability": "nonpayable",
      "type": "function"
    },
    {
      "constant": false,
      "inputs": [],
      "name": "SettlementStep",
      "outputs": [],
      "payable": false,
      "stateMutability": "nonpayable",
      "type": "function"
    },
    {
      "constant": false,
      "inputs": [
        {
          "name": "_fissionWinnerList",
          "type": "address[]"
        },
        {
          "name": "_LuckyWinnerList",
          "type": "address[]"
        },
        {
          "name": "_FaithWinnerList",
          "type": "address[]"
        }
      ],
      "name": "settlementReward",
      "outputs": [],
      "payable": false,
      "stateMutability": "nonpayable",
      "type": "function"
    },
    {
      "constant": false,
      "inputs": [],
      "name": "withdrawAllETH",
      "outputs": [],
      "payable": true,
      "stateMutability": "payable",
      "type": "function"
    },
    {
      "constant": false,
      "inputs": [],
      "name": "withdrawMyReward",
      "outputs": [],
      "payable": false,
      "stateMutability": "nonpayable",
      "type": "function"
    },
    {
      "constant": false,
      "inputs": [
        {
          "name": "_stepIndex",
          "type": "uint256"
        }
      ],
      "name": "getCurrentStepFunders",
      "outputs": [],
      "payable": false,
      "stateMutability": "nonpayable",
      "type": "function"
    },
    {
      "constant": false,
      "inputs": [],
      "name": "getCurrentStepFundsInfo",
      "outputs": [],
      "payable": false,
      "stateMutability": "nonpayable",
      "type": "function"
    },
    {
      "constant": false,
      "inputs": [],
      "name": "getBuildingPerioInfo",
      "outputs": [],
      "payable": false,
      "stateMutability": "nonpayable",
      "type": "function"
    },
    {
      "constant": false,
      "inputs": [],
      "name": "getFundingPeriodInfo",
      "outputs": [],
      "payable": false,
      "stateMutability": "nonpayable",
      "type": "function"
    },
    {
      "constant": false,
      "inputs": [
        {
          "name": "_stepIndex",
          "type": "uint256"
        }
      ],
      "name": "getFissionRewardInfo",
      "outputs": [],
      "payable": false,
      "stateMutability": "nonpayable",
      "type": "function"
    },
    {
      "constant": false,
      "inputs": [
        {
          "name": "_stepIndex",
          "type": "uint256"
        }
      ],
      "name": "getFOMORewardIofo",
      "outputs": [],
      "payable": false,
      "stateMutability": "nonpayable",
      "type": "function"
    },
    {
      "constant": false,
      "inputs": [
        {
          "name": "_stepIndex",
          "type": "uint256"
        }
      ],
      "name": "getLuckyRewardInfo",
      "outputs": [],
      "payable": false,
      "stateMutability": "nonpayable",
      "type": "function"
    },
    {
      "constant": false,
      "inputs": [
        {
          "name": "_stepIndex",
          "type": "uint256"
        }
      ],
      "name": "getFaithRewardInfo",
      "outputs": [],
      "payable": false,
      "stateMutability": "nonpayable",
      "type": "function"
    },
    {
      "constant": false,
      "inputs": [],
      "name": "getFunderInfo",
      "outputs": [],
      "payable": false,
      "stateMutability": "nonpayable",
      "type": "function"
    },
    {
      "constant": true,
      "inputs": [],
      "name": "Beneficiary",
      "outputs": [
        {
          "name": "",
          "type": "address"
        }
      ],
      "payable": false,
      "stateMutability": "view",
      "type": "function"
    }
  ],
  "bytecode": "0x60806040526000600560006101000a81548160ff02191690831515021790555034801561002b57600080fd5b5060405160e080620046ab833981018060405260e081101561004c57600080fd5b8101908080519060200190929190805190602001909291908051906020019092919080519060200190929190805190602001909291908051906020019092919080519060200190929190505050336000806101000a81548173ffffffffffffffffffffffffffffffffffffffff021916908373ffffffffffffffffffffffffffffffffffffffff1602179055506000809054906101000a900473ffffffffffffffffffffffffffffffffffffffff1673ffffffffffffffffffffffffffffffffffffffff16600073ffffffffffffffffffffffffffffffffffffffff167f8be0079c531659141344cd1fd0a4f28419497f9722a3daafe3b4186f6b6457e060405160405180910390a386600160006101000a81548173ffffffffffffffffffffffffffffffffffffffff021916908373ffffffffffffffffffffffffffffffffffffffff16021790555084600b60006101000a81548173ffffffffffffffffffffffffffffffffffffffff021916908373ffffffffffffffffffffffffffffffffffffffff16021790555085600360006101000a81548173ffffffffffffffffffffffffffffffffffffffff021916908373ffffffffffffffffffffffffffffffffffffffff1602179055504260048190555083600560016101000a81548173ffffffffffffffffffffffffffffffffffffffff021916908373ffffffffffffffffffffffffffffffffffffffff16021790555082600660006101000a81548173ffffffffffffffffffffffffffffffffffffffff021916908373ffffffffffffffffffffffffffffffffffffffff16021790555081600760006101000a81548173ffffffffffffffffffffffffffffffffffffffff021916908373ffffffffffffffffffffffffffffffffffffffff16021790555080600860006101000a81548173ffffffffffffffffffffffffffffffffffffffff021916908373ffffffffffffffffffffffffffffffffffffffff16021790555050505050505050614371806200033a6000396000f3fe608060405260043610610152576000357c01000000000000000000000000000000000000000000000000000000009004806390386bbf116100c8578063bd3cd8241161008c578063bd3cd824146107f9578063c12cd1bc14610834578063c23afb8a1461084b578063de3844ff14610886578063e7574128146108d7578063f2fde38b1461092e57610152565b806390386bbf14610599578063912c84ec146105a3578063a6371829146105ba578063b0aeefc6146105d1578063b4862a71146107be57610152565b8063715018a61161011a578063715018a61461045357806373d553791461046a57806384641227146104c15780638a18854b146104d85780638da5cb5b146105135780638f32d59b1461056a57610152565b80631e7efbc9146103845780633723e1c2146103bf57806348b6862e146103fa5780635bc34f711461041157806364ab07fa1461043c575b600560009054906101000a900460ff161515156101d7576040517f08c379a00000000000000000000000000000000000000000000000000000000081526004018080602001828103825260128152602001807fe585b1e68cafe5b7b2e7bb8fe7bb93e69d9f000000000000000000000000000081525060200191505060405180910390fd5b6170806004540142101580156101f35750620151806004540142105b1515610267576040517f08c379a00000000000000000000000000000000000000000000000000000000081526004018080602001828103825260128152602001807fe4b88de59ca8e58b9fe8b584e69c9fe58685000000000000000000000000000081525060200191505060405180910390fd5b600034905080600a60095481548110151561027e57fe5b90600052602060002090600d020160000160003373ffffffffffffffffffffffffffffffffffffffff1673ffffffffffffffffffffffffffffffffffffffff168152602001908152602001600020600201819055506001600a6009548154811015156102e657fe5b90600052602060002090600d020160000160003373ffffffffffffffffffffffffffffffffffffffff1673ffffffffffffffffffffffffffffffffffffffff16815260200190815260200160002060050160156101000a81548160ff02191690831515021790555080600a60095481548110151561036057fe5b90600052602060002090600d02016006016001016000828254019250508190555050005b34801561039057600080fd5b506103bd600480360360208110156103a757600080fd5b810190808035906020019092919050505061097f565b005b3480156103cb57600080fd5b506103f8600480360360208110156103e257600080fd5b8101908080359060200190929190505050610a2b565b005b34801561040657600080fd5b5061040f610ad7565b005b34801561041d57600080fd5b50610426610ad9565b6040518082815260200191505060405180910390f35b34801561044857600080fd5b50610451610adf565b005b34801561045f57600080fd5b50610468610d04565b005b34801561047657600080fd5b5061047f610dd6565b604051808273ffffffffffffffffffffffffffffffffffffffff1673ffffffffffffffffffffffffffffffffffffffff16815260200191505060405180910390f35b3480156104cd57600080fd5b506104d6610e00565b005b3480156104e457600080fd5b50610511600480360360208110156104fb57600080fd5b8101908080359060200190929190505050610e4a565b005b34801561051f57600080fd5b50610528610ef6565b604051808273ffffffffffffffffffffffffffffffffffffffff1673ffffffffffffffffffffffffffffffffffffffff16815260200191505060405180910390f35b34801561057657600080fd5b5061057f610f1f565b604051808215151515815260200191505060405180910390f35b6105a1610f76565b005b3480156105af57600080fd5b506105b86115e8565b005b3480156105c657600080fd5b506105cf6116f8565b005b3480156105dd57600080fd5b506107bc600480360360608110156105f457600080fd5b810190808035906020019064010000000081111561061157600080fd5b82018360208201111561062357600080fd5b8035906020019184602083028401116401000000008311171561064557600080fd5b919080806020026020016040519081016040528093929190818152602001838360200280828437600081840152601f19601f820116905080830192505050505050509192919290803590602001906401000000008111156106a557600080fd5b8201836020820111156106b757600080fd5b803590602001918460208302840111640100000000831117156106d957600080fd5b919080806020026020016040519081016040528093929190818152602001838360200280828437600081840152601f19601f8201169050808301925050505050505091929192908035906020019064010000000081111561073957600080fd5b82018360208201111561074b57600080fd5b8035906020019184602083028401116401000000008311171561076d57600080fd5b919080806020026020016040519081016040528093929190818152602001838360200280828437600081840152601f19601f820116905080830192505050505050509192919290505050611e5a565b005b3480156107ca57600080fd5b506107f7600480360360208110156107e157600080fd5b8101908080359060200190929190505050612329565b005b34801561080557600080fd5b506108326004803603602081101561081c57600080fd5b8101908080359060200190929190505050612aab565b005b34801561084057600080fd5b50610849612cd0565b005b34801561085757600080fd5b506108846004803603602081101561086e57600080fd5b8101908080359060200190929190505050612ec7565b005b34801561089257600080fd5b506108d5600480360360208110156108a957600080fd5b81019080803573ffffffffffffffffffffffffffffffffffffffff169060200190929190505050612f73565b005b3480156108e357600080fd5b506108ec613ad4565b604051808273ffffffffffffffffffffffffffffffffffffffff1673ffffffffffffffffffffffffffffffffffffffff16815260200191505060405180910390f35b34801561093a57600080fd5b5061097d6004803603602081101561095157600080fd5b81019080803573ffffffffffffffffffffffffffffffffffffffff169060200190929190505050613afa565b005b600660009054906101000a900473ffffffffffffffffffffffffffffffffffffffff1673ffffffffffffffffffffffffffffffffffffffff16632889cc07826040518263ffffffff167c010000000000000000000000000000000000000000000000000000000002815260040180828152602001915050600060405180830381600087803b158015610a1057600080fd5b505af1158015610a24573d6000803e3d6000fd5b5050505050565b600760009054906101000a900473ffffffffffffffffffffffffffffffffffffffff1673ffffffffffffffffffffffffffffffffffffffff166349327441826040518263ffffffff167c010000000000000000000000000000000000000000000000000000000002815260040180828152602001915050600060405180830381600087803b158015610abc57600080fd5b505af1158015610ad0573d6000803e3d6000fd5b5050505050565b565b60095481565b600560009054906101000a900460ff16151515610b64576040517f08c379a00000000000000000000000000000000000000000000000000000000081526004018080602001828103825260128152602001807fe585b1e68cafe5b7b2e7bb8fe7bb93e69d9f000000000000000000000000000081525060200191505060405180910390fd5b6004544210158015610b7b57506170806004540142105b1515610bef576040517f08c379a00000000000000000000000000000000000000000000000000000000081526004018080602001828103825260128152602001807fe4b88de59ca8e585b1e5bbbae69c9fe58685000000000000000000000000000081525060200191505060405180910390fd5b6000806000804261708060045401039350610c5d600a600954815481101515610c1457fe5b90600052602060002090600d020160020160010154600a600954815481101515610c3a57fe5b90600052602060002090600d020160020160000154613b1990919063ffffffff16565b9250600a600954815481101515610c7057fe5b90600052602060002090600d0201600201600201549150600a600954815481101515610c9857fe5b90600052602060002090600d02016002016003015490507fe11de7dbf210471e3fa9c2ce8526b79b1202a34755ab39aa0ee452e2de7dd9e3848484846040518085815260200184815260200183815260200182815260200194505050505060405180910390a150505050565b610d0c610f1f565b1515610d1757600080fd5b600073ffffffffffffffffffffffffffffffffffffffff166000809054906101000a900473ffffffffffffffffffffffffffffffffffffffff1673ffffffffffffffffffffffffffffffffffffffff167f8be0079c531659141344cd1fd0a4f28419497f9722a3daafe3b4186f6b6457e060405160405180910390a360008060006101000a81548173ffffffffffffffffffffffffffffffffffffffff021916908373ffffffffffffffffffffffffffffffffffffffff160217905550565b6000600360009054906101000a900473ffffffffffffffffffffffffffffffffffffffff16905090565b3373ffffffffffffffffffffffffffffffffffffffff166108fc60009081150290604051600060405180830381858888f19350505050158015610e47573d6000803e3d6000fd5b50565b600560019054906101000a900473ffffffffffffffffffffffffffffffffffffffff1673ffffffffffffffffffffffffffffffffffffffff1663c79b1245826040518263ffffffff167c010000000000000000000000000000000000000000000000000000000002815260040180828152602001915050600060405180830381600087803b158015610edb57600080fd5b505af1158015610eef573d6000803e3d6000fd5b5050505050565b60008060009054906101000a900473ffffffffffffffffffffffffffffffffffffffff16905090565b60008060009054906101000a900473ffffffffffffffffffffffffffffffffffffffff1673ffffffffffffffffffffffffffffffffffffffff163373ffffffffffffffffffffffffffffffffffffffff1614905090565b600a600954815481101515610f8757fe5b90600052602060002090600d020160000160003373ffffffffffffffffffffffffffffffffffffffff1673ffffffffffffffffffffffffffffffffffffffff16815260200190815260200160002060050160179054906101000a900460ff1615151561105b576040517f08c379a00000000000000000000000000000000000000000000000000000000081526004018080602001828103825260128152602001807fe5b7b2e7bb8fe68f90e5b881e5ae8ce68890000000000000000000000000000081525060200191505060405180910390fd5b6000600660009054906101000a900473ffffffffffffffffffffffffffffffffffffffff1673ffffffffffffffffffffffffffffffffffffffff1663509b49e9600954336040518363ffffffff167c0100000000000000000000000000000000000000000000000000000000028152600401808381526020018273ffffffffffffffffffffffffffffffffffffffff1673ffffffffffffffffffffffffffffffffffffffff1681526020019250505060206040518083038186803b15801561112257600080fd5b505afa158015611136573d6000803e3d6000fd5b505050506040513d602081101561114c57600080fd5b810190808051906020019092919050505090506000600760009054906101000a900473ffffffffffffffffffffffffffffffffffffffff1673ffffffffffffffffffffffffffffffffffffffff1663dd572ab9600954336040518363ffffffff167c0100000000000000000000000000000000000000000000000000000000028152600401808381526020018273ffffffffffffffffffffffffffffffffffffffff1673ffffffffffffffffffffffffffffffffffffffff1681526020019250505060206040518083038186803b15801561122657600080fd5b505afa15801561123a573d6000803e3d6000fd5b505050506040513d602081101561125057600080fd5b810190808051906020019092919050505090506000600860009054906101000a900473ffffffffffffffffffffffffffffffffffffffff1673ffffffffffffffffffffffffffffffffffffffff16638a644430600954336040518363ffffffff167c0100000000000000000000000000000000000000000000000000000000028152600401808381526020018273ffffffffffffffffffffffffffffffffffffffff1673ffffffffffffffffffffffffffffffffffffffff1681526020019250505060206040518083038186803b15801561132a57600080fd5b505afa15801561133e573d6000803e3d6000fd5b505050506040513d602081101561135457600080fd5b8101908080519060200190929190505050905061138c8161137e8486613b3b90919063ffffffff16565b613b3b90919063ffffffff16565b600a60095481548110151561139d57fe5b90600052602060002090600d020160000160003373ffffffffffffffffffffffffffffffffffffffff1673ffffffffffffffffffffffffffffffffffffffff168152602001908152602001600020600701819055506001600a60095481548110151561140557fe5b90600052602060002090600d020160000160003373ffffffffffffffffffffffffffffffffffffffff1673ffffffffffffffffffffffffffffffffffffffff16815260200190815260200160002060050160176101000a81548160ff0219169083151502179055503373ffffffffffffffffffffffffffffffffffffffff166108fc600a60095481548110151561149857fe5b90600052602060002090600d020160000160003373ffffffffffffffffffffffffffffffffffffffff1673ffffffffffffffffffffffffffffffffffffffff168152602001908152602001600020600701549081150290604051600060405180830381858888f19350505050158015611515573d6000803e3d6000fd5b507f293d21fe426f090ce1ced07545832d833ba5245d1ca5dab39eedd683bcb26c7133600a60095481548110151561154957fe5b90600052602060002090600d020160000160003373ffffffffffffffffffffffffffffffffffffffff1673ffffffffffffffffffffffffffffffffffffffff16815260200190815260200160002060070154604051808373ffffffffffffffffffffffffffffffffffffffff1673ffffffffffffffffffffffffffffffffffffffff1681526020018281526020019250505060405180910390a1505050565b600560009054906101000a900460ff1615151561166d576040517f08c379a00000000000000000000000000000000000000000000000000000000081526004018080602001828103825260128152602001807fe585b1e68cafe5b7b2e7bb8fe7bb93e69d9f000000000000000000000000000081525060200191505060405180910390fd5b7fefb17818fcd18149842dc8ec26c8d51b1f7cd86669024d8ad385c95727e301b2600a60095481548110151561169f57fe5b90600052602060002090600d020160020160000154600a6009548154811015156116c557fe5b90600052602060002090600d020160060160010154604051808381526020018281526020019250505060405180910390a1565b61170061427e565b600a60095481548110151561171157fe5b90600052602060002090600d020160000160003373ffffffffffffffffffffffffffffffffffffffff1673ffffffffffffffffffffffffffffffffffffffff16815260200190815260200160002061018060405190810160405290816000820160009054906101000a900473ffffffffffffffffffffffffffffffffffffffff1673ffffffffffffffffffffffffffffffffffffffff1673ffffffffffffffffffffffffffffffffffffffff168152602001600182015481526020016002820154815260200160038201548152602001600482015481526020016005820160009054906101000a900473ffffffffffffffffffffffffffffffffffffffff1673ffffffffffffffffffffffffffffffffffffffff1673ffffffffffffffffffffffffffffffffffffffff1681526020016005820160149054906101000a900460ff161515151581526020016005820160159054906101000a900460ff161515151581526020016005820160169054906101000a900460ff161515151581526020016005820160179054906101000a900460ff1615151515815260200160068201548152602001600782015481525050905060608161014001518160008151811015156118d957fe5b90602001906020020181815250508161016001518160018151811015156118fc57fe5b9060200190602002018181525050816060015181600281518110151561191e57fe5b9060200190602002018181525050816080015181600381518110151561194057fe5b9060200190602002018181525050816020015181600481518110151561196257fe5b9060200190602002018181525050816040015181600581518110151561198457fe5b9060200190602002018181525050600760009054906101000a900473ffffffffffffffffffffffffffffffffffffffff1673ffffffffffffffffffffffffffffffffffffffff1663c28a1af3336040518263ffffffff167c0100000000000000000000000000000000000000000000000000000000028152600401808273ffffffffffffffffffffffffffffffffffffffff1673ffffffffffffffffffffffffffffffffffffffff16815260200191505060206040518083038186803b158015611a4d57600080fd5b505afa158015611a61573d6000803e3d6000fd5b505050506040513d6020811015611a7757600080fd5b8101908080519060200190929190505050816006815181101515611a9757fe5b9060200190602002018181525050600560019054906101000a900473ffffffffffffffffffffffffffffffffffffffff1673ffffffffffffffffffffffffffffffffffffffff16630df2019a336040518263ffffffff167c0100000000000000000000000000000000000000000000000000000000028152600401808273ffffffffffffffffffffffffffffffffffffffff1673ffffffffffffffffffffffffffffffffffffffff16815260200191505060206040518083038186803b158015611b6057600080fd5b505afa158015611b74573d6000803e3d6000fd5b505050506040513d6020811015611b8a57600080fd5b8101908080519060200190929190505050816007815181101515611baa57fe5b9060200190602002018181525050600660009054906101000a900473ffffffffffffffffffffffffffffffffffffffff1673ffffffffffffffffffffffffffffffffffffffff1663c7535567336040518263ffffffff167c0100000000000000000000000000000000000000000000000000000000028152600401808273ffffffffffffffffffffffffffffffffffffffff1673ffffffffffffffffffffffffffffffffffffffff16815260200191505060206040518083038186803b158015611c7357600080fd5b505afa158015611c87573d6000803e3d6000fd5b505050506040513d6020811015611c9d57600080fd5b8101908080519060200190929190505050816008815181101515611cbd57fe5b9060200190602002018181525050600860009054906101000a900473ffffffffffffffffffffffffffffffffffffffff1673ffffffffffffffffffffffffffffffffffffffff1663946cacda336040518263ffffffff167c0100000000000000000000000000000000000000000000000000000000028152600401808273ffffffffffffffffffffffffffffffffffffffff1673ffffffffffffffffffffffffffffffffffffffff16815260200191505060206040518083038186803b158015611d8657600080fd5b505afa158015611d9a573d6000803e3d6000fd5b505050506040513d6020811015611db057600080fd5b8101908080519060200190929190505050816009815181101515611dd057fe5b90602001906020020181815250507f04c808a514c1dafc38d056ce8d726701d153e5560559e9a2cbd4a698fc57dbc9816040518080602001828103825283818151815260200191508051906020019060200280838360005b83811015611e43578082015181840152602081019050611e28565b505050509050019250505060405180910390a15050565b611e62610f1f565b1515611e6d57600080fd5b600073__UintUtils_____________________________63669dafe8611ed56064611ec76014600a600954815481101515611ea457fe5b90600052602060002090600d020160060160010154613b5c90919063ffffffff16565b613b9a90919063ffffffff16565b6040518263ffffffff167c01000000000000000000000000000000000000000000000000000000000281526004018082815260200191505060206040518083038186803b158015611f2557600080fd5b505af4158015611f39573d6000803e3d6000fd5b505050506040513d6020811015611f4f57600080fd5b81019080805190602001909291905050509050600073__UintUtils_____________________________63669dafe8611fc96064611fbb600a80600954815481101515611f9857fe5b90600052602060002090600d020160060160010154613b5c90919063ffffffff16565b613b9a90919063ffffffff16565b6040518263ffffffff167c01000000000000000000000000000000000000000000000000000000000281526004018082815260200191505060206040518083038186803b15801561201957600080fd5b505af415801561202d573d6000803e3d6000fd5b505050506040513d602081101561204357600080fd5b81019080805190602001909291905050509050600073__UintUtils_____________________________63669dafe86120be60646120b06005600a60095481548110151561208d57fe5b90600052602060002090600d020160060160010154613b5c90919063ffffffff16565b613b9a90919063ffffffff16565b6040518263ffffffff167c01000000000000000000000000000000000000000000000000000000000281526004018082815260200191505060206040518083038186803b15801561210e57600080fd5b505af4158015612122573d6000803e3d6000fd5b505050506040513d602081101561213857600080fd5b81019080805190602001909291905050509050600073__UintUtils_____________________________63669dafe86121b360646121a56005600a60095481548110151561218257fe5b90600052602060002090600d020160060160010154613b5c90919063ffffffff16565b613b9a90919063ffffffff16565b6040518263ffffffff167c01000000000000000000000000000000000000000000000000000000000281526004018082815260200191505060206040518083038186803b15801561220357600080fd5b505af4158015612217573d6000803e3d6000fd5b505050506040513d602081101561222d57600080fd5b8101908080519060200190929190505050905061224a8785613bc4565b6122fa600a60095481548110151561225e57fe5b90600052602060002090600d02016001018054806020026020016040519081016040528092919081815260200182805480156122ef57602002820191906000526020600020905b8160009054906101000a900473ffffffffffffffffffffffffffffffffffffffff1673ffffffffffffffffffffffffffffffffffffffff16815260200190600101908083116122a5575b505050505084613cc4565b6123048683613dc4565b61230e8582613ec4565b60096000815480929190600101919050555050505050505050565b600560009054906101000a900460ff161515156123ae576040517f08c379a00000000000000000000000000000000000000000000000000000000081526004018080602001828103825260128152602001807fe585b1e68cafe5b7b2e7bb8fe7bb93e69d9f000000000000000000000000000081525060200191505060405180910390fd5b60045442101580156123c557506170806004540142105b1515612439576040517f08c379a00000000000000000000000000000000000000000000000000000000081526004018080602001828103825260128152602001807fe4b88de59ca8e585b1e5bbbae69c9fe58685000000000000000000000000000081525060200191505060405180910390fd5b600a60095481548110151561244a57fe5b90600052602060002090600d020160000160003373ffffffffffffffffffffffffffffffffffffffff1673ffffffffffffffffffffffffffffffffffffffff16815260200190815260200160002060050160149054906101000a900460ff161515612500576040517f08c379a00000000000000000000000000000000000000000000000000000000081526004018080602001828103825260318152602001806143156031913960400191505060405180910390fd5b73__UintUtils_____________________________63669dafe8826040518263ffffffff167c01000000000000000000000000000000000000000000000000000000000281526004018082815260200191505060206040518083038186803b15801561256b57600080fd5b505af415801561257f573d6000803e3d6000fd5b505050506040513d602081101561259557600080fd5b8101908080519060200190929190505050600160009054906101000a900473ffffffffffffffffffffffffffffffffffffffff1673ffffffffffffffffffffffffffffffffffffffff1663dd62ed3e33306040518363ffffffff167c0100000000000000000000000000000000000000000000000000000000028152600401808373ffffffffffffffffffffffffffffffffffffffff1673ffffffffffffffffffffffffffffffffffffffff1681526020018273ffffffffffffffffffffffffffffffffffffffff1673ffffffffffffffffffffffffffffffffffffffff1681526020019250505060206040518083038186803b15801561269557600080fd5b505afa1580156126a9573d6000803e3d6000fd5b505050506040513d60208110156126bf57600080fd5b810190808051906020019092919050505010151515612746576040517f08c379a00000000000000000000000000000000000000000000000000000000081526004018080602001828103825260128152602001807fe68e88e69d83e9a29de5baa6e4b88de8b6b3000000000000000000000000000081525060200191505060405180910390fd5b600160009054906101000a900473ffffffffffffffffffffffffffffffffffffffff1673ffffffffffffffffffffffffffffffffffffffff166323b872dd333073__UintUtils_____________________________63669dafe8866040518263ffffffff167c01000000000000000000000000000000000000000000000000000000000281526004018082815260200191505060206040518083038186803b1580156127f157600080fd5b505af4158015612805573d6000803e3d6000fd5b505050506040513d602081101561281b57600080fd5b81019080805190602001909291905050506040518463ffffffff167c0100000000000000000000000000000000000000000000000000000000028152600401808473ffffffffffffffffffffffffffffffffffffffff1673ffffffffffffffffffffffffffffffffffffffff1681526020018373ffffffffffffffffffffffffffffffffffffffff1673ffffffffffffffffffffffffffffffffffffffff1681526020018281526020019350505050602060405180830381600087803b1580156128e457600080fd5b505af11580156128f8573d6000803e3d6000fd5b505050506040513d602081101561290e57600080fd5b81019080805190602001909291905050501515612993576040517f08c379a000000000000000000000000000000000000000000000000000000000815260040180806020018281038252601a8152602001807fe8bdace7a7bb746f6b656ee588b0e59088e7baa6e5a4b1e8b4a500000000000081525060200191505060405180910390fd5b73__UintUtils_____________________________63669dafe8826040518263ffffffff167c01000000000000000000000000000000000000000000000000000000000281526004018082815260200191505060206040518083038186803b1580156129fe57600080fd5b505af4158015612a12573d6000803e3d6000fd5b505050506040513d6020811015612a2857600080fd5b8101908080519060200190929190505050600a600954815481101515612a4a57fe5b90600052602060002090600d020160000160003373ffffffffffffffffffffffffffffffffffffffff1673ffffffffffffffffffffffffffffffffffffffff1681526020019081526020016000206001016000828254019250508190555050565b606080600a600954815481101515612abf57fe5b90600052602060002090600d0201600101805480602002602001604051908101604052809291908181526020018280548015612b5057602002820191906000526020600020905b8160009054906101000a900473ffffffffffffffffffffffffffffffffffffffff1673ffffffffffffffffffffffffffffffffffffffff1681526020019060010190808311612b06575b5050505050915060008090505b8251811015612c0957600a600954815481101515612b7757fe5b90600052602060002090600d020160000160008483815181101515612b9857fe5b9060200190602002015173ffffffffffffffffffffffffffffffffffffffff1673ffffffffffffffffffffffffffffffffffffffff168152602001908152602001600020600101548282815181101515612bee57fe5b90602001906020020181815250508080600101915050612b5d565b507fcb255b5fe7ae29e8ae65a4c890641bf3bb6b36095c208fec5ed85fe56d4763cd8282604051808060200180602001838103835285818151815260200191508051906020019060200280838360005b83811015612c74578082015181840152602081019050612c59565b50505050905001838103825284818151815260200191508051906020019060200280838360005b83811015612cb6578082015181840152602081019050612c9b565b5050505090500194505050505060405180910390a1505050565b600560009054906101000a900460ff16151515612d55576040517f08c379a00000000000000000000000000000000000000000000000000000000081526004018080602001828103825260128152602001807fe585b1e68cafe5b7b2e7bb8fe7bb93e69d9f000000000000000000000000000081525060200191505060405180910390fd5b617080600454014210158015612d715750620151806004540142105b1515612de5576040517f08c379a00000000000000000000000000000000000000000000000000000000081526004018080602001828103825260128152602001807fe4b88de59ca8e58b9fe8b584e69c9fe58685000000000000000000000000000081525060200191505060405180910390fd5b600080600042601860045401039250612e51600a600954815481101515612e0857fe5b90600052602060002090600d020160060160010154600a600954815481101515612e2e57fe5b90600052602060002090600d020160060160000154613b1990919063ffffffff16565b9150600a600954815481101515612e6457fe5b90600052602060002090600d02016006016001015490507fae8973493d4c3e41a9615da7dbb45a3e85e217ab826ebf232f236520f89ce5bd83838360405180848152602001838152602001828152602001935050505060405180910390a1505050565b600860009054906101000a900473ffffffffffffffffffffffffffffffffffffffff1673ffffffffffffffffffffffffffffffffffffffff166353cb8ba9826040518263ffffffff167c010000000000000000000000000000000000000000000000000000000002815260040180828152602001915050600060405180830381600087803b158015612f5857600080fd5b505af1158015612f6c573d6000803e3d6000fd5b5050505050565b600560009054906101000a900460ff16151515612ff8576040517f08c379a00000000000000000000000000000000000000000000000000000000081526004018080602001828103825260128152602001807fe585b1e68cafe5b7b2e7bb8fe7bb93e69d9f000000000000000000000000000081525060200191505060405180910390fd5b600454421015801561300f57506170806004540142105b1515613083576040517f08c379a00000000000000000000000000000000000000000000000000000000081526004018080602001828103825260128152602001807fe4b88de59ca8e585b1e5bbbae69c9fe58685000000000000000000000000000081525060200191505060405180910390fd5b600073ffffffffffffffffffffffffffffffffffffffff168173ffffffffffffffffffffffffffffffffffffffff1614151515613128576040517f08c379a000000000000000000000000000000000000000000000000000000000815260040180806020018281038252601b8152602001807fe68ea8e5b9bfe88085e4b88de883bde698afe7a9bae59cb0e59d80000000000081525060200191505060405180910390fd5b73__UintUtils_____________________________63669dafe860086040518263ffffffff167c01000000000000000000000000000000000000000000000000000000000281526004018082815260200191505060206040518083038186803b15801561319457600080fd5b505af41580156131a8573d6000803e3d6000fd5b505050506040513d60208110156131be57600080fd5b8101908080519060200190929190505050600160009054906101000a900473ffffffffffffffffffffffffffffffffffffffff1673ffffffffffffffffffffffffffffffffffffffff1663dd62ed3e33306040518363ffffffff167c0100000000000000000000000000000000000000000000000000000000028152600401808373ffffffffffffffffffffffffffffffffffffffff1673ffffffffffffffffffffffffffffffffffffffff1681526020018273ffffffffffffffffffffffffffffffffffffffff1673ffffffffffffffffffffffffffffffffffffffff1681526020019250505060206040518083038186803b1580156132be57600080fd5b505afa1580156132d2573d6000803e3d6000fd5b505050506040513d60208110156132e857600080fd5b81019080805190602001909291905050501015151561336f576040517f08c379a00000000000000000000000000000000000000000000000000000000081526004018080602001828103825260128152602001807fe68e88e69d83e9a29de5baa6e4b88de8b6b3000000000000000000000000000081525060200191505060405180910390fd5b600160009054906101000a900473ffffffffffffffffffffffffffffffffffffffff1673ffffffffffffffffffffffffffffffffffffffff166323b872dd333073__UintUtils_____________________________63669dafe860086040518263ffffffff167c01000000000000000000000000000000000000000000000000000000000281526004018082815260200191505060206040518083038186803b15801561341b57600080fd5b505af415801561342f573d6000803e3d6000fd5b505050506040513d602081101561344557600080fd5b81019080805190602001909291905050506040518463ffffffff167c0100000000000000000000000000000000000000000000000000000000028152600401808473ffffffffffffffffffffffffffffffffffffffff1673ffffffffffffffffffffffffffffffffffffffff1681526020018373ffffffffffffffffffffffffffffffffffffffff1673ffffffffffffffffffffffffffffffffffffffff1681526020018281526020019350505050602060405180830381600087803b15801561350e57600080fd5b505af1158015613522573d6000803e3d6000fd5b505050506040513d602081101561353857600080fd5b810190808051906020019092919050505015156135bd576040517f08c379a000000000000000000000000000000000000000000000000000000000815260040180806020018281038252601a8152602001807fe8bdace7a7bb746f6b656ee588b0e59088e7baa6e5a4b1e8b4a500000000000081525060200191505060405180910390fd5b600160009054906101000a900473ffffffffffffffffffffffffffffffffffffffff1673ffffffffffffffffffffffffffffffffffffffff166342966c6873__UintUtils_____________________________63669dafe860036040518263ffffffff167c01000000000000000000000000000000000000000000000000000000000281526004018082815260200191505060206040518083038186803b15801561366757600080fd5b505af415801561367b573d6000803e3d6000fd5b505050506040513d602081101561369157600080fd5b81019080805190602001909291905050506040518263ffffffff167c010000000000000000000000000000000000000000000000000000000002815260040180828152602001915050600060405180830381600087803b1580156136f457600080fd5b505af1158015613708573d6000803e3d6000fd5b50505050600160009054906101000a900473ffffffffffffffffffffffffffffffffffffffff1673ffffffffffffffffffffffffffffffffffffffff1663a9059cbb8273__UintUtils_____________________________63669dafe860056040518263ffffffff167c01000000000000000000000000000000000000000000000000000000000281526004018082815260200191505060206040518083038186803b1580156137b757600080fd5b505af41580156137cb573d6000803e3d6000fd5b505050506040513d60208110156137e157600080fd5b81019080805190602001909291905050506040518363ffffffff167c0100000000000000000000000000000000000000000000000000000000028152600401808373ffffffffffffffffffffffffffffffffffffffff1673ffffffffffffffffffffffffffffffffffffffff16815260200182815260200192505050602060405180830381600087803b15801561387757600080fd5b505af115801561388b573d6000803e3d6000fd5b505050506040513d60208110156138a157600080fd5b8101908080519060200190929190505050506138bc81613fc4565b600a6009548154811015156138cd57fe5b90600052602060002090600d02016001013390806001815401808255809150509060018203906000526020600020016000909192909190916101000a81548173ffffffffffffffffffffffffffffffffffffffff021916908373ffffffffffffffffffffffffffffffffffffffff16021790555050600560019054906101000a900473ffffffffffffffffffffffffffffffffffffffff1673ffffffffffffffffffffffffffffffffffffffff1663e23613e960095483600b60009054906101000a900473ffffffffffffffffffffffffffffffffffffffff166040518463ffffffff167c0100000000000000000000000000000000000000000000000000000000028152600401808481526020018373ffffffffffffffffffffffffffffffffffffffff1673ffffffffffffffffffffffffffffffffffffffff1681526020018273ffffffffffffffffffffffffffffffffffffffff1673ffffffffffffffffffffffffffffffffffffffff1681526020019350505050600060405180830381600087803b158015613a5f57600080fd5b505af1158015613a73573d6000803e3d6000fd5b505050508073ffffffffffffffffffffffffffffffffffffffff163373ffffffffffffffffffffffffffffffffffffffff167f95b9b14e81807a19f0d780820ad803eba32584f0671e1410f6815a83e75d4ef760405160405180910390a350565b600160009054906101000a900473ffffffffffffffffffffffffffffffffffffffff1681565b613b02610f1f565b1515613b0d57600080fd5b613b1681614184565b50565b6000828211151515613b2a57600080fd5b600082840390508091505092915050565b6000808284019050838110151515613b5257600080fd5b8091505092915050565b600080831415613b6f5760009050613b94565b60008284029050828482811515613b8257fe5b04141515613b8f57600080fd5b809150505b92915050565b60008082111515613baa57600080fd5b60008284811515613bb757fe5b0490508091505092915050565b600560019054906101000a900473ffffffffffffffffffffffffffffffffffffffff1673ffffffffffffffffffffffffffffffffffffffff1663a5fa797660095484846040518463ffffffff167c01000000000000000000000000000000000000000000000000000000000281526004018084815260200180602001838152602001828103825284818151815260200191508051906020019060200280838360005b83811015613c81578082015181840152602081019050613c66565b50505050905001945050505050600060405180830381600087803b158015613ca857600080fd5b505af1158015613cbc573d6000803e3d6000fd5b505050505050565b600660009054906101000a900473ffffffffffffffffffffffffffffffffffffffff1673ffffffffffffffffffffffffffffffffffffffff1663c21a774360095484846040518463ffffffff167c01000000000000000000000000000000000000000000000000000000000281526004018084815260200180602001838152602001828103825284818151815260200191508051906020019060200280838360005b83811015613d81578082015181840152602081019050613d66565b50505050905001945050505050600060405180830381600087803b158015613da857600080fd5b505af1158015613dbc573d6000803e3d6000fd5b505050505050565b600760009054906101000a900473ffffffffffffffffffffffffffffffffffffffff1673ffffffffffffffffffffffffffffffffffffffff1663ac197f9260095484846040518463ffffffff167c01000000000000000000000000000000000000000000000000000000000281526004018084815260200180602001838152602001828103825284818151815260200191508051906020019060200280838360005b83811015613e81578082015181840152602081019050613e66565b50505050905001945050505050600060405180830381600087803b158015613ea857600080fd5b505af1158015613ebc573d6000803e3d6000fd5b505050505050565b600860009054906101000a900473ffffffffffffffffffffffffffffffffffffffff1673ffffffffffffffffffffffffffffffffffffffff16633776131a60095484846040518463ffffffff167c01000000000000000000000000000000000000000000000000000000000281526004018084815260200180602001838152602001828103825284818151815260200191508051906020019060200280838360005b83811015613f81578082015181840152602081019050613f66565b50505050905001945050505050600060405180830381600087803b158015613fa857600080fd5b505af1158015613fbc573d6000803e3d6000fd5b505050505050565b33600a600954815481101515613fd657fe5b90600052602060002090600d020160000160003373ffffffffffffffffffffffffffffffffffffffff1673ffffffffffffffffffffffffffffffffffffffff16815260200190815260200160002060000160006101000a81548173ffffffffffffffffffffffffffffffffffffffff021916908373ffffffffffffffffffffffffffffffffffffffff16021790555080600a60095481548110151561407757fe5b90600052602060002090600d020160000160003373ffffffffffffffffffffffffffffffffffffffff1673ffffffffffffffffffffffffffffffffffffffff16815260200190815260200160002060050160006101000a81548173ffffffffffffffffffffffffffffffffffffffff021916908373ffffffffffffffffffffffffffffffffffffffff1602179055506001600a60095481548110151561411957fe5b90600052602060002090600d020160000160003373ffffffffffffffffffffffffffffffffffffffff1673ffffffffffffffffffffffffffffffffffffffff16815260200190815260200160002060050160146101000a81548160ff02191690831515021790555050565b600073ffffffffffffffffffffffffffffffffffffffff168173ffffffffffffffffffffffffffffffffffffffff16141515156141c057600080fd5b8073ffffffffffffffffffffffffffffffffffffffff166000809054906101000a900473ffffffffffffffffffffffffffffffffffffffff1673ffffffffffffffffffffffffffffffffffffffff167f8be0079c531659141344cd1fd0a4f28419497f9722a3daafe3b4186f6b6457e060405160405180910390a3806000806101000a81548173ffffffffffffffffffffffffffffffffffffffff021916908373ffffffffffffffffffffffffffffffffffffffff16021790555050565b61018060405190810160405280600073ffffffffffffffffffffffffffffffffffffffff16815260200160008152602001600081526020016000815260200160008152602001600073ffffffffffffffffffffffffffffffffffffffff1681526020016000151581526020016000151581526020016000151581526020016000151581526020016000815260200160008152509056fee8b083e794a8e88085e4b88de698afe7bb84e5bbbae880852fe8a382e58f98e88085efbc8ce6b2a1e69c89e69d83e99990a165627a7a72305820f9280ed168228aa2880d3aab64eba52659fcb5a6c14a091b66d4609879a7941b0029",
  "source": "pragma solidity >=0.4.21 <0.6.0;\n\nimport \"../node_modules/openzeppelin-solidity/contracts/math/SafeMath.sol\";\nimport \"../node_modules/openzeppelin-solidity/contracts/ownership/Ownable.sol\";\nimport \"./ABCToken.sol\";\nimport \"./UintUtils.sol\";\nimport \"./FissionReward.sol\";\nimport \"./FOMOReward.sol\";\nimport \"./LuckyReward.sol\";\nimport \"./FaithReward.sol\";\n\n// TODO:token()\ncontract Resonance is Ownable{\n\n    using SafeMath for uint256;\n\n    // \n    // \n    event ToBeFissionPerson(address indexed fissionPerson, address indexed promoter);\n\n    event FundsInfo(uint256 currentStepTokenAmount, uint256 currentStepRaisedETH);\n    event BuildingPerioInfo(uint256 bpCountdown, uint256 remainingToken, uint256 personalTokenLimited, uint256 totalTokenAmount);\n    event FundingPeriodInfo(uint256 fpCountdown, uint256 remainingETH, uint256 rasiedETHAmount);\n\n    // \n    event FissionRewardInfo(address[] fissionRewardList, uint256[] fissionRewardAmount);\n    event FOMORewardInfo(address[] FOMORewardList, uint256[] FOMORewards);\n    event LuckyRewardInfo(address[] luckyRewardList, uint256 luckyReward);\n    event FaithRewardInfo(address[] faithRewardList, uint256[] faithRewardAmount);\n\n    event WithdrawAllETH(address funder, uint256 ETHAmount);\n\n    event FunderInfo(uint256[] FunderInfoArray);\n\n    event CurrentStepFunders(address[] funderAddress, uint256[] funderTokenAmount);\n\n    // \n    modifier softCapReached(){\n        require(steps[currentStep].funding.raisedETH >= steps[currentStep].softCap, \"\");\n        _;\n    }\n\n    // \n    modifier hardCapReached(){\n        require(steps[currentStep].funding.raisedETH < steps[currentStep].hardCap, \"\");\n        _;\n    }\n\n    // \n    modifier isBuildingPeriod() {\n        require(block.timestamp >= openingTime && block.timestamp < openingTime + 8 hours, \"\");\n        _;\n    }\n\n    // \n    modifier isFundingPeriod() {\n        require(block.timestamp >= openingTime + 8 hours && block.timestamp < openingTime + 24 hours, \"\");\n        _;\n    }\n\n    // \n    modifier isBuilder() {\n        require(steps[currentStep].funder[msg.sender].isBuilder, \"/\");\n        _;\n    }\n\n    // \n    modifier isFunder() {\n        require(steps[currentStep].funder[msg.sender].isFunder, \"\");\n        _;\n    }\n\n    // \n    modifier crowdsaleIsRunning() {\n        require(!crowdsaleClosed, \"\");\n        _;\n    }\n\n    // \n    ABCToken public abcToken;\n\n    // \n    uint256 private fundsPool;\n\n    // 60%\n    address payable private beneficiary;\n\n    // \n    uint256 private openingTime;\n\n    bool crowdsaleClosed = false;   //  \n\n    // \n    struct Funder{\n        address funderAddr; // \n        uint256 tokenAmount; // token\n        uint256 ethAmount; // eth\n        uint256 inviteesNumber; // \n        uint256 earnFormAff; // \n        address promoter; // \n        bool isBuilder; // /\n        bool isFunder; // \n        bool tokenHasWithdrawn; // Token\n        bool ETHHasWithdrawn; // ETH\n        uint256 tokenBalance; // Token\n        uint256 ETHBalance; // ETH\n    }\n\n    // \n    struct Building{\n        uint256 tokenAmount; // Token\n        uint256 raisedToken; // token\n        uint256 personalTokenLimited;// token\n        uint256 raisedTokenAmount; // Token\n    }\n\n    // \n    struct Funding{\n        uint256 ETHAmount; // ETH\n        uint256 raisedETH; // ETH\n    }\n\n    FissionReward fissionRewardInstance;\n    FOMOReward FOMORewardInstance;\n    LuckyReward luckyRewardInstance;\n    FaithReward faithRewardInstance;\n\n    // \n    struct Step{\n        mapping(address => Funder) funder;// \n        address[] funders;\n        Building building; // \n        Funding funding; // \n        uint256 upperLimit; // \n        uint256 softCap; // \n        uint256 hardCap; // \n        uint256 rate; // \n        bool stepIsClosed; // \n    }\n\n    uint256 public currentStep;\n\n    Step[] steps;\n\n    address initialFissionPerson; // \n\n    // mapping\n    // TODO:,\n    // Step[] public steps;\n    // mapping(uint256 => Step) steps;\n\n    // \n    /// @notice \n    /// @param _abcToken Token\n    /// @param _beneficiary \n    /// @param _initialFissionPerson \n    constructor(\n        ABCToken _abcToken,\n        address payable _beneficiary,\n        address _initialFissionPerson,\n        address _fassionRewardAddress,\n        address _FOMORewardAddress,\n        address _luckyRewardAddress,\n        address _faithRewardAddress\n    )\n        public\n    {\n        abcToken = _abcToken; // abc Token\n        initialFissionPerson = _initialFissionPerson; // \n        beneficiary = _beneficiary; // \n        openingTime = block.timestamp; // \n\n        // \n        fissionRewardInstance = FissionReward(_fassionRewardAddress);\n        FOMORewardInstance = FOMOReward(_FOMORewardAddress);\n        luckyRewardInstance = LuckyReward(_luckyRewardAddress);\n        faithRewardInstance = FaithReward(_faithRewardAddress);\n    }\n\n    /// @notice \n    /// @param promoter \n    /// @dev TokenApprove\n    function toBeFissionPerson(\n        address promoter\n    )\n        public\n        crowdsaleIsRunning()\n        isBuildingPeriod()\n    {\n        require(promoter != address(0), \"\");\n\n        // \n        require(abcToken.allowance(msg.sender, address(this)) >= UintUtils.toWei(8),\"\");\n\n        require(abcToken.transferFrom(msg.sender,address(this), UintUtils.toWei(8)),\"token\");\n\n        // 3\n        abcToken.burn(UintUtils.toWei(3));\n\n        // 5\n        abcToken.transfer(address(promoter), UintUtils.toWei(5));\n\n        // \n        _addBuilder(promoter);\n\n        // funder\n        steps[currentStep].funders.push(msg.sender);\n\n        fissionRewardInstance.addAffman(currentStep, promoter, initialFissionPerson);\n\n        emit ToBeFissionPerson(msg.sender, promoter);\n    }\n\n    // token\n    function jointlyBuild(\n        uint256 _tokenAmount\n    )\n        public\n        crowdsaleIsRunning()\n        isBuildingPeriod()\n        isBuilder()\n    {\n        // TODO:\n        // require(steps[currentStep].funder[msg.sender].tokenAmount >= xiane, \"\");\n\n        // \n        require(abcToken.allowance(msg.sender, address(this)) >= UintUtils.toWei(_tokenAmount),\"\");\n\n        // \n        require(abcToken.transferFrom(msg.sender,address(this), UintUtils.toWei(_tokenAmount)),\"token\");\n        steps[currentStep].funder[msg.sender].tokenAmount += UintUtils.toWei(_tokenAmount);\n    }\n\n    // \n    // \n    function ()\n        external\n        payable\n        crowdsaleIsRunning()\n        isFundingPeriod()\n    {\n        uint amount = msg.value;\n        steps[currentStep].funder[msg.sender].ethAmount = amount;\n        steps[currentStep].funder[msg.sender].isFunder = true;\n        steps[currentStep].funding.raisedETH += amount;\n    }\n\n    // \n    function SettlementStep() \n        public\n    {\n\n        // \n        // \n\n    }\n\n    // \n    // \n    // 1.  2.\n    /// @dev \n    function _crowdsaleIsClosed()\n        internal\n        returns(bool)\n    {\n        // 1.\n        if(UintUtils.toWei(steps[currentStep].funding.raisedETH) < UintUtils.toWei(steps[currentStep].softCap)) {\n            crowdsaleClosed = true;\n\n            // Token\n            _withdrawRemainingToken();\n        }\n\n        // TODO:\n        // 2.\n        if(fundsPool == 0) {\n            crowdsaleClosed = true;\n        }\n\n        return crowdsaleClosed;\n    }\n\n    /// @notice Token\n    function _withdrawRemainingToken()\n        internal\n        onlyOwner()\n        returns(bool)\n    {\n        abcToken.transfer(owner(), UintUtils.toWei(fundsPool));\n    }\n\n    /// @notice TODO:\n    /// @dev \n    // \n    // \n    function settlementReward(\n        address[] memory _fissionWinnerList,\n        address[] memory _LuckyWinnerList,\n        address[] memory _FaithWinnerList\n    )\n        public\n        onlyOwner()\n    {\n        uint256 totalFissionReward = UintUtils.toWei(steps[currentStep].funding.raisedETH.mul(20).div(100));\n        uint256 totalFOMOReward = UintUtils.toWei(steps[currentStep].funding.raisedETH.mul(10).div(100));\n        uint256 totalLuckyReward = UintUtils.toWei(steps[currentStep].funding.raisedETH.mul(5).div(100));\n        uint256 totalFaithReward = UintUtils.toWei(steps[currentStep].funding.raisedETH.mul(5).div(100));\n\n        // \n        // \n        _settlementFissionReward(_fissionWinnerList, totalFissionReward);\n        _settlementFOMOReward(steps[currentStep].funders, totalFOMOReward);\n        _settlementLuckyReward(_LuckyWinnerList, totalLuckyReward);\n        _settlementFaithReward(_FaithWinnerList, totalFaithReward);\n\n        currentStep++;\n    }\n\n    /// @notice funderETH\n    /// @dev ETH\n    function withdrawAllETH() public payable {\n        require(!steps[currentStep].funder[msg.sender].ETHHasWithdrawn, \"\");\n\n        uint256 amountOfFOMO = FOMORewardInstance.FOMORewardAmount(currentStep, msg.sender);\n        uint256 amountOfLucky = luckyRewardInstance.luckyRewardAmount(currentStep, msg.sender);\n        uint256 amountOfFaith = faithRewardInstance.faithRewardAmount(currentStep, msg.sender);\n\n        steps[currentStep].funder[msg.sender].ETHBalance = amountOfFOMO.add(amountOfLucky).add(amountOfFaith);\n        steps[currentStep].funder[msg.sender].ETHHasWithdrawn = true;\n        msg.sender.transfer(steps[currentStep].funder[msg.sender].ETHBalance);\n\n        emit WithdrawAllETH(msg.sender, steps[currentStep].funder[msg.sender].ETHBalance);\n    }\n\n    // \n    function _settlementFissionReward(address[] memory _fissionWinnerList, uint256 _totalFissionReward) internal {\n        fissionRewardInstance.dealFissionInfo(currentStep, _fissionWinnerList, _totalFissionReward);\n    }\n\n    // FOMO\n    function _settlementFOMOReward(address[] memory _funders, uint256 _totalFOMOReward) internal {\n        FOMORewardInstance.dealFOMOWinner(currentStep, _funders, _totalFOMOReward);\n    }\n\n    // \n    function _settlementLuckyReward(address[] memory _LuckyWinnerList, uint256 _totalLyckyReward) internal {\n        luckyRewardInstance.dealLuckyInfo(currentStep, _LuckyWinnerList, _totalLyckyReward);\n    }\n\n    // \n    function _settlementFaithReward(address[] memory _faithWinners, uint256 _totalFaithReward) internal {\n        faithRewardInstance.dealFaithWinner(currentStep, _faithWinners, _totalFaithReward);\n    }\n\n    /// @notice \n    function withdrawMyReward()\n        public\n    {\n        msg.sender.transfer(0);\n    }\n\n    /// @notice funders()token\n    function getCurrentStepFunders(uint256 _stepIndex) public {\n        address[] memory funderAddress;\n        uint256[] memory funderToken;\n\n        funderAddress = steps[currentStep].funders;\n\n        for(uint i = 0 ; i < funderAddress.length; i++){\n            funderToken[i] = steps[currentStep].funder[funderAddress[i]].tokenAmount;\n        }\n\n        emit CurrentStepFunders(funderAddress, funderToken);\n    }\n\n    /// @notice tokenETH\n    function getCurrentStepFundsInfo()\n        public\n        crowdsaleIsRunning()\n    {\n        emit FundsInfo(steps[currentStep].building.tokenAmount, steps[currentStep].funding.raisedETH);\n    }\n\n    /// @notice \n    function getBuildingPerioInfo()\n        public\n        crowdsaleIsRunning()\n        isBuildingPeriod()\n    {\n        uint256 _bpCountdown;\n        uint256 _remainingToken;\n        uint256 _personalTokenLimited;\n        uint256 _totalTokenAmount;\n\n        _bpCountdown = (openingTime + 8 hours) - block.timestamp;\n        _remainingToken = steps[currentStep].building.tokenAmount.sub(steps[currentStep].building.raisedToken);\n        _personalTokenLimited = steps[currentStep].building.personalTokenLimited;\n        _totalTokenAmount = steps[currentStep].building.raisedTokenAmount;\n        emit BuildingPerioInfo(_bpCountdown, _remainingToken, _personalTokenLimited, _totalTokenAmount);\n    }\n\n    // \n    function getFundingPeriodInfo()\n        public\n        crowdsaleIsRunning()\n        isFundingPeriod()\n    {\n        uint256 _fpCountdown;\n        uint256 _remainingETH;\n        uint256 _rasiedETHAmount;\n\n        _fpCountdown = (openingTime + 24) - block.timestamp;\n        _remainingETH = steps[currentStep].funding.ETHAmount.sub(steps[currentStep].funding.raisedETH);\n        _rasiedETHAmount = steps[currentStep].funding.raisedETH;\n        emit FundingPeriodInfo(_fpCountdown, _remainingETH, _rasiedETHAmount);\n    }\n\n    /// @notice \n    /// @dev \n    /// @param _stepIndex \n    function getFissionRewardInfo(uint256 _stepIndex)\n        public\n    {\n        fissionRewardInstance.getFissionInfo(_stepIndex);\n    }\n\n    /// @notice FOMO\n    /// @dev FOMO\n    /// @param _stepIndex \n    function getFOMORewardIofo(uint256 _stepIndex)\n        public\n    {\n        FOMORewardInstance.getFOMOWinnerInfo(_stepIndex);\n    }\n\n    /// @notice \n    /// @dev \n    /// @param _stepIndex \n    function getLuckyRewardInfo(uint256 _stepIndex)\n        public\n    {\n        luckyRewardInstance.getLuckyInfo(_stepIndex);\n    }\n\n    /// @notice \n    /// @dev \n    /// @param _stepIndex \n    function getFaithRewardInfo(uint256 _stepIndex)\n        public\n    {\n        faithRewardInstance.getFaithWinnerInfo(_stepIndex);\n    }\n\n    /// @notice \n    function getFunderInfo() public {\n        Funder memory funder = steps[currentStep].funder[msg.sender];\n\n        uint256[] memory funderInfo;\n\n        funderInfo[0] = funder.tokenBalance;\n        funderInfo[1] = funder.ETHBalance;\n        funderInfo[2] = funder.inviteesNumber;\n        funderInfo[3] = funder.earnFormAff;\n        funderInfo[4] = funder.tokenAmount;\n        funderInfo[5] = funder.ethAmount;\n        funderInfo[6] = luckyRewardInstance.luckyFunderTotalBalance(msg.sender);\n        funderInfo[7] = fissionRewardInstance.fissionFunderTotalBalance(msg.sender);\n        funderInfo[8] = FOMORewardInstance.FOMOFunderTotalBalance(msg.sender);\n        funderInfo[9] = faithRewardInstance.faithFunderTotalBalance(msg.sender);\n\n        emit FunderInfo(funderInfo);\n    }\n\n    /// @notice \n    /// @param _promoter msg.sender\n    function _addBuilder(address _promoter) internal {\n        // \n        steps[currentStep].funder[msg.sender].funderAddr = msg.sender;\n        steps[currentStep].funder[msg.sender].promoter = _promoter;\n        steps[currentStep].funder[msg.sender].isBuilder = true;\n    }\n\n    // \n    function Beneficiary() public view returns(address payable) {\n        return beneficiary;\n    }\n\n    // ETH\n    function _forwardFunds() internal {\n        // 60%\n        beneficiary.transfer(steps[currentStep].funding.raisedETH.mul(60).div(100));\n    }\n\n}",
  "sourcePath": "/Users/a186r/dev/sourcecode/contracts/contract/contract/contracts/Resonance.sol",
  "compiler": {
    "name": "solc",
    "version": "0.5.2+commit.1df8f40c.Emscripten.clang"
  },
  "schemaVersion": "3.0.6",
  "updatedAt": "2019-05-21T08:33:29.423Z",
  "devdoc": {
    "methods": {
      "constructor": {
        "params": {
          "_abcToken": "Token",
          "_beneficiary": "",
          "_initialFissionPerson": ""
        }
      },
      "getFOMORewardIofo(uint256)": {
        "details": "FOMO",
        "params": {
          "_stepIndex": ""
        }
      },
      "getFaithRewardInfo(uint256)": {
        "details": "",
        "params": {
          "_stepIndex": ""
        }
      },
      "getFissionRewardInfo(uint256)": {
        "details": "",
        "params": {
          "_stepIndex": ""
        }
      },
      "getLuckyRewardInfo(uint256)": {
        "details": "",
        "params": {
          "_stepIndex": ""
        }
      },
      "isOwner()": {
        "return": "true if `msg.sender` is the owner of the contract."
      },
      "owner()": {
        "return": "the address of the owner."
      },
      "renounceOwnership()": {
        "details": "Allows the current owner to relinquish control of the contract. It will not be possible to call the functions with the `onlyOwner` modifier anymore."
      },
      "settlementReward(address[],address[],address[])": {
        "details": ""
      },
      "toBeFissionPerson(address)": {
        "details": "TokenApprove",
        "params": {
          "promoter": ""
        }
      },
      "transferOwnership(address)": {
        "details": "Allows the current owner to transfer control of the contract to a newOwner.",
        "params": {
          "newOwner": "The address to transfer ownership to."
        }
      },
      "withdrawAllETH()": {
        "details": "ETH"
      }
    }
  },
  "userdoc": {
    "methods": {
      "constructor": "",
      "getBuildingPerioInfo()": {
        "notice": ""
      },
      "getCurrentStepFunders(uint256)": {
        "notice": "funders()token"
      },
      "getCurrentStepFundsInfo()": {
        "notice": "tokenETH"
      },
      "getFOMORewardIofo(uint256)": {
        "notice": "FOMO"
      },
      "getFaithRewardInfo(uint256)": {
        "notice": ""
      },
      "getFissionRewardInfo(uint256)": {
        "notice": ""
      },
      "getFunderInfo()": {
        "notice": ""
      },
      "getLuckyRewardInfo(uint256)": {
        "notice": ""
      },
      "renounceOwnership()": {
        "notice": "Renouncing ownership will leave the contract without an owner, thereby removing any functionality that is only available to the owner."
      },
      "settlementReward(address[],address[],address[])": {
        "notice": "TODO:"
      },
      "toBeFissionPerson(address)": {
        "notice": ""
      },
      "withdrawAllETH()": {
        "notice": "funderETH"
      },
      "withdrawMyReward()": {
        "notice": ""
      }
    }
  }
}