{
  "contractName": "Resonance",
  "abi": [
    {
      "constant": true,
      "inputs": [],
      "name": "beneficiary",
      "outputs": [
        {
          "name": "",
          "type": "address"
        }
      ],
      "payable": false,
      "stateMutability": "view",
      "type": "function"
    },
    {
      "constant": true,
      "inputs": [],
      "name": "currentStep",
      "outputs": [
        {
          "name": "",
          "type": "uint256"
        }
      ],
      "payable": false,
      "stateMutability": "view",
      "type": "function"
    },
    {
      "constant": false,
      "inputs": [],
      "name": "renounceOwnership",
      "outputs": [],
      "payable": false,
      "stateMutability": "nonpayable",
      "type": "function"
    },
    {
      "constant": true,
      "inputs": [],
      "name": "owner",
      "outputs": [
        {
          "name": "",
          "type": "address"
        }
      ],
      "payable": false,
      "stateMutability": "view",
      "type": "function"
    },
    {
      "constant": true,
      "inputs": [],
      "name": "isOwner",
      "outputs": [
        {
          "name": "",
          "type": "bool"
        }
      ],
      "payable": false,
      "stateMutability": "view",
      "type": "function"
    },
    {
      "constant": true,
      "inputs": [],
      "name": "initialFissionPerson",
      "outputs": [
        {
          "name": "",
          "type": "address"
        }
      ],
      "payable": false,
      "stateMutability": "view",
      "type": "function"
    },
    {
      "constant": true,
      "inputs": [],
      "name": "totalETHFromParty",
      "outputs": [
        {
          "name": "",
          "type": "uint256"
        }
      ],
      "payable": false,
      "stateMutability": "view",
      "type": "function"
    },
    {
      "constant": true,
      "inputs": [],
      "name": "firstParamInitialized",
      "outputs": [
        {
          "name": "",
          "type": "bool"
        }
      ],
      "payable": false,
      "stateMutability": "view",
      "type": "function"
    },
    {
      "constant": true,
      "inputs": [
        {
          "name": "",
          "type": "uint256"
        }
      ],
      "name": "tokenTransfered",
      "outputs": [
        {
          "name": "",
          "type": "bool"
        }
      ],
      "payable": false,
      "stateMutability": "view",
      "type": "function"
    },
    {
      "constant": true,
      "inputs": [],
      "name": "abcToken",
      "outputs": [
        {
          "name": "",
          "type": "address"
        }
      ],
      "payable": false,
      "stateMutability": "view",
      "type": "function"
    },
    {
      "constant": false,
      "inputs": [
        {
          "name": "newOwner",
          "type": "address"
        }
      ],
      "name": "transferOwnership",
      "outputs": [],
      "payable": false,
      "stateMutability": "nonpayable",
      "type": "function"
    },
    {
      "inputs": [
        {
          "name": "_resonanceDataManageAddress",
          "type": "address"
        },
        {
          "name": "_abcToken",
          "type": "address"
        },
        {
          "name": "_fassionRewardAddress",
          "type": "address"
        },
        {
          "name": "_FOMORewardAddress",
          "type": "address"
        },
        {
          "name": "_luckyRewardAddress",
          "type": "address"
        },
        {
          "name": "_faithRewardAddress",
          "type": "address"
        }
      ],
      "payable": false,
      "stateMutability": "nonpayable",
      "type": "constructor"
    },
    {
      "payable": true,
      "stateMutability": "payable",
      "type": "fallback"
    },
    {
      "anonymous": false,
      "inputs": [
        {
          "indexed": true,
          "name": "fissionPerson",
          "type": "address"
        },
        {
          "indexed": true,
          "name": "promoter",
          "type": "address"
        }
      ],
      "name": "ToBeFissionPerson",
      "type": "event"
    },
    {
      "anonymous": false,
      "inputs": [
        {
          "indexed": false,
          "name": "currentStepTokenAmount",
          "type": "uint256"
        },
        {
          "indexed": false,
          "name": "currentStepRaisedETH",
          "type": "uint256"
        }
      ],
      "name": "FundsInfo",
      "type": "event"
    },
    {
      "anonymous": false,
      "inputs": [
        {
          "indexed": false,
          "name": "bpCountdown",
          "type": "uint256"
        },
        {
          "indexed": false,
          "name": "remainingToken",
          "type": "uint256"
        },
        {
          "indexed": false,
          "name": "personalTokenLimited",
          "type": "uint256"
        },
        {
          "indexed": false,
          "name": "totalTokenAmount",
          "type": "uint256"
        }
      ],
      "name": "BuildingPerioInfo",
      "type": "event"
    },
    {
      "anonymous": false,
      "inputs": [
        {
          "indexed": false,
          "name": "fpCountdown",
          "type": "uint256"
        },
        {
          "indexed": false,
          "name": "remainingETH",
          "type": "uint256"
        },
        {
          "indexed": false,
          "name": "rasiedETHAmount",
          "type": "uint256"
        }
      ],
      "name": "FundingPeriodInfo",
      "type": "event"
    },
    {
      "anonymous": false,
      "inputs": [
        {
          "indexed": false,
          "name": "fissionRewardList",
          "type": "address[]"
        },
        {
          "indexed": false,
          "name": "fissionRewardAmount",
          "type": "uint256[]"
        }
      ],
      "name": "FissionRewardInfo",
      "type": "event"
    },
    {
      "anonymous": false,
      "inputs": [
        {
          "indexed": false,
          "name": "FOMORewardList",
          "type": "address[]"
        },
        {
          "indexed": false,
          "name": "FOMORewards",
          "type": "uint256[]"
        }
      ],
      "name": "FOMORewardInfo",
      "type": "event"
    },
    {
      "anonymous": false,
      "inputs": [
        {
          "indexed": false,
          "name": "luckyRewardList",
          "type": "address[]"
        },
        {
          "indexed": false,
          "name": "luckyReward",
          "type": "uint256"
        }
      ],
      "name": "LuckyRewardInfo",
      "type": "event"
    },
    {
      "anonymous": false,
      "inputs": [
        {
          "indexed": false,
          "name": "faithRewardList",
          "type": "address[]"
        },
        {
          "indexed": false,
          "name": "faithRewardAmount",
          "type": "uint256[]"
        }
      ],
      "name": "FaithRewardInfo",
      "type": "event"
    },
    {
      "anonymous": false,
      "inputs": [
        {
          "indexed": false,
          "name": "addr",
          "type": "address"
        },
        {
          "indexed": false,
          "name": "ETHAmount",
          "type": "uint256"
        }
      ],
      "name": "WithdrawAllETH",
      "type": "event"
    },
    {
      "anonymous": false,
      "inputs": [
        {
          "indexed": false,
          "name": "from",
          "type": "address"
        },
        {
          "indexed": false,
          "name": "to",
          "type": "address"
        },
        {
          "indexed": false,
          "name": "tokenAmount",
          "type": "uint256"
        }
      ],
      "name": "WithdrawAllToken",
      "type": "event"
    },
    {
      "anonymous": false,
      "inputs": [
        {
          "indexed": false,
          "name": "FunderInfoArray",
          "type": "uint256[]"
        }
      ],
      "name": "FunderInfo",
      "type": "event"
    },
    {
      "anonymous": false,
      "inputs": [
        {
          "indexed": false,
          "name": "funderAddress",
          "type": "address[]"
        },
        {
          "indexed": false,
          "name": "funderTokenAmount",
          "type": "uint256[]"
        },
        {
          "indexed": false,
          "name": "funderETHAmount",
          "type": "uint256[]"
        },
        {
          "indexed": false,
          "name": "funderInvitees",
          "type": "uint256[]"
        },
        {
          "indexed": false,
          "name": "funderEarnFromAff",
          "type": "uint256[]"
        }
      ],
      "name": "StepFunders",
      "type": "event"
    },
    {
      "anonymous": false,
      "inputs": [
        {
          "indexed": false,
          "name": "stepIndex",
          "type": "uint256"
        }
      ],
      "name": "SettlementStep",
      "type": "event"
    },
    {
      "anonymous": false,
      "inputs": [
        {
          "indexed": false,
          "name": "stepIndex",
          "type": "uint256"
        }
      ],
      "name": "StartNextStep",
      "type": "event"
    },
    {
      "anonymous": false,
      "inputs": [
        {
          "indexed": false,
          "name": "stepIndex",
          "type": "uint256"
        },
        {
          "indexed": false,
          "name": "raiseTarget",
          "type": "uint256"
        }
      ],
      "name": "SetRaiseTarget",
      "type": "event"
    },
    {
      "anonymous": false,
      "inputs": [
        {
          "indexed": false,
          "name": "resonances",
          "type": "address[]"
        }
      ],
      "name": "GetResonances",
      "type": "event"
    },
    {
      "anonymous": false,
      "inputs": [
        {
          "indexed": false,
          "name": "resonancesRasiedETH",
          "type": "uint256"
        }
      ],
      "name": "FunderTotalRaised",
      "type": "event"
    },
    {
      "anonymous": false,
      "inputs": [
        {
          "indexed": true,
          "name": "previousOwner",
          "type": "address"
        },
        {
          "indexed": true,
          "name": "newOwner",
          "type": "address"
        }
      ],
      "name": "OwnershipTransferred",
      "type": "event"
    },
    {
      "constant": false,
      "inputs": [
        {
          "name": "_newOwner",
          "type": "address"
        },
        {
          "name": "_beneficiary",
          "type": "address"
        },
        {
          "name": "_initialFissionPerson",
          "type": "address"
        }
      ],
      "name": "initParamForFirstStep",
      "outputs": [],
      "payable": false,
      "stateMutability": "nonpayable",
      "type": "function"
    },
    {
      "constant": false,
      "inputs": [
        {
          "name": "promoter",
          "type": "address"
        }
      ],
      "name": "toBeFissionPerson",
      "outputs": [
        {
          "name": "",
          "type": "address"
        },
        {
          "name": "",
          "type": "address"
        }
      ],
      "payable": false,
      "stateMutability": "nonpayable",
      "type": "function"
    },
    {
      "constant": false,
      "inputs": [
        {
          "name": "_raiseTarget",
          "type": "uint256"
        }
      ],
      "name": "setRaiseTarget",
      "outputs": [
        {
          "name": "",
          "type": "uint256"
        },
        {
          "name": "",
          "type": "uint256"
        }
      ],
      "payable": false,
      "stateMutability": "nonpayable",
      "type": "function"
    },
    {
      "constant": true,
      "inputs": [
        {
          "name": "_stepIndex",
          "type": "uint256"
        }
      ],
      "name": "getRaiseTarget",
      "outputs": [
        {
          "name": "",
          "type": "uint256"
        }
      ],
      "payable": false,
      "stateMutability": "view",
      "type": "function"
    },
    {
      "constant": false,
      "inputs": [
        {
          "name": "_tokenAmount",
          "type": "uint256"
        }
      ],
      "name": "jointlyBuild",
      "outputs": [],
      "payable": false,
      "stateMutability": "nonpayable",
      "type": "function"
    },
    {
      "constant": false,
      "inputs": [],
      "name": "transferToken",
      "outputs": [
        {
          "name": "",
          "type": "bool"
        }
      ],
      "payable": true,
      "stateMutability": "payable",
      "type": "function"
    },
    {
      "constant": false,
      "inputs": [
        {
          "name": "_fissionWinnerList",
          "type": "address[]"
        },
        {
          "name": "_LuckyWinnerList",
          "type": "address[]"
        }
      ],
      "name": "settlementStep",
      "outputs": [
        {
          "name": "",
          "type": "bool"
        }
      ],
      "payable": false,
      "stateMutability": "nonpayable",
      "type": "function"
    },
    {
      "constant": false,
      "inputs": [
        {
          "name": "_FaithWinnerList",
          "type": "address[]"
        }
      ],
      "name": "settlementFaithReward",
      "outputs": [
        {
          "name": "",
          "type": "bool"
        }
      ],
      "payable": false,
      "stateMutability": "nonpayable",
      "type": "function"
    },
    {
      "constant": false,
      "inputs": [],
      "name": "withdrawAllToken",
      "outputs": [
        {
          "name": "",
          "type": "address"
        },
        {
          "name": "",
          "type": "address"
        },
        {
          "name": "",
          "type": "uint256"
        }
      ],
      "payable": true,
      "stateMutability": "payable",
      "type": "function"
    },
    {
      "constant": false,
      "inputs": [],
      "name": "withdrawAllETH",
      "outputs": [
        {
          "name": "",
          "type": "address"
        },
        {
          "name": "",
          "type": "uint256"
        }
      ],
      "payable": true,
      "stateMutability": "payable",
      "type": "function"
    },
    {
      "constant": false,
      "inputs": [],
      "name": "witthdrawAllETHByOwner",
      "outputs": [],
      "payable": true,
      "stateMutability": "payable",
      "type": "function"
    },
    {
      "constant": true,
      "inputs": [],
      "name": "isBuilder",
      "outputs": [
        {
          "name": "",
          "type": "bool"
        }
      ],
      "payable": false,
      "stateMutability": "view",
      "type": "function"
    },
    {
      "constant": true,
      "inputs": [],
      "name": "isFunder",
      "outputs": [
        {
          "name": "",
          "type": "bool"
        }
      ],
      "payable": false,
      "stateMutability": "view",
      "type": "function"
    },
    {
      "constant": true,
      "inputs": [
        {
          "name": "_funder",
          "type": "address"
        }
      ],
      "name": "getInvitees",
      "outputs": [
        {
          "name": "",
          "type": "address[]"
        }
      ],
      "payable": false,
      "stateMutability": "view",
      "type": "function"
    },
    {
      "constant": true,
      "inputs": [
        {
          "name": "_funder",
          "type": "address"
        }
      ],
      "name": "getResonances",
      "outputs": [
        {
          "name": "",
          "type": "address[]"
        }
      ],
      "payable": false,
      "stateMutability": "view",
      "type": "function"
    },
    {
      "constant": true,
      "inputs": [
        {
          "name": "_funder",
          "type": "address"
        }
      ],
      "name": "getFunderTotalRaised",
      "outputs": [
        {
          "name": "",
          "type": "uint256"
        },
        {
          "name": "",
          "type": "uint256[]"
        },
        {
          "name": "",
          "type": "uint256[]"
        },
        {
          "name": "",
          "type": "uint256[]"
        },
        {
          "name": "",
          "type": "uint256[]"
        }
      ],
      "payable": false,
      "stateMutability": "view",
      "type": "function"
    },
    {
      "constant": true,
      "inputs": [
        {
          "name": "_stepIndex",
          "type": "uint256"
        }
      ],
      "name": "getStepFunders",
      "outputs": [
        {
          "name": "",
          "type": "address[]"
        },
        {
          "name": "",
          "type": "uint256[]"
        },
        {
          "name": "",
          "type": "uint256[]"
        },
        {
          "name": "",
          "type": "uint256[]"
        },
        {
          "name": "",
          "type": "uint256[]"
        },
        {
          "name": "",
          "type": "uint256[]"
        }
      ],
      "payable": false,
      "stateMutability": "view",
      "type": "function"
    },
    {
      "constant": true,
      "inputs": [],
      "name": "getCurrentStepFundsInfo",
      "outputs": [
        {
          "name": "",
          "type": "uint256"
        },
        {
          "name": "",
          "type": "uint256"
        },
        {
          "name": "",
          "type": "uint256"
        },
        {
          "name": "",
          "type": "uint256"
        }
      ],
      "payable": false,
      "stateMutability": "view",
      "type": "function"
    },
    {
      "constant": true,
      "inputs": [],
      "name": "getBuildingPerioInfo",
      "outputs": [
        {
          "name": "",
          "type": "uint256"
        },
        {
          "name": "",
          "type": "uint256"
        },
        {
          "name": "",
          "type": "uint256"
        },
        {
          "name": "",
          "type": "uint256"
        }
      ],
      "payable": false,
      "stateMutability": "view",
      "type": "function"
    },
    {
      "constant": true,
      "inputs": [],
      "name": "getFundingPeriodInfo",
      "outputs": [
        {
          "name": "",
          "type": "uint256"
        },
        {
          "name": "",
          "type": "uint256"
        },
        {
          "name": "",
          "type": "uint256"
        },
        {
          "name": "",
          "type": "uint256"
        },
        {
          "name": "",
          "type": "uint256"
        },
        {
          "name": "",
          "type": "uint256"
        },
        {
          "name": "",
          "type": "uint256"
        },
        {
          "name": "",
          "type": "uint256"
        },
        {
          "name": "",
          "type": "uint256"
        },
        {
          "name": "",
          "type": "uint256"
        }
      ],
      "payable": false,
      "stateMutability": "view",
      "type": "function"
    },
    {
      "constant": true,
      "inputs": [],
      "name": "getFunderInfo",
      "outputs": [
        {
          "name": "",
          "type": "uint256"
        },
        {
          "name": "",
          "type": "uint256"
        },
        {
          "name": "",
          "type": "uint256"
        },
        {
          "name": "",
          "type": "uint256"
        },
        {
          "name": "",
          "type": "uint256"
        },
        {
          "name": "",
          "type": "uint256"
        },
        {
          "name": "",
          "type": "uint256"
        },
        {
          "name": "",
          "type": "uint256"
        },
        {
          "name": "",
          "type": "uint256"
        },
        {
          "name": "",
          "type": "uint256"
        }
      ],
      "payable": false,
      "stateMutability": "view",
      "type": "function"
    },
    {
      "constant": true,
      "inputs": [
        {
          "name": "_stepIndex",
          "type": "uint256"
        }
      ],
      "name": "getBlockHash",
      "outputs": [
        {
          "name": "blockHash",
          "type": "bytes32"
        }
      ],
      "payable": false,
      "stateMutability": "view",
      "type": "function"
    },
    {
      "constant": true,
      "inputs": [
        {
          "name": "_stepIndex",
          "type": "uint256"
        }
      ],
      "name": "currentStepIsClosed",
      "outputs": [
        {
          "name": "",
          "type": "bool"
        }
      ],
      "payable": false,
      "stateMutability": "view",
      "type": "function"
    },
    {
      "constant": false,
      "inputs": [],
      "name": "refund",
      "outputs": [
        {
          "name": "",
          "type": "bool"
        }
      ],
      "payable": false,
      "stateMutability": "nonpayable",
      "type": "function"
    }
  ],
  "bytecode": "0x608060405234801561001057600080fd5b5060405160c080620057d9833981018060405260c081101561003157600080fd5b50805160208201516040808401516060850151608086015160a09096015160008054600160a060020a03191633178082559451969795969395929492939192600160a060020a0316917f8be0079c531659141344cd1fd0a4f28419497f9722a3daafe3b4186f6b6457e0908290a360028054600160a060020a03978816600160a060020a0319918216179091556004805495881695821695909517909455600580549387169385169390931790925560068054918616918416919091179055600780549185169183169190911790556000600b55600180549290931691161790556156b780620001226000396000f3fe6080604052600436106102085760003560e060020a90048063912c84ec1161011c578063db27cf61116100a4578063e15ce92711610073578063e15ce92714610d35578063e757412814610d68578063e9881a5e14610d7d578063f2fde38b14610db0578063feaec77514610de357610208565b8063db27cf6114610c80578063de06d56c14610caa578063de3844ff14610cb2578063de45dbd514610d0b57610208565b8063b4862a71116100eb578063b4862a7114610ab3578063b5ac72b514610add578063c12cd1bc14610c11578063c2cb21ba14610c26578063d50cf02d14610c3b57610208565b8063912c84ec146109f15780639642a86b14610a245780639663f88f14610a39578063a637182914610a4e57610208565b80635deac38b1161019f578063891d7e791161016e578063891d7e79146109225780638da5cb5b146109875780638f32d59b1461099c57806390386bbf146109b157806390fa85f8146109dc57610208565b80635deac38b1461081857806364ab07fa146108c8578063715018a614610903578063799a53591461091a57610208565b806354b94615116101db57806354b946151461078957806356d1121a146107b2578063590e1ae3146107dc5780635bc34f71146107f157610208565b806314870d2c1461050c57806316b297461461053e57806338af3eed146107155780634559ff9b14610746575b600260009054906101000a9004600160a060020a0316600160a060020a03166374ebae066040518163ffffffff1660e060020a02815260040160206040518083038186803b15801561025957600080fd5b505afa15801561026d573d6000803e3d6000fd5b505050506040513d602081101561028357600080fd5b505115156102db576040805160e560020a62461bcd02815260206004820152601260248201527fe4b88de59ca8e58b9fe8b584e69c9fe586850000000000000000000000000000604482015290519081900360640190fd5b600260009054906101000a9004600160a060020a0316600160a060020a031663743acbab6040518163ffffffff1660e060020a02815260040160206040518083038186803b15801561032c57600080fd5b505afa158015610340573d6000803e3d6000fd5b505050506040513d602081101561035657600080fd5b50511561039b576040805160e560020a62461bcd02815260206004820152601260248201526000805160206155ea833981519152604482015290519081900360640190fd5b600b546000908152600c6020526040902060068101546007909101543491906103cb90839063ffffffff610df816565b111561040b5760405160e560020a62461bcd0281526004018080602001828103825260248152602001806155966024913960400191505060405180910390fd5b600b80546000908152600c6020818152604080842033808652908352818520600201879055855485528383528185208186528352818520600601805475ff00000000000000000000000000000000000000000019167501000000000000000000000000000000000000000000179055855485529282528084206007018054870190556008805460018181019092557ff3f7a9fe364faab93b216da50a3214154f22a0a2b415b23a84c8169e8b636ee301805473ffffffffffffffffffffffffffffffffffffffff1990811686179091559554855281852081018054918201815585528285200180549095168317909455908252600990522080549091019055005b610514610e13565b60408051600160a060020a0394851681529290931660208301528183015290519081900360600190f35b34801561054a57600080fd5b506105686004803603602081101561056157600080fd5b50356110a3565b6040518080602001806020018060200180602001806020018060200187810387528d818151815260200191508051906020019060200280838360005b838110156105bc5781810151838201526020016105a4565b5050505090500187810386528c818151815260200191508051906020019060200280838360005b838110156105fb5781810151838201526020016105e3565b5050505090500187810385528b818151815260200191508051906020019060200280838360005b8381101561063a578181015183820152602001610622565b5050505090500187810384528a818151815260200191508051906020019060200280838360005b83811015610679578181015183820152602001610661565b50505050905001878103835289818151815260200191508051906020019060200280838360005b838110156106b85781810151838201526020016106a0565b50505050905001878103825288818151815260200191508051906020019060200280838360005b838110156106f75781810151838201526020016106df565b505050509050019c5050505050505050505050505060405180910390f35b34801561072157600080fd5b5061072a61147d565b60408051600160a060020a039092168252519081900360200190f35b34801561075257600080fd5b506107706004803603602081101561076957600080fd5b503561148c565b6040805192835260208301919091528051918290030190f35b34801561079557600080fd5b5061079e61177d565b604080519115158252519081900360200190f35b3480156107be57600080fd5b5061079e600480360360208110156107d557600080fd5b50356117bb565b3480156107e857600080fd5b5061079e6117d8565b3480156107fd57600080fd5b50610806611c8d565b60408051918252519081900360200190f35b34801561082457600080fd5b5061079e6004803603602081101561083b57600080fd5b81019060208101813564010000000081111561085657600080fd5b82018360208201111561086857600080fd5b8035906020019184602083028401116401000000008311171561088a57600080fd5b919080806020026020016040519081016040528093929190818152602001838360200280828437600092019190915250929550611c93945050505050565b3480156108d457600080fd5b506108dd611ed9565b604080519485526020850193909352838301919091526060830152519081900360800190f35b34801561090f57600080fd5b50610918611fc7565b005b61079e612031565b34801561092e57600080fd5b50610937612397565b60408051602080825283518183015283519192839290830191858101910280838360005b8381101561097357818101518382015260200161095b565b505050509050019250505060405180910390f35b34801561099357600080fd5b5061072a61240c565b3480156109a857600080fd5b5061079e61241b565b6109b961242c565b60408051600160a060020a03909316835260208301919091528051918290030190f35b3480156109e857600080fd5b5061072a612652565b3480156109fd57600080fd5b50610a06612661565b60408051938452602084019290925282820152519081900360600190f35b348015610a3057600080fd5b50610806612682565b348015610a4557600080fd5b50610806612688565b348015610a5a57600080fd5b50610a636126b5565b604080519a8b5260208b0199909952898901979097526060890195909552608088019390935260a087019190915260c086015260e085015261010084015261012083015251908190036101400190f35b348015610abf57600080fd5b5061091860048036036020811015610ad657600080fd5b5035612de2565b348015610ae957600080fd5b5061079e60048036036040811015610b0057600080fd5b810190602081018135640100000000811115610b1b57600080fd5b820183602082011115610b2d57600080fd5b80359060200191846020830284011164010000000083111715610b4f57600080fd5b9190808060200260200160405190810160405280939291908181526020018383602002808284376000920191909152509295949360208101935035915050640100000000811115610b9f57600080fd5b820183602082011115610bb157600080fd5b80359060200191846020830284011164010000000083111715610bd357600080fd5b91908080602002602001604051908101604052809392919081815260200183836020028082843760009201919091525092955061398c945050505050565b348015610c1d57600080fd5b50610a06613d34565b348015610c3257600080fd5b5061079e613e15565b348015610c4757600080fd5b5061091860048036036060811015610c5e57600080fd5b50600160a060020a038135811691602081013582169160409091013516613e1e565b348015610c8c57600080fd5b5061080660048036036020811015610ca357600080fd5b50356140e3565b6109186140f8565b348015610cbe57600080fd5b50610ce560048036036020811015610cd557600080fd5b5035600160a060020a0316614148565b60408051600160a060020a03938416815291909216602082015281519081900390910190f35b348015610d1757600080fd5b5061079e60048036036020811015610d2e57600080fd5b5035614a67565b348015610d4157600080fd5b5061080660048036036020811015610d5857600080fd5b5035600160a060020a0316614a7c565b348015610d7457600080fd5b5061072a614aad565b348015610d8957600080fd5b5061093760048036036020811015610da057600080fd5b5035600160a060020a0316614abc565b348015610dbc57600080fd5b5061091860048036036020811015610dd357600080fd5b5035600160a060020a0316614b3f565b348015610def57600080fd5b5061079e614b5b565b600082820183811015610e0a57600080fd5b90505b92915050565b600b546000908152600c6020908152604080832033845290915281206006015481908190760100000000000000000000000000000000000000000000900460ff1615610e935760405160e560020a62461bcd02815260040180806020018281038252602c81526020018061560a602c913960400191505060405180910390fd5b600254604080517f9d7e0c860000000000000000000000000000000000000000000000000000000081523360048201529051600092600160a060020a031691639d7e0c86916024808301926020929190829003018186803b158015610ef757600080fd5b505afa158015610f0b573d6000803e3d6000fd5b505050506040513d6020811015610f2157600080fd5b5051600254604080517f430c67c40000000000000000000000000000000000000000000000000000000081523360048201529051929350600160a060020a039091169163430c67c49160248082019260009290919082900301818387803b158015610f8b57600080fd5b505af1158015610f9f573d6000803e3d6000fd5b5050600b546000908152600c6020908152604080832033808552908352818420600601805476ff00000000000000000000000000000000000000000000191676010000000000000000000000000000000000000000000017905560015482517f23b872dd0000000000000000000000000000000000000000000000000000000081523060048201526024810192909252604482018890529151600160a060020a039290921695506323b872dd9450606480820194918390030190829087803b15801561106a57600080fd5b505af115801561107e573d6000803e3d6000fd5b505050506040513d602081101561109457600080fd5b50309533955091935090915050565b6060806060806060806110b461241b565b15156110bf57600080fd5b606080606080606080600c60008e815260200190815260200160002060010180548060200260200160405190810160405280929190818152602001828054801561113257602002820191906000526020600020905b8154600160a060020a03168152600190910190602001808311611114575b505050505095508551604051908082528060200260200182016040528015611164578160200160208202803883390190505b5095508551604051908082528060200260200182016040528015611192578160200160208202803883390190505b50945085516040519080825280602002602001820160405280156111c0578160200160208202803883390190505b50935085516040519080825280602002602001820160405280156111ee578160200160208202803883390190505b509250855160405190808252806020026020018201604052801561121c578160200160208202803883390190505b509150855160405190808252806020026020018201604052801561124a578160200160208202803883390190505b50905060005b86518110156114685760008e8152600c60205260408120885190919089908490811061127857fe5b90602001906020020151600160a060020a0316600160a060020a031681526020019081526020016000206001015486828151811015156112b457fe5b602090810290910181019190915260008f8152600c9091526040812088519091908990849081106112e157fe5b90602001906020020151600160a060020a0316600160a060020a0316815260200190815260200160002060020154858281518110151561131d57fe5b602090810290910181019190915260008f8152600c90915260408120885190919089908490811061134a57fe5b6020908102909101810151600160a060020a0316825281019190915260400160002060030154845185908390811061137e57fe5b6020908102909101810191909152600b546000908152600c9091526040812088519091908990849081106113ae57fe5b90602001906020020151600160a060020a0316600160a060020a031681526020019081526020016000206005015483828151811015156113ea57fe5b6020908102909101810191909152600b546000908152600c90915260408120885190919089908490811061141a57fe5b90602001906020020151600160a060020a0316600160a060020a0316815260200190815260200160002060040154828281518110151561145657fe5b60209081029091010152600101611250565b50949c939b5091995097509550909350915050565b600354600160a060020a031681565b60008061149761241b565b15156114a257600080fd5b600260009054906101000a9004600160a060020a0316600160a060020a03166325d8e97f6040518163ffffffff1660e060020a02815260040160206040518083038186803b1580156114f357600080fd5b505afa158015611507573d6000803e3d6000fd5b505050506040513d602081101561151d57600080fd5b50511515611575576040805160e560020a62461bcd02815260206004820152601260248201527fe4b88de59ca8e585b1e5bbbae69c9fe586850000000000000000000000000000604482015290519081900360640190fd5b73__UintUtils_____________________________63669dafe8846040518263ffffffff1660e060020a0281526004018082815260200191505060206040518083038186803b1580156115c757600080fd5b505af41580156115db573d6000803e3d6000fd5b505050506040513d60208110156115f157600080fd5b5051600b80546000908152600c60205260408082206006908101949094559154815220015473__UintUtils_____________________________9063669dafe8906116569060649061164a90603c63ffffffff614b9a16565b9063ffffffff614bc516565b6040518263ffffffff1660e060020a0281526004018082815260200191505060206040518083038186803b15801561168d57600080fd5b505af41580156116a1573d6000803e3d6000fd5b505050506040513d60208110156116b757600080fd5b5051600b80546000908152600c60209081526040808320600801949094559154815282902060060154825160e360020a630cd3b5fd0281526004810191909152915173__UintUtils_____________________________9263669dafe8926024808301939192829003018186803b15801561173157600080fd5b505af4158015611745573d6000803e3d6000fd5b505050506040513d602081101561175b57600080fd5b5051600b80546000908152600c60205260409020600901919091555493915050565b600b546000908152600c6020908152604080832033845290915290206006015474010000000000000000000000000000000000000000900460ff1690565b6000908152600c60205260409020600a0154610100900460ff1690565b60006117e261241b565b15156117ed57600080fd5b601254610100900460ff161561184d576040805160e560020a62461bcd02815260206004820152601560248201527fe98080e6acbee5b7b2e7bb8fe5ae8ce68890e4ba860000000000000000000000604482015290519081900360640190fd5b600254604080517f50b9d89d0000000000000000000000000000000000000000000000000000000081529051600092600160a060020a0316916350b9d89d916004808301926020929190829003018186803b1580156118ab57600080fd5b505afa1580156118bf573d6000803e3d6000fd5b505050506040513d60208110156118d557600080fd5b50516000818152600c60209081526040918290206001018054835181840281018401909452808452939450606093909183018282801561193e57602002820191906000526020600020905b8154600160a060020a03168152600190910190602001808311611920575b50939450600093505050505b8151811015611c6d576002548251600160a060020a0390911690639b32a7789084908490811061197657fe5b90602001906020020151600c6000878152602001908152602001600020600001600086868151811015156119a657fe5b90602001906020020151600160a060020a0316600160a060020a0316815260200190815260200160002060020154600260009054906101000a9004600160a060020a0316600160a060020a0316633bb66a7b8787815181101515611a0657fe5b906020019060200201516040518263ffffffff1660e060020a0281526004018082600160a060020a0316600160a060020a0316815260200191505060206040518083038186803b158015611a5957600080fd5b505afa158015611a6d573d6000803e3d6000fd5b505050506040513d6020811015611a8357600080fd5b50516040805160e060020a63ffffffff8716028152600160a060020a0390941660048501529101602483015251604480830192600092919082900301818387803b158015611ad057600080fd5b505af1158015611ae4573d6000803e3d6000fd5b50506002548451600160a060020a039091169250634ceb1f139150849084908110611b0b57fe5b90602001906020020151600c600087815260200190815260200160002060000160008686815181101515611b3b57fe5b6020908102909101810151600160a060020a0390811683529082019290925260400160002060010154600254875191921690633aecd0e390889088908110611b7f57fe5b906020019060200201516040518263ffffffff1660e060020a0281526004018082600160a060020a0316600160a060020a0316815260200191505060206040518083038186803b158015611bd257600080fd5b505afa158015611be6573d6000803e3d6000fd5b505050506040513d6020811015611bfc57600080fd5b50516040805160e060020a63ffffffff8716028152600160a060020a0390941660048501529101602483015251604480830192600092919082900301818387803b158015611c4957600080fd5b505af1158015611c5d573d6000803e3d6000fd5b50506001909201915061194a9050565b50506012805461ff00191661010090811791829055900460ff1691505090565b600b5481565b6000611c9d61241b565b1515611ca857600080fd5b600260009054906101000a9004600160a060020a0316600160a060020a031663743acbab6040518163ffffffff1660e060020a02815260040160206040518083038186803b158015611cf957600080fd5b505afa158015611d0d573d6000803e3d6000fd5b505050506040513d6020811015611d2357600080fd5b50511515611d7b576040805160e560020a62461bcd02815260206004820152601260248201527fe585b1e68cafe8bf98e69caae7bb93e69d9f0000000000000000000000000000604482015290519081900360640190fd5b600254600f54600160a060020a03909116906395bbde8890849073__UintUtils_____________________________9063669dafe890611dc99060649061164a90600563ffffffff614b9a16565b6040518263ffffffff1660e060020a0281526004018082815260200191505060206040518083038186803b158015611e0057600080fd5b505af4158015611e14573d6000803e3d6000fd5b505050506040513d6020811015611e2a57600080fd5b50516040805160e060020a63ffffffff861602815260248101839052600481019182528351604482015283518291606401906020868101910280838360005b83811015611e81578181015183820152602001611e69565b505050509050019350505050602060405180830381600087803b158015611ea757600080fd5b505af1158015611ebb573d6000803e3d6000fd5b505050506040513d6020811015611ed157600080fd5b505192915050565b60008060008060008060008042600260009054906101000a9004600160a060020a0316600160a060020a031663d74635736040518163ffffffff1660e060020a02815260040160206040518083038186803b158015611f3757600080fd5b505afa158015611f4b573d6000803e3d6000fd5b505050506040513d6020811015611f6157600080fd5b5051600b546000908152600c60205260409020600481015460029091015492909103610708019550611f99919063ffffffff614be916565b600b546000908152600c602052604090206003810154600590910154959a9199509750939550929350505050565b611fcf61241b565b1515611fda57600080fd5b60008054604051600160a060020a03909116907f8be0079c531659141344cd1fd0a4f28419497f9722a3daafe3b4186f6b6457e0908390a36000805473ffffffffffffffffffffffffffffffffffffffff19169055565b600061203b61241b565b151561204657600080fd5b600b5460009081526011602052604090205460ff161561209a5760405160e560020a62461bcd02815260040180806020018281038252602c815260200180615636602c913960400191505060405180910390fd5b600260009054906101000a9004600160a060020a0316600160a060020a031663d998d6286040518163ffffffff1660e060020a02815260040160206040518083038186803b1580156120eb57600080fd5b505afa1580156120ff573d6000803e3d6000fd5b505050506040513d602081101561211557600080fd5b5051600154604080517fdd62ed3e0000000000000000000000000000000000000000000000000000000081523360048201523060248201529051600160a060020a039092169163dd62ed3e91604480820192602092909190829003018186803b15801561218157600080fd5b505afa158015612195573d6000803e3d6000fd5b505050506040513d60208110156121ab57600080fd5b50511015612203576040805160e560020a62461bcd02815260206004820152601260248201527fe68e88e69d83e9a29de5baa6e4b88de8b6b30000000000000000000000000000604482015290519081900360640190fd5b600154600254604080517fd998d6280000000000000000000000000000000000000000000000000000000081529051600160a060020a03938416936323b872dd9333933093919092169163d998d628916004808301926020929190829003018186803b15801561227257600080fd5b505afa158015612286573d6000803e3d6000fd5b505050506040513d602081101561229c57600080fd5b50516040805160e060020a63ffffffff8716028152600160a060020a0394851660048201529290931660248301526044820152905160648083019260209291908290030181600087803b1580156122f257600080fd5b505af1158015612306573d6000803e3d6000fd5b505050506040513d602081101561231c57600080fd5b50511515612374576040805160e560020a62461bcd02815260206004820152601a60248201527fe8bdace7a7bb746f6b656ee588b0e59088e7baa6e5a4b1e8b4a5000000000000604482015290519081900360640190fd5b50600b546000908152601160205260409020805460ff1916600190811790915590565b60606123a161241b565b15156123ac57600080fd5b600880548060200260200160405190810160405280929190818152602001828054801561240257602002820191906000526020600020905b8154600160a060020a031681526001909101906020018083116123e4575b5050505050905090565b600054600160a060020a031690565b600054600160a060020a0316331490565b600b546000908152600c6020908152604080832033808552925282206006015482919077010000000000000000000000000000000000000000000000900460ff16156124ac5760405160e560020a62461bcd02815260040180806020018281038252602a815260200180615662602a913960400191505060405180910390fd5b600254604080517f9263434e0000000000000000000000000000000000000000000000000000000081523360048201529051600092600160a060020a031691639263434e916024808301926020929190829003018186803b15801561251057600080fd5b505afa158015612524573d6000803e3d6000fd5b505050506040513d602081101561253a57600080fd5b5051600254604080517ffe147c1b0000000000000000000000000000000000000000000000000000000081523360048201529051929350600160a060020a039091169163fe147c1b9160248082019260009290919082900301818387803b1580156125a457600080fd5b505af11580156125b8573d6000803e3d6000fd5b5050600b546000908152600c60209081526040808320338452909152808220600601805477ff000000000000000000000000000000000000000000000019167701000000000000000000000000000000000000000000000017905551600160a060020a038616935084156108fc0292508491818181858888f19350505050158015612647573d6000803e3d6000fd5b503393509150509091565b600d54600160a060020a031681565b600b546000818152600c602052604090206002810154600790910154909192565b600f5481565b600b80546000908152600c60205260408120909101546126af90600163ffffffff610df816565b40905090565b6000806000806000806000806000806126cc61549f565b600b546000908152600c602090815260408083203384528252918290208251610160810184528154600160a060020a03168152600182015481840152600282015481850152600382018054855181860281018601909652808652919492936060860193929083018282801561276a57602002820191906000526020600020905b8154600160a060020a0316815260019091019060200180831161274c575b5050509183525050600482015460208201526005820154604080830191909152600690920154600160a060020a03811660608084019190915260ff740100000000000000000000000000000000000000008304811615156080850152750100000000000000000000000000000000000000000083048116151560a085015276010000000000000000000000000000000000000000000083048116151560c085015277010000000000000000000000000000000000000000000000909204909116151560e0909201919091528151600a808252610160820190935292935091908160200160208202803883395050600254604080517f3aecd0e30000000000000000000000000000000000000000000000000000000081523360048201529051939450600160a060020a0390911692633aecd0e392506024808301926020929190829003018186803b1580156128be57600080fd5b505afa1580156128d2573d6000803e3d6000fd5b505050506040513d60208110156128e857600080fd5b50518151829060009081106128f957fe5b6020908102909101810191909152600254604080517f3bb66a7b0000000000000000000000000000000000000000000000000000000081523360048201529051600160a060020a0390921692633bb66a7b92602480840193829003018186803b15801561296557600080fd5b505afa158015612979573d6000803e3d6000fd5b505050506040513d602081101561298f57600080fd5b50518151829060019081106129a057fe5b602090810290910101526060820151518151829060029081106129bf57fe5b6020908102909101015260a08201518151829060039081106129dd57fe5b906020019060200201818152505081602001518160048151811015156129ff57fe5b602090810290910101526040820151815182906005908110612a1d57fe5b6020908102909101810191909152600654604080517fc28a1af30000000000000000000000000000000000000000000000000000000081523360048201529051600160a060020a039092169263c28a1af392602480840193829003018186803b158015612a8957600080fd5b505afa158015612a9d573d6000803e3d6000fd5b505050506040513d6020811015612ab357600080fd5b5051815182906006908110612ac457fe5b602090810290910181019190915260048054604080517f0df2019a000000000000000000000000000000000000000000000000000000008152339381019390935251600160a060020a0390911692630df2019a9260248082019391829003018186803b158015612b3357600080fd5b505afa158015612b47573d6000803e3d6000fd5b505050506040513d6020811015612b5d57600080fd5b5051815182906007908110612b6e57fe5b6020908102909101810191909152600554604080517fc75355670000000000000000000000000000000000000000000000000000000081523360048201529051600160a060020a039092169263c753556792602480840193829003018186803b158015612bda57600080fd5b505afa158015612bee573d6000803e3d6000fd5b505050506040513d6020811015612c0457600080fd5b5051815182906008908110612c1557fe5b6020908102909101810191909152600754604080517f4a6817870000000000000000000000000000000000000000000000000000000081523360048201529051600160a060020a0390921692634a68178792602480840193829003018186803b158015612c8157600080fd5b505afa158015612c95573d6000803e3d6000fd5b505050506040513d6020811015612cab57600080fd5b5051815182906009908110612cbc57fe5b60209081029091010152805181906000908110612cd557fe5b90602001906020020151816001815181101515612cee57fe5b90602001906020020151826002815181101515612d0757fe5b90602001906020020151836003815181101515612d2057fe5b90602001906020020151846004815181101515612d3957fe5b90602001906020020151856005815181101515612d5257fe5b90602001906020020151866006815181101515612d6b57fe5b90602001906020020151876007815181101515612d8457fe5b90602001906020020151886008815181101515612d9d57fe5b90602001906020020151896009815181101515612db657fe5b906020019060200201519b509b509b509b509b509b509b509b509b509b50505090919293949596979899565b600260009054906101000a9004600160a060020a0316600160a060020a03166325d8e97f6040518163ffffffff1660e060020a02815260040160206040518083038186803b158015612e3357600080fd5b505afa158015612e47573d6000803e3d6000fd5b505050506040513d6020811015612e5d57600080fd5b50511515612eb5576040805160e560020a62461bcd02815260206004820152601260248201527fe4b88de59ca8e585b1e5bbbae69c9fe586850000000000000000000000000000604482015290519081900360640190fd5b600260009054906101000a9004600160a060020a0316600160a060020a031663743acbab6040518163ffffffff1660e060020a02815260040160206040518083038186803b158015612f0657600080fd5b505afa158015612f1a573d6000803e3d6000fd5b505050506040513d6020811015612f3057600080fd5b505115612f75576040805160e560020a62461bcd02815260206004820152601260248201526000805160206155ea833981519152604482015290519081900360640190fd5b612f7d61177d565b1515612fd3576040805160e560020a62461bcd02815260206004820152601660248201527fe8b083e794a8e88085e4b88de698af4275696c64657200000000000000000000604482015290519081900360640190fd5b600b546000908152600c60205260409020600201546130009060649061164a90600163ffffffff614b9a16565b600b546000908152600c60209081526040918290206003019290925560025481517fd998d62800000000000000000000000000000000000000000000000000000000815291516130c593600160a060020a039092169263d998d628926004808301939192829003018186803b15801561307857600080fd5b505afa15801561308c573d6000803e3d6000fd5b505050506040513d60208110156130a257600080fd5b5051600b546000908152600c60205260409020600201549063ffffffff614be916565b600b546000908152600c60205260409020600401546130ea908363ffffffff610df816565b111561312a5760405160e560020a62461bcd02815260040180806020018281038252602d8152602001806154fb602d913960400191505060405180910390fd5b600b546000908152600c602052604090206002810154600490910154613156908363ffffffff610df816565b11156131965760405160e560020a62461bcd0281526004018080602001828103825260268152602001806155496026913960400191505060405180910390fd5b600b546000908152600c6020908152604080832060038101543385529252909120600101546131cb908363ffffffff610df816565b111561320b5760405160e560020a62461bcd0281526004018080602001828103825260308152602001806155ba6030913960400191505060405180910390fd5b73__UintUtils_____________________________63669dafe8826040518263ffffffff1660e060020a0281526004018082815260200191505060206040518083038186803b15801561325d57600080fd5b505af4158015613271573d6000803e3d6000fd5b505050506040513d602081101561328757600080fd5b5051600154604080517fdd62ed3e0000000000000000000000000000000000000000000000000000000081523360048201523060248201529051600160a060020a039092169163dd62ed3e91604480820192602092909190829003018186803b1580156132f357600080fd5b505afa158015613307573d6000803e3d6000fd5b505050506040513d602081101561331d57600080fd5b50511015613375576040805160e560020a62461bcd02815260206004820152601260248201527fe68e88e69d83e9a29de5baa6e4b88de8b6b30000000000000000000000000000604482015290519081900360640190fd5b600160009054906101000a9004600160a060020a0316600160a060020a03166323b872dd333073__UintUtils_____________________________63669dafe8866040518263ffffffff1660e060020a0281526004018082815260200191505060206040518083038186803b1580156133ed57600080fd5b505af4158015613401573d6000803e3d6000fd5b505050506040513d602081101561341757600080fd5b50516040805160e060020a63ffffffff8716028152600160a060020a0394851660048201529290931660248301526044820152905160648083019260209291908290030181600087803b15801561346d57600080fd5b505af1158015613481573d6000803e3d6000fd5b505050506040513d602081101561349757600080fd5b505115156134ef576040805160e560020a62461bcd02815260206004820152601a60248201527fe8bdace7a7bb746f6b656ee588b0e59088e7baa6e5a4b1e8b4a5000000000000604482015290519081900360640190fd5b73__UintUtils_____________________________63669dafe8826040518263ffffffff1660e060020a0281526004018082815260200191505060206040518083038186803b15801561354157600080fd5b505af4158015613555573d6000803e3d6000fd5b505050506040513d602081101561356b57600080fd5b5051600b546000908152600c602090815260408083203384528252918290206001018054909301909255805160e360020a630cd3b5fd02815260048101849052905173__UintUtils_____________________________9263669dafe89260248082019391829003018186803b1580156135e457600080fd5b505af41580156135f8573d6000803e3d6000fd5b505050506040513d602081101561360e57600080fd5b5051600b546000908152600c60209081526040808320338452825280832060060154600160a060020a031683529182902060049081018054909401909355815160e360020a630cd3b5fd028152928301849052905173__UintUtils_____________________________9263669dafe8926024808301939192829003018186803b15801561369b57600080fd5b505af41580156136af573d6000803e3d6000fd5b505050506040513d60208110156136c557600080fd5b5051600b546000908152600c602090815260409182902060029081018054949094039093559154815160e360020a630cd3b5fd028152600481018590529151600160a060020a03909116926330f42bf69273__UintUtils_____________________________9263669dafe892602480840193919291829003018186803b15801561374f57600080fd5b505af4158015613763573d6000803e3d6000fd5b505050506040513d602081101561377957600080fd5b5051600254604080517f2734189a0000000000000000000000000000000000000000000000000000000081529051600160a060020a0390921691632734189a91600480820192602092909190829003018186803b1580156137d957600080fd5b505afa1580156137ed573d6000803e3d6000fd5b505050506040513d602081101561380357600080fd5b50516040805160e060020a63ffffffff861602815292909103600483015251602480830192600092919082900301818387803b15801561384257600080fd5b505af1158015613856573d6000803e3d6000fd5b5050505073__UintUtils_____________________________63669dafe8826040518263ffffffff1660e060020a0281526004018082815260200191505060206040518083038186803b1580156138ac57600080fd5b505af41580156138c0573d6000803e3d6000fd5b505050506040513d60208110156138d657600080fd5b5051336000908152600a60209081526040918290208054909301909255805160e360020a630cd3b5fd02815260048101849052905173__UintUtils_____________________________9263669dafe89260248082019391829003018186803b15801561394257600080fd5b505af4158015613956573d6000803e3d6000fd5b505050506040513d602081101561396c57600080fd5b5051600b546000908152600c602052604090206004018054909101905550565b600061399661241b565b15156139a157600080fd5b600354600160a060020a031615156139ed5760405160e560020a62461bcd0281526004018080602001828103825260218152602001806155286021913960400191505060405180910390fd5b613aa4606461164a6028613a98600260009054906101000a9004600160a060020a0316600160a060020a0316639b2dc7696040518163ffffffff1660e060020a02815260040160206040518083038186803b158015613a4b57600080fd5b505afa158015613a5f573d6000803e3d6000fd5b505050506040513d6020811015613a7557600080fd5b5051600b546000908152600c60205260409020600701549063ffffffff614b9a16565b9063ffffffff614b9a16565b600b80546000908152600e602052604080822093909355905481522054600f80549091019055613ad383614bfe565b613adc82614f37565b600254600354600b546000908152600c6020526040902060070154600160a060020a0392831692639b32a77892169073__UintUtils_____________________________9063669dafe890613b3f9060649061164a90603c63ffffffff614b9a16565b6040518263ffffffff1660e060020a0281526004018082815260200191505060206040518083038186803b158015613b7657600080fd5b505af4158015613b8a573d6000803e3d6000fd5b505050506040513d6020811015613ba057600080fd5b5051600254600354604080517f3bb66a7b000000000000000000000000000000000000000000000000000000008152600160a060020a03928316600482015290519190921691633bb66a7b916024808301926020929190829003018186803b158015613c0b57600080fd5b505afa158015613c1f573d6000803e3d6000fd5b505050506040513d6020811015613c3557600080fd5b50516040805160e060020a63ffffffff8716028152600160a060020a0390941660048501529101602483015251604480830192600092919082900301818387803b158015613c8257600080fd5b505af1158015613c96573d6000803e3d6000fd5b50505050600260009054906101000a9004600160a060020a0316600160a060020a031663743acbab6040518163ffffffff1660e060020a02815260040160206040518083038186803b158015613ceb57600080fd5b505afa158015613cff573d6000803e3d6000fd5b505050506040513d6020811015613d1557600080fd5b505115613d2457506001610e0d565b613d2c615080565b506000610e0d565b60008060008060008042600260009054906101000a9004600160a060020a0316600160a060020a031663d74635736040518163ffffffff1660e060020a02815260040160206040518083038186803b158015613d8f57600080fd5b505afa158015613da3573d6000803e3d6000fd5b505050506040513d6020811015613db957600080fd5b5051600b546000908152600c60205260409020600781015460069091015492909103610e10019450613df1919063ffffffff614be916565b600b546000908152600c602052604090206007015493965094509192505050909192565b60125460ff1681565b613e2661241b565b1515613e3157600080fd5b60125460ff1615613e765760405160e560020a62461bcd02815260040180806020018281038252602781526020018061556f6027913960400191505060405180910390fd5b60038054600160a060020a0380851673ffffffffffffffffffffffffffffffffffffffff1992831617909255600d80548484169216919091179055600254604080517fabdd11a80000000000000000000000000000000000000000000000000000000081524260048201529051919092169163abdd11a891602480830192600092919082900301818387803b158015613f0e57600080fd5b505af1158015613f22573d6000803e3d6000fd5b5050505073__UintUtils_____________________________63669dafe86216e3606040518263ffffffff1660e060020a0281526004018082815260200191505060206040518083038186803b158015613f7b57600080fd5b505af4158015613f8f573d6000803e3d6000fd5b505050506040513d6020811015613fa557600080fd5b5051600b546000908152600c6020526040808220600290810193909355915482517f1c5ce1570000000000000000000000000000000000000000000000000000000081529251600160a060020a0390911692631c5ce15792600480830193919282900301818387803b15801561401a57600080fd5b505af115801561402e573d6000803e3d6000fd5b5050600254600b54604080517f0d9907d9000000000000000000000000000000000000000000000000000000008152600481019290925251600160a060020a039092169350630d9907d992506024808201926020929091908290030181600087803b15801561409c57600080fd5b505af11580156140b0573d6000803e3d6000fd5b505050506040513d60208110156140c657600080fd5b50506012805460ff191660011790556140de83614b3f565b505050565b6000908152600c602052604090206006015490565b61410061241b565b151561410b57600080fd5b600354604051600160a060020a0390911690303180156108fc02916000818181858888f19350505050158015614145573d6000803e3d6000fd5b50565b600080600260009054906101000a9004600160a060020a0316600160a060020a03166325d8e97f6040518163ffffffff1660e060020a02815260040160206040518083038186803b15801561419c57600080fd5b505afa1580156141b0573d6000803e3d6000fd5b505050506040513d60208110156141c657600080fd5b5051151561421e576040805160e560020a62461bcd02815260206004820152601260248201527fe4b88de59ca8e585b1e5bbbae69c9fe586850000000000000000000000000000604482015290519081900360640190fd5b600260009054906101000a9004600160a060020a0316600160a060020a031663743acbab6040518163ffffffff1660e060020a02815260040160206040518083038186803b15801561426f57600080fd5b505afa158015614283573d6000803e3d6000fd5b505050506040513d602081101561429957600080fd5b5051156142de576040805160e560020a62461bcd02815260206004820152601260248201526000805160206155ea833981519152604482015290519081900360640190fd5b600d54600160a060020a0384811691161461438d57600b546000908152600c60209081526040808320600160a060020a038716845290915290206006015474010000000000000000000000000000000000000000900460ff16151561438d576040805160e560020a62461bcd02815260206004820152601f60248201527fe68ea8e5b9bfe88085e887aae5b7b1e5bf85e9a1bbe698af4275696c64657200604482015290519081900360640190fd5b600160a060020a03831615156143ed576040805160e560020a62461bcd02815260206004820152601b60248201527fe68ea8e5b9bfe88085e4b88de883bde698afe7a9bae59cb0e59d800000000000604482015290519081900360640190fd5b73__UintUtils_____________________________63669dafe860086040518263ffffffff1660e060020a0281526004018082815260200191505060206040518083038186803b15801561444057600080fd5b505af4158015614454573d6000803e3d6000fd5b505050506040513d602081101561446a57600080fd5b5051600154604080517fdd62ed3e0000000000000000000000000000000000000000000000000000000081523360048201523060248201529051600160a060020a039092169163dd62ed3e91604480820192602092909190829003018186803b1580156144d657600080fd5b505afa1580156144ea573d6000803e3d6000fd5b505050506040513d602081101561450057600080fd5b50511015614558576040805160e560020a62461bcd02815260206004820152601260248201527fe68e88e69d83e9a29de5baa6e4b88de8b6b30000000000000000000000000000604482015290519081900360640190fd5b6001546040805160e360020a630cd3b5fd028152600860048201529051600160a060020a03909216916323b872dd913391309173__UintUtils_____________________________9163669dafe891602480820192602092909190829003018186803b1580156145c757600080fd5b505af41580156145db573d6000803e3d6000fd5b505050506040513d60208110156145f157600080fd5b50516040805160e060020a63ffffffff8716028152600160a060020a0394851660048201529290931660248301526044820152905160648083019260209291908290030181600087803b15801561464757600080fd5b505af115801561465b573d6000803e3d6000fd5b505050506040513d602081101561467157600080fd5b505115156146c9576040805160e560020a62461bcd02815260206004820152601a60248201527fe8bdace7a7bb746f6b656ee588b0e59088e7baa6e5a4b1e8b4a5000000000000604482015290519081900360640190fd5b6001546040805160e360020a630cd3b5fd028152600360048201529051600160a060020a03909216916342966c689173__UintUtils_____________________________9163669dafe891602480820192602092909190829003018186803b15801561473457600080fd5b505af4158015614748573d6000803e3d6000fd5b505050506040513d602081101561475e57600080fd5b50516040805160e060020a63ffffffff8516028152600481019290925251602480830192600092919082900301818387803b15801561479c57600080fd5b505af11580156147b0573d6000803e3d6000fd5b50506001546040805160e360020a630cd3b5fd028152600560048201529051600160a060020a03909216935063a9059cbb9250869173__UintUtils_____________________________9163669dafe8916024808301926020929190829003018186803b15801561482057600080fd5b505af4158015614834573d6000803e3d6000fd5b505050506040513d602081101561484a57600080fd5b50516040805160e060020a63ffffffff8616028152600160a060020a03909316600484015260248301919091525160448083019260209291908290030181600087803b15801561489957600080fd5b505af11580156148ad573d6000803e3d6000fd5b505050506040513d60208110156148c357600080fd5b50506040805160e360020a630cd3b5fd02815260056004820152905173__UintUtils_____________________________9163669dafe8916024808301926020929190829003018186803b15801561491a57600080fd5b505af415801561492e573d6000803e3d6000fd5b505050506040513d602081101561494457600080fd5b5051600b546000908152600c60209081526040808320600160a060020a038816845290915290206005018054909101905561497e3361536c565b600b80546000908152600c60209081526040808320600160a060020a038089168086529184528285206003018054600181018255908652938520909301805473ffffffffffffffffffffffffffffffffffffffff191633179055600480549554600d5484517fe23613e900000000000000000000000000000000000000000000000000000000815292830191909152602482019290925290831660448201529051939091169263e23613e99260648084019391929182900301818387803b158015614a4857600080fd5b505af1158015614a5c573d6000803e3d6000fd5b503396945050505050565b60116020526000908152604090205460ff1681565b6000614a8661241b565b1515614a9157600080fd5b50600160a060020a031660009081526009602052604090205490565b600154600160a060020a031681565b600b546000908152600c60209081526040808320600160a060020a0385168452825291829020600301805483518184028101840190945280845260609392830182828015614b3357602002820191906000526020600020905b8154600160a060020a03168152600190910190602001808311614b15575b50505050509050919050565b614b4761241b565b1515614b5257600080fd5b61414581615422565b600b546000908152600c602090815260408083203384529091529020600601547501000000000000000000000000000000000000000000900460ff1690565b6000821515614bab57506000610e0d565b828202828482811515614bba57fe5b0414610e0a57600080fd5b6000808211614bd357600080fd5b60008284811515614be057fe5b04949350505050565b600082821115614bf857600080fd5b50900390565b600b546000908152600c60205260409020600a015460ff1615614c6b576040805160e560020a62461bcd02815260206004820152601e60248201527fe5bd93e5898de8bdaee6aca1e5b7b2e7bb8fe7bb93e7ae97e5ae8ce6af950000604482015290519081900360640190fd5b600b546000908152600c60205260409020600a0154610100900460ff1615614cdd576040805160e560020a62461bcd02815260206004820152601b60248201527fe5bd93e5898de8bdaee6aca1e697a9e5b7b2e7bb8fe7bb93e69d9f0000000000604482015290519081900360640190fd5b600254600b546000818152600e6020526040902054600160a060020a039092169163deb72f1f91908490614d1f9060649061164a90601463ffffffff614b9a16565b6040518463ffffffff1660e060020a0281526004018084815260200180602001838152602001828103825284818151815260200191508051906020019060200280838360005b83811015614d7d578181015183820152602001614d65565b50505050905001945050505050600060405180830381600087803b158015614da457600080fd5b505af1158015614db8573d6000803e3d6000fd5b5050600254600b546000818152600c60209081526040808320600e90925290912054600160a060020a0390931694506384976e749350909160019091019073__UintUtils_____________________________9063669dafe890614e249060649061164a906005614b9a565b6040518263ffffffff1660e060020a0281526004018082815260200191505060206040518083038186803b158015614e5b57600080fd5b505af4158015614e6f573d6000803e3d6000fd5b505050506040513d6020811015614e8557600080fd5b505160405160e060020a63ffffffff861602815260048101848152604482018390526060602483019081528454606484018190529192909160849091019085908015614efa57602002820191906000526020600020905b8154600160a060020a03168152600190910190602001808311614edc575b5050945050505050600060405180830381600087803b158015614f1c57600080fd5b505af1158015614f30573d6000803e3d6000fd5b5050505050565b600254600b546000818152600e6020526040902054600160a060020a039092169163fd38f45b9190849073__UintUtils_____________________________9063669dafe890614f959060649061164a90600a63ffffffff614b9a16565b6040518263ffffffff1660e060020a0281526004018082815260200191505060206040518083038186803b158015614fcc57600080fd5b505af4158015614fe0573d6000803e3d6000fd5b505050506040513d6020811015614ff657600080fd5b505160405160e060020a63ffffffff86160281526004810184815260448201839052606060248301908152845160648401528451919290916084909101906020868101910280838360005b83811015615059578181015183820152602001615041565b50505050905001945050505050600060405180830381600087803b158015614f1c57600080fd5b600254600b546000818152600c60209081526040808320600781015460089091015482517fc39fa86100000000000000000000000000000000000000000000000000000000815260048101969096526024860191909152604485015251600160a060020a039094169363c39fa86193606480820194918390030190829087803b15801561510c57600080fd5b505af1158015615120573d6000803e3d6000fd5b505050506040513d602081101561513657600080fd5b50511561517b576040805160e560020a62461bcd02815260206004820152601260248201526000805160206155ea833981519152604482015290519081900360640190fd5b600b80546000908152600c6020526040808220600a908101805460ff1916600190811790915584548452828420909101805461ff00191661010017905583540190925560025482517fabdd11a80000000000000000000000000000000000000000000000000000000081524260048201529251600160a060020a039091169263abdd11a892602480830193919282900301818387803b15801561521d57600080fd5b505af1158015615231573d6000803e3d6000fd5b5050600254600b54604080517f0d9907d9000000000000000000000000000000000000000000000000000000008152600481019290925251600160a060020a039092169350630d9907d992506024808201926020929091908290030181600087803b15801561529f57600080fd5b505af11580156152b3573d6000803e3d6000fd5b505050506040513d60208110156152c957600080fd5b5050600254604080517f8d8276be0000000000000000000000000000000000000000000000000000000081529051600160a060020a0390921691638d8276be91600480820192602092909190829003018186803b15801561532957600080fd5b505afa15801561533d573d6000803e3d6000fd5b505050506040513d602081101561535357600080fd5b5051600b546000908152600c6020526040902060020155565b600b80546000908152600c6020818152604080842033808652908352818520805473ffffffffffffffffffffffffffffffffffffffff19908116831790915586548652848452828620828752845282862060069081018054600160a060020a039a909a169990921698909817905594548452918152818320938352929092522001805474ff0000000000000000000000000000000000000000191674010000000000000000000000000000000000000000179055565b600160a060020a038116151561543757600080fd5b60008054604051600160a060020a03808516939216917f8be0079c531659141344cd1fd0a4f28419497f9722a3daafe3b4186f6b6457e091a36000805473ffffffffffffffffffffffffffffffffffffffff1916600160a060020a0392909216919091179055565b60408051610160810182526000808252602082018190529181018290526060808201526080810182905260a0810182905260c0810182905260e08101829052610100810182905261012081018290526101408101919091529056fee8bdace8b4a6e695b0e9878fe4b88de883bde8b685e8bf87e7a4bee58cbae58fafe8bdace8b4a6e680bbe9a29de59fbae98791e4bc9ae694b6e6acbee59cb0e59d80e5b09ae69caae8aebee7bdaee5bd93e5898de8bdaee6aca1e585b1e5bbba546f6b656ee5b7b2e7bb8fe8b6b3e5a49fe4ba86e7acace4b880e8bdaee6aca1e695b0e68daee5b7b2e7bb8fe5889de5a78be58c96e8bf87e4ba86e5bd93e5898de8bdaee6aca1e5b7b2e58b9fe99b86e588b0e8b6b3e5a49fe79a84455448e585b1e5bbbae9a29de5baa6e5b7b2e8b685e8bf87e99990e9a29defbc8ce4b88de883bde7bba7e7bbade8bdace585a5e585b1e68cafe5b7b2e7bb8fe7bb93e69d9f0000000000000000000000000000e794a8e688b7e59ca8e5bd93e5898de8bdaee6aca1e5b7b2e7bb8fe68f90e58f96746f6b656ee5ae8ce68890e5bd93e5898de8bdaee6aca1e59fbae98791e4bc9ae5b7b2e7bb8fe8bdace585a5e8bf87546f6b656ee4ba86e794a8e688b7e59ca8e5bd93e5898de8bdaee6aca1e5b7b2e7bb8fe68f90e58f96455448e5ae8ce68890a165627a7a723058205671a38f0c5b6acd86cb4754fb16c5051f90cabdf337f1d47047e0a9f53ccc710029",
  "source": "pragma solidity >=0.4.21 <0.6.0;\n\nimport \"../node_modules/openzeppelin-solidity/contracts/math/SafeMath.sol\";\nimport \"../node_modules/openzeppelin-solidity/contracts/ownership/Ownable.sol\";\nimport \"./ABCToken.sol\";\nimport \"./UintUtils.sol\";\nimport \"./FissionReward.sol\";\nimport \"./FOMOReward.sol\";\nimport \"./LuckyReward.sol\";\nimport \"./FaithReward.sol\";\nimport \"./ResonanceDataManage.sol\";\n\n// TODO:token()\ncontract Resonance is Ownable{\n\n    using SafeMath for uint256;\n\n    // \n    // \n    event ToBeFissionPerson(address indexed fissionPerson, address indexed promoter);\n\n    event FundsInfo(uint256 currentStepTokenAmount, uint256 currentStepRaisedETH);\n    event BuildingPerioInfo(uint256 bpCountdown, uint256 remainingToken, uint256 personalTokenLimited, uint256 totalTokenAmount);\n    event FundingPeriodInfo(uint256 fpCountdown, uint256 remainingETH, uint256 rasiedETHAmount);\n\n    // \n    event FissionRewardInfo(address[] fissionRewardList, uint256[] fissionRewardAmount);\n    event FOMORewardInfo(address[] FOMORewardList, uint256[] FOMORewards);\n    event LuckyRewardInfo(address[] luckyRewardList, uint256 luckyReward);\n    event FaithRewardInfo(address[] faithRewardList, uint256[] faithRewardAmount);\n    event WithdrawAllETH(address addr, uint256 ETHAmount);\n    event WithdrawAllToken(address from, address to, uint256 tokenAmount);\n    event FunderInfo(uint256[] FunderInfoArray);\n    event StepFunders(\n        address[] funderAddress,\n        uint256[] funderTokenAmount,\n        uint256[] funderETHAmount,\n        uint256[] funderInvitees,\n        uint256[] funderEarnFromAff\n    );\n    event SettlementStep(uint256 stepIndex);\n\n    event StartNextStep(uint256 stepIndex);\n\n    event SetRaiseTarget(uint256 stepIndex, uint256 raiseTarget);\n\n    event GetResonances(address[] resonances);\n\n    event FunderTotalRaised(uint256 resonancesRasiedETH);\n\n    // \n    // ERC20\n    ABCToken public abcToken;\n\n    ResonanceDataManage resonanceDataManage;\n\n    // 60%\n    address payable public beneficiary;\n\n    // \n    struct Funder{\n        address funderAddr; // \n        uint256 tokenAmount; // token\n        uint256 ethAmount; // eth\n        address[] invitees; // \n        uint256 inviteesTotalAmount; // Token\n        uint256 earnFromAff; // \n        address promoter; // \n        bool isBuilder; // /\n        bool isFunder; // \n        bool tokenHasWithdrawn; // Token\n        bool ETHHasWithdrawn; // ETH\n    }\n\n    // \n    struct Building{\n        uint256 openTokenAmount; // Token\n        uint256 personalTokenLimited;// token\n        uint256 raisedToken; // token\n        uint256 raisedTokenAmount; // Token\n    }\n\n    // \n    struct Funding{\n        uint256 raiseTarget; // ETH()\n        uint256 raisedETH; // ETH\n    }\n\n    FissionReward fissionRewardInstance;\n    FOMOReward FOMORewardInstance;\n    LuckyReward luckyRewardInstance;\n    FaithReward faithRewardInstance;\n\n    // \n    struct Step{\n        mapping(address => Funder) funder;// \n        address[] funders; // funders\n        Building building; // \n        Funding funding; // \n        uint256 softCap; // \n        uint256 hardCap; // \n        bool settlementFinished; // \n        bool stepIsClosed; // \n        uint256 blockNumber; // \n    }\n\n    // \n    address[] resonances;\n\n    // \n    mapping(address => uint256) resonancesRasiedETH;\n    mapping(address => uint256) resonancesRasiedToken;\n\n    uint256 public currentStep;\n\n    mapping(uint256 => Step) steps;\n\n    address public initialFissionPerson; // \n\n    mapping(uint256 => uint256) ETHFromParty; // ETH\n\n    uint256 public totalETHFromParty; // \n\n    mapping(uint256 => uint256) tokenFromParty; //token\n\n    mapping(uint256 => bool) public tokenTransfered; // Token\n\n    bool public firstParamInitialized;\n\n    // \n    /// @notice \n    /// @param _abcToken Token\n    constructor(\n        address _resonanceDataManageAddress,\n        ABCToken _abcToken,\n        address _fassionRewardAddress,\n        address _FOMORewardAddress,\n        address _luckyRewardAddress,\n        address _faithRewardAddress\n    )\n        public\n    {\n        resonanceDataManage = ResonanceDataManage(_resonanceDataManageAddress);\n        // \n        fissionRewardInstance = FissionReward(_fassionRewardAddress);\n        FOMORewardInstance = FOMOReward(_FOMORewardAddress);\n        luckyRewardInstance = LuckyReward(_luckyRewardAddress);\n        faithRewardInstance = FaithReward(_faithRewardAddress);\n        currentStep = 0;\n        abcToken = _abcToken; // abc Token\n    }\n\n\n    /// @notice \n    /// @dev ResonanceDataManage\n    function initParamForFirstStep(\n        address _newOwner,\n        address payable _beneficiary,\n        address _initialFissionPerson\n    )\n        public\n        onlyOwner()\n    {\n        require(!firstParamInitialized, \"\");\n        // \n        beneficiary = _beneficiary;\n        // \n        initialFissionPerson = _initialFissionPerson;\n        resonanceDataManage.setOpeningTime(block.timestamp); // \n        steps[currentStep].building.openTokenAmount = UintUtils.toWei(1500000); // Token\n        // fundsPoolinitBuildingTokenAmount\n        resonanceDataManage.setParamForFirstStep();\n        // Token\n        resonanceDataManage.updateBuildingPercent(currentStep);\n        firstParamInitialized = true;\n        // \n        transferOwnership(_newOwner);\n    }\n\n    /// @notice \n    /// @param promoter \n    /// @dev TokenApprove\n    function toBeFissionPerson(\n        address promoter\n    )\n        public\n        returns(address, address)\n    {\n        require(resonanceDataManage.isBuildingPeriod(), \"\");\n        require(!resonanceDataManage.getCrowdsaleClosed(), \"\");\n\n        if(initialFissionPerson != promoter){\n            require(steps[currentStep].funder[promoter].isBuilder,\"Builder\");\n        }\n\n        require(promoter != address(0), \"\");\n\n        // \n        require(abcToken.allowance(msg.sender, address(this)) >= UintUtils.toWei(8),\"\");\n\n        require(abcToken.transferFrom(msg.sender,address(this), UintUtils.toWei(8)),\"token\");\n\n        // 3\n        abcToken.burn(UintUtils.toWei(3));\n\n        // 5\n        abcToken.transfer(address(promoter), UintUtils.toWei(5));\n\n        steps[currentStep].funder[promoter].earnFromAff += UintUtils.toWei(5);\n\n        // \n        _addBuilder(msg.sender);\n\n        steps[currentStep].funder[promoter].invitees.push(msg.sender);\n\n        fissionRewardInstance.addAffman(currentStep, promoter, initialFissionPerson);\n\n        // emit ToBeFissionPerson(msg.sender, promoter);\n        return(msg.sender, promoter);\n    }\n\n    /// @notice \n    /// @dev \n    function setRaiseTarget(\n        uint256 _raiseTarget\n    )\n        public\n        onlyOwner()\n        returns(uint256, uint256)\n    {\n        require(resonanceDataManage.isBuildingPeriod(), \"\");\n        steps[currentStep].funding.raiseTarget = UintUtils.toWei(_raiseTarget);\n        // \n        steps[currentStep].softCap = UintUtils.toWei(steps[currentStep].funding.raiseTarget.mul(60).div(100));\n        steps[currentStep].hardCap = UintUtils.toWei(steps[currentStep].funding.raiseTarget);\n\n        // emit SetRaiseTarget(currentStep, _raiseTarget);\n        return(currentStep, _raiseTarget);\n    }\n\n    /// @notice \n    function getRaiseTarget(uint256 _stepIndex) public view returns(uint256) {\n        return steps[_stepIndex].funding.raiseTarget;\n    }\n\n    // token\n    function jointlyBuild(uint256 _tokenAmount) public {\n        require(resonanceDataManage.isBuildingPeriod(), \"\");\n\n        require(!resonanceDataManage.getCrowdsaleClosed(), \"\");\n\n        // builder\n        require(isBuilder(), \"Builder\");\n\n        // \n        steps[currentStep].building.personalTokenLimited = steps[currentStep].building.openTokenAmount.mul(1).div(100);\n\n        // \n        require(\n            steps[currentStep].building.raisedToken.add(_tokenAmount) <=\n            steps[currentStep].building.openTokenAmount.sub(resonanceDataManage.getBuildingTokenFromParty()),\n            \"\"\n        );\n\n        // \n        require(steps[currentStep].building.raisedToken.add(_tokenAmount) <= steps[currentStep].building.openTokenAmount, \"Token\");\n\n        // \n        require(\n            steps[currentStep].funder[msg.sender].tokenAmount.add(_tokenAmount) <= steps[currentStep].building.personalTokenLimited,\n            \"\"\n        );\n\n        // \n        require(abcToken.allowance(msg.sender, address(this)) >= UintUtils.toWei(_tokenAmount),\"\");\n\n        // \n        require(abcToken.transferFrom(msg.sender,address(this), UintUtils.toWei(_tokenAmount)),\"token\");\n\n        steps[currentStep].funder[msg.sender].tokenAmount += UintUtils.toWei(_tokenAmount);\n\n        // msg.sender\n        steps[currentStep].funder[steps[currentStep].funder[msg.sender].promoter].inviteesTotalAmount += UintUtils.toWei(_tokenAmount);\n\n        // TokenToken\n        steps[currentStep].building.openTokenAmount -= UintUtils.toWei(_tokenAmount);\n\n        // Token\n        resonanceDataManage.setFundsPool(resonanceDataManage.getFundsPool() - UintUtils.toWei(_tokenAmount));\n\n        // \n        resonancesRasiedToken[msg.sender] += UintUtils.toWei(_tokenAmount);\n\n        // token\n        steps[currentStep].building.raisedToken += UintUtils.toWei(_tokenAmount);\n    }\n\n    /// @notice Token\n    function transferToken() public payable onlyOwner() returns(bool){\n        require(!tokenTransfered[currentStep], \"Token\");\n        // \n        require(abcToken.allowance(msg.sender, address(this)) >= resonanceDataManage.getBuildingTokenFromParty(),\n            \"\"\n        );\n\n        // \n        require(abcToken.transferFrom(msg.sender, address(this), resonanceDataManage.getBuildingTokenFromParty()),\n            \"token\"\n        );\n\n        tokenTransfered[currentStep] = true;\n\n        return true;\n    }\n\n    /// @notice \n    function ()\n        external\n        payable\n    {\n        require(resonanceDataManage.isFundingPeriod(), \"\");\n\n        require(!resonanceDataManage.getCrowdsaleClosed(), \"\");\n\n        uint amount = msg.value;\n\n        // ETH\n        require(\n            msg.value.add(steps[currentStep].funding.raisedETH) <= steps[currentStep].funding.raiseTarget,\n            \"ETH\"\n        );\n\n        steps[currentStep].funder[msg.sender].ethAmount = amount;\n        steps[currentStep].funder[msg.sender].isFunder = true;\n        steps[currentStep].funding.raisedETH += amount;\n\n        resonances.push(msg.sender);\n        steps[currentStep].funders.push(msg.sender);\n        resonancesRasiedETH[msg.sender] += amount;\n    }\n\n    /// @notice \n    /// @dev \n    /// @param _fissionWinnerList \n    /// @param _LuckyWinnerList \n    function settlementStep(\n        address[] memory _fissionWinnerList,\n        address[] memory _LuckyWinnerList\n    )\n        public\n        onlyOwner()\n        returns(bool)\n    {\n        require(beneficiary != address(0), \"\");\n        // \n        ETHFromParty[currentStep] = steps[currentStep].funding.raisedETH.mul(resonanceDataManage.getBuildingPercentOfParty()).mul(40).div(100);\n\n        totalETHFromParty += ETHFromParty[currentStep];\n        // FOMO\n        _settlementReward(_fissionWinnerList);\n        // \n        _settlementLuckyReward(_LuckyWinnerList);\n        // \n        resonanceDataManage.setETHBalance(\n            beneficiary,\n            resonanceDataManage.getETHBalance(beneficiary) + UintUtils.toWei(steps[currentStep].funding.raisedETH.mul(60).div(100))\n        );\n        // emit SettlementStep(currentStep);\n\n        if(resonanceDataManage.getCrowdsaleClosed()) {\n            return true;\n        }else{\n            // \n            _startNextStep();\n            return false;\n        }\n    }\n\n    /// @notice \n    /// @param _FaithWinnerList \n    function settlementFaithReward(\n        address[] memory _FaithWinnerList\n    )\n        public\n        onlyOwner()\n        returns(bool)\n    {\n        require(resonanceDataManage.getCrowdsaleClosed(), \"\");\n        return resonanceDataManage.dmSettlementFaithReward(\n            _FaithWinnerList,\n            UintUtils.toWei(totalETHFromParty.mul(5).div(100))\n        );\n    }\n\n    /// @notice FOMO\n    /// @dev ,\n    function _settlementReward(\n        address[] memory _fissionWinnerList\n    )\n        internal\n    {\n        require(!steps[currentStep].settlementFinished, \"\");\n        require(!steps[currentStep].stepIsClosed, \"\");\n\n        resonanceDataManage.settlementFissionReward(\n            currentStep,\n            _fissionWinnerList,\n            ETHFromParty[currentStep].mul(20).div(100)\n        );\n\n        resonanceDataManage.settlementFOMOReward(\n            currentStep,\n            steps[currentStep].funders,\n            UintUtils.toWei(ETHFromParty[currentStep].mul(5).div(100))\n        );\n    }\n\n    /// @notice \n    function _settlementLuckyReward(\n        address[] memory _LuckyWinnerList\n    )\n        internal\n    {\n        resonanceDataManage.settlementLuckyReward(\n            currentStep,\n            _LuckyWinnerList,\n            UintUtils.toWei(ETHFromParty[currentStep].mul(10).div(100))\n        );\n    }\n\n    /// \n    function _startNextStep()\n        internal\n    {\n        // \n        require(!resonanceDataManage.crowdsaleIsClosed(currentStep, steps[currentStep].funding.raisedETH, steps[currentStep].softCap), \"\");\n        // step\n        steps[currentStep].settlementFinished = true;\n        // \n        steps[currentStep].stepIsClosed = true;\n        // \n        currentStep++;\n        // \n        resonanceDataManage.setOpeningTime(block.timestamp);\n        // Token\n        resonanceDataManage.updateBuildingPercent(currentStep);\n\n        steps[currentStep].building.openTokenAmount = resonanceDataManage.getBuildingTokenAmount();\n        // TODO:\n        // emit StartNextStep(currentStep);\n    }\n\n    /// @notice tokentoken\n    function withdrawAllToken()\n        public\n        payable\n        returns(address, address, uint256)\n    {\n        require(!steps[currentStep].funder[msg.sender].tokenHasWithdrawn, \"token\");\n        uint256 withdrawAmount = resonanceDataManage.withdrawTokenAmount(msg.sender);\n        resonanceDataManage.emptyTokenBalance(msg.sender);\n        steps[currentStep].funder[msg.sender].tokenHasWithdrawn = true;\n        abcToken.transferFrom(address(this), msg.sender, withdrawAmount);\n        // emit WithdrawAllToken(address(this), msg.sender, withdrawAmount);\n        return(address(this), msg.sender, withdrawAmount);\n    }\n\n    /// @notice (ETH)\n    function withdrawAllETH()\n        public\n        payable\n        returns(address, uint256)\n    {\n        address payable dest = address(uint160(msg.sender));\n\n        require(!steps[currentStep].funder[msg.sender].ETHHasWithdrawn, \"ETH\");\n        uint256 withdrawAmount = resonanceDataManage.withdrawETHAmount(msg.sender);\n        resonanceDataManage.emptyETHBalance(msg.sender);\n        steps[currentStep].funder[msg.sender].ETHHasWithdrawn = true;\n\n        dest.transfer(withdrawAmount);\n\n        return(msg.sender, withdrawAmount);\n    }\n\n    /// @notice ETH\n    /// @dev ETH\n    function witthdrawAllETHByOwner()\n        public\n        payable\n        onlyOwner()\n    {\n        beneficiary.transfer(address(this).balance);\n    }\n\n    /// @notice \n    /// @dev jointlyBuildtoBeFissionPerson\n    function isBuilder() public view returns(bool) {\n        return steps[currentStep].funder[msg.sender].isBuilder;\n    }\n\n    /// @notice \n    function isFunder() public view returns(bool) {\n        return steps[currentStep].funder[msg.sender].isFunder;\n    }\n\n    /// @notice funder\n    function getInvitees(address _funder) public view returns(address[] memory) {\n        return steps[currentStep].funder[_funder].invitees;\n    }\n\n    /// @notice \n    function getResonances()\n        public\n        view\n        onlyOwner()\n        returns(address[] memory)\n    {\n        // emit GetResonances(resonances);\n        return(resonances);\n    }\n\n    /// @notice ETH\n    function getFunderTotalRaised(address _funder) public view onlyOwner() returns(uint256){\n        // emit FunderTotalRaised(resonancesRasiedETH[_funder]);\n        return resonancesRasiedETH[_funder];\n    }\n\n    /// @notice funders\n    /// @dev funders\n    /// @param _stepIndex \n    function getStepFunders(uint256 _stepIndex)\n        public\n        view\n        onlyOwner()\n        returns\n    (\n        address[] memory,\n        uint256[] memory,\n        uint256[] memory,\n        uint256[] memory,\n        uint256[] memory,\n        uint256[] memory\n    )\n    {\n        address[] memory funderAddress;\n        uint256[] memory funderTokenAmount;\n        uint256[] memory funderETHAmount;\n        uint256[] memory funderInvitees;\n        uint256[] memory earnFromAff;\n        uint256[] memory inviteesTotalAmount;\n\n\n        funderAddress = steps[_stepIndex].funders;\n\n        funderAddress = new address[](funderAddress.length);\n        funderTokenAmount = new uint256[](funderAddress.length);\n        funderETHAmount = new uint256[](funderAddress.length);\n        funderInvitees = new uint256[](funderAddress.length);\n        earnFromAff = new uint256[](funderAddress.length);\n        inviteesTotalAmount = new uint256[](funderAddress.length);\n\n\n        for(uint i = 0 ; i < funderAddress.length; i++){\n            funderTokenAmount[i] = steps[_stepIndex].funder[funderAddress[i]].tokenAmount;\n            funderETHAmount[i] = steps[_stepIndex].funder[funderAddress[i]].ethAmount;\n            funderInvitees[i] = steps[_stepIndex].funder[funderAddress[i]].invitees.length;\n            earnFromAff[i] = steps[currentStep].funder[funderAddress[i]].earnFromAff;\n            inviteesTotalAmount[i] = steps[currentStep].funder[funderAddress[i]].inviteesTotalAmount;\n        }\n\n        // emit StepFunders(funderAddress, funderTokenAmount, funderETHAmount, funderInvitees, earnFromAff);\n        return (funderAddress, funderTokenAmount, funderETHAmount, funderInvitees, earnFromAff, inviteesTotalAmount);\n    }\n\n    /// @notice tokenETH\n    function getCurrentStepFundsInfo()\n        public\n        view\n        returns(uint256, uint256, uint256)\n    {\n        // emit FundsInfo(steps[currentStep].building.openTokenAmount, steps[currentStep].funding.raisedETH);\n        return(currentStep, steps[currentStep].building.openTokenAmount, steps[currentStep].funding.raisedETH);\n    }\n\n    /// @notice \n    function getBuildingPerioInfo()\n        public\n        view\n        returns(uint256, uint256, uint256, uint256)\n    {\n        uint256 _bpCountdown;\n        uint256 _remainingToken;\n        uint256 _personalTokenLimited;\n        uint256 _totalTokenAmount;\n\n        // TODO:\n        _bpCountdown = (resonanceDataManage.getOpeningTime() + 30 minutes) - block.timestamp;\n        _remainingToken = steps[currentStep].building.openTokenAmount.sub(steps[currentStep].building.raisedToken);\n        _personalTokenLimited = steps[currentStep].building.personalTokenLimited;\n        _totalTokenAmount = steps[currentStep].building.raisedTokenAmount;\n        // emit BuildingPerioInfo(_bpCountdown, _remainingToken, _personalTokenLimited, _totalTokenAmount);\n        return(_bpCountdown, _remainingToken, _personalTokenLimited, _totalTokenAmount);\n    }\n\n    // \n    function getFundingPeriodInfo()\n        public\n        view\n        returns(uint256, uint256, uint256)\n    {\n        uint256 _fpCountdown;\n        uint256 _remainingETH;\n        uint256 _rasiedETHAmount;\n\n        // TODO:\n        _fpCountdown = (resonanceDataManage.getOpeningTime() + 1 hours) - block.timestamp;\n        _remainingETH = steps[currentStep].funding.raiseTarget.sub(steps[currentStep].funding.raisedETH);\n        _rasiedETHAmount = steps[currentStep].funding.raisedETH;\n        // emit FundingPeriodInfo(_fpCountdown, _remainingETH, _rasiedETHAmount);\n        return(_fpCountdown, _remainingETH, _rasiedETHAmount);\n    }\n\n    /// @notice \n    function getFunderInfo()\n        public\n        view\n        returns\n    (\n        uint256,\n        uint256,\n        uint256,\n        uint256,\n        uint256,\n        uint256,\n        uint256,\n        uint256,\n        uint256,\n        uint256\n    )\n\n    {\n        Funder memory funder = steps[currentStep].funder[msg.sender];\n\n        uint256[] memory funderInfo = new uint256[](10);\n\n        funderInfo[0] = resonanceDataManage.getTokenBalance(msg.sender);\n        funderInfo[1] = resonanceDataManage.getETHBalance(msg.sender);\n        funderInfo[2] = funder.invitees.length;\n        funderInfo[3] = funder.earnFromAff;\n        funderInfo[4] = funder.tokenAmount;\n        funderInfo[5] = funder.ethAmount;\n        funderInfo[6] = luckyRewardInstance.luckyFunderTotalBalance(msg.sender);\n        funderInfo[7] = fissionRewardInstance.fissionFunderTotalBalance(msg.sender);\n        funderInfo[8] = FOMORewardInstance.FOMOFunderTotalBalance(msg.sender);\n        funderInfo[9] = faithRewardInstance.faithRewardAmount(msg.sender);\n\n        return(\n            funderInfo[0],\n            funderInfo[1],\n            funderInfo[2],\n            funderInfo[3],\n            funderInfo[4],\n            funderInfo[5],\n            funderInfo[6],\n            funderInfo[7],\n            funderInfo[8],\n            funderInfo[9]\n        );\n    }\n\n    /// @notice \n    /// @param _promoter msg.sender\n    function _addBuilder(address _promoter) internal {\n        // \n        steps[currentStep].funder[msg.sender].funderAddr = msg.sender;\n        steps[currentStep].funder[msg.sender].promoter = _promoter;\n        steps[currentStep].funder[msg.sender].isBuilder = true;\n    }\n\n    /// @notice hash\n    function getBlockHash() public view returns(bytes32 blockHash) {\n        return blockhash(steps[currentStep].blockNumber.add(1));\n    }\n\n    /// @notice \n    function currentStepIsClosed(uint256 _stepIndex) public view returns(bool) {\n        return steps[_stepIndex].stepIsClosed;\n    }\n\n    bool refundIsFinished;\n\n    /// @notice \n    /// @dev tokenETH\n    function refund() public onlyOwner() returns(bool){\n\n        // \n        require(!refundIsFinished, \"\");\n\n        // \n        uint256 resonanceClosedStep = resonanceDataManage.getResonanceClosedStep();\n        address[] memory funders = steps[resonanceClosedStep].funders;\n\n        // ETHToken\n        for(uint i = 0; i < funders.length; i++){\n            resonanceDataManage.setETHBalance(\n                funders[i],\n                resonanceDataManage.getETHBalance(funders[i]) + steps[resonanceClosedStep].funder[funders[i]].ethAmount\n            );\n\n            resonanceDataManage.setTokenBalance(\n                funders[i],\n                resonanceDataManage.getTokenBalance(funders[i]) + steps[resonanceClosedStep].funder[funders[i]].tokenAmount\n            );\n        }\n\n        refundIsFinished = true;\n\n        return refundIsFinished;\n    }\n\n}",
  "sourcePath": "/Users/a186r/dev/contracts/contract/contract/contracts/Resonance.sol",
  "compiler": {
    "name": "solc",
    "version": "0.5.2+commit.1df8f40c.Emscripten.clang"
  },
  "schemaVersion": "3.0.9",
  "updatedAt": "2019-05-30T15:38:59.746Z",
  "devdoc": {
    "methods": {
      "constructor": {
        "params": {
          "_abcToken": "Token"
        }
      },
      "getStepFunders(uint256)": {
        "details": "funders",
        "params": {
          "_stepIndex": ""
        }
      },
      "initParamForFirstStep(address,address,address)": {
        "details": "ResonanceDataManage"
      },
      "isBuilder()": {
        "details": "jointlyBuildtoBeFissionPerson"
      },
      "isOwner()": {
        "return": "true if `msg.sender` is the owner of the contract."
      },
      "owner()": {
        "return": "the address of the owner."
      },
      "refund()": {
        "details": "tokenETH"
      },
      "renounceOwnership()": {
        "details": "Allows the current owner to relinquish control of the contract. It will not be possible to call the functions with the `onlyOwner` modifier anymore."
      },
      "setRaiseTarget(uint256)": {
        "details": ""
      },
      "settlementFaithReward(address[])": {
        "params": {
          "_FaithWinnerList": ""
        }
      },
      "settlementStep(address[],address[])": {
        "details": "",
        "params": {
          "_LuckyWinnerList": "",
          "_fissionWinnerList": ""
        }
      },
      "toBeFissionPerson(address)": {
        "details": "TokenApprove",
        "params": {
          "promoter": ""
        }
      },
      "transferOwnership(address)": {
        "details": "Allows the current owner to transfer control of the contract to a newOwner.",
        "params": {
          "newOwner": "The address to transfer ownership to."
        }
      },
      "witthdrawAllETHByOwner()": {
        "details": "ETH"
      }
    }
  },
  "userdoc": {
    "methods": {
      "constructor": "",
      "currentStepIsClosed(uint256)": {
        "notice": ""
      },
      "getBlockHash()": {
        "notice": "hash"
      },
      "getBuildingPerioInfo()": {
        "notice": ""
      },
      "getCurrentStepFundsInfo()": {
        "notice": "tokenETH"
      },
      "getFunderInfo()": {
        "notice": ""
      },
      "getFunderTotalRaised(address)": {
        "notice": "ETH"
      },
      "getRaiseTarget(uint256)": {
        "notice": ""
      },
      "getResonances()": {
        "notice": ""
      },
      "getStepFunders(uint256)": {
        "notice": "funders"
      },
      "initParamForFirstStep(address,address,address)": {
        "notice": ""
      },
      "isBuilder()": {
        "notice": ""
      },
      "isFunder()": {
        "notice": ""
      },
      "refund()": {
        "notice": ""
      },
      "renounceOwnership()": {
        "notice": "Renouncing ownership will leave the contract without an owner, thereby removing any functionality that is only available to the owner."
      },
      "setRaiseTarget(uint256)": {
        "notice": ""
      },
      "settlementFaithReward(address[])": {
        "notice": ""
      },
      "settlementStep(address[],address[])": {
        "notice": ""
      },
      "toBeFissionPerson(address)": {
        "notice": ""
      },
      "transferToken()": {
        "notice": "Token"
      },
      "withdrawAllETH()": {
        "notice": "(ETH)"
      },
      "withdrawAllToken()": {
        "notice": "tokentoken"
      },
      "witthdrawAllETHByOwner()": {
        "notice": "ETH"
      },
      "getInvitees(address)": {
        "notice": "funder"
      }
    }
  }
}