{
  "contractName": "Resonance",
  "abi": [
    {
      "constant": true,
      "inputs": [],
      "name": "beneficiary",
      "outputs": [
        {
          "name": "",
          "type": "address"
        }
      ],
      "payable": false,
      "stateMutability": "view",
      "type": "function"
    },
    {
      "constant": true,
      "inputs": [],
      "name": "currentStep",
      "outputs": [
        {
          "name": "",
          "type": "uint256"
        }
      ],
      "payable": false,
      "stateMutability": "view",
      "type": "function"
    },
    {
      "constant": false,
      "inputs": [],
      "name": "renounceOwnership",
      "outputs": [],
      "payable": false,
      "stateMutability": "nonpayable",
      "type": "function"
    },
    {
      "constant": true,
      "inputs": [],
      "name": "owner",
      "outputs": [
        {
          "name": "",
          "type": "address"
        }
      ],
      "payable": false,
      "stateMutability": "view",
      "type": "function"
    },
    {
      "constant": true,
      "inputs": [],
      "name": "isOwner",
      "outputs": [
        {
          "name": "",
          "type": "bool"
        }
      ],
      "payable": false,
      "stateMutability": "view",
      "type": "function"
    },
    {
      "constant": true,
      "inputs": [],
      "name": "initialFissionPerson",
      "outputs": [
        {
          "name": "",
          "type": "address"
        }
      ],
      "payable": false,
      "stateMutability": "view",
      "type": "function"
    },
    {
      "constant": true,
      "inputs": [],
      "name": "firstParamInitialized",
      "outputs": [
        {
          "name": "",
          "type": "bool"
        }
      ],
      "payable": false,
      "stateMutability": "view",
      "type": "function"
    },
    {
      "constant": true,
      "inputs": [
        {
          "name": "",
          "type": "uint256"
        }
      ],
      "name": "tokenTransfered",
      "outputs": [
        {
          "name": "",
          "type": "bool"
        }
      ],
      "payable": false,
      "stateMutability": "view",
      "type": "function"
    },
    {
      "constant": true,
      "inputs": [],
      "name": "abcToken",
      "outputs": [
        {
          "name": "",
          "type": "address"
        }
      ],
      "payable": false,
      "stateMutability": "view",
      "type": "function"
    },
    {
      "constant": false,
      "inputs": [
        {
          "name": "newOwner",
          "type": "address"
        }
      ],
      "name": "transferOwnership",
      "outputs": [],
      "payable": false,
      "stateMutability": "nonpayable",
      "type": "function"
    },
    {
      "inputs": [
        {
          "name": "_resonanceDataManageAddress",
          "type": "address"
        },
        {
          "name": "_abcToken",
          "type": "address"
        },
        {
          "name": "_fassionRewardAddress",
          "type": "address"
        },
        {
          "name": "_FOMORewardAddress",
          "type": "address"
        },
        {
          "name": "_luckyRewardAddress",
          "type": "address"
        },
        {
          "name": "_faithRewardAddress",
          "type": "address"
        }
      ],
      "payable": false,
      "stateMutability": "nonpayable",
      "type": "constructor"
    },
    {
      "payable": true,
      "stateMutability": "payable",
      "type": "fallback"
    },
    {
      "anonymous": false,
      "inputs": [
        {
          "indexed": true,
          "name": "fissionPerson",
          "type": "address"
        },
        {
          "indexed": true,
          "name": "promoter",
          "type": "address"
        }
      ],
      "name": "ToBeFissionPerson",
      "type": "event"
    },
    {
      "anonymous": false,
      "inputs": [
        {
          "indexed": false,
          "name": "currentStepTokenAmount",
          "type": "uint256"
        },
        {
          "indexed": false,
          "name": "currentStepRaisedETH",
          "type": "uint256"
        }
      ],
      "name": "FundsInfo",
      "type": "event"
    },
    {
      "anonymous": false,
      "inputs": [
        {
          "indexed": false,
          "name": "bpCountdown",
          "type": "uint256"
        },
        {
          "indexed": false,
          "name": "remainingToken",
          "type": "uint256"
        },
        {
          "indexed": false,
          "name": "personalTokenLimited",
          "type": "uint256"
        },
        {
          "indexed": false,
          "name": "totalTokenAmount",
          "type": "uint256"
        }
      ],
      "name": "BuildingPerioInfo",
      "type": "event"
    },
    {
      "anonymous": false,
      "inputs": [
        {
          "indexed": false,
          "name": "fpCountdown",
          "type": "uint256"
        },
        {
          "indexed": false,
          "name": "remainingETH",
          "type": "uint256"
        },
        {
          "indexed": false,
          "name": "rasiedETHAmount",
          "type": "uint256"
        }
      ],
      "name": "FundingPeriodInfo",
      "type": "event"
    },
    {
      "anonymous": false,
      "inputs": [
        {
          "indexed": false,
          "name": "fissionRewardList",
          "type": "address[]"
        },
        {
          "indexed": false,
          "name": "fissionRewardAmount",
          "type": "uint256[]"
        }
      ],
      "name": "FissionRewardInfo",
      "type": "event"
    },
    {
      "anonymous": false,
      "inputs": [
        {
          "indexed": false,
          "name": "FOMORewardList",
          "type": "address[]"
        },
        {
          "indexed": false,
          "name": "FOMORewards",
          "type": "uint256[]"
        }
      ],
      "name": "FOMORewardInfo",
      "type": "event"
    },
    {
      "anonymous": false,
      "inputs": [
        {
          "indexed": false,
          "name": "luckyRewardList",
          "type": "address[]"
        },
        {
          "indexed": false,
          "name": "luckyReward",
          "type": "uint256"
        }
      ],
      "name": "LuckyRewardInfo",
      "type": "event"
    },
    {
      "anonymous": false,
      "inputs": [
        {
          "indexed": false,
          "name": "faithRewardList",
          "type": "address[]"
        },
        {
          "indexed": false,
          "name": "faithRewardAmount",
          "type": "uint256[]"
        }
      ],
      "name": "FaithRewardInfo",
      "type": "event"
    },
    {
      "anonymous": false,
      "inputs": [
        {
          "indexed": false,
          "name": "addr",
          "type": "address"
        },
        {
          "indexed": false,
          "name": "ETHAmount",
          "type": "uint256"
        }
      ],
      "name": "WithdrawAllETH",
      "type": "event"
    },
    {
      "anonymous": false,
      "inputs": [
        {
          "indexed": false,
          "name": "from",
          "type": "address"
        },
        {
          "indexed": false,
          "name": "to",
          "type": "address"
        },
        {
          "indexed": false,
          "name": "tokenAmount",
          "type": "uint256"
        }
      ],
      "name": "WithdrawAllToken",
      "type": "event"
    },
    {
      "anonymous": false,
      "inputs": [
        {
          "indexed": false,
          "name": "FunderInfoArray",
          "type": "uint256[]"
        }
      ],
      "name": "FunderInfo",
      "type": "event"
    },
    {
      "anonymous": false,
      "inputs": [
        {
          "indexed": false,
          "name": "funderAddress",
          "type": "address[]"
        },
        {
          "indexed": false,
          "name": "funderTokenAmount",
          "type": "uint256[]"
        },
        {
          "indexed": false,
          "name": "funderETHAmount",
          "type": "uint256[]"
        },
        {
          "indexed": false,
          "name": "funderInvitees",
          "type": "uint256[]"
        },
        {
          "indexed": false,
          "name": "funderEarnFromAff",
          "type": "uint256[]"
        }
      ],
      "name": "StepFunders",
      "type": "event"
    },
    {
      "anonymous": false,
      "inputs": [
        {
          "indexed": false,
          "name": "stepIndex",
          "type": "uint256"
        }
      ],
      "name": "SettlementStep",
      "type": "event"
    },
    {
      "anonymous": false,
      "inputs": [
        {
          "indexed": false,
          "name": "stepIndex",
          "type": "uint256"
        }
      ],
      "name": "StartNextStep",
      "type": "event"
    },
    {
      "anonymous": false,
      "inputs": [
        {
          "indexed": false,
          "name": "stepIndex",
          "type": "uint256"
        },
        {
          "indexed": false,
          "name": "raiseTarget",
          "type": "uint256"
        }
      ],
      "name": "SetRaiseTarget",
      "type": "event"
    },
    {
      "anonymous": false,
      "inputs": [
        {
          "indexed": false,
          "name": "resonances",
          "type": "address[]"
        }
      ],
      "name": "GetResonances",
      "type": "event"
    },
    {
      "anonymous": false,
      "inputs": [
        {
          "indexed": false,
          "name": "resonancesRasiedETH",
          "type": "uint256"
        }
      ],
      "name": "FunderTotalRaised",
      "type": "event"
    },
    {
      "anonymous": false,
      "inputs": [
        {
          "indexed": true,
          "name": "previousOwner",
          "type": "address"
        },
        {
          "indexed": true,
          "name": "newOwner",
          "type": "address"
        }
      ],
      "name": "OwnershipTransferred",
      "type": "event"
    },
    {
      "constant": false,
      "inputs": [
        {
          "name": "_newOwner",
          "type": "address"
        },
        {
          "name": "_beneficiary",
          "type": "address"
        },
        {
          "name": "_initialFissionPerson",
          "type": "address"
        }
      ],
      "name": "initParamForFirstStep",
      "outputs": [],
      "payable": false,
      "stateMutability": "nonpayable",
      "type": "function"
    },
    {
      "constant": false,
      "inputs": [
        {
          "name": "promoter",
          "type": "address"
        }
      ],
      "name": "toBeFissionPerson",
      "outputs": [
        {
          "name": "",
          "type": "address"
        },
        {
          "name": "",
          "type": "address"
        }
      ],
      "payable": false,
      "stateMutability": "nonpayable",
      "type": "function"
    },
    {
      "constant": false,
      "inputs": [
        {
          "name": "_raiseTarget",
          "type": "uint256"
        }
      ],
      "name": "setRaiseTarget",
      "outputs": [
        {
          "name": "",
          "type": "uint256"
        },
        {
          "name": "",
          "type": "uint256"
        }
      ],
      "payable": false,
      "stateMutability": "nonpayable",
      "type": "function"
    },
    {
      "constant": true,
      "inputs": [
        {
          "name": "_stepIndex",
          "type": "uint256"
        }
      ],
      "name": "getRaiseTarget",
      "outputs": [
        {
          "name": "",
          "type": "uint256"
        }
      ],
      "payable": false,
      "stateMutability": "view",
      "type": "function"
    },
    {
      "constant": false,
      "inputs": [
        {
          "name": "_tokenAmount",
          "type": "uint256"
        }
      ],
      "name": "jointlyBuild",
      "outputs": [],
      "payable": false,
      "stateMutability": "nonpayable",
      "type": "function"
    },
    {
      "constant": false,
      "inputs": [],
      "name": "transferToken",
      "outputs": [
        {
          "name": "",
          "type": "bool"
        }
      ],
      "payable": true,
      "stateMutability": "payable",
      "type": "function"
    },
    {
      "constant": false,
      "inputs": [
        {
          "name": "_fissionWinnerList",
          "type": "address[]"
        },
        {
          "name": "_LuckyWinnerList",
          "type": "address[]"
        }
      ],
      "name": "settlementStep",
      "outputs": [
        {
          "name": "",
          "type": "bool"
        }
      ],
      "payable": false,
      "stateMutability": "nonpayable",
      "type": "function"
    },
    {
      "constant": false,
      "inputs": [
        {
          "name": "_FaithWinnerList",
          "type": "address[]"
        }
      ],
      "name": "settlementFaithReward",
      "outputs": [
        {
          "name": "",
          "type": "bool"
        }
      ],
      "payable": false,
      "stateMutability": "nonpayable",
      "type": "function"
    },
    {
      "constant": false,
      "inputs": [],
      "name": "withdrawAllToken",
      "outputs": [
        {
          "name": "",
          "type": "address"
        },
        {
          "name": "",
          "type": "address"
        },
        {
          "name": "",
          "type": "uint256"
        }
      ],
      "payable": true,
      "stateMutability": "payable",
      "type": "function"
    },
    {
      "constant": false,
      "inputs": [],
      "name": "withdrawAllETH",
      "outputs": [
        {
          "name": "",
          "type": "address"
        },
        {
          "name": "",
          "type": "uint256"
        }
      ],
      "payable": true,
      "stateMutability": "payable",
      "type": "function"
    },
    {
      "constant": true,
      "inputs": [],
      "name": "isBuilder",
      "outputs": [
        {
          "name": "",
          "type": "bool"
        }
      ],
      "payable": false,
      "stateMutability": "view",
      "type": "function"
    },
    {
      "constant": true,
      "inputs": [],
      "name": "isFunder",
      "outputs": [
        {
          "name": "",
          "type": "bool"
        }
      ],
      "payable": false,
      "stateMutability": "view",
      "type": "function"
    },
    {
      "constant": true,
      "inputs": [],
      "name": "getResonances",
      "outputs": [
        {
          "name": "",
          "type": "address[]"
        }
      ],
      "payable": false,
      "stateMutability": "view",
      "type": "function"
    },
    {
      "constant": true,
      "inputs": [
        {
          "name": "_funder",
          "type": "address"
        }
      ],
      "name": "getFunderTotalRaised",
      "outputs": [
        {
          "name": "",
          "type": "uint256"
        }
      ],
      "payable": false,
      "stateMutability": "view",
      "type": "function"
    },
    {
      "constant": true,
      "inputs": [
        {
          "name": "_stepIndex",
          "type": "uint256"
        }
      ],
      "name": "getStepFunders",
      "outputs": [
        {
          "name": "",
          "type": "address[]"
        },
        {
          "name": "",
          "type": "uint256[]"
        },
        {
          "name": "",
          "type": "uint256[]"
        },
        {
          "name": "",
          "type": "uint256[]"
        },
        {
          "name": "",
          "type": "uint256[]"
        }
      ],
      "payable": false,
      "stateMutability": "view",
      "type": "function"
    },
    {
      "constant": true,
      "inputs": [],
      "name": "getCurrentStepFundsInfo",
      "outputs": [
        {
          "name": "",
          "type": "uint256"
        },
        {
          "name": "",
          "type": "uint256"
        },
        {
          "name": "",
          "type": "uint256"
        }
      ],
      "payable": false,
      "stateMutability": "view",
      "type": "function"
    },
    {
      "constant": true,
      "inputs": [],
      "name": "getBuildingPerioInfo",
      "outputs": [
        {
          "name": "",
          "type": "uint256"
        },
        {
          "name": "",
          "type": "uint256"
        },
        {
          "name": "",
          "type": "uint256"
        },
        {
          "name": "",
          "type": "uint256"
        }
      ],
      "payable": false,
      "stateMutability": "view",
      "type": "function"
    },
    {
      "constant": true,
      "inputs": [],
      "name": "getFundingPeriodInfo",
      "outputs": [
        {
          "name": "",
          "type": "uint256"
        },
        {
          "name": "",
          "type": "uint256"
        },
        {
          "name": "",
          "type": "uint256"
        }
      ],
      "payable": false,
      "stateMutability": "view",
      "type": "function"
    },
    {
      "constant": true,
      "inputs": [],
      "name": "getFunderInfo",
      "outputs": [
        {
          "name": "",
          "type": "uint256"
        },
        {
          "name": "",
          "type": "uint256"
        },
        {
          "name": "",
          "type": "uint256"
        },
        {
          "name": "",
          "type": "uint256"
        },
        {
          "name": "",
          "type": "uint256"
        },
        {
          "name": "",
          "type": "uint256"
        },
        {
          "name": "",
          "type": "uint256"
        },
        {
          "name": "",
          "type": "uint256"
        },
        {
          "name": "",
          "type": "uint256"
        },
        {
          "name": "",
          "type": "uint256"
        }
      ],
      "payable": false,
      "stateMutability": "view",
      "type": "function"
    },
    {
      "constant": true,
      "inputs": [],
      "name": "getBlockHash",
      "outputs": [
        {
          "name": "blockHash",
          "type": "bytes32"
        }
      ],
      "payable": false,
      "stateMutability": "view",
      "type": "function"
    },
    {
      "constant": true,
      "inputs": [
        {
          "name": "_stepIndex",
          "type": "uint256"
        }
      ],
      "name": "currentStepIsClosed",
      "outputs": [
        {
          "name": "",
          "type": "bool"
        }
      ],
      "payable": false,
      "stateMutability": "view",
      "type": "function"
    },
    {
      "constant": false,
      "inputs": [],
      "name": "refund",
      "outputs": [
        {
          "name": "",
          "type": "bool"
        }
      ],
      "payable": false,
      "stateMutability": "nonpayable",
      "type": "function"
    }
  ],
  "bytecode": "0x608060405234801561001057600080fd5b5060405160c080620052d0833981018060405260c081101561003157600080fd5b50805160208201516040808401516060850151608086015160a09096015160008054600160a060020a03191633178082559451969795969395929492939192600160a060020a0316917f8be0079c531659141344cd1fd0a4f28419497f9722a3daafe3b4186f6b6457e0908290a360028054600160a060020a03978816600160a060020a0319918216179091556004805495881695821695909517909455600580549387169385169390931790925560068054918616918416919091179055600780549185169183169190911790556000600b55600180549290931691161790556151ae80620001226000396000f3fe6080604052600436106101e75760003560e060020a9004806390fa85f811610106578063d50cf02d11610099578063e15ce92711610068578063e15ce92714610c22578063e757412814610c55578063f2fde38b14610c6a578063feaec77514610c9d576101e7565b8063d50cf02d14610b30578063db27cf6114610b75578063de3844ff14610b9f578063de45dbd514610bf8576101e7565b8063b4862a71116100d5578063b4862a71146109a8578063b5ac72b5146109d2578063c12cd1bc14610b06578063c2cb21ba14610b1b576101e7565b806390fa85f8146108e6578063912c84ec146108fb5780639663f88f1461092e578063a637182914610943576101e7565b80635deac38b1161017e578063891d7e791161014d578063891d7e791461082c5780638da5cb5b146108915780638f32d59b146108a657806390386bbf146108bb576101e7565b80635deac38b1461072257806364ab07fa146107d2578063715018a61461080d578063799a535914610824576101e7565b806354b94615116101ba57806354b946151461069357806356d1121a146106bc578063590e1ae3146106e65780635bc34f71146106fb576101e7565b806314870d2c1461045b57806316b297461461048d57806338af3eed1461061f5780634559ff9b14610650575b600260009054906101000a9004600160a060020a0316600160a060020a03166374ebae066040518163ffffffff1660e060020a02815260040160206040518083038186803b15801561023857600080fd5b505afa15801561024c573d6000803e3d6000fd5b505050506040513d602081101561026257600080fd5b505115156102ba576040805160e560020a62461bcd02815260206004820152601260248201527fe4b88de59ca8e58b9fe8b584e69c9fe586850000000000000000000000000000604482015290519081900360640190fd5b600260009054906101000a9004600160a060020a0316600160a060020a031663743acbab6040518163ffffffff1660e060020a02815260040160206040518083038186803b15801561030b57600080fd5b505afa15801561031f573d6000803e3d6000fd5b505050506040513d602081101561033557600080fd5b50511561037a576040805160e560020a62461bcd02815260206004820152601260248201526000805160206150c1833981519152604482015290519081900360640190fd5b600b80546000908152600c6020818152604080842033808652908352818520346002909101819055865486528484528286208287528452828620600501805475ff000000000000000000000000000000000000000000191675010000000000000000000000000000000000000000001790559554855292825280842060070180548601905560088054600181019091557ff3f7a9fe364faab93b216da50a3214154f22a0a2b415b23a84c8169e8b636ee301805473ffffffffffffffffffffffffffffffffffffffff19168417905591835260099052902080549091019055005b610463610cb2565b60408051600160a060020a0394851681529290931660208301528183015290519081900360600190f35b34801561049957600080fd5b506104b7600480360360208110156104b057600080fd5b5035610f3c565b60405180806020018060200180602001806020018060200186810386528b818151815260200191508051906020019060200280838360005b838110156105075781810151838201526020016104ef565b5050505090500186810385528a818151815260200191508051906020019060200280838360005b8381101561054657818101518382015260200161052e565b50505050905001868103845289818151815260200191508051906020019060200280838360005b8381101561058557818101518382015260200161056d565b50505050905001868103835288818151815260200191508051906020019060200280838360005b838110156105c45781810151838201526020016105ac565b50505050905001868103825287818151815260200191508051906020019060200280838360005b838110156106035781810151838201526020016105eb565b505050509050019a505050505050505050505060405180910390f35b34801561062b57600080fd5b50610634611194565b60408051600160a060020a039092168252519081900360200190f35b34801561065c57600080fd5b5061067a6004803603602081101561067357600080fd5b50356111a3565b6040805192835260208301919091528051918290030190f35b34801561069f57600080fd5b506106a8611482565b604080519115158252519081900360200190f35b3480156106c857600080fd5b506106a8600480360360208110156106df57600080fd5b50356114c0565b3480156106f257600080fd5b506106a86114dd565b34801561070757600080fd5b50610710611992565b60408051918252519081900360200190f35b34801561072e57600080fd5b506106a86004803603602081101561074557600080fd5b81019060208101813564010000000081111561076057600080fd5b82018360208201111561077257600080fd5b8035906020019184602083028401116401000000008311171561079457600080fd5b919080806020026020016040519081016040528093929190818152602001838360200280828437600092019190915250929550611998945050505050565b3480156107de57600080fd5b506107e7611bde565b604080519485526020850193909352838301919091526060830152519081900360800190f35b34801561081957600080fd5b50610822611d8d565b005b6106a8611df7565b34801561083857600080fd5b50610841612254565b60408051602080825283518183015283519192839290830191858101910280838360005b8381101561087d578181015183820152602001610865565b505050509050019250505060405180910390f35b34801561089d57600080fd5b506106346122c9565b3480156108b257600080fd5b506106a86122d8565b6108c36122e9565b60408051600160a060020a03909316835260208301919091528051918290030190f35b3480156108f257600080fd5b506106346124fe565b34801561090757600080fd5b5061091061250d565b60408051938452602084019290925282820152519081900360600190f35b34801561093a57600080fd5b5061071061254a565b34801561094f57600080fd5b50610958612577565b604080519a8b5260208b0199909952898901979097526060890195909552608088019390935260a087019190915260c086015260e085015261010084015261012083015251908190036101400190f35b3480156109b457600080fd5b50610822600480360360208110156109cb57600080fd5b5035612c6f565b3480156109de57600080fd5b506106a8600480360360408110156109f557600080fd5b810190602081018135640100000000811115610a1057600080fd5b820183602082011115610a2257600080fd5b80359060200191846020830284011164010000000083111715610a4457600080fd5b9190808060200260200160405190810160405280939291908181526020018383602002808284376000920191909152509295949360208101935035915050640100000000811115610a9457600080fd5b820183602082011115610aa657600080fd5b80359060200191846020830284011164010000000083111715610ac857600080fd5b91908080602002602001604051908101604052809392919081815260200183836020028082843760009201919091525092955061351f945050505050565b348015610b1257600080fd5b506109106138c9565b348015610b2757600080fd5b506106a8613a7d565b348015610b3c57600080fd5b5061082260048036036060811015610b5357600080fd5b50600160a060020a038135811691602081013582169160409091013516613a86565b348015610b8157600080fd5b5061071060048036036020811015610b9857600080fd5b5035613cb6565b348015610bab57600080fd5b50610bd260048036036020811015610bc257600080fd5b5035600160a060020a0316613ccb565b60408051600160a060020a03938416815291909216602082015281519081900390910190f35b348015610c0457600080fd5b506106a860048036036020811015610c1b57600080fd5b50356145d8565b348015610c2e57600080fd5b5061071060048036036020811015610c4557600080fd5b5035600160a060020a03166145ed565b348015610c6157600080fd5b5061063461461e565b348015610c7657600080fd5b5061082260048036036020811015610c8d57600080fd5b5035600160a060020a031661462d565b348015610ca957600080fd5b506106a861464c565b600b546000908152600c6020908152604080832033845290915281206005015481908190760100000000000000000000000000000000000000000000900460ff1615610d325760405160e560020a62461bcd02815260040180806020018281038252602c8152602001806150e1602c913960400191505060405180910390fd5b600254604080517f9d7e0c860000000000000000000000000000000000000000000000000000000081523360048201529051600092600160a060020a031691639d7e0c86916024808301926020929190829003018186803b158015610d9657600080fd5b505afa158015610daa573d6000803e3d6000fd5b505050506040513d6020811015610dc057600080fd5b5051600254604080517f0c5d0c560000000000000000000000000000000000000000000000000000000081529051929350600160a060020a0390911691630c5d0c569160048082019260009290919082900301818387803b158015610e2457600080fd5b505af1158015610e38573d6000803e3d6000fd5b5050600b546000908152600c6020908152604080832033808552908352818420600501805476ff00000000000000000000000000000000000000000000191676010000000000000000000000000000000000000000000017905560015482517f23b872dd0000000000000000000000000000000000000000000000000000000081523060048201526024810192909252604482018890529151600160a060020a039290921695506323b872dd9450606480820194918390030190829087803b158015610f0357600080fd5b505af1158015610f17573d6000803e3d6000fd5b505050506040513d6020811015610f2d57600080fd5b50309533955091935090915050565b6060806060806060610f4c6122d8565b1515610f5757600080fd5b6060806060806060600c60008c8152602001908152602001600020600101805480602002602001604051908101604052809291908181526020018280548015610fc957602002820191906000526020600020905b8154600160a060020a03168152600190910190602001808311610fab575b50939850600093505050505b85518110156111815760008c8152600c602052604081208751909190889084908110610ffd57fe5b90602001906020020151600160a060020a0316600160a060020a0316815260200190815260200160002060010154858281518110151561103957fe5b602090810290910181019190915260008d8152600c90915260408120875190919088908490811061106657fe5b90602001906020020151600160a060020a0316600160a060020a031681526020019081526020016000206002015484828151811015156110a257fe5b602090810290910181019190915260008d8152600c9091526040812087519091908890849081106110cf57fe5b6020908102909101810151600160a060020a0316825281019190915260400160002060030154835184908390811061110357fe5b6020908102909101810191909152600b546000908152600c90915260408120875190919088908490811061113357fe5b90602001906020020151600160a060020a0316600160a060020a0316815260200190815260200160002060040154828281518110151561116f57fe5b60209081029091010152600101610fd5565b50939a9299509097509550909350915050565b600354600160a060020a031681565b6000806111ae6122d8565b15156111b957600080fd5b600260009054906101000a9004600160a060020a0316600160a060020a03166325d8e97f6040518163ffffffff1660e060020a02815260040160206040518083038186803b15801561120a57600080fd5b505afa15801561121e573d6000803e3d6000fd5b505050506040513d602081101561123457600080fd5b5051151561127a576040805160e560020a62461bcd028152602060048201526012602482015260008051602061510d833981519152604482015290519081900360640190fd5b73__UintUtils_____________________________63669dafe8846040518263ffffffff1660e060020a0281526004018082815260200191505060206040518083038186803b1580156112cc57600080fd5b505af41580156112e0573d6000803e3d6000fd5b505050506040513d60208110156112f657600080fd5b5051600b80546000908152600c60205260408082206006908101949094559154815220015473__UintUtils_____________________________9063669dafe89061135b9060649061134f90603c63ffffffff61468b16565b9063ffffffff6146bd16565b6040518263ffffffff1660e060020a0281526004018082815260200191505060206040518083038186803b15801561139257600080fd5b505af41580156113a6573d6000803e3d6000fd5b505050506040513d60208110156113bc57600080fd5b5051600b80546000908152600c60209081526040808320600801949094559154815282902060060154825160e360020a630cd3b5fd0281526004810191909152915173__UintUtils_____________________________9263669dafe8926024808301939192829003018186803b15801561143657600080fd5b505af415801561144a573d6000803e3d6000fd5b505050506040513d602081101561146057600080fd5b5051600b80546000908152600c60205260409020600901919091555493915050565b600b546000908152600c6020908152604080832033845290915290206005015474010000000000000000000000000000000000000000900460ff1690565b6000908152600c60205260409020600a0154610100900460ff1690565b60006114e76122d8565b15156114f257600080fd5b601254610100900460ff1615611552576040805160e560020a62461bcd02815260206004820152601560248201527fe98080e6acbee5b7b2e7bb8fe5ae8ce68890e4ba860000000000000000000000604482015290519081900360640190fd5b600254604080517f50b9d89d0000000000000000000000000000000000000000000000000000000081529051600092600160a060020a0316916350b9d89d916004808301926020929190829003018186803b1580156115b057600080fd5b505afa1580156115c4573d6000803e3d6000fd5b505050506040513d60208110156115da57600080fd5b50516000818152600c60209081526040918290206001018054835181840281018401909452808452939450606093909183018282801561164357602002820191906000526020600020905b8154600160a060020a03168152600190910190602001808311611625575b50939450600093505050505b8151811015611972576002548251600160a060020a0390911690639b32a7789084908490811061167b57fe5b90602001906020020151600c6000878152602001908152602001600020600001600086868151811015156116ab57fe5b90602001906020020151600160a060020a0316600160a060020a0316815260200190815260200160002060020154600260009054906101000a9004600160a060020a0316600160a060020a0316633bb66a7b878781518110151561170b57fe5b906020019060200201516040518263ffffffff1660e060020a0281526004018082600160a060020a0316600160a060020a0316815260200191505060206040518083038186803b15801561175e57600080fd5b505afa158015611772573d6000803e3d6000fd5b505050506040513d602081101561178857600080fd5b50516040805160e060020a63ffffffff8716028152600160a060020a0390941660048501529101602483015251604480830192600092919082900301818387803b1580156117d557600080fd5b505af11580156117e9573d6000803e3d6000fd5b50506002548451600160a060020a039091169250639b32a778915084908490811061181057fe5b90602001906020020151600c60008781526020019081526020016000206000016000868681518110151561184057fe5b6020908102909101810151600160a060020a0390811683529082019290925260400160002060010154600254875191921690633aecd0e39088908890811061188457fe5b906020019060200201516040518263ffffffff1660e060020a0281526004018082600160a060020a0316600160a060020a0316815260200191505060206040518083038186803b1580156118d757600080fd5b505afa1580156118eb573d6000803e3d6000fd5b505050506040513d602081101561190157600080fd5b50516040805160e060020a63ffffffff8716028152600160a060020a0390941660048501529101602483015251604480830192600092919082900301818387803b15801561194e57600080fd5b505af1158015611962573d6000803e3d6000fd5b50506001909201915061164f9050565b50506012805461ff00191661010090811791829055900460ff1691505090565b600b5481565b60006119a26122d8565b15156119ad57600080fd5b600260009054906101000a9004600160a060020a0316600160a060020a031663743acbab6040518163ffffffff1660e060020a02815260040160206040518083038186803b1580156119fe57600080fd5b505afa158015611a12573d6000803e3d6000fd5b505050506040513d6020811015611a2857600080fd5b50511515611a80576040805160e560020a62461bcd02815260206004820152601260248201527fe585b1e68cafe8bf98e69caae7bb93e69d9f0000000000000000000000000000604482015290519081900360640190fd5b600254600f54600160a060020a03909116906395bbde8890849073__UintUtils_____________________________9063669dafe890611ace9060649061134f90600563ffffffff61468b16565b6040518263ffffffff1660e060020a0281526004018082815260200191505060206040518083038186803b158015611b0557600080fd5b505af4158015611b19573d6000803e3d6000fd5b505050506040513d6020811015611b2f57600080fd5b50516040805160e060020a63ffffffff861602815260248101839052600481019182528351604482015283518291606401906020868101910280838360005b83811015611b86578181015183820152602001611b6e565b505050509050019350505050602060405180830381600087803b158015611bac57600080fd5b505af1158015611bc0573d6000803e3d6000fd5b505050506040513d6020811015611bd657600080fd5b505192915050565b600080600080600260009054906101000a9004600160a060020a0316600160a060020a03166325d8e97f6040518163ffffffff1660e060020a02815260040160206040518083038186803b158015611c3557600080fd5b505afa158015611c49573d6000803e3d6000fd5b505050506040513d6020811015611c5f57600080fd5b50511515611ca5576040805160e560020a62461bcd028152602060048201526012602482015260008051602061510d833981519152604482015290519081900360640190fd5b60008060008042600260009054906101000a9004600160a060020a0316600160a060020a031663d74635736040518163ffffffff1660e060020a02815260040160206040518083038186803b158015611cfd57600080fd5b505afa158015611d11573d6000803e3d6000fd5b505050506040513d6020811015611d2757600080fd5b5051600b546000908152600c60205260409020600481015460029091015492909103617080019550611d5f919063ffffffff6146e116565b600b546000908152600c602052604090206003810154600590910154959a9199509750939550929350505050565b611d956122d8565b1515611da057600080fd5b60008054604051600160a060020a03909116907f8be0079c531659141344cd1fd0a4f28419497f9722a3daafe3b4186f6b6457e0908390a36000805473ffffffffffffffffffffffffffffffffffffffff19169055565b6000611e016122d8565b1515611e0c57600080fd5b600b5460009081526011602052604090205460ff1615611e605760405160e560020a62461bcd02815260040180806020018281038252602c81526020018061512d602c913960400191505060405180910390fd5b73__UintUtils_____________________________63669dafe8600260009054906101000a9004600160a060020a0316600160a060020a031663d998d6286040518163ffffffff1660e060020a02815260040160206040518083038186803b158015611ecb57600080fd5b505afa158015611edf573d6000803e3d6000fd5b505050506040513d6020811015611ef557600080fd5b50516040805160e060020a63ffffffff85160281526004810192909252516024808301926020929190829003018186803b158015611f3257600080fd5b505af4158015611f46573d6000803e3d6000fd5b505050506040513d6020811015611f5c57600080fd5b5051600154604080517fdd62ed3e0000000000000000000000000000000000000000000000000000000081523360048201523060248201529051600160a060020a039092169163dd62ed3e91604480820192602092909190829003018186803b158015611fc857600080fd5b505afa158015611fdc573d6000803e3d6000fd5b505050506040513d6020811015611ff257600080fd5b5051101561204a576040805160e560020a62461bcd02815260206004820152601260248201527fe68e88e69d83e9a29de5baa6e4b88de8b6b30000000000000000000000000000604482015290519081900360640190fd5b600154600254604080517fd998d6280000000000000000000000000000000000000000000000000000000081529051600160a060020a03938416936323b872dd933393309373__UintUtils_____________________________9363669dafe893169163d998d628916004808301926020929190829003018186803b1580156120d257600080fd5b505afa1580156120e6573d6000803e3d6000fd5b505050506040513d60208110156120fc57600080fd5b50516040805160e060020a63ffffffff85160281526004810192909252516024808301926020929190829003018186803b15801561213957600080fd5b505af415801561214d573d6000803e3d6000fd5b505050506040513d602081101561216357600080fd5b50516040805160e060020a63ffffffff8716028152600160a060020a0394851660048201529290931660248301526044820152905160648083019260209291908290030181600087803b1580156121b957600080fd5b505af11580156121cd573d6000803e3d6000fd5b505050506040513d60208110156121e357600080fd5b5051151561223b576040805160e560020a62461bcd02815260206004820152601a60248201527fe8bdace7a7bb746f6b656ee588b0e59088e7baa6e5a4b1e8b4a5000000000000604482015290519081900360640190fd5b50600b5460009081526011602052604090205460ff1690565b606061225e6122d8565b151561226957600080fd5b60088054806020026020016040519081016040528092919081815260200182805480156122bf57602002820191906000526020600020905b8154600160a060020a031681526001909101906020018083116122a1575b5050505050905090565b600054600160a060020a031690565b600054600160a060020a0316331490565b600b546000908152600c60209081526040808320338452909152812060050154819077010000000000000000000000000000000000000000000000900460ff16156123685760405160e560020a62461bcd02815260040180806020018281038252602a815260200180615159602a913960400191505060405180910390fd5b600254604080517f9263434e0000000000000000000000000000000000000000000000000000000081523360048201529051600092600160a060020a031691639263434e916024808301926020929190829003018186803b1580156123cc57600080fd5b505afa1580156123e0573d6000803e3d6000fd5b505050506040513d60208110156123f657600080fd5b5051600254604080517f503001200000000000000000000000000000000000000000000000000000000081529051929350600160a060020a039091169163503001209160048082019260009290919082900301818387803b15801561245a57600080fd5b505af115801561246e573d6000803e3d6000fd5b5050600b546000908152600c60209081526040808320338085529252808320600501805477ff00000000000000000000000000000000000000000000001916770100000000000000000000000000000000000000000000001790555190935084156108fc0292508491818181858888f193505050501580156124f4573d6000803e3d6000fd5b5033925090509091565b600d54600160a060020a031681565b600080600061251a6122d8565b151561252557600080fd5b5050600b546000818152600c6020526040902060028101546007909101549192509192565b600b80546000908152600c602052604081209091015461257190600163ffffffff6146f616565b40905090565b60008060008060008060008060008061258e614fcf565b600b546000908152600c602090815260408083203384528252918290208251610140810184528154600160a060020a03168152600182015481840152600282015481850152600382018054855181860281018601909652808652919492936060860193929083018282801561262c57602002820191906000526020600020905b8154600160a060020a0316815260019091019060200180831161260e575b5050509183525050600482810154602080840191909152600590930154600160a060020a0380821660408086019190915260ff740100000000000000000000000000000000000000008404811615156060808801919091527501000000000000000000000000000000000000000000850482161515608088015276010000000000000000000000000000000000000000000085048216151560a08801527701000000000000000000000000000000000000000000000090940416151560c09095019490945260025484517f3aecd0e3000000000000000000000000000000000000000000000000000000008152339481019490945293519596509094921692633aecd0e392602480840193829003018186803b15801561274b57600080fd5b505afa15801561275f573d6000803e3d6000fd5b505050506040513d602081101561277557600080fd5b505181518290600090811061278657fe5b6020908102909101810191909152600254604080517f3bb66a7b0000000000000000000000000000000000000000000000000000000081523360048201529051600160a060020a0390921692633bb66a7b92602480840193829003018186803b1580156127f257600080fd5b505afa158015612806573d6000803e3d6000fd5b505050506040513d602081101561281c57600080fd5b505181518290600190811061282d57fe5b6020908102909101015260608201515181518290600290811061284c57fe5b60209081029091010152608082015181518290600390811061286a57fe5b9060200190602002018181525050816020015181600481518110151561288c57fe5b6020908102909101015260408201518151829060059081106128aa57fe5b6020908102909101810191909152600654604080517fc28a1af30000000000000000000000000000000000000000000000000000000081523360048201529051600160a060020a039092169263c28a1af392602480840193829003018186803b15801561291657600080fd5b505afa15801561292a573d6000803e3d6000fd5b505050506040513d602081101561294057600080fd5b505181518290600690811061295157fe5b602090810290910181019190915260048054604080517f0df2019a000000000000000000000000000000000000000000000000000000008152339381019390935251600160a060020a0390911692630df2019a9260248082019391829003018186803b1580156129c057600080fd5b505afa1580156129d4573d6000803e3d6000fd5b505050506040513d60208110156129ea57600080fd5b50518151829060079081106129fb57fe5b6020908102909101810191909152600554604080517fc75355670000000000000000000000000000000000000000000000000000000081523360048201529051600160a060020a039092169263c753556792602480840193829003018186803b158015612a6757600080fd5b505afa158015612a7b573d6000803e3d6000fd5b505050506040513d6020811015612a9157600080fd5b5051815182906008908110612aa257fe5b6020908102909101810191909152600754604080517f4a6817870000000000000000000000000000000000000000000000000000000081523360048201529051600160a060020a0390921692634a68178792602480840193829003018186803b158015612b0e57600080fd5b505afa158015612b22573d6000803e3d6000fd5b505050506040513d6020811015612b3857600080fd5b5051815182906009908110612b4957fe5b60209081029091010152805181906000908110612b6257fe5b90602001906020020151816001815181101515612b7b57fe5b90602001906020020151826002815181101515612b9457fe5b90602001906020020151836003815181101515612bad57fe5b90602001906020020151846004815181101515612bc657fe5b90602001906020020151856005815181101515612bdf57fe5b90602001906020020151866006815181101515612bf857fe5b90602001906020020151876007815181101515612c1157fe5b90602001906020020151886008815181101515612c2a57fe5b90602001906020020151896009815181101515612c4357fe5b906020019060200201519b509b509b509b509b509b509b509b509b509b50505090919293949596979899565b600260009054906101000a9004600160a060020a0316600160a060020a03166325d8e97f6040518163ffffffff1660e060020a02815260040160206040518083038186803b158015612cc057600080fd5b505afa158015612cd4573d6000803e3d6000fd5b505050506040513d6020811015612cea57600080fd5b50511515612d30576040805160e560020a62461bcd028152602060048201526012602482015260008051602061510d833981519152604482015290519081900360640190fd5b600260009054906101000a9004600160a060020a0316600160a060020a031663743acbab6040518163ffffffff1660e060020a02815260040160206040518083038186803b158015612d8157600080fd5b505afa158015612d95573d6000803e3d6000fd5b505050506040513d6020811015612dab57600080fd5b505115612df0576040805160e560020a62461bcd02815260206004820152601260248201526000805160206150c1833981519152604482015290519081900360640190fd5b612df8611482565b1515612e4e576040805160e560020a62461bcd02815260206004820152601660248201527fe8b083e794a8e88085e4b88de698af4275696c64657200000000000000000000604482015290519081900360640190fd5b600b546000908152600c602052604090206002810154600490910154612e7a908363ffffffff6146f616565b10612eb95760405160e560020a62461bcd0281526004018080602001828103825260268152602001806150446026913960400191505060405180910390fd5b600b546000908152600c6020526040902060020154612ee69060649061134f90600163ffffffff61468b16565b600b546000908152600c60209081526040808320338452909152902060010154612f16908363ffffffff6146f616565b1115612f565760405160e560020a62461bcd0281526004018080602001828103825260308152602001806150916030913960400191505060405180910390fd5b73__UintUtils_____________________________63669dafe8826040518263ffffffff1660e060020a0281526004018082815260200191505060206040518083038186803b158015612fa857600080fd5b505af4158015612fbc573d6000803e3d6000fd5b505050506040513d6020811015612fd257600080fd5b5051600154604080517fdd62ed3e0000000000000000000000000000000000000000000000000000000081523360048201523060248201529051600160a060020a039092169163dd62ed3e91604480820192602092909190829003018186803b15801561303e57600080fd5b505afa158015613052573d6000803e3d6000fd5b505050506040513d602081101561306857600080fd5b505110156130c0576040805160e560020a62461bcd02815260206004820152601260248201527fe68e88e69d83e9a29de5baa6e4b88de8b6b30000000000000000000000000000604482015290519081900360640190fd5b600160009054906101000a9004600160a060020a0316600160a060020a03166323b872dd333073__UintUtils_____________________________63669dafe8866040518263ffffffff1660e060020a0281526004018082815260200191505060206040518083038186803b15801561313857600080fd5b505af415801561314c573d6000803e3d6000fd5b505050506040513d602081101561316257600080fd5b50516040805160e060020a63ffffffff8716028152600160a060020a0394851660048201529290931660248301526044820152905160648083019260209291908290030181600087803b1580156131b857600080fd5b505af11580156131cc573d6000803e3d6000fd5b505050506040513d60208110156131e257600080fd5b5051151561323a576040805160e560020a62461bcd02815260206004820152601a60248201527fe8bdace7a7bb746f6b656ee588b0e59088e7baa6e5a4b1e8b4a5000000000000604482015290519081900360640190fd5b73__UintUtils_____________________________63669dafe8826040518263ffffffff1660e060020a0281526004018082815260200191505060206040518083038186803b15801561328c57600080fd5b505af41580156132a0573d6000803e3d6000fd5b505050506040513d60208110156132b657600080fd5b5051600b546000908152600c602090815260408083203384528252918290206001018054909301909255805160e360020a630cd3b5fd02815260048101849052905173__UintUtils_____________________________9263669dafe89260248082019391829003018186803b15801561332f57600080fd5b505af4158015613343573d6000803e3d6000fd5b505050506040513d602081101561335957600080fd5b5051600b546000908152600c602090815260409182902060029081018054949094039093559154815160e360020a630cd3b5fd028152600481018590529151600160a060020a03909116926330f42bf69273__UintUtils_____________________________9263669dafe892602480840193919291829003018186803b1580156133e357600080fd5b505af41580156133f7573d6000803e3d6000fd5b505050506040513d602081101561340d57600080fd5b5051600254604080517f2734189a0000000000000000000000000000000000000000000000000000000081529051600160a060020a0390921691632734189a91600480820192602092909190829003018186803b15801561346d57600080fd5b505afa158015613481573d6000803e3d6000fd5b505050506040513d602081101561349757600080fd5b50516040805160e060020a63ffffffff861602815292909103600483015251602480830192600092919082900301818387803b1580156134d657600080fd5b505af11580156134ea573d6000803e3d6000fd5b5050336000908152600a60209081526040808320805487019055600b548352600c909152902060040180549093019092555050565b60006135296122d8565b151561353457600080fd5b600354600160a060020a031615156135805760405160e560020a62461bcd0281526004018080602001828103825260218152602001806150236021913960400191505060405180910390fd5b613637606461134f602861362b600260009054906101000a9004600160a060020a0316600160a060020a0316639b2dc7696040518163ffffffff1660e060020a02815260040160206040518083038186803b1580156135de57600080fd5b505afa1580156135f2573d6000803e3d6000fd5b505050506040513d602081101561360857600080fd5b5051600b546000908152600c60205260409020600701549063ffffffff61468b16565b9063ffffffff61468b16565b600b80546000908152600e602052604080822093909355905481522054600f8054909101905561366683614708565b61366f82614a54565b600254600354600b546000908152600c6020526040902060070154600160a060020a0392831692639b32a77892169073__UintUtils_____________________________9063669dafe8906136d29060649061134f90603c63ffffffff61468b16565b6040518263ffffffff1660e060020a0281526004018082815260200191505060206040518083038186803b15801561370957600080fd5b505af415801561371d573d6000803e3d6000fd5b505050506040513d602081101561373357600080fd5b5051600254600354604080517f3bb66a7b000000000000000000000000000000000000000000000000000000008152600160a060020a03928316600482015290519190921691633bb66a7b916024808301926020929190829003018186803b15801561379e57600080fd5b505afa1580156137b2573d6000803e3d6000fd5b505050506040513d60208110156137c857600080fd5b50516040805160e060020a63ffffffff8716028152600160a060020a0390941660048501529101602483015251604480830192600092919082900301818387803b15801561381557600080fd5b505af1158015613829573d6000803e3d6000fd5b50505050600260009054906101000a9004600160a060020a0316600160a060020a031663743acbab6040518163ffffffff1660e060020a02815260040160206040518083038186803b15801561387e57600080fd5b505afa158015613892573d6000803e3d6000fd5b505050506040513d60208110156138a857600080fd5b5051156138b7575060016138c3565b6138bf614bb0565b5060005b92915050565b6000806000600260009054906101000a9004600160a060020a0316600160a060020a03166374ebae066040518163ffffffff1660e060020a02815260040160206040518083038186803b15801561391f57600080fd5b505afa158015613933573d6000803e3d6000fd5b505050506040513d602081101561394957600080fd5b505115156139a1576040805160e560020a62461bcd02815260206004820152601260248201527fe4b88de59ca8e58b9fe8b584e69c9fe586850000000000000000000000000000604482015290519081900360640190fd5b600080600042600260009054906101000a9004600160a060020a0316600160a060020a031663d74635736040518163ffffffff1660e060020a02815260040160206040518083038186803b1580156139f857600080fd5b505afa158015613a0c573d6000803e3d6000fd5b505050506040513d6020811015613a2257600080fd5b5051600b546000908152600c602052604090206007810154600690910154929091036018019450613a59919063ffffffff6146e116565b600b546000908152600c602052604090206007015493965094509192505050909192565b60125460ff1681565b613a8e6122d8565b1515613a9957600080fd5b60125460ff1615613ade5760405160e560020a62461bcd02815260040180806020018281038252602781526020018061506a6027913960400191505060405180910390fd5b60038054600160a060020a0380851673ffffffffffffffffffffffffffffffffffffffff1992831617909255600d80548484169216919091179055600254604080517fabdd11a80000000000000000000000000000000000000000000000000000000081524260048201529051919092169163abdd11a891602480830192600092919082900301818387803b158015613b7657600080fd5b505af1158015613b8a573d6000803e3d6000fd5b5050505073__UintUtils_____________________________63669dafe86216e3606040518263ffffffff1660e060020a0281526004018082815260200191505060206040518083038186803b158015613be357600080fd5b505af4158015613bf7573d6000803e3d6000fd5b505050506040513d6020811015613c0d57600080fd5b5051600b546000908152600c6020526040808220600290810193909355915482517f1c5ce1570000000000000000000000000000000000000000000000000000000081529251600160a060020a0390911692631c5ce15792600480830193919282900301818387803b158015613c8257600080fd5b505af1158015613c96573d6000803e3d6000fd5b50506012805460ff1916600117905550613cb190508361462d565b505050565b6000908152600c602052604090206006015490565b600080600260009054906101000a9004600160a060020a0316600160a060020a03166325d8e97f6040518163ffffffff1660e060020a02815260040160206040518083038186803b158015613d1f57600080fd5b505afa158015613d33573d6000803e3d6000fd5b505050506040513d6020811015613d4957600080fd5b50511515613d8f576040805160e560020a62461bcd028152602060048201526012602482015260008051602061510d833981519152604482015290519081900360640190fd5b600260009054906101000a9004600160a060020a0316600160a060020a031663743acbab6040518163ffffffff1660e060020a02815260040160206040518083038186803b158015613de057600080fd5b505afa158015613df4573d6000803e3d6000fd5b505050506040513d6020811015613e0a57600080fd5b505115613e4f576040805160e560020a62461bcd02815260206004820152601260248201526000805160206150c1833981519152604482015290519081900360640190fd5b600d54600160a060020a03848116911614613efe57600b546000908152600c60209081526040808320600160a060020a038716845290915290206005015474010000000000000000000000000000000000000000900460ff161515613efe576040805160e560020a62461bcd02815260206004820152601f60248201527fe68ea8e5b9bfe88085e887aae5b7b1e5bf85e9a1bbe698af4275696c64657200604482015290519081900360640190fd5b600160a060020a0383161515613f5e576040805160e560020a62461bcd02815260206004820152601b60248201527fe68ea8e5b9bfe88085e4b88de883bde698afe7a9bae59cb0e59d800000000000604482015290519081900360640190fd5b73__UintUtils_____________________________63669dafe860086040518263ffffffff1660e060020a0281526004018082815260200191505060206040518083038186803b158015613fb157600080fd5b505af4158015613fc5573d6000803e3d6000fd5b505050506040513d6020811015613fdb57600080fd5b5051600154604080517fdd62ed3e0000000000000000000000000000000000000000000000000000000081523360048201523060248201529051600160a060020a039092169163dd62ed3e91604480820192602092909190829003018186803b15801561404757600080fd5b505afa15801561405b573d6000803e3d6000fd5b505050506040513d602081101561407157600080fd5b505110156140c9576040805160e560020a62461bcd02815260206004820152601260248201527fe68e88e69d83e9a29de5baa6e4b88de8b6b30000000000000000000000000000604482015290519081900360640190fd5b6001546040805160e360020a630cd3b5fd028152600860048201529051600160a060020a03909216916323b872dd913391309173__UintUtils_____________________________9163669dafe891602480820192602092909190829003018186803b15801561413857600080fd5b505af415801561414c573d6000803e3d6000fd5b505050506040513d602081101561416257600080fd5b50516040805160e060020a63ffffffff8716028152600160a060020a0394851660048201529290931660248301526044820152905160648083019260209291908290030181600087803b1580156141b857600080fd5b505af11580156141cc573d6000803e3d6000fd5b505050506040513d60208110156141e257600080fd5b5051151561423a576040805160e560020a62461bcd02815260206004820152601a60248201527fe8bdace7a7bb746f6b656ee588b0e59088e7baa6e5a4b1e8b4a5000000000000604482015290519081900360640190fd5b6001546040805160e360020a630cd3b5fd028152600360048201529051600160a060020a03909216916342966c689173__UintUtils_____________________________9163669dafe891602480820192602092909190829003018186803b1580156142a557600080fd5b505af41580156142b9573d6000803e3d6000fd5b505050506040513d60208110156142cf57600080fd5b50516040805160e060020a63ffffffff8516028152600481019290925251602480830192600092919082900301818387803b15801561430d57600080fd5b505af1158015614321573d6000803e3d6000fd5b50506001546040805160e360020a630cd3b5fd028152600560048201529051600160a060020a03909216935063a9059cbb9250869173__UintUtils_____________________________9163669dafe8916024808301926020929190829003018186803b15801561439157600080fd5b505af41580156143a5573d6000803e3d6000fd5b505050506040513d60208110156143bb57600080fd5b50516040805160e060020a63ffffffff8616028152600160a060020a03909316600484015260248301919091525160448083019260209291908290030181600087803b15801561440a57600080fd5b505af115801561441e573d6000803e3d6000fd5b505050506040513d602081101561443457600080fd5b50506040805160e360020a630cd3b5fd02815260056004820152905173__UintUtils_____________________________9163669dafe8916024808301926020929190829003018186803b15801561448b57600080fd5b505af415801561449f573d6000803e3d6000fd5b505050506040513d60208110156144b557600080fd5b5051600b546000908152600c60209081526040808320600160a060020a03881684529091529020600401805490910190556144ef83614e9c565b600b80546000908152600c60209081526040808320600160a060020a038089168086529184528285206003018054600181018255908652938520909301805473ffffffffffffffffffffffffffffffffffffffff191633179055600480549554600d5484517fe23613e900000000000000000000000000000000000000000000000000000000815292830191909152602482019290925290831660448201529051939091169263e23613e99260648084019391929182900301818387803b1580156145b957600080fd5b505af11580156145cd573d6000803e3d6000fd5b503396945050505050565b60116020526000908152604090205460ff1681565b60006145f76122d8565b151561460257600080fd5b50600160a060020a031660009081526009602052604090205490565b600154600160a060020a031681565b6146356122d8565b151561464057600080fd5b61464981614f52565b50565b600b546000908152600c602090815260408083203384529091529020600501547501000000000000000000000000000000000000000000900460ff1690565b600082151561469c575060006138c3565b8282028284828115156146ab57fe5b04146146b657600080fd5b9392505050565b60008082116146cb57600080fd5b600082848115156146d857fe5b04949350505050565b6000828211156146f057600080fd5b50900390565b6000828201838110156146b657600080fd5b6147106122d8565b151561471b57600080fd5b600b546000908152600c60205260409020600a015460ff1615614788576040805160e560020a62461bcd02815260206004820152601e60248201527fe5bd93e5898de8bdaee6aca1e5b7b2e7bb8fe7bb93e7ae97e5ae8ce6af950000604482015290519081900360640190fd5b600b546000908152600c60205260409020600a0154610100900460ff16156147fa576040805160e560020a62461bcd02815260206004820152601b60248201527fe5bd93e5898de8bdaee6aca1e697a9e5b7b2e7bb8fe7bb93e69d9f0000000000604482015290519081900360640190fd5b600254600b546000818152600e6020526040902054600160a060020a039092169163deb72f1f9190849061483c9060649061134f90601463ffffffff61468b16565b6040518463ffffffff1660e060020a0281526004018084815260200180602001838152602001828103825284818151815260200191508051906020019060200280838360005b8381101561489a578181015183820152602001614882565b50505050905001945050505050600060405180830381600087803b1580156148c157600080fd5b505af11580156148d5573d6000803e3d6000fd5b5050600254600b546000818152600c60209081526040808320600e90925290912054600160a060020a0390931694506384976e749350909160019091019073__UintUtils_____________________________9063669dafe8906149419060649061134f90600a61468b565b6040518263ffffffff1660e060020a0281526004018082815260200191505060206040518083038186803b15801561497857600080fd5b505af415801561498c573d6000803e3d6000fd5b505050506040513d60208110156149a257600080fd5b505160405160e060020a63ffffffff861602815260048101848152604482018390526060602483019081528454606484018190529192909160849091019085908015614a1757602002820191906000526020600020905b8154600160a060020a031681526001909101906020018083116149f9575b5050945050505050600060405180830381600087803b158015614a3957600080fd5b505af1158015614a4d573d6000803e3d6000fd5b5050505050565b614a5c6122d8565b1515614a6757600080fd5b600254600b546000818152600e6020526040902054600160a060020a039092169163fd38f45b9190849073__UintUtils_____________________________9063669dafe890614ac59060649061134f90600563ffffffff61468b16565b6040518263ffffffff1660e060020a0281526004018082815260200191505060206040518083038186803b158015614afc57600080fd5b505af4158015614b10573d6000803e3d6000fd5b505050506040513d6020811015614b2657600080fd5b505160405160e060020a63ffffffff86160281526004810184815260448201839052606060248301908152845160648401528451919290916084909101906020868101910280838360005b83811015614b89578181015183820152602001614b71565b50505050905001945050505050600060405180830381600087803b158015614a3957600080fd5b600254600b546000818152600c60209081526040808320600781015460089091015482517fc39fa86100000000000000000000000000000000000000000000000000000000815260048101969096526024860191909152604485015251600160a060020a039094169363c39fa86193606480820194918390030190829087803b158015614c3c57600080fd5b505af1158015614c50573d6000803e3d6000fd5b505050506040513d6020811015614c6657600080fd5b505115614cab576040805160e560020a62461bcd02815260206004820152601260248201526000805160206150c1833981519152604482015290519081900360640190fd5b600b80546000908152600c6020526040808220600a908101805460ff1916600190811790915584548452828420909101805461ff00191661010017905583540190925560025482517fabdd11a80000000000000000000000000000000000000000000000000000000081524260048201529251600160a060020a039091169263abdd11a892602480830193919282900301818387803b158015614d4d57600080fd5b505af1158015614d61573d6000803e3d6000fd5b5050600254600b54604080517f0d9907d9000000000000000000000000000000000000000000000000000000008152600481019290925251600160a060020a039092169350630d9907d992506024808201926020929091908290030181600087803b158015614dcf57600080fd5b505af1158015614de3573d6000803e3d6000fd5b505050506040513d6020811015614df957600080fd5b5050600254604080517f8d8276be0000000000000000000000000000000000000000000000000000000081529051600160a060020a0390921691638d8276be91600480820192602092909190829003018186803b158015614e5957600080fd5b505afa158015614e6d573d6000803e3d6000fd5b505050506040513d6020811015614e8357600080fd5b5051600b546000908152600c6020526040902060020155565b600b80546000908152600c6020818152604080842033808652908352818520805473ffffffffffffffffffffffffffffffffffffffff19908116831790915586548652848452828620828752845282862060059081018054600160a060020a039a909a169990921698909817905594548452918152818320938352929092522001805474ff0000000000000000000000000000000000000000191674010000000000000000000000000000000000000000179055565b600160a060020a0381161515614f6757600080fd5b60008054604051600160a060020a03808516939216917f8be0079c531659141344cd1fd0a4f28419497f9722a3daafe3b4186f6b6457e091a36000805473ffffffffffffffffffffffffffffffffffffffff1916600160a060020a0392909216919091179055565b60408051610140810182526000808252602082018190529181018290526060808201526080810182905260a0810182905260c0810182905260e0810182905261010081018290526101208101919091529056fee59fbae98791e4bc9ae694b6e6acbee59cb0e59d80e5b09ae69caae8aebee7bdaee5bd93e5898de8bdaee6aca1e585b1e5bbba546f6b656ee5b7b2e7bb8fe8b6b3e5a49fe4ba86e7acace4b880e8bdaee6aca1e695b0e68daee5b7b2e7bb8fe5889de5a78be58c96e8bf87e4ba86e585b1e5bbbae9a29de5baa6e5b7b2e8b685e8bf87e99990e9a29defbc8ce4b88de883bde7bba7e7bbade8bdace585a5e585b1e68cafe5b7b2e7bb8fe7bb93e69d9f0000000000000000000000000000e794a8e688b7e59ca8e5bd93e5898de8bdaee6aca1e5b7b2e7bb8fe68f90e58f96746f6b656ee5ae8ce68890e4b88de59ca8e585b1e5bbbae69c9fe586850000000000000000000000000000e5bd93e5898de8bdaee6aca1e59fbae98791e4bc9ae5b7b2e7bb8fe8bdace585a5e8bf87546f6b656ee4ba86e794a8e688b7e59ca8e5bd93e5898de8bdaee6aca1e5b7b2e7bb8fe68f90e58f96455448e5ae8ce68890a165627a7a7230582060a189cf0cbc6a5e6e48d31b4e2dbeacfa5ee1d1aba3385d4f8f270afc42eff70029",
  "source": "pragma solidity >=0.4.21 <0.6.0;\n\nimport \"../node_modules/openzeppelin-solidity/contracts/math/SafeMath.sol\";\nimport \"../node_modules/openzeppelin-solidity/contracts/ownership/Ownable.sol\";\nimport \"./ABCToken.sol\";\nimport \"./UintUtils.sol\";\nimport \"./FissionReward.sol\";\nimport \"./FOMOReward.sol\";\nimport \"./LuckyReward.sol\";\nimport \"./FaithReward.sol\";\nimport \"./ResonanceDataManage.sol\";\n\n// TODO:token()\ncontract Resonance is Ownable{\n\n    using SafeMath for uint256;\n\n    // \n    // \n    event ToBeFissionPerson(address indexed fissionPerson, address indexed promoter);\n\n    event FundsInfo(uint256 currentStepTokenAmount, uint256 currentStepRaisedETH);\n    event BuildingPerioInfo(uint256 bpCountdown, uint256 remainingToken, uint256 personalTokenLimited, uint256 totalTokenAmount);\n    event FundingPeriodInfo(uint256 fpCountdown, uint256 remainingETH, uint256 rasiedETHAmount);\n\n    // \n    event FissionRewardInfo(address[] fissionRewardList, uint256[] fissionRewardAmount);\n    event FOMORewardInfo(address[] FOMORewardList, uint256[] FOMORewards);\n    event LuckyRewardInfo(address[] luckyRewardList, uint256 luckyReward);\n    event FaithRewardInfo(address[] faithRewardList, uint256[] faithRewardAmount);\n    event WithdrawAllETH(address addr, uint256 ETHAmount);\n    event WithdrawAllToken(address from, address to, uint256 tokenAmount);\n    event FunderInfo(uint256[] FunderInfoArray);\n    event StepFunders(\n        address[] funderAddress,\n        uint256[] funderTokenAmount,\n        uint256[] funderETHAmount,\n        uint256[] funderInvitees,\n        uint256[] funderEarnFromAff\n    );\n    event SettlementStep(uint256 stepIndex);\n\n    event StartNextStep(uint256 stepIndex);\n\n    event SetRaiseTarget(uint256 stepIndex, uint256 raiseTarget);\n\n    event GetResonances(address[] resonances);\n\n    event FunderTotalRaised(uint256 resonancesRasiedETH);\n\n    // \n    // ERC20\n    ABCToken public abcToken;\n\n    ResonanceDataManage resonanceDataManage;\n\n    // 60%\n    address payable public beneficiary;\n\n    // \n    struct Funder{\n        address funderAddr; // \n        uint256 tokenAmount; // token\n        uint256 ethAmount; // eth\n        address[] invitees; // \n        uint256 earnFromAff; // \n        address promoter; // \n        bool isBuilder; // /\n        bool isFunder; // \n        bool tokenHasWithdrawn; // Token\n        bool ETHHasWithdrawn; // ETH\n    }\n\n    // \n    struct Building{\n        uint256 openTokenAmount; // Token\n        uint256 personalTokenLimited;// token\n        uint256 raisedToken; // token\n        uint256 raisedTokenAmount; // Token\n    }\n\n    // \n    struct Funding{\n        uint256 raiseTarget; // ETH()\n        uint256 raisedETH; // ETH\n    }\n\n    FissionReward fissionRewardInstance;\n    FOMOReward FOMORewardInstance;\n    LuckyReward luckyRewardInstance;\n    FaithReward faithRewardInstance;\n\n    // \n    struct Step{\n        mapping(address => Funder) funder;// \n        address[] funders; // funders\n        Building building; // \n        Funding funding; // \n        uint256 softCap; // \n        uint256 hardCap; // \n        bool settlementFinished; // \n        bool stepIsClosed; // \n        uint256 blockNumber; // \n    }\n\n    // \n    address[] resonances;\n\n    // \n    mapping(address => uint256) resonancesRasiedETH;\n    mapping(address => uint256) resonancesRasiedToken;\n\n    uint256 public currentStep;\n\n    mapping(uint256 => Step) steps;\n\n    address public initialFissionPerson; // \n\n    mapping(uint256 => uint256) ETHFromParty; // ETH\n\n    uint256 totalETHFromParty; // \n\n    mapping(uint256 => uint256) tokenFromParty; //token\n\n    mapping(uint256 => bool) public tokenTransfered; // Token\n\n    bool public firstParamInitialized;\n\n    // \n    /// @notice \n    /// @param _abcToken Token\n    constructor(\n        address _resonanceDataManageAddress,\n        ABCToken _abcToken,\n        address _fassionRewardAddress,\n        address _FOMORewardAddress,\n        address _luckyRewardAddress,\n        address _faithRewardAddress\n    )\n        public\n    {\n        resonanceDataManage = ResonanceDataManage(_resonanceDataManageAddress);\n        // \n        fissionRewardInstance = FissionReward(_fassionRewardAddress);\n        FOMORewardInstance = FOMOReward(_FOMORewardAddress);\n        luckyRewardInstance = LuckyReward(_luckyRewardAddress);\n        faithRewardInstance = FaithReward(_faithRewardAddress);\n        currentStep = 0;\n        abcToken = _abcToken; // abc Token\n    }\n\n\n    /// @notice \n    /// @dev ResonanceDataManage\n    function initParamForFirstStep(\n        address _newOwner,\n        address payable _beneficiary,\n        address _initialFissionPerson\n    )\n        public\n        onlyOwner()\n    {\n        require(!firstParamInitialized, \"\");\n        // \n        beneficiary = _beneficiary;\n        // \n        initialFissionPerson = _initialFissionPerson;\n        resonanceDataManage.setOpeningTime(block.timestamp); // \n        steps[currentStep].building.openTokenAmount = UintUtils.toWei(1500000); // Token\n        resonanceDataManage.setParamForFirstStep();\n        firstParamInitialized = true;\n        // \n        transferOwnership(_newOwner);\n    }\n\n    /// @notice \n    /// @param promoter \n    /// @dev TokenApprove\n    function toBeFissionPerson(\n        address promoter\n    )\n        public\n        returns(address, address)\n    {\n        require(resonanceDataManage.isBuildingPeriod(), \"\");\n        require(!resonanceDataManage.getCrowdsaleClosed(), \"\");\n\n        if(initialFissionPerson != promoter){\n            require(steps[currentStep].funder[promoter].isBuilder,\"Builder\");\n        }\n        require(promoter != address(0), \"\");\n\n        // \n        require(abcToken.allowance(msg.sender, address(this)) >= UintUtils.toWei(8),\"\");\n\n        require(abcToken.transferFrom(msg.sender,address(this), UintUtils.toWei(8)),\"token\");\n\n        // 3\n        abcToken.burn(UintUtils.toWei(3));\n\n        // 5\n        abcToken.transfer(address(promoter), UintUtils.toWei(5));\n\n        steps[currentStep].funder[promoter].earnFromAff += UintUtils.toWei(5);\n\n        // \n        _addBuilder(promoter);\n\n        steps[currentStep].funder[promoter].invitees.push(msg.sender);\n\n        fissionRewardInstance.addAffman(currentStep, promoter, initialFissionPerson);\n\n        // emit ToBeFissionPerson(msg.sender, promoter);\n        return(msg.sender, promoter);\n    }\n\n    /// @notice \n    /// @dev \n    function setRaiseTarget(\n        uint256 _raiseTarget\n    )\n        public\n        onlyOwner()\n        returns(uint256, uint256)\n    {\n        require(resonanceDataManage.isBuildingPeriod(), \"\");\n        steps[currentStep].funding.raiseTarget = UintUtils.toWei(_raiseTarget);\n        // \n        steps[currentStep].softCap = UintUtils.toWei(steps[currentStep].funding.raiseTarget.mul(60).div(100));\n        steps[currentStep].hardCap = UintUtils.toWei(steps[currentStep].funding.raiseTarget);\n\n        // emit SetRaiseTarget(currentStep, _raiseTarget);\n        return(currentStep, _raiseTarget);\n    }\n\n    /// @notice \n    function getRaiseTarget(uint256 _stepIndex) public view returns(uint256) {\n        return steps[_stepIndex].funding.raiseTarget;\n    }\n\n    // token\n    function jointlyBuild(uint256 _tokenAmount) public {\n        require(resonanceDataManage.isBuildingPeriod(), \"\");\n\n        require(!resonanceDataManage.getCrowdsaleClosed(), \"\");\n\n        // builder\n        require(isBuilder(), \"Builder\");\n\n        // \n        require(steps[currentStep].building.raisedToken.add(_tokenAmount) < steps[currentStep].building.openTokenAmount, \"Token\");\n\n        // \n        require(\n            steps[currentStep].funder[msg.sender].tokenAmount.add(_tokenAmount) <= steps[currentStep].building.openTokenAmount.mul(1).div(100),\n            \"\"\n        );\n\n        // \n        require(abcToken.allowance(msg.sender, address(this)) >= UintUtils.toWei(_tokenAmount),\"\");\n\n        // \n        require(abcToken.transferFrom(msg.sender,address(this), UintUtils.toWei(_tokenAmount)),\"token\");\n\n        steps[currentStep].funder[msg.sender].tokenAmount += UintUtils.toWei(_tokenAmount);\n\n        // TokenToken\n        steps[currentStep].building.openTokenAmount -= UintUtils.toWei(_tokenAmount);\n\n        // Token\n        resonanceDataManage.setFundsPool(resonanceDataManage.getFundsPool() - UintUtils.toWei(_tokenAmount));\n\n        // \n        resonancesRasiedToken[msg.sender] += _tokenAmount;\n\n        // token\n        steps[currentStep].building.raisedToken += _tokenAmount;\n    }\n\n    /// @notice Token\n    function transferToken() public payable onlyOwner() returns(bool) {\n        require(!tokenTransfered[currentStep], \"Token\");\n        // \n        require(abcToken.allowance(msg.sender, address(this)) >= UintUtils.toWei(resonanceDataManage.getBuildingTokenFromParty()),\n            \"\"\n        );\n        // \n        require(abcToken.transferFrom(\n            msg.sender,address(this),\n            UintUtils.toWei(resonanceDataManage.getBuildingTokenFromParty())),\n            \"token\"\n        );\n\n        return tokenTransfered[currentStep];\n    }\n\n    // \n    // \n    function ()\n        external\n        payable\n    {\n        require(resonanceDataManage.isFundingPeriod(), \"\");\n\n        require(!resonanceDataManage.getCrowdsaleClosed(), \"\");\n\n        uint amount = msg.value;\n        steps[currentStep].funder[msg.sender].ethAmount = amount;\n        steps[currentStep].funder[msg.sender].isFunder = true;\n        steps[currentStep].funding.raisedETH += amount;\n\n        resonances.push(msg.sender);\n        resonancesRasiedETH[msg.sender] += amount;\n    }\n\n    /// @notice \n    /// @dev \n    /// @param _fissionWinnerList \n    /// @param _LuckyWinnerList \n    function settlementStep(\n        address[] memory _fissionWinnerList,\n        address[] memory _LuckyWinnerList\n    )\n        public\n        onlyOwner()\n        returns(bool)\n    {\n        require(beneficiary != address(0), \"\");\n        // \n        ETHFromParty[currentStep] = steps[currentStep].funding.raisedETH.mul(resonanceDataManage.getBuildingPercentOfParty()).mul(40).div(100);\n        totalETHFromParty += ETHFromParty[currentStep];\n        // FOMO\n        _settlementReward(_fissionWinnerList);\n        // \n        _settlementLuckyReward(_LuckyWinnerList);\n        // \n        resonanceDataManage.setETHBalance(\n            beneficiary,\n            resonanceDataManage.getETHBalance(beneficiary) + UintUtils.toWei(steps[currentStep].funding.raisedETH.mul(60).div(100))\n        );\n        // emit SettlementStep(currentStep);\n\n        if(resonanceDataManage.getCrowdsaleClosed()) {\n            return true;\n        }else{\n            // \n            _startNextStep();\n            return false;\n        }\n    }\n\n    /// @notice \n    /// @param _FaithWinnerList \n    function settlementFaithReward(\n        address[] memory _FaithWinnerList\n    )\n        public\n        onlyOwner()\n        returns(bool)\n    {\n        require(resonanceDataManage.getCrowdsaleClosed(), \"\");\n        return resonanceDataManage.dmSettlementFaithReward(\n            _FaithWinnerList,\n            UintUtils.toWei(totalETHFromParty.mul(5).div(100))\n        );\n    }\n\n    /// @notice FOMO\n    /// @dev ,\n    function _settlementReward(\n        address[] memory _fissionWinnerList\n    )\n        internal\n        onlyOwner()\n    {\n        require(!steps[currentStep].settlementFinished, \"\");\n        require(!steps[currentStep].stepIsClosed, \"\");\n\n        resonanceDataManage.settlementFissionReward(\n            currentStep,\n            _fissionWinnerList,\n            ETHFromParty[currentStep].mul(20).div(100)\n        );\n\n        resonanceDataManage.settlementFOMOReward(\n            currentStep,\n            steps[currentStep].funders,\n            UintUtils.toWei(ETHFromParty[currentStep].mul(10).div(100))\n        );\n    }\n\n    /// @notice \n    function _settlementLuckyReward(\n        address[] memory _LuckyWinnerList\n    )\n        internal\n        onlyOwner()\n    {\n        resonanceDataManage.settlementLuckyReward(\n            currentStep,\n            _LuckyWinnerList,\n            UintUtils.toWei(ETHFromParty[currentStep].mul(5).div(100))\n        );\n    }\n\n    /// \n    function _startNextStep()\n        internal\n    {\n        // \n        require(!resonanceDataManage.crowdsaleIsClosed(currentStep, steps[currentStep].funding.raisedETH, steps[currentStep].softCap), \"\");\n        // step\n        steps[currentStep].settlementFinished = true;\n        // \n        steps[currentStep].stepIsClosed = true;\n        // \n        currentStep++;\n        // \n        resonanceDataManage.setOpeningTime(block.timestamp);\n        // Token\n        resonanceDataManage.updateBuildingPercent(currentStep);\n\n        steps[currentStep].building.openTokenAmount = resonanceDataManage.getBuildingTokenAmount();\n        // TODO:\n        // emit StartNextStep(currentStep);\n    }\n\n    /// @notice tokentoken\n    function withdrawAllToken()\n        public\n        payable\n        returns(address, address, uint256)\n    {\n        require(!steps[currentStep].funder[msg.sender].tokenHasWithdrawn, \"token\");\n        uint256 withdrawAmount = resonanceDataManage.withdrawTokenAmount(msg.sender);\n        resonanceDataManage.emptyTokenBalance();\n        steps[currentStep].funder[msg.sender].tokenHasWithdrawn = true;\n        abcToken.transferFrom(address(this), msg.sender, withdrawAmount);\n        // emit WithdrawAllToken(address(this), msg.sender, withdrawAmount);\n        return(address(this), msg.sender, withdrawAmount);\n    }\n\n    /// @notice (ETH)\n    function withdrawAllETH()\n        public\n        payable\n        returns(address, uint256)\n    {\n        require(!steps[currentStep].funder[msg.sender].ETHHasWithdrawn, \"ETH\");\n        uint256 withdrawAmount = resonanceDataManage.withdrawETHAmount(msg.sender);\n        resonanceDataManage.emptyETHBalance();\n        steps[currentStep].funder[msg.sender].ETHHasWithdrawn = true;\n        msg.sender.transfer(withdrawAmount);\n        // emit WithdrawAllETH(msg.sender, withdrawAmount);\n        return(msg.sender, withdrawAmount);\n    }\n\n    /// @notice \n    /// @dev jointlyBuildtoBeFissionPerson\n    function isBuilder() public view returns(bool) {\n        return steps[currentStep].funder[msg.sender].isBuilder;\n    }\n\n    /// @notice \n    function isFunder() public view returns(bool) {\n        return steps[currentStep].funder[msg.sender].isFunder;\n    }\n\n    /// @notice \n    function getResonances()\n        public\n        view\n        onlyOwner()\n        returns(address[] memory)\n    {\n        // emit GetResonances(resonances);\n        return(resonances);\n    }\n\n    /// @notice ETH\n    function getFunderTotalRaised(address _funder) public view onlyOwner() returns(uint256){\n        // emit FunderTotalRaised(resonancesRasiedETH[_funder]);\n        return resonancesRasiedETH[_funder];\n    }\n\n    /// @notice funders\n    /// @dev funders\n    /// @param _stepIndex \n    function getStepFunders(uint256 _stepIndex)\n        public\n        view\n        onlyOwner()\n        returns\n    (\n            address[] memory,\n            uint256[] memory,\n            uint256[] memory,\n            uint256[] memory,\n            uint256[] memory\n    )\n    {\n        address[] memory funderAddress;\n        uint256[] memory funderTokenAmount;\n        uint256[] memory funderETHAmount;\n        uint256[] memory funderInvitees;\n        uint256[] memory earnFromAff;\n\n        funderAddress = steps[_stepIndex].funders;\n\n        for(uint i = 0 ; i < funderAddress.length; i++){\n            funderTokenAmount[i] = steps[_stepIndex].funder[funderAddress[i]].tokenAmount;\n            funderETHAmount[i] = steps[_stepIndex].funder[funderAddress[i]].ethAmount;\n            funderInvitees[i] = steps[_stepIndex].funder[funderAddress[i]].invitees.length;\n            earnFromAff[i] = steps[currentStep].funder[funderAddress[i]].earnFromAff;\n        }\n\n        // emit StepFunders(funderAddress, funderTokenAmount, funderETHAmount, funderInvitees, earnFromAff);\n        return (funderAddress, funderTokenAmount, funderETHAmount, funderInvitees, earnFromAff);\n    }\n\n    /// @notice tokenETH\n    function getCurrentStepFundsInfo()\n        public\n        view\n        onlyOwner()\n        returns(uint256, uint256, uint256)\n    {\n        // emit FundsInfo(steps[currentStep].building.openTokenAmount, steps[currentStep].funding.raisedETH);\n        return(currentStep, steps[currentStep].building.openTokenAmount, steps[currentStep].funding.raisedETH);\n    }\n\n    /// @notice \n    function getBuildingPerioInfo()\n        public\n        view\n        returns(uint256, uint256, uint256, uint256)\n    {\n        require(resonanceDataManage.isBuildingPeriod(), \"\");\n        uint256 _bpCountdown;\n        uint256 _remainingToken;\n        uint256 _personalTokenLimited;\n        uint256 _totalTokenAmount;\n\n        _bpCountdown = (resonanceDataManage.getOpeningTime() + 8 hours) - block.timestamp;\n        _remainingToken = steps[currentStep].building.openTokenAmount.sub(steps[currentStep].building.raisedToken);\n        _personalTokenLimited = steps[currentStep].building.personalTokenLimited;\n        _totalTokenAmount = steps[currentStep].building.raisedTokenAmount;\n        // emit BuildingPerioInfo(_bpCountdown, _remainingToken, _personalTokenLimited, _totalTokenAmount);\n        return(_bpCountdown, _remainingToken, _personalTokenLimited, _totalTokenAmount);\n    }\n\n    // \n    function getFundingPeriodInfo()\n        public\n        view\n        returns(uint256, uint256, uint256)\n    {\n        require(resonanceDataManage.isFundingPeriod(), \"\");\n\n        uint256 _fpCountdown;\n        uint256 _remainingETH;\n        uint256 _rasiedETHAmount;\n\n        _fpCountdown = (resonanceDataManage.getOpeningTime() + 24) - block.timestamp;\n        _remainingETH = steps[currentStep].funding.raiseTarget.sub(steps[currentStep].funding.raisedETH);\n        _rasiedETHAmount = steps[currentStep].funding.raisedETH;\n        // emit FundingPeriodInfo(_fpCountdown, _remainingETH, _rasiedETHAmount);\n        return(_fpCountdown, _remainingETH, _rasiedETHAmount);\n    }\n\n    /// @notice \n    // TODO:msg.sender\n    function getFunderInfo()\n        public\n        view\n        returns\n    (\n        uint256,\n        uint256,\n        uint256,\n        uint256,\n        uint256,\n        uint256,\n        uint256,\n        uint256,\n        uint256,\n        uint256\n    )\n\n    {\n        Funder memory funder = steps[currentStep].funder[msg.sender];\n\n        uint256[] memory funderInfo;\n\n        funderInfo[0] = resonanceDataManage.getTokenBalance(msg.sender);\n        funderInfo[1] = resonanceDataManage.getETHBalance(msg.sender);\n        funderInfo[2] = funder.invitees.length;\n        funderInfo[3] = funder.earnFromAff;\n        funderInfo[4] = funder.tokenAmount;\n        funderInfo[5] = funder.ethAmount;\n        funderInfo[6] = luckyRewardInstance.luckyFunderTotalBalance(msg.sender);\n        funderInfo[7] = fissionRewardInstance.fissionFunderTotalBalance(msg.sender);\n        funderInfo[8] = FOMORewardInstance.FOMOFunderTotalBalance(msg.sender);\n        funderInfo[9] = faithRewardInstance.faithRewardAmount(msg.sender);\n\n        // emit FunderInfo(funderInfo);\n        return(\n            funderInfo[0],\n            funderInfo[1],\n            funderInfo[2],\n            funderInfo[3],\n            funderInfo[4],\n            funderInfo[5],\n            funderInfo[6],\n            funderInfo[7],\n            funderInfo[8],\n            funderInfo[9]\n        );\n    }\n\n    /// @notice \n    /// @param _promoter msg.sender\n    function _addBuilder(address _promoter) internal {\n        // \n        steps[currentStep].funder[msg.sender].funderAddr = msg.sender;\n        steps[currentStep].funder[msg.sender].promoter = _promoter;\n        steps[currentStep].funder[msg.sender].isBuilder = true;\n    }\n\n    /// @notice hash\n    function getBlockHash() public view returns(bytes32 blockHash) {\n        return blockhash(steps[currentStep].blockNumber.add(1));\n    }\n\n    /// @notice \n    function currentStepIsClosed(uint256 _stepIndex) public view returns(bool) {\n        return steps[_stepIndex].stepIsClosed;\n    }\n\n    bool refundIsFinished;\n\n    /// @notice \n    /// @dev tokenETH\n    function refund() public onlyOwner() returns(bool){\n\n        // \n        require(!refundIsFinished, \"\");\n\n        // \n        uint256 resonanceClosedStep = resonanceDataManage.getResonanceClosedStep();\n        address[] memory funders = steps[resonanceClosedStep].funders;\n\n        // ETH\n        for(uint i = 0; i < funders.length; i++){\n            resonanceDataManage.setETHBalance(\n                funders[i],\n                resonanceDataManage.getETHBalance(funders[i]) + steps[resonanceClosedStep].funder[funders[i]].ethAmount\n            );\n\n            resonanceDataManage.setETHBalance(\n                funders[i],\n                resonanceDataManage.getTokenBalance(funders[i]) + steps[resonanceClosedStep].funder[funders[i]].tokenAmount\n            );\n        }\n\n        refundIsFinished = true;\n\n        return refundIsFinished;\n    }\n\n}",
  "sourcePath": "/Users/a186r/dev/sourcecode/contract/contract/contracts/Resonance.sol",
  "compiler": {
    "name": "solc",
    "version": "0.5.2+commit.1df8f40c.Emscripten.clang"
  },
  "schemaVersion": "3.0.6",
  "updatedAt": "2019-05-29T08:40:40.788Z",
  "devdoc": {
    "methods": {
      "constructor": {
        "params": {
          "_abcToken": "Token"
        }
      },
      "getStepFunders(uint256)": {
        "details": "funders",
        "params": {
          "_stepIndex": ""
        }
      },
      "initParamForFirstStep(address,address,address)": {
        "details": "ResonanceDataManage"
      },
      "isBuilder()": {
        "details": "jointlyBuildtoBeFissionPerson"
      },
      "isOwner()": {
        "return": "true if `msg.sender` is the owner of the contract."
      },
      "owner()": {
        "return": "the address of the owner."
      },
      "refund()": {
        "details": "tokenETH"
      },
      "renounceOwnership()": {
        "details": "Allows the current owner to relinquish control of the contract. It will not be possible to call the functions with the `onlyOwner` modifier anymore."
      },
      "setRaiseTarget(uint256)": {
        "details": ""
      },
      "settlementFaithReward(address[])": {
        "params": {
          "_FaithWinnerList": ""
        }
      },
      "settlementStep(address[],address[])": {
        "details": "",
        "params": {
          "_LuckyWinnerList": "",
          "_fissionWinnerList": ""
        }
      },
      "toBeFissionPerson(address)": {
        "details": "TokenApprove",
        "params": {
          "promoter": ""
        }
      },
      "transferOwnership(address)": {
        "details": "Allows the current owner to transfer control of the contract to a newOwner.",
        "params": {
          "newOwner": "The address to transfer ownership to."
        }
      }
    }
  },
  "userdoc": {
    "methods": {
      "constructor": "",
      "currentStepIsClosed(uint256)": {
        "notice": ""
      },
      "getBlockHash()": {
        "notice": "hash"
      },
      "getBuildingPerioInfo()": {
        "notice": ""
      },
      "getCurrentStepFundsInfo()": {
        "notice": "tokenETH"
      },
      "getFunderInfo()": {
        "notice": ""
      },
      "getFunderTotalRaised(address)": {
        "notice": "ETH"
      },
      "getRaiseTarget(uint256)": {
        "notice": ""
      },
      "getResonances()": {
        "notice": ""
      },
      "getStepFunders(uint256)": {
        "notice": "funders"
      },
      "initParamForFirstStep(address,address,address)": {
        "notice": ""
      },
      "isBuilder()": {
        "notice": ""
      },
      "isFunder()": {
        "notice": ""
      },
      "refund()": {
        "notice": ""
      },
      "renounceOwnership()": {
        "notice": "Renouncing ownership will leave the contract without an owner, thereby removing any functionality that is only available to the owner."
      },
      "setRaiseTarget(uint256)": {
        "notice": ""
      },
      "settlementFaithReward(address[])": {
        "notice": ""
      },
      "settlementStep(address[],address[])": {
        "notice": ""
      },
      "toBeFissionPerson(address)": {
        "notice": ""
      },
      "transferToken()": {
        "notice": "Token"
      },
      "withdrawAllETH()": {
        "notice": "(ETH)"
      },
      "withdrawAllToken()": {
        "notice": "tokentoken"
      }
    }
  }
}