{
  "contractName": "Resonance",
  "abi": [
    {
      "constant": true,
      "inputs": [],
      "name": "beneficiary",
      "outputs": [
        {
          "name": "",
          "type": "address"
        }
      ],
      "payable": false,
      "stateMutability": "view",
      "type": "function"
    },
    {
      "constant": true,
      "inputs": [],
      "name": "currentStep",
      "outputs": [
        {
          "name": "",
          "type": "uint256"
        }
      ],
      "payable": false,
      "stateMutability": "view",
      "type": "function"
    },
    {
      "constant": false,
      "inputs": [],
      "name": "renounceOwnership",
      "outputs": [],
      "payable": false,
      "stateMutability": "nonpayable",
      "type": "function"
    },
    {
      "constant": true,
      "inputs": [],
      "name": "owner",
      "outputs": [
        {
          "name": "",
          "type": "address"
        }
      ],
      "payable": false,
      "stateMutability": "view",
      "type": "function"
    },
    {
      "constant": true,
      "inputs": [],
      "name": "isOwner",
      "outputs": [
        {
          "name": "",
          "type": "bool"
        }
      ],
      "payable": false,
      "stateMutability": "view",
      "type": "function"
    },
    {
      "constant": true,
      "inputs": [],
      "name": "initialFissionPerson",
      "outputs": [
        {
          "name": "",
          "type": "address"
        }
      ],
      "payable": false,
      "stateMutability": "view",
      "type": "function"
    },
    {
      "constant": true,
      "inputs": [],
      "name": "totalETHFromParty",
      "outputs": [
        {
          "name": "",
          "type": "uint256"
        }
      ],
      "payable": false,
      "stateMutability": "view",
      "type": "function"
    },
    {
      "constant": true,
      "inputs": [
        {
          "name": "",
          "type": "address"
        }
      ],
      "name": "isBuilder",
      "outputs": [
        {
          "name": "",
          "type": "bool"
        }
      ],
      "payable": false,
      "stateMutability": "view",
      "type": "function"
    },
    {
      "constant": true,
      "inputs": [],
      "name": "firstParamInitialized",
      "outputs": [
        {
          "name": "",
          "type": "bool"
        }
      ],
      "payable": false,
      "stateMutability": "view",
      "type": "function"
    },
    {
      "constant": true,
      "inputs": [
        {
          "name": "",
          "type": "uint256"
        }
      ],
      "name": "tokenTransfered",
      "outputs": [
        {
          "name": "",
          "type": "bool"
        }
      ],
      "payable": false,
      "stateMutability": "view",
      "type": "function"
    },
    {
      "constant": true,
      "inputs": [],
      "name": "abcToken",
      "outputs": [
        {
          "name": "",
          "type": "address"
        }
      ],
      "payable": false,
      "stateMutability": "view",
      "type": "function"
    },
    {
      "constant": false,
      "inputs": [
        {
          "name": "newOwner",
          "type": "address"
        }
      ],
      "name": "transferOwnership",
      "outputs": [],
      "payable": false,
      "stateMutability": "nonpayable",
      "type": "function"
    },
    {
      "inputs": [
        {
          "name": "_resonanceDataManageAddress",
          "type": "address"
        },
        {
          "name": "_abcToken",
          "type": "address"
        },
        {
          "name": "_fassionRewardAddress",
          "type": "address"
        },
        {
          "name": "_FOMORewardAddress",
          "type": "address"
        },
        {
          "name": "_luckyRewardAddress",
          "type": "address"
        },
        {
          "name": "_faithRewardAddress",
          "type": "address"
        }
      ],
      "payable": false,
      "stateMutability": "nonpayable",
      "type": "constructor"
    },
    {
      "payable": true,
      "stateMutability": "payable",
      "type": "fallback"
    },
    {
      "anonymous": false,
      "inputs": [
        {
          "indexed": true,
          "name": "fissionPerson",
          "type": "address"
        },
        {
          "indexed": true,
          "name": "promoter",
          "type": "address"
        }
      ],
      "name": "ToBeFissionPerson",
      "type": "event"
    },
    {
      "anonymous": false,
      "inputs": [
        {
          "indexed": false,
          "name": "currentStepTokenAmount",
          "type": "uint256"
        },
        {
          "indexed": false,
          "name": "currentStepRaisedETH",
          "type": "uint256"
        }
      ],
      "name": "FundsInfo",
      "type": "event"
    },
    {
      "anonymous": false,
      "inputs": [
        {
          "indexed": false,
          "name": "bpCountdown",
          "type": "uint256"
        },
        {
          "indexed": false,
          "name": "remainingToken",
          "type": "uint256"
        },
        {
          "indexed": false,
          "name": "personalTokenLimited",
          "type": "uint256"
        },
        {
          "indexed": false,
          "name": "totalTokenAmount",
          "type": "uint256"
        }
      ],
      "name": "BuildingPerioInfo",
      "type": "event"
    },
    {
      "anonymous": false,
      "inputs": [
        {
          "indexed": false,
          "name": "fpCountdown",
          "type": "uint256"
        },
        {
          "indexed": false,
          "name": "remainingETH",
          "type": "uint256"
        },
        {
          "indexed": false,
          "name": "rasiedETHAmount",
          "type": "uint256"
        }
      ],
      "name": "FundingPeriodInfo",
      "type": "event"
    },
    {
      "anonymous": false,
      "inputs": [
        {
          "indexed": false,
          "name": "fissionRewardList",
          "type": "address[]"
        },
        {
          "indexed": false,
          "name": "fissionRewardAmount",
          "type": "uint256[]"
        }
      ],
      "name": "FissionRewardInfo",
      "type": "event"
    },
    {
      "anonymous": false,
      "inputs": [
        {
          "indexed": false,
          "name": "FOMORewardList",
          "type": "address[]"
        },
        {
          "indexed": false,
          "name": "FOMORewards",
          "type": "uint256[]"
        }
      ],
      "name": "FOMORewardInfo",
      "type": "event"
    },
    {
      "anonymous": false,
      "inputs": [
        {
          "indexed": false,
          "name": "luckyRewardList",
          "type": "address[]"
        },
        {
          "indexed": false,
          "name": "luckyReward",
          "type": "uint256"
        }
      ],
      "name": "LuckyRewardInfo",
      "type": "event"
    },
    {
      "anonymous": false,
      "inputs": [
        {
          "indexed": false,
          "name": "faithRewardList",
          "type": "address[]"
        },
        {
          "indexed": false,
          "name": "faithRewardAmount",
          "type": "uint256[]"
        }
      ],
      "name": "FaithRewardInfo",
      "type": "event"
    },
    {
      "anonymous": false,
      "inputs": [
        {
          "indexed": false,
          "name": "addr",
          "type": "address"
        },
        {
          "indexed": false,
          "name": "ETHAmount",
          "type": "uint256"
        }
      ],
      "name": "WithdrawAllETH",
      "type": "event"
    },
    {
      "anonymous": false,
      "inputs": [
        {
          "indexed": false,
          "name": "from",
          "type": "address"
        },
        {
          "indexed": false,
          "name": "to",
          "type": "address"
        },
        {
          "indexed": false,
          "name": "tokenAmount",
          "type": "uint256"
        }
      ],
      "name": "WithdrawAllToken",
      "type": "event"
    },
    {
      "anonymous": false,
      "inputs": [
        {
          "indexed": false,
          "name": "FunderInfoArray",
          "type": "uint256[]"
        }
      ],
      "name": "FunderInfo",
      "type": "event"
    },
    {
      "anonymous": false,
      "inputs": [
        {
          "indexed": false,
          "name": "funderAddress",
          "type": "address[]"
        },
        {
          "indexed": false,
          "name": "funderTokenAmount",
          "type": "uint256[]"
        },
        {
          "indexed": false,
          "name": "funderETHAmount",
          "type": "uint256[]"
        },
        {
          "indexed": false,
          "name": "funderInvitees",
          "type": "uint256[]"
        },
        {
          "indexed": false,
          "name": "funderEarnFromAff",
          "type": "uint256[]"
        }
      ],
      "name": "StepFunders",
      "type": "event"
    },
    {
      "anonymous": false,
      "inputs": [
        {
          "indexed": false,
          "name": "stepIndex",
          "type": "uint256"
        }
      ],
      "name": "SettlementStep",
      "type": "event"
    },
    {
      "anonymous": false,
      "inputs": [
        {
          "indexed": false,
          "name": "stepIndex",
          "type": "uint256"
        }
      ],
      "name": "StartNextStep",
      "type": "event"
    },
    {
      "anonymous": false,
      "inputs": [
        {
          "indexed": false,
          "name": "stepIndex",
          "type": "uint256"
        },
        {
          "indexed": false,
          "name": "raiseTarget",
          "type": "uint256"
        }
      ],
      "name": "SetRaiseTarget",
      "type": "event"
    },
    {
      "anonymous": false,
      "inputs": [
        {
          "indexed": false,
          "name": "resonances",
          "type": "address[]"
        }
      ],
      "name": "GetResonances",
      "type": "event"
    },
    {
      "anonymous": false,
      "inputs": [
        {
          "indexed": false,
          "name": "resonancesRasiedETH",
          "type": "uint256"
        }
      ],
      "name": "FunderTotalRaised",
      "type": "event"
    },
    {
      "anonymous": false,
      "inputs": [
        {
          "indexed": true,
          "name": "previousOwner",
          "type": "address"
        },
        {
          "indexed": true,
          "name": "newOwner",
          "type": "address"
        }
      ],
      "name": "OwnershipTransferred",
      "type": "event"
    },
    {
      "constant": false,
      "inputs": [
        {
          "name": "_newOwner",
          "type": "address"
        },
        {
          "name": "_beneficiary",
          "type": "address"
        },
        {
          "name": "_initialFissionPerson",
          "type": "address"
        }
      ],
      "name": "initParamForFirstStep",
      "outputs": [],
      "payable": false,
      "stateMutability": "nonpayable",
      "type": "function"
    },
    {
      "constant": false,
      "inputs": [
        {
          "name": "promoter",
          "type": "address"
        }
      ],
      "name": "toBeFissionPerson",
      "outputs": [
        {
          "name": "",
          "type": "address"
        },
        {
          "name": "",
          "type": "address"
        }
      ],
      "payable": false,
      "stateMutability": "nonpayable",
      "type": "function"
    },
    {
      "constant": false,
      "inputs": [
        {
          "name": "_raiseTarget",
          "type": "uint256"
        }
      ],
      "name": "setRaiseTarget",
      "outputs": [
        {
          "name": "",
          "type": "uint256"
        },
        {
          "name": "",
          "type": "uint256"
        }
      ],
      "payable": false,
      "stateMutability": "nonpayable",
      "type": "function"
    },
    {
      "constant": true,
      "inputs": [
        {
          "name": "_stepIndex",
          "type": "uint256"
        }
      ],
      "name": "getRaiseTarget",
      "outputs": [
        {
          "name": "",
          "type": "uint256"
        }
      ],
      "payable": false,
      "stateMutability": "view",
      "type": "function"
    },
    {
      "constant": false,
      "inputs": [
        {
          "name": "_tokenAmount",
          "type": "uint256"
        }
      ],
      "name": "jointlyBuild",
      "outputs": [],
      "payable": false,
      "stateMutability": "nonpayable",
      "type": "function"
    },
    {
      "constant": false,
      "inputs": [],
      "name": "transferToken",
      "outputs": [
        {
          "name": "",
          "type": "bool"
        }
      ],
      "payable": true,
      "stateMutability": "payable",
      "type": "function"
    },
    {
      "constant": false,
      "inputs": [
        {
          "name": "_fissionWinnerList",
          "type": "address[]"
        },
        {
          "name": "_LuckyWinnerList",
          "type": "address[]"
        }
      ],
      "name": "settlementStep",
      "outputs": [
        {
          "name": "",
          "type": "bool"
        }
      ],
      "payable": false,
      "stateMutability": "nonpayable",
      "type": "function"
    },
    {
      "constant": false,
      "inputs": [
        {
          "name": "_FaithWinnerList",
          "type": "address[]"
        }
      ],
      "name": "settlementFaithReward",
      "outputs": [
        {
          "name": "",
          "type": "bool"
        }
      ],
      "payable": false,
      "stateMutability": "nonpayable",
      "type": "function"
    },
    {
      "constant": false,
      "inputs": [],
      "name": "withdrawAllToken",
      "outputs": [
        {
          "name": "",
          "type": "address"
        },
        {
          "name": "",
          "type": "address"
        },
        {
          "name": "",
          "type": "uint256"
        }
      ],
      "payable": true,
      "stateMutability": "payable",
      "type": "function"
    },
    {
      "constant": false,
      "inputs": [],
      "name": "withdrawAllETH",
      "outputs": [
        {
          "name": "",
          "type": "address"
        },
        {
          "name": "",
          "type": "uint256"
        }
      ],
      "payable": true,
      "stateMutability": "payable",
      "type": "function"
    },
    {
      "constant": false,
      "inputs": [],
      "name": "withdrawAllETHByOwner",
      "outputs": [],
      "payable": true,
      "stateMutability": "payable",
      "type": "function"
    },
    {
      "constant": true,
      "inputs": [],
      "name": "isFunder",
      "outputs": [
        {
          "name": "",
          "type": "bool"
        }
      ],
      "payable": false,
      "stateMutability": "view",
      "type": "function"
    },
    {
      "constant": true,
      "inputs": [
        {
          "name": "_stepIndex",
          "type": "uint256"
        }
      ],
      "name": "isFunderByStep",
      "outputs": [
        {
          "name": "",
          "type": "bool"
        }
      ],
      "payable": false,
      "stateMutability": "view",
      "type": "function"
    },
    {
      "constant": true,
      "inputs": [
        {
          "name": "_funder",
          "type": "address"
        }
      ],
      "name": "getInvitees",
      "outputs": [
        {
          "name": "",
          "type": "address[]"
        }
      ],
      "payable": false,
      "stateMutability": "view",
      "type": "function"
    },
    {
      "constant": true,
      "inputs": [],
      "name": "getResonances",
      "outputs": [
        {
          "name": "",
          "type": "address[]"
        }
      ],
      "payable": false,
      "stateMutability": "view",
      "type": "function"
    },
    {
      "constant": true,
      "inputs": [
        {
          "name": "_funder",
          "type": "address"
        }
      ],
      "name": "getFunderTotalRaised",
      "outputs": [
        {
          "name": "",
          "type": "uint256"
        }
      ],
      "payable": false,
      "stateMutability": "view",
      "type": "function"
    },
    {
      "constant": true,
      "inputs": [
        {
          "name": "_stepIndex",
          "type": "uint256"
        }
      ],
      "name": "getStepFunders",
      "outputs": [
        {
          "name": "",
          "type": "address[]"
        },
        {
          "name": "",
          "type": "uint256[]"
        },
        {
          "name": "",
          "type": "uint256[]"
        },
        {
          "name": "",
          "type": "uint256[]"
        },
        {
          "name": "",
          "type": "uint256[]"
        },
        {
          "name": "",
          "type": "uint256[]"
        }
      ],
      "payable": false,
      "stateMutability": "view",
      "type": "function"
    },
    {
      "constant": true,
      "inputs": [],
      "name": "getCurrentStepFundsInfo",
      "outputs": [
        {
          "name": "",
          "type": "uint256"
        },
        {
          "name": "",
          "type": "uint256"
        },
        {
          "name": "",
          "type": "uint256"
        }
      ],
      "payable": false,
      "stateMutability": "view",
      "type": "function"
    },
    {
      "constant": true,
      "inputs": [],
      "name": "getBuildingPerioInfo",
      "outputs": [
        {
          "name": "",
          "type": "uint256"
        },
        {
          "name": "",
          "type": "uint256"
        },
        {
          "name": "",
          "type": "uint256"
        },
        {
          "name": "",
          "type": "uint256"
        }
      ],
      "payable": false,
      "stateMutability": "view",
      "type": "function"
    },
    {
      "constant": true,
      "inputs": [],
      "name": "getFundingPeriodInfo",
      "outputs": [
        {
          "name": "",
          "type": "uint256"
        },
        {
          "name": "",
          "type": "uint256"
        },
        {
          "name": "",
          "type": "uint256"
        }
      ],
      "payable": false,
      "stateMutability": "view",
      "type": "function"
    },
    {
      "constant": true,
      "inputs": [
        {
          "name": "_stepIndex",
          "type": "uint256"
        }
      ],
      "name": "getFunderInfo",
      "outputs": [
        {
          "name": "",
          "type": "uint256"
        },
        {
          "name": "",
          "type": "uint256"
        },
        {
          "name": "",
          "type": "uint256"
        },
        {
          "name": "",
          "type": "uint256"
        },
        {
          "name": "",
          "type": "uint256"
        },
        {
          "name": "",
          "type": "uint256"
        },
        {
          "name": "",
          "type": "bytes"
        },
        {
          "name": "",
          "type": "bytes"
        },
        {
          "name": "",
          "type": "bytes"
        },
        {
          "name": "",
          "type": "bytes"
        }
      ],
      "payable": false,
      "stateMutability": "view",
      "type": "function"
    },
    {
      "constant": true,
      "inputs": [
        {
          "name": "_stepIndex",
          "type": "uint256"
        }
      ],
      "name": "getBlockHash",
      "outputs": [
        {
          "name": "",
          "type": "bytes32"
        }
      ],
      "payable": false,
      "stateMutability": "view",
      "type": "function"
    },
    {
      "constant": false,
      "inputs": [
        {
          "name": "_stepIndex",
          "type": "uint256"
        }
      ],
      "name": "setBlockHash",
      "outputs": [
        {
          "name": "",
          "type": "bool"
        }
      ],
      "payable": false,
      "stateMutability": "nonpayable",
      "type": "function"
    },
    {
      "constant": true,
      "inputs": [
        {
          "name": "_stepIndex",
          "type": "uint256"
        }
      ],
      "name": "currentStepIsClosed",
      "outputs": [
        {
          "name": "",
          "type": "bool"
        }
      ],
      "payable": false,
      "stateMutability": "view",
      "type": "function"
    },
    {
      "constant": false,
      "inputs": [],
      "name": "refund",
      "outputs": [
        {
          "name": "",
          "type": "bool"
        }
      ],
      "payable": false,
      "stateMutability": "nonpayable",
      "type": "function"
    }
  ],
  "bytecode": "0x608060405234801561001057600080fd5b5060405160c08062005867833981018060405260c081101561003157600080fd5b50805160208201516040808401516060850151608086015160a09096015160008054600160a060020a03191633178082559451969795969395929492939192600160a060020a0316917f8be0079c531659141344cd1fd0a4f28419497f9722a3daafe3b4186f6b6457e0908290a360028054600160a060020a03978816600160a060020a0319918216179091556005805495881695821695909517909455600680549387169385169390931790925560078054918616918416919091179055600880549185169183169190911790556000600c556001805492909316911617905561574580620001226000396000f3fe60806040526004361061021e5760003560e060020a90048063912c84ec11610127578063d50cf02d116100af578063e757412811610073578063e757412814610fab578063e9881a5e14610fc0578063ee82ac5e14610ff3578063f2fde38b1461101d578063feaec775146110505761021e565b8063d50cf02d14610e86578063db27cf6114610ecb578063de3844ff14610ef5578063de45dbd514610f4e578063e15ce92714610f785761021e565b8063b4c06982116100f6578063b4c0698214610ced578063b5ac72b514610cf5578063b6b6b47514610e29578063c12cd1bc14610e5c578063c2cb21ba14610e715761021e565b8063912c84ec14610c515780639642a86b14610c84578063a41e5bff14610c99578063b4862a7114610cc35761021e565b80635deac38b116101aa578063891d7e7911610179578063891d7e7914610b825780638da5cb5b14610be75780638f32d59b14610bfc57806390386bbf14610c1157806390fa85f814610c3c5761021e565b80635deac38b14610a7857806364ab07fa14610b28578063715018a614610b63578063799a535914610b7a5761021e565b80634559ff9b116101f15780634559ff9b146109915780634c090a97146109d457806356d1121a14610a12578063590e1ae314610a3c5780635bc34f7114610a515761021e565b8063099121831461055957806314870d2c1461075757806316b297461461078957806338af3eed14610960575b600260009054906101000a9004600160a060020a0316600160a060020a03166374ebae066040518163ffffffff1660e060020a02815260040160206040518083038186803b15801561026f57600080fd5b505afa158015610283573d6000803e3d6000fd5b505050506040513d602081101561029957600080fd5b505115156102f1576040805160e560020a62461bcd02815260206004820152601260248201527fe4b88de59ca8e58b9fe8b584e69c9fe586850000000000000000000000000000604482015290519081900360640190fd5b600260009054906101000a9004600160a060020a0316600160a060020a031663743acbab6040518163ffffffff1660e060020a02815260040160206040518083038186803b15801561034257600080fd5b505afa158015610356573d6000803e3d6000fd5b505050506040513d602081101561036c57600080fd5b5051156103c3576040805160e560020a62461bcd02815260206004820152601260248201527fe585b1e68cafe5b7b2e7bb8fe7bb93e69d9f0000000000000000000000000000604482015290519081900360640190fd5b600c546000908152600d6020526040902060068101546007909101543491906103f390839063ffffffff61106516565b11156104335760405160e560020a62461bcd0281526004018080602001828103825260248152602001806156446024913960400191505060405180910390fd5b600c546000908152600d6020908152604080832033845290915290206006015460a060020a900460ff16151561049857600c546000908152600d60209081526040822060019081018054918201815583529120018054600160a060020a031916331790555b600c80546000908152600d6020818152604080842033808652908352818520600201805488019055855485528383528185208186528352818520600601805474ff0000000000000000000000000000000000000000191660a060020a1790559454845291815281832060070180548601905560098054600181019091557f6e1540171b6c0c960b71a7020d9f60077f6af931a8bbf590da0223dacf75c7af018054600160a060020a03191685179055928252600a9092522080549091019055005b34801561056557600080fd5b506105836004803603602081101561057c57600080fd5b5035611080565b604051808b81526020018a815260200189815260200188815260200187815260200186815260200180602001806020018060200180602001858103855289818151815260200191508051906020019080838360005b838110156105f05781810151838201526020016105d8565b50505050905090810190601f16801561061d5780820380516001836020036101000a031916815260200191505b5085810384528851815288516020918201918a019080838360005b83811015610650578181015183820152602001610638565b50505050905090810190601f16801561067d5780820380516001836020036101000a031916815260200191505b50858103835287518152875160209182019189019080838360005b838110156106b0578181015183820152602001610698565b50505050905090810190601f1680156106dd5780820380516001836020036101000a031916815260200191505b50858103825286518152865160209182019188019080838360005b838110156107105781810151838201526020016106f8565b50505050905090810190601f16801561073d5780820380516001836020036101000a031916815260200191505b509e50505050505050505050505050505060405180910390f35b61075f611a6d565b60408051600160a060020a0394851681529290931660208301528183015290519081900360600190f35b34801561079557600080fd5b506107b3600480360360208110156107ac57600080fd5b5035611ddf565b6040518080602001806020018060200180602001806020018060200187810387528d818151815260200191508051906020019060200280838360005b838110156108075781810151838201526020016107ef565b5050505090500187810386528c818151815260200191508051906020019060200280838360005b8381101561084657818101518382015260200161082e565b5050505090500187810385528b818151815260200191508051906020019060200280838360005b8381101561088557818101518382015260200161086d565b5050505090500187810384528a818151815260200191508051906020019060200280838360005b838110156108c45781810151838201526020016108ac565b50505050905001878103835289818151815260200191508051906020019060200280838360005b838110156109035781810151838201526020016108eb565b50505050905001878103825288818151815260200191508051906020019060200280838360005b8381101561094257818101518382015260200161092a565b505050509050019c5050505050505050505050505060405180910390f35b34801561096c57600080fd5b506109756121cc565b60408051600160a060020a039092168252519081900360200190f35b34801561099d57600080fd5b506109bb600480360360208110156109b457600080fd5b50356121db565b6040805192835260208301919091528051918290030190f35b3480156109e057600080fd5b506109fe600480360360208110156109f757600080fd5b5035612333565b604080519115158252519081900360200190f35b348015610a1e57600080fd5b506109fe60048036036020811015610a3557600080fd5b5035612360565b348015610a4857600080fd5b506109fe61237d565b348015610a5d57600080fd5b50610a66612832565b60408051918252519081900360200190f35b348015610a8457600080fd5b506109fe60048036036020811015610a9b57600080fd5b810190602081018135640100000000811115610ab657600080fd5b820183602082011115610ac857600080fd5b80359060200191846020830284011164010000000083111715610aea57600080fd5b919080806020026020016040519081016040528093929190818152602001838360200280828437600092019190915250929550612838945050505050565b348015610b3457600080fd5b50610b3d6129ff565b604080519485526020850193909352838301919091526060830152519081900360800190f35b348015610b6f57600080fd5b50610b78612bfc565b005b6109fe612c59565b348015610b8e57600080fd5b50610b97612fbf565b60408051602080825283518183015283519192839290830191858101910280838360005b83811015610bd3578181015183820152602001610bbb565b505050509050019250505060405180910390f35b348015610bf357600080fd5b50610975613034565b348015610c0857600080fd5b506109fe613043565b610c19613054565b60408051600160a060020a03909316835260208301919091528051918290030190f35b348015610c4857600080fd5b50610975613277565b348015610c5d57600080fd5b50610c66613286565b60408051938452602084019290925282820152519081900360600190f35b348015610c9057600080fd5b50610a666132a7565b348015610ca557600080fd5b506109fe60048036036020811015610cbc57600080fd5b50356132ad565b348015610ccf57600080fd5b50610b7860048036036020811015610ce657600080fd5b50356132ea565b610b78613a52565b348015610d0157600080fd5b506109fe60048036036040811015610d1857600080fd5b810190602081018135640100000000811115610d3357600080fd5b820183602082011115610d4557600080fd5b80359060200191846020830284011164010000000083111715610d6757600080fd5b9190808060200260200160405190810160405280939291908181526020018383602002808284376000920191909152509295949360208101935035915050640100000000811115610db757600080fd5b820183602082011115610dc957600080fd5b80359060200191846020830284011164010000000083111715610deb57600080fd5b919080806020026020016040519081016040528093929190818152602001838360200280828437600092019190915250929550613aa2945050505050565b348015610e3557600080fd5b506109fe60048036036020811015610e4c57600080fd5b5035600160a060020a0316613d47565b348015610e6857600080fd5b50610c66613d5c565b348015610e7d57600080fd5b506109fe613e7d565b348015610e9257600080fd5b50610b7860048036036060811015610ea957600080fd5b50600160a060020a038135811691602081013582169160409091013516613e86565b348015610ed757600080fd5b50610a6660048036036020811015610eee57600080fd5b5035614178565b348015610f0157600080fd5b50610f2860048036036020811015610f1857600080fd5b5035600160a060020a031661418d565b60408051600160a060020a03938416815291909216602082015281519081900390910190f35b348015610f5a57600080fd5b506109fe60048036036020811015610f7157600080fd5b5035614ab0565b348015610f8457600080fd5b50610a6660048036036020811015610f9b57600080fd5b5035600160a060020a0316614ac5565b348015610fb757600080fd5b50610975614af6565b348015610fcc57600080fd5b50610b9760048036036020811015610fe357600080fd5b5035600160a060020a0316614b05565b348015610fff57600080fd5b50610a666004803603602081101561101657600080fd5b5035614b88565b34801561102957600080fd5b50610b786004803603602081101561104057600080fd5b5035600160a060020a0316614ba1565b34801561105c57600080fd5b506109fe614bbd565b60008282018381101561107757600080fd5b90505b92915050565b6000806000806000806060806060806060600a6040519080825280602002602001820160405280156110bc578160200160208202803883390190505b5090506110c76154aa565b60008d8152600d602090815260408083203384528252918290208251610180810184528154600160a060020a03168152600182015481840152600282015481850152600382018054855181860281018601909652808652919492936060860193929083018282801561116257602002820191906000526020600020905b8154600160a060020a03168152600190910190602001808311611144575b505050918352505060048201546020820152600582015460408201526006820154600160a060020a038116606083015260ff60a060020a8204811615156080840152750100000000000000000000000000000000000000000082048116151560a084015276010000000000000000000000000000000000000000000090910416151560c0820152600782015460e082015260089091015461010090910152905061120b8d614bea565b82600081518110151561121a57fe5b6020908102909101810191909152600254604080517f3bb66a7b0000000000000000000000000000000000000000000000000000000081523360048201529051600160a060020a0390921692633bb66a7b92602480840193829003018186803b15801561128657600080fd5b505afa15801561129a573d6000803e3d6000fd5b505050506040513d60208110156112b057600080fd5b50518251839060019081106112c157fe5b602090810290910101526060810151518251839060029081106112e057fe5b6020908102909101015260a08101518251839060039081106112fe57fe5b9060200190602002018181525050806020015182600481518110151561132057fe5b60209081029091010152604081015182518390600590811061133e57fe5b6020908102909101810191909152600754604080517fc28a1af30000000000000000000000000000000000000000000000000000000081523360048201529051600160a060020a039092169263c28a1af392602480840193829003018186803b1580156113aa57600080fd5b505afa1580156113be573d6000803e3d6000fd5b505050506040513d60208110156113d457600080fd5b50518251839060069081106113e557fe5b6020908102909101810191909152600554604080517f0df2019a0000000000000000000000000000000000000000000000000000000081523360048201529051600160a060020a0390921692630df2019a92602480840193829003018186803b15801561145157600080fd5b505afa158015611465573d6000803e3d6000fd5b505050506040513d602081101561147b57600080fd5b505182518390600790811061148c57fe5b6020908102909101810191909152600654604080517fc75355670000000000000000000000000000000000000000000000000000000081523360048201529051600160a060020a039092169263c753556792602480840193829003018186803b1580156114f857600080fd5b505afa15801561150c573d6000803e3d6000fd5b505050506040513d602081101561152257600080fd5b505182518390600890811061153357fe5b6020908102909101810191909152600854604080517f4a6817870000000000000000000000000000000000000000000000000000000081523360048201529051600160a060020a0390921692634a68178792602480840193829003018186803b15801561159f57600080fd5b505afa1580156115b3573d6000803e3d6000fd5b505050506040513d60208110156115c957600080fd5b50518251839060099081106115da57fe5b602090810290910101528151829060009081106115f357fe5b9060200190602002015182600181518110151561160c57fe5b9060200190602002015183600281518110151561162557fe5b9060200190602002015184600381518110151561163e57fe5b9060200190602002015185600481518110151561165757fe5b9060200190602002015186600581518110151561167057fe5b9060200190602002015173__UintUtils_____________________________63775a8f5e8960068151811015156116a357fe5b906020019060200201516040518263ffffffff1660e060020a0281526004018082815260200191505060006040518083038186803b1580156116e457600080fd5b505af41580156116f8573d6000803e3d6000fd5b505050506040513d6000823e601f3d908101601f19168201604052602081101561172157600080fd5b81019080805164010000000081111561173957600080fd5b8201602081018481111561174c57600080fd5b815164010000000081118282018710171561176657600080fd5b505092919050505073__UintUtils_____________________________63775a8f5e8a600781518110151561179757fe5b906020019060200201516040518263ffffffff1660e060020a0281526004018082815260200191505060006040518083038186803b1580156117d857600080fd5b505af41580156117ec573d6000803e3d6000fd5b505050506040513d6000823e601f3d908101601f19168201604052602081101561181557600080fd5b81019080805164010000000081111561182d57600080fd5b8201602081018481111561184057600080fd5b815164010000000081118282018710171561185a57600080fd5b505092919050505073__UintUtils_____________________________63775a8f5e8b600881518110151561188b57fe5b906020019060200201516040518263ffffffff1660e060020a0281526004018082815260200191505060006040518083038186803b1580156118cc57600080fd5b505af41580156118e0573d6000803e3d6000fd5b505050506040513d6000823e601f3d908101601f19168201604052602081101561190957600080fd5b81019080805164010000000081111561192157600080fd5b8201602081018481111561193457600080fd5b815164010000000081118282018710171561194e57600080fd5b505092919050505073__UintUtils_____________________________63775a8f5e8c600981518110151561197f57fe5b906020019060200201516040518263ffffffff1660e060020a0281526004018082815260200191505060006040518083038186803b1580156119c057600080fd5b505af41580156119d4573d6000803e3d6000fd5b505050506040513d6000823e601f3d908101601f1916820160405260208110156119fd57600080fd5b810190808051640100000000811115611a1557600080fd5b82016020810184811115611a2857600080fd5b8151640100000000811182820187101715611a4257600080fd5b50509291905050509b509b509b509b509b509b509b509b509b509b5050509193959799509193959799565b600080600080611a896001600c54614c2e90919063ffffffff16565b6000818152600d6020908152604080832033845290915290206006015490915060a060020a900460ff161515611af35760405160e560020a62461bcd02815260040180806020018281038252602a815260200180615573602a913960400191505060405180910390fd5b6000818152600d602090815260408083203384529091529020600601547501000000000000000000000000000000000000000000900460ff1615611b6b5760405160e560020a62461bcd02815260040180806020018281038252602c815260200180615698602c913960400191505060405180910390fd5b6000818152600d6020908152604080832033845290915281206002015411611bc75760405160e560020a62461bcd02815260040180806020018281038252603581526020018061560f6035913960400191505060405180910390fd5b6000818152600d602052604081206007015411611c185760405160e560020a62461bcd0281526004018080602001828103825260258152602001806155ea6025913960400191505060405180910390fd5b6000818152600d6020818152604080842060078101543386528184529185206002015486865293909252600490910154611c6892611c5c919063ffffffff614c4316565b9063ffffffff614c6e16565b600254604080517f430c67c40000000000000000000000000000000000000000000000000000000081523360048201529051929350600160a060020a039091169163430c67c49160248082019260009290919082900301818387803b158015611cd057600080fd5b505af1158015611ce4573d6000803e3d6000fd5b5050506000838152600d6020908152604080832033808552908352818420600601805475ff0000000000000000000000000000000000000000001916750100000000000000000000000000000000000000000017905560015482517fa9059cbb0000000000000000000000000000000000000000000000000000000081526004810192909252602482018790529151600160a060020a0392909216945063a9059cbb9360448083019493928390030190829087803b158015611da557600080fd5b505af1158015611db9573d6000803e3d6000fd5b505050506040513d6020811015611dcf57600080fd5b5030963396509194509092505050565b606080606080606080611df0613043565b1515611dfb57600080fd5b606080606080606080600d60008e815260200190815260200160002060010180549050604051908082528060200260200182016040528015611e47578160200160208202803883390190505b5095508551604051908082528060200260200182016040528015611e75578160200160208202803883390190505b5094508551604051908082528060200260200182016040528015611ea3578160200160208202803883390190505b5093508551604051908082528060200260200182016040528015611ed1578160200160208202803883390190505b5092508551604051908082528060200260200182016040528015611eff578160200160208202803883390190505b5091508551604051908082528060200260200182016040528015611f2d578160200160208202803883390190505b5060008e8152600d60209081526040918290206001018054835181840281018401909452808452939450919290830182828015611f9357602002820191906000526020600020905b8154600160a060020a03168152600190910190602001808311611f75575b50939950600093505050505b86518110156121b75760008e8152600d602052604081208851909190899084908110611fc757fe5b90602001906020020151600160a060020a0316600160a060020a0316815260200190815260200160002060010154868281518110151561200357fe5b602090810290910181019190915260008f8152600d90915260408120885190919089908490811061203057fe5b90602001906020020151600160a060020a0316600160a060020a0316815260200190815260200160002060020154858281518110151561206c57fe5b602090810290910181019190915260008f8152600d90915260408120885190919089908490811061209957fe5b6020908102909101810151600160a060020a031682528101919091526040016000206003015484518590839081106120cd57fe5b6020908102909101810191909152600c546000908152600d9091526040812088519091908990849081106120fd57fe5b90602001906020020151600160a060020a0316600160a060020a0316815260200190815260200160002060050154838281518110151561213957fe5b6020908102909101810191909152600c546000908152600d90915260408120885190919089908490811061216957fe5b90602001906020020151600160a060020a0316600160a060020a031681526020019081526020016000206004015482828151811015156121a557fe5b60209081029091010152600101611f9f565b50949c939b5091995097509550909350915050565b600354600160a060020a031681565b6000806121e6613043565b15156121f157600080fd5b600260009054906101000a9004600160a060020a0316600160a060020a03166325d8e97f6040518163ffffffff1660e060020a02815260040160206040518083038186803b15801561224257600080fd5b505afa158015612256573d6000803e3d6000fd5b505050506040513d602081101561226c57600080fd5b505115156122c4576040805160e560020a62461bcd02815260206004820152601260248201527fe4b88de59ca8e585b1e5bbbae69c9fe586850000000000000000000000000000604482015290519081900360640190fd5b600c80546000908152600d6020526040808220600690810187905592548252902001546122ff90606490611c5c90605063ffffffff614c4316565b600c80546000908152600d602052604080822060080193909355815481529190912060068101546009909101555493915050565b6000818152600d6020908152604080832033845290915290206006015460a060020a900460ff165b919050565b6000908152600d60205260409020600a0154610100900460ff1690565b6000612387613043565b151561239257600080fd5b601354610100900460ff16156123f2576040805160e560020a62461bcd02815260206004820152601560248201527fe98080e6acbee5b7b2e7bb8fe5ae8ce68890e4ba860000000000000000000000604482015290519081900360640190fd5b600254604080517f50b9d89d0000000000000000000000000000000000000000000000000000000081529051600092600160a060020a0316916350b9d89d916004808301926020929190829003018186803b15801561245057600080fd5b505afa158015612464573d6000803e3d6000fd5b505050506040513d602081101561247a57600080fd5b50516000818152600d6020908152604091829020600101805483518184028101840190945280845293945060609390918301828280156124e357602002820191906000526020600020905b8154600160a060020a031681526001909101906020018083116124c5575b50939450600093505050505b8151811015612812576002548251600160a060020a0390911690639b32a7789084908490811061251b57fe5b90602001906020020151600d60008781526020019081526020016000206000016000868681518110151561254b57fe5b90602001906020020151600160a060020a0316600160a060020a0316815260200190815260200160002060020154600260009054906101000a9004600160a060020a0316600160a060020a0316633bb66a7b87878151811015156125ab57fe5b906020019060200201516040518263ffffffff1660e060020a0281526004018082600160a060020a0316600160a060020a0316815260200191505060206040518083038186803b1580156125fe57600080fd5b505afa158015612612573d6000803e3d6000fd5b505050506040513d602081101561262857600080fd5b50516040805160e060020a63ffffffff8716028152600160a060020a0390941660048501529101602483015251604480830192600092919082900301818387803b15801561267557600080fd5b505af1158015612689573d6000803e3d6000fd5b50506002548451600160a060020a039091169250634ceb1f1391508490849081106126b057fe5b90602001906020020151600d6000878152602001908152602001600020600001600086868151811015156126e057fe5b6020908102909101810151600160a060020a0390811683529082019290925260400160002060010154600254875191921690633aecd0e39088908890811061272457fe5b906020019060200201516040518263ffffffff1660e060020a0281526004018082600160a060020a0316600160a060020a0316815260200191505060206040518083038186803b15801561277757600080fd5b505afa15801561278b573d6000803e3d6000fd5b505050506040513d60208110156127a157600080fd5b50516040805160e060020a63ffffffff8716028152600160a060020a0390941660048501529101602483015251604480830192600092919082900301818387803b1580156127ee57600080fd5b505af1158015612802573d6000803e3d6000fd5b5050600190920191506124ef9050565b50506013805461ff00191661010090811791829055900460ff1691505090565b600c5481565b6000612842613043565b151561284d57600080fd5b600260009054906101000a9004600160a060020a0316600160a060020a031663743acbab6040518163ffffffff1660e060020a02815260040160206040518083038186803b15801561289e57600080fd5b505afa1580156128b2573d6000803e3d6000fd5b505050506040513d60208110156128c857600080fd5b50511515612920576040805160e560020a62461bcd02815260206004820152601260248201527fe585b1e68cafe8bf98e69caae7bb93e69d9f0000000000000000000000000000604482015290519081900360640190fd5b600254601054600160a060020a03909116906395bbde8890849061295290606490611c5c90600563ffffffff614c4316565b6040805160e060020a63ffffffff861602815260248101839052600481019182528351604482015283518291606401906020868101910280838360005b838110156129a757818101518382015260200161298f565b505050509050019350505050602060405180830381600087803b1580156129cd57600080fd5b505af11580156129e1573d6000803e3d6000fd5b505050506040513d60208110156129f757600080fd5b505192915050565b6000806000806000806000806000612aac42612aa0610708600260009054906101000a9004600160a060020a0316600160a060020a031663d74635736040518163ffffffff1660e060020a02815260040160206040518083038186803b158015612a6857600080fd5b505afa158015612a7c573d6000803e3d6000fd5b505050506040513d6020811015612a9257600080fd5b50519063ffffffff61106516565b9063ffffffff614c2e16565b11612aba5760009350612b18565b612b1542612aa0610708600260009054906101000a9004600160a060020a0316600160a060020a031663d74635736040518163ffffffff1660e060020a02815260040160206040518083038186803b158015612a6857600080fd5b93505b600254604080517fd998d6280000000000000000000000000000000000000000000000000000000081529051612bce92600160a060020a03169163d998d628916004808301926020929190829003018186803b158015612b7757600080fd5b505afa158015612b8b573d6000803e3d6000fd5b505050506040513d6020811015612ba157600080fd5b5051600c546000908152600d602052604090206004810154600290910154612aa09163ffffffff614c2e16565b600c546000908152600d602052604090206003810154600590910154959a9199509750939550929350505050565b612c04613043565b1515612c0f57600080fd5b60008054604051600160a060020a03909116907f8be0079c531659141344cd1fd0a4f28419497f9722a3daafe3b4186f6b6457e0908390a360008054600160a060020a0319169055565b6000612c63613043565b1515612c6e57600080fd5b600c5460009081526012602052604090205460ff1615612cc25760405160e560020a62461bcd02815260040180806020018281038252602c8152602001806156c4602c913960400191505060405180910390fd5b600260009054906101000a9004600160a060020a0316600160a060020a031663d998d6286040518163ffffffff1660e060020a02815260040160206040518083038186803b158015612d1357600080fd5b505afa158015612d27573d6000803e3d6000fd5b505050506040513d6020811015612d3d57600080fd5b5051600154604080517fdd62ed3e0000000000000000000000000000000000000000000000000000000081523360048201523060248201529051600160a060020a039092169163dd62ed3e91604480820192602092909190829003018186803b158015612da957600080fd5b505afa158015612dbd573d6000803e3d6000fd5b505050506040513d6020811015612dd357600080fd5b50511015612e2b576040805160e560020a62461bcd02815260206004820152601260248201527fe68e88e69d83e9a29de5baa6e4b88de8b6b30000000000000000000000000000604482015290519081900360640190fd5b600154600254604080517fd998d6280000000000000000000000000000000000000000000000000000000081529051600160a060020a03938416936323b872dd9333933093919092169163d998d628916004808301926020929190829003018186803b158015612e9a57600080fd5b505afa158015612eae573d6000803e3d6000fd5b505050506040513d6020811015612ec457600080fd5b50516040805160e060020a63ffffffff8716028152600160a060020a0394851660048201529290931660248301526044820152905160648083019260209291908290030181600087803b158015612f1a57600080fd5b505af1158015612f2e573d6000803e3d6000fd5b505050506040513d6020811015612f4457600080fd5b50511515612f9c576040805160e560020a62461bcd02815260206004820152601a60248201527fe8bdace7a7bb746f6b656ee588b0e59088e7baa6e5a4b1e8b4a5000000000000604482015290519081900360640190fd5b50600c546000908152601260205260409020805460ff1916600190811790915590565b6060612fc9613043565b1515612fd457600080fd5b600980548060200260200160405190810160405280929190818152602001828054801561302a57602002820191906000526020600020905b8154600160a060020a0316815260019091019060200180831161300c575b5050505050905090565b600054600160a060020a031690565b600054600160a060020a0316331490565b600c546000908152600d60209081526040808320338085529252822060060154829190760100000000000000000000000000000000000000000000900460ff16156130d35760405160e560020a62461bcd02815260040180806020018281038252602a8152602001806156f0602a913960400191505060405180910390fd5b600254604080517f9263434e0000000000000000000000000000000000000000000000000000000081523360048201529051600092600160a060020a031691639263434e916024808301926020929190829003018186803b15801561313757600080fd5b505afa15801561314b573d6000803e3d6000fd5b505050506040513d602081101561316157600080fd5b5051600254604080517ffe147c1b0000000000000000000000000000000000000000000000000000000081523360048201529051929350600160a060020a039091169163fe147c1b9160248082019260009290919082900301818387803b1580156131cb57600080fd5b505af11580156131df573d6000803e3d6000fd5b5050600c546000908152600d60209081526040808320338452909152808220600601805476ff00000000000000000000000000000000000000000000191676010000000000000000000000000000000000000000000017905551600160a060020a038616935084156108fc0292508491818181858888f1935050505015801561326c573d6000803e3d6000fd5b503393509150509091565b600e54600160a060020a031681565b600c546000818152600d602052604090206002810154600790910154909192565b60105481565b6000818152600d60205260408120600b015415156132e257506000818152600d6020526040902043600b90910155600161235b565b50600061235b565b600260009054906101000a9004600160a060020a0316600160a060020a03166325d8e97f6040518163ffffffff1660e060020a02815260040160206040518083038186803b15801561333b57600080fd5b505afa15801561334f573d6000803e3d6000fd5b505050506040513d602081101561336557600080fd5b505115156133bd576040805160e560020a62461bcd02815260206004820152601260248201527fe4b88de59ca8e585b1e5bbbae69c9fe586850000000000000000000000000000604482015290519081900360640190fd5b600260009054906101000a9004600160a060020a0316600160a060020a031663743acbab6040518163ffffffff1660e060020a02815260040160206040518083038186803b15801561340e57600080fd5b505afa158015613422573d6000803e3d6000fd5b505050506040513d602081101561343857600080fd5b50511561348f576040805160e560020a62461bcd02815260206004820152601260248201527fe585b1e68cafe5b7b2e7bb8fe7bb93e69d9f0000000000000000000000000000604482015290519081900360640190fd5b3360009081526004602052604090205460ff1615156134f8576040805160e560020a62461bcd02815260206004820152601660248201527fe8b083e794a8e88085e4b88de698af4275696c64657200000000000000000000604482015290519081900360640190fd5b600254604080517fd998d62800000000000000000000000000000000000000000000000000000000815290516135a492600160a060020a03169163d998d628916004808301926020929190829003018186803b15801561355757600080fd5b505afa15801561356b573d6000803e3d6000fd5b505050506040513d602081101561358157600080fd5b5051600c546000908152600d60205260409020600201549063ffffffff614c2e16565b600c546000908152600d60205260409020600401546135c9908363ffffffff61106516565b11156136095760405160e560020a62461bcd02815260040180806020018281038252602d815260200180615525602d913960400191505060405180910390fd5b600c546000908152600d602052604090206002810154600490910154613635908363ffffffff61106516565b11156136755760405160e560020a62461bcd02815260040180806020018281038252602681526020018061559d6026913960400191505060405180910390fd5b600c546000908152600d6020908152604080832060038101543385529252909120600101546136aa908363ffffffff61106516565b11156136ea5760405160e560020a62461bcd0281526004018080602001828103825260308152602001806156686030913960400191505060405180910390fd5b600154604080517fdd62ed3e00000000000000000000000000000000000000000000000000000000815233600482015230602482015290518392600160a060020a03169163dd62ed3e916044808301926020929190829003018186803b15801561375357600080fd5b505afa158015613767573d6000803e3d6000fd5b505050506040513d602081101561377d57600080fd5b505110156137d5576040805160e560020a62461bcd02815260206004820152601260248201527fe68e88e69d83e9a29de5baa6e4b88de8b6b30000000000000000000000000000604482015290519081900360640190fd5b600154604080517f23b872dd000000000000000000000000000000000000000000000000000000008152336004820152306024820152604481018490529051600160a060020a03909216916323b872dd916064808201926020929091908290030181600087803b15801561384857600080fd5b505af115801561385c573d6000803e3d6000fd5b505050506040513d602081101561387257600080fd5b505115156138ca576040805160e560020a62461bcd02815260206004820152601a60248201527fe8bdace7a7bb746f6b656ee588b0e59088e7baa6e5a4b1e8b4a5000000000000604482015290519081900360640190fd5b600c80546000908152600d60208181526040808420338086529083528185206001018054880190558554855283835281852060050180548801905585548552818520908552825280842060060154600160a060020a039081168552818520600490810180548901905595548552928252928390206002908101805487900390555483517f2734189a00000000000000000000000000000000000000000000000000000000815293519216936330f42bf69386938693632734189a9383810193919291829003018186803b1580156139a057600080fd5b505afa1580156139b4573d6000803e3d6000fd5b505050506040513d60208110156139ca57600080fd5b50516040805160e060020a63ffffffff861602815292909103600483015251602480830192600092919082900301818387803b158015613a0957600080fd5b505af1158015613a1d573d6000803e3d6000fd5b5050336000908152600b60209081526040808320805487019055600c548352600d909152902060040180549093019092555050565b613a5a613043565b1515613a6557600080fd5b600354604051600160a060020a0390911690303180156108fc02916000818181858888f19350505050158015613a9f573d6000803e3d6000fd5b50565b6000613aac613043565b1515613ab757600080fd5b600354600160a060020a03161515613b035760405160e560020a62461bcd0281526004018080602001828103825260218152602001806155526021913960400191505060405180910390fd5b613bbf6064611c5c6028613bb36064611c5c600260009054906101000a9004600160a060020a0316600160a060020a0316639b2dc7696040518163ffffffff1660e060020a02815260040160206040518083038186803b158015613b6657600080fd5b505afa158015613b7a573d6000803e3d6000fd5b505050506040513d6020811015613b9057600080fd5b5051600c546000908152600d60205260409020600701549063ffffffff614c4316565b9063ffffffff614c4316565b600c80546000908152600f602052604080822093909355905481522054601080549091019055613bee83614c92565b613bf782614f6d565b600254600354600c546000908152600d6020526040902060070154600160a060020a0392831692639b32a778921690613c3e90606490611c5c90603c63ffffffff614c4316565b600254600354604080517f3bb66a7b000000000000000000000000000000000000000000000000000000008152600160a060020a03928316600482015290519190921691633bb66a7b916024808301926020929190829003018186803b158015613ca757600080fd5b505afa158015613cbb573d6000803e3d6000fd5b505050506040513d6020811015613cd157600080fd5b50516040805160e060020a63ffffffff8716028152600160a060020a0390941660048501529101602483015251604480830192600092919082900301818387803b158015613d1e57600080fd5b505af1158015613d32573d6000803e3d6000fd5b50505050613d3e61504f565b50600192915050565b60046020526000908152604090205460ff1681565b6000806000806000806000613dc242612aa0610e10600260009054906101000a9004600160a060020a0316600160a060020a031663d74635736040518163ffffffff1660e060020a02815260040160206040518083038186803b158015612a6857600080fd5b11613dd05760009250613e2e565b613e2b42612aa0610e10600260009054906101000a9004600160a060020a0316600160a060020a031663d74635736040518163ffffffff1660e060020a02815260040160206040518083038186803b158015612a6857600080fd5b92505b600c546000908152600d602052604090206007810154600690910154613e599163ffffffff614c2e16565b600c546000908152600d602052604090206007015493965094509192505050909192565b60135460ff1681565b613e8e613043565b1515613e9957600080fd5b60135460ff1615613ede5760405160e560020a62461bcd0281526004018080602001828103825260278152602001806155c36027913960400191505060405180910390fd5b60038054600160a060020a03808516600160a060020a031992831617909255600e80548484169216919091179055600254604080517fabdd11a80000000000000000000000000000000000000000000000000000000081524260048201529051919092169163abdd11a891602480830192600092919082900301818387803b158015613f6957600080fd5b505af1158015613f7d573d6000803e3d6000fd5b5050505073__UintUtils_____________________________63669dafe86216e3606040518263ffffffff1660e060020a0281526004018082815260200191505060206040518083038186803b158015613fd657600080fd5b505af4158015613fea573d6000803e3d6000fd5b505050506040513d602081101561400057600080fd5b5051600c80546000908152600d60205260408082206002908101949094559154815220015461403d90606490611c5c90600163ffffffff614c4316565b600c546000908152600d60205260408082206003019290925560025482517f1c5ce1570000000000000000000000000000000000000000000000000000000081529251600160a060020a0390911692631c5ce15792600480830193919282900301818387803b1580156140af57600080fd5b505af11580156140c3573d6000803e3d6000fd5b5050600254600c54604080517f0d9907d9000000000000000000000000000000000000000000000000000000008152600481019290925251600160a060020a039092169350630d9907d992506024808201926020929091908290030181600087803b15801561413157600080fd5b505af1158015614145573d6000803e3d6000fd5b505050506040513d602081101561415b57600080fd5b50506013805460ff1916600117905561417383614ba1565b505050565b6000908152600d602052604090206006015490565b600080600260009054906101000a9004600160a060020a0316600160a060020a03166325d8e97f6040518163ffffffff1660e060020a02815260040160206040518083038186803b1580156141e157600080fd5b505afa1580156141f5573d6000803e3d6000fd5b505050506040513d602081101561420b57600080fd5b50511515614263576040805160e560020a62461bcd02815260206004820152601260248201527fe4b88de59ca8e585b1e5bbbae69c9fe586850000000000000000000000000000604482015290519081900360640190fd5b600260009054906101000a9004600160a060020a0316600160a060020a031663743acbab6040518163ffffffff1660e060020a02815260040160206040518083038186803b1580156142b457600080fd5b505afa1580156142c8573d6000803e3d6000fd5b505050506040513d60208110156142de57600080fd5b505115614335576040805160e560020a62461bcd02815260206004820152601260248201527fe585b1e68cafe5b7b2e7bb8fe7bb93e69d9f0000000000000000000000000000604482015290519081900360640190fd5b600e54600160a060020a038481169116146143bc57600160a060020a03831660009081526004602052604090205460ff1615156143bc576040805160e560020a62461bcd02815260206004820152601f60248201527fe68ea8e5b9bfe88085e887aae5b7b1e5bf85e9a1bbe698af4275696c64657200604482015290519081900360640190fd5b600160a060020a038316151561441c576040805160e560020a62461bcd02815260206004820152601b60248201527fe68ea8e5b9bfe88085e4b88de883bde698afe7a9bae59cb0e59d800000000000604482015290519081900360640190fd5b73__UintUtils_____________________________63669dafe860086040518263ffffffff1660e060020a0281526004018082815260200191505060206040518083038186803b15801561446f57600080fd5b505af4158015614483573d6000803e3d6000fd5b505050506040513d602081101561449957600080fd5b5051600154604080517fdd62ed3e0000000000000000000000000000000000000000000000000000000081523360048201523060248201529051600160a060020a039092169163dd62ed3e91604480820192602092909190829003018186803b15801561450557600080fd5b505afa158015614519573d6000803e3d6000fd5b505050506040513d602081101561452f57600080fd5b50511015614587576040805160e560020a62461bcd02815260206004820152601260248201527fe68e88e69d83e9a29de5baa6e4b88de8b6b30000000000000000000000000000604482015290519081900360640190fd5b6001546040805160e360020a630cd3b5fd028152600860048201529051600160a060020a03909216916323b872dd913391309173__UintUtils_____________________________9163669dafe891602480820192602092909190829003018186803b1580156145f657600080fd5b505af415801561460a573d6000803e3d6000fd5b505050506040513d602081101561462057600080fd5b50516040805160e060020a63ffffffff8716028152600160a060020a0394851660048201529290931660248301526044820152905160648083019260209291908290030181600087803b15801561467657600080fd5b505af115801561468a573d6000803e3d6000fd5b505050506040513d60208110156146a057600080fd5b505115156146f8576040805160e560020a62461bcd02815260206004820152601a60248201527fe8bdace7a7bb746f6b656ee588b0e59088e7baa6e5a4b1e8b4a5000000000000604482015290519081900360640190fd5b6001546040805160e360020a630cd3b5fd028152600360048201529051600160a060020a039092169163a9059cbb9160009173__UintUtils_____________________________9163669dafe8916024808301926020929190829003018186803b15801561476557600080fd5b505af4158015614779573d6000803e3d6000fd5b505050506040513d602081101561478f57600080fd5b50516040805160e060020a63ffffffff8616028152600160a060020a03909316600484015260248301919091525160448083019260209291908290030181600087803b1580156147de57600080fd5b505af11580156147f2573d6000803e3d6000fd5b505050506040513d602081101561480857600080fd5b50506001546040805160e360020a630cd3b5fd028152600560048201529051600160a060020a039092169163a9059cbb91869173__UintUtils_____________________________9163669dafe8916024808301926020929190829003018186803b15801561487657600080fd5b505af415801561488a573d6000803e3d6000fd5b505050506040513d60208110156148a057600080fd5b50516040805160e060020a63ffffffff8616028152600160a060020a03909316600484015260248301919091525160448083019260209291908290030181600087803b1580156148ef57600080fd5b505af1158015614903573d6000803e3d6000fd5b505050506040513d602081101561491957600080fd5b50506040805160e360020a630cd3b5fd02815260056004820152905173__UintUtils_____________________________9163669dafe8916024808301926020929190829003018186803b15801561497057600080fd5b505af4158015614984573d6000803e3d6000fd5b505050506040513d602081101561499a57600080fd5b5051600c546000908152600d60209081526040808320600160a060020a03881684529091529020600501805490910190556149d4836153c6565b600c80546000908152600d60209081526040808320600160a060020a0380891680865291845282852060030180546001810182559086529385209093018054600160a060020a031916331790556005549454600e5483517fe23613e90000000000000000000000000000000000000000000000000000000081526004810192909252602482019290925290831660448201529051939091169263e23613e99260648084019391929182900301818387803b158015614a9157600080fd5b505af1158015614aa5573d6000803e3d6000fd5b503396945050505050565b60126020526000908152604090205460ff1681565b6000614acf613043565b1515614ada57600080fd5b50600160a060020a03166000908152600a602052604090205490565b600154600160a060020a031681565b600c546000908152600d60209081526040808320600160a060020a0385168452825291829020600301805483518184028101840190945280845260609392830182828015614b7c57602002820191906000526020600020905b8154600160a060020a03168152600190910190602001808311614b5e575b50505050509050919050565b6000908152600d60205260409020600b01546001014090565b614ba9613043565b1515614bb457600080fd5b613a9f8161543a565b600c546000908152600d6020908152604080832033845290915290206006015460a060020a900460ff1690565b6000818152600d602081815260408084206007810154338652818452918520600201548686529390925260049091015461107a92611c5c919063ffffffff614c4316565b600082821115614c3d57600080fd5b50900390565b6000821515614c545750600061107a565b828202828482811515614c6357fe5b041461107757600080fd5b6000808211614c7c57600080fd5b60008284811515614c8957fe5b04949350505050565b600c546000908152600d60205260409020600a015460ff1615614cff576040805160e560020a62461bcd02815260206004820152601e60248201527fe5bd93e5898de8bdaee6aca1e5b7b2e7bb8fe7bb93e7ae97e5ae8ce6af950000604482015290519081900360640190fd5b600c546000908152600d60205260409020600a0154610100900460ff1615614d71576040805160e560020a62461bcd02815260206004820152601b60248201527fe5bd93e5898de8bdaee6aca1e697a9e5b7b2e7bb8fe7bb93e69d9f0000000000604482015290519081900360640190fd5b600254600c546000818152600f6020526040902054600160a060020a039092169163deb72f1f91908490614db390606490611c5c90601463ffffffff614c4316565b6040518463ffffffff1660e060020a0281526004018084815260200180602001838152602001828103825284818151815260200191508051906020019060200280838360005b83811015614e11578181015183820152602001614df9565b50505050905001945050505050600060405180830381600087803b158015614e3857600080fd5b505af1158015614e4c573d6000803e3d6000fd5b5050600c546000908152600d602052604081206001015411159150614f68905057600254600c546000818152600d60209081526040808320600f90925290912054600160a060020a03909316926384976e74929160010190614ebc90606490611c5c90600563ffffffff614c4316565b6040518463ffffffff1660e060020a02815260040180848152602001806020018381526020018281038252848181548152602001915080548015614f2957602002820191906000526020600020905b8154600160a060020a03168152600190910190602001808311614f0b575b5050945050505050600060405180830381600087803b158015614f4b57600080fd5b505af1158015614f5f573d6000803e3d6000fd5b50505050613a9f565b613a9f565b600254600c546000818152600f6020526040902054600160a060020a039092169163fd38f45b91908490614faf90606490611c5c90600a63ffffffff614c4316565b6040518463ffffffff1660e060020a0281526004018084815260200180602001838152602001828103825284818151815260200191508051906020019060200280838360005b8381101561500d578181015183820152602001614ff5565b50505050905001945050505050600060405180830381600087803b15801561503457600080fd5b505af1158015615048573d6000803e3d6000fd5b5050505050565b600254600c546000818152600d60209081526040808320600781015460089091015482517fc39fa86100000000000000000000000000000000000000000000000000000000815260048101969096526024860191909152604485015251600160a060020a039094169363c39fa86193606480820194918390030190829087803b1580156150db57600080fd5b505af11580156150ef573d6000803e3d6000fd5b505050506040513d602081101561510557600080fd5b5050600c80546000908152600d60209081526040808320600a908101805460ff191660011790559354835291829020909201805461ff00191661010017905560025481517fd6d11b820000000000000000000000000000000000000000000000000000000081529151600160a060020a039091169263d6d11b829260048082019391829003018186803b15801561519b57600080fd5b505afa1580156151af573d6000803e3d6000fd5b505050506040513d60208110156151c557600080fd5b505115156153c457600c80546001019055600254604080517fabdd11a80000000000000000000000000000000000000000000000000000000081524260048201529051600160a060020a039092169163abdd11a89160248082019260009290919082900301818387803b15801561523b57600080fd5b505af115801561524f573d6000803e3d6000fd5b5050600254600c54604080517f0d9907d9000000000000000000000000000000000000000000000000000000008152600481019290925251600160a060020a039092169350630d9907d992506024808201926020929091908290030181600087803b1580156152bd57600080fd5b505af11580156152d1573d6000803e3d6000fd5b505050506040513d60208110156152e757600080fd5b5050600254604080517f8d8276be0000000000000000000000000000000000000000000000000000000081529051600160a060020a0390921691638d8276be91600480820192602092909190829003018186803b15801561534757600080fd5b505afa15801561535b573d6000803e3d6000fd5b505050506040513d602081101561537157600080fd5b5051600c80546000908152600d6020526040808220600290810194909455915481522001546153ae90606490611c5c90600163ffffffff614c4316565b600c546000908152600d60205260409020600301555b565b600c80546000908152600d60208181526040808420338086529083528185208054600160a060020a03199081168317909155955485529282528084209284529181528183206006018054909416600160a060020a03959095169490941790925560049092529020805460ff19166001179055565b600160a060020a038116151561544f57600080fd5b60008054604051600160a060020a03808516939216917f8be0079c531659141344cd1fd0a4f28419497f9722a3daafe3b4186f6b6457e091a360008054600160a060020a031916600160a060020a0392909216919091179055565b610180604051908101604052806000600160a060020a0316815260200160008152602001600081526020016060815260200160008152602001600081526020016000600160a060020a031681526020016000151581526020016000151581526020016000151581526020016000815260200160008152509056fee8bdace8b4a6e695b0e9878fe4b88de883bde8b685e8bf87e7a4bee58cbae58fafe8bdace8b4a6e680bbe9a29de59fbae98791e4bc9ae694b6e6acbee59cb0e59d80e5b09ae69caae8aebee7bdaee794a8e688b7e6b2a1e69c89e58f82e4b88ee4b88ae4b880e8bdaee6aca1e79a84e58b9fe8b584e69c9fe5bd93e5898de8bdaee6aca1e585b1e5bbba546f6b656ee5b7b2e7bb8fe8b6b3e5a49fe4ba86e7acace4b880e8bdaee6aca1e695b0e68daee5b7b2e7bb8fe5889de5a78be58c96e8bf87e4ba86e4b88ae4b880e8bdaee6aca1e58b9fe8b584e69c9fe58b9fe99b86e588b030e4b8aa455448e794a8e688b7e59ca8e4b88ae4b880e8bdaee6aca1e6b2a1e69c89e58f82e4b88ee7bb84e5bbbae69c9f546f6b656ee68a95e5b881e5bd93e5898de8bdaee6aca1e5b7b2e58b9fe99b86e588b0e8b6b3e5a49fe79a84455448e585b1e5bbbae9a29de5baa6e5b7b2e8b685e8bf87e99990e9a29defbc8ce4b88de883bde7bba7e7bbade8bdace585a5e794a8e688b7e59ca8e4b88ae4b880e8bdaee6aca1e5b7b2e7bb8fe68f90e58f96746f6b656ee5ae8ce68890e5bd93e5898de8bdaee6aca1e59fbae98791e4bc9ae5b7b2e7bb8fe8bdace585a5e8bf87546f6b656ee4ba86e794a8e688b7e59ca8e5bd93e5898de8bdaee6aca1e5b7b2e7bb8fe68f90e58f96455448e5ae8ce68890a165627a7a72305820338bb82c9b9a94b96be3998f1e9143462fb7c39ae2b22c744ac13a09aac6777c0029",
  "source": "pragma solidity >=0.4.21 <0.6.0;\n\nimport \"../node_modules/openzeppelin-solidity/contracts/math/SafeMath.sol\";\nimport \"../node_modules/openzeppelin-solidity/contracts/ownership/Ownable.sol\";\nimport \"./ABCToken.sol\";\nimport \"./UintUtils.sol\";\nimport \"./FissionReward.sol\";\nimport \"./FOMOReward.sol\";\nimport \"./LuckyReward.sol\";\nimport \"./FaithReward.sol\";\nimport \"./ResonanceDataManage.sol\";\n\n// TODO:token()\ncontract Resonance is Ownable{\n\n    using SafeMath for uint256;\n\n    // \n    // \n    event ToBeFissionPerson(address indexed fissionPerson, address indexed promoter);\n\n    event FundsInfo(uint256 currentStepTokenAmount, uint256 currentStepRaisedETH);\n    event BuildingPerioInfo(uint256 bpCountdown, uint256 remainingToken, uint256 personalTokenLimited, uint256 totalTokenAmount);\n    event FundingPeriodInfo(uint256 fpCountdown, uint256 remainingETH, uint256 rasiedETHAmount);\n\n    // \n    event FissionRewardInfo(address[] fissionRewardList, uint256[] fissionRewardAmount);\n    event FOMORewardInfo(address[] FOMORewardList, uint256[] FOMORewards);\n    event LuckyRewardInfo(address[] luckyRewardList, uint256 luckyReward);\n    event FaithRewardInfo(address[] faithRewardList, uint256[] faithRewardAmount);\n    event WithdrawAllETH(address addr, uint256 ETHAmount);\n    event WithdrawAllToken(address from, address to, uint256 tokenAmount);\n    event FunderInfo(uint256[] FunderInfoArray);\n    event StepFunders(\n        address[] funderAddress,\n        uint256[] funderTokenAmount,\n        uint256[] funderETHAmount,\n        uint256[] funderInvitees,\n        uint256[] funderEarnFromAff\n    );\n    event SettlementStep(uint256 stepIndex);\n\n    event StartNextStep(uint256 stepIndex);\n\n    event SetRaiseTarget(uint256 stepIndex, uint256 raiseTarget);\n\n    event GetResonances(address[] resonances);\n\n    event FunderTotalRaised(uint256 resonancesRasiedETH);\n\n    // \n    // ERC20\n    ABCToken public abcToken;\n\n    ResonanceDataManage resonanceDataManage;\n\n    // 60%\n    address payable public beneficiary;\n\n    // \n    struct Funder{\n        address funderAddr; // \n        uint256 tokenAmount; // token\n        uint256 ethAmount; // eth\n        address[] invitees; // \n        uint256 inviteesTotalAmount; // Token\n        uint256 earnFromAff; // \n        address promoter; // \n        bool isFunder; // \n        bool tokenHasWithdrawn; // Token\n        bool ETHHasWithdrawn; // ETH\n        uint256 withdrawTokenAmount; // Token\n        uint256 withdrawETHAmount; //ETH\n    }\n\n    mapping(address => bool) public isBuilder; //\n\n    // \n    struct Building{\n        uint256 openTokenAmount; // Token\n        uint256 personalTokenLimited;// token\n        uint256 raisedToken; // token\n        uint256 raisedTokenAmount; // Token\n    }\n\n    // \n    struct Funding{\n        uint256 raiseTarget; // ETH()\n        uint256 raisedETH; // ETH\n    }\n\n    FissionReward fissionRewardInstance;\n    FOMOReward FOMORewardInstance;\n    LuckyReward luckyRewardInstance;\n    FaithReward faithRewardInstance;\n\n    // \n    struct Step{\n        mapping(address => Funder) funder;// \n        address[] funders; // funders\n        Building building; // \n        Funding funding; // \n        uint256 softCap; // \n        uint256 hardCap; // \n        bool settlementFinished; // \n        bool stepIsClosed; // \n        uint256 blockNumber; // \n    }\n\n    // \n    address[] resonances;\n\n    // \n    mapping(address => uint256) resonancesRasiedETH;\n    mapping(address => uint256) resonancesRasiedToken;\n\n    uint256 public currentStep;\n\n    mapping(uint256 => Step) steps;\n\n    address public initialFissionPerson; // \n\n    mapping(uint256 => uint256) ETHFromParty; // ETH\n\n    uint256 public totalETHFromParty; // \n\n    mapping(uint256 => uint256) tokenFromParty; //token\n\n    mapping(uint256 => bool) public tokenTransfered; // Token\n\n    bool public firstParamInitialized;\n\n    // \n    /// @notice \n    /// @param _abcToken Token\n    constructor(\n        address _resonanceDataManageAddress,\n        ABCToken _abcToken,\n        address _fassionRewardAddress,\n        address _FOMORewardAddress,\n        address _luckyRewardAddress,\n        address _faithRewardAddress\n    )\n        public\n    {\n        resonanceDataManage = ResonanceDataManage(_resonanceDataManageAddress);\n        // \n        fissionRewardInstance = FissionReward(_fassionRewardAddress);\n        FOMORewardInstance = FOMOReward(_FOMORewardAddress);\n        luckyRewardInstance = LuckyReward(_luckyRewardAddress);\n        faithRewardInstance = FaithReward(_faithRewardAddress);\n        currentStep = 0;\n        abcToken = _abcToken; // abc Token\n    }\n\n\n    /// @notice \n    /// @dev ResonanceDataManage\n    function initParamForFirstStep(\n        address _newOwner,\n        address payable _beneficiary,\n        address _initialFissionPerson\n    )\n        public\n        onlyOwner()\n    {\n        require(!firstParamInitialized, \"\");\n        // \n        beneficiary = _beneficiary;\n        // \n        initialFissionPerson = _initialFissionPerson;\n        resonanceDataManage.setOpeningTime(block.timestamp); // \n        steps[currentStep].building.openTokenAmount = UintUtils.toWei(1500000); // Token\n        steps[currentStep].building.personalTokenLimited = steps[currentStep].building.openTokenAmount.mul(1).div(100);\n        // fundsPoolinitBuildingTokenAmount\n        resonanceDataManage.setParamForFirstStep();\n        // Token\n        resonanceDataManage.updateBuildingPercent(currentStep);\n        firstParamInitialized = true;\n        // \n        transferOwnership(_newOwner);\n    }\n\n    /// @notice \n    /// @param promoter \n    /// @dev TokenApprove\n    function toBeFissionPerson(\n        address promoter\n    )\n        public\n        returns(address, address)\n    {\n        require(resonanceDataManage.isBuildingPeriod(), \"\");\n        require(!resonanceDataManage.getCrowdsaleClosed(), \"\");\n\n        if(initialFissionPerson != promoter){\n            require(isBuilder[promoter],\"Builder\");\n        }\n\n        require(promoter != address(0), \"\");\n\n        // \n        require(abcToken.allowance(msg.sender, address(this)) >= UintUtils.toWei(8),\"\");\n\n        require(abcToken.transferFrom(msg.sender,address(this), UintUtils.toWei(8)),\"token\");\n\n        // 3\n        // abcToken.burn(UintUtils.toWei(3));\n        abcToken.transfer(address(0), UintUtils.toWei(3));\n\n        // 5\n        abcToken.transfer(address(promoter), UintUtils.toWei(5));\n\n        steps[currentStep].funder[promoter].earnFromAff += UintUtils.toWei(5);\n\n        // \n        _addBuilder(promoter);\n\n        steps[currentStep].funder[promoter].invitees.push(msg.sender);\n\n        fissionRewardInstance.addAffman(currentStep, promoter, initialFissionPerson);\n\n        // emit ToBeFissionPerson(msg.sender, promoter);\n        return(msg.sender, promoter);\n    }\n\n    /// @notice \n    /// @dev \n    function setRaiseTarget(\n        uint256 _raiseTarget\n    )\n        public\n        onlyOwner()\n        returns(uint256, uint256)\n    {\n        require(resonanceDataManage.isBuildingPeriod(), \"\");\n        steps[currentStep].funding.raiseTarget = _raiseTarget;\n        // \n        steps[currentStep].softCap = steps[currentStep].funding.raiseTarget.mul(80).div(100);\n        steps[currentStep].hardCap = steps[currentStep].funding.raiseTarget;\n\n        // emit SetRaiseTarget(currentStep, _raiseTarget);\n        return(currentStep, _raiseTarget);\n    }\n\n    /// @notice \n    function getRaiseTarget(uint256 _stepIndex) public view returns(uint256) {\n        return steps[_stepIndex].funding.raiseTarget;\n    }\n\n    // token\n    function jointlyBuild(uint256 _tokenAmount) public {\n        require(resonanceDataManage.isBuildingPeriod(), \"\");\n\n        require(!resonanceDataManage.getCrowdsaleClosed(), \"\");\n\n        // builder\n        require(isBuilder[msg.sender], \"Builder\");\n\n        // \n        require(\n            steps[currentStep].building.raisedToken.add(_tokenAmount) <=\n            steps[currentStep].building.openTokenAmount.sub(resonanceDataManage.getBuildingTokenFromParty()),\n            \"\"\n        );\n\n        // \n        require(steps[currentStep].building.raisedToken.add(_tokenAmount) <= steps[currentStep].building.openTokenAmount, \"Token\");\n\n        // \n        require(\n            steps[currentStep].funder[msg.sender].tokenAmount.add(_tokenAmount) <= steps[currentStep].building.personalTokenLimited,\n            \"\"\n        );\n\n        // \n        require(abcToken.allowance(msg.sender, address(this)) >= _tokenAmount,\"\");\n\n        // \n        require(abcToken.transferFrom(msg.sender,address(this), _tokenAmount),\"token\");\n\n        steps[currentStep].funder[msg.sender].tokenAmount += _tokenAmount;\n\n        steps[currentStep].building.raisedTokenAmount += _tokenAmount;\n\n        // msg.sender\n        steps[currentStep].funder[steps[currentStep].funder[msg.sender].promoter].inviteesTotalAmount += _tokenAmount;\n\n        // TokenToken\n        steps[currentStep].building.openTokenAmount -= _tokenAmount;\n\n        // Token\n        resonanceDataManage.setFundsPool(resonanceDataManage.getFundsPool() - _tokenAmount);\n\n        // \n        resonancesRasiedToken[msg.sender] += _tokenAmount;\n\n        // token\n        steps[currentStep].building.raisedToken += _tokenAmount;\n    }\n\n    /// @notice Token\n    function transferToken() public payable onlyOwner() returns(bool){\n        require(!tokenTransfered[currentStep], \"Token\");\n        // \n        require(abcToken.allowance(msg.sender, address(this)) >= resonanceDataManage.getBuildingTokenFromParty(),\n            \"\"\n        );\n\n        // \n        require(abcToken.transferFrom(msg.sender, address(this), resonanceDataManage.getBuildingTokenFromParty()),\n            \"token\"\n        );\n\n        tokenTransfered[currentStep] = true;\n\n        return true;\n    }\n\n    /// @notice \n    function ()\n        external\n        payable\n    {\n        require(resonanceDataManage.isFundingPeriod(), \"\");\n\n        require(!resonanceDataManage.getCrowdsaleClosed(), \"\");\n\n        uint amount = msg.value;\n\n        // ETH\n        require(\n            msg.value.add(steps[currentStep].funding.raisedETH) <= steps[currentStep].funding.raiseTarget,\n            \"ETH\"\n        );\n\n        if(!steps[currentStep].funder[msg.sender].isFunder){\n            steps[currentStep].funders.push(msg.sender);\n        }\n\n        steps[currentStep].funder[msg.sender].ethAmount += amount;\n        steps[currentStep].funder[msg.sender].isFunder = true;\n        steps[currentStep].funding.raisedETH += amount;\n\n        resonances.push(msg.sender);\n        resonancesRasiedETH[msg.sender] += amount;\n    }\n\n    /// @notice \n    /// @dev \n    /// @param _fissionWinnerList \n    /// @param _LuckyWinnerList \n    function settlementStep(\n        address[] memory _fissionWinnerList,\n        address[] memory _LuckyWinnerList\n    )\n        public\n        onlyOwner()\n        returns(bool)\n    {\n        require(beneficiary != address(0), \"\");\n\n        // \n        ETHFromParty[currentStep] = steps[currentStep].funding.raisedETH.mul(\n            resonanceDataManage.getBuildingPercentOfParty()).div(100).mul(40).div(100);\n\n        totalETHFromParty += ETHFromParty[currentStep];\n        // FOMO\n        _settlementReward(_fissionWinnerList);\n        // \n        _settlementLuckyReward(_LuckyWinnerList);\n        // \n        resonanceDataManage.setETHBalance(\n            beneficiary,\n            resonanceDataManage.getETHBalance(beneficiary) + steps[currentStep].funding.raisedETH.mul(60).div(100)\n        );\n\n        // \n        _startNextStep();\n\n        return true;\n    }\n\n    /// @notice \n    /// @param _FaithWinnerList \n    function settlementFaithReward(\n        address[] memory _FaithWinnerList\n    )\n        public\n        onlyOwner()\n        returns(bool)\n    {\n        require(resonanceDataManage.getCrowdsaleClosed(), \"\");\n        return resonanceDataManage.dmSettlementFaithReward(\n            _FaithWinnerList,\n            totalETHFromParty.mul(5).div(100)\n        );\n    }\n\n    /// @notice FOMO\n    /// @dev ,\n    function _settlementReward(\n        address[] memory _fissionWinnerList\n    )\n        internal\n    {\n        require(!steps[currentStep].settlementFinished, \"\");\n        require(!steps[currentStep].stepIsClosed, \"\");\n\n        resonanceDataManage.settlementFissionReward(\n            currentStep,\n            _fissionWinnerList,\n            ETHFromParty[currentStep].mul(20).div(100)\n        );\n\n        if(steps[currentStep].funders.length > 0){\n            resonanceDataManage.settlementFOMOReward(\n                currentStep,\n                steps[currentStep].funders,\n                ETHFromParty[currentStep].mul(5).div(100)\n            );\n        }else{\n            return;\n        }\n    }\n\n    /// @notice \n    function _settlementLuckyReward(\n        address[] memory _LuckyWinnerList\n    )\n        internal\n    {\n        resonanceDataManage.settlementLuckyReward(\n            currentStep,\n            _LuckyWinnerList,\n            ETHFromParty[currentStep].mul(10).div(100)\n        );\n    }\n\n    /// \n    function _startNextStep()\n        internal\n    {\n        resonanceDataManage.crowdsaleIsClosed(currentStep, steps[currentStep].funding.raisedETH, steps[currentStep].softCap);\n\n        // step\n        steps[currentStep].settlementFinished = true;\n        // \n        steps[currentStep].stepIsClosed = true;\n\n        // \n        if(!resonanceDataManage.getResonanceIsClosed()){\n            // \n            currentStep++;\n            // \n            resonanceDataManage.setOpeningTime(block.timestamp);\n            // Token\n            resonanceDataManage.updateBuildingPercent(currentStep);\n\n            steps[currentStep].building.openTokenAmount = resonanceDataManage.getBuildingTokenAmount();\n            // \n            steps[currentStep].building.personalTokenLimited = steps[currentStep].building.openTokenAmount.mul(1).div(100);\n        }else{\n            return;\n        }\n    }\n\n    /// @notice tokentoken\n    function withdrawAllToken()\n        public\n        payable\n        returns(address, address, uint256)\n    {\n        // \n        uint256 withdrawStep = currentStep.sub(1);\n\n        require(steps[withdrawStep].funder[msg.sender].isFunder, \"\");\n\n        require(!steps[withdrawStep].funder[msg.sender].tokenHasWithdrawn, \"token\");\n\n        require(steps[withdrawStep].funder[msg.sender].ethAmount > 0, \"Token\");\n\n        require(steps[withdrawStep].funding.raisedETH > 0, \"0ETH\");\n\n        // Token\n        //  = Token * ETH / ETH\n        uint256 withdrawAmount = steps[withdrawStep].building.raisedToken.\n            mul(steps[withdrawStep].funder[msg.sender].ethAmount).\n            div(steps[withdrawStep].funding.raisedETH);\n\n        resonanceDataManage.emptyTokenBalance(msg.sender);\n        steps[withdrawStep].funder[msg.sender].tokenHasWithdrawn = true;\n        abcToken.transfer(msg.sender, withdrawAmount);\n\n        return(address(this), msg.sender, withdrawAmount);\n    }\n\n    /// @notice (ETH)\n    function withdrawAllETH()\n        public\n        payable\n        returns(address, uint256)\n    {\n        address payable dest = address(uint160(msg.sender));\n\n        require(!steps[currentStep].funder[msg.sender].ETHHasWithdrawn, \"ETH\");\n        uint256 withdrawAmount = resonanceDataManage.withdrawETHAmount(msg.sender);\n        resonanceDataManage.emptyETHBalance(msg.sender);\n        steps[currentStep].funder[msg.sender].ETHHasWithdrawn = true;\n\n        dest.transfer(withdrawAmount);\n\n        // emit WithdrawAllETH(msg.sender, withdrawAmount);\n        return(msg.sender, withdrawAmount);\n    }\n\n    /// @notice ETH\n    /// @dev ETH\n    function withdrawAllETHByOwner()\n        public\n        payable\n        onlyOwner()\n    {\n        beneficiary.transfer(address(this).balance);\n    }\n\n    /// @notice \n    function isFunder() public view returns(bool) {\n        return steps[currentStep].funder[msg.sender].isFunder;\n    }\n\n    /// @notice msg.senderfunder\n    function isFunderByStep(uint256 _stepIndex) public view returns(bool){\n        return steps[_stepIndex].funder[msg.sender].isFunder;\n    }\n\n    /// @notice funder\n    function getInvitees(address _funder) public view returns(address[] memory) {\n        return steps[currentStep].funder[_funder].invitees;\n    }\n\n    /// @notice \n    function getResonances()\n        public\n        view\n        onlyOwner()\n        returns(address[] memory)\n    {\n        // emit GetResonances(resonances);\n        return(resonances);\n    }\n\n    /// @notice ETH\n    function getFunderTotalRaised(address _funder) public view onlyOwner() returns(uint256){\n        // emit FunderTotalRaised(resonancesRasiedETH[_funder]);\n        return resonancesRasiedETH[_funder];\n    }\n\n    /// @notice funders\n    /// @dev funders\n    /// @param _stepIndex \n    function getStepFunders(uint256 _stepIndex)\n        public\n        view\n        onlyOwner()\n        returns\n    (\n        address[] memory,\n        uint256[] memory,\n        uint256[] memory,\n        uint256[] memory,\n        uint256[] memory,\n        uint256[] memory\n    )\n    {\n        address[] memory funderAddress;\n        uint256[] memory funderTokenAmount;\n        uint256[] memory funderETHAmount;\n        uint256[] memory funderInvitees;\n        uint256[] memory earnFromAff;\n        uint256[] memory inviteesTotalAmount;\n\n        funderAddress = new address[](steps[_stepIndex].funders.length);\n        funderTokenAmount = new uint256[](funderAddress.length);\n        funderETHAmount = new uint256[](funderAddress.length);\n        funderInvitees = new uint256[](funderAddress.length);\n        earnFromAff = new uint256[](funderAddress.length);\n        inviteesTotalAmount = new uint256[](funderAddress.length);\n\n        funderAddress = steps[_stepIndex].funders;\n\n        for(uint i = 0 ; i < funderAddress.length; i++){\n            funderTokenAmount[i] = steps[_stepIndex].funder[funderAddress[i]].tokenAmount;\n            funderETHAmount[i] = steps[_stepIndex].funder[funderAddress[i]].ethAmount;\n            funderInvitees[i] = steps[_stepIndex].funder[funderAddress[i]].invitees.length;\n            earnFromAff[i] = steps[currentStep].funder[funderAddress[i]].earnFromAff;\n            inviteesTotalAmount[i] = steps[currentStep].funder[funderAddress[i]].inviteesTotalAmount;\n        }\n\n        return (funderAddress, funderTokenAmount, funderETHAmount, funderInvitees, earnFromAff, inviteesTotalAmount);\n    }\n\n    /// @notice tokenETH\n    function getCurrentStepFundsInfo()\n        public\n        view\n        returns(uint256, uint256, uint256)\n    {\n        return(currentStep, steps[currentStep].building.openTokenAmount, steps[currentStep].funding.raisedETH);\n    }\n\n    /// @notice \n    function getBuildingPerioInfo()\n        public\n        view\n        returns(uint256, uint256, uint256, uint256)\n    {\n        uint256 _bpCountdown;\n        uint256 _remainingToken;\n        uint256 _personalTokenLimited;\n        uint256 _totalTokenAmount;\n\n        // TODO:\n        // 0\n        if((resonanceDataManage.getOpeningTime().add(30 minutes)).sub(block.timestamp) <= 0){\n            _bpCountdown = 0;\n        }else{\n            _bpCountdown = (resonanceDataManage.getOpeningTime().add(30 minutes)).sub(block.timestamp);\n        }\n        _remainingToken = steps[currentStep].building.openTokenAmount.sub(steps[currentStep].building.raisedToken).sub(resonanceDataManage.getBuildingTokenFromParty());\n        _personalTokenLimited = steps[currentStep].building.personalTokenLimited;\n        _totalTokenAmount = steps[currentStep].building.raisedTokenAmount;\n\n        return(_bpCountdown, _remainingToken, _personalTokenLimited, _totalTokenAmount);\n    }\n\n    // \n    function getFundingPeriodInfo()\n        public\n        view\n        returns(uint256, uint256, uint256)\n    {\n        uint256 _fpCountdown;\n        uint256 _remainingETH;\n        uint256 _rasiedETHAmount;\n\n        // TODO:\n        // 0\n        if((resonanceDataManage.getOpeningTime().add(1 hours)).sub(block.timestamp) <= 0){\n            _fpCountdown = 0;\n        }else{\n            _fpCountdown = (resonanceDataManage.getOpeningTime().add(1 hours)).sub(block.timestamp);\n        }\n        _remainingETH = steps[currentStep].funding.raiseTarget.sub(steps[currentStep].funding.raisedETH);\n        _rasiedETHAmount = steps[currentStep].funding.raisedETH;\n\n        return(_fpCountdown, _remainingETH, _rasiedETHAmount);\n    }\n\n    /// @notice Token\n    function _calculationWithdrawTokenAmount(uint256 _stepIndex) internal view returns(uint256){\n        return steps[_stepIndex].building.raisedToken.\n                mul(steps[_stepIndex].funder[msg.sender].ethAmount).\n                div(steps[_stepIndex].funding.raisedETH);\n    }\n\n    /// @notice \n    function getFunderInfo(\n        uint256 _stepIndex\n    )\n        public\n        view\n        returns\n    (\n        uint256,\n        uint256,\n        uint256,\n        uint256,\n        uint256,\n        uint256,\n        bytes memory,\n        bytes memory,\n        bytes memory,\n        bytes memory\n    )\n\n    {\n\n        uint256[] memory funderInfo = new uint256[](10);\n\n        Funder memory funder = steps[_stepIndex].funder[msg.sender];\n\n        // funderInfo[0] = funder.withdrawTokenAmount;\n        // call \n        funderInfo[0] = _calculationWithdrawTokenAmount(_stepIndex);\n        funderInfo[1] = resonanceDataManage.getETHBalance(msg.sender);\n        funderInfo[2] = funder.invitees.length;\n        funderInfo[3] = funder.earnFromAff;\n        funderInfo[4] = funder.tokenAmount;\n        funderInfo[5] = funder.ethAmount;\n        funderInfo[6] = luckyRewardInstance.luckyFunderTotalBalance(msg.sender);\n        funderInfo[7] = fissionRewardInstance.fissionFunderTotalBalance(msg.sender);\n        funderInfo[8] = FOMORewardInstance.FOMOFunderTotalBalance(msg.sender);\n        funderInfo[9] = faithRewardInstance.faithRewardAmount(msg.sender);\n\n        return(\n            funderInfo[0],\n            funderInfo[1],\n            funderInfo[2],\n            funderInfo[3],\n            funderInfo[4],\n            funderInfo[5],\n            UintUtils.toBytes(funderInfo[6]),\n            UintUtils.toBytes(funderInfo[7]),\n            UintUtils.toBytes(funderInfo[8]),\n            UintUtils.toBytes(funderInfo[9])\n        );\n    }\n\n    /// @notice \n    /// @param _promoter msg.sender\n    function _addBuilder(address _promoter) internal {\n        // \n        steps[currentStep].funder[msg.sender].funderAddr = msg.sender;\n        steps[currentStep].funder[msg.sender].promoter = _promoter;\n        isBuilder[msg.sender] = true;\n    }\n\n    /// @notice hash\n    function getBlockHash(uint256 _stepIndex) public view returns(bytes32) {\n        return blockhash(steps[_stepIndex].blockNumber+1);\n    }\n\n    /// @notice \n    function setBlockHash(uint256 _stepIndex) public returns(bool) {\n        if(steps[_stepIndex].blockNumber == 0){\n            steps[_stepIndex].blockNumber = block.number;\n            return true;\n        }else{\n            return false;\n        }\n    }\n\n    /// @notice \n    function currentStepIsClosed(uint256 _stepIndex) public view returns(bool) {\n        return steps[_stepIndex].stepIsClosed;\n    }\n\n    bool refundIsFinished;\n\n    /// @notice \n    /// @dev tokenETH\n    function refund() public onlyOwner() returns(bool){\n\n        // \n        require(!refundIsFinished, \"\");\n\n        // \n        uint256 resonanceClosedStep = resonanceDataManage.getResonanceClosedStep();\n        address[] memory funders = steps[resonanceClosedStep].funders;\n\n        // ETHToken\n        for(uint i = 0; i < funders.length; i++){\n            resonanceDataManage.setETHBalance(\n                funders[i],\n                resonanceDataManage.getETHBalance(funders[i]) + steps[resonanceClosedStep].funder[funders[i]].ethAmount\n            );\n\n            resonanceDataManage.setTokenBalance(\n                funders[i],\n                resonanceDataManage.getTokenBalance(funders[i]) + steps[resonanceClosedStep].funder[funders[i]].tokenAmount\n            );\n        }\n\n        refundIsFinished = true;\n\n        return refundIsFinished;\n    }\n\n}",
  "sourcePath": "/Users/a186r/dev/contracts/contract/contract/contracts/Resonance.sol",
  "compiler": {
    "name": "solc",
    "version": "0.5.2+commit.1df8f40c.Emscripten.clang"
  },
  "schemaVersion": "3.0.9",
  "updatedAt": "2019-05-31T17:01:50.197Z",
  "devdoc": {
    "methods": {
      "constructor": {
        "params": {
          "_abcToken": "Token"
        }
      },
      "getStepFunders(uint256)": {
        "details": "funders",
        "params": {
          "_stepIndex": ""
        }
      },
      "initParamForFirstStep(address,address,address)": {
        "details": "ResonanceDataManage"
      },
      "isOwner()": {
        "return": "true if `msg.sender` is the owner of the contract."
      },
      "owner()": {
        "return": "the address of the owner."
      },
      "refund()": {
        "details": "tokenETH"
      },
      "renounceOwnership()": {
        "details": "Allows the current owner to relinquish control of the contract. It will not be possible to call the functions with the `onlyOwner` modifier anymore."
      },
      "setRaiseTarget(uint256)": {
        "details": ""
      },
      "settlementFaithReward(address[])": {
        "params": {
          "_FaithWinnerList": ""
        }
      },
      "settlementStep(address[],address[])": {
        "details": "",
        "params": {
          "_LuckyWinnerList": "",
          "_fissionWinnerList": ""
        }
      },
      "toBeFissionPerson(address)": {
        "details": "TokenApprove",
        "params": {
          "promoter": ""
        }
      },
      "transferOwnership(address)": {
        "details": "Allows the current owner to transfer control of the contract to a newOwner.",
        "params": {
          "newOwner": "The address to transfer ownership to."
        }
      },
      "withdrawAllETHByOwner()": {
        "details": "ETH"
      }
    }
  },
  "userdoc": {
    "methods": {
      "constructor": "",
      "currentStepIsClosed(uint256)": {
        "notice": ""
      },
      "getBlockHash(uint256)": {
        "notice": "hash"
      },
      "getBuildingPerioInfo()": {
        "notice": ""
      },
      "getCurrentStepFundsInfo()": {
        "notice": "tokenETH"
      },
      "getFunderInfo(uint256)": {
        "notice": ""
      },
      "getFunderTotalRaised(address)": {
        "notice": "ETH"
      },
      "getInvitees(address)": {
        "notice": "funder"
      },
      "getRaiseTarget(uint256)": {
        "notice": ""
      },
      "getResonances()": {
        "notice": ""
      },
      "getStepFunders(uint256)": {
        "notice": "funders"
      },
      "initParamForFirstStep(address,address,address)": {
        "notice": ""
      },
      "isFunder()": {
        "notice": ""
      },
      "isFunderByStep(uint256)": {
        "notice": "msg.senderfunder"
      },
      "refund()": {
        "notice": ""
      },
      "renounceOwnership()": {
        "notice": "Renouncing ownership will leave the contract without an owner, thereby removing any functionality that is only available to the owner."
      },
      "setBlockHash(uint256)": {
        "notice": ""
      },
      "setRaiseTarget(uint256)": {
        "notice": ""
      },
      "settlementFaithReward(address[])": {
        "notice": ""
      },
      "settlementStep(address[],address[])": {
        "notice": ""
      },
      "toBeFissionPerson(address)": {
        "notice": ""
      },
      "transferToken()": {
        "notice": "Token"
      },
      "withdrawAllETH()": {
        "notice": "(ETH)"
      },
      "withdrawAllETHByOwner()": {
        "notice": "ETH"
      },
      "withdrawAllToken()": {
        "notice": "tokentoken"
      }
    }
  }
}