{
  "contractName": "ResonanceDataManage",
  "abi": [
    {
      "inputs": [
        {
          "name": "_fassionRewardAddress",
          "type": "address"
        },
        {
          "name": "_FOMORewardAddress",
          "type": "address"
        },
        {
          "name": "_luckyRewardAddress",
          "type": "address"
        },
        {
          "name": "_faithRewardAddress",
          "type": "address"
        }
      ],
      "payable": false,
      "stateMutability": "nonpayable",
      "type": "constructor"
    },
    {
      "anonymous": false,
      "inputs": [],
      "name": "WhihdrawAllToken",
      "type": "event"
    },
    {
      "constant": false,
      "inputs": [],
      "name": "setParamForFirstStep",
      "outputs": [],
      "payable": false,
      "stateMutability": "nonpayable",
      "type": "function"
    },
    {
      "constant": false,
      "inputs": [
        {
          "name": "_addr",
          "type": "address"
        }
      ],
      "name": "allowAccess",
      "outputs": [],
      "payable": false,
      "stateMutability": "nonpayable",
      "type": "function"
    },
    {
      "constant": false,
      "inputs": [
        {
          "name": "_addr",
          "type": "address"
        }
      ],
      "name": "denyAccess",
      "outputs": [],
      "payable": false,
      "stateMutability": "nonpayable",
      "type": "function"
    },
    {
      "constant": false,
      "inputs": [
        {
          "name": "_fundsPool",
          "type": "uint256"
        }
      ],
      "name": "setFundsPool",
      "outputs": [],
      "payable": false,
      "stateMutability": "nonpayable",
      "type": "function"
    },
    {
      "constant": true,
      "inputs": [],
      "name": "getFundsPool",
      "outputs": [
        {
          "name": "",
          "type": "uint256"
        }
      ],
      "payable": false,
      "stateMutability": "view",
      "type": "function"
    },
    {
      "constant": false,
      "inputs": [
        {
          "name": "_openingTime",
          "type": "uint256"
        }
      ],
      "name": "setOpeningTime",
      "outputs": [],
      "payable": false,
      "stateMutability": "nonpayable",
      "type": "function"
    },
    {
      "constant": true,
      "inputs": [],
      "name": "getOpeningTime",
      "outputs": [
        {
          "name": "",
          "type": "uint256"
        }
      ],
      "payable": false,
      "stateMutability": "view",
      "type": "function"
    },
    {
      "constant": false,
      "inputs": [
        {
          "name": "_crowdsaleClosed",
          "type": "bool"
        }
      ],
      "name": "setCrowdsaleClosed",
      "outputs": [],
      "payable": false,
      "stateMutability": "nonpayable",
      "type": "function"
    },
    {
      "constant": true,
      "inputs": [],
      "name": "getCrowdsaleClosed",
      "outputs": [
        {
          "name": "",
          "type": "bool"
        }
      ],
      "payable": false,
      "stateMutability": "view",
      "type": "function"
    },
    {
      "constant": true,
      "inputs": [
        {
          "name": "_addr",
          "type": "address"
        }
      ],
      "name": "getETHBalance",
      "outputs": [
        {
          "name": "",
          "type": "uint256"
        }
      ],
      "payable": false,
      "stateMutability": "view",
      "type": "function"
    },
    {
      "constant": false,
      "inputs": [
        {
          "name": "_addr",
          "type": "address"
        },
        {
          "name": "_amount",
          "type": "uint256"
        }
      ],
      "name": "setETHBalance",
      "outputs": [],
      "payable": false,
      "stateMutability": "nonpayable",
      "type": "function"
    },
    {
      "constant": true,
      "inputs": [
        {
          "name": "_addr",
          "type": "address"
        }
      ],
      "name": "getTokenBalance",
      "outputs": [
        {
          "name": "",
          "type": "uint256"
        }
      ],
      "payable": false,
      "stateMutability": "view",
      "type": "function"
    },
    {
      "constant": false,
      "inputs": [
        {
          "name": "_addr",
          "type": "address"
        },
        {
          "name": "_amount",
          "type": "uint256"
        }
      ],
      "name": "setTokenBalance",
      "outputs": [],
      "payable": false,
      "stateMutability": "nonpayable",
      "type": "function"
    },
    {
      "constant": true,
      "inputs": [],
      "name": "getBuildingTokenAmount",
      "outputs": [
        {
          "name": "",
          "type": "uint256"
        }
      ],
      "payable": false,
      "stateMutability": "view",
      "type": "function"
    },
    {
      "constant": false,
      "inputs": [
        {
          "name": "_tokenAmount",
          "type": "uint256"
        }
      ],
      "name": "setBuildingTokenAmount",
      "outputs": [],
      "payable": false,
      "stateMutability": "nonpayable",
      "type": "function"
    },
    {
      "constant": true,
      "inputs": [],
      "name": "isBuildingPeriod",
      "outputs": [
        {
          "name": "",
          "type": "bool"
        }
      ],
      "payable": false,
      "stateMutability": "view",
      "type": "function"
    },
    {
      "constant": true,
      "inputs": [],
      "name": "isFundingPeriod",
      "outputs": [
        {
          "name": "",
          "type": "bool"
        }
      ],
      "payable": false,
      "stateMutability": "view",
      "type": "function"
    },
    {
      "constant": false,
      "inputs": [
        {
          "name": "raisedETH",
          "type": "uint256"
        },
        {
          "name": "softCap",
          "type": "uint256"
        }
      ],
      "name": "crowdsaleIsClosed",
      "outputs": [
        {
          "name": "",
          "type": "bool"
        }
      ],
      "payable": false,
      "stateMutability": "nonpayable",
      "type": "function"
    },
    {
      "constant": true,
      "inputs": [],
      "name": "getResonanceIsClosed",
      "outputs": [
        {
          "name": "",
          "type": "bool"
        }
      ],
      "payable": false,
      "stateMutability": "view",
      "type": "function"
    },
    {
      "constant": false,
      "inputs": [
        {
          "name": "_stepIndex",
          "type": "uint256"
        },
        {
          "name": "_fissionWinnerList",
          "type": "address[]"
        },
        {
          "name": "totalFissionReward",
          "type": "uint256"
        }
      ],
      "name": "settlementFissionReward",
      "outputs": [],
      "payable": false,
      "stateMutability": "nonpayable",
      "type": "function"
    },
    {
      "constant": false,
      "inputs": [
        {
          "name": "_stepIndex",
          "type": "uint256"
        },
        {
          "name": "_funders",
          "type": "address[]"
        },
        {
          "name": "totalFOMOReward",
          "type": "uint256"
        }
      ],
      "name": "settlementFOMOReward",
      "outputs": [],
      "payable": false,
      "stateMutability": "nonpayable",
      "type": "function"
    },
    {
      "constant": false,
      "inputs": [
        {
          "name": "_stepIndex",
          "type": "uint256"
        },
        {
          "name": "_LuckyWinnerList",
          "type": "address[]"
        },
        {
          "name": "totalLuckyReward",
          "type": "uint256"
        }
      ],
      "name": "settlementLuckyReward",
      "outputs": [],
      "payable": false,
      "stateMutability": "nonpayable",
      "type": "function"
    },
    {
      "constant": false,
      "inputs": [
        {
          "name": "_faithWinners",
          "type": "address[]"
        },
        {
          "name": "totalFaithReward",
          "type": "uint256"
        }
      ],
      "name": "dmSettlementFaithReward",
      "outputs": [
        {
          "name": "",
          "type": "bool"
        }
      ],
      "payable": false,
      "stateMutability": "nonpayable",
      "type": "function"
    },
    {
      "constant": true,
      "inputs": [
        {
          "name": "_addr",
          "type": "address"
        }
      ],
      "name": "withdrawTokenAmount",
      "outputs": [
        {
          "name": "",
          "type": "uint256"
        }
      ],
      "payable": false,
      "stateMutability": "view",
      "type": "function"
    },
    {
      "constant": true,
      "inputs": [
        {
          "name": "_addr",
          "type": "address"
        }
      ],
      "name": "withdrawETHAmount",
      "outputs": [
        {
          "name": "",
          "type": "uint256"
        }
      ],
      "payable": false,
      "stateMutability": "view",
      "type": "function"
    },
    {
      "constant": false,
      "inputs": [],
      "name": "emptyTokenBalance",
      "outputs": [],
      "payable": false,
      "stateMutability": "nonpayable",
      "type": "function"
    },
    {
      "constant": false,
      "inputs": [],
      "name": "emptyETHBalance",
      "outputs": [],
      "payable": false,
      "stateMutability": "nonpayable",
      "type": "function"
    },
    {
      "constant": true,
      "inputs": [
        {
          "name": "_stepIndex",
          "type": "uint256"
        }
      ],
      "name": "getFissionRewardInfo",
      "outputs": [
        {
          "name": "",
          "type": "uint256"
        },
        {
          "name": "",
          "type": "address[]"
        },
        {
          "name": "",
          "type": "uint256[]"
        }
      ],
      "payable": false,
      "stateMutability": "view",
      "type": "function"
    },
    {
      "constant": true,
      "inputs": [
        {
          "name": "_stepIndex",
          "type": "uint256"
        }
      ],
      "name": "getFOMORewardIofo",
      "outputs": [
        {
          "name": "",
          "type": "uint256"
        },
        {
          "name": "",
          "type": "address[]"
        },
        {
          "name": "",
          "type": "uint256[]"
        }
      ],
      "payable": false,
      "stateMutability": "view",
      "type": "function"
    },
    {
      "constant": true,
      "inputs": [
        {
          "name": "_stepIndex",
          "type": "uint256"
        }
      ],
      "name": "getLuckyRewardInfo",
      "outputs": [
        {
          "name": "",
          "type": "uint256"
        },
        {
          "name": "",
          "type": "address[]"
        },
        {
          "name": "",
          "type": "uint256"
        }
      ],
      "payable": false,
      "stateMutability": "view",
      "type": "function"
    },
    {
      "constant": true,
      "inputs": [],
      "name": "getFaithRewardInfo",
      "outputs": [
        {
          "name": "",
          "type": "uint256"
        },
        {
          "name": "",
          "type": "address[]"
        },
        {
          "name": "",
          "type": "uint256[]"
        }
      ],
      "payable": false,
      "stateMutability": "view",
      "type": "function"
    },
    {
      "constant": false,
      "inputs": [
        {
          "name": "_stepIndex",
          "type": "uint256"
        }
      ],
      "name": "updateBuildingPercent",
      "outputs": [
        {
          "name": "",
          "type": "bool"
        }
      ],
      "payable": false,
      "stateMutability": "nonpayable",
      "type": "function"
    }
  ],
  "bytecode": "0x60806040526007805460ff1990811690915560098054603292169190911761ff00191661320017905534801561003457600080fd5b50604051608080611f2f8339810180604052608081101561005457600080fd5b508051602080830151604080850151606090950151336000908152938490529220805460ff191660019081179091558054600160a060020a03948516600160a060020a03199182161790915560028054928516928216929092179091556003805494841694821694909417909355600480549290911691909216179055611e4f806100e06000396000f3fe608060405234801561001057600080fd5b50600436106101f45760003560e060020a9004806384976e7411610113578063abdd11a8116100a6578063d746357311610075578063d74635731461069a578063da03095c146106a2578063deb72f1f146106c1578063fd38f45b1461076d576101f4565b8063abdd11a81461063a578063bc8a5bb214610657578063c4a85bc114610674578063d6d11b8214610465576101f4565b806395bbde88116100e257806395bbde881461054657806398e24c06146105eb5780639b32a7781461060e5780639d7e0c86146103bf576101f4565b806384976e74146104755780638a18854b146105215780638d8276be1461053e5780639263434e146103e5576101f4565b80633723e1c21161018b578063503001201161015a578063503001201461043757806361afd5ac1461043f578063743acbab1461046557806374ebae061461046d576101f4565b80633723e1c2146103405780633aecd0e3146103bf5780633bb66a7b146103e55780634ceb1f131461040b576101f4565b80631e7efbc9116101c75780631e7efbc9146102e457806325d8e97f146103015780632734189a1461030957806330f42bf614610323576101f4565b80630c214602146101f95780630c5d0c56146102a15780630d9907d9146102ab5780631c5ce157146102dc575b600080fd5b610201610819565b604051808481526020018060200180602001838103835285818151815260200191508051906020019060200280838360005b8381101561024b578181015183820152602001610233565b50505050905001838103825284818151815260200191508051906020019060200280838360005b8381101561028a578181015183820152602001610272565b505050509050019550505050505060405180910390f35b6102a961095a565b005b6102c8600480360360208110156102c157600080fd5b503561096c565b604080519115158252519081900360200190f35b6102a9610aa9565b610201600480360360208110156102fa57600080fd5b5035610c23565b6102c8610d7b565b610311610da8565b60408051918252519081900360200190f35b6102a96004803603602081101561033957600080fd5b5035610dae565b61035d6004803603602081101561035657600080fd5b5035610e0a565b6040518084815260200180602001838152602001828103825284818151815260200191508051906020019060200280838360005b838110156103a9578181015183820152602001610391565b5050505090500194505050505060405180910390f35b610311600480360360208110156103d557600080fd5b5035600160a060020a0316610f1d565b610311600480360360208110156103fb57600080fd5b5035600160a060020a0316610f38565b6102a96004803603604081101561042157600080fd5b50600160a060020a038135169060200135610f53565b6102a9610fc6565b6102a96004803603602081101561045557600080fd5b5035600160a060020a0316610fd8565b6102c8611050565b6102c8611059565b6102a96004803603606081101561048b57600080fd5b813591908101906040810160208201356401000000008111156104ad57600080fd5b8201836020820111156104bf57600080fd5b803590602001918460208302840111640100000000831117156104e157600080fd5b9190808060200260200160405190810160405280939291908181526020018383602002808284376000920191909152509295505091359250611083915050565b6102016004803603602081101561053757600080fd5b5035611320565b61031161138c565b6102c86004803603604081101561055c57600080fd5b81019060208101813564010000000081111561057757600080fd5b82018360208201111561058957600080fd5b803590602001918460208302840111640100000000831117156105ab57600080fd5b9190808060200260200160405190810160405280939291908181526020018383602002808284376000920191909152509295505091359250611392915050565b6102c86004803603604081101561060157600080fd5b50803590602001356115c0565b6102a96004803603604081101561062457600080fd5b50600160a060020a03813516906020013561175c565b6102a96004803603602081101561065057600080fd5b50356117cf565b6102a96004803603602081101561066d57600080fd5b503561182b565b6102a96004803603602081101561068a57600080fd5b5035600160a060020a0316611887565b610311611902565b6102a9600480360360208110156106b857600080fd5b50351515611908565b6102a9600480360360608110156106d757600080fd5b813591908101906040810160208201356401000000008111156106f957600080fd5b82018360208201111561070b57600080fd5b8035906020019184602083028401116401000000008311171561072d57600080fd5b9190808060200260200160405190810160405280939291908181526020018383602002808284376000920191909152509295505091359250611972915050565b6102a96004803603606081101561078357600080fd5b813591908101906040810160208201356401000000008111156107a557600080fd5b8201836020820111156107b757600080fd5b803590602001918460208302840111640100000000831117156107d957600080fd5b9190808060200260200160405190810160405280939291908181526020018383602002808284376000920191909152509295505091359250611b9b915050565b6000606080600460009054906101000a9004600160a060020a0316600160a060020a031663c62461cc6040518163ffffffff1660e060020a02815260040160006040518083038186803b15801561086f57600080fd5b505afa158015610883573d6000803e3d6000fd5b505050506040513d6000823e601f3d908101601f1916820160405260608110156108ac57600080fd5b8151602083018051919392830192916401000000008111156108cd57600080fd5b820160208101848111156108e057600080fd5b81518560208202830111640100000000821117156108fd57600080fd5b5050929190602001805164010000000081111561091957600080fd5b8201602081018481111561092c57600080fd5b815185602082028301116401000000008211171561094957600080fd5b509599949850965092945050505050565b326000908152600b6020526040812055565b3360009081526020819052604081205460ff1615156109c3576040805160e560020a62461bcd02815260206004820152601b6024820152600080516020611e04833981519152604482015290519081900360640190fd5b600554600010610a075760405160e560020a62461bcd028152600401808060200182810382526021815260200180611dbf6021913960400191505060405180910390fd5b600954604260ff9091161015610a47576009805461ff001960ff198216600160ff9384160183161790811661010091829004831660001901909216021790555b6001821015610a8a5760405160e560020a62461bcd028152600401808060200182810382526024815260200180611de06024913960400191505060405180910390fd5b8160640a600854606302811515610a9d57fe5b04600855506001919050565b3360009081526020819052604090205460ff161515610b00576040805160e560020a62461bcd02815260206004820152601b6024820152600080516020611e04833981519152604482015290519081900360640190fd5b73__UintUtils_____________________________63669dafe86308f0d1806040518263ffffffff1660e060020a0281526004018082815260200191505060206040518083038186803b158015610b5657600080fd5b505af4158015610b6a573d6000803e3d6000fd5b505050506040513d6020811015610b8057600080fd5b5051600555604080517f669dafe80000000000000000000000000000000000000000000000000000000081526216e3606004820152905173__UintUtils_____________________________9163669dafe8916024808301926020929190829003018186803b158015610bf257600080fd5b505af4158015610c06573d6000803e3d6000fd5b505050506040513d6020811015610c1c57600080fd5b5051600855565b600254604080517f2889cc070000000000000000000000000000000000000000000000000000000081526004810184905290516000926060928392600160a060020a0390921691632889cc07916024808201928892909190829003018186803b158015610c8f57600080fd5b505afa158015610ca3573d6000803e3d6000fd5b505050506040513d6000823e601f3d908101601f191682016040526060811015610ccc57600080fd5b815160208301805191939283019291640100000000811115610ced57600080fd5b82016020810184811115610d0057600080fd5b8151856020820283011164010000000082111715610d1d57600080fd5b50509291906020018051640100000000811115610d3957600080fd5b82016020810184811115610d4c57600080fd5b8151856020820283011164010000000082111715610d6957600080fd5b50959a94995097509295505050505050565b60006006544210158015610d9457506006546170800142105b15610da157506001610da5565b5060005b90565b60055490565b3360009081526020819052604090205460ff161515610e05576040805160e560020a62461bcd02815260206004820152601b6024820152600080516020611e04833981519152604482015290519081900360640190fd5b600555565b600354604080517f493274410000000000000000000000000000000000000000000000000000000081526004810184905290516000926060928492600160a060020a03909216916349327441916024808201928692909190829003018186803b158015610e7657600080fd5b505afa158015610e8a573d6000803e3d6000fd5b505050506040513d6000823e601f3d908101601f191682016040526060811015610eb357600080fd5b815160208301805191939283019291640100000000811115610ed457600080fd5b82016020810184811115610ee757600080fd5b8151856020820283011164010000000082111715610f0457600080fd5b5050602090910151939650945091925050509193909250565b600160a060020a03166000908152600b602052604090205490565b600160a060020a03166000908152600a602052604090205490565b3360009081526020819052604090205460ff161515610faa576040805160e560020a62461bcd02815260206004820152601b6024820152600080516020611e04833981519152604482015290519081900360640190fd5b600160a060020a039091166000908152600b6020526040902055565b326000908152600a6020526040812055565b3360009081526020819052604090205460ff16151561102f576040805160e560020a62461bcd02815260206004820152601b6024820152600080516020611e04833981519152604482015290519081900360640190fd5b600160a060020a03166000908152602081905260409020805460ff19169055565b60075460ff1690565b6000600654617080014210158015610d9457506006546201518001421015610da157506001610da5565b3360009081526020819052604090205460ff1615156110da576040805160e560020a62461bcd02815260206004820152601b6024820152600080516020611e04833981519152604482015290519081900360640190fd5b6002546040517fc21a774300000000000000000000000000000000000000000000000000000000815260048101858152604482018490526060602483018181528651606485015286519194600160a060020a03169363c21a77439389938993899390916084909101906020808701910280838360005b83811015611168578181015183820152602001611150565b50505050905001945050505050600060405180830381600087803b15801561118f57600080fd5b505af11580156111a3573d6000803e3d6000fd5b505050506040513d6000823e601f3d908101601f1916820160405260208110156111cc57600080fd5b8101908080516401000000008111156111e457600080fd5b820160208101848111156111f757600080fd5b815185602082028301116401000000008211171561121457600080fd5b50909450600093505050505b8151811015611319576002548251600160a060020a039091169063509b49e990879085908590811061124e57fe5b906020019060200201516040518363ffffffff1660e060020a0281526004018083815260200182600160a060020a0316600160a060020a031681526020019250505060206040518083038186803b1580156112a857600080fd5b505afa1580156112bc573d6000803e3d6000fd5b505050506040513d60208110156112d257600080fd5b50518251600a906000908590859081106112e857fe5b6020908102909101810151600160a060020a0316825281019190915260400160002080549091019055600101611220565b5050505050565b600154604080517fc79b12450000000000000000000000000000000000000000000000000000000081526004810184905290516000926060928392600160a060020a039092169163c79b1245916024808201928892909190829003018186803b158015610c8f57600080fd5b60085490565b3360009081526020819052604081205460ff1615156113e9576040805160e560020a62461bcd02815260206004820152601b6024820152600080516020611e04833981519152604482015290519081900360640190fd5b60048054604080517f1e238d1000000000000000000000000000000000000000000000000000000000815260248101869052928301908152855160448401528551600093600160a060020a0390931692631e238d1092889288928291606490910190602080870191028083838c5b8381101561146f578181015183820152602001611457565b505050509050019350505050602060405180830381600087803b15801561149557600080fd5b505af11580156114a9573d6000803e3d6000fd5b505050506040513d60208110156114bf57600080fd5b5051905060005b84518110156115b6576004548551600160a060020a0390911690634a681787908790849081106114f257fe5b906020019060200201516040518263ffffffff1660e060020a0281526004018082600160a060020a0316600160a060020a0316815260200191505060206040518083038186803b15801561154557600080fd5b505afa158015611559573d6000803e3d6000fd5b505050506040513d602081101561156f57600080fd5b50518551600a9060009088908590811061158557fe5b6020908102909101810151600160a060020a03168252810191909152604001600020805490910190556001016114c6565b5090505b92915050565b3360009081526020819052604081205460ff161515611617576040805160e560020a62461bcd02815260206004820152601b6024820152600080516020611e04833981519152604482015290519081900360640190fd5b73__UintUtils_____________________________63669dafe8836040518263ffffffff1660e060020a0281526004018082815260200191505060206040518083038186803b15801561166957600080fd5b505af415801561167d573d6000803e3d6000fd5b505050506040513d602081101561169357600080fd5b5051604080517f669dafe800000000000000000000000000000000000000000000000000000000815260048101869052905173__UintUtils_____________________________9163669dafe8916024808301926020929190829003018186803b15801561170057600080fd5b505af4158015611714573d6000803e3d6000fd5b505050506040513d602081101561172a57600080fd5b50511015611740576007805460ff191660011790555b60055415156115ba576007805460ff1916600117905592915050565b3360009081526020819052604090205460ff1615156117b3576040805160e560020a62461bcd02815260206004820152601b6024820152600080516020611e04833981519152604482015290519081900360640190fd5b600160a060020a039091166000908152600a6020526040902055565b3360009081526020819052604090205460ff161515611826576040805160e560020a62461bcd02815260206004820152601b6024820152600080516020611e04833981519152604482015290519081900360640190fd5b600655565b3360009081526020819052604090205460ff161515611882576040805160e560020a62461bcd02815260206004820152601b6024820152600080516020611e04833981519152604482015290519081900360640190fd5b600855565b3360009081526020819052604090205460ff1615156118de576040805160e560020a62461bcd02815260206004820152601b6024820152600080516020611e04833981519152604482015290519081900360640190fd5b600160a060020a03166000908152602081905260409020805460ff19166001179055565b60065490565b3360009081526020819052604090205460ff16151561195f576040805160e560020a62461bcd02815260206004820152601b6024820152600080516020611e04833981519152604482015290519081900360640190fd5b6007805460ff1916911515919091179055565b3360009081526020819052604090205460ff1615156119c9576040805160e560020a62461bcd02815260206004820152601b6024820152600080516020611e04833981519152604482015290519081900360640190fd5b6001546040517fa5fa79760000000000000000000000000000000000000000000000000000000081526004810185815260448201849052606060248301908152855160648401528551600160a060020a039094169363a5fa797693889388938893919290916084909101906020808701910280838360005b83811015611a59578181015183820152602001611a41565b50505050905001945050505050600060405180830381600087803b158015611a8057600080fd5b505af1158015611a94573d6000803e3d6000fd5b506000925050505b8251811015611b95576001548351600160a060020a03909116906365922b74908690869085908110611aca57fe5b906020019060200201516040518363ffffffff1660e060020a0281526004018083815260200182600160a060020a0316600160a060020a031681526020019250505060206040518083038186803b158015611b2457600080fd5b505afa158015611b38573d6000803e3d6000fd5b505050506040513d6020811015611b4e57600080fd5b50518351600a90600090869085908110611b6457fe5b6020908102909101810151600160a060020a0316825281019190915260400160002080549091019055600101611a9c565b50505050565b3360009081526020819052604090205460ff161515611bf2576040805160e560020a62461bcd02815260206004820152601b6024820152600080516020611e04833981519152604482015290519081900360640190fd5b6003546040517fac197f920000000000000000000000000000000000000000000000000000000081526004810185815260448201849052606060248301908152855160648401528551600160a060020a039094169363ac197f9293889388938893919290916084909101906020808701910280838360005b83811015611c82578181015183820152602001611c6a565b50505050905001945050505050600060405180830381600087803b158015611ca957600080fd5b505af1158015611cbd573d6000803e3d6000fd5b506000925050505b8251811015611b95576003548351600160a060020a039091169063dd572ab9908690869085908110611cf357fe5b906020019060200201516040518363ffffffff1660e060020a0281526004018083815260200182600160a060020a0316600160a060020a031681526020019250505060206040518083038186803b158015611d4d57600080fd5b505afa158015611d61573d6000803e3d6000fd5b505050506040513d6020811015611d7757600080fd5b50518351600a90600090869085908110611d8d57fe5b6020908102909101810151600160a060020a0316825281019190915260400160002080549091019055600101611cc556fee585b1e5bbbae8b584e98791e6b1a0e5b7b2e7bb8fe6b688e88097e5ae8ce6af95e7acace4b880e8bdaee695b0e580bce5b7b2e7bb8fe5889de5a78be58c96e8bf87e4ba86e8b083e794a8e88085e6b2a1e69c89e8b083e794a8e69d83e999900000000000a165627a7a723058208fa1c16f8fcc2ad14ac1415ffa2f9ec7ae348f59fab7ee261a4fb515c27a64cc0029",
  "source": "pragma solidity >=0.4.21 <0.6.0;\n\nimport \"../node_modules/openzeppelin-solidity/contracts/math/SafeMath.sol\";\nimport \"./UintUtils.sol\";\nimport \"./FissionReward.sol\";\nimport \"./FOMOReward.sol\";\nimport \"./LuckyReward.sol\";\nimport \"./FaithReward.sol\";\nimport \"./ABCToken.sol\";\n\n/// @title \n/// @dev \ncontract ResonanceDataManage{\n\n    using SafeMath for uint256;\n\n    event WhihdrawAllToken();\n\n    mapping(address => bool) accessAllowed;\n\n    modifier platform() {\n        require(accessAllowed[msg.sender], \"\");\n        _;\n    }\n\n    FissionReward fissionRewardInstance;\n    FOMOReward FOMORewardInstance;\n    LuckyReward luckyRewardInstance;\n    FaithReward faithRewardInstance;\n\n    // \n    uint256 private fundsPool;\n    // \n    uint256 private openingTime;\n    // \n    bool crowdsaleClosed = false;\n    // \n    // uint256 currentStep;\n\n    // Token\n    uint256 initBuildingTokenAmount;\n\n    // Token\n    uint8 buildingPercentOfParty = 50;\n\n    // Token\n    uint8 buildingPercentOfCommunity = 50;\n\n    // \n    mapping(address => uint256) private ETHBalance;\n    mapping(address => uint256) private tokenBalance;\n\n    constructor(\n        address _fassionRewardAddress,\n        address _FOMORewardAddress,\n        address _luckyRewardAddress,\n        address _faithRewardAddress\n    ) public {\n        accessAllowed[msg.sender] = true;\n        // \n        fissionRewardInstance = FissionReward(_fassionRewardAddress);\n        FOMORewardInstance = FOMOReward(_FOMORewardAddress);\n        luckyRewardInstance = LuckyReward(_luckyRewardAddress);\n        faithRewardInstance = FaithReward(_faithRewardAddress);\n    }\n\n    // \n    function setParamForFirstStep() public platform{\n        fundsPool = UintUtils.toWei(150000000);\n        initBuildingTokenAmount = UintUtils.toWei(1500000);\n    }\n\n    function allowAccess(address _addr) public platform() {\n        accessAllowed[_addr] = true;\n    }\n\n    function denyAccess(address _addr) public platform() {\n        accessAllowed[_addr] = false;\n    }\n\n    function setFundsPool(uint256 _fundsPool) public platform() {\n        fundsPool = _fundsPool;\n    }\n\n    function getFundsPool() public view returns(uint256) {\n        return fundsPool;\n    }\n\n    function setOpeningTime(uint256 _openingTime) public platform() {\n        openingTime = _openingTime;\n    }\n\n    function getOpeningTime() public view returns(uint256){\n        return openingTime;\n    }\n\n    function setCrowdsaleClosed(bool _crowdsaleClosed) public platform() {\n        crowdsaleClosed = _crowdsaleClosed;\n    }\n\n    function getCrowdsaleClosed() public view returns(bool) {\n        return crowdsaleClosed;\n    }\n\n    function getETHBalance(address _addr) public view returns(uint256) {\n        return ETHBalance[_addr];\n    }\n\n    function setETHBalance(address _addr, uint256 _amount) public platform() {\n        ETHBalance[_addr] = _amount;\n    }\n\n    function getTokenBalance(address _addr) public view returns(uint256) {\n        return tokenBalance[_addr];\n    }\n\n    function setTokenBalance(address _addr, uint256 _amount) public platform() {\n        tokenBalance[_addr] = _amount;\n    }\n\n    function getBuildingTokenAmount() public view returns(uint256) {\n        return initBuildingTokenAmount;\n    }\n\n    function setBuildingTokenAmount(uint256 _tokenAmount) public platform() {\n        initBuildingTokenAmount = _tokenAmount;\n    }\n\n    // \n    function isBuildingPeriod() public view returns(bool){\n        if(block.timestamp >= openingTime && block.timestamp < openingTime + 8 hours) {\n            return true;\n        }else{\n            return false;\n        }\n    }\n\n    // \n    function isFundingPeriod() public view returns(bool) {\n        if(block.timestamp >= openingTime + 8 hours && block.timestamp < openingTime + 24 hours) {\n            return true;\n        }else{\n            return false;\n        }\n    }\n\n    /// @notice \n    /// @dev \n    /// @param raisedETH ETH\n    /// @param softCap \n    function crowdsaleIsClosed(\n        uint256 raisedETH,\n        uint256 softCap\n    )\n        public\n        platform()\n        returns(bool)\n    {\n        // 1.\n        if(UintUtils.toWei(raisedETH) < UintUtils.toWei(softCap)) {\n            crowdsaleClosed = true;\n        }\n\n        // 2.\n        if(fundsPool == 0) {\n            crowdsaleClosed = true;\n        }\n    }\n\n    /// @notice \n    /// @dev viewcrowdsaleClosed\n    function getResonanceIsClosed() public view returns(bool) {\n        return crowdsaleClosed;\n    }\n\n    /// @notice \n    function settlementFissionReward(uint256 _stepIndex, address[] memory _fissionWinnerList, uint256 totalFissionReward)\n        public\n        platform()\n    {\n        fissionRewardInstance.dealFissionInfo(_stepIndex, _fissionWinnerList, totalFissionReward);\n        // \n        for(uint i = 0; i < _fissionWinnerList.length; i++){\n            ETHBalance[_fissionWinnerList[i]] += fissionRewardInstance.fissionRewardAmount(_stepIndex,_fissionWinnerList[i]);\n        }\n    }\n\n    function settlementFOMOReward(uint256 _stepIndex, address[] memory _funders, uint256 totalFOMOReward)\n        public\n        platform()\n    {\n        address[] memory FOMOWinnerList = FOMORewardInstance.dealFOMOWinner(_stepIndex, _funders, totalFOMOReward);\n\n        for(uint i = 0; i < FOMOWinnerList.length; i++){\n            ETHBalance[FOMOWinnerList[i]] += FOMORewardInstance.FOMORewardAmount(_stepIndex,FOMOWinnerList[i]);\n        }\n    }\n\n    function settlementLuckyReward(uint256 _stepIndex, address[] memory _LuckyWinnerList, uint256 totalLuckyReward)\n        public\n        platform()\n    {\n        luckyRewardInstance.dealLuckyInfo(_stepIndex, _LuckyWinnerList, totalLuckyReward);\n        for(uint i = 0; i < _LuckyWinnerList.length; i++){\n            ETHBalance[_LuckyWinnerList[i]] += luckyRewardInstance.luckyRewardAmount(_stepIndex,_LuckyWinnerList[i]);\n        }\n    }\n\n    function dmSettlementFaithReward(address[] memory _faithWinners, uint256 totalFaithReward)\n        public\n        platform()\n        returns(bool)\n    {\n        bool faithRewardFinished = faithRewardInstance.dealFaithWinner(_faithWinners, totalFaithReward);\n\n        for(uint i = 0; i < _faithWinners.length; i++){\n            ETHBalance[_faithWinners[i]] += faithRewardInstance.faithRewardAmount(_faithWinners[i]);\n        }\n        return faithRewardFinished;\n    }\n\n    /// @notice Token\n    function withdrawTokenAmount(address _addr) public view returns (uint256) {\n        return tokenBalance[_addr];\n    }\n\n    /// @notice ETH\n    function withdrawETHAmount(address _addr) public view returns (uint256) {\n        return ETHBalance[_addr];\n    }\n\n    function emptyTokenBalance() public {\n        tokenBalance[tx.origin] = 0;\n    }\n\n    function emptyETHBalance() public {\n        ETHBalance[tx.origin] = 0;\n    }\n\n    /// @notice \n    /// @dev \n    /// @param _stepIndex \n    function getFissionRewardInfo(uint256 _stepIndex)\n        public\n        view\n        returns(uint256, address[] memory, uint256[] memory)\n    {\n        return fissionRewardInstance.getFissionInfo(_stepIndex);\n    }\n\n    /// @notice FOMO\n    /// @dev FOMO\n    /// @param _stepIndex \n    function getFOMORewardIofo(uint256 _stepIndex)\n        public\n        view\n        returns(uint256, address[] memory, uint256[] memory)\n    {\n        return FOMORewardInstance.getFOMOWinnerInfo(_stepIndex);\n    }\n\n    /// @notice \n    /// @dev \n    /// @param _stepIndex \n    function getLuckyRewardInfo(uint256 _stepIndex)\n        public\n        view\n        returns(uint256, address[] memory, uint256)\n    {\n        return luckyRewardInstance.getLuckyInfo(_stepIndex);\n    }\n\n    /// @notice \n    /// @dev \n    function getFaithRewardInfo()\n        public\n        view\n        returns(uint256, address[] memory, uint256[] memory)\n    {\n        return faithRewardInstance.getFaithWinnerInfo();\n    }\n\n    /// @notice \n    function updateBuildingPercent(uint256 _stepIndex) public platform() returns (bool) {\n        require(fundsPool > 0, \"\");\n        // +1%-1%\n        if(buildingPercentOfParty < 66){\n            buildingPercentOfParty += 1;\n            buildingPercentOfCommunity -= 1;\n        }\n        require(_stepIndex >= 1, \"\");\n        initBuildingTokenAmount = initBuildingTokenAmount * 99 / 100 ** _stepIndex;\n\n        return true;\n    }\n\n}",
  "sourcePath": "/Users/a186r/dev/sourcecode/contracts/contract/contract/contracts/ResonanceDataManage.sol",
  "compiler": {
    "name": "solc",
    "version": "0.5.2+commit.1df8f40c.Emscripten.clang"
  },
  "schemaVersion": "3.0.6",
  "updatedAt": "2019-05-27T16:06:47.871Z",
  "devdoc": {
    "details": "",
    "methods": {
      "crowdsaleIsClosed(uint256,uint256)": {
        "details": "",
        "params": {
          "raisedETH": "ETH",
          "softCap": ""
        }
      },
      "getFOMORewardIofo(uint256)": {
        "details": "FOMO",
        "params": {
          "_stepIndex": ""
        }
      },
      "getFaithRewardInfo()": {
        "details": ""
      },
      "getFissionRewardInfo(uint256)": {
        "details": "",
        "params": {
          "_stepIndex": ""
        }
      },
      "getLuckyRewardInfo(uint256)": {
        "details": "",
        "params": {
          "_stepIndex": ""
        }
      },
      "getResonanceIsClosed()": {
        "details": "viewcrowdsaleClosed"
      }
    },
    "title": ""
  },
  "userdoc": {
    "methods": {
      "crowdsaleIsClosed(uint256,uint256)": {
        "notice": ""
      },
      "getFOMORewardIofo(uint256)": {
        "notice": "FOMO"
      },
      "getFaithRewardInfo()": {
        "notice": ""
      },
      "getFissionRewardInfo(uint256)": {
        "notice": ""
      },
      "getLuckyRewardInfo(uint256)": {
        "notice": ""
      },
      "getResonanceIsClosed()": {
        "notice": ""
      },
      "settlementFissionReward(uint256,address[],uint256)": {
        "notice": ""
      },
      "updateBuildingPercent(uint256)": {
        "notice": ""
      },
      "withdrawETHAmount(address)": {
        "notice": "ETH"
      },
      "withdrawTokenAmount(address)": {
        "notice": "Token"
      }
    }
  }
}