{
  "contractName": "ResonanceDataManage",
  "abi": [
    {
      "inputs": [
        {
          "name": "_fassionRewardAddress",
          "type": "address"
        },
        {
          "name": "_FOMORewardAddress",
          "type": "address"
        },
        {
          "name": "_luckyRewardAddress",
          "type": "address"
        },
        {
          "name": "_faithRewardAddress",
          "type": "address"
        }
      ],
      "payable": false,
      "stateMutability": "nonpayable",
      "type": "constructor",
      "signature": "constructor"
    },
    {
      "anonymous": false,
      "inputs": [],
      "name": "WhihdrawAllToken",
      "type": "event",
      "signature": "0xee734865025ca1f0b8198bb35fbe6ca9a148b165df9c7b3862f84daee571e5d1"
    },
    {
      "constant": false,
      "inputs": [],
      "name": "setParamForFirstStep",
      "outputs": [],
      "payable": false,
      "stateMutability": "nonpayable",
      "type": "function",
      "signature": "0x1c5ce157"
    },
    {
      "constant": false,
      "inputs": [
        {
          "name": "_addr",
          "type": "address"
        }
      ],
      "name": "allowAccess",
      "outputs": [],
      "payable": false,
      "stateMutability": "nonpayable",
      "type": "function",
      "signature": "0xc4a85bc1"
    },
    {
      "constant": false,
      "inputs": [
        {
          "name": "_addr",
          "type": "address"
        }
      ],
      "name": "denyAccess",
      "outputs": [],
      "payable": false,
      "stateMutability": "nonpayable",
      "type": "function",
      "signature": "0x61afd5ac"
    },
    {
      "constant": false,
      "inputs": [
        {
          "name": "_fundsPool",
          "type": "uint256"
        }
      ],
      "name": "setFundsPool",
      "outputs": [],
      "payable": false,
      "stateMutability": "nonpayable",
      "type": "function",
      "signature": "0x30f42bf6"
    },
    {
      "constant": true,
      "inputs": [],
      "name": "getFundsPool",
      "outputs": [
        {
          "name": "",
          "type": "uint256"
        }
      ],
      "payable": false,
      "stateMutability": "view",
      "type": "function",
      "signature": "0x2734189a"
    },
    {
      "constant": false,
      "inputs": [
        {
          "name": "_openingTime",
          "type": "uint256"
        }
      ],
      "name": "setOpeningTime",
      "outputs": [],
      "payable": false,
      "stateMutability": "nonpayable",
      "type": "function",
      "signature": "0xabdd11a8"
    },
    {
      "constant": true,
      "inputs": [],
      "name": "getOpeningTime",
      "outputs": [
        {
          "name": "",
          "type": "uint256"
        }
      ],
      "payable": false,
      "stateMutability": "view",
      "type": "function",
      "signature": "0xd7463573"
    },
    {
      "constant": false,
      "inputs": [
        {
          "name": "_crowdsaleClosed",
          "type": "bool"
        }
      ],
      "name": "setCrowdsaleClosed",
      "outputs": [],
      "payable": false,
      "stateMutability": "nonpayable",
      "type": "function",
      "signature": "0xda03095c"
    },
    {
      "constant": true,
      "inputs": [],
      "name": "getCrowdsaleClosed",
      "outputs": [
        {
          "name": "",
          "type": "bool"
        }
      ],
      "payable": false,
      "stateMutability": "view",
      "type": "function",
      "signature": "0x743acbab"
    },
    {
      "constant": true,
      "inputs": [
        {
          "name": "_addr",
          "type": "address"
        }
      ],
      "name": "getETHBalance",
      "outputs": [
        {
          "name": "",
          "type": "uint256"
        }
      ],
      "payable": false,
      "stateMutability": "view",
      "type": "function",
      "signature": "0x3bb66a7b"
    },
    {
      "constant": false,
      "inputs": [
        {
          "name": "_addr",
          "type": "address"
        },
        {
          "name": "_amount",
          "type": "uint256"
        }
      ],
      "name": "setETHBalance",
      "outputs": [],
      "payable": false,
      "stateMutability": "nonpayable",
      "type": "function",
      "signature": "0x9b32a778"
    },
    {
      "constant": true,
      "inputs": [
        {
          "name": "_addr",
          "type": "address"
        }
      ],
      "name": "getTokenBalance",
      "outputs": [
        {
          "name": "",
          "type": "uint256"
        }
      ],
      "payable": false,
      "stateMutability": "view",
      "type": "function",
      "signature": "0x3aecd0e3"
    },
    {
      "constant": false,
      "inputs": [
        {
          "name": "_addr",
          "type": "address"
        },
        {
          "name": "_amount",
          "type": "uint256"
        }
      ],
      "name": "setTokenBalance",
      "outputs": [],
      "payable": false,
      "stateMutability": "nonpayable",
      "type": "function",
      "signature": "0x4ceb1f13"
    },
    {
      "constant": true,
      "inputs": [],
      "name": "getBuildingTokenAmount",
      "outputs": [
        {
          "name": "",
          "type": "uint256"
        }
      ],
      "payable": false,
      "stateMutability": "view",
      "type": "function",
      "signature": "0x8d8276be"
    },
    {
      "constant": false,
      "inputs": [
        {
          "name": "_tokenAmount",
          "type": "uint256"
        }
      ],
      "name": "setBuildingTokenAmount",
      "outputs": [],
      "payable": false,
      "stateMutability": "nonpayable",
      "type": "function",
      "signature": "0xbc8a5bb2"
    },
    {
      "constant": true,
      "inputs": [],
      "name": "isBuildingPeriod",
      "outputs": [
        {
          "name": "",
          "type": "bool"
        }
      ],
      "payable": false,
      "stateMutability": "view",
      "type": "function",
      "signature": "0x25d8e97f"
    },
    {
      "constant": true,
      "inputs": [],
      "name": "isFundingPeriod",
      "outputs": [
        {
          "name": "",
          "type": "bool"
        }
      ],
      "payable": false,
      "stateMutability": "view",
      "type": "function",
      "signature": "0x74ebae06"
    },
    {
      "constant": false,
      "inputs": [
        {
          "name": "raisedETH",
          "type": "uint256"
        },
        {
          "name": "softCap",
          "type": "uint256"
        },
        {
          "name": "stepIndex",
          "type": "uint256"
        }
      ],
      "name": "crowdsaleIsClosed",
      "outputs": [
        {
          "name": "",
          "type": "bool"
        }
      ],
      "payable": false,
      "stateMutability": "nonpayable",
      "type": "function",
      "signature": "0xc39fa861"
    },
    {
      "constant": true,
      "inputs": [],
      "name": "getResonanceClosedStep",
      "outputs": [
        {
          "name": "",
          "type": "uint256"
        }
      ],
      "payable": false,
      "stateMutability": "view",
      "type": "function",
      "signature": "0x50b9d89d"
    },
    {
      "constant": true,
      "inputs": [],
      "name": "getResonanceIsClosed",
      "outputs": [
        {
          "name": "",
          "type": "bool"
        }
      ],
      "payable": false,
      "stateMutability": "view",
      "type": "function",
      "signature": "0xd6d11b82"
    },
    {
      "constant": false,
      "inputs": [
        {
          "name": "_stepIndex",
          "type": "uint256"
        },
        {
          "name": "_fissionWinnerList",
          "type": "address[]"
        },
        {
          "name": "totalFissionReward",
          "type": "uint256"
        }
      ],
      "name": "settlementFissionReward",
      "outputs": [],
      "payable": false,
      "stateMutability": "nonpayable",
      "type": "function",
      "signature": "0xdeb72f1f"
    },
    {
      "constant": false,
      "inputs": [
        {
          "name": "_stepIndex",
          "type": "uint256"
        },
        {
          "name": "_funders",
          "type": "address[]"
        },
        {
          "name": "totalFOMOReward",
          "type": "uint256"
        }
      ],
      "name": "settlementFOMOReward",
      "outputs": [],
      "payable": false,
      "stateMutability": "nonpayable",
      "type": "function",
      "signature": "0x84976e74"
    },
    {
      "constant": false,
      "inputs": [
        {
          "name": "_stepIndex",
          "type": "uint256"
        },
        {
          "name": "_LuckyWinnerList",
          "type": "address[]"
        },
        {
          "name": "totalLuckyReward",
          "type": "uint256"
        }
      ],
      "name": "settlementLuckyReward",
      "outputs": [],
      "payable": false,
      "stateMutability": "nonpayable",
      "type": "function",
      "signature": "0xfd38f45b"
    },
    {
      "constant": false,
      "inputs": [
        {
          "name": "_faithWinners",
          "type": "address[]"
        },
        {
          "name": "totalFaithReward",
          "type": "uint256"
        }
      ],
      "name": "dmSettlementFaithReward",
      "outputs": [
        {
          "name": "",
          "type": "bool"
        }
      ],
      "payable": false,
      "stateMutability": "nonpayable",
      "type": "function",
      "signature": "0x95bbde88"
    },
    {
      "constant": true,
      "inputs": [
        {
          "name": "_addr",
          "type": "address"
        }
      ],
      "name": "withdrawTokenAmount",
      "outputs": [
        {
          "name": "",
          "type": "uint256"
        }
      ],
      "payable": false,
      "stateMutability": "view",
      "type": "function",
      "signature": "0x9d7e0c86"
    },
    {
      "constant": true,
      "inputs": [
        {
          "name": "_addr",
          "type": "address"
        }
      ],
      "name": "withdrawETHAmount",
      "outputs": [
        {
          "name": "",
          "type": "uint256"
        }
      ],
      "payable": false,
      "stateMutability": "view",
      "type": "function",
      "signature": "0x9263434e"
    },
    {
      "constant": false,
      "inputs": [],
      "name": "emptyTokenBalance",
      "outputs": [],
      "payable": false,
      "stateMutability": "nonpayable",
      "type": "function",
      "signature": "0x0c5d0c56"
    },
    {
      "constant": false,
      "inputs": [],
      "name": "emptyETHBalance",
      "outputs": [],
      "payable": false,
      "stateMutability": "nonpayable",
      "type": "function",
      "signature": "0x50300120"
    },
    {
      "constant": true,
      "inputs": [
        {
          "name": "_stepIndex",
          "type": "uint256"
        }
      ],
      "name": "getFissionRewardInfo",
      "outputs": [
        {
          "name": "",
          "type": "uint256"
        },
        {
          "name": "",
          "type": "address[]"
        },
        {
          "name": "",
          "type": "uint256[]"
        }
      ],
      "payable": false,
      "stateMutability": "view",
      "type": "function",
      "signature": "0x8a18854b"
    },
    {
      "constant": true,
      "inputs": [
        {
          "name": "_stepIndex",
          "type": "uint256"
        }
      ],
      "name": "getFOMORewardIofo",
      "outputs": [
        {
          "name": "",
          "type": "uint256"
        },
        {
          "name": "",
          "type": "address[]"
        },
        {
          "name": "",
          "type": "uint256[]"
        }
      ],
      "payable": false,
      "stateMutability": "view",
      "type": "function",
      "signature": "0x1e7efbc9"
    },
    {
      "constant": true,
      "inputs": [
        {
          "name": "_stepIndex",
          "type": "uint256"
        }
      ],
      "name": "getLuckyRewardInfo",
      "outputs": [
        {
          "name": "",
          "type": "uint256"
        },
        {
          "name": "",
          "type": "address[]"
        },
        {
          "name": "",
          "type": "uint256"
        }
      ],
      "payable": false,
      "stateMutability": "view",
      "type": "function",
      "signature": "0x3723e1c2"
    },
    {
      "constant": true,
      "inputs": [],
      "name": "getFaithRewardInfo",
      "outputs": [
        {
          "name": "",
          "type": "uint256"
        },
        {
          "name": "",
          "type": "address[]"
        },
        {
          "name": "",
          "type": "uint256[]"
        }
      ],
      "payable": false,
      "stateMutability": "view",
      "type": "function",
      "signature": "0x0c214602"
    },
    {
      "constant": false,
      "inputs": [
        {
          "name": "_stepIndex",
          "type": "uint256"
        }
      ],
      "name": "updateBuildingPercent",
      "outputs": [
        {
          "name": "",
          "type": "bool"
        }
      ],
      "payable": false,
      "stateMutability": "nonpayable",
      "type": "function",
      "signature": "0x0d9907d9"
    },
    {
      "constant": true,
      "inputs": [],
      "name": "getBuildingTokenFromParty",
      "outputs": [
        {
          "name": "",
          "type": "uint256"
        }
      ],
      "payable": false,
      "stateMutability": "view",
      "type": "function",
      "signature": "0xd998d628"
    }
  ],
  "bytecode": "0x60806040526007805460ff191690556032600a819055600c5534801561002457600080fd5b50604051608080611fe98339810180604052608081101561004457600080fd5b508051602080830151604080850151606090950151336000908152938490529220805460ff191660019081179091558054600160a060020a03948516600160a060020a03199182161790915560028054928516928216929092179091556003805494841694821694909417909355600480549290911691909216179055611f19806100d06000396000f3fe608060405234801561001057600080fd5b506004361061020a5760003560e060020a9004806384976e741161011e578063bc8a5bb2116100b1578063d746357311610080578063d7463573146106be578063d998d628146106c6578063da03095c146106ce578063deb72f1f146106ed578063fd38f45b146107995761020a565b8063bc8a5bb214610652578063c39fa8611461066f578063c4a85bc114610698578063d6d11b82146104835761020a565b806395bbde88116100ed57806395bbde88146105645780639b32a778146106095780639d7e0c86146103d5578063abdd11a8146106355761020a565b806384976e74146104935780638a18854b1461053f5780638d8276be1461055c5780639263434e146103fb5761020a565b80633723e1c2116101a15780635030012011610170578063503001201461044d57806350b9d89d1461045557806361afd5ac1461045d578063743acbab1461048357806374ebae061461048b5761020a565b80633723e1c2146103565780633aecd0e3146103d55780633bb66a7b146103fb5780634ceb1f13146104215761020a565b80631e7efbc9116101dd5780631e7efbc9146102fa57806325d8e97f146103175780632734189a1461031f57806330f42bf6146103395761020a565b80630c2146021461020f5780630c5d0c56146102b75780630d9907d9146102c15780631c5ce157146102f2575b600080fd5b610217610845565b604051808481526020018060200180602001838103835285818151815260200191508051906020019060200280838360005b83811015610261578181015183820152602001610249565b50505050905001838103825284818151815260200191508051906020019060200280838360005b838110156102a0578181015183820152602001610288565b505050509050019550505050505060405180910390f35b6102bf610986565b005b6102de600480360360208110156102d757600080fd5b5035610998565b604080519115158252519081900360200190f35b6102bf610abf565b6102176004803603602081101561031057600080fd5b5035610c39565b6102de610d91565b610327610dbe565b60408051918252519081900360200190f35b6102bf6004803603602081101561034f57600080fd5b5035610dc4565b6103736004803603602081101561036c57600080fd5b5035610e20565b6040518084815260200180602001838152602001828103825284818151815260200191508051906020019060200280838360005b838110156103bf5781810151838201526020016103a7565b5050505090500194505050505060405180910390f35b610327600480360360208110156103eb57600080fd5b5035600160a060020a0316610f33565b6103276004803603602081101561041157600080fd5b5035600160a060020a0316610f4e565b6102bf6004803603604081101561043757600080fd5b50600160a060020a038135169060200135610f69565b6102bf610fdc565b610327610fee565b6102bf6004803603602081101561047357600080fd5b5035600160a060020a0316610ff4565b6102de61106c565b6102de611075565b6102bf600480360360608110156104a957600080fd5b813591908101906040810160208201356401000000008111156104cb57600080fd5b8201836020820111156104dd57600080fd5b803590602001918460208302840111640100000000831117156104ff57600080fd5b919080806020026020016040519081016040528093929190818152602001838360200280828437600092019190915250929550509135925061109f915050565b6102176004803603602081101561055557600080fd5b503561133c565b6103276113a8565b6102de6004803603604081101561057a57600080fd5b81019060208101813564010000000081111561059557600080fd5b8201836020820111156105a757600080fd5b803590602001918460208302840111640100000000831117156105c957600080fd5b91908080602002602001604051908101604052809392919081815260200183836020028082843760009201919091525092955050913592506113ae915050565b6102bf6004803603604081101561061f57600080fd5b50600160a060020a0381351690602001356115dc565b6102bf6004803603602081101561064b57600080fd5b503561164f565b6102bf6004803603602081101561066857600080fd5b50356116ab565b6102de6004803603606081101561068557600080fd5b5080359060208101359060400135611707565b6102bf600480360360208110156106ae57600080fd5b5035600160a060020a03166118af565b61032761192a565b610327611930565b6102bf600480360360208110156106e457600080fd5b50351515611936565b6102bf6004803603606081101561070357600080fd5b8135919081019060408101602082013564010000000081111561072557600080fd5b82018360208201111561073757600080fd5b8035906020019184602083028401116401000000008311171561075957600080fd5b91908080602002602001604051908101604052809392919081815260200183836020028082843760009201919091525092955050913592506119a0915050565b6102bf600480360360608110156107af57600080fd5b813591908101906040810160208201356401000000008111156107d157600080fd5b8201836020820111156107e357600080fd5b8035906020019184602083028401116401000000008311171561080557600080fd5b9190808060200260200160405190810160405280939291908181526020018383602002808284376000920191909152509295505091359250611bc9915050565b6000606080600460009054906101000a9004600160a060020a0316600160a060020a031663c62461cc6040518163ffffffff1660e060020a02815260040160006040518083038186803b15801561089b57600080fd5b505afa1580156108af573d6000803e3d6000fd5b505050506040513d6000823e601f3d908101601f1916820160405260608110156108d857600080fd5b8151602083018051919392830192916401000000008111156108f957600080fd5b8201602081018481111561090c57600080fd5b815185602082028301116401000000008211171561092957600080fd5b5050929190602001805164010000000081111561094557600080fd5b8201602081018481111561095857600080fd5b815185602082028301116401000000008211171561097557600080fd5b509599949850965092945050505050565b326000908152600e6020526040812055565b3360009081526020819052604081205460ff1615156109ef576040805160e560020a62461bcd02815260206004820152601b6024820152600080516020611ece833981519152604482015290519081900360640190fd5b600554600010610a335760405160e560020a62461bcd028152600401808060200182810382526021815260200180611e896021913960400191505060405180910390fd5b6042600a541015610a5257600a80546001019055600c80546000190190555b6001821015610a955760405160e560020a62461bcd028152600401808060200182810382526024815260200180611eaa6024913960400191505060405180910390fd5b8160640a600954606302811515610aa857fe5b046009819055610ab790611dec565b506001919050565b3360009081526020819052604090205460ff161515610b16576040805160e560020a62461bcd02815260206004820152601b6024820152600080516020611ece833981519152604482015290519081900360640190fd5b73__UintUtils_____________________________63669dafe86308f0d1806040518263ffffffff1660e060020a0281526004018082815260200191505060206040518083038186803b158015610b6c57600080fd5b505af4158015610b80573d6000803e3d6000fd5b505050506040513d6020811015610b9657600080fd5b5051600555604080517f669dafe80000000000000000000000000000000000000000000000000000000081526216e3606004820152905173__UintUtils_____________________________9163669dafe8916024808301926020929190829003018186803b158015610c0857600080fd5b505af4158015610c1c573d6000803e3d6000fd5b505050506040513d6020811015610c3257600080fd5b5051600955565b600254604080517f2889cc070000000000000000000000000000000000000000000000000000000081526004810184905290516000926060928392600160a060020a0390921691632889cc07916024808201928892909190829003018186803b158015610ca557600080fd5b505afa158015610cb9573d6000803e3d6000fd5b505050506040513d6000823e601f3d908101601f191682016040526060811015610ce257600080fd5b815160208301805191939283019291640100000000811115610d0357600080fd5b82016020810184811115610d1657600080fd5b8151856020820283011164010000000082111715610d3357600080fd5b50509291906020018051640100000000811115610d4f57600080fd5b82016020810184811115610d6257600080fd5b8151856020820283011164010000000082111715610d7f57600080fd5b50959a94995097509295505050505050565b60006006544210158015610daa57506006546170800142105b15610db757506001610dbb565b5060005b90565b60055490565b3360009081526020819052604090205460ff161515610e1b576040805160e560020a62461bcd02815260206004820152601b6024820152600080516020611ece833981519152604482015290519081900360640190fd5b600555565b600354604080517f493274410000000000000000000000000000000000000000000000000000000081526004810184905290516000926060928492600160a060020a03909216916349327441916024808201928692909190829003018186803b158015610e8c57600080fd5b505afa158015610ea0573d6000803e3d6000fd5b505050506040513d6000823e601f3d908101601f191682016040526060811015610ec957600080fd5b815160208301805191939283019291640100000000811115610eea57600080fd5b82016020810184811115610efd57600080fd5b8151856020820283011164010000000082111715610f1a57600080fd5b5050602090910151939650945091925050509193909250565b600160a060020a03166000908152600e602052604090205490565b600160a060020a03166000908152600d602052604090205490565b3360009081526020819052604090205460ff161515610fc0576040805160e560020a62461bcd02815260206004820152601b6024820152600080516020611ece833981519152604482015290519081900360640190fd5b600160a060020a039091166000908152600e6020526040902055565b326000908152600d6020526040812055565b60085490565b3360009081526020819052604090205460ff16151561104b576040805160e560020a62461bcd02815260206004820152601b6024820152600080516020611ece833981519152604482015290519081900360640190fd5b600160a060020a03166000908152602081905260409020805460ff19169055565b60075460ff1690565b6000600654617080014210158015610daa57506006546201518001421015610db757506001610dbb565b3360009081526020819052604090205460ff1615156110f6576040805160e560020a62461bcd02815260206004820152601b6024820152600080516020611ece833981519152604482015290519081900360640190fd5b6002546040517fc21a774300000000000000000000000000000000000000000000000000000000815260048101858152604482018490526060602483018181528651606485015286519194600160a060020a03169363c21a77439389938993899390916084909101906020808701910280838360005b8381101561118457818101518382015260200161116c565b50505050905001945050505050600060405180830381600087803b1580156111ab57600080fd5b505af11580156111bf573d6000803e3d6000fd5b505050506040513d6000823e601f3d908101601f1916820160405260208110156111e857600080fd5b81019080805164010000000081111561120057600080fd5b8201602081018481111561121357600080fd5b815185602082028301116401000000008211171561123057600080fd5b50909450600093505050505b8151811015611335576002548251600160a060020a039091169063509b49e990879085908590811061126a57fe5b906020019060200201516040518363ffffffff1660e060020a0281526004018083815260200182600160a060020a0316600160a060020a031681526020019250505060206040518083038186803b1580156112c457600080fd5b505afa1580156112d8573d6000803e3d6000fd5b505050506040513d60208110156112ee57600080fd5b50518251600d9060009085908590811061130457fe5b6020908102909101810151600160a060020a031682528101919091526040016000208054909101905560010161123c565b5050505050565b600154604080517fc79b12450000000000000000000000000000000000000000000000000000000081526004810184905290516000926060928392600160a060020a039092169163c79b1245916024808201928892909190829003018186803b158015610ca557600080fd5b60095490565b3360009081526020819052604081205460ff161515611405576040805160e560020a62461bcd02815260206004820152601b6024820152600080516020611ece833981519152604482015290519081900360640190fd5b60048054604080517f1e238d1000000000000000000000000000000000000000000000000000000000815260248101869052928301908152855160448401528551600093600160a060020a0390931692631e238d1092889288928291606490910190602080870191028083838c5b8381101561148b578181015183820152602001611473565b505050509050019350505050602060405180830381600087803b1580156114b157600080fd5b505af11580156114c5573d6000803e3d6000fd5b505050506040513d60208110156114db57600080fd5b5051905060005b84518110156115d2576004548551600160a060020a0390911690634a6817879087908490811061150e57fe5b906020019060200201516040518263ffffffff1660e060020a0281526004018082600160a060020a0316600160a060020a0316815260200191505060206040518083038186803b15801561156157600080fd5b505afa158015611575573d6000803e3d6000fd5b505050506040513d602081101561158b57600080fd5b50518551600d906000908890859081106115a157fe5b6020908102909101810151600160a060020a03168252810191909152604001600020805490910190556001016114e2565b5090505b92915050565b3360009081526020819052604090205460ff161515611633576040805160e560020a62461bcd02815260206004820152601b6024820152600080516020611ece833981519152604482015290519081900360640190fd5b600160a060020a039091166000908152600d6020526040902055565b3360009081526020819052604090205460ff1615156116a6576040805160e560020a62461bcd02815260206004820152601b6024820152600080516020611ece833981519152604482015290519081900360640190fd5b600655565b3360009081526020819052604090205460ff161515611702576040805160e560020a62461bcd02815260206004820152601b6024820152600080516020611ece833981519152604482015290519081900360640190fd5b600955565b3360009081526020819052604081205460ff16151561175e576040805160e560020a62461bcd02815260206004820152601b6024820152600080516020611ece833981519152604482015290519081900360640190fd5b73__UintUtils_____________________________63669dafe8846040518263ffffffff1660e060020a0281526004018082815260200191505060206040518083038186803b1580156117b057600080fd5b505af41580156117c4573d6000803e3d6000fd5b505050506040513d60208110156117da57600080fd5b5051604080517f669dafe800000000000000000000000000000000000000000000000000000000815260048101879052905173__UintUtils_____________________________9163669dafe8916024808301926020929190829003018186803b15801561184757600080fd5b505af415801561185b573d6000803e3d6000fd5b505050506040513d602081101561187157600080fd5b5051101561188c5760088290556007805460ff191660011790555b60055415156118a85760088290556007805460ff191660011790555b9392505050565b3360009081526020819052604090205460ff161515611906576040805160e560020a62461bcd02815260206004820152601b6024820152600080516020611ece833981519152604482015290519081900360640190fd5b600160a060020a03166000908152602081905260409020805460ff19166001179055565b60065490565b600b5490565b3360009081526020819052604090205460ff16151561198d576040805160e560020a62461bcd02815260206004820152601b6024820152600080516020611ece833981519152604482015290519081900360640190fd5b6007805460ff1916911515919091179055565b3360009081526020819052604090205460ff1615156119f7576040805160e560020a62461bcd02815260206004820152601b6024820152600080516020611ece833981519152604482015290519081900360640190fd5b6001546040517fa5fa79760000000000000000000000000000000000000000000000000000000081526004810185815260448201849052606060248301908152855160648401528551600160a060020a039094169363a5fa797693889388938893919290916084909101906020808701910280838360005b83811015611a87578181015183820152602001611a6f565b50505050905001945050505050600060405180830381600087803b158015611aae57600080fd5b505af1158015611ac2573d6000803e3d6000fd5b506000925050505b8251811015611bc3576001548351600160a060020a03909116906365922b74908690869085908110611af857fe5b906020019060200201516040518363ffffffff1660e060020a0281526004018083815260200182600160a060020a0316600160a060020a031681526020019250505060206040518083038186803b158015611b5257600080fd5b505afa158015611b66573d6000803e3d6000fd5b505050506040513d6020811015611b7c57600080fd5b50518351600d90600090869085908110611b9257fe5b6020908102909101810151600160a060020a0316825281019190915260400160002080549091019055600101611aca565b50505050565b3360009081526020819052604090205460ff161515611c20576040805160e560020a62461bcd02815260206004820152601b6024820152600080516020611ece833981519152604482015290519081900360640190fd5b6003546040517fac197f920000000000000000000000000000000000000000000000000000000081526004810185815260448201849052606060248301908152855160648401528551600160a060020a039094169363ac197f9293889388938893919290916084909101906020808701910280838360005b83811015611cb0578181015183820152602001611c98565b50505050905001945050505050600060405180830381600087803b158015611cd757600080fd5b505af1158015611ceb573d6000803e3d6000fd5b506000925050505b8251811015611bc3576003548351600160a060020a039091169063dd572ab9908690869085908110611d2157fe5b906020019060200201516040518363ffffffff1660e060020a0281526004018083815260200182600160a060020a0316600160a060020a031681526020019250505060206040518083038186803b158015611d7b57600080fd5b505afa158015611d8f573d6000803e3d6000fd5b505050506040513d6020811015611da557600080fd5b50518351600d90600090869085908110611dbb57fe5b6020908102909101810151600160a060020a0316825281019190915260400160002080549091019055600101611cf3565b3360009081526020819052604090205460ff161515611e43576040805160e560020a62461bcd02815260206004820152601b6024820152600080516020611ece833981519152604482015290519081900360640190fd5b600954611e5790829063ffffffff611e5d16565b600b5550565b6000821515611e6e575060006115d6565b828202828482811515611e7d57fe5b04146118a857600080fdfee585b1e5bbbae8b584e98791e6b1a0e5b7b2e7bb8fe6b688e88097e5ae8ce6af95e7acace4b880e8bdaee695b0e580bce5b7b2e7bb8fe5889de5a78be58c96e8bf87e4ba86e8b083e794a8e88085e6b2a1e69c89e8b083e794a8e69d83e999900000000000a165627a7a72305820bc71137b967413a7915f8891de3a49b6bf645632c3d3e5876c892387540aa25f0029",
  "source": "pragma solidity >=0.4.21 <0.6.0;\n\nimport \"../node_modules/openzeppelin-solidity/contracts/math/SafeMath.sol\";\nimport \"./UintUtils.sol\";\nimport \"./FissionReward.sol\";\nimport \"./FOMOReward.sol\";\nimport \"./LuckyReward.sol\";\nimport \"./FaithReward.sol\";\nimport \"./ABCToken.sol\";\n\n/// @title \n/// @dev \ncontract ResonanceDataManage{\n\n    using SafeMath for uint256;\n\n    event WhihdrawAllToken();\n\n    mapping(address => bool) accessAllowed;\n\n    modifier platform() {\n        require(accessAllowed[msg.sender], \"\");\n        _;\n    }\n\n    FissionReward fissionRewardInstance;\n    FOMOReward FOMORewardInstance;\n    LuckyReward luckyRewardInstance;\n    FaithReward faithRewardInstance;\n\n    // \n    uint256 private fundsPool;\n    // \n    uint256 private openingTime;\n    // \n    bool crowdsaleClosed = false;\n    // \n    // uint256 currentStep;\n\n    // Step\n    uint256 resonanceClosedStep;\n\n    // Token\n    uint256 initBuildingTokenAmount;\n\n    // Token\n    uint256 buildingPercentOfParty = 50;\n\n    // Token\n    uint256 buildingTokenFromParty;\n\n    // Token\n    uint256 buildingPercentOfCommunity = 50;\n\n    // \n    mapping(address => uint256) private ETHBalance;\n    mapping(address => uint256) private tokenBalance;\n\n    constructor(\n        address _fassionRewardAddress,\n        address _FOMORewardAddress,\n        address _luckyRewardAddress,\n        address _faithRewardAddress\n    ) public {\n        accessAllowed[msg.sender] = true;\n        // \n        fissionRewardInstance = FissionReward(_fassionRewardAddress);\n        FOMORewardInstance = FOMOReward(_FOMORewardAddress);\n        luckyRewardInstance = LuckyReward(_luckyRewardAddress);\n        faithRewardInstance = FaithReward(_faithRewardAddress);\n    }\n\n    // \n    function setParamForFirstStep() public platform{\n        fundsPool = UintUtils.toWei(150000000);\n        initBuildingTokenAmount = UintUtils.toWei(1500000);\n    }\n\n    function allowAccess(address _addr) public platform() {\n        accessAllowed[_addr] = true;\n    }\n\n    function denyAccess(address _addr) public platform() {\n        accessAllowed[_addr] = false;\n    }\n\n    function setFundsPool(uint256 _fundsPool) public platform() {\n        fundsPool = _fundsPool;\n    }\n\n    function getFundsPool() public view returns(uint256) {\n        return fundsPool;\n    }\n\n    function setOpeningTime(uint256 _openingTime) public platform() {\n        openingTime = _openingTime;\n    }\n\n    /// @notice \n    function getOpeningTime() public view returns(uint256){\n        return openingTime;\n    }\n\n    function setCrowdsaleClosed(bool _crowdsaleClosed) public platform() {\n        crowdsaleClosed = _crowdsaleClosed;\n    }\n\n    function getCrowdsaleClosed() public view returns(bool) {\n        return crowdsaleClosed;\n    }\n\n    function getETHBalance(address _addr) public view returns(uint256) {\n        return ETHBalance[_addr];\n    }\n\n    function setETHBalance(address _addr, uint256 _amount) public platform() {\n        ETHBalance[_addr] = _amount;\n    }\n\n    function getTokenBalance(address _addr) public view returns(uint256) {\n        return tokenBalance[_addr];\n    }\n\n    function setTokenBalance(address _addr, uint256 _amount) public platform() {\n        tokenBalance[_addr] = _amount;\n    }\n\n    function getBuildingTokenAmount() public view returns(uint256) {\n        return initBuildingTokenAmount;\n    }\n\n    function setBuildingTokenAmount(uint256 _tokenAmount) public platform() {\n        initBuildingTokenAmount = _tokenAmount;\n    }\n\n    // \n    function isBuildingPeriod() public view returns(bool){\n        if(block.timestamp >= openingTime && block.timestamp < openingTime + 8 hours) {\n            return true;\n        }else{\n            return false;\n        }\n    }\n\n    // \n    function isFundingPeriod() public view returns(bool) {\n        if(block.timestamp >= openingTime + 8 hours && block.timestamp < openingTime + 24 hours) {\n            return true;\n        }else{\n            return false;\n        }\n    }\n\n    /// @notice \n    /// @dev \n    /// @param raisedETH ETH\n    /// @param softCap \n    function crowdsaleIsClosed(\n        uint256 raisedETH,\n        uint256 softCap,\n        uint256 stepIndex\n    )\n        public\n        platform()\n        returns(bool)\n    {\n        // 1.\n        if(UintUtils.toWei(raisedETH) < UintUtils.toWei(softCap)) {\n            resonanceClosedStep = stepIndex;\n            crowdsaleClosed = true;\n        }\n\n        // 2.\n        if(fundsPool == 0) {\n            resonanceClosedStep = stepIndex;\n            crowdsaleClosed = true;\n        }\n    }\n\n    /// @notice Index\n    function getResonanceClosedStep() public view returns(uint256){\n        return resonanceClosedStep;\n    }\n\n    /// @notice \n    /// @dev viewcrowdsaleClosed\n    function getResonanceIsClosed() public view returns(bool) {\n        return crowdsaleClosed;\n    }\n\n    /// @notice \n    function settlementFissionReward(uint256 _stepIndex, address[] memory _fissionWinnerList, uint256 totalFissionReward)\n        public\n        platform()\n    {\n        fissionRewardInstance.dealFissionInfo(_stepIndex, _fissionWinnerList, totalFissionReward);\n        // \n        for(uint i = 0; i < _fissionWinnerList.length; i++){\n            ETHBalance[_fissionWinnerList[i]] += fissionRewardInstance.fissionRewardAmount(_stepIndex,_fissionWinnerList[i]);\n        }\n    }\n\n    function settlementFOMOReward(uint256 _stepIndex, address[] memory _funders, uint256 totalFOMOReward)\n        public\n        platform()\n    {\n        address[] memory FOMOWinnerList = FOMORewardInstance.dealFOMOWinner(_stepIndex, _funders, totalFOMOReward);\n\n        for(uint i = 0; i < FOMOWinnerList.length; i++){\n            ETHBalance[FOMOWinnerList[i]] += FOMORewardInstance.FOMORewardAmount(_stepIndex,FOMOWinnerList[i]);\n        }\n    }\n\n    function settlementLuckyReward(uint256 _stepIndex, address[] memory _LuckyWinnerList, uint256 totalLuckyReward)\n        public\n        platform()\n    {\n        luckyRewardInstance.dealLuckyInfo(_stepIndex, _LuckyWinnerList, totalLuckyReward);\n        for(uint i = 0; i < _LuckyWinnerList.length; i++){\n            ETHBalance[_LuckyWinnerList[i]] += luckyRewardInstance.luckyRewardAmount(_stepIndex,_LuckyWinnerList[i]);\n        }\n    }\n\n    function dmSettlementFaithReward(address[] memory _faithWinners, uint256 totalFaithReward)\n        public\n        platform()\n        returns(bool)\n    {\n        bool faithRewardFinished = faithRewardInstance.dealFaithWinner(_faithWinners, totalFaithReward);\n\n        for(uint i = 0; i < _faithWinners.length; i++){\n            ETHBalance[_faithWinners[i]] += faithRewardInstance.faithRewardAmount(_faithWinners[i]);\n        }\n        return faithRewardFinished;\n    }\n\n    /// @notice Token\n    function withdrawTokenAmount(address _addr) public view returns (uint256) {\n        return tokenBalance[_addr];\n    }\n\n    /// @notice ETH\n    function withdrawETHAmount(address _addr) public view returns (uint256) {\n        return ETHBalance[_addr];\n    }\n\n    function emptyTokenBalance() public {\n        tokenBalance[tx.origin] = 0;\n    }\n\n    function emptyETHBalance() public {\n        ETHBalance[tx.origin] = 0;\n    }\n\n    /// @notice \n    /// @dev \n    /// @param _stepIndex \n    function getFissionRewardInfo(uint256 _stepIndex)\n        public\n        view\n        returns(uint256, address[] memory, uint256[] memory)\n    {\n        return fissionRewardInstance.getFissionInfo(_stepIndex);\n    }\n\n    /// @notice FOMO\n    /// @dev FOMO\n    /// @param _stepIndex \n    function getFOMORewardIofo(uint256 _stepIndex)\n        public\n        view\n        returns(uint256, address[] memory, uint256[] memory)\n    {\n        return FOMORewardInstance.getFOMOWinnerInfo(_stepIndex);\n    }\n\n    /// @notice \n    /// @dev \n    /// @param _stepIndex \n    function getLuckyRewardInfo(uint256 _stepIndex)\n        public\n        view\n        returns(uint256, address[] memory, uint256)\n    {\n        return luckyRewardInstance.getLuckyInfo(_stepIndex);\n    }\n\n    /// @notice \n    /// @dev \n    function getFaithRewardInfo()\n        public\n        view\n        returns(uint256, address[] memory, uint256[] memory)\n    {\n        return faithRewardInstance.getFaithWinnerInfo();\n    }\n\n    /// @notice \n    function updateBuildingPercent(uint256 _stepIndex) public platform() returns (bool) {\n        require(fundsPool > 0, \"\");\n        // +1%-1%\n        if(buildingPercentOfParty < 66){\n            buildingPercentOfParty += 1;\n            buildingPercentOfCommunity -= 1;\n        }\n        require(_stepIndex >= 1, \"\");\n        initBuildingTokenAmount = initBuildingTokenAmount * 99 / 100 ** _stepIndex;\n        setBuildingTokenFromParty(initBuildingTokenAmount);\n        return true;\n    }\n\n    /// @notice Token\n    function setBuildingTokenFromParty(uint256 _buildingPercentOfParty) internal platform() {\n        buildingTokenFromParty = _buildingPercentOfParty.mul(initBuildingTokenAmount);\n    }\n\n    /// @notice Token\n    function getBuildingTokenFromParty() public view returns(uint256) {\n        return buildingTokenFromParty;\n    }\n\n}",
  "sourcePath": "/Users/a186r/dev/sourcecode/contracts/contract/contract/contracts/ResonanceDataManage.sol",
  "compiler": {
    "name": "solc",
    "version": "0.5.2+commit.1df8f40c.Emscripten.clang"
  },
  "schemaVersion": "3.0.6",
  "updatedAt": "2019-05-28T03:11:35.470Z",
  "devdoc": {
    "details": "",
    "methods": {
      "crowdsaleIsClosed(uint256,uint256,uint256)": {
        "details": "",
        "params": {
          "raisedETH": "ETH",
          "softCap": ""
        }
      },
      "getFOMORewardIofo(uint256)": {
        "details": "FOMO",
        "params": {
          "_stepIndex": ""
        }
      },
      "getFaithRewardInfo()": {
        "details": ""
      },
      "getFissionRewardInfo(uint256)": {
        "details": "",
        "params": {
          "_stepIndex": ""
        }
      },
      "getLuckyRewardInfo(uint256)": {
        "details": "",
        "params": {
          "_stepIndex": ""
        }
      },
      "getResonanceIsClosed()": {
        "details": "viewcrowdsaleClosed"
      }
    },
    "title": ""
  },
  "userdoc": {
    "methods": {
      "crowdsaleIsClosed(uint256,uint256,uint256)": {
        "notice": ""
      },
      "getBuildingTokenFromParty()": {
        "notice": "Token"
      },
      "getFOMORewardIofo(uint256)": {
        "notice": "FOMO"
      },
      "getFaithRewardInfo()": {
        "notice": ""
      },
      "getFissionRewardInfo(uint256)": {
        "notice": ""
      },
      "getLuckyRewardInfo(uint256)": {
        "notice": ""
      },
      "getOpeningTime()": {
        "notice": ""
      },
      "getResonanceClosedStep()": {
        "notice": "Index"
      },
      "getResonanceIsClosed()": {
        "notice": ""
      },
      "settlementFissionReward(uint256,address[],uint256)": {
        "notice": ""
      },
      "updateBuildingPercent(uint256)": {
        "notice": ""
      },
      "withdrawETHAmount(address)": {
        "notice": "ETH"
      },
      "withdrawTokenAmount(address)": {
        "notice": "Token"
      }
    }
  }
}