{
  "contractName": "Resonance",
  "abi": [
    {
      "constant": true,
      "inputs": [],
      "name": "currentStep",
      "outputs": [
        {
          "name": "",
          "type": "uint256"
        }
      ],
      "payable": false,
      "stateMutability": "view",
      "type": "function",
      "signature": "0x5bc34f71"
    },
    {
      "constant": false,
      "inputs": [],
      "name": "renounceOwnership",
      "outputs": [],
      "payable": false,
      "stateMutability": "nonpayable",
      "type": "function",
      "signature": "0x715018a6"
    },
    {
      "constant": true,
      "inputs": [],
      "name": "owner",
      "outputs": [
        {
          "name": "",
          "type": "address"
        }
      ],
      "payable": false,
      "stateMutability": "view",
      "type": "function",
      "signature": "0x8da5cb5b"
    },
    {
      "constant": true,
      "inputs": [],
      "name": "isOwner",
      "outputs": [
        {
          "name": "",
          "type": "bool"
        }
      ],
      "payable": false,
      "stateMutability": "view",
      "type": "function",
      "signature": "0x8f32d59b"
    },
    {
      "constant": true,
      "inputs": [],
      "name": "abcToken",
      "outputs": [
        {
          "name": "",
          "type": "address"
        }
      ],
      "payable": false,
      "stateMutability": "view",
      "type": "function",
      "signature": "0xe7574128"
    },
    {
      "constant": false,
      "inputs": [
        {
          "name": "newOwner",
          "type": "address"
        }
      ],
      "name": "transferOwnership",
      "outputs": [],
      "payable": false,
      "stateMutability": "nonpayable",
      "type": "function",
      "signature": "0xf2fde38b"
    },
    {
      "inputs": [
        {
          "name": "_resonanceDataManageAddress",
          "type": "address"
        },
        {
          "name": "_abcToken",
          "type": "address"
        },
        {
          "name": "_beneficiary",
          "type": "address"
        },
        {
          "name": "_initialFissionPerson",
          "type": "address"
        },
        {
          "name": "_fassionRewardAddress",
          "type": "address"
        },
        {
          "name": "_FOMORewardAddress",
          "type": "address"
        },
        {
          "name": "_luckyRewardAddress",
          "type": "address"
        },
        {
          "name": "_faithRewardAddress",
          "type": "address"
        }
      ],
      "payable": false,
      "stateMutability": "nonpayable",
      "type": "constructor",
      "signature": "constructor"
    },
    {
      "payable": true,
      "stateMutability": "payable",
      "type": "fallback"
    },
    {
      "anonymous": false,
      "inputs": [
        {
          "indexed": true,
          "name": "fissionPerson",
          "type": "address"
        },
        {
          "indexed": true,
          "name": "promoter",
          "type": "address"
        }
      ],
      "name": "ToBeFissionPerson",
      "type": "event",
      "signature": "0x95b9b14e81807a19f0d780820ad803eba32584f0671e1410f6815a83e75d4ef7"
    },
    {
      "anonymous": false,
      "inputs": [
        {
          "indexed": false,
          "name": "currentStepTokenAmount",
          "type": "uint256"
        },
        {
          "indexed": false,
          "name": "currentStepRaisedETH",
          "type": "uint256"
        }
      ],
      "name": "FundsInfo",
      "type": "event",
      "signature": "0xefb17818fcd18149842dc8ec26c8d51b1f7cd86669024d8ad385c95727e301b2"
    },
    {
      "anonymous": false,
      "inputs": [
        {
          "indexed": false,
          "name": "bpCountdown",
          "type": "uint256"
        },
        {
          "indexed": false,
          "name": "remainingToken",
          "type": "uint256"
        },
        {
          "indexed": false,
          "name": "personalTokenLimited",
          "type": "uint256"
        },
        {
          "indexed": false,
          "name": "totalTokenAmount",
          "type": "uint256"
        }
      ],
      "name": "BuildingPerioInfo",
      "type": "event",
      "signature": "0xe11de7dbf210471e3fa9c2ce8526b79b1202a34755ab39aa0ee452e2de7dd9e3"
    },
    {
      "anonymous": false,
      "inputs": [
        {
          "indexed": false,
          "name": "fpCountdown",
          "type": "uint256"
        },
        {
          "indexed": false,
          "name": "remainingETH",
          "type": "uint256"
        },
        {
          "indexed": false,
          "name": "rasiedETHAmount",
          "type": "uint256"
        }
      ],
      "name": "FundingPeriodInfo",
      "type": "event",
      "signature": "0xae8973493d4c3e41a9615da7dbb45a3e85e217ab826ebf232f236520f89ce5bd"
    },
    {
      "anonymous": false,
      "inputs": [
        {
          "indexed": false,
          "name": "fissionRewardList",
          "type": "address[]"
        },
        {
          "indexed": false,
          "name": "fissionRewardAmount",
          "type": "uint256[]"
        }
      ],
      "name": "FissionRewardInfo",
      "type": "event",
      "signature": "0x9c8d21d9775b290867a96ccd228b84fc35453ac06e714f5717f74c84dd962d7e"
    },
    {
      "anonymous": false,
      "inputs": [
        {
          "indexed": false,
          "name": "FOMORewardList",
          "type": "address[]"
        },
        {
          "indexed": false,
          "name": "FOMORewards",
          "type": "uint256[]"
        }
      ],
      "name": "FOMORewardInfo",
      "type": "event",
      "signature": "0x6b6aaf38bd1fe94894a8361f3d343ec41c4c18c8cde782e6c3a7d98f64a60a37"
    },
    {
      "anonymous": false,
      "inputs": [
        {
          "indexed": false,
          "name": "luckyRewardList",
          "type": "address[]"
        },
        {
          "indexed": false,
          "name": "luckyReward",
          "type": "uint256"
        }
      ],
      "name": "LuckyRewardInfo",
      "type": "event",
      "signature": "0xdb5afb48b961706eba89e5cf3ab5ae37dc9c360703069de0c2a6669f7e0f4b31"
    },
    {
      "anonymous": false,
      "inputs": [
        {
          "indexed": false,
          "name": "faithRewardList",
          "type": "address[]"
        },
        {
          "indexed": false,
          "name": "faithRewardAmount",
          "type": "uint256[]"
        }
      ],
      "name": "FaithRewardInfo",
      "type": "event",
      "signature": "0xe7e0e5e0f865e7ed55d089ae13321715f110f39374632f8891058404d5955916"
    },
    {
      "anonymous": false,
      "inputs": [
        {
          "indexed": false,
          "name": "addr",
          "type": "address"
        },
        {
          "indexed": false,
          "name": "ETHAmount",
          "type": "uint256"
        }
      ],
      "name": "WithdrawAllETH",
      "type": "event",
      "signature": "0x293d21fe426f090ce1ced07545832d833ba5245d1ca5dab39eedd683bcb26c71"
    },
    {
      "anonymous": false,
      "inputs": [
        {
          "indexed": false,
          "name": "from",
          "type": "address"
        },
        {
          "indexed": false,
          "name": "to",
          "type": "address"
        },
        {
          "indexed": false,
          "name": "tokenAmount",
          "type": "uint256"
        }
      ],
      "name": "WithdrawAllToken",
      "type": "event",
      "signature": "0x28982effc9f4b6c367af5f071929850b9e3a7f3cec08b9ea2d139ab3606b8169"
    },
    {
      "anonymous": false,
      "inputs": [
        {
          "indexed": false,
          "name": "FunderInfoArray",
          "type": "uint256[]"
        }
      ],
      "name": "FunderInfo",
      "type": "event",
      "signature": "0x04c808a514c1dafc38d056ce8d726701d153e5560559e9a2cbd4a698fc57dbc9"
    },
    {
      "anonymous": false,
      "inputs": [
        {
          "indexed": false,
          "name": "funderAddress",
          "type": "address[]"
        },
        {
          "indexed": false,
          "name": "funderTokenAmount",
          "type": "uint256[]"
        },
        {
          "indexed": false,
          "name": "funderETHAmount",
          "type": "uint256[]"
        },
        {
          "indexed": false,
          "name": "funderInvitees",
          "type": "uint256[]"
        },
        {
          "indexed": false,
          "name": "funderEarnFromAff",
          "type": "uint256[]"
        }
      ],
      "name": "StepFunders",
      "type": "event",
      "signature": "0x3b87f7808c5ab95853c64302b46442fcc67c01ce3ca71e707da509a4100e6afc"
    },
    {
      "anonymous": false,
      "inputs": [
        {
          "indexed": false,
          "name": "stepIndex",
          "type": "uint256"
        }
      ],
      "name": "SettlementStep",
      "type": "event",
      "signature": "0x884a42ea07d12dfb8a666018fad8dc91f2752bdabafca21fc534fefc1305355f"
    },
    {
      "anonymous": false,
      "inputs": [
        {
          "indexed": false,
          "name": "stepIndex",
          "type": "uint256"
        }
      ],
      "name": "StartNextStep",
      "type": "event",
      "signature": "0xeb4f8ce27ee2f036ff2d0bc02908be44cba9da8349185d0b9f996732fb77f07e"
    },
    {
      "anonymous": false,
      "inputs": [
        {
          "indexed": false,
          "name": "stepIndex",
          "type": "uint256"
        },
        {
          "indexed": false,
          "name": "raiseTarget",
          "type": "uint256"
        }
      ],
      "name": "SetRaiseTarget",
      "type": "event",
      "signature": "0xa0065ef53daacd0859dd1ca5cdda1a90bd236db58dc67e1c6c9888afb8b7c934"
    },
    {
      "anonymous": false,
      "inputs": [
        {
          "indexed": false,
          "name": "resonances",
          "type": "address[]"
        }
      ],
      "name": "GetResonances",
      "type": "event",
      "signature": "0x239ea09ed3b2c5ca6c811a840e58b3dc40f4591da5f559b32893f99e968b419c"
    },
    {
      "anonymous": false,
      "inputs": [
        {
          "indexed": false,
          "name": "resonancesRasiedETH",
          "type": "uint256"
        }
      ],
      "name": "FunderTotalRaised",
      "type": "event",
      "signature": "0x33bd212310efc1b994689137ddaaea56136d0cb5b0491d1eb3b4cc3fce4428c1"
    },
    {
      "anonymous": false,
      "inputs": [
        {
          "indexed": true,
          "name": "previousOwner",
          "type": "address"
        },
        {
          "indexed": true,
          "name": "newOwner",
          "type": "address"
        }
      ],
      "name": "OwnershipTransferred",
      "type": "event",
      "signature": "0x8be0079c531659141344cd1fd0a4f28419497f9722a3daafe3b4186f6b6457e0"
    },
    {
      "constant": false,
      "inputs": [],
      "name": "initParamForFirstStep",
      "outputs": [],
      "payable": false,
      "stateMutability": "nonpayable",
      "type": "function",
      "signature": "0x0d28351b"
    },
    {
      "constant": false,
      "inputs": [
        {
          "name": "promoter",
          "type": "address"
        }
      ],
      "name": "toBeFissionPerson",
      "outputs": [
        {
          "name": "",
          "type": "address"
        },
        {
          "name": "",
          "type": "address"
        }
      ],
      "payable": false,
      "stateMutability": "nonpayable",
      "type": "function",
      "signature": "0xde3844ff"
    },
    {
      "constant": false,
      "inputs": [
        {
          "name": "_raiseTarget",
          "type": "uint256"
        }
      ],
      "name": "setRaiseTarget",
      "outputs": [
        {
          "name": "",
          "type": "uint256"
        },
        {
          "name": "",
          "type": "uint256"
        }
      ],
      "payable": false,
      "stateMutability": "nonpayable",
      "type": "function",
      "signature": "0x4559ff9b"
    },
    {
      "constant": true,
      "inputs": [
        {
          "name": "_stepIndex",
          "type": "uint256"
        }
      ],
      "name": "getRaiseTarget",
      "outputs": [
        {
          "name": "",
          "type": "uint256"
        }
      ],
      "payable": false,
      "stateMutability": "view",
      "type": "function",
      "signature": "0xdb27cf61"
    },
    {
      "constant": false,
      "inputs": [
        {
          "name": "_tokenAmount",
          "type": "uint256"
        }
      ],
      "name": "jointlyBuild",
      "outputs": [],
      "payable": false,
      "stateMutability": "nonpayable",
      "type": "function",
      "signature": "0xb4862a71"
    },
    {
      "constant": false,
      "inputs": [],
      "name": "transferToken",
      "outputs": [
        {
          "name": "",
          "type": "bool"
        }
      ],
      "payable": true,
      "stateMutability": "payable",
      "type": "function",
      "signature": "0x799a5359"
    },
    {
      "constant": false,
      "inputs": [
        {
          "name": "_fissionWinnerList",
          "type": "address[]"
        },
        {
          "name": "_LuckyWinnerList",
          "type": "address[]"
        }
      ],
      "name": "settlementStep",
      "outputs": [
        {
          "name": "",
          "type": "bool"
        }
      ],
      "payable": false,
      "stateMutability": "nonpayable",
      "type": "function",
      "signature": "0xb5ac72b5"
    },
    {
      "constant": false,
      "inputs": [
        {
          "name": "_FaithWinnerList",
          "type": "address[]"
        }
      ],
      "name": "settlementFaithReward",
      "outputs": [
        {
          "name": "",
          "type": "bool"
        }
      ],
      "payable": false,
      "stateMutability": "nonpayable",
      "type": "function",
      "signature": "0x5deac38b"
    },
    {
      "constant": false,
      "inputs": [],
      "name": "withdrawAllToken",
      "outputs": [
        {
          "name": "",
          "type": "address"
        },
        {
          "name": "",
          "type": "address"
        },
        {
          "name": "",
          "type": "uint256"
        }
      ],
      "payable": true,
      "stateMutability": "payable",
      "type": "function",
      "signature": "0x14870d2c"
    },
    {
      "constant": false,
      "inputs": [],
      "name": "withdrawAllETH",
      "outputs": [
        {
          "name": "",
          "type": "address"
        },
        {
          "name": "",
          "type": "uint256"
        }
      ],
      "payable": true,
      "stateMutability": "payable",
      "type": "function",
      "signature": "0x90386bbf"
    },
    {
      "constant": true,
      "inputs": [],
      "name": "isBuilder",
      "outputs": [
        {
          "name": "",
          "type": "bool"
        }
      ],
      "payable": false,
      "stateMutability": "view",
      "type": "function",
      "signature": "0x54b94615"
    },
    {
      "constant": true,
      "inputs": [],
      "name": "isFunder",
      "outputs": [
        {
          "name": "",
          "type": "bool"
        }
      ],
      "payable": false,
      "stateMutability": "view",
      "type": "function",
      "signature": "0xfeaec775"
    },
    {
      "constant": true,
      "inputs": [],
      "name": "getResonances",
      "outputs": [
        {
          "name": "",
          "type": "address[]"
        }
      ],
      "payable": false,
      "stateMutability": "view",
      "type": "function",
      "signature": "0x891d7e79"
    },
    {
      "constant": true,
      "inputs": [
        {
          "name": "_funder",
          "type": "address"
        }
      ],
      "name": "getFunderTotalRaised",
      "outputs": [
        {
          "name": "",
          "type": "uint256"
        }
      ],
      "payable": false,
      "stateMutability": "view",
      "type": "function",
      "signature": "0xe15ce927"
    },
    {
      "constant": true,
      "inputs": [
        {
          "name": "_stepIndex",
          "type": "uint256"
        }
      ],
      "name": "getStepFunders",
      "outputs": [
        {
          "name": "",
          "type": "address[]"
        },
        {
          "name": "",
          "type": "uint256[]"
        },
        {
          "name": "",
          "type": "uint256[]"
        },
        {
          "name": "",
          "type": "uint256[]"
        },
        {
          "name": "",
          "type": "uint256[]"
        }
      ],
      "payable": false,
      "stateMutability": "view",
      "type": "function",
      "signature": "0x16b29746"
    },
    {
      "constant": true,
      "inputs": [],
      "name": "getCurrentStepFundsInfo",
      "outputs": [
        {
          "name": "",
          "type": "uint256"
        },
        {
          "name": "",
          "type": "uint256"
        },
        {
          "name": "",
          "type": "uint256"
        }
      ],
      "payable": false,
      "stateMutability": "view",
      "type": "function",
      "signature": "0x912c84ec"
    },
    {
      "constant": true,
      "inputs": [],
      "name": "getBuildingPerioInfo",
      "outputs": [
        {
          "name": "",
          "type": "uint256"
        },
        {
          "name": "",
          "type": "uint256"
        },
        {
          "name": "",
          "type": "uint256"
        },
        {
          "name": "",
          "type": "uint256"
        }
      ],
      "payable": false,
      "stateMutability": "view",
      "type": "function",
      "signature": "0x64ab07fa"
    },
    {
      "constant": true,
      "inputs": [],
      "name": "getFundingPeriodInfo",
      "outputs": [
        {
          "name": "",
          "type": "uint256"
        },
        {
          "name": "",
          "type": "uint256"
        },
        {
          "name": "",
          "type": "uint256"
        }
      ],
      "payable": false,
      "stateMutability": "view",
      "type": "function",
      "signature": "0xc12cd1bc"
    },
    {
      "constant": true,
      "inputs": [],
      "name": "getFunderInfo",
      "outputs": [
        {
          "name": "",
          "type": "uint256"
        },
        {
          "name": "",
          "type": "uint256"
        },
        {
          "name": "",
          "type": "uint256"
        },
        {
          "name": "",
          "type": "uint256"
        },
        {
          "name": "",
          "type": "uint256"
        },
        {
          "name": "",
          "type": "uint256"
        },
        {
          "name": "",
          "type": "uint256"
        },
        {
          "name": "",
          "type": "uint256"
        },
        {
          "name": "",
          "type": "uint256"
        },
        {
          "name": "",
          "type": "uint256"
        }
      ],
      "payable": false,
      "stateMutability": "view",
      "type": "function",
      "signature": "0xa6371829"
    },
    {
      "constant": true,
      "inputs": [],
      "name": "Beneficiary",
      "outputs": [
        {
          "name": "",
          "type": "address"
        }
      ],
      "payable": false,
      "stateMutability": "view",
      "type": "function",
      "signature": "0x73d55379"
    },
    {
      "constant": true,
      "inputs": [],
      "name": "getBlockHash",
      "outputs": [
        {
          "name": "blockHash",
          "type": "bytes32"
        }
      ],
      "payable": false,
      "stateMutability": "view",
      "type": "function",
      "signature": "0x9663f88f"
    },
    {
      "constant": true,
      "inputs": [
        {
          "name": "_stepIndex",
          "type": "uint256"
        }
      ],
      "name": "currentStepIsClosed",
      "outputs": [
        {
          "name": "",
          "type": "bool"
        }
      ],
      "payable": false,
      "stateMutability": "view",
      "type": "function",
      "signature": "0x56d1121a"
    },
    {
      "constant": false,
      "inputs": [],
      "name": "refund",
      "outputs": [
        {
          "name": "",
          "type": "bool"
        }
      ],
      "payable": false,
      "stateMutability": "nonpayable",
      "type": "function",
      "signature": "0x590e1ae3"
    }
  ],
  "bytecode": "0x608060405234801561001057600080fd5b5060405161010080620050ca833981018060405261010081101561003357600080fd5b50805160208201516040808401516060850151608086015160a087015160c088015160e09098015160008054600160a060020a03191633178082559651989997989597949693959294939192600160a060020a0392909216917f8be0079c531659141344cd1fd0a4f28419497f9722a3daafe3b4186f6b6457e0908290a360028054600160a060020a03998a16600160a060020a03199182161790915560048054958a1695821695909517909455600580549389169385169390931790925560068054918816918416919091179055600780549187169183169190911790556000600b5560018054948616948216949094179093556003805492851692841692909217909155600d8054919093169116179055614f7480620001566000396000f3fe6080604052600436106101c65760003560e060020a900480638da5cb5b116100fb578063b5ac72b511610099578063e15ce92711610068578063e15ce92714610b7d578063e757412814610bb0578063f2fde38b14610bc5578063feaec77514610bf8576101c6565b8063b5ac72b5146109b1578063c12cd1bc14610ae5578063db27cf6114610afa578063de3844ff14610b24576101c6565b8063912c84ec116100d5578063912c84ec146108da5780639663f88f1461090d578063a637182914610922578063b4862a7114610987576101c6565b80638da5cb5b146108855780638f32d59b1461089a57806390386bbf146108af576101c6565b80635bc34f7111610168578063715018a611610142578063715018a6146107d257806373d55379146107e7578063799a535914610818578063891d7e7914610820576101c6565b80635bc34f71146106c05780635deac38b146106e757806364ab07fa14610797576101c6565b80634559ff9b116101a45780634559ff9b1461061557806354b946151461065857806356d1121a14610681578063590e1ae3146106ab576101c6565b80630d28351b1461043a57806314870d2c1461045157806316b2974614610483575b600260009054906101000a9004600160a060020a0316600160a060020a03166374ebae066040518163ffffffff1660e060020a02815260040160206040518083038186803b15801561021757600080fd5b505afa15801561022b573d6000803e3d6000fd5b505050506040513d602081101561024157600080fd5b50511515610299576040805160e560020a62461bcd02815260206004820152601260248201527fe4b88de59ca8e58b9fe8b584e69c9fe586850000000000000000000000000000604482015290519081900360640190fd5b600260009054906101000a9004600160a060020a0316600160a060020a031663743acbab6040518163ffffffff1660e060020a02815260040160206040518083038186803b1580156102ea57600080fd5b505afa1580156102fe573d6000803e3d6000fd5b505050506040513d602081101561031457600080fd5b505115610359576040805160e560020a62461bcd0281526020600482015260126024820152600080516020614eb3833981519152604482015290519081900360640190fd5b600b80546000908152600c6020818152604080842033808652908352818520346002909101819055865486528484528286208287528452828620600501805475ff000000000000000000000000000000000000000000191675010000000000000000000000000000000000000000001790559554855292825280842060070180548601905560088054600181019091557ff3f7a9fe364faab93b216da50a3214154f22a0a2b415b23a84c8169e8b636ee301805473ffffffffffffffffffffffffffffffffffffffff19168417905591835260099052902080549091019055005b34801561044657600080fd5b5061044f610c0d565b005b610459610dfd565b60408051600160a060020a0394851681529290931660208301528183015290519081900360600190f35b34801561048f57600080fd5b506104ad600480360360208110156104a657600080fd5b5035611087565b60405180806020018060200180602001806020018060200186810386528b818151815260200191508051906020019060200280838360005b838110156104fd5781810151838201526020016104e5565b5050505090500186810385528a818151815260200191508051906020019060200280838360005b8381101561053c578181015183820152602001610524565b50505050905001868103845289818151815260200191508051906020019060200280838360005b8381101561057b578181015183820152602001610563565b50505050905001868103835288818151815260200191508051906020019060200280838360005b838110156105ba5781810151838201526020016105a2565b50505050905001868103825287818151815260200191508051906020019060200280838360005b838110156105f95781810151838201526020016105e1565b505050509050019a505050505050505050505060405180910390f35b34801561062157600080fd5b5061063f6004803603602081101561063857600080fd5b50356112df565b6040805192835260208301919091528051918290030190f35b34801561066457600080fd5b5061066d6115be565b604080519115158252519081900360200190f35b34801561068d57600080fd5b5061066d600480360360208110156106a457600080fd5b50356115fc565b3480156106b757600080fd5b5061066d611619565b3480156106cc57600080fd5b506106d5611ace565b60408051918252519081900360200190f35b3480156106f357600080fd5b5061066d6004803603602081101561070a57600080fd5b81019060208101813564010000000081111561072557600080fd5b82018360208201111561073757600080fd5b8035906020019184602083028401116401000000008311171561075957600080fd5b919080806020026020016040519081016040528093929190818152602001838360200280828437600092019190915250929550611ad4945050505050565b3480156107a357600080fd5b506107ac611d1a565b604080519485526020850193909352838301919091526060830152519081900360800190f35b3480156107de57600080fd5b5061044f611ec9565b3480156107f357600080fd5b506107fc611f33565b60408051600160a060020a039092168252519081900360200190f35b61066d611f42565b34801561082c57600080fd5b50610835612325565b60408051602080825283518183015283519192839290830191858101910280838360005b83811015610871578181015183820152602001610859565b505050509050019250505060405180910390f35b34801561089157600080fd5b506107fc61239a565b3480156108a657600080fd5b5061066d6123a9565b6108b76123ba565b60408051600160a060020a03909316835260208301919091528051918290030190f35b3480156108e657600080fd5b506108ef6125cf565b60408051938452602084019290925282820152519081900360600190f35b34801561091957600080fd5b506106d561260c565b34801561092e57600080fd5b50610937612639565b604080519a8b5260208b0199909952898901979097526060890195909552608088019390935260a087019190915260c086015260e085015261010084015261012083015251908190036101400190f35b34801561099357600080fd5b5061044f600480360360208110156109aa57600080fd5b5035612d31565b3480156109bd57600080fd5b5061066d600480360360408110156109d457600080fd5b8101906020810181356401000000008111156109ef57600080fd5b820183602082011115610a0157600080fd5b80359060200191846020830284011164010000000083111715610a2357600080fd5b9190808060200260200160405190810160405280939291908181526020018383602002808284376000920191909152509295949360208101935035915050640100000000811115610a7357600080fd5b820183602082011115610a8557600080fd5b80359060200191846020830284011164010000000083111715610aa757600080fd5b9190808060200260200160405190810160405280939291908181526020018383602002808284376000920191909152509295506135e1945050505050565b348015610af157600080fd5b506108ef61393f565b348015610b0657600080fd5b506106d560048036036020811015610b1d57600080fd5b5035613af3565b348015610b3057600080fd5b50610b5760048036036020811015610b4757600080fd5b5035600160a060020a0316613b08565b60408051600160a060020a03938416815291909216602082015281519081900390910190f35b348015610b8957600080fd5b506106d560048036036020811015610ba057600080fd5b5035600160a060020a0316614400565b348015610bbc57600080fd5b506107fc614431565b348015610bd157600080fd5b5061044f60048036036020811015610be857600080fd5b5035600160a060020a0316614440565b348015610c0457600080fd5b5061066d61445f565b610c156123a9565b1515610c2057600080fd5b60115460ff1615610c655760405160e560020a62461bcd028152600401808060200182810382526027815260200180614e5c6027913960400191505060405180910390fd5b600254604080517fabdd11a80000000000000000000000000000000000000000000000000000000081524260048201529051600160a060020a039092169163abdd11a89160248082019260009290919082900301818387803b158015610cca57600080fd5b505af1158015610cde573d6000803e3d6000fd5b5050505073__UintUtils_____________________________63669dafe86216e3606040518263ffffffff1660e060020a0281526004018082815260200191505060206040518083038186803b158015610d3757600080fd5b505af4158015610d4b573d6000803e3d6000fd5b505050506040513d6020811015610d6157600080fd5b5051600b546000908152600c6020526040808220600290810193909355915482517f1c5ce1570000000000000000000000000000000000000000000000000000000081529251600160a060020a0390911692631c5ce15792600480830193919282900301818387803b158015610dd657600080fd5b505af1158015610dea573d6000803e3d6000fd5b50506011805460ff191660011790555050565b600b546000908152600c6020908152604080832033845290915281206005015481908190760100000000000000000000000000000000000000000000900460ff1615610e7d5760405160e560020a62461bcd02815260040180806020018281038252602c815260200180614ed3602c913960400191505060405180910390fd5b600254604080517f9d7e0c860000000000000000000000000000000000000000000000000000000081523360048201529051600092600160a060020a031691639d7e0c86916024808301926020929190829003018186803b158015610ee157600080fd5b505afa158015610ef5573d6000803e3d6000fd5b505050506040513d6020811015610f0b57600080fd5b5051600254604080517f0c5d0c560000000000000000000000000000000000000000000000000000000081529051929350600160a060020a0390911691630c5d0c569160048082019260009290919082900301818387803b158015610f6f57600080fd5b505af1158015610f83573d6000803e3d6000fd5b5050600b546000908152600c6020908152604080832033808552908352818420600501805476ff00000000000000000000000000000000000000000000191676010000000000000000000000000000000000000000000017905560015482517f23b872dd0000000000000000000000000000000000000000000000000000000081523060048201526024810192909252604482018890529151600160a060020a039290921695506323b872dd9450606480820194918390030190829087803b15801561104e57600080fd5b505af1158015611062573d6000803e3d6000fd5b505050506040513d602081101561107857600080fd5b50309533955091935090915050565b60608060608060606110976123a9565b15156110a257600080fd5b6060806060806060600c60008c815260200190815260200160002060010180548060200260200160405190810160405280929190818152602001828054801561111457602002820191906000526020600020905b8154600160a060020a031681526001909101906020018083116110f6575b50939850600093505050505b85518110156112cc5760008c8152600c60205260408120875190919088908490811061114857fe5b90602001906020020151600160a060020a0316600160a060020a0316815260200190815260200160002060010154858281518110151561118457fe5b602090810290910181019190915260008d8152600c9091526040812087519091908890849081106111b157fe5b90602001906020020151600160a060020a0316600160a060020a031681526020019081526020016000206002015484828151811015156111ed57fe5b602090810290910181019190915260008d8152600c90915260408120875190919088908490811061121a57fe5b6020908102909101810151600160a060020a0316825281019190915260400160002060030154835184908390811061124e57fe5b6020908102909101810191909152600b546000908152600c90915260408120875190919088908490811061127e57fe5b90602001906020020151600160a060020a0316600160a060020a031681526020019081526020016000206004015482828151811015156112ba57fe5b60209081029091010152600101611120565b50939a9299509097509550909350915050565b6000806112ea6123a9565b15156112f557600080fd5b600260009054906101000a9004600160a060020a0316600160a060020a03166325d8e97f6040518163ffffffff1660e060020a02815260040160206040518083038186803b15801561134657600080fd5b505afa15801561135a573d6000803e3d6000fd5b505050506040513d602081101561137057600080fd5b505115156113b6576040805160e560020a62461bcd0281526020600482015260126024820152600080516020614eff833981519152604482015290519081900360640190fd5b73__UintUtils_____________________________63669dafe8846040518263ffffffff1660e060020a0281526004018082815260200191505060206040518083038186803b15801561140857600080fd5b505af415801561141c573d6000803e3d6000fd5b505050506040513d602081101561143257600080fd5b5051600b80546000908152600c60205260408082206006908101949094559154815220015473__UintUtils_____________________________9063669dafe8906114979060649061148b90603c63ffffffff61449e16565b9063ffffffff6144d016565b6040518263ffffffff1660e060020a0281526004018082815260200191505060206040518083038186803b1580156114ce57600080fd5b505af41580156114e2573d6000803e3d6000fd5b505050506040513d60208110156114f857600080fd5b5051600b80546000908152600c60209081526040808320600801949094559154815282902060060154825160e360020a630cd3b5fd0281526004810191909152915173__UintUtils_____________________________9263669dafe8926024808301939192829003018186803b15801561157257600080fd5b505af4158015611586573d6000803e3d6000fd5b505050506040513d602081101561159c57600080fd5b5051600b80546000908152600c60205260409020600901919091555493915050565b600b546000908152600c6020908152604080832033845290915290206005015474010000000000000000000000000000000000000000900460ff1690565b6000908152600c60205260409020600a0154610100900460ff1690565b60006116236123a9565b151561162e57600080fd5b601154610100900460ff161561168e576040805160e560020a62461bcd02815260206004820152601560248201527fe98080e6acbee5b7b2e7bb8fe5ae8ce68890e4ba860000000000000000000000604482015290519081900360640190fd5b600254604080517f50b9d89d0000000000000000000000000000000000000000000000000000000081529051600092600160a060020a0316916350b9d89d916004808301926020929190829003018186803b1580156116ec57600080fd5b505afa158015611700573d6000803e3d6000fd5b505050506040513d602081101561171657600080fd5b50516000818152600c60209081526040918290206001018054835181840281018401909452808452939450606093909183018282801561177f57602002820191906000526020600020905b8154600160a060020a03168152600190910190602001808311611761575b50939450600093505050505b8151811015611aae576002548251600160a060020a0390911690639b32a778908490849081106117b757fe5b90602001906020020151600c6000878152602001908152602001600020600001600086868151811015156117e757fe5b90602001906020020151600160a060020a0316600160a060020a0316815260200190815260200160002060020154600260009054906101000a9004600160a060020a0316600160a060020a0316633bb66a7b878781518110151561184757fe5b906020019060200201516040518263ffffffff1660e060020a0281526004018082600160a060020a0316600160a060020a0316815260200191505060206040518083038186803b15801561189a57600080fd5b505afa1580156118ae573d6000803e3d6000fd5b505050506040513d60208110156118c457600080fd5b50516040805160e060020a63ffffffff8716028152600160a060020a0390941660048501529101602483015251604480830192600092919082900301818387803b15801561191157600080fd5b505af1158015611925573d6000803e3d6000fd5b50506002548451600160a060020a039091169250639b32a778915084908490811061194c57fe5b90602001906020020151600c60008781526020019081526020016000206000016000868681518110151561197c57fe5b6020908102909101810151600160a060020a0390811683529082019290925260400160002060010154600254875191921690633aecd0e3908890889081106119c057fe5b906020019060200201516040518263ffffffff1660e060020a0281526004018082600160a060020a0316600160a060020a0316815260200191505060206040518083038186803b158015611a1357600080fd5b505afa158015611a27573d6000803e3d6000fd5b505050506040513d6020811015611a3d57600080fd5b50516040805160e060020a63ffffffff8716028152600160a060020a0390941660048501529101602483015251604480830192600092919082900301818387803b158015611a8a57600080fd5b505af1158015611a9e573d6000803e3d6000fd5b50506001909201915061178b9050565b50506011805461ff00191661010090811791829055900460ff1691505090565b600b5481565b6000611ade6123a9565b1515611ae957600080fd5b600260009054906101000a9004600160a060020a0316600160a060020a031663743acbab6040518163ffffffff1660e060020a02815260040160206040518083038186803b158015611b3a57600080fd5b505afa158015611b4e573d6000803e3d6000fd5b505050506040513d6020811015611b6457600080fd5b50511515611bbc576040805160e560020a62461bcd02815260206004820152601260248201527fe585b1e68cafe8bf98e69caae7bb93e69d9f0000000000000000000000000000604482015290519081900360640190fd5b600254600f54600160a060020a03909116906395bbde8890849073__UintUtils_____________________________9063669dafe890611c0a9060649061148b90600563ffffffff61449e16565b6040518263ffffffff1660e060020a0281526004018082815260200191505060206040518083038186803b158015611c4157600080fd5b505af4158015611c55573d6000803e3d6000fd5b505050506040513d6020811015611c6b57600080fd5b50516040805160e060020a63ffffffff861602815260248101839052600481019182528351604482015283518291606401906020868101910280838360005b83811015611cc2578181015183820152602001611caa565b505050509050019350505050602060405180830381600087803b158015611ce857600080fd5b505af1158015611cfc573d6000803e3d6000fd5b505050506040513d6020811015611d1257600080fd5b505192915050565b600080600080600260009054906101000a9004600160a060020a0316600160a060020a03166325d8e97f6040518163ffffffff1660e060020a02815260040160206040518083038186803b158015611d7157600080fd5b505afa158015611d85573d6000803e3d6000fd5b505050506040513d6020811015611d9b57600080fd5b50511515611de1576040805160e560020a62461bcd0281526020600482015260126024820152600080516020614eff833981519152604482015290519081900360640190fd5b60008060008042600260009054906101000a9004600160a060020a0316600160a060020a031663d74635736040518163ffffffff1660e060020a02815260040160206040518083038186803b158015611e3957600080fd5b505afa158015611e4d573d6000803e3d6000fd5b505050506040513d6020811015611e6357600080fd5b5051600b546000908152600c60205260409020600481015460029091015492909103617080019550611e9b919063ffffffff6144f416565b600b546000908152600c602052604090206003810154600590910154959a9199509750939550929350505050565b611ed16123a9565b1515611edc57600080fd5b60008054604051600160a060020a03909116907f8be0079c531659141344cd1fd0a4f28419497f9722a3daafe3b4186f6b6457e0908390a36000805473ffffffffffffffffffffffffffffffffffffffff19169055565b600354600160a060020a031690565b600073__UintUtils_____________________________63669dafe8600260009054906101000a9004600160a060020a0316600160a060020a031663d998d6286040518163ffffffff1660e060020a02815260040160206040518083038186803b158015611faf57600080fd5b505afa158015611fc3573d6000803e3d6000fd5b505050506040513d6020811015611fd957600080fd5b50516040805160e060020a63ffffffff85160281526004810192909252516024808301926020929190829003018186803b15801561201657600080fd5b505af415801561202a573d6000803e3d6000fd5b505050506040513d602081101561204057600080fd5b5051600154604080517fdd62ed3e0000000000000000000000000000000000000000000000000000000081523360048201523060248201529051600160a060020a039092169163dd62ed3e91604480820192602092909190829003018186803b1580156120ac57600080fd5b505afa1580156120c0573d6000803e3d6000fd5b505050506040513d60208110156120d657600080fd5b5051101561212e576040805160e560020a62461bcd02815260206004820152601260248201527fe68e88e69d83e9a29de5baa6e4b88de8b6b30000000000000000000000000000604482015290519081900360640190fd5b600154600254604080517fd998d6280000000000000000000000000000000000000000000000000000000081529051600160a060020a03938416936323b872dd933393309373__UintUtils_____________________________9363669dafe893169163d998d628916004808301926020929190829003018186803b1580156121b657600080fd5b505afa1580156121ca573d6000803e3d6000fd5b505050506040513d60208110156121e057600080fd5b50516040805160e060020a63ffffffff85160281526004810192909252516024808301926020929190829003018186803b15801561221d57600080fd5b505af4158015612231573d6000803e3d6000fd5b505050506040513d602081101561224757600080fd5b50516040805160e060020a63ffffffff8716028152600160a060020a0394851660048201529290931660248301526044820152905160648083019260209291908290030181600087803b15801561229d57600080fd5b505af11580156122b1573d6000803e3d6000fd5b505050506040513d60208110156122c757600080fd5b5051151561231f576040805160e560020a62461bcd02815260206004820152601a60248201527fe8bdace7a7bb746f6b656ee588b0e59088e7baa6e5a4b1e8b4a5000000000000604482015290519081900360640190fd5b50600190565b606061232f6123a9565b151561233a57600080fd5b600880548060200260200160405190810160405280929190818152602001828054801561239057602002820191906000526020600020905b8154600160a060020a03168152600190910190602001808311612372575b5050505050905090565b600054600160a060020a031690565b600054600160a060020a0316331490565b600b546000908152600c60209081526040808320338452909152812060050154819077010000000000000000000000000000000000000000000000900460ff16156124395760405160e560020a62461bcd02815260040180806020018281038252602a815260200180614f1f602a913960400191505060405180910390fd5b600254604080517f9263434e0000000000000000000000000000000000000000000000000000000081523360048201529051600092600160a060020a031691639263434e916024808301926020929190829003018186803b15801561249d57600080fd5b505afa1580156124b1573d6000803e3d6000fd5b505050506040513d60208110156124c757600080fd5b5051600254604080517f503001200000000000000000000000000000000000000000000000000000000081529051929350600160a060020a039091169163503001209160048082019260009290919082900301818387803b15801561252b57600080fd5b505af115801561253f573d6000803e3d6000fd5b5050600b546000908152600c60209081526040808320338085529252808320600501805477ff00000000000000000000000000000000000000000000001916770100000000000000000000000000000000000000000000001790555190935084156108fc0292508491818181858888f193505050501580156125c5573d6000803e3d6000fd5b5033925090509091565b60008060006125dc6123a9565b15156125e757600080fd5b5050600b546000818152600c6020526040902060028101546007909101549192509192565b600b80546000908152600c602052604081209091015461263390600163ffffffff61450916565b40905090565b600080600080600080600080600080612650614de2565b600b546000908152600c602090815260408083203384528252918290208251610140810184528154600160a060020a0316815260018201548184015260028201548185015260038201805485518186028101860190965280865291949293606086019392908301828280156126ee57602002820191906000526020600020905b8154600160a060020a031681526001909101906020018083116126d0575b5050509183525050600482810154602080840191909152600590930154600160a060020a0380821660408086019190915260ff740100000000000000000000000000000000000000008404811615156060808801919091527501000000000000000000000000000000000000000000850482161515608088015276010000000000000000000000000000000000000000000085048216151560a08801527701000000000000000000000000000000000000000000000090940416151560c09095019490945260025484517f3aecd0e3000000000000000000000000000000000000000000000000000000008152339481019490945293519596509094921692633aecd0e392602480840193829003018186803b15801561280d57600080fd5b505afa158015612821573d6000803e3d6000fd5b505050506040513d602081101561283757600080fd5b505181518290600090811061284857fe5b6020908102909101810191909152600254604080517f3bb66a7b0000000000000000000000000000000000000000000000000000000081523360048201529051600160a060020a0390921692633bb66a7b92602480840193829003018186803b1580156128b457600080fd5b505afa1580156128c8573d6000803e3d6000fd5b505050506040513d60208110156128de57600080fd5b50518151829060019081106128ef57fe5b6020908102909101015260608201515181518290600290811061290e57fe5b60209081029091010152608082015181518290600390811061292c57fe5b9060200190602002018181525050816020015181600481518110151561294e57fe5b60209081029091010152604082015181518290600590811061296c57fe5b6020908102909101810191909152600654604080517fc28a1af30000000000000000000000000000000000000000000000000000000081523360048201529051600160a060020a039092169263c28a1af392602480840193829003018186803b1580156129d857600080fd5b505afa1580156129ec573d6000803e3d6000fd5b505050506040513d6020811015612a0257600080fd5b5051815182906006908110612a1357fe5b602090810290910181019190915260048054604080517f0df2019a000000000000000000000000000000000000000000000000000000008152339381019390935251600160a060020a0390911692630df2019a9260248082019391829003018186803b158015612a8257600080fd5b505afa158015612a96573d6000803e3d6000fd5b505050506040513d6020811015612aac57600080fd5b5051815182906007908110612abd57fe5b6020908102909101810191909152600554604080517fc75355670000000000000000000000000000000000000000000000000000000081523360048201529051600160a060020a039092169263c753556792602480840193829003018186803b158015612b2957600080fd5b505afa158015612b3d573d6000803e3d6000fd5b505050506040513d6020811015612b5357600080fd5b5051815182906008908110612b6457fe5b6020908102909101810191909152600754604080517f4a6817870000000000000000000000000000000000000000000000000000000081523360048201529051600160a060020a0390921692634a68178792602480840193829003018186803b158015612bd057600080fd5b505afa158015612be4573d6000803e3d6000fd5b505050506040513d6020811015612bfa57600080fd5b5051815182906009908110612c0b57fe5b60209081029091010152805181906000908110612c2457fe5b90602001906020020151816001815181101515612c3d57fe5b90602001906020020151826002815181101515612c5657fe5b90602001906020020151836003815181101515612c6f57fe5b90602001906020020151846004815181101515612c8857fe5b90602001906020020151856005815181101515612ca157fe5b90602001906020020151866006815181101515612cba57fe5b90602001906020020151876007815181101515612cd357fe5b90602001906020020151886008815181101515612cec57fe5b90602001906020020151896009815181101515612d0557fe5b906020019060200201519b509b509b509b509b509b509b509b509b509b50505090919293949596979899565b600260009054906101000a9004600160a060020a0316600160a060020a03166325d8e97f6040518163ffffffff1660e060020a02815260040160206040518083038186803b158015612d8257600080fd5b505afa158015612d96573d6000803e3d6000fd5b505050506040513d6020811015612dac57600080fd5b50511515612df2576040805160e560020a62461bcd0281526020600482015260126024820152600080516020614eff833981519152604482015290519081900360640190fd5b600260009054906101000a9004600160a060020a0316600160a060020a031663743acbab6040518163ffffffff1660e060020a02815260040160206040518083038186803b158015612e4357600080fd5b505afa158015612e57573d6000803e3d6000fd5b505050506040513d6020811015612e6d57600080fd5b505115612eb2576040805160e560020a62461bcd0281526020600482015260126024820152600080516020614eb3833981519152604482015290519081900360640190fd5b612eba6115be565b1515612f10576040805160e560020a62461bcd02815260206004820152601660248201527fe8b083e794a8e88085e4b88de698af4275696c64657200000000000000000000604482015290519081900360640190fd5b600b546000908152600c602052604090206002810154600490910154612f3c908363ffffffff61450916565b10612f7b5760405160e560020a62461bcd028152600401808060200182810382526026815260200180614e366026913960400191505060405180910390fd5b600b546000908152600c6020526040902060020154612fa89060649061148b90600163ffffffff61449e16565b600b546000908152600c60209081526040808320338452909152902060010154612fd8908363ffffffff61450916565b11156130185760405160e560020a62461bcd028152600401808060200182810382526030815260200180614e836030913960400191505060405180910390fd5b73__UintUtils_____________________________63669dafe8826040518263ffffffff1660e060020a0281526004018082815260200191505060206040518083038186803b15801561306a57600080fd5b505af415801561307e573d6000803e3d6000fd5b505050506040513d602081101561309457600080fd5b5051600154604080517fdd62ed3e0000000000000000000000000000000000000000000000000000000081523360048201523060248201529051600160a060020a039092169163dd62ed3e91604480820192602092909190829003018186803b15801561310057600080fd5b505afa158015613114573d6000803e3d6000fd5b505050506040513d602081101561312a57600080fd5b50511015613182576040805160e560020a62461bcd02815260206004820152601260248201527fe68e88e69d83e9a29de5baa6e4b88de8b6b30000000000000000000000000000604482015290519081900360640190fd5b600160009054906101000a9004600160a060020a0316600160a060020a03166323b872dd333073__UintUtils_____________________________63669dafe8866040518263ffffffff1660e060020a0281526004018082815260200191505060206040518083038186803b1580156131fa57600080fd5b505af415801561320e573d6000803e3d6000fd5b505050506040513d602081101561322457600080fd5b50516040805160e060020a63ffffffff8716028152600160a060020a0394851660048201529290931660248301526044820152905160648083019260209291908290030181600087803b15801561327a57600080fd5b505af115801561328e573d6000803e3d6000fd5b505050506040513d60208110156132a457600080fd5b505115156132fc576040805160e560020a62461bcd02815260206004820152601a60248201527fe8bdace7a7bb746f6b656ee588b0e59088e7baa6e5a4b1e8b4a5000000000000604482015290519081900360640190fd5b73__UintUtils_____________________________63669dafe8826040518263ffffffff1660e060020a0281526004018082815260200191505060206040518083038186803b15801561334e57600080fd5b505af4158015613362573d6000803e3d6000fd5b505050506040513d602081101561337857600080fd5b5051600b546000908152600c602090815260408083203384528252918290206001018054909301909255805160e360020a630cd3b5fd02815260048101849052905173__UintUtils_____________________________9263669dafe89260248082019391829003018186803b1580156133f157600080fd5b505af4158015613405573d6000803e3d6000fd5b505050506040513d602081101561341b57600080fd5b5051600b546000908152600c602090815260409182902060029081018054949094039093559154815160e360020a630cd3b5fd028152600481018590529151600160a060020a03909116926330f42bf69273__UintUtils_____________________________9263669dafe892602480840193919291829003018186803b1580156134a557600080fd5b505af41580156134b9573d6000803e3d6000fd5b505050506040513d60208110156134cf57600080fd5b5051600254604080517f2734189a0000000000000000000000000000000000000000000000000000000081529051600160a060020a0390921691632734189a91600480820192602092909190829003018186803b15801561352f57600080fd5b505afa158015613543573d6000803e3d6000fd5b505050506040513d602081101561355957600080fd5b50516040805160e060020a63ffffffff861602815292909103600483015251602480830192600092919082900301818387803b15801561359857600080fd5b505af11580156135ac573d6000803e3d6000fd5b5050336000908152600a60209081526040808320805487019055600b548352600c909152902060040180549093019092555050565b60006135eb6123a9565b15156135f657600080fd5b6136ad606461148b60286136a1600260009054906101000a9004600160a060020a0316600160a060020a0316639b2dc7696040518163ffffffff1660e060020a02815260040160206040518083038186803b15801561365457600080fd5b505afa158015613668573d6000803e3d6000fd5b505050506040513d602081101561367e57600080fd5b5051600b546000908152600c60205260409020600701549063ffffffff61449e16565b9063ffffffff61449e16565b600b80546000908152600e602052604080822093909355905481522054600f805490910190556136dc8361451b565b6136e582614867565b600254600354600b546000908152600c6020526040902060070154600160a060020a0392831692639b32a77892169073__UintUtils_____________________________9063669dafe8906137489060649061148b90603c63ffffffff61449e16565b6040518263ffffffff1660e060020a0281526004018082815260200191505060206040518083038186803b15801561377f57600080fd5b505af4158015613793573d6000803e3d6000fd5b505050506040513d60208110156137a957600080fd5b5051600254600354604080517f3bb66a7b000000000000000000000000000000000000000000000000000000008152600160a060020a03928316600482015290519190921691633bb66a7b916024808301926020929190829003018186803b15801561381457600080fd5b505afa158015613828573d6000803e3d6000fd5b505050506040513d602081101561383e57600080fd5b50516040805160e060020a63ffffffff8716028152600160a060020a0390941660048501529101602483015251604480830192600092919082900301818387803b15801561388b57600080fd5b505af115801561389f573d6000803e3d6000fd5b50505050600260009054906101000a9004600160a060020a0316600160a060020a031663743acbab6040518163ffffffff1660e060020a02815260040160206040518083038186803b1580156138f457600080fd5b505afa158015613908573d6000803e3d6000fd5b505050506040513d602081101561391e57600080fd5b50511561392d57506001613939565b6139356149c3565b5060005b92915050565b6000806000600260009054906101000a9004600160a060020a0316600160a060020a03166374ebae066040518163ffffffff1660e060020a02815260040160206040518083038186803b15801561399557600080fd5b505afa1580156139a9573d6000803e3d6000fd5b505050506040513d60208110156139bf57600080fd5b50511515613a17576040805160e560020a62461bcd02815260206004820152601260248201527fe4b88de59ca8e58b9fe8b584e69c9fe586850000000000000000000000000000604482015290519081900360640190fd5b600080600042600260009054906101000a9004600160a060020a0316600160a060020a031663d74635736040518163ffffffff1660e060020a02815260040160206040518083038186803b158015613a6e57600080fd5b505afa158015613a82573d6000803e3d6000fd5b505050506040513d6020811015613a9857600080fd5b5051600b546000908152600c602052604090206007810154600690910154929091036018019450613acf919063ffffffff6144f416565b600b546000908152600c602052604090206007015493965094509192505050909192565b6000908152600c602052604090206006015490565b600080600260009054906101000a9004600160a060020a0316600160a060020a03166325d8e97f6040518163ffffffff1660e060020a02815260040160206040518083038186803b158015613b5c57600080fd5b505afa158015613b70573d6000803e3d6000fd5b505050506040513d6020811015613b8657600080fd5b50511515613bcc576040805160e560020a62461bcd0281526020600482015260126024820152600080516020614eff833981519152604482015290519081900360640190fd5b600260009054906101000a9004600160a060020a0316600160a060020a031663743acbab6040518163ffffffff1660e060020a02815260040160206040518083038186803b158015613c1d57600080fd5b505afa158015613c31573d6000803e3d6000fd5b505050506040513d6020811015613c4757600080fd5b505115613c8c576040805160e560020a62461bcd0281526020600482015260126024820152600080516020614eb3833981519152604482015290519081900360640190fd5b600b546000908152600c60209081526040808320600160a060020a038716845290915290206005015474010000000000000000000000000000000000000000900460ff161515613d26576040805160e560020a62461bcd02815260206004820152601f60248201527fe68ea8e5b9bfe88085e887aae5b7b1e5bf85e9a1bbe698af4275696c64657200604482015290519081900360640190fd5b600160a060020a0383161515613d86576040805160e560020a62461bcd02815260206004820152601b60248201527fe68ea8e5b9bfe88085e4b88de883bde698afe7a9bae59cb0e59d800000000000604482015290519081900360640190fd5b73__UintUtils_____________________________63669dafe860086040518263ffffffff1660e060020a0281526004018082815260200191505060206040518083038186803b158015613dd957600080fd5b505af4158015613ded573d6000803e3d6000fd5b505050506040513d6020811015613e0357600080fd5b5051600154604080517fdd62ed3e0000000000000000000000000000000000000000000000000000000081523360048201523060248201529051600160a060020a039092169163dd62ed3e91604480820192602092909190829003018186803b158015613e6f57600080fd5b505afa158015613e83573d6000803e3d6000fd5b505050506040513d6020811015613e9957600080fd5b50511015613ef1576040805160e560020a62461bcd02815260206004820152601260248201527fe68e88e69d83e9a29de5baa6e4b88de8b6b30000000000000000000000000000604482015290519081900360640190fd5b6001546040805160e360020a630cd3b5fd028152600860048201529051600160a060020a03909216916323b872dd913391309173__UintUtils_____________________________9163669dafe891602480820192602092909190829003018186803b158015613f6057600080fd5b505af4158015613f74573d6000803e3d6000fd5b505050506040513d6020811015613f8a57600080fd5b50516040805160e060020a63ffffffff8716028152600160a060020a0394851660048201529290931660248301526044820152905160648083019260209291908290030181600087803b158015613fe057600080fd5b505af1158015613ff4573d6000803e3d6000fd5b505050506040513d602081101561400a57600080fd5b50511515614062576040805160e560020a62461bcd02815260206004820152601a60248201527fe8bdace7a7bb746f6b656ee588b0e59088e7baa6e5a4b1e8b4a5000000000000604482015290519081900360640190fd5b6001546040805160e360020a630cd3b5fd028152600360048201529051600160a060020a03909216916342966c689173__UintUtils_____________________________9163669dafe891602480820192602092909190829003018186803b1580156140cd57600080fd5b505af41580156140e1573d6000803e3d6000fd5b505050506040513d60208110156140f757600080fd5b50516040805160e060020a63ffffffff8516028152600481019290925251602480830192600092919082900301818387803b15801561413557600080fd5b505af1158015614149573d6000803e3d6000fd5b50506001546040805160e360020a630cd3b5fd028152600560048201529051600160a060020a03909216935063a9059cbb9250869173__UintUtils_____________________________9163669dafe8916024808301926020929190829003018186803b1580156141b957600080fd5b505af41580156141cd573d6000803e3d6000fd5b505050506040513d60208110156141e357600080fd5b50516040805160e060020a63ffffffff8616028152600160a060020a03909316600484015260248301919091525160448083019260209291908290030181600087803b15801561423257600080fd5b505af1158015614246573d6000803e3d6000fd5b505050506040513d602081101561425c57600080fd5b50506040805160e360020a630cd3b5fd02815260056004820152905173__UintUtils_____________________________9163669dafe8916024808301926020929190829003018186803b1580156142b357600080fd5b505af41580156142c7573d6000803e3d6000fd5b505050506040513d60208110156142dd57600080fd5b5051600b546000908152600c60209081526040808320600160a060020a038816845290915290206004018054909101905561431783614caf565b600b80546000908152600c60209081526040808320600160a060020a038089168086529184528285206003018054600181018255908652938520909301805473ffffffffffffffffffffffffffffffffffffffff191633179055600480549554600d5484517fe23613e900000000000000000000000000000000000000000000000000000000815292830191909152602482019290925290831660448201529051939091169263e23613e99260648084019391929182900301818387803b1580156143e157600080fd5b505af11580156143f5573d6000803e3d6000fd5b503396945050505050565b600061440a6123a9565b151561441557600080fd5b50600160a060020a031660009081526009602052604090205490565b600154600160a060020a031681565b6144486123a9565b151561445357600080fd5b61445c81614d65565b50565b600b546000908152600c602090815260408083203384529091529020600501547501000000000000000000000000000000000000000000900460ff1690565b60008215156144af57506000613939565b8282028284828115156144be57fe5b04146144c957600080fd5b9392505050565b60008082116144de57600080fd5b600082848115156144eb57fe5b04949350505050565b60008282111561450357600080fd5b50900390565b6000828201838110156144c957600080fd5b6145236123a9565b151561452e57600080fd5b600b546000908152600c60205260409020600a015460ff161561459b576040805160e560020a62461bcd02815260206004820152601e60248201527fe5bd93e5898de8bdaee6aca1e5b7b2e7bb8fe7bb93e7ae97e5ae8ce6af950000604482015290519081900360640190fd5b600b546000908152600c60205260409020600a0154610100900460ff161561460d576040805160e560020a62461bcd02815260206004820152601b60248201527fe5bd93e5898de8bdaee6aca1e697a9e5b7b2e7bb8fe7bb93e69d9f0000000000604482015290519081900360640190fd5b600254600b546000818152600e6020526040902054600160a060020a039092169163deb72f1f9190849061464f9060649061148b90601463ffffffff61449e16565b6040518463ffffffff1660e060020a0281526004018084815260200180602001838152602001828103825284818151815260200191508051906020019060200280838360005b838110156146ad578181015183820152602001614695565b50505050905001945050505050600060405180830381600087803b1580156146d457600080fd5b505af11580156146e8573d6000803e3d6000fd5b5050600254600b546000818152600c60209081526040808320600e90925290912054600160a060020a0390931694506384976e749350909160019091019073__UintUtils_____________________________9063669dafe8906147549060649061148b90600a61449e565b6040518263ffffffff1660e060020a0281526004018082815260200191505060206040518083038186803b15801561478b57600080fd5b505af415801561479f573d6000803e3d6000fd5b505050506040513d60208110156147b557600080fd5b505160405160e060020a63ffffffff86160281526004810184815260448201839052606060248301908152845460648401819052919290916084909101908590801561482a57602002820191906000526020600020905b8154600160a060020a0316815260019091019060200180831161480c575b5050945050505050600060405180830381600087803b15801561484c57600080fd5b505af1158015614860573d6000803e3d6000fd5b5050505050565b61486f6123a9565b151561487a57600080fd5b600254600b546000818152600e6020526040902054600160a060020a039092169163fd38f45b9190849073__UintUtils_____________________________9063669dafe8906148d89060649061148b90600563ffffffff61449e16565b6040518263ffffffff1660e060020a0281526004018082815260200191505060206040518083038186803b15801561490f57600080fd5b505af4158015614923573d6000803e3d6000fd5b505050506040513d602081101561493957600080fd5b505160405160e060020a63ffffffff86160281526004810184815260448201839052606060248301908152845160648401528451919290916084909101906020868101910280838360005b8381101561499c578181015183820152602001614984565b50505050905001945050505050600060405180830381600087803b15801561484c57600080fd5b600254600b546000818152600c60209081526040808320600781015460089091015482517fc39fa86100000000000000000000000000000000000000000000000000000000815260048101969096526024860191909152604485015251600160a060020a039094169363c39fa86193606480820194918390030190829087803b158015614a4f57600080fd5b505af1158015614a63573d6000803e3d6000fd5b505050506040513d6020811015614a7957600080fd5b505115614abe576040805160e560020a62461bcd0281526020600482015260126024820152600080516020614eb3833981519152604482015290519081900360640190fd5b600b80546000908152600c6020526040808220600a908101805460ff1916600190811790915584548452828420909101805461ff00191661010017905583540190925560025482517fabdd11a80000000000000000000000000000000000000000000000000000000081524260048201529251600160a060020a039091169263abdd11a892602480830193919282900301818387803b158015614b6057600080fd5b505af1158015614b74573d6000803e3d6000fd5b5050600254600b54604080517f0d9907d9000000000000000000000000000000000000000000000000000000008152600481019290925251600160a060020a039092169350630d9907d992506024808201926020929091908290030181600087803b158015614be257600080fd5b505af1158015614bf6573d6000803e3d6000fd5b505050506040513d6020811015614c0c57600080fd5b5050600254604080517f8d8276be0000000000000000000000000000000000000000000000000000000081529051600160a060020a0390921691638d8276be91600480820192602092909190829003018186803b158015614c6c57600080fd5b505afa158015614c80573d6000803e3d6000fd5b505050506040513d6020811015614c9657600080fd5b5051600b546000908152600c6020526040902060020155565b600b80546000908152600c6020818152604080842033808652908352818520805473ffffffffffffffffffffffffffffffffffffffff19908116831790915586548652848452828620828752845282862060059081018054600160a060020a039a909a169990921698909817905594548452918152818320938352929092522001805474ff0000000000000000000000000000000000000000191674010000000000000000000000000000000000000000179055565b600160a060020a0381161515614d7a57600080fd5b60008054604051600160a060020a03808516939216917f8be0079c531659141344cd1fd0a4f28419497f9722a3daafe3b4186f6b6457e091a36000805473ffffffffffffffffffffffffffffffffffffffff1916600160a060020a0392909216919091179055565b60408051610140810182526000808252602082018190529181018290526060808201526080810182905260a0810182905260c0810182905260e0810182905261010081018290526101208101919091529056fee5bd93e5898de8bdaee6aca1e585b1e5bbba546f6b656ee5b7b2e7bb8fe8b6b3e5a49fe4ba86e7acace4b880e8bdaee6aca1e695b0e68daee5b7b2e7bb8fe5889de5a78be58c96e8bf87e4ba86e585b1e5bbbae9a29de5baa6e5b7b2e8b685e8bf87e99990e9a29defbc8ce4b88de883bde7bba7e7bbade8bdace585a5e585b1e68cafe5b7b2e7bb8fe7bb93e69d9f0000000000000000000000000000e794a8e688b7e59ca8e5bd93e5898de8bdaee6aca1e5b7b2e7bb8fe68f90e58f96746f6b656ee5ae8ce68890e4b88de59ca8e585b1e5bbbae69c9fe586850000000000000000000000000000e794a8e688b7e59ca8e5bd93e5898de8bdaee6aca1e5b7b2e7bb8fe68f90e58f96455448e5ae8ce68890a165627a7a72305820c63b371f46670f6fe2fa7cfdee80c08fa726a5d154d841e1e4448f0a2bc199e80029",
  "source": "pragma solidity >=0.4.21 <0.6.0;\n\nimport \"../node_modules/openzeppelin-solidity/contracts/math/SafeMath.sol\";\nimport \"../node_modules/openzeppelin-solidity/contracts/ownership/Ownable.sol\";\nimport \"./ABCToken.sol\";\nimport \"./UintUtils.sol\";\nimport \"./FissionReward.sol\";\nimport \"./FOMOReward.sol\";\nimport \"./LuckyReward.sol\";\nimport \"./FaithReward.sol\";\nimport \"./ResonanceDataManage.sol\";\n\n// TODO:token()\ncontract Resonance is Ownable{\n\n    using SafeMath for uint256;\n\n    // \n    // \n    event ToBeFissionPerson(address indexed fissionPerson, address indexed promoter);\n\n    event FundsInfo(uint256 currentStepTokenAmount, uint256 currentStepRaisedETH);\n    event BuildingPerioInfo(uint256 bpCountdown, uint256 remainingToken, uint256 personalTokenLimited, uint256 totalTokenAmount);\n    event FundingPeriodInfo(uint256 fpCountdown, uint256 remainingETH, uint256 rasiedETHAmount);\n\n    // \n    event FissionRewardInfo(address[] fissionRewardList, uint256[] fissionRewardAmount);\n    event FOMORewardInfo(address[] FOMORewardList, uint256[] FOMORewards);\n    event LuckyRewardInfo(address[] luckyRewardList, uint256 luckyReward);\n    event FaithRewardInfo(address[] faithRewardList, uint256[] faithRewardAmount);\n    event WithdrawAllETH(address addr, uint256 ETHAmount);\n    event WithdrawAllToken(address from, address to, uint256 tokenAmount);\n    event FunderInfo(uint256[] FunderInfoArray);\n    event StepFunders(\n        address[] funderAddress,\n        uint256[] funderTokenAmount,\n        uint256[] funderETHAmount,\n        uint256[] funderInvitees,\n        uint256[] funderEarnFromAff\n    );\n    event SettlementStep(uint256 stepIndex);\n\n    event StartNextStep(uint256 stepIndex);\n\n    event SetRaiseTarget(uint256 stepIndex, uint256 raiseTarget);\n\n    event GetResonances(address[] resonances);\n\n    event FunderTotalRaised(uint256 resonancesRasiedETH);\n\n    // \n    // ERC20\n    ABCToken public abcToken;\n\n    ResonanceDataManage resonanceDataManage;\n\n    // 60%\n    address payable private beneficiary;\n\n    // \n    struct Funder{\n        address funderAddr; // \n        uint256 tokenAmount; // token\n        uint256 ethAmount; // eth\n        address[] invitees; // \n        uint256 earnFromAff; // \n        address promoter; // \n        bool isBuilder; // /\n        bool isFunder; // \n        bool tokenHasWithdrawn; // Token\n        bool ETHHasWithdrawn; // ETH\n    }\n\n    // \n    struct Building{\n        uint256 openTokenAmount; // Token\n        uint256 personalTokenLimited;// token\n        uint256 raisedToken; // token\n        uint256 raisedTokenAmount; // Token\n    }\n\n    // \n    struct Funding{\n        uint256 raiseTarget; // ETH()\n        uint256 raisedETH; // ETH\n    }\n\n    FissionReward fissionRewardInstance;\n    FOMOReward FOMORewardInstance;\n    LuckyReward luckyRewardInstance;\n    FaithReward faithRewardInstance;\n\n    // \n    struct Step{\n        mapping(address => Funder) funder;// \n        address[] funders; // funders\n        Building building; // \n        Funding funding; // \n        uint256 softCap; // \n        uint256 hardCap; // \n        bool settlementFinished; // \n        bool stepIsClosed; // \n        uint256 blockNumber; // \n    }\n\n    // \n    address[] resonances;\n\n    // \n    mapping(address => uint256) resonancesRasiedETH;\n    mapping(address => uint256) resonancesRasiedToken;\n\n    uint256 public currentStep;\n\n    mapping(uint256 => Step) steps;\n\n    address initialFissionPerson; // \n\n    mapping(uint256 => uint256) ETHFromParty; // ETH\n\n    uint256 totalETHFromParty; // \n\n    mapping(uint256 => uint256) tokenFromParty; //token\n\n    // \n    /// @notice \n    /// @param _abcToken Token\n    /// @param _beneficiary \n    /// @param _initialFissionPerson \n    constructor(\n        address _resonanceDataManageAddress,\n        ABCToken _abcToken,\n        address payable _beneficiary,\n        address _initialFissionPerson,\n        address _fassionRewardAddress,\n        address _FOMORewardAddress,\n        address _luckyRewardAddress,\n        address _faithRewardAddress\n    )\n        public\n    {\n        resonanceDataManage = ResonanceDataManage(_resonanceDataManageAddress);\n        // \n        fissionRewardInstance = FissionReward(_fassionRewardAddress);\n        FOMORewardInstance = FOMOReward(_FOMORewardAddress);\n        luckyRewardInstance = LuckyReward(_luckyRewardAddress);\n        faithRewardInstance = FaithReward(_faithRewardAddress);\n        currentStep = 0;\n        abcToken = _abcToken; // abc Token\n        beneficiary = _beneficiary; // \n        initialFissionPerson = _initialFissionPerson; // \n    }\n\n    bool firstParamInitialized;\n\n    /// @notice \n    /// @dev ResonanceDataManage\n    function initParamForFirstStep() public onlyOwner() {\n        require(!firstParamInitialized, \"\");\n        resonanceDataManage.setOpeningTime(block.timestamp); // \n        steps[currentStep].building.openTokenAmount = UintUtils.toWei(1500000); // Token\n        resonanceDataManage.setParamForFirstStep();\n        firstParamInitialized = true;\n    }\n\n    /// @notice \n    /// @param promoter \n    /// @dev TokenApprove\n    function toBeFissionPerson(\n        address promoter\n    )\n        public\n        returns(address, address)\n    {\n        require(resonanceDataManage.isBuildingPeriod(), \"\");\n        require(!resonanceDataManage.getCrowdsaleClosed(), \"\");\n\n        require(steps[currentStep].funder[promoter].isBuilder,\"Builder\");\n\n        require(promoter != address(0), \"\");\n\n        // \n        require(abcToken.allowance(msg.sender, address(this)) >= UintUtils.toWei(8),\"\");\n\n        require(abcToken.transferFrom(msg.sender,address(this), UintUtils.toWei(8)),\"token\");\n\n        // 3\n        abcToken.burn(UintUtils.toWei(3));\n\n        // 5\n        abcToken.transfer(address(promoter), UintUtils.toWei(5));\n\n        steps[currentStep].funder[promoter].earnFromAff += UintUtils.toWei(5);\n\n        // \n        _addBuilder(promoter);\n\n        steps[currentStep].funder[promoter].invitees.push(msg.sender);\n\n        fissionRewardInstance.addAffman(currentStep, promoter, initialFissionPerson);\n\n        // emit ToBeFissionPerson(msg.sender, promoter);\n        return(msg.sender, promoter);\n    }\n\n    /// @notice \n    /// @dev \n    function setRaiseTarget(\n        uint256 _raiseTarget\n    )\n        public\n        onlyOwner()\n        returns(uint256, uint256)\n    {\n        require(resonanceDataManage.isBuildingPeriod(), \"\");\n        steps[currentStep].funding.raiseTarget = UintUtils.toWei(_raiseTarget);\n        // \n        steps[currentStep].softCap = UintUtils.toWei(steps[currentStep].funding.raiseTarget.mul(60).div(100));\n        steps[currentStep].hardCap = UintUtils.toWei(steps[currentStep].funding.raiseTarget);\n\n        // emit SetRaiseTarget(currentStep, _raiseTarget);\n        return(currentStep, _raiseTarget);\n    }\n\n    /// @notice \n    function getRaiseTarget(uint256 _stepIndex) public view returns(uint256) {\n        return steps[_stepIndex].funding.raiseTarget;\n    }\n\n    // token\n    function jointlyBuild(uint256 _tokenAmount) public {\n        require(resonanceDataManage.isBuildingPeriod(), \"\");\n\n        require(!resonanceDataManage.getCrowdsaleClosed(), \"\");\n\n        // builder\n        require(isBuilder(), \"Builder\");\n\n        // \n        require(steps[currentStep].building.raisedToken.add(_tokenAmount) < steps[currentStep].building.openTokenAmount, \"Token\");\n\n        // \n        require(\n            steps[currentStep].funder[msg.sender].tokenAmount.add(_tokenAmount) <= steps[currentStep].building.openTokenAmount.mul(1).div(100),\n            \"\"\n        );\n\n        // \n        require(abcToken.allowance(msg.sender, address(this)) >= UintUtils.toWei(_tokenAmount),\"\");\n\n        // \n        require(abcToken.transferFrom(msg.sender,address(this), UintUtils.toWei(_tokenAmount)),\"token\");\n\n        steps[currentStep].funder[msg.sender].tokenAmount += UintUtils.toWei(_tokenAmount);\n\n        // TokenToken\n        steps[currentStep].building.openTokenAmount -= UintUtils.toWei(_tokenAmount);\n\n        // Token\n        resonanceDataManage.setFundsPool(resonanceDataManage.getFundsPool() - UintUtils.toWei(_tokenAmount));\n\n        // \n        resonancesRasiedToken[msg.sender] += _tokenAmount;\n\n        // token\n        steps[currentStep].building.raisedToken += _tokenAmount;\n    }\n\n    /// @notice Token\n    function transferToken() public payable returns(bool) {\n        // \n        require(abcToken.allowance(msg.sender, address(this)) >= UintUtils.toWei(resonanceDataManage.getBuildingTokenFromParty()),\n            \"\"\n        );\n        // \n        require(abcToken.transferFrom(\n            msg.sender,address(this),\n            UintUtils.toWei(resonanceDataManage.getBuildingTokenFromParty())),\n            \"token\"\n        );\n\n        return true;\n    }\n\n    // \n    // \n    function ()\n        external\n        payable\n    {\n        require(resonanceDataManage.isFundingPeriod(), \"\");\n\n        require(!resonanceDataManage.getCrowdsaleClosed(), \"\");\n\n        uint amount = msg.value;\n        steps[currentStep].funder[msg.sender].ethAmount = amount;\n        steps[currentStep].funder[msg.sender].isFunder = true;\n        steps[currentStep].funding.raisedETH += amount;\n\n        resonances.push(msg.sender);\n        resonancesRasiedETH[msg.sender] += amount;\n    }\n\n    /// @notice \n    /// @dev \n    /// @param _fissionWinnerList \n    /// @param _LuckyWinnerList \n    function settlementStep(\n        address[] memory _fissionWinnerList,\n        address[] memory _LuckyWinnerList\n    )\n        public\n        onlyOwner()\n        returns(bool)\n    {\n        // \n        ETHFromParty[currentStep] = steps[currentStep].funding.raisedETH.mul(resonanceDataManage.getBuildingPercentOfParty()).mul(40).div(100);\n        totalETHFromParty += ETHFromParty[currentStep];\n        // FOMO\n        _settlementReward(_fissionWinnerList);\n        // \n        _settlementLuckyReward(_LuckyWinnerList);\n        // \n        resonanceDataManage.setETHBalance(\n            beneficiary,\n            resonanceDataManage.getETHBalance(beneficiary) + UintUtils.toWei(steps[currentStep].funding.raisedETH.mul(60).div(100))\n        );\n        // emit SettlementStep(currentStep);\n\n        if(resonanceDataManage.getCrowdsaleClosed()) {\n            return true;\n        }else{\n            // \n            _startNextStep();\n            return false;\n        }\n    }\n\n    /// @notice \n    /// @param _FaithWinnerList \n    function settlementFaithReward(\n        address[] memory _FaithWinnerList\n    )\n        public\n        onlyOwner()\n        returns(bool)\n    {\n        require(resonanceDataManage.getCrowdsaleClosed(), \"\");\n        return resonanceDataManage.dmSettlementFaithReward(\n            _FaithWinnerList,\n            UintUtils.toWei(totalETHFromParty.mul(5).div(100))\n        );\n    }\n\n    /// @notice FOMO\n    /// @dev ,\n    function _settlementReward(\n        address[] memory _fissionWinnerList\n    )\n        internal\n        onlyOwner()\n    {\n        require(!steps[currentStep].settlementFinished, \"\");\n        require(!steps[currentStep].stepIsClosed, \"\");\n\n        resonanceDataManage.settlementFissionReward(\n            currentStep,\n            _fissionWinnerList,\n            ETHFromParty[currentStep].mul(20).div(100)\n        );\n\n        resonanceDataManage.settlementFOMOReward(\n            currentStep,\n            steps[currentStep].funders,\n            UintUtils.toWei(ETHFromParty[currentStep].mul(10).div(100))\n        );\n    }\n\n    /// @notice \n    function _settlementLuckyReward(\n        address[] memory _LuckyWinnerList\n    )\n        internal\n        onlyOwner()\n    {\n        resonanceDataManage.settlementLuckyReward(\n            currentStep,\n            _LuckyWinnerList,\n            UintUtils.toWei(ETHFromParty[currentStep].mul(5).div(100))\n        );\n    }\n\n    /// \n    function _startNextStep()\n        internal\n    {\n        // \n        require(!resonanceDataManage.crowdsaleIsClosed(currentStep, steps[currentStep].funding.raisedETH, steps[currentStep].softCap), \"\");\n        // step\n        steps[currentStep].settlementFinished = true;\n        // \n        steps[currentStep].stepIsClosed = true;\n        // \n        currentStep++;\n        // \n        resonanceDataManage.setOpeningTime(block.timestamp);\n        // Token\n        resonanceDataManage.updateBuildingPercent(currentStep);\n\n        steps[currentStep].building.openTokenAmount = resonanceDataManage.getBuildingTokenAmount();\n        // TODO:\n        // emit StartNextStep(currentStep);\n    }\n\n    /// @notice tokentoken\n    function withdrawAllToken()\n        public\n        payable\n        returns(address, address, uint256)\n    {\n        require(!steps[currentStep].funder[msg.sender].tokenHasWithdrawn, \"token\");\n        uint256 withdrawAmount = resonanceDataManage.withdrawTokenAmount(msg.sender);\n        resonanceDataManage.emptyTokenBalance();\n        steps[currentStep].funder[msg.sender].tokenHasWithdrawn = true;\n        abcToken.transferFrom(address(this), msg.sender, withdrawAmount);\n        // emit WithdrawAllToken(address(this), msg.sender, withdrawAmount);\n        return(address(this), msg.sender, withdrawAmount);\n    }\n\n    /// @notice (ETH)\n    function withdrawAllETH()\n        public\n        payable\n        returns(address, uint256)\n    {\n        require(!steps[currentStep].funder[msg.sender].ETHHasWithdrawn, \"ETH\");\n        uint256 withdrawAmount = resonanceDataManage.withdrawETHAmount(msg.sender);\n        resonanceDataManage.emptyETHBalance();\n        steps[currentStep].funder[msg.sender].ETHHasWithdrawn = true;\n        msg.sender.transfer(withdrawAmount);\n        // emit WithdrawAllETH(msg.sender, withdrawAmount);\n        return(msg.sender, withdrawAmount);\n    }\n\n    /// @notice \n    /// @dev jointlyBuildtoBeFissionPerson\n    function isBuilder() public view returns(bool) {\n        return steps[currentStep].funder[msg.sender].isBuilder;\n    }\n\n    /// @notice \n    function isFunder() public view returns(bool) {\n        return steps[currentStep].funder[msg.sender].isFunder;\n    }\n\n    /// @notice \n    function getResonances()\n        public\n        view\n        onlyOwner()\n        returns(address[] memory)\n    {\n        // emit GetResonances(resonances);\n        return(resonances);\n    }\n\n    /// @notice ETH\n    function getFunderTotalRaised(address _funder) public view onlyOwner() returns(uint256){\n        // emit FunderTotalRaised(resonancesRasiedETH[_funder]);\n        return resonancesRasiedETH[_funder];\n    }\n\n    /// @notice funders\n    /// @dev funders\n    /// @param _stepIndex \n    function getStepFunders(uint256 _stepIndex)\n        public\n        view\n        onlyOwner()\n        returns\n    (\n            address[] memory,\n            uint256[] memory,\n            uint256[] memory,\n            uint256[] memory,\n            uint256[] memory\n    )\n    {\n        address[] memory funderAddress;\n        uint256[] memory funderTokenAmount;\n        uint256[] memory funderETHAmount;\n        uint256[] memory funderInvitees;\n        uint256[] memory earnFromAff;\n\n        funderAddress = steps[_stepIndex].funders;\n\n        for(uint i = 0 ; i < funderAddress.length; i++){\n            funderTokenAmount[i] = steps[_stepIndex].funder[funderAddress[i]].tokenAmount;\n            funderETHAmount[i] = steps[_stepIndex].funder[funderAddress[i]].ethAmount;\n            funderInvitees[i] = steps[_stepIndex].funder[funderAddress[i]].invitees.length;\n            earnFromAff[i] = steps[currentStep].funder[funderAddress[i]].earnFromAff;\n        }\n\n        // emit StepFunders(funderAddress, funderTokenAmount, funderETHAmount, funderInvitees, earnFromAff);\n        return (funderAddress, funderTokenAmount, funderETHAmount, funderInvitees, earnFromAff);\n    }\n\n    /// @notice tokenETH\n    function getCurrentStepFundsInfo()\n        public\n        view\n        onlyOwner()\n        returns(uint256, uint256, uint256)\n    {\n        // emit FundsInfo(steps[currentStep].building.openTokenAmount, steps[currentStep].funding.raisedETH);\n        return(currentStep, steps[currentStep].building.openTokenAmount, steps[currentStep].funding.raisedETH);\n    }\n\n    /// @notice \n    function getBuildingPerioInfo()\n        public\n        view\n        returns(uint256, uint256, uint256, uint256)\n    {\n        require(resonanceDataManage.isBuildingPeriod(), \"\");\n        uint256 _bpCountdown;\n        uint256 _remainingToken;\n        uint256 _personalTokenLimited;\n        uint256 _totalTokenAmount;\n\n        _bpCountdown = (resonanceDataManage.getOpeningTime() + 8 hours) - block.timestamp;\n        _remainingToken = steps[currentStep].building.openTokenAmount.sub(steps[currentStep].building.raisedToken);\n        _personalTokenLimited = steps[currentStep].building.personalTokenLimited;\n        _totalTokenAmount = steps[currentStep].building.raisedTokenAmount;\n        // emit BuildingPerioInfo(_bpCountdown, _remainingToken, _personalTokenLimited, _totalTokenAmount);\n        return(_bpCountdown, _remainingToken, _personalTokenLimited, _totalTokenAmount);\n    }\n\n    // \n    function getFundingPeriodInfo()\n        public\n        view\n        returns(uint256, uint256, uint256)\n    {\n        require(resonanceDataManage.isFundingPeriod(), \"\");\n\n        uint256 _fpCountdown;\n        uint256 _remainingETH;\n        uint256 _rasiedETHAmount;\n\n        _fpCountdown = (resonanceDataManage.getOpeningTime() + 24) - block.timestamp;\n        _remainingETH = steps[currentStep].funding.raiseTarget.sub(steps[currentStep].funding.raisedETH);\n        _rasiedETHAmount = steps[currentStep].funding.raisedETH;\n        // emit FundingPeriodInfo(_fpCountdown, _remainingETH, _rasiedETHAmount);\n        return(_fpCountdown, _remainingETH, _rasiedETHAmount);\n    }\n\n    /// @notice \n    // TODO:msg.sender\n    function getFunderInfo()\n        public\n        view\n        returns\n    (\n        uint256,\n        uint256,\n        uint256,\n        uint256,\n        uint256,\n        uint256,\n        uint256,\n        uint256,\n        uint256,\n        uint256\n    )\n\n    {\n        Funder memory funder = steps[currentStep].funder[msg.sender];\n\n        uint256[] memory funderInfo;\n\n        funderInfo[0] = resonanceDataManage.getTokenBalance(msg.sender);\n        funderInfo[1] = resonanceDataManage.getETHBalance(msg.sender);\n        funderInfo[2] = funder.invitees.length;\n        funderInfo[3] = funder.earnFromAff;\n        funderInfo[4] = funder.tokenAmount;\n        funderInfo[5] = funder.ethAmount;\n        funderInfo[6] = luckyRewardInstance.luckyFunderTotalBalance(msg.sender);\n        funderInfo[7] = fissionRewardInstance.fissionFunderTotalBalance(msg.sender);\n        funderInfo[8] = FOMORewardInstance.FOMOFunderTotalBalance(msg.sender);\n        funderInfo[9] = faithRewardInstance.faithRewardAmount(msg.sender);\n\n        // emit FunderInfo(funderInfo);\n        return(\n            funderInfo[0],\n            funderInfo[1],\n            funderInfo[2],\n            funderInfo[3],\n            funderInfo[4],\n            funderInfo[5],\n            funderInfo[6],\n            funderInfo[7],\n            funderInfo[8],\n            funderInfo[9]\n        );\n    }\n\n    /// @notice \n    /// @param _promoter msg.sender\n    function _addBuilder(address _promoter) internal {\n        // \n        steps[currentStep].funder[msg.sender].funderAddr = msg.sender;\n        steps[currentStep].funder[msg.sender].promoter = _promoter;\n        steps[currentStep].funder[msg.sender].isBuilder = true;\n    }\n\n    /// @notice \n    function Beneficiary() public view returns(address payable) {\n        return beneficiary;\n    }\n\n    /// @notice hash\n    function getBlockHash() public view returns(bytes32 blockHash) {\n        return blockhash(steps[currentStep].blockNumber.add(1));\n    }\n\n    /// @notice \n    function currentStepIsClosed(uint256 _stepIndex) public view returns(bool) {\n        return steps[_stepIndex].stepIsClosed;\n    }\n\n    bool refundIsFinished;\n\n    /// @notice \n    /// @dev tokenETH\n    function refund() public onlyOwner() returns(bool){\n\n        // \n        require(!refundIsFinished, \"\");\n\n        // \n        uint256 resonanceClosedStep = resonanceDataManage.getResonanceClosedStep();\n        address[] memory funders = steps[resonanceClosedStep].funders;\n\n        // ETH\n        for(uint i = 0; i < funders.length; i++){\n            resonanceDataManage.setETHBalance(\n                funders[i],\n                resonanceDataManage.getETHBalance(funders[i]) + steps[resonanceClosedStep].funder[funders[i]].ethAmount\n            );\n\n            resonanceDataManage.setETHBalance(\n                funders[i],\n                resonanceDataManage.getTokenBalance(funders[i]) + steps[resonanceClosedStep].funder[funders[i]].tokenAmount\n            );\n        }\n\n        refundIsFinished = true;\n\n        return refundIsFinished;\n    }\n\n}",
  "sourcePath": "/Users/a186r/dev/sourcecode/contracts/contract/contract/contracts/Resonance.sol",
  "compiler": {
    "name": "solc",
    "version": "0.5.2+commit.1df8f40c.Emscripten.clang"
  },
  "schemaVersion": "3.0.6",
  "updatedAt": "2019-05-28T12:38:36.863Z",
  "devdoc": {
    "methods": {
      "constructor": {
        "params": {
          "_abcToken": "Token",
          "_beneficiary": "",
          "_initialFissionPerson": ""
        }
      },
      "getStepFunders(uint256)": {
        "details": "funders",
        "params": {
          "_stepIndex": ""
        }
      },
      "initParamForFirstStep()": {
        "details": "ResonanceDataManage"
      },
      "isBuilder()": {
        "details": "jointlyBuildtoBeFissionPerson"
      },
      "isOwner()": {
        "return": "true if `msg.sender` is the owner of the contract."
      },
      "owner()": {
        "return": "the address of the owner."
      },
      "refund()": {
        "details": "tokenETH"
      },
      "renounceOwnership()": {
        "details": "Allows the current owner to relinquish control of the contract. It will not be possible to call the functions with the `onlyOwner` modifier anymore."
      },
      "setRaiseTarget(uint256)": {
        "details": ""
      },
      "settlementFaithReward(address[])": {
        "params": {
          "_FaithWinnerList": ""
        }
      },
      "settlementStep(address[],address[])": {
        "details": "",
        "params": {
          "_LuckyWinnerList": "",
          "_fissionWinnerList": ""
        }
      },
      "toBeFissionPerson(address)": {
        "details": "TokenApprove",
        "params": {
          "promoter": ""
        }
      },
      "transferOwnership(address)": {
        "details": "Allows the current owner to transfer control of the contract to a newOwner.",
        "params": {
          "newOwner": "The address to transfer ownership to."
        }
      }
    }
  },
  "userdoc": {
    "methods": {
      "Beneficiary()": {
        "notice": ""
      },
      "constructor": "",
      "currentStepIsClosed(uint256)": {
        "notice": ""
      },
      "getBlockHash()": {
        "notice": "hash"
      },
      "getBuildingPerioInfo()": {
        "notice": ""
      },
      "getCurrentStepFundsInfo()": {
        "notice": "tokenETH"
      },
      "getFunderInfo()": {
        "notice": ""
      },
      "getFunderTotalRaised(address)": {
        "notice": "ETH"
      },
      "getRaiseTarget(uint256)": {
        "notice": ""
      },
      "getResonances()": {
        "notice": ""
      },
      "getStepFunders(uint256)": {
        "notice": "funders"
      },
      "initParamForFirstStep()": {
        "notice": ""
      },
      "isBuilder()": {
        "notice": ""
      },
      "isFunder()": {
        "notice": ""
      },
      "refund()": {
        "notice": ""
      },
      "renounceOwnership()": {
        "notice": "Renouncing ownership will leave the contract without an owner, thereby removing any functionality that is only available to the owner."
      },
      "setRaiseTarget(uint256)": {
        "notice": ""
      },
      "settlementFaithReward(address[])": {
        "notice": ""
      },
      "settlementStep(address[],address[])": {
        "notice": ""
      },
      "toBeFissionPerson(address)": {
        "notice": ""
      },
      "transferToken()": {
        "notice": "Token"
      },
      "withdrawAllETH()": {
        "notice": "(ETH)"
      },
      "withdrawAllToken()": {
        "notice": "tokentoken"
      }
    }
  }
}