{
  "contractName": "Resonance",
  "abi": [
    {
      "constant": true,
      "inputs": [],
      "name": "currentStep",
      "outputs": [
        {
          "name": "",
          "type": "uint256"
        }
      ],
      "payable": false,
      "stateMutability": "view",
      "type": "function"
    },
    {
      "constant": false,
      "inputs": [],
      "name": "renounceOwnership",
      "outputs": [],
      "payable": false,
      "stateMutability": "nonpayable",
      "type": "function"
    },
    {
      "constant": true,
      "inputs": [],
      "name": "owner",
      "outputs": [
        {
          "name": "",
          "type": "address"
        }
      ],
      "payable": false,
      "stateMutability": "view",
      "type": "function"
    },
    {
      "constant": true,
      "inputs": [],
      "name": "isOwner",
      "outputs": [
        {
          "name": "",
          "type": "bool"
        }
      ],
      "payable": false,
      "stateMutability": "view",
      "type": "function"
    },
    {
      "constant": true,
      "inputs": [],
      "name": "abcToken",
      "outputs": [
        {
          "name": "",
          "type": "address"
        }
      ],
      "payable": false,
      "stateMutability": "view",
      "type": "function"
    },
    {
      "constant": false,
      "inputs": [
        {
          "name": "newOwner",
          "type": "address"
        }
      ],
      "name": "transferOwnership",
      "outputs": [],
      "payable": false,
      "stateMutability": "nonpayable",
      "type": "function"
    },
    {
      "inputs": [
        {
          "name": "_abcToken",
          "type": "address"
        },
        {
          "name": "_beneficiary",
          "type": "address"
        },
        {
          "name": "_initialFissionPerson",
          "type": "address"
        },
        {
          "name": "_FOMORewardAddress",
          "type": "address"
        },
        {
          "name": "_luckyRewardAddress",
          "type": "address"
        },
        {
          "name": "_faithRewardAddress",
          "type": "address"
        }
      ],
      "payable": false,
      "stateMutability": "nonpayable",
      "type": "constructor"
    },
    {
      "payable": true,
      "stateMutability": "payable",
      "type": "fallback"
    },
    {
      "anonymous": false,
      "inputs": [
        {
          "indexed": true,
          "name": "fissionPerson",
          "type": "address"
        },
        {
          "indexed": true,
          "name": "promoter",
          "type": "address"
        }
      ],
      "name": "ToBeFissionPerson",
      "type": "event"
    },
    {
      "anonymous": false,
      "inputs": [
        {
          "indexed": false,
          "name": "currentStepTokenAmount",
          "type": "uint256"
        },
        {
          "indexed": false,
          "name": "currentStepRaisedETH",
          "type": "uint256"
        }
      ],
      "name": "FundsInfo",
      "type": "event"
    },
    {
      "anonymous": false,
      "inputs": [
        {
          "indexed": false,
          "name": "bpCountdown",
          "type": "uint256"
        },
        {
          "indexed": false,
          "name": "remainingToken",
          "type": "uint256"
        },
        {
          "indexed": false,
          "name": "personalTokenLimited",
          "type": "uint256"
        },
        {
          "indexed": false,
          "name": "totalTokenAmount",
          "type": "uint256"
        }
      ],
      "name": "BuildingPerioInfo",
      "type": "event"
    },
    {
      "anonymous": false,
      "inputs": [
        {
          "indexed": false,
          "name": "fpCountdown",
          "type": "uint256"
        },
        {
          "indexed": false,
          "name": "remainingETH",
          "type": "uint256"
        },
        {
          "indexed": false,
          "name": "rasiedETHAmount",
          "type": "uint256"
        }
      ],
      "name": "FundingPeriodInfo",
      "type": "event"
    },
    {
      "anonymous": false,
      "inputs": [
        {
          "indexed": false,
          "name": "fissionRewardList",
          "type": "address[]"
        },
        {
          "indexed": false,
          "name": "fissionRewardAmount",
          "type": "uint256[]"
        }
      ],
      "name": "FissionRewardInfo",
      "type": "event"
    },
    {
      "anonymous": false,
      "inputs": [
        {
          "indexed": false,
          "name": "FOMORewardList",
          "type": "address[]"
        },
        {
          "indexed": false,
          "name": "FOMORewards",
          "type": "uint256[]"
        }
      ],
      "name": "FOMORewardInfo",
      "type": "event"
    },
    {
      "anonymous": false,
      "inputs": [
        {
          "indexed": false,
          "name": "luckyRewardList",
          "type": "address[]"
        },
        {
          "indexed": false,
          "name": "luckyReward",
          "type": "uint256"
        }
      ],
      "name": "LuckyRewardInfo",
      "type": "event"
    },
    {
      "anonymous": false,
      "inputs": [
        {
          "indexed": false,
          "name": "faithRewardList",
          "type": "address[]"
        },
        {
          "indexed": false,
          "name": "faithRewardAmount",
          "type": "uint256[]"
        }
      ],
      "name": "FaithRewardInfo",
      "type": "event"
    },
    {
      "anonymous": false,
      "inputs": [
        {
          "indexed": false,
          "name": "funder",
          "type": "address"
        },
        {
          "indexed": false,
          "name": "ETHAmount",
          "type": "uint256"
        }
      ],
      "name": "WithdrawAllETH",
      "type": "event"
    },
    {
      "anonymous": false,
      "inputs": [
        {
          "indexed": true,
          "name": "previousOwner",
          "type": "address"
        },
        {
          "indexed": true,
          "name": "newOwner",
          "type": "address"
        }
      ],
      "name": "OwnershipTransferred",
      "type": "event"
    },
    {
      "constant": false,
      "inputs": [
        {
          "name": "_promoter",
          "type": "address"
        }
      ],
      "name": "toBeFissionPerson",
      "outputs": [],
      "payable": false,
      "stateMutability": "nonpayable",
      "type": "function"
    },
    {
      "constant": false,
      "inputs": [
        {
          "name": "_tokenAmount",
          "type": "uint256"
        }
      ],
      "name": "jointlyBuild",
      "outputs": [],
      "payable": false,
      "stateMutability": "nonpayable",
      "type": "function"
    },
    {
      "constant": false,
      "inputs": [],
      "name": "settlementReward",
      "outputs": [],
      "payable": false,
      "stateMutability": "nonpayable",
      "type": "function"
    },
    {
      "constant": false,
      "inputs": [],
      "name": "withdrawAllETH",
      "outputs": [],
      "payable": true,
      "stateMutability": "payable",
      "type": "function"
    },
    {
      "constant": false,
      "inputs": [],
      "name": "withdrawMyReward",
      "outputs": [],
      "payable": false,
      "stateMutability": "nonpayable",
      "type": "function"
    },
    {
      "constant": false,
      "inputs": [],
      "name": "getCurrentStepFundsInfo",
      "outputs": [],
      "payable": false,
      "stateMutability": "nonpayable",
      "type": "function"
    },
    {
      "constant": false,
      "inputs": [],
      "name": "getBuildingPerioInfo",
      "outputs": [],
      "payable": false,
      "stateMutability": "nonpayable",
      "type": "function"
    },
    {
      "constant": false,
      "inputs": [],
      "name": "getFundingPeriodInfo",
      "outputs": [],
      "payable": false,
      "stateMutability": "nonpayable",
      "type": "function"
    },
    {
      "constant": false,
      "inputs": [
        {
          "name": "_stepIndex",
          "type": "uint256"
        }
      ],
      "name": "getFissionRewardInfo",
      "outputs": [],
      "payable": false,
      "stateMutability": "nonpayable",
      "type": "function"
    },
    {
      "constant": false,
      "inputs": [
        {
          "name": "_stepIndex",
          "type": "uint256"
        }
      ],
      "name": "getFOMORewardIofo",
      "outputs": [],
      "payable": false,
      "stateMutability": "nonpayable",
      "type": "function"
    },
    {
      "constant": false,
      "inputs": [
        {
          "name": "_stepIndex",
          "type": "uint256"
        }
      ],
      "name": "getLuckyRewardInfo",
      "outputs": [],
      "payable": false,
      "stateMutability": "nonpayable",
      "type": "function"
    },
    {
      "constant": false,
      "inputs": [
        {
          "name": "_stepIndex",
          "type": "uint256"
        }
      ],
      "name": "getFaithRewardInfo",
      "outputs": [],
      "payable": false,
      "stateMutability": "nonpayable",
      "type": "function"
    },
    {
      "constant": true,
      "inputs": [],
      "name": "Beneficiary",
      "outputs": [
        {
          "name": "",
          "type": "address"
        }
      ],
      "payable": false,
      "stateMutability": "view",
      "type": "function"
    }
  ],
  "bytecode": "0x60806040526000600560006101000a81548160ff02191690831515021790555034801561002b57600080fd5b5060405160c080612e3c833981018060405260c081101561004b57600080fd5b81019080805190602001909291908051906020019092919080519060200190929190805190602001909291908051906020019092919080519060200190929190505050336000806101000a81548173ffffffffffffffffffffffffffffffffffffffff021916908373ffffffffffffffffffffffffffffffffffffffff1602179055506000809054906101000a900473ffffffffffffffffffffffffffffffffffffffff1673ffffffffffffffffffffffffffffffffffffffff16600073ffffffffffffffffffffffffffffffffffffffff167f8be0079c531659141344cd1fd0a4f28419497f9722a3daafe3b4186f6b6457e060405160405180910390a385600160006101000a81548173ffffffffffffffffffffffffffffffffffffffff021916908373ffffffffffffffffffffffffffffffffffffffff16021790555083600f60006101000a81548173ffffffffffffffffffffffffffffffffffffffff021916908373ffffffffffffffffffffffffffffffffffffffff16021790555084600360006101000a81548173ffffffffffffffffffffffffffffffffffffffff021916908373ffffffffffffffffffffffffffffffffffffffff1602179055504260048190555082600a60006101000a81548173ffffffffffffffffffffffffffffffffffffffff021916908373ffffffffffffffffffffffffffffffffffffffff16021790555081600b60006101000a81548173ffffffffffffffffffffffffffffffffffffffff021916908373ffffffffffffffffffffffffffffffffffffffff16021790555080600c60006101000a81548173ffffffffffffffffffffffffffffffffffffffff021916908373ffffffffffffffffffffffffffffffffffffffff160217905550505050505050612b50806102ec6000396000f3fe608060405260043610610131576000357c0100000000000000000000000000000000000000000000000000000000900480638f32d59b116100bd578063c23afb8a11610081578063c23afb8a146105d4578063c747c6ef1461060f578063de3844ff14610626578063e757412814610677578063f2fde38b146106ce57610131565b80638f32d59b1461053257806390386bbf14610561578063912c84ec1461056b578063b4862a7114610582578063c12cd1bc146105bd57610131565b8063715018a611610104578063715018a61461041b57806373d553791461043257806384641227146104895780638a18854b146104a05780638da5cb5b146104db57610131565b80631e7efbc9146103635780633723e1c21461039e5780635bc34f71146103d957806364ab07fa14610404575b600560009054906101000a900460ff161515156101b6576040517f08c379a00000000000000000000000000000000000000000000000000000000081526004018080602001828103825260128152602001807fe585b1e68cafe5b7b2e7bb8fe7bb93e69d9f000000000000000000000000000081525060200191505060405180910390fd5b6170806004540142101580156101d25750620151806004540142105b1515610246576040517f08c379a00000000000000000000000000000000000000000000000000000000081526004018080602001828103825260128152602001807fe4b88de59ca8e58b9fe8b584e69c9fe58685000000000000000000000000000081525060200191505060405180910390fd5b600034905080600e600d5481548110151561025d57fe5b90600052602060002090600c020160000160003373ffffffffffffffffffffffffffffffffffffffff1673ffffffffffffffffffffffffffffffffffffffff168152602001908152602001600020600201819055506001600e600d548154811015156102c557fe5b90600052602060002090600c020160000160003373ffffffffffffffffffffffffffffffffffffffff1673ffffffffffffffffffffffffffffffffffffffff16815260200190815260200160002060030160156101000a81548160ff02191690831515021790555080600e600d5481548110151561033f57fe5b90600052602060002090600c02016005016001016000828254019250508190555050005b34801561036f57600080fd5b5061039c6004803603602081101561038657600080fd5b810190808035906020019092919050505061071f565b005b3480156103aa57600080fd5b506103d7600480360360208110156103c157600080fd5b81019080803590602001909291905050506107cb565b005b3480156103e557600080fd5b506103ee610877565b6040518082815260200191505060405180910390f35b34801561041057600080fd5b5061041961087d565b005b34801561042757600080fd5b50610430610aa2565b005b34801561043e57600080fd5b50610447610b74565b604051808273ffffffffffffffffffffffffffffffffffffffff1673ffffffffffffffffffffffffffffffffffffffff16815260200191505060405180910390f35b34801561049557600080fd5b5061049e610b9e565b005b3480156104ac57600080fd5b506104d9600480360360208110156104c357600080fd5b8101908080359060200190929190505050610be8565b005b3480156104e757600080fd5b506104f0610beb565b604051808273ffffffffffffffffffffffffffffffffffffffff1673ffffffffffffffffffffffffffffffffffffffff16815260200191505060405180910390f35b34801561053e57600080fd5b50610547610c14565b604051808215151515815260200191505060405180910390f35b610569610c6b565b005b34801561057757600080fd5b506105806112dd565b005b34801561058e57600080fd5b506105bb600480360360208110156105a557600080fd5b81019080803590602001909291905050506113ed565b005b3480156105c957600080fd5b506105d2611b66565b005b3480156105e057600080fd5b5061060d600480360360208110156105f757600080fd5b8101908080359060200190929190505050611d5d565b005b34801561061b57600080fd5b50610624611e09565b005b34801561063257600080fd5b506106756004803603602081101561064957600080fd5b81019080803573ffffffffffffffffffffffffffffffffffffffff169060200190929190505050611e0b565b005b34801561068357600080fd5b5061068c6127b1565b604051808273ffffffffffffffffffffffffffffffffffffffff1673ffffffffffffffffffffffffffffffffffffffff16815260200191505060405180910390f35b3480156106da57600080fd5b5061071d600480360360208110156106f157600080fd5b81019080803573ffffffffffffffffffffffffffffffffffffffff1690602001909291905050506127d7565b005b600a60009054906101000a900473ffffffffffffffffffffffffffffffffffffffff1673ffffffffffffffffffffffffffffffffffffffff16632889cc07826040518263ffffffff167c010000000000000000000000000000000000000000000000000000000002815260040180828152602001915050600060405180830381600087803b1580156107b057600080fd5b505af11580156107c4573d6000803e3d6000fd5b5050505050565b600b60009054906101000a900473ffffffffffffffffffffffffffffffffffffffff1673ffffffffffffffffffffffffffffffffffffffff166349327441826040518263ffffffff167c010000000000000000000000000000000000000000000000000000000002815260040180828152602001915050600060405180830381600087803b15801561085c57600080fd5b505af1158015610870573d6000803e3d6000fd5b5050505050565b600d5481565b600560009054906101000a900460ff16151515610902576040517f08c379a00000000000000000000000000000000000000000000000000000000081526004018080602001828103825260128152602001807fe585b1e68cafe5b7b2e7bb8fe7bb93e69d9f000000000000000000000000000081525060200191505060405180910390fd5b600454421015801561091957506170806004540142105b151561098d576040517f08c379a00000000000000000000000000000000000000000000000000000000081526004018080602001828103825260128152602001807fe4b88de59ca8e585b1e5bbbae69c9fe58685000000000000000000000000000081525060200191505060405180910390fd5b60008060008042617080600454010393506109fb600e600d548154811015156109b257fe5b90600052602060002090600c020160010160010154600e600d548154811015156109d857fe5b90600052602060002090600c0201600101600001546127f690919063ffffffff16565b9250600e600d54815481101515610a0e57fe5b90600052602060002090600c0201600101600201549150600e600d54815481101515610a3657fe5b90600052602060002090600c02016001016003015490507fe11de7dbf210471e3fa9c2ce8526b79b1202a34755ab39aa0ee452e2de7dd9e3848484846040518085815260200184815260200183815260200182815260200194505050505060405180910390a150505050565b610aaa610c14565b1515610ab557600080fd5b600073ffffffffffffffffffffffffffffffffffffffff166000809054906101000a900473ffffffffffffffffffffffffffffffffffffffff1673ffffffffffffffffffffffffffffffffffffffff167f8be0079c531659141344cd1fd0a4f28419497f9722a3daafe3b4186f6b6457e060405160405180910390a360008060006101000a81548173ffffffffffffffffffffffffffffffffffffffff021916908373ffffffffffffffffffffffffffffffffffffffff160217905550565b6000600360009054906101000a900473ffffffffffffffffffffffffffffffffffffffff16905090565b3373ffffffffffffffffffffffffffffffffffffffff166108fc60009081150290604051600060405180830381858888f19350505050158015610be5573d6000803e3d6000fd5b50565b50565b60008060009054906101000a900473ffffffffffffffffffffffffffffffffffffffff16905090565b60008060009054906101000a900473ffffffffffffffffffffffffffffffffffffffff1673ffffffffffffffffffffffffffffffffffffffff163373ffffffffffffffffffffffffffffffffffffffff1614905090565b600e600d54815481101515610c7c57fe5b90600052602060002090600c020160000160003373ffffffffffffffffffffffffffffffffffffffff1673ffffffffffffffffffffffffffffffffffffffff16815260200190815260200160002060030160179054906101000a900460ff16151515610d50576040517f08c379a00000000000000000000000000000000000000000000000000000000081526004018080602001828103825260128152602001807fe5b7b2e7bb8fe68f90e5b881e5ae8ce68890000000000000000000000000000081525060200191505060405180910390fd5b6000600a60009054906101000a900473ffffffffffffffffffffffffffffffffffffffff1673ffffffffffffffffffffffffffffffffffffffff1663509b49e9600d54336040518363ffffffff167c0100000000000000000000000000000000000000000000000000000000028152600401808381526020018273ffffffffffffffffffffffffffffffffffffffff1673ffffffffffffffffffffffffffffffffffffffff1681526020019250505060206040518083038186803b158015610e1757600080fd5b505afa158015610e2b573d6000803e3d6000fd5b505050506040513d6020811015610e4157600080fd5b810190808051906020019092919050505090506000600b60009054906101000a900473ffffffffffffffffffffffffffffffffffffffff1673ffffffffffffffffffffffffffffffffffffffff1663dd572ab9600d54336040518363ffffffff167c0100000000000000000000000000000000000000000000000000000000028152600401808381526020018273ffffffffffffffffffffffffffffffffffffffff1673ffffffffffffffffffffffffffffffffffffffff1681526020019250505060206040518083038186803b158015610f1b57600080fd5b505afa158015610f2f573d6000803e3d6000fd5b505050506040513d6020811015610f4557600080fd5b810190808051906020019092919050505090506000600c60009054906101000a900473ffffffffffffffffffffffffffffffffffffffff1673ffffffffffffffffffffffffffffffffffffffff16638a644430600d54336040518363ffffffff167c0100000000000000000000000000000000000000000000000000000000028152600401808381526020018273ffffffffffffffffffffffffffffffffffffffff1673ffffffffffffffffffffffffffffffffffffffff1681526020019250505060206040518083038186803b15801561101f57600080fd5b505afa158015611033573d6000803e3d6000fd5b505050506040513d602081101561104957600080fd5b8101908080519060200190929190505050905061108181611073848661281890919063ffffffff16565b61281890919063ffffffff16565b600e600d5481548110151561109257fe5b90600052602060002090600c020160000160003373ffffffffffffffffffffffffffffffffffffffff1673ffffffffffffffffffffffffffffffffffffffff168152602001908152602001600020600501819055506001600e600d548154811015156110fa57fe5b90600052602060002090600c020160000160003373ffffffffffffffffffffffffffffffffffffffff1673ffffffffffffffffffffffffffffffffffffffff16815260200190815260200160002060030160176101000a81548160ff0219169083151502179055503373ffffffffffffffffffffffffffffffffffffffff166108fc600e600d5481548110151561118d57fe5b90600052602060002090600c020160000160003373ffffffffffffffffffffffffffffffffffffffff1673ffffffffffffffffffffffffffffffffffffffff168152602001908152602001600020600501549081150290604051600060405180830381858888f1935050505015801561120a573d6000803e3d6000fd5b507f293d21fe426f090ce1ced07545832d833ba5245d1ca5dab39eedd683bcb26c7133600e600d5481548110151561123e57fe5b90600052602060002090600c020160000160003373ffffffffffffffffffffffffffffffffffffffff1673ffffffffffffffffffffffffffffffffffffffff16815260200190815260200160002060050154604051808373ffffffffffffffffffffffffffffffffffffffff1673ffffffffffffffffffffffffffffffffffffffff1681526020018281526020019250505060405180910390a1505050565b600560009054906101000a900460ff16151515611362576040517f08c379a00000000000000000000000000000000000000000000000000000000081526004018080602001828103825260128152602001807fe585b1e68cafe5b7b2e7bb8fe7bb93e69d9f000000000000000000000000000081525060200191505060405180910390fd5b7fefb17818fcd18149842dc8ec26c8d51b1f7cd86669024d8ad385c95727e301b2600e600d5481548110151561139457fe5b90600052602060002090600c020160010160000154600e600d548154811015156113ba57fe5b90600052602060002090600c020160050160010154604051808381526020018281526020019250505060405180910390a1565b600560009054906101000a900460ff16151515611472576040517f08c379a00000000000000000000000000000000000000000000000000000000081526004018080602001828103825260128152602001807fe585b1e68cafe5b7b2e7bb8fe7bb93e69d9f000000000000000000000000000081525060200191505060405180910390fd5b600454421015801561148957506170806004540142105b15156114fd576040517f08c379a00000000000000000000000000000000000000000000000000000000081526004018080602001828103825260128152602001807fe4b88de59ca8e585b1e5bbbae69c9fe58685000000000000000000000000000081525060200191505060405180910390fd5b600e600d5481548110151561150e57fe5b90600052602060002090600c020160000160003373ffffffffffffffffffffffffffffffffffffffff1673ffffffffffffffffffffffffffffffffffffffff16815260200190815260200160002060030160149054906101000a900460ff1615156115c4576040517f08c379a0000000000000000000000000000000000000000000000000000000008152600401808060200182810382526031815260200180612af46031913960400191505060405180910390fd5b73__UintUtils_____________________________63669dafe8826040518263ffffffff167c01000000000000000000000000000000000000000000000000000000000281526004018082815260200191505060206040518083038186803b15801561162f57600080fd5b505af4158015611643573d6000803e3d6000fd5b505050506040513d602081101561165957600080fd5b8101908080519060200190929190505050600160009054906101000a900473ffffffffffffffffffffffffffffffffffffffff1673ffffffffffffffffffffffffffffffffffffffff1663dd62ed3e33306040518363ffffffff167c0100000000000000000000000000000000000000000000000000000000028152600401808373ffffffffffffffffffffffffffffffffffffffff1673ffffffffffffffffffffffffffffffffffffffff1681526020018273ffffffffffffffffffffffffffffffffffffffff1673ffffffffffffffffffffffffffffffffffffffff1681526020019250505060206040518083038186803b15801561175957600080fd5b505afa15801561176d573d6000803e3d6000fd5b505050506040513d602081101561178357600080fd5b81019080805190602001909291905050501015151561180a576040517f08c379a00000000000000000000000000000000000000000000000000000000081526004018080602001828103825260128152602001807fe68e88e69d83e9a29de5baa6e4b88de8b6b3000000000000000000000000000081525060200191505060405180910390fd5b600160009054906101000a900473ffffffffffffffffffffffffffffffffffffffff1673ffffffffffffffffffffffffffffffffffffffff166323b872dd333073__UintUtils_____________________________63669dafe8866040518263ffffffff167c01000000000000000000000000000000000000000000000000000000000281526004018082815260200191505060206040518083038186803b1580156118b557600080fd5b505af41580156118c9573d6000803e3d6000fd5b505050506040513d60208110156118df57600080fd5b81019080805190602001909291905050506040518463ffffffff167c0100000000000000000000000000000000000000000000000000000000028152600401808473ffffffffffffffffffffffffffffffffffffffff1673ffffffffffffffffffffffffffffffffffffffff1681526020018373ffffffffffffffffffffffffffffffffffffffff1673ffffffffffffffffffffffffffffffffffffffff1681526020018281526020019350505050602060405180830381600087803b1580156119a857600080fd5b505af11580156119bc573d6000803e3d6000fd5b505050506040513d60208110156119d257600080fd5b81019080805190602001909291905050501515611a57576040517f08c379a000000000000000000000000000000000000000000000000000000000815260040180806020018281038252601a8152602001807fe8bdace7a7bb746f6b656ee588b0e59088e7baa6e5a4b1e8b4a500000000000081525060200191505060405180910390fd5b73__UintUtils_____________________________63669dafe8826040518263ffffffff167c01000000000000000000000000000000000000000000000000000000000281526004018082815260200191505060206040518083038186803b158015611ac257600080fd5b505af4158015611ad6573d6000803e3d6000fd5b505050506040513d6020811015611aec57600080fd5b8101908080519060200190929190505050600e600d54815481101515611b0e57fe5b90600052602060002090600c020160000160003373ffffffffffffffffffffffffffffffffffffffff1673ffffffffffffffffffffffffffffffffffffffff1681526020019081526020016000206001018190555050565b600560009054906101000a900460ff16151515611beb576040517f08c379a00000000000000000000000000000000000000000000000000000000081526004018080602001828103825260128152602001807fe585b1e68cafe5b7b2e7bb8fe7bb93e69d9f000000000000000000000000000081525060200191505060405180910390fd5b617080600454014210158015611c075750620151806004540142105b1515611c7b576040517f08c379a00000000000000000000000000000000000000000000000000000000081526004018080602001828103825260128152602001807fe4b88de59ca8e58b9fe8b584e69c9fe58685000000000000000000000000000081525060200191505060405180910390fd5b600080600042601860045401039250611ce7600e600d54815481101515611c9e57fe5b90600052602060002090600c020160050160010154600e600d54815481101515611cc457fe5b90600052602060002090600c0201600501600001546127f690919063ffffffff16565b9150600e600d54815481101515611cfa57fe5b90600052602060002090600c02016005016001015490507fae8973493d4c3e41a9615da7dbb45a3e85e217ab826ebf232f236520f89ce5bd83838360405180848152602001838152602001828152602001935050505060405180910390a1505050565b600c60009054906101000a900473ffffffffffffffffffffffffffffffffffffffff1673ffffffffffffffffffffffffffffffffffffffff166353cb8ba9826040518263ffffffff167c010000000000000000000000000000000000000000000000000000000002815260040180828152602001915050600060405180830381600087803b158015611dee57600080fd5b505af1158015611e02573d6000803e3d6000fd5b5050505050565b565b600560009054906101000a900460ff16151515611e90576040517f08c379a00000000000000000000000000000000000000000000000000000000081526004018080602001828103825260128152602001807fe585b1e68cafe5b7b2e7bb8fe7bb93e69d9f000000000000000000000000000081525060200191505060405180910390fd5b6004544210158015611ea757506170806004540142105b1515611f1b576040517f08c379a00000000000000000000000000000000000000000000000000000000081526004018080602001828103825260128152602001807fe4b88de59ca8e585b1e5bbbae69c9fe58685000000000000000000000000000081525060200191505060405180910390fd5b600073ffffffffffffffffffffffffffffffffffffffff168173ffffffffffffffffffffffffffffffffffffffff1614151515611fc0576040517f08c379a000000000000000000000000000000000000000000000000000000000815260040180806020018281038252601b8152602001807fe68ea8e5b9bfe88085e4b88de883bde698afe7a9bae59cb0e59d80000000000081525060200191505060405180910390fd5b73__UintUtils_____________________________63669dafe860086040518263ffffffff167c01000000000000000000000000000000000000000000000000000000000281526004018082815260200191505060206040518083038186803b15801561202c57600080fd5b505af4158015612040573d6000803e3d6000fd5b505050506040513d602081101561205657600080fd5b8101908080519060200190929190505050600160009054906101000a900473ffffffffffffffffffffffffffffffffffffffff1673ffffffffffffffffffffffffffffffffffffffff1663dd62ed3e33306040518363ffffffff167c0100000000000000000000000000000000000000000000000000000000028152600401808373ffffffffffffffffffffffffffffffffffffffff1673ffffffffffffffffffffffffffffffffffffffff1681526020018273ffffffffffffffffffffffffffffffffffffffff1673ffffffffffffffffffffffffffffffffffffffff1681526020019250505060206040518083038186803b15801561215657600080fd5b505afa15801561216a573d6000803e3d6000fd5b505050506040513d602081101561218057600080fd5b810190808051906020019092919050505010151515612207576040517f08c379a00000000000000000000000000000000000000000000000000000000081526004018080602001828103825260128152602001807fe68e88e69d83e9a29de5baa6e4b88de8b6b3000000000000000000000000000081525060200191505060405180910390fd5b600160009054906101000a900473ffffffffffffffffffffffffffffffffffffffff1673ffffffffffffffffffffffffffffffffffffffff166323b872dd333073__UintUtils_____________________________63669dafe860086040518263ffffffff167c01000000000000000000000000000000000000000000000000000000000281526004018082815260200191505060206040518083038186803b1580156122b357600080fd5b505af41580156122c7573d6000803e3d6000fd5b505050506040513d60208110156122dd57600080fd5b81019080805190602001909291905050506040518463ffffffff167c0100000000000000000000000000000000000000000000000000000000028152600401808473ffffffffffffffffffffffffffffffffffffffff1673ffffffffffffffffffffffffffffffffffffffff1681526020018373ffffffffffffffffffffffffffffffffffffffff1673ffffffffffffffffffffffffffffffffffffffff1681526020018281526020019350505050602060405180830381600087803b1580156123a657600080fd5b505af11580156123ba573d6000803e3d6000fd5b505050506040513d60208110156123d057600080fd5b81019080805190602001909291905050501515612455576040517f08c379a000000000000000000000000000000000000000000000000000000000815260040180806020018281038252601a8152602001807fe8bdace7a7bb746f6b656ee588b0e59088e7baa6e5a4b1e8b4a500000000000081525060200191505060405180910390fd5b600160009054906101000a900473ffffffffffffffffffffffffffffffffffffffff1673ffffffffffffffffffffffffffffffffffffffff166342966c6873__UintUtils_____________________________63669dafe860036040518263ffffffff167c01000000000000000000000000000000000000000000000000000000000281526004018082815260200191505060206040518083038186803b1580156124ff57600080fd5b505af4158015612513573d6000803e3d6000fd5b505050506040513d602081101561252957600080fd5b81019080805190602001909291905050506040518263ffffffff167c010000000000000000000000000000000000000000000000000000000002815260040180828152602001915050600060405180830381600087803b15801561258c57600080fd5b505af11580156125a0573d6000803e3d6000fd5b50505050600160009054906101000a900473ffffffffffffffffffffffffffffffffffffffff1673ffffffffffffffffffffffffffffffffffffffff1663a9059cbb8273__UintUtils_____________________________63669dafe860056040518263ffffffff167c01000000000000000000000000000000000000000000000000000000000281526004018082815260200191505060206040518083038186803b15801561264f57600080fd5b505af4158015612663573d6000803e3d6000fd5b505050506040513d602081101561267957600080fd5b81019080805190602001909291905050506040518363ffffffff167c0100000000000000000000000000000000000000000000000000000000028152600401808373ffffffffffffffffffffffffffffffffffffffff1673ffffffffffffffffffffffffffffffffffffffff16815260200182815260200192505050602060405180830381600087803b15801561270f57600080fd5b505af1158015612723573d6000803e3d6000fd5b505050506040513d602081101561273957600080fd5b81019080805190602001909291905050505061275481612839565b8073ffffffffffffffffffffffffffffffffffffffff163373ffffffffffffffffffffffffffffffffffffffff167f95b9b14e81807a19f0d780820ad803eba32584f0671e1410f6815a83e75d4ef760405160405180910390a350565b600160009054906101000a900473ffffffffffffffffffffffffffffffffffffffff1681565b6127df610c14565b15156127ea57600080fd5b6127f3816129f9565b50565b600082821115151561280757600080fd5b600082840390508091505092915050565b600080828401905083811015151561282f57600080fd5b8091505092915050565b33600e600d5481548110151561284b57fe5b90600052602060002090600c020160000160003373ffffffffffffffffffffffffffffffffffffffff1673ffffffffffffffffffffffffffffffffffffffff16815260200190815260200160002060000160006101000a81548173ffffffffffffffffffffffffffffffffffffffff021916908373ffffffffffffffffffffffffffffffffffffffff16021790555080600e600d548154811015156128ec57fe5b90600052602060002090600c020160000160003373ffffffffffffffffffffffffffffffffffffffff1673ffffffffffffffffffffffffffffffffffffffff16815260200190815260200160002060030160006101000a81548173ffffffffffffffffffffffffffffffffffffffff021916908373ffffffffffffffffffffffffffffffffffffffff1602179055506001600e600d5481548110151561298e57fe5b90600052602060002090600c020160000160003373ffffffffffffffffffffffffffffffffffffffff1673ffffffffffffffffffffffffffffffffffffffff16815260200190815260200160002060030160146101000a81548160ff02191690831515021790555050565b600073ffffffffffffffffffffffffffffffffffffffff168173ffffffffffffffffffffffffffffffffffffffff1614151515612a3557600080fd5b8073ffffffffffffffffffffffffffffffffffffffff166000809054906101000a900473ffffffffffffffffffffffffffffffffffffffff1673ffffffffffffffffffffffffffffffffffffffff167f8be0079c531659141344cd1fd0a4f28419497f9722a3daafe3b4186f6b6457e060405160405180910390a3806000806101000a81548173ffffffffffffffffffffffffffffffffffffffff021916908373ffffffffffffffffffffffffffffffffffffffff1602179055505056fee8b083e794a8e88085e4b88de698afe7bb84e5bbbae880852fe8a382e58f98e88085efbc8ce6b2a1e69c89e69d83e99990a165627a7a723058204dbd89e49f35c5142ae7c0eb9a42fa099300bdd78c145964cb07c3180e0024460029",
  "source": "pragma solidity >=0.4.21 <0.6.0;\n\nimport \"../node_modules/openzeppelin-solidity/contracts/math/SafeMath.sol\";\nimport \"../node_modules/openzeppelin-solidity/contracts/ownership/Ownable.sol\";\nimport \"./ABCToken.sol\";\nimport \"./UintUtils.sol\";\nimport \"./FissionReward.sol\";\nimport \"./FOMOReward.sol\";\nimport \"./LuckyReward.sol\";\nimport \"./FaithReward.sol\";\n\n// TODO:token()\ncontract Resonance is Ownable{\n\n    using SafeMath for uint256;\n\n    // \n    // \n    event ToBeFissionPerson(address indexed fissionPerson, address indexed promoter);\n\n    event FundsInfo(uint256 currentStepTokenAmount, uint256 currentStepRaisedETH);\n    event BuildingPerioInfo(uint256 bpCountdown, uint256 remainingToken, uint256 personalTokenLimited, uint256 totalTokenAmount);\n    event FundingPeriodInfo(uint256 fpCountdown, uint256 remainingETH, uint256 rasiedETHAmount);\n\n    // \n    event FissionRewardInfo(address[] fissionRewardList, uint256[] fissionRewardAmount);\n    event FOMORewardInfo(address[] FOMORewardList, uint256[] FOMORewards);\n    event LuckyRewardInfo(address[] luckyRewardList, uint256 luckyReward);\n    event FaithRewardInfo(address[] faithRewardList, uint256[] faithRewardAmount);\n\n    event WithdrawAllETH(address funder, uint256 ETHAmount);\n\n    // \n    modifier softCapReached(){\n        require(steps[currentStep].funding.raisedETH >= steps[currentStep].softCap, \"\");\n        _;\n    }\n\n    // \n    modifier hardCapReached(){\n        require(steps[currentStep].funding.raisedETH < steps[currentStep].hardCap, \"\");\n        _;\n    }\n\n    // \n    modifier isBuildingPeriod() {\n        require(block.timestamp >= openingTime && block.timestamp < openingTime + 8 hours, \"\");\n        _;\n    }\n\n    // \n    modifier isFundingPeriod() {\n        require(block.timestamp >= openingTime + 8 hours && block.timestamp < openingTime + 24 hours, \"\");\n        _;\n    }\n\n    // \n    modifier isBuilder() {\n        require(steps[currentStep].funders[msg.sender].isBuilder, \"/\");\n        _;\n    }\n\n    // \n    modifier isFunder() {\n        require(steps[currentStep].funders[msg.sender].isFunder, \"\");\n        _;\n    }\n\n    // \n    modifier crowdsaleIsRunning() {\n        require(!crowdsaleClosed, \"\");\n        _;\n    }\n\n    // \n    ABCToken public abcToken;\n\n    // \n    uint256 private fundsPool;\n\n    // 60%\n    address payable private beneficiary;\n\n    // \n    uint256 private openingTime;\n\n    bool crowdsaleClosed = false;   //  \n\n    //  affman\n    struct Affman{\n        address promoterAddr; // \n        uint256 affIncome; // \n    }\n\n    // \n    struct Funder{\n        address funderAddr; // \n        uint256 tokenAmount; // token\n        uint256 ethAmount; // eth\n        address promoter; // \n        bool isBuilder; // /\n        bool isFunder; // \n        bool tokenHasWithdrawn; // Token\n        bool ETHHasWithdrawn; // ETH\n        uint256 tokenBalance; // Token\n        uint256 ETHBalance; // ETH\n    }\n\n    // \n    struct Building{\n        uint256 tokenAmount; // Token\n        uint256 raisedToken; // token\n        uint256 personalTokenLimited;// token\n        uint256 raisedTokenAmount; // Token\n    }\n\n    // \n    struct Funding{\n        uint256 ETHAmount; // ETH\n        uint256 raisedETH; // ETH\n    }\n\n    // \n    // mapping\n    // +mappingmapping(address => uint256) rewards; \n    // \n    struct FissionReward{\n        address[] fissionRewardList; // \n        uint256[] fissionRewardAmount; // \n        mapping(address => uint256) rewardBalance; // \n        bool hasFinished; // \n    }\n\n    FissionReward fissionRewardInstance;\n    FOMOReward FOMORewardInstance;\n    LuckyReward luckyRewardInstance;\n    FaithReward faithRewardInstance;\n\n    // \n    struct Step{\n        mapping(address => Funder) funders;// \n        // mapping(address => Affman) affmans; // \n        Building building; // \n        Funding funding; // \n        // Affman[] affmanArray; // \n        uint256 upperLimit; // \n        uint256 softCap; // \n        uint256 hardCap; // \n        uint256 rate; // \n        bool stepIsClosed; // \n    }\n\n    uint256 public currentStep;\n\n    Step[] steps;\n\n    address initialFissionPerson; // \n\n    // mapping\n    // TODO:,\n    // Step[] public steps;\n    // mapping(uint256 => Step) steps;\n\n    // \n    /// @notice \n    /// @param _abcToken Token\n    /// @param _beneficiary \n    /// @param _initialFissionPerson \n    constructor(\n        ABCToken _abcToken,\n        address payable _beneficiary,\n        address _initialFissionPerson,\n        address _FOMORewardAddress,\n        address _luckyRewardAddress,\n        address _faithRewardAddress\n    )\n        public\n    {\n        abcToken = _abcToken; // abc Token\n        initialFissionPerson = _initialFissionPerson; // \n        beneficiary = _beneficiary; // \n        openingTime = block.timestamp; // \n\n        // \n        FOMORewardInstance = FOMOReward(_FOMORewardAddress);\n        luckyRewardInstance = LuckyReward(_luckyRewardAddress);\n        faithRewardInstance = FaithReward(_faithRewardAddress);\n    }\n\n    /// @notice \n    /// @param _promoter \n    /// @dev TokenApprove\n    function toBeFissionPerson(\n        address _promoter\n    )\n        public\n        crowdsaleIsRunning()\n        isBuildingPeriod()\n    {\n        require(_promoter != address(0), \"\");\n\n        // \n        require(abcToken.allowance(msg.sender, address(this)) >= UintUtils.toWei(8),\"\");\n\n        require(abcToken.transferFrom(msg.sender,address(this), UintUtils.toWei(8)),\"token\");\n\n        // 3\n        abcToken.burn(UintUtils.toWei(3));\n\n        // 5\n        abcToken.transfer(address(_promoter), UintUtils.toWei(5));\n\n        // _addAffman(_promoter);\n\n        // \n        _addBuilder(_promoter);\n\n        emit ToBeFissionPerson(msg.sender, _promoter);\n    }\n\n    // token\n    function jointlyBuild(\n        uint256 _tokenAmount\n    )\n        public\n        crowdsaleIsRunning()\n        isBuildingPeriod()\n        isBuilder()\n    {\n        // \n        require(abcToken.allowance(msg.sender, address(this)) >= UintUtils.toWei(_tokenAmount),\"\");\n        // \n        require(abcToken.transferFrom(msg.sender,address(this), UintUtils.toWei(_tokenAmount)),\"token\");\n        steps[currentStep].funders[msg.sender].tokenAmount = UintUtils.toWei(_tokenAmount);\n    }\n\n    // \n    // \n    function ()\n        external\n        payable\n        crowdsaleIsRunning()\n        isFundingPeriod()\n    {\n        uint amount = msg.value;\n        steps[currentStep].funders[msg.sender].ethAmount = amount;\n        steps[currentStep].funders[msg.sender].isFunder = true;\n        steps[currentStep].funding.raisedETH += amount;\n    }\n\n    // \n    // \n    // 1.  2.\n    /// @dev \n    function _crowdsaleIsClosed()\n        internal\n        returns(bool)\n    {\n        // 1.\n        if(UintUtils.toWei(steps[currentStep].funding.raisedETH) < UintUtils.toWei(steps[currentStep].softCap)) {\n            crowdsaleClosed = true;\n\n            // Token\n            _withdrawRemainingToken();\n        }\n\n        // TODO:\n        // 2.\n        if(fundsPool == 0) {\n            crowdsaleClosed = true;\n        }\n\n        return crowdsaleClosed;\n    }\n\n    /// @notice Token\n    function _withdrawRemainingToken()\n        internal\n        onlyOwner()\n        returns(bool)\n    {\n        abcToken.transfer(owner(), UintUtils.toWei(fundsPool));\n    }\n\n    /// @notice \n    /// @dev \n    // \n    // \n    function settlementReward()\n        public\n    {\n        // \n        // \n        // _settlementFissionReward();\n    }\n\n    /// @notice funderETH\n    /// @dev ETH\n    function withdrawAllETH() public payable{\n        require(!steps[currentStep].funders[msg.sender].ETHHasWithdrawn, \"\");\n\n        uint256 amountOfFOMO = FOMORewardInstance.FOMORewardAmount(currentStep, msg.sender);\n        uint256 amountOfLucky = luckyRewardInstance.luckyRewardAmount(currentStep, msg.sender);\n        uint256 amountOfFaith = faithRewardInstance.faithRewardAmount(currentStep, msg.sender);\n\n        steps[currentStep].funders[msg.sender].ETHBalance = amountOfFOMO.add(amountOfLucky).add(amountOfFaith);\n        steps[currentStep].funders[msg.sender].ETHHasWithdrawn = true;\n        msg.sender.transfer(steps[currentStep].funders[msg.sender].ETHBalance);\n\n        emit WithdrawAllETH(msg.sender, steps[currentStep].funders[msg.sender].ETHBalance);\n    }\n\n    // address[] fissionRewardList; // \n    // uint256[] fissionRewardAmount; // \n    // \n    function _settlementFissionReward(address[] memory _fissionRewardList, uint256[] memory fissionRewardAmount) internal {\n\n    }\n\n    // FOMO\n    function _settlementFOMOReward(uint _stepIndex) internal {\n        msg.sender.transfer(FOMORewardInstance.FOMORewardAmount(_stepIndex, msg.sender));\n    }\n\n    // \n    // _dealFissionReward()\n    function withdrawMyReward()\n        public\n    {\n        msg.sender.transfer(0);\n    }\n\n\n    // tokenETH\n    function getCurrentStepFundsInfo()\n        public\n        crowdsaleIsRunning()\n    {\n        emit FundsInfo(steps[currentStep].building.tokenAmount, steps[currentStep].funding.raisedETH);\n    }\n\n    // \n    function getBuildingPerioInfo()\n        public\n        crowdsaleIsRunning()\n        isBuildingPeriod()\n    {\n        uint256 _bpCountdown;\n        uint256 _remainingToken;\n        uint256 _personalTokenLimited;\n        uint256 _totalTokenAmount;\n\n        _bpCountdown = (openingTime + 8 hours) - block.timestamp;\n        _remainingToken = steps[currentStep].building.tokenAmount.sub(steps[currentStep].building.raisedToken);\n        _personalTokenLimited = steps[currentStep].building.personalTokenLimited;\n        _totalTokenAmount = steps[currentStep].building.raisedTokenAmount;\n        emit BuildingPerioInfo(_bpCountdown, _remainingToken, _personalTokenLimited, _totalTokenAmount);\n    }\n\n    // \n    function getFundingPeriodInfo()\n        public\n        crowdsaleIsRunning()\n        isFundingPeriod()\n    {\n        uint256 _fpCountdown;\n        uint256 _remainingETH;\n        uint256 _rasiedETHAmount;\n\n        _fpCountdown = (openingTime + 24) - block.timestamp;\n        _remainingETH = steps[currentStep].funding.ETHAmount.sub(steps[currentStep].funding.raisedETH);\n        _rasiedETHAmount = steps[currentStep].funding.raisedETH;\n        emit FundingPeriodInfo(_fpCountdown, _remainingETH, _rasiedETHAmount);\n    }\n\n    /// @notice \n    /// @dev \n    /// @param _stepIndex \n    function getFissionRewardInfo(uint256 _stepIndex)\n        public\n    {\n        // FissionReward memory currentStepFissionReward = FissionReward[currentStep];\n        // emit FissionRewardInfo(\n        //     currentStepFissionReward.fissionRewardList,\n        //     currentStepFissionReward.fissionRewardAmount\n        // );\n    }\n\n    /// @notice FOMO\n    /// @dev FOMO\n    /// @param _stepIndex \n    function getFOMORewardIofo(uint256 _stepIndex)\n        public\n    {\n        FOMORewardInstance.getFOMOWinnerInfo(_stepIndex);\n    }\n\n    /// @notice \n    /// @dev \n    /// @param _stepIndex \n    function getLuckyRewardInfo(uint256 _stepIndex)\n        public\n    {\n        luckyRewardInstance.getLuckyInfo(_stepIndex);\n    }\n\n    /// @notice \n    /// @dev \n    /// @param _stepIndex \n    function getFaithRewardInfo(uint256 _stepIndex)\n        public\n    {\n        faithRewardInstance.getFaithWinnerInfo(_stepIndex);\n    }\n\n    /// @notice \n    /// @param _promoter msg.sender\n    // function _addAffman(address _promoter) internal {\n\n    //     if(_promoter != initialFissionPerson) {\n    //         steps[currentStep].affmanArray[currentStep]._promoter.affIncome += UintUtils.toWei(5);\n    //         steps[currentStep].affmans[_promoter].promoterAddr = _promoter;\n\n    //         if(steps[currentStep].affmanArray.length == 0){\n    //             steps[currentStep].affmanArray.push(steps[currentStep].affmans[_promoter]);\n    //         } else {\n    //             for(uint i = 0; i < steps[currentStep].affmanArray.length; i++){\n    //                 if(steps[currentStep].affmanArray[i].promoterAddr == _promoter){\n    //                     steps[currentStep].affmanArray[i].affIncome += 5;\n    //                 }else{\n    //                     steps[currentStep].affmanArray.push(steps[currentStep].affmans[_promoter]);\n    //                 }\n    //             }\n    //         }\n    //     }else{\n    //         return;\n    //     }\n    // }\n\n    /// @notice \n    /// @param _promoter msg.sender\n    function _addBuilder(address _promoter) internal {\n        // \n        steps[currentStep].funders[msg.sender].funderAddr = msg.sender;\n        steps[currentStep].funders[msg.sender].promoter = _promoter;\n        steps[currentStep].funders[msg.sender].isBuilder = true;\n    }\n\n    // \n    function Beneficiary() public view returns(address payable) {\n        return beneficiary;\n    }\n\n    // ETH\n    function _forwardFunds() internal {\n        // 60%\n        beneficiary.transfer(steps[currentStep].funding.raisedETH.mul(60).div(100));\n    }\n\n    // \n    // \n    // TODO:\n    // TODO: currentStep-1 \n    function _dealFissionReward()\n        internal\n        returns(bool)\n    {\n        // // \n        // require(currentStep >= 1, \"\");\n\n        // require(currentStep-1 < currentStep, \"\");\n        // // \n        // require(steps[currentStep-1].stepIsClosed, \"\");\n        // //  currentStep-1 \n        // require(!steps[currentStep].reward.fissionReward.hasFinished, \"\");\n\n        // // 20%ETH\n        // uint256 totalFissionRewardAmount = UintUtils.toWei(steps[currentStep-1].funding.raisedETH).mul(20).div(100);\n\n        // uint256[] memory fissionRewardAmount = steps[currentStep].reward.fissionReward.fissionRewardAmount;\n\n        // address[] memory fissionRewardList = steps[currentStep].reward.fissionReward.fissionRewardList;\n\n        // // TODO:5050\n        // for(uint8 i = 0; i <= steps[currentStep].reward.fissionReward.fissionRewardAmount.length; i++) {\n\n        //     steps[currentStep].reward.fissionReward.fissionRewardList[i] = (steps[currentStep-1].affmanArray[i].promoterAddr);\n\n        //     if (i == 0) { //1\n        //         fissionRewardAmount[i] = (totalFissionRewardAmount.mul(20).div(1000));\n        //     } else if (i >= 1 && i <= 2) { // 23\n        //         fissionRewardAmount[i] = (totalFissionRewardAmount.mul(15).div(1000));\n        //     } else if (i >= 3 && i <= 5) {\n        //         fissionRewardAmount[i] = (totalFissionRewardAmount.mul(10).div(1000));\n        //     } else if (i >= 6 && i <= 9) {\n        //         fissionRewardAmount[i] = (totalFissionRewardAmount.mul(5).div(1000));\n        //     } else {\n        //         fissionRewardAmount[i] = (totalFissionRewardAmount.mul(10).div(1000).div(40));\n        //     }\n\n        //     // \n        //     steps[currentStep].reward.fissionReward.rewardBalance[fissionRewardList[i]] = fissionRewardAmount[i];\n\n        // }\n\n        // // \n        // require(_totalRewardIsRight(currentStep-1), \"\");\n\n        return true;\n    }\n\n    // \n    // TODO:\n    // function _FissionRank()\n    //     public\n    //     isFundingPeriod()\n    // {\n    //     require(steps[currentStep].affmanArray.length != 0, \"\");\n    //     _quickSort(steps[currentStep].affmanArray, 0, steps[currentStep].affmanArray.length - 1);\n    // }\n\n    // \n    // function _totalRewardIsRight(uint _stepIndex) internal view returns(bool){\n        // // \n        // uint256 totalReward;\n\n        // for(uint i = 0;i < steps[currentStep].reward.fissionReward.fissionRewardAmount.length; i++){\n        //     totalReward += steps[currentStep].reward.fissionReward.fissionRewardAmount[i];\n        // }\n\n        // return (totalReward == UintUtils.toWei(steps[_stepIndex].funding.raisedETH).mul(20).div(100));\n    // }\n\n    // \n    // TODO:withdraw\n    // function _batchTransfer()\n    //     public\n    //     payable\n    // {\n    //     for(uint8 i = 0; i < steps[currentStep-1].reward.fissionReward.fissionRewardList.length; i++){\n    //         // \n    //         address(uint160(steps[currentStep-1].reward.fissionReward.fissionRewardList[i])).\n    //         transfer(steps[currentStep-1].reward.fissionReward.fissionRewardAmount[i]);\n    //     }\n\n    //     // \n    //     steps[currentStep-1].fissionRewardIsFinished = true;\n    // }\n\n    // TODO:\n    function _quickSort(Affman[] storage arr, uint left, uint right) internal {\n        uint i = left;\n        uint j = right;\n        uint pivot = arr[left + (right - left) / 2].affIncome;\n        while (i <= j) {\n            while (arr[i].affIncome < pivot) i++;\n            while (pivot < arr[j].affIncome) j--;\n            if (i <= j) {\n                (arr[i], arr[j]) = (arr[j], arr[i]);\n                i++;\n                j--;\n            }\n        }\n        if (left < j)\n            _quickSort(arr, left, j);\n        if (i < right)\n            _quickSort(arr, i, right);\n    }\n    // TODO:functiontoken\n\n}",
  "sourcePath": "/Users/a186r/dev/sourcecode/contracts/contract/contract/contracts/Resonance.sol",
  "compiler": {
    "name": "solc",
    "version": "0.5.2+commit.1df8f40c.Emscripten.clang"
  },
  "schemaVersion": "3.0.6",
  "updatedAt": "2019-05-20T07:45:52.121Z",
  "devdoc": {
    "methods": {
      "constructor": {
        "params": {
          "_abcToken": "Token",
          "_beneficiary": "",
          "_initialFissionPerson": ""
        }
      },
      "getFOMORewardIofo(uint256)": {
        "details": "FOMO",
        "params": {
          "_stepIndex": ""
        }
      },
      "getFaithRewardInfo(uint256)": {
        "details": "",
        "params": {
          "_stepIndex": ""
        }
      },
      "getFissionRewardInfo(uint256)": {
        "details": "",
        "params": {
          "_stepIndex": ""
        }
      },
      "getLuckyRewardInfo(uint256)": {
        "details": "",
        "params": {
          "_stepIndex": ""
        }
      },
      "isOwner()": {
        "return": "true if `msg.sender` is the owner of the contract."
      },
      "owner()": {
        "return": "the address of the owner."
      },
      "renounceOwnership()": {
        "details": "Allows the current owner to relinquish control of the contract. It will not be possible to call the functions with the `onlyOwner` modifier anymore."
      },
      "settlementReward()": {
        "details": ""
      },
      "toBeFissionPerson(address)": {
        "details": "TokenApprove",
        "params": {
          "_promoter": ""
        }
      },
      "transferOwnership(address)": {
        "details": "Allows the current owner to transfer control of the contract to a newOwner.",
        "params": {
          "newOwner": "The address to transfer ownership to."
        }
      },
      "withdrawAllETH()": {
        "details": "ETH"
      }
    }
  },
  "userdoc": {
    "methods": {
      "constructor": "",
      "getFOMORewardIofo(uint256)": {
        "notice": "FOMO"
      },
      "getFaithRewardInfo(uint256)": {
        "notice": ""
      },
      "getFissionRewardInfo(uint256)": {
        "notice": ""
      },
      "getLuckyRewardInfo(uint256)": {
        "notice": ""
      },
      "renounceOwnership()": {
        "notice": "Renouncing ownership will leave the contract without an owner, thereby removing any functionality that is only available to the owner."
      },
      "settlementReward()": {
        "notice": ""
      },
      "toBeFissionPerson(address)": {
        "notice": ""
      },
      "withdrawAllETH()": {
        "notice": "funderETH"
      }
    }
  }
}