{
  "contractName": "ResonanceDataManage",
  "abi": [
    {
      "inputs": [
        {
          "name": "_fassionRewardAddress",
          "type": "address"
        },
        {
          "name": "_FOMORewardAddress",
          "type": "address"
        },
        {
          "name": "_luckyRewardAddress",
          "type": "address"
        },
        {
          "name": "_faithRewardAddress",
          "type": "address"
        }
      ],
      "payable": false,
      "stateMutability": "nonpayable",
      "type": "constructor",
      "signature": "constructor"
    },
    {
      "anonymous": false,
      "inputs": [],
      "name": "WhihdrawAllToken",
      "type": "event",
      "signature": "0xee734865025ca1f0b8198bb35fbe6ca9a148b165df9c7b3862f84daee571e5d1"
    },
    {
      "constant": false,
      "inputs": [],
      "name": "setParamForFirstStep",
      "outputs": [],
      "payable": false,
      "stateMutability": "nonpayable",
      "type": "function",
      "signature": "0x1c5ce157"
    },
    {
      "constant": false,
      "inputs": [
        {
          "name": "_addr",
          "type": "address"
        }
      ],
      "name": "allowAccess",
      "outputs": [],
      "payable": false,
      "stateMutability": "nonpayable",
      "type": "function",
      "signature": "0xc4a85bc1"
    },
    {
      "constant": false,
      "inputs": [
        {
          "name": "_addr",
          "type": "address"
        }
      ],
      "name": "denyAccess",
      "outputs": [],
      "payable": false,
      "stateMutability": "nonpayable",
      "type": "function",
      "signature": "0x61afd5ac"
    },
    {
      "constant": false,
      "inputs": [
        {
          "name": "_fundsPool",
          "type": "uint256"
        }
      ],
      "name": "setFundsPool",
      "outputs": [],
      "payable": false,
      "stateMutability": "nonpayable",
      "type": "function",
      "signature": "0x30f42bf6"
    },
    {
      "constant": true,
      "inputs": [],
      "name": "getFundsPool",
      "outputs": [
        {
          "name": "",
          "type": "uint256"
        }
      ],
      "payable": false,
      "stateMutability": "view",
      "type": "function",
      "signature": "0x2734189a"
    },
    {
      "constant": false,
      "inputs": [
        {
          "name": "_openingTime",
          "type": "uint256"
        }
      ],
      "name": "setOpeningTime",
      "outputs": [],
      "payable": false,
      "stateMutability": "nonpayable",
      "type": "function",
      "signature": "0xabdd11a8"
    },
    {
      "constant": true,
      "inputs": [],
      "name": "getOpeningTime",
      "outputs": [
        {
          "name": "",
          "type": "uint256"
        }
      ],
      "payable": false,
      "stateMutability": "view",
      "type": "function",
      "signature": "0xd7463573"
    },
    {
      "constant": false,
      "inputs": [
        {
          "name": "_crowdsaleClosed",
          "type": "bool"
        }
      ],
      "name": "setCrowdsaleClosed",
      "outputs": [],
      "payable": false,
      "stateMutability": "nonpayable",
      "type": "function",
      "signature": "0xda03095c"
    },
    {
      "constant": true,
      "inputs": [],
      "name": "getCrowdsaleClosed",
      "outputs": [
        {
          "name": "",
          "type": "bool"
        }
      ],
      "payable": false,
      "stateMutability": "view",
      "type": "function",
      "signature": "0x743acbab"
    },
    {
      "constant": true,
      "inputs": [
        {
          "name": "_addr",
          "type": "address"
        }
      ],
      "name": "getETHBalance",
      "outputs": [
        {
          "name": "",
          "type": "uint256"
        }
      ],
      "payable": false,
      "stateMutability": "view",
      "type": "function",
      "signature": "0x3bb66a7b"
    },
    {
      "constant": false,
      "inputs": [
        {
          "name": "_addr",
          "type": "address"
        },
        {
          "name": "_amount",
          "type": "uint256"
        }
      ],
      "name": "setETHBalance",
      "outputs": [],
      "payable": false,
      "stateMutability": "nonpayable",
      "type": "function",
      "signature": "0x9b32a778"
    },
    {
      "constant": true,
      "inputs": [
        {
          "name": "_addr",
          "type": "address"
        }
      ],
      "name": "getTokenBalance",
      "outputs": [
        {
          "name": "",
          "type": "uint256"
        }
      ],
      "payable": false,
      "stateMutability": "view",
      "type": "function",
      "signature": "0x3aecd0e3"
    },
    {
      "constant": false,
      "inputs": [
        {
          "name": "_addr",
          "type": "address"
        },
        {
          "name": "_amount",
          "type": "uint256"
        }
      ],
      "name": "setTokenBalance",
      "outputs": [],
      "payable": false,
      "stateMutability": "nonpayable",
      "type": "function",
      "signature": "0x4ceb1f13"
    },
    {
      "constant": true,
      "inputs": [],
      "name": "getBuildingTokenAmount",
      "outputs": [
        {
          "name": "",
          "type": "uint256"
        }
      ],
      "payable": false,
      "stateMutability": "view",
      "type": "function",
      "signature": "0x8d8276be"
    },
    {
      "constant": false,
      "inputs": [
        {
          "name": "_tokenAmount",
          "type": "uint256"
        }
      ],
      "name": "setBuildingTokenAmount",
      "outputs": [],
      "payable": false,
      "stateMutability": "nonpayable",
      "type": "function",
      "signature": "0xbc8a5bb2"
    },
    {
      "constant": true,
      "inputs": [],
      "name": "isBuildingPeriod",
      "outputs": [
        {
          "name": "",
          "type": "bool"
        }
      ],
      "payable": false,
      "stateMutability": "view",
      "type": "function",
      "signature": "0x25d8e97f"
    },
    {
      "constant": true,
      "inputs": [],
      "name": "isFundingPeriod",
      "outputs": [
        {
          "name": "",
          "type": "bool"
        }
      ],
      "payable": false,
      "stateMutability": "view",
      "type": "function",
      "signature": "0x74ebae06"
    },
    {
      "constant": false,
      "inputs": [
        {
          "name": "raisedETH",
          "type": "uint256"
        },
        {
          "name": "softCap",
          "type": "uint256"
        },
        {
          "name": "stepIndex",
          "type": "uint256"
        }
      ],
      "name": "crowdsaleIsClosed",
      "outputs": [
        {
          "name": "",
          "type": "bool"
        }
      ],
      "payable": false,
      "stateMutability": "nonpayable",
      "type": "function",
      "signature": "0xc39fa861"
    },
    {
      "constant": true,
      "inputs": [],
      "name": "getResonanceClosedStep",
      "outputs": [
        {
          "name": "",
          "type": "uint256"
        }
      ],
      "payable": false,
      "stateMutability": "view",
      "type": "function",
      "signature": "0x50b9d89d"
    },
    {
      "constant": true,
      "inputs": [],
      "name": "getResonanceIsClosed",
      "outputs": [
        {
          "name": "",
          "type": "bool"
        }
      ],
      "payable": false,
      "stateMutability": "view",
      "type": "function",
      "signature": "0xd6d11b82"
    },
    {
      "constant": false,
      "inputs": [
        {
          "name": "_stepIndex",
          "type": "uint256"
        },
        {
          "name": "_fissionWinnerList",
          "type": "address[]"
        },
        {
          "name": "totalFissionReward",
          "type": "uint256"
        }
      ],
      "name": "settlementFissionReward",
      "outputs": [],
      "payable": false,
      "stateMutability": "nonpayable",
      "type": "function",
      "signature": "0xdeb72f1f"
    },
    {
      "constant": false,
      "inputs": [
        {
          "name": "_stepIndex",
          "type": "uint256"
        },
        {
          "name": "_funders",
          "type": "address[]"
        },
        {
          "name": "totalFOMOReward",
          "type": "uint256"
        }
      ],
      "name": "settlementFOMOReward",
      "outputs": [],
      "payable": false,
      "stateMutability": "nonpayable",
      "type": "function",
      "signature": "0x84976e74"
    },
    {
      "constant": false,
      "inputs": [
        {
          "name": "_stepIndex",
          "type": "uint256"
        },
        {
          "name": "_LuckyWinnerList",
          "type": "address[]"
        },
        {
          "name": "totalLuckyReward",
          "type": "uint256"
        }
      ],
      "name": "settlementLuckyReward",
      "outputs": [],
      "payable": false,
      "stateMutability": "nonpayable",
      "type": "function",
      "signature": "0xfd38f45b"
    },
    {
      "constant": false,
      "inputs": [
        {
          "name": "_faithWinners",
          "type": "address[]"
        },
        {
          "name": "totalFaithReward",
          "type": "uint256"
        }
      ],
      "name": "dmSettlementFaithReward",
      "outputs": [
        {
          "name": "",
          "type": "bool"
        }
      ],
      "payable": false,
      "stateMutability": "nonpayable",
      "type": "function",
      "signature": "0x95bbde88"
    },
    {
      "constant": true,
      "inputs": [
        {
          "name": "_addr",
          "type": "address"
        }
      ],
      "name": "withdrawTokenAmount",
      "outputs": [
        {
          "name": "",
          "type": "uint256"
        }
      ],
      "payable": false,
      "stateMutability": "view",
      "type": "function",
      "signature": "0x9d7e0c86"
    },
    {
      "constant": true,
      "inputs": [
        {
          "name": "_addr",
          "type": "address"
        }
      ],
      "name": "withdrawETHAmount",
      "outputs": [
        {
          "name": "",
          "type": "uint256"
        }
      ],
      "payable": false,
      "stateMutability": "view",
      "type": "function",
      "signature": "0x9263434e"
    },
    {
      "constant": false,
      "inputs": [],
      "name": "emptyTokenBalance",
      "outputs": [],
      "payable": false,
      "stateMutability": "nonpayable",
      "type": "function",
      "signature": "0x0c5d0c56"
    },
    {
      "constant": false,
      "inputs": [],
      "name": "emptyETHBalance",
      "outputs": [],
      "payable": false,
      "stateMutability": "nonpayable",
      "type": "function",
      "signature": "0x50300120"
    },
    {
      "constant": true,
      "inputs": [
        {
          "name": "_stepIndex",
          "type": "uint256"
        }
      ],
      "name": "getFissionRewardInfo",
      "outputs": [
        {
          "name": "",
          "type": "uint256"
        },
        {
          "name": "",
          "type": "address[]"
        },
        {
          "name": "",
          "type": "uint256[]"
        }
      ],
      "payable": false,
      "stateMutability": "view",
      "type": "function",
      "signature": "0x8a18854b"
    },
    {
      "constant": true,
      "inputs": [
        {
          "name": "_stepIndex",
          "type": "uint256"
        }
      ],
      "name": "getFOMORewardIofo",
      "outputs": [
        {
          "name": "",
          "type": "uint256"
        },
        {
          "name": "",
          "type": "address[]"
        },
        {
          "name": "",
          "type": "uint256[]"
        }
      ],
      "payable": false,
      "stateMutability": "view",
      "type": "function",
      "signature": "0x1e7efbc9"
    },
    {
      "constant": true,
      "inputs": [
        {
          "name": "_stepIndex",
          "type": "uint256"
        }
      ],
      "name": "getLuckyRewardInfo",
      "outputs": [
        {
          "name": "",
          "type": "uint256"
        },
        {
          "name": "",
          "type": "address[]"
        },
        {
          "name": "",
          "type": "uint256"
        }
      ],
      "payable": false,
      "stateMutability": "view",
      "type": "function",
      "signature": "0x3723e1c2"
    },
    {
      "constant": true,
      "inputs": [],
      "name": "getFaithRewardInfo",
      "outputs": [
        {
          "name": "",
          "type": "uint256"
        },
        {
          "name": "",
          "type": "address[]"
        },
        {
          "name": "",
          "type": "uint256[]"
        }
      ],
      "payable": false,
      "stateMutability": "view",
      "type": "function",
      "signature": "0x0c214602"
    },
    {
      "constant": true,
      "inputs": [],
      "name": "getBuildingPercentOfParty",
      "outputs": [
        {
          "name": "",
          "type": "uint256"
        }
      ],
      "payable": false,
      "stateMutability": "view",
      "type": "function",
      "signature": "0x9b2dc769"
    },
    {
      "constant": false,
      "inputs": [
        {
          "name": "_stepIndex",
          "type": "uint256"
        }
      ],
      "name": "updateBuildingPercent",
      "outputs": [
        {
          "name": "",
          "type": "bool"
        }
      ],
      "payable": false,
      "stateMutability": "nonpayable",
      "type": "function",
      "signature": "0x0d9907d9"
    },
    {
      "constant": true,
      "inputs": [],
      "name": "getBuildingTokenFromParty",
      "outputs": [
        {
          "name": "",
          "type": "uint256"
        }
      ],
      "payable": false,
      "stateMutability": "view",
      "type": "function",
      "signature": "0xd998d628"
    }
  ],
  "bytecode": "0x60806040526007805460ff191690556032600a819055600c5534801561002457600080fd5b506040516080806120028339810180604052608081101561004457600080fd5b508051602080830151604080850151606090950151336000908152938490529220805460ff191660019081179091558054600160a060020a03948516600160a060020a03199182161790915560028054928516928216929092179091556003805494841694821694909417909355600480549290911691909216179055611f32806100d06000396000f3fe608060405234801561001057600080fd5b50600436106102155760003560e060020a9004806384976e7411610129578063bc8a5bb2116100b1578063d746357311610080578063d7463573146106d1578063d998d628146106d9578063da03095c146106e1578063deb72f1f14610700578063fd38f45b146107ac57610215565b8063bc8a5bb214610665578063c39fa86114610682578063c4a85bc1146106ab578063d6d11b821461048e57610215565b806395bbde88116100f857806395bbde881461056f5780639b2dc769146106145780639b32a7781461061c5780639d7e0c86146103e0578063abdd11a81461064857610215565b806384976e741461049e5780638a18854b1461054a5780638d8276be146105675780639263434e1461040657610215565b80633723e1c2116101ac578063503001201161017b578063503001201461045857806350b9d89d1461046057806361afd5ac14610468578063743acbab1461048e57806374ebae061461049657610215565b80633723e1c2146103615780633aecd0e3146103e05780633bb66a7b146104065780634ceb1f131461042c57610215565b80631e7efbc9116101e85780631e7efbc91461030557806325d8e97f146103225780632734189a1461032a57806330f42bf61461034457610215565b80630c2146021461021a5780630c5d0c56146102c25780630d9907d9146102cc5780631c5ce157146102fd575b600080fd5b610222610858565b604051808481526020018060200180602001838103835285818151815260200191508051906020019060200280838360005b8381101561026c578181015183820152602001610254565b50505050905001838103825284818151815260200191508051906020019060200280838360005b838110156102ab578181015183820152602001610293565b505050509050019550505050505060405180910390f35b6102ca610999565b005b6102e9600480360360208110156102e257600080fd5b50356109ab565b604080519115158252519081900360200190f35b6102ca610ad2565b6102226004803603602081101561031b57600080fd5b5035610c4c565b6102e9610da4565b610332610dd1565b60408051918252519081900360200190f35b6102ca6004803603602081101561035a57600080fd5b5035610dd7565b61037e6004803603602081101561037757600080fd5b5035610e33565b6040518084815260200180602001838152602001828103825284818151815260200191508051906020019060200280838360005b838110156103ca5781810151838201526020016103b2565b5050505090500194505050505060405180910390f35b610332600480360360208110156103f657600080fd5b5035600160a060020a0316610f46565b6103326004803603602081101561041c57600080fd5b5035600160a060020a0316610f61565b6102ca6004803603604081101561044257600080fd5b50600160a060020a038135169060200135610f7c565b6102ca610fef565b610332611001565b6102ca6004803603602081101561047e57600080fd5b5035600160a060020a0316611007565b6102e961107f565b6102e9611088565b6102ca600480360360608110156104b457600080fd5b813591908101906040810160208201356401000000008111156104d657600080fd5b8201836020820111156104e857600080fd5b8035906020019184602083028401116401000000008311171561050a57600080fd5b91908080602002602001604051908101604052809392919081815260200183836020028082843760009201919091525092955050913592506110b2915050565b6102226004803603602081101561056057600080fd5b503561134f565b6103326113bb565b6102e96004803603604081101561058557600080fd5b8101906020810181356401000000008111156105a057600080fd5b8201836020820111156105b257600080fd5b803590602001918460208302840111640100000000831117156105d457600080fd5b91908080602002602001604051908101604052809392919081815260200183836020028082843760009201919091525092955050913592506113c1915050565b6103326115ef565b6102ca6004803603604081101561063257600080fd5b50600160a060020a0381351690602001356115f5565b6102ca6004803603602081101561065e57600080fd5b5035611668565b6102ca6004803603602081101561067b57600080fd5b50356116c4565b6102e96004803603606081101561069857600080fd5b5080359060208101359060400135611720565b6102ca600480360360208110156106c157600080fd5b5035600160a060020a03166118c8565b610332611943565b610332611949565b6102ca600480360360208110156106f757600080fd5b5035151561194f565b6102ca6004803603606081101561071657600080fd5b8135919081019060408101602082013564010000000081111561073857600080fd5b82018360208201111561074a57600080fd5b8035906020019184602083028401116401000000008311171561076c57600080fd5b91908080602002602001604051908101604052809392919081815260200183836020028082843760009201919091525092955050913592506119b9915050565b6102ca600480360360608110156107c257600080fd5b813591908101906040810160208201356401000000008111156107e457600080fd5b8201836020820111156107f657600080fd5b8035906020019184602083028401116401000000008311171561081857600080fd5b9190808060200260200160405190810160405280939291908181526020018383602002808284376000920191909152509295505091359250611be2915050565b6000606080600460009054906101000a9004600160a060020a0316600160a060020a031663c62461cc6040518163ffffffff1660e060020a02815260040160006040518083038186803b1580156108ae57600080fd5b505afa1580156108c2573d6000803e3d6000fd5b505050506040513d6000823e601f3d908101601f1916820160405260608110156108eb57600080fd5b81516020830180519193928301929164010000000081111561090c57600080fd5b8201602081018481111561091f57600080fd5b815185602082028301116401000000008211171561093c57600080fd5b5050929190602001805164010000000081111561095857600080fd5b8201602081018481111561096b57600080fd5b815185602082028301116401000000008211171561098857600080fd5b509599949850965092945050505050565b326000908152600e6020526040812055565b3360009081526020819052604081205460ff161515610a02576040805160e560020a62461bcd02815260206004820152601b6024820152600080516020611ee7833981519152604482015290519081900360640190fd5b600554600010610a465760405160e560020a62461bcd028152600401808060200182810382526021815260200180611ea26021913960400191505060405180910390fd5b6042600a541015610a6557600a80546001019055600c80546000190190555b6001821015610aa85760405160e560020a62461bcd028152600401808060200182810382526024815260200180611ec36024913960400191505060405180910390fd5b8160640a600954606302811515610abb57fe5b046009819055610aca90611e05565b506001919050565b3360009081526020819052604090205460ff161515610b29576040805160e560020a62461bcd02815260206004820152601b6024820152600080516020611ee7833981519152604482015290519081900360640190fd5b73__UintUtils_____________________________63669dafe86308f0d1806040518263ffffffff1660e060020a0281526004018082815260200191505060206040518083038186803b158015610b7f57600080fd5b505af4158015610b93573d6000803e3d6000fd5b505050506040513d6020811015610ba957600080fd5b5051600555604080517f669dafe80000000000000000000000000000000000000000000000000000000081526216e3606004820152905173__UintUtils_____________________________9163669dafe8916024808301926020929190829003018186803b158015610c1b57600080fd5b505af4158015610c2f573d6000803e3d6000fd5b505050506040513d6020811015610c4557600080fd5b5051600955565b600254604080517f2889cc070000000000000000000000000000000000000000000000000000000081526004810184905290516000926060928392600160a060020a0390921691632889cc07916024808201928892909190829003018186803b158015610cb857600080fd5b505afa158015610ccc573d6000803e3d6000fd5b505050506040513d6000823e601f3d908101601f191682016040526060811015610cf557600080fd5b815160208301805191939283019291640100000000811115610d1657600080fd5b82016020810184811115610d2957600080fd5b8151856020820283011164010000000082111715610d4657600080fd5b50509291906020018051640100000000811115610d6257600080fd5b82016020810184811115610d7557600080fd5b8151856020820283011164010000000082111715610d9257600080fd5b50959a94995097509295505050505050565b60006006544210158015610dbd57506006546170800142105b15610dca57506001610dce565b5060005b90565b60055490565b3360009081526020819052604090205460ff161515610e2e576040805160e560020a62461bcd02815260206004820152601b6024820152600080516020611ee7833981519152604482015290519081900360640190fd5b600555565b600354604080517f493274410000000000000000000000000000000000000000000000000000000081526004810184905290516000926060928492600160a060020a03909216916349327441916024808201928692909190829003018186803b158015610e9f57600080fd5b505afa158015610eb3573d6000803e3d6000fd5b505050506040513d6000823e601f3d908101601f191682016040526060811015610edc57600080fd5b815160208301805191939283019291640100000000811115610efd57600080fd5b82016020810184811115610f1057600080fd5b8151856020820283011164010000000082111715610f2d57600080fd5b5050602090910151939650945091925050509193909250565b600160a060020a03166000908152600e602052604090205490565b600160a060020a03166000908152600d602052604090205490565b3360009081526020819052604090205460ff161515610fd3576040805160e560020a62461bcd02815260206004820152601b6024820152600080516020611ee7833981519152604482015290519081900360640190fd5b600160a060020a039091166000908152600e6020526040902055565b326000908152600d6020526040812055565b60085490565b3360009081526020819052604090205460ff16151561105e576040805160e560020a62461bcd02815260206004820152601b6024820152600080516020611ee7833981519152604482015290519081900360640190fd5b600160a060020a03166000908152602081905260409020805460ff19169055565b60075460ff1690565b6000600654617080014210158015610dbd57506006546201518001421015610dca57506001610dce565b3360009081526020819052604090205460ff161515611109576040805160e560020a62461bcd02815260206004820152601b6024820152600080516020611ee7833981519152604482015290519081900360640190fd5b6002546040517fc21a774300000000000000000000000000000000000000000000000000000000815260048101858152604482018490526060602483018181528651606485015286519194600160a060020a03169363c21a77439389938993899390916084909101906020808701910280838360005b8381101561119757818101518382015260200161117f565b50505050905001945050505050600060405180830381600087803b1580156111be57600080fd5b505af11580156111d2573d6000803e3d6000fd5b505050506040513d6000823e601f3d908101601f1916820160405260208110156111fb57600080fd5b81019080805164010000000081111561121357600080fd5b8201602081018481111561122657600080fd5b815185602082028301116401000000008211171561124357600080fd5b50909450600093505050505b8151811015611348576002548251600160a060020a039091169063509b49e990879085908590811061127d57fe5b906020019060200201516040518363ffffffff1660e060020a0281526004018083815260200182600160a060020a0316600160a060020a031681526020019250505060206040518083038186803b1580156112d757600080fd5b505afa1580156112eb573d6000803e3d6000fd5b505050506040513d602081101561130157600080fd5b50518251600d9060009085908590811061131757fe5b6020908102909101810151600160a060020a031682528101919091526040016000208054909101905560010161124f565b5050505050565b600154604080517fc79b12450000000000000000000000000000000000000000000000000000000081526004810184905290516000926060928392600160a060020a039092169163c79b1245916024808201928892909190829003018186803b158015610cb857600080fd5b60095490565b3360009081526020819052604081205460ff161515611418576040805160e560020a62461bcd02815260206004820152601b6024820152600080516020611ee7833981519152604482015290519081900360640190fd5b60048054604080517f1e238d1000000000000000000000000000000000000000000000000000000000815260248101869052928301908152855160448401528551600093600160a060020a0390931692631e238d1092889288928291606490910190602080870191028083838c5b8381101561149e578181015183820152602001611486565b505050509050019350505050602060405180830381600087803b1580156114c457600080fd5b505af11580156114d8573d6000803e3d6000fd5b505050506040513d60208110156114ee57600080fd5b5051905060005b84518110156115e5576004548551600160a060020a0390911690634a6817879087908490811061152157fe5b906020019060200201516040518263ffffffff1660e060020a0281526004018082600160a060020a0316600160a060020a0316815260200191505060206040518083038186803b15801561157457600080fd5b505afa158015611588573d6000803e3d6000fd5b505050506040513d602081101561159e57600080fd5b50518551600d906000908890859081106115b457fe5b6020908102909101810151600160a060020a03168252810191909152604001600020805490910190556001016114f5565b5090505b92915050565b600a5490565b3360009081526020819052604090205460ff16151561164c576040805160e560020a62461bcd02815260206004820152601b6024820152600080516020611ee7833981519152604482015290519081900360640190fd5b600160a060020a039091166000908152600d6020526040902055565b3360009081526020819052604090205460ff1615156116bf576040805160e560020a62461bcd02815260206004820152601b6024820152600080516020611ee7833981519152604482015290519081900360640190fd5b600655565b3360009081526020819052604090205460ff16151561171b576040805160e560020a62461bcd02815260206004820152601b6024820152600080516020611ee7833981519152604482015290519081900360640190fd5b600955565b3360009081526020819052604081205460ff161515611777576040805160e560020a62461bcd02815260206004820152601b6024820152600080516020611ee7833981519152604482015290519081900360640190fd5b73__UintUtils_____________________________63669dafe8846040518263ffffffff1660e060020a0281526004018082815260200191505060206040518083038186803b1580156117c957600080fd5b505af41580156117dd573d6000803e3d6000fd5b505050506040513d60208110156117f357600080fd5b5051604080517f669dafe800000000000000000000000000000000000000000000000000000000815260048101879052905173__UintUtils_____________________________9163669dafe8916024808301926020929190829003018186803b15801561186057600080fd5b505af4158015611874573d6000803e3d6000fd5b505050506040513d602081101561188a57600080fd5b505110156118a55760088290556007805460ff191660011790555b60055415156118c15760088290556007805460ff191660011790555b9392505050565b3360009081526020819052604090205460ff16151561191f576040805160e560020a62461bcd02815260206004820152601b6024820152600080516020611ee7833981519152604482015290519081900360640190fd5b600160a060020a03166000908152602081905260409020805460ff19166001179055565b60065490565b600b5490565b3360009081526020819052604090205460ff1615156119a6576040805160e560020a62461bcd02815260206004820152601b6024820152600080516020611ee7833981519152604482015290519081900360640190fd5b6007805460ff1916911515919091179055565b3360009081526020819052604090205460ff161515611a10576040805160e560020a62461bcd02815260206004820152601b6024820152600080516020611ee7833981519152604482015290519081900360640190fd5b6001546040517fa5fa79760000000000000000000000000000000000000000000000000000000081526004810185815260448201849052606060248301908152855160648401528551600160a060020a039094169363a5fa797693889388938893919290916084909101906020808701910280838360005b83811015611aa0578181015183820152602001611a88565b50505050905001945050505050600060405180830381600087803b158015611ac757600080fd5b505af1158015611adb573d6000803e3d6000fd5b506000925050505b8251811015611bdc576001548351600160a060020a03909116906365922b74908690869085908110611b1157fe5b906020019060200201516040518363ffffffff1660e060020a0281526004018083815260200182600160a060020a0316600160a060020a031681526020019250505060206040518083038186803b158015611b6b57600080fd5b505afa158015611b7f573d6000803e3d6000fd5b505050506040513d6020811015611b9557600080fd5b50518351600d90600090869085908110611bab57fe5b6020908102909101810151600160a060020a0316825281019190915260400160002080549091019055600101611ae3565b50505050565b3360009081526020819052604090205460ff161515611c39576040805160e560020a62461bcd02815260206004820152601b6024820152600080516020611ee7833981519152604482015290519081900360640190fd5b6003546040517fac197f920000000000000000000000000000000000000000000000000000000081526004810185815260448201849052606060248301908152855160648401528551600160a060020a039094169363ac197f9293889388938893919290916084909101906020808701910280838360005b83811015611cc9578181015183820152602001611cb1565b50505050905001945050505050600060405180830381600087803b158015611cf057600080fd5b505af1158015611d04573d6000803e3d6000fd5b506000925050505b8251811015611bdc576003548351600160a060020a039091169063dd572ab9908690869085908110611d3a57fe5b906020019060200201516040518363ffffffff1660e060020a0281526004018083815260200182600160a060020a0316600160a060020a031681526020019250505060206040518083038186803b158015611d9457600080fd5b505afa158015611da8573d6000803e3d6000fd5b505050506040513d6020811015611dbe57600080fd5b50518351600d90600090869085908110611dd457fe5b6020908102909101810151600160a060020a0316825281019190915260400160002080549091019055600101611d0c565b3360009081526020819052604090205460ff161515611e5c576040805160e560020a62461bcd02815260206004820152601b6024820152600080516020611ee7833981519152604482015290519081900360640190fd5b600954611e7090829063ffffffff611e7616565b600b5550565b6000821515611e87575060006115e9565b828202828482811515611e9657fe5b04146118c157600080fdfee585b1e5bbbae8b584e98791e6b1a0e5b7b2e7bb8fe6b688e88097e5ae8ce6af95e7acace4b880e8bdaee695b0e580bce5b7b2e7bb8fe5889de5a78be58c96e8bf87e4ba86e8b083e794a8e88085e6b2a1e69c89e8b083e794a8e69d83e999900000000000a165627a7a723058207fcea98d60e653609d8827081d5ad6502f0e607c8535bcd9aee19ebbd8f40e080029",
  "source": "pragma solidity >=0.4.21 <0.6.0;\n\nimport \"../node_modules/openzeppelin-solidity/contracts/math/SafeMath.sol\";\nimport \"./UintUtils.sol\";\nimport \"./FissionReward.sol\";\nimport \"./FOMOReward.sol\";\nimport \"./LuckyReward.sol\";\nimport \"./FaithReward.sol\";\nimport \"./ABCToken.sol\";\n\n/// @title \n/// @dev \ncontract ResonanceDataManage{\n\n    using SafeMath for uint256;\n\n    event WhihdrawAllToken();\n\n    mapping(address => bool) accessAllowed;\n\n    modifier platform() {\n        require(accessAllowed[msg.sender], \"\");\n        _;\n    }\n\n    FissionReward fissionRewardInstance;\n    FOMOReward FOMORewardInstance;\n    LuckyReward luckyRewardInstance;\n    FaithReward faithRewardInstance;\n\n    // \n    uint256 private fundsPool;\n    // \n    uint256 private openingTime;\n    // \n    bool crowdsaleClosed = false;\n    // \n    // uint256 currentStep;\n\n    // Step\n    uint256 resonanceClosedStep;\n\n    // Token\n    uint256 initBuildingTokenAmount;\n\n    // Token\n    uint256 buildingPercentOfParty = 50;\n\n    // Token\n    uint256 buildingTokenFromParty;\n\n    // Token\n    uint256 buildingPercentOfCommunity = 50;\n\n    // \n    mapping(address => uint256) private ETHBalance;\n    mapping(address => uint256) private tokenBalance;\n\n    constructor(\n        address _fassionRewardAddress,\n        address _FOMORewardAddress,\n        address _luckyRewardAddress,\n        address _faithRewardAddress\n    ) public {\n        accessAllowed[msg.sender] = true;\n        // \n        fissionRewardInstance = FissionReward(_fassionRewardAddress);\n        FOMORewardInstance = FOMOReward(_FOMORewardAddress);\n        luckyRewardInstance = LuckyReward(_luckyRewardAddress);\n        faithRewardInstance = FaithReward(_faithRewardAddress);\n    }\n\n    // \n    function setParamForFirstStep() public platform{\n        fundsPool = UintUtils.toWei(150000000);\n        initBuildingTokenAmount = UintUtils.toWei(1500000);\n    }\n\n    function allowAccess(address _addr) public platform() {\n        accessAllowed[_addr] = true;\n    }\n\n    function denyAccess(address _addr) public platform() {\n        accessAllowed[_addr] = false;\n    }\n\n    function setFundsPool(uint256 _fundsPool) public platform() {\n        fundsPool = _fundsPool;\n    }\n\n    function getFundsPool() public view returns(uint256) {\n        return fundsPool;\n    }\n\n    function setOpeningTime(uint256 _openingTime) public platform() {\n        openingTime = _openingTime;\n    }\n\n    /// @notice \n    function getOpeningTime() public view returns(uint256){\n        return openingTime;\n    }\n\n    function setCrowdsaleClosed(bool _crowdsaleClosed) public platform() {\n        crowdsaleClosed = _crowdsaleClosed;\n    }\n\n    function getCrowdsaleClosed() public view returns(bool) {\n        return crowdsaleClosed;\n    }\n\n    function getETHBalance(address _addr) public view returns(uint256) {\n        return ETHBalance[_addr];\n    }\n\n    function setETHBalance(address _addr, uint256 _amount) public platform() {\n        ETHBalance[_addr] = _amount;\n    }\n\n    function getTokenBalance(address _addr) public view returns(uint256) {\n        return tokenBalance[_addr];\n    }\n\n    function setTokenBalance(address _addr, uint256 _amount) public platform() {\n        tokenBalance[_addr] = _amount;\n    }\n\n    function getBuildingTokenAmount() public view returns(uint256) {\n        return initBuildingTokenAmount;\n    }\n\n    function setBuildingTokenAmount(uint256 _tokenAmount) public platform() {\n        initBuildingTokenAmount = _tokenAmount;\n    }\n\n    // \n    function isBuildingPeriod() public view returns(bool){\n        if(block.timestamp >= openingTime && block.timestamp < openingTime + 8 hours) {\n            return true;\n        }else{\n            return false;\n        }\n    }\n\n    // \n    function isFundingPeriod() public view returns(bool) {\n        if(block.timestamp >= openingTime + 8 hours && block.timestamp < openingTime + 24 hours) {\n            return true;\n        }else{\n            return false;\n        }\n    }\n\n    /// @notice \n    /// @dev \n    /// @param raisedETH ETH\n    /// @param softCap \n    function crowdsaleIsClosed(\n        uint256 raisedETH,\n        uint256 softCap,\n        uint256 stepIndex\n    )\n        public\n        platform()\n        returns(bool)\n    {\n        // 1.\n        if(UintUtils.toWei(raisedETH) < UintUtils.toWei(softCap)) {\n            resonanceClosedStep = stepIndex;\n            crowdsaleClosed = true;\n        }\n\n        // 2.\n        if(fundsPool == 0) {\n            resonanceClosedStep = stepIndex;\n            crowdsaleClosed = true;\n        }\n    }\n\n    /// @notice Index\n    function getResonanceClosedStep() public view returns(uint256){\n        return resonanceClosedStep;\n    }\n\n    /// @notice \n    /// @dev viewcrowdsaleClosed\n    function getResonanceIsClosed() public view returns(bool) {\n        return crowdsaleClosed;\n    }\n\n    /// @notice \n    function settlementFissionReward(uint256 _stepIndex, address[] memory _fissionWinnerList, uint256 totalFissionReward)\n        public\n        platform()\n    {\n        fissionRewardInstance.dealFissionInfo(_stepIndex, _fissionWinnerList, totalFissionReward);\n        // \n        for(uint i = 0; i < _fissionWinnerList.length; i++){\n            ETHBalance[_fissionWinnerList[i]] += fissionRewardInstance.fissionRewardAmount(_stepIndex,_fissionWinnerList[i]);\n        }\n    }\n\n    function settlementFOMOReward(uint256 _stepIndex, address[] memory _funders, uint256 totalFOMOReward)\n        public\n        platform()\n    {\n        address[] memory FOMOWinnerList = FOMORewardInstance.dealFOMOWinner(_stepIndex, _funders, totalFOMOReward);\n\n        for(uint i = 0; i < FOMOWinnerList.length; i++){\n            ETHBalance[FOMOWinnerList[i]] += FOMORewardInstance.FOMORewardAmount(_stepIndex,FOMOWinnerList[i]);\n        }\n    }\n\n    function settlementLuckyReward(uint256 _stepIndex, address[] memory _LuckyWinnerList, uint256 totalLuckyReward)\n        public\n        platform()\n    {\n        luckyRewardInstance.dealLuckyInfo(_stepIndex, _LuckyWinnerList, totalLuckyReward);\n        for(uint i = 0; i < _LuckyWinnerList.length; i++){\n            ETHBalance[_LuckyWinnerList[i]] += luckyRewardInstance.luckyRewardAmount(_stepIndex,_LuckyWinnerList[i]);\n        }\n    }\n\n    function dmSettlementFaithReward(address[] memory _faithWinners, uint256 totalFaithReward)\n        public\n        platform()\n        returns(bool)\n    {\n        bool faithRewardFinished = faithRewardInstance.dealFaithWinner(_faithWinners, totalFaithReward);\n\n        for(uint i = 0; i < _faithWinners.length; i++){\n            ETHBalance[_faithWinners[i]] += faithRewardInstance.faithRewardAmount(_faithWinners[i]);\n        }\n        return faithRewardFinished;\n    }\n\n    /// @notice Token\n    function withdrawTokenAmount(address _addr) public view returns (uint256) {\n        return tokenBalance[_addr];\n    }\n\n    /// @notice ETH\n    function withdrawETHAmount(address _addr) public view returns (uint256) {\n        return ETHBalance[_addr];\n    }\n\n    function emptyTokenBalance() public {\n        tokenBalance[tx.origin] = 0;\n    }\n\n    function emptyETHBalance() public {\n        ETHBalance[tx.origin] = 0;\n    }\n\n    /// @notice \n    /// @dev \n    /// @param _stepIndex \n    function getFissionRewardInfo(uint256 _stepIndex)\n        public\n        view\n        returns(uint256, address[] memory, uint256[] memory)\n    {\n        return fissionRewardInstance.getFissionInfo(_stepIndex);\n    }\n\n    /// @notice FOMO\n    /// @dev FOMO\n    /// @param _stepIndex \n    function getFOMORewardIofo(uint256 _stepIndex)\n        public\n        view\n        returns(uint256, address[] memory, uint256[] memory)\n    {\n        return FOMORewardInstance.getFOMOWinnerInfo(_stepIndex);\n    }\n\n    /// @notice \n    /// @dev \n    /// @param _stepIndex \n    function getLuckyRewardInfo(uint256 _stepIndex)\n        public\n        view\n        returns(uint256, address[] memory, uint256)\n    {\n        return luckyRewardInstance.getLuckyInfo(_stepIndex);\n    }\n\n    /// @notice \n    /// @dev \n    function getFaithRewardInfo()\n        public\n        view\n        returns(uint256, address[] memory, uint256[] memory)\n    {\n        return faithRewardInstance.getFaithWinnerInfo();\n    }\n\n    /// @notice \n    function getBuildingPercentOfParty() public view returns(uint256) {\n        return buildingPercentOfParty;\n    }\n\n    /// @notice \n    function updateBuildingPercent(uint256 _stepIndex) public platform() returns (bool) {\n        require(fundsPool > 0, \"\");\n        // +1%-1%\n        if(buildingPercentOfParty < 66){\n            buildingPercentOfParty += 1;\n            buildingPercentOfCommunity -= 1;\n        }\n        require(_stepIndex >= 1, \"\");\n        initBuildingTokenAmount = initBuildingTokenAmount * 99 / 100 ** _stepIndex;\n        setBuildingTokenFromParty(initBuildingTokenAmount);\n        return true;\n    }\n\n    /// @notice Token\n    function setBuildingTokenFromParty(uint256 _buildingPercentOfParty) internal platform() {\n        buildingTokenFromParty = _buildingPercentOfParty.mul(initBuildingTokenAmount);\n    }\n\n    /// @notice Token\n    function getBuildingTokenFromParty() public view returns(uint256) {\n        return buildingTokenFromParty;\n    }\n\n}",
  "sourcePath": "/Users/a186r/dev/sourcecode/contract/contract/contracts/ResonanceDataManage.sol",
  "compiler": {
    "name": "solc",
    "version": "0.5.2+commit.1df8f40c.Emscripten.clang"
  },
  "schemaVersion": "3.0.6",
  "updatedAt": "2019-05-29T04:30:33.900Z",
  "devdoc": {
    "details": "",
    "methods": {
      "crowdsaleIsClosed(uint256,uint256,uint256)": {
        "details": "",
        "params": {
          "raisedETH": "ETH",
          "softCap": ""
        }
      },
      "getFOMORewardIofo(uint256)": {
        "details": "FOMO",
        "params": {
          "_stepIndex": ""
        }
      },
      "getFaithRewardInfo()": {
        "details": ""
      },
      "getFissionRewardInfo(uint256)": {
        "details": "",
        "params": {
          "_stepIndex": ""
        }
      },
      "getLuckyRewardInfo(uint256)": {
        "details": "",
        "params": {
          "_stepIndex": ""
        }
      },
      "getResonanceIsClosed()": {
        "details": "viewcrowdsaleClosed"
      }
    },
    "title": ""
  },
  "userdoc": {
    "methods": {
      "crowdsaleIsClosed(uint256,uint256,uint256)": {
        "notice": ""
      },
      "getBuildingPercentOfParty()": {
        "notice": ""
      },
      "getBuildingTokenFromParty()": {
        "notice": "Token"
      },
      "getFOMORewardIofo(uint256)": {
        "notice": "FOMO"
      },
      "getFaithRewardInfo()": {
        "notice": ""
      },
      "getFissionRewardInfo(uint256)": {
        "notice": ""
      },
      "getLuckyRewardInfo(uint256)": {
        "notice": ""
      },
      "getOpeningTime()": {
        "notice": ""
      },
      "getResonanceClosedStep()": {
        "notice": "Index"
      },
      "getResonanceIsClosed()": {
        "notice": ""
      },
      "settlementFissionReward(uint256,address[],uint256)": {
        "notice": ""
      },
      "updateBuildingPercent(uint256)": {
        "notice": ""
      },
      "withdrawETHAmount(address)": {
        "notice": "ETH"
      },
      "withdrawTokenAmount(address)": {
        "notice": "Token"
      }
    }
  }
}