{
  "contractName": "ResonanceDataManage",
  "abi": [
    {
      "constant": true,
      "inputs": [
        {
          "name": "",
          "type": "address"
        }
      ],
      "name": "accessAllowed",
      "outputs": [
        {
          "name": "",
          "type": "bool"
        }
      ],
      "payable": false,
      "stateMutability": "view",
      "type": "function",
      "signature": "0x72501976"
    },
    {
      "constant": true,
      "inputs": [],
      "name": "fundsPool",
      "outputs": [
        {
          "name": "",
          "type": "uint256"
        }
      ],
      "payable": false,
      "stateMutability": "view",
      "type": "function",
      "signature": "0x8a90d601"
    },
    {
      "constant": true,
      "inputs": [],
      "name": "openingTime",
      "outputs": [
        {
          "name": "",
          "type": "uint256"
        }
      ],
      "payable": false,
      "stateMutability": "view",
      "type": "function",
      "signature": "0xb7a8807c"
    },
    {
      "inputs": [
        {
          "name": "_fassionRewardAddress",
          "type": "address"
        },
        {
          "name": "_FOMORewardAddress",
          "type": "address"
        },
        {
          "name": "_luckyRewardAddress",
          "type": "address"
        },
        {
          "name": "_faithRewardAddress",
          "type": "address"
        }
      ],
      "payable": false,
      "stateMutability": "nonpayable",
      "type": "constructor",
      "signature": "constructor"
    },
    {
      "anonymous": false,
      "inputs": [
        {
          "indexed": true,
          "name": "",
          "type": "address"
        }
      ],
      "name": "AllowAccess",
      "type": "event",
      "signature": "0x50705fc62df5c1f17968f86d0ba9429e940dcd5d3f8104318a863bd21828e5bd"
    },
    {
      "constant": false,
      "inputs": [],
      "name": "setParamForFirstStep",
      "outputs": [],
      "payable": false,
      "stateMutability": "nonpayable",
      "type": "function",
      "signature": "0x1c5ce157"
    },
    {
      "constant": false,
      "inputs": [
        {
          "name": "_addr",
          "type": "address"
        }
      ],
      "name": "allowAccess",
      "outputs": [],
      "payable": false,
      "stateMutability": "nonpayable",
      "type": "function",
      "signature": "0xc4a85bc1"
    },
    {
      "constant": false,
      "inputs": [
        {
          "name": "_addr",
          "type": "address"
        }
      ],
      "name": "denyAccess",
      "outputs": [],
      "payable": false,
      "stateMutability": "nonpayable",
      "type": "function",
      "signature": "0x61afd5ac"
    },
    {
      "constant": false,
      "inputs": [
        {
          "name": "_fundsPool",
          "type": "uint256"
        }
      ],
      "name": "setFundsPool",
      "outputs": [],
      "payable": false,
      "stateMutability": "nonpayable",
      "type": "function",
      "signature": "0x30f42bf6"
    },
    {
      "constant": true,
      "inputs": [],
      "name": "getFundsPool",
      "outputs": [
        {
          "name": "",
          "type": "uint256"
        }
      ],
      "payable": false,
      "stateMutability": "view",
      "type": "function",
      "signature": "0x2734189a"
    },
    {
      "constant": false,
      "inputs": [
        {
          "name": "_openingTime",
          "type": "uint256"
        }
      ],
      "name": "setOpeningTime",
      "outputs": [],
      "payable": false,
      "stateMutability": "nonpayable",
      "type": "function",
      "signature": "0xabdd11a8"
    },
    {
      "constant": true,
      "inputs": [],
      "name": "getOpeningTime",
      "outputs": [
        {
          "name": "",
          "type": "uint256"
        }
      ],
      "payable": false,
      "stateMutability": "view",
      "type": "function",
      "signature": "0xd7463573"
    },
    {
      "constant": false,
      "inputs": [
        {
          "name": "_crowdsaleClosed",
          "type": "bool"
        }
      ],
      "name": "setCrowdsaleClosed",
      "outputs": [],
      "payable": false,
      "stateMutability": "nonpayable",
      "type": "function",
      "signature": "0xda03095c"
    },
    {
      "constant": true,
      "inputs": [],
      "name": "getCrowdsaleClosed",
      "outputs": [
        {
          "name": "",
          "type": "bool"
        }
      ],
      "payable": false,
      "stateMutability": "view",
      "type": "function",
      "signature": "0x743acbab"
    },
    {
      "constant": true,
      "inputs": [
        {
          "name": "_stepIndex",
          "type": "uint256"
        },
        {
          "name": "_addr",
          "type": "address"
        }
      ],
      "name": "getETHBalance",
      "outputs": [
        {
          "name": "",
          "type": "uint256"
        }
      ],
      "payable": false,
      "stateMutability": "view",
      "type": "function",
      "signature": "0x332df682"
    },
    {
      "constant": false,
      "inputs": [
        {
          "name": "_stepIndex",
          "type": "uint256"
        },
        {
          "name": "_addr",
          "type": "address"
        },
        {
          "name": "_amount",
          "type": "uint256"
        }
      ],
      "name": "setETHBalance",
      "outputs": [],
      "payable": false,
      "stateMutability": "nonpayable",
      "type": "function",
      "signature": "0x3c24fead"
    },
    {
      "constant": true,
      "inputs": [
        {
          "name": "_stepIndex",
          "type": "uint256"
        },
        {
          "name": "_addr",
          "type": "address"
        }
      ],
      "name": "getTokenBalance",
      "outputs": [
        {
          "name": "",
          "type": "uint256"
        }
      ],
      "payable": false,
      "stateMutability": "view",
      "type": "function",
      "signature": "0xef57e2d2"
    },
    {
      "constant": false,
      "inputs": [
        {
          "name": "_stepIndex",
          "type": "uint256"
        },
        {
          "name": "_addr",
          "type": "address"
        },
        {
          "name": "_amount",
          "type": "uint256"
        }
      ],
      "name": "setTokenBalance",
      "outputs": [],
      "payable": false,
      "stateMutability": "nonpayable",
      "type": "function",
      "signature": "0x1089e83b"
    },
    {
      "constant": true,
      "inputs": [],
      "name": "getBuildingTokenAmount",
      "outputs": [
        {
          "name": "",
          "type": "uint256"
        }
      ],
      "payable": false,
      "stateMutability": "view",
      "type": "function",
      "signature": "0x8d8276be"
    },
    {
      "constant": true,
      "inputs": [],
      "name": "isBuildingPeriod",
      "outputs": [
        {
          "name": "",
          "type": "bool"
        }
      ],
      "payable": false,
      "stateMutability": "view",
      "type": "function",
      "signature": "0x25d8e97f"
    },
    {
      "constant": true,
      "inputs": [],
      "name": "isFundingPeriod",
      "outputs": [
        {
          "name": "",
          "type": "bool"
        }
      ],
      "payable": false,
      "stateMutability": "view",
      "type": "function",
      "signature": "0x74ebae06"
    },
    {
      "constant": false,
      "inputs": [
        {
          "name": "stepIndex",
          "type": "uint256"
        },
        {
          "name": "raisedETH",
          "type": "uint256"
        },
        {
          "name": "softCap",
          "type": "uint256"
        }
      ],
      "name": "crowdsaleIsClosed",
      "outputs": [
        {
          "name": "",
          "type": "bool"
        }
      ],
      "payable": false,
      "stateMutability": "nonpayable",
      "type": "function",
      "signature": "0xc39fa861"
    },
    {
      "constant": true,
      "inputs": [],
      "name": "getResonanceClosedStep",
      "outputs": [
        {
          "name": "",
          "type": "uint256"
        }
      ],
      "payable": false,
      "stateMutability": "view",
      "type": "function",
      "signature": "0x50b9d89d"
    },
    {
      "constant": true,
      "inputs": [],
      "name": "getResonanceIsClosed",
      "outputs": [
        {
          "name": "",
          "type": "bool"
        }
      ],
      "payable": false,
      "stateMutability": "view",
      "type": "function",
      "signature": "0xd6d11b82"
    },
    {
      "constant": false,
      "inputs": [
        {
          "name": "_stepIndex",
          "type": "uint256"
        },
        {
          "name": "_fissionWinnerList",
          "type": "address[]"
        },
        {
          "name": "totalFissionReward",
          "type": "uint256"
        }
      ],
      "name": "settlementFissionReward",
      "outputs": [],
      "payable": false,
      "stateMutability": "nonpayable",
      "type": "function",
      "signature": "0xdeb72f1f"
    },
    {
      "constant": false,
      "inputs": [
        {
          "name": "_stepIndex",
          "type": "uint256"
        },
        {
          "name": "_funders",
          "type": "address[]"
        },
        {
          "name": "totalFOMOReward",
          "type": "uint256"
        }
      ],
      "name": "settlementFOMOReward",
      "outputs": [],
      "payable": false,
      "stateMutability": "nonpayable",
      "type": "function",
      "signature": "0x84976e74"
    },
    {
      "constant": false,
      "inputs": [
        {
          "name": "_stepIndex",
          "type": "uint256"
        },
        {
          "name": "_LuckyWinnerList",
          "type": "address[]"
        },
        {
          "name": "totalLuckyReward",
          "type": "uint256"
        }
      ],
      "name": "settlementLuckyReward",
      "outputs": [],
      "payable": false,
      "stateMutability": "nonpayable",
      "type": "function",
      "signature": "0xfd38f45b"
    },
    {
      "constant": false,
      "inputs": [
        {
          "name": "_faithWinners",
          "type": "address[]"
        },
        {
          "name": "totalFaithReward",
          "type": "uint256"
        }
      ],
      "name": "dmSettlementFaithReward",
      "outputs": [
        {
          "name": "",
          "type": "bool"
        }
      ],
      "payable": false,
      "stateMutability": "nonpayable",
      "type": "function",
      "signature": "0x95bbde88"
    },
    {
      "constant": true,
      "inputs": [
        {
          "name": "_addr",
          "type": "address"
        }
      ],
      "name": "getFaithRewardBalance",
      "outputs": [
        {
          "name": "",
          "type": "uint256"
        }
      ],
      "payable": false,
      "stateMutability": "view",
      "type": "function",
      "signature": "0x1020f72a"
    },
    {
      "constant": false,
      "inputs": [
        {
          "name": "_addr",
          "type": "address"
        },
        {
          "name": "_amount",
          "type": "uint256"
        }
      ],
      "name": "setFaithRewardBalance",
      "outputs": [
        {
          "name": "",
          "type": "uint256"
        }
      ],
      "payable": false,
      "stateMutability": "nonpayable",
      "type": "function",
      "signature": "0x1da6dcf1"
    },
    {
      "constant": true,
      "inputs": [
        {
          "name": "_stepIndex",
          "type": "uint256"
        },
        {
          "name": "_addr",
          "type": "address"
        }
      ],
      "name": "withdrawTokenAmount",
      "outputs": [
        {
          "name": "",
          "type": "uint256"
        }
      ],
      "payable": false,
      "stateMutability": "view",
      "type": "function",
      "signature": "0x2c7a8b73"
    },
    {
      "constant": true,
      "inputs": [
        {
          "name": "_stepIndex",
          "type": "uint256"
        },
        {
          "name": "_addr",
          "type": "address"
        }
      ],
      "name": "withdrawETHAmount",
      "outputs": [
        {
          "name": "",
          "type": "uint256"
        }
      ],
      "payable": false,
      "stateMutability": "view",
      "type": "function",
      "signature": "0xcf38beac"
    },
    {
      "constant": false,
      "inputs": [
        {
          "name": "_stepIndex",
          "type": "uint256"
        },
        {
          "name": "_addr",
          "type": "address"
        }
      ],
      "name": "emptyTokenBalance",
      "outputs": [],
      "payable": false,
      "stateMutability": "nonpayable",
      "type": "function",
      "signature": "0x00f21bf2"
    },
    {
      "constant": false,
      "inputs": [
        {
          "name": "_stepIndex",
          "type": "uint256"
        },
        {
          "name": "_addr",
          "type": "address"
        }
      ],
      "name": "emptyETHBalance",
      "outputs": [],
      "payable": false,
      "stateMutability": "nonpayable",
      "type": "function",
      "signature": "0xea2f8bd1"
    },
    {
      "constant": true,
      "inputs": [
        {
          "name": "_stepIndex",
          "type": "uint256"
        }
      ],
      "name": "getFissionRewardInfo",
      "outputs": [
        {
          "name": "",
          "type": "uint256"
        },
        {
          "name": "",
          "type": "address[]"
        },
        {
          "name": "",
          "type": "uint256[]"
        }
      ],
      "payable": false,
      "stateMutability": "view",
      "type": "function",
      "signature": "0x8a18854b"
    },
    {
      "constant": true,
      "inputs": [
        {
          "name": "_stepIndex",
          "type": "uint256"
        }
      ],
      "name": "getFOMORewardIofo",
      "outputs": [
        {
          "name": "",
          "type": "uint256"
        },
        {
          "name": "",
          "type": "address[]"
        },
        {
          "name": "",
          "type": "uint256[]"
        }
      ],
      "payable": false,
      "stateMutability": "view",
      "type": "function",
      "signature": "0x1e7efbc9"
    },
    {
      "constant": true,
      "inputs": [
        {
          "name": "_stepIndex",
          "type": "uint256"
        }
      ],
      "name": "getLuckyRewardInfo",
      "outputs": [
        {
          "name": "",
          "type": "uint256"
        },
        {
          "name": "",
          "type": "address[]"
        },
        {
          "name": "",
          "type": "uint256"
        }
      ],
      "payable": false,
      "stateMutability": "view",
      "type": "function",
      "signature": "0x3723e1c2"
    },
    {
      "constant": true,
      "inputs": [],
      "name": "getFaithRewardInfo",
      "outputs": [
        {
          "name": "",
          "type": "uint256"
        },
        {
          "name": "",
          "type": "address[]"
        },
        {
          "name": "",
          "type": "uint256[]"
        }
      ],
      "payable": false,
      "stateMutability": "view",
      "type": "function",
      "signature": "0x0c214602"
    },
    {
      "constant": true,
      "inputs": [],
      "name": "getBuildingPercentOfParty",
      "outputs": [
        {
          "name": "",
          "type": "uint256"
        }
      ],
      "payable": false,
      "stateMutability": "view",
      "type": "function",
      "signature": "0x9b2dc769"
    },
    {
      "constant": false,
      "inputs": [
        {
          "name": "_stepIndex",
          "type": "uint256"
        }
      ],
      "name": "updateBuildingPercent",
      "outputs": [
        {
          "name": "",
          "type": "bool"
        }
      ],
      "payable": false,
      "stateMutability": "nonpayable",
      "type": "function",
      "signature": "0x0d9907d9"
    },
    {
      "constant": true,
      "inputs": [
        {
          "name": "_stepIndex",
          "type": "uint256"
        }
      ],
      "name": "getBuildingTokenFromParty",
      "outputs": [
        {
          "name": "",
          "type": "uint256"
        }
      ],
      "payable": false,
      "stateMutability": "view",
      "type": "function",
      "signature": "0x5a492217"
    }
  ],
  "bytecode": "0x60806040526032600a556032600c5534801561001a57600080fd5b506040516080806122f68339810180604052608081101561003a57600080fd5b508051602080830151604080850151606090950151336000908152938490529220805460ff191660019081179091558054600160a060020a03948516600160a060020a03199182161790915560028054928516928216929092179091556003805494841694821694909417909355600480549290911691909216179055612230806100c66000396000f3fe608060405234801561001057600080fd5b50600436106102405760003560e060020a90048063743acbab1161013f578063c39fa861116100bc578063da03095c11610080578063da03095c146107ec578063deb72f1f1461080b578063ea2f8bd1146108b7578063ef57e2d214610417578063fd38f45b146108e357610240565b8063c39fa86114610769578063c4a85bc114610792578063cf38beac146107b8578063d6d11b82146105ae578063d7463573146107e457610240565b80638d8276be116101035780638d8276be1461068f57806395bbde88146106975780639b2dc7691461073c578063abdd11a814610744578063b7a8807c1461076157610240565b8063743acbab146105ae57806374ebae06146105b657806384976e74146105be5780638a18854b1461066a5780638a90d6011461068757610240565b80632734189a116101cd5780633c24fead116101915780633c24fead1461050b57806350b9d89d1461053d5780635a4922171461054557806361afd5ac14610562578063725019761461058857610240565b80632734189a1461040f5780632c7a8b731461041757806330f42bf614610443578063332df682146104605780633723e1c21461048c57610240565b80631089e83b116102145780631089e83b146103845780631c5ce157146103b65780631da6dcf1146103be5780631e7efbc9146103ea57806325d8e97f1461040757610240565b8062f21bf2146102455780630c214602146102735780630d9907d91461031b5780631020f72a1461034c575b600080fd5b6102716004803603604081101561025b57600080fd5b5080359060200135600160a060020a031661098f565b005b61027b610a0c565b604051808481526020018060200180602001838103835285818151815260200191508051906020019060200280838360005b838110156102c55781810151838201526020016102ad565b50505050905001838103825284818151815260200191508051906020019060200280838360005b838110156103045781810151838201526020016102ec565b505050509050019550505050505060405180910390f35b6103386004803603602081101561033157600080fd5b5035610b4d565b604080519115158252519081900360200190f35b6103726004803603602081101561036257600080fd5b5035600160a060020a0316610cb3565b60408051918252519081900360200190f35b6102716004803603606081101561039a57600080fd5b50803590600160a060020a036020820135169060400135610cce565b610271610d4b565b610372600480360360408110156103d457600080fd5b50600160a060020a038135169060200135610ec5565b61027b6004803603602081101561040057600080fd5b5035610f40565b610338611098565b6103726110d4565b6103726004803603604081101561042d57600080fd5b5080359060200135600160a060020a03166110da565b6102716004803603602081101561045957600080fd5b5035611102565b6103726004803603604081101561047657600080fd5b5080359060200135600160a060020a031661115e565b6104a9600480360360208110156104a257600080fd5b5035611186565b6040518084815260200180602001838152602001828103825284818151815260200191508051906020019060200280838360005b838110156104f55781810151838201526020016104dd565b5050505090500194505050505060405180910390f35b6102716004803603606081101561052157600080fd5b50803590600160a060020a036020820135169060400135611299565b610372611316565b6103726004803603602081101561055b57600080fd5b503561131c565b6102716004803603602081101561057857600080fd5b5035600160a060020a031661132e565b6103386004803603602081101561059e57600080fd5b5035600160a060020a03166113a6565b6103386113bb565b6103386113c4565b610271600480360360608110156105d457600080fd5b813591908101906040810160208201356401000000008111156105f657600080fd5b82018360208201111561060857600080fd5b8035906020019184602083028401116401000000008311171561062a57600080fd5b91908080602002602001604051908101604052809392919081815260200183836020028082843760009201919091525092955050913592506113fc915050565b61027b6004803603602081101561068057600080fd5b503561169e565b61037261170a565b610372611710565b610338600480360360408110156106ad57600080fd5b8101906020810181356401000000008111156106c857600080fd5b8201836020820111156106da57600080fd5b803590602001918460208302840111640100000000831117156106fc57600080fd5b9190808060200260200160405190810160405280939291908181526020018383602002808284376000920191909152509295505091359250611716915050565b610372611942565b6102716004803603602081101561075a57600080fd5b5035611948565b6103726119a4565b6103386004803603606081101561077f57600080fd5b50803590602081013590604001356119aa565b610271600480360360208110156107a857600080fd5b5035600160a060020a0316611a59565b610372600480360360408110156107ce57600080fd5b5080359060200135600160a060020a0316611ad4565b610372611b5e565b6102716004803603602081101561080257600080fd5b50351515611b64565b6102716004803603606081101561082157600080fd5b8135919081019060408101602082013564010000000081111561084357600080fd5b82018360208201111561085557600080fd5b8035906020019184602083028401116401000000008311171561087757600080fd5b9190808060200260200160405190810160405280939291908181526020018383602002808284376000920191909152509295505091359250611bce915050565b610271600480360360408110156108cd57600080fd5b5080359060200135600160a060020a0316611dfc565b610271600480360360608110156108f957600080fd5b8135919081019060408101602082013564010000000081111561091b57600080fd5b82018360208201111561092d57600080fd5b8035906020019184602083028401116401000000008311171561094f57600080fd5b9190808060200260200160405190810160405280939291908181526020018383602002808284376000920191909152509295505091359250611ebc915050565b3360009081526020819052604090205460ff1615156109e6576040805160e560020a62461bcd02815260206004820152601b60248201526000805160206121e5833981519152604482015290519081900360640190fd5b6000918252600f60209081526040808420600160a060020a039093168452919052812055565b6000606080600460009054906101000a9004600160a060020a0316600160a060020a031663c62461cc6040518163ffffffff1660e060020a02815260040160006040518083038186803b158015610a6257600080fd5b505afa158015610a76573d6000803e3d6000fd5b505050506040513d6000823e601f3d908101601f191682016040526060811015610a9f57600080fd5b815160208301805191939283019291640100000000811115610ac057600080fd5b82016020810184811115610ad357600080fd5b8151856020820283011164010000000082111715610af057600080fd5b50509291906020018051640100000000811115610b0c57600080fd5b82016020810184811115610b1f57600080fd5b8151856020820283011164010000000082111715610b3c57600080fd5b509599949850965092945050505050565b3360009081526020819052604081205460ff161515610ba4576040805160e560020a62461bcd02815260206004820152601b60248201526000805160206121e5833981519152604482015290519081900360640190fd5b600554600010610be85760405160e560020a62461bcd0281526004018080602001828103825260218152602001806121c46021913960400191505060405180910390fd5b811515610c3457610c166064610c0a60326009546120e490919063ffffffff16565b9063ffffffff61210f16565b6000838152600b60205260409020556032600a819055600c55610cab565b6042600a541015610c5357600a80546001019055600c80546000190190555b610c80610c716064610c0a60016009546120e490919063ffffffff16565b6009549063ffffffff61213316565b600981905550610cab82610ca66064610c0a600a546009546120e490919063ffffffff16565b612148565b506001919050565b600160a060020a031660009081526013602052604090205490565b3360009081526020819052604090205460ff161515610d25576040805160e560020a62461bcd02815260206004820152601b60248201526000805160206121e5833981519152604482015290519081900360640190fd5b6000928352600f60209081526040808520600160a060020a039094168552929052912055565b3360009081526020819052604090205460ff161515610da2576040805160e560020a62461bcd02815260206004820152601b60248201526000805160206121e5833981519152604482015290519081900360640190fd5b73__UintUtils_____________________________63669dafe86308f0d1806040518263ffffffff1660e060020a0281526004018082815260200191505060206040518083038186803b158015610df857600080fd5b505af4158015610e0c573d6000803e3d6000fd5b505050506040513d6020811015610e2257600080fd5b5051600555604080517f669dafe80000000000000000000000000000000000000000000000000000000081526216e3606004820152905173__UintUtils_____________________________9163669dafe8916024808301926020929190829003018186803b158015610e9457600080fd5b505af4158015610ea8573d6000803e3d6000fd5b505050506040513d6020811015610ebe57600080fd5b5051600955565b3360009081526020819052604081205460ff161515610f1c576040805160e560020a62461bcd02815260206004820152601b60248201526000805160206121e5833981519152604482015290519081900360640190fd5b50600160a060020a0382166000908152601360205260409020819055805b92915050565b600254604080517f2889cc070000000000000000000000000000000000000000000000000000000081526004810184905290516000926060928392600160a060020a0390921691632889cc07916024808201928892909190829003018186803b158015610fac57600080fd5b505afa158015610fc0573d6000803e3d6000fd5b505050506040513d6000823e601f3d908101601f191682016040526060811015610fe957600080fd5b81516020830180519193928301929164010000000081111561100a57600080fd5b8201602081018481111561101d57600080fd5b815185602082028301116401000000008211171561103a57600080fd5b5050929190602001805164010000000081111561105657600080fd5b8201602081018481111561106957600080fd5b815185602082028301116401000000008211171561108657600080fd5b50959a94995097509295505050505050565b600060065442101580156110c057506006546110bc9061708063ffffffff6121b116565b4211155b156110cd575060016110d1565b5060005b90565b60055490565b6000918252600f60209081526040808420600160a060020a0393909316845291905290205490565b3360009081526020819052604090205460ff161515611159576040805160e560020a62461bcd02815260206004820152601b60248201526000805160206121e5833981519152604482015290519081900360640190fd5b600555565b6000918252600e60209081526040808420600160a060020a0393909316845291905290205490565b600354604080517f493274410000000000000000000000000000000000000000000000000000000081526004810184905290516000926060928492600160a060020a03909216916349327441916024808201928692909190829003018186803b1580156111f257600080fd5b505afa158015611206573d6000803e3d6000fd5b505050506040513d6000823e601f3d908101601f19168201604052606081101561122f57600080fd5b81516020830180519193928301929164010000000081111561125057600080fd5b8201602081018481111561126357600080fd5b815185602082028301116401000000008211171561128057600080fd5b5050602090910151939650945091925050509193909250565b3360009081526020819052604090205460ff1615156112f0576040805160e560020a62461bcd02815260206004820152601b60248201526000805160206121e5833981519152604482015290519081900360640190fd5b6000928352600e60209081526040808520600160a060020a039094168552929052912055565b60085490565b6000908152600b602052604090205490565b3360009081526020819052604090205460ff161515611385576040805160e560020a62461bcd02815260206004820152601b60248201526000805160206121e5833981519152604482015290519081900360640190fd5b600160a060020a03166000908152602081905260409020805460ff19169055565b60006020819052908152604090205460ff1681565b60075460ff1690565b6006546000906113dc9061708063ffffffff6121b116565b42101580156110c057506006546110bc906201518063ffffffff6121b116565b3360009081526020819052604090205460ff161515611453576040805160e560020a62461bcd02815260206004820152601b60248201526000805160206121e5833981519152604482015290519081900360640190fd5b6002546040517fc21a774300000000000000000000000000000000000000000000000000000000815260048101858152604482018490526060602483018181528651606485015286519194600160a060020a03169363c21a77439389938993899390916084909101906020808701910280838360005b838110156114e15781810151838201526020016114c9565b50505050905001945050505050600060405180830381600087803b15801561150857600080fd5b505af115801561151c573d6000803e3d6000fd5b505050506040513d6000823e601f3d908101601f19168201604052602081101561154557600080fd5b81019080805164010000000081111561155d57600080fd5b8201602081018481111561157057600080fd5b815185602082028301116401000000008211171561158d57600080fd5b50909450600093505050505b8151811015611697576002548251600160a060020a039091169063509b49e99087908590859081106115c757fe5b906020019060200201516040518363ffffffff1660e060020a0281526004018083815260200182600160a060020a0316600160a060020a031681526020019250505060206040518083038186803b15801561162157600080fd5b505afa158015611635573d6000803e3d6000fd5b505050506040513d602081101561164b57600080fd5b50516000868152601160205260408120845190919085908590811061166c57fe5b6020908102909101810151600160a060020a0316825281019190915260400160002055600101611599565b5050505050565b600154604080517fc79b12450000000000000000000000000000000000000000000000000000000081526004810184905290516000926060928392600160a060020a039092169163c79b1245916024808201928892909190829003018186803b158015610fac57600080fd5b60055481565b60095490565b3360009081526020819052604081205460ff16151561176d576040805160e560020a62461bcd02815260206004820152601b60248201526000805160206121e5833981519152604482015290519081900360640190fd5b60048054604080517f1e238d1000000000000000000000000000000000000000000000000000000000815260248101869052928301908152855160448401528551600093600160a060020a0390931692631e238d1092889288928291606490910190602080870191028083838c5b838110156117f35781810151838201526020016117db565b505050509050019350505050602060405180830381600087803b15801561181957600080fd5b505af115801561182d573d6000803e3d6000fd5b505050506040513d602081101561184357600080fd5b5051905060005b845181101561193a576004548551600160a060020a0390911690634a6817879087908490811061187657fe5b906020019060200201516040518263ffffffff1660e060020a0281526004018082600160a060020a0316600160a060020a0316815260200191505060206040518083038186803b1580156118c957600080fd5b505afa1580156118dd573d6000803e3d6000fd5b505050506040513d60208110156118f357600080fd5b5051855160139060009088908590811061190957fe5b6020908102909101810151600160a060020a031682528101919091526040016000208054909101905560010161184a565b509392505050565b600a5490565b3360009081526020819052604090205460ff16151561199f576040805160e560020a62461bcd02815260206004820152601b60248201526000805160206121e5833981519152604482015290519081900360640190fd5b600655565b60065481565b3360009081526020819052604081205460ff161515611a01576040805160e560020a62461bcd02815260206004820152601b60248201526000805160206121e5833981519152604482015290519081900360640190fd5b81831015611a1d576008849055611a186001611b64565b611a49565b611a276000611b64565b6005541515611a3f576008849055611a186001611b64565b611a496000611b64565b611a516113bb565b949350505050565b3360009081526020819052604090205460ff161515611ab0576040805160e560020a62461bcd02815260206004820152601b60248201526000805160206121e5833981519152604482015290519081900360640190fd5b600160a060020a03166000908152602081905260409020805460ff19166001179055565b6000828152601260209081526040808320600160a060020a038516808552908352818420548685526011845282852082865284528285205487865260108552838620838752855283862054888752600e86528487209387529290945291842054611b5793611b4b929091839163ffffffff6121b116565b9063ffffffff6121b116565b9392505050565b60065490565b3360009081526020819052604090205460ff161515611bbb576040805160e560020a62461bcd02815260206004820152601b60248201526000805160206121e5833981519152604482015290519081900360640190fd5b6007805460ff1916911515919091179055565b3360009081526020819052604090205460ff161515611c25576040805160e560020a62461bcd02815260206004820152601b60248201526000805160206121e5833981519152604482015290519081900360640190fd5b6001546040517fa5fa79760000000000000000000000000000000000000000000000000000000081526004810185815260448201849052606060248301908152855160648401528551600160a060020a039094169363a5fa797693889388938893919290916084909101906020808701910280838360005b83811015611cb5578181015183820152602001611c9d565b50505050905001945050505050600060405180830381600087803b158015611cdc57600080fd5b505af1158015611cf0573d6000803e3d6000fd5b506000925050505b8251811015611df6576001548351600160a060020a03909116906365922b74908690869085908110611d2657fe5b906020019060200201516040518363ffffffff1660e060020a0281526004018083815260200182600160a060020a0316600160a060020a031681526020019250505060206040518083038186803b158015611d8057600080fd5b505afa158015611d94573d6000803e3d6000fd5b505050506040513d6020811015611daa57600080fd5b505160008581526010602052604081208551909190869085908110611dcb57fe5b6020908102909101810151600160a060020a0316825281019190915260400160002055600101611cf8565b50505050565b3360009081526020819052604090205460ff161515611e53576040805160e560020a62461bcd02815260206004820152601b60248201526000805160206121e5833981519152604482015290519081900360640190fd5b6000828152600e60209081526040808320600160a060020a03909416808452938252808320839055848352601082528083208484528252808320839055848352601182528083208484528252808320839055938252601281528382209282529190915290812055565b3360009081526020819052604090205460ff161515611f13576040805160e560020a62461bcd02815260206004820152601b60248201526000805160206121e5833981519152604482015290519081900360640190fd5b6003546040517fac197f920000000000000000000000000000000000000000000000000000000081526004810185815260448201849052606060248301908152855160648401528551600160a060020a039094169363ac197f9293889388938893919290916084909101906020808701910280838360005b83811015611fa3578181015183820152602001611f8b565b50505050905001945050505050600060405180830381600087803b158015611fca57600080fd5b505af1158015611fde573d6000803e3d6000fd5b506000925050505b8251811015611df6576003548351600160a060020a039091169063dd572ab990869086908590811061201457fe5b906020019060200201516040518363ffffffff1660e060020a0281526004018083815260200182600160a060020a0316600160a060020a031681526020019250505060206040518083038186803b15801561206e57600080fd5b505afa158015612082573d6000803e3d6000fd5b505050506040513d602081101561209857600080fd5b5051600085815260126020526040812085519091908690859081106120b957fe5b6020908102909101810151600160a060020a0316825281019190915260400160002055600101611fe6565b60008215156120f557506000610f3a565b82820282848281151561210457fe5b0414611b5757600080fd5b600080821161211d57600080fd5b6000828481151561212a57fe5b04949350505050565b60008282111561214257600080fd5b50900390565b3360009081526020819052604090205460ff16151561219f576040805160e560020a62461bcd02815260206004820152601b60248201526000805160206121e5833981519152604482015290519081900360640190fd5b6000918252600b602052604090912055565b600082820183811015611b5757600080fdfee585b1e5bbbae8b584e98791e6b1a0e5b7b2e7bb8fe6b688e88097e5ae8ce6af95e8b083e794a8e88085e6b2a1e69c89e8b083e794a8e69d83e999900000000000a165627a7a72305820df26c670b24336ae3646f5b310f217decdae661bdc40a323d1429e692609fef90029",
  "source": "pragma solidity >=0.4.21 <0.6.0;\n\nimport \"../node_modules/openzeppelin-solidity/contracts/math/SafeMath.sol\";\nimport \"./UintUtils.sol\";\nimport \"./FissionReward.sol\";\nimport \"./FOMOReward.sol\";\nimport \"./LuckyReward.sol\";\nimport \"./FaithReward.sol\";\n\n/// @title \n/// @dev \ncontract ResonanceDataManage{\n\n    using SafeMath for uint256;\n\n    event AllowAccess(address indexed);\n\n    // \n    mapping(address => bool) public accessAllowed;\n\n    modifier platform() {\n        require(accessAllowed[msg.sender], \"\");\n        _;\n    }\n\n    FissionReward fissionRewardInstance;\n    FOMOReward FOMORewardInstance;\n    LuckyReward luckyRewardInstance;\n    FaithReward faithRewardInstance;\n\n    // \n    uint256 public fundsPool;\n    // \n    uint256 public openingTime;\n    // \n    bool crowdsaleClosed;\n\n    // Step\n    uint256 resonanceClosedStep;\n\n    // Token\n    uint256 initBuildingTokenAmount;\n\n    // Token\n    uint256 buildingPercentOfParty = 50;\n\n    // Token\n    // uint256 buildingTokenFromParty;\n    mapping(uint256 => uint256) buildingTokenFromParty;\n\n    // Token\n    uint256 buildingPercentOfCommunity = 50;\n\n    uint256 personalTokenLimited;// token\n\n    // step => address => ether\n    mapping(uint256 => mapping(address => uint256)) private ETHBalance;\n    // step => address => token\n    mapping(uint256 => mapping(address => uint256)) private tokenBalance;\n\n    mapping(uint256 => mapping(address => uint256)) FissionBalance;\n    mapping(uint256 => mapping(address => uint256)) FOMOBalance;\n    mapping(uint256 => mapping(address => uint256)) LuckyBalance;\n\n    // \n    mapping(address => uint256) private faithRewardBalance;\n\n    constructor(\n        address _fassionRewardAddress,\n        address _FOMORewardAddress,\n        address _luckyRewardAddress,\n        address _faithRewardAddress\n    ) public {\n        accessAllowed[msg.sender] = true;\n        // \n        fissionRewardInstance = FissionReward(_fassionRewardAddress);\n        FOMORewardInstance = FOMOReward(_FOMORewardAddress);\n        luckyRewardInstance = LuckyReward(_luckyRewardAddress);\n        faithRewardInstance = FaithReward(_faithRewardAddress);\n    }\n\n    // \n    function setParamForFirstStep() public platform() {\n        fundsPool = UintUtils.toWei(150000000);\n        initBuildingTokenAmount = UintUtils.toWei(1500000);\n    }\n\n    function allowAccess(address _addr) public platform() {\n        accessAllowed[_addr] = true;\n    }\n\n    function denyAccess(address _addr) public platform() {\n        accessAllowed[_addr] = false;\n    }\n\n    function setFundsPool(uint256 _fundsPool) public platform() {\n        fundsPool = _fundsPool;\n    }\n\n    function getFundsPool() public view returns(uint256) {\n        return fundsPool;\n    }\n\n    function setOpeningTime(uint256 _openingTime) public platform() {\n        openingTime = _openingTime;\n    }\n\n    /// @notice \n    function getOpeningTime() public view returns(uint256){\n        return openingTime;\n    }\n\n    function setCrowdsaleClosed(bool _crowdsaleClosed) public platform() {\n        crowdsaleClosed = _crowdsaleClosed;\n    }\n\n    function getCrowdsaleClosed() public view returns(bool) {\n        return crowdsaleClosed;\n    }\n\n    function getETHBalance(uint256 _stepIndex, address _addr) public view returns(uint256) {\n        return ETHBalance[_stepIndex][_addr];\n    }\n\n    function setETHBalance(uint256 _stepIndex, address _addr, uint256 _amount) public platform() {\n        ETHBalance[_stepIndex][_addr] = _amount;\n    }\n\n    function getTokenBalance(uint256 _stepIndex, address _addr) public view returns(uint256) {\n        return tokenBalance[_stepIndex][_addr];\n    }\n\n    function setTokenBalance(uint256 _stepIndex, address _addr, uint256 _amount) public platform() {\n        tokenBalance[_stepIndex][_addr] = _amount;\n    }\n\n    function getBuildingTokenAmount() public view returns(uint256) {\n        return initBuildingTokenAmount;\n    }\n\n    // \n    function isBuildingPeriod() public view returns(bool){\n        if(block.timestamp >= openingTime && block.timestamp <= openingTime.add(8 hours)) {\n            return true;\n        }else{\n            return false;\n        }\n        // return true;\n    }\n\n    // \n    function isFundingPeriod() public view returns(bool) {\n        if(block.timestamp >= openingTime.add(8 hours) && block.timestamp <= openingTime.add(24 hours)) {\n            return true;\n        }else{\n            return false;\n        }\n        // return true;\n    }\n\n    /// @notice \n    /// @dev \n    /// @param raisedETH ETH\n    /// @param softCap \n    function crowdsaleIsClosed(\n        uint256 stepIndex,\n        uint256 raisedETH,\n        uint256 softCap\n    )\n        public\n        platform()\n        returns(bool)\n    {\n        // 1.\n        if(raisedETH < softCap) {\n            resonanceClosedStep = stepIndex;\n            setCrowdsaleClosed(true);\n        }else{\n            setCrowdsaleClosed(false);\n            // 2.\n            if(fundsPool == 0) {\n                resonanceClosedStep = stepIndex;\n                setCrowdsaleClosed(true);\n            }else{\n                setCrowdsaleClosed(false);\n            }\n        }\n\n        return getResonanceIsClosed();\n    }\n\n    /// @notice Index\n    function getResonanceClosedStep() public view returns(uint256){\n        return resonanceClosedStep;\n    }\n\n    /// @notice \n    function getResonanceIsClosed() public view returns(bool) {\n        return crowdsaleClosed;\n    }\n\n    /// @notice \n    function settlementFissionReward(uint256 _stepIndex, address[] memory _fissionWinnerList, uint256 totalFissionReward)\n        public\n        platform()\n    {\n        fissionRewardInstance.dealFissionInfo(_stepIndex, _fissionWinnerList, totalFissionReward);\n        // \n        for(uint i = 0; i < _fissionWinnerList.length; i++){\n            FissionBalance[_stepIndex][_fissionWinnerList[i]] = fissionRewardInstance.fissionRewardAmount(_stepIndex,_fissionWinnerList[i]);\n        }\n    }\n\n    /// @notice FOMO\n    function settlementFOMOReward(uint256 _stepIndex, address[] memory _funders, uint256 totalFOMOReward)\n        public\n        platform()\n    {\n        address[] memory FOMOWinnerList = FOMORewardInstance.dealFOMOWinner(_stepIndex, _funders, totalFOMOReward);\n\n        for(uint i = 0; i < FOMOWinnerList.length; i++){\n            FOMOBalance[_stepIndex][FOMOWinnerList[i]] = FOMORewardInstance.FOMORewardAmount(_stepIndex, FOMOWinnerList[i]);\n        }\n    }\n\n    /// @notice \n    function settlementLuckyReward(uint256 _stepIndex, address[] memory _LuckyWinnerList, uint256 totalLuckyReward)\n        public\n        platform()\n    {\n        luckyRewardInstance.dealLuckyInfo(_stepIndex, _LuckyWinnerList, totalLuckyReward);\n        for(uint i = 0; i < _LuckyWinnerList.length; i++){\n            LuckyBalance[_stepIndex][_LuckyWinnerList[i]] = luckyRewardInstance.luckyRewardAmount(_stepIndex, _LuckyWinnerList[i]);\n        }\n    }\n\n    // \n    function dmSettlementFaithReward(address[] memory _faithWinners, uint256 totalFaithReward)\n        public\n        platform()\n        returns(bool)\n    {\n        bool faithRewardFinished = faithRewardInstance.dealFaithWinner(_faithWinners, totalFaithReward);\n\n        for(uint i = 0; i < _faithWinners.length; i++){\n            faithRewardBalance[_faithWinners[i]] += faithRewardInstance.faithRewardAmount(_faithWinners[i]);\n        }\n        return faithRewardFinished;\n    }\n\n    // \n    function getFaithRewardBalance(address _addr) public view returns(uint256) {\n        return faithRewardBalance[_addr];\n    }\n\n    function setFaithRewardBalance(address _addr, uint256 _amount) public platform() returns(uint256) {\n        return faithRewardBalance[_addr] = _amount;\n    }\n\n    /// @notice Token\n    function withdrawTokenAmount(uint256 _stepIndex, address _addr) public view returns (uint256) {\n        return tokenBalance[_stepIndex][_addr];\n    }\n\n    /// @notice ETH\n    function withdrawETHAmount(uint256 _stepIndex, address _addr) public view returns (uint256) {\n        return ETHBalance[_stepIndex][_addr]\n            .add(FissionBalance[_stepIndex][_addr])\n            .add(FOMOBalance[_stepIndex][_addr])\n            .add(LuckyBalance[_stepIndex][_addr]);\n    }\n\n    function emptyTokenBalance(uint256 _stepIndex, address _addr) public platform() {\n        tokenBalance[_stepIndex][_addr] = 0;\n    }\n\n    function emptyETHBalance(uint256 _stepIndex, address _addr) public platform() {\n        ETHBalance[_stepIndex][_addr] = 0;\n        FissionBalance[_stepIndex][_addr] = 0;\n        FOMOBalance[_stepIndex][_addr] = 0;\n        LuckyBalance[_stepIndex][_addr] = 0;\n    }\n\n    /// @notice \n    /// @dev \n    /// @param _stepIndex \n    function getFissionRewardInfo(uint256 _stepIndex)\n        public\n        view\n        returns(uint256, address[] memory, uint256[] memory)\n    {\n        return fissionRewardInstance.getFissionInfo(_stepIndex);\n    }\n\n    /// @notice FOMO\n    /// @dev FOMO\n    /// @param _stepIndex \n    function getFOMORewardIofo(uint256 _stepIndex)\n        public\n        view\n        returns(uint256, address[] memory, uint256[] memory)\n    {\n        return FOMORewardInstance.getFOMOWinnerInfo(_stepIndex);\n    }\n\n    /// @notice \n    /// @dev \n    /// @param _stepIndex \n    function getLuckyRewardInfo(uint256 _stepIndex)\n        public\n        view\n        returns(uint256, address[] memory, uint256)\n    {\n        return luckyRewardInstance.getLuckyInfo(_stepIndex);\n    }\n\n    /// @notice \n    /// @dev \n    function getFaithRewardInfo()\n        public\n        view\n        returns(uint256, address[] memory, uint256[] memory)\n    {\n        return faithRewardInstance.getFaithWinnerInfo();\n    }\n\n    /// @notice \n    function getBuildingPercentOfParty() public view returns(uint256) {\n        return buildingPercentOfParty;\n    }\n\n    /// @notice \n    function updateBuildingPercent(uint256 _stepIndex) public platform() returns (bool) {\n        require(fundsPool > 0, \"\");\n        if(_stepIndex == 0){\n            buildingTokenFromParty[_stepIndex] = initBuildingTokenAmount.mul(50).div(100);\n            buildingPercentOfParty = 50;\n            buildingPercentOfCommunity = 50;\n        }else{\n            // +1%-1%\n            if(buildingPercentOfParty < 66){\n                buildingPercentOfParty += 1;\n                buildingPercentOfCommunity -= 1;\n            }\n            // Token\n            // 99% =  -  * 1%\n            initBuildingTokenAmount = initBuildingTokenAmount.sub(initBuildingTokenAmount.mul(1).div(100));\n            // \n            setBuildingTokenFromParty(_stepIndex, initBuildingTokenAmount.mul(buildingPercentOfParty).div(100));\n        }\n\n        return true;\n    }\n\n    /// @notice Token\n    function setBuildingTokenFromParty(uint256 _stepIndex, uint256 _buildingPercentOfParty) internal platform() {\n        buildingTokenFromParty[_stepIndex] = _buildingPercentOfParty;\n    }\n\n    /// @notice Token\n    function getBuildingTokenFromParty(uint256 _stepIndex) public view returns(uint256) {\n        return buildingTokenFromParty[_stepIndex];\n    }\n\n}",
  "sourcePath": "/Users/a186r/dev/sourcecode/contract/contract/contracts/ResonanceDataManage.sol",
  "compiler": {
    "name": "solc",
    "version": "0.5.2+commit.1df8f40c.Emscripten.clang"
  },
  "schemaVersion": "3.0.6",
  "updatedAt": "2019-06-04T04:52:50.797Z",
  "devdoc": {
    "details": "",
    "methods": {
      "crowdsaleIsClosed(uint256,uint256,uint256)": {
        "details": "",
        "params": {
          "raisedETH": "ETH",
          "softCap": ""
        }
      },
      "getFOMORewardIofo(uint256)": {
        "details": "FOMO",
        "params": {
          "_stepIndex": ""
        }
      },
      "getFaithRewardInfo()": {
        "details": ""
      },
      "getFissionRewardInfo(uint256)": {
        "details": "",
        "params": {
          "_stepIndex": ""
        }
      },
      "getLuckyRewardInfo(uint256)": {
        "details": "",
        "params": {
          "_stepIndex": ""
        }
      }
    },
    "title": ""
  },
  "userdoc": {
    "methods": {
      "crowdsaleIsClosed(uint256,uint256,uint256)": {
        "notice": ""
      },
      "getBuildingPercentOfParty()": {
        "notice": ""
      },
      "getBuildingTokenFromParty(uint256)": {
        "notice": "Token"
      },
      "getFOMORewardIofo(uint256)": {
        "notice": "FOMO"
      },
      "getFaithRewardInfo()": {
        "notice": ""
      },
      "getFissionRewardInfo(uint256)": {
        "notice": ""
      },
      "getLuckyRewardInfo(uint256)": {
        "notice": ""
      },
      "getOpeningTime()": {
        "notice": ""
      },
      "getResonanceClosedStep()": {
        "notice": "Index"
      },
      "getResonanceIsClosed()": {
        "notice": ""
      },
      "settlementFOMOReward(uint256,address[],uint256)": {
        "notice": "FOMO"
      },
      "settlementFissionReward(uint256,address[],uint256)": {
        "notice": ""
      },
      "settlementLuckyReward(uint256,address[],uint256)": {
        "notice": ""
      },
      "updateBuildingPercent(uint256)": {
        "notice": ""
      },
      "withdrawETHAmount(uint256,address)": {
        "notice": "ETH"
      },
      "withdrawTokenAmount(uint256,address)": {
        "notice": "Token"
      }
    }
  }
}