{
  "contractName": "ResonanceDataManage",
  "abi": [
    {
      "inputs": [
        {
          "name": "_fassionRewardAddress",
          "type": "address"
        },
        {
          "name": "_FOMORewardAddress",
          "type": "address"
        },
        {
          "name": "_luckyRewardAddress",
          "type": "address"
        },
        {
          "name": "_faithRewardAddress",
          "type": "address"
        }
      ],
      "payable": false,
      "stateMutability": "nonpayable",
      "type": "constructor",
      "signature": "constructor"
    },
    {
      "anonymous": false,
      "inputs": [],
      "name": "WhihdrawAllToken",
      "type": "event",
      "signature": "0xee734865025ca1f0b8198bb35fbe6ca9a148b165df9c7b3862f84daee571e5d1"
    },
    {
      "constant": false,
      "inputs": [],
      "name": "setParamForFirstStep",
      "outputs": [],
      "payable": false,
      "stateMutability": "nonpayable",
      "type": "function",
      "signature": "0x1c5ce157"
    },
    {
      "constant": false,
      "inputs": [
        {
          "name": "_addr",
          "type": "address"
        }
      ],
      "name": "allowAccess",
      "outputs": [],
      "payable": false,
      "stateMutability": "nonpayable",
      "type": "function",
      "signature": "0xc4a85bc1"
    },
    {
      "constant": false,
      "inputs": [
        {
          "name": "_addr",
          "type": "address"
        }
      ],
      "name": "denyAccess",
      "outputs": [],
      "payable": false,
      "stateMutability": "nonpayable",
      "type": "function",
      "signature": "0x61afd5ac"
    },
    {
      "constant": false,
      "inputs": [
        {
          "name": "_fundsPool",
          "type": "uint256"
        }
      ],
      "name": "setFundsPool",
      "outputs": [],
      "payable": false,
      "stateMutability": "nonpayable",
      "type": "function",
      "signature": "0x30f42bf6"
    },
    {
      "constant": true,
      "inputs": [],
      "name": "getFundsPool",
      "outputs": [
        {
          "name": "",
          "type": "uint256"
        }
      ],
      "payable": false,
      "stateMutability": "view",
      "type": "function",
      "signature": "0x2734189a"
    },
    {
      "constant": false,
      "inputs": [
        {
          "name": "_openingTime",
          "type": "uint256"
        }
      ],
      "name": "setOpeningTime",
      "outputs": [],
      "payable": false,
      "stateMutability": "nonpayable",
      "type": "function",
      "signature": "0xabdd11a8"
    },
    {
      "constant": true,
      "inputs": [],
      "name": "getOpeningTime",
      "outputs": [
        {
          "name": "",
          "type": "uint256"
        }
      ],
      "payable": false,
      "stateMutability": "view",
      "type": "function",
      "signature": "0xd7463573"
    },
    {
      "constant": false,
      "inputs": [
        {
          "name": "_crowdsaleClosed",
          "type": "bool"
        }
      ],
      "name": "setCrowdsaleClosed",
      "outputs": [],
      "payable": false,
      "stateMutability": "nonpayable",
      "type": "function",
      "signature": "0xda03095c"
    },
    {
      "constant": true,
      "inputs": [],
      "name": "getCrowdsaleClosed",
      "outputs": [
        {
          "name": "",
          "type": "bool"
        }
      ],
      "payable": false,
      "stateMutability": "view",
      "type": "function",
      "signature": "0x743acbab"
    },
    {
      "constant": true,
      "inputs": [
        {
          "name": "_addr",
          "type": "address"
        }
      ],
      "name": "getETHBalance",
      "outputs": [
        {
          "name": "",
          "type": "uint256"
        }
      ],
      "payable": false,
      "stateMutability": "view",
      "type": "function",
      "signature": "0x3bb66a7b"
    },
    {
      "constant": false,
      "inputs": [
        {
          "name": "_addr",
          "type": "address"
        },
        {
          "name": "_amount",
          "type": "uint256"
        }
      ],
      "name": "setETHBalance",
      "outputs": [],
      "payable": false,
      "stateMutability": "nonpayable",
      "type": "function",
      "signature": "0x9b32a778"
    },
    {
      "constant": true,
      "inputs": [
        {
          "name": "_addr",
          "type": "address"
        }
      ],
      "name": "getTokenBalance",
      "outputs": [
        {
          "name": "",
          "type": "uint256"
        }
      ],
      "payable": false,
      "stateMutability": "view",
      "type": "function",
      "signature": "0x3aecd0e3"
    },
    {
      "constant": false,
      "inputs": [
        {
          "name": "_addr",
          "type": "address"
        },
        {
          "name": "_amount",
          "type": "uint256"
        }
      ],
      "name": "setTokenBalance",
      "outputs": [],
      "payable": false,
      "stateMutability": "nonpayable",
      "type": "function",
      "signature": "0x4ceb1f13"
    },
    {
      "constant": true,
      "inputs": [],
      "name": "getBuildingTokenAmount",
      "outputs": [
        {
          "name": "",
          "type": "uint256"
        }
      ],
      "payable": false,
      "stateMutability": "view",
      "type": "function",
      "signature": "0x8d8276be"
    },
    {
      "constant": false,
      "inputs": [
        {
          "name": "_tokenAmount",
          "type": "uint256"
        }
      ],
      "name": "setBuildingTokenAmount",
      "outputs": [],
      "payable": false,
      "stateMutability": "nonpayable",
      "type": "function",
      "signature": "0xbc8a5bb2"
    },
    {
      "constant": true,
      "inputs": [],
      "name": "isBuildingPeriod",
      "outputs": [
        {
          "name": "",
          "type": "bool"
        }
      ],
      "payable": false,
      "stateMutability": "view",
      "type": "function",
      "signature": "0x25d8e97f"
    },
    {
      "constant": true,
      "inputs": [],
      "name": "isFundingPeriod",
      "outputs": [
        {
          "name": "",
          "type": "bool"
        }
      ],
      "payable": false,
      "stateMutability": "view",
      "type": "function",
      "signature": "0x74ebae06"
    },
    {
      "constant": false,
      "inputs": [
        {
          "name": "raisedETH",
          "type": "uint256"
        },
        {
          "name": "softCap",
          "type": "uint256"
        }
      ],
      "name": "crowdsaleIsClosed",
      "outputs": [
        {
          "name": "",
          "type": "bool"
        }
      ],
      "payable": false,
      "stateMutability": "nonpayable",
      "type": "function",
      "signature": "0x98e24c06"
    },
    {
      "constant": false,
      "inputs": [
        {
          "name": "_fissionWinnerList",
          "type": "address[]"
        },
        {
          "name": "totalFissionReward",
          "type": "uint256"
        }
      ],
      "name": "settlementFissionReward",
      "outputs": [],
      "payable": false,
      "stateMutability": "nonpayable",
      "type": "function",
      "signature": "0x11228a27"
    },
    {
      "constant": false,
      "inputs": [
        {
          "name": "_funders",
          "type": "address[]"
        },
        {
          "name": "totalFOMOReward",
          "type": "uint256"
        }
      ],
      "name": "settlementFOMOReward",
      "outputs": [],
      "payable": false,
      "stateMutability": "nonpayable",
      "type": "function",
      "signature": "0x10398aa8"
    },
    {
      "constant": false,
      "inputs": [
        {
          "name": "_LuckyWinnerList",
          "type": "address[]"
        },
        {
          "name": "totalLuckyReward",
          "type": "uint256"
        }
      ],
      "name": "settlementLuckyReward",
      "outputs": [],
      "payable": false,
      "stateMutability": "nonpayable",
      "type": "function",
      "signature": "0x38eeea0c"
    },
    {
      "constant": false,
      "inputs": [
        {
          "name": "_faithWinners",
          "type": "address[]"
        },
        {
          "name": "totalFaithReward",
          "type": "uint256"
        }
      ],
      "name": "dmSettlementFaithReward",
      "outputs": [
        {
          "name": "",
          "type": "bool"
        }
      ],
      "payable": false,
      "stateMutability": "nonpayable",
      "type": "function",
      "signature": "0x95bbde88"
    },
    {
      "constant": true,
      "inputs": [
        {
          "name": "_addr",
          "type": "address"
        }
      ],
      "name": "withdrawTokenAmount",
      "outputs": [
        {
          "name": "",
          "type": "uint256"
        }
      ],
      "payable": false,
      "stateMutability": "view",
      "type": "function",
      "signature": "0x9d7e0c86"
    },
    {
      "constant": true,
      "inputs": [
        {
          "name": "_addr",
          "type": "address"
        }
      ],
      "name": "withdrawETHAmount",
      "outputs": [
        {
          "name": "",
          "type": "uint256"
        }
      ],
      "payable": false,
      "stateMutability": "view",
      "type": "function",
      "signature": "0x9263434e"
    },
    {
      "constant": false,
      "inputs": [],
      "name": "emptyTokenBalance",
      "outputs": [],
      "payable": false,
      "stateMutability": "nonpayable",
      "type": "function",
      "signature": "0x0c5d0c56"
    },
    {
      "constant": false,
      "inputs": [],
      "name": "emptyETHBalance",
      "outputs": [],
      "payable": false,
      "stateMutability": "nonpayable",
      "type": "function",
      "signature": "0x50300120"
    },
    {
      "constant": false,
      "inputs": [
        {
          "name": "_stepIndex",
          "type": "uint256"
        }
      ],
      "name": "getFissionRewardInfo",
      "outputs": [],
      "payable": false,
      "stateMutability": "nonpayable",
      "type": "function",
      "signature": "0x8a18854b"
    },
    {
      "constant": false,
      "inputs": [
        {
          "name": "_stepIndex",
          "type": "uint256"
        }
      ],
      "name": "getFOMORewardIofo",
      "outputs": [],
      "payable": false,
      "stateMutability": "nonpayable",
      "type": "function",
      "signature": "0x1e7efbc9"
    },
    {
      "constant": false,
      "inputs": [
        {
          "name": "_stepIndex",
          "type": "uint256"
        }
      ],
      "name": "getLuckyRewardInfo",
      "outputs": [],
      "payable": false,
      "stateMutability": "nonpayable",
      "type": "function",
      "signature": "0x3723e1c2"
    },
    {
      "constant": false,
      "inputs": [],
      "name": "getFaithRewardInfo",
      "outputs": [],
      "payable": false,
      "stateMutability": "nonpayable",
      "type": "function",
      "signature": "0x0c214602"
    },
    {
      "constant": false,
      "inputs": [],
      "name": "updateBuildingPercent",
      "outputs": [],
      "payable": false,
      "stateMutability": "nonpayable",
      "type": "function",
      "signature": "0xaf041d87"
    }
  ],
  "bytecode": "0x60806040526007805460ff19908116909155600a8054603292169190911761ff00191661320017905534801561003457600080fd5b506040516080806120a38339810180604052608081101561005457600080fd5b508051602080830151604080850151606090950151336000908152938490529220805460ff191660019081179091558054600160a060020a03948516600160a060020a03199182161790915560028054928516928216929092179091556003805494841694821694909417909355600480549290911691909216179055611fc3806100e06000396000f3fe608060405234801561001057600080fd5b50600436106101e95760003560e060020a9004806361afd5ac116101135780639b32a778116100a6578063bc8a5bb211610075578063bc8a5bb2146106c4578063c4a85bc1146106e1578063d746357314610707578063da03095c1461070f576101e9565b80639b32a7781461064d5780639d7e0c8614610679578063abdd11a81461069f578063af041d87146106bc576101e9565b80638d8276be116100e25780638d8276be146105575780639263434e1461055f57806395bbde881461058557806398e24c061461062a576101e9565b806361afd5ac14610504578063743acbab1461052a57806374ebae06146105325780638a18854b1461053a576101e9565b80632734189a1161018b5780633aecd0e31161015a5780633aecd0e3146104845780633bb66a7b146104aa5780634ceb1f13146104d057806350300120146104fc576101e9565b80632734189a1461038b57806330f42bf6146103a55780633723e1c2146103c257806338eeea0c146103df576101e9565b806311228a27116101c757806311228a27146102a55780631c5ce1571461034a5780631e7efbc91461035257806325d8e97f1461036f576101e9565b80630c214602146101ee5780630c5d0c56146101f857806310398aa814610200575b600080fd5b6101f661072e565b005b6101f6610864565b6101f66004803603604081101561021657600080fd5b81019060208101813564010000000081111561023157600080fd5b82018360208201111561024357600080fd5b8035906020019184602083028401116401000000008311171561026557600080fd5b9190808060200260200160405190810160405280939291908181526020018383602002808284376000920191909152509295505091359250610876915050565b6101f6600480360360408110156102bb57600080fd5b8101906020810181356401000000008111156102d657600080fd5b8201836020820111156102e857600080fd5b8035906020019184602083028401116401000000008311171561030a57600080fd5b9190808060200260200160405190810160405280939291908181526020018383602002808284376000920191909152509295505091359250610b15915050565b6101f6610d3f565b6101f66004803603602081101561036857600080fd5b5035610eb9565b610377610ffa565b604080519115158252519081900360200190f35b610393611027565b60408051918252519081900360200190f35b6101f6600480360360208110156103bb57600080fd5b5035611085565b6101f6600480360360208110156103d857600080fd5b50356110e1565b6101f6600480360360408110156103f557600080fd5b81019060208101813564010000000081111561041057600080fd5b82018360208201111561042257600080fd5b8035906020019184602083028401116401000000008311171561044457600080fd5b919080806020026020016040519081016040528093929190818152602001838360200280828437600092019190915250929550509135925061119c915050565b6103936004803603602081101561049a57600080fd5b5035600160a060020a03166113c1565b610393600480360360208110156104c057600080fd5b5035600160a060020a0316611434565b6101f6600480360360408110156104e657600080fd5b50600160a060020a0381351690602001356114a7565b6101f661151a565b6101f66004803603602081101561051a57600080fd5b5035600160a060020a031661152c565b6103776115a4565b610377611605565b6101f66004803603602081101561055057600080fd5b503561162f565b61039361177a565b6103936004803603602081101561057557600080fd5b5035600160a060020a03166117d8565b6103776004803603604081101561059b57600080fd5b8101906020810181356401000000008111156105b657600080fd5b8201836020820111156105c857600080fd5b803590602001918460208302840111640100000000831117156105ea57600080fd5b91908080602002602001604051908101604052809392919081815260200183836020028082843760009201919091525092955050913592506117f3915050565b6103776004803603604081101561064057600080fd5b5080359060200135611a1f565b6101f66004803603604081101561066357600080fd5b50600160a060020a038135169060200135611b6e565b6103936004803603602081101561068f57600080fd5b5035600160a060020a0316611be1565b6101f6600480360360208110156106b557600080fd5b5035611bfc565b6101f6611c58565b6101f6600480360360208110156106da57600080fd5b5035611d93565b6101f6600480360360208110156106f757600080fd5b5035600160a060020a0316611def565b610393611e6a565b6101f66004803603602081101561072557600080fd5b50351515611ec8565b60048054604080517fc62461cc0000000000000000000000000000000000000000000000000000000081529051600160a060020a039092169263c62461cc92828201926000929082900301818387803b15801561078a57600080fd5b505af115801561079e573d6000803e3d6000fd5b505050506040513d6000823e601f3d908101601f1916820160409081528110156107c757600080fd5b8101908080516401000000008111156107df57600080fd5b820160208101848111156107f257600080fd5b815185602082028301116401000000008211171561080f57600080fd5b5050929190602001805164010000000081111561082b57600080fd5b8201602081018481111561083e57600080fd5b815185602082028301116401000000008211171561085b57600080fd5b50505050505050565b326000908152600c6020526040812055565b3360009081526020819052604090205460ff1615156108cd576040805160e560020a62461bcd02815260206004820152601b6024820152600080516020611f78833981519152604482015290519081900360640190fd5b6002546008546040517fc21a774300000000000000000000000000000000000000000000000000000000815260048101828152604482018590526060602483018181528751606485015287519195600160a060020a03169463c21a7743949093899389939192608401906020808701910280838360005b8381101561095c578181015183820152602001610944565b50505050905001945050505050600060405180830381600087803b15801561098357600080fd5b505af1158015610997573d6000803e3d6000fd5b505050506040513d6000823e601f3d908101601f1916820160405260208110156109c057600080fd5b8101908080516401000000008111156109d857600080fd5b820160208101848111156109eb57600080fd5b8151856020820283011164010000000082111715610a0857600080fd5b50909450600093505050505b8151811015610b0f576002546008548351600160a060020a039092169163509b49e99190859085908110610a4457fe5b906020019060200201516040518363ffffffff1660e060020a0281526004018083815260200182600160a060020a0316600160a060020a031681526020019250505060206040518083038186803b158015610a9e57600080fd5b505afa158015610ab2573d6000803e3d6000fd5b505050506040513d6020811015610ac857600080fd5b50518251600b90600090859085908110610ade57fe5b6020908102909101810151600160a060020a0316825281019190915260400160002080549091019055600101610a14565b50505050565b3360009081526020819052604090205460ff161515610b6c576040805160e560020a62461bcd02815260206004820152601b6024820152600080516020611f78833981519152604482015290519081900360640190fd5b6001546008546040517fa5fa79760000000000000000000000000000000000000000000000000000000081526004810182815260448201859052606060248301908152865160648401528651600160a060020a039095169463a5fa797694938893889390929091608401906020808701910280838360005b83811015610bfc578181015183820152602001610be4565b50505050905001945050505050600060405180830381600087803b158015610c2357600080fd5b505af1158015610c37573d6000803e3d6000fd5b506000925050505b8251811015610d3a576001546008548451600160a060020a03909216916365922b749190869085908110610c6f57fe5b906020019060200201516040518363ffffffff1660e060020a0281526004018083815260200182600160a060020a0316600160a060020a031681526020019250505060206040518083038186803b158015610cc957600080fd5b505afa158015610cdd573d6000803e3d6000fd5b505050506040513d6020811015610cf357600080fd5b50518351600b90600090869085908110610d0957fe5b6020908102909101810151600160a060020a0316825281019190915260400160002080549091019055600101610c3f565b505050565b3360009081526020819052604090205460ff161515610d96576040805160e560020a62461bcd02815260206004820152601b6024820152600080516020611f78833981519152604482015290519081900360640190fd5b73__UintUtils_____________________________63669dafe86308f0d1806040518263ffffffff1660e060020a0281526004018082815260200191505060206040518083038186803b158015610dec57600080fd5b505af4158015610e00573d6000803e3d6000fd5b505050506040513d6020811015610e1657600080fd5b5051600555604080517f669dafe80000000000000000000000000000000000000000000000000000000081526216e3606004820152905173__UintUtils_____________________________9163669dafe8916024808301926020929190829003018186803b158015610e8857600080fd5b505af4158015610e9c573d6000803e3d6000fd5b505050506040513d6020811015610eb257600080fd5b5051600955565b600254604080517f2889cc07000000000000000000000000000000000000000000000000000000008152600481018490529051600160a060020a0390921691632889cc079160248082019260009290919082900301818387803b158015610f1f57600080fd5b505af1158015610f33573d6000803e3d6000fd5b505050506040513d6000823e601f3d908101601f191682016040908152811015610f5c57600080fd5b810190808051640100000000811115610f7457600080fd5b82016020810184811115610f8757600080fd5b8151856020820283011164010000000082111715610fa457600080fd5b50509291906020018051640100000000811115610fc057600080fd5b82016020810184811115610fd357600080fd5b8151856020820283011164010000000082111715610ff057600080fd5b5050505050505050565b6000600654421015801561101357506006546170800142105b1561102057506001611024565b5060005b90565b3360009081526020819052604081205460ff16151561107e576040805160e560020a62461bcd02815260206004820152601b6024820152600080516020611f78833981519152604482015290519081900360640190fd5b5060055490565b3360009081526020819052604090205460ff1615156110dc576040805160e560020a62461bcd02815260206004820152601b6024820152600080516020611f78833981519152604482015290519081900360640190fd5b600555565b600354604080517f49327441000000000000000000000000000000000000000000000000000000008152600481018490529051600160a060020a039092169163493274419160248082019260009290919082900301818387803b15801561114757600080fd5b505af115801561115b573d6000803e3d6000fd5b505050506040513d6000823e601f3d908101601f19168201604090815281101561118457600080fd5b81019080805164010000000081111561082b57600080fd5b3360009081526020819052604090205460ff1615156111f3576040805160e560020a62461bcd02815260206004820152601b6024820152600080516020611f78833981519152604482015290519081900360640190fd5b6003546008546040517fac197f920000000000000000000000000000000000000000000000000000000081526004810182815260448201859052606060248301908152865160648401528651600160a060020a039095169463ac197f9294938893889390929091608401906020808701910280838360005b8381101561128357818101518382015260200161126b565b50505050905001945050505050600060405180830381600087803b1580156112aa57600080fd5b505af11580156112be573d6000803e3d6000fd5b506000925050505b8251811015610d3a576003546008548451600160a060020a039092169163dd572ab991908690859081106112f657fe5b906020019060200201516040518363ffffffff1660e060020a0281526004018083815260200182600160a060020a0316600160a060020a031681526020019250505060206040518083038186803b15801561135057600080fd5b505afa158015611364573d6000803e3d6000fd5b505050506040513d602081101561137a57600080fd5b50518351600b9060009086908590811061139057fe5b6020908102909101810151600160a060020a03168252810191909152604001600020805490910190556001016112c6565b3360009081526020819052604081205460ff161515611418576040805160e560020a62461bcd02815260206004820152601b6024820152600080516020611f78833981519152604482015290519081900360640190fd5b50600160a060020a03166000908152600c602052604090205490565b3360009081526020819052604081205460ff16151561148b576040805160e560020a62461bcd02815260206004820152601b6024820152600080516020611f78833981519152604482015290519081900360640190fd5b50600160a060020a03166000908152600b602052604090205490565b3360009081526020819052604090205460ff1615156114fe576040805160e560020a62461bcd02815260206004820152601b6024820152600080516020611f78833981519152604482015290519081900360640190fd5b600160a060020a039091166000908152600c6020526040902055565b326000908152600b6020526040812055565b3360009081526020819052604090205460ff161515611583576040805160e560020a62461bcd02815260206004820152601b6024820152600080516020611f78833981519152604482015290519081900360640190fd5b600160a060020a03166000908152602081905260409020805460ff19169055565b3360009081526020819052604081205460ff1615156115fb576040805160e560020a62461bcd02815260206004820152601b6024820152600080516020611f78833981519152604482015290519081900360640190fd5b5060075460ff1690565b60006006546170800142101580156110135750600654620151800142101561102057506001611024565b600154604080517fc79b1245000000000000000000000000000000000000000000000000000000008152600481018490529051600160a060020a039092169163c79b12459160248082019260009290919082900301818387803b15801561169557600080fd5b505af11580156116a9573d6000803e3d6000fd5b505050506040513d6000823e601f3d908101601f1916820160405260608110156116d257600080fd5b8151602083018051919392830192916401000000008111156116f357600080fd5b8201602081018481111561170657600080fd5b815185602082028301116401000000008211171561172357600080fd5b5050929190602001805164010000000081111561173f57600080fd5b8201602081018481111561175257600080fd5b815185602082028301116401000000008211171561176f57600080fd5b505050505050505050565b3360009081526020819052604081205460ff1615156117d1576040805160e560020a62461bcd02815260206004820152601b6024820152600080516020611f78833981519152604482015290519081900360640190fd5b5060095490565b600160a060020a03166000908152600b602052604090205490565b3360009081526020819052604081205460ff16151561184a576040805160e560020a62461bcd02815260206004820152601b6024820152600080516020611f78833981519152604482015290519081900360640190fd5b60048054604080517f1e238d1000000000000000000000000000000000000000000000000000000000815260248101869052928301908152855160448401528551600093600160a060020a0390931692631e238d1092889288928291606490910190602080870191028083838c5b838110156118d05781810151838201526020016118b8565b505050509050019350505050602060405180830381600087803b1580156118f657600080fd5b505af115801561190a573d6000803e3d6000fd5b505050506040513d602081101561192057600080fd5b5051905060005b8451811015611a17576004548551600160a060020a0390911690634a6817879087908490811061195357fe5b906020019060200201516040518263ffffffff1660e060020a0281526004018082600160a060020a0316600160a060020a0316815260200191505060206040518083038186803b1580156119a657600080fd5b505afa1580156119ba573d6000803e3d6000fd5b505050506040513d60208110156119d057600080fd5b50518551600b906000908890859081106119e657fe5b6020908102909101810151600160a060020a0316825281019190915260400160002080549091019055600101611927565b509392505050565b600073__UintUtils_____________________________63669dafe8836040518263ffffffff1660e060020a0281526004018082815260200191505060206040518083038186803b158015611a7357600080fd5b505af4158015611a87573d6000803e3d6000fd5b505050506040513d6020811015611a9d57600080fd5b5051604080517f669dafe800000000000000000000000000000000000000000000000000000000815260048101869052905173__UintUtils_____________________________9163669dafe8916024808301926020929190829003018186803b158015611b0a57600080fd5b505af4158015611b1e573d6000803e3d6000fd5b505050506040513d6020811015611b3457600080fd5b50511015611b4a576007805460ff191660011790555b6005541515611b61576007805460ff191660011790555b5060075460ff1692915050565b3360009081526020819052604090205460ff161515611bc5576040805160e560020a62461bcd02815260206004820152601b6024820152600080516020611f78833981519152604482015290519081900360640190fd5b600160a060020a039091166000908152600b6020526040902055565b600160a060020a03166000908152600c602052604090205490565b3360009081526020819052604090205460ff161515611c53576040805160e560020a62461bcd02815260206004820152601b6024820152600080516020611f78833981519152604482015290519081900360640190fd5b600655565b3360009081526020819052604090205460ff161515611caf576040805160e560020a62461bcd02815260206004820152601b6024820152600080516020611f78833981519152604482015290519081900360640190fd5b600554600010611cf35760405160e560020a62461bcd028152600401808060200182810382526021815260200180611f336021913960400191505060405180910390fd5b600a54604260ff9091161015611d3357600a805461ff001960ff198216600160ff9384160183161790811661010091829004831660001901909216021790555b60085460011115611d785760405160e560020a62461bcd028152600401808060200182810382526024815260200180611f546024913960400191505060405180910390fd5b60085460640a600954606302811515611d8d57fe5b04600955565b3360009081526020819052604090205460ff161515611dea576040805160e560020a62461bcd02815260206004820152601b6024820152600080516020611f78833981519152604482015290519081900360640190fd5b600955565b3360009081526020819052604090205460ff161515611e46576040805160e560020a62461bcd02815260206004820152601b6024820152600080516020611f78833981519152604482015290519081900360640190fd5b600160a060020a03166000908152602081905260409020805460ff19166001179055565b3360009081526020819052604081205460ff161515611ec1576040805160e560020a62461bcd02815260206004820152601b6024820152600080516020611f78833981519152604482015290519081900360640190fd5b5060065490565b3360009081526020819052604090205460ff161515611f1f576040805160e560020a62461bcd02815260206004820152601b6024820152600080516020611f78833981519152604482015290519081900360640190fd5b6007805460ff191691151591909117905556fee585b1e5bbbae8b584e98791e6b1a0e5b7b2e7bb8fe6b688e88097e5ae8ce6af95e7acace4b880e8bdaee695b0e580bce5b7b2e7bb8fe5889de5a78be58c96e8bf87e4ba86e8b083e794a8e88085e6b2a1e69c89e8b083e794a8e69d83e999900000000000a165627a7a72305820afe4987eb453580a17816e3a06c0c5995830463f9756a8c8c6748d65fbf9faa20029",
  "source": "pragma solidity >=0.4.21 <0.6.0;\n\nimport \"../node_modules/openzeppelin-solidity/contracts/math/SafeMath.sol\";\nimport \"./UintUtils.sol\";\nimport \"./FissionReward.sol\";\nimport \"./FOMOReward.sol\";\nimport \"./LuckyReward.sol\";\nimport \"./FaithReward.sol\";\nimport \"./ABCToken.sol\";\n\n/// @title \n/// @dev \ncontract ResonanceDataManage{\n\n    using SafeMath for uint256;\n\n    event WhihdrawAllToken();\n\n    mapping(address => bool) accessAllowed;\n\n    modifier platform() {\n        require(accessAllowed[msg.sender], \"\");\n        _;\n    }\n\n    FissionReward fissionRewardInstance;\n    FOMOReward FOMORewardInstance;\n    LuckyReward luckyRewardInstance;\n    FaithReward faithRewardInstance;\n\n    // \n    uint256 private fundsPool;\n    // \n    uint256 private openingTime;\n    // \n    bool crowdsaleClosed = false;\n    // \n    uint256 currentStep;\n\n    // Token\n    uint256 initBuildingTokenAmount;\n\n    // Token\n    uint8 buildingPercentOfParty = 50;\n\n    // Token\n    uint8 buildingPercentOfCommunity = 50;\n\n    // \n    mapping(address => uint256) private ETHBalance;\n    mapping(address => uint256) private tokenBalance;\n\n    constructor(\n        address _fassionRewardAddress,\n        address _FOMORewardAddress,\n        address _luckyRewardAddress,\n        address _faithRewardAddress\n    ) public {\n        accessAllowed[msg.sender] = true;\n        // \n        fissionRewardInstance = FissionReward(_fassionRewardAddress);\n        FOMORewardInstance = FOMOReward(_FOMORewardAddress);\n        luckyRewardInstance = LuckyReward(_luckyRewardAddress);\n        faithRewardInstance = FaithReward(_faithRewardAddress);\n    }\n\n    function setParamForFirstStep() public platform{\n        fundsPool = UintUtils.toWei(150000000);\n        initBuildingTokenAmount = UintUtils.toWei(1500000);\n    }\n\n    function allowAccess(address _addr) public platform() {\n        accessAllowed[_addr] = true;\n    }\n\n    function denyAccess(address _addr) public platform() {\n        accessAllowed[_addr] = false;\n    }\n\n    function setFundsPool(uint256 _fundsPool) public platform() {\n        fundsPool = _fundsPool;\n    }\n\n    function getFundsPool() public platform() view returns(uint256) {\n        return fundsPool;\n    }\n\n    function setOpeningTime(uint256 _openingTime) public platform() {\n        openingTime = _openingTime;\n    }\n\n    function getOpeningTime() public platform() view returns(uint256){\n        return openingTime;\n    }\n\n    function setCrowdsaleClosed(bool _crowdsaleClosed) public platform() {\n        crowdsaleClosed = _crowdsaleClosed;\n    }\n\n    function getCrowdsaleClosed() public platform() view returns(bool) {\n        return crowdsaleClosed;\n    }\n\n    function getETHBalance(address _addr) public platform() view returns(uint256) {\n        return ETHBalance[_addr];\n    }\n\n    function setETHBalance(address _addr, uint256 _amount) public platform() {\n        ETHBalance[_addr] = _amount;\n    }\n\n    function getTokenBalance(address _addr) public platform() view returns(uint256) {\n        return tokenBalance[_addr];\n    }\n\n    function setTokenBalance(address _addr, uint256 _amount) public platform() {\n        tokenBalance[_addr] = _amount;\n    }\n\n    function getBuildingTokenAmount() public platform() view returns(uint256) {\n        return initBuildingTokenAmount;\n    }\n\n    function setBuildingTokenAmount(uint256 _tokenAmount) public platform() {\n        initBuildingTokenAmount = _tokenAmount;\n    }\n\n    // \n    function isBuildingPeriod() public view returns(bool){\n        if(block.timestamp >= openingTime && block.timestamp < openingTime + 8 hours) {\n            return true;\n        }else{\n            return false;\n        }\n    }\n\n    // \n    function isFundingPeriod() public view returns(bool) {\n        if(block.timestamp >= openingTime + 8 hours && block.timestamp < openingTime + 24 hours) {\n            return true;\n        }else{\n            return false;\n        }\n    }\n\n    /// @notice \n    function crowdsaleIsClosed(\n        uint256 raisedETH,\n        uint256 softCap\n    )\n        public\n        returns(bool)\n    {\n        // 1.\n        if(UintUtils.toWei(raisedETH) < UintUtils.toWei(softCap)) {\n            crowdsaleClosed = true;\n        }\n\n        // 2.\n        if(fundsPool == 0) {\n            crowdsaleClosed = true;\n        }\n\n        return crowdsaleClosed;\n    }\n\n    /// @notice \n    function settlementFissionReward(address[] memory _fissionWinnerList, uint256 totalFissionReward)\n        public\n        platform()\n    {\n        fissionRewardInstance.dealFissionInfo(currentStep, _fissionWinnerList, totalFissionReward);\n        // \n        for(uint i = 0; i < _fissionWinnerList.length; i++){\n            ETHBalance[_fissionWinnerList[i]] += fissionRewardInstance.fissionRewardAmount(currentStep,_fissionWinnerList[i]);\n        }\n    }\n\n    function settlementFOMOReward(address[] memory _funders, uint256 totalFOMOReward)\n        public\n        platform()\n    {\n        address[] memory FOMOWinnerList = FOMORewardInstance.dealFOMOWinner(currentStep, _funders, totalFOMOReward);\n\n        for(uint i = 0; i < FOMOWinnerList.length; i++){\n            ETHBalance[FOMOWinnerList[i]] += FOMORewardInstance.FOMORewardAmount(currentStep,FOMOWinnerList[i]);\n        }\n    }\n\n    function settlementLuckyReward(address[] memory _LuckyWinnerList, uint256 totalLuckyReward)\n        public\n        platform()\n    {\n        luckyRewardInstance.dealLuckyInfo(currentStep, _LuckyWinnerList, totalLuckyReward);\n        for(uint i = 0; i < _LuckyWinnerList.length; i++){\n            ETHBalance[_LuckyWinnerList[i]] += luckyRewardInstance.luckyRewardAmount(currentStep,_LuckyWinnerList[i]);\n        }\n    }\n\n    function dmSettlementFaithReward(address[] memory _faithWinners, uint256 totalFaithReward)\n        public\n        platform()\n        returns(bool)\n    {\n        bool faithRewardFinished = faithRewardInstance.dealFaithWinner(_faithWinners, totalFaithReward);\n\n        for(uint i = 0; i < _faithWinners.length; i++){\n            ETHBalance[_faithWinners[i]] += faithRewardInstance.faithRewardAmount(_faithWinners[i]);\n        }\n        return faithRewardFinished;\n    }\n\n    /// @notice Token\n    /// @dev \n    function withdrawTokenAmount(address _addr) public view returns (uint256) {\n        return tokenBalance[_addr];\n    }\n\n    /// @notice ETH\n    /// @dev \n    function withdrawETHAmount(address _addr) public view returns (uint256) {\n        return ETHBalance[_addr];\n    }\n\n    function emptyTokenBalance() public {\n        tokenBalance[tx.origin] = 0;\n    }\n\n    function emptyETHBalance() public {\n        ETHBalance[tx.origin] = 0;\n    }\n\n    /// @notice \n    /// @dev \n    /// @param _stepIndex \n    function getFissionRewardInfo(uint256 _stepIndex)\n        public\n    {\n        fissionRewardInstance.getFissionInfo(_stepIndex);\n    }\n\n    /// @notice FOMO\n    /// @dev FOMO\n    /// @param _stepIndex \n    function getFOMORewardIofo(uint256 _stepIndex)\n        public\n    {\n        FOMORewardInstance.getFOMOWinnerInfo(_stepIndex);\n    }\n\n    /// @notice \n    /// @dev \n    /// @param _stepIndex \n    function getLuckyRewardInfo(uint256 _stepIndex)\n        public\n    {\n        luckyRewardInstance.getLuckyInfo(_stepIndex);\n    }\n\n    /// @notice \n    /// @dev \n    function getFaithRewardInfo()\n        public\n    {\n        faithRewardInstance.getFaithWinnerInfo();\n    }\n\n    /// @notice \n    function updateBuildingPercent() public platform() {\n        require(fundsPool > 0, \"\");\n        // +1%-1%\n        if(buildingPercentOfParty < 66){\n            buildingPercentOfParty += 1;\n            buildingPercentOfCommunity -= 1;\n        }\n        require(currentStep >= 1, \"\");\n        initBuildingTokenAmount = initBuildingTokenAmount * 99 / 100 ** currentStep;\n    }\n\n}",
  "sourcePath": "/Users/a186r/dev/sourcecode/contracts/contract/contract/contracts/ResonanceDataManage.sol",
  "compiler": {
    "name": "solc",
    "version": "0.5.2+commit.1df8f40c.Emscripten.clang"
  },
  "schemaVersion": "3.0.6",
  "updatedAt": "2019-05-27T02:25:00.280Z",
  "devdoc": {
    "details": "",
    "methods": {
      "getFOMORewardIofo(uint256)": {
        "details": "FOMO",
        "params": {
          "_stepIndex": ""
        }
      },
      "getFaithRewardInfo()": {
        "details": ""
      },
      "getFissionRewardInfo(uint256)": {
        "details": "",
        "params": {
          "_stepIndex": ""
        }
      },
      "getLuckyRewardInfo(uint256)": {
        "details": "",
        "params": {
          "_stepIndex": ""
        }
      },
      "withdrawETHAmount(address)": {
        "details": ""
      },
      "withdrawTokenAmount(address)": {
        "details": ""
      }
    },
    "title": ""
  },
  "userdoc": {
    "methods": {
      "crowdsaleIsClosed(uint256,uint256)": {
        "notice": ""
      },
      "getFOMORewardIofo(uint256)": {
        "notice": "FOMO"
      },
      "getFaithRewardInfo()": {
        "notice": ""
      },
      "getFissionRewardInfo(uint256)": {
        "notice": ""
      },
      "getLuckyRewardInfo(uint256)": {
        "notice": ""
      },
      "settlementFissionReward(address[],uint256)": {
        "notice": ""
      },
      "updateBuildingPercent()": {
        "notice": ""
      },
      "withdrawETHAmount(address)": {
        "notice": "ETH"
      },
      "withdrawTokenAmount(address)": {
        "notice": "Token"
      }
    }
  }
}