{
  "contractName": "Resonance",
  "abi": [
    {
      "constant": false,
      "inputs": [],
      "name": "renounceOwnership",
      "outputs": [],
      "payable": false,
      "stateMutability": "nonpayable",
      "type": "function",
      "signature": "0x715018a6"
    },
    {
      "constant": true,
      "inputs": [],
      "name": "owner",
      "outputs": [
        {
          "name": "",
          "type": "address"
        }
      ],
      "payable": false,
      "stateMutability": "view",
      "type": "function",
      "signature": "0x8da5cb5b"
    },
    {
      "constant": true,
      "inputs": [],
      "name": "isOwner",
      "outputs": [
        {
          "name": "",
          "type": "bool"
        }
      ],
      "payable": false,
      "stateMutability": "view",
      "type": "function",
      "signature": "0x8f32d59b"
    },
    {
      "constant": true,
      "inputs": [
        {
          "name": "",
          "type": "address"
        }
      ],
      "name": "ETHBalance",
      "outputs": [
        {
          "name": "",
          "type": "uint256"
        }
      ],
      "payable": false,
      "stateMutability": "view",
      "type": "function",
      "signature": "0xa815119d"
    },
    {
      "constant": true,
      "inputs": [],
      "name": "abcToken",
      "outputs": [
        {
          "name": "",
          "type": "address"
        }
      ],
      "payable": false,
      "stateMutability": "view",
      "type": "function",
      "signature": "0xe7574128"
    },
    {
      "constant": true,
      "inputs": [
        {
          "name": "",
          "type": "address"
        }
      ],
      "name": "tokenBalance",
      "outputs": [
        {
          "name": "",
          "type": "uint256"
        }
      ],
      "payable": false,
      "stateMutability": "view",
      "type": "function",
      "signature": "0xeedc966a"
    },
    {
      "constant": false,
      "inputs": [
        {
          "name": "newOwner",
          "type": "address"
        }
      ],
      "name": "transferOwnership",
      "outputs": [],
      "payable": false,
      "stateMutability": "nonpayable",
      "type": "function",
      "signature": "0xf2fde38b"
    },
    {
      "inputs": [
        {
          "name": "_abcToken",
          "type": "address"
        },
        {
          "name": "_beneficiary",
          "type": "address"
        },
        {
          "name": "_initialFissionPerson",
          "type": "address"
        },
        {
          "name": "_fassionRewardAddress",
          "type": "address"
        },
        {
          "name": "_FOMORewardAddress",
          "type": "address"
        },
        {
          "name": "_luckyRewardAddress",
          "type": "address"
        },
        {
          "name": "_faithRewardAddress",
          "type": "address"
        }
      ],
      "payable": false,
      "stateMutability": "nonpayable",
      "type": "constructor",
      "signature": "constructor"
    },
    {
      "payable": true,
      "stateMutability": "payable",
      "type": "fallback"
    },
    {
      "anonymous": false,
      "inputs": [
        {
          "indexed": true,
          "name": "fissionPerson",
          "type": "address"
        },
        {
          "indexed": true,
          "name": "promoter",
          "type": "address"
        }
      ],
      "name": "ToBeFissionPerson",
      "type": "event",
      "signature": "0x95b9b14e81807a19f0d780820ad803eba32584f0671e1410f6815a83e75d4ef7"
    },
    {
      "anonymous": false,
      "inputs": [
        {
          "indexed": false,
          "name": "currentStepTokenAmount",
          "type": "uint256"
        },
        {
          "indexed": false,
          "name": "currentStepRaisedETH",
          "type": "uint256"
        }
      ],
      "name": "FundsInfo",
      "type": "event",
      "signature": "0xefb17818fcd18149842dc8ec26c8d51b1f7cd86669024d8ad385c95727e301b2"
    },
    {
      "anonymous": false,
      "inputs": [
        {
          "indexed": false,
          "name": "bpCountdown",
          "type": "uint256"
        },
        {
          "indexed": false,
          "name": "remainingToken",
          "type": "uint256"
        },
        {
          "indexed": false,
          "name": "personalTokenLimited",
          "type": "uint256"
        },
        {
          "indexed": false,
          "name": "totalTokenAmount",
          "type": "uint256"
        }
      ],
      "name": "BuildingPerioInfo",
      "type": "event",
      "signature": "0xe11de7dbf210471e3fa9c2ce8526b79b1202a34755ab39aa0ee452e2de7dd9e3"
    },
    {
      "anonymous": false,
      "inputs": [
        {
          "indexed": false,
          "name": "fpCountdown",
          "type": "uint256"
        },
        {
          "indexed": false,
          "name": "remainingETH",
          "type": "uint256"
        },
        {
          "indexed": false,
          "name": "rasiedETHAmount",
          "type": "uint256"
        }
      ],
      "name": "FundingPeriodInfo",
      "type": "event",
      "signature": "0xae8973493d4c3e41a9615da7dbb45a3e85e217ab826ebf232f236520f89ce5bd"
    },
    {
      "anonymous": false,
      "inputs": [
        {
          "indexed": false,
          "name": "fissionRewardList",
          "type": "address[]"
        },
        {
          "indexed": false,
          "name": "fissionRewardAmount",
          "type": "uint256[]"
        }
      ],
      "name": "FissionRewardInfo",
      "type": "event",
      "signature": "0x9c8d21d9775b290867a96ccd228b84fc35453ac06e714f5717f74c84dd962d7e"
    },
    {
      "anonymous": false,
      "inputs": [
        {
          "indexed": false,
          "name": "FOMORewardList",
          "type": "address[]"
        },
        {
          "indexed": false,
          "name": "FOMORewards",
          "type": "uint256[]"
        }
      ],
      "name": "FOMORewardInfo",
      "type": "event",
      "signature": "0x6b6aaf38bd1fe94894a8361f3d343ec41c4c18c8cde782e6c3a7d98f64a60a37"
    },
    {
      "anonymous": false,
      "inputs": [
        {
          "indexed": false,
          "name": "luckyRewardList",
          "type": "address[]"
        },
        {
          "indexed": false,
          "name": "luckyReward",
          "type": "uint256"
        }
      ],
      "name": "LuckyRewardInfo",
      "type": "event",
      "signature": "0xdb5afb48b961706eba89e5cf3ab5ae37dc9c360703069de0c2a6669f7e0f4b31"
    },
    {
      "anonymous": false,
      "inputs": [
        {
          "indexed": false,
          "name": "faithRewardList",
          "type": "address[]"
        },
        {
          "indexed": false,
          "name": "faithRewardAmount",
          "type": "uint256[]"
        }
      ],
      "name": "FaithRewardInfo",
      "type": "event",
      "signature": "0xe7e0e5e0f865e7ed55d089ae13321715f110f39374632f8891058404d5955916"
    },
    {
      "anonymous": false,
      "inputs": [
        {
          "indexed": false,
          "name": "addr",
          "type": "address"
        },
        {
          "indexed": false,
          "name": "ETHAmount",
          "type": "uint256"
        }
      ],
      "name": "WithdrawAllETH",
      "type": "event",
      "signature": "0x293d21fe426f090ce1ced07545832d833ba5245d1ca5dab39eedd683bcb26c71"
    },
    {
      "anonymous": false,
      "inputs": [
        {
          "indexed": false,
          "name": "from",
          "type": "address"
        },
        {
          "indexed": false,
          "name": "to",
          "type": "address"
        },
        {
          "indexed": false,
          "name": "tokenAmount",
          "type": "uint256"
        }
      ],
      "name": "WhihdrawAllToken",
      "type": "event",
      "signature": "0x5ffdbbc3abdbeeb4216a0d708cef18d039ed61b0fcb5e4557e2ba42583e196c2"
    },
    {
      "anonymous": false,
      "inputs": [
        {
          "indexed": false,
          "name": "FunderInfoArray",
          "type": "uint256[]"
        }
      ],
      "name": "FunderInfo",
      "type": "event",
      "signature": "0x04c808a514c1dafc38d056ce8d726701d153e5560559e9a2cbd4a698fc57dbc9"
    },
    {
      "anonymous": false,
      "inputs": [
        {
          "indexed": false,
          "name": "funderAddress",
          "type": "address[]"
        },
        {
          "indexed": false,
          "name": "funderTokenAmount",
          "type": "uint256[]"
        },
        {
          "indexed": false,
          "name": "funderETHAmount",
          "type": "uint256[]"
        },
        {
          "indexed": false,
          "name": "funderInvitees",
          "type": "uint256[]"
        },
        {
          "indexed": false,
          "name": "funderEarnFromAff",
          "type": "uint256[]"
        }
      ],
      "name": "StepFunders",
      "type": "event",
      "signature": "0x3b87f7808c5ab95853c64302b46442fcc67c01ce3ca71e707da509a4100e6afc"
    },
    {
      "anonymous": false,
      "inputs": [
        {
          "indexed": false,
          "name": "stepIndex",
          "type": "uint256"
        }
      ],
      "name": "SettlementStep",
      "type": "event",
      "signature": "0x884a42ea07d12dfb8a666018fad8dc91f2752bdabafca21fc534fefc1305355f"
    },
    {
      "anonymous": false,
      "inputs": [
        {
          "indexed": false,
          "name": "stepIndex",
          "type": "uint256"
        }
      ],
      "name": "StartNextStep",
      "type": "event",
      "signature": "0xeb4f8ce27ee2f036ff2d0bc02908be44cba9da8349185d0b9f996732fb77f07e"
    },
    {
      "anonymous": false,
      "inputs": [
        {
          "indexed": false,
          "name": "stepIndex",
          "type": "uint256"
        },
        {
          "indexed": false,
          "name": "raiseTarget",
          "type": "uint256"
        }
      ],
      "name": "SetRaiseTarget",
      "type": "event",
      "signature": "0xa0065ef53daacd0859dd1ca5cdda1a90bd236db58dc67e1c6c9888afb8b7c934"
    },
    {
      "anonymous": false,
      "inputs": [
        {
          "indexed": false,
          "name": "resonances",
          "type": "address[]"
        }
      ],
      "name": "GetResonances",
      "type": "event",
      "signature": "0x239ea09ed3b2c5ca6c811a840e58b3dc40f4591da5f559b32893f99e968b419c"
    },
    {
      "anonymous": false,
      "inputs": [
        {
          "indexed": false,
          "name": "resonancesRasiedETH",
          "type": "uint256"
        }
      ],
      "name": "FunderTotalRaised",
      "type": "event",
      "signature": "0x33bd212310efc1b994689137ddaaea56136d0cb5b0491d1eb3b4cc3fce4428c1"
    },
    {
      "anonymous": false,
      "inputs": [
        {
          "indexed": true,
          "name": "previousOwner",
          "type": "address"
        },
        {
          "indexed": true,
          "name": "newOwner",
          "type": "address"
        }
      ],
      "name": "OwnershipTransferred",
      "type": "event",
      "signature": "0x8be0079c531659141344cd1fd0a4f28419497f9722a3daafe3b4186f6b6457e0"
    },
    {
      "constant": false,
      "inputs": [
        {
          "name": "promoter",
          "type": "address"
        }
      ],
      "name": "toBeFissionPerson",
      "outputs": [],
      "payable": false,
      "stateMutability": "nonpayable",
      "type": "function",
      "signature": "0xde3844ff"
    },
    {
      "constant": false,
      "inputs": [
        {
          "name": "_raiseTarget",
          "type": "uint256"
        }
      ],
      "name": "setRaiseTarget",
      "outputs": [],
      "payable": false,
      "stateMutability": "nonpayable",
      "type": "function",
      "signature": "0x4559ff9b"
    },
    {
      "constant": false,
      "inputs": [
        {
          "name": "_tokenAmount",
          "type": "uint256"
        }
      ],
      "name": "jointlyBuild",
      "outputs": [],
      "payable": false,
      "stateMutability": "nonpayable",
      "type": "function",
      "signature": "0xb4862a71"
    },
    {
      "constant": false,
      "inputs": [
        {
          "name": "_fissionWinnerList",
          "type": "address[]"
        },
        {
          "name": "_LuckyWinnerList",
          "type": "address[]"
        }
      ],
      "name": "settlementStep",
      "outputs": [
        {
          "name": "",
          "type": "bool"
        }
      ],
      "payable": false,
      "stateMutability": "nonpayable",
      "type": "function",
      "signature": "0xb5ac72b5"
    },
    {
      "constant": false,
      "inputs": [
        {
          "name": "_FaithWinnerList",
          "type": "address[]"
        }
      ],
      "name": "settlementFaithReward",
      "outputs": [
        {
          "name": "",
          "type": "bool"
        }
      ],
      "payable": false,
      "stateMutability": "nonpayable",
      "type": "function",
      "signature": "0x5deac38b"
    },
    {
      "constant": false,
      "inputs": [],
      "name": "withdrawAllToken",
      "outputs": [],
      "payable": true,
      "stateMutability": "payable",
      "type": "function",
      "signature": "0x14870d2c"
    },
    {
      "constant": false,
      "inputs": [],
      "name": "withdrawAllETH",
      "outputs": [],
      "payable": true,
      "stateMutability": "payable",
      "type": "function",
      "signature": "0x90386bbf"
    },
    {
      "constant": true,
      "inputs": [],
      "name": "isBuilder",
      "outputs": [
        {
          "name": "",
          "type": "bool"
        }
      ],
      "payable": false,
      "stateMutability": "view",
      "type": "function",
      "signature": "0x54b94615"
    },
    {
      "constant": true,
      "inputs": [],
      "name": "isFunder",
      "outputs": [
        {
          "name": "",
          "type": "bool"
        }
      ],
      "payable": false,
      "stateMutability": "view",
      "type": "function",
      "signature": "0xfeaec775"
    },
    {
      "constant": false,
      "inputs": [],
      "name": "getResonances",
      "outputs": [],
      "payable": false,
      "stateMutability": "nonpayable",
      "type": "function",
      "signature": "0x891d7e79"
    },
    {
      "constant": false,
      "inputs": [
        {
          "name": "_funder",
          "type": "address"
        }
      ],
      "name": "getFunderTotalRaised",
      "outputs": [],
      "payable": false,
      "stateMutability": "nonpayable",
      "type": "function",
      "signature": "0xe15ce927"
    },
    {
      "constant": false,
      "inputs": [
        {
          "name": "_stepIndex",
          "type": "uint256"
        }
      ],
      "name": "getStepFunders",
      "outputs": [],
      "payable": false,
      "stateMutability": "nonpayable",
      "type": "function",
      "signature": "0x16b29746"
    },
    {
      "constant": false,
      "inputs": [],
      "name": "getCurrentStepFundsInfo",
      "outputs": [],
      "payable": false,
      "stateMutability": "nonpayable",
      "type": "function",
      "signature": "0x912c84ec"
    },
    {
      "constant": false,
      "inputs": [],
      "name": "getBuildingPerioInfo",
      "outputs": [],
      "payable": false,
      "stateMutability": "nonpayable",
      "type": "function",
      "signature": "0x64ab07fa"
    },
    {
      "constant": false,
      "inputs": [],
      "name": "getFundingPeriodInfo",
      "outputs": [],
      "payable": false,
      "stateMutability": "nonpayable",
      "type": "function",
      "signature": "0xc12cd1bc"
    },
    {
      "constant": false,
      "inputs": [
        {
          "name": "_stepIndex",
          "type": "uint256"
        }
      ],
      "name": "getFissionRewardInfo",
      "outputs": [],
      "payable": false,
      "stateMutability": "nonpayable",
      "type": "function",
      "signature": "0x8a18854b"
    },
    {
      "constant": false,
      "inputs": [
        {
          "name": "_stepIndex",
          "type": "uint256"
        }
      ],
      "name": "getFOMORewardIofo",
      "outputs": [],
      "payable": false,
      "stateMutability": "nonpayable",
      "type": "function",
      "signature": "0x1e7efbc9"
    },
    {
      "constant": false,
      "inputs": [
        {
          "name": "_stepIndex",
          "type": "uint256"
        }
      ],
      "name": "getLuckyRewardInfo",
      "outputs": [],
      "payable": false,
      "stateMutability": "nonpayable",
      "type": "function",
      "signature": "0x3723e1c2"
    },
    {
      "constant": false,
      "inputs": [],
      "name": "getFaithRewardInfo",
      "outputs": [],
      "payable": false,
      "stateMutability": "nonpayable",
      "type": "function",
      "signature": "0x0c214602"
    },
    {
      "constant": false,
      "inputs": [
        {
          "name": "_funder",
          "type": "address"
        }
      ],
      "name": "getFunderInfo",
      "outputs": [],
      "payable": false,
      "stateMutability": "nonpayable",
      "type": "function",
      "signature": "0xee12d622"
    },
    {
      "constant": true,
      "inputs": [],
      "name": "crowdsaleIsRunning",
      "outputs": [
        {
          "name": "",
          "type": "bool"
        }
      ],
      "payable": false,
      "stateMutability": "view",
      "type": "function",
      "signature": "0x92ef4fe4"
    },
    {
      "constant": true,
      "inputs": [],
      "name": "Beneficiary",
      "outputs": [
        {
          "name": "",
          "type": "address"
        }
      ],
      "payable": false,
      "stateMutability": "view",
      "type": "function",
      "signature": "0x73d55379"
    },
    {
      "constant": true,
      "inputs": [],
      "name": "getBlockHash",
      "outputs": [
        {
          "name": "blockHash",
          "type": "bytes32"
        }
      ],
      "payable": false,
      "stateMutability": "view",
      "type": "function",
      "signature": "0x9663f88f"
    }
  ],
  "bytecode": "0x60806040526000600560006101000a81548160ff0219169083151502179055503480156200002c57600080fd5b5060405160e08062006291833981018060405260e08110156200004e57600080fd5b8101908080519060200190929190805190602001909291908051906020019092919080519060200190929190805190602001909291908051906020019092919080519060200190929190505050336000806101000a81548173ffffffffffffffffffffffffffffffffffffffff021916908373ffffffffffffffffffffffffffffffffffffffff1602179055506000809054906101000a900473ffffffffffffffffffffffffffffffffffffffff1673ffffffffffffffffffffffffffffffffffffffff16600073ffffffffffffffffffffffffffffffffffffffff167f8be0079c531659141344cd1fd0a4f28419497f9722a3daafe3b4186f6b6457e060405160405180910390a36000600d8190555086600160006101000a81548173ffffffffffffffffffffffffffffffffffffffff021916908373ffffffffffffffffffffffffffffffffffffffff16021790555085600360006101000a81548173ffffffffffffffffffffffffffffffffffffffff021916908373ffffffffffffffffffffffffffffffffffffffff16021790555084600f60006101000a81548173ffffffffffffffffffffffffffffffffffffffff021916908373ffffffffffffffffffffffffffffffffffffffff1602179055504260048190555083600560016101000a81548173ffffffffffffffffffffffffffffffffffffffff021916908373ffffffffffffffffffffffffffffffffffffffff16021790555082600660006101000a81548173ffffffffffffffffffffffffffffffffffffffff021916908373ffffffffffffffffffffffffffffffffffffffff16021790555081600760006101000a81548173ffffffffffffffffffffffffffffffffffffffff021916908373ffffffffffffffffffffffffffffffffffffffff16021790555080600860006101000a81548173ffffffffffffffffffffffffffffffffffffffff021916908373ffffffffffffffffffffffffffffffffffffffff16021790555050505050505050615f4d80620003446000396000f3fe6080604052600436106101ea576000357c01000000000000000000000000000000000000000000000000000000009004806390386bbf11610114578063c12cd1bc116100b2578063ee12d62211610081578063ee12d62214610bba578063eedc966a14610c0b578063f2fde38b14610c70578063feaec77514610cc1576101ea565b8063c12cd1bc14610aaa578063de3844ff14610ac1578063e15ce92714610b12578063e757412814610b63576101ea565b80639663f88f116100ee5780639663f88f1461086e578063a815119d14610899578063b4862a71146108fe578063b5ac72b514610939576101ea565b806390386bbf1461081e578063912c84ec1461082857806392ef4fe41461083f576101ea565b80635deac38b1161018c578063891d7e791161015b578063891d7e79146107465780638a18854b1461075d5780638da5cb5b146107985780638f32d59b146107ef576101ea565b80635deac38b146105e457806364ab07fa146106c1578063715018a6146106d857806373d55379146106ef576101ea565b80631e7efbc9116101c85780631e7efbc9146105045780633723e1c21461053f5780634559ff9b1461057a57806354b94615146105b5576101ea565b80630c214602146104a857806314870d2c146104bf57806316b29746146104c9575b6170806004540142101580156102065750620151806004540142105b151561027a576040517f08c379a00000000000000000000000000000000000000000000000000000000081526004018080602001828103825260128152602001807fe4b88de59ca8e58b9fe8b584e69c9fe58685000000000000000000000000000081525060200191505060405180910390fd5b610282610cf0565b15156102f6576040517f08c379a00000000000000000000000000000000000000000000000000000000081526004018080602001828103825260128152602001807fe585b1e68cafe5b7b2e7bb8fe7bb93e69d9f000000000000000000000000000081525060200191505060405180910390fd5b600034905080600e6000600d54815260200190815260200160002060000160003373ffffffffffffffffffffffffffffffffffffffff1673ffffffffffffffffffffffffffffffffffffffff168152602001908152602001600020600201819055506001600e6000600d54815260200190815260200160002060000160003373ffffffffffffffffffffffffffffffffffffffff1673ffffffffffffffffffffffffffffffffffffffff16815260200190815260200160002060050160156101000a81548160ff02191690831515021790555080600e6000600d54815260200190815260200160002060060160010160008282540192505081905550600b3390806001815401808255809150509060018203906000526020600020016000909192909190916101000a81548173ffffffffffffffffffffffffffffffffffffffff021916908373ffffffffffffffffffffffffffffffffffffffff1602179055505080600c60003373ffffffffffffffffffffffffffffffffffffffff1673ffffffffffffffffffffffffffffffffffffffff1681526020019081526020016000206000828254019250508190555050005b3480156104b457600080fd5b506104bd610d08565b005b6104c7610da8565b005b3480156104d557600080fd5b50610502600480360360208110156104ec57600080fd5b8101908080359060200190929190505050611137565b005b34801561051057600080fd5b5061053d6004803603602081101561052757600080fd5b81019080803590602001909291905050506115ca565b005b34801561054b57600080fd5b506105786004803603602081101561056257600080fd5b8101908080359060200190929190505050611676565b005b34801561058657600080fd5b506105b36004803603602081101561059d57600080fd5b8101908080359060200190929190505050611722565b005b3480156105c157600080fd5b506105ca611824565b604051808215151515815260200191505060405180910390f35b3480156105f057600080fd5b506106a76004803603602081101561060757600080fd5b810190808035906020019064010000000081111561062457600080fd5b82018360208201111561063657600080fd5b8035906020019184602083028401116401000000008311171561065857600080fd5b919080806020026020016040519081016040528093929190818152602001838360200280828437600081840152601f19601f820116905080830192505050505050509192919290505050611891565b604051808215151515815260200191505060405180910390f35b3480156106cd57600080fd5b506106d6611933565b005b3480156106e457600080fd5b506106ed611b27565b005b3480156106fb57600080fd5b50610704611bf9565b604051808273ffffffffffffffffffffffffffffffffffffffff1673ffffffffffffffffffffffffffffffffffffffff16815260200191505060405180910390f35b34801561075257600080fd5b5061075b611c23565b005b34801561076957600080fd5b506107966004803603602081101561078057600080fd5b8101908080359060200190929190505050611ce4565b005b3480156107a457600080fd5b506107ad611d90565b604051808273ffffffffffffffffffffffffffffffffffffffff1673ffffffffffffffffffffffffffffffffffffffff16815260200191505060405180910390f35b3480156107fb57600080fd5b50610804611db9565b604051808215151515815260200191505060405180910390f35b610826611e10565b005b34801561083457600080fd5b5061083d61207d565b005b34801561084b57600080fd5b50610854610cf0565b604051808215151515815260200191505060405180910390f35b34801561087a57600080fd5b50610883612170565b6040518082815260200191505060405180910390f35b3480156108a557600080fd5b506108e8600480360360208110156108bc57600080fd5b81019080803573ffffffffffffffffffffffffffffffffffffffff1690602001909291905050506121a4565b6040518082815260200191505060405180910390f35b34801561090a57600080fd5b506109376004803603602081101561092157600080fd5b81019080803590602001909291905050506121bc565b005b34801561094557600080fd5b50610a906004803603604081101561095c57600080fd5b810190808035906020019064010000000081111561097957600080fd5b82018360208201111561098b57600080fd5b803590602001918460208302840111640100000000831117156109ad57600080fd5b919080806020026020016040519081016040528093929190818152602001838360200280828437600081840152601f19601f82011690508083019250505050505050919291929080359060200190640100000000811115610a0d57600080fd5b820183602082011115610a1f57600080fd5b80359060200191846020830284011164010000000083111715610a4157600080fd5b919080806020026020016040519081016040528093929190818152602001838360200280828437600081840152601f19601f820116905080830192505050505050509192919290505050612a61565b604051808215151515815260200191505060405180910390f35b348015610ab657600080fd5b50610abf612cc4565b005b348015610acd57600080fd5b50610b1060048036036020811015610ae457600080fd5b81019080803573ffffffffffffffffffffffffffffffffffffffff169060200190929190505050612e94565b005b348015610b1e57600080fd5b50610b6160048036036020811015610b3557600080fd5b81019080803573ffffffffffffffffffffffffffffffffffffffff169060200190929190505050613b2e565b005b348015610b6f57600080fd5b50610b78613bba565b604051808273ffffffffffffffffffffffffffffffffffffffff1673ffffffffffffffffffffffffffffffffffffffff16815260200191505060405180910390f35b348015610bc657600080fd5b50610c0960048036036020811015610bdd57600080fd5b81019080803573ffffffffffffffffffffffffffffffffffffffff169060200190929190505050613be0565b005b348015610c1757600080fd5b50610c5a60048036036020811015610c2e57600080fd5b81019080803573ffffffffffffffffffffffffffffffffffffffff16906020019092919050505061441e565b6040518082815260200191505060405180910390f35b348015610c7c57600080fd5b50610cbf60048036036020811015610c9357600080fd5b81019080803573ffffffffffffffffffffffffffffffffffffffff169060200190929190505050614436565b005b348015610ccd57600080fd5b50610cd6614455565b604051808215151515815260200191505060405180910390f35b6000600560009054906101000a900460ff1615905090565b600860009054906101000a900473ffffffffffffffffffffffffffffffffffffffff1673ffffffffffffffffffffffffffffffffffffffff1663c62461cc6040518163ffffffff167c0100000000000000000000000000000000000000000000000000000000028152600401600060405180830381600087803b158015610d8e57600080fd5b505af1158015610da2573d6000803e3d6000fd5b50505050565b600e6000600d54815260200190815260200160002060000160003373ffffffffffffffffffffffffffffffffffffffff1673ffffffffffffffffffffffffffffffffffffffff16815260200190815260200160002060050160169054906101000a900460ff16151515610e66576040517f08c379a000000000000000000000000000000000000000000000000000000000815260040180806020018281038252602c815260200180615ef6602c913960400191505060405180910390fd5b6000600a60003373ffffffffffffffffffffffffffffffffffffffff1673ffffffffffffffffffffffffffffffffffffffff1681526020019081526020016000205490506000600a60003373ffffffffffffffffffffffffffffffffffffffff1673ffffffffffffffffffffffffffffffffffffffff168152602001908152602001600020819055506001600e6000600d54815260200190815260200160002060000160003373ffffffffffffffffffffffffffffffffffffffff1673ffffffffffffffffffffffffffffffffffffffff16815260200190815260200160002060050160166101000a81548160ff021916908315150217905550600160009054906101000a900473ffffffffffffffffffffffffffffffffffffffff1673ffffffffffffffffffffffffffffffffffffffff166323b872dd3033846040518463ffffffff167c0100000000000000000000000000000000000000000000000000000000028152600401808473ffffffffffffffffffffffffffffffffffffffff1673ffffffffffffffffffffffffffffffffffffffff1681526020018373ffffffffffffffffffffffffffffffffffffffff1673ffffffffffffffffffffffffffffffffffffffff1681526020018281526020019350505050602060405180830381600087803b15801561105957600080fd5b505af115801561106d573d6000803e3d6000fd5b505050506040513d602081101561108357600080fd5b8101908080519060200190929190505050507f5ffdbbc3abdbeeb4216a0d708cef18d039ed61b0fcb5e4557e2ba42583e196c2303383604051808473ffffffffffffffffffffffffffffffffffffffff1673ffffffffffffffffffffffffffffffffffffffff1681526020018373ffffffffffffffffffffffffffffffffffffffff1673ffffffffffffffffffffffffffffffffffffffff168152602001828152602001935050505060405180910390a150565b6060806060806060600e60008781526020019081526020016000206001018054806020026020016040519081016040528092919081815260200182805480156111d557602002820191906000526020600020905b8160009054906101000a900473ffffffffffffffffffffffffffffffffffffffff1673ffffffffffffffffffffffffffffffffffffffff168152602001906001019080831161118b575b5050505050945060008090505b855181101561142557600e60008881526020019081526020016000206000016000878381518110151561121157fe5b9060200190602002015173ffffffffffffffffffffffffffffffffffffffff1673ffffffffffffffffffffffffffffffffffffffff16815260200190815260200160002060010154858281518110151561126757fe5b9060200190602002018181525050600e60008881526020019081526020016000206000016000878381518110151561129b57fe5b9060200190602002015173ffffffffffffffffffffffffffffffffffffffff1673ffffffffffffffffffffffffffffffffffffffff1681526020019081526020016000206002015484828151811015156112f157fe5b9060200190602002018181525050600e60008881526020019081526020016000206000016000878381518110151561132557fe5b9060200190602002015173ffffffffffffffffffffffffffffffffffffffff1673ffffffffffffffffffffffffffffffffffffffff16815260200190815260200160002060030180549050838281518110151561137e57fe5b9060200190602002018181525050600e6000600d548152602001908152602001600020600001600087838151811015156113b457fe5b9060200190602002015173ffffffffffffffffffffffffffffffffffffffff1673ffffffffffffffffffffffffffffffffffffffff16815260200190815260200160002060040154828281518110151561140a57fe5b906020019060200201818152505080806001019150506111e2565b507f3b87f7808c5ab95853c64302b46442fcc67c01ce3ca71e707da509a4100e6afc858585858560405180806020018060200180602001806020018060200186810386528b818151815260200191508051906020019060200280838360005b8381101561149f578082015181840152602081019050611484565b5050505090500186810385528a818151815260200191508051906020019060200280838360005b838110156114e15780820151818401526020810190506114c6565b50505050905001868103845289818151815260200191508051906020019060200280838360005b83811015611523578082015181840152602081019050611508565b50505050905001868103835288818151815260200191508051906020019060200280838360005b8381101561156557808201518184015260208101905061154a565b50505050905001868103825287818151815260200191508051906020019060200280838360005b838110156115a757808201518184015260208101905061158c565b505050509050019a505050505050505050505060405180910390a1505050505050565b600660009054906101000a900473ffffffffffffffffffffffffffffffffffffffff1673ffffffffffffffffffffffffffffffffffffffff16632889cc07826040518263ffffffff167c010000000000000000000000000000000000000000000000000000000002815260040180828152602001915050600060405180830381600087803b15801561165b57600080fd5b505af115801561166f573d6000803e3d6000fd5b5050505050565b600760009054906101000a900473ffffffffffffffffffffffffffffffffffffffff1673ffffffffffffffffffffffffffffffffffffffff166349327441826040518263ffffffff167c010000000000000000000000000000000000000000000000000000000002815260040180828152602001915050600060405180830381600087803b15801561170757600080fd5b505af115801561171b573d6000803e3d6000fd5b5050505050565b600454421015801561173957506170806004540142105b15156117ad576040517f08c379a00000000000000000000000000000000000000000000000000000000081526004018080602001828103825260128152602001807fe4b88de59ca8e585b1e5bbbae69c9fe58685000000000000000000000000000081525060200191505060405180910390fd5b6117b5611db9565b15156117c057600080fd5b80600e6000600d548152602001908152602001600020600601600001819055507fa0065ef53daacd0859dd1ca5cdda1a90bd236db58dc67e1c6c9888afb8b7c934600d5482604051808381526020018281526020019250505060405180910390a150565b6000600e6000600d54815260200190815260200160002060000160003373ffffffffffffffffffffffffffffffffffffffff1673ffffffffffffffffffffffffffffffffffffffff16815260200190815260200160002060050160149054906101000a900460ff16905090565b600061189b611db9565b15156118a657600080fd5b6118ae610cf0565b151515611923576040517f08c379a00000000000000000000000000000000000000000000000000000000081526004018080602001828103825260128152602001807fe585b1e68cafe8bf98e69caae7bb93e69d9f000000000000000000000000000081525060200191505060405180910390fd5b61192c826144c2565b9050919050565b600454421015801561194a57506170806004540142105b15156119be576040517f08c379a00000000000000000000000000000000000000000000000000000000081526004018080602001828103825260128152602001807fe4b88de59ca8e585b1e5bbbae69c9fe58685000000000000000000000000000081525060200191505060405180910390fd5b6119c6610cf0565b1515611a3a576040517f08c379a00000000000000000000000000000000000000000000000000000000081526004018080602001828103825260128152602001807fe585b1e68cafe5b7b2e7bb8fe7bb93e69d9f000000000000000000000000000081525060200191505060405180910390fd5b6000806000804261708060045401039350611a94600e6000600d54815260200190815260200160002060020160020154600e6000600d5481526020019081526020016000206002016000015461484790919063ffffffff16565b9250600e6000600d548152602001908152602001600020600201600101549150600e6000600d5481526020019081526020016000206002016003015490507fe11de7dbf210471e3fa9c2ce8526b79b1202a34755ab39aa0ee452e2de7dd9e3848484846040518085815260200184815260200183815260200182815260200194505050505060405180910390a150505050565b611b2f611db9565b1515611b3a57600080fd5b600073ffffffffffffffffffffffffffffffffffffffff166000809054906101000a900473ffffffffffffffffffffffffffffffffffffffff1673ffffffffffffffffffffffffffffffffffffffff167f8be0079c531659141344cd1fd0a4f28419497f9722a3daafe3b4186f6b6457e060405160405180910390a360008060006101000a81548173ffffffffffffffffffffffffffffffffffffffff021916908373ffffffffffffffffffffffffffffffffffffffff160217905550565b6000600360009054906101000a900473ffffffffffffffffffffffffffffffffffffffff16905090565b611c2b611db9565b1515611c3657600080fd5b7f239ea09ed3b2c5ca6c811a840e58b3dc40f4591da5f559b32893f99e968b419c600b60405180806020018281038252838181548152602001915080548015611cd457602002820191906000526020600020905b8160009054906101000a900473ffffffffffffffffffffffffffffffffffffffff1673ffffffffffffffffffffffffffffffffffffffff1681526020019060010190808311611c8a575b50509250505060405180910390a1565b600560019054906101000a900473ffffffffffffffffffffffffffffffffffffffff1673ffffffffffffffffffffffffffffffffffffffff1663c79b1245826040518263ffffffff167c010000000000000000000000000000000000000000000000000000000002815260040180828152602001915050600060405180830381600087803b158015611d7557600080fd5b505af1158015611d89573d6000803e3d6000fd5b5050505050565b60008060009054906101000a900473ffffffffffffffffffffffffffffffffffffffff16905090565b60008060009054906101000a900473ffffffffffffffffffffffffffffffffffffffff1673ffffffffffffffffffffffffffffffffffffffff163373ffffffffffffffffffffffffffffffffffffffff1614905090565b600e6000600d54815260200190815260200160002060000160003373ffffffffffffffffffffffffffffffffffffffff1673ffffffffffffffffffffffffffffffffffffffff16815260200190815260200160002060050160179054906101000a900460ff16151515611ece576040517f08c379a0000000000000000000000000000000000000000000000000000000008152600401808060200182810382526027815260200180615e7e6027913960400191505060405180910390fd5b6000600960003373ffffffffffffffffffffffffffffffffffffffff1673ffffffffffffffffffffffffffffffffffffffff1681526020019081526020016000205490506000600960003373ffffffffffffffffffffffffffffffffffffffff1673ffffffffffffffffffffffffffffffffffffffff168152602001908152602001600020819055506001600e6000600d54815260200190815260200160002060000160003373ffffffffffffffffffffffffffffffffffffffff1673ffffffffffffffffffffffffffffffffffffffff16815260200190815260200160002060050160176101000a81548160ff0219169083151502179055503373ffffffffffffffffffffffffffffffffffffffff166108fc829081150290604051600060405180830381858888f1935050505015801561200e573d6000803e3d6000fd5b507f293d21fe426f090ce1ced07545832d833ba5245d1ca5dab39eedd683bcb26c713382604051808373ffffffffffffffffffffffffffffffffffffffff1673ffffffffffffffffffffffffffffffffffffffff1681526020018281526020019250505060405180910390a150565b612085610cf0565b15156120f9576040517f08c379a00000000000000000000000000000000000000000000000000000000081526004018080602001828103825260128152602001807fe585b1e68cafe5b7b2e7bb8fe7bb93e69d9f000000000000000000000000000081525060200191505060405180910390fd5b7fefb17818fcd18149842dc8ec26c8d51b1f7cd86669024d8ad385c95727e301b2600e6000600d54815260200190815260200160002060020160000154600e6000600d54815260200190815260200160002060060160010154604051808381526020018281526020019250505060405180910390a1565b600061219e6001600e6000600d548152602001908152602001600020600c015461486990919063ffffffff16565b40905090565b60096020528060005260406000206000915090505481565b60045442101580156121d357506170806004540142105b1515612247576040517f08c379a00000000000000000000000000000000000000000000000000000000081526004018080602001828103825260128152602001807fe4b88de59ca8e585b1e5bbbae69c9fe58685000000000000000000000000000081525060200191505060405180910390fd5b61224f610cf0565b15156122c3576040517f08c379a00000000000000000000000000000000000000000000000000000000081526004018080602001828103825260128152602001807fe585b1e68cafe5b7b2e7bb8fe7bb93e69d9f000000000000000000000000000081525060200191505060405180910390fd5b6122cb611824565b151561233f576040517f08c379a00000000000000000000000000000000000000000000000000000000081526004018080602001828103825260168152602001807fe8b083e794a8e88085e4b88de698af4275696c6465720000000000000000000081525060200191505060405180910390fd5b600e6000600d5481526020019081526020016000206002016000015461238982600e6000600d5481526020019081526020016000206002016002015461486990919063ffffffff16565b1015156123e1576040517f08c379a0000000000000000000000000000000000000000000000000000000008152600401808060200182810382526021815260200180615ea56021913960400191505060405180910390fd5b600e6000600d5481526020019081526020016000206002016001015461246882600e6000600d54815260200190815260200160002060000160003373ffffffffffffffffffffffffffffffffffffffff1673ffffffffffffffffffffffffffffffffffffffff1681526020019081526020016000206001015461486990919063ffffffff16565b1015156124c0576040517f08c379a0000000000000000000000000000000000000000000000000000000008152600401808060200182810382526030815260200180615ec66030913960400191505060405180910390fd5b73__UintUtils_____________________________63669dafe8826040518263ffffffff167c01000000000000000000000000000000000000000000000000000000000281526004018082815260200191505060206040518083038186803b15801561252b57600080fd5b505af415801561253f573d6000803e3d6000fd5b505050506040513d602081101561255557600080fd5b8101908080519060200190929190505050600160009054906101000a900473ffffffffffffffffffffffffffffffffffffffff1673ffffffffffffffffffffffffffffffffffffffff1663dd62ed3e33306040518363ffffffff167c0100000000000000000000000000000000000000000000000000000000028152600401808373ffffffffffffffffffffffffffffffffffffffff1673ffffffffffffffffffffffffffffffffffffffff1681526020018273ffffffffffffffffffffffffffffffffffffffff1673ffffffffffffffffffffffffffffffffffffffff1681526020019250505060206040518083038186803b15801561265557600080fd5b505afa158015612669573d6000803e3d6000fd5b505050506040513d602081101561267f57600080fd5b810190808051906020019092919050505010151515612706576040517f08c379a00000000000000000000000000000000000000000000000000000000081526004018080602001828103825260128152602001807fe68e88e69d83e9a29de5baa6e4b88de8b6b3000000000000000000000000000081525060200191505060405180910390fd5b600160009054906101000a900473ffffffffffffffffffffffffffffffffffffffff1673ffffffffffffffffffffffffffffffffffffffff166323b872dd333073__UintUtils_____________________________63669dafe8866040518263ffffffff167c01000000000000000000000000000000000000000000000000000000000281526004018082815260200191505060206040518083038186803b1580156127b157600080fd5b505af41580156127c5573d6000803e3d6000fd5b505050506040513d60208110156127db57600080fd5b81019080805190602001909291905050506040518463ffffffff167c0100000000000000000000000000000000000000000000000000000000028152600401808473ffffffffffffffffffffffffffffffffffffffff1673ffffffffffffffffffffffffffffffffffffffff1681526020018373ffffffffffffffffffffffffffffffffffffffff1673ffffffffffffffffffffffffffffffffffffffff1681526020018281526020019350505050602060405180830381600087803b1580156128a457600080fd5b505af11580156128b8573d6000803e3d6000fd5b505050506040513d60208110156128ce57600080fd5b81019080805190602001909291905050501515612953576040517f08c379a000000000000000000000000000000000000000000000000000000000815260040180806020018281038252601a8152602001807fe8bdace7a7bb746f6b656ee588b0e59088e7baa6e5a4b1e8b4a500000000000081525060200191505060405180910390fd5b73__UintUtils_____________________________63669dafe8826040518263ffffffff167c01000000000000000000000000000000000000000000000000000000000281526004018082815260200191505060206040518083038186803b1580156129be57600080fd5b505af41580156129d2573d6000803e3d6000fd5b505050506040513d60208110156129e857600080fd5b8101908080519060200190929190505050600e6000600d54815260200190815260200160002060000160003373ffffffffffffffffffffffffffffffffffffffff1673ffffffffffffffffffffffffffffffffffffffff1681526020019081526020016000206001016000828254019250508190555050565b6000612a6b611db9565b1515612a7657600080fd5b600560009054906101000a900460ff16151515612afb576040517f08c379a00000000000000000000000000000000000000000000000000000000081526004018080602001828103825260128152602001807fe58b9fe8b584e5b7b2e7bb8fe7bb93e69d9f000000000000000000000000000081525060200191505060405180910390fd5b612b05838361488a565b73__UintUtils_____________________________63669dafe8612b616064612b53603c600e6000600d54815260200190815260200160002060060160010154614b0a90919063ffffffff16565b614b4890919063ffffffff16565b6040518263ffffffff167c01000000000000000000000000000000000000000000000000000000000281526004018082815260200191505060206040518083038186803b158015612bb157600080fd5b505af4158015612bc5573d6000803e3d6000fd5b505050506040513d6020811015612bdb57600080fd5b810190808051906020019092919050505060096000600360009054906101000a900473ffffffffffffffffffffffffffffffffffffffff1673ffffffffffffffffffffffffffffffffffffffff1673ffffffffffffffffffffffffffffffffffffffff168152602001908152602001600020600082825401925050819055507f884a42ea07d12dfb8a666018fad8dc91f2752bdabafca21fc534fefc1305355f600d546040518082815260200191505060405180910390a1600560009054906101000a900460ff1615612cb15760019050612cbe565b612cb9614b72565b600090505b92915050565b617080600454014210158015612ce05750620151806004540142105b1515612d54576040517f08c379a00000000000000000000000000000000000000000000000000000000081526004018080602001828103825260128152602001807fe4b88de59ca8e58b9fe8b584e69c9fe58685000000000000000000000000000081525060200191505060405180910390fd5b612d5c610cf0565b1515612dd0576040517f08c379a00000000000000000000000000000000000000000000000000000000081526004018080602001828103825260128152602001807fe585b1e68cafe5b7b2e7bb8fe7bb93e69d9f000000000000000000000000000081525060200191505060405180910390fd5b600080600042601860045401039250612e28600e6000600d54815260200190815260200160002060060160010154600e6000600d5481526020019081526020016000206006016000015461484790919063ffffffff16565b9150600e6000600d5481526020019081526020016000206006016001015490507fae8973493d4c3e41a9615da7dbb45a3e85e217ab826ebf232f236520f89ce5bd83838360405180848152602001838152602001828152602001935050505060405180910390a1505050565b6004544210158015612eab57506170806004540142105b1515612f1f576040517f08c379a00000000000000000000000000000000000000000000000000000000081526004018080602001828103825260128152602001807fe4b88de59ca8e585b1e5bbbae69c9fe58685000000000000000000000000000081525060200191505060405180910390fd5b612f27610cf0565b1515612f9b576040517f08c379a00000000000000000000000000000000000000000000000000000000081526004018080602001828103825260128152602001807fe585b1e68cafe5b7b2e7bb8fe7bb93e69d9f000000000000000000000000000081525060200191505060405180910390fd5b600073ffffffffffffffffffffffffffffffffffffffff168173ffffffffffffffffffffffffffffffffffffffff1614151515613040576040517f08c379a000000000000000000000000000000000000000000000000000000000815260040180806020018281038252601b8152602001807fe68ea8e5b9bfe88085e4b88de883bde698afe7a9bae59cb0e59d80000000000081525060200191505060405180910390fd5b73__UintUtils_____________________________63669dafe860086040518263ffffffff167c01000000000000000000000000000000000000000000000000000000000281526004018082815260200191505060206040518083038186803b1580156130ac57600080fd5b505af41580156130c0573d6000803e3d6000fd5b505050506040513d60208110156130d657600080fd5b8101908080519060200190929190505050600160009054906101000a900473ffffffffffffffffffffffffffffffffffffffff1673ffffffffffffffffffffffffffffffffffffffff1663dd62ed3e33306040518363ffffffff167c0100000000000000000000000000000000000000000000000000000000028152600401808373ffffffffffffffffffffffffffffffffffffffff1673ffffffffffffffffffffffffffffffffffffffff1681526020018273ffffffffffffffffffffffffffffffffffffffff1673ffffffffffffffffffffffffffffffffffffffff1681526020019250505060206040518083038186803b1580156131d657600080fd5b505afa1580156131ea573d6000803e3d6000fd5b505050506040513d602081101561320057600080fd5b810190808051906020019092919050505010151515613287576040517f08c379a00000000000000000000000000000000000000000000000000000000081526004018080602001828103825260128152602001807fe68e88e69d83e9a29de5baa6e4b88de8b6b3000000000000000000000000000081525060200191505060405180910390fd5b600160009054906101000a900473ffffffffffffffffffffffffffffffffffffffff1673ffffffffffffffffffffffffffffffffffffffff166323b872dd333073__UintUtils_____________________________63669dafe860086040518263ffffffff167c01000000000000000000000000000000000000000000000000000000000281526004018082815260200191505060206040518083038186803b15801561333357600080fd5b505af4158015613347573d6000803e3d6000fd5b505050506040513d602081101561335d57600080fd5b81019080805190602001909291905050506040518463ffffffff167c0100000000000000000000000000000000000000000000000000000000028152600401808473ffffffffffffffffffffffffffffffffffffffff1673ffffffffffffffffffffffffffffffffffffffff1681526020018373ffffffffffffffffffffffffffffffffffffffff1673ffffffffffffffffffffffffffffffffffffffff1681526020018281526020019350505050602060405180830381600087803b15801561342657600080fd5b505af115801561343a573d6000803e3d6000fd5b505050506040513d602081101561345057600080fd5b810190808051906020019092919050505015156134d5576040517f08c379a000000000000000000000000000000000000000000000000000000000815260040180806020018281038252601a8152602001807fe8bdace7a7bb746f6b656ee588b0e59088e7baa6e5a4b1e8b4a500000000000081525060200191505060405180910390fd5b600160009054906101000a900473ffffffffffffffffffffffffffffffffffffffff1673ffffffffffffffffffffffffffffffffffffffff166342966c6873__UintUtils_____________________________63669dafe860036040518263ffffffff167c01000000000000000000000000000000000000000000000000000000000281526004018082815260200191505060206040518083038186803b15801561357f57600080fd5b505af4158015613593573d6000803e3d6000fd5b505050506040513d60208110156135a957600080fd5b81019080805190602001909291905050506040518263ffffffff167c010000000000000000000000000000000000000000000000000000000002815260040180828152602001915050600060405180830381600087803b15801561360c57600080fd5b505af1158015613620573d6000803e3d6000fd5b50505050600160009054906101000a900473ffffffffffffffffffffffffffffffffffffffff1673ffffffffffffffffffffffffffffffffffffffff1663a9059cbb8273__UintUtils_____________________________63669dafe860056040518263ffffffff167c01000000000000000000000000000000000000000000000000000000000281526004018082815260200191505060206040518083038186803b1580156136cf57600080fd5b505af41580156136e3573d6000803e3d6000fd5b505050506040513d60208110156136f957600080fd5b81019080805190602001909291905050506040518363ffffffff167c0100000000000000000000000000000000000000000000000000000000028152600401808373ffffffffffffffffffffffffffffffffffffffff1673ffffffffffffffffffffffffffffffffffffffff16815260200182815260200192505050602060405180830381600087803b15801561378f57600080fd5b505af11580156137a3573d6000803e3d6000fd5b505050506040513d60208110156137b957600080fd5b81019080805190602001909291905050505073__UintUtils_____________________________63669dafe860056040518263ffffffff167c01000000000000000000000000000000000000000000000000000000000281526004018082815260200191505060206040518083038186803b15801561383757600080fd5b505af415801561384b573d6000803e3d6000fd5b505050506040513d602081101561386157600080fd5b8101908080519060200190929190505050600e6000600d54815260200190815260200160002060000160008373ffffffffffffffffffffffffffffffffffffffff1673ffffffffffffffffffffffffffffffffffffffff168152602001908152602001600020600401600082825401925050819055506138e081614ca6565b600e6000600d54815260200190815260200160002060000160008273ffffffffffffffffffffffffffffffffffffffff1673ffffffffffffffffffffffffffffffffffffffff1681526020019081526020016000206003013390806001815401808255809150509060018203906000526020600020016000909192909190916101000a81548173ffffffffffffffffffffffffffffffffffffffff021916908373ffffffffffffffffffffffffffffffffffffffff16021790555050600560019054906101000a900473ffffffffffffffffffffffffffffffffffffffff1673ffffffffffffffffffffffffffffffffffffffff1663e23613e9600d5483600f60009054906101000a900473ffffffffffffffffffffffffffffffffffffffff166040518463ffffffff167c0100000000000000000000000000000000000000000000000000000000028152600401808481526020018373ffffffffffffffffffffffffffffffffffffffff1673ffffffffffffffffffffffffffffffffffffffff1681526020018273ffffffffffffffffffffffffffffffffffffffff1673ffffffffffffffffffffffffffffffffffffffff1681526020019350505050600060405180830381600087803b158015613ab957600080fd5b505af1158015613acd573d6000803e3d6000fd5b505050508073ffffffffffffffffffffffffffffffffffffffff163373ffffffffffffffffffffffffffffffffffffffff167f95b9b14e81807a19f0d780820ad803eba32584f0671e1410f6815a83e75d4ef760405160405180910390a350565b613b36611db9565b1515613b4157600080fd5b7f33bd212310efc1b994689137ddaaea56136d0cb5b0491d1eb3b4cc3fce4428c1600c60008373ffffffffffffffffffffffffffffffffffffffff1673ffffffffffffffffffffffffffffffffffffffff168152602001908152602001600020546040518082815260200191505060405180910390a150565b600160009054906101000a900473ffffffffffffffffffffffffffffffffffffffff1681565b613be8615df5565b600e6000600d54815260200190815260200160002060000160008373ffffffffffffffffffffffffffffffffffffffff1673ffffffffffffffffffffffffffffffffffffffff16815260200190815260200160002061014060405190810160405290816000820160009054906101000a900473ffffffffffffffffffffffffffffffffffffffff1673ffffffffffffffffffffffffffffffffffffffff1673ffffffffffffffffffffffffffffffffffffffff168152602001600182015481526020016002820154815260200160038201805480602002602001604051908101604052809291908181526020018280548015613d3957602002820191906000526020600020905b8160009054906101000a900473ffffffffffffffffffffffffffffffffffffffff1673ffffffffffffffffffffffffffffffffffffffff1681526020019060010190808311613cef575b50505050508152602001600482015481526020016005820160009054906101000a900473ffffffffffffffffffffffffffffffffffffffff1673ffffffffffffffffffffffffffffffffffffffff1673ffffffffffffffffffffffffffffffffffffffff1681526020016005820160149054906101000a900460ff161515151581526020016005820160159054906101000a900460ff161515151581526020016005820160169054906101000a900460ff161515151581526020016005820160179054906101000a900460ff16151515158152505090506060600a60008473ffffffffffffffffffffffffffffffffffffffff1673ffffffffffffffffffffffffffffffffffffffff16815260200190815260200160002054816000815181101515613e6157fe5b9060200190602002018181525050600960008473ffffffffffffffffffffffffffffffffffffffff1673ffffffffffffffffffffffffffffffffffffffff16815260200190815260200160002054816001815181101515613ebe57fe5b9060200190602002018181525050816060015151816002815181101515613ee157fe5b90602001906020020181815250508160800151816003815181101515613f0357fe5b90602001906020020181815250508160200151816004815181101515613f2557fe5b90602001906020020181815250508160400151816005815181101515613f4757fe5b9060200190602002018181525050600760009054906101000a900473ffffffffffffffffffffffffffffffffffffffff1673ffffffffffffffffffffffffffffffffffffffff1663c28a1af3846040518263ffffffff167c0100000000000000000000000000000000000000000000000000000000028152600401808273ffffffffffffffffffffffffffffffffffffffff1673ffffffffffffffffffffffffffffffffffffffff16815260200191505060206040518083038186803b15801561401057600080fd5b505afa158015614024573d6000803e3d6000fd5b505050506040513d602081101561403a57600080fd5b810190808051906020019092919050505081600681518110151561405a57fe5b9060200190602002018181525050600560019054906101000a900473ffffffffffffffffffffffffffffffffffffffff1673ffffffffffffffffffffffffffffffffffffffff16630df2019a846040518263ffffffff167c0100000000000000000000000000000000000000000000000000000000028152600401808273ffffffffffffffffffffffffffffffffffffffff1673ffffffffffffffffffffffffffffffffffffffff16815260200191505060206040518083038186803b15801561412357600080fd5b505afa158015614137573d6000803e3d6000fd5b505050506040513d602081101561414d57600080fd5b810190808051906020019092919050505081600781518110151561416d57fe5b9060200190602002018181525050600660009054906101000a900473ffffffffffffffffffffffffffffffffffffffff1673ffffffffffffffffffffffffffffffffffffffff1663c7535567846040518263ffffffff167c0100000000000000000000000000000000000000000000000000000000028152600401808273ffffffffffffffffffffffffffffffffffffffff1673ffffffffffffffffffffffffffffffffffffffff16815260200191505060206040518083038186803b15801561423657600080fd5b505afa15801561424a573d6000803e3d6000fd5b505050506040513d602081101561426057600080fd5b810190808051906020019092919050505081600881518110151561428057fe5b9060200190602002018181525050600860009054906101000a900473ffffffffffffffffffffffffffffffffffffffff1673ffffffffffffffffffffffffffffffffffffffff16634a681787846040518263ffffffff167c0100000000000000000000000000000000000000000000000000000000028152600401808273ffffffffffffffffffffffffffffffffffffffff1673ffffffffffffffffffffffffffffffffffffffff16815260200191505060206040518083038186803b15801561434957600080fd5b505afa15801561435d573d6000803e3d6000fd5b505050506040513d602081101561437357600080fd5b810190808051906020019092919050505081600981518110151561439357fe5b90602001906020020181815250507f04c808a514c1dafc38d056ce8d726701d153e5560559e9a2cbd4a698fc57dbc9816040518080602001828103825283818151815260200191508051906020019060200280838360005b838110156144065780820151818401526020810190506143eb565b505050509050019250505060405180910390a1505050565b600a6020528060005260406000206000915090505481565b61443e611db9565b151561444957600080fd5b61445281614e48565b50565b6000600e6000600d54815260200190815260200160002060000160003373ffffffffffffffffffffffffffffffffffffffff1673ffffffffffffffffffffffffffffffffffffffff16815260200190815260200160002060050160159054906101000a900460ff16905090565b60008073__UintUtils_____________________________63669dafe861452160646145136005600e6000600d54815260200190815260200160002060060160010154614b0a90919063ffffffff16565b614b4890919063ffffffff16565b6040518263ffffffff167c01000000000000000000000000000000000000000000000000000000000281526004018082815260200191505060206040518083038186803b15801561457157600080fd5b505af4158015614585573d6000803e3d6000fd5b505050506040513d602081101561459b57600080fd5b810190808051906020019092919050505090506000600860009054906101000a900473ffffffffffffffffffffffffffffffffffffffff1673ffffffffffffffffffffffffffffffffffffffff16631e238d1085846040518363ffffffff167c01000000000000000000000000000000000000000000000000000000000281526004018080602001838152602001828103825284818151815260200191508051906020019060200280838360005b83811015614664578082015181840152602081019050614649565b505050509050019350505050602060405180830381600087803b15801561468a57600080fd5b505af115801561469e573d6000803e3d6000fd5b505050506040513d60208110156146b457600080fd5b8101908080519060200190929190505050905060008090505b845181101561483c57600860009054906101000a900473ffffffffffffffffffffffffffffffffffffffff1673ffffffffffffffffffffffffffffffffffffffff16634a681787868381518110151561472257fe5b906020019060200201516040518263ffffffff167c0100000000000000000000000000000000000000000000000000000000028152600401808273ffffffffffffffffffffffffffffffffffffffff1673ffffffffffffffffffffffffffffffffffffffff16815260200191505060206040518083038186803b1580156147a857600080fd5b505afa1580156147bc573d6000803e3d6000fd5b505050506040513d60208110156147d257600080fd5b8101908080519060200190929190505050600960003373ffffffffffffffffffffffffffffffffffffffff1673ffffffffffffffffffffffffffffffffffffffff1681526020019081526020016000206000828254019250508190555080806001019150506146cd565b508092505050919050565b600082821115151561485857600080fd5b600082840390508091505092915050565b600080828401905083811015151561488057600080fd5b8091505092915050565b614892611db9565b151561489d57600080fd5b6148a5610cf0565b1515614919576040517f08c379a00000000000000000000000000000000000000000000000000000000081526004018080602001828103825260128152602001807fe585b1e68cafe5b7b2e7bb8fe7bb93e69d9f000000000000000000000000000081525060200191505060405180910390fd5b600e6000600d548152602001908152602001600020600b0160009054906101000a900460ff161515156149b4576040517f08c379a000000000000000000000000000000000000000000000000000000000815260040180806020018281038252601e8152602001807fe5bd93e5898de8bdaee6aca1e5b7b2e7bb8fe7bb93e7ae97e5ae8ce6af95000081525060200191505060405180910390fd5b600e6000600d548152602001908152602001600020600b0160019054906101000a900460ff16151515614a4f576040517f08c379a000000000000000000000000000000000000000000000000000000000815260040180806020018281038252601b8152602001807fe5bd93e5898de8bdaee6aca1e697a9e5b7b2e7bb8fe7bb93e69d9f000000000081525060200191505060405180910390fd5b614a5882614f42565b614afd600e6000600d548152602001908152602001600020600101805480602002602001604051908101604052809291908181526020018280548015614af357602002820191906000526020600020905b8160009054906101000a900473ffffffffffffffffffffffffffffffffffffffff1673ffffffffffffffffffffffffffffffffffffffff1681526020019060010190808311614aa9575b50505050506152c4565b614b06816156c4565b5050565b600080831415614b1d5760009050614b42565b60008284029050828482811515614b3057fe5b04141515614b3d57600080fd5b809150505b92915050565b60008082111515614b5857600080fd5b60008284811515614b6557fe5b0490508091505092915050565b614b7a610cf0565b1515614bee576040517f08c379a00000000000000000000000000000000000000000000000000000000081526004018080602001828103825260128152602001807fe585b1e68cafe5b7b2e7bb8fe7bb93e69d9f000000000000000000000000000081525060200191505060405180910390fd5b6001600e6000600d548152602001908152602001600020600b0160006101000a81548160ff0219169083151502179055506001600e6000600d548152602001908152602001600020600b0160016101000a81548160ff021916908315150217905550614c58615a46565b50600d600081548092919060010191905055507feb4f8ce27ee2f036ff2d0bc02908be44cba9da8349185d0b9f996732fb77f07e600d546040518082815260200191505060405180910390a1565b33600e6000600d54815260200190815260200160002060000160003373ffffffffffffffffffffffffffffffffffffffff1673ffffffffffffffffffffffffffffffffffffffff16815260200190815260200160002060000160006101000a81548173ffffffffffffffffffffffffffffffffffffffff021916908373ffffffffffffffffffffffffffffffffffffffff16021790555080600e6000600d54815260200190815260200160002060000160003373ffffffffffffffffffffffffffffffffffffffff1673ffffffffffffffffffffffffffffffffffffffff16815260200190815260200160002060050160006101000a81548173ffffffffffffffffffffffffffffffffffffffff021916908373ffffffffffffffffffffffffffffffffffffffff1602179055506001600e6000600d54815260200190815260200160002060000160003373ffffffffffffffffffffffffffffffffffffffff1673ffffffffffffffffffffffffffffffffffffffff16815260200190815260200160002060050160146101000a81548160ff02191690831515021790555050565b600073ffffffffffffffffffffffffffffffffffffffff168173ffffffffffffffffffffffffffffffffffffffff1614151515614e8457600080fd5b8073ffffffffffffffffffffffffffffffffffffffff166000809054906101000a900473ffffffffffffffffffffffffffffffffffffffff1673ffffffffffffffffffffffffffffffffffffffff167f8be0079c531659141344cd1fd0a4f28419497f9722a3daafe3b4186f6b6457e060405160405180910390a3806000806101000a81548173ffffffffffffffffffffffffffffffffffffffff021916908373ffffffffffffffffffffffffffffffffffffffff16021790555050565b600073__UintUtils_____________________________63669dafe8614fa06064614f926014600e6000600d54815260200190815260200160002060060160010154614b0a90919063ffffffff16565b614b4890919063ffffffff16565b6040518263ffffffff167c01000000000000000000000000000000000000000000000000000000000281526004018082815260200191505060206040518083038186803b158015614ff057600080fd5b505af4158015615004573d6000803e3d6000fd5b505050506040513d602081101561501a57600080fd5b81019080805190602001909291905050509050600560019054906101000a900473ffffffffffffffffffffffffffffffffffffffff1673ffffffffffffffffffffffffffffffffffffffff1663a5fa7976600d5484846040518463ffffffff167c01000000000000000000000000000000000000000000000000000000000281526004018084815260200180602001838152602001828103825284818151815260200191508051906020019060200280838360005b838110156150ea5780820151818401526020810190506150cf565b50505050905001945050505050600060405180830381600087803b15801561511157600080fd5b505af1158015615125573d6000803e3d6000fd5b5050505060008090505b82518110156152bf57600560019054906101000a900473ffffffffffffffffffffffffffffffffffffffff1673ffffffffffffffffffffffffffffffffffffffff166365922b74600d54858481518110151561518757fe5b906020019060200201516040518363ffffffff167c0100000000000000000000000000000000000000000000000000000000028152600401808381526020018273ffffffffffffffffffffffffffffffffffffffff1673ffffffffffffffffffffffffffffffffffffffff1681526020019250505060206040518083038186803b15801561521457600080fd5b505afa158015615228573d6000803e3d6000fd5b505050506040513d602081101561523e57600080fd5b810190808051906020019092919050505060096000858481518110151561526157fe5b9060200190602002015173ffffffffffffffffffffffffffffffffffffffff1673ffffffffffffffffffffffffffffffffffffffff16815260200190815260200160002060008282540192505081905550808060010191505061512f565b505050565b600073__UintUtils_____________________________63669dafe86153226064615314600a600e6000600d54815260200190815260200160002060060160010154614b0a90919063ffffffff16565b614b4890919063ffffffff16565b6040518263ffffffff167c01000000000000000000000000000000000000000000000000000000000281526004018082815260200191505060206040518083038186803b15801561537257600080fd5b505af4158015615386573d6000803e3d6000fd5b505050506040513d602081101561539c57600080fd5b810190808051906020019092919050505090506060600660009054906101000a900473ffffffffffffffffffffffffffffffffffffffff1673ffffffffffffffffffffffffffffffffffffffff1663c21a7743600d5485856040518463ffffffff167c01000000000000000000000000000000000000000000000000000000000281526004018084815260200180602001838152602001828103825284818151815260200191508051906020019060200280838360005b8381101561546e578082015181840152602081019050615453565b50505050905001945050505050600060405180830381600087803b15801561549557600080fd5b505af11580156154a9573d6000803e3d6000fd5b505050506040513d6000823e3d601f19601f8201168201806040525060208110156154d357600080fd5b8101908080516401000000008111156154eb57600080fd5b8281019050602081018481111561550157600080fd5b815185602082028301116401000000008211171561551e57600080fd5b5050929190505050905060008090505b81518110156156be57600660009054906101000a900473ffffffffffffffffffffffffffffffffffffffff1673ffffffffffffffffffffffffffffffffffffffff1663509b49e9600d54848481518110151561558657fe5b906020019060200201516040518363ffffffff167c0100000000000000000000000000000000000000000000000000000000028152600401808381526020018273ffffffffffffffffffffffffffffffffffffffff1673ffffffffffffffffffffffffffffffffffffffff1681526020019250505060206040518083038186803b15801561561357600080fd5b505afa158015615627573d6000803e3d6000fd5b505050506040513d602081101561563d57600080fd5b810190808051906020019092919050505060096000848481518110151561566057fe5b9060200190602002015173ffffffffffffffffffffffffffffffffffffffff1673ffffffffffffffffffffffffffffffffffffffff16815260200190815260200160002060008282540192505081905550808060010191505061552e565b50505050565b600073__UintUtils_____________________________63669dafe861572260646157146005600e6000600d54815260200190815260200160002060060160010154614b0a90919063ffffffff16565b614b4890919063ffffffff16565b6040518263ffffffff167c01000000000000000000000000000000000000000000000000000000000281526004018082815260200191505060206040518083038186803b15801561577257600080fd5b505af4158015615786573d6000803e3d6000fd5b505050506040513d602081101561579c57600080fd5b81019080805190602001909291905050509050600760009054906101000a900473ffffffffffffffffffffffffffffffffffffffff1673ffffffffffffffffffffffffffffffffffffffff1663ac197f92600d5484846040518463ffffffff167c01000000000000000000000000000000000000000000000000000000000281526004018084815260200180602001838152602001828103825284818151815260200191508051906020019060200280838360005b8381101561586c578082015181840152602081019050615851565b50505050905001945050505050600060405180830381600087803b15801561589357600080fd5b505af11580156158a7573d6000803e3d6000fd5b5050505060008090505b8251811015615a4157600760009054906101000a900473ffffffffffffffffffffffffffffffffffffffff1673ffffffffffffffffffffffffffffffffffffffff1663dd572ab9600d54858481518110151561590957fe5b906020019060200201516040518363ffffffff167c0100000000000000000000000000000000000000000000000000000000028152600401808381526020018273ffffffffffffffffffffffffffffffffffffffff1673ffffffffffffffffffffffffffffffffffffffff1681526020019250505060206040518083038186803b15801561599657600080fd5b505afa1580156159aa573d6000803e3d6000fd5b505050506040513d60208110156159c057600080fd5b81019080805190602001909291905050506009600085848151811015156159e357fe5b9060200190602002015173ffffffffffffffffffffffffffffffffffffffff1673ffffffffffffffffffffffffffffffffffffffff1681526020019081526020016000206000828254019250508190555080806001019150506158b1565b505050565b600073__UintUtils_____________________________63669dafe8600e6000600d548152602001908152602001600020600801546040518263ffffffff167c01000000000000000000000000000000000000000000000000000000000281526004018082815260200191505060206040518083038186803b158015615acb57600080fd5b505af4158015615adf573d6000803e3d6000fd5b505050506040513d6020811015615af557600080fd5b810190808051906020019092919050505073__UintUtils_____________________________63669dafe8600e6000600d548152602001908152602001600020600601600101546040518263ffffffff167c01000000000000000000000000000000000000000000000000000000000281526004018082815260200191505060206040518083038186803b158015615b8c57600080fd5b505af4158015615ba0573d6000803e3d6000fd5b505050506040513d6020811015615bb657600080fd5b81019080805190602001909291905050501015615bf2576001600560006101000a81548160ff021916908315150217905550615bf0615c2e565b505b60006002541415615c19576001600560006101000a81548160ff0219169083151502179055505b600560009054906101000a900460ff16905090565b6000615c38611db9565b1515615c4357600080fd5b600160009054906101000a900473ffffffffffffffffffffffffffffffffffffffff1673ffffffffffffffffffffffffffffffffffffffff1663a9059cbb615c89611d90565b73__UintUtils_____________________________63669dafe86002546040518263ffffffff167c01000000000000000000000000000000000000000000000000000000000281526004018082815260200191505060206040518083038186803b158015615cf657600080fd5b505af4158015615d0a573d6000803e3d6000fd5b505050506040513d6020811015615d2057600080fd5b81019080805190602001909291905050506040518363ffffffff167c0100000000000000000000000000000000000000000000000000000000028152600401808373ffffffffffffffffffffffffffffffffffffffff1673ffffffffffffffffffffffffffffffffffffffff16815260200182815260200192505050602060405180830381600087803b158015615db657600080fd5b505af1158015615dca573d6000803e3d6000fd5b505050506040513d6020811015615de057600080fd5b81019080805190602001909291905050505090565b61014060405190810160405280600073ffffffffffffffffffffffffffffffffffffffff16815260200160008152602001600081526020016060815260200160008152602001600073ffffffffffffffffffffffffffffffffffffffff168152602001600015158152602001600015158152602001600015158152602001600015158152509056fee794a8e688b7e59ca8e5bd93e5898de8bdaee6aca1e5b7b2e7bb8fe68f90e5b881e5ae8ce68890e5bd93e5898de8bdaee6aca1e585b1e5bbbae5b7b2e7bb8fe8b6b3e5a49fe4ba86e585b1e5bbbae9a29de5baa6e5b7b2e8b685e8bf87e99990e9a29defbc8ce4b88de883bde7bba7e7bbade8bdace585a5e794a8e688b7e59ca8e5bd93e5898de8bdaee6aca1e5b7b2e7bb8fe68f90e58f96746f6b656ee5ae8ce68890a165627a7a72305820acd801343c2bf41b03ddcc2e042b2fb01a2d149de9f1c4d58e872772ae7af2cb0029",
  "source": "pragma solidity >=0.4.21 <0.6.0;\n\nimport \"../node_modules/openzeppelin-solidity/contracts/math/SafeMath.sol\";\nimport \"../node_modules/openzeppelin-solidity/contracts/ownership/Ownable.sol\";\nimport \"./ABCToken.sol\";\nimport \"./UintUtils.sol\";\nimport \"./FissionReward.sol\";\nimport \"./FOMOReward.sol\";\nimport \"./LuckyReward.sol\";\nimport \"./FaithReward.sol\";\n\n// TODO:token()\ncontract Resonance is Ownable{\n\n    using SafeMath for uint256;\n\n    // \n    // \n    event ToBeFissionPerson(address indexed fissionPerson, address indexed promoter);\n\n    event FundsInfo(uint256 currentStepTokenAmount, uint256 currentStepRaisedETH);\n    event BuildingPerioInfo(uint256 bpCountdown, uint256 remainingToken, uint256 personalTokenLimited, uint256 totalTokenAmount);\n    event FundingPeriodInfo(uint256 fpCountdown, uint256 remainingETH, uint256 rasiedETHAmount);\n\n    // \n    event FissionRewardInfo(address[] fissionRewardList, uint256[] fissionRewardAmount);\n    event FOMORewardInfo(address[] FOMORewardList, uint256[] FOMORewards);\n    event LuckyRewardInfo(address[] luckyRewardList, uint256 luckyReward);\n    event FaithRewardInfo(address[] faithRewardList, uint256[] faithRewardAmount);\n    event WithdrawAllETH(address addr, uint256 ETHAmount);\n    event WhihdrawAllToken(address from, address to, uint256 tokenAmount);\n    event FunderInfo(uint256[] FunderInfoArray);\n    event StepFunders(\n        address[] funderAddress,\n        uint256[] funderTokenAmount,\n        uint256[] funderETHAmount,\n        uint256[] funderInvitees,\n        uint256[] funderEarnFromAff\n    );\n    event SettlementStep(uint256 stepIndex);\n    event StartNextStep(uint256 stepIndex);\n\n    event SetRaiseTarget(uint256 stepIndex, uint256 raiseTarget);\n\n    event GetResonances(address[] resonances);\n\n    event FunderTotalRaised(uint256 resonancesRasiedETH);\n\n    // \n    modifier softCapReached(){\n        require(steps[currentStep].funding.raisedETH >= steps[currentStep].softCap, \"\");\n        _;\n    }\n\n    // \n    modifier hardCapReached(){\n        require(steps[currentStep].funding.raisedETH < steps[currentStep].hardCap, \"\");\n        _;\n    }\n\n    // \n    modifier isBuildingPeriod() {\n        require(block.timestamp >= openingTime && block.timestamp < openingTime + 8 hours, \"\");\n        _;\n    }\n\n    // \n    modifier isFundingPeriod() {\n        require(block.timestamp >= openingTime + 8 hours && block.timestamp < openingTime + 24 hours, \"\");\n        _;\n    }\n\n    // \n    ABCToken public abcToken;\n\n    // \n    uint256 private fundsPool;\n\n    // 60%\n    address payable private beneficiary;\n\n    // \n    uint256 private openingTime;\n\n    bool crowdsaleClosed = false;   //  \n\n    // \n    struct Funder{\n        address funderAddr; // \n        uint256 tokenAmount; // token\n        uint256 ethAmount; // eth\n        address[] invitees; // \n        uint256 earnFromAff; // \n        address promoter; // \n        bool isBuilder; // /\n        bool isFunder; // \n        bool tokenHasWithdrawn; // Token\n        bool ETHHasWithdrawn; // ETH\n    }\n\n    // \n    struct Building{\n        uint256 openTokenAmount; // Token\n        uint256 personalTokenLimited;// token\n        uint256 raisedToken; // token\n        uint256 raisedTokenAmount; // Token\n    }\n\n    // \n    struct Funding{\n        uint256 raiseTarget; // ETH\n        uint256 raisedETH; // ETH\n    }\n\n    FissionReward fissionRewardInstance;\n    FOMOReward FOMORewardInstance;\n    LuckyReward luckyRewardInstance;\n    FaithReward faithRewardInstance;\n\n    // \n    struct Step{\n        mapping(address => Funder) funder;// \n        address[] funders; // funders\n        Building building; // \n        Funding funding; // \n        uint256 softCap; // \n        uint256 hardCap; // \n        uint256 rate; // \n        bool settlementFinished; // \n        bool stepIsClosed; // \n        uint256 blockNumber; // \n    }\n\n    // \n    mapping(address => uint256) public ETHBalance;\n    mapping(address => uint256) public tokenBalance;\n\n    // \n    address[] resonances;\n    // \n    mapping(address => uint256) resonancesRasiedETH;\n\n    uint256 currentStep;\n\n    // Step[] steps;\n    mapping(uint256 => Step) steps;\n\n    address initialFissionPerson; // \n\n    // mapping\n    // TODO:,\n    // Step[] public steps;\n    // mapping(uint256 => Step) steps;\n\n    // \n    /// @notice \n    /// @param _abcToken Token\n    /// @param _beneficiary \n    /// @param _initialFissionPerson \n    constructor(\n        ABCToken _abcToken,\n        address payable _beneficiary,\n        address _initialFissionPerson,\n        address _fassionRewardAddress,\n        address _FOMORewardAddress,\n        address _luckyRewardAddress,\n        address _faithRewardAddress\n    )\n        public\n    {\n        currentStep = 0;\n        abcToken = _abcToken; // abc Token\n        beneficiary = _beneficiary; // \n        initialFissionPerson = _initialFissionPerson; // \n        openingTime = block.timestamp; // \n        // \n        fissionRewardInstance = FissionReward(_fassionRewardAddress);\n        FOMORewardInstance = FOMOReward(_FOMORewardAddress);\n        luckyRewardInstance = LuckyReward(_luckyRewardAddress);\n        faithRewardInstance = FaithReward(_faithRewardAddress);\n    }\n\n    /// @notice \n    /// @param promoter \n    /// @dev TokenApprove\n    function toBeFissionPerson(\n        address promoter\n    )\n        public\n        isBuildingPeriod()\n    {\n        require(crowdsaleIsRunning(), \"\");\n\n        //TODO: require(steps[currentStep].funder[promoter].isBuilder,\"Builder\");\n\n        require(promoter != address(0), \"\");\n\n        // \n        require(abcToken.allowance(msg.sender, address(this)) >= UintUtils.toWei(8),\"\");\n\n        require(abcToken.transferFrom(msg.sender,address(this), UintUtils.toWei(8)),\"token\");\n\n        // 3\n        abcToken.burn(UintUtils.toWei(3));\n\n        // 5\n        abcToken.transfer(address(promoter), UintUtils.toWei(5));\n\n        steps[currentStep].funder[promoter].earnFromAff += UintUtils.toWei(5);\n\n        // \n        _addBuilder(promoter);\n\n        steps[currentStep].funder[promoter].invitees.push(msg.sender);\n\n        fissionRewardInstance.addAffman(currentStep, promoter, initialFissionPerson);\n\n        emit ToBeFissionPerson(msg.sender, promoter);\n    }\n\n    /// @notice \n    /// @dev \n    function setRaiseTarget(\n        uint256 _raiseTarget\n    )\n        public\n        isBuildingPeriod()\n        onlyOwner()\n    {\n        steps[currentStep].funding.raiseTarget = _raiseTarget;\n        emit SetRaiseTarget(currentStep, _raiseTarget);\n    }\n\n    // token\n    function jointlyBuild(\n        uint256 _tokenAmount\n    )\n        public\n        isBuildingPeriod()\n    {\n        require(crowdsaleIsRunning(), \"\");\n\n        // builder\n        require(isBuilder(), \"Builder\");\n\n        // \n        require(steps[currentStep].building.raisedToken.add(_tokenAmount) < steps[currentStep].building.openTokenAmount, \"\");\n\n        // \n        require(\n            steps[currentStep].funder[msg.sender].tokenAmount.add(_tokenAmount) < steps[currentStep].building.personalTokenLimited,\n            \"\"\n        );\n\n        // \n        require(abcToken.allowance(msg.sender, address(this)) >= UintUtils.toWei(_tokenAmount),\"\");\n\n        // \n        require(abcToken.transferFrom(msg.sender,address(this), UintUtils.toWei(_tokenAmount)),\"token\");\n        steps[currentStep].funder[msg.sender].tokenAmount += UintUtils.toWei(_tokenAmount);\n    }\n\n    // \n    // \n    function ()\n        external\n        payable\n        isFundingPeriod()\n    {\n        require(crowdsaleIsRunning(), \"\");\n        uint amount = msg.value;\n        steps[currentStep].funder[msg.sender].ethAmount = amount;\n        steps[currentStep].funder[msg.sender].isFunder = true;\n        steps[currentStep].funding.raisedETH += amount;\n        resonances.push(msg.sender);\n        resonancesRasiedETH[msg.sender] += amount;\n    }\n\n    /// @notice \n    /// @dev \n    /// @param _fissionWinnerList \n    /// @param _LuckyWinnerList \n    function settlementStep(\n        address[] memory _fissionWinnerList,\n        address[] memory _LuckyWinnerList\n    )\n        public\n        onlyOwner()\n        returns(bool)\n    {\n        // \n        require(!crowdsaleClosed, \"\");\n        // \n        _settlementReward(_fissionWinnerList, _LuckyWinnerList);\n        // \n        ETHBalance[beneficiary] += UintUtils.toWei(steps[currentStep].funding.raisedETH.mul(60).div(100));\n\n        emit SettlementStep(currentStep);\n\n        if(crowdsaleClosed) {\n            return true;\n        }else{\n            // \n            _startNextStep();\n            return false;\n        }\n    }\n\n    /// @notice \n    /// @param _FaithWinnerList \n    function settlementFaithReward(\n        address[] memory _FaithWinnerList\n    )\n        public\n        onlyOwner()\n        returns(bool)\n    {\n        require(!crowdsaleIsRunning(), \"\");\n        return _settlementFaithReward(_FaithWinnerList);\n    }\n\n    // \n    // \n    // 1.  2.\n    /// @dev \n    function _crowdsaleIsClosed()\n        internal\n        returns(bool)\n    {\n        // 1.\n        if(UintUtils.toWei(steps[currentStep].funding.raisedETH) < UintUtils.toWei(steps[currentStep].softCap)) {\n            crowdsaleClosed = true;\n\n            // Token\n            _withdrawRemainingToken();\n        }\n\n        // TODO:\n        // 2.\n        if(fundsPool == 0) {\n            crowdsaleClosed = true;\n        }\n\n        return crowdsaleClosed;\n    }\n\n    /// @notice Token\n    function _withdrawRemainingToken()\n        internal\n        onlyOwner()\n        returns(bool)\n    {\n        abcToken.transfer(owner(), UintUtils.toWei(fundsPool));\n    }\n\n    /// @notice FOMO\n    /// @dev \n    // \n    // \n    function _settlementReward(\n        address[] memory _fissionWinnerList,\n        address[] memory _LuckyWinnerList\n    )\n        internal\n        onlyOwner()\n    {\n        require(crowdsaleIsRunning(), \"\");\n        require(!steps[currentStep].settlementFinished, \"\");\n        require(!steps[currentStep].stepIsClosed, \"\");\n\n        // \n        // \n        _settlementFissionReward(_fissionWinnerList);\n        _settlementFOMOReward(steps[currentStep].funders);\n        _settlementLuckyReward(_LuckyWinnerList);\n    }\n\n    // TODO: \n\n    /// \n    function _startNextStep()\n        internal\n    {\n        require(crowdsaleIsRunning(), \"\");\n        // step\n        steps[currentStep].settlementFinished = true;\n        // \n        steps[currentStep].stepIsClosed = true;\n        // \n        _crowdsaleIsClosed();\n        // \n        currentStep++;\n        emit StartNextStep(currentStep);\n    }\n\n    /// @notice \n    function _settlementFissionReward(address[] memory _fissionWinnerList) internal {\n        uint256 totalFissionReward = UintUtils.toWei(steps[currentStep].funding.raisedETH.mul(20).div(100));\n        fissionRewardInstance.dealFissionInfo(currentStep, _fissionWinnerList, totalFissionReward);\n        // \n        for(uint i =0 ; i < _fissionWinnerList.length; i++){\n            ETHBalance[_fissionWinnerList[i]] += fissionRewardInstance.fissionRewardAmount(currentStep,_fissionWinnerList[i]);\n        }\n    }\n\n    /// @notice FOMO\n    function _settlementFOMOReward(address[] memory _funders) internal {\n        uint256 totalFOMOReward = UintUtils.toWei(steps[currentStep].funding.raisedETH.mul(10).div(100));\n        address[] memory FOMOWinnerList = FOMORewardInstance.dealFOMOWinner(currentStep, _funders, totalFOMOReward);\n        // \n        for(uint i = 0; i < FOMOWinnerList.length; i++){\n            ETHBalance[FOMOWinnerList[i]] += FOMORewardInstance.FOMORewardAmount(currentStep,FOMOWinnerList[i]);\n        }\n    }\n\n    /// @notice \n    function _settlementLuckyReward(address[] memory _LuckyWinnerList) internal {\n        uint256 totalLuckyReward = UintUtils.toWei(steps[currentStep].funding.raisedETH.mul(5).div(100));\n        luckyRewardInstance.dealLuckyInfo(currentStep, _LuckyWinnerList, totalLuckyReward);\n        // \n        for(uint i = 0; i < _LuckyWinnerList.length; i++){\n            ETHBalance[_LuckyWinnerList[i]] += luckyRewardInstance.luckyRewardAmount(currentStep,_LuckyWinnerList[i]);\n        }\n    }\n\n    // \n    function _settlementFaithReward(address[] memory _faithWinners) internal returns(bool) {\n        uint256 totalFaithReward = UintUtils.toWei(steps[currentStep].funding.raisedETH.mul(5).div(100));\n        bool faithRewardFinished = faithRewardInstance.dealFaithWinner(_faithWinners, totalFaithReward);\n        for(uint i = 0; i < _faithWinners.length; i++){\n            ETHBalance[msg.sender] += faithRewardInstance.faithRewardAmount(_faithWinners[i]);\n        }\n\n        return faithRewardFinished;\n    }\n\n    /// @notice tokentoken\n    function withdrawAllToken()\n        public\n        payable\n    {\n        require(!steps[currentStep].funder[msg.sender].tokenHasWithdrawn, \"token\");\n        uint256 withdrawAmount = tokenBalance[msg.sender];\n        tokenBalance[msg.sender] = 0;\n        steps[currentStep].funder[msg.sender].tokenHasWithdrawn = true;\n        abcToken.transferFrom(address(this), msg.sender, withdrawAmount);\n        emit WhihdrawAllToken(address(this), msg.sender, withdrawAmount);\n    }\n\n    /// @notice (ETH)\n    function withdrawAllETH()\n        public\n        payable\n    {\n        require(!steps[currentStep].funder[msg.sender].ETHHasWithdrawn, \"\");\n        uint256 withdrawAmount = ETHBalance[msg.sender];\n        ETHBalance[msg.sender] = 0;\n        steps[currentStep].funder[msg.sender].ETHHasWithdrawn = true;\n        msg.sender.transfer(withdrawAmount);\n        emit WithdrawAllETH(msg.sender, withdrawAmount);\n    }\n\n    /// @notice \n    /// @dev jointlyBuildtoBeFissionPerson\n    function isBuilder() public view returns(bool) {\n        return steps[currentStep].funder[msg.sender].isBuilder;\n    }\n\n    /// @notice \n    function isFunder() public view returns(bool) {\n        return steps[currentStep].funder[msg.sender].isFunder;\n    }\n\n    /// @notice \n    function getResonances() public onlyOwner() {\n        emit GetResonances(resonances);\n    }\n\n    /// @notice ETH\n    function getFunderTotalRaised(address _funder) public onlyOwner() {\n        emit FunderTotalRaised(resonancesRasiedETH[_funder]);\n    }\n\n    /// @notice funders\n    /// @dev funders\n    /// @param _stepIndex \n    function getStepFunders(uint256 _stepIndex) public {\n        address[] memory funderAddress;\n        uint256[] memory funderTokenAmount;\n        uint256[] memory funderETHAmount;\n        uint256[] memory funderInvitees;\n        uint256[] memory earnFromAff;\n\n\n        funderAddress = steps[_stepIndex].funders;\n\n        for(uint i = 0 ; i < funderAddress.length; i++){\n            funderTokenAmount[i] = steps[_stepIndex].funder[funderAddress[i]].tokenAmount;\n            funderETHAmount[i] = steps[_stepIndex].funder[funderAddress[i]].ethAmount;\n            funderInvitees[i] = steps[_stepIndex].funder[funderAddress[i]].invitees.length;\n            earnFromAff[i] = steps[currentStep].funder[funderAddress[i]].earnFromAff;\n        }\n\n        emit StepFunders(funderAddress, funderTokenAmount, funderETHAmount, funderInvitees, earnFromAff);\n    }\n\n    /// @notice tokenETH\n    function getCurrentStepFundsInfo()\n        public\n    {\n        require(crowdsaleIsRunning(), \"\");\n        emit FundsInfo(steps[currentStep].building.openTokenAmount, steps[currentStep].funding.raisedETH);\n    }\n\n    /// @notice \n    function getBuildingPerioInfo()\n        public\n        isBuildingPeriod()\n    {\n        require(crowdsaleIsRunning(), \"\");\n        uint256 _bpCountdown;\n        uint256 _remainingToken;\n        uint256 _personalTokenLimited;\n        uint256 _totalTokenAmount;\n\n        _bpCountdown = (openingTime + 8 hours) - block.timestamp;\n        _remainingToken = steps[currentStep].building.openTokenAmount.sub(steps[currentStep].building.raisedToken);\n        _personalTokenLimited = steps[currentStep].building.personalTokenLimited;\n        _totalTokenAmount = steps[currentStep].building.raisedTokenAmount;\n        emit BuildingPerioInfo(_bpCountdown, _remainingToken, _personalTokenLimited, _totalTokenAmount);\n    }\n\n    // \n    function getFundingPeriodInfo()\n        public\n        isFundingPeriod()\n    {\n        require(crowdsaleIsRunning(), \"\");\n        uint256 _fpCountdown;\n        uint256 _remainingETH;\n        uint256 _rasiedETHAmount;\n\n        _fpCountdown = (openingTime + 24) - block.timestamp;\n        _remainingETH = steps[currentStep].funding.raiseTarget.sub(steps[currentStep].funding.raisedETH);\n        _rasiedETHAmount = steps[currentStep].funding.raisedETH;\n        emit FundingPeriodInfo(_fpCountdown, _remainingETH, _rasiedETHAmount);\n    }\n\n    /// @notice \n    /// @dev \n    /// @param _stepIndex \n    function getFissionRewardInfo(uint256 _stepIndex)\n        public\n    {\n        fissionRewardInstance.getFissionInfo(_stepIndex);\n    }\n\n    /// @notice FOMO\n    /// @dev FOMO\n    /// @param _stepIndex \n    function getFOMORewardIofo(uint256 _stepIndex)\n        public\n    {\n        FOMORewardInstance.getFOMOWinnerInfo(_stepIndex);\n    }\n\n    /// @notice \n    /// @dev \n    /// @param _stepIndex \n    function getLuckyRewardInfo(uint256 _stepIndex)\n        public\n    {\n        luckyRewardInstance.getLuckyInfo(_stepIndex);\n    }\n\n    /// @notice \n    /// @dev \n    function getFaithRewardInfo()\n        public\n    {\n        faithRewardInstance.getFaithWinnerInfo();\n    }\n\n    /// @notice \n    function getFunderInfo(address _funder) public {\n        Funder memory funder = steps[currentStep].funder[_funder];\n\n        uint256[] memory funderInfo;\n\n        funderInfo[0] = tokenBalance[_funder];\n        funderInfo[1] = ETHBalance[_funder];\n        funderInfo[2] = funder.invitees.length;\n        funderInfo[3] = funder.earnFromAff;\n        funderInfo[4] = funder.tokenAmount;\n        funderInfo[5] = funder.ethAmount;\n        funderInfo[6] = luckyRewardInstance.luckyFunderTotalBalance(_funder);\n        funderInfo[7] = fissionRewardInstance.fissionFunderTotalBalance(_funder);\n        funderInfo[8] = FOMORewardInstance.FOMOFunderTotalBalance(_funder);\n        funderInfo[9] = faithRewardInstance.faithRewardAmount(_funder);\n\n        emit FunderInfo(funderInfo);\n    }\n\n    /// @notice \n    /// @param _promoter msg.sender\n    function _addBuilder(address _promoter) internal {\n        // \n        steps[currentStep].funder[msg.sender].funderAddr = msg.sender;\n        steps[currentStep].funder[msg.sender].promoter = _promoter;\n        steps[currentStep].funder[msg.sender].isBuilder = true;\n    }\n\n    /// @notice \n    function crowdsaleIsRunning() public view returns(bool) {\n        return !crowdsaleClosed;\n    }\n\n    /// @notice \n    function Beneficiary() public view returns(address payable) {\n        return beneficiary;\n    }\n\n    /// @notice hash\n    function getBlockHash() public view returns(bytes32 blockHash) {\n        return blockhash(steps[currentStep].blockNumber.add(1));\n    }\n\n}",
  "sourcePath": "/Users/a186r/dev/sourcecode/contracts/contract/contract/contracts/Resonance.sol",
  "compiler": {
    "name": "solc",
    "version": "0.5.2+commit.1df8f40c.Emscripten.clang"
  },
  "schemaVersion": "3.0.6",
  "updatedAt": "2019-05-24T10:19:19.548Z",
  "devdoc": {
    "methods": {
      "constructor": {
        "params": {
          "_abcToken": "Token",
          "_beneficiary": "",
          "_initialFissionPerson": ""
        }
      },
      "getFOMORewardIofo(uint256)": {
        "details": "FOMO",
        "params": {
          "_stepIndex": ""
        }
      },
      "getFaithRewardInfo()": {
        "details": ""
      },
      "getFissionRewardInfo(uint256)": {
        "details": "",
        "params": {
          "_stepIndex": ""
        }
      },
      "getLuckyRewardInfo(uint256)": {
        "details": "",
        "params": {
          "_stepIndex": ""
        }
      },
      "getStepFunders(uint256)": {
        "details": "funders",
        "params": {
          "_stepIndex": ""
        }
      },
      "isBuilder()": {
        "details": "jointlyBuildtoBeFissionPerson"
      },
      "isOwner()": {
        "return": "true if `msg.sender` is the owner of the contract."
      },
      "owner()": {
        "return": "the address of the owner."
      },
      "renounceOwnership()": {
        "details": "Allows the current owner to relinquish control of the contract. It will not be possible to call the functions with the `onlyOwner` modifier anymore."
      },
      "setRaiseTarget(uint256)": {
        "details": ""
      },
      "settlementFaithReward(address[])": {
        "params": {
          "_FaithWinnerList": ""
        }
      },
      "settlementStep(address[],address[])": {
        "details": "",
        "params": {
          "_LuckyWinnerList": "",
          "_fissionWinnerList": ""
        }
      },
      "toBeFissionPerson(address)": {
        "details": "TokenApprove",
        "params": {
          "promoter": ""
        }
      },
      "transferOwnership(address)": {
        "details": "Allows the current owner to transfer control of the contract to a newOwner.",
        "params": {
          "newOwner": "The address to transfer ownership to."
        }
      }
    }
  },
  "userdoc": {
    "methods": {
      "Beneficiary()": {
        "notice": ""
      },
      "constructor": "",
      "crowdsaleIsRunning()": {
        "notice": ""
      },
      "getBlockHash()": {
        "notice": "hash"
      },
      "getBuildingPerioInfo()": {
        "notice": ""
      },
      "getCurrentStepFundsInfo()": {
        "notice": "tokenETH"
      },
      "getFOMORewardIofo(uint256)": {
        "notice": "FOMO"
      },
      "getFaithRewardInfo()": {
        "notice": ""
      },
      "getFissionRewardInfo(uint256)": {
        "notice": ""
      },
      "getFunderInfo(address)": {
        "notice": ""
      },
      "getFunderTotalRaised(address)": {
        "notice": "ETH"
      },
      "getLuckyRewardInfo(uint256)": {
        "notice": ""
      },
      "getResonances()": {
        "notice": ""
      },
      "getStepFunders(uint256)": {
        "notice": "funders"
      },
      "isBuilder()": {
        "notice": ""
      },
      "isFunder()": {
        "notice": ""
      },
      "renounceOwnership()": {
        "notice": "Renouncing ownership will leave the contract without an owner, thereby removing any functionality that is only available to the owner."
      },
      "setRaiseTarget(uint256)": {
        "notice": ""
      },
      "settlementFaithReward(address[])": {
        "notice": ""
      },
      "settlementStep(address[],address[])": {
        "notice": ""
      },
      "toBeFissionPerson(address)": {
        "notice": ""
      },
      "withdrawAllETH()": {
        "notice": "(ETH)"
      },
      "withdrawAllToken()": {
        "notice": "tokentoken"
      }
    }
  }
}