{
  "contractName": "Resonance",
  "abi": [
    {
      "constant": true,
      "inputs": [],
      "name": "beneficiary",
      "outputs": [
        {
          "name": "",
          "type": "address"
        }
      ],
      "payable": false,
      "stateMutability": "view",
      "type": "function"
    },
    {
      "constant": true,
      "inputs": [],
      "name": "faithRewardTotalAmount",
      "outputs": [
        {
          "name": "",
          "type": "uint256"
        }
      ],
      "payable": false,
      "stateMutability": "view",
      "type": "function"
    },
    {
      "constant": true,
      "inputs": [],
      "name": "currentStep",
      "outputs": [
        {
          "name": "",
          "type": "uint256"
        }
      ],
      "payable": false,
      "stateMutability": "view",
      "type": "function"
    },
    {
      "constant": false,
      "inputs": [],
      "name": "renounceOwnership",
      "outputs": [],
      "payable": false,
      "stateMutability": "nonpayable",
      "type": "function"
    },
    {
      "constant": true,
      "inputs": [],
      "name": "owner",
      "outputs": [
        {
          "name": "",
          "type": "address"
        }
      ],
      "payable": false,
      "stateMutability": "view",
      "type": "function"
    },
    {
      "constant": true,
      "inputs": [],
      "name": "isOwner",
      "outputs": [
        {
          "name": "",
          "type": "bool"
        }
      ],
      "payable": false,
      "stateMutability": "view",
      "type": "function"
    },
    {
      "constant": true,
      "inputs": [],
      "name": "initialFissionPerson",
      "outputs": [
        {
          "name": "",
          "type": "address"
        }
      ],
      "payable": false,
      "stateMutability": "view",
      "type": "function"
    },
    {
      "constant": true,
      "inputs": [],
      "name": "totalETHFromParty",
      "outputs": [
        {
          "name": "",
          "type": "uint256"
        }
      ],
      "payable": false,
      "stateMutability": "view",
      "type": "function"
    },
    {
      "constant": true,
      "inputs": [
        {
          "name": "",
          "type": "address"
        }
      ],
      "name": "isBuilder",
      "outputs": [
        {
          "name": "",
          "type": "bool"
        }
      ],
      "payable": false,
      "stateMutability": "view",
      "type": "function"
    },
    {
      "constant": true,
      "inputs": [],
      "name": "firstParamInitialized",
      "outputs": [
        {
          "name": "",
          "type": "bool"
        }
      ],
      "payable": false,
      "stateMutability": "view",
      "type": "function"
    },
    {
      "constant": true,
      "inputs": [
        {
          "name": "",
          "type": "uint256"
        }
      ],
      "name": "tokenTransfered",
      "outputs": [
        {
          "name": "",
          "type": "bool"
        }
      ],
      "payable": false,
      "stateMutability": "view",
      "type": "function"
    },
    {
      "constant": false,
      "inputs": [
        {
          "name": "newOwner",
          "type": "address"
        }
      ],
      "name": "transferOwnership",
      "outputs": [],
      "payable": false,
      "stateMutability": "nonpayable",
      "type": "function"
    },
    {
      "inputs": [
        {
          "name": "_BDEToken",
          "type": "address"
        },
        {
          "name": "_resonanceDataManageAddress",
          "type": "address"
        },
        {
          "name": "_fassionRewardAddress",
          "type": "address"
        },
        {
          "name": "_FOMORewardAddress",
          "type": "address"
        },
        {
          "name": "_luckyRewardAddress",
          "type": "address"
        },
        {
          "name": "_faithRewardAddress",
          "type": "address"
        }
      ],
      "payable": false,
      "stateMutability": "nonpayable",
      "type": "constructor"
    },
    {
      "payable": true,
      "stateMutability": "payable",
      "type": "fallback"
    },
    {
      "anonymous": false,
      "inputs": [
        {
          "indexed": true,
          "name": "fissionPerson",
          "type": "address"
        },
        {
          "indexed": true,
          "name": "promoter",
          "type": "address"
        }
      ],
      "name": "ToBeFissionPerson",
      "type": "event"
    },
    {
      "anonymous": false,
      "inputs": [
        {
          "indexed": false,
          "name": "currentStepTokenAmount",
          "type": "uint256"
        },
        {
          "indexed": false,
          "name": "currentStepRaisedETH",
          "type": "uint256"
        }
      ],
      "name": "FundsInfo",
      "type": "event"
    },
    {
      "anonymous": false,
      "inputs": [
        {
          "indexed": false,
          "name": "bpCountdown",
          "type": "uint256"
        },
        {
          "indexed": false,
          "name": "remainingToken",
          "type": "uint256"
        },
        {
          "indexed": false,
          "name": "personalTokenLimited",
          "type": "uint256"
        },
        {
          "indexed": false,
          "name": "totalTokenAmount",
          "type": "uint256"
        }
      ],
      "name": "BuildingPerioInfo",
      "type": "event"
    },
    {
      "anonymous": false,
      "inputs": [
        {
          "indexed": false,
          "name": "fpCountdown",
          "type": "uint256"
        },
        {
          "indexed": false,
          "name": "remainingETH",
          "type": "uint256"
        },
        {
          "indexed": false,
          "name": "rasiedETHAmount",
          "type": "uint256"
        }
      ],
      "name": "FundingPeriodInfo",
      "type": "event"
    },
    {
      "anonymous": false,
      "inputs": [
        {
          "indexed": false,
          "name": "fissionRewardList",
          "type": "address[]"
        },
        {
          "indexed": false,
          "name": "fissionRewardAmount",
          "type": "uint256[]"
        }
      ],
      "name": "FissionRewardInfo",
      "type": "event"
    },
    {
      "anonymous": false,
      "inputs": [
        {
          "indexed": false,
          "name": "FOMORewardList",
          "type": "address[]"
        },
        {
          "indexed": false,
          "name": "FOMORewards",
          "type": "uint256[]"
        }
      ],
      "name": "FOMORewardInfo",
      "type": "event"
    },
    {
      "anonymous": false,
      "inputs": [
        {
          "indexed": false,
          "name": "luckyRewardList",
          "type": "address[]"
        },
        {
          "indexed": false,
          "name": "luckyReward",
          "type": "uint256"
        }
      ],
      "name": "LuckyRewardInfo",
      "type": "event"
    },
    {
      "anonymous": false,
      "inputs": [
        {
          "indexed": false,
          "name": "faithRewardList",
          "type": "address[]"
        },
        {
          "indexed": false,
          "name": "faithRewardAmount",
          "type": "uint256[]"
        }
      ],
      "name": "FaithRewardInfo",
      "type": "event"
    },
    {
      "anonymous": false,
      "inputs": [
        {
          "indexed": false,
          "name": "addr",
          "type": "address"
        },
        {
          "indexed": false,
          "name": "ETHAmount",
          "type": "uint256"
        }
      ],
      "name": "WithdrawAllETH",
      "type": "event"
    },
    {
      "anonymous": false,
      "inputs": [
        {
          "indexed": false,
          "name": "from",
          "type": "address"
        },
        {
          "indexed": false,
          "name": "to",
          "type": "address"
        },
        {
          "indexed": false,
          "name": "tokenAmount",
          "type": "uint256"
        }
      ],
      "name": "WithdrawAllToken",
      "type": "event"
    },
    {
      "anonymous": false,
      "inputs": [
        {
          "indexed": false,
          "name": "FunderInfoArray",
          "type": "uint256[]"
        }
      ],
      "name": "FunderInfo",
      "type": "event"
    },
    {
      "anonymous": false,
      "inputs": [
        {
          "indexed": false,
          "name": "funderAddress",
          "type": "address[]"
        },
        {
          "indexed": false,
          "name": "funderTokenAmount",
          "type": "uint256[]"
        },
        {
          "indexed": false,
          "name": "funderETHAmount",
          "type": "uint256[]"
        },
        {
          "indexed": false,
          "name": "funderInvitees",
          "type": "uint256[]"
        },
        {
          "indexed": false,
          "name": "funderEarnFromAff",
          "type": "uint256[]"
        }
      ],
      "name": "StepFunders",
      "type": "event"
    },
    {
      "anonymous": false,
      "inputs": [
        {
          "indexed": false,
          "name": "stepIndex",
          "type": "uint256"
        }
      ],
      "name": "SettlementStep",
      "type": "event"
    },
    {
      "anonymous": false,
      "inputs": [
        {
          "indexed": false,
          "name": "stepIndex",
          "type": "uint256"
        }
      ],
      "name": "StartNextStep",
      "type": "event"
    },
    {
      "anonymous": false,
      "inputs": [
        {
          "indexed": false,
          "name": "stepIndex",
          "type": "uint256"
        },
        {
          "indexed": false,
          "name": "raiseTarget",
          "type": "uint256"
        }
      ],
      "name": "SetRaiseTarget",
      "type": "event"
    },
    {
      "anonymous": false,
      "inputs": [
        {
          "indexed": false,
          "name": "resonances",
          "type": "address[]"
        }
      ],
      "name": "GetResonances",
      "type": "event"
    },
    {
      "anonymous": false,
      "inputs": [
        {
          "indexed": false,
          "name": "resonancesRasiedETH",
          "type": "uint256"
        }
      ],
      "name": "FunderTotalRaised",
      "type": "event"
    },
    {
      "anonymous": false,
      "inputs": [
        {
          "indexed": false,
          "name": "raisedETHAmount",
          "type": "uint256"
        },
        {
          "indexed": false,
          "name": "nowRaisedEther",
          "type": "uint256"
        },
        {
          "indexed": false,
          "name": "totalRemainingEther",
          "type": "uint256"
        }
      ],
      "name": "currentStepRaisedEther",
      "type": "event"
    },
    {
      "anonymous": false,
      "inputs": [
        {
          "indexed": false,
          "name": "raisedTokenAmount",
          "type": "uint256"
        },
        {
          "indexed": false,
          "name": "remainingTokenForPersonal",
          "type": "uint256"
        },
        {
          "indexed": false,
          "name": "totalRemainingToken",
          "type": "uint256"
        }
      ],
      "name": "currentStepRaisedToken",
      "type": "event"
    },
    {
      "anonymous": false,
      "inputs": [
        {
          "indexed": true,
          "name": "previousOwner",
          "type": "address"
        },
        {
          "indexed": true,
          "name": "newOwner",
          "type": "address"
        }
      ],
      "name": "OwnershipTransferred",
      "type": "event"
    },
    {
      "constant": false,
      "inputs": [
        {
          "name": "_newOwner",
          "type": "address"
        },
        {
          "name": "_beneficiary",
          "type": "address"
        },
        {
          "name": "_initialFissionPerson",
          "type": "address"
        }
      ],
      "name": "initParamForFirstStep",
      "outputs": [],
      "payable": false,
      "stateMutability": "nonpayable",
      "type": "function"
    },
    {
      "constant": false,
      "inputs": [
        {
          "name": "promoter",
          "type": "address"
        }
      ],
      "name": "toBeFissionPerson",
      "outputs": [
        {
          "name": "",
          "type": "address"
        },
        {
          "name": "",
          "type": "address"
        }
      ],
      "payable": false,
      "stateMutability": "nonpayable",
      "type": "function"
    },
    {
      "constant": false,
      "inputs": [
        {
          "name": "_raiseTarget",
          "type": "uint256"
        }
      ],
      "name": "setRaiseTarget",
      "outputs": [
        {
          "name": "",
          "type": "uint256"
        },
        {
          "name": "",
          "type": "uint256"
        }
      ],
      "payable": false,
      "stateMutability": "nonpayable",
      "type": "function"
    },
    {
      "constant": true,
      "inputs": [
        {
          "name": "_stepIndex",
          "type": "uint256"
        }
      ],
      "name": "getRaiseTarget",
      "outputs": [
        {
          "name": "",
          "type": "uint256"
        }
      ],
      "payable": false,
      "stateMutability": "view",
      "type": "function"
    },
    {
      "constant": false,
      "inputs": [
        {
          "name": "_tokenAmount",
          "type": "uint256"
        }
      ],
      "name": "jointlyBuild",
      "outputs": [],
      "payable": false,
      "stateMutability": "nonpayable",
      "type": "function"
    },
    {
      "constant": false,
      "inputs": [],
      "name": "transferToken",
      "outputs": [
        {
          "name": "",
          "type": "bool"
        }
      ],
      "payable": true,
      "stateMutability": "payable",
      "type": "function"
    },
    {
      "constant": false,
      "inputs": [
        {
          "name": "_fissionWinnerList",
          "type": "address[]"
        },
        {
          "name": "_LuckyWinnerList",
          "type": "address[]"
        }
      ],
      "name": "settlementStep",
      "outputs": [
        {
          "name": "",
          "type": "bool"
        }
      ],
      "payable": false,
      "stateMutability": "nonpayable",
      "type": "function"
    },
    {
      "constant": false,
      "inputs": [
        {
          "name": "_FaithWinnerList",
          "type": "address[]"
        }
      ],
      "name": "settlementFaithReward",
      "outputs": [
        {
          "name": "",
          "type": "bool"
        }
      ],
      "payable": false,
      "stateMutability": "nonpayable",
      "type": "function"
    },
    {
      "constant": false,
      "inputs": [],
      "name": "withdrawAllToken",
      "outputs": [
        {
          "name": "",
          "type": "address"
        },
        {
          "name": "",
          "type": "address"
        },
        {
          "name": "",
          "type": "uint256"
        }
      ],
      "payable": true,
      "stateMutability": "payable",
      "type": "function"
    },
    {
      "constant": false,
      "inputs": [],
      "name": "withdrawAllETH",
      "outputs": [
        {
          "name": "",
          "type": "address"
        },
        {
          "name": "",
          "type": "uint256"
        }
      ],
      "payable": true,
      "stateMutability": "payable",
      "type": "function"
    },
    {
      "constant": false,
      "inputs": [],
      "name": "withdrawFaithRewardAndRefund",
      "outputs": [
        {
          "name": "",
          "type": "bool"
        }
      ],
      "payable": true,
      "stateMutability": "payable",
      "type": "function"
    },
    {
      "constant": false,
      "inputs": [],
      "name": "withdrawAllETHByOwner",
      "outputs": [],
      "payable": true,
      "stateMutability": "payable",
      "type": "function"
    },
    {
      "constant": true,
      "inputs": [],
      "name": "isFunder",
      "outputs": [
        {
          "name": "",
          "type": "bool"
        }
      ],
      "payable": false,
      "stateMutability": "view",
      "type": "function"
    },
    {
      "constant": true,
      "inputs": [
        {
          "name": "_stepIndex",
          "type": "uint256"
        }
      ],
      "name": "isFunderByStep",
      "outputs": [
        {
          "name": "",
          "type": "bool"
        }
      ],
      "payable": false,
      "stateMutability": "view",
      "type": "function"
    },
    {
      "constant": true,
      "inputs": [
        {
          "name": "_funder",
          "type": "address"
        }
      ],
      "name": "getInvitees",
      "outputs": [
        {
          "name": "",
          "type": "address[]"
        }
      ],
      "payable": false,
      "stateMutability": "view",
      "type": "function"
    },
    {
      "constant": true,
      "inputs": [],
      "name": "getResonances",
      "outputs": [
        {
          "name": "",
          "type": "address[]"
        }
      ],
      "payable": false,
      "stateMutability": "view",
      "type": "function"
    },
    {
      "constant": true,
      "inputs": [
        {
          "name": "_funder",
          "type": "address"
        }
      ],
      "name": "getFunderTotalRaised",
      "outputs": [
        {
          "name": "",
          "type": "uint256"
        }
      ],
      "payable": false,
      "stateMutability": "view",
      "type": "function"
    },
    {
      "constant": true,
      "inputs": [
        {
          "name": "_stepIndex",
          "type": "uint256"
        }
      ],
      "name": "getStepFunders",
      "outputs": [
        {
          "name": "",
          "type": "address[]"
        },
        {
          "name": "",
          "type": "uint256[]"
        },
        {
          "name": "",
          "type": "uint256[]"
        },
        {
          "name": "",
          "type": "uint256[]"
        },
        {
          "name": "",
          "type": "uint256[]"
        },
        {
          "name": "",
          "type": "uint256[]"
        }
      ],
      "payable": false,
      "stateMutability": "view",
      "type": "function"
    },
    {
      "constant": true,
      "inputs": [],
      "name": "getCurrentStepFundsInfo",
      "outputs": [
        {
          "name": "",
          "type": "uint256"
        },
        {
          "name": "",
          "type": "uint256"
        },
        {
          "name": "",
          "type": "uint256"
        }
      ],
      "payable": false,
      "stateMutability": "view",
      "type": "function"
    },
    {
      "constant": true,
      "inputs": [],
      "name": "getWithdrawAmountPriv",
      "outputs": [
        {
          "name": "",
          "type": "uint256"
        },
        {
          "name": "",
          "type": "uint256"
        }
      ],
      "payable": false,
      "stateMutability": "view",
      "type": "function"
    },
    {
      "constant": true,
      "inputs": [],
      "name": "getBuildingPerioInfo",
      "outputs": [
        {
          "name": "",
          "type": "uint256"
        },
        {
          "name": "",
          "type": "uint256"
        },
        {
          "name": "",
          "type": "uint256"
        },
        {
          "name": "",
          "type": "uint256"
        }
      ],
      "payable": false,
      "stateMutability": "view",
      "type": "function"
    },
    {
      "constant": true,
      "inputs": [],
      "name": "getFundingPeriodInfo",
      "outputs": [
        {
          "name": "",
          "type": "uint256"
        },
        {
          "name": "",
          "type": "uint256"
        },
        {
          "name": "",
          "type": "uint256"
        }
      ],
      "payable": false,
      "stateMutability": "view",
      "type": "function"
    },
    {
      "constant": true,
      "inputs": [],
      "name": "getFunderRewardInfo",
      "outputs": [
        {
          "name": "",
          "type": "uint256"
        },
        {
          "name": "",
          "type": "uint256"
        },
        {
          "name": "",
          "type": "uint256"
        },
        {
          "name": "",
          "type": "uint256"
        }
      ],
      "payable": false,
      "stateMutability": "view",
      "type": "function"
    },
    {
      "constant": true,
      "inputs": [],
      "name": "getFunderAffInfo",
      "outputs": [
        {
          "name": "",
          "type": "uint256"
        },
        {
          "name": "",
          "type": "uint256"
        }
      ],
      "payable": false,
      "stateMutability": "view",
      "type": "function"
    },
    {
      "constant": true,
      "inputs": [
        {
          "name": "_stepIndex",
          "type": "uint256"
        }
      ],
      "name": "getFunderWithdrawTokenAmount",
      "outputs": [
        {
          "name": "",
          "type": "uint256"
        }
      ],
      "payable": false,
      "stateMutability": "view",
      "type": "function"
    },
    {
      "constant": true,
      "inputs": [
        {
          "name": "_stepIndex",
          "type": "uint256"
        }
      ],
      "name": "getFunderWithdrawETHAmount",
      "outputs": [
        {
          "name": "",
          "type": "uint256"
        }
      ],
      "payable": false,
      "stateMutability": "view",
      "type": "function"
    },
    {
      "constant": true,
      "inputs": [
        {
          "name": "_stepIndex",
          "type": "uint256"
        }
      ],
      "name": "getFunderTokenAmount",
      "outputs": [
        {
          "name": "",
          "type": "uint256"
        }
      ],
      "payable": false,
      "stateMutability": "view",
      "type": "function"
    },
    {
      "constant": true,
      "inputs": [
        {
          "name": "_stepIndex",
          "type": "uint256"
        }
      ],
      "name": "getFunderETHAmount",
      "outputs": [
        {
          "name": "",
          "type": "uint256"
        }
      ],
      "payable": false,
      "stateMutability": "view",
      "type": "function"
    },
    {
      "constant": true,
      "inputs": [
        {
          "name": "_stepIndex",
          "type": "uint256"
        }
      ],
      "name": "getBlockHash",
      "outputs": [
        {
          "name": "",
          "type": "bytes32"
        }
      ],
      "payable": false,
      "stateMutability": "view",
      "type": "function"
    },
    {
      "constant": false,
      "inputs": [
        {
          "name": "_stepIndex",
          "type": "uint256"
        }
      ],
      "name": "setBlockHash",
      "outputs": [
        {
          "name": "",
          "type": "bool"
        }
      ],
      "payable": false,
      "stateMutability": "nonpayable",
      "type": "function"
    },
    {
      "constant": true,
      "inputs": [
        {
          "name": "_stepIndex",
          "type": "uint256"
        }
      ],
      "name": "currentStepIsClosed",
      "outputs": [
        {
          "name": "",
          "type": "bool"
        }
      ],
      "payable": false,
      "stateMutability": "view",
      "type": "function"
    }
  ],
  "bytecode": "0x60806040523480156200001157600080fd5b5060405160c08062005960833981018060405260c08110156200003357600080fd5b50805160208201516040808401516060850151608086015160a09096015160008054600160a060020a03191633178082559451969795969395929492939192600160a060020a0316917f8be0079c531659141344cd1fd0a4f28419497f9722a3daafe3b4186f6b6457e0908290a360028054600160a060020a03968716600160a060020a0319918216179091556009805495871695821695909517909455600a805493861693851693909317909255600b8054918516918416919091179055600c805491841691831691909117905560006010556001805493909216921691909117905561583980620001276000396000f3fe6080604052600436106102605760003560e060020a900480639642a86b11610148578063d50cf02d116100ba578063def117771161007e578063def1177714610f9c578063e15ce92714610fb1578063e9881a5e14610fe4578063ee82ac5e14611017578063f2fde38b14611041578063feaec7751461107457610260565b8063d50cf02d14610e95578063db27cf6114610eda578063dbac3c9614610f04578063de3844ff14610f19578063de45dbd514610f7257610260565b8063b4c069821161010c578063b4c0698214610ce7578063b5ac72b514610cef578063b6b6b47514610e23578063c12cd1bc14610e56578063c27438ac14610e6b578063c2cb21ba14610e8057610260565b80639642a86b14610c2a578063a41e5bff14610c3f578063ad539f1414610c69578063b2d7da0714610c93578063b4862a7114610cbd57610260565b80635bc34f71116101e1578063891d7e79116101a5578063891d7e7914610b285780638da5cb5b14610b8d5780638f32d59b14610ba257806390386bbf14610bb757806390fa85f814610be2578063912c84ec14610bf757610260565b80635bc34f7114610a095780635deac38b14610a1e57806364ab07fa14610ace578063715018a614610b09578063799a535914610b2057610260565b80634c090a97116102285780634c090a971461093a5780634db4a03914610964578063508bf76b146109a057806356d1121a146109b55780635802a6ce146109df57610260565b806311c850de146106a157806314870d2c146106bd57806316b29746146106ef57806338af3eed146108c65780634559ff9b146108f7575b600260009054906101000a9004600160a060020a0316600160a060020a03166374ebae066040518163ffffffff1660e060020a02815260040160206040518083038186803b1580156102b157600080fd5b505afa1580156102c5573d6000803e3d6000fd5b505050506040513d60208110156102db57600080fd5b50511515610333576040805160e560020a62461bcd02815260206004820152601260248201527fe4b88de59ca8e58b9fe8b584e69c9fe586850000000000000000000000000000604482015290519081900360640190fd5b600260009054906101000a9004600160a060020a0316600160a060020a031663743acbab6040518163ffffffff1660e060020a02815260040160206040518083038186803b15801561038457600080fd5b505afa158015610398573d6000803e3d6000fd5b505050506040513d60208110156103ae57600080fd5b505115610405576040805160e560020a62461bcd02815260206004820152601260248201527fe585b1e68cafe5b7b2e7bb8fe7bb93e69d9f0000000000000000000000000000604482015290519081900360640190fd5b3467016345785d8a00008110156104505760405160e560020a62461bcd0281526004018080602001828103825260278152602001806155a56027913960400191505060405180910390fd5b6010546000908152601160205260409020600681015460079091015461047d90349063ffffffff61108916565b11156104bd5760405160e560020a62461bcd0281526004018080602001828103825260248152602001806157116024913960400191505060405180910390fd5b601054600090815260116020908152604080832033845290915290206003015460a060020a900460ff161515610522576010546000908152601160209081526040822060019081018054918201815583529120018054600160a060020a031916331790555b601080546000908152600860209081526040808320805460018181018355918552838520018054600160a060020a031990811633908117909255865486526011808652848720838852865284872060020180548a0190558754875280865284872083885286528487206003908101805474ff0000000000000000000000000000000000000000191660a060020a17905588548852818752858820600790810180548c01905589548952868920858a52885286892090910154600160a060020a0316885280875285882080548b019055600d805495860190557fd7b6990105719101dabeb77144f2a3385c8033acd3af97e9423a695e81ad1eb590940180549092168317909155908552600e845282852080548801905594548452939091529020908101546009909101547f7d1cfe07223bbd14a8ce463bdbce6653a12b4514a78bbaebade93333b78d6e2291908390610681908363ffffffff6110a416565b60408051938452602084019290925282820152519081900360600190a150005b6106a96110b9565b604080519115158252519081900360200190f35b6106c56115a8565b60408051600160a060020a0394851681529290931660208301528183015290519081900360600190f35b3480156106fb57600080fd5b506107196004803603602081101561071257600080fd5b5035611a15565b6040518080602001806020018060200180602001806020018060200187810387528d818151815260200191508051906020019060200280838360005b8381101561076d578181015183820152602001610755565b5050505090500187810386528c818151815260200191508051906020019060200280838360005b838110156107ac578181015183820152602001610794565b5050505090500187810385528b818151815260200191508051906020019060200280838360005b838110156107eb5781810151838201526020016107d3565b5050505090500187810384528a818151815260200191508051906020019060200280838360005b8381101561082a578181015183820152602001610812565b50505050905001878103835289818151815260200191508051906020019060200280838360005b83811015610869578181015183820152602001610851565b50505050905001878103825288818151815260200191508051906020019060200280838360005b838110156108a8578181015183820152602001610890565b505050509050019c5050505050505050505050505060405180910390f35b3480156108d257600080fd5b506108db611dc6565b60408051600160a060020a039092168252519081900360200190f35b34801561090357600080fd5b506109216004803603602081101561091a57600080fd5b5035611dd5565b6040805192835260208301919091528051918290030190f35b34801561094657600080fd5b506106a96004803603602081101561095d57600080fd5b5035611f2d565b34801561097057600080fd5b5061098e6004803603602081101561098757600080fd5b5035611f5a565b60408051918252519081900360200190f35b3480156109ac57600080fd5b5061098e611fae565b3480156109c157600080fd5b506106a9600480360360208110156109d857600080fd5b5035611fb4565b3480156109eb57600080fd5b5061098e60048036036020811015610a0257600080fd5b5035611fd1565b348015610a1557600080fd5b5061098e61203d565b348015610a2a57600080fd5b506106a960048036036020811015610a4157600080fd5b810190602081018135640100000000811115610a5c57600080fd5b820183602082011115610a6e57600080fd5b80359060200191846020830284011164010000000083111715610a9057600080fd5b919080806020026020016040519081016040528093929190818152602001838360200280828437600092019190915250929550612043945050505050565b348015610ada57600080fd5b50610ae361220a565b604080519485526020850193909352838301919091526060830152519081900360800190f35b348015610b1557600080fd5b50610b1e6123f6565b005b6106a9612453565b348015610b3457600080fd5b50610b3d61291f565b60408051602080825283518183015283519192839290830191858101910280838360005b83811015610b79578181015183820152602001610b61565b505050509050019250505060405180910390f35b348015610b9957600080fd5b506108db612994565b348015610bae57600080fd5b506106a96129a3565b610bbf6129b4565b60408051600160a060020a03909316835260208301919091528051918290030190f35b348015610bee57600080fd5b506108db612c68565b348015610c0357600080fd5b50610c0c612c77565b60408051938452602084019290925282820152519081900360600190f35b348015610c3657600080fd5b5061098e612c98565b348015610c4b57600080fd5b506106a960048036036020811015610c6257600080fd5b5035612c9e565b348015610c7557600080fd5b5061098e60048036036020811015610c8c57600080fd5b5035612cdb565b348015610c9f57600080fd5b5061098e60048036036020811015610cb657600080fd5b5035612d2f565b348015610cc957600080fd5b50610b1e60048036036020811015610ce057600080fd5b5035612d9b565b610b1e6134c9565b348015610cfb57600080fd5b506106a960048036036040811015610d1257600080fd5b810190602081018135640100000000811115610d2d57600080fd5b820183602082011115610d3f57600080fd5b80359060200191846020830284011164010000000083111715610d6157600080fd5b9190808060200260200160405190810160405280939291908181526020018383602002808284376000920191909152509295949360208101935035915050640100000000811115610db157600080fd5b820183602082011115610dc357600080fd5b80359060200191846020830284011164010000000083111715610de557600080fd5b91908080602002602001604051908101604052809392919081815260200183836020028082843760009201919091525092955061362b945050505050565b348015610e2f57600080fd5b506106a960048036036020811015610e4657600080fd5b5035600160a060020a03166139dd565b348015610e6257600080fd5b50610c0c6139f2565b348015610e7757600080fd5b50610921613b10565b348015610e8c57600080fd5b506106a9613b30565b348015610ea157600080fd5b50610b1e60048036036060811015610eb857600080fd5b50600160a060020a038135811691602081013582169160409091013516613b39565b348015610ee657600080fd5b5061098e60048036036020811015610efd57600080fd5b5035613e2b565b348015610f1057600080fd5b50610ae3613e40565b348015610f2557600080fd5b50610f4c60048036036020811015610f3c57600080fd5b5035600160a060020a0316614094565b60408051600160a060020a03938416815291909216602082015281519081900390910190f35b348015610f7e57600080fd5b506106a960048036036020811015610f9557600080fd5b50356149e7565b348015610fa857600080fd5b506109216149fc565b348015610fbd57600080fd5b5061098e60048036036020811015610fd457600080fd5b5035600160a060020a0316614b13565b348015610ff057600080fd5b50610b3d6004803603602081101561100757600080fd5b5035600160a060020a0316614b44565b34801561102357600080fd5b5061098e6004803603602081101561103a57600080fd5b5035614bba565b34801561104d57600080fd5b50610b1e6004803603602081101561106457600080fd5b5035600160a060020a0316614bd3565b34801561108057600080fd5b506106a9614bf2565b60008282018381101561109b57600080fd5b90505b92915050565b6000828211156110b357600080fd5b50900390565b600254604080517f743acbab0000000000000000000000000000000000000000000000000000000081529051600092600160a060020a03169163743acbab916004808301926020929190829003018186803b15801561111757600080fd5b505afa15801561112b573d6000803e3d6000fd5b505050506040513d602081101561114157600080fd5b505115156111835760405160e560020a62461bcd0281526004018080602001828103825260218152602001806157656021913960400191505060405180910390fd5b3360009081526019602052604090205460ff16156111eb576040805160e560020a62461bcd02815260206004820152601b60248201527fe98080e6acbee5b7b2e7bb8fe68f90e58f96e5ae8ce68890e4ba860000000000604482015290519081900360640190fd5b600254604080517f50b9d89d00000000000000000000000000000000000000000000000000000000815290513392600092600160a060020a03909116916350b9d89d91600480820192602092909190829003018186803b15801561124e57600080fd5b505afa158015611262573d6000803e3d6000fd5b505050506040513d602081101561127857600080fd5b5051600254604080517f1020f72a0000000000000000000000000000000000000000000000000000000081523360048201529051929350600092839261133f92600160a060020a0390911691631020f72a91602480820192602092909190829003018186803b1580156112ea57600080fd5b505afa1580156112fe573d6000803e3d6000fd5b505050506040513d602081101561131457600080fd5b505160008581526011602090815260408083203384529091529020600201549063ffffffff61108916565b600354909150600160a060020a03163314156113d7576002546040805160e060020a635a492217028152600481018690529051600160a060020a0390921691635a49221791602480820192602092909190829003018186803b1580156113a457600080fd5b505afa1580156113b8573d6000803e3d6000fd5b505050506040513d60208110156113ce57600080fd5b505191506113f7565b600083815260116020908152604080832033845290915290206001015491505b60008381526011602090815260408083203380855290835281842060029081018590555482517f1da6dcf10000000000000000000000000000000000000000000000000000000081526004810192909252602482018590529151600160a060020a0390921693631da6dcf19360448084019491939192918390030190829087803b15801561148457600080fd5b505af1158015611498573d6000803e3d6000fd5b505050506040513d60208110156114ae57600080fd5b5050600154604080517fa9059cbb000000000000000000000000000000000000000000000000000000008152336004820152602481018590529051600160a060020a039092169163a9059cbb916044808201926020929091908290030181600087803b15801561151d57600080fd5b505af1158015611531573d6000803e3d6000fd5b505050506040513d602081101561154757600080fd5b5050604051600160a060020a0385169082156108fc029083906000818181858888f1935050505015801561157f573d6000803e3d6000fd5b5050336000908152601960205260409020805460ff19166001179081905560ff16935050505090565b60008060006010546000141515156115f45760405160e560020a62461bcd02815260040180806020018281038252603281526020018061565e6032913960400191505060405180910390fd5b60105460009061160b90600163ffffffff6110a416565b600081815260116020908152604080832033845290915290206003015490915060a060020a900460ff1615156116755760405160e560020a62461bcd02815260040180806020018281038252602a815260200180615614602a913960400191505060405180910390fd5b60008181526011602090815260408083203384529091529020600301547501000000000000000000000000000000000000000000900460ff1615611703576040805160e560020a62461bcd02815260206004820152601d60248201527fe794a8e688b7e5b7b2e7bb8fe68f90e58f96746f6b656ee5ae8ce68890000000604482015290519081900360640190fd5b60008181526011602090815260408083203384529091528120600201541161175f5760405160e560020a62461bcd0281526004018080602001828103825260358152602001806156dc6035913960400191505060405180910390fd5b600081815260116020526040812060070154116117b05760405160e560020a62461bcd0281526004018080602001828103825260258152602001806156b76025913960400191505060405180910390fd5b6002546040805160e060020a635a49221702815260048101849052905160009261185092600160a060020a0390911691635a49221791602480820192602092909190829003018186803b15801561180657600080fd5b505afa15801561181a573d6000803e3d6000fd5b505050506040513d602081101561183057600080fd5b50516000848152601160205260409020600401549063ffffffff61108916565b6000838152601160209081526040808320600781015433855292528220600201549293509091611898919061188c90859063ffffffff614c1f16565b9063ffffffff614c4a16565b600254604080517ef21bf2000000000000000000000000000000000000000000000000000000008152600481018790523360248201529051929350600160a060020a039091169162f21bf29160448082019260009290919082900301818387803b15801561190557600080fd5b505af1158015611919573d6000803e3d6000fd5b505050600084815260116020908152604080832033808552908352818420600301805475ff0000000000000000000000000000000000000000001916750100000000000000000000000000000000000000000017905560015482517fa9059cbb0000000000000000000000000000000000000000000000000000000081526004810192909252602482018790529151600160a060020a0392909216945063a9059cbb9360448083019493928390030190829087803b1580156119da57600080fd5b505af11580156119ee573d6000803e3d6000fd5b505050506040513d6020811015611a0457600080fd5b503097339750919550909350505050565b606080606080606080611a266129a3565b1515611a3157600080fd5b606080606080606080601160008e815260200190815260200160002060010180549050604051908082528060200260200182016040528015611a7d578160200160208202803883390190505b5095508551604051908082528060200260200182016040528015611aab578160200160208202803883390190505b5094508551604051908082528060200260200182016040528015611ad9578160200160208202803883390190505b5093508551604051908082528060200260200182016040528015611b07578160200160208202803883390190505b5092508551604051908082528060200260200182016040528015611b35578160200160208202803883390190505b5091508551604051908082528060200260200182016040528015611b63578160200160208202803883390190505b5060008e8152601160209081526040918290206001018054835181840281018401909452808452939450919290830182828015611bc957602002820191906000526020600020905b8154600160a060020a03168152600190910190602001808311611bab575b50939950600093505050505b8651811015611db15760008e81526011602052604081208851909190899084908110611bfd57fe5b90602001906020020151600160a060020a0316600160a060020a03168152602001908152602001600020600101548682815181101515611c3957fe5b602090810290910181019190915260008f81526011909152604081208851909190899084908110611c6657fe5b90602001906020020151600160a060020a0316600160a060020a03168152602001908152602001600020600201548582815181101515611ca257fe5b602090810290910101528651600590600090899084908110611cc057fe5b6020908102909101810151600160a060020a03168252810191909152604001600020548451859083908110611cf157fe5b602090810290910101528651600690600090899084908110611d0f57fe5b90602001906020020151600160a060020a0316600160a060020a03168152602001908152602001600020548382815181101515611d4857fe5b602090810290910101528651600790600090899084908110611d6657fe5b90602001906020020151600160a060020a0316600160a060020a03168152602001908152602001600020548282815181101515611d9f57fe5b60209081029091010152600101611bd5565b50949c939b5091995097509550909350915050565b600354600160a060020a031681565b600080611de06129a3565b1515611deb57600080fd5b600260009054906101000a9004600160a060020a0316600160a060020a03166325d8e97f6040518163ffffffff1660e060020a02815260040160206040518083038186803b158015611e3c57600080fd5b505afa158015611e50573d6000803e3d6000fd5b505050506040513d6020811015611e6657600080fd5b50511515611ebe576040805160e560020a62461bcd02815260206004820152601260248201527fe4b88de59ca8e585b1e5bbbae69c9fe586850000000000000000000000000000604482015290519081900360640190fd5b6010805460009081526011602052604080822060069081018790559254825290200154611ef99060649061188c90605063ffffffff614c1f16565b6010805460009081526011602052604080822060080193909355815481529190912060068101546009909101555493915050565b600081815260116020908152604080832033845290915290206003015460a060020a900460ff165b919050565b601054600090821115611fa5576040805160e560020a62461bcd028152602060048201526012602482015260008051602061563e833981519152604482015290519081900360640190fd5b61109e82614c6e565b60155481565b6000908152601160205260409020600a0154610100900460ff1690565b60105460009082111561201c576040805160e560020a62461bcd028152602060048201526012602482015260008051602061563e833981519152604482015290519081900360640190fd5b50600090815260116020908152604080832033845290915290206001015490565b60105481565b600061204d6129a3565b151561205857600080fd5b600260009054906101000a9004600160a060020a0316600160a060020a031663743acbab6040518163ffffffff1660e060020a02815260040160206040518083038186803b1580156120a957600080fd5b505afa1580156120bd573d6000803e3d6000fd5b505050506040513d60208110156120d357600080fd5b5051151561212b576040805160e560020a62461bcd02815260206004820152601260248201527fe585b1e68cafe8bf98e69caae7bb93e69d9f0000000000000000000000000000604482015290519081900360640190fd5b600254601554604080517f95bbde880000000000000000000000000000000000000000000000000000000081526024810183905260048101918252855160448201528551600160a060020a03909416936395bbde88938793909290918291606401906020808701910280838360005b838110156121b257818101518382015260200161219a565b505050509050019350505050602060405180830381600087803b1580156121d857600080fd5b505af11580156121ec573d6000803e3d6000fd5b505050506040513d602081101561220257600080fd5b505192915050565b600080600080600080600080426122a6617080600260009054906101000a9004600160a060020a0316600160a060020a031663d74635736040518163ffffffff1660e060020a02815260040160206040518083038186803b15801561226e57600080fd5b505afa158015612282573d6000803e3d6000fd5b505050506040513d602081101561229857600080fd5b50519063ffffffff61108916565b116122b4576000935061231e565b61231b4261230f617080600260009054906101000a9004600160a060020a0316600160a060020a031663d74635736040518163ffffffff1660e060020a02815260040160206040518083038186803b15801561226e57600080fd5b9063ffffffff6110a416565b93505b6002546010546040805160e060020a635a4922170281526004810192909252516123c892600160a060020a031691635a492217916024808301926020929190829003018186803b15801561237157600080fd5b505afa158015612385573d6000803e3d6000fd5b505050506040513d602081101561239b57600080fd5b50516010546000908152601160205260409020600481015460029091015461230f9163ffffffff6110a416565b60105460009081526011602052604090206003810154600590910154959a9199509750939550929350505050565b6123fe6129a3565b151561240957600080fd5b60008054604051600160a060020a03909116907f8be0079c531659141344cd1fd0a4f28419497f9722a3daafe3b4186f6b6457e0908390a360008054600160a060020a0319169055565b600061245d6129a3565b151561246857600080fd5b60105460009081526017602052604090205460ff16156124bc5760405160e560020a62461bcd02815260040180806020018281038252602c8152602001806157b8602c913960400191505060405180910390fd5b6002546010546040805160e060020a635a492217028152600481019290925251600160a060020a0390921691635a49221791602480820192602092909190829003018186803b15801561250e57600080fd5b505afa158015612522573d6000803e3d6000fd5b505050506040513d602081101561253857600080fd5b5051600154604080517fdd62ed3e0000000000000000000000000000000000000000000000000000000081523360048201523060248201529051600160a060020a039092169163dd62ed3e91604480820192602092909190829003018186803b1580156125a457600080fd5b505afa1580156125b8573d6000803e3d6000fd5b505050506040513d60208110156125ce57600080fd5b50511015612626576040805160e560020a62461bcd02815260206004820152601260248201527fe68e88e69d83e9a29de5baa6e4b88de8b6b30000000000000000000000000000604482015290519081900360640190fd5b6001546002546010546040805160e060020a635a492217028152600481019290925251600160a060020a03938416936323b872dd93339330939190921691635a492217916024808301926020929190829003018186803b15801561268957600080fd5b505afa15801561269d573d6000803e3d6000fd5b505050506040513d60208110156126b357600080fd5b50516040805160e060020a63ffffffff8716028152600160a060020a0394851660048201529290931660248301526044820152905160648083019260209291908290030181600087803b15801561270957600080fd5b505af115801561271d573d6000803e3d6000fd5b505050506040513d602081101561273357600080fd5b5051151561278b576040805160e560020a62461bcd02815260206004820152601a60248201527fe8bdace7a7bb746f6b656ee588b0e59088e7baa6e5a4b1e8b4a5000000000000604482015290519081900360640190fd5b6002546010546040805160e060020a635a492217028152600481019290925251600160a060020a03909216916330f42bf6916128aa918491635a492217916024808301926020929190829003018186803b1580156127e857600080fd5b505afa1580156127fc573d6000803e3d6000fd5b505050506040513d602081101561281257600080fd5b5051600254604080517f2734189a0000000000000000000000000000000000000000000000000000000081529051600160a060020a0390921691632734189a91600480820192602092909190829003018186803b15801561287257600080fd5b505afa158015612886573d6000803e3d6000fd5b505050506040513d602081101561289c57600080fd5b50519063ffffffff6110a416565b6040518263ffffffff1660e060020a02815260040180828152602001915050600060405180830381600087803b1580156128e357600080fd5b505af11580156128f7573d6000803e3d6000fd5b50506010546000908152601760205260409020805460ff191660019081179091559250505090565b60606129296129a3565b151561293457600080fd5b600d80548060200260200160405190810160405280929190818152602001828054801561298a57602002820191906000526020600020905b8154600160a060020a0316815260019091019060200180831161296c575b5050505050905090565b600054600160a060020a031690565b600054600160a060020a0316331490565b601054600090819015156129fc5760405160e560020a62461bcd0281526004018080602001828103825260328152602001806157866032913960400191505060405180910390fd5b601054600090612a1390600163ffffffff6110a416565b60008181526011602090815260408083203380855292529091206003015491925090760100000000000000000000000000000000000000000000900460ff1615612a915760405160e560020a62461bcd02815260040180806020018281038252602a8152602001806157e4602a913960400191505060405180910390fd5b600354600090600160a060020a0316331415612b4557600254604080517fcf38beac000000000000000000000000000000000000000000000000000000008152600481018690523360248201529051600160a060020a039092169163cf38beac91604480820192602092909190829003018186803b158015612b1257600080fd5b505afa158015612b26573d6000803e3d6000fd5b505050506040513d6020811015612b3c57600080fd5b50519050612b51565b612b4e83614c6e565b90505b600254604080517fea2f8bd1000000000000000000000000000000000000000000000000000000008152600481018690523360248201529051600160a060020a039092169163ea2f8bd19160448082019260009290919082900301818387803b158015612bbd57600080fd5b505af1158015612bd1573d6000803e3d6000fd5b5050506000848152601160209081526040808320338452909152808220600301805476ff00000000000000000000000000000000000000000000191676010000000000000000000000000000000000000000000017905551600160a060020a038516925083156108fc0291849190818181858888f19350505050158015612c5c573d6000803e3d6000fd5b50339450925050509091565b601254600160a060020a031681565b60105460008181526011602052604090206002810154600790910154909192565b60145481565b6000818152601160205260408120600b01541515612cd35750600081815260116020526040902043600b909101556001611f55565b506000611f55565b601054600090821115612d26576040805160e560020a62461bcd028152602060048201526012602482015260008051602061563e833981519152604482015290519081900360640190fd5b61109e82614dfd565b601054600090821115612d7a576040805160e560020a62461bcd028152602060048201526012602482015260008051602061563e833981519152604482015290519081900360640190fd5b50600090815260116020908152604080832033845290915290206002015490565b600260009054906101000a9004600160a060020a0316600160a060020a03166325d8e97f6040518163ffffffff1660e060020a02815260040160206040518083038186803b158015612dec57600080fd5b505afa158015612e00573d6000803e3d6000fd5b505050506040513d6020811015612e1657600080fd5b50511515612e6e576040805160e560020a62461bcd02815260206004820152601260248201527fe4b88de59ca8e585b1e5bbbae69c9fe586850000000000000000000000000000604482015290519081900360640190fd5b600260009054906101000a9004600160a060020a0316600160a060020a031663743acbab6040518163ffffffff1660e060020a02815260040160206040518083038186803b158015612ebf57600080fd5b505afa158015612ed3573d6000803e3d6000fd5b505050506040513d6020811015612ee957600080fd5b505115612f40576040805160e560020a62461bcd02815260206004820152601260248201527fe585b1e68cafe5b7b2e7bb8fe7bb93e69d9f0000000000000000000000000000604482015290519081900360640190fd5b3360009081526004602052604090205460ff161515612fa9576040805160e560020a62461bcd02815260206004820152601660248201527fe8b083e794a8e88085e4b88de698af4275696c64657200000000000000000000604482015290519081900360640190fd5b6002546010546040805160e060020a635a49221702815260048101929092525161304992600160a060020a031691635a492217916024808301926020929190829003018186803b158015612ffc57600080fd5b505afa158015613010573d6000803e3d6000fd5b505050506040513d602081101561302657600080fd5b50516010546000908152601160205260409020600201549063ffffffff6110a416565b60105460009081526011602052604090206004015461306e908363ffffffff61108916565b11156130ae5760405160e560020a62461bcd02815260040180806020018281038252602d815260200180615557602d913960400191505060405180910390fd5b601054600090815260116020908152604080832060038101543385529252909120600101546130e3908363ffffffff61108916565b11156131235760405160e560020a62461bcd0281526004018080602001828103825260308152602001806157356030913960400191505060405180910390fd5b600154604080517fdd62ed3e00000000000000000000000000000000000000000000000000000000815233600482015230602482015290518392600160a060020a03169163dd62ed3e916044808301926020929190829003018186803b15801561318c57600080fd5b505afa1580156131a0573d6000803e3d6000fd5b505050506040513d60208110156131b657600080fd5b5051101561320e576040805160e560020a62461bcd02815260206004820152601260248201527fe68e88e69d83e9a29de5baa6e4b88de8b6b30000000000000000000000000000604482015290519081900360640190fd5b600154604080517f23b872dd000000000000000000000000000000000000000000000000000000008152336004820152306024820152604481018490529051600160a060020a03909216916323b872dd916064808201926020929091908290030181600087803b15801561328157600080fd5b505af1158015613295573d6000803e3d6000fd5b505050506040513d60208110156132ab57600080fd5b50511515613303576040805160e560020a62461bcd02815260206004820152601a60248201527fe8bdace7a7bb746f6b656ee588b0e59088e7baa6e5a4b1e8b4a5000000000000604482015290519081900360640190fd5b6010805460009081526011602081815260408084203385528252808420600101805487019055935483529081529082902060050180548401905560025482517f2734189a0000000000000000000000000000000000000000000000000000000081529251600160a060020a03909116926330f42bf6926133a19286928692632734189a92600480840193829003018186803b15801561287257600080fd5b6040518263ffffffff1660e060020a02815260040180828152602001915050600060405180830381600087803b1580156133da57600080fd5b505af11580156133ee573d6000803e3d6000fd5b5050336000818152600f602090815260408083208054880190556010805484526011808452828520600490810180548b0190559154808652838620928301549686528285529285206001015492909452929091526003909101547fb78436e636f71b6303dc0f13fabcb2f1fe5c2973ea8de3dd5c2bc9b7fd2b2d3b945091925061347e919063ffffffff6110a416565b601054600090815260116020526040902060048101546002909101546134a99163ffffffff6110a416565b60408051938452602084019290925282820152519081900360600190a150565b6134d16129a3565b15156134dc57600080fd5b600354604051600160a060020a0390911690303180156108fc02916000818181858888f19350505050158015613516573d6000803e3d6000fd5b50600154604080517f70a082310000000000000000000000000000000000000000000000000000000081523060048201529051600160a060020a039092169163a9059cbb91339184916370a08231916024808301926020929190829003018186803b15801561358457600080fd5b505afa158015613598573d6000803e3d6000fd5b505050506040513d60208110156135ae57600080fd5b50516040805160e060020a63ffffffff8616028152600160a060020a03909316600484015260248301919091525160448083019260209291908290030181600087803b1580156135fd57600080fd5b505af1158015613611573d6000803e3d6000fd5b505050506040513d602081101561362757600080fd5b5050565b60006136356129a3565b151561364057600080fd5b600354600160a060020a0316151561368c5760405160e560020a62461bcd0281526004018080602001828103825260218152602001806155846021913960400191505060405180910390fd5b6002546010546000818152601160209081526040808320600781015460089091015482517fc39fa86100000000000000000000000000000000000000000000000000000000815260048101969096526024860191909152604485015251600160a060020a039094169363c39fa86193606480820194918390030190829087803b15801561371857600080fd5b505af115801561372c573d6000803e3d6000fd5b505050506040513d602081101561374257600080fd5b5051156137515750600061109e565b6002546010546040805160e060020a635a4922170281526004810192909252516000926137f792600160a060020a0390911691635a49221791602480820192602092909190829003018186803b1580156137aa57600080fd5b505afa1580156137be573d6000803e3d6000fd5b505050506040513d60208110156137d457600080fd5b50516010546000908152601160205260409020600401549063ffffffff61108916565b90506138c1606461188c8361188c60286138b5600260009054906101000a9004600160a060020a0316600160a060020a0316635a4922176010546040518263ffffffff1660e060020a0281526004018082815260200191505060206040518083038186803b15801561386857600080fd5b505afa15801561387c573d6000803e3d6000fd5b505050506040513d602081101561389257600080fd5b50516010546000908152601160205260409020600701549063ffffffff614c1f16565b9063ffffffff614c1f16565b60108054600090815260136020526040808220939093559054815220546138f7906103e89061188c90607d63ffffffff614c1f16565b60158054909101905561390984614e8e565b61391283615164565b600254601054600354600082815260116020526040902060070154600160a060020a0393841693633c24fead9392169061395a9060649061188c90603c63ffffffff614c1f16565b6040518463ffffffff1660e060020a0281526004018084815260200183600160a060020a0316600160a060020a031681526020018281526020019350505050600060405180830381600087803b1580156139b357600080fd5b505af11580156139c7573d6000803e3d6000fd5b505050506139d3615246565b600191505061109e565b60046020526000908152604090205460ff1681565b60008060008060008042613a5462015180600260009054906101000a9004600160a060020a0316600160a060020a031663d74635736040518163ffffffff1660e060020a02815260040160206040518083038186803b15801561226e57600080fd5b11613a625760009250613ac1565b613abe4261230f62015180600260009054906101000a9004600160a060020a0316600160a060020a031663d74635736040518163ffffffff1660e060020a02815260040160206040518083038186803b15801561226e57600080fd5b92505b60105460009081526011602052604090206007810154600690910154613aec9163ffffffff6110a416565b60105460009081526011602052604090206007015493965094509192505050909192565b336000908152600560209081526040808320546006909252909120549091565b60185460ff1681565b613b416129a3565b1515613b4c57600080fd5b60185460ff1615613b915760405160e560020a62461bcd0281526004018080602001828103825260278152602001806156906027913960400191505060405180910390fd5b60038054600160a060020a03808516600160a060020a031992831617909255601280548484169216919091179055600254604080517fabdd11a80000000000000000000000000000000000000000000000000000000081524260048201529051919092169163abdd11a891602480830192600092919082900301818387803b158015613c1c57600080fd5b505af1158015613c30573d6000803e3d6000fd5b5050505073__UintUtils_____________________________63669dafe86216e3606040518263ffffffff1660e060020a0281526004018082815260200191505060206040518083038186803b158015613c8957600080fd5b505af4158015613c9d573d6000803e3d6000fd5b505050506040513d6020811015613cb357600080fd5b50516010805460009081526011602052604080822060029081019490945591548152200154613cf09060649061188c90600163ffffffff614c1f16565b6010546000908152601160205260408082206003019290925560025482517f1c5ce1570000000000000000000000000000000000000000000000000000000081529251600160a060020a0390911692631c5ce15792600480830193919282900301818387803b158015613d6257600080fd5b505af1158015613d76573d6000803e3d6000fd5b5050600254601054604080517f0d9907d9000000000000000000000000000000000000000000000000000000008152600481019290925251600160a060020a039092169350630d9907d992506024808201926020929091908290030181600087803b158015613de457600080fd5b505af1158015613df8573d6000803e3d6000fd5b505050506040513d6020811015613e0e57600080fd5b50506018805460ff19166001179055613e2683614bd3565b505050565b60009081526011602052604090206006015490565b600b54604080517fc28a1af30000000000000000000000000000000000000000000000000000000081523360048201529051600092839283928392600160a060020a03169163c28a1af3916024808301926020929190829003018186803b158015613eaa57600080fd5b505afa158015613ebe573d6000803e3d6000fd5b505050506040513d6020811015613ed457600080fd5b5051600954604080517f0df2019a0000000000000000000000000000000000000000000000000000000081523360048201529051600160a060020a0390921691630df2019a91602480820192602092909190829003018186803b158015613f3a57600080fd5b505afa158015613f4e573d6000803e3d6000fd5b505050506040513d6020811015613f6457600080fd5b5051600a54604080517fc75355670000000000000000000000000000000000000000000000000000000081523360048201529051600160a060020a039092169163c753556791602480820192602092909190829003018186803b158015613fca57600080fd5b505afa158015613fde573d6000803e3d6000fd5b505050506040513d6020811015613ff457600080fd5b5051600c54604080517f4a6817870000000000000000000000000000000000000000000000000000000081523360048201529051600160a060020a0390921691634a68178791602480820192602092909190829003018186803b15801561405a57600080fd5b505afa15801561406e573d6000803e3d6000fd5b505050506040513d602081101561408457600080fd5b5051929791965094509092509050565b600080600260009054906101000a9004600160a060020a0316600160a060020a03166325d8e97f6040518163ffffffff1660e060020a02815260040160206040518083038186803b1580156140e857600080fd5b505afa1580156140fc573d6000803e3d6000fd5b505050506040513d602081101561411257600080fd5b5051151561416a576040805160e560020a62461bcd02815260206004820152601260248201527fe4b88de59ca8e585b1e5bbbae69c9fe586850000000000000000000000000000604482015290519081900360640190fd5b600260009054906101000a9004600160a060020a0316600160a060020a031663743acbab6040518163ffffffff1660e060020a02815260040160206040518083038186803b1580156141bb57600080fd5b505afa1580156141cf573d6000803e3d6000fd5b505050506040513d60208110156141e557600080fd5b50511561423c576040805160e560020a62461bcd02815260206004820152601260248201527fe585b1e68cafe5b7b2e7bb8fe7bb93e69d9f0000000000000000000000000000604482015290519081900360640190fd5b3360009081526004602052604090205460ff161561428e5760405160e560020a62461bcd0281526004018080602001828103825260218152602001806155cc6021913960400191505060405180910390fd5b601254600160a060020a0384811691161461431557600160a060020a03831660009081526004602052604090205460ff161515614315576040805160e560020a62461bcd02815260206004820152601f60248201527fe68ea8e5b9bfe88085e887aae5b7b1e5bf85e9a1bbe698af4275696c64657200604482015290519081900360640190fd5b600160a060020a0383161515614375576040805160e560020a62461bcd02815260206004820152601b60248201527fe68ea8e5b9bfe88085e4b88de883bde698afe7a9bae59cb0e59d800000000000604482015290519081900360640190fd5b73__UintUtils_____________________________63669dafe860086040518263ffffffff1660e060020a0281526004018082815260200191505060206040518083038186803b1580156143c857600080fd5b505af41580156143dc573d6000803e3d6000fd5b505050506040513d60208110156143f257600080fd5b5051600154604080517fdd62ed3e0000000000000000000000000000000000000000000000000000000081523360048201523060248201529051600160a060020a039092169163dd62ed3e91604480820192602092909190829003018186803b15801561445e57600080fd5b505afa158015614472573d6000803e3d6000fd5b505050506040513d602081101561448857600080fd5b505110156144e0576040805160e560020a62461bcd02815260206004820152601260248201527fe68e88e69d83e9a29de5baa6e4b88de8b6b30000000000000000000000000000604482015290519081900360640190fd5b6001546040805160e360020a630cd3b5fd028152600860048201529051600160a060020a03909216916323b872dd913391309173__UintUtils_____________________________9163669dafe891602480820192602092909190829003018186803b15801561454f57600080fd5b505af4158015614563573d6000803e3d6000fd5b505050506040513d602081101561457957600080fd5b50516040805160e060020a63ffffffff8716028152600160a060020a0394851660048201529290931660248301526044820152905160648083019260209291908290030181600087803b1580156145cf57600080fd5b505af11580156145e3573d6000803e3d6000fd5b505050506040513d60208110156145f957600080fd5b50511515614651576040805160e560020a62461bcd02815260206004820152601a60248201527fe8bdace7a7bb746f6b656ee588b0e59088e7baa6e5a4b1e8b4a5000000000000604482015290519081900360640190fd5b6001546040805160e360020a630cd3b5fd028152600360048201529051600160a060020a039092169163a9059cbb9160009173__UintUtils_____________________________9163669dafe8916024808301926020929190829003018186803b1580156146be57600080fd5b505af41580156146d2573d6000803e3d6000fd5b505050506040513d60208110156146e857600080fd5b50516040805160e060020a63ffffffff8616028152600160a060020a03909316600484015260248301919091525160448083019260209291908290030181600087803b15801561473757600080fd5b505af115801561474b573d6000803e3d6000fd5b505050506040513d602081101561476157600080fd5b50506001546040805160e360020a630cd3b5fd028152600560048201529051600160a060020a039092169163a9059cbb91869173__UintUtils_____________________________9163669dafe8916024808301926020929190829003018186803b1580156147cf57600080fd5b505af41580156147e3573d6000803e3d6000fd5b505050506040513d60208110156147f957600080fd5b50516040805160e060020a63ffffffff8616028152600160a060020a03909316600484015260248301919091525160448083019260209291908290030181600087803b15801561484857600080fd5b505af115801561485c573d6000803e3d6000fd5b505050506040513d602081101561487257600080fd5b50506040805160e360020a630cd3b5fd02815260056004820152905173__UintUtils_____________________________9163669dafe8916024808301926020929190829003018186803b1580156148c957600080fd5b505af41580156148dd573d6000803e3d6000fd5b505050506040513d60208110156148f357600080fd5b5051600160a060020a03841660009081526006602052604090208054909101905561491d83615472565b600160a060020a03808416600081815260056020908152604080832080546001810182559084529183209091018054600160a060020a0319163317905560095460105460125483517fe23613e9000000000000000000000000000000000000000000000000000000008152600481019290925260248201959095529385166044850152905193169263e23613e992606480820193929182900301818387803b1580156149c857600080fd5b505af11580156149dc573d6000803e3d6000fd5b503396945050505050565b60176020526000908152604090205460ff1681565b60105460009081901515614a445760405160e560020a62461bcd0281526004018080602001828103825260278152602001806155ed6027913960400191505060405180910390fd5b6000806000614a5f60016010546110a490919063ffffffff16565b60008181526011602090815260408083203384529091529020600301549091507501000000000000000000000000000000000000000000900460ff1615614aa95760009250614ab5565b614ab281614dfd565b92505b6000818152601160209081526040808320338452909152902060030154760100000000000000000000000000000000000000000000900460ff1615614afd5760009150614b09565b614b0681614c6e565b91505b5090925090509091565b6000614b1d6129a3565b1515614b2857600080fd5b50600160a060020a03166000908152600e602052604090205490565b600160a060020a038116600090815260056020908152604091829020805483518184028101840190945280845260609392830182828015614bae57602002820191906000526020600020905b8154600160a060020a03168152600190910190602001808311614b90575b50505050509050919050565b6000908152601160205260409020600b01546001014090565b614bdb6129a3565b1515614be657600080fd5b614bef816154e6565b50565b601054600090815260116020908152604080832033845290915290206003015460a060020a900460ff1690565b6000821515614c305750600061109e565b828202828482811515614c3f57fe5b041461109b57600080fd5b6000808211614c5857600080fd5b60008284811515614c6557fe5b04949350505050565b6002546040805160e060020a635a49221702815260048101849052905160009283928392614d0f92600160a060020a031691635a492217916024808301926020929190829003018186803b158015614cc557600080fd5b505afa158015614cd9573d6000803e3d6000fd5b505050506040513d6020811015614cef57600080fd5b50516000868152601160205260409020600401549063ffffffff61108916565b60008581526011602090815260408083206007810154338552925290912060010154919250614d4a91839161188c919063ffffffff614c1f16565b600254604080517fcf38beac000000000000000000000000000000000000000000000000000000008152600481018890523360248201529051929450614df592600160a060020a039092169163cf38beac91604480820192602092909190829003018186803b158015614dbc57600080fd5b505afa158015614dd0573d6000803e3d6000fd5b505050506040513d6020811015614de657600080fd5b5051839063ffffffff61108916565b949350505050565b6002546040805160e060020a635a49221702815260048101849052905160009283928392614e5492600160a060020a031691635a492217916024808301926020929190829003018186803b158015614cc557600080fd5b60008581526011602090815260408083206007810154338552925290912060020154919250614df59161188c90849063ffffffff614c1f16565b6010546000908152601160205260409020600a015460ff1615614efb576040805160e560020a62461bcd02815260206004820152601e60248201527fe5bd93e5898de8bdaee6aca1e5b7b2e7bb8fe7bb93e7ae97e5ae8ce6af950000604482015290519081900360640190fd5b6010546000908152601160205260409020600a0154610100900460ff1615614f6d576040805160e560020a62461bcd02815260206004820152601b60248201527fe5bd93e5898de8bdaee6aca1e697a9e5b7b2e7bb8fe7bb93e69d9f0000000000604482015290519081900360640190fd5b600254601054600081815260136020526040902054600160a060020a039092169163deb72f1f91908490614faf9060649061188c90603263ffffffff614c1f16565b6040518463ffffffff1660e060020a0281526004018084815260200180602001838152602001828103825284818151815260200191508051906020019060200280838360005b8381101561500d578181015183820152602001614ff5565b50505050905001945050505050600060405180830381600087803b15801561503457600080fd5b505af1158015615048573d6000803e3d6000fd5b50506010546000908152600860205260408120541115915061515f9050576002546010546000818152600860209081526040808320601390925290912054600160a060020a03909316926384976e749291906150b3906103e89061188c90607d63ffffffff614c1f16565b6040518463ffffffff1660e060020a0281526004018084815260200180602001838152602001828103825284818154815260200191508054801561512057602002820191906000526020600020905b8154600160a060020a03168152600190910190602001808311615102575b5050945050505050600060405180830381600087803b15801561514257600080fd5b505af1158015615156573d6000803e3d6000fd5b50505050614bef565b614bef565b600254601054600081815260136020526040902054600160a060020a039092169163fd38f45b919084906151a69060649061188c90601963ffffffff614c1f16565b6040518463ffffffff1660e060020a0281526004018084815260200180602001838152602001828103825284818151815260200191508051906020019060200280838360005b838110156152045781810151838201526020016151ec565b50505050905001945050505050600060405180830381600087803b15801561522b57600080fd5b505af115801561523f573d6000803e3d6000fd5b5050505050565b60108054600090815260116020526040808220600a908101805460ff1916600190811790915584548452828420909101805461ff00191661010017905583540190925560025482517fabdd11a80000000000000000000000000000000000000000000000000000000081524260048201529251600160a060020a039091169263abdd11a892602480830193919282900301818387803b1580156152e857600080fd5b505af11580156152fc573d6000803e3d6000fd5b5050600254601054604080517f0d9907d9000000000000000000000000000000000000000000000000000000008152600481019290925251600160a060020a039092169350630d9907d992506024808201926020929091908290030181600087803b15801561536a57600080fd5b505af115801561537e573d6000803e3d6000fd5b505050506040513d602081101561539457600080fd5b5050600254604080517f8d8276be0000000000000000000000000000000000000000000000000000000081529051600160a060020a0390921691638d8276be91600480820192602092909190829003018186803b1580156153f457600080fd5b505afa158015615408573d6000803e3d6000fd5b505050506040513d602081101561541e57600080fd5b5051601080546000908152601160205260408082206002908101949094559154815220015461545b9060649061188c90600163ffffffff614c1f16565b601054600090815260116020526040902060030155565b601080546000908152601160208181526040808420338086529083528185208054600160a060020a03199081168317909155955485529282528084209284529181528183206003018054909416600160a060020a03959095169490941790925560049092529020805460ff19166001179055565b600160a060020a03811615156154fb57600080fd5b60008054604051600160a060020a03808516939216917f8be0079c531659141344cd1fd0a4f28419497f9722a3daafe3b4186f6b6457e091a360008054600160a060020a031916600160a060020a039290921691909117905556fee8bdace8b4a6e695b0e9878fe4b88de883bde8b685e8bf87e7a4bee58cbae58fafe8bdace8b4a6e680bbe9a29de59fbae98791e4bc9ae694b6e6acbee59cb0e59d80e5b09ae69caae8aebee7bdaee68a95e585a5e79a84455448e695b0e9878fe5ba94e8afa5e5a4a7e4ba8e302e31206574686572e8a382e58f98e88085e4b88de883bde5868de68890e4b8bae8a382e58f98e88085e4b88be4b880e8bdaee5868de69da5e69fa5e79c8be7acace4b880e8bdaee79a84e695b0e68daee794a8e688b7e6b2a1e69c89e58f82e4b88ee4b88ae4b880e8bdaee6aca1e79a84e58b9fe8b584e69c9f73746570496e646578e4b88de5ad98e59ca80000000000000000000000000000e8afb7e7ad89e5be85e4b88be4b880e8bdaee6aca1e5868de69da5e68f90e58f96e7acace4b880e8bdaee79a84746f6b656ee7acace4b880e8bdaee6aca1e695b0e68daee5b7b2e7bb8fe5889de5a78be58c96e8bf87e4ba86e4b88ae4b880e8bdaee6aca1e58b9fe8b584e69c9fe58b9fe99b86e588b030e4b8aa455448e794a8e688b7e59ca8e4b88ae4b880e8bdaee6aca1e6b2a1e69c89e58f82e4b88ee7bb84e5bbbae69c9f546f6b656ee68a95e5b881e5bd93e5898de8bdaee6aca1e5b7b2e58b9fe99b86e588b0e8b6b3e5a49fe79a84455448e585b1e5bbbae9a29de5baa6e5b7b2e8b685e8bf87e99990e9a29defbc8ce4b88de883bde7bba7e7bbade8bdace585a5e585b1e68cafe8bf98e69caae7bb93e69d9fefbc8ce4b88de883bde68f90e58f96e8afb7e7ad89e5be85e4b88be4b880e8bdaee6aca1e5868de69da5e68f90e58f96e7acace4b880e8bdaee79a846574686572e5bd93e5898de8bdaee6aca1e59fbae98791e4bc9ae5b7b2e7bb8fe8bdace585a5e8bf87546f6b656ee4ba86e794a8e688b7e59ca8e5bd93e5898de8bdaee6aca1e5b7b2e7bb8fe68f90e58f96455448e5ae8ce68890a165627a7a723058204f96c11feb391a8a4fa26af2f82a22165ff42c37e7e84c136b293ea3dfa6d4fe0029",
  "source": "pragma solidity >=0.4.21 <0.6.0;\n\nimport \"../node_modules/openzeppelin-solidity/contracts/math/SafeMath.sol\";\nimport \"../node_modules/openzeppelin-solidity/contracts/ownership/Ownable.sol\";\nimport \"../node_modules/openzeppelin-solidity/contracts/token/ERC20/IERC20.sol\";\nimport \"./UintUtils.sol\";\nimport \"./FissionReward.sol\";\nimport \"./FOMOReward.sol\";\nimport \"./LuckyReward.sol\";\nimport \"./FaithReward.sol\";\nimport \"./ResonanceDataManage.sol\";\n\ncontract Resonance is Ownable{\n\n    using SafeMath for uint256;\n\n    // \n    // \n    event ToBeFissionPerson(address indexed fissionPerson, address indexed promoter);\n\n    event FundsInfo(uint256 currentStepTokenAmount, uint256 currentStepRaisedETH);\n    event BuildingPerioInfo(uint256 bpCountdown, uint256 remainingToken, uint256 personalTokenLimited, uint256 totalTokenAmount);\n    event FundingPeriodInfo(uint256 fpCountdown, uint256 remainingETH, uint256 rasiedETHAmount);\n\n    // \n    event FissionRewardInfo(address[] fissionRewardList, uint256[] fissionRewardAmount);\n    event FOMORewardInfo(address[] FOMORewardList, uint256[] FOMORewards);\n    event LuckyRewardInfo(address[] luckyRewardList, uint256 luckyReward);\n    event FaithRewardInfo(address[] faithRewardList, uint256[] faithRewardAmount);\n    event WithdrawAllETH(address addr, uint256 ETHAmount);\n    event WithdrawAllToken(address from, address to, uint256 tokenAmount);\n    event FunderInfo(uint256[] FunderInfoArray);\n    event StepFunders(\n        address[] funderAddress,\n        uint256[] funderTokenAmount,\n        uint256[] funderETHAmount,\n        uint256[] funderInvitees,\n        uint256[] funderEarnFromAff\n    );\n    event SettlementStep(uint256 stepIndex);\n\n    event StartNextStep(uint256 stepIndex);\n\n    event SetRaiseTarget(uint256 stepIndex, uint256 raiseTarget);\n\n    event GetResonances(address[] resonances);\n\n    event FunderTotalRaised(uint256 resonancesRasiedETH);\n\n    // ETHToken\n    // ETHETHETH\n    event currentStepRaisedEther(uint256 raisedETHAmount, uint256 nowRaisedEther, uint256 totalRemainingEther);\n    // TokenTokenToken\n    event currentStepRaisedToken(uint256 raisedTokenAmount, uint256 remainingTokenForPersonal, uint256 totalRemainingToken);\n\n    // \n    // ERC20\n    IERC20 BDEToken;\n\n    ResonanceDataManage resonanceDataManage;\n\n    // 60%\n    address payable public beneficiary;\n\n    // \n    struct Funder{\n        address funderAddr; // \n        uint256 tokenAmount; // token\n        uint256 ethAmount; // eth\n        address promoter; // \n        bool isFunder; // \n        bool tokenHasWithdrawn; // Token\n        bool ETHHasWithdrawn; // ETH\n    }\n\n    mapping(address => bool) public isBuilder; //\n\n    mapping(address => address[]) invitees; // \n    mapping(address => uint256) earnFromAff; // \n    mapping(address => uint256) inviteesTotalAmount; // eth\n    mapping(uint256 => address[]) FOMOList; // FOMO\n\n    // \n    struct Building{\n        uint256 openTokenAmount; // Token\n        uint256 personalTokenLimited;// token\n        uint256 raisedToken; // token\n        uint256 raisedTokenAmount; // Token\n    }\n\n    // \n    struct Funding{\n        uint256 raiseTarget; // ETH()\n        uint256 raisedETH; // ETH\n    }\n\n    FissionReward fissionRewardInstance;\n    FOMOReward FOMORewardInstance;\n    LuckyReward luckyRewardInstance;\n    FaithReward faithRewardInstance;\n\n    // \n    struct Step{\n        mapping(address => Funder) funder;// \n        address[] funders; // funders\n        Building building; // \n        Funding funding; // \n        uint256 softCap; // \n        uint256 hardCap; // \n        bool settlementFinished; // \n        bool stepIsClosed; // \n        uint256 blockNumber; // \n    }\n\n    // \n    address[] resonances;\n\n    // \n    mapping(address => uint256) resonancesRasiedETH;\n    mapping(address => uint256) resonancesRasiedToken;\n\n    uint256 public currentStep;\n\n    mapping(uint256 => Step) steps;\n\n    address public initialFissionPerson; // \n\n    mapping(uint256 => uint256) ETHFromParty; // ETH\n\n    uint256 public totalETHFromParty; // \n\n    uint256 public faithRewardTotalAmount; // \n\n    mapping(uint256 => uint256) tokenFromParty; //token\n\n    mapping(uint256 => bool) public tokenTransfered; // Token\n\n    bool public firstParamInitialized;\n\n    mapping (address => bool) refundIsFinished; // refund\n\n    // \n    /// @notice \n    /// _BDEToken Token\n    constructor(\n        IERC20 _BDEToken,\n        address _resonanceDataManageAddress,\n        address _fassionRewardAddress,\n        address _FOMORewardAddress,\n        address _luckyRewardAddress,\n        address _faithRewardAddress\n    )\n        public\n    {\n        resonanceDataManage = ResonanceDataManage(_resonanceDataManageAddress);\n        // \n        fissionRewardInstance = FissionReward(_fassionRewardAddress);\n        FOMORewardInstance = FOMOReward(_FOMORewardAddress);\n        luckyRewardInstance = LuckyReward(_luckyRewardAddress);\n        faithRewardInstance = FaithReward(_faithRewardAddress);\n        currentStep = 0;\n        BDEToken = _BDEToken;\n    }\n\n\n    /// @notice \n    /// @dev ResonanceDataManage\n    function initParamForFirstStep(\n        address _newOwner,\n        address payable _beneficiary,\n        address _initialFissionPerson\n    )\n        public\n        onlyOwner()\n    {\n        require(!firstParamInitialized, \"\");\n        // \n        beneficiary = _beneficiary;\n        // \n        initialFissionPerson = _initialFissionPerson;\n        resonanceDataManage.setOpeningTime(block.timestamp); // \n        steps[currentStep].building.openTokenAmount = UintUtils.toWei(1500000); // Token\n        steps[currentStep].building.personalTokenLimited = steps[currentStep].building.openTokenAmount.mul(1).div(100);\n        // fundsPoolinitBuildingTokenAmount\n        resonanceDataManage.setParamForFirstStep();\n        // Token\n        resonanceDataManage.updateBuildingPercent(currentStep);\n        firstParamInitialized = true;\n        // \n        transferOwnership(_newOwner);\n    }\n\n    /// @notice \n    /// @param promoter \n    /// @dev TokenApprove\n    function toBeFissionPerson(\n        address promoter\n    )\n        public\n        returns(address, address)\n    {\n        require(resonanceDataManage.isBuildingPeriod(), \"\");\n        require(!resonanceDataManage.getCrowdsaleClosed(), \"\");\n        require(!isBuilder[msg.sender], \"\");\n\n        if(initialFissionPerson != promoter){\n            require(isBuilder[promoter],\"Builder\");\n        }\n\n        require(promoter != address(0), \"\");\n\n        // // \n        require(BDEToken.allowance(msg.sender, address(this)) >= UintUtils.toWei(8),\"\");\n\n        require(BDEToken.transferFrom(msg.sender,address(this), UintUtils.toWei(8)),\"token\");\n\n        // 3\n        BDEToken.transfer(address(0), UintUtils.toWei(3));\n\n        // 5\n        BDEToken.transfer(address(promoter), UintUtils.toWei(5));\n\n        earnFromAff[promoter] += UintUtils.toWei(5);\n        // steps[currentStep].funder[promoter].earnFromAff += UintUtils.toWei(5);\n\n        // \n        _addBuilder(promoter);\n\n        invitees[promoter].push(msg.sender);\n        // steps[currentStep].funder[promoter].invitees.push(msg.sender);\n\n        fissionRewardInstance.addAffman(currentStep, promoter, initialFissionPerson);\n\n        // emit ToBeFissionPerson(msg.sender, promoter);\n        return(msg.sender, promoter);\n    }\n\n    /// @notice \n    /// @dev \n    function setRaiseTarget(\n        uint256 _raiseTarget\n    )\n        public\n        onlyOwner()\n        returns(uint256, uint256)\n    {\n        require(resonanceDataManage.isBuildingPeriod(), \"\");\n        steps[currentStep].funding.raiseTarget = _raiseTarget;\n        // \n        steps[currentStep].softCap = steps[currentStep].funding.raiseTarget.mul(80).div(100);\n        steps[currentStep].hardCap = steps[currentStep].funding.raiseTarget;\n\n        // emit SetRaiseTarget(currentStep, _raiseTarget);\n        return(currentStep, _raiseTarget);\n    }\n\n    /// @notice \n    function getRaiseTarget(uint256 _stepIndex) public view returns(uint256) {\n        return steps[_stepIndex].funding.raiseTarget;\n    }\n\n    // token\n    function jointlyBuild(uint256 _tokenAmount) public {\n        require(resonanceDataManage.isBuildingPeriod(), \"\");\n\n        require(!resonanceDataManage.getCrowdsaleClosed(), \"\");\n\n        // builder\n        require(isBuilder[msg.sender], \"Builder\");\n\n        // \n        require(\n            steps[currentStep].building.raisedToken.add(_tokenAmount) <=\n            steps[currentStep].building.openTokenAmount.sub(resonanceDataManage.getBuildingTokenFromParty(currentStep)),\n            \"\"\n        );\n\n        // \n        require(\n             steps[currentStep].funder[msg.sender].tokenAmount.add(_tokenAmount) <=\n             steps[currentStep].building.personalTokenLimited,\n            \"\"\n        );\n\n        // \n        require(BDEToken.allowance(msg.sender, address(this)) >= _tokenAmount,\"\");\n\n        // \n        require(BDEToken.transferFrom(msg.sender, address(this), _tokenAmount),\"token\");\n\n        steps[currentStep].funder[msg.sender].tokenAmount += _tokenAmount;\n\n        steps[currentStep].building.raisedTokenAmount += _tokenAmount;\n\n        // Token\n        resonanceDataManage.setFundsPool(resonanceDataManage.getFundsPool().sub(_tokenAmount));\n\n        // \n        resonancesRasiedToken[msg.sender] += _tokenAmount;\n\n        // token\n        steps[currentStep].building.raisedToken += _tokenAmount;\n\n        emit currentStepRaisedToken(\n            steps[currentStep].building.raisedToken,\n            steps[currentStep].building.personalTokenLimited.sub(steps[currentStep].funder[msg.sender].tokenAmount),\n            steps[currentStep].building.openTokenAmount.sub(steps[currentStep].building.raisedToken)\n        );\n    }\n\n    /// @notice Token\n    function transferToken() public payable onlyOwner() returns(bool){\n        require(!tokenTransfered[currentStep], \"Token\");\n\n        // \n        require(BDEToken.allowance(msg.sender, address(this)) >= resonanceDataManage.getBuildingTokenFromParty(currentStep),\n            \"\"\n        );\n\n        // \n        require(BDEToken.transferFrom(msg.sender, address(this), resonanceDataManage.getBuildingTokenFromParty(currentStep)),\n            \"token\"\n        );\n\n        // \n        resonanceDataManage.setFundsPool(resonanceDataManage.getFundsPool().sub(resonanceDataManage.getBuildingTokenFromParty(currentStep)));\n\n        tokenTransfered[currentStep] = true;\n\n        return true;\n    }\n\n    /// @notice \n    function ()\n        external\n        payable\n    {\n        require(resonanceDataManage.isFundingPeriod(), \"\");\n\n        require(!resonanceDataManage.getCrowdsaleClosed(), \"\");\n\n        uint amount = msg.value;\n\n        // ETH>0.1 ether\n        require(amount >= 0.1 ether, \"ETH0.1 ether\");\n\n        // ETH\n        require(\n            msg.value.add(steps[currentStep].funding.raisedETH) <= steps[currentStep].funding.raiseTarget,\n            \"ETH\"\n        );\n\n        // funder\n        if(!steps[currentStep].funder[msg.sender].isFunder){\n            steps[currentStep].funders.push(msg.sender);\n        }\n\n        // FOMO\n        FOMOList[currentStep].push(msg.sender);\n\n        steps[currentStep].funder[msg.sender].ethAmount += amount;\n        steps[currentStep].funder[msg.sender].isFunder = true;\n        steps[currentStep].funding.raisedETH += amount;\n\n        // msg.sender\n        inviteesTotalAmount[steps[currentStep].funder[msg.sender].promoter] += amount;\n\n        resonances.push(msg.sender);\n        resonancesRasiedETH[msg.sender] += amount;\n\n        emit currentStepRaisedEther(\n            steps[currentStep].funding.raisedETH,\n            amount,\n            steps[currentStep].hardCap.sub(steps[currentStep].funding.raisedETH)\n        );\n    }\n\n    /// @notice \n    /// @dev \n    /// @param _fissionWinnerList \n    /// @param _LuckyWinnerList \n    function settlementStep(\n        address[] memory _fissionWinnerList,\n        address[] memory _LuckyWinnerList\n    )\n        public\n        onlyOwner()\n        returns(bool)\n    {\n        require(beneficiary != address(0), \"\");\n\n        // \n        if(resonanceDataManage.crowdsaleIsClosed(currentStep, steps[currentStep].funding.raisedETH, steps[currentStep].softCap)){\n            return false;\n        }else{\n            uint256 totalTokenAmount = steps[currentStep].building.raisedToken.add(resonanceDataManage.getBuildingTokenFromParty(currentStep));\n\n            ETHFromParty[currentStep] = steps[currentStep].funding.raisedETH\n                .mul(resonanceDataManage.getBuildingTokenFromParty(currentStep))\n                .mul(40)\n                .div(totalTokenAmount)\n                .div(100);\n\n            // 12.5%\n            faithRewardTotalAmount += ETHFromParty[currentStep].mul(125).div(1000);\n            // FOMO\n            _settlementReward(_fissionWinnerList);\n            // \n            _settlementLuckyReward(_LuckyWinnerList);\n            // \n            resonanceDataManage.setETHBalance(\n                currentStep,\n                beneficiary,\n                steps[currentStep].funding.raisedETH.mul(60).div(100) // \n                // resonanceDataManage.getETHBalance(currentStep, beneficiary) + steps[currentStep].funding.raisedETH.mul(60).div(100)\n            );\n\n            // \n            _startNextStep();\n\n            return true;\n        }\n\n    }\n\n    /// @notice \n    /// @param _FaithWinnerList \n    function settlementFaithReward(\n        address[] memory _FaithWinnerList\n    )\n        public\n        onlyOwner()\n        returns(bool)\n    {\n        require(resonanceDataManage.getCrowdsaleClosed(), \"\");\n        return resonanceDataManage.dmSettlementFaithReward(\n            _FaithWinnerList,\n            faithRewardTotalAmount\n        );\n    }\n\n    /// @notice FOMO\n    /// @dev ,\n    function _settlementReward(\n        address[] memory _fissionWinnerList\n    )\n        internal\n    {\n        require(!steps[currentStep].settlementFinished, \"\");\n        require(!steps[currentStep].stepIsClosed, \"\");\n\n        // \n        resonanceDataManage.settlementFissionReward(\n            currentStep,\n            _fissionWinnerList,\n            ETHFromParty[currentStep].mul(50).div(100)\n        );\n\n        // FOMO\n        if(FOMOList[currentStep].length > 0){\n            resonanceDataManage.settlementFOMOReward(\n                currentStep,\n                FOMOList[currentStep],\n                ETHFromParty[currentStep].mul(125).div(1000)\n            );\n        }else{\n            return;\n        }\n    }\n\n    /// @notice \n    function _settlementLuckyReward(\n        address[] memory _LuckyWinnerList\n    )\n        internal\n    {\n        resonanceDataManage.settlementLuckyReward(\n            currentStep,\n            _LuckyWinnerList,\n            ETHFromParty[currentStep].mul(25).div(100)\n        );\n    }\n\n    /// \n    function _startNextStep()\n        internal\n    {\n        // step\n        steps[currentStep].settlementFinished = true;\n        // \n        steps[currentStep].stepIsClosed = true;\n\n        // \n        currentStep++;\n        // \n        resonanceDataManage.setOpeningTime(block.timestamp);\n        // Token\n        resonanceDataManage.updateBuildingPercent(currentStep);\n        // Token\n        steps[currentStep].building.openTokenAmount = resonanceDataManage.getBuildingTokenAmount();\n        // \n        steps[currentStep].building.personalTokenLimited = steps[currentStep].building.openTokenAmount.mul(1).div(100);\n    }\n\n    /// @notice tokentoken\n    function withdrawAllToken()\n        public\n        payable\n        returns(address, address, uint256)\n    {\n        require(currentStep != 0, \"token\");\n\n        // \n        uint256 withdrawStep = currentStep.sub(1);\n\n        require(steps[withdrawStep].funder[msg.sender].isFunder, \"\");\n\n        require(!steps[withdrawStep].funder[msg.sender].tokenHasWithdrawn, \"token\");\n\n        require(steps[withdrawStep].funder[msg.sender].ethAmount > 0, \"Token\");\n\n        require(steps[withdrawStep].funding.raisedETH > 0, \"0ETH\");\n\n        // Token\n        //  = Token * ETH / ETH\n        uint256 totalTokenAmountPriv = steps[withdrawStep].building.raisedToken\n            .add(resonanceDataManage.getBuildingTokenFromParty(withdrawStep));\n\n        uint256 withdrawAmount = totalTokenAmountPriv.\n            mul(steps[withdrawStep].funder[msg.sender].ethAmount).\n            div(steps[withdrawStep].funding.raisedETH);\n\n        resonanceDataManage.emptyTokenBalance(withdrawStep, msg.sender);\n        steps[withdrawStep].funder[msg.sender].tokenHasWithdrawn = true;\n        BDEToken.transfer(msg.sender, withdrawAmount);\n\n        return(address(this), msg.sender, withdrawAmount);\n    }\n\n    /// @notice (ETH)\n    function withdrawAllETH()\n        public\n        payable\n        returns(address, uint256)\n    {\n        require(currentStep != 0, \"ether\");\n\n        // \n        uint256 withdrawStep = currentStep.sub(1);\n\n        address payable dest = address(uint160(msg.sender));\n\n        require(!steps[withdrawStep].funder[msg.sender].ETHHasWithdrawn, \"ETH\");\n\n        uint256 withdrawAmount;\n\n        // 60%\n        if(msg.sender == beneficiary){\n            withdrawAmount = resonanceDataManage.withdrawETHAmount(withdrawStep, msg.sender);\n        }else{// tokeneth\n            withdrawAmount = _calculationWithdrawETHAmount(withdrawStep);\n        }\n\n        // \n        resonanceDataManage.emptyETHBalance(withdrawStep, msg.sender);\n\n        steps[withdrawStep].funder[msg.sender].ETHHasWithdrawn = true;\n\n        dest.transfer(withdrawAmount);\n\n        return(msg.sender, withdrawAmount);\n    }\n\n\n    /// @notice \n    function withdrawFaithRewardAndRefund() public payable returns(bool){\n        // \n        require(resonanceDataManage.getCrowdsaleClosed(), \"\");\n\n        require(!refundIsFinished[msg.sender], \"\");\n        address payable dest = address(uint160(msg.sender));\n\n        uint256 resonanceClosedStep = resonanceDataManage.getResonanceClosedStep();\n        uint256 withdrawTokenAmount;\n\n        // ETH\n        uint256 withdrawETHAmount = steps[resonanceClosedStep].funder[msg.sender].ethAmount\n            .add(resonanceDataManage.getFaithRewardBalance(msg.sender));\n\n        // Token\n        if(msg.sender == beneficiary){\n            withdrawTokenAmount = resonanceDataManage.getBuildingTokenFromParty(resonanceClosedStep);\n        }else{\n            withdrawTokenAmount = steps[resonanceClosedStep].funder[msg.sender].tokenAmount;\n        }\n\n        // \n        steps[resonanceClosedStep].funder[msg.sender].ethAmount = 0;\n        resonanceDataManage.setFaithRewardBalance(msg.sender, 0);\n\n        // \n        BDEToken.transfer(msg.sender, withdrawTokenAmount);\n        dest.transfer(withdrawETHAmount);\n\n        refundIsFinished[msg.sender] = true;\n        return refundIsFinished[msg.sender];\n    }\n\n    /// @notice ETH\n    /// @dev ETH\n    function withdrawAllETHByOwner()\n        public\n        payable\n        onlyOwner()\n    {\n        beneficiary.transfer(address(this).balance);\n        BDEToken.transfer(msg.sender, BDEToken.balanceOf(address(this)));\n    }\n\n    /// @notice \n    function isFunder() public view returns(bool) {\n        return steps[currentStep].funder[msg.sender].isFunder;\n    }\n\n    /// @notice msg.senderfunder\n    function isFunderByStep(uint256 _stepIndex) public view returns(bool){\n        return steps[_stepIndex].funder[msg.sender].isFunder;\n    }\n\n    /// @notice funder\n    function getInvitees(address _funder) public view returns(address[] memory) {\n        return invitees[_funder];\n        // return steps[currentStep].funder[_funder].invitees;\n    }\n\n    /// @notice \n    function getResonances()\n        public\n        view\n        onlyOwner()\n        returns(address[] memory)\n    {\n        // emit GetResonances(resonances);\n        return(resonances);\n    }\n\n    /// @notice ETH\n    function getFunderTotalRaised(address _funder) public view onlyOwner() returns(uint256){\n        // emit FunderTotalRaised(resonancesRasiedETH[_funder]);\n        return resonancesRasiedETH[_funder];\n    }\n\n    /// @notice funders\n    /// @dev funders\n    /// @param _stepIndex \n    function getStepFunders(uint256 _stepIndex)\n        public\n        view\n        onlyOwner()\n        returns\n    (\n        address[] memory,\n        uint256[] memory,\n        uint256[] memory,\n        uint256[] memory,\n        uint256[] memory,\n        uint256[] memory\n    )\n    {\n        address[] memory funderAddress;\n        uint256[] memory funderTokenAmount;\n        uint256[] memory funderETHAmount;\n        uint256[] memory funderInvitees;\n        uint256[] memory _earnFromAff;\n        uint256[] memory _inviteesTotalAmount;\n\n        funderAddress = new address[](steps[_stepIndex].funders.length);\n        funderTokenAmount = new uint256[](funderAddress.length);\n        funderETHAmount = new uint256[](funderAddress.length);\n        funderInvitees = new uint256[](funderAddress.length);\n        _earnFromAff = new uint256[](funderAddress.length);\n        _inviteesTotalAmount = new uint256[](funderAddress.length);\n\n        funderAddress = steps[_stepIndex].funders;\n\n        for(uint i = 0 ; i < funderAddress.length; i++){\n            funderTokenAmount[i] = steps[_stepIndex].funder[funderAddress[i]].tokenAmount;\n            funderETHAmount[i] = steps[_stepIndex].funder[funderAddress[i]].ethAmount;\n            funderInvitees[i] = invitees[funderAddress[i]].length;\n            _earnFromAff[i] = earnFromAff[funderAddress[i]];\n            _inviteesTotalAmount[i] = inviteesTotalAmount[funderAddress[i]];\n        }\n\n        return (funderAddress, funderTokenAmount, funderETHAmount, funderInvitees, _earnFromAff, _inviteesTotalAmount);\n    }\n\n    /// @notice tokenETH\n    function getCurrentStepFundsInfo()\n        public\n        view\n        returns(uint256, uint256, uint256)\n    {\n        return(currentStep, steps[currentStep].building.openTokenAmount, steps[currentStep].funding.raisedETH);\n    }\n\n    /// @notice TokenETH\n    function getWithdrawAmountPriv() public view returns(uint256, uint256) {\n        require(currentStep != 0, \"\");\n\n        uint256 _withdrawTokenAmount;\n        uint256 _withdrawETHAmount;\n        uint256 withdrawStep = currentStep.sub(1);\n\n        if(steps[withdrawStep].funder[msg.sender].tokenHasWithdrawn){\n            _withdrawTokenAmount = 0;\n        }else{\n            _withdrawTokenAmount = _calculationWithdrawTokenAmount(withdrawStep);\n        }\n\n        if(steps[withdrawStep].funder[msg.sender].ETHHasWithdrawn){\n            _withdrawETHAmount = 0;\n        }else{\n            _withdrawETHAmount = _calculationWithdrawETHAmount(withdrawStep);\n        }\n\n        return(\n            _withdrawTokenAmount,\n            _withdrawETHAmount\n        );\n    }\n\n    /// @notice \n    function getBuildingPerioInfo()\n        public\n        view\n        returns(uint256, uint256, uint256, uint256)\n    {\n        uint256 _bpCountdown;\n        uint256 _remainingToken;\n        uint256 _personalTokenLimited;\n        uint256 _totalTokenAmount;\n\n        // 0\n        if(resonanceDataManage.getOpeningTime().add(8 hours) <= block.timestamp){\n            _bpCountdown = 0;\n        }else{\n            _bpCountdown = (resonanceDataManage.getOpeningTime().add(8 hours)).sub(block.timestamp);\n        }\n        _remainingToken = steps[currentStep].building.openTokenAmount.\n            sub(steps[currentStep].building.raisedToken).\n            sub(resonanceDataManage.getBuildingTokenFromParty(currentStep));\n\n        _personalTokenLimited = steps[currentStep].building.personalTokenLimited;\n        _totalTokenAmount = steps[currentStep].building.raisedTokenAmount;\n\n        return(_bpCountdown, _remainingToken, _personalTokenLimited, _totalTokenAmount);\n    }\n\n    // \n    function getFundingPeriodInfo()\n        public\n        view\n        returns(uint256, uint256, uint256)\n    {\n        uint256 _fpCountdown;\n        uint256 _remainingETH;\n        uint256 _rasiedETHAmount;\n\n        // 0\n        if(resonanceDataManage.getOpeningTime().add(24 hours) <= block.timestamp){\n            _fpCountdown = 0;\n        }else{\n            _fpCountdown = (resonanceDataManage.getOpeningTime().add(24 hours)).sub(block.timestamp);\n        }\n        _remainingETH = steps[currentStep].funding.raiseTarget.sub(steps[currentStep].funding.raisedETH);\n        _rasiedETHAmount = steps[currentStep].funding.raisedETH;\n\n        return(_fpCountdown, _remainingETH, _rasiedETHAmount);\n    }\n\n    /// @notice Token()\n    function _calculationWithdrawTokenAmount(uint256 _stepIndex) internal view returns(uint256){\n\n        uint256 _withdrawTokenAmount;\n\n        uint256  currentStepTotalRaisedToken = steps[_stepIndex].building.raisedToken\n            .add(resonanceDataManage.getBuildingTokenFromParty(_stepIndex));\n\n        _withdrawTokenAmount = currentStepTotalRaisedToken.\n            mul(steps[_stepIndex].funder[msg.sender].ethAmount).\n            div(steps[_stepIndex].funding.raisedETH);\n\n        return _withdrawTokenAmount;\n    }\n\n    /// @notice ETH()\n    function _calculationWithdrawETHAmount(uint256 _stepIndex) internal view returns(uint256){\n        uint256 _withdrawETHAmount;\n\n        uint256 totalTokenAmount = steps[_stepIndex].building.raisedToken\n            .add(resonanceDataManage.getBuildingTokenFromParty(_stepIndex));\n\n        _withdrawETHAmount = steps[_stepIndex].funder[msg.sender].tokenAmount\n            .mul(steps[_stepIndex].funding.raisedETH)\n            .div(totalTokenAmount);\n\n        return _withdrawETHAmount.add(resonanceDataManage.withdrawETHAmount(_stepIndex, msg.sender));\n    }\n\n    /// @notice \n    function getFunderRewardInfo() public view returns(uint256, uint256, uint256, uint256) {\n        return(\n            luckyRewardInstance.luckyFunderTotalBalance(msg.sender),\n            fissionRewardInstance.fissionFunderTotalBalance(msg.sender),\n            FOMORewardInstance.FOMOFunderTotalBalance(msg.sender),\n            faithRewardInstance.faithRewardAmount(msg.sender)\n        );\n    }\n\n    /// @notice \n    function getFunderAffInfo() public view returns(uint256, uint256) {\n        return(\n            invitees[msg.sender].length, // \n            earnFromAff[msg.sender] // \n        );\n    }\n\n    // Token\n    function getFunderWithdrawTokenAmount(uint256 _stepIndex) public view returns(uint256) {\n        require(_stepIndex <= currentStep, \"stepIndex\");\n        return _calculationWithdrawTokenAmount(_stepIndex);\n    }\n\n    // ETH\n    function getFunderWithdrawETHAmount(uint256 _stepIndex) public view returns(uint256) {\n        require(_stepIndex <= currentStep, \"stepIndex\");\n        return _calculationWithdrawETHAmount(_stepIndex);\n    }\n\n    // token\n    function getFunderTokenAmount(uint256 _stepIndex) public view returns(uint256) {\n        require(_stepIndex <= currentStep, \"stepIndex\");\n\n        return steps[_stepIndex].funder[msg.sender].tokenAmount;\n    }\n\n    // eth\n    function getFunderETHAmount(uint256 _stepIndex) public view returns(uint256) {\n        require(_stepIndex <= currentStep, \"stepIndex\");\n\n        return steps[_stepIndex].funder[msg.sender].ethAmount;\n    }\n\n    /// @notice \n    /// @param _promoter msg.sender\n    function _addBuilder(address _promoter) internal {\n        // \n        steps[currentStep].funder[msg.sender].funderAddr = msg.sender;\n        steps[currentStep].funder[msg.sender].promoter = _promoter;\n        isBuilder[msg.sender] = true;\n    }\n\n    /// @notice hash\n    function getBlockHash(uint256 _stepIndex) public view returns(bytes32) {\n        return blockhash(steps[_stepIndex].blockNumber+1);\n    }\n\n    /// @notice \n    function setBlockHash(uint256 _stepIndex) public returns(bool) {\n        if(steps[_stepIndex].blockNumber == 0){\n            steps[_stepIndex].blockNumber = block.number;\n            return true;\n        }else{\n            return false;\n        }\n    }\n\n    /// @notice \n    function currentStepIsClosed(uint256 _stepIndex) public view returns(bool) {\n        return steps[_stepIndex].stepIsClosed;\n    }\n}",
  "sourcePath": "/root/contract/contract/contracts/Resonance.sol",
  "compiler": {
    "name": "solc",
    "version": "0.5.2+commit.1df8f40c.Emscripten.clang"
  },
  "schemaVersion": "3.0.10",
  "updatedAt": "2019-06-04T08:29:17.462Z",
  "devdoc": {
    "methods": {
      "getStepFunders(uint256)": {
        "details": "funders",
        "params": {
          "_stepIndex": ""
        }
      },
      "initParamForFirstStep(address,address,address)": {
        "details": "ResonanceDataManage"
      },
      "isOwner()": {
        "return": "true if `msg.sender` is the owner of the contract."
      },
      "owner()": {
        "return": "the address of the owner."
      },
      "renounceOwnership()": {
        "details": "Allows the current owner to relinquish control of the contract. It will not be possible to call the functions with the `onlyOwner` modifier anymore."
      },
      "setRaiseTarget(uint256)": {
        "details": ""
      },
      "settlementFaithReward(address[])": {
        "params": {
          "_FaithWinnerList": ""
        }
      },
      "settlementStep(address[],address[])": {
        "details": "",
        "params": {
          "_LuckyWinnerList": "",
          "_fissionWinnerList": ""
        }
      },
      "toBeFissionPerson(address)": {
        "details": "TokenApprove",
        "params": {
          "promoter": ""
        }
      },
      "transferOwnership(address)": {
        "details": "Allows the current owner to transfer control of the contract to a newOwner.",
        "params": {
          "newOwner": "The address to transfer ownership to."
        }
      },
      "withdrawAllETHByOwner()": {
        "details": "ETH"
      }
    }
  },
  "userdoc": {
    "methods": {
      "constructor": " _BDEToken Token",
      "currentStepIsClosed(uint256)": {
        "notice": ""
      },
      "getBlockHash(uint256)": {
        "notice": "hash"
      },
      "getBuildingPerioInfo()": {
        "notice": ""
      },
      "getCurrentStepFundsInfo()": {
        "notice": "tokenETH"
      },
      "getFunderAffInfo()": {
        "notice": ""
      },
      "getFunderRewardInfo()": {
        "notice": ""
      },
      "getFunderTotalRaised(address)": {
        "notice": "ETH"
      },
      "getInvitees(address)": {
        "notice": "funder"
      },
      "getRaiseTarget(uint256)": {
        "notice": ""
      },
      "getResonances()": {
        "notice": ""
      },
      "getStepFunders(uint256)": {
        "notice": "funders"
      },
      "getWithdrawAmountPriv()": {
        "notice": "TokenETH"
      },
      "initParamForFirstStep(address,address,address)": {
        "notice": ""
      },
      "isFunder()": {
        "notice": ""
      },
      "isFunderByStep(uint256)": {
        "notice": "msg.senderfunder"
      },
      "renounceOwnership()": {
        "notice": "Renouncing ownership will leave the contract without an owner, thereby removing any functionality that is only available to the owner."
      },
      "setBlockHash(uint256)": {
        "notice": ""
      },
      "setRaiseTarget(uint256)": {
        "notice": ""
      },
      "settlementFaithReward(address[])": {
        "notice": ""
      },
      "settlementStep(address[],address[])": {
        "notice": ""
      },
      "toBeFissionPerson(address)": {
        "notice": ""
      },
      "transferToken()": {
        "notice": "Token"
      },
      "withdrawAllETH()": {
        "notice": "(ETH)"
      },
      "withdrawAllETHByOwner()": {
        "notice": "ETH"
      },
      "withdrawAllToken()": {
        "notice": "tokentoken"
      },
      "withdrawFaithRewardAndRefund()": {
        "notice": ""
      }
    }
  }
}