{
  "contractName": "Resonance",
  "abi": [
    {
      "constant": true,
      "inputs": [],
      "name": "beneficiary",
      "outputs": [
        {
          "name": "",
          "type": "address"
        }
      ],
      "payable": false,
      "stateMutability": "view",
      "type": "function",
      "signature": "0x38af3eed"
    },
    {
      "constant": true,
      "inputs": [],
      "name": "faithRewardTotalAmount",
      "outputs": [
        {
          "name": "",
          "type": "uint256"
        }
      ],
      "payable": false,
      "stateMutability": "view",
      "type": "function",
      "signature": "0x508bf76b"
    },
    {
      "constant": true,
      "inputs": [],
      "name": "currentStep",
      "outputs": [
        {
          "name": "",
          "type": "uint256"
        }
      ],
      "payable": false,
      "stateMutability": "view",
      "type": "function",
      "signature": "0x5bc34f71"
    },
    {
      "constant": false,
      "inputs": [],
      "name": "renounceOwnership",
      "outputs": [],
      "payable": false,
      "stateMutability": "nonpayable",
      "type": "function",
      "signature": "0x715018a6"
    },
    {
      "constant": true,
      "inputs": [],
      "name": "owner",
      "outputs": [
        {
          "name": "",
          "type": "address"
        }
      ],
      "payable": false,
      "stateMutability": "view",
      "type": "function",
      "signature": "0x8da5cb5b"
    },
    {
      "constant": true,
      "inputs": [],
      "name": "isOwner",
      "outputs": [
        {
          "name": "",
          "type": "bool"
        }
      ],
      "payable": false,
      "stateMutability": "view",
      "type": "function",
      "signature": "0x8f32d59b"
    },
    {
      "constant": true,
      "inputs": [],
      "name": "initialFissionPerson",
      "outputs": [
        {
          "name": "",
          "type": "address"
        }
      ],
      "payable": false,
      "stateMutability": "view",
      "type": "function",
      "signature": "0x90fa85f8"
    },
    {
      "constant": true,
      "inputs": [],
      "name": "totalETHFromParty",
      "outputs": [
        {
          "name": "",
          "type": "uint256"
        }
      ],
      "payable": false,
      "stateMutability": "view",
      "type": "function",
      "signature": "0x9642a86b"
    },
    {
      "constant": true,
      "inputs": [
        {
          "name": "",
          "type": "address"
        }
      ],
      "name": "isBuilder",
      "outputs": [
        {
          "name": "",
          "type": "bool"
        }
      ],
      "payable": false,
      "stateMutability": "view",
      "type": "function",
      "signature": "0xb6b6b475"
    },
    {
      "constant": true,
      "inputs": [],
      "name": "firstParamInitialized",
      "outputs": [
        {
          "name": "",
          "type": "bool"
        }
      ],
      "payable": false,
      "stateMutability": "view",
      "type": "function",
      "signature": "0xc2cb21ba"
    },
    {
      "constant": true,
      "inputs": [
        {
          "name": "",
          "type": "uint256"
        }
      ],
      "name": "tokenTransfered",
      "outputs": [
        {
          "name": "",
          "type": "bool"
        }
      ],
      "payable": false,
      "stateMutability": "view",
      "type": "function",
      "signature": "0xde45dbd5"
    },
    {
      "constant": false,
      "inputs": [
        {
          "name": "newOwner",
          "type": "address"
        }
      ],
      "name": "transferOwnership",
      "outputs": [],
      "payable": false,
      "stateMutability": "nonpayable",
      "type": "function",
      "signature": "0xf2fde38b"
    },
    {
      "inputs": [
        {
          "name": "_BDEToken",
          "type": "address"
        },
        {
          "name": "_authority",
          "type": "address"
        },
        {
          "name": "_resonanceDataManageAddress",
          "type": "address"
        },
        {
          "name": "_fassionRewardAddress",
          "type": "address"
        },
        {
          "name": "_FOMORewardAddress",
          "type": "address"
        },
        {
          "name": "_luckyRewardAddress",
          "type": "address"
        },
        {
          "name": "_faithRewardAddress",
          "type": "address"
        }
      ],
      "payable": false,
      "stateMutability": "nonpayable",
      "type": "constructor",
      "signature": "constructor"
    },
    {
      "payable": true,
      "stateMutability": "payable",
      "type": "fallback"
    },
    {
      "anonymous": false,
      "inputs": [
        {
          "indexed": true,
          "name": "fissionPerson",
          "type": "address"
        },
        {
          "indexed": true,
          "name": "promoter",
          "type": "address"
        }
      ],
      "name": "ToBeFissionPerson",
      "type": "event",
      "signature": "0x95b9b14e81807a19f0d780820ad803eba32584f0671e1410f6815a83e75d4ef7"
    },
    {
      "anonymous": false,
      "inputs": [
        {
          "indexed": false,
          "name": "currentStepTokenAmount",
          "type": "uint256"
        },
        {
          "indexed": false,
          "name": "currentStepRaisedETH",
          "type": "uint256"
        }
      ],
      "name": "FundsInfo",
      "type": "event",
      "signature": "0xefb17818fcd18149842dc8ec26c8d51b1f7cd86669024d8ad385c95727e301b2"
    },
    {
      "anonymous": false,
      "inputs": [
        {
          "indexed": false,
          "name": "bpCountdown",
          "type": "uint256"
        },
        {
          "indexed": false,
          "name": "remainingToken",
          "type": "uint256"
        },
        {
          "indexed": false,
          "name": "personalTokenLimited",
          "type": "uint256"
        },
        {
          "indexed": false,
          "name": "totalTokenAmount",
          "type": "uint256"
        }
      ],
      "name": "BuildingPerioInfo",
      "type": "event",
      "signature": "0xe11de7dbf210471e3fa9c2ce8526b79b1202a34755ab39aa0ee452e2de7dd9e3"
    },
    {
      "anonymous": false,
      "inputs": [
        {
          "indexed": false,
          "name": "fpCountdown",
          "type": "uint256"
        },
        {
          "indexed": false,
          "name": "remainingETH",
          "type": "uint256"
        },
        {
          "indexed": false,
          "name": "rasiedETHAmount",
          "type": "uint256"
        }
      ],
      "name": "FundingPeriodInfo",
      "type": "event",
      "signature": "0xae8973493d4c3e41a9615da7dbb45a3e85e217ab826ebf232f236520f89ce5bd"
    },
    {
      "anonymous": false,
      "inputs": [
        {
          "indexed": false,
          "name": "fissionRewardList",
          "type": "address[]"
        },
        {
          "indexed": false,
          "name": "fissionRewardAmount",
          "type": "uint256[]"
        }
      ],
      "name": "FissionRewardInfo",
      "type": "event",
      "signature": "0x9c8d21d9775b290867a96ccd228b84fc35453ac06e714f5717f74c84dd962d7e"
    },
    {
      "anonymous": false,
      "inputs": [
        {
          "indexed": false,
          "name": "FOMORewardList",
          "type": "address[]"
        },
        {
          "indexed": false,
          "name": "FOMORewards",
          "type": "uint256[]"
        }
      ],
      "name": "FOMORewardInfo",
      "type": "event",
      "signature": "0x6b6aaf38bd1fe94894a8361f3d343ec41c4c18c8cde782e6c3a7d98f64a60a37"
    },
    {
      "anonymous": false,
      "inputs": [
        {
          "indexed": false,
          "name": "luckyRewardList",
          "type": "address[]"
        },
        {
          "indexed": false,
          "name": "luckyReward",
          "type": "uint256"
        }
      ],
      "name": "LuckyRewardInfo",
      "type": "event",
      "signature": "0xdb5afb48b961706eba89e5cf3ab5ae37dc9c360703069de0c2a6669f7e0f4b31"
    },
    {
      "anonymous": false,
      "inputs": [
        {
          "indexed": false,
          "name": "faithRewardList",
          "type": "address[]"
        },
        {
          "indexed": false,
          "name": "faithRewardAmount",
          "type": "uint256[]"
        }
      ],
      "name": "FaithRewardInfo",
      "type": "event",
      "signature": "0xe7e0e5e0f865e7ed55d089ae13321715f110f39374632f8891058404d5955916"
    },
    {
      "anonymous": false,
      "inputs": [
        {
          "indexed": false,
          "name": "addr",
          "type": "address"
        },
        {
          "indexed": false,
          "name": "ETHAmount",
          "type": "uint256"
        }
      ],
      "name": "WithdrawAllETH",
      "type": "event",
      "signature": "0x293d21fe426f090ce1ced07545832d833ba5245d1ca5dab39eedd683bcb26c71"
    },
    {
      "anonymous": false,
      "inputs": [
        {
          "indexed": false,
          "name": "from",
          "type": "address"
        },
        {
          "indexed": false,
          "name": "to",
          "type": "address"
        },
        {
          "indexed": false,
          "name": "tokenAmount",
          "type": "uint256"
        }
      ],
      "name": "WithdrawAllToken",
      "type": "event",
      "signature": "0x28982effc9f4b6c367af5f071929850b9e3a7f3cec08b9ea2d139ab3606b8169"
    },
    {
      "anonymous": false,
      "inputs": [
        {
          "indexed": false,
          "name": "FunderInfoArray",
          "type": "uint256[]"
        }
      ],
      "name": "FunderInfo",
      "type": "event",
      "signature": "0x04c808a514c1dafc38d056ce8d726701d153e5560559e9a2cbd4a698fc57dbc9"
    },
    {
      "anonymous": false,
      "inputs": [
        {
          "indexed": false,
          "name": "funderAddress",
          "type": "address[]"
        },
        {
          "indexed": false,
          "name": "funderTokenAmount",
          "type": "uint256[]"
        },
        {
          "indexed": false,
          "name": "funderETHAmount",
          "type": "uint256[]"
        },
        {
          "indexed": false,
          "name": "funderInvitees",
          "type": "uint256[]"
        },
        {
          "indexed": false,
          "name": "funderEarnFromAff",
          "type": "uint256[]"
        }
      ],
      "name": "StepFunders",
      "type": "event",
      "signature": "0x3b87f7808c5ab95853c64302b46442fcc67c01ce3ca71e707da509a4100e6afc"
    },
    {
      "anonymous": false,
      "inputs": [
        {
          "indexed": false,
          "name": "stepIndex",
          "type": "uint256"
        }
      ],
      "name": "SettlementStep",
      "type": "event",
      "signature": "0x884a42ea07d12dfb8a666018fad8dc91f2752bdabafca21fc534fefc1305355f"
    },
    {
      "anonymous": false,
      "inputs": [
        {
          "indexed": false,
          "name": "stepIndex",
          "type": "uint256"
        }
      ],
      "name": "StartNextStep",
      "type": "event",
      "signature": "0xeb4f8ce27ee2f036ff2d0bc02908be44cba9da8349185d0b9f996732fb77f07e"
    },
    {
      "anonymous": false,
      "inputs": [
        {
          "indexed": false,
          "name": "stepIndex",
          "type": "uint256"
        },
        {
          "indexed": false,
          "name": "raiseTarget",
          "type": "uint256"
        }
      ],
      "name": "SetRaiseTarget",
      "type": "event",
      "signature": "0xa0065ef53daacd0859dd1ca5cdda1a90bd236db58dc67e1c6c9888afb8b7c934"
    },
    {
      "anonymous": false,
      "inputs": [
        {
          "indexed": false,
          "name": "resonances",
          "type": "address[]"
        }
      ],
      "name": "GetResonances",
      "type": "event",
      "signature": "0x239ea09ed3b2c5ca6c811a840e58b3dc40f4591da5f559b32893f99e968b419c"
    },
    {
      "anonymous": false,
      "inputs": [
        {
          "indexed": false,
          "name": "resonancesRasiedETH",
          "type": "uint256"
        }
      ],
      "name": "FunderTotalRaised",
      "type": "event",
      "signature": "0x33bd212310efc1b994689137ddaaea56136d0cb5b0491d1eb3b4cc3fce4428c1"
    },
    {
      "anonymous": false,
      "inputs": [
        {
          "indexed": false,
          "name": "raisedETHAmount",
          "type": "uint256"
        },
        {
          "indexed": false,
          "name": "nowRaisedEther",
          "type": "uint256"
        },
        {
          "indexed": false,
          "name": "totalRemainingEther",
          "type": "uint256"
        }
      ],
      "name": "currentStepRaisedEther",
      "type": "event",
      "signature": "0x7d1cfe07223bbd14a8ce463bdbce6653a12b4514a78bbaebade93333b78d6e22"
    },
    {
      "anonymous": false,
      "inputs": [
        {
          "indexed": false,
          "name": "raisedTokenAmount",
          "type": "uint256"
        },
        {
          "indexed": false,
          "name": "remainingTokenForPersonal",
          "type": "uint256"
        },
        {
          "indexed": false,
          "name": "totalRemainingToken",
          "type": "uint256"
        }
      ],
      "name": "currentStepRaisedToken",
      "type": "event",
      "signature": "0xb78436e636f71b6303dc0f13fabcb2f1fe5c2973ea8de3dd5c2bc9b7fd2b2d3b"
    },
    {
      "anonymous": false,
      "inputs": [
        {
          "indexed": true,
          "name": "previousOwner",
          "type": "address"
        },
        {
          "indexed": true,
          "name": "newOwner",
          "type": "address"
        }
      ],
      "name": "OwnershipTransferred",
      "type": "event",
      "signature": "0x8be0079c531659141344cd1fd0a4f28419497f9722a3daafe3b4186f6b6457e0"
    },
    {
      "constant": false,
      "inputs": [
        {
          "name": "_newOwner",
          "type": "address"
        },
        {
          "name": "_beneficiary",
          "type": "address"
        },
        {
          "name": "_initialFissionPerson",
          "type": "address"
        }
      ],
      "name": "initParamForFirstStep",
      "outputs": [],
      "payable": false,
      "stateMutability": "nonpayable",
      "type": "function",
      "signature": "0xd50cf02d"
    },
    {
      "constant": false,
      "inputs": [
        {
          "name": "promoter",
          "type": "address"
        }
      ],
      "name": "toBeFissionPerson",
      "outputs": [
        {
          "name": "",
          "type": "address"
        },
        {
          "name": "",
          "type": "address"
        }
      ],
      "payable": false,
      "stateMutability": "nonpayable",
      "type": "function",
      "signature": "0xde3844ff"
    },
    {
      "constant": false,
      "inputs": [
        {
          "name": "_raiseTarget",
          "type": "uint256"
        }
      ],
      "name": "setRaiseTarget",
      "outputs": [
        {
          "name": "",
          "type": "uint256"
        },
        {
          "name": "",
          "type": "uint256"
        }
      ],
      "payable": false,
      "stateMutability": "nonpayable",
      "type": "function",
      "signature": "0x4559ff9b"
    },
    {
      "constant": true,
      "inputs": [
        {
          "name": "_stepIndex",
          "type": "uint256"
        }
      ],
      "name": "getRaiseTarget",
      "outputs": [
        {
          "name": "",
          "type": "uint256"
        }
      ],
      "payable": false,
      "stateMutability": "view",
      "type": "function",
      "signature": "0xdb27cf61"
    },
    {
      "constant": false,
      "inputs": [
        {
          "name": "_tokenAmount",
          "type": "uint256"
        }
      ],
      "name": "jointlyBuild",
      "outputs": [],
      "payable": false,
      "stateMutability": "nonpayable",
      "type": "function",
      "signature": "0xb4862a71"
    },
    {
      "constant": false,
      "inputs": [],
      "name": "transferToken",
      "outputs": [
        {
          "name": "",
          "type": "bool"
        }
      ],
      "payable": true,
      "stateMutability": "payable",
      "type": "function",
      "signature": "0x799a5359"
    },
    {
      "constant": false,
      "inputs": [
        {
          "name": "_fissionWinnerList",
          "type": "address[]"
        },
        {
          "name": "_LuckyWinnerList",
          "type": "address[]"
        }
      ],
      "name": "settlementStep",
      "outputs": [
        {
          "name": "",
          "type": "bool"
        }
      ],
      "payable": false,
      "stateMutability": "nonpayable",
      "type": "function",
      "signature": "0xb5ac72b5"
    },
    {
      "constant": false,
      "inputs": [
        {
          "name": "_FaithWinnerList",
          "type": "address[]"
        }
      ],
      "name": "settlementFaithReward",
      "outputs": [
        {
          "name": "",
          "type": "bool"
        }
      ],
      "payable": false,
      "stateMutability": "nonpayable",
      "type": "function",
      "signature": "0x5deac38b"
    },
    {
      "constant": false,
      "inputs": [],
      "name": "withdrawAllToken",
      "outputs": [
        {
          "name": "",
          "type": "address"
        },
        {
          "name": "",
          "type": "address"
        },
        {
          "name": "",
          "type": "uint256"
        }
      ],
      "payable": true,
      "stateMutability": "payable",
      "type": "function",
      "signature": "0x14870d2c"
    },
    {
      "constant": false,
      "inputs": [],
      "name": "withdrawAllETH",
      "outputs": [
        {
          "name": "",
          "type": "address"
        },
        {
          "name": "",
          "type": "uint256"
        }
      ],
      "payable": true,
      "stateMutability": "payable",
      "type": "function",
      "signature": "0x90386bbf"
    },
    {
      "constant": false,
      "inputs": [],
      "name": "withdrawFaithRewardAndRefund",
      "outputs": [
        {
          "name": "",
          "type": "bool"
        }
      ],
      "payable": true,
      "stateMutability": "payable",
      "type": "function",
      "signature": "0x11c850de"
    },
    {
      "constant": false,
      "inputs": [],
      "name": "withdrawAllETHByOwner",
      "outputs": [],
      "payable": true,
      "stateMutability": "payable",
      "type": "function",
      "signature": "0xb4c06982"
    },
    {
      "constant": true,
      "inputs": [],
      "name": "isFunder",
      "outputs": [
        {
          "name": "",
          "type": "bool"
        }
      ],
      "payable": false,
      "stateMutability": "view",
      "type": "function",
      "signature": "0xfeaec775"
    },
    {
      "constant": true,
      "inputs": [
        {
          "name": "_stepIndex",
          "type": "uint256"
        }
      ],
      "name": "isFunderByStep",
      "outputs": [
        {
          "name": "",
          "type": "bool"
        }
      ],
      "payable": false,
      "stateMutability": "view",
      "type": "function",
      "signature": "0x4c090a97"
    },
    {
      "constant": true,
      "inputs": [
        {
          "name": "_funder",
          "type": "address"
        }
      ],
      "name": "getInvitees",
      "outputs": [
        {
          "name": "",
          "type": "address[]"
        }
      ],
      "payable": false,
      "stateMutability": "view",
      "type": "function",
      "signature": "0xe9881a5e"
    },
    {
      "constant": true,
      "inputs": [],
      "name": "getResonances",
      "outputs": [
        {
          "name": "",
          "type": "address[]"
        }
      ],
      "payable": false,
      "stateMutability": "view",
      "type": "function",
      "signature": "0x891d7e79"
    },
    {
      "constant": true,
      "inputs": [
        {
          "name": "_funder",
          "type": "address"
        }
      ],
      "name": "getFunderTotalRaised",
      "outputs": [
        {
          "name": "",
          "type": "uint256"
        }
      ],
      "payable": false,
      "stateMutability": "view",
      "type": "function",
      "signature": "0xe15ce927"
    },
    {
      "constant": true,
      "inputs": [
        {
          "name": "_stepIndex",
          "type": "uint256"
        }
      ],
      "name": "getStepFunders",
      "outputs": [
        {
          "name": "",
          "type": "address[]"
        },
        {
          "name": "",
          "type": "uint256[]"
        },
        {
          "name": "",
          "type": "uint256[]"
        },
        {
          "name": "",
          "type": "uint256[]"
        },
        {
          "name": "",
          "type": "uint256[]"
        },
        {
          "name": "",
          "type": "uint256[]"
        }
      ],
      "payable": false,
      "stateMutability": "view",
      "type": "function",
      "signature": "0x16b29746"
    },
    {
      "constant": true,
      "inputs": [],
      "name": "getCurrentStepFundsInfo",
      "outputs": [
        {
          "name": "",
          "type": "uint256"
        },
        {
          "name": "",
          "type": "uint256"
        },
        {
          "name": "",
          "type": "uint256"
        }
      ],
      "payable": false,
      "stateMutability": "view",
      "type": "function",
      "signature": "0x912c84ec"
    },
    {
      "constant": true,
      "inputs": [],
      "name": "getWithdrawAmountPriv",
      "outputs": [
        {
          "name": "",
          "type": "uint256"
        },
        {
          "name": "",
          "type": "uint256"
        }
      ],
      "payable": false,
      "stateMutability": "view",
      "type": "function",
      "signature": "0xdef11777"
    },
    {
      "constant": true,
      "inputs": [],
      "name": "getBuildingPerioInfo",
      "outputs": [
        {
          "name": "",
          "type": "uint256"
        },
        {
          "name": "",
          "type": "uint256"
        },
        {
          "name": "",
          "type": "uint256"
        },
        {
          "name": "",
          "type": "uint256"
        }
      ],
      "payable": false,
      "stateMutability": "view",
      "type": "function",
      "signature": "0x64ab07fa"
    },
    {
      "constant": true,
      "inputs": [],
      "name": "getFundingPeriodInfo",
      "outputs": [
        {
          "name": "",
          "type": "uint256"
        },
        {
          "name": "",
          "type": "uint256"
        },
        {
          "name": "",
          "type": "uint256"
        }
      ],
      "payable": false,
      "stateMutability": "view",
      "type": "function",
      "signature": "0xc12cd1bc"
    },
    {
      "constant": true,
      "inputs": [],
      "name": "getFunderRewardInfo",
      "outputs": [
        {
          "name": "",
          "type": "uint256"
        },
        {
          "name": "",
          "type": "uint256"
        },
        {
          "name": "",
          "type": "uint256"
        },
        {
          "name": "",
          "type": "uint256"
        }
      ],
      "payable": false,
      "stateMutability": "view",
      "type": "function",
      "signature": "0xdbac3c96"
    },
    {
      "constant": true,
      "inputs": [],
      "name": "getFunderAffInfo",
      "outputs": [
        {
          "name": "",
          "type": "uint256"
        },
        {
          "name": "",
          "type": "uint256"
        }
      ],
      "payable": false,
      "stateMutability": "view",
      "type": "function",
      "signature": "0xc27438ac"
    },
    {
      "constant": true,
      "inputs": [
        {
          "name": "_stepIndex",
          "type": "uint256"
        }
      ],
      "name": "getFunderWithdrawTokenAmount",
      "outputs": [
        {
          "name": "",
          "type": "uint256"
        }
      ],
      "payable": false,
      "stateMutability": "view",
      "type": "function",
      "signature": "0xad539f14"
    },
    {
      "constant": true,
      "inputs": [
        {
          "name": "_stepIndex",
          "type": "uint256"
        }
      ],
      "name": "getFunderWithdrawETHAmount",
      "outputs": [
        {
          "name": "",
          "type": "uint256"
        }
      ],
      "payable": false,
      "stateMutability": "view",
      "type": "function",
      "signature": "0x4db4a039"
    },
    {
      "constant": true,
      "inputs": [
        {
          "name": "_stepIndex",
          "type": "uint256"
        }
      ],
      "name": "getFunderTokenAmount",
      "outputs": [
        {
          "name": "",
          "type": "uint256"
        }
      ],
      "payable": false,
      "stateMutability": "view",
      "type": "function",
      "signature": "0x5802a6ce"
    },
    {
      "constant": true,
      "inputs": [
        {
          "name": "_stepIndex",
          "type": "uint256"
        }
      ],
      "name": "getFunderETHAmount",
      "outputs": [
        {
          "name": "",
          "type": "uint256"
        }
      ],
      "payable": false,
      "stateMutability": "view",
      "type": "function",
      "signature": "0xb2d7da07"
    },
    {
      "constant": true,
      "inputs": [
        {
          "name": "_stepIndex",
          "type": "uint256"
        }
      ],
      "name": "getBlockHash",
      "outputs": [
        {
          "name": "",
          "type": "bytes32"
        }
      ],
      "payable": false,
      "stateMutability": "view",
      "type": "function",
      "signature": "0xee82ac5e"
    },
    {
      "constant": false,
      "inputs": [
        {
          "name": "_stepIndex",
          "type": "uint256"
        }
      ],
      "name": "setBlockHash",
      "outputs": [
        {
          "name": "",
          "type": "bool"
        }
      ],
      "payable": false,
      "stateMutability": "nonpayable",
      "type": "function",
      "signature": "0xa41e5bff"
    },
    {
      "constant": true,
      "inputs": [
        {
          "name": "_stepIndex",
          "type": "uint256"
        }
      ],
      "name": "currentStepIsClosed",
      "outputs": [
        {
          "name": "",
          "type": "bool"
        }
      ],
      "payable": false,
      "stateMutability": "view",
      "type": "function",
      "signature": "0x56d1121a"
    }
  ],
  "bytecode": "0x60806040523480156200001157600080fd5b5060405160e08062005974833981018060405260e08110156200003357600080fd5b50805160208201516040808401516060850151608086015160a087015160c09097015160008054600160a060020a03191633178082559551979896979496939592949192600160a060020a0316917f8be0079c531659141344cd1fd0a4f28419497f9722a3daafe3b4186f6b6457e0908290a360038054600160a060020a03968716600160a060020a031991821617909155600a805495871695821695909517909455600b805493861693851693909317909255600c8054918516918416919091179055600d805491841691831691909117905560006011556001805494831694821694909417909355600280549290911691909216179055615838806200013c6000396000f3fe6080604052600436106102605760003560e060020a900480639642a86b11610148578063d50cf02d116100ba578063def117771161007e578063def1177714610f9b578063e15ce92714610fb0578063e9881a5e14610fe3578063ee82ac5e14611016578063f2fde38b14611040578063feaec7751461107357610260565b8063d50cf02d14610e94578063db27cf6114610ed9578063dbac3c9614610f03578063de3844ff14610f18578063de45dbd514610f7157610260565b8063b4c069821161010c578063b4c0698214610ce6578063b5ac72b514610cee578063b6b6b47514610e22578063c12cd1bc14610e55578063c27438ac14610e6a578063c2cb21ba14610e7f57610260565b80639642a86b14610c29578063a41e5bff14610c3e578063ad539f1414610c68578063b2d7da0714610c92578063b4862a7114610cbc57610260565b80635bc34f71116101e1578063891d7e79116101a5578063891d7e7914610b275780638da5cb5b14610b8c5780638f32d59b14610ba157806390386bbf14610bb657806390fa85f814610be1578063912c84ec14610bf657610260565b80635bc34f7114610a085780635deac38b14610a1d57806364ab07fa14610acd578063715018a614610b08578063799a535914610b1f57610260565b80634c090a97116102285780634c090a97146109395780634db4a03914610963578063508bf76b1461099f57806356d1121a146109b45780635802a6ce146109de57610260565b806311c850de146106a057806314870d2c146106bc57806316b29746146106ee57806338af3eed146108c55780634559ff9b146108f6575b600360009054906101000a9004600160a060020a0316600160a060020a03166374ebae066040518163ffffffff1660e060020a02815260040160206040518083038186803b1580156102b157600080fd5b505afa1580156102c5573d6000803e3d6000fd5b505050506040513d60208110156102db57600080fd5b50511515610333576040805160e560020a62461bcd02815260206004820152601260248201527fe4b88de59ca8e58b9fe8b584e69c9fe586850000000000000000000000000000604482015290519081900360640190fd5b600360009054906101000a9004600160a060020a0316600160a060020a031663743acbab6040518163ffffffff1660e060020a02815260040160206040518083038186803b15801561038457600080fd5b505afa158015610398573d6000803e3d6000fd5b505050506040513d60208110156103ae57600080fd5b505115610405576040805160e560020a62461bcd02815260206004820152601260248201527fe585b1e68cafe5b7b2e7bb8fe7bb93e69d9f0000000000000000000000000000604482015290519081900360640190fd5b3467016345785d8a00008110156104505760405160e560020a62461bcd0281526004018080602001828103825260278152602001806155a46027913960400191505060405180910390fd5b6011546000908152601260205260409020600681015460079091015461047d90349063ffffffff61108816565b11156104bd5760405160e560020a62461bcd0281526004018080602001828103825260248152602001806157106024913960400191505060405180910390fd5b601154600090815260126020908152604080832033845290915290206003015460a060020a900460ff161515610522576011546000908152601260209081526040822060019081018054918201815583529120018054600160a060020a031916331790555b601180546000908152600960208181526040808420805460018181018355918652838620018054600160a060020a031990811633908117909255875487526012808652848820838952865284882060020180548b0190558854885280865284882083895286528488206003908101805474ff0000000000000000000000000000000000000000191660a060020a17905589548952818752858920600790810180548d0190558a548a52868a20858b528852868a2090910154600160a060020a031689526008875285892080548c019055600e805495860190557fbb7b4a454dc3493923482f07822329ed19e8244eff582cc204f8554c3620c3fd90940180549092168317909155908652600f84528286208054890190559554855294909152909120918201549101547f7d1cfe07223bbd14a8ce463bdbce6653a12b4514a78bbaebade93333b78d6e2291908390610680908363ffffffff6110a316565b60408051938452602084019290925282820152519081900360600190a150005b6106a86110b8565b604080519115158252519081900360200190f35b6106c46115a7565b60408051600160a060020a0394851681529290931660208301528183015290519081900360600190f35b3480156106fa57600080fd5b506107186004803603602081101561071157600080fd5b5035611a14565b6040518080602001806020018060200180602001806020018060200187810387528d818151815260200191508051906020019060200280838360005b8381101561076c578181015183820152602001610754565b5050505090500187810386528c818151815260200191508051906020019060200280838360005b838110156107ab578181015183820152602001610793565b5050505090500187810385528b818151815260200191508051906020019060200280838360005b838110156107ea5781810151838201526020016107d2565b5050505090500187810384528a818151815260200191508051906020019060200280838360005b83811015610829578181015183820152602001610811565b50505050905001878103835289818151815260200191508051906020019060200280838360005b83811015610868578181015183820152602001610850565b50505050905001878103825288818151815260200191508051906020019060200280838360005b838110156108a757818101518382015260200161088f565b505050509050019c5050505050505050505050505060405180910390f35b3480156108d157600080fd5b506108da611dc5565b60408051600160a060020a039092168252519081900360200190f35b34801561090257600080fd5b506109206004803603602081101561091957600080fd5b5035611dd4565b6040805192835260208301919091528051918290030190f35b34801561094557600080fd5b506106a86004803603602081101561095c57600080fd5b5035611f2c565b34801561096f57600080fd5b5061098d6004803603602081101561098657600080fd5b5035611f59565b60408051918252519081900360200190f35b3480156109ab57600080fd5b5061098d611fad565b3480156109c057600080fd5b506106a8600480360360208110156109d757600080fd5b5035611fb3565b3480156109ea57600080fd5b5061098d60048036036020811015610a0157600080fd5b5035611fd0565b348015610a1457600080fd5b5061098d61203c565b348015610a2957600080fd5b506106a860048036036020811015610a4057600080fd5b810190602081018135640100000000811115610a5b57600080fd5b820183602082011115610a6d57600080fd5b80359060200191846020830284011164010000000083111715610a8f57600080fd5b919080806020026020016040519081016040528093929190818152602001838360200280828437600092019190915250929550612042945050505050565b348015610ad957600080fd5b50610ae2612209565b604080519485526020850193909352838301919091526060830152519081900360800190f35b348015610b1457600080fd5b50610b1d6123f5565b005b6106a8612452565b348015610b3357600080fd5b50610b3c61291e565b60408051602080825283518183015283519192839290830191858101910280838360005b83811015610b78578181015183820152602001610b60565b505050509050019250505060405180910390f35b348015610b9857600080fd5b506108da612993565b348015610bad57600080fd5b506106a86129a2565b610bbe6129b3565b60408051600160a060020a03909316835260208301919091528051918290030190f35b348015610bed57600080fd5b506108da612c67565b348015610c0257600080fd5b50610c0b612c76565b60408051938452602084019290925282820152519081900360600190f35b348015610c3557600080fd5b5061098d612c97565b348015610c4a57600080fd5b506106a860048036036020811015610c6157600080fd5b5035612c9d565b348015610c7457600080fd5b5061098d60048036036020811015610c8b57600080fd5b5035612cda565b348015610c9e57600080fd5b5061098d60048036036020811015610cb557600080fd5b5035612d2e565b348015610cc857600080fd5b50610b1d60048036036020811015610cdf57600080fd5b5035612d9a565b610b1d6134c8565b348015610cfa57600080fd5b506106a860048036036040811015610d1157600080fd5b810190602081018135640100000000811115610d2c57600080fd5b820183602082011115610d3e57600080fd5b80359060200191846020830284011164010000000083111715610d6057600080fd5b9190808060200260200160405190810160405280939291908181526020018383602002808284376000920191909152509295949360208101935035915050640100000000811115610db057600080fd5b820183602082011115610dc257600080fd5b80359060200191846020830284011164010000000083111715610de457600080fd5b91908080602002602001604051908101604052809392919081815260200183836020028082843760009201919091525092955061362a945050505050565b348015610e2e57600080fd5b506106a860048036036020811015610e4557600080fd5b5035600160a060020a03166139dc565b348015610e6157600080fd5b50610c0b6139f1565b348015610e7657600080fd5b50610920613b0f565b348015610e8b57600080fd5b506106a8613b2f565b348015610ea057600080fd5b50610b1d60048036036060811015610eb757600080fd5b50600160a060020a038135811691602081013582169160409091013516613b38565b348015610ee557600080fd5b5061098d60048036036020811015610efc57600080fd5b5035613e2a565b348015610f0f57600080fd5b50610ae2613e3f565b348015610f2457600080fd5b50610f4b60048036036020811015610f3b57600080fd5b5035600160a060020a0316614093565b60408051600160a060020a03938416815291909216602082015281519081900390910190f35b348015610f7d57600080fd5b506106a860048036036020811015610f9457600080fd5b50356149e6565b348015610fa757600080fd5b506109206149fb565b348015610fbc57600080fd5b5061098d60048036036020811015610fd357600080fd5b5035600160a060020a0316614b12565b348015610fef57600080fd5b50610b3c6004803603602081101561100657600080fd5b5035600160a060020a0316614b43565b34801561102257600080fd5b5061098d6004803603602081101561103957600080fd5b5035614bb9565b34801561104c57600080fd5b50610b1d6004803603602081101561106357600080fd5b5035600160a060020a0316614bd2565b34801561107f57600080fd5b506106a8614bf1565b60008282018381101561109a57600080fd5b90505b92915050565b6000828211156110b257600080fd5b50900390565b600354604080517f743acbab0000000000000000000000000000000000000000000000000000000081529051600092600160a060020a03169163743acbab916004808301926020929190829003018186803b15801561111657600080fd5b505afa15801561112a573d6000803e3d6000fd5b505050506040513d602081101561114057600080fd5b505115156111825760405160e560020a62461bcd0281526004018080602001828103825260218152602001806157646021913960400191505060405180910390fd5b336000908152601a602052604090205460ff16156111ea576040805160e560020a62461bcd02815260206004820152601b60248201527fe98080e6acbee5b7b2e7bb8fe68f90e58f96e5ae8ce68890e4ba860000000000604482015290519081900360640190fd5b600354604080517f50b9d89d00000000000000000000000000000000000000000000000000000000815290513392600092600160a060020a03909116916350b9d89d91600480820192602092909190829003018186803b15801561124d57600080fd5b505afa158015611261573d6000803e3d6000fd5b505050506040513d602081101561127757600080fd5b5051600354604080517f1020f72a0000000000000000000000000000000000000000000000000000000081523360048201529051929350600092839261133e92600160a060020a0390911691631020f72a91602480820192602092909190829003018186803b1580156112e957600080fd5b505afa1580156112fd573d6000803e3d6000fd5b505050506040513d602081101561131357600080fd5b505160008581526012602090815260408083203384529091529020600201549063ffffffff61108816565b600454909150600160a060020a03163314156113d6576003546040805160e060020a635a492217028152600481018690529051600160a060020a0390921691635a49221791602480820192602092909190829003018186803b1580156113a357600080fd5b505afa1580156113b7573d6000803e3d6000fd5b505050506040513d60208110156113cd57600080fd5b505191506113f6565b600083815260126020908152604080832033845290915290206001015491505b60008381526012602090815260408083203380855290835281842060020184905560035482517f1da6dcf10000000000000000000000000000000000000000000000000000000081526004810192909252602482018590529151600160a060020a0390921693631da6dcf19360448084019491939192918390030190829087803b15801561148357600080fd5b505af1158015611497573d6000803e3d6000fd5b505050506040513d60208110156114ad57600080fd5b5050600154604080517fa9059cbb000000000000000000000000000000000000000000000000000000008152336004820152602481018590529051600160a060020a039092169163a9059cbb916044808201926020929091908290030181600087803b15801561151c57600080fd5b505af1158015611530573d6000803e3d6000fd5b505050506040513d602081101561154657600080fd5b5050604051600160a060020a0385169082156108fc029083906000818181858888f1935050505015801561157e573d6000803e3d6000fd5b5050336000908152601a60205260409020805460ff19166001179081905560ff16935050505090565b60008060006011546000141515156115f35760405160e560020a62461bcd02815260040180806020018281038252603281526020018061565d6032913960400191505060405180910390fd5b60115460009061160a90600163ffffffff6110a316565b600081815260126020908152604080832033845290915290206003015490915060a060020a900460ff1615156116745760405160e560020a62461bcd02815260040180806020018281038252602a815260200180615613602a913960400191505060405180910390fd5b60008181526012602090815260408083203384529091529020600301547501000000000000000000000000000000000000000000900460ff1615611702576040805160e560020a62461bcd02815260206004820152601d60248201527fe794a8e688b7e5b7b2e7bb8fe68f90e58f96746f6b656ee5ae8ce68890000000604482015290519081900360640190fd5b60008181526012602090815260408083203384529091528120600201541161175e5760405160e560020a62461bcd0281526004018080602001828103825260358152602001806156db6035913960400191505060405180910390fd5b600081815260126020526040812060070154116117af5760405160e560020a62461bcd0281526004018080602001828103825260258152602001806156b66025913960400191505060405180910390fd5b6003546040805160e060020a635a49221702815260048101849052905160009261184f92600160a060020a0390911691635a49221791602480820192602092909190829003018186803b15801561180557600080fd5b505afa158015611819573d6000803e3d6000fd5b505050506040513d602081101561182f57600080fd5b50516000848152601260205260409020600401549063ffffffff61108816565b6000838152601260209081526040808320600781015433855292528220600201549293509091611897919061188b90859063ffffffff614c1e16565b9063ffffffff614c4916565b600354604080517ef21bf2000000000000000000000000000000000000000000000000000000008152600481018790523360248201529051929350600160a060020a039091169162f21bf29160448082019260009290919082900301818387803b15801561190457600080fd5b505af1158015611918573d6000803e3d6000fd5b505050600084815260126020908152604080832033808552908352818420600301805475ff0000000000000000000000000000000000000000001916750100000000000000000000000000000000000000000017905560015482517fa9059cbb0000000000000000000000000000000000000000000000000000000081526004810192909252602482018790529151600160a060020a0392909216945063a9059cbb9360448083019493928390030190829087803b1580156119d957600080fd5b505af11580156119ed573d6000803e3d6000fd5b505050506040513d6020811015611a0357600080fd5b503097339750919550909350505050565b606080606080606080611a256129a2565b1515611a3057600080fd5b606080606080606080601260008e815260200190815260200160002060010180549050604051908082528060200260200182016040528015611a7c578160200160208202803883390190505b5095508551604051908082528060200260200182016040528015611aaa578160200160208202803883390190505b5094508551604051908082528060200260200182016040528015611ad8578160200160208202803883390190505b5093508551604051908082528060200260200182016040528015611b06578160200160208202803883390190505b5092508551604051908082528060200260200182016040528015611b34578160200160208202803883390190505b5091508551604051908082528060200260200182016040528015611b62578160200160208202803883390190505b5060008e8152601260209081526040918290206001018054835181840281018401909452808452939450919290830182828015611bc857602002820191906000526020600020905b8154600160a060020a03168152600190910190602001808311611baa575b50939950600093505050505b8651811015611db05760008e81526012602052604081208851909190899084908110611bfc57fe5b90602001906020020151600160a060020a0316600160a060020a03168152602001908152602001600020600101548682815181101515611c3857fe5b602090810290910181019190915260008f81526012909152604081208851909190899084908110611c6557fe5b90602001906020020151600160a060020a0316600160a060020a03168152602001908152602001600020600201548582815181101515611ca157fe5b602090810290910101528651600690600090899084908110611cbf57fe5b6020908102909101810151600160a060020a03168252810191909152604001600020548451859083908110611cf057fe5b602090810290910101528651600790600090899084908110611d0e57fe5b90602001906020020151600160a060020a0316600160a060020a03168152602001908152602001600020548382815181101515611d4757fe5b602090810290910101528651600890600090899084908110611d6557fe5b90602001906020020151600160a060020a0316600160a060020a03168152602001908152602001600020548282815181101515611d9e57fe5b60209081029091010152600101611bd4565b50949c939b5091995097509550909350915050565b600454600160a060020a031681565b600080611ddf6129a2565b1515611dea57600080fd5b600360009054906101000a9004600160a060020a0316600160a060020a03166325d8e97f6040518163ffffffff1660e060020a02815260040160206040518083038186803b158015611e3b57600080fd5b505afa158015611e4f573d6000803e3d6000fd5b505050506040513d6020811015611e6557600080fd5b50511515611ebd576040805160e560020a62461bcd02815260206004820152601260248201527fe4b88de59ca8e585b1e5bbbae69c9fe586850000000000000000000000000000604482015290519081900360640190fd5b6011805460009081526012602052604080822060069081018790559254825290200154611ef89060649061188b90605063ffffffff614c1e16565b6011805460009081526012602052604080822060080193909355815481529190912060068101546009909101555493915050565b600081815260126020908152604080832033845290915290206003015460a060020a900460ff165b919050565b601154600090821115611fa4576040805160e560020a62461bcd028152602060048201526012602482015260008051602061563d833981519152604482015290519081900360640190fd5b61109d82614c6d565b60165481565b6000908152601260205260409020600a0154610100900460ff1690565b60115460009082111561201b576040805160e560020a62461bcd028152602060048201526012602482015260008051602061563d833981519152604482015290519081900360640190fd5b50600090815260126020908152604080832033845290915290206001015490565b60115481565b600061204c6129a2565b151561205757600080fd5b600360009054906101000a9004600160a060020a0316600160a060020a031663743acbab6040518163ffffffff1660e060020a02815260040160206040518083038186803b1580156120a857600080fd5b505afa1580156120bc573d6000803e3d6000fd5b505050506040513d60208110156120d257600080fd5b5051151561212a576040805160e560020a62461bcd02815260206004820152601260248201527fe585b1e68cafe8bf98e69caae7bb93e69d9f0000000000000000000000000000604482015290519081900360640190fd5b600354601654604080517f95bbde880000000000000000000000000000000000000000000000000000000081526024810183905260048101918252855160448201528551600160a060020a03909416936395bbde88938793909290918291606401906020808701910280838360005b838110156121b1578181015183820152602001612199565b505050509050019350505050602060405180830381600087803b1580156121d757600080fd5b505af11580156121eb573d6000803e3d6000fd5b505050506040513d602081101561220157600080fd5b505192915050565b600080600080600080600080426122a5617080600360009054906101000a9004600160a060020a0316600160a060020a031663d74635736040518163ffffffff1660e060020a02815260040160206040518083038186803b15801561226d57600080fd5b505afa158015612281573d6000803e3d6000fd5b505050506040513d602081101561229757600080fd5b50519063ffffffff61108816565b116122b3576000935061231d565b61231a4261230e617080600360009054906101000a9004600160a060020a0316600160a060020a031663d74635736040518163ffffffff1660e060020a02815260040160206040518083038186803b15801561226d57600080fd5b9063ffffffff6110a316565b93505b6003546011546040805160e060020a635a4922170281526004810192909252516123c792600160a060020a031691635a492217916024808301926020929190829003018186803b15801561237057600080fd5b505afa158015612384573d6000803e3d6000fd5b505050506040513d602081101561239a57600080fd5b50516011546000908152601260205260409020600481015460029091015461230e9163ffffffff6110a316565b60115460009081526012602052604090206003810154600590910154959a9199509750939550929350505050565b6123fd6129a2565b151561240857600080fd5b60008054604051600160a060020a03909116907f8be0079c531659141344cd1fd0a4f28419497f9722a3daafe3b4186f6b6457e0908390a360008054600160a060020a0319169055565b600061245c6129a2565b151561246757600080fd5b60115460009081526018602052604090205460ff16156124bb5760405160e560020a62461bcd02815260040180806020018281038252602c8152602001806157b7602c913960400191505060405180910390fd5b6003546011546040805160e060020a635a492217028152600481019290925251600160a060020a0390921691635a49221791602480820192602092909190829003018186803b15801561250d57600080fd5b505afa158015612521573d6000803e3d6000fd5b505050506040513d602081101561253757600080fd5b5051600154604080517fdd62ed3e0000000000000000000000000000000000000000000000000000000081523360048201523060248201529051600160a060020a039092169163dd62ed3e91604480820192602092909190829003018186803b1580156125a357600080fd5b505afa1580156125b7573d6000803e3d6000fd5b505050506040513d60208110156125cd57600080fd5b50511015612625576040805160e560020a62461bcd02815260206004820152601260248201527fe68e88e69d83e9a29de5baa6e4b88de8b6b30000000000000000000000000000604482015290519081900360640190fd5b6001546003546011546040805160e060020a635a492217028152600481019290925251600160a060020a03938416936323b872dd93339330939190921691635a492217916024808301926020929190829003018186803b15801561268857600080fd5b505afa15801561269c573d6000803e3d6000fd5b505050506040513d60208110156126b257600080fd5b50516040805160e060020a63ffffffff8716028152600160a060020a0394851660048201529290931660248301526044820152905160648083019260209291908290030181600087803b15801561270857600080fd5b505af115801561271c573d6000803e3d6000fd5b505050506040513d602081101561273257600080fd5b5051151561278a576040805160e560020a62461bcd02815260206004820152601a60248201527fe8bdace7a7bb746f6b656ee588b0e59088e7baa6e5a4b1e8b4a5000000000000604482015290519081900360640190fd5b6003546011546040805160e060020a635a492217028152600481019290925251600160a060020a03909216916330f42bf6916128a9918491635a492217916024808301926020929190829003018186803b1580156127e757600080fd5b505afa1580156127fb573d6000803e3d6000fd5b505050506040513d602081101561281157600080fd5b5051600354604080517f2734189a0000000000000000000000000000000000000000000000000000000081529051600160a060020a0390921691632734189a91600480820192602092909190829003018186803b15801561287157600080fd5b505afa158015612885573d6000803e3d6000fd5b505050506040513d602081101561289b57600080fd5b50519063ffffffff6110a316565b6040518263ffffffff1660e060020a02815260040180828152602001915050600060405180830381600087803b1580156128e257600080fd5b505af11580156128f6573d6000803e3d6000fd5b50506011546000908152601860205260409020805460ff191660019081179091559250505090565b60606129286129a2565b151561293357600080fd5b600e80548060200260200160405190810160405280929190818152602001828054801561298957602002820191906000526020600020905b8154600160a060020a0316815260019091019060200180831161296b575b5050505050905090565b600054600160a060020a031690565b600054600160a060020a0316331490565b601154600090819015156129fb5760405160e560020a62461bcd0281526004018080602001828103825260328152602001806157856032913960400191505060405180910390fd5b601154600090612a1290600163ffffffff6110a316565b60008181526012602090815260408083203380855292529091206003015491925090760100000000000000000000000000000000000000000000900460ff1615612a905760405160e560020a62461bcd02815260040180806020018281038252602a8152602001806157e3602a913960400191505060405180910390fd5b600454600090600160a060020a0316331415612b4457600354604080517fcf38beac000000000000000000000000000000000000000000000000000000008152600481018690523360248201529051600160a060020a039092169163cf38beac91604480820192602092909190829003018186803b158015612b1157600080fd5b505afa158015612b25573d6000803e3d6000fd5b505050506040513d6020811015612b3b57600080fd5b50519050612b50565b612b4d83614c6d565b90505b600354604080517fea2f8bd1000000000000000000000000000000000000000000000000000000008152600481018690523360248201529051600160a060020a039092169163ea2f8bd19160448082019260009290919082900301818387803b158015612bbc57600080fd5b505af1158015612bd0573d6000803e3d6000fd5b5050506000848152601260209081526040808320338452909152808220600301805476ff00000000000000000000000000000000000000000000191676010000000000000000000000000000000000000000000017905551600160a060020a038516925083156108fc0291849190818181858888f19350505050158015612c5b573d6000803e3d6000fd5b50339450925050509091565b601354600160a060020a031681565b60115460008181526012602052604090206002810154600790910154909192565b60155481565b6000818152601260205260408120600b01541515612cd25750600081815260126020526040902043600b909101556001611f54565b506000611f54565b601154600090821115612d25576040805160e560020a62461bcd028152602060048201526012602482015260008051602061563d833981519152604482015290519081900360640190fd5b61109d82614dfc565b601154600090821115612d79576040805160e560020a62461bcd028152602060048201526012602482015260008051602061563d833981519152604482015290519081900360640190fd5b50600090815260126020908152604080832033845290915290206002015490565b600360009054906101000a9004600160a060020a0316600160a060020a03166325d8e97f6040518163ffffffff1660e060020a02815260040160206040518083038186803b158015612deb57600080fd5b505afa158015612dff573d6000803e3d6000fd5b505050506040513d6020811015612e1557600080fd5b50511515612e6d576040805160e560020a62461bcd02815260206004820152601260248201527fe4b88de59ca8e585b1e5bbbae69c9fe586850000000000000000000000000000604482015290519081900360640190fd5b600360009054906101000a9004600160a060020a0316600160a060020a031663743acbab6040518163ffffffff1660e060020a02815260040160206040518083038186803b158015612ebe57600080fd5b505afa158015612ed2573d6000803e3d6000fd5b505050506040513d6020811015612ee857600080fd5b505115612f3f576040805160e560020a62461bcd02815260206004820152601260248201527fe585b1e68cafe5b7b2e7bb8fe7bb93e69d9f0000000000000000000000000000604482015290519081900360640190fd5b3360009081526005602052604090205460ff161515612fa8576040805160e560020a62461bcd02815260206004820152601660248201527fe8b083e794a8e88085e4b88de698af4275696c64657200000000000000000000604482015290519081900360640190fd5b6003546011546040805160e060020a635a49221702815260048101929092525161304892600160a060020a031691635a492217916024808301926020929190829003018186803b158015612ffb57600080fd5b505afa15801561300f573d6000803e3d6000fd5b505050506040513d602081101561302557600080fd5b50516011546000908152601260205260409020600201549063ffffffff6110a316565b60115460009081526012602052604090206004015461306d908363ffffffff61108816565b11156130ad5760405160e560020a62461bcd02815260040180806020018281038252602d815260200180615556602d913960400191505060405180910390fd5b601154600090815260126020908152604080832060038101543385529252909120600101546130e2908363ffffffff61108816565b11156131225760405160e560020a62461bcd0281526004018080602001828103825260308152602001806157346030913960400191505060405180910390fd5b600154604080517fdd62ed3e00000000000000000000000000000000000000000000000000000000815233600482015230602482015290518392600160a060020a03169163dd62ed3e916044808301926020929190829003018186803b15801561318b57600080fd5b505afa15801561319f573d6000803e3d6000fd5b505050506040513d60208110156131b557600080fd5b5051101561320d576040805160e560020a62461bcd02815260206004820152601260248201527fe68e88e69d83e9a29de5baa6e4b88de8b6b30000000000000000000000000000604482015290519081900360640190fd5b600154604080517f23b872dd000000000000000000000000000000000000000000000000000000008152336004820152306024820152604481018490529051600160a060020a03909216916323b872dd916064808201926020929091908290030181600087803b15801561328057600080fd5b505af1158015613294573d6000803e3d6000fd5b505050506040513d60208110156132aa57600080fd5b50511515613302576040805160e560020a62461bcd02815260206004820152601a60248201527fe8bdace7a7bb746f6b656ee588b0e59088e7baa6e5a4b1e8b4a5000000000000604482015290519081900360640190fd5b6011805460009081526012602081815260408084203385528252808420600101805487019055935483529081529082902060050180548401905560035482517f2734189a0000000000000000000000000000000000000000000000000000000081529251600160a060020a03909116926330f42bf6926133a09286928692632734189a92600480840193829003018186803b15801561287157600080fd5b6040518263ffffffff1660e060020a02815260040180828152602001915050600060405180830381600087803b1580156133d957600080fd5b505af11580156133ed573d6000803e3d6000fd5b50503360008181526010602090815260408083208054880190556011805484526012808452828520600490810180548b0190559154808652838620928301549686528285529285206001015492909452929091526003909101547fb78436e636f71b6303dc0f13fabcb2f1fe5c2973ea8de3dd5c2bc9b7fd2b2d3b945091925061347d919063ffffffff6110a316565b601154600090815260126020526040902060048101546002909101546134a89163ffffffff6110a316565b60408051938452602084019290925282820152519081900360600190a150565b6134d06129a2565b15156134db57600080fd5b600454604051600160a060020a0390911690303180156108fc02916000818181858888f19350505050158015613515573d6000803e3d6000fd5b50600154604080517f70a082310000000000000000000000000000000000000000000000000000000081523060048201529051600160a060020a039092169163a9059cbb91339184916370a08231916024808301926020929190829003018186803b15801561358357600080fd5b505afa158015613597573d6000803e3d6000fd5b505050506040513d60208110156135ad57600080fd5b50516040805160e060020a63ffffffff8616028152600160a060020a03909316600484015260248301919091525160448083019260209291908290030181600087803b1580156135fc57600080fd5b505af1158015613610573d6000803e3d6000fd5b505050506040513d602081101561362657600080fd5b5050565b60006136346129a2565b151561363f57600080fd5b600454600160a060020a0316151561368b5760405160e560020a62461bcd0281526004018080602001828103825260218152602001806155836021913960400191505060405180910390fd5b6003546011546000818152601260209081526040808320600781015460089091015482517fc39fa86100000000000000000000000000000000000000000000000000000000815260048101969096526024860191909152604485015251600160a060020a039094169363c39fa86193606480820194918390030190829087803b15801561371757600080fd5b505af115801561372b573d6000803e3d6000fd5b505050506040513d602081101561374157600080fd5b5051156137505750600061109d565b6003546011546040805160e060020a635a4922170281526004810192909252516000926137f692600160a060020a0390911691635a49221791602480820192602092909190829003018186803b1580156137a957600080fd5b505afa1580156137bd573d6000803e3d6000fd5b505050506040513d60208110156137d357600080fd5b50516011546000908152601260205260409020600401549063ffffffff61108816565b90506138c0606461188b8361188b60286138b4600360009054906101000a9004600160a060020a0316600160a060020a0316635a4922176011546040518263ffffffff1660e060020a0281526004018082815260200191505060206040518083038186803b15801561386757600080fd5b505afa15801561387b573d6000803e3d6000fd5b505050506040513d602081101561389157600080fd5b50516011546000908152601260205260409020600701549063ffffffff614c1e16565b9063ffffffff614c1e16565b60118054600090815260146020526040808220939093559054815220546138f6906103e89061188b90607d63ffffffff614c1e16565b60168054909101905561390884614e8d565b61391183615163565b600354601154600454600082815260126020526040902060070154600160a060020a0393841693633c24fead939216906139599060649061188b90603c63ffffffff614c1e16565b6040518463ffffffff1660e060020a0281526004018084815260200183600160a060020a0316600160a060020a031681526020018281526020019350505050600060405180830381600087803b1580156139b257600080fd5b505af11580156139c6573d6000803e3d6000fd5b505050506139d2615245565b600191505061109d565b60056020526000908152604090205460ff1681565b60008060008060008042613a5362015180600360009054906101000a9004600160a060020a0316600160a060020a031663d74635736040518163ffffffff1660e060020a02815260040160206040518083038186803b15801561226d57600080fd5b11613a615760009250613ac0565b613abd4261230e62015180600360009054906101000a9004600160a060020a0316600160a060020a031663d74635736040518163ffffffff1660e060020a02815260040160206040518083038186803b15801561226d57600080fd5b92505b60115460009081526012602052604090206007810154600690910154613aeb9163ffffffff6110a316565b60115460009081526012602052604090206007015493965094509192505050909192565b336000908152600660209081526040808320546007909252909120549091565b60195460ff1681565b613b406129a2565b1515613b4b57600080fd5b60195460ff1615613b905760405160e560020a62461bcd02815260040180806020018281038252602781526020018061568f6027913960400191505060405180910390fd5b60048054600160a060020a03808516600160a060020a031992831617835560138054858316931692909217909155600354604080517fabdd11a800000000000000000000000000000000000000000000000000000000815242948101949094525191169163abdd11a891602480830192600092919082900301818387803b158015613c1a57600080fd5b505af1158015613c2e573d6000803e3d6000fd5b5050505073__UintUtils_____________________________63669dafe86216e3606040518263ffffffff1660e060020a0281526004018082815260200191505060206040518083038186803b158015613c8757600080fd5b505af4158015613c9b573d6000803e3d6000fd5b505050506040513d6020811015613cb157600080fd5b50516011805460009081526012602052604080822060029081019490945591548152200154613cee9060649061188b90600163ffffffff614c1e16565b601154600090815260126020526040808220600390810193909355915482517f1c5ce1570000000000000000000000000000000000000000000000000000000081529251600160a060020a0390911692631c5ce15792600480830193919282900301818387803b158015613d6157600080fd5b505af1158015613d75573d6000803e3d6000fd5b5050600354601154604080517f0d9907d9000000000000000000000000000000000000000000000000000000008152600481019290925251600160a060020a039092169350630d9907d992506024808201926020929091908290030181600087803b158015613de357600080fd5b505af1158015613df7573d6000803e3d6000fd5b505050506040513d6020811015613e0d57600080fd5b50506019805460ff19166001179055613e2583614bd2565b505050565b60009081526012602052604090206006015490565b600c54604080517fc28a1af30000000000000000000000000000000000000000000000000000000081523360048201529051600092839283928392600160a060020a03169163c28a1af3916024808301926020929190829003018186803b158015613ea957600080fd5b505afa158015613ebd573d6000803e3d6000fd5b505050506040513d6020811015613ed357600080fd5b5051600a54604080517f0df2019a0000000000000000000000000000000000000000000000000000000081523360048201529051600160a060020a0390921691630df2019a91602480820192602092909190829003018186803b158015613f3957600080fd5b505afa158015613f4d573d6000803e3d6000fd5b505050506040513d6020811015613f6357600080fd5b5051600b54604080517fc75355670000000000000000000000000000000000000000000000000000000081523360048201529051600160a060020a039092169163c753556791602480820192602092909190829003018186803b158015613fc957600080fd5b505afa158015613fdd573d6000803e3d6000fd5b505050506040513d6020811015613ff357600080fd5b5051600d54604080517f4a6817870000000000000000000000000000000000000000000000000000000081523360048201529051600160a060020a0390921691634a68178791602480820192602092909190829003018186803b15801561405957600080fd5b505afa15801561406d573d6000803e3d6000fd5b505050506040513d602081101561408357600080fd5b5051929791965094509092509050565b600080600360009054906101000a9004600160a060020a0316600160a060020a03166325d8e97f6040518163ffffffff1660e060020a02815260040160206040518083038186803b1580156140e757600080fd5b505afa1580156140fb573d6000803e3d6000fd5b505050506040513d602081101561411157600080fd5b50511515614169576040805160e560020a62461bcd02815260206004820152601260248201527fe4b88de59ca8e585b1e5bbbae69c9fe586850000000000000000000000000000604482015290519081900360640190fd5b600360009054906101000a9004600160a060020a0316600160a060020a031663743acbab6040518163ffffffff1660e060020a02815260040160206040518083038186803b1580156141ba57600080fd5b505afa1580156141ce573d6000803e3d6000fd5b505050506040513d60208110156141e457600080fd5b50511561423b576040805160e560020a62461bcd02815260206004820152601260248201527fe585b1e68cafe5b7b2e7bb8fe7bb93e69d9f0000000000000000000000000000604482015290519081900360640190fd5b3360009081526005602052604090205460ff161561428d5760405160e560020a62461bcd0281526004018080602001828103825260218152602001806155cb6021913960400191505060405180910390fd5b601354600160a060020a0384811691161461431457600160a060020a03831660009081526005602052604090205460ff161515614314576040805160e560020a62461bcd02815260206004820152601f60248201527fe68ea8e5b9bfe88085e887aae5b7b1e5bf85e9a1bbe698af4275696c64657200604482015290519081900360640190fd5b600160a060020a0383161515614374576040805160e560020a62461bcd02815260206004820152601b60248201527fe68ea8e5b9bfe88085e4b88de883bde698afe7a9bae59cb0e59d800000000000604482015290519081900360640190fd5b73__UintUtils_____________________________63669dafe860086040518263ffffffff1660e060020a0281526004018082815260200191505060206040518083038186803b1580156143c757600080fd5b505af41580156143db573d6000803e3d6000fd5b505050506040513d60208110156143f157600080fd5b5051600154604080517fdd62ed3e0000000000000000000000000000000000000000000000000000000081523360048201523060248201529051600160a060020a039092169163dd62ed3e91604480820192602092909190829003018186803b15801561445d57600080fd5b505afa158015614471573d6000803e3d6000fd5b505050506040513d602081101561448757600080fd5b505110156144df576040805160e560020a62461bcd02815260206004820152601260248201527fe68e88e69d83e9a29de5baa6e4b88de8b6b30000000000000000000000000000604482015290519081900360640190fd5b6001546040805160e360020a630cd3b5fd028152600860048201529051600160a060020a03909216916323b872dd913391309173__UintUtils_____________________________9163669dafe891602480820192602092909190829003018186803b15801561454e57600080fd5b505af4158015614562573d6000803e3d6000fd5b505050506040513d602081101561457857600080fd5b50516040805160e060020a63ffffffff8716028152600160a060020a0394851660048201529290931660248301526044820152905160648083019260209291908290030181600087803b1580156145ce57600080fd5b505af11580156145e2573d6000803e3d6000fd5b505050506040513d60208110156145f857600080fd5b50511515614650576040805160e560020a62461bcd02815260206004820152601a60248201527fe8bdace7a7bb746f6b656ee588b0e59088e7baa6e5a4b1e8b4a5000000000000604482015290519081900360640190fd5b6001546040805160e360020a630cd3b5fd028152600360048201529051600160a060020a039092169163a9059cbb9160009173__UintUtils_____________________________9163669dafe8916024808301926020929190829003018186803b1580156146bd57600080fd5b505af41580156146d1573d6000803e3d6000fd5b505050506040513d60208110156146e757600080fd5b50516040805160e060020a63ffffffff8616028152600160a060020a03909316600484015260248301919091525160448083019260209291908290030181600087803b15801561473657600080fd5b505af115801561474a573d6000803e3d6000fd5b505050506040513d602081101561476057600080fd5b50506001546040805160e360020a630cd3b5fd028152600560048201529051600160a060020a039092169163a9059cbb91869173__UintUtils_____________________________9163669dafe8916024808301926020929190829003018186803b1580156147ce57600080fd5b505af41580156147e2573d6000803e3d6000fd5b505050506040513d60208110156147f857600080fd5b50516040805160e060020a63ffffffff8616028152600160a060020a03909316600484015260248301919091525160448083019260209291908290030181600087803b15801561484757600080fd5b505af115801561485b573d6000803e3d6000fd5b505050506040513d602081101561487157600080fd5b50506040805160e360020a630cd3b5fd02815260056004820152905173__UintUtils_____________________________9163669dafe8916024808301926020929190829003018186803b1580156148c857600080fd5b505af41580156148dc573d6000803e3d6000fd5b505050506040513d60208110156148f257600080fd5b5051600160a060020a03841660009081526007602052604090208054909101905561491c83615471565b600160a060020a03808416600081815260066020908152604080832080546001810182559084529183209091018054600160a060020a03191633179055600a5460115460135483517fe23613e9000000000000000000000000000000000000000000000000000000008152600481019290925260248201959095529385166044850152905193169263e23613e992606480820193929182900301818387803b1580156149c757600080fd5b505af11580156149db573d6000803e3d6000fd5b503396945050505050565b60186020526000908152604090205460ff1681565b60115460009081901515614a435760405160e560020a62461bcd0281526004018080602001828103825260278152602001806155ec6027913960400191505060405180910390fd5b6000806000614a5e60016011546110a390919063ffffffff16565b60008181526012602090815260408083203384529091529020600301549091507501000000000000000000000000000000000000000000900460ff1615614aa85760009250614ab4565b614ab181614dfc565b92505b6000818152601260209081526040808320338452909152902060030154760100000000000000000000000000000000000000000000900460ff1615614afc5760009150614b08565b614b0581614c6d565b91505b5090925090509091565b6000614b1c6129a2565b1515614b2757600080fd5b50600160a060020a03166000908152600f602052604090205490565b600160a060020a038116600090815260066020908152604091829020805483518184028101840190945280845260609392830182828015614bad57602002820191906000526020600020905b8154600160a060020a03168152600190910190602001808311614b8f575b50505050509050919050565b6000908152601260205260409020600b01546001014090565b614bda6129a2565b1515614be557600080fd5b614bee816154e5565b50565b601154600090815260126020908152604080832033845290915290206003015460a060020a900460ff1690565b6000821515614c2f5750600061109d565b828202828482811515614c3e57fe5b041461109a57600080fd5b6000808211614c5757600080fd5b60008284811515614c6457fe5b04949350505050565b6003546040805160e060020a635a49221702815260048101849052905160009283928392614d0e92600160a060020a031691635a492217916024808301926020929190829003018186803b158015614cc457600080fd5b505afa158015614cd8573d6000803e3d6000fd5b505050506040513d6020811015614cee57600080fd5b50516000868152601260205260409020600401549063ffffffff61108816565b60008581526012602090815260408083206007810154338552925290912060010154919250614d4991839161188b919063ffffffff614c1e16565b600354604080517fcf38beac000000000000000000000000000000000000000000000000000000008152600481018890523360248201529051929450614df492600160a060020a039092169163cf38beac91604480820192602092909190829003018186803b158015614dbb57600080fd5b505afa158015614dcf573d6000803e3d6000fd5b505050506040513d6020811015614de557600080fd5b5051839063ffffffff61108816565b949350505050565b6003546040805160e060020a635a49221702815260048101849052905160009283928392614e5392600160a060020a031691635a492217916024808301926020929190829003018186803b158015614cc457600080fd5b60008581526012602090815260408083206007810154338552925290912060020154919250614df49161188b90849063ffffffff614c1e16565b6011546000908152601260205260409020600a015460ff1615614efa576040805160e560020a62461bcd02815260206004820152601e60248201527fe5bd93e5898de8bdaee6aca1e5b7b2e7bb8fe7bb93e7ae97e5ae8ce6af950000604482015290519081900360640190fd5b6011546000908152601260205260409020600a0154610100900460ff1615614f6c576040805160e560020a62461bcd02815260206004820152601b60248201527fe5bd93e5898de8bdaee6aca1e697a9e5b7b2e7bb8fe7bb93e69d9f0000000000604482015290519081900360640190fd5b600354601154600081815260146020526040902054600160a060020a039092169163deb72f1f91908490614fae9060649061188b90603263ffffffff614c1e16565b6040518463ffffffff1660e060020a0281526004018084815260200180602001838152602001828103825284818151815260200191508051906020019060200280838360005b8381101561500c578181015183820152602001614ff4565b50505050905001945050505050600060405180830381600087803b15801561503357600080fd5b505af1158015615047573d6000803e3d6000fd5b50506011546000908152600960205260408120541115915061515e9050576003546011546000818152600960209081526040808320601490925290912054600160a060020a03909316926384976e749291906150b2906103e89061188b90607d63ffffffff614c1e16565b6040518463ffffffff1660e060020a0281526004018084815260200180602001838152602001828103825284818154815260200191508054801561511f57602002820191906000526020600020905b8154600160a060020a03168152600190910190602001808311615101575b5050945050505050600060405180830381600087803b15801561514157600080fd5b505af1158015615155573d6000803e3d6000fd5b50505050614bee565b614bee565b600354601154600081815260146020526040902054600160a060020a039092169163fd38f45b919084906151a59060649061188b90601963ffffffff614c1e16565b6040518463ffffffff1660e060020a0281526004018084815260200180602001838152602001828103825284818151815260200191508051906020019060200280838360005b838110156152035781810151838201526020016151eb565b50505050905001945050505050600060405180830381600087803b15801561522a57600080fd5b505af115801561523e573d6000803e3d6000fd5b5050505050565b60118054600090815260126020526040808220600a908101805460ff1916600190811790915584548452828420909101805461ff00191661010017905583540190925560035482517fabdd11a80000000000000000000000000000000000000000000000000000000081524260048201529251600160a060020a039091169263abdd11a892602480830193919282900301818387803b1580156152e757600080fd5b505af11580156152fb573d6000803e3d6000fd5b5050600354601154604080517f0d9907d9000000000000000000000000000000000000000000000000000000008152600481019290925251600160a060020a039092169350630d9907d992506024808201926020929091908290030181600087803b15801561536957600080fd5b505af115801561537d573d6000803e3d6000fd5b505050506040513d602081101561539357600080fd5b5050600354604080517f8d8276be0000000000000000000000000000000000000000000000000000000081529051600160a060020a0390921691638d8276be91600480820192602092909190829003018186803b1580156153f357600080fd5b505afa158015615407573d6000803e3d6000fd5b505050506040513d602081101561541d57600080fd5b5051601180546000908152601260205260408082206002908101949094559154815220015461545a9060649061188b90600163ffffffff614c1e16565b601154600090815260126020526040902060030155565b601180546000908152601260208181526040808420338086529083528185208054600160a060020a03199081168317909155955485529282528084209284529181528183206003018054909416600160a060020a03959095169490941790925560059092529020805460ff19166001179055565b600160a060020a03811615156154fa57600080fd5b60008054604051600160a060020a03808516939216917f8be0079c531659141344cd1fd0a4f28419497f9722a3daafe3b4186f6b6457e091a360008054600160a060020a031916600160a060020a039290921691909117905556fee8bdace8b4a6e695b0e9878fe4b88de883bde8b685e8bf87e7a4bee58cbae58fafe8bdace8b4a6e680bbe9a29de59fbae98791e4bc9ae694b6e6acbee59cb0e59d80e5b09ae69caae8aebee7bdaee68a95e585a5e79a84455448e695b0e9878fe5ba94e8afa5e5a4a7e4ba8e302e31206574686572e8a382e58f98e88085e4b88de883bde5868de68890e4b8bae8a382e58f98e88085e4b88be4b880e8bdaee5868de69da5e69fa5e79c8be7acace4b880e8bdaee79a84e695b0e68daee794a8e688b7e6b2a1e69c89e58f82e4b88ee4b88ae4b880e8bdaee6aca1e79a84e58b9fe8b584e69c9f73746570496e646578e4b88de5ad98e59ca80000000000000000000000000000e8afb7e7ad89e5be85e4b88be4b880e8bdaee6aca1e5868de69da5e68f90e58f96e7acace4b880e8bdaee79a84746f6b656ee7acace4b880e8bdaee6aca1e695b0e68daee5b7b2e7bb8fe5889de5a78be58c96e8bf87e4ba86e4b88ae4b880e8bdaee6aca1e58b9fe8b584e69c9fe58b9fe99b86e588b030e4b8aa455448e794a8e688b7e59ca8e4b88ae4b880e8bdaee6aca1e6b2a1e69c89e58f82e4b88ee7bb84e5bbbae69c9f546f6b656ee68a95e5b881e5bd93e5898de8bdaee6aca1e5b7b2e58b9fe99b86e588b0e8b6b3e5a49fe79a84455448e585b1e5bbbae9a29de5baa6e5b7b2e8b685e8bf87e99990e9a29defbc8ce4b88de883bde7bba7e7bbade8bdace585a5e585b1e68cafe8bf98e69caae7bb93e69d9fefbc8ce4b88de883bde68f90e58f96e8afb7e7ad89e5be85e4b88be4b880e8bdaee6aca1e5868de69da5e68f90e58f96e7acace4b880e8bdaee79a846574686572e5bd93e5898de8bdaee6aca1e59fbae98791e4bc9ae5b7b2e7bb8fe8bdace585a5e8bf87546f6b656ee4ba86e794a8e688b7e59ca8e5bd93e5898de8bdaee6aca1e5b7b2e7bb8fe68f90e58f96455448e5ae8ce68890a165627a7a723058207ead93060ff58eac498880515fa84c76ee67e71907ed669510bf0d25a185892a0029",
  "source": "pragma solidity >=0.4.21 <0.6.0;\n\nimport \"../node_modules/openzeppelin-solidity/contracts/math/SafeMath.sol\";\nimport \"../node_modules/openzeppelin-solidity/contracts/ownership/Ownable.sol\";\nimport \"../node_modules/openzeppelin-solidity/contracts/token/ERC20/IERC20.sol\";\nimport \"./UintUtils.sol\";\nimport \"./FissionReward.sol\";\nimport \"./FOMOReward.sol\";\nimport \"./LuckyReward.sol\";\nimport \"./FaithReward.sol\";\nimport \"./ResonanceDataManage.sol\";\nimport \"./Authority.sol\";\n\n// TODO:token()\ncontract Resonance is Ownable{\n\n    using SafeMath for uint256;\n\n    // \n    // \n    event ToBeFissionPerson(address indexed fissionPerson, address indexed promoter);\n\n    event FundsInfo(uint256 currentStepTokenAmount, uint256 currentStepRaisedETH);\n    event BuildingPerioInfo(uint256 bpCountdown, uint256 remainingToken, uint256 personalTokenLimited, uint256 totalTokenAmount);\n    event FundingPeriodInfo(uint256 fpCountdown, uint256 remainingETH, uint256 rasiedETHAmount);\n\n    // \n    event FissionRewardInfo(address[] fissionRewardList, uint256[] fissionRewardAmount);\n    event FOMORewardInfo(address[] FOMORewardList, uint256[] FOMORewards);\n    event LuckyRewardInfo(address[] luckyRewardList, uint256 luckyReward);\n    event FaithRewardInfo(address[] faithRewardList, uint256[] faithRewardAmount);\n    event WithdrawAllETH(address addr, uint256 ETHAmount);\n    event WithdrawAllToken(address from, address to, uint256 tokenAmount);\n    event FunderInfo(uint256[] FunderInfoArray);\n    event StepFunders(\n        address[] funderAddress,\n        uint256[] funderTokenAmount,\n        uint256[] funderETHAmount,\n        uint256[] funderInvitees,\n        uint256[] funderEarnFromAff\n    );\n    event SettlementStep(uint256 stepIndex);\n\n    event StartNextStep(uint256 stepIndex);\n\n    event SetRaiseTarget(uint256 stepIndex, uint256 raiseTarget);\n\n    event GetResonances(address[] resonances);\n\n    event FunderTotalRaised(uint256 resonancesRasiedETH);\n\n    // ETHToken\n    // ETHETHETH\n    event currentStepRaisedEther(uint256 raisedETHAmount, uint256 nowRaisedEther, uint256 totalRemainingEther);\n    // TokenTokenToken\n    event currentStepRaisedToken(uint256 raisedTokenAmount, uint256 remainingTokenForPersonal, uint256 totalRemainingToken);\n\n    // \n    // ERC20\n    IERC20 BDEToken; // TODO:BDETokenRopsten\n\n    Authority authority;\n\n    ResonanceDataManage resonanceDataManage;\n\n    // 60%\n    address payable public beneficiary; // 0.5.2\n    // address public beneficiary; // 0.4.24\n\n    // \n    struct Funder{\n        address funderAddr; // \n        uint256 tokenAmount; // token\n        uint256 ethAmount; // eth\n        address promoter; // \n        bool isFunder; // \n        bool tokenHasWithdrawn; // Token\n        bool ETHHasWithdrawn; // ETH\n    }\n\n    mapping(address => bool) public isBuilder; //\n\n    mapping(address => address[]) invitees; // \n    mapping(address => uint256) earnFromAff; // \n    mapping(address => uint256) inviteesTotalAmount; // eth\n    mapping(uint256 => address[]) FOMOList; // FOMO\n\n    // \n    struct Building{\n        uint256 openTokenAmount; // Token\n        uint256 personalTokenLimited;// token\n        uint256 raisedToken; // token\n        uint256 raisedTokenAmount; // Token\n    }\n\n    // \n    struct Funding{\n        uint256 raiseTarget; // ETH()\n        uint256 raisedETH; // ETH\n    }\n\n    FissionReward fissionRewardInstance;\n    FOMOReward FOMORewardInstance;\n    LuckyReward luckyRewardInstance;\n    FaithReward faithRewardInstance;\n\n    // \n    struct Step{\n        mapping(address => Funder) funder;// \n        address[] funders; // funders\n        Building building; // \n        Funding funding; // \n        uint256 softCap; // \n        uint256 hardCap; // \n        bool settlementFinished; // \n        bool stepIsClosed; // \n        uint256 blockNumber; // \n    }\n\n    // \n    address[] resonances;\n\n    // \n    mapping(address => uint256) resonancesRasiedETH;\n    mapping(address => uint256) resonancesRasiedToken;\n\n    uint256 public currentStep;\n\n    mapping(uint256 => Step) steps;\n\n    address public initialFissionPerson; // \n\n    mapping(uint256 => uint256) ETHFromParty; // ETH\n\n    uint256 public totalETHFromParty; // \n\n    uint256 public faithRewardTotalAmount; // \n\n    mapping(uint256 => uint256) tokenFromParty; //token\n\n    mapping(uint256 => bool) public tokenTransfered; // Token\n\n    bool public firstParamInitialized;\n\n    mapping (address => bool) refundIsFinished; // refund\n\n    // \n    /// @notice \n    /// _BDEToken Token\n    constructor(\n        IERC20 _BDEToken, // TODO:BDEToken\n        Authority _authority,\n        address _resonanceDataManageAddress,\n        address _fassionRewardAddress,\n        address _FOMORewardAddress,\n        address _luckyRewardAddress,\n        address _faithRewardAddress\n    )\n        public\n    {\n        resonanceDataManage = ResonanceDataManage(_resonanceDataManageAddress);\n        // \n        fissionRewardInstance = FissionReward(_fassionRewardAddress);\n        FOMORewardInstance = FOMOReward(_FOMORewardAddress);\n        luckyRewardInstance = LuckyReward(_luckyRewardAddress);\n        faithRewardInstance = FaithReward(_faithRewardAddress);\n        currentStep = 0;\n        BDEToken = _BDEToken; // TODO:BDEToken\n        authority = _authority;\n    }\n\n\n    /// @notice \n    /// @dev ResonanceDataManage\n    function initParamForFirstStep(\n        address _newOwner,\n        address payable _beneficiary, // 0.5.2\n        // address _beneficiary, // 0.4.24\n        address _initialFissionPerson\n    )\n        public\n        onlyOwner()\n    {\n        require(!firstParamInitialized, \"\");\n        // \n        beneficiary = _beneficiary;\n        // \n        initialFissionPerson = _initialFissionPerson;\n        resonanceDataManage.setOpeningTime(block.timestamp); // \n        steps[currentStep].building.openTokenAmount = UintUtils.toWei(1500000); // Token\n        steps[currentStep].building.personalTokenLimited = steps[currentStep].building.openTokenAmount.mul(1).div(100);\n        // fundsPoolinitBuildingTokenAmount\n        resonanceDataManage.setParamForFirstStep();\n        // Token\n        resonanceDataManage.updateBuildingPercent(currentStep);\n        firstParamInitialized = true;\n        // \n        transferOwnership(_newOwner);\n    }\n\n    /// @notice \n    /// @param promoter \n    /// @dev TokenApprove\n    function toBeFissionPerson(\n        address promoter\n    )\n        public\n        returns(address, address)\n    {\n        require(resonanceDataManage.isBuildingPeriod(), \"\");\n        require(!resonanceDataManage.getCrowdsaleClosed(), \"\");\n        require(!isBuilder[msg.sender], \"\");\n\n        if(initialFissionPerson != promoter){\n            require(isBuilder[promoter],\"Builder\");\n        }\n\n        require(promoter != address(0), \"\");\n\n        // // \n        require(BDEToken.allowance(msg.sender, address(this)) >= UintUtils.toWei(8),\"\");\n\n        require(BDEToken.transferFrom(msg.sender,address(this), UintUtils.toWei(8)),\"token\");\n\n        // 3\n        BDEToken.transfer(address(0), UintUtils.toWei(3));\n\n        // 5\n        BDEToken.transfer(address(promoter), UintUtils.toWei(5));\n\n        earnFromAff[promoter] += UintUtils.toWei(5);\n        // steps[currentStep].funder[promoter].earnFromAff += UintUtils.toWei(5);\n\n        // \n        _addBuilder(promoter);\n\n        invitees[promoter].push(msg.sender);\n        // steps[currentStep].funder[promoter].invitees.push(msg.sender);\n\n        fissionRewardInstance.addAffman(currentStep, promoter, initialFissionPerson);\n\n        // emit ToBeFissionPerson(msg.sender, promoter);\n        return(msg.sender, promoter);\n    }\n\n    /// @notice \n    /// @dev \n    function setRaiseTarget(\n        uint256 _raiseTarget\n    )\n        public\n        onlyOwner()\n        returns(uint256, uint256)\n    {\n        require(resonanceDataManage.isBuildingPeriod(), \"\");\n        steps[currentStep].funding.raiseTarget = _raiseTarget;\n        // \n        steps[currentStep].softCap = steps[currentStep].funding.raiseTarget.mul(80).div(100);\n        steps[currentStep].hardCap = steps[currentStep].funding.raiseTarget;\n\n        // emit SetRaiseTarget(currentStep, _raiseTarget);\n        return(currentStep, _raiseTarget);\n    }\n\n    /// @notice \n    function getRaiseTarget(uint256 _stepIndex) public view returns(uint256) {\n        return steps[_stepIndex].funding.raiseTarget;\n    }\n\n    // token\n    function jointlyBuild(uint256 _tokenAmount) public {\n        require(resonanceDataManage.isBuildingPeriod(), \"\");\n\n        require(!resonanceDataManage.getCrowdsaleClosed(), \"\");\n\n        // builder\n        require(isBuilder[msg.sender], \"Builder\");\n\n        // \n        require(\n            steps[currentStep].building.raisedToken.add(_tokenAmount) <=\n            steps[currentStep].building.openTokenAmount.sub(resonanceDataManage.getBuildingTokenFromParty(currentStep)),\n            \"\"\n        );\n\n        // \n        require(\n             steps[currentStep].funder[msg.sender].tokenAmount.add(_tokenAmount) <=\n             steps[currentStep].building.personalTokenLimited,\n            \"\"\n        );\n\n        // \n        require(BDEToken.allowance(msg.sender, address(this)) >= _tokenAmount,\"\");\n\n        // \n        require(BDEToken.transferFrom(msg.sender, address(this), _tokenAmount),\"token\");\n\n        steps[currentStep].funder[msg.sender].tokenAmount += _tokenAmount;\n\n        steps[currentStep].building.raisedTokenAmount += _tokenAmount;\n\n        // Token\n        resonanceDataManage.setFundsPool(resonanceDataManage.getFundsPool().sub(_tokenAmount));\n\n        // \n        resonancesRasiedToken[msg.sender] += _tokenAmount;\n\n        // token\n        steps[currentStep].building.raisedToken += _tokenAmount;\n\n        emit currentStepRaisedToken(\n            steps[currentStep].building.raisedToken,\n            steps[currentStep].building.personalTokenLimited.sub(steps[currentStep].funder[msg.sender].tokenAmount),\n            steps[currentStep].building.openTokenAmount.sub(steps[currentStep].building.raisedToken)\n        );\n    }\n\n    /// @notice Token\n    function transferToken() public payable onlyOwner() returns(bool){\n        require(!tokenTransfered[currentStep], \"Token\");\n\n        // \n        require(BDEToken.allowance(msg.sender, address(this)) >= resonanceDataManage.getBuildingTokenFromParty(currentStep),\n            \"\"\n        );\n\n        // \n        require(BDEToken.transferFrom(msg.sender, address(this), resonanceDataManage.getBuildingTokenFromParty(currentStep)),\n            \"token\"\n        );\n\n        // \n        resonanceDataManage.setFundsPool(resonanceDataManage.getFundsPool().sub(resonanceDataManage.getBuildingTokenFromParty(currentStep)));\n\n        tokenTransfered[currentStep] = true;\n\n        return true;\n    }\n\n    /// @notice \n    function ()\n        external\n        payable\n    {\n        require(resonanceDataManage.isFundingPeriod(), \"\");\n\n        require(!resonanceDataManage.getCrowdsaleClosed(), \"\");\n\n        uint amount = msg.value;\n\n        // ETH>0.1 ether\n        require(amount >= 0.1 ether, \"ETH0.1 ether\");\n\n        // ETH\n        require(\n            msg.value.add(steps[currentStep].funding.raisedETH) <= steps[currentStep].funding.raiseTarget,\n            \"ETH\"\n        );\n\n        // funder\n        if(!steps[currentStep].funder[msg.sender].isFunder){\n            steps[currentStep].funders.push(msg.sender);\n        }\n\n        // FOMO\n        FOMOList[currentStep].push(msg.sender);\n\n        steps[currentStep].funder[msg.sender].ethAmount += amount;\n        steps[currentStep].funder[msg.sender].isFunder = true;\n        steps[currentStep].funding.raisedETH += amount;\n\n        // msg.sender\n        inviteesTotalAmount[steps[currentStep].funder[msg.sender].promoter] += amount;\n\n        resonances.push(msg.sender);\n        resonancesRasiedETH[msg.sender] += amount;\n\n        emit currentStepRaisedEther(\n            steps[currentStep].funding.raisedETH,\n            amount,\n            steps[currentStep].hardCap.sub(steps[currentStep].funding.raisedETH)\n        );\n    }\n\n    /// @notice \n    /// @dev \n    /// @param _fissionWinnerList \n    /// @param _LuckyWinnerList \n    function settlementStep(\n        address[] memory _fissionWinnerList,\n        address[] memory _LuckyWinnerList\n    )\n        public\n        onlyOwner()\n        returns(bool)\n    {\n        require(beneficiary != address(0), \"\");\n\n        // \n        if(resonanceDataManage.crowdsaleIsClosed(currentStep, steps[currentStep].funding.raisedETH, steps[currentStep].softCap)){\n            return false;\n        }else{\n            uint256 totalTokenAmount = steps[currentStep].building.raisedToken.add(resonanceDataManage.getBuildingTokenFromParty(currentStep));\n\n            ETHFromParty[currentStep] = steps[currentStep].funding.raisedETH\n                .mul(resonanceDataManage.getBuildingTokenFromParty(currentStep))\n                .mul(40)\n                .div(totalTokenAmount)\n                .div(100);\n\n            // 12.5%\n            faithRewardTotalAmount += ETHFromParty[currentStep].mul(125).div(1000);\n            // FOMO\n            _settlementReward(_fissionWinnerList);\n            // \n            _settlementLuckyReward(_LuckyWinnerList);\n            // \n            resonanceDataManage.setETHBalance(\n                currentStep,\n                beneficiary,\n                steps[currentStep].funding.raisedETH.mul(60).div(100) // \n                // resonanceDataManage.getETHBalance(currentStep, beneficiary) + steps[currentStep].funding.raisedETH.mul(60).div(100)\n            );\n\n            // \n            _startNextStep();\n\n            return true;\n        }\n\n    }\n\n    /// @notice \n    /// @param _FaithWinnerList \n    function settlementFaithReward(\n        address[] memory _FaithWinnerList\n    )\n        public\n        onlyOwner()\n        returns(bool)\n    {\n        require(resonanceDataManage.getCrowdsaleClosed(), \"\");\n        return resonanceDataManage.dmSettlementFaithReward(\n            _FaithWinnerList,\n            faithRewardTotalAmount\n        );\n    }\n\n    /// @notice FOMO\n    /// @dev ,\n    function _settlementReward(\n        address[] memory _fissionWinnerList\n    )\n        internal\n    {\n        require(!steps[currentStep].settlementFinished, \"\");\n        require(!steps[currentStep].stepIsClosed, \"\");\n\n        // \n        resonanceDataManage.settlementFissionReward(\n            currentStep,\n            _fissionWinnerList,\n            ETHFromParty[currentStep].mul(50).div(100)\n        );\n\n        // FOMO\n        if(FOMOList[currentStep].length > 0){\n            resonanceDataManage.settlementFOMOReward(\n                currentStep,\n                FOMOList[currentStep],\n                ETHFromParty[currentStep].mul(125).div(1000)\n            );\n        }else{\n            return;\n        }\n    }\n\n    /// @notice \n    function _settlementLuckyReward(\n        address[] memory _LuckyWinnerList\n    )\n        internal\n    {\n        resonanceDataManage.settlementLuckyReward(\n            currentStep,\n            _LuckyWinnerList,\n            ETHFromParty[currentStep].mul(25).div(100)\n        );\n    }\n\n    /// \n    function _startNextStep()\n        internal\n    {\n        // step\n        steps[currentStep].settlementFinished = true;\n        // \n        steps[currentStep].stepIsClosed = true;\n\n        // \n        currentStep++;\n        // \n        resonanceDataManage.setOpeningTime(block.timestamp);\n        // Token\n        resonanceDataManage.updateBuildingPercent(currentStep);\n        // Token\n        steps[currentStep].building.openTokenAmount = resonanceDataManage.getBuildingTokenAmount();\n        // \n        steps[currentStep].building.personalTokenLimited = steps[currentStep].building.openTokenAmount.mul(1).div(100);\n    }\n\n    /// @notice tokentoken\n    function withdrawAllToken()\n        public\n        payable\n        returns(address, address, uint256)\n    {\n        require(currentStep != 0, \"token\");\n\n        // \n        uint256 withdrawStep = currentStep.sub(1);\n\n        require(steps[withdrawStep].funder[msg.sender].isFunder, \"\");\n\n        require(!steps[withdrawStep].funder[msg.sender].tokenHasWithdrawn, \"token\");\n\n        require(steps[withdrawStep].funder[msg.sender].ethAmount > 0, \"Token\");\n\n        require(steps[withdrawStep].funding.raisedETH > 0, \"0ETH\");\n\n        // Token\n        //  = Token * ETH / ETH\n        uint256 totalTokenAmountPriv = steps[withdrawStep].building.raisedToken\n            .add(resonanceDataManage.getBuildingTokenFromParty(withdrawStep));\n\n        uint256 withdrawAmount = totalTokenAmountPriv.\n            mul(steps[withdrawStep].funder[msg.sender].ethAmount).\n            div(steps[withdrawStep].funding.raisedETH);\n\n        resonanceDataManage.emptyTokenBalance(withdrawStep, msg.sender);\n        steps[withdrawStep].funder[msg.sender].tokenHasWithdrawn = true;\n        BDEToken.transfer(msg.sender, withdrawAmount);\n\n        return(address(this), msg.sender, withdrawAmount);\n    }\n\n    /// @notice (ETH)\n    function withdrawAllETH()\n        public\n        payable\n        returns(address, uint256)\n    {\n        require(currentStep != 0, \"ether\");\n\n        // \n        uint256 withdrawStep = currentStep.sub(1);\n\n        address payable dest = address(uint160(msg.sender)); // 0.5.2\n        // address dest = address(uint160(msg.sender)); // 0.4.24\n\n        require(!steps[withdrawStep].funder[msg.sender].ETHHasWithdrawn, \"ETH\");\n\n        uint256 withdrawAmount;\n\n        // 60%\n        if(msg.sender == beneficiary){\n            withdrawAmount = resonanceDataManage.withdrawETHAmount(withdrawStep, msg.sender);\n        }else{// tokeneth\n            withdrawAmount = _calculationWithdrawETHAmount(withdrawStep);\n        }\n\n        // \n        resonanceDataManage.emptyETHBalance(withdrawStep, msg.sender);\n\n        steps[withdrawStep].funder[msg.sender].ETHHasWithdrawn = true;\n\n        dest.transfer(withdrawAmount);\n\n        return(msg.sender, withdrawAmount);\n    }\n\n\n    /// @notice \n    function withdrawFaithRewardAndRefund() public payable returns(bool){\n        // \n        require(resonanceDataManage.getCrowdsaleClosed(), \"\");\n\n        require(!refundIsFinished[msg.sender], \"\");\n        address payable dest = address(uint160(msg.sender)); // 0.5.2\n        // address dest = address(uint160(msg.sender)); // 0.4.24\n\n        uint256 resonanceClosedStep = resonanceDataManage.getResonanceClosedStep();\n        uint256 withdrawTokenAmount;\n\n        // ETH\n        uint256 withdrawETHAmount = steps[resonanceClosedStep].funder[msg.sender].ethAmount\n            .add(resonanceDataManage.getFaithRewardBalance(msg.sender));\n\n        // Token\n        if(msg.sender == beneficiary){\n            withdrawTokenAmount = resonanceDataManage.getBuildingTokenFromParty(resonanceClosedStep);\n        }else{\n            withdrawTokenAmount = steps[resonanceClosedStep].funder[msg.sender].tokenAmount;\n        }\n\n        // \n        steps[resonanceClosedStep].funder[msg.sender].ethAmount = 0;\n        resonanceDataManage.setFaithRewardBalance(msg.sender, 0);\n\n        // \n        BDEToken.transfer(msg.sender, withdrawTokenAmount);\n        dest.transfer(withdrawETHAmount);\n\n        refundIsFinished[msg.sender] = true;\n        return refundIsFinished[msg.sender];\n    }\n\n    /// @notice ETH\n    /// @dev ETH\n    function withdrawAllETHByOwner()\n        public\n        payable\n        onlyOwner()\n    {\n        beneficiary.transfer(address(this).balance);\n        BDEToken.transfer(msg.sender, BDEToken.balanceOf(address(this)));\n    }\n\n    /// @notice \n    function isFunder() public view returns(bool) {\n        return steps[currentStep].funder[msg.sender].isFunder;\n    }\n\n    /// @notice msg.senderfunder\n    function isFunderByStep(uint256 _stepIndex) public view returns(bool){\n        return steps[_stepIndex].funder[msg.sender].isFunder;\n    }\n\n    /// @notice funder\n    function getInvitees(address _funder) public view returns(address[] memory) {\n        return invitees[_funder];\n        // return steps[currentStep].funder[_funder].invitees;\n    }\n\n    /// @notice \n    function getResonances()\n        public\n        view\n        onlyOwner()\n        returns(address[] memory)\n    {\n        // emit GetResonances(resonances);\n        return(resonances);\n    }\n\n    /// @notice ETH\n    function getFunderTotalRaised(address _funder) public view onlyOwner() returns(uint256){\n        // emit FunderTotalRaised(resonancesRasiedETH[_funder]);\n        return resonancesRasiedETH[_funder];\n    }\n\n    /// @notice funders\n    /// @dev funders\n    /// @param _stepIndex \n    function getStepFunders(uint256 _stepIndex)\n        public\n        view\n        onlyOwner()\n        returns\n    (\n        address[] memory,\n        uint256[] memory,\n        uint256[] memory,\n        uint256[] memory,\n        uint256[] memory,\n        uint256[] memory\n    )\n    {\n        address[] memory funderAddress;\n        uint256[] memory funderTokenAmount;\n        uint256[] memory funderETHAmount;\n        uint256[] memory funderInvitees;\n        uint256[] memory _earnFromAff;\n        uint256[] memory _inviteesTotalAmount;\n\n        funderAddress = new address[](steps[_stepIndex].funders.length);\n        funderTokenAmount = new uint256[](funderAddress.length);\n        funderETHAmount = new uint256[](funderAddress.length);\n        funderInvitees = new uint256[](funderAddress.length);\n        _earnFromAff = new uint256[](funderAddress.length);\n        _inviteesTotalAmount = new uint256[](funderAddress.length);\n\n        funderAddress = steps[_stepIndex].funders;\n\n        for(uint i = 0 ; i < funderAddress.length; i++){\n            funderTokenAmount[i] = steps[_stepIndex].funder[funderAddress[i]].tokenAmount;\n            funderETHAmount[i] = steps[_stepIndex].funder[funderAddress[i]].ethAmount;\n            funderInvitees[i] = invitees[funderAddress[i]].length;\n            _earnFromAff[i] = earnFromAff[funderAddress[i]];\n            _inviteesTotalAmount[i] = inviteesTotalAmount[funderAddress[i]];\n        }\n\n        return (funderAddress, funderTokenAmount, funderETHAmount, funderInvitees, _earnFromAff, _inviteesTotalAmount);\n    }\n\n    /// @notice tokenETH\n    function getCurrentStepFundsInfo()\n        public\n        view\n        returns(uint256, uint256, uint256)\n    {\n        return(currentStep, steps[currentStep].building.openTokenAmount, steps[currentStep].funding.raisedETH);\n    }\n\n    /// @notice TokenETH\n    function getWithdrawAmountPriv() public view returns(uint256, uint256) {\n        require(currentStep != 0, \"\");\n\n        uint256 _withdrawTokenAmount;\n        uint256 _withdrawETHAmount;\n        uint256 withdrawStep = currentStep.sub(1);\n\n        if(steps[withdrawStep].funder[msg.sender].tokenHasWithdrawn){\n            _withdrawTokenAmount = 0;\n        }else{\n            _withdrawTokenAmount = _calculationWithdrawTokenAmount(withdrawStep);\n        }\n\n        if(steps[withdrawStep].funder[msg.sender].ETHHasWithdrawn){\n            _withdrawETHAmount = 0;\n        }else{\n            _withdrawETHAmount = _calculationWithdrawETHAmount(withdrawStep);\n        }\n\n        return(\n            _withdrawTokenAmount,\n            _withdrawETHAmount\n        );\n    }\n\n    /// @notice \n    function getBuildingPerioInfo()\n        public\n        view\n        returns(uint256, uint256, uint256, uint256)\n    {\n        uint256 _bpCountdown;\n        uint256 _remainingToken;\n        uint256 _personalTokenLimited;\n        uint256 _totalTokenAmount;\n\n        // TODO:\n        // 0\n        if(resonanceDataManage.getOpeningTime().add(8 hours) <= block.timestamp){\n            _bpCountdown = 0;\n        }else{\n            _bpCountdown = (resonanceDataManage.getOpeningTime().add(8 hours)).sub(block.timestamp);\n        }\n        _remainingToken = steps[currentStep].building.openTokenAmount.\n            sub(steps[currentStep].building.raisedToken).\n            sub(resonanceDataManage.getBuildingTokenFromParty(currentStep));\n\n        _personalTokenLimited = steps[currentStep].building.personalTokenLimited;\n        _totalTokenAmount = steps[currentStep].building.raisedTokenAmount;\n\n        return(_bpCountdown, _remainingToken, _personalTokenLimited, _totalTokenAmount);\n    }\n\n    // \n    function getFundingPeriodInfo()\n        public\n        view\n        returns(uint256, uint256, uint256)\n    {\n        uint256 _fpCountdown;\n        uint256 _remainingETH;\n        uint256 _rasiedETHAmount;\n\n        // TODO:\n        // 0\n        if(resonanceDataManage.getOpeningTime().add(24 hours) <= block.timestamp){\n            _fpCountdown = 0;\n        }else{\n            _fpCountdown = (resonanceDataManage.getOpeningTime().add(24 hours)).sub(block.timestamp);\n        }\n        _remainingETH = steps[currentStep].funding.raiseTarget.sub(steps[currentStep].funding.raisedETH);\n        _rasiedETHAmount = steps[currentStep].funding.raisedETH;\n\n        return(_fpCountdown, _remainingETH, _rasiedETHAmount);\n    }\n\n    /// @notice Token()\n    function _calculationWithdrawTokenAmount(uint256 _stepIndex) internal view returns(uint256){\n\n        uint256 _withdrawTokenAmount;\n\n        uint256  currentStepTotalRaisedToken = steps[_stepIndex].building.raisedToken\n            .add(resonanceDataManage.getBuildingTokenFromParty(_stepIndex));\n\n        _withdrawTokenAmount = currentStepTotalRaisedToken.\n            mul(steps[_stepIndex].funder[msg.sender].ethAmount).\n            div(steps[_stepIndex].funding.raisedETH);\n\n        return _withdrawTokenAmount;\n    }\n\n    /// @notice ETH()\n    function _calculationWithdrawETHAmount(uint256 _stepIndex) internal view returns(uint256){\n        uint256 _withdrawETHAmount;\n\n        uint256 totalTokenAmount = steps[_stepIndex].building.raisedToken\n            .add(resonanceDataManage.getBuildingTokenFromParty(_stepIndex));\n\n        _withdrawETHAmount = steps[_stepIndex].funder[msg.sender].tokenAmount\n            .mul(steps[_stepIndex].funding.raisedETH)\n            .div(totalTokenAmount);\n\n        return _withdrawETHAmount.add(resonanceDataManage.withdrawETHAmount(_stepIndex, msg.sender));\n    }\n\n    /// @notice \n    function getFunderRewardInfo() public view returns(uint256, uint256, uint256, uint256) {\n        return(\n            luckyRewardInstance.luckyFunderTotalBalance(msg.sender),\n            fissionRewardInstance.fissionFunderTotalBalance(msg.sender),\n            FOMORewardInstance.FOMOFunderTotalBalance(msg.sender),\n            faithRewardInstance.faithRewardAmount(msg.sender)\n        );\n    }\n\n    /// @notice \n    function getFunderAffInfo() public view returns(uint256, uint256) {\n        return(\n            invitees[msg.sender].length, // \n            earnFromAff[msg.sender] // \n        );\n    }\n\n    // Token\n    function getFunderWithdrawTokenAmount(uint256 _stepIndex) public view returns(uint256) {\n        require(_stepIndex <= currentStep, \"stepIndex\");\n        return _calculationWithdrawTokenAmount(_stepIndex);\n    }\n\n    // ETH\n    function getFunderWithdrawETHAmount(uint256 _stepIndex) public view returns(uint256) {\n        require(_stepIndex <= currentStep, \"stepIndex\");\n        return _calculationWithdrawETHAmount(_stepIndex);\n    }\n\n    // token\n    function getFunderTokenAmount(uint256 _stepIndex) public view returns(uint256) {\n        require(_stepIndex <= currentStep, \"stepIndex\");\n\n        return steps[_stepIndex].funder[msg.sender].tokenAmount;\n    }\n\n    // eth\n    function getFunderETHAmount(uint256 _stepIndex) public view returns(uint256) {\n        require(_stepIndex <= currentStep, \"stepIndex\");\n\n        return steps[_stepIndex].funder[msg.sender].ethAmount;\n    }\n\n    /// @notice \n    /// @param _promoter msg.sender\n    function _addBuilder(address _promoter) internal {\n        // \n        steps[currentStep].funder[msg.sender].funderAddr = msg.sender;\n        steps[currentStep].funder[msg.sender].promoter = _promoter;\n        isBuilder[msg.sender] = true;\n    }\n\n    /// @notice hash\n    function getBlockHash(uint256 _stepIndex) public view returns(bytes32) {\n        return blockhash(steps[_stepIndex].blockNumber+1);\n    }\n\n    /// @notice \n    function setBlockHash(uint256 _stepIndex) public returns(bool) {\n        if(steps[_stepIndex].blockNumber == 0){\n            steps[_stepIndex].blockNumber = block.number;\n            return true;\n        }else{\n            return false;\n        }\n    }\n\n    /// @notice \n    function currentStepIsClosed(uint256 _stepIndex) public view returns(bool) {\n        return steps[_stepIndex].stepIsClosed;\n    }\n}",
  "sourcePath": "/Users/a186r/dev/sourcecode/contract/contract/contracts/Resonance.sol",
  "compiler": {
    "name": "solc",
    "version": "0.5.2+commit.1df8f40c.Emscripten.clang"
  },
  "schemaVersion": "3.0.6",
  "updatedAt": "2019-06-04T05:49:13.560Z",
  "devdoc": {
    "methods": {
      "getStepFunders(uint256)": {
        "details": "funders",
        "params": {
          "_stepIndex": ""
        }
      },
      "initParamForFirstStep(address,address,address)": {
        "details": "ResonanceDataManage"
      },
      "isOwner()": {
        "return": "true if `msg.sender` is the owner of the contract."
      },
      "owner()": {
        "return": "the address of the owner."
      },
      "renounceOwnership()": {
        "details": "Allows the current owner to relinquish control of the contract. It will not be possible to call the functions with the `onlyOwner` modifier anymore."
      },
      "setRaiseTarget(uint256)": {
        "details": ""
      },
      "settlementFaithReward(address[])": {
        "params": {
          "_FaithWinnerList": ""
        }
      },
      "settlementStep(address[],address[])": {
        "details": "",
        "params": {
          "_LuckyWinnerList": "",
          "_fissionWinnerList": ""
        }
      },
      "toBeFissionPerson(address)": {
        "details": "TokenApprove",
        "params": {
          "promoter": ""
        }
      },
      "transferOwnership(address)": {
        "details": "Allows the current owner to transfer control of the contract to a newOwner.",
        "params": {
          "newOwner": "The address to transfer ownership to."
        }
      },
      "withdrawAllETHByOwner()": {
        "details": "ETH"
      }
    }
  },
  "userdoc": {
    "methods": {
      "constructor": " _BDEToken Token",
      "currentStepIsClosed(uint256)": {
        "notice": ""
      },
      "getBlockHash(uint256)": {
        "notice": "hash"
      },
      "getBuildingPerioInfo()": {
        "notice": ""
      },
      "getCurrentStepFundsInfo()": {
        "notice": "tokenETH"
      },
      "getFunderAffInfo()": {
        "notice": ""
      },
      "getFunderRewardInfo()": {
        "notice": ""
      },
      "getFunderTotalRaised(address)": {
        "notice": "ETH"
      },
      "getInvitees(address)": {
        "notice": "funder"
      },
      "getRaiseTarget(uint256)": {
        "notice": ""
      },
      "getResonances()": {
        "notice": ""
      },
      "getStepFunders(uint256)": {
        "notice": "funders"
      },
      "getWithdrawAmountPriv()": {
        "notice": "TokenETH"
      },
      "initParamForFirstStep(address,address,address)": {
        "notice": ""
      },
      "isFunder()": {
        "notice": ""
      },
      "isFunderByStep(uint256)": {
        "notice": "msg.senderfunder"
      },
      "renounceOwnership()": {
        "notice": "Renouncing ownership will leave the contract without an owner, thereby removing any functionality that is only available to the owner."
      },
      "setBlockHash(uint256)": {
        "notice": ""
      },
      "setRaiseTarget(uint256)": {
        "notice": ""
      },
      "settlementFaithReward(address[])": {
        "notice": ""
      },
      "settlementStep(address[],address[])": {
        "notice": ""
      },
      "toBeFissionPerson(address)": {
        "notice": ""
      },
      "transferToken()": {
        "notice": "Token"
      },
      "withdrawAllETH()": {
        "notice": "(ETH)"
      },
      "withdrawAllETHByOwner()": {
        "notice": "ETH"
      },
      "withdrawAllToken()": {
        "notice": "tokentoken"
      },
      "withdrawFaithRewardAndRefund()": {
        "notice": ""
      }
    }
  }
}