{
  "contractName": "Resonance",
  "abi": [
    {
      "constant": true,
      "inputs": [],
      "name": "beneficiary",
      "outputs": [
        {
          "name": "",
          "type": "address"
        }
      ],
      "payable": false,
      "stateMutability": "view",
      "type": "function"
    },
    {
      "constant": true,
      "inputs": [],
      "name": "currentStep",
      "outputs": [
        {
          "name": "",
          "type": "uint256"
        }
      ],
      "payable": false,
      "stateMutability": "view",
      "type": "function"
    },
    {
      "constant": false,
      "inputs": [],
      "name": "renounceOwnership",
      "outputs": [],
      "payable": false,
      "stateMutability": "nonpayable",
      "type": "function"
    },
    {
      "constant": true,
      "inputs": [],
      "name": "owner",
      "outputs": [
        {
          "name": "",
          "type": "address"
        }
      ],
      "payable": false,
      "stateMutability": "view",
      "type": "function"
    },
    {
      "constant": true,
      "inputs": [],
      "name": "isOwner",
      "outputs": [
        {
          "name": "",
          "type": "bool"
        }
      ],
      "payable": false,
      "stateMutability": "view",
      "type": "function"
    },
    {
      "constant": true,
      "inputs": [],
      "name": "initialFissionPerson",
      "outputs": [
        {
          "name": "",
          "type": "address"
        }
      ],
      "payable": false,
      "stateMutability": "view",
      "type": "function"
    },
    {
      "constant": true,
      "inputs": [],
      "name": "totalETHFromParty",
      "outputs": [
        {
          "name": "",
          "type": "uint256"
        }
      ],
      "payable": false,
      "stateMutability": "view",
      "type": "function"
    },
    {
      "constant": true,
      "inputs": [],
      "name": "firstParamInitialized",
      "outputs": [
        {
          "name": "",
          "type": "bool"
        }
      ],
      "payable": false,
      "stateMutability": "view",
      "type": "function"
    },
    {
      "constant": true,
      "inputs": [
        {
          "name": "",
          "type": "uint256"
        }
      ],
      "name": "tokenTransfered",
      "outputs": [
        {
          "name": "",
          "type": "bool"
        }
      ],
      "payable": false,
      "stateMutability": "view",
      "type": "function"
    },
    {
      "constant": true,
      "inputs": [],
      "name": "abcToken",
      "outputs": [
        {
          "name": "",
          "type": "address"
        }
      ],
      "payable": false,
      "stateMutability": "view",
      "type": "function"
    },
    {
      "constant": false,
      "inputs": [
        {
          "name": "newOwner",
          "type": "address"
        }
      ],
      "name": "transferOwnership",
      "outputs": [],
      "payable": false,
      "stateMutability": "nonpayable",
      "type": "function"
    },
    {
      "inputs": [
        {
          "name": "_resonanceDataManageAddress",
          "type": "address"
        },
        {
          "name": "_abcToken",
          "type": "address"
        },
        {
          "name": "_fassionRewardAddress",
          "type": "address"
        },
        {
          "name": "_FOMORewardAddress",
          "type": "address"
        },
        {
          "name": "_luckyRewardAddress",
          "type": "address"
        },
        {
          "name": "_faithRewardAddress",
          "type": "address"
        }
      ],
      "payable": false,
      "stateMutability": "nonpayable",
      "type": "constructor"
    },
    {
      "payable": true,
      "stateMutability": "payable",
      "type": "fallback"
    },
    {
      "anonymous": false,
      "inputs": [
        {
          "indexed": true,
          "name": "fissionPerson",
          "type": "address"
        },
        {
          "indexed": true,
          "name": "promoter",
          "type": "address"
        }
      ],
      "name": "ToBeFissionPerson",
      "type": "event"
    },
    {
      "anonymous": false,
      "inputs": [
        {
          "indexed": false,
          "name": "currentStepTokenAmount",
          "type": "uint256"
        },
        {
          "indexed": false,
          "name": "currentStepRaisedETH",
          "type": "uint256"
        }
      ],
      "name": "FundsInfo",
      "type": "event"
    },
    {
      "anonymous": false,
      "inputs": [
        {
          "indexed": false,
          "name": "bpCountdown",
          "type": "uint256"
        },
        {
          "indexed": false,
          "name": "remainingToken",
          "type": "uint256"
        },
        {
          "indexed": false,
          "name": "personalTokenLimited",
          "type": "uint256"
        },
        {
          "indexed": false,
          "name": "totalTokenAmount",
          "type": "uint256"
        }
      ],
      "name": "BuildingPerioInfo",
      "type": "event"
    },
    {
      "anonymous": false,
      "inputs": [
        {
          "indexed": false,
          "name": "fpCountdown",
          "type": "uint256"
        },
        {
          "indexed": false,
          "name": "remainingETH",
          "type": "uint256"
        },
        {
          "indexed": false,
          "name": "rasiedETHAmount",
          "type": "uint256"
        }
      ],
      "name": "FundingPeriodInfo",
      "type": "event"
    },
    {
      "anonymous": false,
      "inputs": [
        {
          "indexed": false,
          "name": "fissionRewardList",
          "type": "address[]"
        },
        {
          "indexed": false,
          "name": "fissionRewardAmount",
          "type": "uint256[]"
        }
      ],
      "name": "FissionRewardInfo",
      "type": "event"
    },
    {
      "anonymous": false,
      "inputs": [
        {
          "indexed": false,
          "name": "FOMORewardList",
          "type": "address[]"
        },
        {
          "indexed": false,
          "name": "FOMORewards",
          "type": "uint256[]"
        }
      ],
      "name": "FOMORewardInfo",
      "type": "event"
    },
    {
      "anonymous": false,
      "inputs": [
        {
          "indexed": false,
          "name": "luckyRewardList",
          "type": "address[]"
        },
        {
          "indexed": false,
          "name": "luckyReward",
          "type": "uint256"
        }
      ],
      "name": "LuckyRewardInfo",
      "type": "event"
    },
    {
      "anonymous": false,
      "inputs": [
        {
          "indexed": false,
          "name": "faithRewardList",
          "type": "address[]"
        },
        {
          "indexed": false,
          "name": "faithRewardAmount",
          "type": "uint256[]"
        }
      ],
      "name": "FaithRewardInfo",
      "type": "event"
    },
    {
      "anonymous": false,
      "inputs": [
        {
          "indexed": false,
          "name": "addr",
          "type": "address"
        },
        {
          "indexed": false,
          "name": "ETHAmount",
          "type": "uint256"
        }
      ],
      "name": "WithdrawAllETH",
      "type": "event"
    },
    {
      "anonymous": false,
      "inputs": [
        {
          "indexed": false,
          "name": "from",
          "type": "address"
        },
        {
          "indexed": false,
          "name": "to",
          "type": "address"
        },
        {
          "indexed": false,
          "name": "tokenAmount",
          "type": "uint256"
        }
      ],
      "name": "WithdrawAllToken",
      "type": "event"
    },
    {
      "anonymous": false,
      "inputs": [
        {
          "indexed": false,
          "name": "FunderInfoArray",
          "type": "uint256[]"
        }
      ],
      "name": "FunderInfo",
      "type": "event"
    },
    {
      "anonymous": false,
      "inputs": [
        {
          "indexed": false,
          "name": "funderAddress",
          "type": "address[]"
        },
        {
          "indexed": false,
          "name": "funderTokenAmount",
          "type": "uint256[]"
        },
        {
          "indexed": false,
          "name": "funderETHAmount",
          "type": "uint256[]"
        },
        {
          "indexed": false,
          "name": "funderInvitees",
          "type": "uint256[]"
        },
        {
          "indexed": false,
          "name": "funderEarnFromAff",
          "type": "uint256[]"
        }
      ],
      "name": "StepFunders",
      "type": "event"
    },
    {
      "anonymous": false,
      "inputs": [
        {
          "indexed": false,
          "name": "stepIndex",
          "type": "uint256"
        }
      ],
      "name": "SettlementStep",
      "type": "event"
    },
    {
      "anonymous": false,
      "inputs": [
        {
          "indexed": false,
          "name": "stepIndex",
          "type": "uint256"
        }
      ],
      "name": "StartNextStep",
      "type": "event"
    },
    {
      "anonymous": false,
      "inputs": [
        {
          "indexed": false,
          "name": "stepIndex",
          "type": "uint256"
        },
        {
          "indexed": false,
          "name": "raiseTarget",
          "type": "uint256"
        }
      ],
      "name": "SetRaiseTarget",
      "type": "event"
    },
    {
      "anonymous": false,
      "inputs": [
        {
          "indexed": false,
          "name": "resonances",
          "type": "address[]"
        }
      ],
      "name": "GetResonances",
      "type": "event"
    },
    {
      "anonymous": false,
      "inputs": [
        {
          "indexed": false,
          "name": "resonancesRasiedETH",
          "type": "uint256"
        }
      ],
      "name": "FunderTotalRaised",
      "type": "event"
    },
    {
      "anonymous": false,
      "inputs": [
        {
          "indexed": true,
          "name": "previousOwner",
          "type": "address"
        },
        {
          "indexed": true,
          "name": "newOwner",
          "type": "address"
        }
      ],
      "name": "OwnershipTransferred",
      "type": "event"
    },
    {
      "constant": false,
      "inputs": [
        {
          "name": "_newOwner",
          "type": "address"
        },
        {
          "name": "_beneficiary",
          "type": "address"
        },
        {
          "name": "_initialFissionPerson",
          "type": "address"
        }
      ],
      "name": "initParamForFirstStep",
      "outputs": [],
      "payable": false,
      "stateMutability": "nonpayable",
      "type": "function"
    },
    {
      "constant": false,
      "inputs": [
        {
          "name": "promoter",
          "type": "address"
        }
      ],
      "name": "toBeFissionPerson",
      "outputs": [
        {
          "name": "",
          "type": "address"
        },
        {
          "name": "",
          "type": "address"
        }
      ],
      "payable": false,
      "stateMutability": "nonpayable",
      "type": "function"
    },
    {
      "constant": false,
      "inputs": [
        {
          "name": "_raiseTarget",
          "type": "uint256"
        }
      ],
      "name": "setRaiseTarget",
      "outputs": [
        {
          "name": "",
          "type": "uint256"
        },
        {
          "name": "",
          "type": "uint256"
        }
      ],
      "payable": false,
      "stateMutability": "nonpayable",
      "type": "function"
    },
    {
      "constant": true,
      "inputs": [
        {
          "name": "_stepIndex",
          "type": "uint256"
        }
      ],
      "name": "getRaiseTarget",
      "outputs": [
        {
          "name": "",
          "type": "uint256"
        }
      ],
      "payable": false,
      "stateMutability": "view",
      "type": "function"
    },
    {
      "constant": false,
      "inputs": [
        {
          "name": "_tokenAmount",
          "type": "uint256"
        }
      ],
      "name": "jointlyBuild",
      "outputs": [],
      "payable": false,
      "stateMutability": "nonpayable",
      "type": "function"
    },
    {
      "constant": false,
      "inputs": [],
      "name": "transferToken",
      "outputs": [
        {
          "name": "",
          "type": "bool"
        }
      ],
      "payable": true,
      "stateMutability": "payable",
      "type": "function"
    },
    {
      "constant": false,
      "inputs": [
        {
          "name": "_fissionWinnerList",
          "type": "address[]"
        },
        {
          "name": "_LuckyWinnerList",
          "type": "address[]"
        }
      ],
      "name": "settlementStep",
      "outputs": [
        {
          "name": "",
          "type": "bool"
        }
      ],
      "payable": false,
      "stateMutability": "nonpayable",
      "type": "function"
    },
    {
      "constant": false,
      "inputs": [
        {
          "name": "_FaithWinnerList",
          "type": "address[]"
        }
      ],
      "name": "settlementFaithReward",
      "outputs": [
        {
          "name": "",
          "type": "bool"
        }
      ],
      "payable": false,
      "stateMutability": "nonpayable",
      "type": "function"
    },
    {
      "constant": false,
      "inputs": [],
      "name": "withdrawAllToken",
      "outputs": [
        {
          "name": "",
          "type": "address"
        },
        {
          "name": "",
          "type": "address"
        },
        {
          "name": "",
          "type": "uint256"
        }
      ],
      "payable": true,
      "stateMutability": "payable",
      "type": "function"
    },
    {
      "constant": false,
      "inputs": [],
      "name": "withdrawAllETH",
      "outputs": [
        {
          "name": "",
          "type": "address"
        },
        {
          "name": "",
          "type": "uint256"
        }
      ],
      "payable": true,
      "stateMutability": "payable",
      "type": "function"
    },
    {
      "constant": false,
      "inputs": [],
      "name": "withdrawAllETHByOwner",
      "outputs": [],
      "payable": true,
      "stateMutability": "payable",
      "type": "function"
    },
    {
      "constant": true,
      "inputs": [],
      "name": "isBuilder",
      "outputs": [
        {
          "name": "",
          "type": "bool"
        }
      ],
      "payable": false,
      "stateMutability": "view",
      "type": "function"
    },
    {
      "constant": true,
      "inputs": [],
      "name": "isFunder",
      "outputs": [
        {
          "name": "",
          "type": "bool"
        }
      ],
      "payable": false,
      "stateMutability": "view",
      "type": "function"
    },
    {
      "constant": true,
      "inputs": [
        {
          "name": "_funder",
          "type": "address"
        }
      ],
      "name": "getInvitees",
      "outputs": [
        {
          "name": "",
          "type": "address[]"
        }
      ],
      "payable": false,
      "stateMutability": "view",
      "type": "function"
    },
    {
      "constant": true,
      "inputs": [],
      "name": "getResonances",
      "outputs": [
        {
          "name": "",
          "type": "address[]"
        }
      ],
      "payable": false,
      "stateMutability": "view",
      "type": "function"
    },
    {
      "constant": true,
      "inputs": [
        {
          "name": "_funder",
          "type": "address"
        }
      ],
      "name": "getFunderTotalRaised",
      "outputs": [
        {
          "name": "",
          "type": "uint256"
        }
      ],
      "payable": false,
      "stateMutability": "view",
      "type": "function"
    },
    {
      "constant": true,
      "inputs": [
        {
          "name": "_stepIndex",
          "type": "uint256"
        }
      ],
      "name": "getStepFunders",
      "outputs": [
        {
          "name": "",
          "type": "address[]"
        },
        {
          "name": "",
          "type": "uint256[]"
        },
        {
          "name": "",
          "type": "uint256[]"
        },
        {
          "name": "",
          "type": "uint256[]"
        },
        {
          "name": "",
          "type": "uint256[]"
        },
        {
          "name": "",
          "type": "uint256[]"
        }
      ],
      "payable": false,
      "stateMutability": "view",
      "type": "function"
    },
    {
      "constant": true,
      "inputs": [],
      "name": "getCurrentStepFundsInfo",
      "outputs": [
        {
          "name": "",
          "type": "uint256"
        },
        {
          "name": "",
          "type": "uint256"
        },
        {
          "name": "",
          "type": "uint256"
        }
      ],
      "payable": false,
      "stateMutability": "view",
      "type": "function"
    },
    {
      "constant": true,
      "inputs": [],
      "name": "getBuildingPerioInfo",
      "outputs": [
        {
          "name": "",
          "type": "uint256"
        },
        {
          "name": "",
          "type": "uint256"
        },
        {
          "name": "",
          "type": "uint256"
        },
        {
          "name": "",
          "type": "uint256"
        }
      ],
      "payable": false,
      "stateMutability": "view",
      "type": "function"
    },
    {
      "constant": true,
      "inputs": [],
      "name": "getFundingPeriodInfo",
      "outputs": [
        {
          "name": "",
          "type": "uint256"
        },
        {
          "name": "",
          "type": "uint256"
        },
        {
          "name": "",
          "type": "uint256"
        }
      ],
      "payable": false,
      "stateMutability": "view",
      "type": "function"
    },
    {
      "constant": false,
      "inputs": [
        {
          "name": "_stepIndex",
          "type": "uint256"
        }
      ],
      "name": "getWithdrawTokenAmount",
      "outputs": [
        {
          "name": "",
          "type": "bool"
        }
      ],
      "payable": false,
      "stateMutability": "nonpayable",
      "type": "function"
    },
    {
      "constant": true,
      "inputs": [
        {
          "name": "_stepIndex",
          "type": "uint256"
        }
      ],
      "name": "getFunderInfo",
      "outputs": [
        {
          "name": "",
          "type": "uint256"
        },
        {
          "name": "",
          "type": "uint256"
        },
        {
          "name": "",
          "type": "uint256"
        },
        {
          "name": "",
          "type": "uint256"
        },
        {
          "name": "",
          "type": "uint256"
        },
        {
          "name": "",
          "type": "uint256"
        },
        {
          "name": "",
          "type": "uint256"
        },
        {
          "name": "",
          "type": "uint256"
        },
        {
          "name": "",
          "type": "uint256"
        },
        {
          "name": "",
          "type": "uint256"
        }
      ],
      "payable": false,
      "stateMutability": "view",
      "type": "function"
    },
    {
      "constant": true,
      "inputs": [
        {
          "name": "_stepIndex",
          "type": "uint256"
        }
      ],
      "name": "getBlockHash",
      "outputs": [
        {
          "name": "",
          "type": "bytes32"
        }
      ],
      "payable": false,
      "stateMutability": "view",
      "type": "function"
    },
    {
      "constant": false,
      "inputs": [
        {
          "name": "_stepIndex",
          "type": "uint256"
        }
      ],
      "name": "setBlockHash",
      "outputs": [
        {
          "name": "",
          "type": "bool"
        }
      ],
      "payable": false,
      "stateMutability": "nonpayable",
      "type": "function"
    },
    {
      "constant": true,
      "inputs": [
        {
          "name": "_stepIndex",
          "type": "uint256"
        }
      ],
      "name": "currentStepIsClosed",
      "outputs": [
        {
          "name": "",
          "type": "bool"
        }
      ],
      "payable": false,
      "stateMutability": "view",
      "type": "function"
    },
    {
      "constant": false,
      "inputs": [],
      "name": "refund",
      "outputs": [
        {
          "name": "",
          "type": "bool"
        }
      ],
      "payable": false,
      "stateMutability": "nonpayable",
      "type": "function"
    }
  ],
  "bytecode": "0x608060405234801561001057600080fd5b5060405160c08062005320833981018060405260c081101561003157600080fd5b50805160208201516040808401516060850151608086015160a09096015160008054600160a060020a03191633178082559451969795969395929492939192600160a060020a0316917f8be0079c531659141344cd1fd0a4f28419497f9722a3daafe3b4186f6b6457e0908290a360028054600160a060020a03978816600160a060020a0319918216179091556004805495881695821695909517909455600580549387169385169390931790925560068054918616918416919091179055600780549185169183169190911790556000600b55600180549290931691161790556151fe80620001226000396000f3fe60806040526004361061021e5760003560e060020a9004806390fa85f811610127578063d50cf02d116100af578063e757412811610073578063e757412814610df8578063e9881a5e14610e0d578063ee82ac5e14610e40578063f2fde38b14610e6a578063feaec77514610e9d5761021e565b8063d50cf02d14610cd3578063db27cf6114610d18578063de3844ff14610d42578063de45dbd514610d9b578063e15ce92714610dc55761021e565b8063b4862a71116100f6578063b4862a7114610b43578063b4c0698214610b6d578063b5ac72b514610b75578063c12cd1bc14610ca9578063c2cb21ba14610cbe5761021e565b806390fa85f814610abc578063912c84ec14610ad15780639642a86b14610b04578063a41e5bff14610b195761021e565b80635deac38b116101aa578063799a535911610179578063799a5359146109fa578063891d7e7914610a025780638da5cb5b14610a675780638f32d59b14610a7c57806390386bbf14610a915761021e565b80635deac38b146108ce5780635f2c74041461097e57806364ab07fa146109a8578063715018a6146109e35761021e565b80634559ff9b116101f15780634559ff9b146107fc57806354b946151461083f57806356d1121a14610868578063590e1ae3146108925780635bc34f71146108a75761021e565b8063099121831461054857806314870d2c146105c257806316b29746146105f457806338af3eed146107cb575b600260009054906101000a9004600160a060020a0316600160a060020a03166374ebae066040518163ffffffff1660e060020a02815260040160206040518083038186803b15801561026f57600080fd5b505afa158015610283573d6000803e3d6000fd5b505050506040513d602081101561029957600080fd5b505115156102f1576040805160e560020a62461bcd02815260206004820152601260248201527fe4b88de59ca8e58b9fe8b584e69c9fe586850000000000000000000000000000604482015290519081900360640190fd5b600260009054906101000a9004600160a060020a0316600160a060020a031663743acbab6040518163ffffffff1660e060020a02815260040160206040518083038186803b15801561034257600080fd5b505afa158015610356573d6000803e3d6000fd5b505050506040513d602081101561036c57600080fd5b5051156103b1576040805160e560020a62461bcd0281526020600482015260126024820152600080516020615131833981519152604482015290519081900360640190fd5b600b546000908152600c6020526040902060068101546007909101543491906103e190839063ffffffff610eb216565b11156104215760405160e560020a62461bcd0281526004018080602001828103825260248152602001806150dd6024913960400191505060405180910390fd5b600b546000908152600c6020908152604080832033845290915290206006015460a860020a900460ff16151561048657600b546000908152600c60209081526040822060019081018054918201815583529120018054600160a060020a031916331790555b600b80546000908152600c6020818152604080842033808652908352818520600201805488019055855485528383528185208186528352818520600601805475ff000000000000000000000000000000000000000000191660a860020a1790559454845291815281832060070180548601905560088054600181019091557ff3f7a9fe364faab93b216da50a3214154f22a0a2b415b23a84c8169e8b636ee3018054600160a060020a0319168517905592825260099092522080549091019055005b34801561055457600080fd5b506105726004803603602081101561056b57600080fd5b5035610ecd565b604080519a8b5260208b0199909952898901979097526060890195909552608088019390935260a087019190915260c086015260e085015261010084015261012083015251908190036101400190f35b6105ca611574565b60408051600160a060020a0394851681529290931660208301528183015290519081900360600190f35b34801561060057600080fd5b5061061e6004803603602081101561061757600080fd5b50356118e9565b6040518080602001806020018060200180602001806020018060200187810387528d818151815260200191508051906020019060200280838360005b8381101561067257818101518382015260200161065a565b5050505090500187810386528c818151815260200191508051906020019060200280838360005b838110156106b1578181015183820152602001610699565b5050505090500187810385528b818151815260200191508051906020019060200280838360005b838110156106f05781810151838201526020016106d8565b5050505090500187810384528a818151815260200191508051906020019060200280838360005b8381101561072f578181015183820152602001610717565b50505050905001878103835289818151815260200191508051906020019060200280838360005b8381101561076e578181015183820152602001610756565b50505050905001878103825288818151815260200191508051906020019060200280838360005b838110156107ad578181015183820152602001610795565b505050509050019c5050505050505050505050505060405180910390f35b3480156107d757600080fd5b506107e0611cd6565b60408051600160a060020a039092168252519081900360200190f35b34801561080857600080fd5b506108266004803603602081101561081f57600080fd5b5035611ce5565b6040805192835260208301919091528051918290030190f35b34801561084b57600080fd5b50610854611e3d565b604080519115158252519081900360200190f35b34801561087457600080fd5b506108546004803603602081101561088b57600080fd5b5035611e7b565b34801561089e57600080fd5b50610854611e9b565b3480156108b357600080fd5b506108bc612350565b60408051918252519081900360200190f35b3480156108da57600080fd5b50610854600480360360208110156108f157600080fd5b81019060208101813564010000000081111561090c57600080fd5b82018360208201111561091e57600080fd5b8035906020019184602083028401116401000000008311171561094057600080fd5b919080806020026020016040519081016040528093929190818152602001838360200280828437600092019190915250929550612356945050505050565b34801561098a57600080fd5b50610854600480360360208110156109a157600080fd5b503561251d565b3480156109b457600080fd5b506109bd6125b2565b604080519485526020850193909352838301919091526060830152519081900360800190f35b3480156109ef57600080fd5b506109f8612724565b005b610854612781565b348015610a0e57600080fd5b50610a17612ae7565b60408051602080825283518183015283519192839290830191858101910280838360005b83811015610a53578181015183820152602001610a3b565b505050509050019250505060405180910390f35b348015610a7357600080fd5b506107e0612b5c565b348015610a8857600080fd5b50610854612b6b565b610a99612b7c565b60408051600160a060020a03909316835260208301919091528051918290030190f35b348015610ac857600080fd5b506107e0612da2565b348015610add57600080fd5b50610ae6612db1565b60408051938452602084019290925282820152519081900360600190f35b348015610b1057600080fd5b506108bc612dd2565b348015610b2557600080fd5b5061085460048036036020811015610b3c57600080fd5b5035612dd8565b348015610b4f57600080fd5b506109f860048036036020811015610b6657600080fd5b5035612e0d565b6109f8613558565b348015610b8157600080fd5b5061085460048036036040811015610b9857600080fd5b810190602081018135640100000000811115610bb357600080fd5b820183602082011115610bc557600080fd5b80359060200191846020830284011164010000000083111715610be757600080fd5b9190808060200260200160405190810160405280939291908181526020018383602002808284376000920191909152509295949360208101935035915050640100000000811115610c3757600080fd5b820183602082011115610c4957600080fd5b80359060200191846020830284011164010000000083111715610c6b57600080fd5b9190808060200260200160405190810160405280939291908181526020018383602002808284376000920191909152509295506135a8945050505050565b348015610cb557600080fd5b50610ae661384d565b348015610cca57600080fd5b5061085461396e565b348015610cdf57600080fd5b506109f860048036036060811015610cf657600080fd5b50600160a060020a038135811691602081013582169160409091013516613977565b348015610d2457600080fd5b506108bc60048036036020811015610d3b57600080fd5b5035613c69565b348015610d4e57600080fd5b50610d7560048036036020811015610d6557600080fd5b5035600160a060020a0316613c7e565b60408051600160a060020a03938416815291909216602082015281519081900390910190f35b348015610da757600080fd5b5061085460048036036020811015610dbe57600080fd5b50356145b7565b348015610dd157600080fd5b506108bc60048036036020811015610de857600080fd5b5035600160a060020a03166145cc565b348015610e0457600080fd5b506107e06145fd565b348015610e1957600080fd5b50610a1760048036036020811015610e3057600080fd5b5035600160a060020a031661460c565b348015610e4c57600080fd5b506108bc60048036036020811015610e6357600080fd5b503561468f565b348015610e7657600080fd5b506109f860048036036020811015610e8d57600080fd5b5035600160a060020a03166146a8565b348015610ea957600080fd5b506108546146c4565b600082820183811015610ec457600080fd5b90505b92915050565b600080600080600080600080600080610ee4614f52565b60008c8152600c6020908152604080832033845282529182902082516101a0810184528154600160a060020a031681526001820154818401526002820154818501526003820180548551818602810186019096528086529194929360608601939290830182828015610f7f57602002820191906000526020600020905b8154600160a060020a03168152600190910190602001808311610f61575b50505091835250506004820154602082015260058201546040808301919091526006830154600160a060020a03811660608085019190915260ff74010000000000000000000000000000000000000000830481161515608086015260a860020a83048116151560a086015276010000000000000000000000000000000000000000000083048116151560c086015277010000000000000000000000000000000000000000000000909204909116151560e08401526007840154610100840152600890930154610120909201919091528051600a808252610160820190925292935090919081602001602082028038833901905050905081610160015181600081518110151561108a57fe5b6020908102909101810191909152600254604080517f3bb66a7b0000000000000000000000000000000000000000000000000000000081523360048201529051600160a060020a0390921692633bb66a7b92602480840193829003018186803b1580156110f657600080fd5b505afa15801561110a573d6000803e3d6000fd5b505050506040513d602081101561112057600080fd5b505181518290600190811061113157fe5b6020908102909101015260608201515181518290600290811061115057fe5b6020908102909101015260a082015181518290600390811061116e57fe5b9060200190602002018181525050816020015181600481518110151561119057fe5b6020908102909101015260408201518151829060059081106111ae57fe5b6020908102909101810191909152600654604080517fc28a1af30000000000000000000000000000000000000000000000000000000081523360048201529051600160a060020a039092169263c28a1af392602480840193829003018186803b15801561121a57600080fd5b505afa15801561122e573d6000803e3d6000fd5b505050506040513d602081101561124457600080fd5b505181518290600690811061125557fe5b602090810290910181019190915260048054604080517f0df2019a000000000000000000000000000000000000000000000000000000008152339381019390935251600160a060020a0390911692630df2019a9260248082019391829003018186803b1580156112c457600080fd5b505afa1580156112d8573d6000803e3d6000fd5b505050506040513d60208110156112ee57600080fd5b50518151829060079081106112ff57fe5b6020908102909101810191909152600554604080517fc75355670000000000000000000000000000000000000000000000000000000081523360048201529051600160a060020a039092169263c753556792602480840193829003018186803b15801561136b57600080fd5b505afa15801561137f573d6000803e3d6000fd5b505050506040513d602081101561139557600080fd5b50518151829060089081106113a657fe5b6020908102909101810191909152600754604080517f4a6817870000000000000000000000000000000000000000000000000000000081523360048201529051600160a060020a0390921692634a68178792602480840193829003018186803b15801561141257600080fd5b505afa158015611426573d6000803e3d6000fd5b505050506040513d602081101561143c57600080fd5b505181518290600990811061144d57fe5b6020908102909101015280518190600090811061146657fe5b9060200190602002015181600181518110151561147f57fe5b9060200190602002015182600281518110151561149857fe5b906020019060200201518360038151811015156114b157fe5b906020019060200201518460048151811015156114ca57fe5b906020019060200201518560058151811015156114e357fe5b906020019060200201518660068151811015156114fc57fe5b9060200190602002015187600781518110151561151557fe5b9060200190602002015188600881518110151561152e57fe5b9060200190602002015189600981518110151561154757fe5b906020019060200201519b509b509b509b509b509b509b509b509b509b5050509193959799509193959799565b6000806000806115906001600b546146f190919063ffffffff16565b6000818152600c6020908152604080832033845290915290206006015490915060a860020a900460ff1615156115fa5760405160e560020a62461bcd02815260040180806020018281038252602a81526020018061500c602a913960400191505060405180910390fd5b6000818152600c60209081526040808320338452909152902060060154760100000000000000000000000000000000000000000000900460ff16156116735760405160e560020a62461bcd02815260040180806020018281038252602c815260200180615151602c913960400191505060405180910390fd5b6000818152600c60209081526040808320338452909152812060020154116116cf5760405160e560020a62461bcd0281526004018080602001828103825260358152602001806150a86035913960400191505060405180910390fd5b6000818152600c6020526040812060070154116117205760405160e560020a62461bcd0281526004018080602001828103825260258152602001806150836025913960400191505060405180910390fd5b6000818152600c602081815260408084206007810154338652818452918520600201548686529390925260049091015461177092611764919063ffffffff61470616565b9063ffffffff61473116565b600254604080517f430c67c40000000000000000000000000000000000000000000000000000000081523360048201529051929350600160a060020a039091169163430c67c49160248082019260009290919082900301818387803b1580156117d857600080fd5b505af11580156117ec573d6000803e3d6000fd5b5050506000838152600c6020908152604080832033808552908352818420600601805476ff00000000000000000000000000000000000000000000191676010000000000000000000000000000000000000000000017905560015482517fa9059cbb0000000000000000000000000000000000000000000000000000000081526004810192909252602482018790529151600160a060020a0392909216945063a9059cbb9360448083019493928390030190829087803b1580156118af57600080fd5b505af11580156118c3573d6000803e3d6000fd5b505050506040513d60208110156118d957600080fd5b5030963396509194509092505050565b6060806060806060806118fa612b6b565b151561190557600080fd5b606080606080606080600c60008e815260200190815260200160002060010180549050604051908082528060200260200182016040528015611951578160200160208202803883390190505b509550855160405190808252806020026020018201604052801561197f578160200160208202803883390190505b50945085516040519080825280602002602001820160405280156119ad578160200160208202803883390190505b50935085516040519080825280602002602001820160405280156119db578160200160208202803883390190505b5092508551604051908082528060200260200182016040528015611a09578160200160208202803883390190505b5091508551604051908082528060200260200182016040528015611a37578160200160208202803883390190505b5060008e8152600c60209081526040918290206001018054835181840281018401909452808452939450919290830182828015611a9d57602002820191906000526020600020905b8154600160a060020a03168152600190910190602001808311611a7f575b50939950600093505050505b8651811015611cc15760008e8152600c602052604081208851909190899084908110611ad157fe5b90602001906020020151600160a060020a0316600160a060020a03168152602001908152602001600020600101548682815181101515611b0d57fe5b602090810290910181019190915260008f8152600c909152604081208851909190899084908110611b3a57fe5b90602001906020020151600160a060020a0316600160a060020a03168152602001908152602001600020600201548582815181101515611b7657fe5b602090810290910181019190915260008f8152600c909152604081208851909190899084908110611ba357fe5b6020908102909101810151600160a060020a03168252810191909152604001600020600301548451859083908110611bd757fe5b6020908102909101810191909152600b546000908152600c909152604081208851909190899084908110611c0757fe5b90602001906020020151600160a060020a0316600160a060020a03168152602001908152602001600020600501548382815181101515611c4357fe5b6020908102909101810191909152600b546000908152600c909152604081208851909190899084908110611c7357fe5b90602001906020020151600160a060020a0316600160a060020a03168152602001908152602001600020600401548282815181101515611caf57fe5b60209081029091010152600101611aa9565b50949c939b5091995097509550909350915050565b600354600160a060020a031681565b600080611cf0612b6b565b1515611cfb57600080fd5b600260009054906101000a9004600160a060020a0316600160a060020a03166325d8e97f6040518163ffffffff1660e060020a02815260040160206040518083038186803b158015611d4c57600080fd5b505afa158015611d60573d6000803e3d6000fd5b505050506040513d6020811015611d7657600080fd5b50511515611dce576040805160e560020a62461bcd02815260206004820152601260248201527fe4b88de59ca8e585b1e5bbbae69c9fe586850000000000000000000000000000604482015290519081900360640190fd5b600b80546000908152600c602052604080822060069081018790559254825290200154611e099060649061176490603c63ffffffff61470616565b600b80546000908152600c602052604080822060080193909355815481529190912060068101546009909101555493915050565b600b546000908152600c6020908152604080832033845290915290206006015474010000000000000000000000000000000000000000900460ff1690565b6000818152600c60205260409020600a0154610100900460ff165b919050565b6000611ea5612b6b565b1515611eb057600080fd5b601254610100900460ff1615611f10576040805160e560020a62461bcd02815260206004820152601560248201527fe98080e6acbee5b7b2e7bb8fe5ae8ce68890e4ba860000000000000000000000604482015290519081900360640190fd5b600254604080517f50b9d89d0000000000000000000000000000000000000000000000000000000081529051600092600160a060020a0316916350b9d89d916004808301926020929190829003018186803b158015611f6e57600080fd5b505afa158015611f82573d6000803e3d6000fd5b505050506040513d6020811015611f9857600080fd5b50516000818152600c60209081526040918290206001018054835181840281018401909452808452939450606093909183018282801561200157602002820191906000526020600020905b8154600160a060020a03168152600190910190602001808311611fe3575b50939450600093505050505b8151811015612330576002548251600160a060020a0390911690639b32a7789084908490811061203957fe5b90602001906020020151600c60008781526020019081526020016000206000016000868681518110151561206957fe5b90602001906020020151600160a060020a0316600160a060020a0316815260200190815260200160002060020154600260009054906101000a9004600160a060020a0316600160a060020a0316633bb66a7b87878151811015156120c957fe5b906020019060200201516040518263ffffffff1660e060020a0281526004018082600160a060020a0316600160a060020a0316815260200191505060206040518083038186803b15801561211c57600080fd5b505afa158015612130573d6000803e3d6000fd5b505050506040513d602081101561214657600080fd5b50516040805160e060020a63ffffffff8716028152600160a060020a0390941660048501529101602483015251604480830192600092919082900301818387803b15801561219357600080fd5b505af11580156121a7573d6000803e3d6000fd5b50506002548451600160a060020a039091169250634ceb1f1391508490849081106121ce57fe5b90602001906020020151600c6000878152602001908152602001600020600001600086868151811015156121fe57fe5b6020908102909101810151600160a060020a0390811683529082019290925260400160002060010154600254875191921690633aecd0e39088908890811061224257fe5b906020019060200201516040518263ffffffff1660e060020a0281526004018082600160a060020a0316600160a060020a0316815260200191505060206040518083038186803b15801561229557600080fd5b505afa1580156122a9573d6000803e3d6000fd5b505050506040513d60208110156122bf57600080fd5b50516040805160e060020a63ffffffff8716028152600160a060020a0390941660048501529101602483015251604480830192600092919082900301818387803b15801561230c57600080fd5b505af1158015612320573d6000803e3d6000fd5b50506001909201915061200d9050565b50506012805461ff00191661010090811791829055900460ff1691505090565b600b5481565b6000612360612b6b565b151561236b57600080fd5b600260009054906101000a9004600160a060020a0316600160a060020a031663743acbab6040518163ffffffff1660e060020a02815260040160206040518083038186803b1580156123bc57600080fd5b505afa1580156123d0573d6000803e3d6000fd5b505050506040513d60208110156123e657600080fd5b5051151561243e576040805160e560020a62461bcd02815260206004820152601260248201527fe585b1e68cafe8bf98e69caae7bb93e69d9f0000000000000000000000000000604482015290519081900360640190fd5b600254600f54600160a060020a03909116906395bbde889084906124709060649061176490600563ffffffff61470616565b6040805160e060020a63ffffffff861602815260248101839052600481019182528351604482015283518291606401906020868101910280838360005b838110156124c55781810151838201526020016124ad565b505050509050019350505050602060405180830381600087803b1580156124eb57600080fd5b505af11580156124ff573d6000803e3d6000fd5b505050506040513d602081101561251557600080fd5b505192915050565b6000818152600c6020908152604080832033845290915281206007015415156125aa576000828152600c60208181526040808420600781015433865281845291852060020154948790529290915260049091015461258592611764919063ffffffff61470616565b6000838152600c60209081526040808320338452909152902060070155506001611e96565b506000611e96565b600080600080600080600080600061265f42612653610708600260009054906101000a9004600160a060020a0316600160a060020a031663d74635736040518163ffffffff1660e060020a02815260040160206040518083038186803b15801561261b57600080fd5b505afa15801561262f573d6000803e3d6000fd5b505050506040513d602081101561264557600080fd5b50519063ffffffff610eb216565b9063ffffffff6146f116565b1161266d57600093506126cb565b6126c842612653610708600260009054906101000a9004600160a060020a0316600160a060020a031663d74635736040518163ffffffff1660e060020a02815260040160206040518083038186803b15801561261b57600080fd5b93505b600b546000908152600c6020526040902060048101546002909101546126f69163ffffffff6146f116565b600b546000908152600c602052604090206003810154600590910154959a9199509750939550929350505050565b61272c612b6b565b151561273757600080fd5b60008054604051600160a060020a03909116907f8be0079c531659141344cd1fd0a4f28419497f9722a3daafe3b4186f6b6457e0908390a360008054600160a060020a0319169055565b600061278b612b6b565b151561279657600080fd5b600b5460009081526011602052604090205460ff16156127ea5760405160e560020a62461bcd02815260040180806020018281038252602c81526020018061517d602c913960400191505060405180910390fd5b600260009054906101000a9004600160a060020a0316600160a060020a031663d998d6286040518163ffffffff1660e060020a02815260040160206040518083038186803b15801561283b57600080fd5b505afa15801561284f573d6000803e3d6000fd5b505050506040513d602081101561286557600080fd5b5051600154604080517fdd62ed3e0000000000000000000000000000000000000000000000000000000081523360048201523060248201529051600160a060020a039092169163dd62ed3e91604480820192602092909190829003018186803b1580156128d157600080fd5b505afa1580156128e5573d6000803e3d6000fd5b505050506040513d60208110156128fb57600080fd5b50511015612953576040805160e560020a62461bcd02815260206004820152601260248201527fe68e88e69d83e9a29de5baa6e4b88de8b6b30000000000000000000000000000604482015290519081900360640190fd5b600154600254604080517fd998d6280000000000000000000000000000000000000000000000000000000081529051600160a060020a03938416936323b872dd9333933093919092169163d998d628916004808301926020929190829003018186803b1580156129c257600080fd5b505afa1580156129d6573d6000803e3d6000fd5b505050506040513d60208110156129ec57600080fd5b50516040805160e060020a63ffffffff8716028152600160a060020a0394851660048201529290931660248301526044820152905160648083019260209291908290030181600087803b158015612a4257600080fd5b505af1158015612a56573d6000803e3d6000fd5b505050506040513d6020811015612a6c57600080fd5b50511515612ac4576040805160e560020a62461bcd02815260206004820152601a60248201527fe8bdace7a7bb746f6b656ee588b0e59088e7baa6e5a4b1e8b4a5000000000000604482015290519081900360640190fd5b50600b546000908152601160205260409020805460ff1916600190811790915590565b6060612af1612b6b565b1515612afc57600080fd5b6008805480602002602001604051908101604052809291908181526020018280548015612b5257602002820191906000526020600020905b8154600160a060020a03168152600190910190602001808311612b34575b5050505050905090565b600054600160a060020a031690565b600054600160a060020a0316331490565b600b546000908152600c6020908152604080832033808552925282206006015482919077010000000000000000000000000000000000000000000000900460ff1615612bfc5760405160e560020a62461bcd02815260040180806020018281038252602a8152602001806151a9602a913960400191505060405180910390fd5b600254604080517f9263434e0000000000000000000000000000000000000000000000000000000081523360048201529051600092600160a060020a031691639263434e916024808301926020929190829003018186803b158015612c6057600080fd5b505afa158015612c74573d6000803e3d6000fd5b505050506040513d6020811015612c8a57600080fd5b5051600254604080517ffe147c1b0000000000000000000000000000000000000000000000000000000081523360048201529051929350600160a060020a039091169163fe147c1b9160248082019260009290919082900301818387803b158015612cf457600080fd5b505af1158015612d08573d6000803e3d6000fd5b5050600b546000908152600c60209081526040808320338452909152808220600601805477ff000000000000000000000000000000000000000000000019167701000000000000000000000000000000000000000000000017905551600160a060020a038616935084156108fc0292508491818181858888f19350505050158015612d97573d6000803e3d6000fd5b503393509150509091565b600d54600160a060020a031681565b600b546000818152600c602052604090206002810154600790910154909192565b600f5481565b6000818152600c60205260408120600b015415156125aa57506000818152600c6020526040902043600b909101556001611e96565b600260009054906101000a9004600160a060020a0316600160a060020a03166325d8e97f6040518163ffffffff1660e060020a02815260040160206040518083038186803b158015612e5e57600080fd5b505afa158015612e72573d6000803e3d6000fd5b505050506040513d6020811015612e8857600080fd5b50511515612ee0576040805160e560020a62461bcd02815260206004820152601260248201527fe4b88de59ca8e585b1e5bbbae69c9fe586850000000000000000000000000000604482015290519081900360640190fd5b600260009054906101000a9004600160a060020a0316600160a060020a031663743acbab6040518163ffffffff1660e060020a02815260040160206040518083038186803b158015612f3157600080fd5b505afa158015612f45573d6000803e3d6000fd5b505050506040513d6020811015612f5b57600080fd5b505115612fa0576040805160e560020a62461bcd0281526020600482015260126024820152600080516020615131833981519152604482015290519081900360640190fd5b612fa8611e3d565b1515612ffe576040805160e560020a62461bcd02815260206004820152601660248201527fe8b083e794a8e88085e4b88de698af4275696c64657200000000000000000000604482015290519081900360640190fd5b600254604080517fd998d62800000000000000000000000000000000000000000000000000000000815290516130aa92600160a060020a03169163d998d628916004808301926020929190829003018186803b15801561305d57600080fd5b505afa158015613071573d6000803e3d6000fd5b505050506040513d602081101561308757600080fd5b5051600b546000908152600c60205260409020600201549063ffffffff6146f116565b600b546000908152600c60205260409020600401546130cf908363ffffffff610eb216565b111561310f5760405160e560020a62461bcd02815260040180806020018281038252602d815260200180614fbe602d913960400191505060405180910390fd5b600b546000908152600c60205260409020600281015460049091015461313b908363ffffffff610eb216565b111561317b5760405160e560020a62461bcd0281526004018080602001828103825260268152602001806150366026913960400191505060405180910390fd5b600b546000908152600c6020908152604080832060038101543385529252909120600101546131b0908363ffffffff610eb216565b11156131f05760405160e560020a62461bcd0281526004018080602001828103825260308152602001806151016030913960400191505060405180910390fd5b600154604080517fdd62ed3e00000000000000000000000000000000000000000000000000000000815233600482015230602482015290518392600160a060020a03169163dd62ed3e916044808301926020929190829003018186803b15801561325957600080fd5b505afa15801561326d573d6000803e3d6000fd5b505050506040513d602081101561328357600080fd5b505110156132db576040805160e560020a62461bcd02815260206004820152601260248201527fe68e88e69d83e9a29de5baa6e4b88de8b6b30000000000000000000000000000604482015290519081900360640190fd5b600154604080517f23b872dd000000000000000000000000000000000000000000000000000000008152336004820152306024820152604481018490529051600160a060020a03909216916323b872dd916064808201926020929091908290030181600087803b15801561334e57600080fd5b505af1158015613362573d6000803e3d6000fd5b505050506040513d602081101561337857600080fd5b505115156133d0576040805160e560020a62461bcd02815260206004820152601a60248201527fe8bdace7a7bb746f6b656ee588b0e59088e7baa6e5a4b1e8b4a5000000000000604482015290519081900360640190fd5b600b80546000908152600c60208181526040808420338086529083528185206001018054880190558554855283835281852060050180548801905585548552818520908552825280842060060154600160a060020a039081168552818520600490810180548901905595548552928252928390206002908101805487900390555483517f2734189a00000000000000000000000000000000000000000000000000000000815293519216936330f42bf69386938693632734189a9383810193919291829003018186803b1580156134a657600080fd5b505afa1580156134ba573d6000803e3d6000fd5b505050506040513d60208110156134d057600080fd5b50516040805160e060020a63ffffffff861602815292909103600483015251602480830192600092919082900301818387803b15801561350f57600080fd5b505af1158015613523573d6000803e3d6000fd5b5050336000908152600a60209081526040808320805487019055600b548352600c909152902060040180549093019092555050565b613560612b6b565b151561356b57600080fd5b600354604051600160a060020a0390911690303180156108fc02916000818181858888f193505050501580156135a5573d6000803e3d6000fd5b50565b60006135b2612b6b565b15156135bd57600080fd5b600354600160a060020a031615156136095760405160e560020a62461bcd028152600401808060200182810382526021815260200180614feb6021913960400191505060405180910390fd5b6136c5606461176460286136b96064611764600260009054906101000a9004600160a060020a0316600160a060020a0316639b2dc7696040518163ffffffff1660e060020a02815260040160206040518083038186803b15801561366c57600080fd5b505afa158015613680573d6000803e3d6000fd5b505050506040513d602081101561369657600080fd5b5051600b546000908152600c60205260409020600701549063ffffffff61470616565b9063ffffffff61470616565b600b80546000908152600e602052604080822093909355905481522054600f805490910190556136f483614755565b6136fd82614a30565b600254600354600b546000908152600c6020526040902060070154600160a060020a0392831692639b32a7789216906137449060649061176490603c63ffffffff61470616565b600254600354604080517f3bb66a7b000000000000000000000000000000000000000000000000000000008152600160a060020a03928316600482015290519190921691633bb66a7b916024808301926020929190829003018186803b1580156137ad57600080fd5b505afa1580156137c1573d6000803e3d6000fd5b505050506040513d60208110156137d757600080fd5b50516040805160e060020a63ffffffff8716028152600160a060020a0390941660048501529101602483015251604480830192600092919082900301818387803b15801561382457600080fd5b505af1158015613838573d6000803e3d6000fd5b50505050613844614b12565b50600092915050565b60008060008060008060006138b342612653610e10600260009054906101000a9004600160a060020a0316600160a060020a031663d74635736040518163ffffffff1660e060020a02815260040160206040518083038186803b15801561261b57600080fd5b116138c1576000925061391f565b61391c42612653610e10600260009054906101000a9004600160a060020a0316600160a060020a031663d74635736040518163ffffffff1660e060020a02815260040160206040518083038186803b15801561261b57600080fd5b92505b600b546000908152600c60205260409020600781015460069091015461394a9163ffffffff6146f116565b600b546000908152600c602052604090206007015493965094509192505050909192565b60125460ff1681565b61397f612b6b565b151561398a57600080fd5b60125460ff16156139cf5760405160e560020a62461bcd02815260040180806020018281038252602781526020018061505c6027913960400191505060405180910390fd5b60038054600160a060020a03808516600160a060020a031992831617909255600d80548484169216919091179055600254604080517fabdd11a80000000000000000000000000000000000000000000000000000000081524260048201529051919092169163abdd11a891602480830192600092919082900301818387803b158015613a5a57600080fd5b505af1158015613a6e573d6000803e3d6000fd5b5050505073__UintUtils_____________________________63669dafe86216e3606040518263ffffffff1660e060020a0281526004018082815260200191505060206040518083038186803b158015613ac757600080fd5b505af4158015613adb573d6000803e3d6000fd5b505050506040513d6020811015613af157600080fd5b5051600b80546000908152600c602052604080822060029081019490945591548152200154613b2e9060649061176490600163ffffffff61470616565b600b546000908152600c60205260408082206003019290925560025482517f1c5ce1570000000000000000000000000000000000000000000000000000000081529251600160a060020a0390911692631c5ce15792600480830193919282900301818387803b158015613ba057600080fd5b505af1158015613bb4573d6000803e3d6000fd5b5050600254600b54604080517f0d9907d9000000000000000000000000000000000000000000000000000000008152600481019290925251600160a060020a039092169350630d9907d992506024808201926020929091908290030181600087803b158015613c2257600080fd5b505af1158015613c36573d6000803e3d6000fd5b505050506040513d6020811015613c4c57600080fd5b50506012805460ff19166001179055613c64836146a8565b505050565b6000908152600c602052604090206006015490565b600080600260009054906101000a9004600160a060020a0316600160a060020a03166325d8e97f6040518163ffffffff1660e060020a02815260040160206040518083038186803b158015613cd257600080fd5b505afa158015613ce6573d6000803e3d6000fd5b505050506040513d6020811015613cfc57600080fd5b50511515613d54576040805160e560020a62461bcd02815260206004820152601260248201527fe4b88de59ca8e585b1e5bbbae69c9fe586850000000000000000000000000000604482015290519081900360640190fd5b600260009054906101000a9004600160a060020a0316600160a060020a031663743acbab6040518163ffffffff1660e060020a02815260040160206040518083038186803b158015613da557600080fd5b505afa158015613db9573d6000803e3d6000fd5b505050506040513d6020811015613dcf57600080fd5b505115613e14576040805160e560020a62461bcd0281526020600482015260126024820152600080516020615131833981519152604482015290519081900360640190fd5b600d54600160a060020a03848116911614613ec357600b546000908152600c60209081526040808320600160a060020a038716845290915290206006015474010000000000000000000000000000000000000000900460ff161515613ec3576040805160e560020a62461bcd02815260206004820152601f60248201527fe68ea8e5b9bfe88085e887aae5b7b1e5bf85e9a1bbe698af4275696c64657200604482015290519081900360640190fd5b600160a060020a0383161515613f23576040805160e560020a62461bcd02815260206004820152601b60248201527fe68ea8e5b9bfe88085e4b88de883bde698afe7a9bae59cb0e59d800000000000604482015290519081900360640190fd5b73__UintUtils_____________________________63669dafe860086040518263ffffffff1660e060020a0281526004018082815260200191505060206040518083038186803b158015613f7657600080fd5b505af4158015613f8a573d6000803e3d6000fd5b505050506040513d6020811015613fa057600080fd5b5051600154604080517fdd62ed3e0000000000000000000000000000000000000000000000000000000081523360048201523060248201529051600160a060020a039092169163dd62ed3e91604480820192602092909190829003018186803b15801561400c57600080fd5b505afa158015614020573d6000803e3d6000fd5b505050506040513d602081101561403657600080fd5b5051101561408e576040805160e560020a62461bcd02815260206004820152601260248201527fe68e88e69d83e9a29de5baa6e4b88de8b6b30000000000000000000000000000604482015290519081900360640190fd5b6001546040805160e360020a630cd3b5fd028152600860048201529051600160a060020a03909216916323b872dd913391309173__UintUtils_____________________________9163669dafe891602480820192602092909190829003018186803b1580156140fd57600080fd5b505af4158015614111573d6000803e3d6000fd5b505050506040513d602081101561412757600080fd5b50516040805160e060020a63ffffffff8716028152600160a060020a0394851660048201529290931660248301526044820152905160648083019260209291908290030181600087803b15801561417d57600080fd5b505af1158015614191573d6000803e3d6000fd5b505050506040513d60208110156141a757600080fd5b505115156141ff576040805160e560020a62461bcd02815260206004820152601a60248201527fe8bdace7a7bb746f6b656ee588b0e59088e7baa6e5a4b1e8b4a5000000000000604482015290519081900360640190fd5b6001546040805160e360020a630cd3b5fd028152600360048201529051600160a060020a039092169163a9059cbb9160009173__UintUtils_____________________________9163669dafe8916024808301926020929190829003018186803b15801561426c57600080fd5b505af4158015614280573d6000803e3d6000fd5b505050506040513d602081101561429657600080fd5b50516040805160e060020a63ffffffff8616028152600160a060020a03909316600484015260248301919091525160448083019260209291908290030181600087803b1580156142e557600080fd5b505af11580156142f9573d6000803e3d6000fd5b505050506040513d602081101561430f57600080fd5b50506001546040805160e360020a630cd3b5fd028152600560048201529051600160a060020a039092169163a9059cbb91869173__UintUtils_____________________________9163669dafe8916024808301926020929190829003018186803b15801561437d57600080fd5b505af4158015614391573d6000803e3d6000fd5b505050506040513d60208110156143a757600080fd5b50516040805160e060020a63ffffffff8616028152600160a060020a03909316600484015260248301919091525160448083019260209291908290030181600087803b1580156143f657600080fd5b505af115801561440a573d6000803e3d6000fd5b505050506040513d602081101561442057600080fd5b50506040805160e360020a630cd3b5fd02815260056004820152905173__UintUtils_____________________________9163669dafe8916024808301926020929190829003018186803b15801561447757600080fd5b505af415801561448b573d6000803e3d6000fd5b505050506040513d60208110156144a157600080fd5b5051600b546000908152600c60209081526040808320600160a060020a03881684529091529020600501805490910190556144db33614e39565b600b80546000908152600c60209081526040808320600160a060020a0380891680865291845282852060030180546001810182559086529385209093018054600160a060020a03191633179055600480549554600d5484517fe23613e900000000000000000000000000000000000000000000000000000000815292830191909152602482019290925290831660448201529051939091169263e23613e99260648084019391929182900301818387803b15801561459857600080fd5b505af11580156145ac573d6000803e3d6000fd5b503396945050505050565b60116020526000908152604090205460ff1681565b60006145d6612b6b565b15156145e157600080fd5b50600160a060020a031660009081526009602052604090205490565b600154600160a060020a031681565b600b546000908152600c60209081526040808320600160a060020a038516845282529182902060030180548351818402810184019094528084526060939283018282801561468357602002820191906000526020600020905b8154600160a060020a03168152600190910190602001808311614665575b50505050509050919050565b6000908152600c60205260409020600b01546001014090565b6146b0612b6b565b15156146bb57600080fd5b6135a581614ee2565b600b546000908152600c6020908152604080832033845290915290206006015460a860020a900460ff1690565b60008282111561470057600080fd5b50900390565b600082151561471757506000610ec7565b82820282848281151561472657fe5b0414610ec457600080fd5b600080821161473f57600080fd5b6000828481151561474c57fe5b04949350505050565b600b546000908152600c60205260409020600a015460ff16156147c2576040805160e560020a62461bcd02815260206004820152601e60248201527fe5bd93e5898de8bdaee6aca1e5b7b2e7bb8fe7bb93e7ae97e5ae8ce6af950000604482015290519081900360640190fd5b600b546000908152600c60205260409020600a0154610100900460ff1615614834576040805160e560020a62461bcd02815260206004820152601b60248201527fe5bd93e5898de8bdaee6aca1e697a9e5b7b2e7bb8fe7bb93e69d9f0000000000604482015290519081900360640190fd5b600254600b546000818152600e6020526040902054600160a060020a039092169163deb72f1f919084906148769060649061176490601463ffffffff61470616565b6040518463ffffffff1660e060020a0281526004018084815260200180602001838152602001828103825284818151815260200191508051906020019060200280838360005b838110156148d45781810151838201526020016148bc565b50505050905001945050505050600060405180830381600087803b1580156148fb57600080fd5b505af115801561490f573d6000803e3d6000fd5b5050600b546000908152600c602052604081206001015411159150614a2b905057600254600b546000818152600c60209081526040808320600e90925290912054600160a060020a03909316926384976e7492916001019061497f9060649061176490600563ffffffff61470616565b6040518463ffffffff1660e060020a028152600401808481526020018060200183815260200182810382528481815481526020019150805480156149ec57602002820191906000526020600020905b8154600160a060020a031681526001909101906020018083116149ce575b5050945050505050600060405180830381600087803b158015614a0e57600080fd5b505af1158015614a22573d6000803e3d6000fd5b505050506135a5565b6135a5565b600254600b546000818152600e6020526040902054600160a060020a039092169163fd38f45b91908490614a729060649061176490600a63ffffffff61470616565b6040518463ffffffff1660e060020a0281526004018084815260200180602001838152602001828103825284818151815260200191508051906020019060200280838360005b83811015614ad0578181015183820152602001614ab8565b50505050905001945050505050600060405180830381600087803b158015614af757600080fd5b505af1158015614b0b573d6000803e3d6000fd5b5050505050565b600254600b546000818152600c60209081526040808320600781015460089091015482517fc39fa86100000000000000000000000000000000000000000000000000000000815260048101969096526024860191909152604485015251600160a060020a039094169363c39fa86193606480820194918390030190829087803b158015614b9e57600080fd5b505af1158015614bb2573d6000803e3d6000fd5b505050506040513d6020811015614bc857600080fd5b505115614c0d576040805160e560020a62461bcd0281526020600482015260126024820152600080516020615131833981519152604482015290519081900360640190fd5b600b80546000908152600c6020526040808220600a908101805460ff1916600190811790915584548452828420909101805461ff00191661010017905583540190925560025482517fabdd11a80000000000000000000000000000000000000000000000000000000081524260048201529251600160a060020a039091169263abdd11a892602480830193919282900301818387803b158015614caf57600080fd5b505af1158015614cc3573d6000803e3d6000fd5b5050600254600b54604080517f0d9907d9000000000000000000000000000000000000000000000000000000008152600481019290925251600160a060020a039092169350630d9907d992506024808201926020929091908290030181600087803b158015614d3157600080fd5b505af1158015614d45573d6000803e3d6000fd5b505050506040513d6020811015614d5b57600080fd5b5050600254604080517f8d8276be0000000000000000000000000000000000000000000000000000000081529051600160a060020a0390921691638d8276be91600480820192602092909190829003018186803b158015614dbb57600080fd5b505afa158015614dcf573d6000803e3d6000fd5b505050506040513d6020811015614de557600080fd5b5051600b80546000908152600c602052604080822060029081019490945591548152200154614e229060649061176490600163ffffffff61470616565b600b546000908152600c6020526040902060030155565b600b80546000908152600c60208181526040808420338086529083528185208054600160a060020a0319908116831790915586548652848452828620828752845282862060069081018054600160a060020a039a909a169990921698909817905594548452918152818320938352929092522001805474ff0000000000000000000000000000000000000000191674010000000000000000000000000000000000000000179055565b600160a060020a0381161515614ef757600080fd5b60008054604051600160a060020a03808516939216917f8be0079c531659141344cd1fd0a4f28419497f9722a3daafe3b4186f6b6457e091a360008054600160a060020a031916600160a060020a0392909216919091179055565b604080516101a0810182526000808252602082018190529181018290526060808201526080810182905260a0810182905260c0810182905260e0810182905261010081018290526101208101829052610140810182905261016081018290526101808101919091529056fee8bdace8b4a6e695b0e9878fe4b88de883bde8b685e8bf87e7a4bee58cbae58fafe8bdace8b4a6e680bbe9a29de59fbae98791e4bc9ae694b6e6acbee59cb0e59d80e5b09ae69caae8aebee7bdaee794a8e688b7e6b2a1e69c89e58f82e4b88ee4b88ae4b880e8bdaee6aca1e79a84e58b9fe8b584e69c9fe5bd93e5898de8bdaee6aca1e585b1e5bbba546f6b656ee5b7b2e7bb8fe8b6b3e5a49fe4ba86e7acace4b880e8bdaee6aca1e695b0e68daee5b7b2e7bb8fe5889de5a78be58c96e8bf87e4ba86e4b88ae4b880e8bdaee6aca1e58b9fe8b584e69c9fe58b9fe99b86e588b030e4b8aa455448e794a8e688b7e59ca8e4b88ae4b880e8bdaee6aca1e6b2a1e69c89e58f82e4b88ee7bb84e5bbbae69c9f546f6b656ee68a95e5b881e5bd93e5898de8bdaee6aca1e5b7b2e58b9fe99b86e588b0e8b6b3e5a49fe79a84455448e585b1e5bbbae9a29de5baa6e5b7b2e8b685e8bf87e99990e9a29defbc8ce4b88de883bde7bba7e7bbade8bdace585a5e585b1e68cafe5b7b2e7bb8fe7bb93e69d9f0000000000000000000000000000e794a8e688b7e59ca8e4b88ae4b880e8bdaee6aca1e5b7b2e7bb8fe68f90e58f96746f6b656ee5ae8ce68890e5bd93e5898de8bdaee6aca1e59fbae98791e4bc9ae5b7b2e7bb8fe8bdace585a5e8bf87546f6b656ee4ba86e794a8e688b7e59ca8e5bd93e5898de8bdaee6aca1e5b7b2e7bb8fe68f90e58f96455448e5ae8ce68890a165627a7a72305820fd810abc41c47cb06dbc7d61213a190463b284a5c51cd68b9c2b67eb4198f7770029",
  "source": "pragma solidity >=0.4.21 <0.6.0;\n\nimport \"../node_modules/openzeppelin-solidity/contracts/math/SafeMath.sol\";\nimport \"../node_modules/openzeppelin-solidity/contracts/ownership/Ownable.sol\";\nimport \"./ABCToken.sol\";\nimport \"./UintUtils.sol\";\nimport \"./FissionReward.sol\";\nimport \"./FOMOReward.sol\";\nimport \"./LuckyReward.sol\";\nimport \"./FaithReward.sol\";\nimport \"./ResonanceDataManage.sol\";\n\n// TODO:token()\ncontract Resonance is Ownable{\n\n    using SafeMath for uint256;\n\n    // \n    // \n    event ToBeFissionPerson(address indexed fissionPerson, address indexed promoter);\n\n    event FundsInfo(uint256 currentStepTokenAmount, uint256 currentStepRaisedETH);\n    event BuildingPerioInfo(uint256 bpCountdown, uint256 remainingToken, uint256 personalTokenLimited, uint256 totalTokenAmount);\n    event FundingPeriodInfo(uint256 fpCountdown, uint256 remainingETH, uint256 rasiedETHAmount);\n\n    // \n    event FissionRewardInfo(address[] fissionRewardList, uint256[] fissionRewardAmount);\n    event FOMORewardInfo(address[] FOMORewardList, uint256[] FOMORewards);\n    event LuckyRewardInfo(address[] luckyRewardList, uint256 luckyReward);\n    event FaithRewardInfo(address[] faithRewardList, uint256[] faithRewardAmount);\n    event WithdrawAllETH(address addr, uint256 ETHAmount);\n    event WithdrawAllToken(address from, address to, uint256 tokenAmount);\n    event FunderInfo(uint256[] FunderInfoArray);\n    event StepFunders(\n        address[] funderAddress,\n        uint256[] funderTokenAmount,\n        uint256[] funderETHAmount,\n        uint256[] funderInvitees,\n        uint256[] funderEarnFromAff\n    );\n    event SettlementStep(uint256 stepIndex);\n\n    event StartNextStep(uint256 stepIndex);\n\n    event SetRaiseTarget(uint256 stepIndex, uint256 raiseTarget);\n\n    event GetResonances(address[] resonances);\n\n    event FunderTotalRaised(uint256 resonancesRasiedETH);\n\n    // \n    // ERC20\n    ABCToken public abcToken;\n\n    ResonanceDataManage resonanceDataManage;\n\n    // 60%\n    address payable public beneficiary;\n\n    // \n    struct Funder{\n        address funderAddr; // \n        uint256 tokenAmount; // token\n        uint256 ethAmount; // eth\n        address[] invitees; // \n        uint256 inviteesTotalAmount; // Token\n        uint256 earnFromAff; // \n        address promoter; // \n        bool isBuilder; // /\n        bool isFunder; // \n        bool tokenHasWithdrawn; // Token\n        bool ETHHasWithdrawn; // ETH\n        uint256 withdrawTokenAmount; // Token\n        uint256 withdrawETHAmount; //ETH\n    }\n\n    // \n    struct Building{\n        uint256 openTokenAmount; // Token\n        uint256 personalTokenLimited;// token\n        uint256 raisedToken; // token\n        uint256 raisedTokenAmount; // Token\n    }\n\n    // \n    struct Funding{\n        uint256 raiseTarget; // ETH()\n        uint256 raisedETH; // ETH\n    }\n\n    FissionReward fissionRewardInstance;\n    FOMOReward FOMORewardInstance;\n    LuckyReward luckyRewardInstance;\n    FaithReward faithRewardInstance;\n\n    // \n    struct Step{\n        mapping(address => Funder) funder;// \n        address[] funders; // funders\n        Building building; // \n        Funding funding; // \n        uint256 softCap; // \n        uint256 hardCap; // \n        bool settlementFinished; // \n        bool stepIsClosed; // \n        uint256 blockNumber; // \n    }\n\n    // \n    address[] resonances;\n\n    // \n    mapping(address => uint256) resonancesRasiedETH;\n    mapping(address => uint256) resonancesRasiedToken;\n\n    uint256 public currentStep;\n\n    mapping(uint256 => Step) steps;\n\n    address public initialFissionPerson; // \n\n    mapping(uint256 => uint256) ETHFromParty; // ETH\n\n    uint256 public totalETHFromParty; // \n\n    mapping(uint256 => uint256) tokenFromParty; //token\n\n    mapping(uint256 => bool) public tokenTransfered; // Token\n\n    bool public firstParamInitialized;\n\n    // \n    /// @notice \n    /// @param _abcToken Token\n    constructor(\n        address _resonanceDataManageAddress,\n        ABCToken _abcToken,\n        address _fassionRewardAddress,\n        address _FOMORewardAddress,\n        address _luckyRewardAddress,\n        address _faithRewardAddress\n    )\n        public\n    {\n        resonanceDataManage = ResonanceDataManage(_resonanceDataManageAddress);\n        // \n        fissionRewardInstance = FissionReward(_fassionRewardAddress);\n        FOMORewardInstance = FOMOReward(_FOMORewardAddress);\n        luckyRewardInstance = LuckyReward(_luckyRewardAddress);\n        faithRewardInstance = FaithReward(_faithRewardAddress);\n        currentStep = 0;\n        abcToken = _abcToken; // abc Token\n    }\n\n\n    /// @notice \n    /// @dev ResonanceDataManage\n    function initParamForFirstStep(\n        address _newOwner,\n        address payable _beneficiary,\n        address _initialFissionPerson\n    )\n        public\n        onlyOwner()\n    {\n        require(!firstParamInitialized, \"\");\n        // \n        beneficiary = _beneficiary;\n        // \n        initialFissionPerson = _initialFissionPerson;\n        resonanceDataManage.setOpeningTime(block.timestamp); // \n        steps[currentStep].building.openTokenAmount = UintUtils.toWei(1500000); // Token\n        steps[currentStep].building.personalTokenLimited = steps[currentStep].building.openTokenAmount.mul(1).div(100);\n        // fundsPoolinitBuildingTokenAmount\n        resonanceDataManage.setParamForFirstStep();\n        // Token\n        resonanceDataManage.updateBuildingPercent(currentStep);\n        firstParamInitialized = true;\n        // \n        transferOwnership(_newOwner);\n    }\n\n    /// @notice \n    /// @param promoter \n    /// @dev TokenApprove\n    function toBeFissionPerson(\n        address promoter\n    )\n        public\n        returns(address, address)\n    {\n        require(resonanceDataManage.isBuildingPeriod(), \"\");\n        require(!resonanceDataManage.getCrowdsaleClosed(), \"\");\n\n        if(initialFissionPerson != promoter){\n            require(steps[currentStep].funder[promoter].isBuilder,\"Builder\");\n        }\n\n        require(promoter != address(0), \"\");\n\n        // \n        require(abcToken.allowance(msg.sender, address(this)) >= UintUtils.toWei(8),\"\");\n\n        require(abcToken.transferFrom(msg.sender,address(this), UintUtils.toWei(8)),\"token\");\n\n        // 3\n        // abcToken.burn(UintUtils.toWei(3));\n        abcToken.transfer(address(0), UintUtils.toWei(3));\n\n        // 5\n        abcToken.transfer(address(promoter), UintUtils.toWei(5));\n\n        steps[currentStep].funder[promoter].earnFromAff += UintUtils.toWei(5);\n\n        // \n        _addBuilder(msg.sender);\n\n        steps[currentStep].funder[promoter].invitees.push(msg.sender);\n\n        fissionRewardInstance.addAffman(currentStep, promoter, initialFissionPerson);\n\n        // emit ToBeFissionPerson(msg.sender, promoter);\n        return(msg.sender, promoter);\n    }\n\n    /// @notice \n    /// @dev \n    function setRaiseTarget(\n        uint256 _raiseTarget\n    )\n        public\n        onlyOwner()\n        returns(uint256, uint256)\n    {\n        require(resonanceDataManage.isBuildingPeriod(), \"\");\n        steps[currentStep].funding.raiseTarget = _raiseTarget;\n        // \n        steps[currentStep].softCap = steps[currentStep].funding.raiseTarget.mul(60).div(100);\n        steps[currentStep].hardCap = steps[currentStep].funding.raiseTarget;\n\n        // emit SetRaiseTarget(currentStep, _raiseTarget);\n        return(currentStep, _raiseTarget);\n    }\n\n    /// @notice \n    function getRaiseTarget(uint256 _stepIndex) public view returns(uint256) {\n        return steps[_stepIndex].funding.raiseTarget;\n    }\n\n    // token\n    function jointlyBuild(uint256 _tokenAmount) public {\n        require(resonanceDataManage.isBuildingPeriod(), \"\");\n\n        require(!resonanceDataManage.getCrowdsaleClosed(), \"\");\n\n        // builder\n        require(isBuilder(), \"Builder\");\n\n        // \n        require(\n            steps[currentStep].building.raisedToken.add(_tokenAmount) <=\n            steps[currentStep].building.openTokenAmount.sub(resonanceDataManage.getBuildingTokenFromParty()),\n            \"\"\n        );\n\n        // \n        require(steps[currentStep].building.raisedToken.add(_tokenAmount) <= steps[currentStep].building.openTokenAmount, \"Token\");\n\n        // \n        require(\n            steps[currentStep].funder[msg.sender].tokenAmount.add(_tokenAmount) <= steps[currentStep].building.personalTokenLimited,\n            \"\"\n        );\n\n        // \n        require(abcToken.allowance(msg.sender, address(this)) >= _tokenAmount,\"\");\n\n        // \n        require(abcToken.transferFrom(msg.sender,address(this), _tokenAmount),\"token\");\n\n        steps[currentStep].funder[msg.sender].tokenAmount += _tokenAmount;\n\n        steps[currentStep].building.raisedTokenAmount += _tokenAmount;\n\n        // msg.sender\n        steps[currentStep].funder[steps[currentStep].funder[msg.sender].promoter].inviteesTotalAmount += _tokenAmount;\n\n        // TokenToken\n        steps[currentStep].building.openTokenAmount -= _tokenAmount;\n\n        // Token\n        resonanceDataManage.setFundsPool(resonanceDataManage.getFundsPool() - _tokenAmount);\n\n        // \n        resonancesRasiedToken[msg.sender] += _tokenAmount;\n\n        // token\n        steps[currentStep].building.raisedToken += _tokenAmount;\n    }\n\n    /// @notice Token\n    function transferToken() public payable onlyOwner() returns(bool){\n        require(!tokenTransfered[currentStep], \"Token\");\n        // \n        require(abcToken.allowance(msg.sender, address(this)) >= resonanceDataManage.getBuildingTokenFromParty(),\n            \"\"\n        );\n\n        // \n        require(abcToken.transferFrom(msg.sender, address(this), resonanceDataManage.getBuildingTokenFromParty()),\n            \"token\"\n        );\n\n        tokenTransfered[currentStep] = true;\n\n        return true;\n    }\n\n    /// @notice \n    function ()\n        external\n        payable\n    {\n        require(resonanceDataManage.isFundingPeriod(), \"\");\n\n        require(!resonanceDataManage.getCrowdsaleClosed(), \"\");\n\n        uint amount = msg.value;\n\n        // ETH\n        require(\n            msg.value.add(steps[currentStep].funding.raisedETH) <= steps[currentStep].funding.raiseTarget,\n            \"ETH\"\n        );\n\n        if(!steps[currentStep].funder[msg.sender].isFunder){\n            steps[currentStep].funders.push(msg.sender);\n        }\n\n        steps[currentStep].funder[msg.sender].ethAmount += amount;\n        steps[currentStep].funder[msg.sender].isFunder = true;\n        steps[currentStep].funding.raisedETH += amount;\n\n        resonances.push(msg.sender);\n        resonancesRasiedETH[msg.sender] += amount;\n    }\n\n    /// @notice \n    /// @dev \n    /// @param _fissionWinnerList \n    /// @param _LuckyWinnerList \n    function settlementStep(\n        address[] memory _fissionWinnerList,\n        address[] memory _LuckyWinnerList\n    )\n        public\n        onlyOwner()\n        returns(bool)\n    {\n        require(beneficiary != address(0), \"\");\n\n        // \n        ETHFromParty[currentStep] = steps[currentStep].funding.raisedETH.mul(\n            resonanceDataManage.getBuildingPercentOfParty()).div(100).mul(40).div(100);\n\n        totalETHFromParty += ETHFromParty[currentStep];\n        // FOMO\n        _settlementReward(_fissionWinnerList);\n        // \n        _settlementLuckyReward(_LuckyWinnerList);\n        // \n        resonanceDataManage.setETHBalance(\n            beneficiary,\n            resonanceDataManage.getETHBalance(beneficiary) + steps[currentStep].funding.raisedETH.mul(60).div(100)\n        );\n\n        // \n        _startNextStep();\n        return false;\n\n    }\n\n    /// @notice \n    /// @param _FaithWinnerList \n    function settlementFaithReward(\n        address[] memory _FaithWinnerList\n    )\n        public\n        onlyOwner()\n        returns(bool)\n    {\n        require(resonanceDataManage.getCrowdsaleClosed(), \"\");\n        return resonanceDataManage.dmSettlementFaithReward(\n            _FaithWinnerList,\n            totalETHFromParty.mul(5).div(100)\n        );\n    }\n\n    /// @notice FOMO\n    /// @dev ,\n    function _settlementReward(\n        address[] memory _fissionWinnerList\n    )\n        internal\n    {\n        require(!steps[currentStep].settlementFinished, \"\");\n        require(!steps[currentStep].stepIsClosed, \"\");\n\n        resonanceDataManage.settlementFissionReward(\n            currentStep,\n            _fissionWinnerList,\n            ETHFromParty[currentStep].mul(20).div(100)\n        );\n\n        if(steps[currentStep].funders.length > 0){\n            resonanceDataManage.settlementFOMOReward(\n                currentStep,\n                steps[currentStep].funders,\n                ETHFromParty[currentStep].mul(5).div(100)\n            );\n        }else{\n            return;\n        }\n    }\n\n    /// @notice \n    function _settlementLuckyReward(\n        address[] memory _LuckyWinnerList\n    )\n        internal\n    {\n        resonanceDataManage.settlementLuckyReward(\n            currentStep,\n            _LuckyWinnerList,\n            ETHFromParty[currentStep].mul(10).div(100)\n        );\n    }\n\n    /// \n    function _startNextStep()\n        internal\n    {\n        // \n        require(!resonanceDataManage.crowdsaleIsClosed(currentStep, steps[currentStep].funding.raisedETH, steps[currentStep].softCap), \"\");\n        // step\n        steps[currentStep].settlementFinished = true;\n        // \n        steps[currentStep].stepIsClosed = true;\n        // \n        currentStep++;\n        // \n        resonanceDataManage.setOpeningTime(block.timestamp);\n        // Token\n        resonanceDataManage.updateBuildingPercent(currentStep);\n\n        steps[currentStep].building.openTokenAmount = resonanceDataManage.getBuildingTokenAmount();\n        // \n        steps[currentStep].building.personalTokenLimited = steps[currentStep].building.openTokenAmount.mul(1).div(100);\n    }\n\n    /// @notice tokentoken\n    function withdrawAllToken()\n        public\n        payable\n        returns(address, address, uint256)\n    {\n        // \n        uint256 withdrawStep = currentStep.sub(1);\n\n        require(steps[withdrawStep].funder[msg.sender].isFunder, \"\");\n\n        require(!steps[withdrawStep].funder[msg.sender].tokenHasWithdrawn, \"token\");\n\n        require(steps[withdrawStep].funder[msg.sender].ethAmount > 0, \"Token\");\n\n        require(steps[withdrawStep].funding.raisedETH > 0, \"0ETH\");\n\n        // Token\n        //  = Token * ETH / ETH\n        uint256 withdrawAmount = steps[withdrawStep].building.raisedToken.\n            mul(steps[withdrawStep].funder[msg.sender].ethAmount).\n            div(steps[withdrawStep].funding.raisedETH);\n\n        resonanceDataManage.emptyTokenBalance(msg.sender);\n        steps[withdrawStep].funder[msg.sender].tokenHasWithdrawn = true;\n        abcToken.transfer(msg.sender, withdrawAmount);\n\n        return(address(this), msg.sender, withdrawAmount);\n    }\n\n    /// @notice (ETH)\n    function withdrawAllETH()\n        public\n        payable\n        returns(address, uint256)\n    {\n        address payable dest = address(uint160(msg.sender));\n\n        require(!steps[currentStep].funder[msg.sender].ETHHasWithdrawn, \"ETH\");\n        uint256 withdrawAmount = resonanceDataManage.withdrawETHAmount(msg.sender);\n        resonanceDataManage.emptyETHBalance(msg.sender);\n        steps[currentStep].funder[msg.sender].ETHHasWithdrawn = true;\n\n        dest.transfer(withdrawAmount);\n\n        // emit WithdrawAllETH(msg.sender, withdrawAmount);\n        return(msg.sender, withdrawAmount);\n    }\n\n    /// @notice ETH\n    /// @dev ETH\n    function withdrawAllETHByOwner()\n        public\n        payable\n        onlyOwner()\n    {\n        beneficiary.transfer(address(this).balance);\n    }\n\n    /// @notice \n    /// @dev jointlyBuildtoBeFissionPerson\n    function isBuilder() public view returns(bool) {\n        return steps[currentStep].funder[msg.sender].isBuilder;\n    }\n\n    /// @notice \n    function isFunder() public view returns(bool) {\n        return steps[currentStep].funder[msg.sender].isFunder;\n    }\n\n    /// @notice funder\n    function getInvitees(address _funder) public view returns(address[] memory) {\n        return steps[currentStep].funder[_funder].invitees;\n    }\n\n    /// @notice \n    function getResonances()\n        public\n        view\n        onlyOwner()\n        returns(address[] memory)\n    {\n        // emit GetResonances(resonances);\n        return(resonances);\n    }\n\n    /// @notice ETH\n    function getFunderTotalRaised(address _funder) public view onlyOwner() returns(uint256){\n        // emit FunderTotalRaised(resonancesRasiedETH[_funder]);\n        return resonancesRasiedETH[_funder];\n    }\n\n    /// @notice funders\n    /// @dev funders\n    /// @param _stepIndex \n    function getStepFunders(uint256 _stepIndex)\n        public\n        view\n        onlyOwner()\n        returns\n    (\n        address[] memory,\n        uint256[] memory,\n        uint256[] memory,\n        uint256[] memory,\n        uint256[] memory,\n        uint256[] memory\n    )\n    {\n        address[] memory funderAddress;\n        uint256[] memory funderTokenAmount;\n        uint256[] memory funderETHAmount;\n        uint256[] memory funderInvitees;\n        uint256[] memory earnFromAff;\n        uint256[] memory inviteesTotalAmount;\n\n        funderAddress = new address[](steps[_stepIndex].funders.length);\n        funderTokenAmount = new uint256[](funderAddress.length);\n        funderETHAmount = new uint256[](funderAddress.length);\n        funderInvitees = new uint256[](funderAddress.length);\n        earnFromAff = new uint256[](funderAddress.length);\n        inviteesTotalAmount = new uint256[](funderAddress.length);\n\n        funderAddress = steps[_stepIndex].funders;\n\n        for(uint i = 0 ; i < funderAddress.length; i++){\n            funderTokenAmount[i] = steps[_stepIndex].funder[funderAddress[i]].tokenAmount;\n            funderETHAmount[i] = steps[_stepIndex].funder[funderAddress[i]].ethAmount;\n            funderInvitees[i] = steps[_stepIndex].funder[funderAddress[i]].invitees.length;\n            earnFromAff[i] = steps[currentStep].funder[funderAddress[i]].earnFromAff;\n            inviteesTotalAmount[i] = steps[currentStep].funder[funderAddress[i]].inviteesTotalAmount;\n        }\n\n        return (funderAddress, funderTokenAmount, funderETHAmount, funderInvitees, earnFromAff, inviteesTotalAmount);\n    }\n\n    /// @notice tokenETH\n    function getCurrentStepFundsInfo()\n        public\n        view\n        returns(uint256, uint256, uint256)\n    {\n        return(currentStep, steps[currentStep].building.openTokenAmount, steps[currentStep].funding.raisedETH);\n    }\n\n    /// @notice \n    function getBuildingPerioInfo()\n        public\n        view\n        returns(uint256, uint256, uint256, uint256)\n    {\n        uint256 _bpCountdown;\n        uint256 _remainingToken;\n        uint256 _personalTokenLimited;\n        uint256 _totalTokenAmount;\n\n        // TODO:\n        // 0\n        if((resonanceDataManage.getOpeningTime().add(30 minutes)).sub(block.timestamp) <= 0){\n            _bpCountdown = 0;\n        }else{\n            _bpCountdown = (resonanceDataManage.getOpeningTime().add(30 minutes)).sub(block.timestamp);\n        }\n        _remainingToken = steps[currentStep].building.openTokenAmount.sub(steps[currentStep].building.raisedToken);\n        _personalTokenLimited = steps[currentStep].building.personalTokenLimited;\n        _totalTokenAmount = steps[currentStep].building.raisedTokenAmount;\n        // emit BuildingPerioInfo(_bpCountdown, _remainingToken, _personalTokenLimited, _totalTokenAmount);\n        return(_bpCountdown, _remainingToken, _personalTokenLimited, _totalTokenAmount);\n    }\n\n    // \n    function getFundingPeriodInfo()\n        public\n        view\n        returns(uint256, uint256, uint256)\n    {\n        uint256 _fpCountdown;\n        uint256 _remainingETH;\n        uint256 _rasiedETHAmount;\n\n        // TODO:\n        // 0\n        if((resonanceDataManage.getOpeningTime().add(1 hours)).sub(block.timestamp) <= 0){\n            _fpCountdown = 0;\n        }else{\n            _fpCountdown = (resonanceDataManage.getOpeningTime().add(1 hours)).sub(block.timestamp);\n        }\n        _remainingETH = steps[currentStep].funding.raiseTarget.sub(steps[currentStep].funding.raisedETH);\n        _rasiedETHAmount = steps[currentStep].funding.raisedETH;\n\n        return(_fpCountdown, _remainingETH, _rasiedETHAmount);\n    }\n\n    // Token()\n    function getWithdrawTokenAmount(uint256 _stepIndex) public returns(bool){\n        if(steps[_stepIndex].funder[msg.sender].withdrawTokenAmount == 0) {\n            steps[_stepIndex].funder[msg.sender].withdrawTokenAmount = steps[_stepIndex].building.raisedToken.\n                mul(steps[_stepIndex].funder[msg.sender].ethAmount).\n                div(steps[_stepIndex].funding.raisedETH);\n\n            return true;\n        }else{\n            return false;\n        }\n    }\n\n    /// @notice \n    function getFunderInfo(\n        uint256 _stepIndex\n    )\n        public\n        view\n        returns\n    (\n        uint256,\n        uint256,\n        uint256,\n        uint256,\n        uint256,\n        uint256,\n        uint256,\n        uint256,\n        uint256,\n        uint256\n    )\n\n    {\n        Funder memory funder = steps[_stepIndex].funder[msg.sender];\n\n        uint256[] memory funderInfo = new uint256[](10);\n\n        funderInfo[0] = funder.withdrawTokenAmount;\n        funderInfo[1] = resonanceDataManage.getETHBalance(msg.sender);\n        funderInfo[2] = funder.invitees.length;\n        funderInfo[3] = funder.earnFromAff;\n        funderInfo[4] = funder.tokenAmount;\n        funderInfo[5] = funder.ethAmount;\n        funderInfo[6] = luckyRewardInstance.luckyFunderTotalBalance(msg.sender);\n        funderInfo[7] = fissionRewardInstance.fissionFunderTotalBalance(msg.sender);\n        funderInfo[8] = FOMORewardInstance.FOMOFunderTotalBalance(msg.sender);\n        funderInfo[9] = faithRewardInstance.faithRewardAmount(msg.sender);\n\n        return(\n            funderInfo[0],\n            funderInfo[1],\n            funderInfo[2],\n            funderInfo[3],\n            funderInfo[4],\n            funderInfo[5],\n            funderInfo[6],\n            funderInfo[7],\n            funderInfo[8],\n            funderInfo[9]\n        );\n    }\n\n    /// @notice \n    /// @param _promoter msg.sender\n    function _addBuilder(address _promoter) internal {\n        // \n        steps[currentStep].funder[msg.sender].funderAddr = msg.sender;\n        steps[currentStep].funder[msg.sender].promoter = _promoter;\n        steps[currentStep].funder[msg.sender].isBuilder = true;\n    }\n\n    /// @notice hash\n    function getBlockHash(uint256 _stepIndex) public view returns(bytes32) {\n        return blockhash(steps[_stepIndex].blockNumber+1);\n    }\n\n    /// @notice \n    function setBlockHash(uint256 _stepIndex) public returns(bool) {\n        if(steps[_stepIndex].blockNumber == 0){\n            steps[_stepIndex].blockNumber = block.number;\n            return true;\n        }else{\n            return false;\n        }\n    }\n\n    /// @notice \n    function currentStepIsClosed(uint256 _stepIndex) public view returns(bool) {\n        return steps[_stepIndex].stepIsClosed;\n    }\n\n    bool refundIsFinished;\n\n    /// @notice \n    /// @dev tokenETH\n    function refund() public onlyOwner() returns(bool){\n\n        // \n        require(!refundIsFinished, \"\");\n\n        // \n        uint256 resonanceClosedStep = resonanceDataManage.getResonanceClosedStep();\n        address[] memory funders = steps[resonanceClosedStep].funders;\n\n        // ETHToken\n        for(uint i = 0; i < funders.length; i++){\n            resonanceDataManage.setETHBalance(\n                funders[i],\n                resonanceDataManage.getETHBalance(funders[i]) + steps[resonanceClosedStep].funder[funders[i]].ethAmount\n            );\n\n            resonanceDataManage.setTokenBalance(\n                funders[i],\n                resonanceDataManage.getTokenBalance(funders[i]) + steps[resonanceClosedStep].funder[funders[i]].tokenAmount\n            );\n        }\n\n        refundIsFinished = true;\n\n        return refundIsFinished;\n    }\n\n}",
  "sourcePath": "/home/aewalle/contract/contract/contracts/Resonance.sol",
  "compiler": {
    "name": "solc",
    "version": "0.5.2+commit.1df8f40c.Emscripten.clang"
  },
  "schemaVersion": "3.0.9",
  "updatedAt": "2019-05-31T10:39:08.455Z",
  "devdoc": {
    "methods": {
      "constructor": {
        "params": {
          "_abcToken": "Token"
        }
      },
      "getStepFunders(uint256)": {
        "details": "funders",
        "params": {
          "_stepIndex": ""
        }
      },
      "initParamForFirstStep(address,address,address)": {
        "details": "ResonanceDataManage"
      },
      "isBuilder()": {
        "details": "jointlyBuildtoBeFissionPerson"
      },
      "isOwner()": {
        "return": "true if `msg.sender` is the owner of the contract."
      },
      "owner()": {
        "return": "the address of the owner."
      },
      "refund()": {
        "details": "tokenETH"
      },
      "renounceOwnership()": {
        "details": "Allows the current owner to relinquish control of the contract. It will not be possible to call the functions with the `onlyOwner` modifier anymore."
      },
      "setRaiseTarget(uint256)": {
        "details": ""
      },
      "settlementFaithReward(address[])": {
        "params": {
          "_FaithWinnerList": ""
        }
      },
      "settlementStep(address[],address[])": {
        "details": "",
        "params": {
          "_LuckyWinnerList": "",
          "_fissionWinnerList": ""
        }
      },
      "toBeFissionPerson(address)": {
        "details": "TokenApprove",
        "params": {
          "promoter": ""
        }
      },
      "transferOwnership(address)": {
        "details": "Allows the current owner to transfer control of the contract to a newOwner.",
        "params": {
          "newOwner": "The address to transfer ownership to."
        }
      },
      "withdrawAllETHByOwner()": {
        "details": "ETH"
      }
    }
  },
  "userdoc": {
    "methods": {
      "constructor": "",
      "currentStepIsClosed(uint256)": {
        "notice": ""
      },
      "getBlockHash(uint256)": {
        "notice": "hash"
      },
      "getBuildingPerioInfo()": {
        "notice": ""
      },
      "getCurrentStepFundsInfo()": {
        "notice": "tokenETH"
      },
      "getFunderInfo(uint256)": {
        "notice": ""
      },
      "getFunderTotalRaised(address)": {
        "notice": "ETH"
      },
      "getInvitees(address)": {
        "notice": "funder"
      },
      "getRaiseTarget(uint256)": {
        "notice": ""
      },
      "getResonances()": {
        "notice": ""
      },
      "getStepFunders(uint256)": {
        "notice": "funders"
      },
      "initParamForFirstStep(address,address,address)": {
        "notice": ""
      },
      "isBuilder()": {
        "notice": ""
      },
      "isFunder()": {
        "notice": ""
      },
      "refund()": {
        "notice": ""
      },
      "renounceOwnership()": {
        "notice": "Renouncing ownership will leave the contract without an owner, thereby removing any functionality that is only available to the owner."
      },
      "setBlockHash(uint256)": {
        "notice": ""
      },
      "setRaiseTarget(uint256)": {
        "notice": ""
      },
      "settlementFaithReward(address[])": {
        "notice": ""
      },
      "settlementStep(address[],address[])": {
        "notice": ""
      },
      "toBeFissionPerson(address)": {
        "notice": ""
      },
      "transferToken()": {
        "notice": "Token"
      },
      "withdrawAllETH()": {
        "notice": "(ETH)"
      },
      "withdrawAllETHByOwner()": {
        "notice": "ETH"
      },
      "withdrawAllToken()": {
        "notice": "tokentoken"
      }
    }
  }
}