{
  "contractName": "Resonance",
  "abi": [
    {
      "constant": false,
      "inputs": [],
      "name": "renounceOwnership",
      "outputs": [],
      "payable": false,
      "stateMutability": "nonpayable",
      "type": "function"
    },
    {
      "constant": true,
      "inputs": [],
      "name": "owner",
      "outputs": [
        {
          "name": "",
          "type": "address"
        }
      ],
      "payable": false,
      "stateMutability": "view",
      "type": "function"
    },
    {
      "constant": true,
      "inputs": [],
      "name": "isOwner",
      "outputs": [
        {
          "name": "",
          "type": "bool"
        }
      ],
      "payable": false,
      "stateMutability": "view",
      "type": "function"
    },
    {
      "constant": true,
      "inputs": [],
      "name": "abcToken",
      "outputs": [
        {
          "name": "",
          "type": "address"
        }
      ],
      "payable": false,
      "stateMutability": "view",
      "type": "function"
    },
    {
      "constant": false,
      "inputs": [
        {
          "name": "newOwner",
          "type": "address"
        }
      ],
      "name": "transferOwnership",
      "outputs": [],
      "payable": false,
      "stateMutability": "nonpayable",
      "type": "function"
    },
    {
      "inputs": [
        {
          "name": "_resonanceDataManageAddress",
          "type": "address"
        },
        {
          "name": "_abcToken",
          "type": "address"
        },
        {
          "name": "_beneficiary",
          "type": "address"
        },
        {
          "name": "_initialFissionPerson",
          "type": "address"
        },
        {
          "name": "_fassionRewardAddress",
          "type": "address"
        },
        {
          "name": "_FOMORewardAddress",
          "type": "address"
        },
        {
          "name": "_luckyRewardAddress",
          "type": "address"
        },
        {
          "name": "_faithRewardAddress",
          "type": "address"
        }
      ],
      "payable": false,
      "stateMutability": "nonpayable",
      "type": "constructor"
    },
    {
      "payable": true,
      "stateMutability": "payable",
      "type": "fallback"
    },
    {
      "anonymous": false,
      "inputs": [
        {
          "indexed": true,
          "name": "fissionPerson",
          "type": "address"
        },
        {
          "indexed": true,
          "name": "promoter",
          "type": "address"
        }
      ],
      "name": "ToBeFissionPerson",
      "type": "event"
    },
    {
      "anonymous": false,
      "inputs": [
        {
          "indexed": false,
          "name": "currentStepTokenAmount",
          "type": "uint256"
        },
        {
          "indexed": false,
          "name": "currentStepRaisedETH",
          "type": "uint256"
        }
      ],
      "name": "FundsInfo",
      "type": "event"
    },
    {
      "anonymous": false,
      "inputs": [
        {
          "indexed": false,
          "name": "bpCountdown",
          "type": "uint256"
        },
        {
          "indexed": false,
          "name": "remainingToken",
          "type": "uint256"
        },
        {
          "indexed": false,
          "name": "personalTokenLimited",
          "type": "uint256"
        },
        {
          "indexed": false,
          "name": "totalTokenAmount",
          "type": "uint256"
        }
      ],
      "name": "BuildingPerioInfo",
      "type": "event"
    },
    {
      "anonymous": false,
      "inputs": [
        {
          "indexed": false,
          "name": "fpCountdown",
          "type": "uint256"
        },
        {
          "indexed": false,
          "name": "remainingETH",
          "type": "uint256"
        },
        {
          "indexed": false,
          "name": "rasiedETHAmount",
          "type": "uint256"
        }
      ],
      "name": "FundingPeriodInfo",
      "type": "event"
    },
    {
      "anonymous": false,
      "inputs": [
        {
          "indexed": false,
          "name": "fissionRewardList",
          "type": "address[]"
        },
        {
          "indexed": false,
          "name": "fissionRewardAmount",
          "type": "uint256[]"
        }
      ],
      "name": "FissionRewardInfo",
      "type": "event"
    },
    {
      "anonymous": false,
      "inputs": [
        {
          "indexed": false,
          "name": "FOMORewardList",
          "type": "address[]"
        },
        {
          "indexed": false,
          "name": "FOMORewards",
          "type": "uint256[]"
        }
      ],
      "name": "FOMORewardInfo",
      "type": "event"
    },
    {
      "anonymous": false,
      "inputs": [
        {
          "indexed": false,
          "name": "luckyRewardList",
          "type": "address[]"
        },
        {
          "indexed": false,
          "name": "luckyReward",
          "type": "uint256"
        }
      ],
      "name": "LuckyRewardInfo",
      "type": "event"
    },
    {
      "anonymous": false,
      "inputs": [
        {
          "indexed": false,
          "name": "faithRewardList",
          "type": "address[]"
        },
        {
          "indexed": false,
          "name": "faithRewardAmount",
          "type": "uint256[]"
        }
      ],
      "name": "FaithRewardInfo",
      "type": "event"
    },
    {
      "anonymous": false,
      "inputs": [
        {
          "indexed": false,
          "name": "addr",
          "type": "address"
        },
        {
          "indexed": false,
          "name": "ETHAmount",
          "type": "uint256"
        }
      ],
      "name": "WithdrawAllETH",
      "type": "event"
    },
    {
      "anonymous": false,
      "inputs": [
        {
          "indexed": false,
          "name": "FunderInfoArray",
          "type": "uint256[]"
        }
      ],
      "name": "FunderInfo",
      "type": "event"
    },
    {
      "anonymous": false,
      "inputs": [
        {
          "indexed": false,
          "name": "funderAddress",
          "type": "address[]"
        },
        {
          "indexed": false,
          "name": "funderTokenAmount",
          "type": "uint256[]"
        },
        {
          "indexed": false,
          "name": "funderETHAmount",
          "type": "uint256[]"
        },
        {
          "indexed": false,
          "name": "funderInvitees",
          "type": "uint256[]"
        },
        {
          "indexed": false,
          "name": "funderEarnFromAff",
          "type": "uint256[]"
        }
      ],
      "name": "StepFunders",
      "type": "event"
    },
    {
      "anonymous": false,
      "inputs": [
        {
          "indexed": false,
          "name": "stepIndex",
          "type": "uint256"
        }
      ],
      "name": "SettlementStep",
      "type": "event"
    },
    {
      "anonymous": false,
      "inputs": [
        {
          "indexed": false,
          "name": "stepIndex",
          "type": "uint256"
        }
      ],
      "name": "StartNextStep",
      "type": "event"
    },
    {
      "anonymous": false,
      "inputs": [
        {
          "indexed": false,
          "name": "stepIndex",
          "type": "uint256"
        },
        {
          "indexed": false,
          "name": "raiseTarget",
          "type": "uint256"
        }
      ],
      "name": "SetRaiseTarget",
      "type": "event"
    },
    {
      "anonymous": false,
      "inputs": [
        {
          "indexed": false,
          "name": "resonances",
          "type": "address[]"
        }
      ],
      "name": "GetResonances",
      "type": "event"
    },
    {
      "anonymous": false,
      "inputs": [
        {
          "indexed": false,
          "name": "resonancesRasiedETH",
          "type": "uint256"
        }
      ],
      "name": "FunderTotalRaised",
      "type": "event"
    },
    {
      "anonymous": false,
      "inputs": [
        {
          "indexed": true,
          "name": "previousOwner",
          "type": "address"
        },
        {
          "indexed": true,
          "name": "newOwner",
          "type": "address"
        }
      ],
      "name": "OwnershipTransferred",
      "type": "event"
    },
    {
      "constant": false,
      "inputs": [],
      "name": "allowAccess",
      "outputs": [],
      "payable": false,
      "stateMutability": "nonpayable",
      "type": "function"
    },
    {
      "constant": false,
      "inputs": [
        {
          "name": "promoter",
          "type": "address"
        }
      ],
      "name": "toBeFissionPerson",
      "outputs": [
        {
          "name": "",
          "type": "address"
        },
        {
          "name": "",
          "type": "address"
        }
      ],
      "payable": false,
      "stateMutability": "nonpayable",
      "type": "function"
    },
    {
      "constant": false,
      "inputs": [
        {
          "name": "_raiseTarget",
          "type": "uint256"
        }
      ],
      "name": "setRaiseTarget",
      "outputs": [
        {
          "name": "",
          "type": "uint256"
        },
        {
          "name": "",
          "type": "uint256"
        }
      ],
      "payable": false,
      "stateMutability": "nonpayable",
      "type": "function"
    },
    {
      "constant": true,
      "inputs": [
        {
          "name": "_stepIndex",
          "type": "uint256"
        }
      ],
      "name": "getRaiseTarget",
      "outputs": [
        {
          "name": "",
          "type": "uint256"
        }
      ],
      "payable": false,
      "stateMutability": "view",
      "type": "function"
    },
    {
      "constant": false,
      "inputs": [
        {
          "name": "_tokenAmount",
          "type": "uint256"
        }
      ],
      "name": "jointlyBuild",
      "outputs": [],
      "payable": false,
      "stateMutability": "nonpayable",
      "type": "function"
    },
    {
      "constant": false,
      "inputs": [
        {
          "name": "_fissionWinnerList",
          "type": "address[]"
        },
        {
          "name": "_LuckyWinnerList",
          "type": "address[]"
        }
      ],
      "name": "settlementStep",
      "outputs": [
        {
          "name": "",
          "type": "bool"
        }
      ],
      "payable": false,
      "stateMutability": "nonpayable",
      "type": "function"
    },
    {
      "constant": false,
      "inputs": [
        {
          "name": "_FaithWinnerList",
          "type": "address[]"
        }
      ],
      "name": "settlementFaithReward",
      "outputs": [
        {
          "name": "",
          "type": "bool"
        }
      ],
      "payable": false,
      "stateMutability": "nonpayable",
      "type": "function"
    },
    {
      "constant": false,
      "inputs": [],
      "name": "withdrawAllToken",
      "outputs": [
        {
          "name": "",
          "type": "address"
        },
        {
          "name": "",
          "type": "address"
        },
        {
          "name": "",
          "type": "uint256"
        }
      ],
      "payable": true,
      "stateMutability": "payable",
      "type": "function"
    },
    {
      "constant": false,
      "inputs": [],
      "name": "withdrawAllETH",
      "outputs": [
        {
          "name": "",
          "type": "address"
        },
        {
          "name": "",
          "type": "uint256"
        }
      ],
      "payable": true,
      "stateMutability": "payable",
      "type": "function"
    },
    {
      "constant": true,
      "inputs": [],
      "name": "isBuilder",
      "outputs": [
        {
          "name": "",
          "type": "bool"
        }
      ],
      "payable": false,
      "stateMutability": "view",
      "type": "function"
    },
    {
      "constant": true,
      "inputs": [],
      "name": "isFunder",
      "outputs": [
        {
          "name": "",
          "type": "bool"
        }
      ],
      "payable": false,
      "stateMutability": "view",
      "type": "function"
    },
    {
      "constant": false,
      "inputs": [],
      "name": "getResonances",
      "outputs": [
        {
          "name": "",
          "type": "address[]"
        }
      ],
      "payable": false,
      "stateMutability": "nonpayable",
      "type": "function"
    },
    {
      "constant": false,
      "inputs": [
        {
          "name": "_funder",
          "type": "address"
        }
      ],
      "name": "getFunderTotalRaised",
      "outputs": [
        {
          "name": "",
          "type": "uint256"
        }
      ],
      "payable": false,
      "stateMutability": "nonpayable",
      "type": "function"
    },
    {
      "constant": false,
      "inputs": [
        {
          "name": "_stepIndex",
          "type": "uint256"
        }
      ],
      "name": "getStepFunders",
      "outputs": [
        {
          "name": "",
          "type": "address[]"
        },
        {
          "name": "",
          "type": "uint256[]"
        },
        {
          "name": "",
          "type": "uint256[]"
        },
        {
          "name": "",
          "type": "uint256[]"
        },
        {
          "name": "",
          "type": "uint256[]"
        }
      ],
      "payable": false,
      "stateMutability": "nonpayable",
      "type": "function"
    },
    {
      "constant": false,
      "inputs": [],
      "name": "getCurrentStepFundsInfo",
      "outputs": [
        {
          "name": "",
          "type": "uint256"
        },
        {
          "name": "",
          "type": "uint256"
        }
      ],
      "payable": false,
      "stateMutability": "nonpayable",
      "type": "function"
    },
    {
      "constant": false,
      "inputs": [],
      "name": "getBuildingPerioInfo",
      "outputs": [
        {
          "name": "",
          "type": "uint256"
        },
        {
          "name": "",
          "type": "uint256"
        },
        {
          "name": "",
          "type": "uint256"
        },
        {
          "name": "",
          "type": "uint256"
        }
      ],
      "payable": false,
      "stateMutability": "nonpayable",
      "type": "function"
    },
    {
      "constant": false,
      "inputs": [],
      "name": "getFundingPeriodInfo",
      "outputs": [
        {
          "name": "",
          "type": "uint256"
        },
        {
          "name": "",
          "type": "uint256"
        },
        {
          "name": "",
          "type": "uint256"
        }
      ],
      "payable": false,
      "stateMutability": "nonpayable",
      "type": "function"
    },
    {
      "constant": false,
      "inputs": [
        {
          "name": "_stepIndex",
          "type": "uint256"
        }
      ],
      "name": "getFissionRewardInfo",
      "outputs": [],
      "payable": false,
      "stateMutability": "nonpayable",
      "type": "function"
    },
    {
      "constant": false,
      "inputs": [
        {
          "name": "_stepIndex",
          "type": "uint256"
        }
      ],
      "name": "getFOMORewardIofo",
      "outputs": [],
      "payable": false,
      "stateMutability": "nonpayable",
      "type": "function"
    },
    {
      "constant": false,
      "inputs": [
        {
          "name": "_stepIndex",
          "type": "uint256"
        }
      ],
      "name": "getLuckyRewardInfo",
      "outputs": [],
      "payable": false,
      "stateMutability": "nonpayable",
      "type": "function"
    },
    {
      "constant": false,
      "inputs": [],
      "name": "getFaithRewardInfo",
      "outputs": [],
      "payable": false,
      "stateMutability": "nonpayable",
      "type": "function"
    },
    {
      "constant": false,
      "inputs": [
        {
          "name": "_funder",
          "type": "address"
        }
      ],
      "name": "getFunderInfo",
      "outputs": [
        {
          "name": "",
          "type": "uint256"
        },
        {
          "name": "",
          "type": "uint256"
        },
        {
          "name": "",
          "type": "uint256"
        },
        {
          "name": "",
          "type": "uint256"
        },
        {
          "name": "",
          "type": "uint256"
        },
        {
          "name": "",
          "type": "uint256"
        },
        {
          "name": "",
          "type": "uint256"
        },
        {
          "name": "",
          "type": "uint256"
        },
        {
          "name": "",
          "type": "uint256"
        },
        {
          "name": "",
          "type": "uint256"
        }
      ],
      "payable": false,
      "stateMutability": "nonpayable",
      "type": "function"
    },
    {
      "constant": true,
      "inputs": [],
      "name": "Beneficiary",
      "outputs": [
        {
          "name": "",
          "type": "address"
        }
      ],
      "payable": false,
      "stateMutability": "view",
      "type": "function"
    },
    {
      "constant": true,
      "inputs": [],
      "name": "getBlockHash",
      "outputs": [
        {
          "name": "blockHash",
          "type": "bytes32"
        }
      ],
      "payable": false,
      "stateMutability": "view",
      "type": "function"
    }
  ],
  "bytecode": "0x608060405234801561001057600080fd5b506040516101008062004b51833981018060405261010081101561003357600080fd5b50805160208201516040808401516060850151608086015160a087015160c088015160e09098015160008054600160a060020a03191633178082559651989997989597949693959294939192600160a060020a0392909216917f8be0079c531659141344cd1fd0a4f28419497f9722a3daafe3b4186f6b6457e0908290a360028054600160a060020a03998a16600160a060020a03199182161790915560048054958a1695821695909517909455600580549389169385169390931790925560068054918816918416919091179055600780549187169183169190911790556000600b5560018054948616948216949094179093556003805492851692841692909217909155600d80549190931691161790556149fb80620001566000396000f3fe6080604052600436106101c65760003560e060020a900480638f32d59b116100fb578063c12cd1bc11610099578063e757412811610068578063e757412814610b82578063ee12d62214610b97578063f2fde38b14610c1a578063feaec77514610c4d576101c6565b8063c12cd1bc14610a99578063db27cf6114610acc578063de3844ff14610af6578063e15ce92714610b4f576101c6565b80639663f88f116100d55780639663f88f146108ff578063a9033bfe14610926578063b4862a711461093b578063b5ac72b514610965576101c6565b80638f32d59b146108aa57806390386bbf146108bf578063912c84ec146108ea576101c6565b80635deac38b1161016857806373d553791161014257806373d55379146107d5578063891d7e79146108065780638a18854b1461086b5780638da5cb5b14610895576101c6565b80635deac38b146106d557806364ab07fa14610785578063715018a6146107c0576101c6565b80631e7efbc9116101a45780631e7efbc9146106155780633723e1c21461063f5780634559ff9b1461066957806354b94615146106ac576101c6565b80630c2146021461043a57806314870d2c1461045157806316b2974614610483575b600260009054906101000a9004600160a060020a0316600160a060020a03166374ebae066040518163ffffffff1660e060020a02815260040160206040518083038186803b15801561021757600080fd5b505afa15801561022b573d6000803e3d6000fd5b505050506040513d602081101561024157600080fd5b50511515610299576040805160e560020a62461bcd02815260206004820152601260248201527fe4b88de59ca8e58b9fe8b584e69c9fe586850000000000000000000000000000604482015290519081900360640190fd5b600260009054906101000a9004600160a060020a0316600160a060020a031663743acbab6040518163ffffffff1660e060020a02815260040160206040518083038186803b1580156102ea57600080fd5b505afa1580156102fe573d6000803e3d6000fd5b505050506040513d602081101561031457600080fd5b505115610359576040805160e560020a62461bcd028152602060048201526012602482015260008051602061493a833981519152604482015290519081900360640190fd5b600b80546000908152600c6020818152604080842033808652908352818520346002909101819055865486528484528286208287528452828620600501805475ff000000000000000000000000000000000000000000191675010000000000000000000000000000000000000000001790559554855292825280842060070180548601905560088054600181019091557ff3f7a9fe364faab93b216da50a3214154f22a0a2b415b23a84c8169e8b636ee301805473ffffffffffffffffffffffffffffffffffffffff19168417905591835260099052902080549091019055005b34801561044657600080fd5b5061044f610c62565b005b610459610d8f565b60408051600160a060020a0394851681529290931660208301528183015290519081900360600190f35b34801561048f57600080fd5b506104ad600480360360208110156104a657600080fd5b5035611019565b60405180806020018060200180602001806020018060200186810386528b818151815260200191508051906020019060200280838360005b838110156104fd5781810151838201526020016104e5565b5050505090500186810385528a818151815260200191508051906020019060200280838360005b8381101561053c578181015183820152602001610524565b50505050905001868103845289818151815260200191508051906020019060200280838360005b8381101561057b578181015183820152602001610563565b50505050905001868103835288818151815260200191508051906020019060200280838360005b838110156105ba5781810151838201526020016105a2565b50505050905001868103825287818151815260200191508051906020019060200280838360005b838110156105f95781810151838201526020016105e1565b505050509050019a505050505050505050505060405180910390f35b34801561062157600080fd5b5061044f6004803603602081101561063857600080fd5b50356113fe565b34801561064b57600080fd5b5061044f6004803603602081101561066257600080fd5b503561153f565b34801561067557600080fd5b506106936004803603602081101561068c57600080fd5b50356115fa565b6040805192835260208301919091528051918290030190f35b3480156106b857600080fd5b506106c161172e565b604080519115158252519081900360200190f35b3480156106e157600080fd5b506106c1600480360360208110156106f857600080fd5b81019060208101813564010000000081111561071357600080fd5b82018360208201111561072557600080fd5b8035906020019184602083028401116401000000008311171561074757600080fd5b91908080602002602001604051908101604052809392919081815260200183836020028082843760009201919091525092955061176c945050505050565b34801561079157600080fd5b5061079a6119d0565b604080519485526020850193909352838301919091526060830152519081900360800190f35b3480156107cc57600080fd5b5061044f611bdf565b3480156107e157600080fd5b506107ea611c49565b60408051600160a060020a039092168252519081900360200190f35b34801561081257600080fd5b5061081b611c58565b60408051602080825283518183015283519192839290830191858101910280838360005b8381101561085757818101518382015260200161083f565b505050509050019250505060405180910390f35b34801561087757600080fd5b5061044f6004803603602081101561088e57600080fd5b5035611d4d565b3480156108a157600080fd5b506107ea611e96565b3480156108b657600080fd5b506106c1611ea5565b6108c7611eb6565b60408051600160a060020a03909316835260208301919091528051918290030190f35b3480156108f657600080fd5b50610693612106565b34801561090b57600080fd5b50610914612197565b60408051918252519081900360200190f35b34801561093257600080fd5b5061044f6121c3565b34801561094757600080fd5b5061044f6004803603602081101561095e57600080fd5b503561234f565b34801561097157600080fd5b506106c16004803603604081101561098857600080fd5b8101906020810181356401000000008111156109a357600080fd5b8201836020820111156109b557600080fd5b803590602001918460208302840111640100000000831117156109d757600080fd5b9190808060200260200160405190810160405280939291908181526020018383602002808284376000920191909152509295949360208101935035915050640100000000811115610a2757600080fd5b820183602082011115610a3957600080fd5b80359060200191846020830284011164010000000083111715610a5b57600080fd5b9190808060200260200160405190810160405280939291908181526020018383602002808284376000920191909152509295506129b8945050505050565b348015610aa557600080fd5b50610aae612d39565b60408051938452602084019290925282820152519081900360600190f35b348015610ad857600080fd5b5061091460048036036020811015610aef57600080fd5b5035612f45565b348015610b0257600080fd5b50610b2960048036036020811015610b1957600080fd5b5035600160a060020a0316612f5a565b60408051600160a060020a03938416815291909216602082015281519081900390910190f35b348015610b5b57600080fd5b5061091460048036036020811015610b7257600080fd5b5035600160a060020a03166137ee565b348015610b8e57600080fd5b506107ea61386d565b348015610ba357600080fd5b50610bca60048036036020811015610bba57600080fd5b5035600160a060020a031661387c565b604080519a8b5260208b0199909952898901979097526060890195909552608088019390935260a087019190915260c086015260e085015261010084015261012083015251908190036101400190f35b348015610c2657600080fd5b5061044f60048036036020811015610c3d57600080fd5b5035600160a060020a031661408f565b348015610c5957600080fd5b506106c16140ae565b600760009054906101000a9004600160a060020a0316600160a060020a031663c62461cc6040518163ffffffff1660e060020a028152600401600060405180830381600087803b158015610cb557600080fd5b505af1158015610cc9573d6000803e3d6000fd5b505050506040513d6000823e601f3d908101601f191682016040908152811015610cf257600080fd5b810190808051640100000000811115610d0a57600080fd5b82016020810184811115610d1d57600080fd5b8151856020820283011164010000000082111715610d3a57600080fd5b50509291906020018051640100000000811115610d5657600080fd5b82016020810184811115610d6957600080fd5b8151856020820283011164010000000082111715610d8657600080fd5b50505050505050565b600b546000908152600c6020908152604080832033845290915281206005015481908190760100000000000000000000000000000000000000000000900460ff1615610e0f5760405160e560020a62461bcd02815260040180806020018281038252602c81526020018061495a602c913960400191505060405180910390fd5b600254604080517f9d7e0c860000000000000000000000000000000000000000000000000000000081523360048201529051600092600160a060020a031691639d7e0c86916024808301926020929190829003018186803b158015610e7357600080fd5b505afa158015610e87573d6000803e3d6000fd5b505050506040513d6020811015610e9d57600080fd5b5051600254604080517f0c5d0c560000000000000000000000000000000000000000000000000000000081529051929350600160a060020a0390911691630c5d0c569160048082019260009290919082900301818387803b158015610f0157600080fd5b505af1158015610f15573d6000803e3d6000fd5b5050600b546000908152600c6020908152604080832033808552908352818420600501805476ff00000000000000000000000000000000000000000000191676010000000000000000000000000000000000000000000017905560015482517f23b872dd0000000000000000000000000000000000000000000000000000000081523060048201526024810192909252604482018890529151600160a060020a039290921695506323b872dd9450606480820194918390030190829087803b158015610fe057600080fd5b505af1158015610ff4573d6000803e3d6000fd5b505050506040513d602081101561100a57600080fd5b50309533955091935090915050565b6060806060806060611029611ea5565b151561103457600080fd5b6060806060806060600c60008c81526020019081526020016000206001018054806020026020016040519081016040528092919081815260200182805480156110a657602002820191906000526020600020905b8154600160a060020a03168152600190910190602001808311611088575b50939850600093505050505b855181101561125e5760008c8152600c6020526040812087519091908890849081106110da57fe5b90602001906020020151600160a060020a0316600160a060020a0316815260200190815260200160002060010154858281518110151561111657fe5b602090810290910181019190915260008d8152600c90915260408120875190919088908490811061114357fe5b90602001906020020151600160a060020a0316600160a060020a0316815260200190815260200160002060020154848281518110151561117f57fe5b602090810290910181019190915260008d8152600c9091526040812087519091908890849081106111ac57fe5b6020908102909101810151600160a060020a031682528101919091526040016000206003015483518490839081106111e057fe5b6020908102909101810191909152600b546000908152600c90915260408120875190919088908490811061121057fe5b90602001906020020151600160a060020a0316600160a060020a0316815260200190815260200160002060040154828281518110151561124c57fe5b602090810290910101526001016110b2565b507f3b87f7808c5ab95853c64302b46442fcc67c01ce3ca71e707da509a4100e6afc858585858560405180806020018060200180602001806020018060200186810386528b818151815260200191508051906020019060200280838360005b838110156112d55781810151838201526020016112bd565b5050505090500186810385528a818151815260200191508051906020019060200280838360005b838110156113145781810151838201526020016112fc565b50505050905001868103845289818151815260200191508051906020019060200280838360005b8381101561135357818101518382015260200161133b565b50505050905001868103835288818151815260200191508051906020019060200280838360005b8381101561139257818101518382015260200161137a565b50505050905001868103825287818151815260200191508051906020019060200280838360005b838110156113d15781810151838201526020016113b9565b505050509050019a505050505050505050505060405180910390a1939a9299509097509550909350915050565b600554604080517f2889cc07000000000000000000000000000000000000000000000000000000008152600481018490529051600160a060020a0390921691632889cc079160248082019260009290919082900301818387803b15801561146457600080fd5b505af1158015611478573d6000803e3d6000fd5b505050506040513d6000823e601f3d908101601f1916820160409081528110156114a157600080fd5b8101908080516401000000008111156114b957600080fd5b820160208101848111156114cc57600080fd5b81518560208202830111640100000000821117156114e957600080fd5b5050929190602001805164010000000081111561150557600080fd5b8201602081018481111561151857600080fd5b815185602082028301116401000000008211171561153557600080fd5b5050505050505050565b600654604080517f49327441000000000000000000000000000000000000000000000000000000008152600481018490529051600160a060020a039092169163493274419160248082019260009290919082900301818387803b1580156115a557600080fd5b505af11580156115b9573d6000803e3d6000fd5b505050506040513d6000823e601f3d908101601f1916820160409081528110156115e257600080fd5b810190808051640100000000811115610d5657600080fd5b600080611605611ea5565b151561161057600080fd5b600260009054906101000a9004600160a060020a0316600160a060020a03166325d8e97f6040518163ffffffff1660e060020a02815260040160206040518083038186803b15801561166157600080fd5b505afa158015611675573d6000803e3d6000fd5b505050506040513d602081101561168b57600080fd5b505115156116d1576040805160e560020a62461bcd0281526020600482015260126024820152600080516020614986833981519152604482015290519081900360640190fd5b600b80546000908152600c60209081526040918290206006018690559154815190815291820185905280517fa0065ef53daacd0859dd1ca5cdda1a90bd236db58dc67e1c6c9888afb8b7c9349281900390910190a15050600b5491565b600b546000908152600c6020908152604080832033845290915290206005015474010000000000000000000000000000000000000000900460ff1690565b6000611776611ea5565b151561178157600080fd5b600260009054906101000a9004600160a060020a0316600160a060020a031663743acbab6040518163ffffffff1660e060020a02815260040160206040518083038186803b1580156117d257600080fd5b505afa1580156117e6573d6000803e3d6000fd5b505050506040513d60208110156117fc57600080fd5b50511515611854576040805160e560020a62461bcd02815260206004820152601260248201527fe585b1e68cafe8bf98e69caae7bb93e69d9f0000000000000000000000000000604482015290519081900360640190fd5b600254600b546000908152600c6020526040902060070154600160a060020a03909116906395bbde8890849073__UintUtils_____________________________9063669dafe8906118c0906064906118b490600563ffffffff6140ed16565b9063ffffffff61411f16565b6040518263ffffffff1660e060020a0281526004018082815260200191505060206040518083038186803b1580156118f757600080fd5b505af415801561190b573d6000803e3d6000fd5b505050506040513d602081101561192157600080fd5b50516040805160e060020a63ffffffff861602815260248101839052600481019182528351604482015283518291606401906020868101910280838360005b83811015611978578181015183820152602001611960565b505050509050019350505050602060405180830381600087803b15801561199e57600080fd5b505af11580156119b2573d6000803e3d6000fd5b505050506040513d60208110156119c857600080fd5b505192915050565b6000806000806119de611ea5565b15156119e957600080fd5b600260009054906101000a9004600160a060020a0316600160a060020a03166325d8e97f6040518163ffffffff1660e060020a02815260040160206040518083038186803b158015611a3a57600080fd5b505afa158015611a4e573d6000803e3d6000fd5b505050506040513d6020811015611a6457600080fd5b50511515611aaa576040805160e560020a62461bcd0281526020600482015260126024820152600080516020614986833981519152604482015290519081900360640190fd5b60008060008042600260009054906101000a9004600160a060020a0316600160a060020a031663d74635736040518163ffffffff1660e060020a02815260040160206040518083038186803b158015611b0257600080fd5b505afa158015611b16573d6000803e3d6000fd5b505050506040513d6020811015611b2c57600080fd5b5051600b546000908152600c60205260409020600481015460029091015492909103617080019550611b64919063ffffffff61414316565b600b546000908152600c60209081526040918290206003810154600590910154835189815292830185905282840182905260608301819052925193965094509092507fe11de7dbf210471e3fa9c2ce8526b79b1202a34755ab39aa0ee452e2de7dd9e3919081900360800190a1929791965094509092509050565b611be7611ea5565b1515611bf257600080fd5b60008054604051600160a060020a03909116907f8be0079c531659141344cd1fd0a4f28419497f9722a3daafe3b4186f6b6457e0908390a36000805473ffffffffffffffffffffffffffffffffffffffff19169055565b600354600160a060020a031690565b6060611c62611ea5565b1515611c6d57600080fd5b7f239ea09ed3b2c5ca6c811a840e58b3dc40f4591da5f559b32893f99e968b419c600860405180806020018281038252838181548152602001915080548015611cdf57602002820191906000526020600020905b8154600160a060020a03168152600190910190602001808311611cc1575b50509250505060405180910390a16008805480602002602001604051908101604052809291908181526020018280548015611d4357602002820191906000526020600020905b8154600160a060020a03168152600190910190602001808311611d25575b5050505050905090565b60048054604080517fc79b124500000000000000000000000000000000000000000000000000000000815292830184905251600160a060020a039091169163c79b124591602480830192600092919082900301818387803b158015611db157600080fd5b505af1158015611dc5573d6000803e3d6000fd5b505050506040513d6000823e601f3d908101601f191682016040526060811015611dee57600080fd5b815160208301805191939283019291640100000000811115611e0f57600080fd5b82016020810184811115611e2257600080fd5b8151856020820283011164010000000082111715611e3f57600080fd5b50509291906020018051640100000000811115611e5b57600080fd5b82016020810184811115611e6e57600080fd5b8151856020820283011164010000000082111715611e8b57600080fd5b505050505050505050565b600054600160a060020a031690565b600054600160a060020a0316331490565b600b546000908152600c60209081526040808320338452909152812060050154819077010000000000000000000000000000000000000000000000900460ff1615611f355760405160e560020a62461bcd02815260040180806020018281038252602a8152602001806149a6602a913960400191505060405180910390fd5b600254604080517f9263434e0000000000000000000000000000000000000000000000000000000081523360048201529051600092600160a060020a031691639263434e916024808301926020929190829003018186803b158015611f9957600080fd5b505afa158015611fad573d6000803e3d6000fd5b505050506040513d6020811015611fc357600080fd5b5051600254604080517f503001200000000000000000000000000000000000000000000000000000000081529051929350600160a060020a039091169163503001209160048082019260009290919082900301818387803b15801561202757600080fd5b505af115801561203b573d6000803e3d6000fd5b5050600b546000908152600c60209081526040808320338085529252808320600501805477ff00000000000000000000000000000000000000000000001916770100000000000000000000000000000000000000000000001790555190935084156108fc0292508491818181858888f193505050501580156120c1573d6000803e3d6000fd5b50604080513381526020810183905281517f293d21fe426f090ce1ced07545832d833ba5245d1ca5dab39eedd683bcb26c71929181900390910190a133925090509091565b600080612111611ea5565b151561211c57600080fd5b600b546000908152600c6020908152604091829020600281015460079091015483519182529181019190915281517fefb17818fcd18149842dc8ec26c8d51b1f7cd86669024d8ad385c95727e301b2929181900390910190a15050600b546000908152600c6020526040902060028101546007909101549091565b600b546000908152600c60208190526040822001546121bd90600163ffffffff61415816565b40905090565b6121cb611ea5565b15156121d657600080fd5b600254604080517fc4a85bc10000000000000000000000000000000000000000000000000000000081523060048201529051600160a060020a039092169163c4a85bc19160248082019260009290919082900301818387803b15801561223b57600080fd5b505af115801561224f573d6000803e3d6000fd5b5050600254604080517fc4a85bc10000000000000000000000000000000000000000000000000000000081523360048201529051600160a060020a03909216935063c4a85bc1925060248082019260009290919082900301818387803b1580156122b857600080fd5b505af11580156122cc573d6000803e3d6000fd5b5050600254604080517fabdd11a80000000000000000000000000000000000000000000000000000000081524260048201529051600160a060020a03909216935063abdd11a8925060248082019260009290919082900301818387803b15801561233557600080fd5b505af1158015612349573d6000803e3d6000fd5b50505050565b600260009054906101000a9004600160a060020a0316600160a060020a03166325d8e97f6040518163ffffffff1660e060020a02815260040160206040518083038186803b1580156123a057600080fd5b505afa1580156123b4573d6000803e3d6000fd5b505050506040513d60208110156123ca57600080fd5b50511515612410576040805160e560020a62461bcd0281526020600482015260126024820152600080516020614986833981519152604482015290519081900360640190fd5b600260009054906101000a9004600160a060020a0316600160a060020a031663743acbab6040518163ffffffff1660e060020a02815260040160206040518083038186803b15801561246157600080fd5b505afa158015612475573d6000803e3d6000fd5b505050506040513d602081101561248b57600080fd5b5051156124d0576040805160e560020a62461bcd028152602060048201526012602482015260008051602061493a833981519152604482015290519081900360640190fd5b6124d861172e565b151561252e576040805160e560020a62461bcd02815260206004820152601660248201527fe8b083e794a8e88085e4b88de698af4275696c64657200000000000000000000604482015290519081900360640190fd5b600b546000908152600c60205260409020600281015460049091015461255a908363ffffffff61415816565b106125995760405160e560020a62461bcd0281526004018080602001828103825260268152602001806148e46026913960400191505060405180910390fd5b600b546000908152600c6020908152604080832060038101543385529252909120600101546125ce908363ffffffff61415816565b1061260d5760405160e560020a62461bcd02815260040180806020018281038252603081526020018061490a6030913960400191505060405180910390fd5b73__UintUtils_____________________________63669dafe8826040518263ffffffff1660e060020a0281526004018082815260200191505060206040518083038186803b15801561265f57600080fd5b505af4158015612673573d6000803e3d6000fd5b505050506040513d602081101561268957600080fd5b5051600154604080517fdd62ed3e0000000000000000000000000000000000000000000000000000000081523360048201523060248201529051600160a060020a039092169163dd62ed3e91604480820192602092909190829003018186803b1580156126f557600080fd5b505afa158015612709573d6000803e3d6000fd5b505050506040513d602081101561271f57600080fd5b50511015612777576040805160e560020a62461bcd02815260206004820152601260248201527fe68e88e69d83e9a29de5baa6e4b88de8b6b30000000000000000000000000000604482015290519081900360640190fd5b600160009054906101000a9004600160a060020a0316600160a060020a03166323b872dd333073__UintUtils_____________________________63669dafe8866040518263ffffffff1660e060020a0281526004018082815260200191505060206040518083038186803b1580156127ef57600080fd5b505af4158015612803573d6000803e3d6000fd5b505050506040513d602081101561281957600080fd5b50516040805160e060020a63ffffffff8716028152600160a060020a0394851660048201529290931660248301526044820152905160648083019260209291908290030181600087803b15801561286f57600080fd5b505af1158015612883573d6000803e3d6000fd5b505050506040513d602081101561289957600080fd5b505115156128f1576040805160e560020a62461bcd02815260206004820152601a60248201527fe8bdace7a7bb746f6b656ee588b0e59088e7baa6e5a4b1e8b4a5000000000000604482015290519081900360640190fd5b73__UintUtils_____________________________63669dafe8826040518263ffffffff1660e060020a0281526004018082815260200191505060206040518083038186803b15801561294357600080fd5b505af4158015612957573d6000803e3d6000fd5b505050506040513d602081101561296d57600080fd5b5051600b80546000908152600c6020818152604080842033855282528084206001018054909601909555600a8152848320805487019055925482529091522060040180549091019055565b60006129c2611ea5565b15156129cd57600080fd5b600260009054906101000a9004600160a060020a0316600160a060020a031663743acbab6040518163ffffffff1660e060020a02815260040160206040518083038186803b158015612a1e57600080fd5b505afa158015612a32573d6000803e3d6000fd5b505050506040513d6020811015612a4857600080fd5b505115612a9f576040805160e560020a62461bcd02815260206004820152601260248201527fe58b9fe8b584e5b7b2e7bb8fe7bb93e69d9f0000000000000000000000000000604482015290519081900360640190fd5b612aa9838361416a565b600254600354600b546000908152600c6020526040902060070154600160a060020a0392831692639b32a77892169073__UintUtils_____________________________9063669dafe890612b0c906064906118b490603c63ffffffff6140ed16565b6040518263ffffffff1660e060020a0281526004018082815260200191505060206040518083038186803b158015612b4357600080fd5b505af4158015612b57573d6000803e3d6000fd5b505050506040513d6020811015612b6d57600080fd5b5051600254600354604080517f3bb66a7b000000000000000000000000000000000000000000000000000000008152600160a060020a03928316600482015290519190921691633bb66a7b916024808301926020929190829003018186803b158015612bd857600080fd5b505afa158015612bec573d6000803e3d6000fd5b505050506040513d6020811015612c0257600080fd5b50516040805160e060020a63ffffffff8716028152600160a060020a0390941660048501529101602483015251604480830192600092919082900301818387803b158015612c4f57600080fd5b505af1158015612c63573d6000803e3d6000fd5b5050600b5460408051918252517f884a42ea07d12dfb8a666018fad8dc91f2752bdabafca21fc534fefc1305355f9350908190036020019150a1600260009054906101000a9004600160a060020a0316600160a060020a031663743acbab6040518163ffffffff1660e060020a02815260040160206040518083038186803b158015612cee57600080fd5b505afa158015612d02573d6000803e3d6000fd5b505050506040513d6020811015612d1857600080fd5b505115612d2757506001612d33565b612d2f6145f1565b5060005b92915050565b6000806000612d46611ea5565b1515612d5157600080fd5b600260009054906101000a9004600160a060020a0316600160a060020a03166374ebae066040518163ffffffff1660e060020a02815260040160206040518083038186803b158015612da257600080fd5b505afa158015612db6573d6000803e3d6000fd5b505050506040513d6020811015612dcc57600080fd5b50511515612e24576040805160e560020a62461bcd02815260206004820152601260248201527fe4b88de59ca8e58b9fe8b584e69c9fe586850000000000000000000000000000604482015290519081900360640190fd5b600080600042600260009054906101000a9004600160a060020a0316600160a060020a031663d74635736040518163ffffffff1660e060020a02815260040160206040518083038186803b158015612e7b57600080fd5b505afa158015612e8f573d6000803e3d6000fd5b505050506040513d6020811015612ea557600080fd5b5051600b546000908152600c602052604090206007810154600690910154929091036018019450612edc919063ffffffff61414316565b600b546000908152600c602090815260409182902060070154825187815291820184905281830181905291519294509092507fae8973493d4c3e41a9615da7dbb45a3e85e217ab826ebf232f236520f89ce5bd919081900360600190a191945092509050909192565b6000908152600c602052604090206006015490565b600080600260009054906101000a9004600160a060020a0316600160a060020a03166325d8e97f6040518163ffffffff1660e060020a02815260040160206040518083038186803b158015612fae57600080fd5b505afa158015612fc2573d6000803e3d6000fd5b505050506040513d6020811015612fd857600080fd5b5051151561301e576040805160e560020a62461bcd0281526020600482015260126024820152600080516020614986833981519152604482015290519081900360640190fd5b600260009054906101000a9004600160a060020a0316600160a060020a031663743acbab6040518163ffffffff1660e060020a02815260040160206040518083038186803b15801561306f57600080fd5b505afa158015613083573d6000803e3d6000fd5b505050506040513d602081101561309957600080fd5b5051156130de576040805160e560020a62461bcd028152602060048201526012602482015260008051602061493a833981519152604482015290519081900360640190fd5b600160a060020a038316151561313e576040805160e560020a62461bcd02815260206004820152601b60248201527fe68ea8e5b9bfe88085e4b88de883bde698afe7a9bae59cb0e59d800000000000604482015290519081900360640190fd5b73__UintUtils_____________________________63669dafe860086040518263ffffffff1660e060020a0281526004018082815260200191505060206040518083038186803b15801561319157600080fd5b505af41580156131a5573d6000803e3d6000fd5b505050506040513d60208110156131bb57600080fd5b5051600154604080517fdd62ed3e0000000000000000000000000000000000000000000000000000000081523360048201523060248201529051600160a060020a039092169163dd62ed3e91604480820192602092909190829003018186803b15801561322757600080fd5b505afa15801561323b573d6000803e3d6000fd5b505050506040513d602081101561325157600080fd5b505110156132a9576040805160e560020a62461bcd02815260206004820152601260248201527fe68e88e69d83e9a29de5baa6e4b88de8b6b30000000000000000000000000000604482015290519081900360640190fd5b6001546040805160e360020a630cd3b5fd028152600860048201529051600160a060020a03909216916323b872dd913391309173__UintUtils_____________________________9163669dafe891602480820192602092909190829003018186803b15801561331857600080fd5b505af415801561332c573d6000803e3d6000fd5b505050506040513d602081101561334257600080fd5b50516040805160e060020a63ffffffff8716028152600160a060020a0394851660048201529290931660248301526044820152905160648083019260209291908290030181600087803b15801561339857600080fd5b505af11580156133ac573d6000803e3d6000fd5b505050506040513d60208110156133c257600080fd5b5051151561341a576040805160e560020a62461bcd02815260206004820152601a60248201527fe8bdace7a7bb746f6b656ee588b0e59088e7baa6e5a4b1e8b4a5000000000000604482015290519081900360640190fd5b6001546040805160e360020a630cd3b5fd028152600360048201529051600160a060020a03909216916342966c689173__UintUtils_____________________________9163669dafe891602480820192602092909190829003018186803b15801561348557600080fd5b505af4158015613499573d6000803e3d6000fd5b505050506040513d60208110156134af57600080fd5b50516040805160e060020a63ffffffff8516028152600481019290925251602480830192600092919082900301818387803b1580156134ed57600080fd5b505af1158015613501573d6000803e3d6000fd5b50506001546040805160e360020a630cd3b5fd028152600560048201529051600160a060020a03909216935063a9059cbb9250869173__UintUtils_____________________________9163669dafe8916024808301926020929190829003018186803b15801561357157600080fd5b505af4158015613585573d6000803e3d6000fd5b505050506040513d602081101561359b57600080fd5b50516040805160e060020a63ffffffff8616028152600160a060020a03909316600484015260248301919091525160448083019260209291908290030181600087803b1580156135ea57600080fd5b505af11580156135fe573d6000803e3d6000fd5b505050506040513d602081101561361457600080fd5b50506040805160e360020a630cd3b5fd02815260056004820152905173__UintUtils_____________________________9163669dafe8916024808301926020929190829003018186803b15801561366b57600080fd5b505af415801561367f573d6000803e3d6000fd5b505050506040513d602081101561369557600080fd5b5051600b546000908152600c60209081526040808320600160a060020a03881684529091529020600401805490910190556136cf8361475d565b600b80546000908152600c60209081526040808320600160a060020a038089168086529184528285206003018054600181018255908652938520909301805473ffffffffffffffffffffffffffffffffffffffff191633179055600480549554600d5484517fe23613e900000000000000000000000000000000000000000000000000000000815292830191909152602482019290925290831660448201529051939091169263e23613e99260648084019391929182900301818387803b15801561379957600080fd5b505af11580156137ad573d6000803e3d6000fd5b5050604051600160a060020a03861692503391507f95b9b14e81807a19f0d780820ad803eba32584f0671e1410f6815a83e75d4ef790600090a35033929050565b60006137f8611ea5565b151561380357600080fd5b600160a060020a03821660009081526009602090815260409182902054825190815291517f33bd212310efc1b994689137ddaaea56136d0cb5b0491d1eb3b4cc3fce4428c19281900390910190a150600160a060020a031660009081526009602052604090205490565b600154600160a060020a031681565b600080600080600080600080600080613893611ea5565b151561389e57600080fd5b6138a6614890565b600c6000600b54815260200190815260200160002060000160008d600160a060020a0316600160a060020a0316815260200190815260200160002061014060405190810160405290816000820160009054906101000a9004600160a060020a0316600160a060020a0316600160a060020a0316815260200160018201548152602001600282015481526020016003820180548060200260200160405190810160405280929190818152602001828054801561398a57602002820191906000526020600020905b8154600160a060020a0316815260019091019060200180831161396c575b50505050508152602001600482015481526020016005820160009054906101000a9004600160a060020a0316600160a060020a0316600160a060020a031681526020016005820160149054906101000a900460ff161515151581526020016005820160159054906101000a900460ff161515151581526020016005820160169054906101000a900460ff161515151581526020016005820160179054906101000a900460ff16151515158152505090506060600260009054906101000a9004600160a060020a0316600160a060020a0316633aecd0e38e6040518263ffffffff1660e060020a0281526004018082600160a060020a0316600160a060020a0316815260200191505060206040518083038186803b158015613aaa57600080fd5b505afa158015613abe573d6000803e3d6000fd5b505050506040513d6020811015613ad457600080fd5b5051815182906000908110613ae557fe5b9060200190602002018181525050600260009054906101000a9004600160a060020a0316600160a060020a0316633bb66a7b8e6040518263ffffffff1660e060020a0281526004018082600160a060020a0316600160a060020a0316815260200191505060206040518083038186803b158015613b6157600080fd5b505afa158015613b75573d6000803e3d6000fd5b505050506040513d6020811015613b8b57600080fd5b5051815182906001908110613b9c57fe5b60209081029091010152606082015151815182906002908110613bbb57fe5b602090810290910101526080820151815182906003908110613bd957fe5b90602001906020020181815250508160200151816004815181101515613bfb57fe5b602090810290910101526040820151815182906005908110613c1957fe5b9060200190602002018181525050600660009054906101000a9004600160a060020a0316600160a060020a031663c28a1af38e6040518263ffffffff1660e060020a0281526004018082600160a060020a0316600160a060020a0316815260200191505060206040518083038186803b158015613c9557600080fd5b505afa158015613ca9573d6000803e3d6000fd5b505050506040513d6020811015613cbf57600080fd5b5051815182906006908110613cd057fe5b9060200190602002018181525050600460009054906101000a9004600160a060020a0316600160a060020a0316630df2019a8e6040518263ffffffff1660e060020a0281526004018082600160a060020a0316600160a060020a0316815260200191505060206040518083038186803b158015613d4c57600080fd5b505afa158015613d60573d6000803e3d6000fd5b505050506040513d6020811015613d7657600080fd5b5051815182906007908110613d8757fe5b9060200190602002018181525050600560009054906101000a9004600160a060020a0316600160a060020a031663c75355678e6040518263ffffffff1660e060020a0281526004018082600160a060020a0316600160a060020a0316815260200191505060206040518083038186803b158015613e0357600080fd5b505afa158015613e17573d6000803e3d6000fd5b505050506040513d6020811015613e2d57600080fd5b5051815182906008908110613e3e57fe5b9060200190602002018181525050600760009054906101000a9004600160a060020a0316600160a060020a0316634a6817878e6040518263ffffffff1660e060020a0281526004018082600160a060020a0316600160a060020a0316815260200191505060206040518083038186803b158015613eba57600080fd5b505afa158015613ece573d6000803e3d6000fd5b505050506040513d6020811015613ee457600080fd5b5051815182906009908110613ef557fe5b60209081029091018101919091526040805182815283518184015283517f04c808a514c1dafc38d056ce8d726701d153e5560559e9a2cbd4a698fc57dbc9938593839290830191858101910280838360005b83811015613f5f578181015183820152602001613f47565b505050509050019250505060405180910390a1806000815181101515613f8157fe5b90602001906020020151816001815181101515613f9a57fe5b90602001906020020151826002815181101515613fb357fe5b90602001906020020151836003815181101515613fcc57fe5b90602001906020020151846004815181101515613fe557fe5b90602001906020020151856005815181101515613ffe57fe5b9060200190602002015186600681518110151561401757fe5b9060200190602002015187600781518110151561403057fe5b9060200190602002015188600881518110151561404957fe5b9060200190602002015189600981518110151561406257fe5b906020019060200201519b509b509b509b509b509b509b509b509b509b5050509193959799509193959799565b614097611ea5565b15156140a257600080fd5b6140ab81614813565b50565b600b546000908152600c602090815260408083203384529091529020600501547501000000000000000000000000000000000000000000900460ff1690565b60008215156140fe57506000612d33565b82820282848281151561410d57fe5b041461411857600080fd5b9392505050565b600080821161412d57600080fd5b6000828481151561413a57fe5b04949350505050565b60008282111561415257600080fd5b50900390565b60008282018381101561411857600080fd5b614172611ea5565b151561417d57600080fd5b600b80546000908152600c60205260409020015460ff16156141e9576040805160e560020a62461bcd02815260206004820152601e60248201527fe5bd93e5898de8bdaee6aca1e5b7b2e7bb8fe7bb93e7ae97e5ae8ce6af950000604482015290519081900360640190fd5b600b80546000908152600c602052604090200154610100900460ff161561425a576040805160e560020a62461bcd02815260206004820152601b60248201527fe5bd93e5898de8bdaee6aca1e697a9e5b7b2e7bb8fe7bb93e69d9f0000000000604482015290519081900360640190fd5b600254600b546000908152600c6020526040902060070154600160a060020a03909116906311228a2790849061429e906064906118b490601463ffffffff6140ed16565b6040805160e060020a63ffffffff861602815260248101839052600481019182528351604482015283518291606401906020868101910280838360005b838110156142f35781810151838201526020016142db565b505050509050019350505050600060405180830381600087803b15801561431957600080fd5b505af115801561432d573d6000803e3d6000fd5b5050600254600b546000908152600c602052604090206007810154600160a060020a0390921693506310398aa892506001019073__UintUtils_____________________________9063669dafe890614394906064906118b490600a63ffffffff6140ed16565b6040518263ffffffff1660e060020a0281526004018082815260200191505060206040518083038186803b1580156143cb57600080fd5b505af41580156143df573d6000803e3d6000fd5b505050506040513d60208110156143f557600080fd5b50516040805160e060020a63ffffffff861602815260248101839052600481019182528354604482018190528291606401908590801561445e57602002820191906000526020600020905b8154600160a060020a03168152600190910190602001808311614440575b50509350505050600060405180830381600087803b15801561447f57600080fd5b505af1158015614493573d6000803e3d6000fd5b5050600254600b546000908152600c6020526040902060070154600160a060020a0390911692506338eeea0c9150839073__UintUtils_____________________________9063669dafe8906144f7906064906118b490600563ffffffff6140ed16565b6040518263ffffffff1660e060020a0281526004018082815260200191505060206040518083038186803b15801561452e57600080fd5b505af4158015614542573d6000803e3d6000fd5b505050506040513d602081101561455857600080fd5b50516040805160e060020a63ffffffff861602815260248101839052600481019182528351604482015283518291606401906020868101910280838360005b838110156145af578181015183820152602001614597565b505050509050019350505050600060405180830381600087803b1580156145d557600080fd5b505af11580156145e9573d6000803e3d6000fd5b505050505050565b600254600b546000908152600c60209081526040808320600781015460089091015482517f98e24c06000000000000000000000000000000000000000000000000000000008152600481019290925260248201529051600160a060020a03909416936398e24c0693604480840194938390030190829087803b15801561467657600080fd5b505af115801561468a573d6000803e3d6000fd5b505050506040513d60208110156146a057600080fd5b5051156146e5576040805160e560020a62461bcd028152602060048201526012602482015260008051602061493a833981519152604482015290519081900360640190fd5b600b80546000908152600c602090815260408083208401805460ff1916600190811790915584548452928190208401805461ff001916610100179055835490920192839055815192835290517feb4f8ce27ee2f036ff2d0bc02908be44cba9da8349185d0b9f996732fb77f07e9281900390910190a1565b600b80546000908152600c6020818152604080842033808652908352818520805473ffffffffffffffffffffffffffffffffffffffff19908116831790915586548652848452828620828752845282862060059081018054600160a060020a039a909a169990921698909817905594548452918152818320938352929092522001805474ff0000000000000000000000000000000000000000191674010000000000000000000000000000000000000000179055565b600160a060020a038116151561482857600080fd5b60008054604051600160a060020a03808516939216917f8be0079c531659141344cd1fd0a4f28419497f9722a3daafe3b4186f6b6457e091a36000805473ffffffffffffffffffffffffffffffffffffffff1916600160a060020a0392909216919091179055565b60408051610140810182526000808252602082018190529181018290526060808201526080810182905260a0810182905260c0810182905260e0810182905261010081018290526101208101919091529056fee5bd93e5898de8bdaee6aca1e585b1e5bbba546f6b656ee5b7b2e7bb8fe8b6b3e5a49fe4ba86e585b1e5bbbae9a29de5baa6e5b7b2e8b685e8bf87e99990e9a29defbc8ce4b88de883bde7bba7e7bbade8bdace585a5e585b1e68cafe5b7b2e7bb8fe7bb93e69d9f0000000000000000000000000000e794a8e688b7e59ca8e5bd93e5898de8bdaee6aca1e5b7b2e7bb8fe68f90e58f96746f6b656ee5ae8ce68890e4b88de59ca8e585b1e5bbbae69c9fe586850000000000000000000000000000e794a8e688b7e59ca8e5bd93e5898de8bdaee6aca1e5b7b2e7bb8fe68f90e58f96455448e5ae8ce68890a165627a7a7230582067c6d7bff4acef2a0a361cb0736f82890c706c2f3da2345998c2f1f8a1f14f0d0029",
  "source": "pragma solidity >=0.4.21 <0.6.0;\n\nimport \"../node_modules/openzeppelin-solidity/contracts/math/SafeMath.sol\";\nimport \"../node_modules/openzeppelin-solidity/contracts/ownership/Ownable.sol\";\nimport \"./ABCToken.sol\";\nimport \"./UintUtils.sol\";\nimport \"./FissionReward.sol\";\nimport \"./FOMOReward.sol\";\nimport \"./LuckyReward.sol\";\nimport \"./FaithReward.sol\";\nimport \"./ResonanceDataManage.sol\";\n\n// TODO:token()\ncontract Resonance is Ownable{\n\n    using SafeMath for uint256;\n\n    // \n    // \n    event ToBeFissionPerson(address indexed fissionPerson, address indexed promoter);\n\n    event FundsInfo(uint256 currentStepTokenAmount, uint256 currentStepRaisedETH);\n    event BuildingPerioInfo(uint256 bpCountdown, uint256 remainingToken, uint256 personalTokenLimited, uint256 totalTokenAmount);\n    event FundingPeriodInfo(uint256 fpCountdown, uint256 remainingETH, uint256 rasiedETHAmount);\n\n    // \n    event FissionRewardInfo(address[] fissionRewardList, uint256[] fissionRewardAmount);\n    event FOMORewardInfo(address[] FOMORewardList, uint256[] FOMORewards);\n    event LuckyRewardInfo(address[] luckyRewardList, uint256 luckyReward);\n    event FaithRewardInfo(address[] faithRewardList, uint256[] faithRewardAmount);\n    event WithdrawAllETH(address addr, uint256 ETHAmount);\n    // event WhihdrawAllToken(address from, address to, uint256 tokenAmount);\n    event FunderInfo(uint256[] FunderInfoArray);\n    event StepFunders(\n        address[] funderAddress,\n        uint256[] funderTokenAmount,\n        uint256[] funderETHAmount,\n        uint256[] funderInvitees,\n        uint256[] funderEarnFromAff\n    );\n    event SettlementStep(uint256 stepIndex);\n\n    event StartNextStep(uint256 stepIndex);\n\n    event SetRaiseTarget(uint256 stepIndex, uint256 raiseTarget);\n\n    event GetResonances(address[] resonances);\n\n    event FunderTotalRaised(uint256 resonancesRasiedETH);\n\n    // \n    modifier softCapReached(){\n        require(steps[currentStep].funding.raisedETH >= steps[currentStep].softCap, \"\");\n        _;\n    }\n\n    // \n    modifier hardCapReached(){\n        require(steps[currentStep].funding.raisedETH < steps[currentStep].hardCap, \"\");\n        _;\n    }\n\n    // \n    // modifier isBuildingPeriod() {\n    //     require(block.timestamp >= openingTime && block.timestamp < openingTime + 8 hours, \"\");\n    //     _;\n    // }\n\n    // // \n    // modifier isFundingPeriod() {\n    //     require(block.timestamp >= openingTime + 8 hours && block.timestamp < openingTime + 24 hours, \"\");\n    //     _;\n    // }\n\n    // \n    // ERC20\n    ABCToken public abcToken;\n\n    ResonanceDataManage resonanceDataManage;\n\n    // // \n    // uint256 private fundsPool;\n\n    // 60%\n    address payable private beneficiary;\n\n    // // \n    // uint256 private openingTime;\n\n    // bool crowdsaleClosed = false;   //  \n\n    // \n    struct Funder{\n        address funderAddr; // \n        uint256 tokenAmount; // token\n        uint256 ethAmount; // eth\n        address[] invitees; // \n        uint256 earnFromAff; // \n        address promoter; // \n        bool isBuilder; // /\n        bool isFunder; // \n        bool tokenHasWithdrawn; // Token\n        bool ETHHasWithdrawn; // ETH\n    }\n\n    // \n    struct Building{\n        uint256 openTokenAmount; // Token\n        uint256 personalTokenLimited;// token\n        uint256 raisedToken; // token\n        uint256 raisedTokenAmount; // Token\n    }\n\n    // \n    struct Funding{\n        uint256 raiseTarget; // ETH\n        uint256 raisedETH; // ETH\n    }\n\n    FissionReward fissionRewardInstance;\n    FOMOReward FOMORewardInstance;\n    LuckyReward luckyRewardInstance;\n    FaithReward faithRewardInstance;\n\n    // // \n    struct Step{\n        mapping(address => Funder) funder;// \n        address[] funders; // funders\n        Building building; // \n        Funding funding; // \n        uint256 softCap; // \n        uint256 hardCap; // \n        uint256 rate; // \n        bool settlementFinished; // \n        bool stepIsClosed; // \n        uint256 blockNumber; // \n    }\n\n    // \n    // mapping(address => uint256) public ETHBalance;\n    // mapping(address => uint256) public tokenBalance;\n\n    // \n    address[] resonances;\n    // \n    mapping(address => uint256) resonancesRasiedETH;\n    mapping(address => uint256) resonancesRasiedToken;\n\n    uint256 currentStep;\n\n    mapping(uint256 => Step) steps;\n\n    address initialFissionPerson; // \n\n    // \n    /// @notice \n    /// @param _abcToken Token\n    /// @param _beneficiary \n    /// @param _initialFissionPerson \n    constructor(\n        address _resonanceDataManageAddress,\n        ABCToken _abcToken,\n        address payable _beneficiary,\n        address _initialFissionPerson,\n        address _fassionRewardAddress,\n        address _FOMORewardAddress,\n        address _luckyRewardAddress,\n        address _faithRewardAddress\n    )\n        public\n    {\n        resonanceDataManage = ResonanceDataManage(_resonanceDataManageAddress);\n        // \n        fissionRewardInstance = FissionReward(_fassionRewardAddress);\n        FOMORewardInstance = FOMOReward(_FOMORewardAddress);\n        luckyRewardInstance = LuckyReward(_luckyRewardAddress);\n        faithRewardInstance = FaithReward(_faithRewardAddress);\n        currentStep = 0;\n        abcToken = _abcToken; // abc Token\n        beneficiary = _beneficiary; // \n        initialFissionPerson = _initialFissionPerson; // \n    }\n\n    /// @notice \n    function allowAccess() public onlyOwner() {\n        resonanceDataManage.allowAccess(address(this));\n        resonanceDataManage.allowAccess(msg.sender);\n        resonanceDataManage.setOpeningTime(block.timestamp); // \n    }\n\n    /// @notice \n    /// @param promoter \n    /// @dev TokenApprove\n    function toBeFissionPerson(\n        address promoter\n    )\n        public\n        // isBuildingPeriod()\n        returns(address, address)\n    {\n        require(resonanceDataManage.isBuildingPeriod(), \"\");\n        require(!resonanceDataManage.getCrowdsaleClosed(), \"\");\n\n        //TODO: require(steps[currentStep].funder[promoter].isBuilder,\"Builder\");\n\n        require(promoter != address(0), \"\");\n\n        // \n        require(abcToken.allowance(msg.sender, address(this)) >= UintUtils.toWei(8),\"\");\n\n        require(abcToken.transferFrom(msg.sender,address(this), UintUtils.toWei(8)),\"token\");\n\n        // 3\n        abcToken.burn(UintUtils.toWei(3));\n\n        // 5\n        abcToken.transfer(address(promoter), UintUtils.toWei(5));\n\n        steps[currentStep].funder[promoter].earnFromAff += UintUtils.toWei(5);\n\n        // \n        _addBuilder(promoter);\n\n        steps[currentStep].funder[promoter].invitees.push(msg.sender);\n\n        fissionRewardInstance.addAffman(currentStep, promoter, initialFissionPerson);\n\n        emit ToBeFissionPerson(msg.sender, promoter);\n        return(msg.sender, promoter);\n    }\n\n    /// @notice \n    /// @dev \n    function setRaiseTarget(\n        uint256 _raiseTarget\n    )\n        public\n        // isBuildingPeriod()\n        onlyOwner()\n        returns(uint256, uint256)\n    {\n        require(resonanceDataManage.isBuildingPeriod(), \"\");\n        steps[currentStep].funding.raiseTarget = _raiseTarget;\n        emit SetRaiseTarget(currentStep, _raiseTarget);\n        return(currentStep, _raiseTarget);\n    }\n\n    /// @notice \n    function getRaiseTarget(uint256 _stepIndex) public view returns(uint256) {\n        return steps[_stepIndex].funding.raiseTarget;\n    }\n\n    // token\n    function jointlyBuild(\n        uint256 _tokenAmount\n    )\n        public\n        // isBuildingPeriod()\n    {\n        require(resonanceDataManage.isBuildingPeriod(), \"\");\n\n        require(!resonanceDataManage.getCrowdsaleClosed(), \"\");\n\n        // builder\n        require(isBuilder(), \"Builder\");\n\n        // \n        require(steps[currentStep].building.raisedToken.add(_tokenAmount) < steps[currentStep].building.openTokenAmount, \"Token\");\n\n        // \n        require(\n            steps[currentStep].funder[msg.sender].tokenAmount.add(_tokenAmount) < steps[currentStep].building.personalTokenLimited,\n            \"\"\n        );\n\n        // \n        require(abcToken.allowance(msg.sender, address(this)) >= UintUtils.toWei(_tokenAmount),\"\");\n\n        // \n        require(abcToken.transferFrom(msg.sender,address(this), UintUtils.toWei(_tokenAmount)),\"token\");\n\n        steps[currentStep].funder[msg.sender].tokenAmount += UintUtils.toWei(_tokenAmount);\n\n        // \n        resonancesRasiedToken[msg.sender] += _tokenAmount;\n\n        // token\n        steps[currentStep].building.raisedToken += _tokenAmount;\n    }\n\n    // \n    // \n    function ()\n        external\n        payable\n    {\n        require(resonanceDataManage.isFundingPeriod(), \"\");\n\n        require(!resonanceDataManage.getCrowdsaleClosed(), \"\");\n        uint amount = msg.value;\n        steps[currentStep].funder[msg.sender].ethAmount = amount;\n        steps[currentStep].funder[msg.sender].isFunder = true;\n        steps[currentStep].funding.raisedETH += amount;\n        resonances.push(msg.sender);\n        resonancesRasiedETH[msg.sender] += amount;\n    }\n\n    /// @notice \n    /// @dev \n    /// @param _fissionWinnerList \n    /// @param _LuckyWinnerList \n    function settlementStep(\n        address[] memory _fissionWinnerList,\n        address[] memory _LuckyWinnerList\n    )\n        public\n        onlyOwner()\n        returns(bool)\n    {\n        // \n        require(!resonanceDataManage.getCrowdsaleClosed(), \"\");\n        // \n        _settlementReward(_fissionWinnerList, _LuckyWinnerList);\n        // \n        // ETHBalance[beneficiary] += UintUtils.toWei(steps[currentStep].funding.raisedETH.mul(60).div(100));\n        resonanceDataManage.setETHBalance(\n            beneficiary,\n            resonanceDataManage.getETHBalance(beneficiary) + UintUtils.toWei(steps[currentStep].funding.raisedETH.mul(60).div(100))\n        );\n        emit SettlementStep(currentStep);\n\n        if(resonanceDataManage.getCrowdsaleClosed()) {\n            return true;\n        }else{\n            // \n            _startNextStep();\n            return false;\n        }\n    }\n\n    /// @notice \n    /// @param _FaithWinnerList \n    function settlementFaithReward(\n        address[] memory _FaithWinnerList\n    )\n        public\n        onlyOwner()\n        returns(bool)\n    {\n        require(resonanceDataManage.getCrowdsaleClosed(), \"\");\n        return resonanceDataManage.dmSettlementFaithReward(\n            _FaithWinnerList,\n            UintUtils.toWei(steps[currentStep].funding.raisedETH.mul(5).div(100))\n        );\n    }\n\n    // \n    // \n    // 1.  2.\n    /// @dev \n    // function _crowdsaleIsClosed()\n    //     internal\n    //     returns(bool)\n    // {\n    //     // 1.\n    //     if(UintUtils.toWei(steps[currentStep].funding.raisedETH) < UintUtils.toWei(steps[currentStep].softCap)) {\n    //         resonanceDataManage.setCrowdsaleClosed(true);\n\n    //         // Token\n    //         _withdrawRemainingToken();\n    //     }\n\n    //     // TODO:\n    //     // 2.\n    //     if(resonanceDataManage.getFundsPool() == 0) {\n    //         crowdsaleClosed = true;\n    //     }\n\n    //     return crowdsaleClosed;\n    // }\n\n    /// @notice Token\n    // function _withdrawRemainingToken()\n    //     internal\n    //     onlyOwner()\n    //     returns(bool)\n    // {\n    //     // \n    //     require(crowdsaleClosed(), \"Token\");\n    //     abcToken.transfer(owner(), UintUtils.toWei(resonanceDataManage.getFundsPool()));\n    // }\n\n    /// @notice FOMO\n    /// @dev \n    // \n    // \n    function _settlementReward(\n        address[] memory _fissionWinnerList,\n        address[] memory _LuckyWinnerList\n    )\n        internal\n        onlyOwner()\n    {\n        require(!steps[currentStep].settlementFinished, \"\");\n        require(!steps[currentStep].stepIsClosed, \"\");\n\n        resonanceDataManage.settlementFissionReward(\n            _fissionWinnerList,\n            steps[currentStep].funding.raisedETH.mul(20).div(100)\n        );\n\n        resonanceDataManage.settlementFOMOReward(\n            steps[currentStep].funders,\n            UintUtils.toWei(steps[currentStep].funding.raisedETH.mul(10).div(100))\n        );\n\n        resonanceDataManage.settlementLuckyReward(\n            _LuckyWinnerList,\n            UintUtils.toWei(steps[currentStep].funding.raisedETH.mul(5).div(100))\n        );\n    }\n\n    // TODO: \n\n    /// \n    function _startNextStep()\n        internal\n    {\n        // \n        require(!resonanceDataManage.crowdsaleIsClosed(steps[currentStep].funding.raisedETH, steps[currentStep].softCap), \"\");\n        // step\n        steps[currentStep].settlementFinished = true;\n        // \n        steps[currentStep].stepIsClosed = true;\n        // \n        currentStep++;\n        emit StartNextStep(currentStep);\n    }\n\n    /// @notice tokentoken\n    function withdrawAllToken()\n        public\n        payable\n        returns(address, address, uint256)\n    {\n        require(!steps[currentStep].funder[msg.sender].tokenHasWithdrawn, \"token\");\n        uint256 withdrawAmount = resonanceDataManage.withdrawTokenAmount(msg.sender);\n        resonanceDataManage.emptyTokenBalance();\n        steps[currentStep].funder[msg.sender].tokenHasWithdrawn = true;\n        abcToken.transferFrom(address(this), msg.sender, withdrawAmount);\n        return(address(this), msg.sender, withdrawAmount);\n    }\n\n    /// @notice (ETH)\n    function withdrawAllETH()\n        public\n        payable\n        returns(address, uint256)\n    {\n        require(!steps[currentStep].funder[msg.sender].ETHHasWithdrawn, \"ETH\");\n        uint256 withdrawAmount = resonanceDataManage.withdrawETHAmount(msg.sender);\n        resonanceDataManage.emptyETHBalance();\n        steps[currentStep].funder[msg.sender].ETHHasWithdrawn = true;\n        msg.sender.transfer(withdrawAmount);\n        emit WithdrawAllETH(msg.sender, withdrawAmount);\n        return(msg.sender, withdrawAmount);\n    }\n\n    /// @notice \n    /// @dev jointlyBuildtoBeFissionPerson\n    function isBuilder() public view returns(bool) {\n        return steps[currentStep].funder[msg.sender].isBuilder;\n    }\n\n    /// @notice \n    function isFunder() public view returns(bool) {\n        return steps[currentStep].funder[msg.sender].isFunder;\n    }\n\n    /// @notice \n    function getResonances()\n        public\n        onlyOwner()\n        returns(address[] memory)\n    {\n        emit GetResonances(resonances);\n        return(resonances);\n    }\n\n    /// @notice ETH\n    function getFunderTotalRaised(address _funder) public onlyOwner() returns(uint256){\n        emit FunderTotalRaised(resonancesRasiedETH[_funder]);\n        return resonancesRasiedETH[_funder];\n    }\n\n    /// @notice funders\n    /// @dev funders\n    /// @param _stepIndex \n    function getStepFunders(uint256 _stepIndex)\n        public\n        onlyOwner()\n        returns\n    (\n            address[] memory,\n            uint256[] memory,\n            uint256[] memory,\n            uint256[] memory,\n            uint256[] memory\n    )\n    {\n        address[] memory funderAddress;\n        uint256[] memory funderTokenAmount;\n        uint256[] memory funderETHAmount;\n        uint256[] memory funderInvitees;\n        uint256[] memory earnFromAff;\n\n        funderAddress = steps[_stepIndex].funders;\n\n        for(uint i = 0 ; i < funderAddress.length; i++){\n            funderTokenAmount[i] = steps[_stepIndex].funder[funderAddress[i]].tokenAmount;\n            funderETHAmount[i] = steps[_stepIndex].funder[funderAddress[i]].ethAmount;\n            funderInvitees[i] = steps[_stepIndex].funder[funderAddress[i]].invitees.length;\n            earnFromAff[i] = steps[currentStep].funder[funderAddress[i]].earnFromAff;\n        }\n\n        emit StepFunders(funderAddress, funderTokenAmount, funderETHAmount, funderInvitees, earnFromAff);\n        return (funderAddress, funderTokenAmount, funderETHAmount, funderInvitees, earnFromAff);\n    }\n\n    /// @notice tokenETH\n    function getCurrentStepFundsInfo()\n        public\n        onlyOwner()\n        returns(uint256, uint256)\n    {\n        emit FundsInfo(steps[currentStep].building.openTokenAmount, steps[currentStep].funding.raisedETH);\n        return(steps[currentStep].building.openTokenAmount, steps[currentStep].funding.raisedETH);\n    }\n\n    /// @notice \n    function getBuildingPerioInfo()\n        public\n        onlyOwner()\n        // isBuildingPeriod()\n        returns(uint256, uint256, uint256, uint256)\n    {\n        require(resonanceDataManage.isBuildingPeriod(), \"\");\n        uint256 _bpCountdown;\n        uint256 _remainingToken;\n        uint256 _personalTokenLimited;\n        uint256 _totalTokenAmount;\n\n        _bpCountdown = (resonanceDataManage.getOpeningTime() + 8 hours) - block.timestamp;\n        _remainingToken = steps[currentStep].building.openTokenAmount.sub(steps[currentStep].building.raisedToken);\n        _personalTokenLimited = steps[currentStep].building.personalTokenLimited;\n        _totalTokenAmount = steps[currentStep].building.raisedTokenAmount;\n        emit BuildingPerioInfo(_bpCountdown, _remainingToken, _personalTokenLimited, _totalTokenAmount);\n        return(_bpCountdown, _remainingToken, _personalTokenLimited, _totalTokenAmount);\n    }\n\n    // \n    function getFundingPeriodInfo()\n        public\n        onlyOwner()\n        returns(uint256, uint256, uint256)\n    {\n        require(resonanceDataManage.isFundingPeriod(), \"\");\n\n        uint256 _fpCountdown;\n        uint256 _remainingETH;\n        uint256 _rasiedETHAmount;\n\n        _fpCountdown = (resonanceDataManage.getOpeningTime() + 24) - block.timestamp;\n        _remainingETH = steps[currentStep].funding.raiseTarget.sub(steps[currentStep].funding.raisedETH);\n        _rasiedETHAmount = steps[currentStep].funding.raisedETH;\n        emit FundingPeriodInfo(_fpCountdown, _remainingETH, _rasiedETHAmount);\n        return(_fpCountdown, _remainingETH, _rasiedETHAmount);\n    }\n\n    /// @notice \n    /// @dev \n    /// @param _stepIndex \n    function getFissionRewardInfo(uint256 _stepIndex)\n        public\n    {\n        fissionRewardInstance.getFissionInfo(_stepIndex);\n    }\n\n    /// @notice FOMO\n    /// @dev FOMO\n    /// @param _stepIndex \n    function getFOMORewardIofo(uint256 _stepIndex)\n        public\n    {\n        FOMORewardInstance.getFOMOWinnerInfo(_stepIndex);\n    }\n\n    /// @notice \n    /// @dev \n    /// @param _stepIndex \n    function getLuckyRewardInfo(uint256 _stepIndex)\n        public\n    {\n        luckyRewardInstance.getLuckyInfo(_stepIndex);\n    }\n\n    /// @notice \n    /// @dev \n    function getFaithRewardInfo()\n        public\n    {\n        faithRewardInstance.getFaithWinnerInfo();\n    }\n\n    /// @notice \n    function getFunderInfo(address _funder)\n        public\n        onlyOwner()\n        returns\n    (\n        uint256,\n        uint256,\n        uint256,\n        uint256,\n        uint256,\n        uint256,\n        uint256,\n        uint256,\n        uint256,\n        uint256\n    )\n\n    {\n        Funder memory funder = steps[currentStep].funder[_funder];\n\n        uint256[] memory funderInfo;\n\n        funderInfo[0] = resonanceDataManage.getTokenBalance(_funder);\n        funderInfo[1] = resonanceDataManage.getETHBalance(_funder);\n        funderInfo[2] = funder.invitees.length;\n        funderInfo[3] = funder.earnFromAff;\n        funderInfo[4] = funder.tokenAmount;\n        funderInfo[5] = funder.ethAmount;\n        funderInfo[6] = luckyRewardInstance.luckyFunderTotalBalance(_funder);\n        funderInfo[7] = fissionRewardInstance.fissionFunderTotalBalance(_funder);\n        funderInfo[8] = FOMORewardInstance.FOMOFunderTotalBalance(_funder);\n        funderInfo[9] = faithRewardInstance.faithRewardAmount(_funder);\n\n        emit FunderInfo(funderInfo);\n        return(\n            funderInfo[0],\n            funderInfo[1],\n            funderInfo[2],\n            funderInfo[3],\n            funderInfo[4],\n            funderInfo[5],\n            funderInfo[6],\n            funderInfo[7],\n            funderInfo[8],\n            funderInfo[9]\n        );\n    }\n\n    /// @notice \n    /// @param _promoter msg.sender\n    function _addBuilder(address _promoter) internal {\n        // \n        steps[currentStep].funder[msg.sender].funderAddr = msg.sender;\n        steps[currentStep].funder[msg.sender].promoter = _promoter;\n        steps[currentStep].funder[msg.sender].isBuilder = true;\n    }\n\n    // /// @notice token\n    // /// @dev Token\n    // /// @param _approveAmount \n    // function approveTokenToContract(uint256 _approveAmount)\n    //     public\n    //     onlyOwner()\n    // {\n    //     abcToken.approve(address(this), UintUtils.toWei(_approveAmount));\n    // }\n\n    // /// @notice \n\n    // /// @notice \n    // /// @dev Token\n    // function getAllowance()\n    //     public\n    //     view\n    //     returns(uint256)\n    // {\n    //     return abcToken.allowance(msg.sender, address(this));\n    // }\n\n    /// @notice \n    function Beneficiary() public view returns(address payable) {\n        return beneficiary;\n    }\n\n    /// @notice hash\n    function getBlockHash() public view returns(bytes32 blockHash) {\n        return blockhash(steps[currentStep].blockNumber.add(1));\n    }\n\n}",
  "sourcePath": "/Users/a186r/dev/contracts/contract/contract/contracts/Resonance.sol",
  "compiler": {
    "name": "solc",
    "version": "0.5.2+commit.1df8f40c.Emscripten.clang"
  },
  "schemaVersion": "3.0.9",
  "updatedAt": "2019-05-26T16:12:42.789Z",
  "devdoc": {
    "methods": {
      "constructor": {
        "params": {
          "_abcToken": "Token",
          "_beneficiary": "",
          "_initialFissionPerson": ""
        }
      },
      "getFOMORewardIofo(uint256)": {
        "details": "FOMO",
        "params": {
          "_stepIndex": ""
        }
      },
      "getFaithRewardInfo()": {
        "details": ""
      },
      "getFissionRewardInfo(uint256)": {
        "details": "",
        "params": {
          "_stepIndex": ""
        }
      },
      "getLuckyRewardInfo(uint256)": {
        "details": "",
        "params": {
          "_stepIndex": ""
        }
      },
      "getStepFunders(uint256)": {
        "details": "funders",
        "params": {
          "_stepIndex": ""
        }
      },
      "isBuilder()": {
        "details": "jointlyBuildtoBeFissionPerson"
      },
      "isOwner()": {
        "return": "true if `msg.sender` is the owner of the contract."
      },
      "owner()": {
        "return": "the address of the owner."
      },
      "renounceOwnership()": {
        "details": "Allows the current owner to relinquish control of the contract. It will not be possible to call the functions with the `onlyOwner` modifier anymore."
      },
      "setRaiseTarget(uint256)": {
        "details": ""
      },
      "settlementFaithReward(address[])": {
        "params": {
          "_FaithWinnerList": ""
        }
      },
      "settlementStep(address[],address[])": {
        "details": "",
        "params": {
          "_LuckyWinnerList": "",
          "_fissionWinnerList": ""
        }
      },
      "toBeFissionPerson(address)": {
        "details": "TokenApprove",
        "params": {
          "promoter": ""
        }
      },
      "transferOwnership(address)": {
        "details": "Allows the current owner to transfer control of the contract to a newOwner.",
        "params": {
          "newOwner": "The address to transfer ownership to."
        }
      }
    }
  },
  "userdoc": {
    "methods": {
      "Beneficiary()": {
        "notice": ""
      },
      "allowAccess()": {
        "notice": ""
      },
      "constructor": "",
      "getBlockHash()": {
        "notice": "hash"
      },
      "getBuildingPerioInfo()": {
        "notice": ""
      },
      "getCurrentStepFundsInfo()": {
        "notice": "tokenETH"
      },
      "getFOMORewardIofo(uint256)": {
        "notice": "FOMO"
      },
      "getFaithRewardInfo()": {
        "notice": ""
      },
      "getFissionRewardInfo(uint256)": {
        "notice": ""
      },
      "getFunderInfo(address)": {
        "notice": ""
      },
      "getFunderTotalRaised(address)": {
        "notice": "ETH"
      },
      "getLuckyRewardInfo(uint256)": {
        "notice": ""
      },
      "getRaiseTarget(uint256)": {
        "notice": ""
      },
      "getResonances()": {
        "notice": ""
      },
      "getStepFunders(uint256)": {
        "notice": "funders"
      },
      "isBuilder()": {
        "notice": ""
      },
      "isFunder()": {
        "notice": ""
      },
      "renounceOwnership()": {
        "notice": "Renouncing ownership will leave the contract without an owner, thereby removing any functionality that is only available to the owner."
      },
      "setRaiseTarget(uint256)": {
        "notice": ""
      },
      "settlementFaithReward(address[])": {
        "notice": ""
      },
      "settlementStep(address[],address[])": {
        "notice": ""
      },
      "toBeFissionPerson(address)": {
        "notice": ""
      },
      "withdrawAllETH()": {
        "notice": "(ETH)"
      },
      "withdrawAllToken()": {
        "notice": "tokentoken"
      }
    }
  }
}