{
  "contractName": "Resonance",
  "abi": [
    {
      "constant": true,
      "inputs": [],
      "name": "beneficiary",
      "outputs": [
        {
          "name": "",
          "type": "address"
        }
      ],
      "payable": false,
      "stateMutability": "view",
      "type": "function"
    },
    {
      "constant": true,
      "inputs": [],
      "name": "faithRewardTotalAmount",
      "outputs": [
        {
          "name": "",
          "type": "uint256"
        }
      ],
      "payable": false,
      "stateMutability": "view",
      "type": "function"
    },
    {
      "constant": true,
      "inputs": [],
      "name": "currentStep",
      "outputs": [
        {
          "name": "",
          "type": "uint256"
        }
      ],
      "payable": false,
      "stateMutability": "view",
      "type": "function"
    },
    {
      "constant": false,
      "inputs": [],
      "name": "renounceOwnership",
      "outputs": [],
      "payable": false,
      "stateMutability": "nonpayable",
      "type": "function"
    },
    {
      "constant": true,
      "inputs": [],
      "name": "owner",
      "outputs": [
        {
          "name": "",
          "type": "address"
        }
      ],
      "payable": false,
      "stateMutability": "view",
      "type": "function"
    },
    {
      "constant": true,
      "inputs": [],
      "name": "isOwner",
      "outputs": [
        {
          "name": "",
          "type": "bool"
        }
      ],
      "payable": false,
      "stateMutability": "view",
      "type": "function"
    },
    {
      "constant": true,
      "inputs": [],
      "name": "initialFissionPerson",
      "outputs": [
        {
          "name": "",
          "type": "address"
        }
      ],
      "payable": false,
      "stateMutability": "view",
      "type": "function"
    },
    {
      "constant": true,
      "inputs": [],
      "name": "totalETHFromParty",
      "outputs": [
        {
          "name": "",
          "type": "uint256"
        }
      ],
      "payable": false,
      "stateMutability": "view",
      "type": "function"
    },
    {
      "constant": true,
      "inputs": [
        {
          "name": "",
          "type": "address"
        }
      ],
      "name": "isBuilder",
      "outputs": [
        {
          "name": "",
          "type": "bool"
        }
      ],
      "payable": false,
      "stateMutability": "view",
      "type": "function"
    },
    {
      "constant": true,
      "inputs": [],
      "name": "firstParamInitialized",
      "outputs": [
        {
          "name": "",
          "type": "bool"
        }
      ],
      "payable": false,
      "stateMutability": "view",
      "type": "function"
    },
    {
      "constant": true,
      "inputs": [
        {
          "name": "",
          "type": "uint256"
        }
      ],
      "name": "tokenTransfered",
      "outputs": [
        {
          "name": "",
          "type": "bool"
        }
      ],
      "payable": false,
      "stateMutability": "view",
      "type": "function"
    },
    {
      "constant": true,
      "inputs": [],
      "name": "abcToken",
      "outputs": [
        {
          "name": "",
          "type": "address"
        }
      ],
      "payable": false,
      "stateMutability": "view",
      "type": "function"
    },
    {
      "constant": false,
      "inputs": [
        {
          "name": "newOwner",
          "type": "address"
        }
      ],
      "name": "transferOwnership",
      "outputs": [],
      "payable": false,
      "stateMutability": "nonpayable",
      "type": "function"
    },
    {
      "inputs": [
        {
          "name": "_resonanceDataManageAddress",
          "type": "address"
        },
        {
          "name": "_abcToken",
          "type": "address"
        },
        {
          "name": "_fassionRewardAddress",
          "type": "address"
        },
        {
          "name": "_FOMORewardAddress",
          "type": "address"
        },
        {
          "name": "_luckyRewardAddress",
          "type": "address"
        },
        {
          "name": "_faithRewardAddress",
          "type": "address"
        }
      ],
      "payable": false,
      "stateMutability": "nonpayable",
      "type": "constructor"
    },
    {
      "payable": true,
      "stateMutability": "payable",
      "type": "fallback"
    },
    {
      "anonymous": false,
      "inputs": [
        {
          "indexed": true,
          "name": "fissionPerson",
          "type": "address"
        },
        {
          "indexed": true,
          "name": "promoter",
          "type": "address"
        }
      ],
      "name": "ToBeFissionPerson",
      "type": "event"
    },
    {
      "anonymous": false,
      "inputs": [
        {
          "indexed": false,
          "name": "currentStepTokenAmount",
          "type": "uint256"
        },
        {
          "indexed": false,
          "name": "currentStepRaisedETH",
          "type": "uint256"
        }
      ],
      "name": "FundsInfo",
      "type": "event"
    },
    {
      "anonymous": false,
      "inputs": [
        {
          "indexed": false,
          "name": "bpCountdown",
          "type": "uint256"
        },
        {
          "indexed": false,
          "name": "remainingToken",
          "type": "uint256"
        },
        {
          "indexed": false,
          "name": "personalTokenLimited",
          "type": "uint256"
        },
        {
          "indexed": false,
          "name": "totalTokenAmount",
          "type": "uint256"
        }
      ],
      "name": "BuildingPerioInfo",
      "type": "event"
    },
    {
      "anonymous": false,
      "inputs": [
        {
          "indexed": false,
          "name": "fpCountdown",
          "type": "uint256"
        },
        {
          "indexed": false,
          "name": "remainingETH",
          "type": "uint256"
        },
        {
          "indexed": false,
          "name": "rasiedETHAmount",
          "type": "uint256"
        }
      ],
      "name": "FundingPeriodInfo",
      "type": "event"
    },
    {
      "anonymous": false,
      "inputs": [
        {
          "indexed": false,
          "name": "fissionRewardList",
          "type": "address[]"
        },
        {
          "indexed": false,
          "name": "fissionRewardAmount",
          "type": "uint256[]"
        }
      ],
      "name": "FissionRewardInfo",
      "type": "event"
    },
    {
      "anonymous": false,
      "inputs": [
        {
          "indexed": false,
          "name": "FOMORewardList",
          "type": "address[]"
        },
        {
          "indexed": false,
          "name": "FOMORewards",
          "type": "uint256[]"
        }
      ],
      "name": "FOMORewardInfo",
      "type": "event"
    },
    {
      "anonymous": false,
      "inputs": [
        {
          "indexed": false,
          "name": "luckyRewardList",
          "type": "address[]"
        },
        {
          "indexed": false,
          "name": "luckyReward",
          "type": "uint256"
        }
      ],
      "name": "LuckyRewardInfo",
      "type": "event"
    },
    {
      "anonymous": false,
      "inputs": [
        {
          "indexed": false,
          "name": "faithRewardList",
          "type": "address[]"
        },
        {
          "indexed": false,
          "name": "faithRewardAmount",
          "type": "uint256[]"
        }
      ],
      "name": "FaithRewardInfo",
      "type": "event"
    },
    {
      "anonymous": false,
      "inputs": [
        {
          "indexed": false,
          "name": "addr",
          "type": "address"
        },
        {
          "indexed": false,
          "name": "ETHAmount",
          "type": "uint256"
        }
      ],
      "name": "WithdrawAllETH",
      "type": "event"
    },
    {
      "anonymous": false,
      "inputs": [
        {
          "indexed": false,
          "name": "from",
          "type": "address"
        },
        {
          "indexed": false,
          "name": "to",
          "type": "address"
        },
        {
          "indexed": false,
          "name": "tokenAmount",
          "type": "uint256"
        }
      ],
      "name": "WithdrawAllToken",
      "type": "event"
    },
    {
      "anonymous": false,
      "inputs": [
        {
          "indexed": false,
          "name": "FunderInfoArray",
          "type": "uint256[]"
        }
      ],
      "name": "FunderInfo",
      "type": "event"
    },
    {
      "anonymous": false,
      "inputs": [
        {
          "indexed": false,
          "name": "funderAddress",
          "type": "address[]"
        },
        {
          "indexed": false,
          "name": "funderTokenAmount",
          "type": "uint256[]"
        },
        {
          "indexed": false,
          "name": "funderETHAmount",
          "type": "uint256[]"
        },
        {
          "indexed": false,
          "name": "funderInvitees",
          "type": "uint256[]"
        },
        {
          "indexed": false,
          "name": "funderEarnFromAff",
          "type": "uint256[]"
        }
      ],
      "name": "StepFunders",
      "type": "event"
    },
    {
      "anonymous": false,
      "inputs": [
        {
          "indexed": false,
          "name": "stepIndex",
          "type": "uint256"
        }
      ],
      "name": "SettlementStep",
      "type": "event"
    },
    {
      "anonymous": false,
      "inputs": [
        {
          "indexed": false,
          "name": "stepIndex",
          "type": "uint256"
        }
      ],
      "name": "StartNextStep",
      "type": "event"
    },
    {
      "anonymous": false,
      "inputs": [
        {
          "indexed": false,
          "name": "stepIndex",
          "type": "uint256"
        },
        {
          "indexed": false,
          "name": "raiseTarget",
          "type": "uint256"
        }
      ],
      "name": "SetRaiseTarget",
      "type": "event"
    },
    {
      "anonymous": false,
      "inputs": [
        {
          "indexed": false,
          "name": "resonances",
          "type": "address[]"
        }
      ],
      "name": "GetResonances",
      "type": "event"
    },
    {
      "anonymous": false,
      "inputs": [
        {
          "indexed": false,
          "name": "resonancesRasiedETH",
          "type": "uint256"
        }
      ],
      "name": "FunderTotalRaised",
      "type": "event"
    },
    {
      "anonymous": false,
      "inputs": [
        {
          "indexed": false,
          "name": "raisedETHAmount",
          "type": "uint256"
        },
        {
          "indexed": false,
          "name": "nowRaisedEther",
          "type": "uint256"
        }
      ],
      "name": "currentStepRaisedEther",
      "type": "event"
    },
    {
      "anonymous": false,
      "inputs": [
        {
          "indexed": false,
          "name": "raisedTokenAmount",
          "type": "uint256"
        },
        {
          "indexed": false,
          "name": "nowRemainingToken",
          "type": "uint256"
        }
      ],
      "name": "currentStepRaisedToken",
      "type": "event"
    },
    {
      "anonymous": false,
      "inputs": [
        {
          "indexed": true,
          "name": "previousOwner",
          "type": "address"
        },
        {
          "indexed": true,
          "name": "newOwner",
          "type": "address"
        }
      ],
      "name": "OwnershipTransferred",
      "type": "event"
    },
    {
      "constant": false,
      "inputs": [
        {
          "name": "_newOwner",
          "type": "address"
        },
        {
          "name": "_beneficiary",
          "type": "address"
        },
        {
          "name": "_initialFissionPerson",
          "type": "address"
        }
      ],
      "name": "initParamForFirstStep",
      "outputs": [],
      "payable": false,
      "stateMutability": "nonpayable",
      "type": "function"
    },
    {
      "constant": false,
      "inputs": [
        {
          "name": "promoter",
          "type": "address"
        }
      ],
      "name": "toBeFissionPerson",
      "outputs": [
        {
          "name": "",
          "type": "address"
        },
        {
          "name": "",
          "type": "address"
        }
      ],
      "payable": false,
      "stateMutability": "nonpayable",
      "type": "function"
    },
    {
      "constant": false,
      "inputs": [
        {
          "name": "_raiseTarget",
          "type": "uint256"
        }
      ],
      "name": "setRaiseTarget",
      "outputs": [
        {
          "name": "",
          "type": "uint256"
        },
        {
          "name": "",
          "type": "uint256"
        }
      ],
      "payable": false,
      "stateMutability": "nonpayable",
      "type": "function"
    },
    {
      "constant": true,
      "inputs": [
        {
          "name": "_stepIndex",
          "type": "uint256"
        }
      ],
      "name": "getRaiseTarget",
      "outputs": [
        {
          "name": "",
          "type": "uint256"
        }
      ],
      "payable": false,
      "stateMutability": "view",
      "type": "function"
    },
    {
      "constant": false,
      "inputs": [
        {
          "name": "_tokenAmount",
          "type": "uint256"
        }
      ],
      "name": "jointlyBuild",
      "outputs": [],
      "payable": false,
      "stateMutability": "nonpayable",
      "type": "function"
    },
    {
      "constant": false,
      "inputs": [],
      "name": "transferToken",
      "outputs": [
        {
          "name": "",
          "type": "bool"
        }
      ],
      "payable": true,
      "stateMutability": "payable",
      "type": "function"
    },
    {
      "constant": false,
      "inputs": [
        {
          "name": "_fissionWinnerList",
          "type": "address[]"
        },
        {
          "name": "_LuckyWinnerList",
          "type": "address[]"
        }
      ],
      "name": "settlementStep",
      "outputs": [
        {
          "name": "",
          "type": "bool"
        }
      ],
      "payable": false,
      "stateMutability": "nonpayable",
      "type": "function"
    },
    {
      "constant": false,
      "inputs": [
        {
          "name": "_FaithWinnerList",
          "type": "address[]"
        }
      ],
      "name": "settlementFaithReward",
      "outputs": [
        {
          "name": "",
          "type": "bool"
        }
      ],
      "payable": false,
      "stateMutability": "nonpayable",
      "type": "function"
    },
    {
      "constant": false,
      "inputs": [],
      "name": "withdrawAllToken",
      "outputs": [
        {
          "name": "",
          "type": "address"
        },
        {
          "name": "",
          "type": "address"
        },
        {
          "name": "",
          "type": "uint256"
        }
      ],
      "payable": true,
      "stateMutability": "payable",
      "type": "function"
    },
    {
      "constant": false,
      "inputs": [],
      "name": "withdrawAllETH",
      "outputs": [
        {
          "name": "",
          "type": "address"
        },
        {
          "name": "",
          "type": "uint256"
        }
      ],
      "payable": true,
      "stateMutability": "payable",
      "type": "function"
    },
    {
      "constant": false,
      "inputs": [],
      "name": "withdrawAllETHByOwner",
      "outputs": [],
      "payable": true,
      "stateMutability": "payable",
      "type": "function"
    },
    {
      "constant": true,
      "inputs": [],
      "name": "isFunder",
      "outputs": [
        {
          "name": "",
          "type": "bool"
        }
      ],
      "payable": false,
      "stateMutability": "view",
      "type": "function"
    },
    {
      "constant": true,
      "inputs": [
        {
          "name": "_stepIndex",
          "type": "uint256"
        }
      ],
      "name": "isFunderByStep",
      "outputs": [
        {
          "name": "",
          "type": "bool"
        }
      ],
      "payable": false,
      "stateMutability": "view",
      "type": "function"
    },
    {
      "constant": true,
      "inputs": [
        {
          "name": "_funder",
          "type": "address"
        }
      ],
      "name": "getInvitees",
      "outputs": [
        {
          "name": "",
          "type": "address[]"
        }
      ],
      "payable": false,
      "stateMutability": "view",
      "type": "function"
    },
    {
      "constant": true,
      "inputs": [],
      "name": "getResonances",
      "outputs": [
        {
          "name": "",
          "type": "address[]"
        }
      ],
      "payable": false,
      "stateMutability": "view",
      "type": "function"
    },
    {
      "constant": true,
      "inputs": [
        {
          "name": "_funder",
          "type": "address"
        }
      ],
      "name": "getFunderTotalRaised",
      "outputs": [
        {
          "name": "",
          "type": "uint256"
        }
      ],
      "payable": false,
      "stateMutability": "view",
      "type": "function"
    },
    {
      "constant": true,
      "inputs": [
        {
          "name": "_stepIndex",
          "type": "uint256"
        }
      ],
      "name": "getStepFunders",
      "outputs": [
        {
          "name": "",
          "type": "address[]"
        },
        {
          "name": "",
          "type": "uint256[]"
        },
        {
          "name": "",
          "type": "uint256[]"
        },
        {
          "name": "",
          "type": "uint256[]"
        },
        {
          "name": "",
          "type": "uint256[]"
        },
        {
          "name": "",
          "type": "uint256[]"
        }
      ],
      "payable": false,
      "stateMutability": "view",
      "type": "function"
    },
    {
      "constant": true,
      "inputs": [],
      "name": "getCurrentStepFundsInfo",
      "outputs": [
        {
          "name": "",
          "type": "uint256"
        },
        {
          "name": "",
          "type": "uint256"
        },
        {
          "name": "",
          "type": "uint256"
        }
      ],
      "payable": false,
      "stateMutability": "view",
      "type": "function"
    },
    {
      "constant": true,
      "inputs": [],
      "name": "getBuildingPerioInfo",
      "outputs": [
        {
          "name": "",
          "type": "uint256"
        },
        {
          "name": "",
          "type": "uint256"
        },
        {
          "name": "",
          "type": "uint256"
        },
        {
          "name": "",
          "type": "uint256"
        }
      ],
      "payable": false,
      "stateMutability": "view",
      "type": "function"
    },
    {
      "constant": true,
      "inputs": [],
      "name": "getFundingPeriodInfo",
      "outputs": [
        {
          "name": "",
          "type": "uint256"
        },
        {
          "name": "",
          "type": "uint256"
        },
        {
          "name": "",
          "type": "uint256"
        }
      ],
      "payable": false,
      "stateMutability": "view",
      "type": "function"
    },
    {
      "constant": true,
      "inputs": [
        {
          "name": "_stepIndex",
          "type": "uint256"
        }
      ],
      "name": "getFunderInfo",
      "outputs": [
        {
          "name": "",
          "type": "uint256"
        },
        {
          "name": "",
          "type": "uint256"
        },
        {
          "name": "",
          "type": "uint256"
        },
        {
          "name": "",
          "type": "uint256"
        },
        {
          "name": "",
          "type": "uint256"
        },
        {
          "name": "",
          "type": "uint256"
        },
        {
          "name": "",
          "type": "uint256"
        },
        {
          "name": "",
          "type": "uint256"
        },
        {
          "name": "",
          "type": "uint256"
        },
        {
          "name": "",
          "type": "uint256"
        }
      ],
      "payable": false,
      "stateMutability": "view",
      "type": "function"
    },
    {
      "constant": true,
      "inputs": [
        {
          "name": "_stepIndex",
          "type": "uint256"
        }
      ],
      "name": "getBlockHash",
      "outputs": [
        {
          "name": "",
          "type": "bytes32"
        }
      ],
      "payable": false,
      "stateMutability": "view",
      "type": "function"
    },
    {
      "constant": false,
      "inputs": [
        {
          "name": "_stepIndex",
          "type": "uint256"
        }
      ],
      "name": "setBlockHash",
      "outputs": [
        {
          "name": "",
          "type": "bool"
        }
      ],
      "payable": false,
      "stateMutability": "nonpayable",
      "type": "function"
    },
    {
      "constant": true,
      "inputs": [
        {
          "name": "_stepIndex",
          "type": "uint256"
        }
      ],
      "name": "currentStepIsClosed",
      "outputs": [
        {
          "name": "",
          "type": "bool"
        }
      ],
      "payable": false,
      "stateMutability": "view",
      "type": "function"
    },
    {
      "constant": false,
      "inputs": [],
      "name": "refund",
      "outputs": [
        {
          "name": "",
          "type": "bool"
        }
      ],
      "payable": false,
      "stateMutability": "nonpayable",
      "type": "function"
    }
  ],
  "bytecode": "0x608060405234801561001057600080fd5b5060405160c080620053be833981018060405260c081101561003157600080fd5b50805160208201516040808401516060850151608086015160a09096015160008054600160a060020a03191633178082559451969795969395929492939192600160a060020a0316917f8be0079c531659141344cd1fd0a4f28419497f9722a3daafe3b4186f6b6457e0908290a360028054600160a060020a03978816600160a060020a0319918216179091556005805495881695821695909517909455600680549387169385169390931790925560078054918616918416919091179055600880549185169183169190911790556000600c556001805492909316911617905561529c80620001226000396000f3fe6080604052600436106102295760003560e060020a90048063912c84ec11610127578063d50cf02d116100af578063e757412811610073578063e757412814610e91578063e9881a5e14610ea6578063ee82ac5e14610ed9578063f2fde38b14610f03578063feaec77514610f3657610229565b8063d50cf02d14610d6c578063db27cf6114610db1578063de3844ff14610ddb578063de45dbd514610e34578063e15ce92714610e5e57610229565b8063b4c06982116100f6578063b4c0698214610bd3578063b5ac72b514610bdb578063b6b6b47514610d0f578063c12cd1bc14610d42578063c2cb21ba14610d5757610229565b8063912c84ec14610b375780639642a86b14610b6a578063a41e5bff14610b7f578063b4862a7114610ba957610229565b80635bc34f71116101b5578063891d7e7911610179578063891d7e7914610a685780638da5cb5b14610acd5780638f32d59b14610ae257806390386bbf14610af757806390fa85f814610b2257610229565b80635bc34f71146109495780635deac38b1461095e57806364ab07fa14610a0e578063715018a614610a49578063799a535914610a6057610229565b80634559ff9b116101fc5780634559ff9b146108625780634c090a97146108a5578063508bf76b146108e357806356d1121a1461090a578063590e1ae31461093457610229565b806309912183146105ae57806314870d2c1461062857806316b297461461065a57806338af3eed14610831575b600260009054906101000a9004600160a060020a0316600160a060020a03166374ebae066040518163ffffffff1660e060020a02815260040160206040518083038186803b15801561027a57600080fd5b505afa15801561028e573d6000803e3d6000fd5b505050506040513d60208110156102a457600080fd5b505115156102fc576040805160e560020a62461bcd02815260206004820152601260248201527fe4b88de59ca8e58b9fe8b584e69c9fe586850000000000000000000000000000604482015290519081900360640190fd5b600260009054906101000a9004600160a060020a0316600160a060020a031663743acbab6040518163ffffffff1660e060020a02815260040160206040518083038186803b15801561034d57600080fd5b505afa158015610361573d6000803e3d6000fd5b505050506040513d602081101561037757600080fd5b5051156103ce576040805160e560020a62461bcd02815260206004820152601260248201527fe585b1e68cafe5b7b2e7bb8fe7bb93e69d9f0000000000000000000000000000604482015290519081900360640190fd5b600c546000908152600d6020526040902060068101546007909101543491906103fe90839063ffffffff610f4b16565b111561043e5760405160e560020a62461bcd0281526004018080602001828103825260248152602001806151c56024913960400191505060405180910390fd5b600c546000908152600d6020908152604080832033845290915290206006015460a060020a900460ff1615156104a357600c546000908152600d60209081526040822060019081018054918201815583529120018054600160a060020a031916331790555b600c80546000908152600d6020818152604080842033808652908352818520600201805488019055855485528383528185208186528352818520600601805474ff0000000000000000000000000000000000000000191660a060020a17905585548552838352818520600790810180548901905560098054600181019091557f6e1540171b6c0c960b71a7020d9f60077f6af931a8bbf590da0223dacf75c7af018054600160a060020a03191683179055908552600a8352818520805488019055945484529181529181902090920154825190815290810183905281517ff95237335d5bb3e687d27a5ce5c84e8c43ad8a31d47b59d50cde65e55adc6ac4929181900390910190a150005b3480156105ba57600080fd5b506105d8600480360360208110156105d157600080fd5b5035610f66565b604080519a8b5260208b0199909952898901979097526060890195909552608088019390935260a087019190915260c086015260e085015261010084015261012083015251908190036101400190f35b6106306115e7565b60408051600160a060020a0394851681529290931660208301528183015290519081900360600190f35b34801561066657600080fd5b506106846004803603602081101561067d57600080fd5b5035611959565b6040518080602001806020018060200180602001806020018060200187810387528d818151815260200191508051906020019060200280838360005b838110156106d85781810151838201526020016106c0565b5050505090500187810386528c818151815260200191508051906020019060200280838360005b838110156107175781810151838201526020016106ff565b5050505090500187810385528b818151815260200191508051906020019060200280838360005b8381101561075657818101518382015260200161073e565b5050505090500187810384528a818151815260200191508051906020019060200280838360005b8381101561079557818101518382015260200161077d565b50505050905001878103835289818151815260200191508051906020019060200280838360005b838110156107d45781810151838201526020016107bc565b50505050905001878103825288818151815260200191508051906020019060200280838360005b838110156108135781810151838201526020016107fb565b505050509050019c5050505050505050505050505060405180910390f35b34801561083d57600080fd5b50610846611d46565b60408051600160a060020a039092168252519081900360200190f35b34801561086e57600080fd5b5061088c6004803603602081101561088557600080fd5b5035611d55565b6040805192835260208301919091528051918290030190f35b3480156108b157600080fd5b506108cf600480360360208110156108c857600080fd5b5035611ead565b604080519115158252519081900360200190f35b3480156108ef57600080fd5b506108f8611eda565b60408051918252519081900360200190f35b34801561091657600080fd5b506108cf6004803603602081101561092d57600080fd5b5035611ee0565b34801561094057600080fd5b506108cf611efd565b34801561095557600080fd5b506108f86123b2565b34801561096a57600080fd5b506108cf6004803603602081101561098157600080fd5b81019060208101813564010000000081111561099c57600080fd5b8201836020820111156109ae57600080fd5b803590602001918460208302840111640100000000831117156109d057600080fd5b9190808060200260200160405190810160405280939291908181526020018383602002808284376000920191909152509295506123b8945050505050565b348015610a1a57600080fd5b50610a23612580565b604080519485526020850193909352838301919091526060830152519081900360800190f35b348015610a5557600080fd5b50610a5e61277d565b005b6108cf6127da565b348015610a7457600080fd5b50610a7d612b40565b60408051602080825283518183015283519192839290830191858101910280838360005b83811015610ab9578181015183820152602001610aa1565b505050509050019250505060405180910390f35b348015610ad957600080fd5b50610846612bb5565b348015610aee57600080fd5b506108cf612bc4565b610aff612bd5565b60408051600160a060020a03909316835260208301919091528051918290030190f35b348015610b2e57600080fd5b50610846612d83565b348015610b4357600080fd5b50610b4c612d92565b60408051938452602084019290925282820152519081900360600190f35b348015610b7657600080fd5b506108f8612db3565b348015610b8b57600080fd5b506108cf60048036036020811015610ba257600080fd5b5035612db9565b348015610bb557600080fd5b50610a5e60048036036020811015610bcc57600080fd5b5035612df6565b610a5e6135a5565b348015610be757600080fd5b506108cf60048036036040811015610bfe57600080fd5b810190602081018135640100000000811115610c1957600080fd5b820183602082011115610c2b57600080fd5b80359060200191846020830284011164010000000083111715610c4d57600080fd5b9190808060200260200160405190810160405280939291908181526020018383602002808284376000920191909152509295949360208101935035915050640100000000811115610c9d57600080fd5b820183602082011115610caf57600080fd5b80359060200191846020830284011164010000000083111715610cd157600080fd5b9190808060200260200160405190810160405280939291908181526020018383602002808284376000920191909152509295506135f5945050505050565b348015610d1b57600080fd5b506108cf60048036036020811015610d3257600080fd5b5035600160a060020a0316613958565b348015610d4e57600080fd5b50610b4c61396d565b348015610d6357600080fd5b506108cf613a8e565b348015610d7857600080fd5b50610a5e60048036036060811015610d8f57600080fd5b50600160a060020a038135811691602081013582169160409091013516613a97565b348015610dbd57600080fd5b506108f860048036036020811015610dd457600080fd5b5035613d89565b348015610de757600080fd5b50610e0e60048036036020811015610dfe57600080fd5b5035600160a060020a0316613d9e565b60408051600160a060020a03938416815291909216602082015281519081900390910190f35b348015610e4057600080fd5b506108cf60048036036020811015610e5757600080fd5b50356146c1565b348015610e6a57600080fd5b506108f860048036036020811015610e8157600080fd5b5035600160a060020a03166146d6565b348015610e9d57600080fd5b50610846614707565b348015610eb257600080fd5b50610a7d60048036036020811015610ec957600080fd5b5035600160a060020a0316614716565b348015610ee557600080fd5b506108f860048036036020811015610efc57600080fd5b5035614799565b348015610f0f57600080fd5b50610a5e60048036036020811015610f2657600080fd5b5035600160a060020a03166147b2565b348015610f4257600080fd5b506108cf6147ce565b600082820183811015610f5d57600080fd5b90505b92915050565b6000806000806000806000806000806060600a604051908082528060200260200182016040528015610fa2578160200160208202803883390190505b509050610fad61502b565b60008d8152600d602090815260408083203384528252918290208251610180810184528154600160a060020a03168152600182015481840152600282015481850152600382018054855181860281018601909652808652919492936060860193929083018282801561104857602002820191906000526020600020905b8154600160a060020a0316815260019091019060200180831161102a575b505050918352505060048201546020820152600582015460408201526006820154600160a060020a038116606083015260ff60a060020a8204811615156080840152750100000000000000000000000000000000000000000082048116151560a084015276010000000000000000000000000000000000000000000090910416151560c0820152600782015460e08201526008909101546101009091015290506110f18d6147fb565b82600081518110151561110057fe5b6020908102909101810191909152600254604080517f3bb66a7b0000000000000000000000000000000000000000000000000000000081523360048201529051600160a060020a0390921692633bb66a7b92602480840193829003018186803b15801561116c57600080fd5b505afa158015611180573d6000803e3d6000fd5b505050506040513d602081101561119657600080fd5b50518251839060019081106111a757fe5b602090810290910101526060810151518251839060029081106111c657fe5b6020908102909101015260a08101518251839060039081106111e457fe5b9060200190602002018181525050806020015182600481518110151561120657fe5b60209081029091010152604081015182518390600590811061122457fe5b6020908102909101810191909152600754604080517fc28a1af30000000000000000000000000000000000000000000000000000000081523360048201529051600160a060020a039092169263c28a1af392602480840193829003018186803b15801561129057600080fd5b505afa1580156112a4573d6000803e3d6000fd5b505050506040513d60208110156112ba57600080fd5b50518251839060069081106112cb57fe5b6020908102909101810191909152600554604080517f0df2019a0000000000000000000000000000000000000000000000000000000081523360048201529051600160a060020a0390921692630df2019a92602480840193829003018186803b15801561133757600080fd5b505afa15801561134b573d6000803e3d6000fd5b505050506040513d602081101561136157600080fd5b505182518390600790811061137257fe5b6020908102909101810191909152600654604080517fc75355670000000000000000000000000000000000000000000000000000000081523360048201529051600160a060020a039092169263c753556792602480840193829003018186803b1580156113de57600080fd5b505afa1580156113f2573d6000803e3d6000fd5b505050506040513d602081101561140857600080fd5b505182518390600890811061141957fe5b6020908102909101810191909152600854604080517f4a6817870000000000000000000000000000000000000000000000000000000081523360048201529051600160a060020a0390921692634a68178792602480840193829003018186803b15801561148557600080fd5b505afa158015611499573d6000803e3d6000fd5b505050506040513d60208110156114af57600080fd5b50518251839060099081106114c057fe5b602090810290910101528151829060009081106114d957fe5b906020019060200201518260018151811015156114f257fe5b9060200190602002015183600281518110151561150b57fe5b9060200190602002015184600381518110151561152457fe5b9060200190602002015185600481518110151561153d57fe5b9060200190602002015186600581518110151561155657fe5b9060200190602002015187600681518110151561156f57fe5b9060200190602002015188600781518110151561158857fe5b906020019060200201518960088151811015156115a157fe5b906020019060200201518a60098151811015156115ba57fe5b906020019060200201519b509b509b509b509b509b509b509b509b509b5050509193959799509193959799565b6000806000806116036001600c5461483f90919063ffffffff16565b6000818152600d6020908152604080832033845290915290206006015490915060a060020a900460ff16151561166d5760405160e560020a62461bcd02815260040180806020018281038252602a8152602001806150f4602a913960400191505060405180910390fd5b6000818152600d602090815260408083203384529091529020600601547501000000000000000000000000000000000000000000900460ff16156116e55760405160e560020a62461bcd02815260040180806020018281038252602c815260200180615219602c913960400191505060405180910390fd5b6000818152600d60209081526040808320338452909152812060020154116117415760405160e560020a62461bcd0281526004018080602001828103825260358152602001806151906035913960400191505060405180910390fd5b6000818152600d6020526040812060070154116117925760405160e560020a62461bcd02815260040180806020018281038252602581526020018061516b6025913960400191505060405180910390fd5b6000818152600d60208181526040808420600781015433865281845291852060020154868652939092526004909101546117e2926117d6919063ffffffff61485416565b9063ffffffff61487f16565b600254604080517f430c67c40000000000000000000000000000000000000000000000000000000081523360048201529051929350600160a060020a039091169163430c67c49160248082019260009290919082900301818387803b15801561184a57600080fd5b505af115801561185e573d6000803e3d6000fd5b5050506000838152600d6020908152604080832033808552908352818420600601805475ff0000000000000000000000000000000000000000001916750100000000000000000000000000000000000000000017905560015482517fa9059cbb0000000000000000000000000000000000000000000000000000000081526004810192909252602482018790529151600160a060020a0392909216945063a9059cbb9360448083019493928390030190829087803b15801561191f57600080fd5b505af1158015611933573d6000803e3d6000fd5b505050506040513d602081101561194957600080fd5b5030963396509194509092505050565b60608060608060608061196a612bc4565b151561197557600080fd5b606080606080606080600d60008e8152602001908152602001600020600101805490506040519080825280602002602001820160405280156119c1578160200160208202803883390190505b50955085516040519080825280602002602001820160405280156119ef578160200160208202803883390190505b5094508551604051908082528060200260200182016040528015611a1d578160200160208202803883390190505b5093508551604051908082528060200260200182016040528015611a4b578160200160208202803883390190505b5092508551604051908082528060200260200182016040528015611a79578160200160208202803883390190505b5091508551604051908082528060200260200182016040528015611aa7578160200160208202803883390190505b5060008e8152600d60209081526040918290206001018054835181840281018401909452808452939450919290830182828015611b0d57602002820191906000526020600020905b8154600160a060020a03168152600190910190602001808311611aef575b50939950600093505050505b8651811015611d315760008e8152600d602052604081208851909190899084908110611b4157fe5b90602001906020020151600160a060020a0316600160a060020a03168152602001908152602001600020600101548682815181101515611b7d57fe5b602090810290910181019190915260008f8152600d909152604081208851909190899084908110611baa57fe5b90602001906020020151600160a060020a0316600160a060020a03168152602001908152602001600020600201548582815181101515611be657fe5b602090810290910181019190915260008f8152600d909152604081208851909190899084908110611c1357fe5b6020908102909101810151600160a060020a03168252810191909152604001600020600301548451859083908110611c4757fe5b6020908102909101810191909152600c546000908152600d909152604081208851909190899084908110611c7757fe5b90602001906020020151600160a060020a0316600160a060020a03168152602001908152602001600020600501548382815181101515611cb357fe5b6020908102909101810191909152600c546000908152600d909152604081208851909190899084908110611ce357fe5b90602001906020020151600160a060020a0316600160a060020a03168152602001908152602001600020600401548282815181101515611d1f57fe5b60209081029091010152600101611b19565b50949c939b5091995097509550909350915050565b600354600160a060020a031681565b600080611d60612bc4565b1515611d6b57600080fd5b600260009054906101000a9004600160a060020a0316600160a060020a03166325d8e97f6040518163ffffffff1660e060020a02815260040160206040518083038186803b158015611dbc57600080fd5b505afa158015611dd0573d6000803e3d6000fd5b505050506040513d6020811015611de657600080fd5b50511515611e3e576040805160e560020a62461bcd02815260206004820152601260248201527fe4b88de59ca8e585b1e5bbbae69c9fe586850000000000000000000000000000604482015290519081900360640190fd5b600c80546000908152600d602052604080822060069081018790559254825290200154611e79906064906117d690605063ffffffff61485416565b600c80546000908152600d602052604080822060080193909355815481529190912060068101546009909101555493915050565b6000818152600d6020908152604080832033845290915290206006015460a060020a900460ff165b919050565b60115481565b6000908152600d60205260409020600a0154610100900460ff1690565b6000611f07612bc4565b1515611f1257600080fd5b601454610100900460ff1615611f72576040805160e560020a62461bcd02815260206004820152601560248201527fe98080e6acbee5b7b2e7bb8fe5ae8ce68890e4ba860000000000000000000000604482015290519081900360640190fd5b600254604080517f50b9d89d0000000000000000000000000000000000000000000000000000000081529051600092600160a060020a0316916350b9d89d916004808301926020929190829003018186803b158015611fd057600080fd5b505afa158015611fe4573d6000803e3d6000fd5b505050506040513d6020811015611ffa57600080fd5b50516000818152600d60209081526040918290206001018054835181840281018401909452808452939450606093909183018282801561206357602002820191906000526020600020905b8154600160a060020a03168152600190910190602001808311612045575b50939450600093505050505b8151811015612392576002548251600160a060020a0390911690639b32a7789084908490811061209b57fe5b90602001906020020151600d6000878152602001908152602001600020600001600086868151811015156120cb57fe5b90602001906020020151600160a060020a0316600160a060020a0316815260200190815260200160002060020154600260009054906101000a9004600160a060020a0316600160a060020a0316633bb66a7b878781518110151561212b57fe5b906020019060200201516040518263ffffffff1660e060020a0281526004018082600160a060020a0316600160a060020a0316815260200191505060206040518083038186803b15801561217e57600080fd5b505afa158015612192573d6000803e3d6000fd5b505050506040513d60208110156121a857600080fd5b50516040805160e060020a63ffffffff8716028152600160a060020a0390941660048501529101602483015251604480830192600092919082900301818387803b1580156121f557600080fd5b505af1158015612209573d6000803e3d6000fd5b50506002548451600160a060020a039091169250634ceb1f13915084908490811061223057fe5b90602001906020020151600d60008781526020019081526020016000206000016000868681518110151561226057fe5b6020908102909101810151600160a060020a0390811683529082019290925260400160002060010154600254875191921690633aecd0e3908890889081106122a457fe5b906020019060200201516040518263ffffffff1660e060020a0281526004018082600160a060020a0316600160a060020a0316815260200191505060206040518083038186803b1580156122f757600080fd5b505afa15801561230b573d6000803e3d6000fd5b505050506040513d602081101561232157600080fd5b50516040805160e060020a63ffffffff8716028152600160a060020a0390941660048501529101602483015251604480830192600092919082900301818387803b15801561236e57600080fd5b505af1158015612382573d6000803e3d6000fd5b50506001909201915061206f9050565b50506014805461ff00191661010090811791829055900460ff1691505090565b600c5481565b60006123c2612bc4565b15156123cd57600080fd5b600260009054906101000a9004600160a060020a0316600160a060020a031663743acbab6040518163ffffffff1660e060020a02815260040160206040518083038186803b15801561241e57600080fd5b505afa158015612432573d6000803e3d6000fd5b505050506040513d602081101561244857600080fd5b505115156124a0576040805160e560020a62461bcd02815260206004820152601260248201527fe585b1e68cafe8bf98e69caae7bb93e69d9f0000000000000000000000000000604482015290519081900360640190fd5b600254601154600160a060020a03909116906395bbde889084906124d3906103e8906117d690607d63ffffffff61485416565b6040805160e060020a63ffffffff861602815260248101839052600481019182528351604482015283518291606401906020868101910280838360005b83811015612528578181015183820152602001612510565b505050509050019350505050602060405180830381600087803b15801561254e57600080fd5b505af1158015612562573d6000803e3d6000fd5b505050506040513d602081101561257857600080fd5b505192915050565b600080600080600080600080600061262d42612621610708600260009054906101000a9004600160a060020a0316600160a060020a031663d74635736040518163ffffffff1660e060020a02815260040160206040518083038186803b1580156125e957600080fd5b505afa1580156125fd573d6000803e3d6000fd5b505050506040513d602081101561261357600080fd5b50519063ffffffff610f4b16565b9063ffffffff61483f16565b1161263b5760009350612699565b61269642612621610708600260009054906101000a9004600160a060020a0316600160a060020a031663d74635736040518163ffffffff1660e060020a02815260040160206040518083038186803b1580156125e957600080fd5b93505b600254604080517fd998d628000000000000000000000000000000000000000000000000000000008152905161274f92600160a060020a03169163d998d628916004808301926020929190829003018186803b1580156126f857600080fd5b505afa15801561270c573d6000803e3d6000fd5b505050506040513d602081101561272257600080fd5b5051600c546000908152600d6020526040902060048101546002909101546126219163ffffffff61483f16565b600c546000908152600d602052604090206003810154600590910154959a9199509750939550929350505050565b612785612bc4565b151561279057600080fd5b60008054604051600160a060020a03909116907f8be0079c531659141344cd1fd0a4f28419497f9722a3daafe3b4186f6b6457e0908390a360008054600160a060020a0319169055565b60006127e4612bc4565b15156127ef57600080fd5b600c5460009081526013602052604090205460ff16156128435760405160e560020a62461bcd02815260040180806020018281038252602c815260200180615245602c913960400191505060405180910390fd5b600260009054906101000a9004600160a060020a0316600160a060020a031663d998d6286040518163ffffffff1660e060020a02815260040160206040518083038186803b15801561289457600080fd5b505afa1580156128a8573d6000803e3d6000fd5b505050506040513d60208110156128be57600080fd5b5051600154604080517fdd62ed3e0000000000000000000000000000000000000000000000000000000081523360048201523060248201529051600160a060020a039092169163dd62ed3e91604480820192602092909190829003018186803b15801561292a57600080fd5b505afa15801561293e573d6000803e3d6000fd5b505050506040513d602081101561295457600080fd5b505110156129ac576040805160e560020a62461bcd02815260206004820152601260248201527fe68e88e69d83e9a29de5baa6e4b88de8b6b30000000000000000000000000000604482015290519081900360640190fd5b600154600254604080517fd998d6280000000000000000000000000000000000000000000000000000000081529051600160a060020a03938416936323b872dd9333933093919092169163d998d628916004808301926020929190829003018186803b158015612a1b57600080fd5b505afa158015612a2f573d6000803e3d6000fd5b505050506040513d6020811015612a4557600080fd5b50516040805160e060020a63ffffffff8716028152600160a060020a0394851660048201529290931660248301526044820152905160648083019260209291908290030181600087803b158015612a9b57600080fd5b505af1158015612aaf573d6000803e3d6000fd5b505050506040513d6020811015612ac557600080fd5b50511515612b1d576040805160e560020a62461bcd02815260206004820152601a60248201527fe8bdace7a7bb746f6b656ee588b0e59088e7baa6e5a4b1e8b4a5000000000000604482015290519081900360640190fd5b50600c546000908152601360205260409020805460ff1916600190811790915590565b6060612b4a612bc4565b1515612b5557600080fd5b6009805480602002602001604051908101604052809291908181526020018280548015612bab57602002820191906000526020600020905b8154600160a060020a03168152600190910190602001808311612b8d575b5050505050905090565b600054600160a060020a031690565b600054600160a060020a0316331490565b600254604080517f9263434e000000000000000000000000000000000000000000000000000000008152336004820181905291516000938493928492600160a060020a0390921691639263434e91602480820192602092909190829003018186803b158015612c4357600080fd5b505afa158015612c57573d6000803e3d6000fd5b505050506040513d6020811015612c6d57600080fd5b5051600254604080517ffe147c1b0000000000000000000000000000000000000000000000000000000081523360048201529051929350600160a060020a039091169163fe147c1b9160248082019260009290919082900301818387803b158015612cd757600080fd5b505af1158015612ceb573d6000803e3d6000fd5b5050600c546000908152600d60209081526040808320338452909152808220600601805476ff00000000000000000000000000000000000000000000191676010000000000000000000000000000000000000000000017905551600160a060020a038616935084156108fc0292508491818181858888f19350505050158015612d78573d6000803e3d6000fd5b503393509150509091565b600e54600160a060020a031681565b600c546000818152600d602052604090206002810154600790910154909192565b60105481565b6000818152600d60205260408120600b01541515612dee57506000818152600d6020526040902043600b909101556001611ed5565b506000611ed5565b600260009054906101000a9004600160a060020a0316600160a060020a03166325d8e97f6040518163ffffffff1660e060020a02815260040160206040518083038186803b158015612e4757600080fd5b505afa158015612e5b573d6000803e3d6000fd5b505050506040513d6020811015612e7157600080fd5b50511515612ec9576040805160e560020a62461bcd02815260206004820152601260248201527fe4b88de59ca8e585b1e5bbbae69c9fe586850000000000000000000000000000604482015290519081900360640190fd5b600260009054906101000a9004600160a060020a0316600160a060020a031663743acbab6040518163ffffffff1660e060020a02815260040160206040518083038186803b158015612f1a57600080fd5b505afa158015612f2e573d6000803e3d6000fd5b505050506040513d6020811015612f4457600080fd5b505115612f9b576040805160e560020a62461bcd02815260206004820152601260248201527fe585b1e68cafe5b7b2e7bb8fe7bb93e69d9f0000000000000000000000000000604482015290519081900360640190fd5b3360009081526004602052604090205460ff161515613004576040805160e560020a62461bcd02815260206004820152601660248201527fe8b083e794a8e88085e4b88de698af4275696c64657200000000000000000000604482015290519081900360640190fd5b600254604080517fd998d62800000000000000000000000000000000000000000000000000000000815290516130b092600160a060020a03169163d998d628916004808301926020929190829003018186803b15801561306357600080fd5b505afa158015613077573d6000803e3d6000fd5b505050506040513d602081101561308d57600080fd5b5051600c546000908152600d60205260409020600201549063ffffffff61483f16565b600c546000908152600d60205260409020600401546130d5908363ffffffff610f4b16565b11156131155760405160e560020a62461bcd02815260040180806020018281038252602d8152602001806150a6602d913960400191505060405180910390fd5b600c546000908152600d602052604090206002810154600490910154613141908363ffffffff610f4b16565b11156131815760405160e560020a62461bcd02815260040180806020018281038252602681526020018061511e6026913960400191505060405180910390fd5b600c546000908152600d6020908152604080832060038101543385529252909120600101546131b6908363ffffffff610f4b16565b11156131f65760405160e560020a62461bcd0281526004018080602001828103825260308152602001806151e96030913960400191505060405180910390fd5b600154604080517fdd62ed3e00000000000000000000000000000000000000000000000000000000815233600482015230602482015290518392600160a060020a03169163dd62ed3e916044808301926020929190829003018186803b15801561325f57600080fd5b505afa158015613273573d6000803e3d6000fd5b505050506040513d602081101561328957600080fd5b505110156132e1576040805160e560020a62461bcd02815260206004820152601260248201527fe68e88e69d83e9a29de5baa6e4b88de8b6b30000000000000000000000000000604482015290519081900360640190fd5b600154604080517f23b872dd000000000000000000000000000000000000000000000000000000008152336004820152306024820152604481018490529051600160a060020a03909216916323b872dd916064808201926020929091908290030181600087803b15801561335457600080fd5b505af1158015613368573d6000803e3d6000fd5b505050506040513d602081101561337e57600080fd5b505115156133d6576040805160e560020a62461bcd02815260206004820152601a60248201527fe8bdace7a7bb746f6b656ee588b0e59088e7baa6e5a4b1e8b4a5000000000000604482015290519081900360640190fd5b600c80546000908152600d6020818152604080842033808652908352818520600101805488019055855485529282528084206005018054870190559354835283832091835290815282822060060154600160a060020a03908116835291839020600490810180548601905560025484517f2734189a00000000000000000000000000000000000000000000000000000000815294519316936330f42bf69386938693632734189a93808201939190829003018186803b15801561349857600080fd5b505afa1580156134ac573d6000803e3d6000fd5b505050506040513d60208110156134c257600080fd5b50516040805160e060020a63ffffffff861602815292909103600483015251602480830192600092919082900301818387803b15801561350157600080fd5b505af1158015613515573d6000803e3d6000fd5b5050336000908152600b60209081526040808320805487018155600c80548552600d90935281842060049081018054890190559254845292209081015491546003909101547fce8444cd33931964efa94258603dbc7bc14139ab6960228c821b97a06b9fad5d945091925061358a919061483f565b6040805192835260208301919091528051918290030190a150565b6135ad612bc4565b15156135b857600080fd5b600354604051600160a060020a0390911690303180156108fc02916000818181858888f193505050501580156135f2573d6000803e3d6000fd5b50565b60006135ff612bc4565b151561360a57600080fd5b600354600160a060020a031615156136565760405160e560020a62461bcd0281526004018080602001828103825260218152602001806150d36021913960400191505060405180910390fd5b60006136f9600260009054906101000a9004600160a060020a0316600160a060020a031663d998d6286040518163ffffffff1660e060020a02815260040160206040518083038186803b1580156136ac57600080fd5b505afa1580156136c0573d6000803e3d6000fd5b505050506040513d60208110156136d657600080fd5b5051600c546000908152600d60205260409020600401549063ffffffff610f4b16565b90506137b660646117d6836117d660286137aa600260009054906101000a9004600160a060020a0316600160a060020a031663d998d6286040518163ffffffff1660e060020a02815260040160206040518083038186803b15801561375d57600080fd5b505afa158015613771573d6000803e3d6000fd5b505050506040513d602081101561378757600080fd5b5051600c546000908152600d60205260409020600701549063ffffffff61485416565b9063ffffffff61485416565b600c80546000908152600f6020526040808220939093559054815220546137ec906103e8906117d690607d63ffffffff61485416565b6011805490910190556137fe846148a3565b61380783614b7f565b600254600354600c546000908152600d6020526040902060070154600160a060020a0392831692639b32a77892169061384e906064906117d690603c63ffffffff61485416565b600254600354604080517f3bb66a7b000000000000000000000000000000000000000000000000000000008152600160a060020a03928316600482015290519190921691633bb66a7b916024808301926020929190829003018186803b1580156138b757600080fd5b505afa1580156138cb573d6000803e3d6000fd5b505050506040513d60208110156138e157600080fd5b50516040805160e060020a63ffffffff8716028152600160a060020a0390941660048501529101602483015251604480830192600092919082900301818387803b15801561392e57600080fd5b505af1158015613942573d6000803e3d6000fd5b5050505061394e614c61565b5060019392505050565b60046020526000908152604090205460ff1681565b60008060008060008060006139d342612621610e10600260009054906101000a9004600160a060020a0316600160a060020a031663d74635736040518163ffffffff1660e060020a02815260040160206040518083038186803b1580156125e957600080fd5b116139e15760009250613a3f565b613a3c42612621610e10600260009054906101000a9004600160a060020a0316600160a060020a031663d74635736040518163ffffffff1660e060020a02815260040160206040518083038186803b1580156125e957600080fd5b92505b600c546000908152600d602052604090206007810154600690910154613a6a9163ffffffff61483f16565b600c546000908152600d602052604090206007015493965094509192505050909192565b60145460ff1681565b613a9f612bc4565b1515613aaa57600080fd5b60145460ff1615613aef5760405160e560020a62461bcd0281526004018080602001828103825260278152602001806151446027913960400191505060405180910390fd5b60038054600160a060020a03808516600160a060020a031992831617909255600e80548484169216919091179055600254604080517fabdd11a80000000000000000000000000000000000000000000000000000000081524260048201529051919092169163abdd11a891602480830192600092919082900301818387803b158015613b7a57600080fd5b505af1158015613b8e573d6000803e3d6000fd5b5050505073__UintUtils_____________________________63669dafe86216e3606040518263ffffffff1660e060020a0281526004018082815260200191505060206040518083038186803b158015613be757600080fd5b505af4158015613bfb573d6000803e3d6000fd5b505050506040513d6020811015613c1157600080fd5b5051600c80546000908152600d602052604080822060029081019490945591548152200154613c4e906064906117d690600163ffffffff61485416565b600c546000908152600d60205260408082206003019290925560025482517f1c5ce1570000000000000000000000000000000000000000000000000000000081529251600160a060020a0390911692631c5ce15792600480830193919282900301818387803b158015613cc057600080fd5b505af1158015613cd4573d6000803e3d6000fd5b5050600254600c54604080517f0d9907d9000000000000000000000000000000000000000000000000000000008152600481019290925251600160a060020a039092169350630d9907d992506024808201926020929091908290030181600087803b158015613d4257600080fd5b505af1158015613d56573d6000803e3d6000fd5b505050506040513d6020811015613d6c57600080fd5b50506014805460ff19166001179055613d84836147b2565b505050565b6000908152600d602052604090206006015490565b600080600260009054906101000a9004600160a060020a0316600160a060020a03166325d8e97f6040518163ffffffff1660e060020a02815260040160206040518083038186803b158015613df257600080fd5b505afa158015613e06573d6000803e3d6000fd5b505050506040513d6020811015613e1c57600080fd5b50511515613e74576040805160e560020a62461bcd02815260206004820152601260248201527fe4b88de59ca8e585b1e5bbbae69c9fe586850000000000000000000000000000604482015290519081900360640190fd5b600260009054906101000a9004600160a060020a0316600160a060020a031663743acbab6040518163ffffffff1660e060020a02815260040160206040518083038186803b158015613ec557600080fd5b505afa158015613ed9573d6000803e3d6000fd5b505050506040513d6020811015613eef57600080fd5b505115613f46576040805160e560020a62461bcd02815260206004820152601260248201527fe585b1e68cafe5b7b2e7bb8fe7bb93e69d9f0000000000000000000000000000604482015290519081900360640190fd5b600e54600160a060020a03848116911614613fcd57600160a060020a03831660009081526004602052604090205460ff161515613fcd576040805160e560020a62461bcd02815260206004820152601f60248201527fe68ea8e5b9bfe88085e887aae5b7b1e5bf85e9a1bbe698af4275696c64657200604482015290519081900360640190fd5b600160a060020a038316151561402d576040805160e560020a62461bcd02815260206004820152601b60248201527fe68ea8e5b9bfe88085e4b88de883bde698afe7a9bae59cb0e59d800000000000604482015290519081900360640190fd5b73__UintUtils_____________________________63669dafe860086040518263ffffffff1660e060020a0281526004018082815260200191505060206040518083038186803b15801561408057600080fd5b505af4158015614094573d6000803e3d6000fd5b505050506040513d60208110156140aa57600080fd5b5051600154604080517fdd62ed3e0000000000000000000000000000000000000000000000000000000081523360048201523060248201529051600160a060020a039092169163dd62ed3e91604480820192602092909190829003018186803b15801561411657600080fd5b505afa15801561412a573d6000803e3d6000fd5b505050506040513d602081101561414057600080fd5b50511015614198576040805160e560020a62461bcd02815260206004820152601260248201527fe68e88e69d83e9a29de5baa6e4b88de8b6b30000000000000000000000000000604482015290519081900360640190fd5b6001546040805160e360020a630cd3b5fd028152600860048201529051600160a060020a03909216916323b872dd913391309173__UintUtils_____________________________9163669dafe891602480820192602092909190829003018186803b15801561420757600080fd5b505af415801561421b573d6000803e3d6000fd5b505050506040513d602081101561423157600080fd5b50516040805160e060020a63ffffffff8716028152600160a060020a0394851660048201529290931660248301526044820152905160648083019260209291908290030181600087803b15801561428757600080fd5b505af115801561429b573d6000803e3d6000fd5b505050506040513d60208110156142b157600080fd5b50511515614309576040805160e560020a62461bcd02815260206004820152601a60248201527fe8bdace7a7bb746f6b656ee588b0e59088e7baa6e5a4b1e8b4a5000000000000604482015290519081900360640190fd5b6001546040805160e360020a630cd3b5fd028152600360048201529051600160a060020a039092169163a9059cbb9160009173__UintUtils_____________________________9163669dafe8916024808301926020929190829003018186803b15801561437657600080fd5b505af415801561438a573d6000803e3d6000fd5b505050506040513d60208110156143a057600080fd5b50516040805160e060020a63ffffffff8616028152600160a060020a03909316600484015260248301919091525160448083019260209291908290030181600087803b1580156143ef57600080fd5b505af1158015614403573d6000803e3d6000fd5b505050506040513d602081101561441957600080fd5b50506001546040805160e360020a630cd3b5fd028152600560048201529051600160a060020a039092169163a9059cbb91869173__UintUtils_____________________________9163669dafe8916024808301926020929190829003018186803b15801561448757600080fd5b505af415801561449b573d6000803e3d6000fd5b505050506040513d60208110156144b157600080fd5b50516040805160e060020a63ffffffff8616028152600160a060020a03909316600484015260248301919091525160448083019260209291908290030181600087803b15801561450057600080fd5b505af1158015614514573d6000803e3d6000fd5b505050506040513d602081101561452a57600080fd5b50506040805160e360020a630cd3b5fd02815260056004820152905173__UintUtils_____________________________9163669dafe8916024808301926020929190829003018186803b15801561458157600080fd5b505af4158015614595573d6000803e3d6000fd5b505050506040513d60208110156145ab57600080fd5b5051600c546000908152600d60209081526040808320600160a060020a03881684529091529020600501805490910190556145e583614f47565b600c80546000908152600d60209081526040808320600160a060020a0380891680865291845282852060030180546001810182559086529385209093018054600160a060020a031916331790556005549454600e5483517fe23613e90000000000000000000000000000000000000000000000000000000081526004810192909252602482019290925290831660448201529051939091169263e23613e99260648084019391929182900301818387803b1580156146a257600080fd5b505af11580156146b6573d6000803e3d6000fd5b503396945050505050565b60136020526000908152604090205460ff1681565b60006146e0612bc4565b15156146eb57600080fd5b50600160a060020a03166000908152600a602052604090205490565b600154600160a060020a031681565b600c546000908152600d60209081526040808320600160a060020a038516845282529182902060030180548351818402810184019094528084526060939283018282801561478d57602002820191906000526020600020905b8154600160a060020a0316815260019091019060200180831161476f575b50505050509050919050565b6000908152600d60205260409020600b01546001014090565b6147ba612bc4565b15156147c557600080fd5b6135f281614fbb565b600c546000908152600d6020908152604080832033845290915290206006015460a060020a900460ff1690565b6000818152600d6020818152604080842060078101543386528184529185206002015486865293909252600490910154610f60926117d6919063ffffffff61485416565b60008282111561484e57600080fd5b50900390565b600082151561486557506000610f60565b82820282848281151561487457fe5b0414610f5d57600080fd5b600080821161488d57600080fd5b6000828481151561489a57fe5b04949350505050565b600c546000908152600d60205260409020600a015460ff1615614910576040805160e560020a62461bcd02815260206004820152601e60248201527fe5bd93e5898de8bdaee6aca1e5b7b2e7bb8fe7bb93e7ae97e5ae8ce6af950000604482015290519081900360640190fd5b600c546000908152600d60205260409020600a0154610100900460ff1615614982576040805160e560020a62461bcd02815260206004820152601b60248201527fe5bd93e5898de8bdaee6aca1e697a9e5b7b2e7bb8fe7bb93e69d9f0000000000604482015290519081900360640190fd5b600254600c546000818152600f6020526040902054600160a060020a039092169163deb72f1f919084906149c4906064906117d690603263ffffffff61485416565b6040518463ffffffff1660e060020a0281526004018084815260200180602001838152602001828103825284818151815260200191508051906020019060200280838360005b83811015614a22578181015183820152602001614a0a565b50505050905001945050505050600060405180830381600087803b158015614a4957600080fd5b505af1158015614a5d573d6000803e3d6000fd5b5050600c546000908152600d602052604081206001015411159150614b7a905057600254600c546000818152600d60209081526040808320600f90925290912054600160a060020a03909316926384976e74929160010190614ace906103e8906117d690607d63ffffffff61485416565b6040518463ffffffff1660e060020a02815260040180848152602001806020018381526020018281038252848181548152602001915080548015614b3b57602002820191906000526020600020905b8154600160a060020a03168152600190910190602001808311614b1d575b5050945050505050600060405180830381600087803b158015614b5d57600080fd5b505af1158015614b71573d6000803e3d6000fd5b505050506135f2565b6135f2565b600254600c546000818152600f6020526040902054600160a060020a039092169163fd38f45b91908490614bc1906064906117d690601963ffffffff61485416565b6040518463ffffffff1660e060020a0281526004018084815260200180602001838152602001828103825284818151815260200191508051906020019060200280838360005b83811015614c1f578181015183820152602001614c07565b50505050905001945050505050600060405180830381600087803b158015614c4657600080fd5b505af1158015614c5a573d6000803e3d6000fd5b5050505050565b600c80546000908152600d60209081526040808320600a908101805460ff191660011790558454845281842001805461ff0019166101001790556002549354808452818420600781015460089091015483517fc39fa8610000000000000000000000000000000000000000000000000000000081526004810193909352602483019190915260448201529051600160a060020a039094169363c39fa86193606480840194938390030190829087803b158015614d1c57600080fd5b505af1158015614d30573d6000803e3d6000fd5b505050506040513d6020811015614d4657600080fd5b50511515614f4557600c80546001019055600254604080517fabdd11a80000000000000000000000000000000000000000000000000000000081524260048201529051600160a060020a039092169163abdd11a89160248082019260009290919082900301818387803b158015614dbc57600080fd5b505af1158015614dd0573d6000803e3d6000fd5b5050600254600c54604080517f0d9907d9000000000000000000000000000000000000000000000000000000008152600481019290925251600160a060020a039092169350630d9907d992506024808201926020929091908290030181600087803b158015614e3e57600080fd5b505af1158015614e52573d6000803e3d6000fd5b505050506040513d6020811015614e6857600080fd5b5050600254604080517f8d8276be0000000000000000000000000000000000000000000000000000000081529051600160a060020a0390921691638d8276be91600480820192602092909190829003018186803b158015614ec857600080fd5b505afa158015614edc573d6000803e3d6000fd5b505050506040513d6020811015614ef257600080fd5b5051600c80546000908152600d602052604080822060029081019490945591548152200154614f2f906064906117d690600163ffffffff61485416565b600c546000908152600d60205260409020600301555b565b600c80546000908152600d60208181526040808420338086529083528185208054600160a060020a03199081168317909155955485529282528084209284529181528183206006018054909416600160a060020a03959095169490941790925560049092529020805460ff19166001179055565b600160a060020a0381161515614fd057600080fd5b60008054604051600160a060020a03808516939216917f8be0079c531659141344cd1fd0a4f28419497f9722a3daafe3b4186f6b6457e091a360008054600160a060020a031916600160a060020a0392909216919091179055565b610180604051908101604052806000600160a060020a0316815260200160008152602001600081526020016060815260200160008152602001600081526020016000600160a060020a031681526020016000151581526020016000151581526020016000151581526020016000815260200160008152509056fee8bdace8b4a6e695b0e9878fe4b88de883bde8b685e8bf87e7a4bee58cbae58fafe8bdace8b4a6e680bbe9a29de59fbae98791e4bc9ae694b6e6acbee59cb0e59d80e5b09ae69caae8aebee7bdaee794a8e688b7e6b2a1e69c89e58f82e4b88ee4b88ae4b880e8bdaee6aca1e79a84e58b9fe8b584e69c9fe5bd93e5898de8bdaee6aca1e585b1e5bbba546f6b656ee5b7b2e7bb8fe8b6b3e5a49fe4ba86e7acace4b880e8bdaee6aca1e695b0e68daee5b7b2e7bb8fe5889de5a78be58c96e8bf87e4ba86e4b88ae4b880e8bdaee6aca1e58b9fe8b584e69c9fe58b9fe99b86e588b030e4b8aa455448e794a8e688b7e59ca8e4b88ae4b880e8bdaee6aca1e6b2a1e69c89e58f82e4b88ee7bb84e5bbbae69c9f546f6b656ee68a95e5b881e5bd93e5898de8bdaee6aca1e5b7b2e58b9fe99b86e588b0e8b6b3e5a49fe79a84455448e585b1e5bbbae9a29de5baa6e5b7b2e8b685e8bf87e99990e9a29defbc8ce4b88de883bde7bba7e7bbade8bdace585a5e794a8e688b7e59ca8e4b88ae4b880e8bdaee6aca1e5b7b2e7bb8fe68f90e58f96746f6b656ee5ae8ce68890e5bd93e5898de8bdaee6aca1e59fbae98791e4bc9ae5b7b2e7bb8fe8bdace585a5e8bf87546f6b656ee4ba86a165627a7a72305820f93fd03bcb509c04827beccd7788c83ab270992f177e467323c9040c2e4fa65a0029",
  "source": "pragma solidity >=0.4.21 <0.6.0;\n\nimport \"../node_modules/openzeppelin-solidity/contracts/math/SafeMath.sol\";\nimport \"../node_modules/openzeppelin-solidity/contracts/ownership/Ownable.sol\";\nimport \"./ABCToken.sol\";\nimport \"./UintUtils.sol\";\nimport \"./FissionReward.sol\";\nimport \"./FOMOReward.sol\";\nimport \"./LuckyReward.sol\";\nimport \"./FaithReward.sol\";\nimport \"./ResonanceDataManage.sol\";\n\n// TODO:token()\ncontract Resonance is Ownable{\n\n    using SafeMath for uint256;\n\n    // \n    // \n    event ToBeFissionPerson(address indexed fissionPerson, address indexed promoter);\n\n    event FundsInfo(uint256 currentStepTokenAmount, uint256 currentStepRaisedETH);\n    event BuildingPerioInfo(uint256 bpCountdown, uint256 remainingToken, uint256 personalTokenLimited, uint256 totalTokenAmount);\n    event FundingPeriodInfo(uint256 fpCountdown, uint256 remainingETH, uint256 rasiedETHAmount);\n\n    // \n    event FissionRewardInfo(address[] fissionRewardList, uint256[] fissionRewardAmount);\n    event FOMORewardInfo(address[] FOMORewardList, uint256[] FOMORewards);\n    event LuckyRewardInfo(address[] luckyRewardList, uint256 luckyReward);\n    event FaithRewardInfo(address[] faithRewardList, uint256[] faithRewardAmount);\n    event WithdrawAllETH(address addr, uint256 ETHAmount);\n    event WithdrawAllToken(address from, address to, uint256 tokenAmount);\n    event FunderInfo(uint256[] FunderInfoArray);\n    event StepFunders(\n        address[] funderAddress,\n        uint256[] funderTokenAmount,\n        uint256[] funderETHAmount,\n        uint256[] funderInvitees,\n        uint256[] funderEarnFromAff\n    );\n    event SettlementStep(uint256 stepIndex);\n\n    event StartNextStep(uint256 stepIndex);\n\n    event SetRaiseTarget(uint256 stepIndex, uint256 raiseTarget);\n\n    event GetResonances(address[] resonances);\n\n    event FunderTotalRaised(uint256 resonancesRasiedETH);\n\n    // ETHToken\n    event currentStepRaisedEther(uint256 raisedETHAmount, uint256 nowRaisedEther);\n    event currentStepRaisedToken(uint256 raisedTokenAmount, uint256 nowRemainingToken);\n\n    // \n    // ERC20\n    ABCToken public abcToken;\n\n    ResonanceDataManage resonanceDataManage;\n\n    // 60%\n    address payable public beneficiary;\n\n    // \n    struct Funder{\n        address funderAddr; // \n        uint256 tokenAmount; // token\n        uint256 ethAmount; // eth\n        address[] invitees; // \n        uint256 inviteesTotalAmount; // Token\n        uint256 earnFromAff; // \n        address promoter; // \n        bool isFunder; // \n        bool tokenHasWithdrawn; // Token\n        bool ETHHasWithdrawn; // ETH\n        uint256 withdrawTokenAmount; // Token\n        uint256 withdrawETHAmount; //ETH\n    }\n\n    mapping(address => bool) public isBuilder; //\n\n    // \n    struct Building{\n        uint256 openTokenAmount; // Token\n        uint256 personalTokenLimited;// token\n        uint256 raisedToken; // token\n        uint256 raisedTokenAmount; // Token\n    }\n\n    // \n    struct Funding{\n        uint256 raiseTarget; // ETH()\n        uint256 raisedETH; // ETH\n    }\n\n    FissionReward fissionRewardInstance;\n    FOMOReward FOMORewardInstance;\n    LuckyReward luckyRewardInstance;\n    FaithReward faithRewardInstance;\n\n    // \n    struct Step{\n        mapping(address => Funder) funder;// \n        address[] funders; // funders\n        Building building; // \n        Funding funding; // \n        uint256 softCap; // \n        uint256 hardCap; // \n        bool settlementFinished; // \n        bool stepIsClosed; // \n        uint256 blockNumber; // \n    }\n\n    // \n    address[] resonances;\n\n    // \n    mapping(address => uint256) resonancesRasiedETH;\n    mapping(address => uint256) resonancesRasiedToken;\n\n    uint256 public currentStep;\n\n    mapping(uint256 => Step) steps;\n\n    address public initialFissionPerson; // \n\n    mapping(uint256 => uint256) ETHFromParty; // ETH\n\n    uint256 public totalETHFromParty; // \n\n    uint256 public faithRewardTotalAmount; // \n\n    mapping(uint256 => uint256) tokenFromParty; //token\n\n    mapping(uint256 => bool) public tokenTransfered; // Token\n\n    bool public firstParamInitialized;\n\n    // \n    /// @notice \n    /// @param _abcToken Token\n    constructor(\n        address _resonanceDataManageAddress,\n        ABCToken _abcToken,\n        address _fassionRewardAddress,\n        address _FOMORewardAddress,\n        address _luckyRewardAddress,\n        address _faithRewardAddress\n    )\n        public\n    {\n        resonanceDataManage = ResonanceDataManage(_resonanceDataManageAddress);\n        // \n        fissionRewardInstance = FissionReward(_fassionRewardAddress);\n        FOMORewardInstance = FOMOReward(_FOMORewardAddress);\n        luckyRewardInstance = LuckyReward(_luckyRewardAddress);\n        faithRewardInstance = FaithReward(_faithRewardAddress);\n        currentStep = 0;\n        abcToken = _abcToken; // abc Token\n    }\n\n\n    /// @notice \n    /// @dev ResonanceDataManage\n    function initParamForFirstStep(\n        address _newOwner,\n        address payable _beneficiary,\n        address _initialFissionPerson\n    )\n        public\n        onlyOwner()\n    {\n        require(!firstParamInitialized, \"\");\n        // \n        beneficiary = _beneficiary;\n        // \n        initialFissionPerson = _initialFissionPerson;\n        resonanceDataManage.setOpeningTime(block.timestamp); // \n        steps[currentStep].building.openTokenAmount = UintUtils.toWei(1500000); // Token\n        steps[currentStep].building.personalTokenLimited = steps[currentStep].building.openTokenAmount.mul(1).div(100);\n        // fundsPoolinitBuildingTokenAmount\n        resonanceDataManage.setParamForFirstStep();\n        // Token\n        resonanceDataManage.updateBuildingPercent(currentStep);\n        firstParamInitialized = true;\n        // \n        transferOwnership(_newOwner);\n    }\n\n    /// @notice \n    /// @param promoter \n    /// @dev TokenApprove\n    function toBeFissionPerson(\n        address promoter\n    )\n        public\n        returns(address, address)\n    {\n        require(resonanceDataManage.isBuildingPeriod(), \"\");\n        require(!resonanceDataManage.getCrowdsaleClosed(), \"\");\n\n        if(initialFissionPerson != promoter){\n            require(isBuilder[promoter],\"Builder\");\n        }\n\n        require(promoter != address(0), \"\");\n\n        // // \n        require(abcToken.allowance(msg.sender, address(this)) >= UintUtils.toWei(8),\"\");\n\n        require(abcToken.transferFrom(msg.sender,address(this), UintUtils.toWei(8)),\"token\");\n\n        // 3\n        abcToken.transfer(address(0), UintUtils.toWei(3));\n\n        // 5\n        abcToken.transfer(address(promoter), UintUtils.toWei(5));\n\n        steps[currentStep].funder[promoter].earnFromAff += UintUtils.toWei(5);\n\n        // \n        _addBuilder(promoter);\n\n        steps[currentStep].funder[promoter].invitees.push(msg.sender);\n\n        fissionRewardInstance.addAffman(currentStep, promoter, initialFissionPerson);\n\n        // emit ToBeFissionPerson(msg.sender, promoter);\n        return(msg.sender, promoter);\n    }\n\n    /// @notice \n    /// @dev \n    function setRaiseTarget(\n        uint256 _raiseTarget\n    )\n        public\n        onlyOwner()\n        returns(uint256, uint256)\n    {\n        require(resonanceDataManage.isBuildingPeriod(), \"\");\n        steps[currentStep].funding.raiseTarget = _raiseTarget;\n        // \n        steps[currentStep].softCap = steps[currentStep].funding.raiseTarget.mul(80).div(100);\n        steps[currentStep].hardCap = steps[currentStep].funding.raiseTarget;\n\n        // emit SetRaiseTarget(currentStep, _raiseTarget);\n        return(currentStep, _raiseTarget);\n    }\n\n    /// @notice \n    function getRaiseTarget(uint256 _stepIndex) public view returns(uint256) {\n        return steps[_stepIndex].funding.raiseTarget;\n    }\n\n    // token\n    function jointlyBuild(uint256 _tokenAmount) public {\n        require(resonanceDataManage.isBuildingPeriod(), \"\");\n\n        require(!resonanceDataManage.getCrowdsaleClosed(), \"\");\n\n        // builder\n        require(isBuilder[msg.sender], \"Builder\");\n\n        // \n        require(\n            steps[currentStep].building.raisedToken.add(_tokenAmount) <=\n            steps[currentStep].building.openTokenAmount.sub(resonanceDataManage.getBuildingTokenFromParty()),\n            \"\"\n        );\n\n        // \n        require(steps[currentStep].building.raisedToken.add(_tokenAmount) <= steps[currentStep].building.openTokenAmount, \"Token\");\n\n        // \n        require(\n            steps[currentStep].funder[msg.sender].tokenAmount.add(_tokenAmount) <= steps[currentStep].building.personalTokenLimited,\n            \"\"\n        );\n\n        // \n        require(abcToken.allowance(msg.sender, address(this)) >= _tokenAmount,\"\");\n\n        // \n        require(abcToken.transferFrom(msg.sender, address(this), _tokenAmount),\"token\");\n\n        steps[currentStep].funder[msg.sender].tokenAmount += _tokenAmount;\n\n        steps[currentStep].building.raisedTokenAmount += _tokenAmount;\n\n        // msg.sender\n        steps[currentStep].funder[steps[currentStep].funder[msg.sender].promoter].inviteesTotalAmount += _tokenAmount;\n\n        // Token\n        resonanceDataManage.setFundsPool(resonanceDataManage.getFundsPool() - _tokenAmount);\n\n        // \n        resonancesRasiedToken[msg.sender] += _tokenAmount;\n\n        // token\n        steps[currentStep].building.raisedToken += _tokenAmount;\n\n        emit currentStepRaisedToken(\n            steps[currentStep].building.raisedToken,\n            steps[currentStep].building.personalTokenLimited.sub(resonancesRasiedToken[msg.sender])\n        );\n    }\n\n    /// @notice Token\n    function transferToken() public payable onlyOwner() returns(bool){\n        require(!tokenTransfered[currentStep], \"Token\");\n\n        // \n        require(abcToken.allowance(msg.sender, address(this)) >= resonanceDataManage.getBuildingTokenFromParty(),\n            \"\"\n        );\n\n        // \n        require(abcToken.transferFrom(msg.sender, address(this), resonanceDataManage.getBuildingTokenFromParty()),\n            \"token\"\n        );\n\n        tokenTransfered[currentStep] = true;\n\n        return true;\n    }\n\n    /// @notice \n    function ()\n        external\n        payable\n    {\n        require(resonanceDataManage.isFundingPeriod(), \"\");\n\n        require(!resonanceDataManage.getCrowdsaleClosed(), \"\");\n\n        uint amount = msg.value;\n\n        // ETH\n        require(\n            msg.value.add(steps[currentStep].funding.raisedETH) <= steps[currentStep].funding.raiseTarget,\n            \"ETH\"\n        );\n\n        if(!steps[currentStep].funder[msg.sender].isFunder){\n            steps[currentStep].funders.push(msg.sender);\n        }\n\n        steps[currentStep].funder[msg.sender].ethAmount += amount;\n        steps[currentStep].funder[msg.sender].isFunder = true;\n        steps[currentStep].funding.raisedETH += amount;\n\n        resonances.push(msg.sender);\n        resonancesRasiedETH[msg.sender] += amount;\n\n        emit currentStepRaisedEther(steps[currentStep].funding.raisedETH, amount);\n    }\n\n    /// @notice \n    /// @dev \n    /// @param _fissionWinnerList \n    /// @param _LuckyWinnerList \n    function settlementStep(\n        address[] memory _fissionWinnerList,\n        address[] memory _LuckyWinnerList\n    )\n        public\n        onlyOwner()\n        returns(bool)\n    {\n        require(beneficiary != address(0), \"\");\n\n        uint256 totalTokenAmount = steps[currentStep].building.raisedToken.add(resonanceDataManage.getBuildingTokenFromParty());\n\n        ETHFromParty[currentStep] = steps[currentStep].funding.raisedETH\n            .mul(resonanceDataManage.getBuildingTokenFromParty())\n            .mul(40)\n            .div(totalTokenAmount)\n            .div(100);\n\n        // 12.5%\n        faithRewardTotalAmount += ETHFromParty[currentStep].mul(125).div(1000);\n        // FOMO\n        _settlementReward(_fissionWinnerList);\n        // \n        _settlementLuckyReward(_LuckyWinnerList);\n        // \n        resonanceDataManage.setETHBalance(\n            beneficiary,\n            resonanceDataManage.getETHBalance(beneficiary) + steps[currentStep].funding.raisedETH.mul(60).div(100)\n        );\n\n        // \n        _startNextStep();\n\n        return true;\n    }\n\n    /// @notice \n    /// @param _FaithWinnerList \n    function settlementFaithReward(\n        address[] memory _FaithWinnerList\n    )\n        public\n        onlyOwner()\n        returns(bool)\n    {\n        require(resonanceDataManage.getCrowdsaleClosed(), \"\");\n        return resonanceDataManage.dmSettlementFaithReward(\n            _FaithWinnerList,\n            faithRewardTotalAmount.mul(125).div(1000)\n        );\n    }\n\n    /// @notice FOMO\n    /// @dev ,\n    function _settlementReward(\n        address[] memory _fissionWinnerList\n    )\n        internal\n    {\n        require(!steps[currentStep].settlementFinished, \"\");\n        require(!steps[currentStep].stepIsClosed, \"\");\n\n        // \n        resonanceDataManage.settlementFissionReward(\n            currentStep,\n            _fissionWinnerList,\n            ETHFromParty[currentStep].mul(50).div(100)\n        );\n\n        // FOMO\n        if(steps[currentStep].funders.length > 0){\n            resonanceDataManage.settlementFOMOReward(\n                currentStep,\n                steps[currentStep].funders,\n                ETHFromParty[currentStep].mul(125).div(1000)\n            );\n        }else{\n            return;\n        }\n    }\n\n    /// @notice \n    function _settlementLuckyReward(\n        address[] memory _LuckyWinnerList\n    )\n        internal\n    {\n        resonanceDataManage.settlementLuckyReward(\n            currentStep,\n            _LuckyWinnerList,\n            ETHFromParty[currentStep].mul(25).div(100)\n        );\n    }\n\n    /// \n    function _startNextStep()\n        internal\n    {\n        // step\n        steps[currentStep].settlementFinished = true;\n        // \n        steps[currentStep].stepIsClosed = true;\n\n        // \n        if(!resonanceDataManage.crowdsaleIsClosed(currentStep, steps[currentStep].funding.raisedETH, steps[currentStep].softCap)) {\n            // \n            currentStep++;\n            // \n            resonanceDataManage.setOpeningTime(block.timestamp);\n            // Token\n            resonanceDataManage.updateBuildingPercent(currentStep);\n            // Token\n            steps[currentStep].building.openTokenAmount = resonanceDataManage.getBuildingTokenAmount();\n            // \n            steps[currentStep].building.personalTokenLimited = steps[currentStep].building.openTokenAmount.mul(1).div(100);\n        }else{\n            return;\n        }\n    }\n\n    /// @notice tokentoken\n    function withdrawAllToken()\n        public\n        payable\n        returns(address, address, uint256)\n    {\n        // \n        uint256 withdrawStep = currentStep.sub(1);\n\n        require(steps[withdrawStep].funder[msg.sender].isFunder, \"\");\n\n        require(!steps[withdrawStep].funder[msg.sender].tokenHasWithdrawn, \"token\");\n\n        require(steps[withdrawStep].funder[msg.sender].ethAmount > 0, \"Token\");\n\n        require(steps[withdrawStep].funding.raisedETH > 0, \"0ETH\");\n\n        // Token\n        //  = Token * ETH / ETH\n        uint256 withdrawAmount = steps[withdrawStep].building.raisedToken.\n            mul(steps[withdrawStep].funder[msg.sender].ethAmount).\n            div(steps[withdrawStep].funding.raisedETH);\n\n        resonanceDataManage.emptyTokenBalance(msg.sender);\n        steps[withdrawStep].funder[msg.sender].tokenHasWithdrawn = true;\n        abcToken.transfer(msg.sender, withdrawAmount);\n\n        return(address(this), msg.sender, withdrawAmount);\n    }\n\n    /// @notice (ETH)\n    function withdrawAllETH()\n        public\n        payable\n        returns(address, uint256)\n    {\n        address payable dest = address(uint160(msg.sender));\n\n        // require(!steps[currentStep].funder[msg.sender].ETHHasWithdrawn, \"ETH\");\n        uint256 withdrawAmount = resonanceDataManage.withdrawETHAmount(msg.sender);\n        resonanceDataManage.emptyETHBalance(msg.sender);\n        steps[currentStep].funder[msg.sender].ETHHasWithdrawn = true;\n\n        dest.transfer(withdrawAmount);\n\n        // emit WithdrawAllETH(msg.sender, withdrawAmount);\n        return(msg.sender, withdrawAmount);\n    }\n\n    /// @notice ETH\n    /// @dev ETH\n    function withdrawAllETHByOwner()\n        public\n        payable\n        onlyOwner()\n    {\n        beneficiary.transfer(address(this).balance);\n    }\n\n    /// @notice \n    function isFunder() public view returns(bool) {\n        return steps[currentStep].funder[msg.sender].isFunder;\n    }\n\n    /// @notice msg.senderfunder\n    function isFunderByStep(uint256 _stepIndex) public view returns(bool){\n        return steps[_stepIndex].funder[msg.sender].isFunder;\n    }\n\n    /// @notice funder\n    function getInvitees(address _funder) public view returns(address[] memory) {\n        return steps[currentStep].funder[_funder].invitees;\n    }\n\n    /// @notice \n    function getResonances()\n        public\n        view\n        onlyOwner()\n        returns(address[] memory)\n    {\n        // emit GetResonances(resonances);\n        return(resonances);\n    }\n\n    /// @notice ETH\n    function getFunderTotalRaised(address _funder) public view onlyOwner() returns(uint256){\n        // emit FunderTotalRaised(resonancesRasiedETH[_funder]);\n        return resonancesRasiedETH[_funder];\n    }\n\n    /// @notice funders\n    /// @dev funders\n    /// @param _stepIndex \n    function getStepFunders(uint256 _stepIndex)\n        public\n        view\n        onlyOwner()\n        returns\n    (\n        address[] memory,\n        uint256[] memory,\n        uint256[] memory,\n        uint256[] memory,\n        uint256[] memory,\n        uint256[] memory\n    )\n    {\n        address[] memory funderAddress;\n        uint256[] memory funderTokenAmount;\n        uint256[] memory funderETHAmount;\n        uint256[] memory funderInvitees;\n        uint256[] memory earnFromAff;\n        uint256[] memory inviteesTotalAmount;\n\n        funderAddress = new address[](steps[_stepIndex].funders.length);\n        funderTokenAmount = new uint256[](funderAddress.length);\n        funderETHAmount = new uint256[](funderAddress.length);\n        funderInvitees = new uint256[](funderAddress.length);\n        earnFromAff = new uint256[](funderAddress.length);\n        inviteesTotalAmount = new uint256[](funderAddress.length);\n\n        funderAddress = steps[_stepIndex].funders;\n\n        for(uint i = 0 ; i < funderAddress.length; i++){\n            funderTokenAmount[i] = steps[_stepIndex].funder[funderAddress[i]].tokenAmount;\n            funderETHAmount[i] = steps[_stepIndex].funder[funderAddress[i]].ethAmount;\n            funderInvitees[i] = steps[_stepIndex].funder[funderAddress[i]].invitees.length;\n            earnFromAff[i] = steps[currentStep].funder[funderAddress[i]].earnFromAff;\n            inviteesTotalAmount[i] = steps[currentStep].funder[funderAddress[i]].inviteesTotalAmount;\n        }\n\n        return (funderAddress, funderTokenAmount, funderETHAmount, funderInvitees, earnFromAff, inviteesTotalAmount);\n    }\n\n    /// @notice tokenETH\n    function getCurrentStepFundsInfo()\n        public\n        view\n        returns(uint256, uint256, uint256)\n    {\n        return(currentStep, steps[currentStep].building.openTokenAmount, steps[currentStep].funding.raisedETH);\n    }\n\n    /// @notice \n    function getBuildingPerioInfo()\n        public\n        view\n        returns(uint256, uint256, uint256, uint256)\n    {\n        uint256 _bpCountdown;\n        uint256 _remainingToken;\n        uint256 _personalTokenLimited;\n        uint256 _totalTokenAmount;\n\n        // TODO:\n        // 0\n        if((resonanceDataManage.getOpeningTime().add(30 minutes)).sub(block.timestamp) <= 0){\n            _bpCountdown = 0;\n        }else{\n            _bpCountdown = (resonanceDataManage.getOpeningTime().add(30 minutes)).sub(block.timestamp);\n        }\n        _remainingToken = steps[currentStep].building.openTokenAmount.\n            sub(steps[currentStep].building.raisedToken).\n            sub(resonanceDataManage.getBuildingTokenFromParty());\n\n        _personalTokenLimited = steps[currentStep].building.personalTokenLimited;\n        _totalTokenAmount = steps[currentStep].building.raisedTokenAmount;\n\n        return(_bpCountdown, _remainingToken, _personalTokenLimited, _totalTokenAmount);\n    }\n\n    // \n    function getFundingPeriodInfo()\n        public\n        view\n        returns(uint256, uint256, uint256)\n    {\n        uint256 _fpCountdown;\n        uint256 _remainingETH;\n        uint256 _rasiedETHAmount;\n\n        // TODO:\n        // 0\n        if((resonanceDataManage.getOpeningTime().add(1 hours)).sub(block.timestamp) <= 0){\n            _fpCountdown = 0;\n        }else{\n            _fpCountdown = (resonanceDataManage.getOpeningTime().add(1 hours)).sub(block.timestamp);\n        }\n        _remainingETH = steps[currentStep].funding.raiseTarget.sub(steps[currentStep].funding.raisedETH);\n        _rasiedETHAmount = steps[currentStep].funding.raisedETH;\n\n        return(_fpCountdown, _remainingETH, _rasiedETHAmount);\n    }\n\n    /// @notice Token\n    function _calculationWithdrawTokenAmount(uint256 _stepIndex) internal view returns(uint256){\n        return steps[_stepIndex].building.raisedToken.\n                mul(steps[_stepIndex].funder[msg.sender].ethAmount).\n                div(steps[_stepIndex].funding.raisedETH);\n    }\n\n    /// @notice \n    function getFunderInfo(\n        uint256 _stepIndex\n    )\n        public\n        view\n        returns\n    (\n        uint256,\n        uint256,\n        uint256,\n        uint256,\n        uint256,\n        uint256,\n        uint256,\n        uint256,\n        uint256,\n        uint256\n    )\n\n    {\n\n        uint256[] memory funderInfo = new uint256[](10);\n\n        Funder memory funder = steps[_stepIndex].funder[msg.sender];\n\n        // call \n        funderInfo[0] = _calculationWithdrawTokenAmount(_stepIndex);\n        funderInfo[1] = resonanceDataManage.getETHBalance(msg.sender);\n        funderInfo[2] = funder.invitees.length;\n        funderInfo[3] = funder.earnFromAff;\n        funderInfo[4] = funder.tokenAmount;\n        funderInfo[5] = funder.ethAmount;\n        funderInfo[6] = luckyRewardInstance.luckyFunderTotalBalance(msg.sender);\n        funderInfo[7] = fissionRewardInstance.fissionFunderTotalBalance(msg.sender);\n        funderInfo[8] = FOMORewardInstance.FOMOFunderTotalBalance(msg.sender);\n        funderInfo[9] = faithRewardInstance.faithRewardAmount(msg.sender);\n\n        return(\n            funderInfo[0],\n            funderInfo[1],\n            funderInfo[2],\n            funderInfo[3],\n            funderInfo[4],\n            funderInfo[5],\n            funderInfo[6],\n            funderInfo[7],\n            funderInfo[8],\n            funderInfo[9]\n        );\n    }\n\n    /// @notice \n    /// @param _promoter msg.sender\n    function _addBuilder(address _promoter) internal {\n        // \n        steps[currentStep].funder[msg.sender].funderAddr = msg.sender;\n        steps[currentStep].funder[msg.sender].promoter = _promoter;\n        isBuilder[msg.sender] = true;\n    }\n\n    /// @notice hash\n    function getBlockHash(uint256 _stepIndex) public view returns(bytes32) {\n        return blockhash(steps[_stepIndex].blockNumber+1);\n    }\n\n    /// @notice \n    function setBlockHash(uint256 _stepIndex) public returns(bool) {\n        if(steps[_stepIndex].blockNumber == 0){\n            steps[_stepIndex].blockNumber = block.number;\n            return true;\n        }else{\n            return false;\n        }\n    }\n\n    /// @notice \n    function currentStepIsClosed(uint256 _stepIndex) public view returns(bool) {\n        return steps[_stepIndex].stepIsClosed;\n    }\n\n    bool refundIsFinished;\n\n    /// @notice \n    /// @dev tokenETH\n    function refund() public onlyOwner() returns(bool){\n\n        // \n        require(!refundIsFinished, \"\");\n\n        // \n        uint256 resonanceClosedStep = resonanceDataManage.getResonanceClosedStep();\n        address[] memory funders = steps[resonanceClosedStep].funders;\n\n        // ETHToken\n        for(uint i = 0; i < funders.length; i++){\n            resonanceDataManage.setETHBalance(\n                funders[i],\n                resonanceDataManage.getETHBalance(funders[i]) + steps[resonanceClosedStep].funder[funders[i]].ethAmount\n            );\n\n            resonanceDataManage.setTokenBalance(\n                funders[i],\n                resonanceDataManage.getTokenBalance(funders[i]) + steps[resonanceClosedStep].funder[funders[i]].tokenAmount\n            );\n        }\n\n        refundIsFinished = true;\n\n        return refundIsFinished;\n    }\n\n}",
  "sourcePath": "/Users/a186r/dev/contracts/contract/contract/contracts/Resonance.sol",
  "compiler": {
    "name": "solc",
    "version": "0.5.2+commit.1df8f40c.Emscripten.clang"
  },
  "schemaVersion": "3.0.9",
  "updatedAt": "2019-06-01T07:46:46.068Z",
  "devdoc": {
    "methods": {
      "constructor": {
        "params": {
          "_abcToken": "Token"
        }
      },
      "getStepFunders(uint256)": {
        "details": "funders",
        "params": {
          "_stepIndex": ""
        }
      },
      "initParamForFirstStep(address,address,address)": {
        "details": "ResonanceDataManage"
      },
      "isOwner()": {
        "return": "true if `msg.sender` is the owner of the contract."
      },
      "owner()": {
        "return": "the address of the owner."
      },
      "refund()": {
        "details": "tokenETH"
      },
      "renounceOwnership()": {
        "details": "Allows the current owner to relinquish control of the contract. It will not be possible to call the functions with the `onlyOwner` modifier anymore."
      },
      "setRaiseTarget(uint256)": {
        "details": ""
      },
      "settlementFaithReward(address[])": {
        "params": {
          "_FaithWinnerList": ""
        }
      },
      "settlementStep(address[],address[])": {
        "details": "",
        "params": {
          "_LuckyWinnerList": "",
          "_fissionWinnerList": ""
        }
      },
      "toBeFissionPerson(address)": {
        "details": "TokenApprove",
        "params": {
          "promoter": ""
        }
      },
      "transferOwnership(address)": {
        "details": "Allows the current owner to transfer control of the contract to a newOwner.",
        "params": {
          "newOwner": "The address to transfer ownership to."
        }
      },
      "withdrawAllETHByOwner()": {
        "details": "ETH"
      }
    }
  },
  "userdoc": {
    "methods": {
      "constructor": "",
      "currentStepIsClosed(uint256)": {
        "notice": ""
      },
      "getBlockHash(uint256)": {
        "notice": "hash"
      },
      "getBuildingPerioInfo()": {
        "notice": ""
      },
      "getCurrentStepFundsInfo()": {
        "notice": "tokenETH"
      },
      "getFunderInfo(uint256)": {
        "notice": ""
      },
      "getFunderTotalRaised(address)": {
        "notice": "ETH"
      },
      "getInvitees(address)": {
        "notice": "funder"
      },
      "getRaiseTarget(uint256)": {
        "notice": ""
      },
      "getResonances()": {
        "notice": ""
      },
      "getStepFunders(uint256)": {
        "notice": "funders"
      },
      "initParamForFirstStep(address,address,address)": {
        "notice": ""
      },
      "isFunder()": {
        "notice": ""
      },
      "isFunderByStep(uint256)": {
        "notice": "msg.senderfunder"
      },
      "refund()": {
        "notice": ""
      },
      "renounceOwnership()": {
        "notice": "Renouncing ownership will leave the contract without an owner, thereby removing any functionality that is only available to the owner."
      },
      "setBlockHash(uint256)": {
        "notice": ""
      },
      "setRaiseTarget(uint256)": {
        "notice": ""
      },
      "settlementFaithReward(address[])": {
        "notice": ""
      },
      "settlementStep(address[],address[])": {
        "notice": ""
      },
      "toBeFissionPerson(address)": {
        "notice": ""
      },
      "transferToken()": {
        "notice": "Token"
      },
      "withdrawAllETH()": {
        "notice": "(ETH)"
      },
      "withdrawAllETHByOwner()": {
        "notice": "ETH"
      },
      "withdrawAllToken()": {
        "notice": "tokentoken"
      }
    }
  }
}