{
  "contractName": "Resonance",
  "abi": [
    {
      "constant": true,
      "inputs": [],
      "name": "beneficiary",
      "outputs": [
        {
          "name": "",
          "type": "address"
        }
      ],
      "payable": false,
      "stateMutability": "view",
      "type": "function"
    },
    {
      "constant": true,
      "inputs": [],
      "name": "faithRewardTotalAmount",
      "outputs": [
        {
          "name": "",
          "type": "uint256"
        }
      ],
      "payable": false,
      "stateMutability": "view",
      "type": "function"
    },
    {
      "constant": true,
      "inputs": [],
      "name": "currentStep",
      "outputs": [
        {
          "name": "",
          "type": "uint256"
        }
      ],
      "payable": false,
      "stateMutability": "view",
      "type": "function"
    },
    {
      "constant": false,
      "inputs": [],
      "name": "renounceOwnership",
      "outputs": [],
      "payable": false,
      "stateMutability": "nonpayable",
      "type": "function"
    },
    {
      "constant": true,
      "inputs": [],
      "name": "owner",
      "outputs": [
        {
          "name": "",
          "type": "address"
        }
      ],
      "payable": false,
      "stateMutability": "view",
      "type": "function"
    },
    {
      "constant": true,
      "inputs": [],
      "name": "isOwner",
      "outputs": [
        {
          "name": "",
          "type": "bool"
        }
      ],
      "payable": false,
      "stateMutability": "view",
      "type": "function"
    },
    {
      "constant": true,
      "inputs": [],
      "name": "initialFissionPerson",
      "outputs": [
        {
          "name": "",
          "type": "address"
        }
      ],
      "payable": false,
      "stateMutability": "view",
      "type": "function"
    },
    {
      "constant": true,
      "inputs": [],
      "name": "totalETHFromParty",
      "outputs": [
        {
          "name": "",
          "type": "uint256"
        }
      ],
      "payable": false,
      "stateMutability": "view",
      "type": "function"
    },
    {
      "constant": true,
      "inputs": [
        {
          "name": "",
          "type": "address"
        }
      ],
      "name": "isBuilder",
      "outputs": [
        {
          "name": "",
          "type": "bool"
        }
      ],
      "payable": false,
      "stateMutability": "view",
      "type": "function"
    },
    {
      "constant": true,
      "inputs": [],
      "name": "firstParamInitialized",
      "outputs": [
        {
          "name": "",
          "type": "bool"
        }
      ],
      "payable": false,
      "stateMutability": "view",
      "type": "function"
    },
    {
      "constant": true,
      "inputs": [
        {
          "name": "",
          "type": "uint256"
        }
      ],
      "name": "tokenTransfered",
      "outputs": [
        {
          "name": "",
          "type": "bool"
        }
      ],
      "payable": false,
      "stateMutability": "view",
      "type": "function"
    },
    {
      "constant": true,
      "inputs": [],
      "name": "abcToken",
      "outputs": [
        {
          "name": "",
          "type": "address"
        }
      ],
      "payable": false,
      "stateMutability": "view",
      "type": "function"
    },
    {
      "constant": false,
      "inputs": [
        {
          "name": "newOwner",
          "type": "address"
        }
      ],
      "name": "transferOwnership",
      "outputs": [],
      "payable": false,
      "stateMutability": "nonpayable",
      "type": "function"
    },
    {
      "inputs": [
        {
          "name": "_resonanceDataManageAddress",
          "type": "address"
        },
        {
          "name": "_abcToken",
          "type": "address"
        },
        {
          "name": "_fassionRewardAddress",
          "type": "address"
        },
        {
          "name": "_FOMORewardAddress",
          "type": "address"
        },
        {
          "name": "_luckyRewardAddress",
          "type": "address"
        },
        {
          "name": "_faithRewardAddress",
          "type": "address"
        }
      ],
      "payable": false,
      "stateMutability": "nonpayable",
      "type": "constructor"
    },
    {
      "payable": true,
      "stateMutability": "payable",
      "type": "fallback"
    },
    {
      "anonymous": false,
      "inputs": [
        {
          "indexed": true,
          "name": "fissionPerson",
          "type": "address"
        },
        {
          "indexed": true,
          "name": "promoter",
          "type": "address"
        }
      ],
      "name": "ToBeFissionPerson",
      "type": "event"
    },
    {
      "anonymous": false,
      "inputs": [
        {
          "indexed": false,
          "name": "currentStepTokenAmount",
          "type": "uint256"
        },
        {
          "indexed": false,
          "name": "currentStepRaisedETH",
          "type": "uint256"
        }
      ],
      "name": "FundsInfo",
      "type": "event"
    },
    {
      "anonymous": false,
      "inputs": [
        {
          "indexed": false,
          "name": "bpCountdown",
          "type": "uint256"
        },
        {
          "indexed": false,
          "name": "remainingToken",
          "type": "uint256"
        },
        {
          "indexed": false,
          "name": "personalTokenLimited",
          "type": "uint256"
        },
        {
          "indexed": false,
          "name": "totalTokenAmount",
          "type": "uint256"
        }
      ],
      "name": "BuildingPerioInfo",
      "type": "event"
    },
    {
      "anonymous": false,
      "inputs": [
        {
          "indexed": false,
          "name": "fpCountdown",
          "type": "uint256"
        },
        {
          "indexed": false,
          "name": "remainingETH",
          "type": "uint256"
        },
        {
          "indexed": false,
          "name": "rasiedETHAmount",
          "type": "uint256"
        }
      ],
      "name": "FundingPeriodInfo",
      "type": "event"
    },
    {
      "anonymous": false,
      "inputs": [
        {
          "indexed": false,
          "name": "fissionRewardList",
          "type": "address[]"
        },
        {
          "indexed": false,
          "name": "fissionRewardAmount",
          "type": "uint256[]"
        }
      ],
      "name": "FissionRewardInfo",
      "type": "event"
    },
    {
      "anonymous": false,
      "inputs": [
        {
          "indexed": false,
          "name": "FOMORewardList",
          "type": "address[]"
        },
        {
          "indexed": false,
          "name": "FOMORewards",
          "type": "uint256[]"
        }
      ],
      "name": "FOMORewardInfo",
      "type": "event"
    },
    {
      "anonymous": false,
      "inputs": [
        {
          "indexed": false,
          "name": "luckyRewardList",
          "type": "address[]"
        },
        {
          "indexed": false,
          "name": "luckyReward",
          "type": "uint256"
        }
      ],
      "name": "LuckyRewardInfo",
      "type": "event"
    },
    {
      "anonymous": false,
      "inputs": [
        {
          "indexed": false,
          "name": "faithRewardList",
          "type": "address[]"
        },
        {
          "indexed": false,
          "name": "faithRewardAmount",
          "type": "uint256[]"
        }
      ],
      "name": "FaithRewardInfo",
      "type": "event"
    },
    {
      "anonymous": false,
      "inputs": [
        {
          "indexed": false,
          "name": "addr",
          "type": "address"
        },
        {
          "indexed": false,
          "name": "ETHAmount",
          "type": "uint256"
        }
      ],
      "name": "WithdrawAllETH",
      "type": "event"
    },
    {
      "anonymous": false,
      "inputs": [
        {
          "indexed": false,
          "name": "from",
          "type": "address"
        },
        {
          "indexed": false,
          "name": "to",
          "type": "address"
        },
        {
          "indexed": false,
          "name": "tokenAmount",
          "type": "uint256"
        }
      ],
      "name": "WithdrawAllToken",
      "type": "event"
    },
    {
      "anonymous": false,
      "inputs": [
        {
          "indexed": false,
          "name": "FunderInfoArray",
          "type": "uint256[]"
        }
      ],
      "name": "FunderInfo",
      "type": "event"
    },
    {
      "anonymous": false,
      "inputs": [
        {
          "indexed": false,
          "name": "funderAddress",
          "type": "address[]"
        },
        {
          "indexed": false,
          "name": "funderTokenAmount",
          "type": "uint256[]"
        },
        {
          "indexed": false,
          "name": "funderETHAmount",
          "type": "uint256[]"
        },
        {
          "indexed": false,
          "name": "funderInvitees",
          "type": "uint256[]"
        },
        {
          "indexed": false,
          "name": "funderEarnFromAff",
          "type": "uint256[]"
        }
      ],
      "name": "StepFunders",
      "type": "event"
    },
    {
      "anonymous": false,
      "inputs": [
        {
          "indexed": false,
          "name": "stepIndex",
          "type": "uint256"
        }
      ],
      "name": "SettlementStep",
      "type": "event"
    },
    {
      "anonymous": false,
      "inputs": [
        {
          "indexed": false,
          "name": "stepIndex",
          "type": "uint256"
        }
      ],
      "name": "StartNextStep",
      "type": "event"
    },
    {
      "anonymous": false,
      "inputs": [
        {
          "indexed": false,
          "name": "stepIndex",
          "type": "uint256"
        },
        {
          "indexed": false,
          "name": "raiseTarget",
          "type": "uint256"
        }
      ],
      "name": "SetRaiseTarget",
      "type": "event"
    },
    {
      "anonymous": false,
      "inputs": [
        {
          "indexed": false,
          "name": "resonances",
          "type": "address[]"
        }
      ],
      "name": "GetResonances",
      "type": "event"
    },
    {
      "anonymous": false,
      "inputs": [
        {
          "indexed": false,
          "name": "resonancesRasiedETH",
          "type": "uint256"
        }
      ],
      "name": "FunderTotalRaised",
      "type": "event"
    },
    {
      "anonymous": false,
      "inputs": [
        {
          "indexed": false,
          "name": "raisedETHAmount",
          "type": "uint256"
        },
        {
          "indexed": false,
          "name": "nowRaisedEther",
          "type": "uint256"
        },
        {
          "indexed": false,
          "name": "totalRemainingEther",
          "type": "uint256"
        }
      ],
      "name": "currentStepRaisedEther",
      "type": "event"
    },
    {
      "anonymous": false,
      "inputs": [
        {
          "indexed": false,
          "name": "raisedTokenAmount",
          "type": "uint256"
        },
        {
          "indexed": false,
          "name": "remainingTokenForPersonal",
          "type": "uint256"
        },
        {
          "indexed": false,
          "name": "totalRemainingToken",
          "type": "uint256"
        }
      ],
      "name": "currentStepRaisedToken",
      "type": "event"
    },
    {
      "anonymous": false,
      "inputs": [
        {
          "indexed": true,
          "name": "previousOwner",
          "type": "address"
        },
        {
          "indexed": true,
          "name": "newOwner",
          "type": "address"
        }
      ],
      "name": "OwnershipTransferred",
      "type": "event"
    },
    {
      "constant": false,
      "inputs": [
        {
          "name": "_newOwner",
          "type": "address"
        },
        {
          "name": "_beneficiary",
          "type": "address"
        },
        {
          "name": "_initialFissionPerson",
          "type": "address"
        }
      ],
      "name": "initParamForFirstStep",
      "outputs": [],
      "payable": false,
      "stateMutability": "nonpayable",
      "type": "function"
    },
    {
      "constant": false,
      "inputs": [
        {
          "name": "promoter",
          "type": "address"
        }
      ],
      "name": "toBeFissionPerson",
      "outputs": [
        {
          "name": "",
          "type": "address"
        },
        {
          "name": "",
          "type": "address"
        }
      ],
      "payable": false,
      "stateMutability": "nonpayable",
      "type": "function"
    },
    {
      "constant": false,
      "inputs": [
        {
          "name": "_raiseTarget",
          "type": "uint256"
        }
      ],
      "name": "setRaiseTarget",
      "outputs": [
        {
          "name": "",
          "type": "uint256"
        },
        {
          "name": "",
          "type": "uint256"
        }
      ],
      "payable": false,
      "stateMutability": "nonpayable",
      "type": "function"
    },
    {
      "constant": true,
      "inputs": [
        {
          "name": "_stepIndex",
          "type": "uint256"
        }
      ],
      "name": "getRaiseTarget",
      "outputs": [
        {
          "name": "",
          "type": "uint256"
        }
      ],
      "payable": false,
      "stateMutability": "view",
      "type": "function"
    },
    {
      "constant": false,
      "inputs": [
        {
          "name": "_tokenAmount",
          "type": "uint256"
        }
      ],
      "name": "jointlyBuild",
      "outputs": [],
      "payable": false,
      "stateMutability": "nonpayable",
      "type": "function"
    },
    {
      "constant": false,
      "inputs": [],
      "name": "transferToken",
      "outputs": [
        {
          "name": "",
          "type": "bool"
        }
      ],
      "payable": true,
      "stateMutability": "payable",
      "type": "function"
    },
    {
      "constant": false,
      "inputs": [
        {
          "name": "_fissionWinnerList",
          "type": "address[]"
        },
        {
          "name": "_LuckyWinnerList",
          "type": "address[]"
        }
      ],
      "name": "settlementStep",
      "outputs": [
        {
          "name": "",
          "type": "bool"
        }
      ],
      "payable": false,
      "stateMutability": "nonpayable",
      "type": "function"
    },
    {
      "constant": false,
      "inputs": [
        {
          "name": "_FaithWinnerList",
          "type": "address[]"
        }
      ],
      "name": "settlementFaithReward",
      "outputs": [
        {
          "name": "",
          "type": "bool"
        }
      ],
      "payable": false,
      "stateMutability": "nonpayable",
      "type": "function"
    },
    {
      "constant": false,
      "inputs": [],
      "name": "withdrawAllToken",
      "outputs": [
        {
          "name": "",
          "type": "address"
        },
        {
          "name": "",
          "type": "address"
        },
        {
          "name": "",
          "type": "uint256"
        }
      ],
      "payable": true,
      "stateMutability": "payable",
      "type": "function"
    },
    {
      "constant": false,
      "inputs": [],
      "name": "withdrawAllETH",
      "outputs": [
        {
          "name": "",
          "type": "address"
        },
        {
          "name": "",
          "type": "uint256"
        }
      ],
      "payable": true,
      "stateMutability": "payable",
      "type": "function"
    },
    {
      "constant": false,
      "inputs": [],
      "name": "withdrawAllETHByOwner",
      "outputs": [],
      "payable": true,
      "stateMutability": "payable",
      "type": "function"
    },
    {
      "constant": true,
      "inputs": [],
      "name": "isFunder",
      "outputs": [
        {
          "name": "",
          "type": "bool"
        }
      ],
      "payable": false,
      "stateMutability": "view",
      "type": "function"
    },
    {
      "constant": true,
      "inputs": [
        {
          "name": "_stepIndex",
          "type": "uint256"
        }
      ],
      "name": "isFunderByStep",
      "outputs": [
        {
          "name": "",
          "type": "bool"
        }
      ],
      "payable": false,
      "stateMutability": "view",
      "type": "function"
    },
    {
      "constant": true,
      "inputs": [
        {
          "name": "_funder",
          "type": "address"
        }
      ],
      "name": "getInvitees",
      "outputs": [
        {
          "name": "",
          "type": "address[]"
        }
      ],
      "payable": false,
      "stateMutability": "view",
      "type": "function"
    },
    {
      "constant": true,
      "inputs": [],
      "name": "getResonances",
      "outputs": [
        {
          "name": "",
          "type": "address[]"
        }
      ],
      "payable": false,
      "stateMutability": "view",
      "type": "function"
    },
    {
      "constant": true,
      "inputs": [
        {
          "name": "_funder",
          "type": "address"
        }
      ],
      "name": "getFunderTotalRaised",
      "outputs": [
        {
          "name": "",
          "type": "uint256"
        }
      ],
      "payable": false,
      "stateMutability": "view",
      "type": "function"
    },
    {
      "constant": true,
      "inputs": [
        {
          "name": "_stepIndex",
          "type": "uint256"
        }
      ],
      "name": "getStepFunders",
      "outputs": [
        {
          "name": "",
          "type": "address[]"
        },
        {
          "name": "",
          "type": "uint256[]"
        },
        {
          "name": "",
          "type": "uint256[]"
        },
        {
          "name": "",
          "type": "uint256[]"
        },
        {
          "name": "",
          "type": "uint256[]"
        },
        {
          "name": "",
          "type": "uint256[]"
        }
      ],
      "payable": false,
      "stateMutability": "view",
      "type": "function"
    },
    {
      "constant": true,
      "inputs": [],
      "name": "getCurrentStepFundsInfo",
      "outputs": [
        {
          "name": "",
          "type": "uint256"
        },
        {
          "name": "",
          "type": "uint256"
        },
        {
          "name": "",
          "type": "uint256"
        }
      ],
      "payable": false,
      "stateMutability": "view",
      "type": "function"
    },
    {
      "constant": true,
      "inputs": [],
      "name": "getBuildingPerioInfo",
      "outputs": [
        {
          "name": "",
          "type": "uint256"
        },
        {
          "name": "",
          "type": "uint256"
        },
        {
          "name": "",
          "type": "uint256"
        },
        {
          "name": "",
          "type": "uint256"
        }
      ],
      "payable": false,
      "stateMutability": "view",
      "type": "function"
    },
    {
      "constant": true,
      "inputs": [],
      "name": "getFundingPeriodInfo",
      "outputs": [
        {
          "name": "",
          "type": "uint256"
        },
        {
          "name": "",
          "type": "uint256"
        },
        {
          "name": "",
          "type": "uint256"
        }
      ],
      "payable": false,
      "stateMutability": "view",
      "type": "function"
    },
    {
      "constant": true,
      "inputs": [],
      "name": "getFunderRewardInfo",
      "outputs": [
        {
          "name": "",
          "type": "uint256"
        },
        {
          "name": "",
          "type": "uint256"
        },
        {
          "name": "",
          "type": "uint256"
        },
        {
          "name": "",
          "type": "uint256"
        }
      ],
      "payable": false,
      "stateMutability": "view",
      "type": "function"
    },
    {
      "constant": true,
      "inputs": [],
      "name": "getFunderAffInfo",
      "outputs": [
        {
          "name": "",
          "type": "uint256"
        },
        {
          "name": "",
          "type": "uint256"
        }
      ],
      "payable": false,
      "stateMutability": "view",
      "type": "function"
    },
    {
      "constant": true,
      "inputs": [
        {
          "name": "_stepIndex",
          "type": "uint256"
        }
      ],
      "name": "getFunderFundsByStep",
      "outputs": [
        {
          "name": "",
          "type": "uint256"
        },
        {
          "name": "",
          "type": "uint256"
        },
        {
          "name": "",
          "type": "uint256"
        },
        {
          "name": "",
          "type": "uint256"
        }
      ],
      "payable": false,
      "stateMutability": "view",
      "type": "function"
    },
    {
      "constant": true,
      "inputs": [
        {
          "name": "_stepIndex",
          "type": "uint256"
        }
      ],
      "name": "getBlockHash",
      "outputs": [
        {
          "name": "",
          "type": "bytes32"
        }
      ],
      "payable": false,
      "stateMutability": "view",
      "type": "function"
    },
    {
      "constant": false,
      "inputs": [
        {
          "name": "_stepIndex",
          "type": "uint256"
        }
      ],
      "name": "setBlockHash",
      "outputs": [
        {
          "name": "",
          "type": "bool"
        }
      ],
      "payable": false,
      "stateMutability": "nonpayable",
      "type": "function"
    },
    {
      "constant": true,
      "inputs": [
        {
          "name": "_stepIndex",
          "type": "uint256"
        }
      ],
      "name": "currentStepIsClosed",
      "outputs": [
        {
          "name": "",
          "type": "bool"
        }
      ],
      "payable": false,
      "stateMutability": "view",
      "type": "function"
    },
    {
      "constant": false,
      "inputs": [],
      "name": "refund",
      "outputs": [
        {
          "name": "",
          "type": "bool"
        }
      ],
      "payable": false,
      "stateMutability": "nonpayable",
      "type": "function"
    }
  ],
  "bytecode": "0x608060405234801561001057600080fd5b5060405160c0806200510a833981018060405260c081101561003157600080fd5b50805160208201516040808401516060850151608086015160a09096015160008054600160a060020a03191633178082559451969795969395929492939192600160a060020a0316917f8be0079c531659141344cd1fd0a4f28419497f9722a3daafe3b4186f6b6457e0908290a360028054600160a060020a03978816600160a060020a0319918216179091556009805495881695821695909517909455600a805493871693851693909317909255600b8054918616918416919091179055600c8054918516918316919091179055600060105560018054929093169116179055614fe880620001226000396000f3fe60806040526004361061023f5760003560e060020a900480639642a86b11610132578063db27cf61116100af578063e757412811610073578063e757412814610f05578063e9881a5e14610f1a578063ee82ac5e14610f4d578063f2fde38b14610f77578063feaec77514610faa5761023f565b8063db27cf6114610e10578063dbac3c9614610e3a578063de3844ff14610e4f578063de45dbd514610ea8578063e15ce92714610ed25761023f565b8063b6b6b475116100f6578063b6b6b47514610d59578063c12cd1bc14610d8c578063c27438ac14610da1578063c2cb21ba14610db6578063d50cf02d14610dcb5761023f565b80639642a86b14610bb4578063a41e5bff14610bc9578063b4862a7114610bf3578063b4c0698214610c1d578063b5ac72b514610c255761023f565b80635deac38b116101c05780638da5cb5b116101845780638da5cb5b14610b175780638f32d59b14610b2c57806390386bbf14610b4157806390fa85f814610b6c578063912c84ec14610b815761023f565b80635deac38b146109ce57806364ab07fa14610a7e578063715018a614610a93578063799a535914610aaa578063891d7e7914610ab25761023f565b80634c090a97116102075780634c090a9714610915578063508bf76b1461095357806356d1121a1461097a578063590e1ae3146109a45780635bc34f71146109b95761023f565b80630d3a55ee1461064857806314870d2c1461069857806316b29746146106ca57806338af3eed146108a15780634559ff9b146108d2575b600260009054906101000a9004600160a060020a0316600160a060020a03166374ebae066040518163ffffffff1660e060020a02815260040160206040518083038186803b15801561029057600080fd5b505afa1580156102a4573d6000803e3d6000fd5b505050506040513d60208110156102ba57600080fd5b50511515610312576040805160e560020a62461bcd02815260206004820152601260248201527fe4b88de59ca8e58b9fe8b584e69c9fe586850000000000000000000000000000604482015290519081900360640190fd5b600260009054906101000a9004600160a060020a0316600160a060020a031663743acbab6040518163ffffffff1660e060020a02815260040160206040518083038186803b15801561036357600080fd5b505afa158015610377573d6000803e3d6000fd5b505050506040513d602081101561038d57600080fd5b5051156103e4576040805160e560020a62461bcd02815260206004820152601260248201527fe585b1e68cafe5b7b2e7bb8fe7bb93e69d9f0000000000000000000000000000604482015290519081900360640190fd5b6010546000908152601160205260409020600681015460079091015434919061041490839063ffffffff610fbf16565b11156104545760405160e560020a62461bcd028152600401808060200182810382526024815260200180614f116024913960400191505060405180910390fd5b601054600090815260116020908152604080832033845290915290206003015460a060020a900460ff1615156104b9576010546000908152601160209081526040822060019081018054918201815583529120018054600160a060020a031916331790555b6008805460018181019092557ff3f7a9fe364faab93b216da50a3214154f22a0a2b415b23a84c8169e8b636ee3018054600160a060020a031990811633908117909255601080546000908152601160208181526040808420878552825280842060020180548a0190558454845282825280842087855282528084206003908101805474ff0000000000000000000000000000000000000000191660a060020a17905585548552838352818520600790810180548c01905586548652828620898752845282862090910154600160a060020a0316855280835281852080548b019055600d8054998a0190557fd7b6990105719101dabeb77144f2a3385c8033acd3af97e9423a695e81ad1eb590980180549096168717909555948252600e85528382208054880190559154815292529020908101546009909101547f7d1cfe07223bbd14a8ce463bdbce6653a12b4514a78bbaebade93333b78d6e2291908390610628908363ffffffff610fda16565b60408051938452602084019290925282820152519081900360600190a150005b34801561065457600080fd5b506106726004803603602081101561066b57600080fd5b5035610fef565b604080519485526020850193909352838301919091526060830152519081900360800190f35b6106a0611175565b60408051600160a060020a0394851681529290931660208301528183015290519081900360600190f35b3480156106d657600080fd5b506106f4600480360360208110156106ed57600080fd5b50356114e7565b6040518080602001806020018060200180602001806020018060200187810387528d818151815260200191508051906020019060200280838360005b83811015610748578181015183820152602001610730565b5050505090500187810386528c818151815260200191508051906020019060200280838360005b8381101561078757818101518382015260200161076f565b5050505090500187810385528b818151815260200191508051906020019060200280838360005b838110156107c65781810151838201526020016107ae565b5050505090500187810384528a818151815260200191508051906020019060200280838360005b838110156108055781810151838201526020016107ed565b50505050905001878103835289818151815260200191508051906020019060200280838360005b8381101561084457818101518382015260200161082c565b50505050905001878103825288818151815260200191508051906020019060200280838360005b8381101561088357818101518382015260200161086b565b505050509050019c5050505050505050505050505060405180910390f35b3480156108ad57600080fd5b506108b6611898565b60408051600160a060020a039092168252519081900360200190f35b3480156108de57600080fd5b506108fc600480360360208110156108f557600080fd5b50356118a7565b6040805192835260208301919091528051918290030190f35b34801561092157600080fd5b5061093f6004803603602081101561093857600080fd5b50356119ff565b604080519115158252519081900360200190f35b34801561095f57600080fd5b50610968611a2c565b60408051918252519081900360200190f35b34801561098657600080fd5b5061093f6004803603602081101561099d57600080fd5b5035611a32565b3480156109b057600080fd5b5061093f611a4f565b3480156109c557600080fd5b50610968611f04565b3480156109da57600080fd5b5061093f600480360360208110156109f157600080fd5b810190602081018135640100000000811115610a0c57600080fd5b820183602082011115610a1e57600080fd5b80359060200191846020830284011164010000000083111715610a4057600080fd5b919080806020026020016040519081016040528093929190818152602001838360200280828437600092019190915250929550611f0a945050505050565b348015610a8a57600080fd5b506106726120d1565b348015610a9f57600080fd5b50610aa86122ce565b005b61093f61232b565b348015610abe57600080fd5b50610ac7612691565b60408051602080825283518183015283519192839290830191858101910280838360005b83811015610b03578181015183820152602001610aeb565b505050509050019250505060405180910390f35b348015610b2357600080fd5b506108b6612706565b348015610b3857600080fd5b5061093f612715565b610b49612726565b60408051600160a060020a03909316835260208301919091528051918290030190f35b348015610b7857600080fd5b506108b66128d4565b348015610b8d57600080fd5b50610b966128e3565b60408051938452602084019290925282820152519081900360600190f35b348015610bc057600080fd5b50610968612904565b348015610bd557600080fd5b5061093f60048036036020811015610bec57600080fd5b503561290a565b348015610bff57600080fd5b50610aa860048036036020811015610c1657600080fd5b5035612947565b610aa861310a565b348015610c3157600080fd5b5061093f60048036036040811015610c4857600080fd5b810190602081018135640100000000811115610c6357600080fd5b820183602082011115610c7557600080fd5b80359060200191846020830284011164010000000083111715610c9757600080fd5b9190808060200260200160405190810160405280939291908181526020018383602002808284376000920191909152509295949360208101935035915050640100000000811115610ce757600080fd5b820183602082011115610cf957600080fd5b80359060200191846020830284011164010000000083111715610d1b57600080fd5b91908080602002602001604051908101604052809392919081815260200183836020028082843760009201919091525092955061315a945050505050565b348015610d6557600080fd5b5061093f60048036036020811015610d7c57600080fd5b5035600160a060020a03166134bd565b348015610d9857600080fd5b50610b966134d2565b348015610dad57600080fd5b506108fc6135f3565b348015610dc257600080fd5b5061093f613613565b348015610dd757600080fd5b50610aa860048036036060811015610dee57600080fd5b50600160a060020a03813581169160208101358216916040909101351661361c565b348015610e1c57600080fd5b5061096860048036036020811015610e3357600080fd5b503561390e565b348015610e4657600080fd5b50610672613923565b348015610e5b57600080fd5b50610e8260048036036020811015610e7257600080fd5b5035600160a060020a0316613b77565b60408051600160a060020a03938416815291909216602082015281519081900390910190f35b348015610eb457600080fd5b5061093f60048036036020811015610ecb57600080fd5b5035614478565b348015610ede57600080fd5b5061096860048036036020811015610ef557600080fd5b5035600160a060020a031661448d565b348015610f1157600080fd5b506108b66144be565b348015610f2657600080fd5b50610ac760048036036020811015610f3d57600080fd5b5035600160a060020a03166144cd565b348015610f5957600080fd5b5061096860048036036020811015610f7057600080fd5b5035614543565b348015610f8357600080fd5b50610aa860048036036020811015610f9a57600080fd5b5035600160a060020a031661455c565b348015610fb657600080fd5b5061093f614578565b600082820183811015610fd157600080fd5b90505b92915050565b600082821115610fe957600080fd5b50900390565b600080600080610ffd614da5565b5060008581526011602090815260408083203384528252918290208251610120810184528154600160a060020a0390811682526001830154938201939093526002820154938101939093526003810154918216606084015260ff60a060020a8304811615156080850152750100000000000000000000000000000000000000000083048116151560a0850152760100000000000000000000000000000000000000000000909204909116151560c0830152600481015460e0830152600501546101008201526110cb866145a5565b600254604080517f3bb66a7b0000000000000000000000000000000000000000000000000000000081523360048201529051600160a060020a0390921691633bb66a7b91602480820192602092909190829003018186803b15801561112f57600080fd5b505afa158015611143573d6000803e3d6000fd5b505050506040513d602081101561115957600080fd5b5051602083015160409093015191989097509195509350915050565b6000806000806111916001601054610fda90919063ffffffff16565b600081815260116020908152604080832033845290915290206003015490915060a060020a900460ff1615156111fb5760405160e560020a62461bcd02815260040180806020018281038252602a815260200180614e40602a913960400191505060405180910390fd5b60008181526011602090815260408083203384529091529020600301547501000000000000000000000000000000000000000000900460ff16156112735760405160e560020a62461bcd02815260040180806020018281038252602c815260200180614f65602c913960400191505060405180910390fd5b6000818152601160209081526040808320338452909152812060020154116112cf5760405160e560020a62461bcd028152600401808060200182810382526035815260200180614edc6035913960400191505060405180910390fd5b600081815260116020526040812060070154116113205760405160e560020a62461bcd028152600401808060200182810382526025815260200180614eb76025913960400191505060405180910390fd5b60008181526011602081815260408084206007810154338652818452918520600201548686529390925260049091015461137092611364919063ffffffff6145e916565b9063ffffffff61461416565b600254604080517f430c67c40000000000000000000000000000000000000000000000000000000081523360048201529051929350600160a060020a039091169163430c67c49160248082019260009290919082900301818387803b1580156113d857600080fd5b505af11580156113ec573d6000803e3d6000fd5b505050600083815260116020908152604080832033808552908352818420600301805475ff0000000000000000000000000000000000000000001916750100000000000000000000000000000000000000000017905560015482517fa9059cbb0000000000000000000000000000000000000000000000000000000081526004810192909252602482018790529151600160a060020a0392909216945063a9059cbb9360448083019493928390030190829087803b1580156114ad57600080fd5b505af11580156114c1573d6000803e3d6000fd5b505050506040513d60208110156114d757600080fd5b5030963396509194509092505050565b6060806060806060806114f8612715565b151561150357600080fd5b606080606080606080601160008e81526020019081526020016000206001018054905060405190808252806020026020018201604052801561154f578160200160208202803883390190505b509550855160405190808252806020026020018201604052801561157d578160200160208202803883390190505b50945085516040519080825280602002602001820160405280156115ab578160200160208202803883390190505b50935085516040519080825280602002602001820160405280156115d9578160200160208202803883390190505b5092508551604051908082528060200260200182016040528015611607578160200160208202803883390190505b5091508551604051908082528060200260200182016040528015611635578160200160208202803883390190505b5060008e815260116020908152604091829020600101805483518184028101840190945280845293945091929083018282801561169b57602002820191906000526020600020905b8154600160a060020a0316815260019091019060200180831161167d575b50939950600093505050505b86518110156118835760008e815260116020526040812088519091908990849081106116cf57fe5b90602001906020020151600160a060020a0316600160a060020a0316815260200190815260200160002060010154868281518110151561170b57fe5b602090810290910181019190915260008f8152601190915260408120885190919089908490811061173857fe5b90602001906020020151600160a060020a0316600160a060020a0316815260200190815260200160002060020154858281518110151561177457fe5b60209081029091010152865160059060009089908490811061179257fe5b6020908102909101810151600160a060020a031682528101919091526040016000205484518590839081106117c357fe5b6020908102909101015286516006906000908990849081106117e157fe5b90602001906020020151600160a060020a0316600160a060020a0316815260200190815260200160002054838281518110151561181a57fe5b60209081029091010152865160079060009089908490811061183857fe5b90602001906020020151600160a060020a0316600160a060020a0316815260200190815260200160002054828281518110151561187157fe5b602090810290910101526001016116a7565b50949c939b5091995097509550909350915050565b600354600160a060020a031681565b6000806118b2612715565b15156118bd57600080fd5b600260009054906101000a9004600160a060020a0316600160a060020a03166325d8e97f6040518163ffffffff1660e060020a02815260040160206040518083038186803b15801561190e57600080fd5b505afa158015611922573d6000803e3d6000fd5b505050506040513d602081101561193857600080fd5b50511515611990576040805160e560020a62461bcd02815260206004820152601260248201527fe4b88de59ca8e585b1e5bbbae69c9fe586850000000000000000000000000000604482015290519081900360640190fd5b60108054600090815260116020526040808220600690810187905592548252902001546119cb9060649061136490605063ffffffff6145e916565b6010805460009081526011602052604080822060080193909355815481529190912060068101546009909101555493915050565b600081815260116020908152604080832033845290915290206003015460a060020a900460ff165b919050565b60155481565b6000908152601160205260409020600a0154610100900460ff1690565b6000611a59612715565b1515611a6457600080fd5b601854610100900460ff1615611ac4576040805160e560020a62461bcd02815260206004820152601560248201527fe98080e6acbee5b7b2e7bb8fe5ae8ce68890e4ba860000000000000000000000604482015290519081900360640190fd5b600254604080517f50b9d89d0000000000000000000000000000000000000000000000000000000081529051600092600160a060020a0316916350b9d89d916004808301926020929190829003018186803b158015611b2257600080fd5b505afa158015611b36573d6000803e3d6000fd5b505050506040513d6020811015611b4c57600080fd5b505160008181526011602090815260409182902060010180548351818402810184019094528084529394506060939091830182828015611bb557602002820191906000526020600020905b8154600160a060020a03168152600190910190602001808311611b97575b50939450600093505050505b8151811015611ee4576002548251600160a060020a0390911690639b32a77890849084908110611bed57fe5b906020019060200201516011600087815260200190815260200160002060000160008686815181101515611c1d57fe5b90602001906020020151600160a060020a0316600160a060020a0316815260200190815260200160002060020154600260009054906101000a9004600160a060020a0316600160a060020a0316633bb66a7b8787815181101515611c7d57fe5b906020019060200201516040518263ffffffff1660e060020a0281526004018082600160a060020a0316600160a060020a0316815260200191505060206040518083038186803b158015611cd057600080fd5b505afa158015611ce4573d6000803e3d6000fd5b505050506040513d6020811015611cfa57600080fd5b50516040805160e060020a63ffffffff8716028152600160a060020a0390941660048501529101602483015251604480830192600092919082900301818387803b158015611d4757600080fd5b505af1158015611d5b573d6000803e3d6000fd5b50506002548451600160a060020a039091169250634ceb1f139150849084908110611d8257fe5b906020019060200201516011600087815260200190815260200160002060000160008686815181101515611db257fe5b6020908102909101810151600160a060020a0390811683529082019290925260400160002060010154600254875191921690633aecd0e390889088908110611df657fe5b906020019060200201516040518263ffffffff1660e060020a0281526004018082600160a060020a0316600160a060020a0316815260200191505060206040518083038186803b158015611e4957600080fd5b505afa158015611e5d573d6000803e3d6000fd5b505050506040513d6020811015611e7357600080fd5b50516040805160e060020a63ffffffff8716028152600160a060020a0390941660048501529101602483015251604480830192600092919082900301818387803b158015611ec057600080fd5b505af1158015611ed4573d6000803e3d6000fd5b505060019092019150611bc19050565b50506018805461ff00191661010090811791829055900460ff1691505090565b60105481565b6000611f14612715565b1515611f1f57600080fd5b600260009054906101000a9004600160a060020a0316600160a060020a031663743acbab6040518163ffffffff1660e060020a02815260040160206040518083038186803b158015611f7057600080fd5b505afa158015611f84573d6000803e3d6000fd5b505050506040513d6020811015611f9a57600080fd5b50511515611ff2576040805160e560020a62461bcd02815260206004820152601260248201527fe585b1e68cafe8bf98e69caae7bb93e69d9f0000000000000000000000000000604482015290519081900360640190fd5b600254601554604080517f95bbde880000000000000000000000000000000000000000000000000000000081526024810183905260048101918252855160448201528551600160a060020a03909416936395bbde88938793909290918291606401906020808701910280838360005b83811015612079578181015183820152602001612061565b505050509050019350505050602060405180830381600087803b15801561209f57600080fd5b505af11580156120b3573d6000803e3d6000fd5b505050506040513d60208110156120c957600080fd5b505192915050565b600080600080600080600080600061217e42612172610708600260009054906101000a9004600160a060020a0316600160a060020a031663d74635736040518163ffffffff1660e060020a02815260040160206040518083038186803b15801561213a57600080fd5b505afa15801561214e573d6000803e3d6000fd5b505050506040513d602081101561216457600080fd5b50519063ffffffff610fbf16565b9063ffffffff610fda16565b1161218c57600093506121ea565b6121e742612172610708600260009054906101000a9004600160a060020a0316600160a060020a031663d74635736040518163ffffffff1660e060020a02815260040160206040518083038186803b15801561213a57600080fd5b93505b600254604080517fd998d62800000000000000000000000000000000000000000000000000000000815290516122a092600160a060020a03169163d998d628916004808301926020929190829003018186803b15801561224957600080fd5b505afa15801561225d573d6000803e3d6000fd5b505050506040513d602081101561227357600080fd5b5051601054600090815260116020526040902060048101546002909101546121729163ffffffff610fda16565b60105460009081526011602052604090206003810154600590910154959a9199509750939550929350505050565b6122d6612715565b15156122e157600080fd5b60008054604051600160a060020a03909116907f8be0079c531659141344cd1fd0a4f28419497f9722a3daafe3b4186f6b6457e0908390a360008054600160a060020a0319169055565b6000612335612715565b151561234057600080fd5b60105460009081526017602052604090205460ff16156123945760405160e560020a62461bcd02815260040180806020018281038252602c815260200180614f91602c913960400191505060405180910390fd5b600260009054906101000a9004600160a060020a0316600160a060020a031663d998d6286040518163ffffffff1660e060020a02815260040160206040518083038186803b1580156123e557600080fd5b505afa1580156123f9573d6000803e3d6000fd5b505050506040513d602081101561240f57600080fd5b5051600154604080517fdd62ed3e0000000000000000000000000000000000000000000000000000000081523360048201523060248201529051600160a060020a039092169163dd62ed3e91604480820192602092909190829003018186803b15801561247b57600080fd5b505afa15801561248f573d6000803e3d6000fd5b505050506040513d60208110156124a557600080fd5b505110156124fd576040805160e560020a62461bcd02815260206004820152601260248201527fe68e88e69d83e9a29de5baa6e4b88de8b6b30000000000000000000000000000604482015290519081900360640190fd5b600154600254604080517fd998d6280000000000000000000000000000000000000000000000000000000081529051600160a060020a03938416936323b872dd9333933093919092169163d998d628916004808301926020929190829003018186803b15801561256c57600080fd5b505afa158015612580573d6000803e3d6000fd5b505050506040513d602081101561259657600080fd5b50516040805160e060020a63ffffffff8716028152600160a060020a0394851660048201529290931660248301526044820152905160648083019260209291908290030181600087803b1580156125ec57600080fd5b505af1158015612600573d6000803e3d6000fd5b505050506040513d602081101561261657600080fd5b5051151561266e576040805160e560020a62461bcd02815260206004820152601a60248201527fe8bdace7a7bb746f6b656ee588b0e59088e7baa6e5a4b1e8b4a5000000000000604482015290519081900360640190fd5b506010546000908152601760205260409020805460ff1916600190811790915590565b606061269b612715565b15156126a657600080fd5b600d8054806020026020016040519081016040528092919081815260200182805480156126fc57602002820191906000526020600020905b8154600160a060020a031681526001909101906020018083116126de575b5050505050905090565b600054600160a060020a031690565b600054600160a060020a0316331490565b600254604080517f9263434e000000000000000000000000000000000000000000000000000000008152336004820181905291516000938493928492600160a060020a0390921691639263434e91602480820192602092909190829003018186803b15801561279457600080fd5b505afa1580156127a8573d6000803e3d6000fd5b505050506040513d60208110156127be57600080fd5b5051600254604080517ffe147c1b0000000000000000000000000000000000000000000000000000000081523360048201529051929350600160a060020a039091169163fe147c1b9160248082019260009290919082900301818387803b15801561282857600080fd5b505af115801561283c573d6000803e3d6000fd5b50506010546000908152601160209081526040808320338452909152808220600301805476ff00000000000000000000000000000000000000000000191676010000000000000000000000000000000000000000000017905551600160a060020a038616935084156108fc0292508491818181858888f193505050501580156128c9573d6000803e3d6000fd5b503393509150509091565b601254600160a060020a031681565b60105460008181526011602052604090206002810154600790910154909192565b60145481565b6000818152601160205260408120600b0154151561293f5750600081815260116020526040902043600b909101556001611a27565b506000611a27565b600260009054906101000a9004600160a060020a0316600160a060020a03166325d8e97f6040518163ffffffff1660e060020a02815260040160206040518083038186803b15801561299857600080fd5b505afa1580156129ac573d6000803e3d6000fd5b505050506040513d60208110156129c257600080fd5b50511515612a1a576040805160e560020a62461bcd02815260206004820152601260248201527fe4b88de59ca8e585b1e5bbbae69c9fe586850000000000000000000000000000604482015290519081900360640190fd5b600260009054906101000a9004600160a060020a0316600160a060020a031663743acbab6040518163ffffffff1660e060020a02815260040160206040518083038186803b158015612a6b57600080fd5b505afa158015612a7f573d6000803e3d6000fd5b505050506040513d6020811015612a9557600080fd5b505115612aec576040805160e560020a62461bcd02815260206004820152601260248201527fe585b1e68cafe5b7b2e7bb8fe7bb93e69d9f0000000000000000000000000000604482015290519081900360640190fd5b3360009081526004602052604090205460ff161515612b55576040805160e560020a62461bcd02815260206004820152601660248201527fe8b083e794a8e88085e4b88de698af4275696c64657200000000000000000000604482015290519081900360640190fd5b600254604080517fd998d6280000000000000000000000000000000000000000000000000000000081529051612c0192600160a060020a03169163d998d628916004808301926020929190829003018186803b158015612bb457600080fd5b505afa158015612bc8573d6000803e3d6000fd5b505050506040513d6020811015612bde57600080fd5b50516010546000908152601160205260409020600201549063ffffffff610fda16565b601054600090815260116020526040902060040154612c26908363ffffffff610fbf16565b1115612c665760405160e560020a62461bcd02815260040180806020018281038252602d815260200180614df2602d913960400191505060405180910390fd5b60105460009081526011602052604090206002810154600490910154612c92908363ffffffff610fbf16565b1115612cd25760405160e560020a62461bcd028152600401808060200182810382526026815260200180614e6a6026913960400191505060405180910390fd5b60105460009081526011602090815260408083206003810154338552925290912060010154612d07908363ffffffff610fbf16565b1115612d475760405160e560020a62461bcd028152600401808060200182810382526030815260200180614f356030913960400191505060405180910390fd5b600154604080517fdd62ed3e00000000000000000000000000000000000000000000000000000000815233600482015230602482015290518392600160a060020a03169163dd62ed3e916044808301926020929190829003018186803b158015612db057600080fd5b505afa158015612dc4573d6000803e3d6000fd5b505050506040513d6020811015612dda57600080fd5b50511015612e32576040805160e560020a62461bcd02815260206004820152601260248201527fe68e88e69d83e9a29de5baa6e4b88de8b6b30000000000000000000000000000604482015290519081900360640190fd5b600154604080517f23b872dd000000000000000000000000000000000000000000000000000000008152336004820152306024820152604481018490529051600160a060020a03909216916323b872dd916064808201926020929091908290030181600087803b158015612ea557600080fd5b505af1158015612eb9573d6000803e3d6000fd5b505050506040513d6020811015612ecf57600080fd5b50511515612f27576040805160e560020a62461bcd02815260206004820152601a60248201527fe8bdace7a7bb746f6b656ee588b0e59088e7baa6e5a4b1e8b4a5000000000000604482015290519081900360640190fd5b6010805460009081526011602081815260408084203385528252808420600101805487019055935483529081529082902060050180548401905560025482517f2734189a0000000000000000000000000000000000000000000000000000000081529251600160a060020a03909116926330f42bf692612ffd9286928692632734189a92600480840193829003018186803b158015612fc557600080fd5b505afa158015612fd9573d6000803e3d6000fd5b505050506040513d6020811015612fef57600080fd5b50519063ffffffff610fda16565b6040518263ffffffff1660e060020a02815260040180828152602001915050600060405180830381600087803b15801561303657600080fd5b505af115801561304a573d6000803e3d6000fd5b5050336000908152600f60209081526040808320805487018155601080548552601190935281842060049081018054890190559254845292209081015491546003909101547fb78436e636f71b6303dc0f13fabcb2f1fe5c2973ea8de3dd5c2bc9b7fd2b2d3b94509192506130bf9190610fda565b601054600090815260116020526040902060048101546002909101546130ea9163ffffffff610fda16565b60408051938452602084019290925282820152519081900360600190a150565b613112612715565b151561311d57600080fd5b600354604051600160a060020a0390911690303180156108fc02916000818181858888f19350505050158015613157573d6000803e3d6000fd5b50565b6000613164612715565b151561316f57600080fd5b600354600160a060020a031615156131bb5760405160e560020a62461bcd028152600401808060200182810382526021815260200180614e1f6021913960400191505060405180910390fd5b600061325e600260009054906101000a9004600160a060020a0316600160a060020a031663d998d6286040518163ffffffff1660e060020a02815260040160206040518083038186803b15801561321157600080fd5b505afa158015613225573d6000803e3d6000fd5b505050506040513d602081101561323b57600080fd5b50516010546000908152601160205260409020600401549063ffffffff610fbf16565b905061331b606461136483611364602861330f600260009054906101000a9004600160a060020a0316600160a060020a031663d998d6286040518163ffffffff1660e060020a02815260040160206040518083038186803b1580156132c257600080fd5b505afa1580156132d6573d6000803e3d6000fd5b505050506040513d60208110156132ec57600080fd5b50516010546000908152601160205260409020600701549063ffffffff6145e916565b9063ffffffff6145e916565b6010805460009081526013602052604080822093909355905481522054613351906103e89061136490607d63ffffffff6145e916565b60158054909101905561336384614638565b61336c836148f9565b600254600354601054600090815260116020526040902060070154600160a060020a0392831692639b32a7789216906133b39060649061136490603c63ffffffff6145e916565b600254600354604080517f3bb66a7b000000000000000000000000000000000000000000000000000000008152600160a060020a03928316600482015290519190921691633bb66a7b916024808301926020929190829003018186803b15801561341c57600080fd5b505afa158015613430573d6000803e3d6000fd5b505050506040513d602081101561344657600080fd5b50516040805160e060020a63ffffffff8716028152600160a060020a0390941660048501529101602483015251604480830192600092919082900301818387803b15801561349357600080fd5b505af11580156134a7573d6000803e3d6000fd5b505050506134b36149db565b5060019392505050565b60046020526000908152604090205460ff1681565b600080600080600080600061353842612172610e10600260009054906101000a9004600160a060020a0316600160a060020a031663d74635736040518163ffffffff1660e060020a02815260040160206040518083038186803b15801561213a57600080fd5b1161354657600092506135a4565b6135a142612172610e10600260009054906101000a9004600160a060020a0316600160a060020a031663d74635736040518163ffffffff1660e060020a02815260040160206040518083038186803b15801561213a57600080fd5b92505b601054600090815260116020526040902060078101546006909101546135cf9163ffffffff610fda16565b60105460009081526011602052604090206007015493965094509192505050909192565b336000908152600560209081526040808320546006909252909120549091565b60185460ff1681565b613624612715565b151561362f57600080fd5b60185460ff16156136745760405160e560020a62461bcd028152600401808060200182810382526027815260200180614e906027913960400191505060405180910390fd5b60038054600160a060020a03808516600160a060020a031992831617909255601280548484169216919091179055600254604080517fabdd11a80000000000000000000000000000000000000000000000000000000081524260048201529051919092169163abdd11a891602480830192600092919082900301818387803b1580156136ff57600080fd5b505af1158015613713573d6000803e3d6000fd5b5050505073__UintUtils_____________________________63669dafe86216e3606040518263ffffffff1660e060020a0281526004018082815260200191505060206040518083038186803b15801561376c57600080fd5b505af4158015613780573d6000803e3d6000fd5b505050506040513d602081101561379657600080fd5b505160108054600090815260116020526040808220600290810194909455915481522001546137d39060649061136490600163ffffffff6145e916565b6010546000908152601160205260408082206003019290925560025482517f1c5ce1570000000000000000000000000000000000000000000000000000000081529251600160a060020a0390911692631c5ce15792600480830193919282900301818387803b15801561384557600080fd5b505af1158015613859573d6000803e3d6000fd5b5050600254601054604080517f0d9907d9000000000000000000000000000000000000000000000000000000008152600481019290925251600160a060020a039092169350630d9907d992506024808201926020929091908290030181600087803b1580156138c757600080fd5b505af11580156138db573d6000803e3d6000fd5b505050506040513d60208110156138f157600080fd5b50506018805460ff191660011790556139098361455c565b505050565b60009081526011602052604090206006015490565b600b54604080517fc28a1af30000000000000000000000000000000000000000000000000000000081523360048201529051600092839283928392600160a060020a03169163c28a1af3916024808301926020929190829003018186803b15801561398d57600080fd5b505afa1580156139a1573d6000803e3d6000fd5b505050506040513d60208110156139b757600080fd5b5051600954604080517f0df2019a0000000000000000000000000000000000000000000000000000000081523360048201529051600160a060020a0390921691630df2019a91602480820192602092909190829003018186803b158015613a1d57600080fd5b505afa158015613a31573d6000803e3d6000fd5b505050506040513d6020811015613a4757600080fd5b5051600a54604080517fc75355670000000000000000000000000000000000000000000000000000000081523360048201529051600160a060020a039092169163c753556791602480820192602092909190829003018186803b158015613aad57600080fd5b505afa158015613ac1573d6000803e3d6000fd5b505050506040513d6020811015613ad757600080fd5b5051600c54604080517f4a6817870000000000000000000000000000000000000000000000000000000081523360048201529051600160a060020a0390921691634a68178791602480820192602092909190829003018186803b158015613b3d57600080fd5b505afa158015613b51573d6000803e3d6000fd5b505050506040513d6020811015613b6757600080fd5b5051929791965094509092509050565b600080600260009054906101000a9004600160a060020a0316600160a060020a03166325d8e97f6040518163ffffffff1660e060020a02815260040160206040518083038186803b158015613bcb57600080fd5b505afa158015613bdf573d6000803e3d6000fd5b505050506040513d6020811015613bf557600080fd5b50511515613c4d576040805160e560020a62461bcd02815260206004820152601260248201527fe4b88de59ca8e585b1e5bbbae69c9fe586850000000000000000000000000000604482015290519081900360640190fd5b600260009054906101000a9004600160a060020a0316600160a060020a031663743acbab6040518163ffffffff1660e060020a02815260040160206040518083038186803b158015613c9e57600080fd5b505afa158015613cb2573d6000803e3d6000fd5b505050506040513d6020811015613cc857600080fd5b505115613d1f576040805160e560020a62461bcd02815260206004820152601260248201527fe585b1e68cafe5b7b2e7bb8fe7bb93e69d9f0000000000000000000000000000604482015290519081900360640190fd5b601254600160a060020a03848116911614613da657600160a060020a03831660009081526004602052604090205460ff161515613da6576040805160e560020a62461bcd02815260206004820152601f60248201527fe68ea8e5b9bfe88085e887aae5b7b1e5bf85e9a1bbe698af4275696c64657200604482015290519081900360640190fd5b600160a060020a0383161515613e06576040805160e560020a62461bcd02815260206004820152601b60248201527fe68ea8e5b9bfe88085e4b88de883bde698afe7a9bae59cb0e59d800000000000604482015290519081900360640190fd5b73__UintUtils_____________________________63669dafe860086040518263ffffffff1660e060020a0281526004018082815260200191505060206040518083038186803b158015613e5957600080fd5b505af4158015613e6d573d6000803e3d6000fd5b505050506040513d6020811015613e8357600080fd5b5051600154604080517fdd62ed3e0000000000000000000000000000000000000000000000000000000081523360048201523060248201529051600160a060020a039092169163dd62ed3e91604480820192602092909190829003018186803b158015613eef57600080fd5b505afa158015613f03573d6000803e3d6000fd5b505050506040513d6020811015613f1957600080fd5b50511015613f71576040805160e560020a62461bcd02815260206004820152601260248201527fe68e88e69d83e9a29de5baa6e4b88de8b6b30000000000000000000000000000604482015290519081900360640190fd5b6001546040805160e360020a630cd3b5fd028152600860048201529051600160a060020a03909216916323b872dd913391309173__UintUtils_____________________________9163669dafe891602480820192602092909190829003018186803b158015613fe057600080fd5b505af4158015613ff4573d6000803e3d6000fd5b505050506040513d602081101561400a57600080fd5b50516040805160e060020a63ffffffff8716028152600160a060020a0394851660048201529290931660248301526044820152905160648083019260209291908290030181600087803b15801561406057600080fd5b505af1158015614074573d6000803e3d6000fd5b505050506040513d602081101561408a57600080fd5b505115156140e2576040805160e560020a62461bcd02815260206004820152601a60248201527fe8bdace7a7bb746f6b656ee588b0e59088e7baa6e5a4b1e8b4a5000000000000604482015290519081900360640190fd5b6001546040805160e360020a630cd3b5fd028152600360048201529051600160a060020a039092169163a9059cbb9160009173__UintUtils_____________________________9163669dafe8916024808301926020929190829003018186803b15801561414f57600080fd5b505af4158015614163573d6000803e3d6000fd5b505050506040513d602081101561417957600080fd5b50516040805160e060020a63ffffffff8616028152600160a060020a03909316600484015260248301919091525160448083019260209291908290030181600087803b1580156141c857600080fd5b505af11580156141dc573d6000803e3d6000fd5b505050506040513d60208110156141f257600080fd5b50506001546040805160e360020a630cd3b5fd028152600560048201529051600160a060020a039092169163a9059cbb91869173__UintUtils_____________________________9163669dafe8916024808301926020929190829003018186803b15801561426057600080fd5b505af4158015614274573d6000803e3d6000fd5b505050506040513d602081101561428a57600080fd5b50516040805160e060020a63ffffffff8616028152600160a060020a03909316600484015260248301919091525160448083019260209291908290030181600087803b1580156142d957600080fd5b505af11580156142ed573d6000803e3d6000fd5b505050506040513d602081101561430357600080fd5b50506040805160e360020a630cd3b5fd02815260056004820152905173__UintUtils_____________________________9163669dafe8916024808301926020929190829003018186803b15801561435a57600080fd5b505af415801561436e573d6000803e3d6000fd5b505050506040513d602081101561438457600080fd5b5051600160a060020a0384166000908152600660205260409020805490910190556143ae83614cc1565b600160a060020a03808416600081815260056020908152604080832080546001810182559084529183209091018054600160a060020a0319163317905560095460105460125483517fe23613e9000000000000000000000000000000000000000000000000000000008152600481019290925260248201959095529385166044850152905193169263e23613e992606480820193929182900301818387803b15801561445957600080fd5b505af115801561446d573d6000803e3d6000fd5b503396945050505050565b60176020526000908152604090205460ff1681565b6000614497612715565b15156144a257600080fd5b50600160a060020a03166000908152600e602052604090205490565b600154600160a060020a031681565b600160a060020a03811660009081526005602090815260409182902080548351818402810184019094528084526060939283018282801561453757602002820191906000526020600020905b8154600160a060020a03168152600190910190602001808311614519575b50505050509050919050565b6000908152601160205260409020600b01546001014090565b614564612715565b151561456f57600080fd5b61315781614d35565b601054600090815260116020908152604080832033845290915290206003015460a060020a900460ff1690565b600081815260116020818152604080842060078101543386528184529185206002015486865293909252600490910154610fd492611364919063ffffffff6145e916565b60008215156145fa57506000610fd4565b82820282848281151561460957fe5b0414610fd157600080fd5b600080821161462257600080fd5b6000828481151561462f57fe5b04949350505050565b6010546000908152601160205260409020600a015460ff16156146a5576040805160e560020a62461bcd02815260206004820152601e60248201527fe5bd93e5898de8bdaee6aca1e5b7b2e7bb8fe7bb93e7ae97e5ae8ce6af950000604482015290519081900360640190fd5b6010546000908152601160205260409020600a0154610100900460ff1615614717576040805160e560020a62461bcd02815260206004820152601b60248201527fe5bd93e5898de8bdaee6aca1e697a9e5b7b2e7bb8fe7bb93e69d9f0000000000604482015290519081900360640190fd5b600254601054600081815260136020526040902054600160a060020a039092169163deb72f1f919084906147599060649061136490603263ffffffff6145e916565b6040518463ffffffff1660e060020a0281526004018084815260200180602001838152602001828103825284818151815260200191508051906020019060200280838360005b838110156147b757818101518382015260200161479f565b50505050905001945050505050600060405180830381600087803b1580156147de57600080fd5b505af11580156147f2573d6000803e3d6000fd5b50505050600060088054905011156148f457600254601054600081815260136020526040902054600160a060020a03909216916384976e749190600890614848906103e89061136490607d63ffffffff6145e916565b6040518463ffffffff1660e060020a028152600401808481526020018060200183815260200182810382528481815481526020019150805480156148b557602002820191906000526020600020905b8154600160a060020a03168152600190910190602001808311614897575b5050945050505050600060405180830381600087803b1580156148d757600080fd5b505af11580156148eb573d6000803e3d6000fd5b50505050613157565b613157565b600254601054600081815260136020526040902054600160a060020a039092169163fd38f45b9190849061493b9060649061136490601963ffffffff6145e916565b6040518463ffffffff1660e060020a0281526004018084815260200180602001838152602001828103825284818151815260200191508051906020019060200280838360005b83811015614999578181015183820152602001614981565b50505050905001945050505050600060405180830381600087803b1580156149c057600080fd5b505af11580156149d4573d6000803e3d6000fd5b5050505050565b601080546000908152601160209081526040808320600a908101805460ff191660011790558454845281842001805461ff0019166101001790556002549354808452818420600781015460089091015483517fc39fa8610000000000000000000000000000000000000000000000000000000081526004810193909352602483019190915260448201529051600160a060020a039094169363c39fa86193606480840194938390030190829087803b158015614a9657600080fd5b505af1158015614aaa573d6000803e3d6000fd5b505050506040513d6020811015614ac057600080fd5b50511515614cbf57601080546001019055600254604080517fabdd11a80000000000000000000000000000000000000000000000000000000081524260048201529051600160a060020a039092169163abdd11a89160248082019260009290919082900301818387803b158015614b3657600080fd5b505af1158015614b4a573d6000803e3d6000fd5b5050600254601054604080517f0d9907d9000000000000000000000000000000000000000000000000000000008152600481019290925251600160a060020a039092169350630d9907d992506024808201926020929091908290030181600087803b158015614bb857600080fd5b505af1158015614bcc573d6000803e3d6000fd5b505050506040513d6020811015614be257600080fd5b5050600254604080517f8d8276be0000000000000000000000000000000000000000000000000000000081529051600160a060020a0390921691638d8276be91600480820192602092909190829003018186803b158015614c4257600080fd5b505afa158015614c56573d6000803e3d6000fd5b505050506040513d6020811015614c6c57600080fd5b50516010805460009081526011602052604080822060029081019490945591548152200154614ca99060649061136490600163ffffffff6145e916565b6010546000908152601160205260409020600301555b565b601080546000908152601160208181526040808420338086529083528185208054600160a060020a03199081168317909155955485529282528084209284529181528183206003018054909416600160a060020a03959095169490941790925560049092529020805460ff19166001179055565b600160a060020a0381161515614d4a57600080fd5b60008054604051600160a060020a03808516939216917f8be0079c531659141344cd1fd0a4f28419497f9722a3daafe3b4186f6b6457e091a360008054600160a060020a031916600160a060020a0392909216919091179055565b6040805161012081018252600080825260208201819052918101829052606081018290526080810182905260a0810182905260c0810182905260e081018290526101008101919091529056fee8bdace8b4a6e695b0e9878fe4b88de883bde8b685e8bf87e7a4bee58cbae58fafe8bdace8b4a6e680bbe9a29de59fbae98791e4bc9ae694b6e6acbee59cb0e59d80e5b09ae69caae8aebee7bdaee794a8e688b7e6b2a1e69c89e58f82e4b88ee4b88ae4b880e8bdaee6aca1e79a84e58b9fe8b584e69c9fe5bd93e5898de8bdaee6aca1e585b1e5bbba546f6b656ee5b7b2e7bb8fe8b6b3e5a49fe4ba86e7acace4b880e8bdaee6aca1e695b0e68daee5b7b2e7bb8fe5889de5a78be58c96e8bf87e4ba86e4b88ae4b880e8bdaee6aca1e58b9fe8b584e69c9fe58b9fe99b86e588b030e4b8aa455448e794a8e688b7e59ca8e4b88ae4b880e8bdaee6aca1e6b2a1e69c89e58f82e4b88ee7bb84e5bbbae69c9f546f6b656ee68a95e5b881e5bd93e5898de8bdaee6aca1e5b7b2e58b9fe99b86e588b0e8b6b3e5a49fe79a84455448e585b1e5bbbae9a29de5baa6e5b7b2e8b685e8bf87e99990e9a29defbc8ce4b88de883bde7bba7e7bbade8bdace585a5e794a8e688b7e59ca8e4b88ae4b880e8bdaee6aca1e5b7b2e7bb8fe68f90e58f96746f6b656ee5ae8ce68890e5bd93e5898de8bdaee6aca1e59fbae98791e4bc9ae5b7b2e7bb8fe8bdace585a5e8bf87546f6b656ee4ba86a165627a7a723058200a84e7261b9cde304dba8ddeef4541097cf136f2e2f807302b459423c907b3630029",
  "source": "pragma solidity >=0.4.21 <0.6.0;\n\nimport \"../node_modules/openzeppelin-solidity/contracts/math/SafeMath.sol\";\nimport \"../node_modules/openzeppelin-solidity/contracts/ownership/Ownable.sol\";\nimport \"./ABCToken.sol\";\nimport \"./UintUtils.sol\";\nimport \"./FissionReward.sol\";\nimport \"./FOMOReward.sol\";\nimport \"./LuckyReward.sol\";\nimport \"./FaithReward.sol\";\nimport \"./ResonanceDataManage.sol\";\n\n// TODO:token()\ncontract Resonance is Ownable{\n\n    using SafeMath for uint256;\n\n    // \n    // \n    event ToBeFissionPerson(address indexed fissionPerson, address indexed promoter);\n\n    event FundsInfo(uint256 currentStepTokenAmount, uint256 currentStepRaisedETH);\n    event BuildingPerioInfo(uint256 bpCountdown, uint256 remainingToken, uint256 personalTokenLimited, uint256 totalTokenAmount);\n    event FundingPeriodInfo(uint256 fpCountdown, uint256 remainingETH, uint256 rasiedETHAmount);\n\n    // \n    event FissionRewardInfo(address[] fissionRewardList, uint256[] fissionRewardAmount);\n    event FOMORewardInfo(address[] FOMORewardList, uint256[] FOMORewards);\n    event LuckyRewardInfo(address[] luckyRewardList, uint256 luckyReward);\n    event FaithRewardInfo(address[] faithRewardList, uint256[] faithRewardAmount);\n    event WithdrawAllETH(address addr, uint256 ETHAmount);\n    event WithdrawAllToken(address from, address to, uint256 tokenAmount);\n    event FunderInfo(uint256[] FunderInfoArray);\n    event StepFunders(\n        address[] funderAddress,\n        uint256[] funderTokenAmount,\n        uint256[] funderETHAmount,\n        uint256[] funderInvitees,\n        uint256[] funderEarnFromAff\n    );\n    event SettlementStep(uint256 stepIndex);\n\n    event StartNextStep(uint256 stepIndex);\n\n    event SetRaiseTarget(uint256 stepIndex, uint256 raiseTarget);\n\n    event GetResonances(address[] resonances);\n\n    event FunderTotalRaised(uint256 resonancesRasiedETH);\n\n    // ETHToken\n    // ETHETHETH\n    event currentStepRaisedEther(uint256 raisedETHAmount, uint256 nowRaisedEther, uint256 totalRemainingEther);\n    // TokenTokenToken\n    event currentStepRaisedToken(uint256 raisedTokenAmount, uint256 remainingTokenForPersonal, uint256 totalRemainingToken);\n\n    // \n    // ERC20\n    ABCToken public abcToken;\n\n    ResonanceDataManage resonanceDataManage;\n\n    // 60%\n    address payable public beneficiary;\n\n    // \n    struct Funder{\n        address funderAddr; // \n        uint256 tokenAmount; // token\n        uint256 ethAmount; // eth\n        address promoter; // \n        bool isFunder; // \n        bool tokenHasWithdrawn; // Token\n        bool ETHHasWithdrawn; // ETH\n        uint256 withdrawTokenAmount; // Token\n        uint256 withdrawETHAmount; //ETH\n    }\n\n    mapping(address => bool) public isBuilder; //\n\n    mapping(address => address[]) invitees; // \n    mapping(address => uint256) earnFromAff; // \n    mapping(address => uint256) inviteesTotalAmount; // eth\n    address[] FOMOList; // FOMO\n\n    // \n    struct Building{\n        uint256 openTokenAmount; // Token\n        uint256 personalTokenLimited;// token\n        uint256 raisedToken; // token\n        uint256 raisedTokenAmount; // Token\n    }\n\n    // \n    struct Funding{\n        uint256 raiseTarget; // ETH()\n        uint256 raisedETH; // ETH\n    }\n\n    FissionReward fissionRewardInstance;\n    FOMOReward FOMORewardInstance;\n    LuckyReward luckyRewardInstance;\n    FaithReward faithRewardInstance;\n\n    // \n    struct Step{\n        mapping(address => Funder) funder;// \n        address[] funders; // funders\n        Building building; // \n        Funding funding; // \n        uint256 softCap; // \n        uint256 hardCap; // \n        bool settlementFinished; // \n        bool stepIsClosed; // \n        uint256 blockNumber; // \n    }\n\n    // \n    address[] resonances;\n\n    // \n    mapping(address => uint256) resonancesRasiedETH;\n    mapping(address => uint256) resonancesRasiedToken;\n\n    uint256 public currentStep;\n\n    mapping(uint256 => Step) steps;\n\n    address public initialFissionPerson; // \n\n    mapping(uint256 => uint256) ETHFromParty; // ETH\n\n    uint256 public totalETHFromParty; // \n\n    uint256 public faithRewardTotalAmount; // \n\n    mapping(uint256 => uint256) tokenFromParty; //token\n\n    mapping(uint256 => bool) public tokenTransfered; // Token\n\n    bool public firstParamInitialized;\n\n    // \n    /// @notice \n    /// @param _abcToken Token\n    constructor(\n        address _resonanceDataManageAddress,\n        ABCToken _abcToken,\n        address _fassionRewardAddress,\n        address _FOMORewardAddress,\n        address _luckyRewardAddress,\n        address _faithRewardAddress\n    )\n        public\n    {\n        resonanceDataManage = ResonanceDataManage(_resonanceDataManageAddress);\n        // \n        fissionRewardInstance = FissionReward(_fassionRewardAddress);\n        FOMORewardInstance = FOMOReward(_FOMORewardAddress);\n        luckyRewardInstance = LuckyReward(_luckyRewardAddress);\n        faithRewardInstance = FaithReward(_faithRewardAddress);\n        currentStep = 0;\n        abcToken = _abcToken; // abc Token\n    }\n\n\n    /// @notice \n    /// @dev ResonanceDataManage\n    function initParamForFirstStep(\n        address _newOwner,\n        address payable _beneficiary,\n        address _initialFissionPerson\n    )\n        public\n        onlyOwner()\n    {\n        require(!firstParamInitialized, \"\");\n        // \n        beneficiary = _beneficiary;\n        // \n        initialFissionPerson = _initialFissionPerson;\n        resonanceDataManage.setOpeningTime(block.timestamp); // \n        steps[currentStep].building.openTokenAmount = UintUtils.toWei(1500000); // Token\n        steps[currentStep].building.personalTokenLimited = steps[currentStep].building.openTokenAmount.mul(1).div(100);\n        // fundsPoolinitBuildingTokenAmount\n        resonanceDataManage.setParamForFirstStep();\n        // Token\n        resonanceDataManage.updateBuildingPercent(currentStep);\n        firstParamInitialized = true;\n        // \n        transferOwnership(_newOwner);\n    }\n\n    /// @notice \n    /// @param promoter \n    /// @dev TokenApprove\n    function toBeFissionPerson(\n        address promoter\n    )\n        public\n        returns(address, address)\n    {\n        require(resonanceDataManage.isBuildingPeriod(), \"\");\n        require(!resonanceDataManage.getCrowdsaleClosed(), \"\");\n\n        if(initialFissionPerson != promoter){\n            require(isBuilder[promoter],\"Builder\");\n        }\n\n        require(promoter != address(0), \"\");\n\n        // // \n        require(abcToken.allowance(msg.sender, address(this)) >= UintUtils.toWei(8),\"\");\n\n        require(abcToken.transferFrom(msg.sender,address(this), UintUtils.toWei(8)),\"token\");\n\n        // 3\n        abcToken.transfer(address(0), UintUtils.toWei(3));\n\n        // 5\n        abcToken.transfer(address(promoter), UintUtils.toWei(5));\n\n        earnFromAff[promoter] += UintUtils.toWei(5);\n        // steps[currentStep].funder[promoter].earnFromAff += UintUtils.toWei(5);\n\n        // \n        _addBuilder(promoter);\n\n        invitees[promoter].push(msg.sender);\n        // steps[currentStep].funder[promoter].invitees.push(msg.sender);\n\n        fissionRewardInstance.addAffman(currentStep, promoter, initialFissionPerson);\n\n        // emit ToBeFissionPerson(msg.sender, promoter);\n        return(msg.sender, promoter);\n    }\n\n    /// @notice \n    /// @dev \n    function setRaiseTarget(\n        uint256 _raiseTarget\n    )\n        public\n        onlyOwner()\n        returns(uint256, uint256)\n    {\n        require(resonanceDataManage.isBuildingPeriod(), \"\");\n        steps[currentStep].funding.raiseTarget = _raiseTarget;\n        // \n        steps[currentStep].softCap = steps[currentStep].funding.raiseTarget.mul(80).div(100);\n        steps[currentStep].hardCap = steps[currentStep].funding.raiseTarget;\n\n        // emit SetRaiseTarget(currentStep, _raiseTarget);\n        return(currentStep, _raiseTarget);\n    }\n\n    /// @notice \n    function getRaiseTarget(uint256 _stepIndex) public view returns(uint256) {\n        return steps[_stepIndex].funding.raiseTarget;\n    }\n\n    // token\n    function jointlyBuild(uint256 _tokenAmount) public {\n        require(resonanceDataManage.isBuildingPeriod(), \"\");\n\n        require(!resonanceDataManage.getCrowdsaleClosed(), \"\");\n\n        // builder\n        require(isBuilder[msg.sender], \"Builder\");\n\n        // \n        require(\n            steps[currentStep].building.raisedToken.add(_tokenAmount) <=\n            steps[currentStep].building.openTokenAmount.sub(resonanceDataManage.getBuildingTokenFromParty()),\n            \"\"\n        );\n\n        // \n        require(steps[currentStep].building.raisedToken.add(_tokenAmount) <= steps[currentStep].building.openTokenAmount, \"Token\");\n\n        // \n        require(\n            steps[currentStep].funder[msg.sender].tokenAmount.add(_tokenAmount) <= steps[currentStep].building.personalTokenLimited,\n            \"\"\n        );\n\n        // \n        require(abcToken.allowance(msg.sender, address(this)) >= _tokenAmount,\"\");\n\n        // \n        require(abcToken.transferFrom(msg.sender, address(this), _tokenAmount),\"token\");\n\n        steps[currentStep].funder[msg.sender].tokenAmount += _tokenAmount;\n\n        steps[currentStep].building.raisedTokenAmount += _tokenAmount;\n\n        // Token\n        resonanceDataManage.setFundsPool(resonanceDataManage.getFundsPool().sub(_tokenAmount));\n\n        // \n        resonancesRasiedToken[msg.sender] += _tokenAmount;\n\n        // token\n        steps[currentStep].building.raisedToken += _tokenAmount;\n\n        emit currentStepRaisedToken(\n            steps[currentStep].building.raisedToken,\n            steps[currentStep].building.personalTokenLimited.sub(resonancesRasiedToken[msg.sender]),\n            steps[currentStep].building.openTokenAmount.sub(steps[currentStep].building.raisedToken)\n        );\n    }\n\n    /// @notice Token\n    function transferToken() public payable onlyOwner() returns(bool){\n        require(!tokenTransfered[currentStep], \"Token\");\n\n        // \n        require(abcToken.allowance(msg.sender, address(this)) >= resonanceDataManage.getBuildingTokenFromParty(),\n            \"\"\n        );\n\n        // \n        require(abcToken.transferFrom(msg.sender, address(this), resonanceDataManage.getBuildingTokenFromParty()),\n            \"token\"\n        );\n\n        tokenTransfered[currentStep] = true;\n\n        return true;\n    }\n\n    /// @notice \n    function ()\n        external\n        payable\n    {\n        require(resonanceDataManage.isFundingPeriod(), \"\");\n\n        require(!resonanceDataManage.getCrowdsaleClosed(), \"\");\n\n        uint amount = msg.value;\n\n        // ETH\n        require(\n            msg.value.add(steps[currentStep].funding.raisedETH) <= steps[currentStep].funding.raiseTarget,\n            \"ETH\"\n        );\n\n        if(!steps[currentStep].funder[msg.sender].isFunder){\n            steps[currentStep].funders.push(msg.sender);\n        }\n\n        // FOMO\n        FOMOList.push(msg.sender);\n\n        steps[currentStep].funder[msg.sender].ethAmount += amount;\n        steps[currentStep].funder[msg.sender].isFunder = true;\n        steps[currentStep].funding.raisedETH += amount;\n\n        // msg.sender\n        inviteesTotalAmount[steps[currentStep].funder[msg.sender].promoter] += amount;\n\n        resonances.push(msg.sender);\n        resonancesRasiedETH[msg.sender] += amount;\n\n        emit currentStepRaisedEther(\n            steps[currentStep].funding.raisedETH,\n            amount,\n            steps[currentStep].hardCap.sub(steps[currentStep].funding.raisedETH)\n        );\n    }\n\n    /// @notice \n    /// @dev \n    /// @param _fissionWinnerList \n    /// @param _LuckyWinnerList \n    function settlementStep(\n        address[] memory _fissionWinnerList,\n        address[] memory _LuckyWinnerList\n    )\n        public\n        onlyOwner()\n        returns(bool)\n    {\n        require(beneficiary != address(0), \"\");\n\n        uint256 totalTokenAmount = steps[currentStep].building.raisedToken.add(resonanceDataManage.getBuildingTokenFromParty());\n\n        ETHFromParty[currentStep] = steps[currentStep].funding.raisedETH\n            .mul(resonanceDataManage.getBuildingTokenFromParty())\n            .mul(40)\n            .div(totalTokenAmount)\n            .div(100);\n\n        // 12.5%\n        faithRewardTotalAmount += ETHFromParty[currentStep].mul(125).div(1000);\n        // FOMO\n        _settlementReward(_fissionWinnerList);\n        // \n        _settlementLuckyReward(_LuckyWinnerList);\n        // \n        resonanceDataManage.setETHBalance(\n            beneficiary,\n            resonanceDataManage.getETHBalance(beneficiary) + steps[currentStep].funding.raisedETH.mul(60).div(100)\n        );\n\n        // \n        _startNextStep();\n\n        return true;\n    }\n\n    /// @notice \n    /// @param _FaithWinnerList \n    function settlementFaithReward(\n        address[] memory _FaithWinnerList\n    )\n        public\n        onlyOwner()\n        returns(bool)\n    {\n        require(resonanceDataManage.getCrowdsaleClosed(), \"\");\n        return resonanceDataManage.dmSettlementFaithReward(\n            _FaithWinnerList,\n            faithRewardTotalAmount\n        );\n    }\n\n    /// @notice FOMO\n    /// @dev ,\n    function _settlementReward(\n        address[] memory _fissionWinnerList\n    )\n        internal\n    {\n        require(!steps[currentStep].settlementFinished, \"\");\n        require(!steps[currentStep].stepIsClosed, \"\");\n\n        // \n        resonanceDataManage.settlementFissionReward(\n            currentStep,\n            _fissionWinnerList,\n            ETHFromParty[currentStep].mul(50).div(100)\n        );\n\n        // FOMO\n        if(FOMOList.length > 0){\n            resonanceDataManage.settlementFOMOReward(\n                currentStep,\n                FOMOList,\n                ETHFromParty[currentStep].mul(125).div(1000)\n            );\n        }else{\n            return;\n        }\n    }\n\n    /// @notice \n    function _settlementLuckyReward(\n        address[] memory _LuckyWinnerList\n    )\n        internal\n    {\n        resonanceDataManage.settlementLuckyReward(\n            currentStep,\n            _LuckyWinnerList,\n            ETHFromParty[currentStep].mul(25).div(100)\n        );\n    }\n\n    /// \n    function _startNextStep()\n        internal\n    {\n        // step\n        steps[currentStep].settlementFinished = true;\n        // \n        steps[currentStep].stepIsClosed = true;\n\n        // \n        if(!resonanceDataManage.crowdsaleIsClosed(currentStep, steps[currentStep].funding.raisedETH, steps[currentStep].softCap)) {\n            // \n            currentStep++;\n            // \n            resonanceDataManage.setOpeningTime(block.timestamp);\n            // Token\n            resonanceDataManage.updateBuildingPercent(currentStep);\n            // Token\n            steps[currentStep].building.openTokenAmount = resonanceDataManage.getBuildingTokenAmount();\n            // \n            steps[currentStep].building.personalTokenLimited = steps[currentStep].building.openTokenAmount.mul(1).div(100);\n        }else{\n            return;\n        }\n    }\n\n    /// @notice tokentoken\n    function withdrawAllToken()\n        public\n        payable\n        returns(address, address, uint256)\n    {\n        // \n        uint256 withdrawStep = currentStep.sub(1);\n\n        require(steps[withdrawStep].funder[msg.sender].isFunder, \"\");\n\n        require(!steps[withdrawStep].funder[msg.sender].tokenHasWithdrawn, \"token\");\n\n        require(steps[withdrawStep].funder[msg.sender].ethAmount > 0, \"Token\");\n\n        require(steps[withdrawStep].funding.raisedETH > 0, \"0ETH\");\n\n        // Token\n        //  = Token * ETH / ETH\n        uint256 withdrawAmount = steps[withdrawStep].building.raisedToken.\n            mul(steps[withdrawStep].funder[msg.sender].ethAmount).\n            div(steps[withdrawStep].funding.raisedETH);\n\n        resonanceDataManage.emptyTokenBalance(msg.sender);\n        steps[withdrawStep].funder[msg.sender].tokenHasWithdrawn = true;\n        abcToken.transfer(msg.sender, withdrawAmount);\n\n        return(address(this), msg.sender, withdrawAmount);\n    }\n\n    /// @notice (ETH)\n    function withdrawAllETH()\n        public\n        payable\n        returns(address, uint256)\n    {\n        address payable dest = address(uint160(msg.sender));\n\n        // require(!steps[currentStep].funder[msg.sender].ETHHasWithdrawn, \"ETH\");\n        uint256 withdrawAmount = resonanceDataManage.withdrawETHAmount(msg.sender);\n        resonanceDataManage.emptyETHBalance(msg.sender);\n        steps[currentStep].funder[msg.sender].ETHHasWithdrawn = true;\n\n        dest.transfer(withdrawAmount);\n\n        // emit WithdrawAllETH(msg.sender, withdrawAmount);\n        return(msg.sender, withdrawAmount);\n    }\n\n    /// @notice ETH\n    /// @dev ETH\n    function withdrawAllETHByOwner()\n        public\n        payable\n        onlyOwner()\n    {\n        beneficiary.transfer(address(this).balance);\n    }\n\n    /// @notice \n    function isFunder() public view returns(bool) {\n        return steps[currentStep].funder[msg.sender].isFunder;\n    }\n\n    /// @notice msg.senderfunder\n    function isFunderByStep(uint256 _stepIndex) public view returns(bool){\n        return steps[_stepIndex].funder[msg.sender].isFunder;\n    }\n\n    /// @notice funder\n    function getInvitees(address _funder) public view returns(address[] memory) {\n        return invitees[_funder];\n        // return steps[currentStep].funder[_funder].invitees;\n    }\n\n    /// @notice \n    function getResonances()\n        public\n        view\n        onlyOwner()\n        returns(address[] memory)\n    {\n        // emit GetResonances(resonances);\n        return(resonances);\n    }\n\n    /// @notice ETH\n    function getFunderTotalRaised(address _funder) public view onlyOwner() returns(uint256){\n        // emit FunderTotalRaised(resonancesRasiedETH[_funder]);\n        return resonancesRasiedETH[_funder];\n    }\n\n    /// @notice funders\n    /// @dev funders\n    /// @param _stepIndex \n    function getStepFunders(uint256 _stepIndex)\n        public\n        view\n        onlyOwner()\n        returns\n    (\n        address[] memory,\n        uint256[] memory,\n        uint256[] memory,\n        uint256[] memory,\n        uint256[] memory,\n        uint256[] memory\n    )\n    {\n        address[] memory funderAddress;\n        uint256[] memory funderTokenAmount;\n        uint256[] memory funderETHAmount;\n        uint256[] memory funderInvitees;\n        uint256[] memory _earnFromAff;\n        uint256[] memory _inviteesTotalAmount;\n\n        funderAddress = new address[](steps[_stepIndex].funders.length);\n        funderTokenAmount = new uint256[](funderAddress.length);\n        funderETHAmount = new uint256[](funderAddress.length);\n        funderInvitees = new uint256[](funderAddress.length);\n        _earnFromAff = new uint256[](funderAddress.length);\n        _inviteesTotalAmount = new uint256[](funderAddress.length);\n\n        funderAddress = steps[_stepIndex].funders;\n\n        for(uint i = 0 ; i < funderAddress.length; i++){\n            funderTokenAmount[i] = steps[_stepIndex].funder[funderAddress[i]].tokenAmount;\n            funderETHAmount[i] = steps[_stepIndex].funder[funderAddress[i]].ethAmount;\n            funderInvitees[i] = invitees[funderAddress[i]].length;\n            _earnFromAff[i] = earnFromAff[funderAddress[i]];\n            _inviteesTotalAmount[i] = inviteesTotalAmount[funderAddress[i]];\n        }\n\n        return (funderAddress, funderTokenAmount, funderETHAmount, funderInvitees, _earnFromAff, _inviteesTotalAmount);\n    }\n\n    /// @notice tokenETH\n    function getCurrentStepFundsInfo()\n        public\n        view\n        returns(uint256, uint256, uint256)\n    {\n        return(currentStep, steps[currentStep].building.openTokenAmount, steps[currentStep].funding.raisedETH);\n    }\n\n    /// @notice \n    function getBuildingPerioInfo()\n        public\n        view\n        returns(uint256, uint256, uint256, uint256)\n    {\n        uint256 _bpCountdown;\n        uint256 _remainingToken;\n        uint256 _personalTokenLimited;\n        uint256 _totalTokenAmount;\n\n        // TODO:\n        // 0\n        if((resonanceDataManage.getOpeningTime().add(30 minutes)).sub(block.timestamp) <= 0){\n            _bpCountdown = 0;\n        }else{\n            _bpCountdown = (resonanceDataManage.getOpeningTime().add(30 minutes)).sub(block.timestamp);\n        }\n        _remainingToken = steps[currentStep].building.openTokenAmount.\n            sub(steps[currentStep].building.raisedToken).\n            sub(resonanceDataManage.getBuildingTokenFromParty());\n\n        _personalTokenLimited = steps[currentStep].building.personalTokenLimited;\n        _totalTokenAmount = steps[currentStep].building.raisedTokenAmount;\n\n        return(_bpCountdown, _remainingToken, _personalTokenLimited, _totalTokenAmount);\n    }\n\n    // \n    function getFundingPeriodInfo()\n        public\n        view\n        returns(uint256, uint256, uint256)\n    {\n        uint256 _fpCountdown;\n        uint256 _remainingETH;\n        uint256 _rasiedETHAmount;\n\n        // TODO:\n        // 0\n        if((resonanceDataManage.getOpeningTime().add(1 hours)).sub(block.timestamp) <= 0){\n            _fpCountdown = 0;\n        }else{\n            _fpCountdown = (resonanceDataManage.getOpeningTime().add(1 hours)).sub(block.timestamp);\n        }\n        _remainingETH = steps[currentStep].funding.raiseTarget.sub(steps[currentStep].funding.raisedETH);\n        _rasiedETHAmount = steps[currentStep].funding.raisedETH;\n\n        return(_fpCountdown, _remainingETH, _rasiedETHAmount);\n    }\n\n    /// @notice Token\n    function _calculationWithdrawTokenAmount(uint256 _stepIndex) internal view returns(uint256){\n        return steps[_stepIndex].building.raisedToken.\n                mul(steps[_stepIndex].funder[msg.sender].ethAmount).\n                div(steps[_stepIndex].funding.raisedETH);\n    }\n\n    /// @notice \n    function getFunderRewardInfo() public view returns(uint256, uint256, uint256, uint256) {\n        return(\n            luckyRewardInstance.luckyFunderTotalBalance(msg.sender),\n            fissionRewardInstance.fissionFunderTotalBalance(msg.sender),\n            FOMORewardInstance.FOMOFunderTotalBalance(msg.sender),\n            faithRewardInstance.faithRewardAmount(msg.sender)\n        );\n    }\n\n    /// @notice \n    function getFunderAffInfo() public view returns(uint256, uint256) {\n        return(\n            invitees[msg.sender].length, // \n            earnFromAff[msg.sender] // \n        );\n    }\n\n    /// @notice stepIndex\n    function getFunderFundsByStep(uint256 _stepIndex) public view returns(uint256, uint256, uint256, uint256){\n        Funder memory funder = steps[_stepIndex].funder[msg.sender];\n\n        return(\n            _calculationWithdrawTokenAmount(_stepIndex), // Token\n            resonanceDataManage.getETHBalance(msg.sender), // ETH\n            funder.tokenAmount, // \n            funder.ethAmount // ETH\n        );\n    }\n\n    /// @notice \n    /// @param _promoter msg.sender\n    function _addBuilder(address _promoter) internal {\n        // \n        steps[currentStep].funder[msg.sender].funderAddr = msg.sender;\n        steps[currentStep].funder[msg.sender].promoter = _promoter;\n        isBuilder[msg.sender] = true;\n    }\n\n    /// @notice hash\n    function getBlockHash(uint256 _stepIndex) public view returns(bytes32) {\n        return blockhash(steps[_stepIndex].blockNumber+1);\n    }\n\n    /// @notice \n    function setBlockHash(uint256 _stepIndex) public returns(bool) {\n        if(steps[_stepIndex].blockNumber == 0){\n            steps[_stepIndex].blockNumber = block.number;\n            return true;\n        }else{\n            return false;\n        }\n    }\n\n    /// @notice \n    function currentStepIsClosed(uint256 _stepIndex) public view returns(bool) {\n        return steps[_stepIndex].stepIsClosed;\n    }\n\n    bool refundIsFinished;\n\n    /// @notice \n    /// @dev tokenETH\n    function refund() public onlyOwner() returns(bool){\n\n        // \n        require(!refundIsFinished, \"\");\n\n        // \n        uint256 resonanceClosedStep = resonanceDataManage.getResonanceClosedStep();\n        address[] memory funders = steps[resonanceClosedStep].funders;\n\n        // ETHToken\n        for(uint i = 0; i < funders.length; i++){\n            resonanceDataManage.setETHBalance(\n                funders[i],\n                resonanceDataManage.getETHBalance(funders[i]) + steps[resonanceClosedStep].funder[funders[i]].ethAmount\n            );\n\n            resonanceDataManage.setTokenBalance(\n                funders[i],\n                resonanceDataManage.getTokenBalance(funders[i]) + steps[resonanceClosedStep].funder[funders[i]].tokenAmount\n            );\n        }\n\n        refundIsFinished = true;\n\n        return refundIsFinished;\n    }\n\n}",
  "sourcePath": "/Users/a186r/dev/contracts/contract/contract/contracts/Resonance.sol",
  "compiler": {
    "name": "solc",
    "version": "0.5.2+commit.1df8f40c.Emscripten.clang"
  },
  "schemaVersion": "3.0.9",
  "updatedAt": "2019-06-01T11:38:25.574Z",
  "devdoc": {
    "methods": {
      "constructor": {
        "params": {
          "_abcToken": "Token"
        }
      },
      "getStepFunders(uint256)": {
        "details": "funders",
        "params": {
          "_stepIndex": ""
        }
      },
      "initParamForFirstStep(address,address,address)": {
        "details": "ResonanceDataManage"
      },
      "isOwner()": {
        "return": "true if `msg.sender` is the owner of the contract."
      },
      "owner()": {
        "return": "the address of the owner."
      },
      "refund()": {
        "details": "tokenETH"
      },
      "renounceOwnership()": {
        "details": "Allows the current owner to relinquish control of the contract. It will not be possible to call the functions with the `onlyOwner` modifier anymore."
      },
      "setRaiseTarget(uint256)": {
        "details": ""
      },
      "settlementFaithReward(address[])": {
        "params": {
          "_FaithWinnerList": ""
        }
      },
      "settlementStep(address[],address[])": {
        "details": "",
        "params": {
          "_LuckyWinnerList": "",
          "_fissionWinnerList": ""
        }
      },
      "toBeFissionPerson(address)": {
        "details": "TokenApprove",
        "params": {
          "promoter": ""
        }
      },
      "transferOwnership(address)": {
        "details": "Allows the current owner to transfer control of the contract to a newOwner.",
        "params": {
          "newOwner": "The address to transfer ownership to."
        }
      },
      "withdrawAllETHByOwner()": {
        "details": "ETH"
      }
    }
  },
  "userdoc": {
    "methods": {
      "constructor": "",
      "currentStepIsClosed(uint256)": {
        "notice": ""
      },
      "getBlockHash(uint256)": {
        "notice": "hash"
      },
      "getBuildingPerioInfo()": {
        "notice": ""
      },
      "getCurrentStepFundsInfo()": {
        "notice": "tokenETH"
      },
      "getFunderAffInfo()": {
        "notice": ""
      },
      "getFunderFundsByStep(uint256)": {
        "notice": "stepIndex"
      },
      "getFunderRewardInfo()": {
        "notice": ""
      },
      "getFunderTotalRaised(address)": {
        "notice": "ETH"
      },
      "getInvitees(address)": {
        "notice": "funder"
      },
      "getRaiseTarget(uint256)": {
        "notice": ""
      },
      "getResonances()": {
        "notice": ""
      },
      "getStepFunders(uint256)": {
        "notice": "funders"
      },
      "initParamForFirstStep(address,address,address)": {
        "notice": ""
      },
      "isFunder()": {
        "notice": ""
      },
      "isFunderByStep(uint256)": {
        "notice": "msg.senderfunder"
      },
      "refund()": {
        "notice": ""
      },
      "renounceOwnership()": {
        "notice": "Renouncing ownership will leave the contract without an owner, thereby removing any functionality that is only available to the owner."
      },
      "setBlockHash(uint256)": {
        "notice": ""
      },
      "setRaiseTarget(uint256)": {
        "notice": ""
      },
      "settlementFaithReward(address[])": {
        "notice": ""
      },
      "settlementStep(address[],address[])": {
        "notice": ""
      },
      "toBeFissionPerson(address)": {
        "notice": ""
      },
      "transferToken()": {
        "notice": "Token"
      },
      "withdrawAllETH()": {
        "notice": "(ETH)"
      },
      "withdrawAllETHByOwner()": {
        "notice": "ETH"
      },
      "withdrawAllToken()": {
        "notice": "tokentoken"
      }
    }
  }
}