{
  "contractName": "Resonance",
  "abi": [
    {
      "constant": true,
      "inputs": [],
      "name": "currentStep",
      "outputs": [
        {
          "name": "",
          "type": "uint256"
        }
      ],
      "payable": false,
      "stateMutability": "view",
      "type": "function"
    },
    {
      "constant": true,
      "inputs": [],
      "name": "abcToken",
      "outputs": [
        {
          "name": "",
          "type": "address"
        }
      ],
      "payable": false,
      "stateMutability": "view",
      "type": "function"
    },
    {
      "inputs": [
        {
          "name": "_abcToken",
          "type": "address"
        },
        {
          "name": "_beneficiary",
          "type": "address"
        }
      ],
      "payable": false,
      "stateMutability": "nonpayable",
      "type": "constructor"
    },
    {
      "payable": true,
      "stateMutability": "payable",
      "type": "fallback"
    },
    {
      "anonymous": false,
      "inputs": [
        {
          "indexed": false,
          "name": "fissionPerson",
          "type": "address"
        },
        {
          "indexed": false,
          "name": "promoter",
          "type": "address"
        }
      ],
      "name": "ToBeFissionPerson",
      "type": "event"
    },
    {
      "anonymous": false,
      "inputs": [
        {
          "indexed": false,
          "name": "currentStepTokenAmount",
          "type": "uint256"
        },
        {
          "indexed": false,
          "name": "currentStepRaisedETH",
          "type": "uint256"
        }
      ],
      "name": "FundsInfo",
      "type": "event"
    },
    {
      "anonymous": false,
      "inputs": [
        {
          "indexed": false,
          "name": "bpCountdown",
          "type": "uint256"
        },
        {
          "indexed": false,
          "name": "remainingToken",
          "type": "uint256"
        },
        {
          "indexed": false,
          "name": "personalTokenLimited",
          "type": "uint256"
        },
        {
          "indexed": false,
          "name": "totalTokenAmount",
          "type": "uint256"
        }
      ],
      "name": "BuildingPerioInfo",
      "type": "event"
    },
    {
      "anonymous": false,
      "inputs": [
        {
          "indexed": false,
          "name": "fpCountdown",
          "type": "uint256"
        },
        {
          "indexed": false,
          "name": "remainingETH",
          "type": "uint256"
        },
        {
          "indexed": false,
          "name": "rasiedETHAmount",
          "type": "uint256"
        }
      ],
      "name": "FundingPeriodInfo",
      "type": "event"
    },
    {
      "anonymous": false,
      "inputs": [
        {
          "indexed": false,
          "name": "fissionRewardList",
          "type": "address[]"
        },
        {
          "indexed": false,
          "name": "fissionRewardAmount",
          "type": "uint256[]"
        }
      ],
      "name": "FissionRewardInfo",
      "type": "event"
    },
    {
      "anonymous": false,
      "inputs": [
        {
          "indexed": false,
          "name": "FOMORewardList",
          "type": "address[]"
        },
        {
          "indexed": false,
          "name": "FOMORewards",
          "type": "uint256[]"
        }
      ],
      "name": "FOMORewardInfo",
      "type": "event"
    },
    {
      "anonymous": false,
      "inputs": [
        {
          "indexed": false,
          "name": "luckyRewardList",
          "type": "address[]"
        },
        {
          "indexed": false,
          "name": "luckyReward",
          "type": "uint256"
        }
      ],
      "name": "LuckyRewardInfo",
      "type": "event"
    },
    {
      "anonymous": false,
      "inputs": [
        {
          "indexed": false,
          "name": "faithRewardList",
          "type": "address[]"
        },
        {
          "indexed": false,
          "name": "faithRewardAmount",
          "type": "uint256[]"
        }
      ],
      "name": "FaithRewardInfo",
      "type": "event"
    },
    {
      "constant": false,
      "inputs": [
        {
          "name": "_promoter",
          "type": "address"
        },
        {
          "name": "_minAmount",
          "type": "uint256"
        }
      ],
      "name": "toBeFissionPerson",
      "outputs": [],
      "payable": false,
      "stateMutability": "nonpayable",
      "type": "function"
    },
    {
      "constant": false,
      "inputs": [
        {
          "name": "_tokenAmount",
          "type": "uint256"
        }
      ],
      "name": "jointlyBuild",
      "outputs": [],
      "payable": false,
      "stateMutability": "nonpayable",
      "type": "function"
    },
    {
      "constant": false,
      "inputs": [],
      "name": "getCurrentStepFundsInfo",
      "outputs": [],
      "payable": false,
      "stateMutability": "nonpayable",
      "type": "function"
    },
    {
      "constant": false,
      "inputs": [],
      "name": "getBuildingPerioInfo",
      "outputs": [],
      "payable": false,
      "stateMutability": "nonpayable",
      "type": "function"
    },
    {
      "constant": false,
      "inputs": [],
      "name": "getFundingPeriodInfo",
      "outputs": [],
      "payable": false,
      "stateMutability": "nonpayable",
      "type": "function"
    },
    {
      "constant": false,
      "inputs": [
        {
          "name": "_stepIndex",
          "type": "uint256"
        }
      ],
      "name": "getFissionRewardInfo",
      "outputs": [],
      "payable": false,
      "stateMutability": "nonpayable",
      "type": "function"
    },
    {
      "constant": false,
      "inputs": [
        {
          "name": "_stepIndex",
          "type": "uint256"
        }
      ],
      "name": "getFOMORewardIofo",
      "outputs": [],
      "payable": false,
      "stateMutability": "nonpayable",
      "type": "function"
    },
    {
      "constant": false,
      "inputs": [
        {
          "name": "_stepIndex",
          "type": "uint256"
        }
      ],
      "name": "getLuckyRewardInfo",
      "outputs": [],
      "payable": false,
      "stateMutability": "nonpayable",
      "type": "function"
    },
    {
      "constant": false,
      "inputs": [
        {
          "name": "_stepIndex",
          "type": "uint256"
        }
      ],
      "name": "getFaithRewardInfo",
      "outputs": [],
      "payable": false,
      "stateMutability": "nonpayable",
      "type": "function"
    },
    {
      "constant": true,
      "inputs": [],
      "name": "getBeneficiary",
      "outputs": [
        {
          "name": "",
          "type": "address"
        }
      ],
      "payable": false,
      "stateMutability": "view",
      "type": "function"
    },
    {
      "constant": false,
      "inputs": [],
      "name": "dealFissionReward",
      "outputs": [],
      "payable": false,
      "stateMutability": "nonpayable",
      "type": "function"
    },
    {
      "constant": false,
      "inputs": [],
      "name": "_FissionRank",
      "outputs": [],
      "payable": false,
      "stateMutability": "nonpayable",
      "type": "function"
    }
  ],
  "bytecode": "0x608060405260086003556000600660006101000a81548160ff02191690831515021790555034801561003057600080fd5b50604051604080613b438339810180604052604081101561005057600080fd5b810190808051906020019092919080519060200190929190505050336000806101000a81548173ffffffffffffffffffffffffffffffffffffffff021916908373ffffffffffffffffffffffffffffffffffffffff16021790555081600160006101000a81548173ffffffffffffffffffffffffffffffffffffffff021916908373ffffffffffffffffffffffffffffffffffffffff16021790555080600460006101000a81548173ffffffffffffffffffffffffffffffffffffffff021916908373ffffffffffffffffffffffffffffffffffffffff1602179055504260058190555050506139fe806101456000396000f3fe6080604052600436106100fa576000357c0100000000000000000000000000000000000000000000000000000000900480638a18854b1161009c578063c12cd1bc11610076578063c12cd1bc1461051c578063c23afb8a14610533578063d49457601461056e578063e757412814610585576100fa565b80638a18854b1461048f578063912c84ec146104ca578063b4862a71146104e1576100fa565b8063565a2e2c116100d8578063565a2e2c146103df5780635bc34f711461043657806364ab07fa146104615780638294d5a814610478576100fa565b80631e7efbc91461030e57806332fa89a9146103495780633723e1c2146103a4575b600660009054906101000a900460ff1615151561017f576040517f08c379a00000000000000000000000000000000000000000000000000000000081526004018080602001828103825260128152602001807fe585b1e68cafe5b7b2e7bb8fe7bb93e69d9f000000000000000000000000000081525060200191505060405180910390fd5b61708060055401421015801561019b5750620151806005540142105b151561020f576040517f08c379a00000000000000000000000000000000000000000000000000000000081526004018080602001828103825260128152602001807fe4b88de59ca8e58b9fe8b584e69c9fe58685000000000000000000000000000081525060200191505060405180910390fd5b60003490508060086000600754815260200190815260200160002060000160003373ffffffffffffffffffffffffffffffffffffffff1673ffffffffffffffffffffffffffffffffffffffff16815260200190815260200160002060020181905550600160086000600754815260200190815260200160002060000160003373ffffffffffffffffffffffffffffffffffffffff1673ffffffffffffffffffffffffffffffffffffffff16815260200190815260200160002060030160156101000a81548160ff021916908315150217905550806008600060075481526020019081526020016000206006016001016000828254019250508190555050005b34801561031a57600080fd5b506103476004803603602081101561033157600080fd5b81019080803590602001909291905050506105dc565b005b34801561035557600080fd5b506103a26004803603604081101561036c57600080fd5b81019080803573ffffffffffffffffffffffffffffffffffffffff169060200190929190803590602001909291905050506107bd565b005b3480156103b057600080fd5b506103dd600480360360208110156103c757600080fd5b81019080803590602001909291905050506112c9565b005b3480156103eb57600080fd5b506103f461141b565b604051808273ffffffffffffffffffffffffffffffffffffffff1673ffffffffffffffffffffffffffffffffffffffff16815260200191505060405180910390f35b34801561044257600080fd5b5061044b611445565b6040518082815260200191505060405180910390f35b34801561046d57600080fd5b5061047661144b565b005b34801561048457600080fd5b5061048d611648565b005b34801561049b57600080fd5b506104c8600480360360208110156104b257600080fd5b8101908080359060200190929190505050611df9565b005b3480156104d657600080fd5b506104df611fda565b005b3480156104ed57600080fd5b5061051a6004803603602081101561050457600080fd5b81019080803590602001909291905050506120d6565b005b34801561052857600080fd5b5061053161283b565b005b34801561053f57600080fd5b5061056c6004803603602081101561055657600080fd5b8101908080359060200190929190505050612a14565b005b34801561057a57600080fd5b50610583612bf5565b005b34801561059157600080fd5b5061059a612d5c565b604051808273ffffffffffffffffffffffffffffffffffffffff1673ffffffffffffffffffffffffffffffffffffffff16815260200191505060405180910390f35b6105e46138f4565b600860008381526020019081526020016000206008016002016040805190810160405290816000820180548060200260200160405190810160405280929190818152602001828054801561068d57602002820191906000526020600020905b8160009054906101000a900473ffffffffffffffffffffffffffffffffffffffff1673ffffffffffffffffffffffffffffffffffffffff1681526020019060010190808311610643575b50505050508152602001600182018054806020026020016040519081016040528092919081815260200182805480156106e557602002820191906000526020600020905b8154815260200190600101908083116106d1575b50505050508152505090507f6b6aaf38bd1fe94894a8361f3d343ec41c4c18c8cde782e6c3a7d98f64a60a3781600001518260200151604051808060200180602001838103835285818151815260200191508051906020019060200280838360005b83811015610762578082015181840152602081019050610747565b50505050905001838103825284818151815260200191508051906020019060200280838360005b838110156107a4578082015181840152602081019050610789565b5050505090500194505050505060405180910390a15050565b600660009054906101000a900460ff16151515610842576040517f08c379a00000000000000000000000000000000000000000000000000000000081526004018080602001828103825260128152602001807fe585b1e68cafe5b7b2e7bb8fe7bb93e69d9f000000000000000000000000000081525060200191505060405180910390fd5b600554421015801561085957506170806005540142105b15156108cd576040517f08c379a00000000000000000000000000000000000000000000000000000000081526004018080602001828103825260128152602001807fe4b88de59ca8e585b1e5bbbae69c9fe58685000000000000000000000000000081525060200191505060405180910390fd5b73__UintUtils_____________________________63669dafe86003546040518263ffffffff167c01000000000000000000000000000000000000000000000000000000000281526004018082815260200191505060206040518083038186803b15801561093a57600080fd5b505af415801561094e573d6000803e3d6000fd5b505050506040513d602081101561096457600080fd5b810190808051906020019092919050505073__UintUtils_____________________________63669dafe8836040518263ffffffff167c01000000000000000000000000000000000000000000000000000000000281526004018082815260200191505060206040518083038186803b1580156109e057600080fd5b505af41580156109f4573d6000803e3d6000fd5b505050506040513d6020811015610a0a57600080fd5b810190808051906020019092919050505010151515610a91576040517f08c379a00000000000000000000000000000000000000000000000000000000081526004018080602001828103825260128152602001807fe68e88e69d83e9a29de5baa6e4b88de8b6b3000000000000000000000000000081525060200191505060405180910390fd5b73__UintUtils_____________________________63669dafe8826040518263ffffffff167c01000000000000000000000000000000000000000000000000000000000281526004018082815260200191505060206040518083038186803b158015610afc57600080fd5b505af4158015610b10573d6000803e3d6000fd5b505050506040513d6020811015610b2657600080fd5b8101908080519060200190929190505050600160009054906101000a900473ffffffffffffffffffffffffffffffffffffffff1673ffffffffffffffffffffffffffffffffffffffff1663dd62ed3e33306040518363ffffffff167c0100000000000000000000000000000000000000000000000000000000028152600401808373ffffffffffffffffffffffffffffffffffffffff1673ffffffffffffffffffffffffffffffffffffffff1681526020018273ffffffffffffffffffffffffffffffffffffffff1673ffffffffffffffffffffffffffffffffffffffff1681526020019250505060206040518083038186803b158015610c2657600080fd5b505afa158015610c3a573d6000803e3d6000fd5b505050506040513d6020811015610c5057600080fd5b810190808051906020019092919050505010151515610cd7576040517f08c379a00000000000000000000000000000000000000000000000000000000081526004018080602001828103825260128152602001807fe68e88e69d83e9a29de5baa6e4b88de8b6b3000000000000000000000000000081525060200191505060405180910390fd5b600160009054906101000a900473ffffffffffffffffffffffffffffffffffffffff1673ffffffffffffffffffffffffffffffffffffffff166323b872dd333073__UintUtils_____________________________63669dafe86003546040518263ffffffff167c01000000000000000000000000000000000000000000000000000000000281526004018082815260200191505060206040518083038186803b158015610d8457600080fd5b505af4158015610d98573d6000803e3d6000fd5b505050506040513d6020811015610dae57600080fd5b81019080805190602001909291905050506040518463ffffffff167c0100000000000000000000000000000000000000000000000000000000028152600401808473ffffffffffffffffffffffffffffffffffffffff1673ffffffffffffffffffffffffffffffffffffffff1681526020018373ffffffffffffffffffffffffffffffffffffffff1673ffffffffffffffffffffffffffffffffffffffff1681526020018281526020019350505050602060405180830381600087803b158015610e7757600080fd5b505af1158015610e8b573d6000803e3d6000fd5b505050506040513d6020811015610ea157600080fd5b81019080805190602001909291905050501515610f26576040517f08c379a000000000000000000000000000000000000000000000000000000000815260040180806020018281038252601a8152602001807fe8bdace7a7bb746f6b656ee588b0e59088e7baa6e5a4b1e8b4a500000000000081525060200191505060405180910390fd5b600160009054906101000a900473ffffffffffffffffffffffffffffffffffffffff1673ffffffffffffffffffffffffffffffffffffffff166342966c6873__UintUtils_____________________________63669dafe860036040518263ffffffff167c01000000000000000000000000000000000000000000000000000000000281526004018082815260200191505060206040518083038186803b158015610fd057600080fd5b505af4158015610fe4573d6000803e3d6000fd5b505050506040513d6020811015610ffa57600080fd5b81019080805190602001909291905050506040518263ffffffff167c010000000000000000000000000000000000000000000000000000000002815260040180828152602001915050600060405180830381600087803b15801561105d57600080fd5b505af1158015611071573d6000803e3d6000fd5b50505050600160009054906101000a900473ffffffffffffffffffffffffffffffffffffffff1673ffffffffffffffffffffffffffffffffffffffff1663a9059cbb8373__UintUtils_____________________________63669dafe860056040518263ffffffff167c01000000000000000000000000000000000000000000000000000000000281526004018082815260200191505060206040518083038186803b15801561112057600080fd5b505af4158015611134573d6000803e3d6000fd5b505050506040513d602081101561114a57600080fd5b81019080805190602001909291905050506040518363ffffffff167c0100000000000000000000000000000000000000000000000000000000028152600401808373ffffffffffffffffffffffffffffffffffffffff1673ffffffffffffffffffffffffffffffffffffffff16815260200182815260200192505050602060405180830381600087803b1580156111e057600080fd5b505af11580156111f4573d6000803e3d6000fd5b505050506040513d602081101561120a57600080fd5b81019080805190602001909291905050505061122582612d82565b61122e826132f6565b7f95b9b14e81807a19f0d780820ad803eba32584f0671e1410f6815a83e75d4ef73383604051808373ffffffffffffffffffffffffffffffffffffffff1673ffffffffffffffffffffffffffffffffffffffff1681526020018273ffffffffffffffffffffffffffffffffffffffff1673ffffffffffffffffffffffffffffffffffffffff1681526020019250505060405180910390a15050565b6112d161390e565b600860008381526020019081526020016000206008016004016040805190810160405290816000820180548060200260200160405190810160405280929190818152602001828054801561137a57602002820191906000526020600020905b8160009054906101000a900473ffffffffffffffffffffffffffffffffffffffff1673ffffffffffffffffffffffffffffffffffffffff1681526020019060010190808311611330575b5050505050815260200160018201548152505090507fdb5afb48b961706eba89e5cf3ab5ae37dc9c360703069de0c2a6669f7e0f4b31816000015182602001516040518080602001838152602001828103825284818151815260200191508051906020019060200280838360005b838110156114035780820151818401526020810190506113e8565b50505050905001935050505060405180910390a15050565b6000600460009054906101000a900473ffffffffffffffffffffffffffffffffffffffff16905090565b60075481565b600660009054906101000a900460ff161515156114d0576040517f08c379a00000000000000000000000000000000000000000000000000000000081526004018080602001828103825260128152602001807fe585b1e68cafe5b7b2e7bb8fe7bb93e69d9f000000000000000000000000000081525060200191505060405180910390fd5b60055442101580156114e757506170806005540142105b151561155b576040517f08c379a00000000000000000000000000000000000000000000000000000000081526004018080602001828103825260128152602001807fe4b88de59ca8e585b1e5bbbae69c9fe58685000000000000000000000000000081525060200191505060405180910390fd5b60008060008042617080600554010393506115b5600860006007548152602001908152602001600020600201600101546008600060075481526020019081526020016000206002016000015461349890919063ffffffff16565b92506008600060075481526020019081526020016000206002016002015491506008600060075481526020019081526020016000206002016003015490507fe11de7dbf210471e3fa9c2ce8526b79b1202a34755ab39aa0ee452e2de7dd9e3848484846040518085815260200184815260200183815260200182815260200194505050505060405180910390a150505050565b6000809054906101000a900473ffffffffffffffffffffffffffffffffffffffff1673ffffffffffffffffffffffffffffffffffffffff163373ffffffffffffffffffffffffffffffffffffffff1614151561170c576040517f08c379a000000000000000000000000000000000000000000000000000000000815260040180806020018281038252601b8152602001807fe58faae69c89e7aea1e79086e59198e58fafe4bba5e8b083e794a8000000000081525060200191505060405180910390fd5b600160075410151515611787576040517f08c379a00000000000000000000000000000000000000000000000000000000081526004018080602001828103825260158152602001807fe7acace4b880e8bdaee8bf98e69caae7bb93e69d9f000000000000000000000081525060200191505060405180910390fd5b600754600160075403101515611805576040517f08c379a00000000000000000000000000000000000000000000000000000000081526004018080602001828103825260188152602001807fe8be93e585a5e79a84e8bdaee6aca1e4b88de6ada3e7a1ae000000000000000081525060200191505060405180910390fd5b60086000600160075403815260200190815260200160002060170160009054906101000a900460ff1615156118a2576040517f08c379a00000000000000000000000000000000000000000000000000000000081526004018080602001828103825260158152602001807fe8afa5e8bdaee6aca1e5b09ae69caae7bb93e69d9f000000000000000000000081525060200191505060405180910390fd5b60086000600160075403815260200190815260200160002060120160009054906101000a900460ff16151515611923576040517f08c379a00000000000000000000000000000000000000000000000000000000081526004018080602001828103825260218152602001806139b26021913960400191505060405180910390fd5b6000611a0f6064611a01601473__UintUtils_____________________________63669dafe8600860006001600754038152602001908152602001600020600601600101546040518263ffffffff167c01000000000000000000000000000000000000000000000000000000000281526004018082815260200191505060206040518083038186803b1580156119b857600080fd5b505af41580156119cc573d6000803e3d6000fd5b505050506040513d60208110156119e257600080fd5b81019080805190602001909291905050506134ba90919063ffffffff16565b6134f890919063ffffffff16565b90506060600860006001600754038152602001908152602001600020600801600001600101805480602002602001604051908101604052809291908181526020018280548015611a7e57602002820191906000526020600020905b815481526020019060010190808311611a6a575b5050505050905060008090505b600860006001600754038152602001908152602001600020600801600001600101805490508160ff16111515611d8f576008600060016007540381526020019081526020016000206011018160ff16815481101515611ae657fe5b906000526020600020906002020160000160009054906101000a900473ffffffffffffffffffffffffffffffffffffffff166008600060016007540381526020019081526020016000206008016000016000018260ff16815481101515611b4957fe5b9060005260206000200160006101000a81548173ffffffffffffffffffffffffffffffffffffffff021916908373ffffffffffffffffffffffffffffffffffffffff16021790555060008160ff161415611be957611bc56103e8611bb76014866134ba90919063ffffffff16565b6134f890919063ffffffff16565b828260ff16815181101515611bd657fe5b9060200190602002018181525050611d82565b60018160ff1610158015611c01575060028160ff1611155b15611c5257611c2e6103e8611c20600f866134ba90919063ffffffff16565b6134f890919063ffffffff16565b828260ff16815181101515611c3f57fe5b9060200190602002018181525050611d81565b60038160ff1610158015611c6a575060058160ff1611155b15611cbb57611c976103e8611c89600a866134ba90919063ffffffff16565b6134f890919063ffffffff16565b828260ff16815181101515611ca857fe5b9060200190602002018181525050611d80565b60068160ff1610158015611cd3575060098160ff1611155b15611d2457611d006103e8611cf26005866134ba90919063ffffffff16565b6134f890919063ffffffff16565b828260ff16815181101515611d1157fe5b9060200190602002018181525050611d7f565b611d5f6028611d516103e8611d43600a886134ba90919063ffffffff16565b6134f890919063ffffffff16565b6134f890919063ffffffff16565b828260ff16815181101515611d7057fe5b90602001906020020181815250505b5b5b5b8080600101915050611a8b565b50611d9e600160075403613522565b1515611df5576040517f08c379a000000000000000000000000000000000000000000000000000000000815260040180806020018281038252602481526020018061395d6024913960400191505060405180910390fd5b5050565b611e01613928565b6008600083815260200190815260200160002060080160000160408051908101604052908160008201805480602002602001604051908101604052809291908181526020018280548015611eaa57602002820191906000526020600020905b8160009054906101000a900473ffffffffffffffffffffffffffffffffffffffff1673ffffffffffffffffffffffffffffffffffffffff1681526020019060010190808311611e60575b5050505050815260200160018201805480602002602001604051908101604052809291908181526020018280548015611f0257602002820191906000526020600020905b815481526020019060010190808311611eee575b50505050508152505090507f9c8d21d9775b290867a96ccd228b84fc35453ac06e714f5717f74c84dd962d7e81600001518260200151604051808060200180602001838103835285818151815260200191508051906020019060200280838360005b83811015611f7f578082015181840152602081019050611f64565b50505050905001838103825284818151815260200191508051906020019060200280838360005b83811015611fc1578082015181840152602081019050611fa6565b5050505090500194505050505060405180910390a15050565b600660009054906101000a900460ff1615151561205f576040517f08c379a00000000000000000000000000000000000000000000000000000000081526004018080602001828103825260128152602001807fe585b1e68cafe5b7b2e7bb8fe7bb93e69d9f000000000000000000000000000081525060200191505060405180910390fd5b7fefb17818fcd18149842dc8ec26c8d51b1f7cd86669024d8ad385c95727e301b26008600060075481526020019081526020016000206002016000015460086000600754815260200190815260200160002060060160010154604051808381526020018281526020019250505060405180910390a1565b600660009054906101000a900460ff1615151561215b576040517f08c379a00000000000000000000000000000000000000000000000000000000081526004018080602001828103825260128152602001807fe585b1e68cafe5b7b2e7bb8fe7bb93e69d9f000000000000000000000000000081525060200191505060405180910390fd5b600554421015801561217257506170806005540142105b15156121e6576040517f08c379a00000000000000000000000000000000000000000000000000000000081526004018080602001828103825260128152602001807fe4b88de59ca8e585b1e5bbbae69c9fe58685000000000000000000000000000081525060200191505060405180910390fd5b60086000600754815260200190815260200160002060000160003373ffffffffffffffffffffffffffffffffffffffff1673ffffffffffffffffffffffffffffffffffffffff16815260200190815260200160002060030160149054906101000a900460ff1615156122a3576040517f08c379a00000000000000000000000000000000000000000000000000000000081526004018080602001828103825260318152602001806139816031913960400191505060405180910390fd5b73__UintUtils_____________________________63669dafe8826040518263ffffffff167c01000000000000000000000000000000000000000000000000000000000281526004018082815260200191505060206040518083038186803b15801561230e57600080fd5b505af4158015612322573d6000803e3d6000fd5b505050506040513d602081101561233857600080fd5b8101908080519060200190929190505050600160009054906101000a900473ffffffffffffffffffffffffffffffffffffffff1673ffffffffffffffffffffffffffffffffffffffff1663dd62ed3e33306040518363ffffffff167c0100000000000000000000000000000000000000000000000000000000028152600401808373ffffffffffffffffffffffffffffffffffffffff1673ffffffffffffffffffffffffffffffffffffffff1681526020018273ffffffffffffffffffffffffffffffffffffffff1673ffffffffffffffffffffffffffffffffffffffff1681526020019250505060206040518083038186803b15801561243857600080fd5b505afa15801561244c573d6000803e3d6000fd5b505050506040513d602081101561246257600080fd5b8101908080519060200190929190505050101515156124e9576040517f08c379a00000000000000000000000000000000000000000000000000000000081526004018080602001828103825260128152602001807fe68e88e69d83e9a29de5baa6e4b88de8b6b3000000000000000000000000000081525060200191505060405180910390fd5b600160009054906101000a900473ffffffffffffffffffffffffffffffffffffffff1673ffffffffffffffffffffffffffffffffffffffff166323b872dd333073__UintUtils_____________________________63669dafe8866040518263ffffffff167c01000000000000000000000000000000000000000000000000000000000281526004018082815260200191505060206040518083038186803b15801561259457600080fd5b505af41580156125a8573d6000803e3d6000fd5b505050506040513d60208110156125be57600080fd5b81019080805190602001909291905050506040518463ffffffff167c0100000000000000000000000000000000000000000000000000000000028152600401808473ffffffffffffffffffffffffffffffffffffffff1673ffffffffffffffffffffffffffffffffffffffff1681526020018373ffffffffffffffffffffffffffffffffffffffff1673ffffffffffffffffffffffffffffffffffffffff1681526020018281526020019350505050602060405180830381600087803b15801561268757600080fd5b505af115801561269b573d6000803e3d6000fd5b505050506040513d60208110156126b157600080fd5b81019080805190602001909291905050501515612736576040517f08c379a000000000000000000000000000000000000000000000000000000000815260040180806020018281038252601a8152602001807fe8bdace7a7bb746f6b656ee588b0e59088e7baa6e5a4b1e8b4a500000000000081525060200191505060405180910390fd5b73__UintUtils_____________________________63669dafe8826040518263ffffffff167c01000000000000000000000000000000000000000000000000000000000281526004018082815260200191505060206040518083038186803b1580156127a157600080fd5b505af41580156127b5573d6000803e3d6000fd5b505050506040513d60208110156127cb57600080fd5b810190808051906020019092919050505060086000600754815260200190815260200160002060000160003373ffffffffffffffffffffffffffffffffffffffff1673ffffffffffffffffffffffffffffffffffffffff1681526020019081526020016000206001018190555050565b600660009054906101000a900460ff161515156128c0576040517f08c379a00000000000000000000000000000000000000000000000000000000081526004018080602001828103825260128152602001807fe585b1e68cafe5b7b2e7bb8fe7bb93e69d9f000000000000000000000000000081525060200191505060405180910390fd5b6170806005540142101580156128dc5750620151806005540142105b1515612950576040517f08c379a00000000000000000000000000000000000000000000000000000000081526004018080602001828103825260128152602001807fe4b88de59ca8e58b9fe8b584e69c9fe58685000000000000000000000000000081525060200191505060405180910390fd5b6000806000426018600554010392506129a8600860006007548152602001908152602001600020600601600101546008600060075481526020019081526020016000206006016000015461349890919063ffffffff16565b91506008600060075481526020019081526020016000206006016001015490507fae8973493d4c3e41a9615da7dbb45a3e85e217ab826ebf232f236520f89ce5bd83838360405180848152602001838152602001828152602001935050505060405180910390a1505050565b612a1c613942565b6008600083815260200190815260200160002060080160060160408051908101604052908160008201805480602002602001604051908101604052809291908181526020018280548015612ac557602002820191906000526020600020905b8160009054906101000a900473ffffffffffffffffffffffffffffffffffffffff1673ffffffffffffffffffffffffffffffffffffffff1681526020019060010190808311612a7b575b5050505050815260200160018201805480602002602001604051908101604052809291908181526020018280548015612b1d57602002820191906000526020600020905b815481526020019060010190808311612b09575b50505050508152505090507fe7e0e5e0f865e7ed55d089ae13321715f110f39374632f8891058404d595591681600001518260200151604051808060200180602001838103835285818151815260200191508051906020019060200280838360005b83811015612b9a578082015181840152602081019050612b7f565b50505050905001838103825284818151815260200191508051906020019060200280838360005b83811015612bdc578082015181840152602081019050612bc1565b5050505090500194505050505060405180910390a15050565b617080600554014210158015612c115750620151806005540142105b1515612c85576040517f08c379a00000000000000000000000000000000000000000000000000000000081526004018080602001828103825260128152602001807fe4b88de59ca8e58b9fe8b584e69c9fe58685000000000000000000000000000081525060200191505060405180910390fd5b60006008600060075481526020019081526020016000206011018054905014151515612d19576040517f08c379a000000000000000000000000000000000000000000000000000000000815260040180806020018281038252600c8152602001807fe695b0e7bb84e4b8bae7a9ba000000000000000000000000000000000000000081525060200191505060405180910390fd5b612d5a600860006007548152602001908152602001600020601101600060016008600060075481526020019081526020016000206011018054905003613687565b565b600160009054906101000a900473ffffffffffffffffffffffffffffffffffffffff1681565b600073ffffffffffffffffffffffffffffffffffffffff168173ffffffffffffffffffffffffffffffffffffffff1614151515612e02576040517f08c379a0000000000000000000000000000000000000000000000000000000008152600401808060200182810382526000815260200160200191505060405180910390fd5b73__UintUtils_____________________________63669dafe860056040518263ffffffff167c01000000000000000000000000000000000000000000000000000000000281526004018082815260200191505060206040518083038186803b158015612e6e57600080fd5b505af4158015612e82573d6000803e3d6000fd5b505050506040513d6020811015612e9857600080fd5b810190808051906020019092919050505060086000600754815260200190815260200160002060010160008373ffffffffffffffffffffffffffffffffffffffff1673ffffffffffffffffffffffffffffffffffffffff168152602001908152602001600020600101600082825401925050819055508060086000600754815260200190815260200160002060010160008373ffffffffffffffffffffffffffffffffffffffff1673ffffffffffffffffffffffffffffffffffffffff16815260200190815260200160002060000160006101000a81548173ffffffffffffffffffffffffffffffffffffffff021916908373ffffffffffffffffffffffffffffffffffffffff16021790555060006008600060075481526020019081526020016000206011018054905014156130da5760086000600754815260200190815260200160002060110160086000600754815260200190815260200160002060010160008373ffffffffffffffffffffffffffffffffffffffff1673ffffffffffffffffffffffffffffffffffffffff168152602001908152602001600020908060018154018082558091505090600182039060005260206000209060020201600090919290919091506000820160009054906101000a900473ffffffffffffffffffffffffffffffffffffffff168160000160006101000a81548173ffffffffffffffffffffffffffffffffffffffff021916908373ffffffffffffffffffffffffffffffffffffffff160217905550600182015481600101555050506132f3565b60008090505b600860006007548152602001908152602001600020601101805490508110156132f1578173ffffffffffffffffffffffffffffffffffffffff166008600060075481526020019081526020016000206011018281548110151561313f57fe5b906000526020600020906002020160000160009054906101000a900473ffffffffffffffffffffffffffffffffffffffff1673ffffffffffffffffffffffffffffffffffffffff1614156131d7576005600860006007548152602001908152602001600020601101828154811015156131b457fe5b9060005260206000209060020201600101600082825401925050819055506132e4565b60086000600754815260200190815260200160002060110160086000600754815260200190815260200160002060010160008473ffffffffffffffffffffffffffffffffffffffff1673ffffffffffffffffffffffffffffffffffffffff168152602001908152602001600020908060018154018082558091505090600182039060005260206000209060020201600090919290919091506000820160009054906101000a900473ffffffffffffffffffffffffffffffffffffffff168160000160006101000a81548173ffffffffffffffffffffffffffffffffffffffff021916908373ffffffffffffffffffffffffffffffffffffffff160217905550600182015481600101555050505b80806001019150506130e0565b505b50565b3360086000600754815260200190815260200160002060000160003373ffffffffffffffffffffffffffffffffffffffff1673ffffffffffffffffffffffffffffffffffffffff16815260200190815260200160002060000160006101000a81548173ffffffffffffffffffffffffffffffffffffffff021916908373ffffffffffffffffffffffffffffffffffffffff1602179055508060086000600754815260200190815260200160002060000160003373ffffffffffffffffffffffffffffffffffffffff1673ffffffffffffffffffffffffffffffffffffffff16815260200190815260200160002060030160006101000a81548173ffffffffffffffffffffffffffffffffffffffff021916908373ffffffffffffffffffffffffffffffffffffffff160217905550600160086000600754815260200190815260200160002060000160003373ffffffffffffffffffffffffffffffffffffffff1673ffffffffffffffffffffffffffffffffffffffff16815260200190815260200160002060030160146101000a81548160ff02191690831515021790555050565b60008282111515156134a957600080fd5b600082840390508091505092915050565b6000808314156134cd57600090506134f2565b600082840290508284828115156134e057fe5b041415156134ed57600080fd5b809150505b92915050565b6000808211151561350857600080fd5b6000828481151561351557fe5b0490508091505092915050565b60008060008090505b600860008581526020019081526020016000206008016000016001018054905081101561359757600860008581526020019081526020016000206008016000016001018181548110151561357b57fe5b906000526020600020015482019150808060010191505061352b565b5061367d606461366f601473__UintUtils_____________________________63669dafe8600860008a8152602001908152602001600020600601600101546040518263ffffffff167c01000000000000000000000000000000000000000000000000000000000281526004018082815260200191505060206040518083038186803b15801561362657600080fd5b505af415801561363a573d6000803e3d6000fd5b505050506040513d602081101561365057600080fd5b81019080805190602001909291905050506134ba90919063ffffffff16565b6134f890919063ffffffff16565b8114915050919050565b6000829050600082905060008560028686038115156136a257fe5b0486018154811015156136b157fe5b90600052602060002090600202016001015490505b81831115156138c4575b8086848154811015156136df57fe5b90600052602060002090600202016001015410156137045782806001019350506136d0565b5b858281548110151561371357fe5b90600052602060002090600202016001015481101561373a57818060019003925050613705565b81831115156138bf57858281548110151561375157fe5b9060005260206000209060020201868481548110151561376d57fe5b9060005260206000209060020201819150809050878581548110151561378f57fe5b9060005260206000209060020201600089868154811015156137ad57fe5b90600052602060002090600202016000849190506000820160009054906101000a900473ffffffffffffffffffffffffffffffffffffffff168160000160006101000a81548173ffffffffffffffffffffffffffffffffffffffff021916908373ffffffffffffffffffffffffffffffffffffffff160217905550600182015481600101555050839190506000820160009054906101000a900473ffffffffffffffffffffffffffffffffffffffff168160000160006101000a81548173ffffffffffffffffffffffffffffffffffffffff021916908373ffffffffffffffffffffffffffffffffffffffff160217905550600182015481600101555050505082806001019350508180600190039250505b6136c6565b818510156138d8576138d7868684613687565b5b838310156138ec576138eb868486613687565b5b505050505050565b604080519081016040528060608152602001606081525090565b604080519081016040528060608152602001600081525090565b604080519081016040528060608152602001606081525090565b60408051908101604052806060815260200160608152509056fee5a596e58ab1e98791e9a29de69c89e997aee9a298efbc8ce68b92e7bb9de8bdace8b4a6e8b083e794a8e88085e4b88de698afe7bb84e5bbbae880852fe8a382e58f98e88085efbc8ce6b2a1e69c89e69d83e99990e8afa5e8bdaee6aca1e5a596e58ab1e5b7b2e7bb8fe58f91e694bee5ae8ce6af95a165627a7a723058202e5ced83a23f2a4ff1b8a9485fa0c280e58c28c0470696f38fe9f033432973230029",
  "source": "pragma solidity >=0.4.21 <0.6.0;\n\nimport \"../node_modules/openzeppelin-solidity/contracts/math/SafeMath.sol\";\nimport \"./ABCToken.sol\";\nimport \"./UintUtils.sol\";\nimport \"./FOMOReward.sol\";\nimport \"./LuckyReward.sol\";\nimport \"./FaithReward.sol\";\n\n// TODO:token()\ncontract Resonance {\n\n\n            // currentReward.fissionRewardList,\n            // currentReward.fissionRewardAmount,\n            // currentReward.FOMORewardList,\n            // currentReward.FOMORewards,\n            // currentReward.luckyRewardList,\n            // currentReward.luckyReward,\n            // currentReward.faithRewardList,\n            // currentReward.faithRewardAmount,\n            // currentReward.lockedBlockNum\n    // \n    // \n    event ToBeFissionPerson(address fissionPerson,address promoter);\n    event FundsInfo(uint256 currentStepTokenAmount, uint256 currentStepRaisedETH);\n    event BuildingPerioInfo(uint256 bpCountdown, uint256 remainingToken, uint256 personalTokenLimited, uint256 totalTokenAmount);\n    event FundingPeriodInfo(uint256 fpCountdown, uint256 remainingETH, uint256 rasiedETHAmount);\n    \n    // \n    event FissionRewardInfo(address[] fissionRewardList, uint256[] fissionRewardAmount);\n    event FOMORewardInfo(address[] FOMORewardList, uint256[] FOMORewards);\n    event LuckyRewardInfo(address[] luckyRewardList, uint256 luckyReward);\n    event FaithRewardInfo(address[] faithRewardList, uint256[] faithRewardAmount);\n\n    // modifier\n    modifier onlyAdmin(){\n        require(msg.sender == admin, \"\");\n        _;\n    }\n\n    // \n    modifier softCapReached(){\n        require(steps[currentStep].funding.raisedETH >= steps[currentStep].softCap, \"\");\n        _;\n    }\n\n    // \n    modifier hardCapReached(){\n        require(steps[currentStep].funding.raisedETH < steps[currentStep].hardCap, \"\");\n        _;\n    }\n\n    // \n    modifier isBuildingPeriod() {\n        require(block.timestamp >= openingTime && block.timestamp < openingTime + 8 hours, \"\");\n        _;\n    }\n\n    // \n    modifier isFundingPeriod() {\n        require(block.timestamp >= openingTime + 8 hours && block.timestamp < openingTime + 24 hours, \"\");\n        _;\n    }\n\n    // \n    modifier isBuilder() {\n        require(steps[currentStep].funders[msg.sender].isBuilder, \"/\");\n        _;\n    }\n\n    // \n    modifier isFunder() {\n        require(steps[currentStep].funders[msg.sender].isFunder, \"\");\n        _;\n    }\n\n    // \n    modifier crowdsaleRunning() {\n        require(!crowdsaleClosed, \"\");\n        _;\n    }\n\n    address admin;\n\n    // \n    ABCToken public abcToken;\n\n    using SafeMath for uint256;\n\n    // \n    uint256 private fundsPool;\n\n    // \n    uint256 private weiMinToken = 8;\n\n    // 60%\n    address payable private beneficiary;\n\n    // \n    uint256 private openingTime;\n\n    // bool fundingSoftCapReached = false;  // \n    // bool fundingHardCapReached = false;  // \n    bool crowdsaleClosed = false;   //  \n\n    //  affman\n    struct Affman{\n        address addr; // \n        uint256 affIncome; // \n    }\n\n    // \n    struct Funder{\n        address funderAddr; // \n        uint256 tokenAmount; // token\n        uint256 ethAmount; // eth\n        address promoter; // \n        bool isBuilder; // /\n        bool isFunder; // \n    }\n\n    // \n    struct Building{\n        uint256 tokenAmount; // Token\n        uint256 raisedToken; // token\n        uint256 personalTokenLimited;// token\n        uint256 raisedTokenAmount; // Token\n    }\n\n    // \n    struct Funding{\n        uint256 ETHAmount; // ETH\n        uint256 raisedETH; // ETH\n    }\n\n    // \n    // mapping\n    // +mappingmapping(address => uint256) rewards; \n    // \n    struct FissionReward{\n        address[] fissionRewardList; // \n        uint256[] fissionRewardAmount; // \n    }\n\n    struct FOMOReward{\n        address[] FOMORewardList; // FOMO\n        uint256[] FOMORewards; // FOMO\n    }\n\n    struct LuckyReward{\n        address[] luckyRewardList; // \n        uint256 luckyRewardAmount; // \n    }\n\n    struct FaithReward{\n        address[] faithRewardList; // \n        uint256[] faithRewardAmount; // \n    }\n\n    struct Reward{\n        FissionReward fissionReward;\n        FOMOReward FOMOreward;\n        LuckyReward luckyReward;\n        FaithReward faithReward;\n        uint256 lockedBlockNum;\n    }\n\n    // \n    struct Step{\n        mapping(address => Funder) funders;// \n        mapping(address => Affman) affmans; // \n        Building building; // \n        Funding funding; // \n        Reward reward; // \n        Affman[] affmanArray; // \n        bool fissionRewardIsFinished; // \n        uint256 upperLimit; // \n        uint256 softCap; // \n        uint256 hardCap; // \n        uint256 rate; // \n        bool stepIsClosed; // \n    }\n\n    uint256 public currentStep;\n\n    // mapping\n    // TODO:,\n    // Step[] public steps;\n    mapping(uint256 => Step) steps;\n\n    // \n    constructor(ABCToken _abcToken, address payable _beneficiary) public {\n        admin = msg.sender;\n        abcToken = _abcToken; // abc Token\n        beneficiary = _beneficiary; // \n        openingTime = block.timestamp; // \n    }\n\n    // \n    // token\n    function toBeFissionPerson(\n        address _promoter,\n        uint256 _minAmount\n    )\n        public\n        crowdsaleRunning()\n        isBuildingPeriod()\n    {\n        // \n        require(UintUtils.toWei(_minAmount) >= UintUtils.toWei(weiMinToken),\"\");\n        // \n        require(abcToken.allowance(msg.sender, address(this)) >= UintUtils.toWei(_minAmount),\"\");\n\n        require(abcToken.transferFrom(msg.sender,address(this), UintUtils.toWei(weiMinToken)),\"token\");\n\n        // 3\n        abcToken.burn(UintUtils.toWei(3));\n        // 5\n        abcToken.transfer(address(_promoter), UintUtils.toWei(5));\n\n        _addAffman(_promoter);\n        _addBuilder(_promoter);\n\n        emit ToBeFissionPerson(msg.sender,_promoter);\n    }\n\n    // token\n    function jointlyBuild(\n        uint256 _tokenAmount\n    )\n        public\n        crowdsaleRunning()\n        isBuildingPeriod()\n        isBuilder()\n    {\n        // \n        require(abcToken.allowance(msg.sender, address(this)) >= UintUtils.toWei(_tokenAmount),\"\");\n        // \n        require(abcToken.transferFrom(msg.sender,address(this), UintUtils.toWei(_tokenAmount)),\"token\");\n        steps[currentStep].funders[msg.sender].tokenAmount = UintUtils.toWei(_tokenAmount);\n    }\n\n    // \n    // \n    function ()\n        external\n        payable\n        crowdsaleRunning()\n        isFundingPeriod()\n    {\n        uint amount = msg.value;\n        steps[currentStep].funders[msg.sender].ethAmount = amount;\n        steps[currentStep].funders[msg.sender].isFunder = true;\n        steps[currentStep].funding.raisedETH += amount;\n    }\n\n    // tokenETH\n    function getCurrentStepFundsInfo()\n        public\n        crowdsaleRunning()\n    {\n        emit FundsInfo(steps[currentStep].building.tokenAmount, steps[currentStep].funding.raisedETH);\n    }\n\n    // \n    function getBuildingPerioInfo()\n        public\n        crowdsaleRunning()\n        isBuildingPeriod()\n    {\n        uint256 _bpCountdown;\n        uint256 _remainingToken;\n        uint256 _personalTokenLimited;\n        uint256 _totalTokenAmount;\n\n        _bpCountdown = (openingTime + 8 hours) - block.timestamp;\n        _remainingToken = steps[currentStep].building.tokenAmount.sub(steps[currentStep].building.raisedToken);\n        _personalTokenLimited = steps[currentStep].building.personalTokenLimited;\n        _totalTokenAmount = steps[currentStep].building.raisedTokenAmount;\n        emit BuildingPerioInfo(_bpCountdown, _remainingToken, _personalTokenLimited, _totalTokenAmount);\n    }\n\n    // \n    function getFundingPeriodInfo()\n        public\n        crowdsaleRunning()\n        isFundingPeriod()\n    {\n        uint256 _fpCountdown;\n        uint256 _remainingETH;\n        uint256 _rasiedETHAmount;\n\n        _fpCountdown = (openingTime + 24) - block.timestamp;\n        _remainingETH = steps[currentStep].funding.ETHAmount.sub(steps[currentStep].funding.raisedETH);\n        _rasiedETHAmount = steps[currentStep].funding.raisedETH;\n        emit FundingPeriodInfo(_fpCountdown, _remainingETH, _rasiedETHAmount);\n    }\n\n    // event FissionRewardInfo(address[] fissionRewardList, uint256[] fissionRewardAmount);\n    // event FOMORewardInfo(address[] FOMORewardList, uint256[] FOMORewards);\n    // event LuckyRewardInfo(address[] luckyRewardList, uint256 luckyReward, uint256 lockedBlockNum);\n    // event FaithRewardInfo(address[] faithRewardList, uint256[] faithRewardAmount);\n\n    // \n    function getFissionRewardInfo(uint256 _stepIndex)\n        public\n    {\n        FissionReward memory currentStepFissionReward = steps[_stepIndex].reward.fissionReward;\n        emit FissionRewardInfo(\n            currentStepFissionReward.fissionRewardList,\n            currentStepFissionReward.fissionRewardAmount\n        );\n    }\n\n    // FOMO\n    function getFOMORewardIofo(uint256 _stepIndex)\n        public\n    {\n        FOMOReward memory currentStepFissionReward = steps[_stepIndex].reward.FOMOreward;\n        emit FOMORewardInfo(\n            currentStepFissionReward.FOMORewardList,\n            currentStepFissionReward.FOMORewards\n        );\n    }\n\n    // \n    function getLuckyRewardInfo(uint256 _stepIndex)\n        public\n    {\n        LuckyReward memory currentStepLuckyReward = steps[_stepIndex].reward.luckyReward;\n        emit LuckyRewardInfo(\n            currentStepLuckyReward.luckyRewardList,\n            currentStepLuckyReward.luckyRewardAmount\n        );\n    }\n\n    function getFaithRewardInfo(uint256 _stepIndex)\n        public\n    {\n        FaithReward memory faithReward = steps[_stepIndex].reward.faithReward;\n        emit FaithRewardInfo(\n            faithReward.faithRewardList,\n            faithReward.faithRewardAmount\n        );\n    }\n\n    // \n    // \n    function settlementReward() internal {\n\n    }\n\n    // TODO:\n\n    // add affman\n    function _addAffman(address _promoter) internal {\n        // TODO: \n        require(_promoter != address(0), \"\");\n\n        steps[currentStep].affmans[_promoter].affIncome += UintUtils.toWei(5);\n        steps[currentStep].affmans[_promoter].addr = _promoter;\n\n        if(steps[currentStep].affmanArray.length == 0){\n            steps[currentStep].affmanArray.push(steps[currentStep].affmans[_promoter]);\n        } else {\n            for(uint i = 0; i < steps[currentStep].affmanArray.length; i++){\n                if(steps[currentStep].affmanArray[i].addr == _promoter){\n                    steps[currentStep].affmanArray[i].affIncome += 5;\n                }else{\n                    steps[currentStep].affmanArray.push(steps[currentStep].affmans[_promoter]);\n                }\n            }\n        }\n    }\n\n    // add builder\n    function _addBuilder(address _promoter) internal {\n        steps[currentStep].funders[msg.sender].funderAddr = msg.sender;\n        steps[currentStep].funders[msg.sender].promoter = _promoter;\n        steps[currentStep].funders[msg.sender].isBuilder = true;\n    }\n\n    // \n    function getBeneficiary() public view returns(address payable) {\n        return beneficiary;\n    }\n\n    // ETH\n    function _forwardFunds() internal {\n        // 60%\n        beneficiary.transfer(steps[currentStep].funding.raisedETH.mul(60).div(100));\n    }\n\n    // nn-1\n\n    // 1.\n    // \n    // \n    // \n\n    // \n    // \n    // TODO:\n    // TODO: currentStep-1 \n    function dealFissionReward()\n        public\n        onlyAdmin()\n    {\n        // \n        require(currentStep >= 1, \"\");\n\n        require(currentStep-1 < currentStep, \"\");\n        // \n        require(steps[currentStep-1].stepIsClosed, \"\");\n        //  currentStep-1 \n        require(!steps[currentStep-1].fissionRewardIsFinished, \"\");\n\n        // 20%ETH\n        uint256 totalFissionRewardAmount = UintUtils.toWei(steps[currentStep-1].funding.raisedETH).mul(20).div(100);\n\n        uint256[] memory fissionRewardAmount = steps[currentStep-1].reward.fissionReward.fissionRewardAmount;\n\n        // TODO:5050\n        for(uint8 i = 0; i <= steps[currentStep-1].reward.fissionReward.fissionRewardAmount.length; i++) {\n\n            steps[currentStep-1].reward.fissionReward.fissionRewardList[i] = (steps[currentStep-1].affmanArray[i].addr);\n\n            if (i == 0) { //1\n                fissionRewardAmount[i] = (totalFissionRewardAmount.mul(20).div(1000));\n            } else if (i >= 1 && i <= 2) { // 23\n                fissionRewardAmount[i] = (totalFissionRewardAmount.mul(15).div(1000));\n            } else if (i >= 3 && i <= 5) {\n                fissionRewardAmount[i] = (totalFissionRewardAmount.mul(10).div(1000));\n            } else if (i >= 6 && i <= 9) {\n                fissionRewardAmount[i] = (totalFissionRewardAmount.mul(5).div(1000));\n            } else {\n                fissionRewardAmount[i] = (totalFissionRewardAmount.mul(10).div(1000).div(40));\n            }\n        }\n\n        // \n        require(_totalRewardIsRight(currentStep-1), \"\");\n\n        // _batchTransfer();\n\n    }\n\n    // \n    // TODO:\n    function _FissionRank()\n        public\n        isFundingPeriod()\n    {\n        require(steps[currentStep].affmanArray.length != 0, \"\");\n        _quickSort(steps[currentStep].affmanArray, 0, steps[currentStep].affmanArray.length - 1);\n    }\n\n    // \n    function _totalRewardIsRight(uint _stepIndex) internal view returns(bool){\n        // \n        uint256 totalReward;\n\n        for(uint i = 0;i < steps[_stepIndex].reward.fissionReward.fissionRewardAmount.length; i++){\n            totalReward += steps[_stepIndex].reward.fissionReward.fissionRewardAmount[i];\n        }\n\n        return (totalReward == UintUtils.toWei(steps[_stepIndex].funding.raisedETH).mul(20).div(100));\n    }\n\n    // \n    // TODO:withdraw\n    // function _batchTransfer()\n    //     public\n    //     payable\n    // {\n    //     for(uint8 i = 0; i < steps[currentStep-1].reward.fissionReward.fissionRewardList.length; i++){\n    //         // \n    //         address(uint160(steps[currentStep-1].reward.fissionReward.fissionRewardList[i])).\n    //         transfer(steps[currentStep-1].reward.fissionReward.fissionRewardAmount[i]);\n    //     }\n\n    //     // \n    //     steps[currentStep-1].fissionRewardIsFinished = true;\n    // }\n\n    // TODO:\n    function _quickSort(Affman[] storage arr, uint left, uint right) internal {\n        uint i = left;\n        uint j = right;\n        uint pivot = arr[left + (right - left) / 2].affIncome;\n        while (i <= j) {\n            while (arr[i].affIncome < pivot) i++;\n            while (pivot < arr[j].affIncome) j--;\n            if (i <= j) {\n                (arr[i], arr[j]) = (arr[j], arr[i]);\n                i++;\n                j--;\n            }\n        }\n        if (left < j)\n            _quickSort(arr, left, j);\n        if (i < right)\n            _quickSort(arr, i, right);\n    }\n    // TODO:functiontoken\n\n}",
  "sourcePath": "/Users/a186r/dev/sourcecode/contracts/contract/contract/contracts/Resonance.sol",
  "compiler": {
    "name": "solc",
    "version": "0.5.2+commit.1df8f40c.Emscripten.clang"
  },
  "schemaVersion": "3.0.6",
  "updatedAt": "2019-05-18T11:01:06.433Z",
  "devdoc": {
    "methods": {}
  },
  "userdoc": {
    "methods": {}
  }
}