{
  "contractName": "StringUtils",
  "abi": [
    {
      "constant": true,
      "inputs": [
        {
          "name": "_addr",
          "type": "address"
        }
      ],
      "name": "addr2string",
      "outputs": [
        {
          "name": "",
          "type": "string"
        }
      ],
      "payable": false,
      "stateMutability": "pure",
      "type": "function",
      "signature": "0xbcffbe68"
    },
    {
      "constant": true,
      "inputs": [
        {
          "name": "_b",
          "type": "bytes32"
        }
      ],
      "name": "bytes32Tostring",
      "outputs": [
        {
          "name": "",
          "type": "string"
        }
      ],
      "payable": false,
      "stateMutability": "pure",
      "type": "function",
      "signature": "0x5da65da5"
    },
    {
      "constant": true,
      "inputs": [
        {
          "name": "str",
          "type": "string"
        },
        {
          "name": "startIndex",
          "type": "uint256"
        },
        {
          "name": "endIndex",
          "type": "uint256"
        }
      ],
      "name": "substring",
      "outputs": [
        {
          "name": "",
          "type": "string"
        }
      ],
      "payable": false,
      "stateMutability": "pure",
      "type": "function",
      "signature": "0x1dcd9b55"
    },
    {
      "constant": true,
      "inputs": [
        {
          "name": "a",
          "type": "string"
        },
        {
          "name": "b",
          "type": "string"
        }
      ],
      "name": "compareString",
      "outputs": [
        {
          "name": "",
          "type": "bool"
        }
      ],
      "payable": false,
      "stateMutability": "pure",
      "type": "function",
      "signature": "0x75b83187"
    }
  ],
  "bytecode": "0x610a8e610030600b82828239805160001a6073146000811461002057610022565bfe5b5030600052607381538281f3fe7300000000000000000000000000000000000000003014608060405260043610610073576000357c0100000000000000000000000000000000000000000000000000000000900480631dcd9b55146100785780635da65da5146101c057806375b8318714610267578063bcffbe68146103d1575b600080fd5b6101456004803603606081101561008e57600080fd5b81019080803590602001906401000000008111156100ab57600080fd5b8201836020820111156100bd57600080fd5b803590602001918460018302840111640100000000831117156100df57600080fd5b91908080601f016020809104026020016040519081016040528093929190818152602001838380828437600081840152601f19601f820116905080830192505050505050509192919290803590602001909291908035906020019092919050505061048e565b6040518080602001828103825283818151815260200191508051906020019080838360005b8381101561018557808201518184015260208101905061016a565b50505050905090810190601f1680156101b25780820380516001836020036101000a031916815260200191505b509250505060405180910390f35b6101ec600480360360208110156101d657600080fd5b810190808035906020019092919050505061058f565b6040518080602001828103825283818151815260200191508051906020019080838360005b8381101561022c578082015181840152602081019050610211565b50505050905090810190601f1680156102595780820380516001836020036101000a031916815260200191505b509250505060405180910390f35b6103b76004803603604081101561027d57600080fd5b810190808035906020019064010000000081111561029a57600080fd5b8201836020820111156102ac57600080fd5b803590602001918460018302840111640100000000831117156102ce57600080fd5b91908080601f016020809104026020016040519081016040528093929190818152602001838380828437600081840152601f19601f8201169050808301925050505050505091929192908035906020019064010000000081111561033157600080fd5b82018360208201111561034357600080fd5b8035906020019184600183028401116401000000008311171561036557600080fd5b91908080601f016020809104026020016040519081016040528093929190818152602001838380828437600081840152601f19601f820116905080830192505050505050509192919290505050610929565b604051808215151515815260200191505060405180910390f35b610413600480360360208110156103e757600080fd5b81019080803573ffffffffffffffffffffffffffffffffffffffff169060200190929190505050610a31565b6040518080602001828103825283818151815260200191508051906020019080838360005b83811015610453578082015181840152602081019050610438565b50505050905090810190601f1680156104805780820380516001836020036101000a031916815260200191505b509250505060405180910390f35b60608084905060608484036040519080825280601f01601f1916602001820160405280156104cb5781602001600182028038833980820191505090505b50905060008590505b848110156105825782818151811015156104ea57fe5b9060200101517f010000000000000000000000000000000000000000000000000000000000000090047f0100000000000000000000000000000000000000000000000000000000000000028287830381518110151561054557fe5b9060200101907effffffffffffffffffffffffffffffffffffffffffffffffffffffffffffff1916908160001a90535080806001019150506104d4565b5080925050509392505050565b6060806040805190810160405280601081526020017f30313233343536373839616263646566000000000000000000000000000000008152509050606060336040519080825280601f01601f1916602001820160405280156106005781602001600182028038833980820191505090505b5090507f300000000000000000000000000000000000000000000000000000000000000081600081518110151561063357fe5b9060200101907effffffffffffffffffffffffffffffffffffffffffffffffffffffffffffff1916908160001a9053507f780000000000000000000000000000000000000000000000000000000000000081600181518110151561069357fe5b9060200101907effffffffffffffffffffffffffffffffffffffffffffffffffffffffffffff1916908160001a90535060008090505b601481101561091e5782600486600c84016020811015156106e657fe5b1a7f0100000000000000000000000000000000000000000000000000000000000000027effffffffffffffffffffffffffffffffffffffffffffffffffffffffffffff1916908060020a82049150507f0100000000000000000000000000000000000000000000000000000000000000900460ff1681518110151561076757fe5b9060200101517f010000000000000000000000000000000000000000000000000000000000000090047f01000000000000000000000000000000000000000000000000000000000000000282600283026002018151811015156107c657fe5b9060200101907effffffffffffffffffffffffffffffffffffffffffffffffffffffffffffff1916908160001a90535082600f7f01000000000000000000000000000000000000000000000000000000000000000286600c840160208110151561082c57fe5b1a7f010000000000000000000000000000000000000000000000000000000000000002167f0100000000000000000000000000000000000000000000000000000000000000900460ff1681518110151561088257fe5b9060200101517f010000000000000000000000000000000000000000000000000000000000000090047f01000000000000000000000000000000000000000000000000000000000000000282600283026003018151811015156108e157fe5b9060200101907effffffffffffffffffffffffffffffffffffffffffffffffffffffffffffff1916908160001a90535080806001019150506106c9565b508092505050919050565b60008151835114151561093f5760009050610a2b565b816040516020018082805190602001908083835b6020831015156109785780518252602082019150602081019050602083039250610953565b6001836020036101000a03801982511681845116808217855250505050505090500191505060405160208183030381529060405280519060200120836040516020018082805190602001908083835b6020831015156109ec57805182526020820191506020810190506020830392506109c7565b6001836020036101000a038019825116818451168082178552505050505050905001915050604051602081830303815290604052805190602001201490505b92915050565b606060008273ffffffffffffffffffffffffffffffffffffffff166001029050610a5a8161058f565b91505091905056fea165627a7a72305820aaf3a058232b0f8d819286afdd7bc722cad71e4b6680d4b344bf7b86d9bf84bf0029",
  "source": "pragma solidity >=0.4.21 <0.6.0;\n\nlibrary StringUtils{\n\n    // 地址转换为String\n    function addr2string(address _addr) public pure returns(string memory) {\n        bytes32 value = bytes32(uint256(_addr));\n        return bytes32Tostring(value);\n    }\n\n    function bytes32Tostring(bytes32 _b) public pure returns(string memory) {\n        bytes memory alphabet = \"0123456789abcdef\";\n        bytes memory str = new bytes(51);\n        str[0] = '0';\n        str[1] = 'x';\n        for (uint i = 0; i < 20; i++) {\n            str[2+i*2] = alphabet[uint8(_b[i + 12] >> 4)];\n            str[3+i*2] = alphabet[uint8(_b[i + 12] & 0x0f)];\n        }\n        return string(str);\n    }\n\n    // 截取string\n    function substring(string memory str, uint startIndex, uint endIndex) public pure returns (string memory) {\n        bytes memory strBytes = bytes(str);\n        bytes memory result = new bytes(endIndex-startIndex);\n        for(uint i = startIndex; i < endIndex; i++) {\n            result[i-startIndex] = strBytes[i];\n        }\n        return string(result);\n    }\n\n    // 比较两个字符串是否相等\n    function compareString(string memory a, string memory b) public pure returns(bool){\n        if(bytes(a).length != bytes(b).length){\n            return false;\n        }else{\n            return keccak256(abi.encodePacked((a))) == keccak256(abi.encodePacked(b));\n        }\n    }\n}",
  "sourcePath": "/Users/a186r/dev/sourcecode/contracts/contract/contract/contracts/StringUtils.sol",
  "compiler": {
    "name": "solc",
    "version": "0.5.2+commit.1df8f40c.Emscripten.clang"
  },
  "schemaVersion": "3.0.6",
  "updatedAt": "2019-05-24T10:19:19.483Z",
  "devdoc": {
    "methods": {}
  },
  "userdoc": {
    "methods": {}
  }
}