{
  "contractName": "StringUtils",
  "abi": [
    {
      "constant": true,
      "inputs": [
        {
          "name": "_addr",
          "type": "address"
        }
      ],
      "name": "addr2string",
      "outputs": [
        {
          "name": "",
          "type": "string"
        }
      ],
      "payable": false,
      "stateMutability": "pure",
      "type": "function"
    },
    {
      "constant": true,
      "inputs": [
        {
          "name": "_b",
          "type": "bytes32"
        }
      ],
      "name": "bytes32Tostring",
      "outputs": [
        {
          "name": "",
          "type": "string"
        }
      ],
      "payable": false,
      "stateMutability": "pure",
      "type": "function"
    },
    {
      "constant": true,
      "inputs": [
        {
          "name": "str",
          "type": "string"
        },
        {
          "name": "startIndex",
          "type": "uint256"
        },
        {
          "name": "endIndex",
          "type": "uint256"
        }
      ],
      "name": "substring",
      "outputs": [
        {
          "name": "",
          "type": "string"
        }
      ],
      "payable": false,
      "stateMutability": "pure",
      "type": "function"
    },
    {
      "constant": true,
      "inputs": [
        {
          "name": "a",
          "type": "string"
        },
        {
          "name": "b",
          "type": "string"
        }
      ],
      "name": "compareString",
      "outputs": [
        {
          "name": "",
          "type": "bool"
        }
      ],
      "payable": false,
      "stateMutability": "pure",
      "type": "function"
    }
  ],
  "bytecode": "0x61070b610030600b82828239805160001a6073146000811461002057610022565bfe5b5030600052607381538281f3fe7300000000000000000000000000000000000000003014608060405260043610610072577c010000000000000000000000000000000000000000000000000000000060003504631dcd9b5581146100775780635da65da51461019757806375b83187146101b4578063bcffbe68146102f5575b600080fd5b6101226004803603606081101561008d57600080fd5b8101906020810181356401000000008111156100a857600080fd5b8201836020820111156100ba57600080fd5b803590602001918460018302840111640100000000831117156100dc57600080fd5b91908080601f0160208091040260200160405190810160405280939291908181526020018383808284376000920191909152509295505082359350505060200135610328565b6040805160208082528351818301528351919283929083019185019080838360005b8381101561015c578181015183820152602001610144565b50505050905090810190601f1680156101895780820380516001836020036101000a031916815260200191505b509250505060405180910390f35b610122600480360360208110156101ad57600080fd5b50356103c5565b6102e1600480360360408110156101ca57600080fd5b8101906020810181356401000000008111156101e557600080fd5b8201836020820111156101f757600080fd5b8035906020019184600183028401116401000000008311171561021957600080fd5b91908080601f016020809104026020016040519081016040528093929190818152602001838380828437600092019190915250929594936020810193503591505064010000000081111561026c57600080fd5b82018360208201111561027e57600080fd5b803590602001918460018302840111640100000000831117156102a057600080fd5b91908080601f0160208091040260200160405190810160405280939291908181526020018383808284376000920191909152509295506105bc945050505050565b604080519115158252519081900360200190f35b6101226004803603602081101561030b57600080fd5b503573ffffffffffffffffffffffffffffffffffffffff166106b6565b60608084905060608484036040519080825280601f01601f19166020018201604052801561035d576020820181803883390190505b509050845b848110156103bb57828181518110151561037857fe5b90602001015160f860020a900460f860020a028287830381518110151561039b57fe5b906020010190600160f860020a031916908160001a905350600101610362565b5095945050505050565b604080518082018252601081527f303132333435363738396162636465660000000000000000000000000000000060208201528151603380825260608281019094528391906020820181803883390190505090507f300000000000000000000000000000000000000000000000000000000000000081600081518110151561044957fe5b906020010190600160f860020a031916908160001a9053507f780000000000000000000000000000000000000000000000000000000000000081600181518110151561049157fe5b906020010190600160f860020a031916908160001a90535060005b60148110156105b45782600486600c8401602081106104c757fe5b1a60f860020a02600160f860020a031916908060020a820491505060f860020a900460ff168151811015156104f857fe5b90602001015160f860020a900460f860020a02828260020260020181518110151561051f57fe5b906020010190600160f860020a031916908160001a9053508285600c83016020811061054757fe5b1a60f860020a02600f60f860020a021660f860020a900460ff1681518110151561056d57fe5b90602001015160f860020a900460f860020a02828260020260030181518110151561059457fe5b906020010190600160f860020a031916908160001a9053506001016104ac565b509392505050565b80518251600091146105d0575060006106b0565b816040516020018082805190602001908083835b602083106106035780518252601f1990920191602091820191016105e4565b6001836020036101000a03801982511681845116808217855250505050505090500191505060405160208183030381529060405280519060200120836040516020018082805190602001908083835b602083106106715780518252601f199092019160209182019101610652565b6001836020036101000a038019825116818451168082178552505050505050905001915050604051602081830303815290604052805190602001201490505b92915050565b606073ffffffffffffffffffffffffffffffffffffffff82166106d8816103c5565b939250505056fea165627a7a72305820d490a3af09712296036a42e681a0a9d9df3098a3851d255894e858dac0aac1460029",
  "source": "pragma solidity >=0.4.21 <0.6.0;\n\nlibrary StringUtils{\n\n    // 地址转换为String\n    function addr2string(address _addr) public pure returns(string memory) {\n        bytes32 value = bytes32(uint256(_addr));\n        return bytes32Tostring(value);\n    }\n\n    function bytes32Tostring(bytes32 _b) public pure returns(string memory) {\n        bytes memory alphabet = \"0123456789abcdef\";\n        bytes memory str = new bytes(51);\n        str[0] = '0';\n        str[1] = 'x';\n        for (uint i = 0; i < 20; i++) {\n            str[2+i*2] = alphabet[uint8(_b[i + 12] >> 4)];\n            str[3+i*2] = alphabet[uint8(_b[i + 12] & 0x0f)];\n        }\n        return string(str);\n    }\n\n    // 截取string\n    function substring(string memory str, uint startIndex, uint endIndex) public pure returns (string memory) {\n        bytes memory strBytes = bytes(str);\n        bytes memory result = new bytes(endIndex-startIndex);\n        for(uint i = startIndex; i < endIndex; i++) {\n            result[i-startIndex] = strBytes[i];\n        }\n        return string(result);\n    }\n\n    // 比较两个字符串是否相等\n    function compareString(string memory a, string memory b) public pure returns(bool){\n        if(bytes(a).length != bytes(b).length){\n            return false;\n        }else{\n            return keccak256(abi.encodePacked((a))) == keccak256(abi.encodePacked(b));\n        }\n    }\n}",
  "sourcePath": "/home/aewalle/contract/contract/contracts/StringUtils.sol",
  "compiler": {
    "name": "solc",
    "version": "0.5.2+commit.1df8f40c.Emscripten.clang"
  },
  "schemaVersion": "3.0.9",
  "updatedAt": "2019-05-31T04:31:23.861Z",
  "devdoc": {
    "methods": {}
  },
  "userdoc": {
    "methods": {}
  }
}