{
  "contractName": "UintUtils",
  "abi": [
    {
      "constant": true,
      "inputs": [
        {
          "name": "_amount",
          "type": "uint256"
        }
      ],
      "name": "toWei",
      "outputs": [
        {
          "name": "",
          "type": "uint256"
        }
      ],
      "payable": false,
      "stateMutability": "pure",
      "type": "function"
    }
  ],
  "bytecode": "0x60b961002f600b82828239805160001a6073146000811461001f57610021565bfe5b5030600052607381538281f3fe7300000000000000000000000000000000000000003014608060405260043610604f577c01000000000000000000000000000000000000000000000000000000006000350463669dafe881146054575b600080fd5b606e60048036036020811015606857600080fd5b50356080565b60408051918252519081900360200190f35b670de0b6b3a7640000029056fea165627a7a723058205d648d19e6bb5e1b26a0c642d0d6f97d1f5414f04e42eadf66aacc69adfcc9f60029",
  "source": "pragma solidity >=0.4.21 <0.6.0;\n\nimport \"../node_modules/openzeppelin-solidity/contracts/math/SafeMath.sol\";\n\nlibrary UintUtils{\n\n    using SafeMath for uint256;\n\n    function toWei(uint256 _amount) public pure returns(uint256) {\n        return _amount*10**18;\n    }\n\n}",
  "sourcePath": "/root/contract/contract/contracts/UintUtils.sol",
  "compiler": {
    "name": "solc",
    "version": "0.5.2+commit.1df8f40c.Emscripten.clang"
  },
  "schemaVersion": "3.0.10",
  "updatedAt": "2019-05-31T11:23:48.146Z",
  "devdoc": {
    "methods": {}
  },
  "userdoc": {
    "methods": {}
  }
}