{
  "contractName": "UintUtils",
  "abi": [
    {
      "constant": true,
      "inputs": [
        {
          "name": "_amount",
          "type": "uint256"
        }
      ],
      "name": "toWei",
      "outputs": [
        {
          "name": "",
          "type": "uint256"
        }
      ],
      "payable": false,
      "stateMutability": "pure",
      "type": "function"
    }
  ],
  "bytecode": "0x60ae61002f600b82828239805160001a6073146000811461001f57610021565bfe5b5030600052607381538281f300730000000000000000000000000000000000000000301460806040526004361060555763ffffffff7c0100000000000000000000000000000000000000000000000000000000600035041663669dafe88114605a575b600080fd5b60636004356075565b60408051918252519081900360200190f35b670de0b6b3a764000002905600a165627a7a723058208919c947aab306d3c6de824f997f330d6355dcbcdcc62f6b86b0aa7b44179f830029",
  "source": "pragma solidity >=0.4.21 <0.6.0;\n\nimport \"../node_modules/openzeppelin-solidity/contracts/math/SafeMath.sol\";\n\nlibrary UintUtils{\n\n    using SafeMath for uint256;\n\n    function toWei(uint256 _amount) public pure returns(uint256) {\n        return _amount*10**18;\n    }\n\n}",
  "sourcePath": "/root/contract/contract/contracts/UintUtils.sol",
  "compiler": {
    "name": "solc",
    "version": "0.4.24+commit.e67f0147.Emscripten.clang"
  },
  "schemaVersion": "3.0.10",
  "updatedAt": "2019-06-03T22:57:43.976Z",
  "devdoc": {
    "methods": {}
  },
  "userdoc": {
    "methods": {}
  }
}