{
  "contractName": "UintUtils",
  "abi": [
    {
      "constant": true,
      "inputs": [
        {
          "name": "_amount",
          "type": "uint256"
        }
      ],
      "name": "toWei",
      "outputs": [
        {
          "name": "",
          "type": "uint256"
        }
      ],
      "payable": false,
      "stateMutability": "pure",
      "type": "function"
    },
    {
      "constant": true,
      "inputs": [
        {
          "name": "x",
          "type": "uint256"
        }
      ],
      "name": "toBytes",
      "outputs": [
        {
          "name": "b",
          "type": "bytes"
        }
      ],
      "payable": false,
      "stateMutability": "pure",
      "type": "function"
    }
  ],
  "bytecode": "0x610185610030600b82828239805160001a6073146000811461002057610022565bfe5b5030600052607381538281f3fe730000000000000000000000000000000000000000301460806040526004361061005c577c01000000000000000000000000000000000000000000000000000000006000350463669dafe88114610061578063775a8f5e14610090575b600080fd5b61007e6004803603602081101561007757600080fd5b5035610122565b60408051918252519081900360200190f35b6100ad600480360360208110156100a657600080fd5b503561012f565b6040805160208082528351818301528351919283929083019185019080838360005b838110156100e75781810151838201526020016100cf565b50505050905090810190601f1680156101145780820380516001836020036101000a031916815260200191505b509250505060405180910390f35b670de0b6b3a76400000290565b6040805160208082528183019092526060916020820181803883395050506020810192909252509056fea165627a7a723058204442500ff1ec5155ed11d8cceb10b6189bf3725505edb832642a4dd180eeec8f0029",
  "source": "pragma solidity >=0.4.21 <0.6.0;\n\nimport \"../node_modules/openzeppelin-solidity/contracts/math/SafeMath.sol\";\n\nlibrary UintUtils{\n\n    using SafeMath for uint256;\n\n    function toWei(uint256 _amount) public pure returns(uint256) {\n        return _amount*10**18;\n    }\n\n    function toBytes(uint256 x) public pure returns (bytes memory b) {\n        b = new bytes(32);\n        assembly { mstore(add(b, 32), x) }\n    }\n\n}",
  "sourcePath": "/root/contract/contract/contracts/UintUtils.sol",
  "compiler": {
    "name": "solc",
    "version": "0.5.2+commit.1df8f40c.Emscripten.clang"
  },
  "schemaVersion": "3.0.10",
  "updatedAt": "2019-05-31T16:20:05.241Z",
  "devdoc": {
    "methods": {}
  },
  "userdoc": {
    "methods": {}
  }
}